{
	"data": {
		"bytecode": {
			"linkReferences": {},
			"object": "608060405234801561001057600080fd5b50610a1f806100206000396000f3fe608060405234801561001057600080fd5b506004361061004c5760003560e01c806338636e9a14610051578063482a61931461007a57806376977a3a1461009a578063fc2525ab146100ba575b600080fd5b61006461005f3660046106cb565b6100db565b60405161007191906108e3565b60405180910390f35b61008d610088366004610733565b610111565b60405161007191906108b1565b6100ad6100a8366004610631565b6101bf565b6040516100719190610967565b6100cd6100c8366004610631565b610211565b60405161007192919061097b565b6060600080606060006100f08989898961026e565b93509350935093506101048484848461038b565b9998505050505050505050565b6000806000808480602001905181019061012b919061068e565b9250925092506000868051906020012060405160200161014b919061086e565b6040516020818303038152906040528051906020012090506001818386866040516000815260200160405260405161018694939291906108c5565b6020604051602081039080840390855afa1580156101a8573d6000803e3d6000fd5b505050602060405103519450505050505b92915050565b6001600160a01b03831660009081526020819052604080822090516101e79085908590610842565b908152604051908190036020019020546001600160401b03600160401b9091041690509392505050565b6001600160a01b03831660009081526020819052604080822090518291829161023d9087908790610842565b908152604051908190036020019020546001600160401b038082169450600160401b90910416915050935093915050565b60008060606000806102e989898080601f01602080910402602001604051908101604052809392919081815260200183838082843760009201919091525050604080516020601f8d018190048102820181019092528b815292508b91508a908190840183828082843760009201919091525061011192505050565b90506060600081816102fd8c8e018e610793565b93509350935093506040516020016103149061089f565b604051602081830303815290604052805190602001208460405160200161033b9190610852565b60405160208183030381529060405280519060200120146103775760405162461bcd60e51b815260040161036e90610930565b60405180910390fd5b939c919b5099509197509095505050505050565b6001600160a01b038416600090815260208190526040808220905160609291906103b6908690610852565b90815260405190819003602001902080549091506001600160401b039081169086161180156103f1575042610e1001856001600160401b0316105b801561040557506001600160a01b03861615155b15610504576040518060400160405280866001600160401b03168152602001846001600160401b0316815250600080886001600160a01b03166001600160a01b03168152602001908152602001600020856040516104639190610852565b9081526040516020918190038201812083518154949093015167ffffffffffffffff199094166001600160401b03938416176fffffffffffffffff00000000000000001916600160401b93909416929092029290921790556001600160a01b038716907f4d3f5aa96531b83f5389343ecd20cd8ac1fba33b64634c1b547a4d85d31540d3906104f7908790899088906108fd565b60405180910390a261054d565b80546040517f7d218dba44a461fb2d7b5fe792128439313d3c48c86d4c3e4981a8eaca831a7691610544916001600160401b039091169088904290610995565b60405180910390a15b5091949350505050565b60008083601f840112610568578182fd5b5081356001600160401b0381111561057e578182fd5b60208301915083602082850101111561059657600080fd5b9250929050565b600082601f8301126105ad578081fd5b81356001600160401b03808211156105c3578283fd5b604051601f8301601f1916810160200182811182821017156105e3578485fd5b6040528281529250828483016020018610156105fe57600080fd5b8260208601602083013760006020848301015250505092915050565b80356001600160401b03811681146101b957600080fd5b600080600060408486031215610645578283fd5b83356001600160a01b038116811461065b578384fd5b925060208401356001600160401b03811115610675578283fd5b61068186828701610557565b9497909650939450505050565b6000806000606084860312156106a2578283fd5b8351925060208401519150604084015160ff811681146106c0578182fd5b809150509250925092565b600080600080604085870312156106e0578081fd5b84356001600160401b03808211156106f6578283fd5b61070288838901610557565b9096509450602087013591508082111561071a578283fd5b5061072787828801610557565b95989497509550505050565b60008060408385031215610745578182fd5b82356001600160401b038082111561075b578384fd5b6107678683870161059d565b9350602085013591508082111561077c578283fd5b506107898582860161059d565b9150509250929050565b600080600080608085870312156107a8578384fd5b84356001600160401b03808211156107be578586fd5b6107ca8883890161059d565b95506107d9886020890161061a565b945060408701359150808211156107ee578384fd5b506107fb8782880161059d565b92505061080b866060870161061a565b905092959194509250565b6000815180845261082e8160208601602086016109b9565b601f01601f19169290920160200192915050565b6000828483379101908152919050565b600082516108648184602087016109b9565b9190910192915050565b7f19457468657265756d205369676e6564204d6573736167653a0a3332000000008152601c810191909152603c0190565b6570726963657360d01b815260060190565b6001600160a01b0391909116815260200190565b93845260ff9290921660208401526040830152606082015260800190565b6000602082526108f66020830184610816565b9392505050565b6000606082526109106060830186610816565b6001600160401b0394851660208401529290931660409091015292915050565b6020808252601d908201527f4b696e64206f662064617461206d757374206265202770726963657327000000604082015260600190565b6001600160401b0391909116815260200190565b6001600160401b0392831681529116602082015260400190565b6001600160401b039384168152919092166020820152604081019190915260600190565b60005b838110156109d45781810151838201526020016109bc565b838111156109e3576000848401525b5050505056fea26469706673582212202339410683b21039657eaacccf48339182cbd22fbbebd40056b9c8739f27427964736f6c634300060c0033",
			"opcodes": "PUSH1 0x80 PUSH1 0x40 MSTORE CALLVALUE DUP1 ISZERO PUSH2 0x10 JUMPI PUSH1 0x0 DUP1 REVERT JUMPDEST POP PUSH2 0xA1F DUP1 PUSH2 0x20 PUSH1 0x0 CODECOPY PUSH1 0x0 RETURN INVALID PUSH1 0x80 PUSH1 0x40 MSTORE CALLVALUE DUP1 ISZERO PUSH2 0x10 JUMPI PUSH1 0x0 DUP1 REVERT JUMPDEST POP PUSH1 0x4 CALLDATASIZE LT PUSH2 0x4C JUMPI PUSH1 0x0 CALLDATALOAD PUSH1 0xE0 SHR DUP1 PUSH4 0x38636E9A EQ PUSH2 0x51 JUMPI DUP1 PUSH4 0x482A6193 EQ PUSH2 0x7A JUMPI DUP1 PUSH4 0x76977A3A EQ PUSH2 0x9A JUMPI DUP1 PUSH4 0xFC2525AB EQ PUSH2 0xBA JUMPI JUMPDEST PUSH1 0x0 DUP1 REVERT JUMPDEST PUSH2 0x64 PUSH2 0x5F CALLDATASIZE PUSH1 0x4 PUSH2 0x6CB JUMP JUMPDEST PUSH2 0xDB JUMP JUMPDEST PUSH1 0x40 MLOAD PUSH2 0x71 SWAP2 SWAP1 PUSH2 0x8E3 JUMP JUMPDEST PUSH1 0x40 MLOAD DUP1 SWAP2 SUB SWAP1 RETURN JUMPDEST PUSH2 0x8D PUSH2 0x88 CALLDATASIZE PUSH1 0x4 PUSH2 0x733 JUMP JUMPDEST PUSH2 0x111 JUMP JUMPDEST PUSH1 0x40 MLOAD PUSH2 0x71 SWAP2 SWAP1 PUSH2 0x8B1 JUMP JUMPDEST PUSH2 0xAD PUSH2 0xA8 CALLDATASIZE PUSH1 0x4 PUSH2 0x631 JUMP JUMPDEST PUSH2 0x1BF JUMP JUMPDEST PUSH1 0x40 MLOAD PUSH2 0x71 SWAP2 SWAP1 PUSH2 0x967 JUMP JUMPDEST PUSH2 0xCD PUSH2 0xC8 CALLDATASIZE PUSH1 0x4 PUSH2 0x631 JUMP JUMPDEST PUSH2 0x211 JUMP JUMPDEST PUSH1 0x40 MLOAD PUSH2 0x71 SWAP3 SWAP2 SWAP1 PUSH2 0x97B JUMP JUMPDEST PUSH1 0x60 PUSH1 0x0 DUP1 PUSH1 0x60 PUSH1 0x0 PUSH2 0xF0 DUP10 DUP10 DUP10 DUP10 PUSH2 0x26E JUMP JUMPDEST SWAP4 POP SWAP4 POP SWAP4 POP SWAP4 POP PUSH2 0x104 DUP5 DUP5 DUP5 DUP5 PUSH2 0x38B JUMP JUMPDEST SWAP10 SWAP9 POP POP POP POP POP POP POP POP POP JUMP JUMPDEST PUSH1 0x0 DUP1 PUSH1 0x0 DUP1 DUP5 DUP1 PUSH1 0x20 ADD SWAP1 MLOAD DUP2 ADD SWAP1 PUSH2 0x12B SWAP2 SWAP1 PUSH2 0x68E JUMP JUMPDEST SWAP3 POP SWAP3 POP SWAP3 POP PUSH1 0x0 DUP7 DUP1 MLOAD SWAP1 PUSH1 0x20 ADD KECCAK256 PUSH1 0x40 MLOAD PUSH1 0x20 ADD PUSH2 0x14B SWAP2 SWAP1 PUSH2 0x86E JUMP JUMPDEST PUSH1 0x40 MLOAD PUSH1 0x20 DUP2 DUP4 SUB SUB DUP2 MSTORE SWAP1 PUSH1 0x40 MSTORE DUP1 MLOAD SWAP1 PUSH1 0x20 ADD KECCAK256 SWAP1 POP PUSH1 0x1 DUP2 DUP4 DUP7 DUP7 PUSH1 0x40 MLOAD PUSH1 0x0 DUP2 MSTORE PUSH1 0x20 ADD PUSH1 0x40 MSTORE PUSH1 0x40 MLOAD PUSH2 0x186 SWAP5 SWAP4 SWAP3 SWAP2 SWAP1 PUSH2 0x8C5 JUMP JUMPDEST PUSH1 0x20 PUSH1 0x40 MLOAD PUSH1 0x20 DUP2 SUB SWAP1 DUP1 DUP5 SUB SWAP1 DUP6 GAS STATICCALL ISZERO DUP1 ISZERO PUSH2 0x1A8 JUMPI RETURNDATASIZE PUSH1 0x0 DUP1 RETURNDATACOPY RETURNDATASIZE PUSH1 0x0 REVERT JUMPDEST POP POP POP PUSH1 0x20 PUSH1 0x40 MLOAD SUB MLOAD SWAP5 POP POP POP POP POP JUMPDEST SWAP3 SWAP2 POP POP JUMP JUMPDEST PUSH1 0x1 PUSH1 0x1 PUSH1 0xA0 SHL SUB DUP4 AND PUSH1 0x0 SWAP1 DUP2 MSTORE PUSH1 0x20 DUP2 SWAP1 MSTORE PUSH1 0x40 DUP1 DUP3 KECCAK256 SWAP1 MLOAD PUSH2 0x1E7 SWAP1 DUP6 SWAP1 DUP6 SWAP1 PUSH2 0x842 JUMP JUMPDEST SWAP1 DUP2 MSTORE PUSH1 0x40 MLOAD SWAP1 DUP2 SWAP1 SUB PUSH1 0x20 ADD SWAP1 KECCAK256 SLOAD PUSH1 0x1 PUSH1 0x1 PUSH1 0x40 SHL SUB PUSH1 0x1 PUSH1 0x40 SHL SWAP1 SWAP2 DIV AND SWAP1 POP SWAP4 SWAP3 POP POP POP JUMP JUMPDEST PUSH1 0x1 PUSH1 0x1 PUSH1 0xA0 SHL SUB DUP4 AND PUSH1 0x0 SWAP1 DUP2 MSTORE PUSH1 0x20 DUP2 SWAP1 MSTORE PUSH1 0x40 DUP1 DUP3 KECCAK256 SWAP1 MLOAD DUP3 SWAP2 DUP3 SWAP2 PUSH2 0x23D SWAP1 DUP8 SWAP1 DUP8 SWAP1 PUSH2 0x842 JUMP JUMPDEST SWAP1 DUP2 MSTORE PUSH1 0x40 MLOAD SWAP1 DUP2 SWAP1 SUB PUSH1 0x20 ADD SWAP1 KECCAK256 SLOAD PUSH1 0x1 PUSH1 0x1 PUSH1 0x40 SHL SUB DUP1 DUP3 AND SWAP5 POP PUSH1 0x1 PUSH1 0x40 SHL SWAP1 SWAP2 DIV AND SWAP2 POP POP SWAP4 POP SWAP4 SWAP2 POP POP JUMP JUMPDEST PUSH1 0x0 DUP1 PUSH1 0x60 PUSH1 0x0 DUP1 PUSH2 0x2E9 DUP10 DUP10 DUP1 DUP1 PUSH1 0x1F ADD PUSH1 0x20 DUP1 SWAP2 DIV MUL PUSH1 0x20 ADD PUSH1 0x40 MLOAD SWAP1 DUP2 ADD PUSH1 0x40 MSTORE DUP1 SWAP4 SWAP3 SWAP2 SWAP1 DUP2 DUP2 MSTORE PUSH1 0x20 ADD DUP4 DUP4 DUP1 DUP3 DUP5 CALLDATACOPY PUSH1 0x0 SWAP3 ADD SWAP2 SWAP1 SWAP2 MSTORE POP POP PUSH1 0x40 DUP1 MLOAD PUSH1 0x20 PUSH1 0x1F DUP14 ADD DUP2 SWAP1 DIV DUP2 MUL DUP3 ADD DUP2 ADD SWAP1 SWAP3 MSTORE DUP12 DUP2 MSTORE SWAP3 POP DUP12 SWAP2 POP DUP11 SWAP1 DUP2 SWAP1 DUP5 ADD DUP4 DUP3 DUP1 DUP3 DUP5 CALLDATACOPY PUSH1 0x0 SWAP3 ADD SWAP2 SWAP1 SWAP2 MSTORE POP PUSH2 0x111 SWAP3 POP POP POP JUMP JUMPDEST SWAP1 POP PUSH1 0x60 PUSH1 0x0 DUP2 DUP2 PUSH2 0x2FD DUP13 DUP15 ADD DUP15 PUSH2 0x793 JUMP JUMPDEST SWAP4 POP SWAP4 POP SWAP4 POP SWAP4 POP PUSH1 0x40 MLOAD PUSH1 0x20 ADD PUSH2 0x314 SWAP1 PUSH2 0x89F JUMP JUMPDEST PUSH1 0x40 MLOAD PUSH1 0x20 DUP2 DUP4 SUB SUB DUP2 MSTORE SWAP1 PUSH1 0x40 MSTORE DUP1 MLOAD SWAP1 PUSH1 0x20 ADD KECCAK256 DUP5 PUSH1 0x40 MLOAD PUSH1 0x20 ADD PUSH2 0x33B SWAP2 SWAP1 PUSH2 0x852 JUMP JUMPDEST PUSH1 0x40 MLOAD PUSH1 0x20 DUP2 DUP4 SUB SUB DUP2 MSTORE SWAP1 PUSH1 0x40 MSTORE DUP1 MLOAD SWAP1 PUSH1 0x20 ADD KECCAK256 EQ PUSH2 0x377 JUMPI PUSH1 0x40 MLOAD PUSH3 0x461BCD PUSH1 0xE5 SHL DUP2 MSTORE PUSH1 0x4 ADD PUSH2 0x36E SWAP1 PUSH2 0x930 JUMP JUMPDEST PUSH1 0x40 MLOAD DUP1 SWAP2 SUB SWAP1 REVERT JUMPDEST SWAP4 SWAP13 SWAP2 SWAP12 POP SWAP10 POP SWAP2 SWAP8 POP SWAP1 SWAP6 POP POP POP POP POP POP JUMP JUMPDEST PUSH1 0x1 PUSH1 0x1 PUSH1 0xA0 SHL SUB DUP5 AND PUSH1 0x0 SWAP1 DUP2 MSTORE PUSH1 0x20 DUP2 SWAP1 MSTORE PUSH1 0x40 DUP1 DUP3 KECCAK256 SWAP1 MLOAD PUSH1 0x60 SWAP3 SWAP2 SWAP1 PUSH2 0x3B6 SWAP1 DUP7 SWAP1 PUSH2 0x852 JUMP JUMPDEST SWAP1 DUP2 MSTORE PUSH1 0x40 MLOAD SWAP1 DUP2 SWAP1 SUB PUSH1 0x20 ADD SWAP1 KECCAK256 DUP1 SLOAD SWAP1 SWAP2 POP PUSH1 0x1 PUSH1 0x1 PUSH1 0x40 SHL SUB SWAP1 DUP2 AND SWAP1 DUP7 AND GT DUP1 ISZERO PUSH2 0x3F1 JUMPI POP TIMESTAMP PUSH2 0xE10 ADD DUP6 PUSH1 0x1 PUSH1 0x1 PUSH1 0x40 SHL SUB AND LT JUMPDEST DUP1 ISZERO PUSH2 0x405 JUMPI POP PUSH1 0x1 PUSH1 0x1 PUSH1 0xA0 SHL SUB DUP7 AND ISZERO ISZERO JUMPDEST ISZERO PUSH2 0x504 JUMPI PUSH1 0x40 MLOAD DUP1 PUSH1 0x40 ADD PUSH1 0x40 MSTORE DUP1 DUP7 PUSH1 0x1 PUSH1 0x1 PUSH1 0x40 SHL SUB AND DUP2 MSTORE PUSH1 0x20 ADD DUP5 PUSH1 0x1 PUSH1 0x1 PUSH1 0x40 SHL SUB AND DUP2 MSTORE POP PUSH1 0x0 DUP1 DUP9 PUSH1 0x1 PUSH1 0x1 PUSH1 0xA0 SHL SUB AND PUSH1 0x1 PUSH1 0x1 PUSH1 0xA0 SHL SUB AND DUP2 MSTORE PUSH1 0x20 ADD SWAP1 DUP2 MSTORE PUSH1 0x20 ADD PUSH1 0x0 KECCAK256 DUP6 PUSH1 0x40 MLOAD PUSH2 0x463 SWAP2 SWAP1 PUSH2 0x852 JUMP JUMPDEST SWAP1 DUP2 MSTORE PUSH1 0x40 MLOAD PUSH1 0x20 SWAP2 DUP2 SWAP1 SUB DUP3 ADD DUP2 KECCAK256 DUP4 MLOAD DUP2 SLOAD SWAP5 SWAP1 SWAP4 ADD MLOAD PUSH8 0xFFFFFFFFFFFFFFFF NOT SWAP1 SWAP5 AND PUSH1 0x1 PUSH1 0x1 PUSH1 0x40 SHL SUB SWAP4 DUP5 AND OR PUSH16 0xFFFFFFFFFFFFFFFF0000000000000000 NOT AND PUSH1 0x1 PUSH1 0x40 SHL SWAP4 SWAP1 SWAP5 AND SWAP3 SWAP1 SWAP3 MUL SWAP3 SWAP1 SWAP3 OR SWAP1 SSTORE PUSH1 0x1 PUSH1 0x1 PUSH1 0xA0 SHL SUB DUP8 AND SWAP1 PUSH32 0x4D3F5AA96531B83F5389343ECD20CD8AC1FBA33B64634C1B547A4D85D31540D3 SWAP1 PUSH2 0x4F7 SWAP1 DUP8 SWAP1 DUP10 SWAP1 DUP9 SWAP1 PUSH2 0x8FD JUMP JUMPDEST PUSH1 0x40 MLOAD DUP1 SWAP2 SUB SWAP1 LOG2 PUSH2 0x54D JUMP JUMPDEST DUP1 SLOAD PUSH1 0x40 MLOAD PUSH32 0x7D218DBA44A461FB2D7B5FE792128439313D3C48C86D4C3E4981A8EACA831A76 SWAP2 PUSH2 0x544 SWAP2 PUSH1 0x1 PUSH1 0x1 PUSH1 0x40 SHL SUB SWAP1 SWAP2 AND SWAP1 DUP9 SWAP1 TIMESTAMP SWAP1 PUSH2 0x995 JUMP JUMPDEST PUSH1 0x40 MLOAD DUP1 SWAP2 SUB SWAP1 LOG1 JUMPDEST POP SWAP2 SWAP5 SWAP4 POP POP POP POP JUMP JUMPDEST PUSH1 0x0 DUP1 DUP4 PUSH1 0x1F DUP5 ADD SLT PUSH2 0x568 JUMPI DUP2 DUP3 REVERT JUMPDEST POP DUP2 CALLDATALOAD PUSH1 0x1 PUSH1 0x1 PUSH1 0x40 SHL SUB DUP2 GT ISZERO PUSH2 0x57E JUMPI DUP2 DUP3 REVERT JUMPDEST PUSH1 0x20 DUP4 ADD SWAP2 POP DUP4 PUSH1 0x20 DUP3 DUP6 ADD ADD GT ISZERO PUSH2 0x596 JUMPI PUSH1 0x0 DUP1 REVERT JUMPDEST SWAP3 POP SWAP3 SWAP1 POP JUMP JUMPDEST PUSH1 0x0 DUP3 PUSH1 0x1F DUP4 ADD SLT PUSH2 0x5AD JUMPI DUP1 DUP2 REVERT JUMPDEST DUP2 CALLDATALOAD PUSH1 0x1 PUSH1 0x1 PUSH1 0x40 SHL SUB DUP1 DUP3 GT ISZERO PUSH2 0x5C3 JUMPI DUP3 DUP4 REVERT JUMPDEST PUSH1 0x40 MLOAD PUSH1 0x1F DUP4 ADD PUSH1 0x1F NOT AND DUP2 ADD PUSH1 0x20 ADD DUP3 DUP2 GT DUP3 DUP3 LT OR ISZERO PUSH2 0x5E3 JUMPI DUP5 DUP6 REVERT JUMPDEST PUSH1 0x40 MSTORE DUP3 DUP2 MSTORE SWAP3 POP DUP3 DUP5 DUP4 ADD PUSH1 0x20 ADD DUP7 LT ISZERO PUSH2 0x5FE JUMPI PUSH1 0x0 DUP1 REVERT JUMPDEST DUP3 PUSH1 0x20 DUP7 ADD PUSH1 0x20 DUP4 ADD CALLDATACOPY PUSH1 0x0 PUSH1 0x20 DUP5 DUP4 ADD ADD MSTORE POP POP POP SWAP3 SWAP2 POP POP JUMP JUMPDEST DUP1 CALLDATALOAD PUSH1 0x1 PUSH1 0x1 PUSH1 0x40 SHL SUB DUP2 AND DUP2 EQ PUSH2 0x1B9 JUMPI PUSH1 0x0 DUP1 REVERT JUMPDEST PUSH1 0x0 DUP1 PUSH1 0x0 PUSH1 0x40 DUP5 DUP7 SUB SLT ISZERO PUSH2 0x645 JUMPI DUP3 DUP4 REVERT JUMPDEST DUP4 CALLDATALOAD PUSH1 0x1 PUSH1 0x1 PUSH1 0xA0 SHL SUB DUP2 AND DUP2 EQ PUSH2 0x65B JUMPI DUP4 DUP5 REVERT JUMPDEST SWAP3 POP PUSH1 0x20 DUP5 ADD CALLDATALOAD PUSH1 0x1 PUSH1 0x1 PUSH1 0x40 SHL SUB DUP2 GT ISZERO PUSH2 0x675 JUMPI DUP3 DUP4 REVERT JUMPDEST PUSH2 0x681 DUP7 DUP3 DUP8 ADD PUSH2 0x557 JUMP JUMPDEST SWAP5 SWAP8 SWAP1 SWAP7 POP SWAP4 SWAP5 POP POP POP POP JUMP JUMPDEST PUSH1 0x0 DUP1 PUSH1 0x0 PUSH1 0x60 DUP5 DUP7 SUB SLT ISZERO PUSH2 0x6A2 JUMPI DUP3 DUP4 REVERT JUMPDEST DUP4 MLOAD SWAP3 POP PUSH1 0x20 DUP5 ADD MLOAD SWAP2 POP PUSH1 0x40 DUP5 ADD MLOAD PUSH1 0xFF DUP2 AND DUP2 EQ PUSH2 0x6C0 JUMPI DUP2 DUP3 REVERT JUMPDEST DUP1 SWAP2 POP POP SWAP3 POP SWAP3 POP SWAP3 JUMP JUMPDEST PUSH1 0x0 DUP1 PUSH1 0x0 DUP1 PUSH1 0x40 DUP6 DUP8 SUB SLT ISZERO PUSH2 0x6E0 JUMPI DUP1 DUP2 REVERT JUMPDEST DUP5 CALLDATALOAD PUSH1 0x1 PUSH1 0x1 PUSH1 0x40 SHL SUB DUP1 DUP3 GT ISZERO PUSH2 0x6F6 JUMPI DUP3 DUP4 REVERT JUMPDEST PUSH2 0x702 DUP9 DUP4 DUP10 ADD PUSH2 0x557 JUMP JUMPDEST SWAP1 SWAP7 POP SWAP5 POP PUSH1 0x20 DUP8 ADD CALLDATALOAD SWAP2 POP DUP1 DUP3 GT ISZERO PUSH2 0x71A JUMPI DUP3 DUP4 REVERT JUMPDEST POP PUSH2 0x727 DUP8 DUP3 DUP9 ADD PUSH2 0x557 JUMP JUMPDEST SWAP6 SWAP9 SWAP5 SWAP8 POP SWAP6 POP POP POP POP JUMP JUMPDEST PUSH1 0x0 DUP1 PUSH1 0x40 DUP4 DUP6 SUB SLT ISZERO PUSH2 0x745 JUMPI DUP2 DUP3 REVERT JUMPDEST DUP3 CALLDATALOAD PUSH1 0x1 PUSH1 0x1 PUSH1 0x40 SHL SUB DUP1 DUP3 GT ISZERO PUSH2 0x75B JUMPI DUP4 DUP5 REVERT JUMPDEST PUSH2 0x767 DUP7 DUP4 DUP8 ADD PUSH2 0x59D JUMP JUMPDEST SWAP4 POP PUSH1 0x20 DUP6 ADD CALLDATALOAD SWAP2 POP DUP1 DUP3 GT ISZERO PUSH2 0x77C JUMPI DUP3 DUP4 REVERT JUMPDEST POP PUSH2 0x789 DUP6 DUP3 DUP7 ADD PUSH2 0x59D JUMP JUMPDEST SWAP2 POP POP SWAP3 POP SWAP3 SWAP1 POP JUMP JUMPDEST PUSH1 0x0 DUP1 PUSH1 0x0 DUP1 PUSH1 0x80 DUP6 DUP8 SUB SLT ISZERO PUSH2 0x7A8 JUMPI DUP4 DUP5 REVERT JUMPDEST DUP5 CALLDATALOAD PUSH1 0x1 PUSH1 0x1 PUSH1 0x40 SHL SUB DUP1 DUP3 GT ISZERO PUSH2 0x7BE JUMPI DUP6 DUP7 REVERT JUMPDEST PUSH2 0x7CA DUP9 DUP4 DUP10 ADD PUSH2 0x59D JUMP JUMPDEST SWAP6 POP PUSH2 0x7D9 DUP9 PUSH1 0x20 DUP10 ADD PUSH2 0x61A JUMP JUMPDEST SWAP5 POP PUSH1 0x40 DUP8 ADD CALLDATALOAD SWAP2 POP DUP1 DUP3 GT ISZERO PUSH2 0x7EE JUMPI DUP4 DUP5 REVERT JUMPDEST POP PUSH2 0x7FB DUP8 DUP3 DUP9 ADD PUSH2 0x59D JUMP JUMPDEST SWAP3 POP POP PUSH2 0x80B DUP7 PUSH1 0x60 DUP8 ADD PUSH2 0x61A JUMP JUMPDEST SWAP1 POP SWAP3 SWAP6 SWAP2 SWAP5 POP SWAP3 POP JUMP JUMPDEST PUSH1 0x0 DUP2 MLOAD DUP1 DUP5 MSTORE PUSH2 0x82E DUP2 PUSH1 0x20 DUP7 ADD PUSH1 0x20 DUP7 ADD PUSH2 0x9B9 JUMP JUMPDEST PUSH1 0x1F ADD PUSH1 0x1F NOT AND SWAP3 SWAP1 SWAP3 ADD PUSH1 0x20 ADD SWAP3 SWAP2 POP POP JUMP JUMPDEST PUSH1 0x0 DUP3 DUP5 DUP4 CALLDATACOPY SWAP2 ADD SWAP1 DUP2 MSTORE SWAP2 SWAP1 POP JUMP JUMPDEST PUSH1 0x0 DUP3 MLOAD PUSH2 0x864 DUP2 DUP5 PUSH1 0x20 DUP8 ADD PUSH2 0x9B9 JUMP JUMPDEST SWAP2 SWAP1 SWAP2 ADD SWAP3 SWAP2 POP POP JUMP JUMPDEST PUSH32 0x19457468657265756D205369676E6564204D6573736167653A0A333200000000 DUP2 MSTORE PUSH1 0x1C DUP2 ADD SWAP2 SWAP1 SWAP2 MSTORE PUSH1 0x3C ADD SWAP1 JUMP JUMPDEST PUSH6 0x707269636573 PUSH1 0xD0 SHL DUP2 MSTORE PUSH1 0x6 ADD SWAP1 JUMP JUMPDEST PUSH1 0x1 PUSH1 0x1 PUSH1 0xA0 SHL SUB SWAP2 SWAP1 SWAP2 AND DUP2 MSTORE PUSH1 0x20 ADD SWAP1 JUMP JUMPDEST SWAP4 DUP5 MSTORE PUSH1 0xFF SWAP3 SWAP1 SWAP3 AND PUSH1 0x20 DUP5 ADD MSTORE PUSH1 0x40 DUP4 ADD MSTORE PUSH1 0x60 DUP3 ADD MSTORE PUSH1 0x80 ADD SWAP1 JUMP JUMPDEST PUSH1 0x0 PUSH1 0x20 DUP3 MSTORE PUSH2 0x8F6 PUSH1 0x20 DUP4 ADD DUP5 PUSH2 0x816 JUMP JUMPDEST SWAP4 SWAP3 POP POP POP JUMP JUMPDEST PUSH1 0x0 PUSH1 0x60 DUP3 MSTORE PUSH2 0x910 PUSH1 0x60 DUP4 ADD DUP7 PUSH2 0x816 JUMP JUMPDEST PUSH1 0x1 PUSH1 0x1 PUSH1 0x40 SHL SUB SWAP5 DUP6 AND PUSH1 0x20 DUP5 ADD MSTORE SWAP3 SWAP1 SWAP4 AND PUSH1 0x40 SWAP1 SWAP2 ADD MSTORE SWAP3 SWAP2 POP POP JUMP JUMPDEST PUSH1 0x20 DUP1 DUP3 MSTORE PUSH1 0x1D SWAP1 DUP3 ADD MSTORE PUSH32 0x4B696E64206F662064617461206D757374206265202770726963657327000000 PUSH1 0x40 DUP3 ADD MSTORE PUSH1 0x60 ADD SWAP1 JUMP JUMPDEST PUSH1 0x1 PUSH1 0x1 PUSH1 0x40 SHL SUB SWAP2 SWAP1 SWAP2 AND DUP2 MSTORE PUSH1 0x20 ADD SWAP1 JUMP JUMPDEST PUSH1 0x1 PUSH1 0x1 PUSH1 0x40 SHL SUB SWAP3 DUP4 AND DUP2 MSTORE SWAP2 AND PUSH1 0x20 DUP3 ADD MSTORE PUSH1 0x40 ADD SWAP1 JUMP JUMPDEST PUSH1 0x1 PUSH1 0x1 PUSH1 0x40 SHL SUB SWAP4 DUP5 AND DUP2 MSTORE SWAP2 SWAP1 SWAP3 AND PUSH1 0x20 DUP3 ADD MSTORE PUSH1 0x40 DUP2 ADD SWAP2 SWAP1 SWAP2 MSTORE PUSH1 0x60 ADD SWAP1 JUMP JUMPDEST PUSH1 0x0 JUMPDEST DUP4 DUP2 LT ISZERO PUSH2 0x9D4 JUMPI DUP2 DUP2 ADD MLOAD DUP4 DUP3 ADD MSTORE PUSH1 0x20 ADD PUSH2 0x9BC JUMP JUMPDEST DUP4 DUP2 GT ISZERO PUSH2 0x9E3 JUMPI PUSH1 0x0 DUP5 DUP5 ADD MSTORE JUMPDEST POP POP POP POP JUMP INVALID LOG2 PUSH5 0x6970667358 0x22 SLT KECCAK256 0x23 CODECOPY COINBASE MOD DUP4 0xB2 LT CODECOPY PUSH6 0x7EAACCCF4833 SWAP2 DUP3 0xCB 0xD2 0x2F 0xBB 0xEB 0xD4 STOP JUMP 0xB9 0xC8 PUSH20 0x9F27427964736F6C634300060C00330000000000 "
		},
		"gasEstimates": {
			"creation": {
				"codeDepositCost": "518200",
				"executionCost": "549",
				"totalCost": "518749"
			},
			"external": {
				"get(address,string)": "infinite",
				"getPrice(address,string)": "infinite",
				"put(bytes,bytes)": "infinite",
				"source(bytes,bytes)": "infinite"
			},
			"internal": {
				"decodeMessage(bytes calldata,bytes calldata)": "infinite",
				"putInternal(address,uint64,string memory,uint64)": "infinite"
			}
		},
		"methodIdentifiers": {
			"get(address,string)": "fc2525ab",
			"getPrice(address,string)": "76977a3a",
			"put(bytes,bytes)": "38636e9a",
			"source(bytes,bytes)": "482a6193"
		}
	},
	"abi": [
		{
			"anonymous": false,
			"inputs": [
				{
					"indexed": false,
					"internalType": "uint64",
					"name": "priorTimestamp",
					"type": "uint64"
				},
				{
					"indexed": false,
					"internalType": "uint256",
					"name": "messageTimestamp",
					"type": "uint256"
				},
				{
					"indexed": false,
					"internalType": "uint256",
					"name": "blockTimestamp",
					"type": "uint256"
				}
			],
			"name": "NotWritten",
			"type": "event"
		},
		{
			"anonymous": false,
			"inputs": [
				{
					"indexed": true,
					"internalType": "address",
					"name": "source",
					"type": "address"
				},
				{
					"indexed": false,
					"internalType": "string",
					"name": "key",
					"type": "string"
				},
				{
					"indexed": false,
					"internalType": "uint64",
					"name": "timestamp",
					"type": "uint64"
				},
				{
					"indexed": false,
					"internalType": "uint64",
					"name": "value",
					"type": "uint64"
				}
			],
			"name": "Write",
			"type": "event"
		},
		{
			"inputs": [
				{
					"internalType": "address",
					"name": "source",
					"type": "address"
				},
				{
					"internalType": "string",
					"name": "key",
					"type": "string"
				}
			],
			"name": "get",
			"outputs": [
				{
					"internalType": "uint64",
					"name": "",
					"type": "uint64"
				},
				{
					"internalType": "uint64",
					"name": "",
					"type": "uint64"
				}
			],
			"stateMutability": "view",
			"type": "function"
		},
		{
			"inputs": [
				{
					"internalType": "address",
					"name": "source",
					"type": "address"
				},
				{
					"internalType": "string",
					"name": "key",
					"type": "string"
				}
			],
			"name": "getPrice",
			"outputs": [
				{
					"internalType": "uint64",
					"name": "",
					"type": "uint64"
				}
			],
			"stateMutability": "view",
			"type": "function"
		},
		{
			"inputs": [
				{
					"internalType": "bytes",
					"name": "message",
					"type": "bytes"
				},
				{
					"internalType": "bytes",
					"name": "signature",
					"type": "bytes"
				}
			],
			"name": "put",
			"outputs": [
				{
					"internalType": "string",
					"name": "",
					"type": "string"
				}
			],
			"stateMutability": "nonpayable",
			"type": "function"
		},
		{
			"inputs": [
				{
					"internalType": "bytes",
					"name": "message",
					"type": "bytes"
				},
				{
					"internalType": "bytes",
					"name": "signature",
					"type": "bytes"
				}
			],
			"name": "source",
			"outputs": [
				{
					"internalType": "address",
					"name": "",
					"type": "address"
				}
			],
			"stateMutability": "pure",
			"type": "function"
		}
	]
}