{
	"data": {
		"bytecode": {
			"linkReferences": {},
			"object": "611f406040523480156200001257600080fd5b506040516200908a3803806200908a8339810160408190526200003591620022b7565b80601e81511115620000645760405162461bcd60e51b81526004016200005b90620024a0565b60405180910390fd5b80516080526200007681600062001e47565b5160601b6001600160601b03191660a0526200009481600162001e47565b5160601b6001600160601b03191660c052620000b281600262001e47565b5160601b6001600160601b03191660e052620000d081600362001e47565b5160601b6001600160601b03191661010052620000ef81600462001e47565b5160601b6001600160601b031916610120526200010e81600562001e47565b5160601b6001600160601b031916610140526200012d81600662001e47565b5160601b6001600160601b031916610160526200014c81600762001e47565b5160601b6001600160601b031916610180526200016b81600862001e47565b5160601b6001600160601b0319166101a0526200018a81600962001e47565b5160601b6001600160601b0319166101c052620001a981600a62001e47565b5160601b6001600160601b0319166101e052620001c881600b62001e47565b5160601b6001600160601b03191661020052620001e781600c62001e47565b5160601b6001600160601b031916610220526200020681600d62001e47565b5160601b6001600160601b031916610240526200022581600e62001e47565b5160601b6001600160601b031916610260526200024481600f62001e47565b5160601b6001600160601b031916610280526200026381601062001e47565b5160601b6001600160601b0319166102a0526200028281601162001e47565b5160601b6001600160601b0319166102c052620002a181601262001e47565b5160601b6001600160601b0319166102e052620002c081601362001e47565b5160601b6001600160601b03191661030052620002df81601462001e47565b5160601b6001600160601b03191661032052620002fe81601562001e47565b5160601b6001600160601b031916610340526200031d81601662001e47565b5160601b6001600160601b031916610360526200033c81601762001e47565b5160601b6001600160601b031916610380526200035b81601862001e47565b5160601b6001600160601b0319166103a0526200037a81601962001e47565b5160601b6001600160601b0319166103c0526200039981601a62001e47565b5160601b6001600160601b0319166103e052620003b881601b62001e47565b5160601b6001600160601b03191661040052620003d781601c62001e47565b5160601b6001600160601b03191661042052620003f681601d62001e47565b5160601b6001600160601b031916610440526200041581600062001e47565b6020015160601b6001600160601b031916610460526200043781600162001e47565b6020015160601b6001600160601b031916610480526200045981600262001e47565b6020015160601b6001600160601b0319166104a0526200047b81600362001e47565b6020015160601b6001600160601b0319166104c0526200049d81600462001e47565b6020015160601b6001600160601b0319166104e052620004bf81600562001e47565b6020015160601b6001600160601b03191661050052620004e181600662001e47565b6020015160601b6001600160601b031916610520526200050381600762001e47565b6020015160601b6001600160601b031916610540526200052581600862001e47565b6020015160601b6001600160601b031916610560526200054781600962001e47565b6020015160601b6001600160601b031916610580526200056981600a62001e47565b6020015160601b6001600160601b0319166105a0526200058b81600b62001e47565b6020015160601b6001600160601b0319166105c052620005ad81600c62001e47565b6020015160601b6001600160601b0319166105e052620005cf81600d62001e47565b6020015160601b6001600160601b03191661060052620005f181600e62001e47565b6020015160601b6001600160601b031916610620526200061381600f62001e47565b6020015160601b6001600160601b031916610640526200063581601062001e47565b6020015160601b6001600160601b031916610660526200065781601162001e47565b6020015160601b6001600160601b031916610680526200067981601262001e47565b6020015160601b6001600160601b0319166106a0526200069b81601362001e47565b6020015160601b6001600160601b0319166106c052620006bd81601462001e47565b6020015160601b6001600160601b0319166106e052620006df81601562001e47565b6020015160601b6001600160601b031916610700526200070181601662001e47565b6020015160601b6001600160601b031916610720526200072381601762001e47565b6020015160601b6001600160601b031916610740526200074581601862001e47565b6020015160601b6001600160601b031916610760526200076781601962001e47565b6020015160601b6001600160601b031916610780526200078981601a62001e47565b6020015160601b6001600160601b0319166107a052620007ab81601b62001e47565b6020015160601b6001600160601b0319166107c052620007cd81601c62001e47565b6020015160601b6001600160601b0319166107e052620007ef81601d62001e47565b6020015160601b6001600160601b031916610800526200081181600062001e47565b60400151610820526200082681600162001e47565b60400151610840526200083b81600262001e47565b60400151610860526200085081600362001e47565b60400151610880526200086581600462001e47565b604001516108a0526200087a81600562001e47565b604001516108c0526200088f81600662001e47565b604001516108e052620008a481600762001e47565b6040015161090052620008b981600862001e47565b6040015161092052620008ce81600962001e47565b6040015161094052620008e381600a62001e47565b6040015161096052620008f881600b62001e47565b60400151610980526200090d81600c62001e47565b604001516109a0526200092281600d62001e47565b604001516109c0526200093781600e62001e47565b604001516109e0526200094c81600f62001e47565b60400151610a00526200096181601062001e47565b60400151610a20526200097681601162001e47565b60400151610a40526200098b81601262001e47565b60400151610a6052620009a081601362001e47565b60400151610a8052620009b581601462001e47565b60400151610aa052620009ca81601562001e47565b60400151610ac052620009df81601662001e47565b60400151610ae052620009f481601762001e47565b60400151610b005262000a0981601862001e47565b60400151610b205262000a1e81601962001e47565b60400151610b405262000a3381601a62001e47565b60400151610b605262000a4881601b62001e47565b60400151610b805262000a5d81601c62001e47565b60400151610ba05262000a7281601d62001e47565b60400151610bc05262000a8781600062001e47565b60600151610be05262000a9c81600162001e47565b60600151610c005262000ab181600262001e47565b60600151610c205262000ac681600362001e47565b60600151610c405262000adb81600462001e47565b60600151610c605262000af081600562001e47565b60600151610c805262000b0581600662001e47565b60600151610ca05262000b1a81600762001e47565b60600151610cc05262000b2f81600862001e47565b60600151610ce05262000b4481600962001e47565b60600151610d005262000b5981600a62001e47565b60600151610d205262000b6e81600b62001e47565b60600151610d405262000b8381600c62001e47565b60600151610d605262000b9881600d62001e47565b60600151610d805262000bad81600e62001e47565b60600151610da05262000bc281600f62001e47565b60600151610dc05262000bd781601062001e47565b60600151610de05262000bec81601162001e47565b60600151610e005262000c0181601262001e47565b60600151610e205262000c1681601362001e47565b60600151610e405262000c2b81601462001e47565b60600151610e605262000c4081601562001e47565b60600151610e805262000c5581601662001e47565b60600151610ea05262000c6a81601762001e47565b60600151610ec05262000c7f81601862001e47565b60600151610ee05262000c9481601962001e47565b60600151610f005262000ca981601a62001e47565b60600151610f205262000cbe81601b62001e47565b60600151610f405262000cd381601c62001e47565b60600151610f605262000ce881601d62001e47565b60600151610f805262000cfd81600062001e47565b60800151600281111562000d0d57fe5b610fa081600281111562000d1d57fe5b60f81b90525062000d3081600162001e47565b60800151600281111562000d4057fe5b610fc081600281111562000d5057fe5b60f81b90525062000d6381600262001e47565b60800151600281111562000d7357fe5b610fe081600281111562000d8357fe5b60f81b90525062000d9681600362001e47565b60800151600281111562000da657fe5b61100081600281111562000db657fe5b60f81b90525062000dc981600462001e47565b60800151600281111562000dd957fe5b61102081600281111562000de957fe5b60f81b90525062000dfc81600562001e47565b60800151600281111562000e0c57fe5b61104081600281111562000e1c57fe5b60f81b90525062000e2f81600662001e47565b60800151600281111562000e3f57fe5b61106081600281111562000e4f57fe5b60f81b90525062000e6281600762001e47565b60800151600281111562000e7257fe5b61108081600281111562000e8257fe5b60f81b90525062000e9581600862001e47565b60800151600281111562000ea557fe5b6110a081600281111562000eb557fe5b60f81b90525062000ec881600962001e47565b60800151600281111562000ed857fe5b6110c081600281111562000ee857fe5b60f81b90525062000efb81600a62001e47565b60800151600281111562000f0b57fe5b6110e081600281111562000f1b57fe5b60f81b90525062000f2e81600b62001e47565b60800151600281111562000f3e57fe5b61110081600281111562000f4e57fe5b60f81b90525062000f6181600c62001e47565b60800151600281111562000f7157fe5b61112081600281111562000f8157fe5b60f81b90525062000f9481600d62001e47565b60800151600281111562000fa457fe5b61114081600281111562000fb457fe5b60f81b90525062000fc781600e62001e47565b60800151600281111562000fd757fe5b61116081600281111562000fe757fe5b60f81b90525062000ffa81600f62001e47565b6080015160028111156200100a57fe5b6111808160028111156200101a57fe5b60f81b9052506200102d81601062001e47565b6080015160028111156200103d57fe5b6111a08160028111156200104d57fe5b60f81b9052506200106081601162001e47565b6080015160028111156200107057fe5b6111c08160028111156200108057fe5b60f81b9052506200109381601262001e47565b608001516002811115620010a357fe5b6111e0816002811115620010b357fe5b60f81b905250620010c681601362001e47565b608001516002811115620010d657fe5b611200816002811115620010e657fe5b60f81b905250620010f981601462001e47565b6080015160028111156200110957fe5b6112208160028111156200111957fe5b60f81b9052506200112c81601562001e47565b6080015160028111156200113c57fe5b6112408160028111156200114c57fe5b60f81b9052506200115f81601662001e47565b6080015160028111156200116f57fe5b6112608160028111156200117f57fe5b60f81b9052506200119281601762001e47565b608001516002811115620011a257fe5b611280816002811115620011b257fe5b60f81b905250620011c581601862001e47565b608001516002811115620011d557fe5b6112a0816002811115620011e557fe5b60f81b905250620011f881601962001e47565b6080015160028111156200120857fe5b6112c08160028111156200121857fe5b60f81b9052506200122b81601a62001e47565b6080015160028111156200123b57fe5b6112e08160028111156200124b57fe5b60f81b9052506200125e81601b62001e47565b6080015160028111156200126e57fe5b6113008160028111156200127e57fe5b60f81b9052506200129181601c62001e47565b608001516002811115620012a157fe5b611320816002811115620012b157fe5b60f81b905250620012c481601d62001e47565b608001516002811115620012d457fe5b611340816002811115620012e457fe5b60f81b905250620012f781600062001e47565b60a00151611360526200130c81600162001e47565b60a00151611380526200132181600262001e47565b60a001516113a0526200133681600362001e47565b60a001516113c0526200134b81600462001e47565b60a001516113e0526200136081600562001e47565b60a00151611400526200137581600662001e47565b60a00151611420526200138a81600762001e47565b60a00151611440526200139f81600862001e47565b60a0015161146052620013b481600962001e47565b60a0015161148052620013c981600a62001e47565b60a001516114a052620013de81600b62001e47565b60a001516114c052620013f381600c62001e47565b60a001516114e0526200140881600d62001e47565b60a00151611500526200141d81600e62001e47565b60a00151611520526200143281600f62001e47565b60a00151611540526200144781601062001e47565b60a00151611560526200145c81601162001e47565b60a00151611580526200147181601262001e47565b60a001516115a0526200148681601362001e47565b60a001516115c0526200149b81601462001e47565b60a001516115e052620014b081601562001e47565b60a0015161160052620014c581601662001e47565b60a0015161162052620014da81601762001e47565b60a0015161164052620014ef81601862001e47565b60a00151611660526200150481601962001e47565b60a00151611680526200151981601a62001e47565b60a001516116a0526200152e81601b62001e47565b60a001516116c0526200154381601c62001e47565b60a001516116e0526200155881601d62001e47565b60a00151611700526200156d81600062001e47565b60c0015160601b6001600160601b031916611720526200158f81600162001e47565b60c0015160601b6001600160601b03191661174052620015b181600262001e47565b60c0015160601b6001600160601b03191661176052620015d381600362001e47565b60c0015160601b6001600160601b03191661178052620015f581600462001e47565b60c0015160601b6001600160601b0319166117a0526200161781600562001e47565b60c0015160601b6001600160601b0319166117c0526200163981600662001e47565b60c0015160601b6001600160601b0319166117e0526200165b81600762001e47565b60c0015160601b6001600160601b031916611800526200167d81600862001e47565b60c0015160601b6001600160601b031916611820526200169f81600962001e47565b60c0015160601b6001600160601b03191661184052620016c181600a62001e47565b60c0015160601b6001600160601b03191661186052620016e381600b62001e47565b60c0015160601b6001600160601b031916611880526200170581600c62001e47565b60c0015160601b6001600160601b0319166118a0526200172781600d62001e47565b60c0015160601b6001600160601b0319166118c0526200174981600e62001e47565b60c0015160601b6001600160601b0319166118e0526200176b81600f62001e47565b60c0015160601b6001600160601b031916611900526200178d81601062001e47565b60c0015160601b6001600160601b03191661192052620017af81601162001e47565b60c0015160601b6001600160601b03191661194052620017d181601262001e47565b60c0015160601b6001600160601b03191661196052620017f381601362001e47565b60c0015160601b6001600160601b031916611980526200181581601462001e47565b60c0015160601b6001600160601b0319166119a0526200183781601562001e47565b60c0015160601b6001600160601b0319166119c0526200185981601662001e47565b60c0015160601b6001600160601b0319166119e0526200187b81601762001e47565b60c0015160601b6001600160601b031916611a00526200189d81601862001e47565b60c0015160601b6001600160601b031916611a2052620018bf81601962001e47565b60c0015160601b6001600160601b031916611a4052620018e181601a62001e47565b60c0015160601b6001600160601b031916611a60526200190381601b62001e47565b60c0015160601b6001600160601b031916611a80526200192581601c62001e47565b60c0015160601b6001600160601b031916611aa0526200194781601d62001e47565b60c0015160601b6001600160601b031916611ac0526200196981600062001e47565b60e00151151560f81b611ae0526200198381600162001e47565b60e00151151560f81b611b00526200199d81600262001e47565b60e00151151560f81b611b2052620019b781600362001e47565b60e00151151560f81b611b4052620019d181600462001e47565b60e00151151560f81b611b6052620019eb81600562001e47565b60e00151151560f81b611b805262001a0581600662001e47565b60e00151151560f81b611ba05262001a1f81600762001e47565b60e00151151560f81b611bc05262001a3981600862001e47565b60e00151151560f81b611be05262001a5381600962001e47565b60e00151151560f81b611c005262001a6d81600a62001e47565b60e00151151560f81b611c205262001a8781600b62001e47565b60e00151151560f81b611c405262001aa181600c62001e47565b60e00151151560f81b611c605262001abb81600d62001e47565b60e00151151560f81b611c805262001ad581600e62001e47565b60e00151151560f81b611ca05262001aef81600f62001e47565b60e00151151560f81b611cc05262001b0981601062001e47565b60e00151151560f81b611ce05262001b2381601162001e47565b60e00151151560f81b611d005262001b3d81601262001e47565b60e00151151560f81b611d205262001b5781601362001e47565b60e00151151560f81b611d405262001b7181601462001e47565b60e00151151560f81b611d605262001b8b81601562001e47565b60e00151151560f81b611d805262001ba581601662001e47565b60e00151151560f81b611da05262001bbf81601762001e47565b60e00151151560f81b611dc05262001bd981601862001e47565b60e00151151560f81b611de05262001bf381601962001e47565b60e00151151560f81b611e005262001c0d81601a62001e47565b60e00151151560f81b611e205262001c2781601b62001e47565b60e00151151560f81b611e405262001c4181601c62001e47565b60e00151151560f81b611e605262001c5b81601d62001e47565b60e00151151560f81b611e8052506001600160601b0319606086811b8216611ea05285901b16611ec052611f20829052670de0b6b3a764000019831162001cad5782670de0b6b3a76400000162001cb1565b6000195b611ee052670de0b6b3a7640000831062001ccd57600162001cd9565b82670de0b6b3a7640000035b611f005260005b815181101562001e3b5762001cf46200218a565b82828151811062001d0157fe5b60200260200101519050600081606001511162001d325760405162461bcd60e51b81526004016200005b906200241b565b60c081015160028260800151600281111562001d4a57fe5b141562001e06576001600160a01b03811662001d7a5760405162461bcd60e51b81526004016200005b906200245d565b6040820151600062001d8c8462001ec1565b600083815260026020908152604080832042808255600390935292819020828155600193840185905592909201839055905191925083917fe37d39315e3419c0937360f1ac88f2c52ecf67e3b22b367f82047ddb4591904a9162001df69181908690819062002547565b60405180910390a2505062001e30565b6001600160a01b0381161562001e305760405162461bcd60e51b81526004016200005b9062002501565b505060010162001ce0565b505050505050620025d8565b62001e516200218a565b825182101562001e785782828151811062001e6857fe5b6020026020010151905062001ebb565b506040805161010081018252600080825260208201819052918101829052606081018290526080810182905260a0810182905260c0810182905260e08101919091525b92915050565b600080600062001ee08460c0015162001f0360201b620034ec1760201c565b50915091508360e001511562001efa57915062001efe9050565b5090505b919050565b6000808062001f1162002106565b9050836001600160a01b0316635909c0d56040518163ffffffff1660e01b815260040160206040518083038186803b15801562001f4d57600080fd5b505afa15801562001f62573d6000803e3d6000fd5b505050506040513d601f19601f8201168201806040525081019062001f88919062002402565b9250836001600160a01b0316635a3d54936040518163ffffffff1660e01b815260040160206040518083038186803b15801562001fc457600080fd5b505afa15801562001fd9573d6000803e3d6000fd5b505050506040513d601f19601f8201168201806040525081019062001fff919062002402565b91506000806000866001600160a01b0316630902f1ac6040518163ffffffff1660e01b815260040160606040518083038186803b1580156200204057600080fd5b505afa15801562002055573d6000803e3d6000fd5b505050506040513d601f19601f820116820180604052508101906200207b9190620023a8565b9250925092508363ffffffff168163ffffffff1614620020fc57600081850390508063ffffffff16620020ba84866200211060201b620036c11760201c565b600001516001600160e01b031602870196508063ffffffff16620020ea85856200211060201b620036c11760201c565b516001600160e01b0316029590950194505b5050509193909250565b63ffffffff421690565b6200211a620021cf565b6000826001600160701b031611620021465760405162461bcd60e51b81526004016200005b90620024ca565b6040805160208101909152806001600160701b038416600160701b600160e01b03607087901b16816200217557fe5b046001600160e01b0316815250905092915050565b60408051610100810182526000808252602082018190529181018290526060810182905290608082019081526000602082018190526040820181905260609091015290565b60408051602081019091526000815290565b805162001ebb81620025a9565b8051801515811462001ebb57600080fd5b80516003811062001ebb57600080fd5b600061010080838503121562002223578182fd5b6200222e8162002562565b91505081516200223e81620025a9565b815260208201516200225081620025a9565b8060208301525060408201516040820152606082015160608201526200227a8360808401620021ff565b608082015260a082015160a0820152620022988360c08401620021e1565b60c0820152620022ac8360e08401620021ee565b60e082015292915050565b600080600080600060a08688031215620022cf578081fd5b8551620022dc81620025a9565b80955050602080870151620022f181620025a9565b6040880151606089015160808a015192975090955093506001600160401b038111156200231c578283fd5b8701601f810189136200232d578283fd5b8051620023446200233e8262002589565b62002562565b81815283810190838501610100808502860187018e101562002364578788fd5b8795505b8486101562002394576200237d8e836200220f565b845260019590950194928601929081019062002368565b505080955050505050509295509295909350565b600080600060608486031215620023bd578283fd5b8351620023ca81620025c2565b6020850151909350620023dd81620025c2565b604085015190925063ffffffff81168114620023f7578182fd5b809150509250925092565b60006020828403121562002414578081fd5b5051919050565b60208082526022908201527f62617365556e6974206d7573742062652067726561746572207468616e207a65604082015261726f60f01b606082015260800190565b60208082526023908201527f7265706f7274656420707269636573206d757374206861766520616e20616e636040820152623437b960e91b606082015260800190565b60208082526010908201526f746f6f206d616e7920636f6e6669677360801b604082015260600190565b60208082526017908201527f4669786564506f696e743a204449565f42595f5a45524f000000000000000000604082015260600190565b60208082526026908201527f6f6e6c79207265706f7274656420707269636573207574696c697a6520616e2060408201526530b731b437b960d11b606082015260800190565b93845260208401929092526040830152606082015260800190565b6040518181016001600160401b03811182821017156200258157600080fd5b604052919050565b60006001600160401b038211156200259f578081fd5b5060209081020190565b6001600160a01b0381168114620025bf57600080fd5b50565b6001600160701b0381168114620025bf57600080fd5b60805160a05160601c60c05160601c60e05160601c6101005160601c6101205160601c6101405160601c6101605160601c6101805160601c6101a05160601c6101c05160601c6101e05160601c6102005160601c6102205160601c6102405160601c6102605160601c6102805160601c6102a05160601c6102c05160601c6102e05160601c6103005160601c6103205160601c6103405160601c6103605160601c6103805160601c6103a05160601c6103c05160601c6103e05160601c6104005160601c6104205160601c6104405160601c6104605160601c6104805160601c6104a05160601c6104c05160601c6104e05160601c6105005160601c6105205160601c6105405160601c6105605160601c6105805160601c6105a05160601c6105c05160601c6105e05160601c6106005160601c6106205160601c6106405160601c6106605160601c6106805160601c6106a05160601c6106c05160601c6106e05160601c6107005160601c6107205160601c6107405160601c6107605160601c6107805160601c6107a05160601c6107c05160601c6107e05160601c6108005160601c610820516108405161086051610880516108a0516108c0516108e05161090051610920516109405161096051610980516109a0516109c0516109e051610a0051610a2051610a4051610a6051610a8051610aa051610ac051610ae051610b0051610b2051610b4051610b6051610b8051610ba051610bc051610be051610c0051610c2051610c4051610c6051610c8051610ca051610cc051610ce051610d0051610d2051610d4051610d6051610d8051610da051610dc051610de051610e0051610e2051610e4051610e6051610e8051610ea051610ec051610ee051610f0051610f2051610f4051610f6051610f8051610fa05160f81c610fc05160f81c610fe05160f81c6110005160f81c6110205160f81c6110405160f81c6110605160f81c6110805160f81c6110a05160f81c6110c05160f81c6110e05160f81c6111005160f81c6111205160f81c6111405160f81c6111605160f81c6111805160f81c6111a05160f81c6111c05160f81c6111e05160f81c6112005160f81c6112205160f81c6112405160f81c6112605160f81c6112805160f81c6112a05160f81c6112c05160f81c6112e05160f81c6113005160f81c6113205160f81c6113405160f81c61136051611380516113a0516113c0516113e05161140051611420516114405161146051611480516114a0516114c0516114e05161150051611520516115405161156051611580516115a0516115c0516115e05161160051611620516116405161166051611680516116a0516116c0516116e051611700516117205160601c6117405160601c6117605160601c6117805160601c6117a05160601c6117c05160601c6117e05160601c6118005160601c6118205160601c6118405160601c6118605160601c6118805160601c6118a05160601c6118c05160601c6118e05160601c6119005160601c6119205160601c6119405160601c6119605160601c6119805160601c6119a05160601c6119c05160601c6119e05160601c611a005160601c611a205160601c611a405160601c611a605160601c611a805160601c611aa05160601c611ac05160601c611ae05160f81c611b005160f81c611b205160f81c611b405160f81c611b605160f81c611b805160f81c611ba05160f81c611bc05160f81c611be05160f81c611c005160f81c611c205160f81c611c405160f81c611c605160f81c611c805160f81c611ca05160f81c611cc05160f81c611ce05160f81c611d005160f81c611d205160f81c611d405160f81c611d605160f81c611d805160f81c611da05160f81c611dc05160f81c611de05160f81c611e005160f81c611e205160f81c611e405160f81c611e605160f81c611e805160f81c611ea05160601c611ec05160601c611ee051611f0051611f2051615d51620033396000398061320f528061523c5250806131c252806151b5525080610359528061518a5250806102e052806130db528061316a528061458b5250806131e65280613276528061455c52508061302c525080612eba525080612d48525080612bd6525080612a645250806128f252508061278052508061260e52508061249c52508061232a5250806121b8525080612046525080611ed4525080611d62525080611bf0525080611a7e52508061190c52508061179a5250806116285250806114b65250806113445250806111d2525080611060525080610eee525080610d7c525080610c0a525080610a985250806109265250806107b4525080610642525080612ffd525080612e8b525080612d19525080612ba7525080612a355250806128c35250806127515250806125df52508061246d5250806122fb525080612189525080612017525080611ea5525080611d33525080611bc1525080611a4f5250806118dd52508061176b5250806115f95250806114875250806113155250806111a3525080611031525080610ebf525080610d4d525080610bdb525080610a695250806108f7525080610785525080610613525080612fd7525080612e65525080612cf3525080612b81525080612a0f52508061289d52508061272b5250806125b95250806124475250806122d5525080612163525080611ff1525080611e7f525080611d0d525080611b9b525080611a295250806118b75250806117455250806115d35250806114615250806112ef52508061117d52508061100b525080610e99525080610d27525080610bb5525080610a435250806108d152508061075f5250806105ed525080612fa6525080612e34525080612cc2525080612b505250806129de52508061286c5250806126fa5250806125885250806124165250806122a4525080612132525080611fc0525080611e4e525080611cdc525080611b6a5250806119f85250806118865250806117145250806115a25250806114305250806112be52508061114c525080610fda525080610e68525080610cf6525080610b84525080610a125250806108a052508061072e5250806105bc525080612f80525080612e0e525080612c9c525080612b2a5250806129b85250806128465250806126d45250806125625250806123f052508061227e52508061210c525080611f9a525080611e28525080611cb6525080611b445250806119d25250806118605250806116ee52508061157c52508061140a525080611298525080611126525080610fb4525080610e42525080610cd0525080610b5e5250806109ec52508061087a525080610708525080610596525080612f5a5280613cb0525080612de85280613c80525080612c765280613c50525080612b045280613c205250806129925280613bf05250806128205280613bc05250806126ae5280613b9052508061253c5280613b605250806123ca5280613b305250806122585280613b005250806120e65280613ad0525080611f745280613aa0525080611e025280613a70525080611c905280613a40525080611b1e5280613a105250806119ac52806139e052508061183a52806139b05250806116c8528061398052508061155652806139505250806113e4528061392052508061127252806138f052508061110052806138c0525080610f8e5280613890525080610e1c5280613860525080610caa5280613830525080610b3852806138005250806109c652806137d052508061085452806137a05250806106e252806137705250806105705280613740525080612f2b5280614465525080612db95280614423525080612c4752806143e1525080612ad5528061439f525080612963528061435d5250806127f1528061431b52508061267f52806142d952508061250d528061429752508061239b528061425552508061222952806142135250806120b752806141d1525080611f45528061418f525080611dd3528061414d525080611c61528061410b525080611aef52806140c952508061197d528061408752508061180b528061404552508061169952806140035250806115275280613fc15250806113b55280613f7f5250806112435280613f3d5250806110d15280613efb525080610f5f5280613eb9525080610ded5280613e77525080610c7b5280613e35525080610b095280613df35250806109975280613db15250806108255280613d6f5250806106b35280613d2d5250806105415280613ceb525080612efc5280614ed6525080612d8a5280614e94525080612c185280614e52525080612aa65280614e105250806129345280614dce5250806127c25280614d8c5250806126505280614d4a5250806124de5280614d0852508061236c5280614cc65250806121fa5280614c845250806120885280614c42525080611f165280614c00525080611da45280614bbe525080611c325280614b7c525080611ac05280614b3a52508061194e5280614af85250806117dc5280614ab652508061166a5280614a745250806114f85280614a3252508061138652806149f052508061121452806149ae5250806110a2528061496c525080610f30528061492a525080610dbe52806148e8525080610c4c52806148a6525080610ada528061486452508061096852806148225250806107f652806147e0525080610684528061479e525080610512528061475c5250806104c2528061319e5250615d516000f3fe608060405234801561001057600080fd5b506004361061014d5760003560e01c80638aba91b4116100c3578063e9206d781161007c578063e9206d7814610277578063eaa1c2ca1461027f578063ecc1e98414610292578063eea85ecb146102a5578063fc57d4df146102b8578063fe2c6198146102cb5761014d565b80638aba91b4146102425780638e499bcf1461025757806392b843571461025f578063d1b353b414610227578063e61a5fe414610267578063e83157421461026f5761014d565b8063482a619311610115578063482a6193146101d95780634da21942146101ec57806360846bc6146101ff578063651ed7881461021257806369aa3ac6146102275780638a0038881461022f5761014d565b8063010ec441146101525780631a125204146101705780632410520914610190578063276c2cba146101a557806337c0e12d146101b8575b600080fd5b61015a6102de565b6040516101679190615842565b60405180910390f35b61018361017e36600461556e565b610302565b6040516101679190615b6b565b610198610357565b6040516101679190615be6565b6101836101b3366004615624565b61037b565b6101cb6101c636600461556e565b6103b8565b604051610167929190615bef565b61015a6101e73660046155c3565b6103d1565b6101836101fa3660046154a0565b61047e565b61019861020d36600461556e565b610491565b61021a6104a3565b604051610167919061587a565b6101986104ac565b61018361023d36600461556e565b6104b8565b6102556102503660046155c3565b613057565b005b61019861319c565b6101986131c0565b61015a6131e4565b610198613208565b61019861320d565b6101cb61028d36600461556e565b613231565b6102556102a03660046154d8565b61324a565b6101836102b33660046154a0565b6133e4565b6101986102c63660046154a0565b613486565b6101986102d9366004615624565b6134ce565b7f000000000000000000000000000000000000000000000000000000000000000081565b61030a615346565b60006103158361373c565b9050600019811461033157610329816104b8565b915050610352565b60405162461bcd60e51b815260040161034990615982565b60405180910390fd5b919050565b7f000000000000000000000000000000000000000000000000000000000000000081565b610383615346565b6103b28260405160200161039791906157d4565b60405160208183030381529060405280519060200120610302565b92915050565b6002602052600090815260409020805460019091015482565b600080600080848060200190518101906103eb9190615586565b9250925092506000868051906020012060405160200161040b91906157f0565b604051602081830303815290604052805190602001209050600181838686604051600081526020016040526040516104469493929190615885565b6020604051602081039080840390855afa158015610468573d6000803e3d6000fd5b5050604051601f19015198975050505050505050565b610486615346565b600061031583613ce7565b60006020819052908152604090205481565b60015460ff1681565b670de0b6b3a764000081565b6104c0615346565b7f000000000000000000000000000000000000000000000000000000000000000082106104ff5760405162461bcd60e51b815260040161034990615982565b8161066d576040518061010001604052807f00000000000000000000000000000000000000000000000000000000000000006001600160a01b031681526020017f00000000000000000000000000000000000000000000000000000000000000006001600160a01b031681526020017f000000000000000000000000000000000000000000000000000000000000000081526020017f000000000000000000000000000000000000000000000000000000000000000081526020017f000000000000000000000000000000000000000000000000000000000000000060028111156105e657fe5b81526020017f000000000000000000000000000000000000000000000000000000000000000081526020017f00000000000000000000000000000000000000000000000000000000000000006001600160a01b031681526020017f000000000000000000000000000000000000000000000000000000000000000015158152509050610352565b81600114156107df576040518061010001604052807f00000000000000000000000000000000000000000000000000000000000000006001600160a01b031681526020017f00000000000000000000000000000000000000000000000000000000000000006001600160a01b031681526020017f000000000000000000000000000000000000000000000000000000000000000081526020017f000000000000000000000000000000000000000000000000000000000000000081526020017f0000000000000000000000000000000000000000000000000000000000000000600281111561075857fe5b81526020017f000000000000000000000000000000000000000000000000000000000000000081526020017f00000000000000000000000000000000000000000000000000000000000000006001600160a01b031681526020017f000000000000000000000000000000000000000000000000000000000000000015158152509050610352565b8160021415610951576040518061010001604052807f00000000000000000000000000000000000000000000000000000000000000006001600160a01b031681526020017f00000000000000000000000000000000000000000000000000000000000000006001600160a01b031681526020017f000000000000000000000000000000000000000000000000000000000000000081526020017f000000000000000000000000000000000000000000000000000000000000000081526020017f000000000000000000000000000000000000000000000000000000000000000060028111156108ca57fe5b81526020017f000000000000000000000000000000000000000000000000000000000000000081526020017f00000000000000000000000000000000000000000000000000000000000000006001600160a01b031681526020017f000000000000000000000000000000000000000000000000000000000000000015158152509050610352565b8160031415610ac3576040518061010001604052807f00000000000000000000000000000000000000000000000000000000000000006001600160a01b031681526020017f00000000000000000000000000000000000000000000000000000000000000006001600160a01b031681526020017f000000000000000000000000000000000000000000000000000000000000000081526020017f000000000000000000000000000000000000000000000000000000000000000081526020017f00000000000000000000000000000000000000000000000000000000000000006002811115610a3c57fe5b81526020017f000000000000000000000000000000000000000000000000000000000000000081526020017f00000000000000000000000000000000000000000000000000000000000000006001600160a01b031681526020017f000000000000000000000000000000000000000000000000000000000000000015158152509050610352565b8160041415610c35576040518061010001604052807f00000000000000000000000000000000000000000000000000000000000000006001600160a01b031681526020017f00000000000000000000000000000000000000000000000000000000000000006001600160a01b031681526020017f000000000000000000000000000000000000000000000000000000000000000081526020017f000000000000000000000000000000000000000000000000000000000000000081526020017f00000000000000000000000000000000000000000000000000000000000000006002811115610bae57fe5b81526020017f000000000000000000000000000000000000000000000000000000000000000081526020017f00000000000000000000000000000000000000000000000000000000000000006001600160a01b031681526020017f000000000000000000000000000000000000000000000000000000000000000015158152509050610352565b8160051415610da7576040518061010001604052807f00000000000000000000000000000000000000000000000000000000000000006001600160a01b031681526020017f00000000000000000000000000000000000000000000000000000000000000006001600160a01b031681526020017f000000000000000000000000000000000000000000000000000000000000000081526020017f000000000000000000000000000000000000000000000000000000000000000081526020017f00000000000000000000000000000000000000000000000000000000000000006002811115610d2057fe5b81526020017f000000000000000000000000000000000000000000000000000000000000000081526020017f00000000000000000000000000000000000000000000000000000000000000006001600160a01b031681526020017f000000000000000000000000000000000000000000000000000000000000000015158152509050610352565b8160061415610f19576040518061010001604052807f00000000000000000000000000000000000000000000000000000000000000006001600160a01b031681526020017f00000000000000000000000000000000000000000000000000000000000000006001600160a01b031681526020017f000000000000000000000000000000000000000000000000000000000000000081526020017f000000000000000000000000000000000000000000000000000000000000000081526020017f00000000000000000000000000000000000000000000000000000000000000006002811115610e9257fe5b81526020017f000000000000000000000000000000000000000000000000000000000000000081526020017f00000000000000000000000000000000000000000000000000000000000000006001600160a01b031681526020017f000000000000000000000000000000000000000000000000000000000000000015158152509050610352565b816007141561108b576040518061010001604052807f00000000000000000000000000000000000000000000000000000000000000006001600160a01b031681526020017f00000000000000000000000000000000000000000000000000000000000000006001600160a01b031681526020017f000000000000000000000000000000000000000000000000000000000000000081526020017f000000000000000000000000000000000000000000000000000000000000000081526020017f0000000000000000000000000000000000000000000000000000000000000000600281111561100457fe5b81526020017f000000000000000000000000000000000000000000000000000000000000000081526020017f00000000000000000000000000000000000000000000000000000000000000006001600160a01b031681526020017f000000000000000000000000000000000000000000000000000000000000000015158152509050610352565b81600814156111fd576040518061010001604052807f00000000000000000000000000000000000000000000000000000000000000006001600160a01b031681526020017f00000000000000000000000000000000000000000000000000000000000000006001600160a01b031681526020017f000000000000000000000000000000000000000000000000000000000000000081526020017f000000000000000000000000000000000000000000000000000000000000000081526020017f0000000000000000000000000000000000000000000000000000000000000000600281111561117657fe5b81526020017f000000000000000000000000000000000000000000000000000000000000000081526020017f00000000000000000000000000000000000000000000000000000000000000006001600160a01b031681526020017f000000000000000000000000000000000000000000000000000000000000000015158152509050610352565b816009141561136f576040518061010001604052807f00000000000000000000000000000000000000000000000000000000000000006001600160a01b031681526020017f00000000000000000000000000000000000000000000000000000000000000006001600160a01b031681526020017f000000000000000000000000000000000000000000000000000000000000000081526020017f000000000000000000000000000000000000000000000000000000000000000081526020017f000000000000000000000000000000000000000000000000000000000000000060028111156112e857fe5b81526020017f000000000000000000000000000000000000000000000000000000000000000081526020017f00000000000000000000000000000000000000000000000000000000000000006001600160a01b031681526020017f000000000000000000000000000000000000000000000000000000000000000015158152509050610352565b81600a14156114e1576040518061010001604052807f00000000000000000000000000000000000000000000000000000000000000006001600160a01b031681526020017f00000000000000000000000000000000000000000000000000000000000000006001600160a01b031681526020017f000000000000000000000000000000000000000000000000000000000000000081526020017f000000000000000000000000000000000000000000000000000000000000000081526020017f0000000000000000000000000000000000000000000000000000000000000000600281111561145a57fe5b81526020017f000000000000000000000000000000000000000000000000000000000000000081526020017f00000000000000000000000000000000000000000000000000000000000000006001600160a01b031681526020017f000000000000000000000000000000000000000000000000000000000000000015158152509050610352565b81600b1415611653576040518061010001604052807f00000000000000000000000000000000000000000000000000000000000000006001600160a01b031681526020017f00000000000000000000000000000000000000000000000000000000000000006001600160a01b031681526020017f000000000000000000000000000000000000000000000000000000000000000081526020017f000000000000000000000000000000000000000000000000000000000000000081526020017f000000000000000000000000000000000000000000000000000000000000000060028111156115cc57fe5b81526020017f000000000000000000000000000000000000000000000000000000000000000081526020017f00000000000000000000000000000000000000000000000000000000000000006001600160a01b031681526020017f000000000000000000000000000000000000000000000000000000000000000015158152509050610352565b81600c14156117c5576040518061010001604052807f00000000000000000000000000000000000000000000000000000000000000006001600160a01b031681526020017f00000000000000000000000000000000000000000000000000000000000000006001600160a01b031681526020017f000000000000000000000000000000000000000000000000000000000000000081526020017f000000000000000000000000000000000000000000000000000000000000000081526020017f0000000000000000000000000000000000000000000000000000000000000000600281111561173e57fe5b81526020017f000000000000000000000000000000000000000000000000000000000000000081526020017f00000000000000000000000000000000000000000000000000000000000000006001600160a01b031681526020017f000000000000000000000000000000000000000000000000000000000000000015158152509050610352565b81600d1415611937576040518061010001604052807f00000000000000000000000000000000000000000000000000000000000000006001600160a01b031681526020017f00000000000000000000000000000000000000000000000000000000000000006001600160a01b031681526020017f000000000000000000000000000000000000000000000000000000000000000081526020017f000000000000000000000000000000000000000000000000000000000000000081526020017f000000000000000000000000000000000000000000000000000000000000000060028111156118b057fe5b81526020017f000000000000000000000000000000000000000000000000000000000000000081526020017f00000000000000000000000000000000000000000000000000000000000000006001600160a01b031681526020017f000000000000000000000000000000000000000000000000000000000000000015158152509050610352565b81600e1415611aa9576040518061010001604052807f00000000000000000000000000000000000000000000000000000000000000006001600160a01b031681526020017f00000000000000000000000000000000000000000000000000000000000000006001600160a01b031681526020017f000000000000000000000000000000000000000000000000000000000000000081526020017f000000000000000000000000000000000000000000000000000000000000000081526020017f00000000000000000000000000000000000000000000000000000000000000006002811115611a2257fe5b81526020017f000000000000000000000000000000000000000000000000000000000000000081526020017f00000000000000000000000000000000000000000000000000000000000000006001600160a01b031681526020017f000000000000000000000000000000000000000000000000000000000000000015158152509050610352565b81600f1415611c1b576040518061010001604052807f00000000000000000000000000000000000000000000000000000000000000006001600160a01b031681526020017f00000000000000000000000000000000000000000000000000000000000000006001600160a01b031681526020017f000000000000000000000000000000000000000000000000000000000000000081526020017f000000000000000000000000000000000000000000000000000000000000000081526020017f00000000000000000000000000000000000000000000000000000000000000006002811115611b9457fe5b81526020017f000000000000000000000000000000000000000000000000000000000000000081526020017f00000000000000000000000000000000000000000000000000000000000000006001600160a01b031681526020017f000000000000000000000000000000000000000000000000000000000000000015158152509050610352565b8160101415611d8d576040518061010001604052807f00000000000000000000000000000000000000000000000000000000000000006001600160a01b031681526020017f00000000000000000000000000000000000000000000000000000000000000006001600160a01b031681526020017f000000000000000000000000000000000000000000000000000000000000000081526020017f000000000000000000000000000000000000000000000000000000000000000081526020017f00000000000000000000000000000000000000000000000000000000000000006002811115611d0657fe5b81526020017f000000000000000000000000000000000000000000000000000000000000000081526020017f00000000000000000000000000000000000000000000000000000000000000006001600160a01b031681526020017f000000000000000000000000000000000000000000000000000000000000000015158152509050610352565b8160111415611eff576040518061010001604052807f00000000000000000000000000000000000000000000000000000000000000006001600160a01b031681526020017f00000000000000000000000000000000000000000000000000000000000000006001600160a01b031681526020017f000000000000000000000000000000000000000000000000000000000000000081526020017f000000000000000000000000000000000000000000000000000000000000000081526020017f00000000000000000000000000000000000000000000000000000000000000006002811115611e7857fe5b81526020017f000000000000000000000000000000000000000000000000000000000000000081526020017f00000000000000000000000000000000000000000000000000000000000000006001600160a01b031681526020017f000000000000000000000000000000000000000000000000000000000000000015158152509050610352565b8160121415612071576040518061010001604052807f00000000000000000000000000000000000000000000000000000000000000006001600160a01b031681526020017f00000000000000000000000000000000000000000000000000000000000000006001600160a01b031681526020017f000000000000000000000000000000000000000000000000000000000000000081526020017f000000000000000000000000000000000000000000000000000000000000000081526020017f00000000000000000000000000000000000000000000000000000000000000006002811115611fea57fe5b81526020017f000000000000000000000000000000000000000000000000000000000000000081526020017f00000000000000000000000000000000000000000000000000000000000000006001600160a01b031681526020017f000000000000000000000000000000000000000000000000000000000000000015158152509050610352565b81601314156121e3576040518061010001604052807f00000000000000000000000000000000000000000000000000000000000000006001600160a01b031681526020017f00000000000000000000000000000000000000000000000000000000000000006001600160a01b031681526020017f000000000000000000000000000000000000000000000000000000000000000081526020017f000000000000000000000000000000000000000000000000000000000000000081526020017f0000000000000000000000000000000000000000000000000000000000000000600281111561215c57fe5b81526020017f000000000000000000000000000000000000000000000000000000000000000081526020017f00000000000000000000000000000000000000000000000000000000000000006001600160a01b031681526020017f000000000000000000000000000000000000000000000000000000000000000015158152509050610352565b8160141415612355576040518061010001604052807f00000000000000000000000000000000000000000000000000000000000000006001600160a01b031681526020017f00000000000000000000000000000000000000000000000000000000000000006001600160a01b031681526020017f000000000000000000000000000000000000000000000000000000000000000081526020017f000000000000000000000000000000000000000000000000000000000000000081526020017f000000000000000000000000000000000000000000000000000000000000000060028111156122ce57fe5b81526020017f000000000000000000000000000000000000000000000000000000000000000081526020017f00000000000000000000000000000000000000000000000000000000000000006001600160a01b031681526020017f000000000000000000000000000000000000000000000000000000000000000015158152509050610352565b81601514156124c7576040518061010001604052807f00000000000000000000000000000000000000000000000000000000000000006001600160a01b031681526020017f00000000000000000000000000000000000000000000000000000000000000006001600160a01b031681526020017f000000000000000000000000000000000000000000000000000000000000000081526020017f000000000000000000000000000000000000000000000000000000000000000081526020017f0000000000000000000000000000000000000000000000000000000000000000600281111561244057fe5b81526020017f000000000000000000000000000000000000000000000000000000000000000081526020017f00000000000000000000000000000000000000000000000000000000000000006001600160a01b031681526020017f000000000000000000000000000000000000000000000000000000000000000015158152509050610352565b8160161415612639576040518061010001604052807f00000000000000000000000000000000000000000000000000000000000000006001600160a01b031681526020017f00000000000000000000000000000000000000000000000000000000000000006001600160a01b031681526020017f000000000000000000000000000000000000000000000000000000000000000081526020017f000000000000000000000000000000000000000000000000000000000000000081526020017f000000000000000000000000000000000000000000000000000000000000000060028111156125b257fe5b81526020017f000000000000000000000000000000000000000000000000000000000000000081526020017f00000000000000000000000000000000000000000000000000000000000000006001600160a01b031681526020017f000000000000000000000000000000000000000000000000000000000000000015158152509050610352565b81601714156127ab576040518061010001604052807f00000000000000000000000000000000000000000000000000000000000000006001600160a01b031681526020017f00000000000000000000000000000000000000000000000000000000000000006001600160a01b031681526020017f000000000000000000000000000000000000000000000000000000000000000081526020017f000000000000000000000000000000000000000000000000000000000000000081526020017f0000000000000000000000000000000000000000000000000000000000000000600281111561272457fe5b81526020017f000000000000000000000000000000000000000000000000000000000000000081526020017f00000000000000000000000000000000000000000000000000000000000000006001600160a01b031681526020017f000000000000000000000000000000000000000000000000000000000000000015158152509050610352565b816018141561291d576040518061010001604052807f00000000000000000000000000000000000000000000000000000000000000006001600160a01b031681526020017f00000000000000000000000000000000000000000000000000000000000000006001600160a01b031681526020017f000000000000000000000000000000000000000000000000000000000000000081526020017f000000000000000000000000000000000000000000000000000000000000000081526020017f0000000000000000000000000000000000000000000000000000000000000000600281111561289657fe5b81526020017f000000000000000000000000000000000000000000000000000000000000000081526020017f00000000000000000000000000000000000000000000000000000000000000006001600160a01b031681526020017f000000000000000000000000000000000000000000000000000000000000000015158152509050610352565b8160191415612a8f576040518061010001604052807f00000000000000000000000000000000000000000000000000000000000000006001600160a01b031681526020017f00000000000000000000000000000000000000000000000000000000000000006001600160a01b031681526020017f000000000000000000000000000000000000000000000000000000000000000081526020017f000000000000000000000000000000000000000000000000000000000000000081526020017f00000000000000000000000000000000000000000000000000000000000000006002811115612a0857fe5b81526020017f000000000000000000000000000000000000000000000000000000000000000081526020017f00000000000000000000000000000000000000000000000000000000000000006001600160a01b031681526020017f000000000000000000000000000000000000000000000000000000000000000015158152509050610352565b81601a1415612c01576040518061010001604052807f00000000000000000000000000000000000000000000000000000000000000006001600160a01b031681526020017f00000000000000000000000000000000000000000000000000000000000000006001600160a01b031681526020017f000000000000000000000000000000000000000000000000000000000000000081526020017f000000000000000000000000000000000000000000000000000000000000000081526020017f00000000000000000000000000000000000000000000000000000000000000006002811115612b7a57fe5b81526020017f000000000000000000000000000000000000000000000000000000000000000081526020017f00000000000000000000000000000000000000000000000000000000000000006001600160a01b031681526020017f000000000000000000000000000000000000000000000000000000000000000015158152509050610352565b81601b1415612d73576040518061010001604052807f00000000000000000000000000000000000000000000000000000000000000006001600160a01b031681526020017f00000000000000000000000000000000000000000000000000000000000000006001600160a01b031681526020017f000000000000000000000000000000000000000000000000000000000000000081526020017f000000000000000000000000000000000000000000000000000000000000000081526020017f00000000000000000000000000000000000000000000000000000000000000006002811115612cec57fe5b81526020017f000000000000000000000000000000000000000000000000000000000000000081526020017f00000000000000000000000000000000000000000000000000000000000000006001600160a01b031681526020017f000000000000000000000000000000000000000000000000000000000000000015158152509050610352565b81601c1415612ee5576040518061010001604052807f00000000000000000000000000000000000000000000000000000000000000006001600160a01b031681526020017f00000000000000000000000000000000000000000000000000000000000000006001600160a01b031681526020017f000000000000000000000000000000000000000000000000000000000000000081526020017f000000000000000000000000000000000000000000000000000000000000000081526020017f00000000000000000000000000000000000000000000000000000000000000006002811115612e5e57fe5b81526020017f000000000000000000000000000000000000000000000000000000000000000081526020017f00000000000000000000000000000000000000000000000000000000000000006001600160a01b031681526020017f000000000000000000000000000000000000000000000000000000000000000015158152509050610352565b81601d1415610352576040518061010001604052807f00000000000000000000000000000000000000000000000000000000000000006001600160a01b031681526020017f00000000000000000000000000000000000000000000000000000000000000006001600160a01b031681526020017f000000000000000000000000000000000000000000000000000000000000000081526020017f000000000000000000000000000000000000000000000000000000000000000081526020017f00000000000000000000000000000000000000000000000000000000000000006002811115612fd057fe5b81526020017f000000000000000000000000000000000000000000000000000000000000000081526020017f00000000000000000000000000000000000000000000000000000000000000006001600160a01b031681526020017f000000000000000000000000000000000000000000000000000000000000000015158152509050610352565b60608280602001905181019061306d9190615692565b50905060405160200161307f90615821565b60405160208183030381529060405280519060200120816040516020016130a691906157d4565b60405160208183030381529060405280519060200120146130d95760405162461bcd60e51b815260040161034990615a70565b7f00000000000000000000000000000000000000000000000000000000000000006001600160a01b031661310d84846103d1565b6001600160a01b0316146131335760405162461bcd60e51b8152600401610349906159b2565b6001805460ff1916811790556040517f98a13f7b181a3a1f99c871e7a3507d4a037d386d157279f978e0d555ae9fe74d9061318f907f000000000000000000000000000000000000000000000000000000000000000090615842565b60405180910390a1505050565b7f000000000000000000000000000000000000000000000000000000000000000081565b7f000000000000000000000000000000000000000000000000000000000000000081565b7f000000000000000000000000000000000000000000000000000000000000000081565b601e81565b7f000000000000000000000000000000000000000000000000000000000000000081565b6003602052600090815260409020805460019091015482565b8483146132695760405162461bcd60e51b815260040161034990615af1565b60005b8581101561335d577f00000000000000000000000000000000000000000000000000000000000000006001600160a01b03166338636e9a8888848181106132af57fe5b90506020028101906132c19190615c18565b8888868181106132cd57fe5b90506020028101906132df9190615c18565b6040518563ffffffff1660e01b81526004016132fe94939291906158a3565b600060405180830381600087803b15801561331857600080fd5b505af115801561332c573d6000803e3d6000fd5b505050506040513d6000823e601f3d908101601f19168201604052613354919081019061565f565b5060010161326c565b5060006133686144a5565b905060005b828110156133da576133d284848381811061338457fe5b90506020028101906133969190615c5d565b8080601f0160208091040260200160405190810160405280939291908181526020018383808284376000920191909152508692506144eb915050565b60010161336d565b5050505050505050565b6133ec615346565b60006133f783614758565b9050600019811461340b57610329816104b8565b61347f836001600160a01b0316636f307dc36040518163ffffffff1660e01b815260040160206040518083038186803b15801561344757600080fd5b505afa15801561345b573d6000803e3d6000fd5b505050506040513d601f19601f820116820180604052508101906101fa91906154bc565b9392505050565b6000613490615346565b613499836133e4565b905080606001516134bf6c0c9f2c9cd04674edea400000006134ba84614f16565b615005565b816134c657fe5b049392505050565b60006134d8615346565b6134e18361037b565b905061347f81614f16565b60008060006134f961503f565b9050836001600160a01b0316635909c0d56040518163ffffffff1660e01b815260040160206040518083038186803b15801561353457600080fd5b505afa158015613548573d6000803e3d6000fd5b505050506040513d601f19601f8201168201806040525081019061356c919061572b565b9250836001600160a01b0316635a3d54936040518163ffffffff1660e01b815260040160206040518083038186803b1580156135a757600080fd5b505afa1580156135bb573d6000803e3d6000fd5b505050506040513d601f19601f820116820180604052508101906135df919061572b565b91506000806000866001600160a01b0316630902f1ac6040518163ffffffff1660e01b815260040160606040518083038186803b15801561361f57600080fd5b505afa158015613633573d6000803e3d6000fd5b505050506040513d601f19601f8201168201806040525081019061365791906156e2565b9250925092508363ffffffff168163ffffffff16146136b75780840363ffffffff811661368484866136c1565b516001600160e01b031602969096019563ffffffff81166136a585856136c1565b516001600160e01b0316029590950194505b5050509193909250565b6136c961538b565b6000826001600160701b0316116136f25760405162461bcd60e51b815260040161034990615b34565b6040805160208101909152806001600160701b0384166dffffffffffffffffffffffffffff60701b607087901b168161372757fe5b046001600160e01b0316815250905092915050565b60007f000000000000000000000000000000000000000000000000000000000000000082141561376e57506000610352565b7f000000000000000000000000000000000000000000000000000000000000000082141561379e57506001610352565b7f00000000000000000000000000000000000000000000000000000000000000008214156137ce57506002610352565b7f00000000000000000000000000000000000000000000000000000000000000008214156137fe57506003610352565b7f000000000000000000000000000000000000000000000000000000000000000082141561382e57506004610352565b7f000000000000000000000000000000000000000000000000000000000000000082141561385e57506005610352565b7f000000000000000000000000000000000000000000000000000000000000000082141561388e57506006610352565b7f00000000000000000000000000000000000000000000000000000000000000008214156138be57506007610352565b7f00000000000000000000000000000000000000000000000000000000000000008214156138ee57506008610352565b7f000000000000000000000000000000000000000000000000000000000000000082141561391e57506009610352565b7f000000000000000000000000000000000000000000000000000000000000000082141561394e5750600a610352565b7f000000000000000000000000000000000000000000000000000000000000000082141561397e5750600b610352565b7f00000000000000000000000000000000000000000000000000000000000000008214156139ae5750600c610352565b7f00000000000000000000000000000000000000000000000000000000000000008214156139de5750600d610352565b7f0000000000000000000000000000000000000000000000000000000000000000821415613a0e5750600e610352565b7f0000000000000000000000000000000000000000000000000000000000000000821415613a3e5750600f610352565b7f0000000000000000000000000000000000000000000000000000000000000000821415613a6e57506010610352565b7f0000000000000000000000000000000000000000000000000000000000000000821415613a9e57506011610352565b7f0000000000000000000000000000000000000000000000000000000000000000821415613ace57506012610352565b7f0000000000000000000000000000000000000000000000000000000000000000821415613afe57506013610352565b7f0000000000000000000000000000000000000000000000000000000000000000821415613b2e57506014610352565b7f0000000000000000000000000000000000000000000000000000000000000000821415613b5e57506015610352565b7f0000000000000000000000000000000000000000000000000000000000000000821415613b8e57506016610352565b7f0000000000000000000000000000000000000000000000000000000000000000821415613bbe57506017610352565b7f0000000000000000000000000000000000000000000000000000000000000000821415613bee57506018610352565b7f0000000000000000000000000000000000000000000000000000000000000000821415613c1e57506019610352565b7f0000000000000000000000000000000000000000000000000000000000000000821415613c4e5750601a610352565b7f0000000000000000000000000000000000000000000000000000000000000000821415613c7e5750601b610352565b7f0000000000000000000000000000000000000000000000000000000000000000821415613cae5750601c610352565b7f0000000000000000000000000000000000000000000000000000000000000000821415613cde5750601d610352565b50600019919050565b60007f00000000000000000000000000000000000000000000000000000000000000006001600160a01b0316826001600160a01b03161415613d2b57506000610352565b7f00000000000000000000000000000000000000000000000000000000000000006001600160a01b0316826001600160a01b03161415613d6d57506001610352565b7f00000000000000000000000000000000000000000000000000000000000000006001600160a01b0316826001600160a01b03161415613daf57506002610352565b7f00000000000000000000000000000000000000000000000000000000000000006001600160a01b0316826001600160a01b03161415613df157506003610352565b7f00000000000000000000000000000000000000000000000000000000000000006001600160a01b0316826001600160a01b03161415613e3357506004610352565b7f00000000000000000000000000000000000000000000000000000000000000006001600160a01b0316826001600160a01b03161415613e7557506005610352565b7f00000000000000000000000000000000000000000000000000000000000000006001600160a01b0316826001600160a01b03161415613eb757506006610352565b7f00000000000000000000000000000000000000000000000000000000000000006001600160a01b0316826001600160a01b03161415613ef957506007610352565b7f00000000000000000000000000000000000000000000000000000000000000006001600160a01b0316826001600160a01b03161415613f3b57506008610352565b7f00000000000000000000000000000000000000000000000000000000000000006001600160a01b0316826001600160a01b03161415613f7d57506009610352565b7f00000000000000000000000000000000000000000000000000000000000000006001600160a01b0316826001600160a01b03161415613fbf5750600a610352565b7f00000000000000000000000000000000000000000000000000000000000000006001600160a01b0316826001600160a01b031614156140015750600b610352565b7f00000000000000000000000000000000000000000000000000000000000000006001600160a01b0316826001600160a01b031614156140435750600c610352565b7f00000000000000000000000000000000000000000000000000000000000000006001600160a01b0316826001600160a01b031614156140855750600d610352565b7f00000000000000000000000000000000000000000000000000000000000000006001600160a01b0316826001600160a01b031614156140c75750600e610352565b7f00000000000000000000000000000000000000000000000000000000000000006001600160a01b0316826001600160a01b031614156141095750600f610352565b7f00000000000000000000000000000000000000000000000000000000000000006001600160a01b0316826001600160a01b0316141561414b57506010610352565b7f00000000000000000000000000000000000000000000000000000000000000006001600160a01b0316826001600160a01b0316141561418d57506011610352565b7f00000000000000000000000000000000000000000000000000000000000000006001600160a01b0316826001600160a01b031614156141cf57506012610352565b7f00000000000000000000000000000000000000000000000000000000000000006001600160a01b0316826001600160a01b0316141561421157506013610352565b7f00000000000000000000000000000000000000000000000000000000000000006001600160a01b0316826001600160a01b0316141561425357506014610352565b7f00000000000000000000000000000000000000000000000000000000000000006001600160a01b0316826001600160a01b0316141561429557506015610352565b7f00000000000000000000000000000000000000000000000000000000000000006001600160a01b0316826001600160a01b031614156142d757506016610352565b7f00000000000000000000000000000000000000000000000000000000000000006001600160a01b0316826001600160a01b0316141561431957506017610352565b7f00000000000000000000000000000000000000000000000000000000000000006001600160a01b0316826001600160a01b0316141561435b57506018610352565b7f00000000000000000000000000000000000000000000000000000000000000006001600160a01b0316826001600160a01b0316141561439d57506019610352565b7f00000000000000000000000000000000000000000000000000000000000000006001600160a01b0316826001600160a01b031614156143df5750601a610352565b7f00000000000000000000000000000000000000000000000000000000000000006001600160a01b0316826001600160a01b031614156144215750601b610352565b7f00000000000000000000000000000000000000000000000000000000000000006001600160a01b0316826001600160a01b031614156144635750601c610352565b7f00000000000000000000000000000000000000000000000000000000000000006001600160a01b0316826001600160a01b03161415613cde5750601d610352565b60006144e66040518060400160405280600381526020016208aa8960eb1b8152506144d860405160200161039790615833565b670de0b6b3a7640000615049565b905090565b6144f3615346565b6144fc8361037b565b905060028160800151600281111561451057fe5b1461452d5760405162461bcd60e51b815260040161034990615a02565b60008360405160200161454091906157d4565b60405160208183030381529060405280519060200120905060007f00000000000000000000000000000000000000000000000000000000000000006001600160a01b03166376977a3a7f0000000000000000000000000000000000000000000000000000000000000000876040518363ffffffff1660e01b81526004016145c8929190615856565b60206040518083038186803b1580156145e057600080fd5b505afa1580156145f4573d6000803e3d6000fd5b505050506040513d601f19601f820116820180604052508101906146189190615743565b67ffffffffffffffff169050600060405160200161463590615833565b60405160208183030381529060405280519060200120831415614659575083614667565b614664868587615049565b90505b60015460ff16156146c25760008381526020819052604090819020829055517f159e83f4712ba2552e68be9d848e49bf6dd35c24f19564ffd523b6549450a2f4906146b590889084906158d5565b60405180910390a1614750565b6146cc8282615161565b156147145760008381526020819052604090819020839055517f159e83f4712ba2552e68be9d848e49bf6dd35c24f19564ffd523b6549450a2f4906146b590889085906158d5565b7f90756d4c8646a4591078abac0e4e32dfa8437921729e36d51b88b659d265bfde868383604051614747939291906158f7565b60405180910390a15b505050505050565b60007f00000000000000000000000000000000000000000000000000000000000000006001600160a01b0316826001600160a01b0316141561479c57506000610352565b7f00000000000000000000000000000000000000000000000000000000000000006001600160a01b0316826001600160a01b031614156147de57506001610352565b7f00000000000000000000000000000000000000000000000000000000000000006001600160a01b0316826001600160a01b0316141561482057506002610352565b7f00000000000000000000000000000000000000000000000000000000000000006001600160a01b0316826001600160a01b0316141561486257506003610352565b7f00000000000000000000000000000000000000000000000000000000000000006001600160a01b0316826001600160a01b031614156148a457506004610352565b7f00000000000000000000000000000000000000000000000000000000000000006001600160a01b0316826001600160a01b031614156148e657506005610352565b7f00000000000000000000000000000000000000000000000000000000000000006001600160a01b0316826001600160a01b0316141561492857506006610352565b7f00000000000000000000000000000000000000000000000000000000000000006001600160a01b0316826001600160a01b0316141561496a57506007610352565b7f00000000000000000000000000000000000000000000000000000000000000006001600160a01b0316826001600160a01b031614156149ac57506008610352565b7f00000000000000000000000000000000000000000000000000000000000000006001600160a01b0316826001600160a01b031614156149ee57506009610352565b7f00000000000000000000000000000000000000000000000000000000000000006001600160a01b0316826001600160a01b03161415614a305750600a610352565b7f00000000000000000000000000000000000000000000000000000000000000006001600160a01b0316826001600160a01b03161415614a725750600b610352565b7f00000000000000000000000000000000000000000000000000000000000000006001600160a01b0316826001600160a01b03161415614ab45750600c610352565b7f00000000000000000000000000000000000000000000000000000000000000006001600160a01b0316826001600160a01b03161415614af65750600d610352565b7f00000000000000000000000000000000000000000000000000000000000000006001600160a01b0316826001600160a01b03161415614b385750600e610352565b7f00000000000000000000000000000000000000000000000000000000000000006001600160a01b0316826001600160a01b03161415614b7a5750600f610352565b7f00000000000000000000000000000000000000000000000000000000000000006001600160a01b0316826001600160a01b03161415614bbc57506010610352565b7f00000000000000000000000000000000000000000000000000000000000000006001600160a01b0316826001600160a01b03161415614bfe57506011610352565b7f00000000000000000000000000000000000000000000000000000000000000006001600160a01b0316826001600160a01b03161415614c4057506012610352565b7f00000000000000000000000000000000000000000000000000000000000000006001600160a01b0316826001600160a01b03161415614c8257506013610352565b7f00000000000000000000000000000000000000000000000000000000000000006001600160a01b0316826001600160a01b03161415614cc457506014610352565b7f00000000000000000000000000000000000000000000000000000000000000006001600160a01b0316826001600160a01b03161415614d0657506015610352565b7f00000000000000000000000000000000000000000000000000000000000000006001600160a01b0316826001600160a01b03161415614d4857506016610352565b7f00000000000000000000000000000000000000000000000000000000000000006001600160a01b0316826001600160a01b03161415614d8a57506017610352565b7f00000000000000000000000000000000000000000000000000000000000000006001600160a01b0316826001600160a01b03161415614dcc57506018610352565b7f00000000000000000000000000000000000000000000000000000000000000006001600160a01b0316826001600160a01b03161415614e0e57506019610352565b7f00000000000000000000000000000000000000000000000000000000000000006001600160a01b0316826001600160a01b03161415614e505750601a610352565b7f00000000000000000000000000000000000000000000000000000000000000006001600160a01b0316826001600160a01b03161415614e925750601b610352565b7f00000000000000000000000000000000000000000000000000000000000000006001600160a01b0316826001600160a01b03161415614ed45750601c610352565b7f00000000000000000000000000000000000000000000000000000000000000006001600160a01b0316826001600160a01b03161415613cde5750601d610352565b6000600282608001516002811115614f2a57fe5b1415614f485750604080820151600090815260208190522054610352565b600182608001516002811115614f5a57fe5b1415614f6b575060a0810151610352565b600082608001516002811115614f7d57fe5b1415610352576000806000604051602001614f9790615833565b60405160208183030381529060405280519060200120815260200190815260200160002054905060008111614fde5760405162461bcd60e51b815260040161034990615aa5565b670de0b6b3a7640000614ff5828560a00151615005565b81614ffc57fe5b04915050610352565b600082615014575060006103b2565b8282028284828161502157fe5b041461347f5760405162461bcd60e51b81526004016103499061594b565b63ffffffff421690565b600080600080615058866151e9565b92509250925080421161507d5760405162461bcd60e51b815260040161034990615a39565b4281900361508961538b565b6040518060200160405280838688038161509f57fe5b046001600160e01b0316815250905060006150b9826152fc565b905060006150c7828a615005565b905060008a60e00151156150ea578a6060015182816150e257fe5b049050615115565b670de0b6b3a764000080615102848e60600151615005565b8161510957fe5b048161511157fe5b0490505b7ff63d078e0de851897107641e96093a59e5ddc3c25e7b85a2585e3eba9e774a7b8c82884260405161514a949392919061591c565b60405180910390a19b9a5050505050505050505050565b600082156151e05760008361517e84670de0b6b3a7640000615005565b8161518557fe5b0490507f000000000000000000000000000000000000000000000000000000000000000081111580156151d857507f00000000000000000000000000000000000000000000000000000000000000008110155b9150506103b2565b50600092915050565b60008060008084604001519050600061520186615314565b905061520b61539d565b50600082815260036020908152604091829020825180840190935280548084526001909101549183019190915242037f000000000000000000000000000000000000000000000000000000000000000081106152d7578151600085815260026020908152604080832093845581860180516001958601556003909252918290204280825593018690558a82015185519151925190937fe37d39315e3419c0937360f1ac88f2c52ecf67e3b22b367f82047ddb4591904a936152ce93928990615bfd565b60405180910390a25b5050600091825260026020526040909120600181015490549196909550909350915050565b516612725dd1d243ab6001600160e01b039091160490565b60008060006153268460c001516134ec565b50915091508360e001511561533e5791506103529050565b509050610352565b60408051610100810182526000808252602082018190529181018290526060810182905290608082019081526000602082018190526040820181905260609091015290565b60408051602081019091526000815290565b604051806040016040528060008152602001600081525090565b60008083601f8401126153c8578182fd5b50813567ffffffffffffffff8111156153df578182fd5b60208301915083602080830285010111156153f957600080fd5b9250929050565b600082601f830112615410578081fd5b813561542361541e82615c9a565b615c73565b915080825283602082850101111561543a57600080fd5b8060208401602084013760009082016020015292915050565b600082601f830112615463578081fd5b815161547161541e82615c9a565b915080825283602082850101111561548857600080fd5b615499816020840160208601615cbe565b5092915050565b6000602082840312156154b1578081fd5b813561347f81615cee565b6000602082840312156154cd578081fd5b815161347f81615cee565b600080600080600080606087890312156154f0578182fd5b863567ffffffffffffffff80821115615507578384fd5b6155138a838b016153b7565b9098509650602089013591508082111561552b578384fd5b6155378a838b016153b7565b9096509450604089013591508082111561554f578384fd5b5061555c89828a016153b7565b979a9699509497509295939492505050565b60006020828403121561557f578081fd5b5035919050565b60008060006060848603121561559a578283fd5b8351925060208401519150604084015160ff811681146155b8578182fd5b809150509250925092565b600080604083850312156155d5578182fd5b823567ffffffffffffffff808211156155ec578384fd5b6155f886838701615400565b9350602085013591508082111561560d578283fd5b5061561a85828601615400565b9150509250929050565b600060208284031215615635578081fd5b813567ffffffffffffffff81111561564b578182fd5b61565784828501615400565b949350505050565b600060208284031215615670578081fd5b815167ffffffffffffffff811115615686578182fd5b61565784828501615453565b600080604083850312156156a4578182fd5b825167ffffffffffffffff8111156156ba578283fd5b6156c685828601615453565b92505060208301516156d781615cee565b809150509250929050565b6000806000606084860312156156f6578283fd5b835161570181615d06565b602085015190935061571281615d06565b604085015190925063ffffffff811681146155b8578182fd5b60006020828403121561573c578081fd5b5051919050565b600060208284031215615754578081fd5b815167ffffffffffffffff8116811461347f578182fd5b6001600160a01b03169052565b15159052565b60008284528282602086013780602084860101526020601f19601f85011685010190509392505050565b600081518084526157c0816020860160208601615cbe565b601f01601f19169290920160200192915050565b600082516157e6818460208701615cbe565b9190910192915050565b7f19457468657265756d205369676e6564204d6573736167653a0a3332000000008152601c810191909152603c0190565b65726f7461746560d01b815260060190565b6208aa8960eb1b815260030190565b6001600160a01b0391909116815260200190565b6001600160a01b0383168152604060208201819052600090615657908301846157a8565b901515815260200190565b93845260ff9290921660208401526040830152606082015260800190565b6000604082526158b760408301868861577e565b82810360208401526158ca81858761577e565b979650505050505050565b6000604082526158e860408301856157a8565b90508260208301529392505050565b60006060825261590a60608301866157a8565b60208301949094525060400152919050565b60006080825261592f60808301876157a8565b6020830195909552506040810192909252606090910152919050565b60208082526017908201527f6d756c7469706c69636174696f6e206f766572666c6f77000000000000000000604082015260600190565b6020808252601690820152751d1bdad95b8818dbdb999a59c81b9bdd08199bdd5b9960521b604082015260600190565b60208082526030908201527f696e76616c69646174696f6e206d657373616765206d75737420636f6d65206660408201526f3937b6903a3432903932b837b93a32b960811b606082015260800190565b6020808252601f908201527f6f6e6c79207265706f72746572207072696365732067657420706f7374656400604082015260600190565b6020808252601a908201527f6e6f77206d75737420636f6d65206166746572206265666f7265000000000000604082015260600190565b6020808252818101527f696e76616c6964206d657373616765206d7573742062652027726f7461746527604082015260600190565b6020808252602c908201527f455448207072696365206e6f74207365742c2063616e6e6f7420636f6e76657260408201526b7420746f20646f6c6c61727360a01b606082015260800190565b60208082526023908201527f6d6573736167657320616e64207369676e617475726573206d75737420626520604082015262313a3160e81b606082015260800190565b60208082526017908201527f4669786564506f696e743a204449565f42595f5a45524f000000000000000000604082015260600190565b81516001600160a01b039081168252602080840151909116908201526040808301519082015260608083015190820152608082015161010082019060038110615bb057fe5b8060808401525060a083015160a083015260c0830151615bd360c084018261576b565b5060e083015161549960e0840182615778565b90815260200190565b918252602082015260400190565b93845260208401929092526040830152606082015260800190565b6000808335601e19843603018112615c2e578283fd5b83018035915067ffffffffffffffff821115615c48578283fd5b6020019150368190038213156153f957600080fd5b6000808335601e19843603018112615c2e578182fd5b60405181810167ffffffffffffffff81118282101715615c9257600080fd5b604052919050565b600067ffffffffffffffff821115615cb0578081fd5b50601f01601f191660200190565b60005b83811015615cd9578181015183820152602001615cc1565b83811115615ce8576000848401525b50505050565b6001600160a01b0381168114615d0357600080fd5b50565b6001600160701b0381168114615d0357600080fdfea2646970667358221220e66609cfed1c3fc62a45099cb6bd3cb4b9130f0e5c3b9b5dd8148db4305628af64736f6c634300060c0033",
			"opcodes": "PUSH2 0x1F40 PUSH1 0x40 MSTORE CALLVALUE DUP1 ISZERO PUSH3 0x12 JUMPI PUSH1 0x0 DUP1 REVERT JUMPDEST POP PUSH1 0x40 MLOAD PUSH3 0x908A CODESIZE SUB DUP1 PUSH3 0x908A DUP4 CODECOPY DUP2 ADD PUSH1 0x40 DUP2 SWAP1 MSTORE PUSH3 0x35 SWAP2 PUSH3 0x22B7 JUMP JUMPDEST DUP1 PUSH1 0x1E DUP2 MLOAD GT ISZERO PUSH3 0x64 JUMPI PUSH1 0x40 MLOAD PUSH3 0x461BCD PUSH1 0xE5 SHL DUP2 MSTORE PUSH1 0x4 ADD PUSH3 0x5B SWAP1 PUSH3 0x24A0 JUMP JUMPDEST PUSH1 0x40 MLOAD DUP1 SWAP2 SUB SWAP1 REVERT JUMPDEST DUP1 MLOAD PUSH1 0x80 MSTORE PUSH3 0x76 DUP2 PUSH1 0x0 PUSH3 0x1E47 JUMP JUMPDEST MLOAD PUSH1 0x60 SHL PUSH1 0x1 PUSH1 0x1 PUSH1 0x60 SHL SUB NOT AND PUSH1 0xA0 MSTORE PUSH3 0x94 DUP2 PUSH1 0x1 PUSH3 0x1E47 JUMP JUMPDEST MLOAD PUSH1 0x60 SHL PUSH1 0x1 PUSH1 0x1 PUSH1 0x60 SHL SUB NOT AND PUSH1 0xC0 MSTORE PUSH3 0xB2 DUP2 PUSH1 0x2 PUSH3 0x1E47 JUMP JUMPDEST MLOAD PUSH1 0x60 SHL PUSH1 0x1 PUSH1 0x1 PUSH1 0x60 SHL SUB NOT AND PUSH1 0xE0 MSTORE PUSH3 0xD0 DUP2 PUSH1 0x3 PUSH3 0x1E47 JUMP JUMPDEST MLOAD PUSH1 0x60 SHL PUSH1 0x1 PUSH1 0x1 PUSH1 0x60 SHL SUB NOT AND PUSH2 0x100 MSTORE PUSH3 0xEF DUP2 PUSH1 0x4 PUSH3 0x1E47 JUMP JUMPDEST MLOAD PUSH1 0x60 SHL PUSH1 0x1 PUSH1 0x1 PUSH1 0x60 SHL SUB NOT AND PUSH2 0x120 MSTORE PUSH3 0x10E DUP2 PUSH1 0x5 PUSH3 0x1E47 JUMP JUMPDEST MLOAD PUSH1 0x60 SHL PUSH1 0x1 PUSH1 0x1 PUSH1 0x60 SHL SUB NOT AND PUSH2 0x140 MSTORE PUSH3 0x12D DUP2 PUSH1 0x6 PUSH3 0x1E47 JUMP JUMPDEST MLOAD PUSH1 0x60 SHL PUSH1 0x1 PUSH1 0x1 PUSH1 0x60 SHL SUB NOT AND PUSH2 0x160 MSTORE PUSH3 0x14C DUP2 PUSH1 0x7 PUSH3 0x1E47 JUMP JUMPDEST MLOAD PUSH1 0x60 SHL PUSH1 0x1 PUSH1 0x1 PUSH1 0x60 SHL SUB NOT AND PUSH2 0x180 MSTORE PUSH3 0x16B DUP2 PUSH1 0x8 PUSH3 0x1E47 JUMP JUMPDEST MLOAD PUSH1 0x60 SHL PUSH1 0x1 PUSH1 0x1 PUSH1 0x60 SHL SUB NOT AND PUSH2 0x1A0 MSTORE PUSH3 0x18A DUP2 PUSH1 0x9 PUSH3 0x1E47 JUMP JUMPDEST MLOAD PUSH1 0x60 SHL PUSH1 0x1 PUSH1 0x1 PUSH1 0x60 SHL SUB NOT AND PUSH2 0x1C0 MSTORE PUSH3 0x1A9 DUP2 PUSH1 0xA PUSH3 0x1E47 JUMP JUMPDEST MLOAD PUSH1 0x60 SHL PUSH1 0x1 PUSH1 0x1 PUSH1 0x60 SHL SUB NOT AND PUSH2 0x1E0 MSTORE PUSH3 0x1C8 DUP2 PUSH1 0xB PUSH3 0x1E47 JUMP JUMPDEST MLOAD PUSH1 0x60 SHL PUSH1 0x1 PUSH1 0x1 PUSH1 0x60 SHL SUB NOT AND PUSH2 0x200 MSTORE PUSH3 0x1E7 DUP2 PUSH1 0xC PUSH3 0x1E47 JUMP JUMPDEST MLOAD PUSH1 0x60 SHL PUSH1 0x1 PUSH1 0x1 PUSH1 0x60 SHL SUB NOT AND PUSH2 0x220 MSTORE PUSH3 0x206 DUP2 PUSH1 0xD PUSH3 0x1E47 JUMP JUMPDEST MLOAD PUSH1 0x60 SHL PUSH1 0x1 PUSH1 0x1 PUSH1 0x60 SHL SUB NOT AND PUSH2 0x240 MSTORE PUSH3 0x225 DUP2 PUSH1 0xE PUSH3 0x1E47 JUMP JUMPDEST MLOAD PUSH1 0x60 SHL PUSH1 0x1 PUSH1 0x1 PUSH1 0x60 SHL SUB NOT AND PUSH2 0x260 MSTORE PUSH3 0x244 DUP2 PUSH1 0xF PUSH3 0x1E47 JUMP JUMPDEST MLOAD PUSH1 0x60 SHL PUSH1 0x1 PUSH1 0x1 PUSH1 0x60 SHL SUB NOT AND PUSH2 0x280 MSTORE PUSH3 0x263 DUP2 PUSH1 0x10 PUSH3 0x1E47 JUMP JUMPDEST MLOAD PUSH1 0x60 SHL PUSH1 0x1 PUSH1 0x1 PUSH1 0x60 SHL SUB NOT AND PUSH2 0x2A0 MSTORE PUSH3 0x282 DUP2 PUSH1 0x11 PUSH3 0x1E47 JUMP JUMPDEST MLOAD PUSH1 0x60 SHL PUSH1 0x1 PUSH1 0x1 PUSH1 0x60 SHL SUB NOT AND PUSH2 0x2C0 MSTORE PUSH3 0x2A1 DUP2 PUSH1 0x12 PUSH3 0x1E47 JUMP JUMPDEST MLOAD PUSH1 0x60 SHL PUSH1 0x1 PUSH1 0x1 PUSH1 0x60 SHL SUB NOT AND PUSH2 0x2E0 MSTORE PUSH3 0x2C0 DUP2 PUSH1 0x13 PUSH3 0x1E47 JUMP JUMPDEST MLOAD PUSH1 0x60 SHL PUSH1 0x1 PUSH1 0x1 PUSH1 0x60 SHL SUB NOT AND PUSH2 0x300 MSTORE PUSH3 0x2DF DUP2 PUSH1 0x14 PUSH3 0x1E47 JUMP JUMPDEST MLOAD PUSH1 0x60 SHL PUSH1 0x1 PUSH1 0x1 PUSH1 0x60 SHL SUB NOT AND PUSH2 0x320 MSTORE PUSH3 0x2FE DUP2 PUSH1 0x15 PUSH3 0x1E47 JUMP JUMPDEST MLOAD PUSH1 0x60 SHL PUSH1 0x1 PUSH1 0x1 PUSH1 0x60 SHL SUB NOT AND PUSH2 0x340 MSTORE PUSH3 0x31D DUP2 PUSH1 0x16 PUSH3 0x1E47 JUMP JUMPDEST MLOAD PUSH1 0x60 SHL PUSH1 0x1 PUSH1 0x1 PUSH1 0x60 SHL SUB NOT AND PUSH2 0x360 MSTORE PUSH3 0x33C DUP2 PUSH1 0x17 PUSH3 0x1E47 JUMP JUMPDEST MLOAD PUSH1 0x60 SHL PUSH1 0x1 PUSH1 0x1 PUSH1 0x60 SHL SUB NOT AND PUSH2 0x380 MSTORE PUSH3 0x35B DUP2 PUSH1 0x18 PUSH3 0x1E47 JUMP JUMPDEST MLOAD PUSH1 0x60 SHL PUSH1 0x1 PUSH1 0x1 PUSH1 0x60 SHL SUB NOT AND PUSH2 0x3A0 MSTORE PUSH3 0x37A DUP2 PUSH1 0x19 PUSH3 0x1E47 JUMP JUMPDEST MLOAD PUSH1 0x60 SHL PUSH1 0x1 PUSH1 0x1 PUSH1 0x60 SHL SUB NOT AND PUSH2 0x3C0 MSTORE PUSH3 0x399 DUP2 PUSH1 0x1A PUSH3 0x1E47 JUMP JUMPDEST MLOAD PUSH1 0x60 SHL PUSH1 0x1 PUSH1 0x1 PUSH1 0x60 SHL SUB NOT AND PUSH2 0x3E0 MSTORE PUSH3 0x3B8 DUP2 PUSH1 0x1B PUSH3 0x1E47 JUMP JUMPDEST MLOAD PUSH1 0x60 SHL PUSH1 0x1 PUSH1 0x1 PUSH1 0x60 SHL SUB NOT AND PUSH2 0x400 MSTORE PUSH3 0x3D7 DUP2 PUSH1 0x1C PUSH3 0x1E47 JUMP JUMPDEST MLOAD PUSH1 0x60 SHL PUSH1 0x1 PUSH1 0x1 PUSH1 0x60 SHL SUB NOT AND PUSH2 0x420 MSTORE PUSH3 0x3F6 DUP2 PUSH1 0x1D PUSH3 0x1E47 JUMP JUMPDEST MLOAD PUSH1 0x60 SHL PUSH1 0x1 PUSH1 0x1 PUSH1 0x60 SHL SUB NOT AND PUSH2 0x440 MSTORE PUSH3 0x415 DUP2 PUSH1 0x0 PUSH3 0x1E47 JUMP JUMPDEST PUSH1 0x20 ADD MLOAD PUSH1 0x60 SHL PUSH1 0x1 PUSH1 0x1 PUSH1 0x60 SHL SUB NOT AND PUSH2 0x460 MSTORE PUSH3 0x437 DUP2 PUSH1 0x1 PUSH3 0x1E47 JUMP JUMPDEST PUSH1 0x20 ADD MLOAD PUSH1 0x60 SHL PUSH1 0x1 PUSH1 0x1 PUSH1 0x60 SHL SUB NOT AND PUSH2 0x480 MSTORE PUSH3 0x459 DUP2 PUSH1 0x2 PUSH3 0x1E47 JUMP JUMPDEST PUSH1 0x20 ADD MLOAD PUSH1 0x60 SHL PUSH1 0x1 PUSH1 0x1 PUSH1 0x60 SHL SUB NOT AND PUSH2 0x4A0 MSTORE PUSH3 0x47B DUP2 PUSH1 0x3 PUSH3 0x1E47 JUMP JUMPDEST PUSH1 0x20 ADD MLOAD PUSH1 0x60 SHL PUSH1 0x1 PUSH1 0x1 PUSH1 0x60 SHL SUB NOT AND PUSH2 0x4C0 MSTORE PUSH3 0x49D DUP2 PUSH1 0x4 PUSH3 0x1E47 JUMP JUMPDEST PUSH1 0x20 ADD MLOAD PUSH1 0x60 SHL PUSH1 0x1 PUSH1 0x1 PUSH1 0x60 SHL SUB NOT AND PUSH2 0x4E0 MSTORE PUSH3 0x4BF DUP2 PUSH1 0x5 PUSH3 0x1E47 JUMP JUMPDEST PUSH1 0x20 ADD MLOAD PUSH1 0x60 SHL PUSH1 0x1 PUSH1 0x1 PUSH1 0x60 SHL SUB NOT AND PUSH2 0x500 MSTORE PUSH3 0x4E1 DUP2 PUSH1 0x6 PUSH3 0x1E47 JUMP JUMPDEST PUSH1 0x20 ADD MLOAD PUSH1 0x60 SHL PUSH1 0x1 PUSH1 0x1 PUSH1 0x60 SHL SUB NOT AND PUSH2 0x520 MSTORE PUSH3 0x503 DUP2 PUSH1 0x7 PUSH3 0x1E47 JUMP JUMPDEST PUSH1 0x20 ADD MLOAD PUSH1 0x60 SHL PUSH1 0x1 PUSH1 0x1 PUSH1 0x60 SHL SUB NOT AND PUSH2 0x540 MSTORE PUSH3 0x525 DUP2 PUSH1 0x8 PUSH3 0x1E47 JUMP JUMPDEST PUSH1 0x20 ADD MLOAD PUSH1 0x60 SHL PUSH1 0x1 PUSH1 0x1 PUSH1 0x60 SHL SUB NOT AND PUSH2 0x560 MSTORE PUSH3 0x547 DUP2 PUSH1 0x9 PUSH3 0x1E47 JUMP JUMPDEST PUSH1 0x20 ADD MLOAD PUSH1 0x60 SHL PUSH1 0x1 PUSH1 0x1 PUSH1 0x60 SHL SUB NOT AND PUSH2 0x580 MSTORE PUSH3 0x569 DUP2 PUSH1 0xA PUSH3 0x1E47 JUMP JUMPDEST PUSH1 0x20 ADD MLOAD PUSH1 0x60 SHL PUSH1 0x1 PUSH1 0x1 PUSH1 0x60 SHL SUB NOT AND PUSH2 0x5A0 MSTORE PUSH3 0x58B DUP2 PUSH1 0xB PUSH3 0x1E47 JUMP JUMPDEST PUSH1 0x20 ADD MLOAD PUSH1 0x60 SHL PUSH1 0x1 PUSH1 0x1 PUSH1 0x60 SHL SUB NOT AND PUSH2 0x5C0 MSTORE PUSH3 0x5AD DUP2 PUSH1 0xC PUSH3 0x1E47 JUMP JUMPDEST PUSH1 0x20 ADD MLOAD PUSH1 0x60 SHL PUSH1 0x1 PUSH1 0x1 PUSH1 0x60 SHL SUB NOT AND PUSH2 0x5E0 MSTORE PUSH3 0x5CF DUP2 PUSH1 0xD PUSH3 0x1E47 JUMP JUMPDEST PUSH1 0x20 ADD MLOAD PUSH1 0x60 SHL PUSH1 0x1 PUSH1 0x1 PUSH1 0x60 SHL SUB NOT AND PUSH2 0x600 MSTORE PUSH3 0x5F1 DUP2 PUSH1 0xE PUSH3 0x1E47 JUMP JUMPDEST PUSH1 0x20 ADD MLOAD PUSH1 0x60 SHL PUSH1 0x1 PUSH1 0x1 PUSH1 0x60 SHL SUB NOT AND PUSH2 0x620 MSTORE PUSH3 0x613 DUP2 PUSH1 0xF PUSH3 0x1E47 JUMP JUMPDEST PUSH1 0x20 ADD MLOAD PUSH1 0x60 SHL PUSH1 0x1 PUSH1 0x1 PUSH1 0x60 SHL SUB NOT AND PUSH2 0x640 MSTORE PUSH3 0x635 DUP2 PUSH1 0x10 PUSH3 0x1E47 JUMP JUMPDEST PUSH1 0x20 ADD MLOAD PUSH1 0x60 SHL PUSH1 0x1 PUSH1 0x1 PUSH1 0x60 SHL SUB NOT AND PUSH2 0x660 MSTORE PUSH3 0x657 DUP2 PUSH1 0x11 PUSH3 0x1E47 JUMP JUMPDEST PUSH1 0x20 ADD MLOAD PUSH1 0x60 SHL PUSH1 0x1 PUSH1 0x1 PUSH1 0x60 SHL SUB NOT AND PUSH2 0x680 MSTORE PUSH3 0x679 DUP2 PUSH1 0x12 PUSH3 0x1E47 JUMP JUMPDEST PUSH1 0x20 ADD MLOAD PUSH1 0x60 SHL PUSH1 0x1 PUSH1 0x1 PUSH1 0x60 SHL SUB NOT AND PUSH2 0x6A0 MSTORE PUSH3 0x69B DUP2 PUSH1 0x13 PUSH3 0x1E47 JUMP JUMPDEST PUSH1 0x20 ADD MLOAD PUSH1 0x60 SHL PUSH1 0x1 PUSH1 0x1 PUSH1 0x60 SHL SUB NOT AND PUSH2 0x6C0 MSTORE PUSH3 0x6BD DUP2 PUSH1 0x14 PUSH3 0x1E47 JUMP JUMPDEST PUSH1 0x20 ADD MLOAD PUSH1 0x60 SHL PUSH1 0x1 PUSH1 0x1 PUSH1 0x60 SHL SUB NOT AND PUSH2 0x6E0 MSTORE PUSH3 0x6DF DUP2 PUSH1 0x15 PUSH3 0x1E47 JUMP JUMPDEST PUSH1 0x20 ADD MLOAD PUSH1 0x60 SHL PUSH1 0x1 PUSH1 0x1 PUSH1 0x60 SHL SUB NOT AND PUSH2 0x700 MSTORE PUSH3 0x701 DUP2 PUSH1 0x16 PUSH3 0x1E47 JUMP JUMPDEST PUSH1 0x20 ADD MLOAD PUSH1 0x60 SHL PUSH1 0x1 PUSH1 0x1 PUSH1 0x60 SHL SUB NOT AND PUSH2 0x720 MSTORE PUSH3 0x723 DUP2 PUSH1 0x17 PUSH3 0x1E47 JUMP JUMPDEST PUSH1 0x20 ADD MLOAD PUSH1 0x60 SHL PUSH1 0x1 PUSH1 0x1 PUSH1 0x60 SHL SUB NOT AND PUSH2 0x740 MSTORE PUSH3 0x745 DUP2 PUSH1 0x18 PUSH3 0x1E47 JUMP JUMPDEST PUSH1 0x20 ADD MLOAD PUSH1 0x60 SHL PUSH1 0x1 PUSH1 0x1 PUSH1 0x60 SHL SUB NOT AND PUSH2 0x760 MSTORE PUSH3 0x767 DUP2 PUSH1 0x19 PUSH3 0x1E47 JUMP JUMPDEST PUSH1 0x20 ADD MLOAD PUSH1 0x60 SHL PUSH1 0x1 PUSH1 0x1 PUSH1 0x60 SHL SUB NOT AND PUSH2 0x780 MSTORE PUSH3 0x789 DUP2 PUSH1 0x1A PUSH3 0x1E47 JUMP JUMPDEST PUSH1 0x20 ADD MLOAD PUSH1 0x60 SHL PUSH1 0x1 PUSH1 0x1 PUSH1 0x60 SHL SUB NOT AND PUSH2 0x7A0 MSTORE PUSH3 0x7AB DUP2 PUSH1 0x1B PUSH3 0x1E47 JUMP JUMPDEST PUSH1 0x20 ADD MLOAD PUSH1 0x60 SHL PUSH1 0x1 PUSH1 0x1 PUSH1 0x60 SHL SUB NOT AND PUSH2 0x7C0 MSTORE PUSH3 0x7CD DUP2 PUSH1 0x1C PUSH3 0x1E47 JUMP JUMPDEST PUSH1 0x20 ADD MLOAD PUSH1 0x60 SHL PUSH1 0x1 PUSH1 0x1 PUSH1 0x60 SHL SUB NOT AND PUSH2 0x7E0 MSTORE PUSH3 0x7EF DUP2 PUSH1 0x1D PUSH3 0x1E47 JUMP JUMPDEST PUSH1 0x20 ADD MLOAD PUSH1 0x60 SHL PUSH1 0x1 PUSH1 0x1 PUSH1 0x60 SHL SUB NOT AND PUSH2 0x800 MSTORE PUSH3 0x811 DUP2 PUSH1 0x0 PUSH3 0x1E47 JUMP JUMPDEST PUSH1 0x40 ADD MLOAD PUSH2 0x820 MSTORE PUSH3 0x826 DUP2 PUSH1 0x1 PUSH3 0x1E47 JUMP JUMPDEST PUSH1 0x40 ADD MLOAD PUSH2 0x840 MSTORE PUSH3 0x83B DUP2 PUSH1 0x2 PUSH3 0x1E47 JUMP JUMPDEST PUSH1 0x40 ADD MLOAD PUSH2 0x860 MSTORE PUSH3 0x850 DUP2 PUSH1 0x3 PUSH3 0x1E47 JUMP JUMPDEST PUSH1 0x40 ADD MLOAD PUSH2 0x880 MSTORE PUSH3 0x865 DUP2 PUSH1 0x4 PUSH3 0x1E47 JUMP JUMPDEST PUSH1 0x40 ADD MLOAD PUSH2 0x8A0 MSTORE PUSH3 0x87A DUP2 PUSH1 0x5 PUSH3 0x1E47 JUMP JUMPDEST PUSH1 0x40 ADD MLOAD PUSH2 0x8C0 MSTORE PUSH3 0x88F DUP2 PUSH1 0x6 PUSH3 0x1E47 JUMP JUMPDEST PUSH1 0x40 ADD MLOAD PUSH2 0x8E0 MSTORE PUSH3 0x8A4 DUP2 PUSH1 0x7 PUSH3 0x1E47 JUMP JUMPDEST PUSH1 0x40 ADD MLOAD PUSH2 0x900 MSTORE PUSH3 0x8B9 DUP2 PUSH1 0x8 PUSH3 0x1E47 JUMP JUMPDEST PUSH1 0x40 ADD MLOAD PUSH2 0x920 MSTORE PUSH3 0x8CE DUP2 PUSH1 0x9 PUSH3 0x1E47 JUMP JUMPDEST PUSH1 0x40 ADD MLOAD PUSH2 0x940 MSTORE PUSH3 0x8E3 DUP2 PUSH1 0xA PUSH3 0x1E47 JUMP JUMPDEST PUSH1 0x40 ADD MLOAD PUSH2 0x960 MSTORE PUSH3 0x8F8 DUP2 PUSH1 0xB PUSH3 0x1E47 JUMP JUMPDEST PUSH1 0x40 ADD MLOAD PUSH2 0x980 MSTORE PUSH3 0x90D DUP2 PUSH1 0xC PUSH3 0x1E47 JUMP JUMPDEST PUSH1 0x40 ADD MLOAD PUSH2 0x9A0 MSTORE PUSH3 0x922 DUP2 PUSH1 0xD PUSH3 0x1E47 JUMP JUMPDEST PUSH1 0x40 ADD MLOAD PUSH2 0x9C0 MSTORE PUSH3 0x937 DUP2 PUSH1 0xE PUSH3 0x1E47 JUMP JUMPDEST PUSH1 0x40 ADD MLOAD PUSH2 0x9E0 MSTORE PUSH3 0x94C DUP2 PUSH1 0xF PUSH3 0x1E47 JUMP JUMPDEST PUSH1 0x40 ADD MLOAD PUSH2 0xA00 MSTORE PUSH3 0x961 DUP2 PUSH1 0x10 PUSH3 0x1E47 JUMP JUMPDEST PUSH1 0x40 ADD MLOAD PUSH2 0xA20 MSTORE PUSH3 0x976 DUP2 PUSH1 0x11 PUSH3 0x1E47 JUMP JUMPDEST PUSH1 0x40 ADD MLOAD PUSH2 0xA40 MSTORE PUSH3 0x98B DUP2 PUSH1 0x12 PUSH3 0x1E47 JUMP JUMPDEST PUSH1 0x40 ADD MLOAD PUSH2 0xA60 MSTORE PUSH3 0x9A0 DUP2 PUSH1 0x13 PUSH3 0x1E47 JUMP JUMPDEST PUSH1 0x40 ADD MLOAD PUSH2 0xA80 MSTORE PUSH3 0x9B5 DUP2 PUSH1 0x14 PUSH3 0x1E47 JUMP JUMPDEST PUSH1 0x40 ADD MLOAD PUSH2 0xAA0 MSTORE PUSH3 0x9CA DUP2 PUSH1 0x15 PUSH3 0x1E47 JUMP JUMPDEST PUSH1 0x40 ADD MLOAD PUSH2 0xAC0 MSTORE PUSH3 0x9DF DUP2 PUSH1 0x16 PUSH3 0x1E47 JUMP JUMPDEST PUSH1 0x40 ADD MLOAD PUSH2 0xAE0 MSTORE PUSH3 0x9F4 DUP2 PUSH1 0x17 PUSH3 0x1E47 JUMP JUMPDEST PUSH1 0x40 ADD MLOAD PUSH2 0xB00 MSTORE PUSH3 0xA09 DUP2 PUSH1 0x18 PUSH3 0x1E47 JUMP JUMPDEST PUSH1 0x40 ADD MLOAD PUSH2 0xB20 MSTORE PUSH3 0xA1E DUP2 PUSH1 0x19 PUSH3 0x1E47 JUMP JUMPDEST PUSH1 0x40 ADD MLOAD PUSH2 0xB40 MSTORE PUSH3 0xA33 DUP2 PUSH1 0x1A PUSH3 0x1E47 JUMP JUMPDEST PUSH1 0x40 ADD MLOAD PUSH2 0xB60 MSTORE PUSH3 0xA48 DUP2 PUSH1 0x1B PUSH3 0x1E47 JUMP JUMPDEST PUSH1 0x40 ADD MLOAD PUSH2 0xB80 MSTORE PUSH3 0xA5D DUP2 PUSH1 0x1C PUSH3 0x1E47 JUMP JUMPDEST PUSH1 0x40 ADD MLOAD PUSH2 0xBA0 MSTORE PUSH3 0xA72 DUP2 PUSH1 0x1D PUSH3 0x1E47 JUMP JUMPDEST PUSH1 0x40 ADD MLOAD PUSH2 0xBC0 MSTORE PUSH3 0xA87 DUP2 PUSH1 0x0 PUSH3 0x1E47 JUMP JUMPDEST PUSH1 0x60 ADD MLOAD PUSH2 0xBE0 MSTORE PUSH3 0xA9C DUP2 PUSH1 0x1 PUSH3 0x1E47 JUMP JUMPDEST PUSH1 0x60 ADD MLOAD PUSH2 0xC00 MSTORE PUSH3 0xAB1 DUP2 PUSH1 0x2 PUSH3 0x1E47 JUMP JUMPDEST PUSH1 0x60 ADD MLOAD PUSH2 0xC20 MSTORE PUSH3 0xAC6 DUP2 PUSH1 0x3 PUSH3 0x1E47 JUMP JUMPDEST PUSH1 0x60 ADD MLOAD PUSH2 0xC40 MSTORE PUSH3 0xADB DUP2 PUSH1 0x4 PUSH3 0x1E47 JUMP JUMPDEST PUSH1 0x60 ADD MLOAD PUSH2 0xC60 MSTORE PUSH3 0xAF0 DUP2 PUSH1 0x5 PUSH3 0x1E47 JUMP JUMPDEST PUSH1 0x60 ADD MLOAD PUSH2 0xC80 MSTORE PUSH3 0xB05 DUP2 PUSH1 0x6 PUSH3 0x1E47 JUMP JUMPDEST PUSH1 0x60 ADD MLOAD PUSH2 0xCA0 MSTORE PUSH3 0xB1A DUP2 PUSH1 0x7 PUSH3 0x1E47 JUMP JUMPDEST PUSH1 0x60 ADD MLOAD PUSH2 0xCC0 MSTORE PUSH3 0xB2F DUP2 PUSH1 0x8 PUSH3 0x1E47 JUMP JUMPDEST PUSH1 0x60 ADD MLOAD PUSH2 0xCE0 MSTORE PUSH3 0xB44 DUP2 PUSH1 0x9 PUSH3 0x1E47 JUMP JUMPDEST PUSH1 0x60 ADD MLOAD PUSH2 0xD00 MSTORE PUSH3 0xB59 DUP2 PUSH1 0xA PUSH3 0x1E47 JUMP JUMPDEST PUSH1 0x60 ADD MLOAD PUSH2 0xD20 MSTORE PUSH3 0xB6E DUP2 PUSH1 0xB PUSH3 0x1E47 JUMP JUMPDEST PUSH1 0x60 ADD MLOAD PUSH2 0xD40 MSTORE PUSH3 0xB83 DUP2 PUSH1 0xC PUSH3 0x1E47 JUMP JUMPDEST PUSH1 0x60 ADD MLOAD PUSH2 0xD60 MSTORE PUSH3 0xB98 DUP2 PUSH1 0xD PUSH3 0x1E47 JUMP JUMPDEST PUSH1 0x60 ADD MLOAD PUSH2 0xD80 MSTORE PUSH3 0xBAD DUP2 PUSH1 0xE PUSH3 0x1E47 JUMP JUMPDEST PUSH1 0x60 ADD MLOAD PUSH2 0xDA0 MSTORE PUSH3 0xBC2 DUP2 PUSH1 0xF PUSH3 0x1E47 JUMP JUMPDEST PUSH1 0x60 ADD MLOAD PUSH2 0xDC0 MSTORE PUSH3 0xBD7 DUP2 PUSH1 0x10 PUSH3 0x1E47 JUMP JUMPDEST PUSH1 0x60 ADD MLOAD PUSH2 0xDE0 MSTORE PUSH3 0xBEC DUP2 PUSH1 0x11 PUSH3 0x1E47 JUMP JUMPDEST PUSH1 0x60 ADD MLOAD PUSH2 0xE00 MSTORE PUSH3 0xC01 DUP2 PUSH1 0x12 PUSH3 0x1E47 JUMP JUMPDEST PUSH1 0x60 ADD MLOAD PUSH2 0xE20 MSTORE PUSH3 0xC16 DUP2 PUSH1 0x13 PUSH3 0x1E47 JUMP JUMPDEST PUSH1 0x60 ADD MLOAD PUSH2 0xE40 MSTORE PUSH3 0xC2B DUP2 PUSH1 0x14 PUSH3 0x1E47 JUMP JUMPDEST PUSH1 0x60 ADD MLOAD PUSH2 0xE60 MSTORE PUSH3 0xC40 DUP2 PUSH1 0x15 PUSH3 0x1E47 JUMP JUMPDEST PUSH1 0x60 ADD MLOAD PUSH2 0xE80 MSTORE PUSH3 0xC55 DUP2 PUSH1 0x16 PUSH3 0x1E47 JUMP JUMPDEST PUSH1 0x60 ADD MLOAD PUSH2 0xEA0 MSTORE PUSH3 0xC6A DUP2 PUSH1 0x17 PUSH3 0x1E47 JUMP JUMPDEST PUSH1 0x60 ADD MLOAD PUSH2 0xEC0 MSTORE PUSH3 0xC7F DUP2 PUSH1 0x18 PUSH3 0x1E47 JUMP JUMPDEST PUSH1 0x60 ADD MLOAD PUSH2 0xEE0 MSTORE PUSH3 0xC94 DUP2 PUSH1 0x19 PUSH3 0x1E47 JUMP JUMPDEST PUSH1 0x60 ADD MLOAD PUSH2 0xF00 MSTORE PUSH3 0xCA9 DUP2 PUSH1 0x1A PUSH3 0x1E47 JUMP JUMPDEST PUSH1 0x60 ADD MLOAD PUSH2 0xF20 MSTORE PUSH3 0xCBE DUP2 PUSH1 0x1B PUSH3 0x1E47 JUMP JUMPDEST PUSH1 0x60 ADD MLOAD PUSH2 0xF40 MSTORE PUSH3 0xCD3 DUP2 PUSH1 0x1C PUSH3 0x1E47 JUMP JUMPDEST PUSH1 0x60 ADD MLOAD PUSH2 0xF60 MSTORE PUSH3 0xCE8 DUP2 PUSH1 0x1D PUSH3 0x1E47 JUMP JUMPDEST PUSH1 0x60 ADD MLOAD PUSH2 0xF80 MSTORE PUSH3 0xCFD DUP2 PUSH1 0x0 PUSH3 0x1E47 JUMP JUMPDEST PUSH1 0x80 ADD MLOAD PUSH1 0x2 DUP2 GT ISZERO PUSH3 0xD0D JUMPI INVALID JUMPDEST PUSH2 0xFA0 DUP2 PUSH1 0x2 DUP2 GT ISZERO PUSH3 0xD1D JUMPI INVALID JUMPDEST PUSH1 0xF8 SHL SWAP1 MSTORE POP PUSH3 0xD30 DUP2 PUSH1 0x1 PUSH3 0x1E47 JUMP JUMPDEST PUSH1 0x80 ADD MLOAD PUSH1 0x2 DUP2 GT ISZERO PUSH3 0xD40 JUMPI INVALID JUMPDEST PUSH2 0xFC0 DUP2 PUSH1 0x2 DUP2 GT ISZERO PUSH3 0xD50 JUMPI INVALID JUMPDEST PUSH1 0xF8 SHL SWAP1 MSTORE POP PUSH3 0xD63 DUP2 PUSH1 0x2 PUSH3 0x1E47 JUMP JUMPDEST PUSH1 0x80 ADD MLOAD PUSH1 0x2 DUP2 GT ISZERO PUSH3 0xD73 JUMPI INVALID JUMPDEST PUSH2 0xFE0 DUP2 PUSH1 0x2 DUP2 GT ISZERO PUSH3 0xD83 JUMPI INVALID JUMPDEST PUSH1 0xF8 SHL SWAP1 MSTORE POP PUSH3 0xD96 DUP2 PUSH1 0x3 PUSH3 0x1E47 JUMP JUMPDEST PUSH1 0x80 ADD MLOAD PUSH1 0x2 DUP2 GT ISZERO PUSH3 0xDA6 JUMPI INVALID JUMPDEST PUSH2 0x1000 DUP2 PUSH1 0x2 DUP2 GT ISZERO PUSH3 0xDB6 JUMPI INVALID JUMPDEST PUSH1 0xF8 SHL SWAP1 MSTORE POP PUSH3 0xDC9 DUP2 PUSH1 0x4 PUSH3 0x1E47 JUMP JUMPDEST PUSH1 0x80 ADD MLOAD PUSH1 0x2 DUP2 GT ISZERO PUSH3 0xDD9 JUMPI INVALID JUMPDEST PUSH2 0x1020 DUP2 PUSH1 0x2 DUP2 GT ISZERO PUSH3 0xDE9 JUMPI INVALID JUMPDEST PUSH1 0xF8 SHL SWAP1 MSTORE POP PUSH3 0xDFC DUP2 PUSH1 0x5 PUSH3 0x1E47 JUMP JUMPDEST PUSH1 0x80 ADD MLOAD PUSH1 0x2 DUP2 GT ISZERO PUSH3 0xE0C JUMPI INVALID JUMPDEST PUSH2 0x1040 DUP2 PUSH1 0x2 DUP2 GT ISZERO PUSH3 0xE1C JUMPI INVALID JUMPDEST PUSH1 0xF8 SHL SWAP1 MSTORE POP PUSH3 0xE2F DUP2 PUSH1 0x6 PUSH3 0x1E47 JUMP JUMPDEST PUSH1 0x80 ADD MLOAD PUSH1 0x2 DUP2 GT ISZERO PUSH3 0xE3F JUMPI INVALID JUMPDEST PUSH2 0x1060 DUP2 PUSH1 0x2 DUP2 GT ISZERO PUSH3 0xE4F JUMPI INVALID JUMPDEST PUSH1 0xF8 SHL SWAP1 MSTORE POP PUSH3 0xE62 DUP2 PUSH1 0x7 PUSH3 0x1E47 JUMP JUMPDEST PUSH1 0x80 ADD MLOAD PUSH1 0x2 DUP2 GT ISZERO PUSH3 0xE72 JUMPI INVALID JUMPDEST PUSH2 0x1080 DUP2 PUSH1 0x2 DUP2 GT ISZERO PUSH3 0xE82 JUMPI INVALID JUMPDEST PUSH1 0xF8 SHL SWAP1 MSTORE POP PUSH3 0xE95 DUP2 PUSH1 0x8 PUSH3 0x1E47 JUMP JUMPDEST PUSH1 0x80 ADD MLOAD PUSH1 0x2 DUP2 GT ISZERO PUSH3 0xEA5 JUMPI INVALID JUMPDEST PUSH2 0x10A0 DUP2 PUSH1 0x2 DUP2 GT ISZERO PUSH3 0xEB5 JUMPI INVALID JUMPDEST PUSH1 0xF8 SHL SWAP1 MSTORE POP PUSH3 0xEC8 DUP2 PUSH1 0x9 PUSH3 0x1E47 JUMP JUMPDEST PUSH1 0x80 ADD MLOAD PUSH1 0x2 DUP2 GT ISZERO PUSH3 0xED8 JUMPI INVALID JUMPDEST PUSH2 0x10C0 DUP2 PUSH1 0x2 DUP2 GT ISZERO PUSH3 0xEE8 JUMPI INVALID JUMPDEST PUSH1 0xF8 SHL SWAP1 MSTORE POP PUSH3 0xEFB DUP2 PUSH1 0xA PUSH3 0x1E47 JUMP JUMPDEST PUSH1 0x80 ADD MLOAD PUSH1 0x2 DUP2 GT ISZERO PUSH3 0xF0B JUMPI INVALID JUMPDEST PUSH2 0x10E0 DUP2 PUSH1 0x2 DUP2 GT ISZERO PUSH3 0xF1B JUMPI INVALID JUMPDEST PUSH1 0xF8 SHL SWAP1 MSTORE POP PUSH3 0xF2E DUP2 PUSH1 0xB PUSH3 0x1E47 JUMP JUMPDEST PUSH1 0x80 ADD MLOAD PUSH1 0x2 DUP2 GT ISZERO PUSH3 0xF3E JUMPI INVALID JUMPDEST PUSH2 0x1100 DUP2 PUSH1 0x2 DUP2 GT ISZERO PUSH3 0xF4E JUMPI INVALID JUMPDEST PUSH1 0xF8 SHL SWAP1 MSTORE POP PUSH3 0xF61 DUP2 PUSH1 0xC PUSH3 0x1E47 JUMP JUMPDEST PUSH1 0x80 ADD MLOAD PUSH1 0x2 DUP2 GT ISZERO PUSH3 0xF71 JUMPI INVALID JUMPDEST PUSH2 0x1120 DUP2 PUSH1 0x2 DUP2 GT ISZERO PUSH3 0xF81 JUMPI INVALID JUMPDEST PUSH1 0xF8 SHL SWAP1 MSTORE POP PUSH3 0xF94 DUP2 PUSH1 0xD PUSH3 0x1E47 JUMP JUMPDEST PUSH1 0x80 ADD MLOAD PUSH1 0x2 DUP2 GT ISZERO PUSH3 0xFA4 JUMPI INVALID JUMPDEST PUSH2 0x1140 DUP2 PUSH1 0x2 DUP2 GT ISZERO PUSH3 0xFB4 JUMPI INVALID JUMPDEST PUSH1 0xF8 SHL SWAP1 MSTORE POP PUSH3 0xFC7 DUP2 PUSH1 0xE PUSH3 0x1E47 JUMP JUMPDEST PUSH1 0x80 ADD MLOAD PUSH1 0x2 DUP2 GT ISZERO PUSH3 0xFD7 JUMPI INVALID JUMPDEST PUSH2 0x1160 DUP2 PUSH1 0x2 DUP2 GT ISZERO PUSH3 0xFE7 JUMPI INVALID JUMPDEST PUSH1 0xF8 SHL SWAP1 MSTORE POP PUSH3 0xFFA DUP2 PUSH1 0xF PUSH3 0x1E47 JUMP JUMPDEST PUSH1 0x80 ADD MLOAD PUSH1 0x2 DUP2 GT ISZERO PUSH3 0x100A JUMPI INVALID JUMPDEST PUSH2 0x1180 DUP2 PUSH1 0x2 DUP2 GT ISZERO PUSH3 0x101A JUMPI INVALID JUMPDEST PUSH1 0xF8 SHL SWAP1 MSTORE POP PUSH3 0x102D DUP2 PUSH1 0x10 PUSH3 0x1E47 JUMP JUMPDEST PUSH1 0x80 ADD MLOAD PUSH1 0x2 DUP2 GT ISZERO PUSH3 0x103D JUMPI INVALID JUMPDEST PUSH2 0x11A0 DUP2 PUSH1 0x2 DUP2 GT ISZERO PUSH3 0x104D JUMPI INVALID JUMPDEST PUSH1 0xF8 SHL SWAP1 MSTORE POP PUSH3 0x1060 DUP2 PUSH1 0x11 PUSH3 0x1E47 JUMP JUMPDEST PUSH1 0x80 ADD MLOAD PUSH1 0x2 DUP2 GT ISZERO PUSH3 0x1070 JUMPI INVALID JUMPDEST PUSH2 0x11C0 DUP2 PUSH1 0x2 DUP2 GT ISZERO PUSH3 0x1080 JUMPI INVALID JUMPDEST PUSH1 0xF8 SHL SWAP1 MSTORE POP PUSH3 0x1093 DUP2 PUSH1 0x12 PUSH3 0x1E47 JUMP JUMPDEST PUSH1 0x80 ADD MLOAD PUSH1 0x2 DUP2 GT ISZERO PUSH3 0x10A3 JUMPI INVALID JUMPDEST PUSH2 0x11E0 DUP2 PUSH1 0x2 DUP2 GT ISZERO PUSH3 0x10B3 JUMPI INVALID JUMPDEST PUSH1 0xF8 SHL SWAP1 MSTORE POP PUSH3 0x10C6 DUP2 PUSH1 0x13 PUSH3 0x1E47 JUMP JUMPDEST PUSH1 0x80 ADD MLOAD PUSH1 0x2 DUP2 GT ISZERO PUSH3 0x10D6 JUMPI INVALID JUMPDEST PUSH2 0x1200 DUP2 PUSH1 0x2 DUP2 GT ISZERO PUSH3 0x10E6 JUMPI INVALID JUMPDEST PUSH1 0xF8 SHL SWAP1 MSTORE POP PUSH3 0x10F9 DUP2 PUSH1 0x14 PUSH3 0x1E47 JUMP JUMPDEST PUSH1 0x80 ADD MLOAD PUSH1 0x2 DUP2 GT ISZERO PUSH3 0x1109 JUMPI INVALID JUMPDEST PUSH2 0x1220 DUP2 PUSH1 0x2 DUP2 GT ISZERO PUSH3 0x1119 JUMPI INVALID JUMPDEST PUSH1 0xF8 SHL SWAP1 MSTORE POP PUSH3 0x112C DUP2 PUSH1 0x15 PUSH3 0x1E47 JUMP JUMPDEST PUSH1 0x80 ADD MLOAD PUSH1 0x2 DUP2 GT ISZERO PUSH3 0x113C JUMPI INVALID JUMPDEST PUSH2 0x1240 DUP2 PUSH1 0x2 DUP2 GT ISZERO PUSH3 0x114C JUMPI INVALID JUMPDEST PUSH1 0xF8 SHL SWAP1 MSTORE POP PUSH3 0x115F DUP2 PUSH1 0x16 PUSH3 0x1E47 JUMP JUMPDEST PUSH1 0x80 ADD MLOAD PUSH1 0x2 DUP2 GT ISZERO PUSH3 0x116F JUMPI INVALID JUMPDEST PUSH2 0x1260 DUP2 PUSH1 0x2 DUP2 GT ISZERO PUSH3 0x117F JUMPI INVALID JUMPDEST PUSH1 0xF8 SHL SWAP1 MSTORE POP PUSH3 0x1192 DUP2 PUSH1 0x17 PUSH3 0x1E47 JUMP JUMPDEST PUSH1 0x80 ADD MLOAD PUSH1 0x2 DUP2 GT ISZERO PUSH3 0x11A2 JUMPI INVALID JUMPDEST PUSH2 0x1280 DUP2 PUSH1 0x2 DUP2 GT ISZERO PUSH3 0x11B2 JUMPI INVALID JUMPDEST PUSH1 0xF8 SHL SWAP1 MSTORE POP PUSH3 0x11C5 DUP2 PUSH1 0x18 PUSH3 0x1E47 JUMP JUMPDEST PUSH1 0x80 ADD MLOAD PUSH1 0x2 DUP2 GT ISZERO PUSH3 0x11D5 JUMPI INVALID JUMPDEST PUSH2 0x12A0 DUP2 PUSH1 0x2 DUP2 GT ISZERO PUSH3 0x11E5 JUMPI INVALID JUMPDEST PUSH1 0xF8 SHL SWAP1 MSTORE POP PUSH3 0x11F8 DUP2 PUSH1 0x19 PUSH3 0x1E47 JUMP JUMPDEST PUSH1 0x80 ADD MLOAD PUSH1 0x2 DUP2 GT ISZERO PUSH3 0x1208 JUMPI INVALID JUMPDEST PUSH2 0x12C0 DUP2 PUSH1 0x2 DUP2 GT ISZERO PUSH3 0x1218 JUMPI INVALID JUMPDEST PUSH1 0xF8 SHL SWAP1 MSTORE POP PUSH3 0x122B DUP2 PUSH1 0x1A PUSH3 0x1E47 JUMP JUMPDEST PUSH1 0x80 ADD MLOAD PUSH1 0x2 DUP2 GT ISZERO PUSH3 0x123B JUMPI INVALID JUMPDEST PUSH2 0x12E0 DUP2 PUSH1 0x2 DUP2 GT ISZERO PUSH3 0x124B JUMPI INVALID JUMPDEST PUSH1 0xF8 SHL SWAP1 MSTORE POP PUSH3 0x125E DUP2 PUSH1 0x1B PUSH3 0x1E47 JUMP JUMPDEST PUSH1 0x80 ADD MLOAD PUSH1 0x2 DUP2 GT ISZERO PUSH3 0x126E JUMPI INVALID JUMPDEST PUSH2 0x1300 DUP2 PUSH1 0x2 DUP2 GT ISZERO PUSH3 0x127E JUMPI INVALID JUMPDEST PUSH1 0xF8 SHL SWAP1 MSTORE POP PUSH3 0x1291 DUP2 PUSH1 0x1C PUSH3 0x1E47 JUMP JUMPDEST PUSH1 0x80 ADD MLOAD PUSH1 0x2 DUP2 GT ISZERO PUSH3 0x12A1 JUMPI INVALID JUMPDEST PUSH2 0x1320 DUP2 PUSH1 0x2 DUP2 GT ISZERO PUSH3 0x12B1 JUMPI INVALID JUMPDEST PUSH1 0xF8 SHL SWAP1 MSTORE POP PUSH3 0x12C4 DUP2 PUSH1 0x1D PUSH3 0x1E47 JUMP JUMPDEST PUSH1 0x80 ADD MLOAD PUSH1 0x2 DUP2 GT ISZERO PUSH3 0x12D4 JUMPI INVALID JUMPDEST PUSH2 0x1340 DUP2 PUSH1 0x2 DUP2 GT ISZERO PUSH3 0x12E4 JUMPI INVALID JUMPDEST PUSH1 0xF8 SHL SWAP1 MSTORE POP PUSH3 0x12F7 DUP2 PUSH1 0x0 PUSH3 0x1E47 JUMP JUMPDEST PUSH1 0xA0 ADD MLOAD PUSH2 0x1360 MSTORE PUSH3 0x130C DUP2 PUSH1 0x1 PUSH3 0x1E47 JUMP JUMPDEST PUSH1 0xA0 ADD MLOAD PUSH2 0x1380 MSTORE PUSH3 0x1321 DUP2 PUSH1 0x2 PUSH3 0x1E47 JUMP JUMPDEST PUSH1 0xA0 ADD MLOAD PUSH2 0x13A0 MSTORE PUSH3 0x1336 DUP2 PUSH1 0x3 PUSH3 0x1E47 JUMP JUMPDEST PUSH1 0xA0 ADD MLOAD PUSH2 0x13C0 MSTORE PUSH3 0x134B DUP2 PUSH1 0x4 PUSH3 0x1E47 JUMP JUMPDEST PUSH1 0xA0 ADD MLOAD PUSH2 0x13E0 MSTORE PUSH3 0x1360 DUP2 PUSH1 0x5 PUSH3 0x1E47 JUMP JUMPDEST PUSH1 0xA0 ADD MLOAD PUSH2 0x1400 MSTORE PUSH3 0x1375 DUP2 PUSH1 0x6 PUSH3 0x1E47 JUMP JUMPDEST PUSH1 0xA0 ADD MLOAD PUSH2 0x1420 MSTORE PUSH3 0x138A DUP2 PUSH1 0x7 PUSH3 0x1E47 JUMP JUMPDEST PUSH1 0xA0 ADD MLOAD PUSH2 0x1440 MSTORE PUSH3 0x139F DUP2 PUSH1 0x8 PUSH3 0x1E47 JUMP JUMPDEST PUSH1 0xA0 ADD MLOAD PUSH2 0x1460 MSTORE PUSH3 0x13B4 DUP2 PUSH1 0x9 PUSH3 0x1E47 JUMP JUMPDEST PUSH1 0xA0 ADD MLOAD PUSH2 0x1480 MSTORE PUSH3 0x13C9 DUP2 PUSH1 0xA PUSH3 0x1E47 JUMP JUMPDEST PUSH1 0xA0 ADD MLOAD PUSH2 0x14A0 MSTORE PUSH3 0x13DE DUP2 PUSH1 0xB PUSH3 0x1E47 JUMP JUMPDEST PUSH1 0xA0 ADD MLOAD PUSH2 0x14C0 MSTORE PUSH3 0x13F3 DUP2 PUSH1 0xC PUSH3 0x1E47 JUMP JUMPDEST PUSH1 0xA0 ADD MLOAD PUSH2 0x14E0 MSTORE PUSH3 0x1408 DUP2 PUSH1 0xD PUSH3 0x1E47 JUMP JUMPDEST PUSH1 0xA0 ADD MLOAD PUSH2 0x1500 MSTORE PUSH3 0x141D DUP2 PUSH1 0xE PUSH3 0x1E47 JUMP JUMPDEST PUSH1 0xA0 ADD MLOAD PUSH2 0x1520 MSTORE PUSH3 0x1432 DUP2 PUSH1 0xF PUSH3 0x1E47 JUMP JUMPDEST PUSH1 0xA0 ADD MLOAD PUSH2 0x1540 MSTORE PUSH3 0x1447 DUP2 PUSH1 0x10 PUSH3 0x1E47 JUMP JUMPDEST PUSH1 0xA0 ADD MLOAD PUSH2 0x1560 MSTORE PUSH3 0x145C DUP2 PUSH1 0x11 PUSH3 0x1E47 JUMP JUMPDEST PUSH1 0xA0 ADD MLOAD PUSH2 0x1580 MSTORE PUSH3 0x1471 DUP2 PUSH1 0x12 PUSH3 0x1E47 JUMP JUMPDEST PUSH1 0xA0 ADD MLOAD PUSH2 0x15A0 MSTORE PUSH3 0x1486 DUP2 PUSH1 0x13 PUSH3 0x1E47 JUMP JUMPDEST PUSH1 0xA0 ADD MLOAD PUSH2 0x15C0 MSTORE PUSH3 0x149B DUP2 PUSH1 0x14 PUSH3 0x1E47 JUMP JUMPDEST PUSH1 0xA0 ADD MLOAD PUSH2 0x15E0 MSTORE PUSH3 0x14B0 DUP2 PUSH1 0x15 PUSH3 0x1E47 JUMP JUMPDEST PUSH1 0xA0 ADD MLOAD PUSH2 0x1600 MSTORE PUSH3 0x14C5 DUP2 PUSH1 0x16 PUSH3 0x1E47 JUMP JUMPDEST PUSH1 0xA0 ADD MLOAD PUSH2 0x1620 MSTORE PUSH3 0x14DA DUP2 PUSH1 0x17 PUSH3 0x1E47 JUMP JUMPDEST PUSH1 0xA0 ADD MLOAD PUSH2 0x1640 MSTORE PUSH3 0x14EF DUP2 PUSH1 0x18 PUSH3 0x1E47 JUMP JUMPDEST PUSH1 0xA0 ADD MLOAD PUSH2 0x1660 MSTORE PUSH3 0x1504 DUP2 PUSH1 0x19 PUSH3 0x1E47 JUMP JUMPDEST PUSH1 0xA0 ADD MLOAD PUSH2 0x1680 MSTORE PUSH3 0x1519 DUP2 PUSH1 0x1A PUSH3 0x1E47 JUMP JUMPDEST PUSH1 0xA0 ADD MLOAD PUSH2 0x16A0 MSTORE PUSH3 0x152E DUP2 PUSH1 0x1B PUSH3 0x1E47 JUMP JUMPDEST PUSH1 0xA0 ADD MLOAD PUSH2 0x16C0 MSTORE PUSH3 0x1543 DUP2 PUSH1 0x1C PUSH3 0x1E47 JUMP JUMPDEST PUSH1 0xA0 ADD MLOAD PUSH2 0x16E0 MSTORE PUSH3 0x1558 DUP2 PUSH1 0x1D PUSH3 0x1E47 JUMP JUMPDEST PUSH1 0xA0 ADD MLOAD PUSH2 0x1700 MSTORE PUSH3 0x156D DUP2 PUSH1 0x0 PUSH3 0x1E47 JUMP JUMPDEST PUSH1 0xC0 ADD MLOAD PUSH1 0x60 SHL PUSH1 0x1 PUSH1 0x1 PUSH1 0x60 SHL SUB NOT AND PUSH2 0x1720 MSTORE PUSH3 0x158F DUP2 PUSH1 0x1 PUSH3 0x1E47 JUMP JUMPDEST PUSH1 0xC0 ADD MLOAD PUSH1 0x60 SHL PUSH1 0x1 PUSH1 0x1 PUSH1 0x60 SHL SUB NOT AND PUSH2 0x1740 MSTORE PUSH3 0x15B1 DUP2 PUSH1 0x2 PUSH3 0x1E47 JUMP JUMPDEST PUSH1 0xC0 ADD MLOAD PUSH1 0x60 SHL PUSH1 0x1 PUSH1 0x1 PUSH1 0x60 SHL SUB NOT AND PUSH2 0x1760 MSTORE PUSH3 0x15D3 DUP2 PUSH1 0x3 PUSH3 0x1E47 JUMP JUMPDEST PUSH1 0xC0 ADD MLOAD PUSH1 0x60 SHL PUSH1 0x1 PUSH1 0x1 PUSH1 0x60 SHL SUB NOT AND PUSH2 0x1780 MSTORE PUSH3 0x15F5 DUP2 PUSH1 0x4 PUSH3 0x1E47 JUMP JUMPDEST PUSH1 0xC0 ADD MLOAD PUSH1 0x60 SHL PUSH1 0x1 PUSH1 0x1 PUSH1 0x60 SHL SUB NOT AND PUSH2 0x17A0 MSTORE PUSH3 0x1617 DUP2 PUSH1 0x5 PUSH3 0x1E47 JUMP JUMPDEST PUSH1 0xC0 ADD MLOAD PUSH1 0x60 SHL PUSH1 0x1 PUSH1 0x1 PUSH1 0x60 SHL SUB NOT AND PUSH2 0x17C0 MSTORE PUSH3 0x1639 DUP2 PUSH1 0x6 PUSH3 0x1E47 JUMP JUMPDEST PUSH1 0xC0 ADD MLOAD PUSH1 0x60 SHL PUSH1 0x1 PUSH1 0x1 PUSH1 0x60 SHL SUB NOT AND PUSH2 0x17E0 MSTORE PUSH3 0x165B DUP2 PUSH1 0x7 PUSH3 0x1E47 JUMP JUMPDEST PUSH1 0xC0 ADD MLOAD PUSH1 0x60 SHL PUSH1 0x1 PUSH1 0x1 PUSH1 0x60 SHL SUB NOT AND PUSH2 0x1800 MSTORE PUSH3 0x167D DUP2 PUSH1 0x8 PUSH3 0x1E47 JUMP JUMPDEST PUSH1 0xC0 ADD MLOAD PUSH1 0x60 SHL PUSH1 0x1 PUSH1 0x1 PUSH1 0x60 SHL SUB NOT AND PUSH2 0x1820 MSTORE PUSH3 0x169F DUP2 PUSH1 0x9 PUSH3 0x1E47 JUMP JUMPDEST PUSH1 0xC0 ADD MLOAD PUSH1 0x60 SHL PUSH1 0x1 PUSH1 0x1 PUSH1 0x60 SHL SUB NOT AND PUSH2 0x1840 MSTORE PUSH3 0x16C1 DUP2 PUSH1 0xA PUSH3 0x1E47 JUMP JUMPDEST PUSH1 0xC0 ADD MLOAD PUSH1 0x60 SHL PUSH1 0x1 PUSH1 0x1 PUSH1 0x60 SHL SUB NOT AND PUSH2 0x1860 MSTORE PUSH3 0x16E3 DUP2 PUSH1 0xB PUSH3 0x1E47 JUMP JUMPDEST PUSH1 0xC0 ADD MLOAD PUSH1 0x60 SHL PUSH1 0x1 PUSH1 0x1 PUSH1 0x60 SHL SUB NOT AND PUSH2 0x1880 MSTORE PUSH3 0x1705 DUP2 PUSH1 0xC PUSH3 0x1E47 JUMP JUMPDEST PUSH1 0xC0 ADD MLOAD PUSH1 0x60 SHL PUSH1 0x1 PUSH1 0x1 PUSH1 0x60 SHL SUB NOT AND PUSH2 0x18A0 MSTORE PUSH3 0x1727 DUP2 PUSH1 0xD PUSH3 0x1E47 JUMP JUMPDEST PUSH1 0xC0 ADD MLOAD PUSH1 0x60 SHL PUSH1 0x1 PUSH1 0x1 PUSH1 0x60 SHL SUB NOT AND PUSH2 0x18C0 MSTORE PUSH3 0x1749 DUP2 PUSH1 0xE PUSH3 0x1E47 JUMP JUMPDEST PUSH1 0xC0 ADD MLOAD PUSH1 0x60 SHL PUSH1 0x1 PUSH1 0x1 PUSH1 0x60 SHL SUB NOT AND PUSH2 0x18E0 MSTORE PUSH3 0x176B DUP2 PUSH1 0xF PUSH3 0x1E47 JUMP JUMPDEST PUSH1 0xC0 ADD MLOAD PUSH1 0x60 SHL PUSH1 0x1 PUSH1 0x1 PUSH1 0x60 SHL SUB NOT AND PUSH2 0x1900 MSTORE PUSH3 0x178D DUP2 PUSH1 0x10 PUSH3 0x1E47 JUMP JUMPDEST PUSH1 0xC0 ADD MLOAD PUSH1 0x60 SHL PUSH1 0x1 PUSH1 0x1 PUSH1 0x60 SHL SUB NOT AND PUSH2 0x1920 MSTORE PUSH3 0x17AF DUP2 PUSH1 0x11 PUSH3 0x1E47 JUMP JUMPDEST PUSH1 0xC0 ADD MLOAD PUSH1 0x60 SHL PUSH1 0x1 PUSH1 0x1 PUSH1 0x60 SHL SUB NOT AND PUSH2 0x1940 MSTORE PUSH3 0x17D1 DUP2 PUSH1 0x12 PUSH3 0x1E47 JUMP JUMPDEST PUSH1 0xC0 ADD MLOAD PUSH1 0x60 SHL PUSH1 0x1 PUSH1 0x1 PUSH1 0x60 SHL SUB NOT AND PUSH2 0x1960 MSTORE PUSH3 0x17F3 DUP2 PUSH1 0x13 PUSH3 0x1E47 JUMP JUMPDEST PUSH1 0xC0 ADD MLOAD PUSH1 0x60 SHL PUSH1 0x1 PUSH1 0x1 PUSH1 0x60 SHL SUB NOT AND PUSH2 0x1980 MSTORE PUSH3 0x1815 DUP2 PUSH1 0x14 PUSH3 0x1E47 JUMP JUMPDEST PUSH1 0xC0 ADD MLOAD PUSH1 0x60 SHL PUSH1 0x1 PUSH1 0x1 PUSH1 0x60 SHL SUB NOT AND PUSH2 0x19A0 MSTORE PUSH3 0x1837 DUP2 PUSH1 0x15 PUSH3 0x1E47 JUMP JUMPDEST PUSH1 0xC0 ADD MLOAD PUSH1 0x60 SHL PUSH1 0x1 PUSH1 0x1 PUSH1 0x60 SHL SUB NOT AND PUSH2 0x19C0 MSTORE PUSH3 0x1859 DUP2 PUSH1 0x16 PUSH3 0x1E47 JUMP JUMPDEST PUSH1 0xC0 ADD MLOAD PUSH1 0x60 SHL PUSH1 0x1 PUSH1 0x1 PUSH1 0x60 SHL SUB NOT AND PUSH2 0x19E0 MSTORE PUSH3 0x187B DUP2 PUSH1 0x17 PUSH3 0x1E47 JUMP JUMPDEST PUSH1 0xC0 ADD MLOAD PUSH1 0x60 SHL PUSH1 0x1 PUSH1 0x1 PUSH1 0x60 SHL SUB NOT AND PUSH2 0x1A00 MSTORE PUSH3 0x189D DUP2 PUSH1 0x18 PUSH3 0x1E47 JUMP JUMPDEST PUSH1 0xC0 ADD MLOAD PUSH1 0x60 SHL PUSH1 0x1 PUSH1 0x1 PUSH1 0x60 SHL SUB NOT AND PUSH2 0x1A20 MSTORE PUSH3 0x18BF DUP2 PUSH1 0x19 PUSH3 0x1E47 JUMP JUMPDEST PUSH1 0xC0 ADD MLOAD PUSH1 0x60 SHL PUSH1 0x1 PUSH1 0x1 PUSH1 0x60 SHL SUB NOT AND PUSH2 0x1A40 MSTORE PUSH3 0x18E1 DUP2 PUSH1 0x1A PUSH3 0x1E47 JUMP JUMPDEST PUSH1 0xC0 ADD MLOAD PUSH1 0x60 SHL PUSH1 0x1 PUSH1 0x1 PUSH1 0x60 SHL SUB NOT AND PUSH2 0x1A60 MSTORE PUSH3 0x1903 DUP2 PUSH1 0x1B PUSH3 0x1E47 JUMP JUMPDEST PUSH1 0xC0 ADD MLOAD PUSH1 0x60 SHL PUSH1 0x1 PUSH1 0x1 PUSH1 0x60 SHL SUB NOT AND PUSH2 0x1A80 MSTORE PUSH3 0x1925 DUP2 PUSH1 0x1C PUSH3 0x1E47 JUMP JUMPDEST PUSH1 0xC0 ADD MLOAD PUSH1 0x60 SHL PUSH1 0x1 PUSH1 0x1 PUSH1 0x60 SHL SUB NOT AND PUSH2 0x1AA0 MSTORE PUSH3 0x1947 DUP2 PUSH1 0x1D PUSH3 0x1E47 JUMP JUMPDEST PUSH1 0xC0 ADD MLOAD PUSH1 0x60 SHL PUSH1 0x1 PUSH1 0x1 PUSH1 0x60 SHL SUB NOT AND PUSH2 0x1AC0 MSTORE PUSH3 0x1969 DUP2 PUSH1 0x0 PUSH3 0x1E47 JUMP JUMPDEST PUSH1 0xE0 ADD MLOAD ISZERO ISZERO PUSH1 0xF8 SHL PUSH2 0x1AE0 MSTORE PUSH3 0x1983 DUP2 PUSH1 0x1 PUSH3 0x1E47 JUMP JUMPDEST PUSH1 0xE0 ADD MLOAD ISZERO ISZERO PUSH1 0xF8 SHL PUSH2 0x1B00 MSTORE PUSH3 0x199D DUP2 PUSH1 0x2 PUSH3 0x1E47 JUMP JUMPDEST PUSH1 0xE0 ADD MLOAD ISZERO ISZERO PUSH1 0xF8 SHL PUSH2 0x1B20 MSTORE PUSH3 0x19B7 DUP2 PUSH1 0x3 PUSH3 0x1E47 JUMP JUMPDEST PUSH1 0xE0 ADD MLOAD ISZERO ISZERO PUSH1 0xF8 SHL PUSH2 0x1B40 MSTORE PUSH3 0x19D1 DUP2 PUSH1 0x4 PUSH3 0x1E47 JUMP JUMPDEST PUSH1 0xE0 ADD MLOAD ISZERO ISZERO PUSH1 0xF8 SHL PUSH2 0x1B60 MSTORE PUSH3 0x19EB DUP2 PUSH1 0x5 PUSH3 0x1E47 JUMP JUMPDEST PUSH1 0xE0 ADD MLOAD ISZERO ISZERO PUSH1 0xF8 SHL PUSH2 0x1B80 MSTORE PUSH3 0x1A05 DUP2 PUSH1 0x6 PUSH3 0x1E47 JUMP JUMPDEST PUSH1 0xE0 ADD MLOAD ISZERO ISZERO PUSH1 0xF8 SHL PUSH2 0x1BA0 MSTORE PUSH3 0x1A1F DUP2 PUSH1 0x7 PUSH3 0x1E47 JUMP JUMPDEST PUSH1 0xE0 ADD MLOAD ISZERO ISZERO PUSH1 0xF8 SHL PUSH2 0x1BC0 MSTORE PUSH3 0x1A39 DUP2 PUSH1 0x8 PUSH3 0x1E47 JUMP JUMPDEST PUSH1 0xE0 ADD MLOAD ISZERO ISZERO PUSH1 0xF8 SHL PUSH2 0x1BE0 MSTORE PUSH3 0x1A53 DUP2 PUSH1 0x9 PUSH3 0x1E47 JUMP JUMPDEST PUSH1 0xE0 ADD MLOAD ISZERO ISZERO PUSH1 0xF8 SHL PUSH2 0x1C00 MSTORE PUSH3 0x1A6D DUP2 PUSH1 0xA PUSH3 0x1E47 JUMP JUMPDEST PUSH1 0xE0 ADD MLOAD ISZERO ISZERO PUSH1 0xF8 SHL PUSH2 0x1C20 MSTORE PUSH3 0x1A87 DUP2 PUSH1 0xB PUSH3 0x1E47 JUMP JUMPDEST PUSH1 0xE0 ADD MLOAD ISZERO ISZERO PUSH1 0xF8 SHL PUSH2 0x1C40 MSTORE PUSH3 0x1AA1 DUP2 PUSH1 0xC PUSH3 0x1E47 JUMP JUMPDEST PUSH1 0xE0 ADD MLOAD ISZERO ISZERO PUSH1 0xF8 SHL PUSH2 0x1C60 MSTORE PUSH3 0x1ABB DUP2 PUSH1 0xD PUSH3 0x1E47 JUMP JUMPDEST PUSH1 0xE0 ADD MLOAD ISZERO ISZERO PUSH1 0xF8 SHL PUSH2 0x1C80 MSTORE PUSH3 0x1AD5 DUP2 PUSH1 0xE PUSH3 0x1E47 JUMP JUMPDEST PUSH1 0xE0 ADD MLOAD ISZERO ISZERO PUSH1 0xF8 SHL PUSH2 0x1CA0 MSTORE PUSH3 0x1AEF DUP2 PUSH1 0xF PUSH3 0x1E47 JUMP JUMPDEST PUSH1 0xE0 ADD MLOAD ISZERO ISZERO PUSH1 0xF8 SHL PUSH2 0x1CC0 MSTORE PUSH3 0x1B09 DUP2 PUSH1 0x10 PUSH3 0x1E47 JUMP JUMPDEST PUSH1 0xE0 ADD MLOAD ISZERO ISZERO PUSH1 0xF8 SHL PUSH2 0x1CE0 MSTORE PUSH3 0x1B23 DUP2 PUSH1 0x11 PUSH3 0x1E47 JUMP JUMPDEST PUSH1 0xE0 ADD MLOAD ISZERO ISZERO PUSH1 0xF8 SHL PUSH2 0x1D00 MSTORE PUSH3 0x1B3D DUP2 PUSH1 0x12 PUSH3 0x1E47 JUMP JUMPDEST PUSH1 0xE0 ADD MLOAD ISZERO ISZERO PUSH1 0xF8 SHL PUSH2 0x1D20 MSTORE PUSH3 0x1B57 DUP2 PUSH1 0x13 PUSH3 0x1E47 JUMP JUMPDEST PUSH1 0xE0 ADD MLOAD ISZERO ISZERO PUSH1 0xF8 SHL PUSH2 0x1D40 MSTORE PUSH3 0x1B71 DUP2 PUSH1 0x14 PUSH3 0x1E47 JUMP JUMPDEST PUSH1 0xE0 ADD MLOAD ISZERO ISZERO PUSH1 0xF8 SHL PUSH2 0x1D60 MSTORE PUSH3 0x1B8B DUP2 PUSH1 0x15 PUSH3 0x1E47 JUMP JUMPDEST PUSH1 0xE0 ADD MLOAD ISZERO ISZERO PUSH1 0xF8 SHL PUSH2 0x1D80 MSTORE PUSH3 0x1BA5 DUP2 PUSH1 0x16 PUSH3 0x1E47 JUMP JUMPDEST PUSH1 0xE0 ADD MLOAD ISZERO ISZERO PUSH1 0xF8 SHL PUSH2 0x1DA0 MSTORE PUSH3 0x1BBF DUP2 PUSH1 0x17 PUSH3 0x1E47 JUMP JUMPDEST PUSH1 0xE0 ADD MLOAD ISZERO ISZERO PUSH1 0xF8 SHL PUSH2 0x1DC0 MSTORE PUSH3 0x1BD9 DUP2 PUSH1 0x18 PUSH3 0x1E47 JUMP JUMPDEST PUSH1 0xE0 ADD MLOAD ISZERO ISZERO PUSH1 0xF8 SHL PUSH2 0x1DE0 MSTORE PUSH3 0x1BF3 DUP2 PUSH1 0x19 PUSH3 0x1E47 JUMP JUMPDEST PUSH1 0xE0 ADD MLOAD ISZERO ISZERO PUSH1 0xF8 SHL PUSH2 0x1E00 MSTORE PUSH3 0x1C0D DUP2 PUSH1 0x1A PUSH3 0x1E47 JUMP JUMPDEST PUSH1 0xE0 ADD MLOAD ISZERO ISZERO PUSH1 0xF8 SHL PUSH2 0x1E20 MSTORE PUSH3 0x1C27 DUP2 PUSH1 0x1B PUSH3 0x1E47 JUMP JUMPDEST PUSH1 0xE0 ADD MLOAD ISZERO ISZERO PUSH1 0xF8 SHL PUSH2 0x1E40 MSTORE PUSH3 0x1C41 DUP2 PUSH1 0x1C PUSH3 0x1E47 JUMP JUMPDEST PUSH1 0xE0 ADD MLOAD ISZERO ISZERO PUSH1 0xF8 SHL PUSH2 0x1E60 MSTORE PUSH3 0x1C5B DUP2 PUSH1 0x1D PUSH3 0x1E47 JUMP JUMPDEST PUSH1 0xE0 ADD MLOAD ISZERO ISZERO PUSH1 0xF8 SHL PUSH2 0x1E80 MSTORE POP PUSH1 0x1 PUSH1 0x1 PUSH1 0x60 SHL SUB NOT PUSH1 0x60 DUP7 DUP2 SHL DUP3 AND PUSH2 0x1EA0 MSTORE DUP6 SWAP1 SHL AND PUSH2 0x1EC0 MSTORE PUSH2 0x1F20 DUP3 SWAP1 MSTORE PUSH8 0xDE0B6B3A7640000 NOT DUP4 GT PUSH3 0x1CAD JUMPI DUP3 PUSH8 0xDE0B6B3A7640000 ADD PUSH3 0x1CB1 JUMP JUMPDEST PUSH1 0x0 NOT JUMPDEST PUSH2 0x1EE0 MSTORE PUSH8 0xDE0B6B3A7640000 DUP4 LT PUSH3 0x1CCD JUMPI PUSH1 0x1 PUSH3 0x1CD9 JUMP JUMPDEST DUP3 PUSH8 0xDE0B6B3A7640000 SUB JUMPDEST PUSH2 0x1F00 MSTORE PUSH1 0x0 JUMPDEST DUP2 MLOAD DUP2 LT ISZERO PUSH3 0x1E3B JUMPI PUSH3 0x1CF4 PUSH3 0x218A JUMP JUMPDEST DUP3 DUP3 DUP2 MLOAD DUP2 LT PUSH3 0x1D01 JUMPI INVALID JUMPDEST PUSH1 0x20 MUL PUSH1 0x20 ADD ADD MLOAD SWAP1 POP PUSH1 0x0 DUP2 PUSH1 0x60 ADD MLOAD GT PUSH3 0x1D32 JUMPI PUSH1 0x40 MLOAD PUSH3 0x461BCD PUSH1 0xE5 SHL DUP2 MSTORE PUSH1 0x4 ADD PUSH3 0x5B SWAP1 PUSH3 0x241B JUMP JUMPDEST PUSH1 0xC0 DUP2 ADD MLOAD PUSH1 0x2 DUP3 PUSH1 0x80 ADD MLOAD PUSH1 0x2 DUP2 GT ISZERO PUSH3 0x1D4A JUMPI INVALID JUMPDEST EQ ISZERO PUSH3 0x1E06 JUMPI PUSH1 0x1 PUSH1 0x1 PUSH1 0xA0 SHL SUB DUP2 AND PUSH3 0x1D7A JUMPI PUSH1 0x40 MLOAD PUSH3 0x461BCD PUSH1 0xE5 SHL DUP2 MSTORE PUSH1 0x4 ADD PUSH3 0x5B SWAP1 PUSH3 0x245D JUMP JUMPDEST PUSH1 0x40 DUP3 ADD MLOAD PUSH1 0x0 PUSH3 0x1D8C DUP5 PUSH3 0x1EC1 JUMP JUMPDEST PUSH1 0x0 DUP4 DUP2 MSTORE PUSH1 0x2 PUSH1 0x20 SWAP1 DUP2 MSTORE PUSH1 0x40 DUP1 DUP4 KECCAK256 TIMESTAMP DUP1 DUP3 SSTORE PUSH1 0x3 SWAP1 SWAP4 MSTORE SWAP3 DUP2 SWAP1 KECCAK256 DUP3 DUP2 SSTORE PUSH1 0x1 SWAP4 DUP5 ADD DUP6 SWAP1 SSTORE SWAP3 SWAP1 SWAP3 ADD DUP4 SWAP1 SSTORE SWAP1 MLOAD SWAP2 SWAP3 POP DUP4 SWAP2 PUSH32 0xE37D39315E3419C0937360F1AC88F2C52ECF67E3B22B367F82047DDB4591904A SWAP2 PUSH3 0x1DF6 SWAP2 DUP2 SWAP1 DUP7 SWAP1 DUP2 SWAP1 PUSH3 0x2547 JUMP JUMPDEST PUSH1 0x40 MLOAD DUP1 SWAP2 SUB SWAP1 LOG2 POP POP PUSH3 0x1E30 JUMP JUMPDEST PUSH1 0x1 PUSH1 0x1 PUSH1 0xA0 SHL SUB DUP2 AND ISZERO PUSH3 0x1E30 JUMPI PUSH1 0x40 MLOAD PUSH3 0x461BCD PUSH1 0xE5 SHL DUP2 MSTORE PUSH1 0x4 ADD PUSH3 0x5B SWAP1 PUSH3 0x2501 JUMP JUMPDEST POP POP PUSH1 0x1 ADD PUSH3 0x1CE0 JUMP JUMPDEST POP POP POP POP POP POP PUSH3 0x25D8 JUMP JUMPDEST PUSH3 0x1E51 PUSH3 0x218A JUMP JUMPDEST DUP3 MLOAD DUP3 LT ISZERO PUSH3 0x1E78 JUMPI DUP3 DUP3 DUP2 MLOAD DUP2 LT PUSH3 0x1E68 JUMPI INVALID JUMPDEST PUSH1 0x20 MUL PUSH1 0x20 ADD ADD MLOAD SWAP1 POP PUSH3 0x1EBB JUMP JUMPDEST POP PUSH1 0x40 DUP1 MLOAD PUSH2 0x100 DUP2 ADD DUP3 MSTORE PUSH1 0x0 DUP1 DUP3 MSTORE PUSH1 0x20 DUP3 ADD DUP2 SWAP1 MSTORE SWAP2 DUP2 ADD DUP3 SWAP1 MSTORE PUSH1 0x60 DUP2 ADD DUP3 SWAP1 MSTORE PUSH1 0x80 DUP2 ADD DUP3 SWAP1 MSTORE PUSH1 0xA0 DUP2 ADD DUP3 SWAP1 MSTORE PUSH1 0xC0 DUP2 ADD DUP3 SWAP1 MSTORE PUSH1 0xE0 DUP2 ADD SWAP2 SWAP1 SWAP2 MSTORE JUMPDEST SWAP3 SWAP2 POP POP JUMP JUMPDEST PUSH1 0x0 DUP1 PUSH1 0x0 PUSH3 0x1EE0 DUP5 PUSH1 0xC0 ADD MLOAD PUSH3 0x1F03 PUSH1 0x20 SHL PUSH3 0x34EC OR PUSH1 0x20 SHR JUMP JUMPDEST POP SWAP2 POP SWAP2 POP DUP4 PUSH1 0xE0 ADD MLOAD ISZERO PUSH3 0x1EFA JUMPI SWAP2 POP PUSH3 0x1EFE SWAP1 POP JUMP JUMPDEST POP SWAP1 POP JUMPDEST SWAP2 SWAP1 POP JUMP JUMPDEST PUSH1 0x0 DUP1 DUP1 PUSH3 0x1F11 PUSH3 0x2106 JUMP JUMPDEST SWAP1 POP DUP4 PUSH1 0x1 PUSH1 0x1 PUSH1 0xA0 SHL SUB AND PUSH4 0x5909C0D5 PUSH1 0x40 MLOAD DUP2 PUSH4 0xFFFFFFFF AND PUSH1 0xE0 SHL DUP2 MSTORE PUSH1 0x4 ADD PUSH1 0x20 PUSH1 0x40 MLOAD DUP1 DUP4 SUB DUP2 DUP7 DUP1 EXTCODESIZE ISZERO DUP1 ISZERO PUSH3 0x1F4D JUMPI PUSH1 0x0 DUP1 REVERT JUMPDEST POP GAS STATICCALL ISZERO DUP1 ISZERO PUSH3 0x1F62 JUMPI RETURNDATASIZE PUSH1 0x0 DUP1 RETURNDATACOPY RETURNDATASIZE PUSH1 0x0 REVERT JUMPDEST POP POP POP POP PUSH1 0x40 MLOAD RETURNDATASIZE PUSH1 0x1F NOT PUSH1 0x1F DUP3 ADD AND DUP3 ADD DUP1 PUSH1 0x40 MSTORE POP DUP2 ADD SWAP1 PUSH3 0x1F88 SWAP2 SWAP1 PUSH3 0x2402 JUMP JUMPDEST SWAP3 POP DUP4 PUSH1 0x1 PUSH1 0x1 PUSH1 0xA0 SHL SUB AND PUSH4 0x5A3D5493 PUSH1 0x40 MLOAD DUP2 PUSH4 0xFFFFFFFF AND PUSH1 0xE0 SHL DUP2 MSTORE PUSH1 0x4 ADD PUSH1 0x20 PUSH1 0x40 MLOAD DUP1 DUP4 SUB DUP2 DUP7 DUP1 EXTCODESIZE ISZERO DUP1 ISZERO PUSH3 0x1FC4 JUMPI PUSH1 0x0 DUP1 REVERT JUMPDEST POP GAS STATICCALL ISZERO DUP1 ISZERO PUSH3 0x1FD9 JUMPI RETURNDATASIZE PUSH1 0x0 DUP1 RETURNDATACOPY RETURNDATASIZE PUSH1 0x0 REVERT JUMPDEST POP POP POP POP PUSH1 0x40 MLOAD RETURNDATASIZE PUSH1 0x1F NOT PUSH1 0x1F DUP3 ADD AND DUP3 ADD DUP1 PUSH1 0x40 MSTORE POP DUP2 ADD SWAP1 PUSH3 0x1FFF SWAP2 SWAP1 PUSH3 0x2402 JUMP JUMPDEST SWAP2 POP PUSH1 0x0 DUP1 PUSH1 0x0 DUP7 PUSH1 0x1 PUSH1 0x1 PUSH1 0xA0 SHL SUB AND PUSH4 0x902F1AC PUSH1 0x40 MLOAD DUP2 PUSH4 0xFFFFFFFF AND PUSH1 0xE0 SHL DUP2 MSTORE PUSH1 0x4 ADD PUSH1 0x60 PUSH1 0x40 MLOAD DUP1 DUP4 SUB DUP2 DUP7 DUP1 EXTCODESIZE ISZERO DUP1 ISZERO PUSH3 0x2040 JUMPI PUSH1 0x0 DUP1 REVERT JUMPDEST POP GAS STATICCALL ISZERO DUP1 ISZERO PUSH3 0x2055 JUMPI RETURNDATASIZE PUSH1 0x0 DUP1 RETURNDATACOPY RETURNDATASIZE PUSH1 0x0 REVERT JUMPDEST POP POP POP POP PUSH1 0x40 MLOAD RETURNDATASIZE PUSH1 0x1F NOT PUSH1 0x1F DUP3 ADD AND DUP3 ADD DUP1 PUSH1 0x40 MSTORE POP DUP2 ADD SWAP1 PUSH3 0x207B SWAP2 SWAP1 PUSH3 0x23A8 JUMP JUMPDEST SWAP3 POP SWAP3 POP SWAP3 POP DUP4 PUSH4 0xFFFFFFFF AND DUP2 PUSH4 0xFFFFFFFF AND EQ PUSH3 0x20FC JUMPI PUSH1 0x0 DUP2 DUP6 SUB SWAP1 POP DUP1 PUSH4 0xFFFFFFFF AND PUSH3 0x20BA DUP5 DUP7 PUSH3 0x2110 PUSH1 0x20 SHL PUSH3 0x36C1 OR PUSH1 0x20 SHR JUMP JUMPDEST PUSH1 0x0 ADD MLOAD PUSH1 0x1 PUSH1 0x1 PUSH1 0xE0 SHL SUB AND MUL DUP8 ADD SWAP7 POP DUP1 PUSH4 0xFFFFFFFF AND PUSH3 0x20EA DUP6 DUP6 PUSH3 0x2110 PUSH1 0x20 SHL PUSH3 0x36C1 OR PUSH1 0x20 SHR JUMP JUMPDEST MLOAD PUSH1 0x1 PUSH1 0x1 PUSH1 0xE0 SHL SUB AND MUL SWAP6 SWAP1 SWAP6 ADD SWAP5 POP JUMPDEST POP POP POP SWAP2 SWAP4 SWAP1 SWAP3 POP JUMP JUMPDEST PUSH4 0xFFFFFFFF TIMESTAMP AND SWAP1 JUMP JUMPDEST PUSH3 0x211A PUSH3 0x21CF JUMP JUMPDEST PUSH1 0x0 DUP3 PUSH1 0x1 PUSH1 0x1 PUSH1 0x70 SHL SUB AND GT PUSH3 0x2146 JUMPI PUSH1 0x40 MLOAD PUSH3 0x461BCD PUSH1 0xE5 SHL DUP2 MSTORE PUSH1 0x4 ADD PUSH3 0x5B SWAP1 PUSH3 0x24CA JUMP JUMPDEST PUSH1 0x40 DUP1 MLOAD PUSH1 0x20 DUP2 ADD SWAP1 SWAP2 MSTORE DUP1 PUSH1 0x1 PUSH1 0x1 PUSH1 0x70 SHL SUB DUP5 AND PUSH1 0x1 PUSH1 0x70 SHL PUSH1 0x1 PUSH1 0xE0 SHL SUB PUSH1 0x70 DUP8 SWAP1 SHL AND DUP2 PUSH3 0x2175 JUMPI INVALID JUMPDEST DIV PUSH1 0x1 PUSH1 0x1 PUSH1 0xE0 SHL SUB AND DUP2 MSTORE POP SWAP1 POP SWAP3 SWAP2 POP POP JUMP JUMPDEST PUSH1 0x40 DUP1 MLOAD PUSH2 0x100 DUP2 ADD DUP3 MSTORE PUSH1 0x0 DUP1 DUP3 MSTORE PUSH1 0x20 DUP3 ADD DUP2 SWAP1 MSTORE SWAP2 DUP2 ADD DUP3 SWAP1 MSTORE PUSH1 0x60 DUP2 ADD DUP3 SWAP1 MSTORE SWAP1 PUSH1 0x80 DUP3 ADD SWAP1 DUP2 MSTORE PUSH1 0x0 PUSH1 0x20 DUP3 ADD DUP2 SWAP1 MSTORE PUSH1 0x40 DUP3 ADD DUP2 SWAP1 MSTORE PUSH1 0x60 SWAP1 SWAP2 ADD MSTORE SWAP1 JUMP JUMPDEST PUSH1 0x40 DUP1 MLOAD PUSH1 0x20 DUP2 ADD SWAP1 SWAP2 MSTORE PUSH1 0x0 DUP2 MSTORE SWAP1 JUMP JUMPDEST DUP1 MLOAD PUSH3 0x1EBB DUP2 PUSH3 0x25A9 JUMP JUMPDEST DUP1 MLOAD DUP1 ISZERO ISZERO DUP2 EQ PUSH3 0x1EBB JUMPI PUSH1 0x0 DUP1 REVERT JUMPDEST DUP1 MLOAD PUSH1 0x3 DUP2 LT PUSH3 0x1EBB JUMPI PUSH1 0x0 DUP1 REVERT JUMPDEST PUSH1 0x0 PUSH2 0x100 DUP1 DUP4 DUP6 SUB SLT ISZERO PUSH3 0x2223 JUMPI DUP2 DUP3 REVERT JUMPDEST PUSH3 0x222E DUP2 PUSH3 0x2562 JUMP JUMPDEST SWAP2 POP POP DUP2 MLOAD PUSH3 0x223E DUP2 PUSH3 0x25A9 JUMP JUMPDEST DUP2 MSTORE PUSH1 0x20 DUP3 ADD MLOAD PUSH3 0x2250 DUP2 PUSH3 0x25A9 JUMP JUMPDEST DUP1 PUSH1 0x20 DUP4 ADD MSTORE POP PUSH1 0x40 DUP3 ADD MLOAD PUSH1 0x40 DUP3 ADD MSTORE PUSH1 0x60 DUP3 ADD MLOAD PUSH1 0x60 DUP3 ADD MSTORE PUSH3 0x227A DUP4 PUSH1 0x80 DUP5 ADD PUSH3 0x21FF JUMP JUMPDEST PUSH1 0x80 DUP3 ADD MSTORE PUSH1 0xA0 DUP3 ADD MLOAD PUSH1 0xA0 DUP3 ADD MSTORE PUSH3 0x2298 DUP4 PUSH1 0xC0 DUP5 ADD PUSH3 0x21E1 JUMP JUMPDEST PUSH1 0xC0 DUP3 ADD MSTORE PUSH3 0x22AC DUP4 PUSH1 0xE0 DUP5 ADD PUSH3 0x21EE JUMP JUMPDEST PUSH1 0xE0 DUP3 ADD MSTORE SWAP3 SWAP2 POP POP JUMP JUMPDEST PUSH1 0x0 DUP1 PUSH1 0x0 DUP1 PUSH1 0x0 PUSH1 0xA0 DUP7 DUP9 SUB SLT ISZERO PUSH3 0x22CF JUMPI DUP1 DUP2 REVERT JUMPDEST DUP6 MLOAD PUSH3 0x22DC DUP2 PUSH3 0x25A9 JUMP JUMPDEST DUP1 SWAP6 POP POP PUSH1 0x20 DUP1 DUP8 ADD MLOAD PUSH3 0x22F1 DUP2 PUSH3 0x25A9 JUMP JUMPDEST PUSH1 0x40 DUP9 ADD MLOAD PUSH1 0x60 DUP10 ADD MLOAD PUSH1 0x80 DUP11 ADD MLOAD SWAP3 SWAP8 POP SWAP1 SWAP6 POP SWAP4 POP PUSH1 0x1 PUSH1 0x1 PUSH1 0x40 SHL SUB DUP2 GT ISZERO PUSH3 0x231C JUMPI DUP3 DUP4 REVERT JUMPDEST DUP8 ADD PUSH1 0x1F DUP2 ADD DUP10 SGT PUSH3 0x232D JUMPI DUP3 DUP4 REVERT JUMPDEST DUP1 MLOAD PUSH3 0x2344 PUSH3 0x233E DUP3 PUSH3 0x2589 JUMP JUMPDEST PUSH3 0x2562 JUMP JUMPDEST DUP2 DUP2 MSTORE DUP4 DUP2 ADD SWAP1 DUP4 DUP6 ADD PUSH2 0x100 DUP1 DUP6 MUL DUP7 ADD DUP8 ADD DUP15 LT ISZERO PUSH3 0x2364 JUMPI DUP8 DUP9 REVERT JUMPDEST DUP8 SWAP6 POP JUMPDEST DUP5 DUP7 LT ISZERO PUSH3 0x2394 JUMPI PUSH3 0x237D DUP15 DUP4 PUSH3 0x220F JUMP JUMPDEST DUP5 MSTORE PUSH1 0x1 SWAP6 SWAP1 SWAP6 ADD SWAP5 SWAP3 DUP7 ADD SWAP3 SWAP1 DUP2 ADD SWAP1 PUSH3 0x2368 JUMP JUMPDEST POP POP DUP1 SWAP6 POP POP POP POP POP POP SWAP3 SWAP6 POP SWAP3 SWAP6 SWAP1 SWAP4 POP JUMP JUMPDEST PUSH1 0x0 DUP1 PUSH1 0x0 PUSH1 0x60 DUP5 DUP7 SUB SLT ISZERO PUSH3 0x23BD JUMPI DUP3 DUP4 REVERT JUMPDEST DUP4 MLOAD PUSH3 0x23CA DUP2 PUSH3 0x25C2 JUMP JUMPDEST PUSH1 0x20 DUP6 ADD MLOAD SWAP1 SWAP4 POP PUSH3 0x23DD DUP2 PUSH3 0x25C2 JUMP JUMPDEST PUSH1 0x40 DUP6 ADD MLOAD SWAP1 SWAP3 POP PUSH4 0xFFFFFFFF DUP2 AND DUP2 EQ PUSH3 0x23F7 JUMPI DUP2 DUP3 REVERT JUMPDEST DUP1 SWAP2 POP POP SWAP3 POP SWAP3 POP SWAP3 JUMP JUMPDEST PUSH1 0x0 PUSH1 0x20 DUP3 DUP5 SUB SLT ISZERO PUSH3 0x2414 JUMPI DUP1 DUP2 REVERT JUMPDEST POP MLOAD SWAP2 SWAP1 POP JUMP JUMPDEST PUSH1 0x20 DUP1 DUP3 MSTORE PUSH1 0x22 SWAP1 DUP3 ADD MSTORE PUSH32 0x62617365556E6974206D7573742062652067726561746572207468616E207A65 PUSH1 0x40 DUP3 ADD MSTORE PUSH2 0x726F PUSH1 0xF0 SHL PUSH1 0x60 DUP3 ADD MSTORE PUSH1 0x80 ADD SWAP1 JUMP JUMPDEST PUSH1 0x20 DUP1 DUP3 MSTORE PUSH1 0x23 SWAP1 DUP3 ADD MSTORE PUSH32 0x7265706F7274656420707269636573206D757374206861766520616E20616E63 PUSH1 0x40 DUP3 ADD MSTORE PUSH3 0x3437B9 PUSH1 0xE9 SHL PUSH1 0x60 DUP3 ADD MSTORE PUSH1 0x80 ADD SWAP1 JUMP JUMPDEST PUSH1 0x20 DUP1 DUP3 MSTORE PUSH1 0x10 SWAP1 DUP3 ADD MSTORE PUSH16 0x746F6F206D616E7920636F6E66696773 PUSH1 0x80 SHL PUSH1 0x40 DUP3 ADD MSTORE PUSH1 0x60 ADD SWAP1 JUMP JUMPDEST PUSH1 0x20 DUP1 DUP3 MSTORE PUSH1 0x17 SWAP1 DUP3 ADD MSTORE PUSH32 0x4669786564506F696E743A204449565F42595F5A45524F000000000000000000 PUSH1 0x40 DUP3 ADD MSTORE PUSH1 0x60 ADD SWAP1 JUMP JUMPDEST PUSH1 0x20 DUP1 DUP3 MSTORE PUSH1 0x26 SWAP1 DUP3 ADD MSTORE PUSH32 0x6F6E6C79207265706F7274656420707269636573207574696C697A6520616E20 PUSH1 0x40 DUP3 ADD MSTORE PUSH6 0x30B731B437B9 PUSH1 0xD1 SHL PUSH1 0x60 DUP3 ADD MSTORE PUSH1 0x80 ADD SWAP1 JUMP JUMPDEST SWAP4 DUP5 MSTORE PUSH1 0x20 DUP5 ADD SWAP3 SWAP1 SWAP3 MSTORE PUSH1 0x40 DUP4 ADD MSTORE PUSH1 0x60 DUP3 ADD MSTORE PUSH1 0x80 ADD SWAP1 JUMP JUMPDEST PUSH1 0x40 MLOAD DUP2 DUP2 ADD PUSH1 0x1 PUSH1 0x1 PUSH1 0x40 SHL SUB DUP2 GT DUP3 DUP3 LT OR ISZERO PUSH3 0x2581 JUMPI PUSH1 0x0 DUP1 REVERT JUMPDEST PUSH1 0x40 MSTORE SWAP2 SWAP1 POP JUMP JUMPDEST PUSH1 0x0 PUSH1 0x1 PUSH1 0x1 PUSH1 0x40 SHL SUB DUP3 GT ISZERO PUSH3 0x259F JUMPI DUP1 DUP2 REVERT JUMPDEST POP PUSH1 0x20 SWAP1 DUP2 MUL ADD SWAP1 JUMP JUMPDEST PUSH1 0x1 PUSH1 0x1 PUSH1 0xA0 SHL SUB DUP2 AND DUP2 EQ PUSH3 0x25BF JUMPI PUSH1 0x0 DUP1 REVERT JUMPDEST POP JUMP JUMPDEST PUSH1 0x1 PUSH1 0x1 PUSH1 0x70 SHL SUB DUP2 AND DUP2 EQ PUSH3 0x25BF JUMPI PUSH1 0x0 DUP1 REVERT JUMPDEST PUSH1 0x80 MLOAD PUSH1 0xA0 MLOAD PUSH1 0x60 SHR PUSH1 0xC0 MLOAD PUSH1 0x60 SHR PUSH1 0xE0 MLOAD PUSH1 0x60 SHR PUSH2 0x100 MLOAD PUSH1 0x60 SHR PUSH2 0x120 MLOAD PUSH1 0x60 SHR PUSH2 0x140 MLOAD PUSH1 0x60 SHR PUSH2 0x160 MLOAD PUSH1 0x60 SHR PUSH2 0x180 MLOAD PUSH1 0x60 SHR PUSH2 0x1A0 MLOAD PUSH1 0x60 SHR PUSH2 0x1C0 MLOAD PUSH1 0x60 SHR PUSH2 0x1E0 MLOAD PUSH1 0x60 SHR PUSH2 0x200 MLOAD PUSH1 0x60 SHR PUSH2 0x220 MLOAD PUSH1 0x60 SHR PUSH2 0x240 MLOAD PUSH1 0x60 SHR PUSH2 0x260 MLOAD PUSH1 0x60 SHR PUSH2 0x280 MLOAD PUSH1 0x60 SHR PUSH2 0x2A0 MLOAD PUSH1 0x60 SHR PUSH2 0x2C0 MLOAD PUSH1 0x60 SHR PUSH2 0x2E0 MLOAD PUSH1 0x60 SHR PUSH2 0x300 MLOAD PUSH1 0x60 SHR PUSH2 0x320 MLOAD PUSH1 0x60 SHR PUSH2 0x340 MLOAD PUSH1 0x60 SHR PUSH2 0x360 MLOAD PUSH1 0x60 SHR PUSH2 0x380 MLOAD PUSH1 0x60 SHR PUSH2 0x3A0 MLOAD PUSH1 0x60 SHR PUSH2 0x3C0 MLOAD PUSH1 0x60 SHR PUSH2 0x3E0 MLOAD PUSH1 0x60 SHR PUSH2 0x400 MLOAD PUSH1 0x60 SHR PUSH2 0x420 MLOAD PUSH1 0x60 SHR PUSH2 0x440 MLOAD PUSH1 0x60 SHR PUSH2 0x460 MLOAD PUSH1 0x60 SHR PUSH2 0x480 MLOAD PUSH1 0x60 SHR PUSH2 0x4A0 MLOAD PUSH1 0x60 SHR PUSH2 0x4C0 MLOAD PUSH1 0x60 SHR PUSH2 0x4E0 MLOAD PUSH1 0x60 SHR PUSH2 0x500 MLOAD PUSH1 0x60 SHR PUSH2 0x520 MLOAD PUSH1 0x60 SHR PUSH2 0x540 MLOAD PUSH1 0x60 SHR PUSH2 0x560 MLOAD PUSH1 0x60 SHR PUSH2 0x580 MLOAD PUSH1 0x60 SHR PUSH2 0x5A0 MLOAD PUSH1 0x60 SHR PUSH2 0x5C0 MLOAD PUSH1 0x60 SHR PUSH2 0x5E0 MLOAD PUSH1 0x60 SHR PUSH2 0x600 MLOAD PUSH1 0x60 SHR PUSH2 0x620 MLOAD PUSH1 0x60 SHR PUSH2 0x640 MLOAD PUSH1 0x60 SHR PUSH2 0x660 MLOAD PUSH1 0x60 SHR PUSH2 0x680 MLOAD PUSH1 0x60 SHR PUSH2 0x6A0 MLOAD PUSH1 0x60 SHR PUSH2 0x6C0 MLOAD PUSH1 0x60 SHR PUSH2 0x6E0 MLOAD PUSH1 0x60 SHR PUSH2 0x700 MLOAD PUSH1 0x60 SHR PUSH2 0x720 MLOAD PUSH1 0x60 SHR PUSH2 0x740 MLOAD PUSH1 0x60 SHR PUSH2 0x760 MLOAD PUSH1 0x60 SHR PUSH2 0x780 MLOAD PUSH1 0x60 SHR PUSH2 0x7A0 MLOAD PUSH1 0x60 SHR PUSH2 0x7C0 MLOAD PUSH1 0x60 SHR PUSH2 0x7E0 MLOAD PUSH1 0x60 SHR PUSH2 0x800 MLOAD PUSH1 0x60 SHR PUSH2 0x820 MLOAD PUSH2 0x840 MLOAD PUSH2 0x860 MLOAD PUSH2 0x880 MLOAD PUSH2 0x8A0 MLOAD PUSH2 0x8C0 MLOAD PUSH2 0x8E0 MLOAD PUSH2 0x900 MLOAD PUSH2 0x920 MLOAD PUSH2 0x940 MLOAD PUSH2 0x960 MLOAD PUSH2 0x980 MLOAD PUSH2 0x9A0 MLOAD PUSH2 0x9C0 MLOAD PUSH2 0x9E0 MLOAD PUSH2 0xA00 MLOAD PUSH2 0xA20 MLOAD PUSH2 0xA40 MLOAD PUSH2 0xA60 MLOAD PUSH2 0xA80 MLOAD PUSH2 0xAA0 MLOAD PUSH2 0xAC0 MLOAD PUSH2 0xAE0 MLOAD PUSH2 0xB00 MLOAD PUSH2 0xB20 MLOAD PUSH2 0xB40 MLOAD PUSH2 0xB60 MLOAD PUSH2 0xB80 MLOAD PUSH2 0xBA0 MLOAD PUSH2 0xBC0 MLOAD PUSH2 0xBE0 MLOAD PUSH2 0xC00 MLOAD PUSH2 0xC20 MLOAD PUSH2 0xC40 MLOAD PUSH2 0xC60 MLOAD PUSH2 0xC80 MLOAD PUSH2 0xCA0 MLOAD PUSH2 0xCC0 MLOAD PUSH2 0xCE0 MLOAD PUSH2 0xD00 MLOAD PUSH2 0xD20 MLOAD PUSH2 0xD40 MLOAD PUSH2 0xD60 MLOAD PUSH2 0xD80 MLOAD PUSH2 0xDA0 MLOAD PUSH2 0xDC0 MLOAD PUSH2 0xDE0 MLOAD PUSH2 0xE00 MLOAD PUSH2 0xE20 MLOAD PUSH2 0xE40 MLOAD PUSH2 0xE60 MLOAD PUSH2 0xE80 MLOAD PUSH2 0xEA0 MLOAD PUSH2 0xEC0 MLOAD PUSH2 0xEE0 MLOAD PUSH2 0xF00 MLOAD PUSH2 0xF20 MLOAD PUSH2 0xF40 MLOAD PUSH2 0xF60 MLOAD PUSH2 0xF80 MLOAD PUSH2 0xFA0 MLOAD PUSH1 0xF8 SHR PUSH2 0xFC0 MLOAD PUSH1 0xF8 SHR PUSH2 0xFE0 MLOAD PUSH1 0xF8 SHR PUSH2 0x1000 MLOAD PUSH1 0xF8 SHR PUSH2 0x1020 MLOAD PUSH1 0xF8 SHR PUSH2 0x1040 MLOAD PUSH1 0xF8 SHR PUSH2 0x1060 MLOAD PUSH1 0xF8 SHR PUSH2 0x1080 MLOAD PUSH1 0xF8 SHR PUSH2 0x10A0 MLOAD PUSH1 0xF8 SHR PUSH2 0x10C0 MLOAD PUSH1 0xF8 SHR PUSH2 0x10E0 MLOAD PUSH1 0xF8 SHR PUSH2 0x1100 MLOAD PUSH1 0xF8 SHR PUSH2 0x1120 MLOAD PUSH1 0xF8 SHR PUSH2 0x1140 MLOAD PUSH1 0xF8 SHR PUSH2 0x1160 MLOAD PUSH1 0xF8 SHR PUSH2 0x1180 MLOAD PUSH1 0xF8 SHR PUSH2 0x11A0 MLOAD PUSH1 0xF8 SHR PUSH2 0x11C0 MLOAD PUSH1 0xF8 SHR PUSH2 0x11E0 MLOAD PUSH1 0xF8 SHR PUSH2 0x1200 MLOAD PUSH1 0xF8 SHR PUSH2 0x1220 MLOAD PUSH1 0xF8 SHR PUSH2 0x1240 MLOAD PUSH1 0xF8 SHR PUSH2 0x1260 MLOAD PUSH1 0xF8 SHR PUSH2 0x1280 MLOAD PUSH1 0xF8 SHR PUSH2 0x12A0 MLOAD PUSH1 0xF8 SHR PUSH2 0x12C0 MLOAD PUSH1 0xF8 SHR PUSH2 0x12E0 MLOAD PUSH1 0xF8 SHR PUSH2 0x1300 MLOAD PUSH1 0xF8 SHR PUSH2 0x1320 MLOAD PUSH1 0xF8 SHR PUSH2 0x1340 MLOAD PUSH1 0xF8 SHR PUSH2 0x1360 MLOAD PUSH2 0x1380 MLOAD PUSH2 0x13A0 MLOAD PUSH2 0x13C0 MLOAD PUSH2 0x13E0 MLOAD PUSH2 0x1400 MLOAD PUSH2 0x1420 MLOAD PUSH2 0x1440 MLOAD PUSH2 0x1460 MLOAD PUSH2 0x1480 MLOAD PUSH2 0x14A0 MLOAD PUSH2 0x14C0 MLOAD PUSH2 0x14E0 MLOAD PUSH2 0x1500 MLOAD PUSH2 0x1520 MLOAD PUSH2 0x1540 MLOAD PUSH2 0x1560 MLOAD PUSH2 0x1580 MLOAD PUSH2 0x15A0 MLOAD PUSH2 0x15C0 MLOAD PUSH2 0x15E0 MLOAD PUSH2 0x1600 MLOAD PUSH2 0x1620 MLOAD PUSH2 0x1640 MLOAD PUSH2 0x1660 MLOAD PUSH2 0x1680 MLOAD PUSH2 0x16A0 MLOAD PUSH2 0x16C0 MLOAD PUSH2 0x16E0 MLOAD PUSH2 0x1700 MLOAD PUSH2 0x1720 MLOAD PUSH1 0x60 SHR PUSH2 0x1740 MLOAD PUSH1 0x60 SHR PUSH2 0x1760 MLOAD PUSH1 0x60 SHR PUSH2 0x1780 MLOAD PUSH1 0x60 SHR PUSH2 0x17A0 MLOAD PUSH1 0x60 SHR PUSH2 0x17C0 MLOAD PUSH1 0x60 SHR PUSH2 0x17E0 MLOAD PUSH1 0x60 SHR PUSH2 0x1800 MLOAD PUSH1 0x60 SHR PUSH2 0x1820 MLOAD PUSH1 0x60 SHR PUSH2 0x1840 MLOAD PUSH1 0x60 SHR PUSH2 0x1860 MLOAD PUSH1 0x60 SHR PUSH2 0x1880 MLOAD PUSH1 0x60 SHR PUSH2 0x18A0 MLOAD PUSH1 0x60 SHR PUSH2 0x18C0 MLOAD PUSH1 0x60 SHR PUSH2 0x18E0 MLOAD PUSH1 0x60 SHR PUSH2 0x1900 MLOAD PUSH1 0x60 SHR PUSH2 0x1920 MLOAD PUSH1 0x60 SHR PUSH2 0x1940 MLOAD PUSH1 0x60 SHR PUSH2 0x1960 MLOAD PUSH1 0x60 SHR PUSH2 0x1980 MLOAD PUSH1 0x60 SHR PUSH2 0x19A0 MLOAD PUSH1 0x60 SHR PUSH2 0x19C0 MLOAD PUSH1 0x60 SHR PUSH2 0x19E0 MLOAD PUSH1 0x60 SHR PUSH2 0x1A00 MLOAD PUSH1 0x60 SHR PUSH2 0x1A20 MLOAD PUSH1 0x60 SHR PUSH2 0x1A40 MLOAD PUSH1 0x60 SHR PUSH2 0x1A60 MLOAD PUSH1 0x60 SHR PUSH2 0x1A80 MLOAD PUSH1 0x60 SHR PUSH2 0x1AA0 MLOAD PUSH1 0x60 SHR PUSH2 0x1AC0 MLOAD PUSH1 0x60 SHR PUSH2 0x1AE0 MLOAD PUSH1 0xF8 SHR PUSH2 0x1B00 MLOAD PUSH1 0xF8 SHR PUSH2 0x1B20 MLOAD PUSH1 0xF8 SHR PUSH2 0x1B40 MLOAD PUSH1 0xF8 SHR PUSH2 0x1B60 MLOAD PUSH1 0xF8 SHR PUSH2 0x1B80 MLOAD PUSH1 0xF8 SHR PUSH2 0x1BA0 MLOAD PUSH1 0xF8 SHR PUSH2 0x1BC0 MLOAD PUSH1 0xF8 SHR PUSH2 0x1BE0 MLOAD PUSH1 0xF8 SHR PUSH2 0x1C00 MLOAD PUSH1 0xF8 SHR PUSH2 0x1C20 MLOAD PUSH1 0xF8 SHR PUSH2 0x1C40 MLOAD PUSH1 0xF8 SHR PUSH2 0x1C60 MLOAD PUSH1 0xF8 SHR PUSH2 0x1C80 MLOAD PUSH1 0xF8 SHR PUSH2 0x1CA0 MLOAD PUSH1 0xF8 SHR PUSH2 0x1CC0 MLOAD PUSH1 0xF8 SHR PUSH2 0x1CE0 MLOAD PUSH1 0xF8 SHR PUSH2 0x1D00 MLOAD PUSH1 0xF8 SHR PUSH2 0x1D20 MLOAD PUSH1 0xF8 SHR PUSH2 0x1D40 MLOAD PUSH1 0xF8 SHR PUSH2 0x1D60 MLOAD PUSH1 0xF8 SHR PUSH2 0x1D80 MLOAD PUSH1 0xF8 SHR PUSH2 0x1DA0 MLOAD PUSH1 0xF8 SHR PUSH2 0x1DC0 MLOAD PUSH1 0xF8 SHR PUSH2 0x1DE0 MLOAD PUSH1 0xF8 SHR PUSH2 0x1E00 MLOAD PUSH1 0xF8 SHR PUSH2 0x1E20 MLOAD PUSH1 0xF8 SHR PUSH2 0x1E40 MLOAD PUSH1 0xF8 SHR PUSH2 0x1E60 MLOAD PUSH1 0xF8 SHR PUSH2 0x1E80 MLOAD PUSH1 0xF8 SHR PUSH2 0x1EA0 MLOAD PUSH1 0x60 SHR PUSH2 0x1EC0 MLOAD PUSH1 0x60 SHR PUSH2 0x1EE0 MLOAD PUSH2 0x1F00 MLOAD PUSH2 0x1F20 MLOAD PUSH2 0x5D51 PUSH3 0x3339 PUSH1 0x0 CODECOPY DUP1 PUSH2 0x320F MSTORE DUP1 PUSH2 0x523C MSTORE POP DUP1 PUSH2 0x31C2 MSTORE DUP1 PUSH2 0x51B5 MSTORE POP DUP1 PUSH2 0x359 MSTORE DUP1 PUSH2 0x518A MSTORE POP DUP1 PUSH2 0x2E0 MSTORE DUP1 PUSH2 0x30DB MSTORE DUP1 PUSH2 0x316A MSTORE DUP1 PUSH2 0x458B MSTORE POP DUP1 PUSH2 0x31E6 MSTORE DUP1 PUSH2 0x3276 MSTORE DUP1 PUSH2 0x455C MSTORE POP DUP1 PUSH2 0x302C MSTORE POP DUP1 PUSH2 0x2EBA MSTORE POP DUP1 PUSH2 0x2D48 MSTORE POP DUP1 PUSH2 0x2BD6 MSTORE POP DUP1 PUSH2 0x2A64 MSTORE POP DUP1 PUSH2 0x28F2 MSTORE POP DUP1 PUSH2 0x2780 MSTORE POP DUP1 PUSH2 0x260E MSTORE POP DUP1 PUSH2 0x249C MSTORE POP DUP1 PUSH2 0x232A MSTORE POP DUP1 PUSH2 0x21B8 MSTORE POP DUP1 PUSH2 0x2046 MSTORE POP DUP1 PUSH2 0x1ED4 MSTORE POP DUP1 PUSH2 0x1D62 MSTORE POP DUP1 PUSH2 0x1BF0 MSTORE POP DUP1 PUSH2 0x1A7E MSTORE POP DUP1 PUSH2 0x190C MSTORE POP DUP1 PUSH2 0x179A MSTORE POP DUP1 PUSH2 0x1628 MSTORE POP DUP1 PUSH2 0x14B6 MSTORE POP DUP1 PUSH2 0x1344 MSTORE POP DUP1 PUSH2 0x11D2 MSTORE POP DUP1 PUSH2 0x1060 MSTORE POP DUP1 PUSH2 0xEEE MSTORE POP DUP1 PUSH2 0xD7C MSTORE POP DUP1 PUSH2 0xC0A MSTORE POP DUP1 PUSH2 0xA98 MSTORE POP DUP1 PUSH2 0x926 MSTORE POP DUP1 PUSH2 0x7B4 MSTORE POP DUP1 PUSH2 0x642 MSTORE POP DUP1 PUSH2 0x2FFD MSTORE POP DUP1 PUSH2 0x2E8B MSTORE POP DUP1 PUSH2 0x2D19 MSTORE POP DUP1 PUSH2 0x2BA7 MSTORE POP DUP1 PUSH2 0x2A35 MSTORE POP DUP1 PUSH2 0x28C3 MSTORE POP DUP1 PUSH2 0x2751 MSTORE POP DUP1 PUSH2 0x25DF MSTORE POP DUP1 PUSH2 0x246D MSTORE POP DUP1 PUSH2 0x22FB MSTORE POP DUP1 PUSH2 0x2189 MSTORE POP DUP1 PUSH2 0x2017 MSTORE POP DUP1 PUSH2 0x1EA5 MSTORE POP DUP1 PUSH2 0x1D33 MSTORE POP DUP1 PUSH2 0x1BC1 MSTORE POP DUP1 PUSH2 0x1A4F MSTORE POP DUP1 PUSH2 0x18DD MSTORE POP DUP1 PUSH2 0x176B MSTORE POP DUP1 PUSH2 0x15F9 MSTORE POP DUP1 PUSH2 0x1487 MSTORE POP DUP1 PUSH2 0x1315 MSTORE POP DUP1 PUSH2 0x11A3 MSTORE POP DUP1 PUSH2 0x1031 MSTORE POP DUP1 PUSH2 0xEBF MSTORE POP DUP1 PUSH2 0xD4D MSTORE POP DUP1 PUSH2 0xBDB MSTORE POP DUP1 PUSH2 0xA69 MSTORE POP DUP1 PUSH2 0x8F7 MSTORE POP DUP1 PUSH2 0x785 MSTORE POP DUP1 PUSH2 0x613 MSTORE POP DUP1 PUSH2 0x2FD7 MSTORE POP DUP1 PUSH2 0x2E65 MSTORE POP DUP1 PUSH2 0x2CF3 MSTORE POP DUP1 PUSH2 0x2B81 MSTORE POP DUP1 PUSH2 0x2A0F MSTORE POP DUP1 PUSH2 0x289D MSTORE POP DUP1 PUSH2 0x272B MSTORE POP DUP1 PUSH2 0x25B9 MSTORE POP DUP1 PUSH2 0x2447 MSTORE POP DUP1 PUSH2 0x22D5 MSTORE POP DUP1 PUSH2 0x2163 MSTORE POP DUP1 PUSH2 0x1FF1 MSTORE POP DUP1 PUSH2 0x1E7F MSTORE POP DUP1 PUSH2 0x1D0D MSTORE POP DUP1 PUSH2 0x1B9B MSTORE POP DUP1 PUSH2 0x1A29 MSTORE POP DUP1 PUSH2 0x18B7 MSTORE POP DUP1 PUSH2 0x1745 MSTORE POP DUP1 PUSH2 0x15D3 MSTORE POP DUP1 PUSH2 0x1461 MSTORE POP DUP1 PUSH2 0x12EF MSTORE POP DUP1 PUSH2 0x117D MSTORE POP DUP1 PUSH2 0x100B MSTORE POP DUP1 PUSH2 0xE99 MSTORE POP DUP1 PUSH2 0xD27 MSTORE POP DUP1 PUSH2 0xBB5 MSTORE POP DUP1 PUSH2 0xA43 MSTORE POP DUP1 PUSH2 0x8D1 MSTORE POP DUP1 PUSH2 0x75F MSTORE POP DUP1 PUSH2 0x5ED MSTORE POP DUP1 PUSH2 0x2FA6 MSTORE POP DUP1 PUSH2 0x2E34 MSTORE POP DUP1 PUSH2 0x2CC2 MSTORE POP DUP1 PUSH2 0x2B50 MSTORE POP DUP1 PUSH2 0x29DE MSTORE POP DUP1 PUSH2 0x286C MSTORE POP DUP1 PUSH2 0x26FA MSTORE POP DUP1 PUSH2 0x2588 MSTORE POP DUP1 PUSH2 0x2416 MSTORE POP DUP1 PUSH2 0x22A4 MSTORE POP DUP1 PUSH2 0x2132 MSTORE POP DUP1 PUSH2 0x1FC0 MSTORE POP DUP1 PUSH2 0x1E4E MSTORE POP DUP1 PUSH2 0x1CDC MSTORE POP DUP1 PUSH2 0x1B6A MSTORE POP DUP1 PUSH2 0x19F8 MSTORE POP DUP1 PUSH2 0x1886 MSTORE POP DUP1 PUSH2 0x1714 MSTORE POP DUP1 PUSH2 0x15A2 MSTORE POP DUP1 PUSH2 0x1430 MSTORE POP DUP1 PUSH2 0x12BE MSTORE POP DUP1 PUSH2 0x114C MSTORE POP DUP1 PUSH2 0xFDA MSTORE POP DUP1 PUSH2 0xE68 MSTORE POP DUP1 PUSH2 0xCF6 MSTORE POP DUP1 PUSH2 0xB84 MSTORE POP DUP1 PUSH2 0xA12 MSTORE POP DUP1 PUSH2 0x8A0 MSTORE POP DUP1 PUSH2 0x72E MSTORE POP DUP1 PUSH2 0x5BC MSTORE POP DUP1 PUSH2 0x2F80 MSTORE POP DUP1 PUSH2 0x2E0E MSTORE POP DUP1 PUSH2 0x2C9C MSTORE POP DUP1 PUSH2 0x2B2A MSTORE POP DUP1 PUSH2 0x29B8 MSTORE POP DUP1 PUSH2 0x2846 MSTORE POP DUP1 PUSH2 0x26D4 MSTORE POP DUP1 PUSH2 0x2562 MSTORE POP DUP1 PUSH2 0x23F0 MSTORE POP DUP1 PUSH2 0x227E MSTORE POP DUP1 PUSH2 0x210C MSTORE POP DUP1 PUSH2 0x1F9A MSTORE POP DUP1 PUSH2 0x1E28 MSTORE POP DUP1 PUSH2 0x1CB6 MSTORE POP DUP1 PUSH2 0x1B44 MSTORE POP DUP1 PUSH2 0x19D2 MSTORE POP DUP1 PUSH2 0x1860 MSTORE POP DUP1 PUSH2 0x16EE MSTORE POP DUP1 PUSH2 0x157C MSTORE POP DUP1 PUSH2 0x140A MSTORE POP DUP1 PUSH2 0x1298 MSTORE POP DUP1 PUSH2 0x1126 MSTORE POP DUP1 PUSH2 0xFB4 MSTORE POP DUP1 PUSH2 0xE42 MSTORE POP DUP1 PUSH2 0xCD0 MSTORE POP DUP1 PUSH2 0xB5E MSTORE POP DUP1 PUSH2 0x9EC MSTORE POP DUP1 PUSH2 0x87A MSTORE POP DUP1 PUSH2 0x708 MSTORE POP DUP1 PUSH2 0x596 MSTORE POP DUP1 PUSH2 0x2F5A MSTORE DUP1 PUSH2 0x3CB0 MSTORE POP DUP1 PUSH2 0x2DE8 MSTORE DUP1 PUSH2 0x3C80 MSTORE POP DUP1 PUSH2 0x2C76 MSTORE DUP1 PUSH2 0x3C50 MSTORE POP DUP1 PUSH2 0x2B04 MSTORE DUP1 PUSH2 0x3C20 MSTORE POP DUP1 PUSH2 0x2992 MSTORE DUP1 PUSH2 0x3BF0 MSTORE POP DUP1 PUSH2 0x2820 MSTORE DUP1 PUSH2 0x3BC0 MSTORE POP DUP1 PUSH2 0x26AE MSTORE DUP1 PUSH2 0x3B90 MSTORE POP DUP1 PUSH2 0x253C MSTORE DUP1 PUSH2 0x3B60 MSTORE POP DUP1 PUSH2 0x23CA MSTORE DUP1 PUSH2 0x3B30 MSTORE POP DUP1 PUSH2 0x2258 MSTORE DUP1 PUSH2 0x3B00 MSTORE POP DUP1 PUSH2 0x20E6 MSTORE DUP1 PUSH2 0x3AD0 MSTORE POP DUP1 PUSH2 0x1F74 MSTORE DUP1 PUSH2 0x3AA0 MSTORE POP DUP1 PUSH2 0x1E02 MSTORE DUP1 PUSH2 0x3A70 MSTORE POP DUP1 PUSH2 0x1C90 MSTORE DUP1 PUSH2 0x3A40 MSTORE POP DUP1 PUSH2 0x1B1E MSTORE DUP1 PUSH2 0x3A10 MSTORE POP DUP1 PUSH2 0x19AC MSTORE DUP1 PUSH2 0x39E0 MSTORE POP DUP1 PUSH2 0x183A MSTORE DUP1 PUSH2 0x39B0 MSTORE POP DUP1 PUSH2 0x16C8 MSTORE DUP1 PUSH2 0x3980 MSTORE POP DUP1 PUSH2 0x1556 MSTORE DUP1 PUSH2 0x3950 MSTORE POP DUP1 PUSH2 0x13E4 MSTORE DUP1 PUSH2 0x3920 MSTORE POP DUP1 PUSH2 0x1272 MSTORE DUP1 PUSH2 0x38F0 MSTORE POP DUP1 PUSH2 0x1100 MSTORE DUP1 PUSH2 0x38C0 MSTORE POP DUP1 PUSH2 0xF8E MSTORE DUP1 PUSH2 0x3890 MSTORE POP DUP1 PUSH2 0xE1C MSTORE DUP1 PUSH2 0x3860 MSTORE POP DUP1 PUSH2 0xCAA MSTORE DUP1 PUSH2 0x3830 MSTORE POP DUP1 PUSH2 0xB38 MSTORE DUP1 PUSH2 0x3800 MSTORE POP DUP1 PUSH2 0x9C6 MSTORE DUP1 PUSH2 0x37D0 MSTORE POP DUP1 PUSH2 0x854 MSTORE DUP1 PUSH2 0x37A0 MSTORE POP DUP1 PUSH2 0x6E2 MSTORE DUP1 PUSH2 0x3770 MSTORE POP DUP1 PUSH2 0x570 MSTORE DUP1 PUSH2 0x3740 MSTORE POP DUP1 PUSH2 0x2F2B MSTORE DUP1 PUSH2 0x4465 MSTORE POP DUP1 PUSH2 0x2DB9 MSTORE DUP1 PUSH2 0x4423 MSTORE POP DUP1 PUSH2 0x2C47 MSTORE DUP1 PUSH2 0x43E1 MSTORE POP DUP1 PUSH2 0x2AD5 MSTORE DUP1 PUSH2 0x439F MSTORE POP DUP1 PUSH2 0x2963 MSTORE DUP1 PUSH2 0x435D MSTORE POP DUP1 PUSH2 0x27F1 MSTORE DUP1 PUSH2 0x431B MSTORE POP DUP1 PUSH2 0x267F MSTORE DUP1 PUSH2 0x42D9 MSTORE POP DUP1 PUSH2 0x250D MSTORE DUP1 PUSH2 0x4297 MSTORE POP DUP1 PUSH2 0x239B MSTORE DUP1 PUSH2 0x4255 MSTORE POP DUP1 PUSH2 0x2229 MSTORE DUP1 PUSH2 0x4213 MSTORE POP DUP1 PUSH2 0x20B7 MSTORE DUP1 PUSH2 0x41D1 MSTORE POP DUP1 PUSH2 0x1F45 MSTORE DUP1 PUSH2 0x418F MSTORE POP DUP1 PUSH2 0x1DD3 MSTORE DUP1 PUSH2 0x414D MSTORE POP DUP1 PUSH2 0x1C61 MSTORE DUP1 PUSH2 0x410B MSTORE POP DUP1 PUSH2 0x1AEF MSTORE DUP1 PUSH2 0x40C9 MSTORE POP DUP1 PUSH2 0x197D MSTORE DUP1 PUSH2 0x4087 MSTORE POP DUP1 PUSH2 0x180B MSTORE DUP1 PUSH2 0x4045 MSTORE POP DUP1 PUSH2 0x1699 MSTORE DUP1 PUSH2 0x4003 MSTORE POP DUP1 PUSH2 0x1527 MSTORE DUP1 PUSH2 0x3FC1 MSTORE POP DUP1 PUSH2 0x13B5 MSTORE DUP1 PUSH2 0x3F7F MSTORE POP DUP1 PUSH2 0x1243 MSTORE DUP1 PUSH2 0x3F3D MSTORE POP DUP1 PUSH2 0x10D1 MSTORE DUP1 PUSH2 0x3EFB MSTORE POP DUP1 PUSH2 0xF5F MSTORE DUP1 PUSH2 0x3EB9 MSTORE POP DUP1 PUSH2 0xDED MSTORE DUP1 PUSH2 0x3E77 MSTORE POP DUP1 PUSH2 0xC7B MSTORE DUP1 PUSH2 0x3E35 MSTORE POP DUP1 PUSH2 0xB09 MSTORE DUP1 PUSH2 0x3DF3 MSTORE POP DUP1 PUSH2 0x997 MSTORE DUP1 PUSH2 0x3DB1 MSTORE POP DUP1 PUSH2 0x825 MSTORE DUP1 PUSH2 0x3D6F MSTORE POP DUP1 PUSH2 0x6B3 MSTORE DUP1 PUSH2 0x3D2D MSTORE POP DUP1 PUSH2 0x541 MSTORE DUP1 PUSH2 0x3CEB MSTORE POP DUP1 PUSH2 0x2EFC MSTORE DUP1 PUSH2 0x4ED6 MSTORE POP DUP1 PUSH2 0x2D8A MSTORE DUP1 PUSH2 0x4E94 MSTORE POP DUP1 PUSH2 0x2C18 MSTORE DUP1 PUSH2 0x4E52 MSTORE POP DUP1 PUSH2 0x2AA6 MSTORE DUP1 PUSH2 0x4E10 MSTORE POP DUP1 PUSH2 0x2934 MSTORE DUP1 PUSH2 0x4DCE MSTORE POP DUP1 PUSH2 0x27C2 MSTORE DUP1 PUSH2 0x4D8C MSTORE POP DUP1 PUSH2 0x2650 MSTORE DUP1 PUSH2 0x4D4A MSTORE POP DUP1 PUSH2 0x24DE MSTORE DUP1 PUSH2 0x4D08 MSTORE POP DUP1 PUSH2 0x236C MSTORE DUP1 PUSH2 0x4CC6 MSTORE POP DUP1 PUSH2 0x21FA MSTORE DUP1 PUSH2 0x4C84 MSTORE POP DUP1 PUSH2 0x2088 MSTORE DUP1 PUSH2 0x4C42 MSTORE POP DUP1 PUSH2 0x1F16 MSTORE DUP1 PUSH2 0x4C00 MSTORE POP DUP1 PUSH2 0x1DA4 MSTORE DUP1 PUSH2 0x4BBE MSTORE POP DUP1 PUSH2 0x1C32 MSTORE DUP1 PUSH2 0x4B7C MSTORE POP DUP1 PUSH2 0x1AC0 MSTORE DUP1 PUSH2 0x4B3A MSTORE POP DUP1 PUSH2 0x194E MSTORE DUP1 PUSH2 0x4AF8 MSTORE POP DUP1 PUSH2 0x17DC MSTORE DUP1 PUSH2 0x4AB6 MSTORE POP DUP1 PUSH2 0x166A MSTORE DUP1 PUSH2 0x4A74 MSTORE POP DUP1 PUSH2 0x14F8 MSTORE DUP1 PUSH2 0x4A32 MSTORE POP DUP1 PUSH2 0x1386 MSTORE DUP1 PUSH2 0x49F0 MSTORE POP DUP1 PUSH2 0x1214 MSTORE DUP1 PUSH2 0x49AE MSTORE POP DUP1 PUSH2 0x10A2 MSTORE DUP1 PUSH2 0x496C MSTORE POP DUP1 PUSH2 0xF30 MSTORE DUP1 PUSH2 0x492A MSTORE POP DUP1 PUSH2 0xDBE MSTORE DUP1 PUSH2 0x48E8 MSTORE POP DUP1 PUSH2 0xC4C MSTORE DUP1 PUSH2 0x48A6 MSTORE POP DUP1 PUSH2 0xADA MSTORE DUP1 PUSH2 0x4864 MSTORE POP DUP1 PUSH2 0x968 MSTORE DUP1 PUSH2 0x4822 MSTORE POP DUP1 PUSH2 0x7F6 MSTORE DUP1 PUSH2 0x47E0 MSTORE POP DUP1 PUSH2 0x684 MSTORE DUP1 PUSH2 0x479E MSTORE POP DUP1 PUSH2 0x512 MSTORE DUP1 PUSH2 0x475C MSTORE POP DUP1 PUSH2 0x4C2 MSTORE DUP1 PUSH2 0x319E MSTORE POP PUSH2 0x5D51 PUSH1 0x0 RETURN INVALID PUSH1 0x80 PUSH1 0x40 MSTORE CALLVALUE DUP1 ISZERO PUSH2 0x10 JUMPI PUSH1 0x0 DUP1 REVERT JUMPDEST POP PUSH1 0x4 CALLDATASIZE LT PUSH2 0x14D JUMPI PUSH1 0x0 CALLDATALOAD PUSH1 0xE0 SHR DUP1 PUSH4 0x8ABA91B4 GT PUSH2 0xC3 JUMPI DUP1 PUSH4 0xE9206D78 GT PUSH2 0x7C JUMPI DUP1 PUSH4 0xE9206D78 EQ PUSH2 0x277 JUMPI DUP1 PUSH4 0xEAA1C2CA EQ PUSH2 0x27F JUMPI DUP1 PUSH4 0xECC1E984 EQ PUSH2 0x292 JUMPI DUP1 PUSH4 0xEEA85ECB EQ PUSH2 0x2A5 JUMPI DUP1 PUSH4 0xFC57D4DF EQ PUSH2 0x2B8 JUMPI DUP1 PUSH4 0xFE2C6198 EQ PUSH2 0x2CB JUMPI PUSH2 0x14D JUMP JUMPDEST DUP1 PUSH4 0x8ABA91B4 EQ PUSH2 0x242 JUMPI DUP1 PUSH4 0x8E499BCF EQ PUSH2 0x257 JUMPI DUP1 PUSH4 0x92B84357 EQ PUSH2 0x25F JUMPI DUP1 PUSH4 0xD1B353B4 EQ PUSH2 0x227 JUMPI DUP1 PUSH4 0xE61A5FE4 EQ PUSH2 0x267 JUMPI DUP1 PUSH4 0xE8315742 EQ PUSH2 0x26F JUMPI PUSH2 0x14D JUMP JUMPDEST DUP1 PUSH4 0x482A6193 GT PUSH2 0x115 JUMPI DUP1 PUSH4 0x482A6193 EQ PUSH2 0x1D9 JUMPI DUP1 PUSH4 0x4DA21942 EQ PUSH2 0x1EC JUMPI DUP1 PUSH4 0x60846BC6 EQ PUSH2 0x1FF JUMPI DUP1 PUSH4 0x651ED788 EQ PUSH2 0x212 JUMPI DUP1 PUSH4 0x69AA3AC6 EQ PUSH2 0x227 JUMPI DUP1 PUSH4 0x8A003888 EQ PUSH2 0x22F JUMPI PUSH2 0x14D JUMP JUMPDEST DUP1 PUSH4 0x10EC441 EQ PUSH2 0x152 JUMPI DUP1 PUSH4 0x1A125204 EQ PUSH2 0x170 JUMPI DUP1 PUSH4 0x24105209 EQ PUSH2 0x190 JUMPI DUP1 PUSH4 0x276C2CBA EQ PUSH2 0x1A5 JUMPI DUP1 PUSH4 0x37C0E12D EQ PUSH2 0x1B8 JUMPI JUMPDEST PUSH1 0x0 DUP1 REVERT JUMPDEST PUSH2 0x15A PUSH2 0x2DE JUMP JUMPDEST PUSH1 0x40 MLOAD PUSH2 0x167 SWAP2 SWAP1 PUSH2 0x5842 JUMP JUMPDEST PUSH1 0x40 MLOAD DUP1 SWAP2 SUB SWAP1 RETURN JUMPDEST PUSH2 0x183 PUSH2 0x17E CALLDATASIZE PUSH1 0x4 PUSH2 0x556E JUMP JUMPDEST PUSH2 0x302 JUMP JUMPDEST PUSH1 0x40 MLOAD PUSH2 0x167 SWAP2 SWAP1 PUSH2 0x5B6B JUMP JUMPDEST PUSH2 0x198 PUSH2 0x357 JUMP JUMPDEST PUSH1 0x40 MLOAD PUSH2 0x167 SWAP2 SWAP1 PUSH2 0x5BE6 JUMP JUMPDEST PUSH2 0x183 PUSH2 0x1B3 CALLDATASIZE PUSH1 0x4 PUSH2 0x5624 JUMP JUMPDEST PUSH2 0x37B JUMP JUMPDEST PUSH2 0x1CB PUSH2 0x1C6 CALLDATASIZE PUSH1 0x4 PUSH2 0x556E JUMP JUMPDEST PUSH2 0x3B8 JUMP JUMPDEST PUSH1 0x40 MLOAD PUSH2 0x167 SWAP3 SWAP2 SWAP1 PUSH2 0x5BEF JUMP JUMPDEST PUSH2 0x15A PUSH2 0x1E7 CALLDATASIZE PUSH1 0x4 PUSH2 0x55C3 JUMP JUMPDEST PUSH2 0x3D1 JUMP JUMPDEST PUSH2 0x183 PUSH2 0x1FA CALLDATASIZE PUSH1 0x4 PUSH2 0x54A0 JUMP JUMPDEST PUSH2 0x47E JUMP JUMPDEST PUSH2 0x198 PUSH2 0x20D CALLDATASIZE PUSH1 0x4 PUSH2 0x556E JUMP JUMPDEST PUSH2 0x491 JUMP JUMPDEST PUSH2 0x21A PUSH2 0x4A3 JUMP JUMPDEST PUSH1 0x40 MLOAD PUSH2 0x167 SWAP2 SWAP1 PUSH2 0x587A JUMP JUMPDEST PUSH2 0x198 PUSH2 0x4AC JUMP JUMPDEST PUSH2 0x183 PUSH2 0x23D CALLDATASIZE PUSH1 0x4 PUSH2 0x556E JUMP JUMPDEST PUSH2 0x4B8 JUMP JUMPDEST PUSH2 0x255 PUSH2 0x250 CALLDATASIZE PUSH1 0x4 PUSH2 0x55C3 JUMP JUMPDEST PUSH2 0x3057 JUMP JUMPDEST STOP JUMPDEST PUSH2 0x198 PUSH2 0x319C JUMP JUMPDEST PUSH2 0x198 PUSH2 0x31C0 JUMP JUMPDEST PUSH2 0x15A PUSH2 0x31E4 JUMP JUMPDEST PUSH2 0x198 PUSH2 0x3208 JUMP JUMPDEST PUSH2 0x198 PUSH2 0x320D JUMP JUMPDEST PUSH2 0x1CB PUSH2 0x28D CALLDATASIZE PUSH1 0x4 PUSH2 0x556E JUMP JUMPDEST PUSH2 0x3231 JUMP JUMPDEST PUSH2 0x255 PUSH2 0x2A0 CALLDATASIZE PUSH1 0x4 PUSH2 0x54D8 JUMP JUMPDEST PUSH2 0x324A JUMP JUMPDEST PUSH2 0x183 PUSH2 0x2B3 CALLDATASIZE PUSH1 0x4 PUSH2 0x54A0 JUMP JUMPDEST PUSH2 0x33E4 JUMP JUMPDEST PUSH2 0x198 PUSH2 0x2C6 CALLDATASIZE PUSH1 0x4 PUSH2 0x54A0 JUMP JUMPDEST PUSH2 0x3486 JUMP JUMPDEST PUSH2 0x198 PUSH2 0x2D9 CALLDATASIZE PUSH1 0x4 PUSH2 0x5624 JUMP JUMPDEST PUSH2 0x34CE JUMP JUMPDEST PUSH32 0x0 DUP2 JUMP JUMPDEST PUSH2 0x30A PUSH2 0x5346 JUMP JUMPDEST PUSH1 0x0 PUSH2 0x315 DUP4 PUSH2 0x373C JUMP JUMPDEST SWAP1 POP PUSH1 0x0 NOT DUP2 EQ PUSH2 0x331 JUMPI PUSH2 0x329 DUP2 PUSH2 0x4B8 JUMP JUMPDEST SWAP2 POP POP PUSH2 0x352 JUMP JUMPDEST PUSH1 0x40 MLOAD PUSH3 0x461BCD PUSH1 0xE5 SHL DUP2 MSTORE PUSH1 0x4 ADD PUSH2 0x349 SWAP1 PUSH2 0x5982 JUMP JUMPDEST PUSH1 0x40 MLOAD DUP1 SWAP2 SUB SWAP1 REVERT JUMPDEST SWAP2 SWAP1 POP JUMP JUMPDEST PUSH32 0x0 DUP2 JUMP JUMPDEST PUSH2 0x383 PUSH2 0x5346 JUMP JUMPDEST PUSH2 0x3B2 DUP3 PUSH1 0x40 MLOAD PUSH1 0x20 ADD PUSH2 0x397 SWAP2 SWAP1 PUSH2 0x57D4 JUMP JUMPDEST PUSH1 0x40 MLOAD PUSH1 0x20 DUP2 DUP4 SUB SUB DUP2 MSTORE SWAP1 PUSH1 0x40 MSTORE DUP1 MLOAD SWAP1 PUSH1 0x20 ADD KECCAK256 PUSH2 0x302 JUMP JUMPDEST SWAP3 SWAP2 POP POP JUMP JUMPDEST PUSH1 0x2 PUSH1 0x20 MSTORE PUSH1 0x0 SWAP1 DUP2 MSTORE PUSH1 0x40 SWAP1 KECCAK256 DUP1 SLOAD PUSH1 0x1 SWAP1 SWAP2 ADD SLOAD DUP3 JUMP JUMPDEST PUSH1 0x0 DUP1 PUSH1 0x0 DUP1 DUP5 DUP1 PUSH1 0x20 ADD SWAP1 MLOAD DUP2 ADD SWAP1 PUSH2 0x3EB SWAP2 SWAP1 PUSH2 0x5586 JUMP JUMPDEST SWAP3 POP SWAP3 POP SWAP3 POP PUSH1 0x0 DUP7 DUP1 MLOAD SWAP1 PUSH1 0x20 ADD KECCAK256 PUSH1 0x40 MLOAD PUSH1 0x20 ADD PUSH2 0x40B SWAP2 SWAP1 PUSH2 0x57F0 JUMP JUMPDEST PUSH1 0x40 MLOAD PUSH1 0x20 DUP2 DUP4 SUB SUB DUP2 MSTORE SWAP1 PUSH1 0x40 MSTORE DUP1 MLOAD SWAP1 PUSH1 0x20 ADD KECCAK256 SWAP1 POP PUSH1 0x1 DUP2 DUP4 DUP7 DUP7 PUSH1 0x40 MLOAD PUSH1 0x0 DUP2 MSTORE PUSH1 0x20 ADD PUSH1 0x40 MSTORE PUSH1 0x40 MLOAD PUSH2 0x446 SWAP5 SWAP4 SWAP3 SWAP2 SWAP1 PUSH2 0x5885 JUMP JUMPDEST PUSH1 0x20 PUSH1 0x40 MLOAD PUSH1 0x20 DUP2 SUB SWAP1 DUP1 DUP5 SUB SWAP1 DUP6 GAS STATICCALL ISZERO DUP1 ISZERO PUSH2 0x468 JUMPI RETURNDATASIZE PUSH1 0x0 DUP1 RETURNDATACOPY RETURNDATASIZE PUSH1 0x0 REVERT JUMPDEST POP POP PUSH1 0x40 MLOAD PUSH1 0x1F NOT ADD MLOAD SWAP9 SWAP8 POP POP POP POP POP POP POP POP JUMP JUMPDEST PUSH2 0x486 PUSH2 0x5346 JUMP JUMPDEST PUSH1 0x0 PUSH2 0x315 DUP4 PUSH2 0x3CE7 JUMP JUMPDEST PUSH1 0x0 PUSH1 0x20 DUP2 SWAP1 MSTORE SWAP1 DUP2 MSTORE PUSH1 0x40 SWAP1 KECCAK256 SLOAD DUP2 JUMP JUMPDEST PUSH1 0x1 SLOAD PUSH1 0xFF AND DUP2 JUMP JUMPDEST PUSH8 0xDE0B6B3A7640000 DUP2 JUMP JUMPDEST PUSH2 0x4C0 PUSH2 0x5346 JUMP JUMPDEST PUSH32 0x0 DUP3 LT PUSH2 0x4FF JUMPI PUSH1 0x40 MLOAD PUSH3 0x461BCD PUSH1 0xE5 SHL DUP2 MSTORE PUSH1 0x4 ADD PUSH2 0x349 SWAP1 PUSH2 0x5982 JUMP JUMPDEST DUP2 PUSH2 0x66D JUMPI PUSH1 0x40 MLOAD DUP1 PUSH2 0x100 ADD PUSH1 0x40 MSTORE DUP1 PUSH32 0x0 PUSH1 0x1 PUSH1 0x1 PUSH1 0xA0 SHL SUB AND DUP2 MSTORE PUSH1 0x20 ADD PUSH32 0x0 PUSH1 0x1 PUSH1 0x1 PUSH1 0xA0 SHL SUB AND DUP2 MSTORE PUSH1 0x20 ADD PUSH32 0x0 DUP2 MSTORE PUSH1 0x20 ADD PUSH32 0x0 DUP2 MSTORE PUSH1 0x20 ADD PUSH32 0x0 PUSH1 0x2 DUP2 GT ISZERO PUSH2 0x5E6 JUMPI INVALID JUMPDEST DUP2 MSTORE PUSH1 0x20 ADD PUSH32 0x0 DUP2 MSTORE PUSH1 0x20 ADD PUSH32 0x0 PUSH1 0x1 PUSH1 0x1 PUSH1 0xA0 SHL SUB AND DUP2 MSTORE PUSH1 0x20 ADD PUSH32 0x0 ISZERO ISZERO DUP2 MSTORE POP SWAP1 POP PUSH2 0x352 JUMP JUMPDEST DUP2 PUSH1 0x1 EQ ISZERO PUSH2 0x7DF JUMPI PUSH1 0x40 MLOAD DUP1 PUSH2 0x100 ADD PUSH1 0x40 MSTORE DUP1 PUSH32 0x0 PUSH1 0x1 PUSH1 0x1 PUSH1 0xA0 SHL SUB AND DUP2 MSTORE PUSH1 0x20 ADD PUSH32 0x0 PUSH1 0x1 PUSH1 0x1 PUSH1 0xA0 SHL SUB AND DUP2 MSTORE PUSH1 0x20 ADD PUSH32 0x0 DUP2 MSTORE PUSH1 0x20 ADD PUSH32 0x0 DUP2 MSTORE PUSH1 0x20 ADD PUSH32 0x0 PUSH1 0x2 DUP2 GT ISZERO PUSH2 0x758 JUMPI INVALID JUMPDEST DUP2 MSTORE PUSH1 0x20 ADD PUSH32 0x0 DUP2 MSTORE PUSH1 0x20 ADD PUSH32 0x0 PUSH1 0x1 PUSH1 0x1 PUSH1 0xA0 SHL SUB AND DUP2 MSTORE PUSH1 0x20 ADD PUSH32 0x0 ISZERO ISZERO DUP2 MSTORE POP SWAP1 POP PUSH2 0x352 JUMP JUMPDEST DUP2 PUSH1 0x2 EQ ISZERO PUSH2 0x951 JUMPI PUSH1 0x40 MLOAD DUP1 PUSH2 0x100 ADD PUSH1 0x40 MSTORE DUP1 PUSH32 0x0 PUSH1 0x1 PUSH1 0x1 PUSH1 0xA0 SHL SUB AND DUP2 MSTORE PUSH1 0x20 ADD PUSH32 0x0 PUSH1 0x1 PUSH1 0x1 PUSH1 0xA0 SHL SUB AND DUP2 MSTORE PUSH1 0x20 ADD PUSH32 0x0 DUP2 MSTORE PUSH1 0x20 ADD PUSH32 0x0 DUP2 MSTORE PUSH1 0x20 ADD PUSH32 0x0 PUSH1 0x2 DUP2 GT ISZERO PUSH2 0x8CA JUMPI INVALID JUMPDEST DUP2 MSTORE PUSH1 0x20 ADD PUSH32 0x0 DUP2 MSTORE PUSH1 0x20 ADD PUSH32 0x0 PUSH1 0x1 PUSH1 0x1 PUSH1 0xA0 SHL SUB AND DUP2 MSTORE PUSH1 0x20 ADD PUSH32 0x0 ISZERO ISZERO DUP2 MSTORE POP SWAP1 POP PUSH2 0x352 JUMP JUMPDEST DUP2 PUSH1 0x3 EQ ISZERO PUSH2 0xAC3 JUMPI PUSH1 0x40 MLOAD DUP1 PUSH2 0x100 ADD PUSH1 0x40 MSTORE DUP1 PUSH32 0x0 PUSH1 0x1 PUSH1 0x1 PUSH1 0xA0 SHL SUB AND DUP2 MSTORE PUSH1 0x20 ADD PUSH32 0x0 PUSH1 0x1 PUSH1 0x1 PUSH1 0xA0 SHL SUB AND DUP2 MSTORE PUSH1 0x20 ADD PUSH32 0x0 DUP2 MSTORE PUSH1 0x20 ADD PUSH32 0x0 DUP2 MSTORE PUSH1 0x20 ADD PUSH32 0x0 PUSH1 0x2 DUP2 GT ISZERO PUSH2 0xA3C JUMPI INVALID JUMPDEST DUP2 MSTORE PUSH1 0x20 ADD PUSH32 0x0 DUP2 MSTORE PUSH1 0x20 ADD PUSH32 0x0 PUSH1 0x1 PUSH1 0x1 PUSH1 0xA0 SHL SUB AND DUP2 MSTORE PUSH1 0x20 ADD PUSH32 0x0 ISZERO ISZERO DUP2 MSTORE POP SWAP1 POP PUSH2 0x352 JUMP JUMPDEST DUP2 PUSH1 0x4 EQ ISZERO PUSH2 0xC35 JUMPI PUSH1 0x40 MLOAD DUP1 PUSH2 0x100 ADD PUSH1 0x40 MSTORE DUP1 PUSH32 0x0 PUSH1 0x1 PUSH1 0x1 PUSH1 0xA0 SHL SUB AND DUP2 MSTORE PUSH1 0x20 ADD PUSH32 0x0 PUSH1 0x1 PUSH1 0x1 PUSH1 0xA0 SHL SUB AND DUP2 MSTORE PUSH1 0x20 ADD PUSH32 0x0 DUP2 MSTORE PUSH1 0x20 ADD PUSH32 0x0 DUP2 MSTORE PUSH1 0x20 ADD PUSH32 0x0 PUSH1 0x2 DUP2 GT ISZERO PUSH2 0xBAE JUMPI INVALID JUMPDEST DUP2 MSTORE PUSH1 0x20 ADD PUSH32 0x0 DUP2 MSTORE PUSH1 0x20 ADD PUSH32 0x0 PUSH1 0x1 PUSH1 0x1 PUSH1 0xA0 SHL SUB AND DUP2 MSTORE PUSH1 0x20 ADD PUSH32 0x0 ISZERO ISZERO DUP2 MSTORE POP SWAP1 POP PUSH2 0x352 JUMP JUMPDEST DUP2 PUSH1 0x5 EQ ISZERO PUSH2 0xDA7 JUMPI PUSH1 0x40 MLOAD DUP1 PUSH2 0x100 ADD PUSH1 0x40 MSTORE DUP1 PUSH32 0x0 PUSH1 0x1 PUSH1 0x1 PUSH1 0xA0 SHL SUB AND DUP2 MSTORE PUSH1 0x20 ADD PUSH32 0x0 PUSH1 0x1 PUSH1 0x1 PUSH1 0xA0 SHL SUB AND DUP2 MSTORE PUSH1 0x20 ADD PUSH32 0x0 DUP2 MSTORE PUSH1 0x20 ADD PUSH32 0x0 DUP2 MSTORE PUSH1 0x20 ADD PUSH32 0x0 PUSH1 0x2 DUP2 GT ISZERO PUSH2 0xD20 JUMPI INVALID JUMPDEST DUP2 MSTORE PUSH1 0x20 ADD PUSH32 0x0 DUP2 MSTORE PUSH1 0x20 ADD PUSH32 0x0 PUSH1 0x1 PUSH1 0x1 PUSH1 0xA0 SHL SUB AND DUP2 MSTORE PUSH1 0x20 ADD PUSH32 0x0 ISZERO ISZERO DUP2 MSTORE POP SWAP1 POP PUSH2 0x352 JUMP JUMPDEST DUP2 PUSH1 0x6 EQ ISZERO PUSH2 0xF19 JUMPI PUSH1 0x40 MLOAD DUP1 PUSH2 0x100 ADD PUSH1 0x40 MSTORE DUP1 PUSH32 0x0 PUSH1 0x1 PUSH1 0x1 PUSH1 0xA0 SHL SUB AND DUP2 MSTORE PUSH1 0x20 ADD PUSH32 0x0 PUSH1 0x1 PUSH1 0x1 PUSH1 0xA0 SHL SUB AND DUP2 MSTORE PUSH1 0x20 ADD PUSH32 0x0 DUP2 MSTORE PUSH1 0x20 ADD PUSH32 0x0 DUP2 MSTORE PUSH1 0x20 ADD PUSH32 0x0 PUSH1 0x2 DUP2 GT ISZERO PUSH2 0xE92 JUMPI INVALID JUMPDEST DUP2 MSTORE PUSH1 0x20 ADD PUSH32 0x0 DUP2 MSTORE PUSH1 0x20 ADD PUSH32 0x0 PUSH1 0x1 PUSH1 0x1 PUSH1 0xA0 SHL SUB AND DUP2 MSTORE PUSH1 0x20 ADD PUSH32 0x0 ISZERO ISZERO DUP2 MSTORE POP SWAP1 POP PUSH2 0x352 JUMP JUMPDEST DUP2 PUSH1 0x7 EQ ISZERO PUSH2 0x108B JUMPI PUSH1 0x40 MLOAD DUP1 PUSH2 0x100 ADD PUSH1 0x40 MSTORE DUP1 PUSH32 0x0 PUSH1 0x1 PUSH1 0x1 PUSH1 0xA0 SHL SUB AND DUP2 MSTORE PUSH1 0x20 ADD PUSH32 0x0 PUSH1 0x1 PUSH1 0x1 PUSH1 0xA0 SHL SUB AND DUP2 MSTORE PUSH1 0x20 ADD PUSH32 0x0 DUP2 MSTORE PUSH1 0x20 ADD PUSH32 0x0 DUP2 MSTORE PUSH1 0x20 ADD PUSH32 0x0 PUSH1 0x2 DUP2 GT ISZERO PUSH2 0x1004 JUMPI INVALID JUMPDEST DUP2 MSTORE PUSH1 0x20 ADD PUSH32 0x0 DUP2 MSTORE PUSH1 0x20 ADD PUSH32 0x0 PUSH1 0x1 PUSH1 0x1 PUSH1 0xA0 SHL SUB AND DUP2 MSTORE PUSH1 0x20 ADD PUSH32 0x0 ISZERO ISZERO DUP2 MSTORE POP SWAP1 POP PUSH2 0x352 JUMP JUMPDEST DUP2 PUSH1 0x8 EQ ISZERO PUSH2 0x11FD JUMPI PUSH1 0x40 MLOAD DUP1 PUSH2 0x100 ADD PUSH1 0x40 MSTORE DUP1 PUSH32 0x0 PUSH1 0x1 PUSH1 0x1 PUSH1 0xA0 SHL SUB AND DUP2 MSTORE PUSH1 0x20 ADD PUSH32 0x0 PUSH1 0x1 PUSH1 0x1 PUSH1 0xA0 SHL SUB AND DUP2 MSTORE PUSH1 0x20 ADD PUSH32 0x0 DUP2 MSTORE PUSH1 0x20 ADD PUSH32 0x0 DUP2 MSTORE PUSH1 0x20 ADD PUSH32 0x0 PUSH1 0x2 DUP2 GT ISZERO PUSH2 0x1176 JUMPI INVALID JUMPDEST DUP2 MSTORE PUSH1 0x20 ADD PUSH32 0x0 DUP2 MSTORE PUSH1 0x20 ADD PUSH32 0x0 PUSH1 0x1 PUSH1 0x1 PUSH1 0xA0 SHL SUB AND DUP2 MSTORE PUSH1 0x20 ADD PUSH32 0x0 ISZERO ISZERO DUP2 MSTORE POP SWAP1 POP PUSH2 0x352 JUMP JUMPDEST DUP2 PUSH1 0x9 EQ ISZERO PUSH2 0x136F JUMPI PUSH1 0x40 MLOAD DUP1 PUSH2 0x100 ADD PUSH1 0x40 MSTORE DUP1 PUSH32 0x0 PUSH1 0x1 PUSH1 0x1 PUSH1 0xA0 SHL SUB AND DUP2 MSTORE PUSH1 0x20 ADD PUSH32 0x0 PUSH1 0x1 PUSH1 0x1 PUSH1 0xA0 SHL SUB AND DUP2 MSTORE PUSH1 0x20 ADD PUSH32 0x0 DUP2 MSTORE PUSH1 0x20 ADD PUSH32 0x0 DUP2 MSTORE PUSH1 0x20 ADD PUSH32 0x0 PUSH1 0x2 DUP2 GT ISZERO PUSH2 0x12E8 JUMPI INVALID JUMPDEST DUP2 MSTORE PUSH1 0x20 ADD PUSH32 0x0 DUP2 MSTORE PUSH1 0x20 ADD PUSH32 0x0 PUSH1 0x1 PUSH1 0x1 PUSH1 0xA0 SHL SUB AND DUP2 MSTORE PUSH1 0x20 ADD PUSH32 0x0 ISZERO ISZERO DUP2 MSTORE POP SWAP1 POP PUSH2 0x352 JUMP JUMPDEST DUP2 PUSH1 0xA EQ ISZERO PUSH2 0x14E1 JUMPI PUSH1 0x40 MLOAD DUP1 PUSH2 0x100 ADD PUSH1 0x40 MSTORE DUP1 PUSH32 0x0 PUSH1 0x1 PUSH1 0x1 PUSH1 0xA0 SHL SUB AND DUP2 MSTORE PUSH1 0x20 ADD PUSH32 0x0 PUSH1 0x1 PUSH1 0x1 PUSH1 0xA0 SHL SUB AND DUP2 MSTORE PUSH1 0x20 ADD PUSH32 0x0 DUP2 MSTORE PUSH1 0x20 ADD PUSH32 0x0 DUP2 MSTORE PUSH1 0x20 ADD PUSH32 0x0 PUSH1 0x2 DUP2 GT ISZERO PUSH2 0x145A JUMPI INVALID JUMPDEST DUP2 MSTORE PUSH1 0x20 ADD PUSH32 0x0 DUP2 MSTORE PUSH1 0x20 ADD PUSH32 0x0 PUSH1 0x1 PUSH1 0x1 PUSH1 0xA0 SHL SUB AND DUP2 MSTORE PUSH1 0x20 ADD PUSH32 0x0 ISZERO ISZERO DUP2 MSTORE POP SWAP1 POP PUSH2 0x352 JUMP JUMPDEST DUP2 PUSH1 0xB EQ ISZERO PUSH2 0x1653 JUMPI PUSH1 0x40 MLOAD DUP1 PUSH2 0x100 ADD PUSH1 0x40 MSTORE DUP1 PUSH32 0x0 PUSH1 0x1 PUSH1 0x1 PUSH1 0xA0 SHL SUB AND DUP2 MSTORE PUSH1 0x20 ADD PUSH32 0x0 PUSH1 0x1 PUSH1 0x1 PUSH1 0xA0 SHL SUB AND DUP2 MSTORE PUSH1 0x20 ADD PUSH32 0x0 DUP2 MSTORE PUSH1 0x20 ADD PUSH32 0x0 DUP2 MSTORE PUSH1 0x20 ADD PUSH32 0x0 PUSH1 0x2 DUP2 GT ISZERO PUSH2 0x15CC JUMPI INVALID JUMPDEST DUP2 MSTORE PUSH1 0x20 ADD PUSH32 0x0 DUP2 MSTORE PUSH1 0x20 ADD PUSH32 0x0 PUSH1 0x1 PUSH1 0x1 PUSH1 0xA0 SHL SUB AND DUP2 MSTORE PUSH1 0x20 ADD PUSH32 0x0 ISZERO ISZERO DUP2 MSTORE POP SWAP1 POP PUSH2 0x352 JUMP JUMPDEST DUP2 PUSH1 0xC EQ ISZERO PUSH2 0x17C5 JUMPI PUSH1 0x40 MLOAD DUP1 PUSH2 0x100 ADD PUSH1 0x40 MSTORE DUP1 PUSH32 0x0 PUSH1 0x1 PUSH1 0x1 PUSH1 0xA0 SHL SUB AND DUP2 MSTORE PUSH1 0x20 ADD PUSH32 0x0 PUSH1 0x1 PUSH1 0x1 PUSH1 0xA0 SHL SUB AND DUP2 MSTORE PUSH1 0x20 ADD PUSH32 0x0 DUP2 MSTORE PUSH1 0x20 ADD PUSH32 0x0 DUP2 MSTORE PUSH1 0x20 ADD PUSH32 0x0 PUSH1 0x2 DUP2 GT ISZERO PUSH2 0x173E JUMPI INVALID JUMPDEST DUP2 MSTORE PUSH1 0x20 ADD PUSH32 0x0 DUP2 MSTORE PUSH1 0x20 ADD PUSH32 0x0 PUSH1 0x1 PUSH1 0x1 PUSH1 0xA0 SHL SUB AND DUP2 MSTORE PUSH1 0x20 ADD PUSH32 0x0 ISZERO ISZERO DUP2 MSTORE POP SWAP1 POP PUSH2 0x352 JUMP JUMPDEST DUP2 PUSH1 0xD EQ ISZERO PUSH2 0x1937 JUMPI PUSH1 0x40 MLOAD DUP1 PUSH2 0x100 ADD PUSH1 0x40 MSTORE DUP1 PUSH32 0x0 PUSH1 0x1 PUSH1 0x1 PUSH1 0xA0 SHL SUB AND DUP2 MSTORE PUSH1 0x20 ADD PUSH32 0x0 PUSH1 0x1 PUSH1 0x1 PUSH1 0xA0 SHL SUB AND DUP2 MSTORE PUSH1 0x20 ADD PUSH32 0x0 DUP2 MSTORE PUSH1 0x20 ADD PUSH32 0x0 DUP2 MSTORE PUSH1 0x20 ADD PUSH32 0x0 PUSH1 0x2 DUP2 GT ISZERO PUSH2 0x18B0 JUMPI INVALID JUMPDEST DUP2 MSTORE PUSH1 0x20 ADD PUSH32 0x0 DUP2 MSTORE PUSH1 0x20 ADD PUSH32 0x0 PUSH1 0x1 PUSH1 0x1 PUSH1 0xA0 SHL SUB AND DUP2 MSTORE PUSH1 0x20 ADD PUSH32 0x0 ISZERO ISZERO DUP2 MSTORE POP SWAP1 POP PUSH2 0x352 JUMP JUMPDEST DUP2 PUSH1 0xE EQ ISZERO PUSH2 0x1AA9 JUMPI PUSH1 0x40 MLOAD DUP1 PUSH2 0x100 ADD PUSH1 0x40 MSTORE DUP1 PUSH32 0x0 PUSH1 0x1 PUSH1 0x1 PUSH1 0xA0 SHL SUB AND DUP2 MSTORE PUSH1 0x20 ADD PUSH32 0x0 PUSH1 0x1 PUSH1 0x1 PUSH1 0xA0 SHL SUB AND DUP2 MSTORE PUSH1 0x20 ADD PUSH32 0x0 DUP2 MSTORE PUSH1 0x20 ADD PUSH32 0x0 DUP2 MSTORE PUSH1 0x20 ADD PUSH32 0x0 PUSH1 0x2 DUP2 GT ISZERO PUSH2 0x1A22 JUMPI INVALID JUMPDEST DUP2 MSTORE PUSH1 0x20 ADD PUSH32 0x0 DUP2 MSTORE PUSH1 0x20 ADD PUSH32 0x0 PUSH1 0x1 PUSH1 0x1 PUSH1 0xA0 SHL SUB AND DUP2 MSTORE PUSH1 0x20 ADD PUSH32 0x0 ISZERO ISZERO DUP2 MSTORE POP SWAP1 POP PUSH2 0x352 JUMP JUMPDEST DUP2 PUSH1 0xF EQ ISZERO PUSH2 0x1C1B JUMPI PUSH1 0x40 MLOAD DUP1 PUSH2 0x100 ADD PUSH1 0x40 MSTORE DUP1 PUSH32 0x0 PUSH1 0x1 PUSH1 0x1 PUSH1 0xA0 SHL SUB AND DUP2 MSTORE PUSH1 0x20 ADD PUSH32 0x0 PUSH1 0x1 PUSH1 0x1 PUSH1 0xA0 SHL SUB AND DUP2 MSTORE PUSH1 0x20 ADD PUSH32 0x0 DUP2 MSTORE PUSH1 0x20 ADD PUSH32 0x0 DUP2 MSTORE PUSH1 0x20 ADD PUSH32 0x0 PUSH1 0x2 DUP2 GT ISZERO PUSH2 0x1B94 JUMPI INVALID JUMPDEST DUP2 MSTORE PUSH1 0x20 ADD PUSH32 0x0 DUP2 MSTORE PUSH1 0x20 ADD PUSH32 0x0 PUSH1 0x1 PUSH1 0x1 PUSH1 0xA0 SHL SUB AND DUP2 MSTORE PUSH1 0x20 ADD PUSH32 0x0 ISZERO ISZERO DUP2 MSTORE POP SWAP1 POP PUSH2 0x352 JUMP JUMPDEST DUP2 PUSH1 0x10 EQ ISZERO PUSH2 0x1D8D JUMPI PUSH1 0x40 MLOAD DUP1 PUSH2 0x100 ADD PUSH1 0x40 MSTORE DUP1 PUSH32 0x0 PUSH1 0x1 PUSH1 0x1 PUSH1 0xA0 SHL SUB AND DUP2 MSTORE PUSH1 0x20 ADD PUSH32 0x0 PUSH1 0x1 PUSH1 0x1 PUSH1 0xA0 SHL SUB AND DUP2 MSTORE PUSH1 0x20 ADD PUSH32 0x0 DUP2 MSTORE PUSH1 0x20 ADD PUSH32 0x0 DUP2 MSTORE PUSH1 0x20 ADD PUSH32 0x0 PUSH1 0x2 DUP2 GT ISZERO PUSH2 0x1D06 JUMPI INVALID JUMPDEST DUP2 MSTORE PUSH1 0x20 ADD PUSH32 0x0 DUP2 MSTORE PUSH1 0x20 ADD PUSH32 0x0 PUSH1 0x1 PUSH1 0x1 PUSH1 0xA0 SHL SUB AND DUP2 MSTORE PUSH1 0x20 ADD PUSH32 0x0 ISZERO ISZERO DUP2 MSTORE POP SWAP1 POP PUSH2 0x352 JUMP JUMPDEST DUP2 PUSH1 0x11 EQ ISZERO PUSH2 0x1EFF JUMPI PUSH1 0x40 MLOAD DUP1 PUSH2 0x100 ADD PUSH1 0x40 MSTORE DUP1 PUSH32 0x0 PUSH1 0x1 PUSH1 0x1 PUSH1 0xA0 SHL SUB AND DUP2 MSTORE PUSH1 0x20 ADD PUSH32 0x0 PUSH1 0x1 PUSH1 0x1 PUSH1 0xA0 SHL SUB AND DUP2 MSTORE PUSH1 0x20 ADD PUSH32 0x0 DUP2 MSTORE PUSH1 0x20 ADD PUSH32 0x0 DUP2 MSTORE PUSH1 0x20 ADD PUSH32 0x0 PUSH1 0x2 DUP2 GT ISZERO PUSH2 0x1E78 JUMPI INVALID JUMPDEST DUP2 MSTORE PUSH1 0x20 ADD PUSH32 0x0 DUP2 MSTORE PUSH1 0x20 ADD PUSH32 0x0 PUSH1 0x1 PUSH1 0x1 PUSH1 0xA0 SHL SUB AND DUP2 MSTORE PUSH1 0x20 ADD PUSH32 0x0 ISZERO ISZERO DUP2 MSTORE POP SWAP1 POP PUSH2 0x352 JUMP JUMPDEST DUP2 PUSH1 0x12 EQ ISZERO PUSH2 0x2071 JUMPI PUSH1 0x40 MLOAD DUP1 PUSH2 0x100 ADD PUSH1 0x40 MSTORE DUP1 PUSH32 0x0 PUSH1 0x1 PUSH1 0x1 PUSH1 0xA0 SHL SUB AND DUP2 MSTORE PUSH1 0x20 ADD PUSH32 0x0 PUSH1 0x1 PUSH1 0x1 PUSH1 0xA0 SHL SUB AND DUP2 MSTORE PUSH1 0x20 ADD PUSH32 0x0 DUP2 MSTORE PUSH1 0x20 ADD PUSH32 0x0 DUP2 MSTORE PUSH1 0x20 ADD PUSH32 0x0 PUSH1 0x2 DUP2 GT ISZERO PUSH2 0x1FEA JUMPI INVALID JUMPDEST DUP2 MSTORE PUSH1 0x20 ADD PUSH32 0x0 DUP2 MSTORE PUSH1 0x20 ADD PUSH32 0x0 PUSH1 0x1 PUSH1 0x1 PUSH1 0xA0 SHL SUB AND DUP2 MSTORE PUSH1 0x20 ADD PUSH32 0x0 ISZERO ISZERO DUP2 MSTORE POP SWAP1 POP PUSH2 0x352 JUMP JUMPDEST DUP2 PUSH1 0x13 EQ ISZERO PUSH2 0x21E3 JUMPI PUSH1 0x40 MLOAD DUP1 PUSH2 0x100 ADD PUSH1 0x40 MSTORE DUP1 PUSH32 0x0 PUSH1 0x1 PUSH1 0x1 PUSH1 0xA0 SHL SUB AND DUP2 MSTORE PUSH1 0x20 ADD PUSH32 0x0 PUSH1 0x1 PUSH1 0x1 PUSH1 0xA0 SHL SUB AND DUP2 MSTORE PUSH1 0x20 ADD PUSH32 0x0 DUP2 MSTORE PUSH1 0x20 ADD PUSH32 0x0 DUP2 MSTORE PUSH1 0x20 ADD PUSH32 0x0 PUSH1 0x2 DUP2 GT ISZERO PUSH2 0x215C JUMPI INVALID JUMPDEST DUP2 MSTORE PUSH1 0x20 ADD PUSH32 0x0 DUP2 MSTORE PUSH1 0x20 ADD PUSH32 0x0 PUSH1 0x1 PUSH1 0x1 PUSH1 0xA0 SHL SUB AND DUP2 MSTORE PUSH1 0x20 ADD PUSH32 0x0 ISZERO ISZERO DUP2 MSTORE POP SWAP1 POP PUSH2 0x352 JUMP JUMPDEST DUP2 PUSH1 0x14 EQ ISZERO PUSH2 0x2355 JUMPI PUSH1 0x40 MLOAD DUP1 PUSH2 0x100 ADD PUSH1 0x40 MSTORE DUP1 PUSH32 0x0 PUSH1 0x1 PUSH1 0x1 PUSH1 0xA0 SHL SUB AND DUP2 MSTORE PUSH1 0x20 ADD PUSH32 0x0 PUSH1 0x1 PUSH1 0x1 PUSH1 0xA0 SHL SUB AND DUP2 MSTORE PUSH1 0x20 ADD PUSH32 0x0 DUP2 MSTORE PUSH1 0x20 ADD PUSH32 0x0 DUP2 MSTORE PUSH1 0x20 ADD PUSH32 0x0 PUSH1 0x2 DUP2 GT ISZERO PUSH2 0x22CE JUMPI INVALID JUMPDEST DUP2 MSTORE PUSH1 0x20 ADD PUSH32 0x0 DUP2 MSTORE PUSH1 0x20 ADD PUSH32 0x0 PUSH1 0x1 PUSH1 0x1 PUSH1 0xA0 SHL SUB AND DUP2 MSTORE PUSH1 0x20 ADD PUSH32 0x0 ISZERO ISZERO DUP2 MSTORE POP SWAP1 POP PUSH2 0x352 JUMP JUMPDEST DUP2 PUSH1 0x15 EQ ISZERO PUSH2 0x24C7 JUMPI PUSH1 0x40 MLOAD DUP1 PUSH2 0x100 ADD PUSH1 0x40 MSTORE DUP1 PUSH32 0x0 PUSH1 0x1 PUSH1 0x1 PUSH1 0xA0 SHL SUB AND DUP2 MSTORE PUSH1 0x20 ADD PUSH32 0x0 PUSH1 0x1 PUSH1 0x1 PUSH1 0xA0 SHL SUB AND DUP2 MSTORE PUSH1 0x20 ADD PUSH32 0x0 DUP2 MSTORE PUSH1 0x20 ADD PUSH32 0x0 DUP2 MSTORE PUSH1 0x20 ADD PUSH32 0x0 PUSH1 0x2 DUP2 GT ISZERO PUSH2 0x2440 JUMPI INVALID JUMPDEST DUP2 MSTORE PUSH1 0x20 ADD PUSH32 0x0 DUP2 MSTORE PUSH1 0x20 ADD PUSH32 0x0 PUSH1 0x1 PUSH1 0x1 PUSH1 0xA0 SHL SUB AND DUP2 MSTORE PUSH1 0x20 ADD PUSH32 0x0 ISZERO ISZERO DUP2 MSTORE POP SWAP1 POP PUSH2 0x352 JUMP JUMPDEST DUP2 PUSH1 0x16 EQ ISZERO PUSH2 0x2639 JUMPI PUSH1 0x40 MLOAD DUP1 PUSH2 0x100 ADD PUSH1 0x40 MSTORE DUP1 PUSH32 0x0 PUSH1 0x1 PUSH1 0x1 PUSH1 0xA0 SHL SUB AND DUP2 MSTORE PUSH1 0x20 ADD PUSH32 0x0 PUSH1 0x1 PUSH1 0x1 PUSH1 0xA0 SHL SUB AND DUP2 MSTORE PUSH1 0x20 ADD PUSH32 0x0 DUP2 MSTORE PUSH1 0x20 ADD PUSH32 0x0 DUP2 MSTORE PUSH1 0x20 ADD PUSH32 0x0 PUSH1 0x2 DUP2 GT ISZERO PUSH2 0x25B2 JUMPI INVALID JUMPDEST DUP2 MSTORE PUSH1 0x20 ADD PUSH32 0x0 DUP2 MSTORE PUSH1 0x20 ADD PUSH32 0x0 PUSH1 0x1 PUSH1 0x1 PUSH1 0xA0 SHL SUB AND DUP2 MSTORE PUSH1 0x20 ADD PUSH32 0x0 ISZERO ISZERO DUP2 MSTORE POP SWAP1 POP PUSH2 0x352 JUMP JUMPDEST DUP2 PUSH1 0x17 EQ ISZERO PUSH2 0x27AB JUMPI PUSH1 0x40 MLOAD DUP1 PUSH2 0x100 ADD PUSH1 0x40 MSTORE DUP1 PUSH32 0x0 PUSH1 0x1 PUSH1 0x1 PUSH1 0xA0 SHL SUB AND DUP2 MSTORE PUSH1 0x20 ADD PUSH32 0x0 PUSH1 0x1 PUSH1 0x1 PUSH1 0xA0 SHL SUB AND DUP2 MSTORE PUSH1 0x20 ADD PUSH32 0x0 DUP2 MSTORE PUSH1 0x20 ADD PUSH32 0x0 DUP2 MSTORE PUSH1 0x20 ADD PUSH32 0x0 PUSH1 0x2 DUP2 GT ISZERO PUSH2 0x2724 JUMPI INVALID JUMPDEST DUP2 MSTORE PUSH1 0x20 ADD PUSH32 0x0 DUP2 MSTORE PUSH1 0x20 ADD PUSH32 0x0 PUSH1 0x1 PUSH1 0x1 PUSH1 0xA0 SHL SUB AND DUP2 MSTORE PUSH1 0x20 ADD PUSH32 0x0 ISZERO ISZERO DUP2 MSTORE POP SWAP1 POP PUSH2 0x352 JUMP JUMPDEST DUP2 PUSH1 0x18 EQ ISZERO PUSH2 0x291D JUMPI PUSH1 0x40 MLOAD DUP1 PUSH2 0x100 ADD PUSH1 0x40 MSTORE DUP1 PUSH32 0x0 PUSH1 0x1 PUSH1 0x1 PUSH1 0xA0 SHL SUB AND DUP2 MSTORE PUSH1 0x20 ADD PUSH32 0x0 PUSH1 0x1 PUSH1 0x1 PUSH1 0xA0 SHL SUB AND DUP2 MSTORE PUSH1 0x20 ADD PUSH32 0x0 DUP2 MSTORE PUSH1 0x20 ADD PUSH32 0x0 DUP2 MSTORE PUSH1 0x20 ADD PUSH32 0x0 PUSH1 0x2 DUP2 GT ISZERO PUSH2 0x2896 JUMPI INVALID JUMPDEST DUP2 MSTORE PUSH1 0x20 ADD PUSH32 0x0 DUP2 MSTORE PUSH1 0x20 ADD PUSH32 0x0 PUSH1 0x1 PUSH1 0x1 PUSH1 0xA0 SHL SUB AND DUP2 MSTORE PUSH1 0x20 ADD PUSH32 0x0 ISZERO ISZERO DUP2 MSTORE POP SWAP1 POP PUSH2 0x352 JUMP JUMPDEST DUP2 PUSH1 0x19 EQ ISZERO PUSH2 0x2A8F JUMPI PUSH1 0x40 MLOAD DUP1 PUSH2 0x100 ADD PUSH1 0x40 MSTORE DUP1 PUSH32 0x0 PUSH1 0x1 PUSH1 0x1 PUSH1 0xA0 SHL SUB AND DUP2 MSTORE PUSH1 0x20 ADD PUSH32 0x0 PUSH1 0x1 PUSH1 0x1 PUSH1 0xA0 SHL SUB AND DUP2 MSTORE PUSH1 0x20 ADD PUSH32 0x0 DUP2 MSTORE PUSH1 0x20 ADD PUSH32 0x0 DUP2 MSTORE PUSH1 0x20 ADD PUSH32 0x0 PUSH1 0x2 DUP2 GT ISZERO PUSH2 0x2A08 JUMPI INVALID JUMPDEST DUP2 MSTORE PUSH1 0x20 ADD PUSH32 0x0 DUP2 MSTORE PUSH1 0x20 ADD PUSH32 0x0 PUSH1 0x1 PUSH1 0x1 PUSH1 0xA0 SHL SUB AND DUP2 MSTORE PUSH1 0x20 ADD PUSH32 0x0 ISZERO ISZERO DUP2 MSTORE POP SWAP1 POP PUSH2 0x352 JUMP JUMPDEST DUP2 PUSH1 0x1A EQ ISZERO PUSH2 0x2C01 JUMPI PUSH1 0x40 MLOAD DUP1 PUSH2 0x100 ADD PUSH1 0x40 MSTORE DUP1 PUSH32 0x0 PUSH1 0x1 PUSH1 0x1 PUSH1 0xA0 SHL SUB AND DUP2 MSTORE PUSH1 0x20 ADD PUSH32 0x0 PUSH1 0x1 PUSH1 0x1 PUSH1 0xA0 SHL SUB AND DUP2 MSTORE PUSH1 0x20 ADD PUSH32 0x0 DUP2 MSTORE PUSH1 0x20 ADD PUSH32 0x0 DUP2 MSTORE PUSH1 0x20 ADD PUSH32 0x0 PUSH1 0x2 DUP2 GT ISZERO PUSH2 0x2B7A JUMPI INVALID JUMPDEST DUP2 MSTORE PUSH1 0x20 ADD PUSH32 0x0 DUP2 MSTORE PUSH1 0x20 ADD PUSH32 0x0 PUSH1 0x1 PUSH1 0x1 PUSH1 0xA0 SHL SUB AND DUP2 MSTORE PUSH1 0x20 ADD PUSH32 0x0 ISZERO ISZERO DUP2 MSTORE POP SWAP1 POP PUSH2 0x352 JUMP JUMPDEST DUP2 PUSH1 0x1B EQ ISZERO PUSH2 0x2D73 JUMPI PUSH1 0x40 MLOAD DUP1 PUSH2 0x100 ADD PUSH1 0x40 MSTORE DUP1 PUSH32 0x0 PUSH1 0x1 PUSH1 0x1 PUSH1 0xA0 SHL SUB AND DUP2 MSTORE PUSH1 0x20 ADD PUSH32 0x0 PUSH1 0x1 PUSH1 0x1 PUSH1 0xA0 SHL SUB AND DUP2 MSTORE PUSH1 0x20 ADD PUSH32 0x0 DUP2 MSTORE PUSH1 0x20 ADD PUSH32 0x0 DUP2 MSTORE PUSH1 0x20 ADD PUSH32 0x0 PUSH1 0x2 DUP2 GT ISZERO PUSH2 0x2CEC JUMPI INVALID JUMPDEST DUP2 MSTORE PUSH1 0x20 ADD PUSH32 0x0 DUP2 MSTORE PUSH1 0x20 ADD PUSH32 0x0 PUSH1 0x1 PUSH1 0x1 PUSH1 0xA0 SHL SUB AND DUP2 MSTORE PUSH1 0x20 ADD PUSH32 0x0 ISZERO ISZERO DUP2 MSTORE POP SWAP1 POP PUSH2 0x352 JUMP JUMPDEST DUP2 PUSH1 0x1C EQ ISZERO PUSH2 0x2EE5 JUMPI PUSH1 0x40 MLOAD DUP1 PUSH2 0x100 ADD PUSH1 0x40 MSTORE DUP1 PUSH32 0x0 PUSH1 0x1 PUSH1 0x1 PUSH1 0xA0 SHL SUB AND DUP2 MSTORE PUSH1 0x20 ADD PUSH32 0x0 PUSH1 0x1 PUSH1 0x1 PUSH1 0xA0 SHL SUB AND DUP2 MSTORE PUSH1 0x20 ADD PUSH32 0x0 DUP2 MSTORE PUSH1 0x20 ADD PUSH32 0x0 DUP2 MSTORE PUSH1 0x20 ADD PUSH32 0x0 PUSH1 0x2 DUP2 GT ISZERO PUSH2 0x2E5E JUMPI INVALID JUMPDEST DUP2 MSTORE PUSH1 0x20 ADD PUSH32 0x0 DUP2 MSTORE PUSH1 0x20 ADD PUSH32 0x0 PUSH1 0x1 PUSH1 0x1 PUSH1 0xA0 SHL SUB AND DUP2 MSTORE PUSH1 0x20 ADD PUSH32 0x0 ISZERO ISZERO DUP2 MSTORE POP SWAP1 POP PUSH2 0x352 JUMP JUMPDEST DUP2 PUSH1 0x1D EQ ISZERO PUSH2 0x352 JUMPI PUSH1 0x40 MLOAD DUP1 PUSH2 0x100 ADD PUSH1 0x40 MSTORE DUP1 PUSH32 0x0 PUSH1 0x1 PUSH1 0x1 PUSH1 0xA0 SHL SUB AND DUP2 MSTORE PUSH1 0x20 ADD PUSH32 0x0 PUSH1 0x1 PUSH1 0x1 PUSH1 0xA0 SHL SUB AND DUP2 MSTORE PUSH1 0x20 ADD PUSH32 0x0 DUP2 MSTORE PUSH1 0x20 ADD PUSH32 0x0 DUP2 MSTORE PUSH1 0x20 ADD PUSH32 0x0 PUSH1 0x2 DUP2 GT ISZERO PUSH2 0x2FD0 JUMPI INVALID JUMPDEST DUP2 MSTORE PUSH1 0x20 ADD PUSH32 0x0 DUP2 MSTORE PUSH1 0x20 ADD PUSH32 0x0 PUSH1 0x1 PUSH1 0x1 PUSH1 0xA0 SHL SUB AND DUP2 MSTORE PUSH1 0x20 ADD PUSH32 0x0 ISZERO ISZERO DUP2 MSTORE POP SWAP1 POP PUSH2 0x352 JUMP JUMPDEST PUSH1 0x60 DUP3 DUP1 PUSH1 0x20 ADD SWAP1 MLOAD DUP2 ADD SWAP1 PUSH2 0x306D SWAP2 SWAP1 PUSH2 0x5692 JUMP JUMPDEST POP SWAP1 POP PUSH1 0x40 MLOAD PUSH1 0x20 ADD PUSH2 0x307F SWAP1 PUSH2 0x5821 JUMP JUMPDEST PUSH1 0x40 MLOAD PUSH1 0x20 DUP2 DUP4 SUB SUB DUP2 MSTORE SWAP1 PUSH1 0x40 MSTORE DUP1 MLOAD SWAP1 PUSH1 0x20 ADD KECCAK256 DUP2 PUSH1 0x40 MLOAD PUSH1 0x20 ADD PUSH2 0x30A6 SWAP2 SWAP1 PUSH2 0x57D4 JUMP JUMPDEST PUSH1 0x40 MLOAD PUSH1 0x20 DUP2 DUP4 SUB SUB DUP2 MSTORE SWAP1 PUSH1 0x40 MSTORE DUP1 MLOAD SWAP1 PUSH1 0x20 ADD KECCAK256 EQ PUSH2 0x30D9 JUMPI PUSH1 0x40 MLOAD PUSH3 0x461BCD PUSH1 0xE5 SHL DUP2 MSTORE PUSH1 0x4 ADD PUSH2 0x349 SWAP1 PUSH2 0x5A70 JUMP JUMPDEST PUSH32 0x0 PUSH1 0x1 PUSH1 0x1 PUSH1 0xA0 SHL SUB AND PUSH2 0x310D DUP5 DUP5 PUSH2 0x3D1 JUMP JUMPDEST PUSH1 0x1 PUSH1 0x1 PUSH1 0xA0 SHL SUB AND EQ PUSH2 0x3133 JUMPI PUSH1 0x40 MLOAD PUSH3 0x461BCD PUSH1 0xE5 SHL DUP2 MSTORE PUSH1 0x4 ADD PUSH2 0x349 SWAP1 PUSH2 0x59B2 JUMP JUMPDEST PUSH1 0x1 DUP1 SLOAD PUSH1 0xFF NOT AND DUP2 OR SWAP1 SSTORE PUSH1 0x40 MLOAD PUSH32 0x98A13F7B181A3A1F99C871E7A3507D4A037D386D157279F978E0D555AE9FE74D SWAP1 PUSH2 0x318F SWAP1 PUSH32 0x0 SWAP1 PUSH2 0x5842 JUMP JUMPDEST PUSH1 0x40 MLOAD DUP1 SWAP2 SUB SWAP1 LOG1 POP POP POP JUMP JUMPDEST PUSH32 0x0 DUP2 JUMP JUMPDEST PUSH32 0x0 DUP2 JUMP JUMPDEST PUSH32 0x0 DUP2 JUMP JUMPDEST PUSH1 0x1E DUP2 JUMP JUMPDEST PUSH32 0x0 DUP2 JUMP JUMPDEST PUSH1 0x3 PUSH1 0x20 MSTORE PUSH1 0x0 SWAP1 DUP2 MSTORE PUSH1 0x40 SWAP1 KECCAK256 DUP1 SLOAD PUSH1 0x1 SWAP1 SWAP2 ADD SLOAD DUP3 JUMP JUMPDEST DUP5 DUP4 EQ PUSH2 0x3269 JUMPI PUSH1 0x40 MLOAD PUSH3 0x461BCD PUSH1 0xE5 SHL DUP2 MSTORE PUSH1 0x4 ADD PUSH2 0x349 SWAP1 PUSH2 0x5AF1 JUMP JUMPDEST PUSH1 0x0 JUMPDEST DUP6 DUP2 LT ISZERO PUSH2 0x335D JUMPI PUSH32 0x0 PUSH1 0x1 PUSH1 0x1 PUSH1 0xA0 SHL SUB AND PUSH4 0x38636E9A DUP9 DUP9 DUP5 DUP2 DUP2 LT PUSH2 0x32AF JUMPI INVALID JUMPDEST SWAP1 POP PUSH1 0x20 MUL DUP2 ADD SWAP1 PUSH2 0x32C1 SWAP2 SWAP1 PUSH2 0x5C18 JUMP JUMPDEST DUP9 DUP9 DUP7 DUP2 DUP2 LT PUSH2 0x32CD JUMPI INVALID JUMPDEST SWAP1 POP PUSH1 0x20 MUL DUP2 ADD SWAP1 PUSH2 0x32DF SWAP2 SWAP1 PUSH2 0x5C18 JUMP JUMPDEST PUSH1 0x40 MLOAD DUP6 PUSH4 0xFFFFFFFF AND PUSH1 0xE0 SHL DUP2 MSTORE PUSH1 0x4 ADD PUSH2 0x32FE SWAP5 SWAP4 SWAP3 SWAP2 SWAP1 PUSH2 0x58A3 JUMP JUMPDEST PUSH1 0x0 PUSH1 0x40 MLOAD DUP1 DUP4 SUB DUP2 PUSH1 0x0 DUP8 DUP1 EXTCODESIZE ISZERO DUP1 ISZERO PUSH2 0x3318 JUMPI PUSH1 0x0 DUP1 REVERT JUMPDEST POP GAS CALL ISZERO DUP1 ISZERO PUSH2 0x332C JUMPI RETURNDATASIZE PUSH1 0x0 DUP1 RETURNDATACOPY RETURNDATASIZE PUSH1 0x0 REVERT JUMPDEST POP POP POP POP PUSH1 0x40 MLOAD RETURNDATASIZE PUSH1 0x0 DUP3 RETURNDATACOPY PUSH1 0x1F RETURNDATASIZE SWAP1 DUP2 ADD PUSH1 0x1F NOT AND DUP3 ADD PUSH1 0x40 MSTORE PUSH2 0x3354 SWAP2 SWAP1 DUP2 ADD SWAP1 PUSH2 0x565F JUMP JUMPDEST POP PUSH1 0x1 ADD PUSH2 0x326C JUMP JUMPDEST POP PUSH1 0x0 PUSH2 0x3368 PUSH2 0x44A5 JUMP JUMPDEST SWAP1 POP PUSH1 0x0 JUMPDEST DUP3 DUP2 LT ISZERO PUSH2 0x33DA JUMPI PUSH2 0x33D2 DUP5 DUP5 DUP4 DUP2 DUP2 LT PUSH2 0x3384 JUMPI INVALID JUMPDEST SWAP1 POP PUSH1 0x20 MUL DUP2 ADD SWAP1 PUSH2 0x3396 SWAP2 SWAP1 PUSH2 0x5C5D JUMP JUMPDEST DUP1 DUP1 PUSH1 0x1F ADD PUSH1 0x20 DUP1 SWAP2 DIV MUL PUSH1 0x20 ADD PUSH1 0x40 MLOAD SWAP1 DUP2 ADD PUSH1 0x40 MSTORE DUP1 SWAP4 SWAP3 SWAP2 SWAP1 DUP2 DUP2 MSTORE PUSH1 0x20 ADD DUP4 DUP4 DUP1 DUP3 DUP5 CALLDATACOPY PUSH1 0x0 SWAP3 ADD SWAP2 SWAP1 SWAP2 MSTORE POP DUP7 SWAP3 POP PUSH2 0x44EB SWAP2 POP POP JUMP JUMPDEST PUSH1 0x1 ADD PUSH2 0x336D JUMP JUMPDEST POP POP POP POP POP POP POP POP JUMP JUMPDEST PUSH2 0x33EC PUSH2 0x5346 JUMP JUMPDEST PUSH1 0x0 PUSH2 0x33F7 DUP4 PUSH2 0x4758 JUMP JUMPDEST SWAP1 POP PUSH1 0x0 NOT DUP2 EQ PUSH2 0x340B JUMPI PUSH2 0x329 DUP2 PUSH2 0x4B8 JUMP JUMPDEST PUSH2 0x347F DUP4 PUSH1 0x1 PUSH1 0x1 PUSH1 0xA0 SHL SUB AND PUSH4 0x6F307DC3 PUSH1 0x40 MLOAD DUP2 PUSH4 0xFFFFFFFF AND PUSH1 0xE0 SHL DUP2 MSTORE PUSH1 0x4 ADD PUSH1 0x20 PUSH1 0x40 MLOAD DUP1 DUP4 SUB DUP2 DUP7 DUP1 EXTCODESIZE ISZERO DUP1 ISZERO PUSH2 0x3447 JUMPI PUSH1 0x0 DUP1 REVERT JUMPDEST POP GAS STATICCALL ISZERO DUP1 ISZERO PUSH2 0x345B JUMPI RETURNDATASIZE PUSH1 0x0 DUP1 RETURNDATACOPY RETURNDATASIZE PUSH1 0x0 REVERT JUMPDEST POP POP POP POP PUSH1 0x40 MLOAD RETURNDATASIZE PUSH1 0x1F NOT PUSH1 0x1F DUP3 ADD AND DUP3 ADD DUP1 PUSH1 0x40 MSTORE POP DUP2 ADD SWAP1 PUSH2 0x1FA SWAP2 SWAP1 PUSH2 0x54BC JUMP JUMPDEST SWAP4 SWAP3 POP POP POP JUMP JUMPDEST PUSH1 0x0 PUSH2 0x3490 PUSH2 0x5346 JUMP JUMPDEST PUSH2 0x3499 DUP4 PUSH2 0x33E4 JUMP JUMPDEST SWAP1 POP DUP1 PUSH1 0x60 ADD MLOAD PUSH2 0x34BF PUSH13 0xC9F2C9CD04674EDEA40000000 PUSH2 0x34BA DUP5 PUSH2 0x4F16 JUMP JUMPDEST PUSH2 0x5005 JUMP JUMPDEST DUP2 PUSH2 0x34C6 JUMPI INVALID JUMPDEST DIV SWAP4 SWAP3 POP POP POP JUMP JUMPDEST PUSH1 0x0 PUSH2 0x34D8 PUSH2 0x5346 JUMP JUMPDEST PUSH2 0x34E1 DUP4 PUSH2 0x37B JUMP JUMPDEST SWAP1 POP PUSH2 0x347F DUP2 PUSH2 0x4F16 JUMP JUMPDEST PUSH1 0x0 DUP1 PUSH1 0x0 PUSH2 0x34F9 PUSH2 0x503F JUMP JUMPDEST SWAP1 POP DUP4 PUSH1 0x1 PUSH1 0x1 PUSH1 0xA0 SHL SUB AND PUSH4 0x5909C0D5 PUSH1 0x40 MLOAD DUP2 PUSH4 0xFFFFFFFF AND PUSH1 0xE0 SHL DUP2 MSTORE PUSH1 0x4 ADD PUSH1 0x20 PUSH1 0x40 MLOAD DUP1 DUP4 SUB DUP2 DUP7 DUP1 EXTCODESIZE ISZERO DUP1 ISZERO PUSH2 0x3534 JUMPI PUSH1 0x0 DUP1 REVERT JUMPDEST POP GAS STATICCALL ISZERO DUP1 ISZERO PUSH2 0x3548 JUMPI RETURNDATASIZE PUSH1 0x0 DUP1 RETURNDATACOPY RETURNDATASIZE PUSH1 0x0 REVERT JUMPDEST POP POP POP POP PUSH1 0x40 MLOAD RETURNDATASIZE PUSH1 0x1F NOT PUSH1 0x1F DUP3 ADD AND DUP3 ADD DUP1 PUSH1 0x40 MSTORE POP DUP2 ADD SWAP1 PUSH2 0x356C SWAP2 SWAP1 PUSH2 0x572B JUMP JUMPDEST SWAP3 POP DUP4 PUSH1 0x1 PUSH1 0x1 PUSH1 0xA0 SHL SUB AND PUSH4 0x5A3D5493 PUSH1 0x40 MLOAD DUP2 PUSH4 0xFFFFFFFF AND PUSH1 0xE0 SHL DUP2 MSTORE PUSH1 0x4 ADD PUSH1 0x20 PUSH1 0x40 MLOAD DUP1 DUP4 SUB DUP2 DUP7 DUP1 EXTCODESIZE ISZERO DUP1 ISZERO PUSH2 0x35A7 JUMPI PUSH1 0x0 DUP1 REVERT JUMPDEST POP GAS STATICCALL ISZERO DUP1 ISZERO PUSH2 0x35BB JUMPI RETURNDATASIZE PUSH1 0x0 DUP1 RETURNDATACOPY RETURNDATASIZE PUSH1 0x0 REVERT JUMPDEST POP POP POP POP PUSH1 0x40 MLOAD RETURNDATASIZE PUSH1 0x1F NOT PUSH1 0x1F DUP3 ADD AND DUP3 ADD DUP1 PUSH1 0x40 MSTORE POP DUP2 ADD SWAP1 PUSH2 0x35DF SWAP2 SWAP1 PUSH2 0x572B JUMP JUMPDEST SWAP2 POP PUSH1 0x0 DUP1 PUSH1 0x0 DUP7 PUSH1 0x1 PUSH1 0x1 PUSH1 0xA0 SHL SUB AND PUSH4 0x902F1AC PUSH1 0x40 MLOAD DUP2 PUSH4 0xFFFFFFFF AND PUSH1 0xE0 SHL DUP2 MSTORE PUSH1 0x4 ADD PUSH1 0x60 PUSH1 0x40 MLOAD DUP1 DUP4 SUB DUP2 DUP7 DUP1 EXTCODESIZE ISZERO DUP1 ISZERO PUSH2 0x361F JUMPI PUSH1 0x0 DUP1 REVERT JUMPDEST POP GAS STATICCALL ISZERO DUP1 ISZERO PUSH2 0x3633 JUMPI RETURNDATASIZE PUSH1 0x0 DUP1 RETURNDATACOPY RETURNDATASIZE PUSH1 0x0 REVERT JUMPDEST POP POP POP POP PUSH1 0x40 MLOAD RETURNDATASIZE PUSH1 0x1F NOT PUSH1 0x1F DUP3 ADD AND DUP3 ADD DUP1 PUSH1 0x40 MSTORE POP DUP2 ADD SWAP1 PUSH2 0x3657 SWAP2 SWAP1 PUSH2 0x56E2 JUMP JUMPDEST SWAP3 POP SWAP3 POP SWAP3 POP DUP4 PUSH4 0xFFFFFFFF AND DUP2 PUSH4 0xFFFFFFFF AND EQ PUSH2 0x36B7 JUMPI DUP1 DUP5 SUB PUSH4 0xFFFFFFFF DUP2 AND PUSH2 0x3684 DUP5 DUP7 PUSH2 0x36C1 JUMP JUMPDEST MLOAD PUSH1 0x1 PUSH1 0x1 PUSH1 0xE0 SHL SUB AND MUL SWAP7 SWAP1 SWAP7 ADD SWAP6 PUSH4 0xFFFFFFFF DUP2 AND PUSH2 0x36A5 DUP6 DUP6 PUSH2 0x36C1 JUMP JUMPDEST MLOAD PUSH1 0x1 PUSH1 0x1 PUSH1 0xE0 SHL SUB AND MUL SWAP6 SWAP1 SWAP6 ADD SWAP5 POP JUMPDEST POP POP POP SWAP2 SWAP4 SWAP1 SWAP3 POP JUMP JUMPDEST PUSH2 0x36C9 PUSH2 0x538B JUMP JUMPDEST PUSH1 0x0 DUP3 PUSH1 0x1 PUSH1 0x1 PUSH1 0x70 SHL SUB AND GT PUSH2 0x36F2 JUMPI PUSH1 0x40 MLOAD PUSH3 0x461BCD PUSH1 0xE5 SHL DUP2 MSTORE PUSH1 0x4 ADD PUSH2 0x349 SWAP1 PUSH2 0x5B34 JUMP JUMPDEST PUSH1 0x40 DUP1 MLOAD PUSH1 0x20 DUP2 ADD SWAP1 SWAP2 MSTORE DUP1 PUSH1 0x1 PUSH1 0x1 PUSH1 0x70 SHL SUB DUP5 AND PUSH14 0xFFFFFFFFFFFFFFFFFFFFFFFFFFFF PUSH1 0x70 SHL PUSH1 0x70 DUP8 SWAP1 SHL AND DUP2 PUSH2 0x3727 JUMPI INVALID JUMPDEST DIV PUSH1 0x1 PUSH1 0x1 PUSH1 0xE0 SHL SUB AND DUP2 MSTORE POP SWAP1 POP SWAP3 SWAP2 POP POP JUMP JUMPDEST PUSH1 0x0 PUSH32 0x0 DUP3 EQ ISZERO PUSH2 0x376E JUMPI POP PUSH1 0x0 PUSH2 0x352 JUMP JUMPDEST PUSH32 0x0 DUP3 EQ ISZERO PUSH2 0x379E JUMPI POP PUSH1 0x1 PUSH2 0x352 JUMP JUMPDEST PUSH32 0x0 DUP3 EQ ISZERO PUSH2 0x37CE JUMPI POP PUSH1 0x2 PUSH2 0x352 JUMP JUMPDEST PUSH32 0x0 DUP3 EQ ISZERO PUSH2 0x37FE JUMPI POP PUSH1 0x3 PUSH2 0x352 JUMP JUMPDEST PUSH32 0x0 DUP3 EQ ISZERO PUSH2 0x382E JUMPI POP PUSH1 0x4 PUSH2 0x352 JUMP JUMPDEST PUSH32 0x0 DUP3 EQ ISZERO PUSH2 0x385E JUMPI POP PUSH1 0x5 PUSH2 0x352 JUMP JUMPDEST PUSH32 0x0 DUP3 EQ ISZERO PUSH2 0x388E JUMPI POP PUSH1 0x6 PUSH2 0x352 JUMP JUMPDEST PUSH32 0x0 DUP3 EQ ISZERO PUSH2 0x38BE JUMPI POP PUSH1 0x7 PUSH2 0x352 JUMP JUMPDEST PUSH32 0x0 DUP3 EQ ISZERO PUSH2 0x38EE JUMPI POP PUSH1 0x8 PUSH2 0x352 JUMP JUMPDEST PUSH32 0x0 DUP3 EQ ISZERO PUSH2 0x391E JUMPI POP PUSH1 0x9 PUSH2 0x352 JUMP JUMPDEST PUSH32 0x0 DUP3 EQ ISZERO PUSH2 0x394E JUMPI POP PUSH1 0xA PUSH2 0x352 JUMP JUMPDEST PUSH32 0x0 DUP3 EQ ISZERO PUSH2 0x397E JUMPI POP PUSH1 0xB PUSH2 0x352 JUMP JUMPDEST PUSH32 0x0 DUP3 EQ ISZERO PUSH2 0x39AE JUMPI POP PUSH1 0xC PUSH2 0x352 JUMP JUMPDEST PUSH32 0x0 DUP3 EQ ISZERO PUSH2 0x39DE JUMPI POP PUSH1 0xD PUSH2 0x352 JUMP JUMPDEST PUSH32 0x0 DUP3 EQ ISZERO PUSH2 0x3A0E JUMPI POP PUSH1 0xE PUSH2 0x352 JUMP JUMPDEST PUSH32 0x0 DUP3 EQ ISZERO PUSH2 0x3A3E JUMPI POP PUSH1 0xF PUSH2 0x352 JUMP JUMPDEST PUSH32 0x0 DUP3 EQ ISZERO PUSH2 0x3A6E JUMPI POP PUSH1 0x10 PUSH2 0x352 JUMP JUMPDEST PUSH32 0x0 DUP3 EQ ISZERO PUSH2 0x3A9E JUMPI POP PUSH1 0x11 PUSH2 0x352 JUMP JUMPDEST PUSH32 0x0 DUP3 EQ ISZERO PUSH2 0x3ACE JUMPI POP PUSH1 0x12 PUSH2 0x352 JUMP JUMPDEST PUSH32 0x0 DUP3 EQ ISZERO PUSH2 0x3AFE JUMPI POP PUSH1 0x13 PUSH2 0x352 JUMP JUMPDEST PUSH32 0x0 DUP3 EQ ISZERO PUSH2 0x3B2E JUMPI POP PUSH1 0x14 PUSH2 0x352 JUMP JUMPDEST PUSH32 0x0 DUP3 EQ ISZERO PUSH2 0x3B5E JUMPI POP PUSH1 0x15 PUSH2 0x352 JUMP JUMPDEST PUSH32 0x0 DUP3 EQ ISZERO PUSH2 0x3B8E JUMPI POP PUSH1 0x16 PUSH2 0x352 JUMP JUMPDEST PUSH32 0x0 DUP3 EQ ISZERO PUSH2 0x3BBE JUMPI POP PUSH1 0x17 PUSH2 0x352 JUMP JUMPDEST PUSH32 0x0 DUP3 EQ ISZERO PUSH2 0x3BEE JUMPI POP PUSH1 0x18 PUSH2 0x352 JUMP JUMPDEST PUSH32 0x0 DUP3 EQ ISZERO PUSH2 0x3C1E JUMPI POP PUSH1 0x19 PUSH2 0x352 JUMP JUMPDEST PUSH32 0x0 DUP3 EQ ISZERO PUSH2 0x3C4E JUMPI POP PUSH1 0x1A PUSH2 0x352 JUMP JUMPDEST PUSH32 0x0 DUP3 EQ ISZERO PUSH2 0x3C7E JUMPI POP PUSH1 0x1B PUSH2 0x352 JUMP JUMPDEST PUSH32 0x0 DUP3 EQ ISZERO PUSH2 0x3CAE JUMPI POP PUSH1 0x1C PUSH2 0x352 JUMP JUMPDEST PUSH32 0x0 DUP3 EQ ISZERO PUSH2 0x3CDE JUMPI POP PUSH1 0x1D PUSH2 0x352 JUMP JUMPDEST POP PUSH1 0x0 NOT SWAP2 SWAP1 POP JUMP JUMPDEST PUSH1 0x0 PUSH32 0x0 PUSH1 0x1 PUSH1 0x1 PUSH1 0xA0 SHL SUB AND DUP3 PUSH1 0x1 PUSH1 0x1 PUSH1 0xA0 SHL SUB AND EQ ISZERO PUSH2 0x3D2B JUMPI POP PUSH1 0x0 PUSH2 0x352 JUMP JUMPDEST PUSH32 0x0 PUSH1 0x1 PUSH1 0x1 PUSH1 0xA0 SHL SUB AND DUP3 PUSH1 0x1 PUSH1 0x1 PUSH1 0xA0 SHL SUB AND EQ ISZERO PUSH2 0x3D6D JUMPI POP PUSH1 0x1 PUSH2 0x352 JUMP JUMPDEST PUSH32 0x0 PUSH1 0x1 PUSH1 0x1 PUSH1 0xA0 SHL SUB AND DUP3 PUSH1 0x1 PUSH1 0x1 PUSH1 0xA0 SHL SUB AND EQ ISZERO PUSH2 0x3DAF JUMPI POP PUSH1 0x2 PUSH2 0x352 JUMP JUMPDEST PUSH32 0x0 PUSH1 0x1 PUSH1 0x1 PUSH1 0xA0 SHL SUB AND DUP3 PUSH1 0x1 PUSH1 0x1 PUSH1 0xA0 SHL SUB AND EQ ISZERO PUSH2 0x3DF1 JUMPI POP PUSH1 0x3 PUSH2 0x352 JUMP JUMPDEST PUSH32 0x0 PUSH1 0x1 PUSH1 0x1 PUSH1 0xA0 SHL SUB AND DUP3 PUSH1 0x1 PUSH1 0x1 PUSH1 0xA0 SHL SUB AND EQ ISZERO PUSH2 0x3E33 JUMPI POP PUSH1 0x4 PUSH2 0x352 JUMP JUMPDEST PUSH32 0x0 PUSH1 0x1 PUSH1 0x1 PUSH1 0xA0 SHL SUB AND DUP3 PUSH1 0x1 PUSH1 0x1 PUSH1 0xA0 SHL SUB AND EQ ISZERO PUSH2 0x3E75 JUMPI POP PUSH1 0x5 PUSH2 0x352 JUMP JUMPDEST PUSH32 0x0 PUSH1 0x1 PUSH1 0x1 PUSH1 0xA0 SHL SUB AND DUP3 PUSH1 0x1 PUSH1 0x1 PUSH1 0xA0 SHL SUB AND EQ ISZERO PUSH2 0x3EB7 JUMPI POP PUSH1 0x6 PUSH2 0x352 JUMP JUMPDEST PUSH32 0x0 PUSH1 0x1 PUSH1 0x1 PUSH1 0xA0 SHL SUB AND DUP3 PUSH1 0x1 PUSH1 0x1 PUSH1 0xA0 SHL SUB AND EQ ISZERO PUSH2 0x3EF9 JUMPI POP PUSH1 0x7 PUSH2 0x352 JUMP JUMPDEST PUSH32 0x0 PUSH1 0x1 PUSH1 0x1 PUSH1 0xA0 SHL SUB AND DUP3 PUSH1 0x1 PUSH1 0x1 PUSH1 0xA0 SHL SUB AND EQ ISZERO PUSH2 0x3F3B JUMPI POP PUSH1 0x8 PUSH2 0x352 JUMP JUMPDEST PUSH32 0x0 PUSH1 0x1 PUSH1 0x1 PUSH1 0xA0 SHL SUB AND DUP3 PUSH1 0x1 PUSH1 0x1 PUSH1 0xA0 SHL SUB AND EQ ISZERO PUSH2 0x3F7D JUMPI POP PUSH1 0x9 PUSH2 0x352 JUMP JUMPDEST PUSH32 0x0 PUSH1 0x1 PUSH1 0x1 PUSH1 0xA0 SHL SUB AND DUP3 PUSH1 0x1 PUSH1 0x1 PUSH1 0xA0 SHL SUB AND EQ ISZERO PUSH2 0x3FBF JUMPI POP PUSH1 0xA PUSH2 0x352 JUMP JUMPDEST PUSH32 0x0 PUSH1 0x1 PUSH1 0x1 PUSH1 0xA0 SHL SUB AND DUP3 PUSH1 0x1 PUSH1 0x1 PUSH1 0xA0 SHL SUB AND EQ ISZERO PUSH2 0x4001 JUMPI POP PUSH1 0xB PUSH2 0x352 JUMP JUMPDEST PUSH32 0x0 PUSH1 0x1 PUSH1 0x1 PUSH1 0xA0 SHL SUB AND DUP3 PUSH1 0x1 PUSH1 0x1 PUSH1 0xA0 SHL SUB AND EQ ISZERO PUSH2 0x4043 JUMPI POP PUSH1 0xC PUSH2 0x352 JUMP JUMPDEST PUSH32 0x0 PUSH1 0x1 PUSH1 0x1 PUSH1 0xA0 SHL SUB AND DUP3 PUSH1 0x1 PUSH1 0x1 PUSH1 0xA0 SHL SUB AND EQ ISZERO PUSH2 0x4085 JUMPI POP PUSH1 0xD PUSH2 0x352 JUMP JUMPDEST PUSH32 0x0 PUSH1 0x1 PUSH1 0x1 PUSH1 0xA0 SHL SUB AND DUP3 PUSH1 0x1 PUSH1 0x1 PUSH1 0xA0 SHL SUB AND EQ ISZERO PUSH2 0x40C7 JUMPI POP PUSH1 0xE PUSH2 0x352 JUMP JUMPDEST PUSH32 0x0 PUSH1 0x1 PUSH1 0x1 PUSH1 0xA0 SHL SUB AND DUP3 PUSH1 0x1 PUSH1 0x1 PUSH1 0xA0 SHL SUB AND EQ ISZERO PUSH2 0x4109 JUMPI POP PUSH1 0xF PUSH2 0x352 JUMP JUMPDEST PUSH32 0x0 PUSH1 0x1 PUSH1 0x1 PUSH1 0xA0 SHL SUB AND DUP3 PUSH1 0x1 PUSH1 0x1 PUSH1 0xA0 SHL SUB AND EQ ISZERO PUSH2 0x414B JUMPI POP PUSH1 0x10 PUSH2 0x352 JUMP JUMPDEST PUSH32 0x0 PUSH1 0x1 PUSH1 0x1 PUSH1 0xA0 SHL SUB AND DUP3 PUSH1 0x1 PUSH1 0x1 PUSH1 0xA0 SHL SUB AND EQ ISZERO PUSH2 0x418D JUMPI POP PUSH1 0x11 PUSH2 0x352 JUMP JUMPDEST PUSH32 0x0 PUSH1 0x1 PUSH1 0x1 PUSH1 0xA0 SHL SUB AND DUP3 PUSH1 0x1 PUSH1 0x1 PUSH1 0xA0 SHL SUB AND EQ ISZERO PUSH2 0x41CF JUMPI POP PUSH1 0x12 PUSH2 0x352 JUMP JUMPDEST PUSH32 0x0 PUSH1 0x1 PUSH1 0x1 PUSH1 0xA0 SHL SUB AND DUP3 PUSH1 0x1 PUSH1 0x1 PUSH1 0xA0 SHL SUB AND EQ ISZERO PUSH2 0x4211 JUMPI POP PUSH1 0x13 PUSH2 0x352 JUMP JUMPDEST PUSH32 0x0 PUSH1 0x1 PUSH1 0x1 PUSH1 0xA0 SHL SUB AND DUP3 PUSH1 0x1 PUSH1 0x1 PUSH1 0xA0 SHL SUB AND EQ ISZERO PUSH2 0x4253 JUMPI POP PUSH1 0x14 PUSH2 0x352 JUMP JUMPDEST PUSH32 0x0 PUSH1 0x1 PUSH1 0x1 PUSH1 0xA0 SHL SUB AND DUP3 PUSH1 0x1 PUSH1 0x1 PUSH1 0xA0 SHL SUB AND EQ ISZERO PUSH2 0x4295 JUMPI POP PUSH1 0x15 PUSH2 0x352 JUMP JUMPDEST PUSH32 0x0 PUSH1 0x1 PUSH1 0x1 PUSH1 0xA0 SHL SUB AND DUP3 PUSH1 0x1 PUSH1 0x1 PUSH1 0xA0 SHL SUB AND EQ ISZERO PUSH2 0x42D7 JUMPI POP PUSH1 0x16 PUSH2 0x352 JUMP JUMPDEST PUSH32 0x0 PUSH1 0x1 PUSH1 0x1 PUSH1 0xA0 SHL SUB AND DUP3 PUSH1 0x1 PUSH1 0x1 PUSH1 0xA0 SHL SUB AND EQ ISZERO PUSH2 0x4319 JUMPI POP PUSH1 0x17 PUSH2 0x352 JUMP JUMPDEST PUSH32 0x0 PUSH1 0x1 PUSH1 0x1 PUSH1 0xA0 SHL SUB AND DUP3 PUSH1 0x1 PUSH1 0x1 PUSH1 0xA0 SHL SUB AND EQ ISZERO PUSH2 0x435B JUMPI POP PUSH1 0x18 PUSH2 0x352 JUMP JUMPDEST PUSH32 0x0 PUSH1 0x1 PUSH1 0x1 PUSH1 0xA0 SHL SUB AND DUP3 PUSH1 0x1 PUSH1 0x1 PUSH1 0xA0 SHL SUB AND EQ ISZERO PUSH2 0x439D JUMPI POP PUSH1 0x19 PUSH2 0x352 JUMP JUMPDEST PUSH32 0x0 PUSH1 0x1 PUSH1 0x1 PUSH1 0xA0 SHL SUB AND DUP3 PUSH1 0x1 PUSH1 0x1 PUSH1 0xA0 SHL SUB AND EQ ISZERO PUSH2 0x43DF JUMPI POP PUSH1 0x1A PUSH2 0x352 JUMP JUMPDEST PUSH32 0x0 PUSH1 0x1 PUSH1 0x1 PUSH1 0xA0 SHL SUB AND DUP3 PUSH1 0x1 PUSH1 0x1 PUSH1 0xA0 SHL SUB AND EQ ISZERO PUSH2 0x4421 JUMPI POP PUSH1 0x1B PUSH2 0x352 JUMP JUMPDEST PUSH32 0x0 PUSH1 0x1 PUSH1 0x1 PUSH1 0xA0 SHL SUB AND DUP3 PUSH1 0x1 PUSH1 0x1 PUSH1 0xA0 SHL SUB AND EQ ISZERO PUSH2 0x4463 JUMPI POP PUSH1 0x1C PUSH2 0x352 JUMP JUMPDEST PUSH32 0x0 PUSH1 0x1 PUSH1 0x1 PUSH1 0xA0 SHL SUB AND DUP3 PUSH1 0x1 PUSH1 0x1 PUSH1 0xA0 SHL SUB AND EQ ISZERO PUSH2 0x3CDE JUMPI POP PUSH1 0x1D PUSH2 0x352 JUMP JUMPDEST PUSH1 0x0 PUSH2 0x44E6 PUSH1 0x40 MLOAD DUP1 PUSH1 0x40 ADD PUSH1 0x40 MSTORE DUP1 PUSH1 0x3 DUP2 MSTORE PUSH1 0x20 ADD PUSH3 0x8AA89 PUSH1 0xEB SHL DUP2 MSTORE POP PUSH2 0x44D8 PUSH1 0x40 MLOAD PUSH1 0x20 ADD PUSH2 0x397 SWAP1 PUSH2 0x5833 JUMP JUMPDEST PUSH8 0xDE0B6B3A7640000 PUSH2 0x5049 JUMP JUMPDEST SWAP1 POP SWAP1 JUMP JUMPDEST PUSH2 0x44F3 PUSH2 0x5346 JUMP JUMPDEST PUSH2 0x44FC DUP4 PUSH2 0x37B JUMP JUMPDEST SWAP1 POP PUSH1 0x2 DUP2 PUSH1 0x80 ADD MLOAD PUSH1 0x2 DUP2 GT ISZERO PUSH2 0x4510 JUMPI INVALID JUMPDEST EQ PUSH2 0x452D JUMPI PUSH1 0x40 MLOAD PUSH3 0x461BCD PUSH1 0xE5 SHL DUP2 MSTORE PUSH1 0x4 ADD PUSH2 0x349 SWAP1 PUSH2 0x5A02 JUMP JUMPDEST PUSH1 0x0 DUP4 PUSH1 0x40 MLOAD PUSH1 0x20 ADD PUSH2 0x4540 SWAP2 SWAP1 PUSH2 0x57D4 JUMP JUMPDEST PUSH1 0x40 MLOAD PUSH1 0x20 DUP2 DUP4 SUB SUB DUP2 MSTORE SWAP1 PUSH1 0x40 MSTORE DUP1 MLOAD SWAP1 PUSH1 0x20 ADD KECCAK256 SWAP1 POP PUSH1 0x0 PUSH32 0x0 PUSH1 0x1 PUSH1 0x1 PUSH1 0xA0 SHL SUB AND PUSH4 0x76977A3A PUSH32 0x0 DUP8 PUSH1 0x40 MLOAD DUP4 PUSH4 0xFFFFFFFF AND PUSH1 0xE0 SHL DUP2 MSTORE PUSH1 0x4 ADD PUSH2 0x45C8 SWAP3 SWAP2 SWAP1 PUSH2 0x5856 JUMP JUMPDEST PUSH1 0x20 PUSH1 0x40 MLOAD DUP1 DUP4 SUB DUP2 DUP7 DUP1 EXTCODESIZE ISZERO DUP1 ISZERO PUSH2 0x45E0 JUMPI PUSH1 0x0 DUP1 REVERT JUMPDEST POP GAS STATICCALL ISZERO DUP1 ISZERO PUSH2 0x45F4 JUMPI RETURNDATASIZE PUSH1 0x0 DUP1 RETURNDATACOPY RETURNDATASIZE PUSH1 0x0 REVERT JUMPDEST POP POP POP POP PUSH1 0x40 MLOAD RETURNDATASIZE PUSH1 0x1F NOT PUSH1 0x1F DUP3 ADD AND DUP3 ADD DUP1 PUSH1 0x40 MSTORE POP DUP2 ADD SWAP1 PUSH2 0x4618 SWAP2 SWAP1 PUSH2 0x5743 JUMP JUMPDEST PUSH8 0xFFFFFFFFFFFFFFFF AND SWAP1 POP PUSH1 0x0 PUSH1 0x40 MLOAD PUSH1 0x20 ADD PUSH2 0x4635 SWAP1 PUSH2 0x5833 JUMP JUMPDEST PUSH1 0x40 MLOAD PUSH1 0x20 DUP2 DUP4 SUB SUB DUP2 MSTORE SWAP1 PUSH1 0x40 MSTORE DUP1 MLOAD SWAP1 PUSH1 0x20 ADD KECCAK256 DUP4 EQ ISZERO PUSH2 0x4659 JUMPI POP DUP4 PUSH2 0x4667 JUMP JUMPDEST PUSH2 0x4664 DUP7 DUP6 DUP8 PUSH2 0x5049 JUMP JUMPDEST SWAP1 POP JUMPDEST PUSH1 0x1 SLOAD PUSH1 0xFF AND ISZERO PUSH2 0x46C2 JUMPI PUSH1 0x0 DUP4 DUP2 MSTORE PUSH1 0x20 DUP2 SWAP1 MSTORE PUSH1 0x40 SWAP1 DUP2 SWAP1 KECCAK256 DUP3 SWAP1 SSTORE MLOAD PUSH32 0x159E83F4712BA2552E68BE9D848E49BF6DD35C24F19564FFD523B6549450A2F4 SWAP1 PUSH2 0x46B5 SWAP1 DUP9 SWAP1 DUP5 SWAP1 PUSH2 0x58D5 JUMP JUMPDEST PUSH1 0x40 MLOAD DUP1 SWAP2 SUB SWAP1 LOG1 PUSH2 0x4750 JUMP JUMPDEST PUSH2 0x46CC DUP3 DUP3 PUSH2 0x5161 JUMP JUMPDEST ISZERO PUSH2 0x4714 JUMPI PUSH1 0x0 DUP4 DUP2 MSTORE PUSH1 0x20 DUP2 SWAP1 MSTORE PUSH1 0x40 SWAP1 DUP2 SWAP1 KECCAK256 DUP4 SWAP1 SSTORE MLOAD PUSH32 0x159E83F4712BA2552E68BE9D848E49BF6DD35C24F19564FFD523B6549450A2F4 SWAP1 PUSH2 0x46B5 SWAP1 DUP9 SWAP1 DUP6 SWAP1 PUSH2 0x58D5 JUMP JUMPDEST PUSH32 0x90756D4C8646A4591078ABAC0E4E32DFA8437921729E36D51B88B659D265BFDE DUP7 DUP4 DUP4 PUSH1 0x40 MLOAD PUSH2 0x4747 SWAP4 SWAP3 SWAP2 SWAP1 PUSH2 0x58F7 JUMP JUMPDEST PUSH1 0x40 MLOAD DUP1 SWAP2 SUB SWAP1 LOG1 JUMPDEST POP POP POP POP POP POP JUMP JUMPDEST PUSH1 0x0 PUSH32 0x0 PUSH1 0x1 PUSH1 0x1 PUSH1 0xA0 SHL SUB AND DUP3 PUSH1 0x1 PUSH1 0x1 PUSH1 0xA0 SHL SUB AND EQ ISZERO PUSH2 0x479C JUMPI POP PUSH1 0x0 PUSH2 0x352 JUMP JUMPDEST PUSH32 0x0 PUSH1 0x1 PUSH1 0x1 PUSH1 0xA0 SHL SUB AND DUP3 PUSH1 0x1 PUSH1 0x1 PUSH1 0xA0 SHL SUB AND EQ ISZERO PUSH2 0x47DE JUMPI POP PUSH1 0x1 PUSH2 0x352 JUMP JUMPDEST PUSH32 0x0 PUSH1 0x1 PUSH1 0x1 PUSH1 0xA0 SHL SUB AND DUP3 PUSH1 0x1 PUSH1 0x1 PUSH1 0xA0 SHL SUB AND EQ ISZERO PUSH2 0x4820 JUMPI POP PUSH1 0x2 PUSH2 0x352 JUMP JUMPDEST PUSH32 0x0 PUSH1 0x1 PUSH1 0x1 PUSH1 0xA0 SHL SUB AND DUP3 PUSH1 0x1 PUSH1 0x1 PUSH1 0xA0 SHL SUB AND EQ ISZERO PUSH2 0x4862 JUMPI POP PUSH1 0x3 PUSH2 0x352 JUMP JUMPDEST PUSH32 0x0 PUSH1 0x1 PUSH1 0x1 PUSH1 0xA0 SHL SUB AND DUP3 PUSH1 0x1 PUSH1 0x1 PUSH1 0xA0 SHL SUB AND EQ ISZERO PUSH2 0x48A4 JUMPI POP PUSH1 0x4 PUSH2 0x352 JUMP JUMPDEST PUSH32 0x0 PUSH1 0x1 PUSH1 0x1 PUSH1 0xA0 SHL SUB AND DUP3 PUSH1 0x1 PUSH1 0x1 PUSH1 0xA0 SHL SUB AND EQ ISZERO PUSH2 0x48E6 JUMPI POP PUSH1 0x5 PUSH2 0x352 JUMP JUMPDEST PUSH32 0x0 PUSH1 0x1 PUSH1 0x1 PUSH1 0xA0 SHL SUB AND DUP3 PUSH1 0x1 PUSH1 0x1 PUSH1 0xA0 SHL SUB AND EQ ISZERO PUSH2 0x4928 JUMPI POP PUSH1 0x6 PUSH2 0x352 JUMP JUMPDEST PUSH32 0x0 PUSH1 0x1 PUSH1 0x1 PUSH1 0xA0 SHL SUB AND DUP3 PUSH1 0x1 PUSH1 0x1 PUSH1 0xA0 SHL SUB AND EQ ISZERO PUSH2 0x496A JUMPI POP PUSH1 0x7 PUSH2 0x352 JUMP JUMPDEST PUSH32 0x0 PUSH1 0x1 PUSH1 0x1 PUSH1 0xA0 SHL SUB AND DUP3 PUSH1 0x1 PUSH1 0x1 PUSH1 0xA0 SHL SUB AND EQ ISZERO PUSH2 0x49AC JUMPI POP PUSH1 0x8 PUSH2 0x352 JUMP JUMPDEST PUSH32 0x0 PUSH1 0x1 PUSH1 0x1 PUSH1 0xA0 SHL SUB AND DUP3 PUSH1 0x1 PUSH1 0x1 PUSH1 0xA0 SHL SUB AND EQ ISZERO PUSH2 0x49EE JUMPI POP PUSH1 0x9 PUSH2 0x352 JUMP JUMPDEST PUSH32 0x0 PUSH1 0x1 PUSH1 0x1 PUSH1 0xA0 SHL SUB AND DUP3 PUSH1 0x1 PUSH1 0x1 PUSH1 0xA0 SHL SUB AND EQ ISZERO PUSH2 0x4A30 JUMPI POP PUSH1 0xA PUSH2 0x352 JUMP JUMPDEST PUSH32 0x0 PUSH1 0x1 PUSH1 0x1 PUSH1 0xA0 SHL SUB AND DUP3 PUSH1 0x1 PUSH1 0x1 PUSH1 0xA0 SHL SUB AND EQ ISZERO PUSH2 0x4A72 JUMPI POP PUSH1 0xB PUSH2 0x352 JUMP JUMPDEST PUSH32 0x0 PUSH1 0x1 PUSH1 0x1 PUSH1 0xA0 SHL SUB AND DUP3 PUSH1 0x1 PUSH1 0x1 PUSH1 0xA0 SHL SUB AND EQ ISZERO PUSH2 0x4AB4 JUMPI POP PUSH1 0xC PUSH2 0x352 JUMP JUMPDEST PUSH32 0x0 PUSH1 0x1 PUSH1 0x1 PUSH1 0xA0 SHL SUB AND DUP3 PUSH1 0x1 PUSH1 0x1 PUSH1 0xA0 SHL SUB AND EQ ISZERO PUSH2 0x4AF6 JUMPI POP PUSH1 0xD PUSH2 0x352 JUMP JUMPDEST PUSH32 0x0 PUSH1 0x1 PUSH1 0x1 PUSH1 0xA0 SHL SUB AND DUP3 PUSH1 0x1 PUSH1 0x1 PUSH1 0xA0 SHL SUB AND EQ ISZERO PUSH2 0x4B38 JUMPI POP PUSH1 0xE PUSH2 0x352 JUMP JUMPDEST PUSH32 0x0 PUSH1 0x1 PUSH1 0x1 PUSH1 0xA0 SHL SUB AND DUP3 PUSH1 0x1 PUSH1 0x1 PUSH1 0xA0 SHL SUB AND EQ ISZERO PUSH2 0x4B7A JUMPI POP PUSH1 0xF PUSH2 0x352 JUMP JUMPDEST PUSH32 0x0 PUSH1 0x1 PUSH1 0x1 PUSH1 0xA0 SHL SUB AND DUP3 PUSH1 0x1 PUSH1 0x1 PUSH1 0xA0 SHL SUB AND EQ ISZERO PUSH2 0x4BBC JUMPI POP PUSH1 0x10 PUSH2 0x352 JUMP JUMPDEST PUSH32 0x0 PUSH1 0x1 PUSH1 0x1 PUSH1 0xA0 SHL SUB AND DUP3 PUSH1 0x1 PUSH1 0x1 PUSH1 0xA0 SHL SUB AND EQ ISZERO PUSH2 0x4BFE JUMPI POP PUSH1 0x11 PUSH2 0x352 JUMP JUMPDEST PUSH32 0x0 PUSH1 0x1 PUSH1 0x1 PUSH1 0xA0 SHL SUB AND DUP3 PUSH1 0x1 PUSH1 0x1 PUSH1 0xA0 SHL SUB AND EQ ISZERO PUSH2 0x4C40 JUMPI POP PUSH1 0x12 PUSH2 0x352 JUMP JUMPDEST PUSH32 0x0 PUSH1 0x1 PUSH1 0x1 PUSH1 0xA0 SHL SUB AND DUP3 PUSH1 0x1 PUSH1 0x1 PUSH1 0xA0 SHL SUB AND EQ ISZERO PUSH2 0x4C82 JUMPI POP PUSH1 0x13 PUSH2 0x352 JUMP JUMPDEST PUSH32 0x0 PUSH1 0x1 PUSH1 0x1 PUSH1 0xA0 SHL SUB AND DUP3 PUSH1 0x1 PUSH1 0x1 PUSH1 0xA0 SHL SUB AND EQ ISZERO PUSH2 0x4CC4 JUMPI POP PUSH1 0x14 PUSH2 0x352 JUMP JUMPDEST PUSH32 0x0 PUSH1 0x1 PUSH1 0x1 PUSH1 0xA0 SHL SUB AND DUP3 PUSH1 0x1 PUSH1 0x1 PUSH1 0xA0 SHL SUB AND EQ ISZERO PUSH2 0x4D06 JUMPI POP PUSH1 0x15 PUSH2 0x352 JUMP JUMPDEST PUSH32 0x0 PUSH1 0x1 PUSH1 0x1 PUSH1 0xA0 SHL SUB AND DUP3 PUSH1 0x1 PUSH1 0x1 PUSH1 0xA0 SHL SUB AND EQ ISZERO PUSH2 0x4D48 JUMPI POP PUSH1 0x16 PUSH2 0x352 JUMP JUMPDEST PUSH32 0x0 PUSH1 0x1 PUSH1 0x1 PUSH1 0xA0 SHL SUB AND DUP3 PUSH1 0x1 PUSH1 0x1 PUSH1 0xA0 SHL SUB AND EQ ISZERO PUSH2 0x4D8A JUMPI POP PUSH1 0x17 PUSH2 0x352 JUMP JUMPDEST PUSH32 0x0 PUSH1 0x1 PUSH1 0x1 PUSH1 0xA0 SHL SUB AND DUP3 PUSH1 0x1 PUSH1 0x1 PUSH1 0xA0 SHL SUB AND EQ ISZERO PUSH2 0x4DCC JUMPI POP PUSH1 0x18 PUSH2 0x352 JUMP JUMPDEST PUSH32 0x0 PUSH1 0x1 PUSH1 0x1 PUSH1 0xA0 SHL SUB AND DUP3 PUSH1 0x1 PUSH1 0x1 PUSH1 0xA0 SHL SUB AND EQ ISZERO PUSH2 0x4E0E JUMPI POP PUSH1 0x19 PUSH2 0x352 JUMP JUMPDEST PUSH32 0x0 PUSH1 0x1 PUSH1 0x1 PUSH1 0xA0 SHL SUB AND DUP3 PUSH1 0x1 PUSH1 0x1 PUSH1 0xA0 SHL SUB AND EQ ISZERO PUSH2 0x4E50 JUMPI POP PUSH1 0x1A PUSH2 0x352 JUMP JUMPDEST PUSH32 0x0 PUSH1 0x1 PUSH1 0x1 PUSH1 0xA0 SHL SUB AND DUP3 PUSH1 0x1 PUSH1 0x1 PUSH1 0xA0 SHL SUB AND EQ ISZERO PUSH2 0x4E92 JUMPI POP PUSH1 0x1B PUSH2 0x352 JUMP JUMPDEST PUSH32 0x0 PUSH1 0x1 PUSH1 0x1 PUSH1 0xA0 SHL SUB AND DUP3 PUSH1 0x1 PUSH1 0x1 PUSH1 0xA0 SHL SUB AND EQ ISZERO PUSH2 0x4ED4 JUMPI POP PUSH1 0x1C PUSH2 0x352 JUMP JUMPDEST PUSH32 0x0 PUSH1 0x1 PUSH1 0x1 PUSH1 0xA0 SHL SUB AND DUP3 PUSH1 0x1 PUSH1 0x1 PUSH1 0xA0 SHL SUB AND EQ ISZERO PUSH2 0x3CDE JUMPI POP PUSH1 0x1D PUSH2 0x352 JUMP JUMPDEST PUSH1 0x0 PUSH1 0x2 DUP3 PUSH1 0x80 ADD MLOAD PUSH1 0x2 DUP2 GT ISZERO PUSH2 0x4F2A JUMPI INVALID JUMPDEST EQ ISZERO PUSH2 0x4F48 JUMPI POP PUSH1 0x40 DUP1 DUP3 ADD MLOAD PUSH1 0x0 SWAP1 DUP2 MSTORE PUSH1 0x20 DUP2 SWAP1 MSTORE KECCAK256 SLOAD PUSH2 0x352 JUMP JUMPDEST PUSH1 0x1 DUP3 PUSH1 0x80 ADD MLOAD PUSH1 0x2 DUP2 GT ISZERO PUSH2 0x4F5A JUMPI INVALID JUMPDEST EQ ISZERO PUSH2 0x4F6B JUMPI POP PUSH1 0xA0 DUP2 ADD MLOAD PUSH2 0x352 JUMP JUMPDEST PUSH1 0x0 DUP3 PUSH1 0x80 ADD MLOAD PUSH1 0x2 DUP2 GT ISZERO PUSH2 0x4F7D JUMPI INVALID JUMPDEST EQ ISZERO PUSH2 0x352 JUMPI PUSH1 0x0 DUP1 PUSH1 0x0 PUSH1 0x40 MLOAD PUSH1 0x20 ADD PUSH2 0x4F97 SWAP1 PUSH2 0x5833 JUMP JUMPDEST PUSH1 0x40 MLOAD PUSH1 0x20 DUP2 DUP4 SUB SUB DUP2 MSTORE SWAP1 PUSH1 0x40 MSTORE DUP1 MLOAD SWAP1 PUSH1 0x20 ADD KECCAK256 DUP2 MSTORE PUSH1 0x20 ADD SWAP1 DUP2 MSTORE PUSH1 0x20 ADD PUSH1 0x0 KECCAK256 SLOAD SWAP1 POP PUSH1 0x0 DUP2 GT PUSH2 0x4FDE JUMPI PUSH1 0x40 MLOAD PUSH3 0x461BCD PUSH1 0xE5 SHL DUP2 MSTORE PUSH1 0x4 ADD PUSH2 0x349 SWAP1 PUSH2 0x5AA5 JUMP JUMPDEST PUSH8 0xDE0B6B3A7640000 PUSH2 0x4FF5 DUP3 DUP6 PUSH1 0xA0 ADD MLOAD PUSH2 0x5005 JUMP JUMPDEST DUP2 PUSH2 0x4FFC JUMPI INVALID JUMPDEST DIV SWAP2 POP POP PUSH2 0x352 JUMP JUMPDEST PUSH1 0x0 DUP3 PUSH2 0x5014 JUMPI POP PUSH1 0x0 PUSH2 0x3B2 JUMP JUMPDEST DUP3 DUP3 MUL DUP3 DUP5 DUP3 DUP2 PUSH2 0x5021 JUMPI INVALID JUMPDEST DIV EQ PUSH2 0x347F JUMPI PUSH1 0x40 MLOAD PUSH3 0x461BCD PUSH1 0xE5 SHL DUP2 MSTORE PUSH1 0x4 ADD PUSH2 0x349 SWAP1 PUSH2 0x594B JUMP JUMPDEST PUSH4 0xFFFFFFFF TIMESTAMP AND SWAP1 JUMP JUMPDEST PUSH1 0x0 DUP1 PUSH1 0x0 DUP1 PUSH2 0x5058 DUP7 PUSH2 0x51E9 JUMP JUMPDEST SWAP3 POP SWAP3 POP SWAP3 POP DUP1 TIMESTAMP GT PUSH2 0x507D JUMPI PUSH1 0x40 MLOAD PUSH3 0x461BCD PUSH1 0xE5 SHL DUP2 MSTORE PUSH1 0x4 ADD PUSH2 0x349 SWAP1 PUSH2 0x5A39 JUMP JUMPDEST TIMESTAMP DUP2 SWAP1 SUB PUSH2 0x5089 PUSH2 0x538B JUMP JUMPDEST PUSH1 0x40 MLOAD DUP1 PUSH1 0x20 ADD PUSH1 0x40 MSTORE DUP1 DUP4 DUP7 DUP9 SUB DUP2 PUSH2 0x509F JUMPI INVALID JUMPDEST DIV PUSH1 0x1 PUSH1 0x1 PUSH1 0xE0 SHL SUB AND DUP2 MSTORE POP SWAP1 POP PUSH1 0x0 PUSH2 0x50B9 DUP3 PUSH2 0x52FC JUMP JUMPDEST SWAP1 POP PUSH1 0x0 PUSH2 0x50C7 DUP3 DUP11 PUSH2 0x5005 JUMP JUMPDEST SWAP1 POP PUSH1 0x0 DUP11 PUSH1 0xE0 ADD MLOAD ISZERO PUSH2 0x50EA JUMPI DUP11 PUSH1 0x60 ADD MLOAD DUP3 DUP2 PUSH2 0x50E2 JUMPI INVALID JUMPDEST DIV SWAP1 POP PUSH2 0x5115 JUMP JUMPDEST PUSH8 0xDE0B6B3A7640000 DUP1 PUSH2 0x5102 DUP5 DUP15 PUSH1 0x60 ADD MLOAD PUSH2 0x5005 JUMP JUMPDEST DUP2 PUSH2 0x5109 JUMPI INVALID JUMPDEST DIV DUP2 PUSH2 0x5111 JUMPI INVALID JUMPDEST DIV SWAP1 POP JUMPDEST PUSH32 0xF63D078E0DE851897107641E96093A59E5DDC3C25E7B85A2585E3EBA9E774A7B DUP13 DUP3 DUP9 TIMESTAMP PUSH1 0x40 MLOAD PUSH2 0x514A SWAP5 SWAP4 SWAP3 SWAP2 SWAP1 PUSH2 0x591C JUMP JUMPDEST PUSH1 0x40 MLOAD DUP1 SWAP2 SUB SWAP1 LOG1 SWAP12 SWAP11 POP POP POP POP POP POP POP POP POP POP POP JUMP JUMPDEST PUSH1 0x0 DUP3 ISZERO PUSH2 0x51E0 JUMPI PUSH1 0x0 DUP4 PUSH2 0x517E DUP5 PUSH8 0xDE0B6B3A7640000 PUSH2 0x5005 JUMP JUMPDEST DUP2 PUSH2 0x5185 JUMPI INVALID JUMPDEST DIV SWAP1 POP PUSH32 0x0 DUP2 GT ISZERO DUP1 ISZERO PUSH2 0x51D8 JUMPI POP PUSH32 0x0 DUP2 LT ISZERO JUMPDEST SWAP2 POP POP PUSH2 0x3B2 JUMP JUMPDEST POP PUSH1 0x0 SWAP3 SWAP2 POP POP JUMP JUMPDEST PUSH1 0x0 DUP1 PUSH1 0x0 DUP1 DUP5 PUSH1 0x40 ADD MLOAD SWAP1 POP PUSH1 0x0 PUSH2 0x5201 DUP7 PUSH2 0x5314 JUMP JUMPDEST SWAP1 POP PUSH2 0x520B PUSH2 0x539D JUMP JUMPDEST POP PUSH1 0x0 DUP3 DUP2 MSTORE PUSH1 0x3 PUSH1 0x20 SWAP1 DUP2 MSTORE PUSH1 0x40 SWAP2 DUP3 SWAP1 KECCAK256 DUP3 MLOAD DUP1 DUP5 ADD SWAP1 SWAP4 MSTORE DUP1 SLOAD DUP1 DUP5 MSTORE PUSH1 0x1 SWAP1 SWAP2 ADD SLOAD SWAP2 DUP4 ADD SWAP2 SWAP1 SWAP2 MSTORE TIMESTAMP SUB PUSH32 0x0 DUP2 LT PUSH2 0x52D7 JUMPI DUP2 MLOAD PUSH1 0x0 DUP6 DUP2 MSTORE PUSH1 0x2 PUSH1 0x20 SWAP1 DUP2 MSTORE PUSH1 0x40 DUP1 DUP4 KECCAK256 SWAP4 DUP5 SSTORE DUP2 DUP7 ADD DUP1 MLOAD PUSH1 0x1 SWAP6 DUP7 ADD SSTORE PUSH1 0x3 SWAP1 SWAP3 MSTORE SWAP2 DUP3 SWAP1 KECCAK256 TIMESTAMP DUP1 DUP3 SSTORE SWAP4 ADD DUP7 SWAP1 SSTORE DUP11 DUP3 ADD MLOAD DUP6 MLOAD SWAP2 MLOAD SWAP3 MLOAD SWAP1 SWAP4 PUSH32 0xE37D39315E3419C0937360F1AC88F2C52ECF67E3B22B367F82047DDB4591904A SWAP4 PUSH2 0x52CE SWAP4 SWAP3 DUP10 SWAP1 PUSH2 0x5BFD JUMP JUMPDEST PUSH1 0x40 MLOAD DUP1 SWAP2 SUB SWAP1 LOG2 JUMPDEST POP POP PUSH1 0x0 SWAP2 DUP3 MSTORE PUSH1 0x2 PUSH1 0x20 MSTORE PUSH1 0x40 SWAP1 SWAP2 KECCAK256 PUSH1 0x1 DUP2 ADD SLOAD SWAP1 SLOAD SWAP2 SWAP7 SWAP1 SWAP6 POP SWAP1 SWAP4 POP SWAP2 POP POP JUMP JUMPDEST MLOAD PUSH7 0x12725DD1D243AB PUSH1 0x1 PUSH1 0x1 PUSH1 0xE0 SHL SUB SWAP1 SWAP2 AND DIV SWAP1 JUMP JUMPDEST PUSH1 0x0 DUP1 PUSH1 0x0 PUSH2 0x5326 DUP5 PUSH1 0xC0 ADD MLOAD PUSH2 0x34EC JUMP JUMPDEST POP SWAP2 POP SWAP2 POP DUP4 PUSH1 0xE0 ADD MLOAD ISZERO PUSH2 0x533E JUMPI SWAP2 POP PUSH2 0x352 SWAP1 POP JUMP JUMPDEST POP SWAP1 POP PUSH2 0x352 JUMP JUMPDEST PUSH1 0x40 DUP1 MLOAD PUSH2 0x100 DUP2 ADD DUP3 MSTORE PUSH1 0x0 DUP1 DUP3 MSTORE PUSH1 0x20 DUP3 ADD DUP2 SWAP1 MSTORE SWAP2 DUP2 ADD DUP3 SWAP1 MSTORE PUSH1 0x60 DUP2 ADD DUP3 SWAP1 MSTORE SWAP1 PUSH1 0x80 DUP3 ADD SWAP1 DUP2 MSTORE PUSH1 0x0 PUSH1 0x20 DUP3 ADD DUP2 SWAP1 MSTORE PUSH1 0x40 DUP3 ADD DUP2 SWAP1 MSTORE PUSH1 0x60 SWAP1 SWAP2 ADD MSTORE SWAP1 JUMP JUMPDEST PUSH1 0x40 DUP1 MLOAD PUSH1 0x20 DUP2 ADD SWAP1 SWAP2 MSTORE PUSH1 0x0 DUP2 MSTORE SWAP1 JUMP JUMPDEST PUSH1 0x40 MLOAD DUP1 PUSH1 0x40 ADD PUSH1 0x40 MSTORE DUP1 PUSH1 0x0 DUP2 MSTORE PUSH1 0x20 ADD PUSH1 0x0 DUP2 MSTORE POP SWAP1 JUMP JUMPDEST PUSH1 0x0 DUP1 DUP4 PUSH1 0x1F DUP5 ADD SLT PUSH2 0x53C8 JUMPI DUP2 DUP3 REVERT JUMPDEST POP DUP2 CALLDATALOAD PUSH8 0xFFFFFFFFFFFFFFFF DUP2 GT ISZERO PUSH2 0x53DF JUMPI DUP2 DUP3 REVERT JUMPDEST PUSH1 0x20 DUP4 ADD SWAP2 POP DUP4 PUSH1 0x20 DUP1 DUP4 MUL DUP6 ADD ADD GT ISZERO PUSH2 0x53F9 JUMPI PUSH1 0x0 DUP1 REVERT JUMPDEST SWAP3 POP SWAP3 SWAP1 POP JUMP JUMPDEST PUSH1 0x0 DUP3 PUSH1 0x1F DUP4 ADD SLT PUSH2 0x5410 JUMPI DUP1 DUP2 REVERT JUMPDEST DUP2 CALLDATALOAD PUSH2 0x5423 PUSH2 0x541E DUP3 PUSH2 0x5C9A JUMP JUMPDEST PUSH2 0x5C73 JUMP JUMPDEST SWAP2 POP DUP1 DUP3 MSTORE DUP4 PUSH1 0x20 DUP3 DUP6 ADD ADD GT ISZERO PUSH2 0x543A JUMPI PUSH1 0x0 DUP1 REVERT JUMPDEST DUP1 PUSH1 0x20 DUP5 ADD PUSH1 0x20 DUP5 ADD CALLDATACOPY PUSH1 0x0 SWAP1 DUP3 ADD PUSH1 0x20 ADD MSTORE SWAP3 SWAP2 POP POP JUMP JUMPDEST PUSH1 0x0 DUP3 PUSH1 0x1F DUP4 ADD SLT PUSH2 0x5463 JUMPI DUP1 DUP2 REVERT JUMPDEST DUP2 MLOAD PUSH2 0x5471 PUSH2 0x541E DUP3 PUSH2 0x5C9A JUMP JUMPDEST SWAP2 POP DUP1 DUP3 MSTORE DUP4 PUSH1 0x20 DUP3 DUP6 ADD ADD GT ISZERO PUSH2 0x5488 JUMPI PUSH1 0x0 DUP1 REVERT JUMPDEST PUSH2 0x5499 DUP2 PUSH1 0x20 DUP5 ADD PUSH1 0x20 DUP7 ADD PUSH2 0x5CBE JUMP JUMPDEST POP SWAP3 SWAP2 POP POP JUMP JUMPDEST PUSH1 0x0 PUSH1 0x20 DUP3 DUP5 SUB SLT ISZERO PUSH2 0x54B1 JUMPI DUP1 DUP2 REVERT JUMPDEST DUP2 CALLDATALOAD PUSH2 0x347F DUP2 PUSH2 0x5CEE JUMP JUMPDEST PUSH1 0x0 PUSH1 0x20 DUP3 DUP5 SUB SLT ISZERO PUSH2 0x54CD JUMPI DUP1 DUP2 REVERT JUMPDEST DUP2 MLOAD PUSH2 0x347F DUP2 PUSH2 0x5CEE JUMP JUMPDEST PUSH1 0x0 DUP1 PUSH1 0x0 DUP1 PUSH1 0x0 DUP1 PUSH1 0x60 DUP8 DUP10 SUB SLT ISZERO PUSH2 0x54F0 JUMPI DUP2 DUP3 REVERT JUMPDEST DUP7 CALLDATALOAD PUSH8 0xFFFFFFFFFFFFFFFF DUP1 DUP3 GT ISZERO PUSH2 0x5507 JUMPI DUP4 DUP5 REVERT JUMPDEST PUSH2 0x5513 DUP11 DUP4 DUP12 ADD PUSH2 0x53B7 JUMP JUMPDEST SWAP1 SWAP9 POP SWAP7 POP PUSH1 0x20 DUP10 ADD CALLDATALOAD SWAP2 POP DUP1 DUP3 GT ISZERO PUSH2 0x552B JUMPI DUP4 DUP5 REVERT JUMPDEST PUSH2 0x5537 DUP11 DUP4 DUP12 ADD PUSH2 0x53B7 JUMP JUMPDEST SWAP1 SWAP7 POP SWAP5 POP PUSH1 0x40 DUP10 ADD CALLDATALOAD SWAP2 POP DUP1 DUP3 GT ISZERO PUSH2 0x554F JUMPI DUP4 DUP5 REVERT JUMPDEST POP PUSH2 0x555C DUP10 DUP3 DUP11 ADD PUSH2 0x53B7 JUMP JUMPDEST SWAP8 SWAP11 SWAP7 SWAP10 POP SWAP5 SWAP8 POP SWAP3 SWAP6 SWAP4 SWAP5 SWAP3 POP POP POP JUMP JUMPDEST PUSH1 0x0 PUSH1 0x20 DUP3 DUP5 SUB SLT ISZERO PUSH2 0x557F JUMPI DUP1 DUP2 REVERT JUMPDEST POP CALLDATALOAD SWAP2 SWAP1 POP JUMP JUMPDEST PUSH1 0x0 DUP1 PUSH1 0x0 PUSH1 0x60 DUP5 DUP7 SUB SLT ISZERO PUSH2 0x559A JUMPI DUP3 DUP4 REVERT JUMPDEST DUP4 MLOAD SWAP3 POP PUSH1 0x20 DUP5 ADD MLOAD SWAP2 POP PUSH1 0x40 DUP5 ADD MLOAD PUSH1 0xFF DUP2 AND DUP2 EQ PUSH2 0x55B8 JUMPI DUP2 DUP3 REVERT JUMPDEST DUP1 SWAP2 POP POP SWAP3 POP SWAP3 POP SWAP3 JUMP JUMPDEST PUSH1 0x0 DUP1 PUSH1 0x40 DUP4 DUP6 SUB SLT ISZERO PUSH2 0x55D5 JUMPI DUP2 DUP3 REVERT JUMPDEST DUP3 CALLDATALOAD PUSH8 0xFFFFFFFFFFFFFFFF DUP1 DUP3 GT ISZERO PUSH2 0x55EC JUMPI DUP4 DUP5 REVERT JUMPDEST PUSH2 0x55F8 DUP7 DUP4 DUP8 ADD PUSH2 0x5400 JUMP JUMPDEST SWAP4 POP PUSH1 0x20 DUP6 ADD CALLDATALOAD SWAP2 POP DUP1 DUP3 GT ISZERO PUSH2 0x560D JUMPI DUP3 DUP4 REVERT JUMPDEST POP PUSH2 0x561A DUP6 DUP3 DUP7 ADD PUSH2 0x5400 JUMP JUMPDEST SWAP2 POP POP SWAP3 POP SWAP3 SWAP1 POP JUMP JUMPDEST PUSH1 0x0 PUSH1 0x20 DUP3 DUP5 SUB SLT ISZERO PUSH2 0x5635 JUMPI DUP1 DUP2 REVERT JUMPDEST DUP2 CALLDATALOAD PUSH8 0xFFFFFFFFFFFFFFFF DUP2 GT ISZERO PUSH2 0x564B JUMPI DUP2 DUP3 REVERT JUMPDEST PUSH2 0x5657 DUP5 DUP3 DUP6 ADD PUSH2 0x5400 JUMP JUMPDEST SWAP5 SWAP4 POP POP POP POP JUMP JUMPDEST PUSH1 0x0 PUSH1 0x20 DUP3 DUP5 SUB SLT ISZERO PUSH2 0x5670 JUMPI DUP1 DUP2 REVERT JUMPDEST DUP2 MLOAD PUSH8 0xFFFFFFFFFFFFFFFF DUP2 GT ISZERO PUSH2 0x5686 JUMPI DUP2 DUP3 REVERT JUMPDEST PUSH2 0x5657 DUP5 DUP3 DUP6 ADD PUSH2 0x5453 JUMP JUMPDEST PUSH1 0x0 DUP1 PUSH1 0x40 DUP4 DUP6 SUB SLT ISZERO PUSH2 0x56A4 JUMPI DUP2 DUP3 REVERT JUMPDEST DUP3 MLOAD PUSH8 0xFFFFFFFFFFFFFFFF DUP2 GT ISZERO PUSH2 0x56BA JUMPI DUP3 DUP4 REVERT JUMPDEST PUSH2 0x56C6 DUP6 DUP3 DUP7 ADD PUSH2 0x5453 JUMP JUMPDEST SWAP3 POP POP PUSH1 0x20 DUP4 ADD MLOAD PUSH2 0x56D7 DUP2 PUSH2 0x5CEE JUMP JUMPDEST DUP1 SWAP2 POP POP SWAP3 POP SWAP3 SWAP1 POP JUMP JUMPDEST PUSH1 0x0 DUP1 PUSH1 0x0 PUSH1 0x60 DUP5 DUP7 SUB SLT ISZERO PUSH2 0x56F6 JUMPI DUP3 DUP4 REVERT JUMPDEST DUP4 MLOAD PUSH2 0x5701 DUP2 PUSH2 0x5D06 JUMP JUMPDEST PUSH1 0x20 DUP6 ADD MLOAD SWAP1 SWAP4 POP PUSH2 0x5712 DUP2 PUSH2 0x5D06 JUMP JUMPDEST PUSH1 0x40 DUP6 ADD MLOAD SWAP1 SWAP3 POP PUSH4 0xFFFFFFFF DUP2 AND DUP2 EQ PUSH2 0x55B8 JUMPI DUP2 DUP3 REVERT JUMPDEST PUSH1 0x0 PUSH1 0x20 DUP3 DUP5 SUB SLT ISZERO PUSH2 0x573C JUMPI DUP1 DUP2 REVERT JUMPDEST POP MLOAD SWAP2 SWAP1 POP JUMP JUMPDEST PUSH1 0x0 PUSH1 0x20 DUP3 DUP5 SUB SLT ISZERO PUSH2 0x5754 JUMPI DUP1 DUP2 REVERT JUMPDEST DUP2 MLOAD PUSH8 0xFFFFFFFFFFFFFFFF DUP2 AND DUP2 EQ PUSH2 0x347F JUMPI DUP2 DUP3 REVERT JUMPDEST PUSH1 0x1 PUSH1 0x1 PUSH1 0xA0 SHL SUB AND SWAP1 MSTORE JUMP JUMPDEST ISZERO ISZERO SWAP1 MSTORE JUMP JUMPDEST PUSH1 0x0 DUP3 DUP5 MSTORE DUP3 DUP3 PUSH1 0x20 DUP7 ADD CALLDATACOPY DUP1 PUSH1 0x20 DUP5 DUP7 ADD ADD MSTORE PUSH1 0x20 PUSH1 0x1F NOT PUSH1 0x1F DUP6 ADD AND DUP6 ADD ADD SWAP1 POP SWAP4 SWAP3 POP POP POP JUMP JUMPDEST PUSH1 0x0 DUP2 MLOAD DUP1 DUP5 MSTORE PUSH2 0x57C0 DUP2 PUSH1 0x20 DUP7 ADD PUSH1 0x20 DUP7 ADD PUSH2 0x5CBE JUMP JUMPDEST PUSH1 0x1F ADD PUSH1 0x1F NOT AND SWAP3 SWAP1 SWAP3 ADD PUSH1 0x20 ADD SWAP3 SWAP2 POP POP JUMP JUMPDEST PUSH1 0x0 DUP3 MLOAD PUSH2 0x57E6 DUP2 DUP5 PUSH1 0x20 DUP8 ADD PUSH2 0x5CBE JUMP JUMPDEST SWAP2 SWAP1 SWAP2 ADD SWAP3 SWAP2 POP POP JUMP JUMPDEST PUSH32 0x19457468657265756D205369676E6564204D6573736167653A0A333200000000 DUP2 MSTORE PUSH1 0x1C DUP2 ADD SWAP2 SWAP1 SWAP2 MSTORE PUSH1 0x3C ADD SWAP1 JUMP JUMPDEST PUSH6 0x726F74617465 PUSH1 0xD0 SHL DUP2 MSTORE PUSH1 0x6 ADD SWAP1 JUMP JUMPDEST PUSH3 0x8AA89 PUSH1 0xEB SHL DUP2 MSTORE PUSH1 0x3 ADD SWAP1 JUMP JUMPDEST PUSH1 0x1 PUSH1 0x1 PUSH1 0xA0 SHL SUB SWAP2 SWAP1 SWAP2 AND DUP2 MSTORE PUSH1 0x20 ADD SWAP1 JUMP JUMPDEST PUSH1 0x1 PUSH1 0x1 PUSH1 0xA0 SHL SUB DUP4 AND DUP2 MSTORE PUSH1 0x40 PUSH1 0x20 DUP3 ADD DUP2 SWAP1 MSTORE PUSH1 0x0 SWAP1 PUSH2 0x5657 SWAP1 DUP4 ADD DUP5 PUSH2 0x57A8 JUMP JUMPDEST SWAP1 ISZERO ISZERO DUP2 MSTORE PUSH1 0x20 ADD SWAP1 JUMP JUMPDEST SWAP4 DUP5 MSTORE PUSH1 0xFF SWAP3 SWAP1 SWAP3 AND PUSH1 0x20 DUP5 ADD MSTORE PUSH1 0x40 DUP4 ADD MSTORE PUSH1 0x60 DUP3 ADD MSTORE PUSH1 0x80 ADD SWAP1 JUMP JUMPDEST PUSH1 0x0 PUSH1 0x40 DUP3 MSTORE PUSH2 0x58B7 PUSH1 0x40 DUP4 ADD DUP7 DUP9 PUSH2 0x577E JUMP JUMPDEST DUP3 DUP2 SUB PUSH1 0x20 DUP5 ADD MSTORE PUSH2 0x58CA DUP2 DUP6 DUP8 PUSH2 0x577E JUMP JUMPDEST SWAP8 SWAP7 POP POP POP POP POP POP POP JUMP JUMPDEST PUSH1 0x0 PUSH1 0x40 DUP3 MSTORE PUSH2 0x58E8 PUSH1 0x40 DUP4 ADD DUP6 PUSH2 0x57A8 JUMP JUMPDEST SWAP1 POP DUP3 PUSH1 0x20 DUP4 ADD MSTORE SWAP4 SWAP3 POP POP POP JUMP JUMPDEST PUSH1 0x0 PUSH1 0x60 DUP3 MSTORE PUSH2 0x590A PUSH1 0x60 DUP4 ADD DUP7 PUSH2 0x57A8 JUMP JUMPDEST PUSH1 0x20 DUP4 ADD SWAP5 SWAP1 SWAP5 MSTORE POP PUSH1 0x40 ADD MSTORE SWAP2 SWAP1 POP JUMP JUMPDEST PUSH1 0x0 PUSH1 0x80 DUP3 MSTORE PUSH2 0x592F PUSH1 0x80 DUP4 ADD DUP8 PUSH2 0x57A8 JUMP JUMPDEST PUSH1 0x20 DUP4 ADD SWAP6 SWAP1 SWAP6 MSTORE POP PUSH1 0x40 DUP2 ADD SWAP3 SWAP1 SWAP3 MSTORE PUSH1 0x60 SWAP1 SWAP2 ADD MSTORE SWAP2 SWAP1 POP JUMP JUMPDEST PUSH1 0x20 DUP1 DUP3 MSTORE PUSH1 0x17 SWAP1 DUP3 ADD MSTORE PUSH32 0x6D756C7469706C69636174696F6E206F766572666C6F77000000000000000000 PUSH1 0x40 DUP3 ADD MSTORE PUSH1 0x60 ADD SWAP1 JUMP JUMPDEST PUSH1 0x20 DUP1 DUP3 MSTORE PUSH1 0x16 SWAP1 DUP3 ADD MSTORE PUSH22 0x1D1BDAD95B8818DBDB999A59C81B9BDD08199BDD5B99 PUSH1 0x52 SHL PUSH1 0x40 DUP3 ADD MSTORE PUSH1 0x60 ADD SWAP1 JUMP JUMPDEST PUSH1 0x20 DUP1 DUP3 MSTORE PUSH1 0x30 SWAP1 DUP3 ADD MSTORE PUSH32 0x696E76616C69646174696F6E206D657373616765206D75737420636F6D652066 PUSH1 0x40 DUP3 ADD MSTORE PUSH16 0x3937B6903A3432903932B837B93A32B9 PUSH1 0x81 SHL PUSH1 0x60 DUP3 ADD MSTORE PUSH1 0x80 ADD SWAP1 JUMP JUMPDEST PUSH1 0x20 DUP1 DUP3 MSTORE PUSH1 0x1F SWAP1 DUP3 ADD MSTORE PUSH32 0x6F6E6C79207265706F72746572207072696365732067657420706F7374656400 PUSH1 0x40 DUP3 ADD MSTORE PUSH1 0x60 ADD SWAP1 JUMP JUMPDEST PUSH1 0x20 DUP1 DUP3 MSTORE PUSH1 0x1A SWAP1 DUP3 ADD MSTORE PUSH32 0x6E6F77206D75737420636F6D65206166746572206265666F7265000000000000 PUSH1 0x40 DUP3 ADD MSTORE PUSH1 0x60 ADD SWAP1 JUMP JUMPDEST PUSH1 0x20 DUP1 DUP3 MSTORE DUP2 DUP2 ADD MSTORE PUSH32 0x696E76616C6964206D657373616765206D7573742062652027726F7461746527 PUSH1 0x40 DUP3 ADD MSTORE PUSH1 0x60 ADD SWAP1 JUMP JUMPDEST PUSH1 0x20 DUP1 DUP3 MSTORE PUSH1 0x2C SWAP1 DUP3 ADD MSTORE PUSH32 0x455448207072696365206E6F74207365742C2063616E6E6F7420636F6E766572 PUSH1 0x40 DUP3 ADD MSTORE PUSH12 0x7420746F20646F6C6C617273 PUSH1 0xA0 SHL PUSH1 0x60 DUP3 ADD MSTORE PUSH1 0x80 ADD SWAP1 JUMP JUMPDEST PUSH1 0x20 DUP1 DUP3 MSTORE PUSH1 0x23 SWAP1 DUP3 ADD MSTORE PUSH32 0x6D6573736167657320616E64207369676E617475726573206D75737420626520 PUSH1 0x40 DUP3 ADD MSTORE PUSH3 0x313A31 PUSH1 0xE8 SHL PUSH1 0x60 DUP3 ADD MSTORE PUSH1 0x80 ADD SWAP1 JUMP JUMPDEST PUSH1 0x20 DUP1 DUP3 MSTORE PUSH1 0x17 SWAP1 DUP3 ADD MSTORE PUSH32 0x4669786564506F696E743A204449565F42595F5A45524F000000000000000000 PUSH1 0x40 DUP3 ADD MSTORE PUSH1 0x60 ADD SWAP1 JUMP JUMPDEST DUP2 MLOAD PUSH1 0x1 PUSH1 0x1 PUSH1 0xA0 SHL SUB SWAP1 DUP2 AND DUP3 MSTORE PUSH1 0x20 DUP1 DUP5 ADD MLOAD SWAP1 SWAP2 AND SWAP1 DUP3 ADD MSTORE PUSH1 0x40 DUP1 DUP4 ADD MLOAD SWAP1 DUP3 ADD MSTORE PUSH1 0x60 DUP1 DUP4 ADD MLOAD SWAP1 DUP3 ADD MSTORE PUSH1 0x80 DUP3 ADD MLOAD PUSH2 0x100 DUP3 ADD SWAP1 PUSH1 0x3 DUP2 LT PUSH2 0x5BB0 JUMPI INVALID JUMPDEST DUP1 PUSH1 0x80 DUP5 ADD MSTORE POP PUSH1 0xA0 DUP4 ADD MLOAD PUSH1 0xA0 DUP4 ADD MSTORE PUSH1 0xC0 DUP4 ADD MLOAD PUSH2 0x5BD3 PUSH1 0xC0 DUP5 ADD DUP3 PUSH2 0x576B JUMP JUMPDEST POP PUSH1 0xE0 DUP4 ADD MLOAD PUSH2 0x5499 PUSH1 0xE0 DUP5 ADD DUP3 PUSH2 0x5778 JUMP JUMPDEST SWAP1 DUP2 MSTORE PUSH1 0x20 ADD SWAP1 JUMP JUMPDEST SWAP2 DUP3 MSTORE PUSH1 0x20 DUP3 ADD MSTORE PUSH1 0x40 ADD SWAP1 JUMP JUMPDEST SWAP4 DUP5 MSTORE PUSH1 0x20 DUP5 ADD SWAP3 SWAP1 SWAP3 MSTORE PUSH1 0x40 DUP4 ADD MSTORE PUSH1 0x60 DUP3 ADD MSTORE PUSH1 0x80 ADD SWAP1 JUMP JUMPDEST PUSH1 0x0 DUP1 DUP4 CALLDATALOAD PUSH1 0x1E NOT DUP5 CALLDATASIZE SUB ADD DUP2 SLT PUSH2 0x5C2E JUMPI DUP3 DUP4 REVERT JUMPDEST DUP4 ADD DUP1 CALLDATALOAD SWAP2 POP PUSH8 0xFFFFFFFFFFFFFFFF DUP3 GT ISZERO PUSH2 0x5C48 JUMPI DUP3 DUP4 REVERT JUMPDEST PUSH1 0x20 ADD SWAP2 POP CALLDATASIZE DUP2 SWAP1 SUB DUP3 SGT ISZERO PUSH2 0x53F9 JUMPI PUSH1 0x0 DUP1 REVERT JUMPDEST PUSH1 0x0 DUP1 DUP4 CALLDATALOAD PUSH1 0x1E NOT DUP5 CALLDATASIZE SUB ADD DUP2 SLT PUSH2 0x5C2E JUMPI DUP2 DUP3 REVERT JUMPDEST PUSH1 0x40 MLOAD DUP2 DUP2 ADD PUSH8 0xFFFFFFFFFFFFFFFF DUP2 GT DUP3 DUP3 LT OR ISZERO PUSH2 0x5C92 JUMPI PUSH1 0x0 DUP1 REVERT JUMPDEST PUSH1 0x40 MSTORE SWAP2 SWAP1 POP JUMP JUMPDEST PUSH1 0x0 PUSH8 0xFFFFFFFFFFFFFFFF DUP3 GT ISZERO PUSH2 0x5CB0 JUMPI DUP1 DUP2 REVERT JUMPDEST POP PUSH1 0x1F ADD PUSH1 0x1F NOT AND PUSH1 0x20 ADD SWAP1 JUMP JUMPDEST PUSH1 0x0 JUMPDEST DUP4 DUP2 LT ISZERO PUSH2 0x5CD9 JUMPI DUP2 DUP2 ADD MLOAD DUP4 DUP3 ADD MSTORE PUSH1 0x20 ADD PUSH2 0x5CC1 JUMP JUMPDEST DUP4 DUP2 GT ISZERO PUSH2 0x5CE8 JUMPI PUSH1 0x0 DUP5 DUP5 ADD MSTORE JUMPDEST POP POP POP POP JUMP JUMPDEST PUSH1 0x1 PUSH1 0x1 PUSH1 0xA0 SHL SUB DUP2 AND DUP2 EQ PUSH2 0x5D03 JUMPI PUSH1 0x0 DUP1 REVERT JUMPDEST POP JUMP JUMPDEST PUSH1 0x1 PUSH1 0x1 PUSH1 0x70 SHL SUB DUP2 AND DUP2 EQ PUSH2 0x5D03 JUMPI PUSH1 0x0 DUP1 REVERT INVALID LOG2 PUSH5 0x6970667358 0x22 SLT KECCAK256 0xE6 PUSH7 0x9CFED1C3FC62A GASLIMIT MULMOD SWAP13 0xB6 0xBD EXTCODECOPY 0xB4 0xB9 SGT 0xF 0xE 0x5C EXTCODESIZE SWAP12 0x5D 0xD8 EQ DUP14 0xB4 ADDRESS JUMP 0x28 0xAF PUSH5 0x736F6C6343 STOP MOD 0xC STOP CALLER "
		},
		"gasEstimates": {
			"creation": {
				"codeDepositCost": "4777800",
				"executionCost": "infinite",
				"totalCost": "infinite"
			},
			"external": {
				"anchorPeriod()": "infinite",
				"ethBaseUnit()": "317",
				"expScale()": "339",
				"getTokenConfig(uint256)": "infinite",
				"getTokenConfigByDToken(address)": "infinite",
				"getTokenConfigBySymbol(string)": "infinite",
				"getTokenConfigBySymbolHash(bytes32)": "infinite",
				"getTokenConfigByUnderlying(address)": "infinite",
				"getUnderlyingPrice(address)": "infinite",
				"invalidateReporter(bytes,bytes)": "infinite",
				"lowerBoundAnchorRatio()": "infinite",
				"maxTokens()": "361",
				"newObservations(bytes32)": "2048",
				"numTokens()": "infinite",
				"oldObservations(bytes32)": "2116",
				"postPrices(bytes[],bytes[],string[])": "infinite",
				"price(string)": "infinite",
				"priceData()": "infinite",
				"prices(bytes32)": "1241",
				"reporter()": "infinite",
				"reporterInvalidated()": "1129",
				"source(bytes,bytes)": "infinite",
				"upperBoundAnchorRatio()": "infinite"
			},
			"internal": {
				"currentCumulativePrice(struct UniswapConfig.TokenConfig memory)": "infinite",
				"fetchAnchorPrice(string memory,struct UniswapConfig.TokenConfig memory,uint256)": "infinite",
				"fetchEthPrice()": "infinite",
				"isWithinAnchor(uint256,uint256)": "infinite",
				"mul(uint256,uint256)": "infinite",
				"pokeWindowValues(struct UniswapConfig.TokenConfig memory)": "infinite",
				"postPriceInternal(string memory,uint256)": "infinite",
				"priceInternal(struct UniswapConfig.TokenConfig memory)": "infinite"
			}
		},
		"methodIdentifiers": {
			"anchorPeriod()": "e9206d78",
			"ethBaseUnit()": "d1b353b4",
			"expScale()": "69aa3ac6",
			"getTokenConfig(uint256)": "8a003888",
			"getTokenConfigByDToken(address)": "eea85ecb",
			"getTokenConfigBySymbol(string)": "276c2cba",
			"getTokenConfigBySymbolHash(bytes32)": "1a125204",
			"getTokenConfigByUnderlying(address)": "4da21942",
			"getUnderlyingPrice(address)": "fc57d4df",
			"invalidateReporter(bytes,bytes)": "8aba91b4",
			"lowerBoundAnchorRatio()": "92b84357",
			"maxTokens()": "e8315742",
			"newObservations(bytes32)": "eaa1c2ca",
			"numTokens()": "8e499bcf",
			"oldObservations(bytes32)": "37c0e12d",
			"postPrices(bytes[],bytes[],string[])": "ecc1e984",
			"price(string)": "fe2c6198",
			"priceData()": "e61a5fe4",
			"prices(bytes32)": "60846bc6",
			"reporter()": "010ec441",
			"reporterInvalidated()": "651ed788",
			"source(bytes,bytes)": "482a6193",
			"upperBoundAnchorRatio()": "24105209"
		}
	},
	"abi": [
		{
			"inputs": [
				{
					"internalType": "contract OpenOraclePriceData",
					"name": "priceData_",
					"type": "address"
				},
				{
					"internalType": "address",
					"name": "reporter_",
					"type": "address"
				},
				{
					"internalType": "uint256",
					"name": "anchorToleranceMantissa_",
					"type": "uint256"
				},
				{
					"internalType": "uint256",
					"name": "anchorPeriod_",
					"type": "uint256"
				},
				{
					"components": [
						{
							"internalType": "address",
							"name": "dToken",
							"type": "address"
						},
						{
							"internalType": "address",
							"name": "underlying",
							"type": "address"
						},
						{
							"internalType": "bytes32",
							"name": "symbolHash",
							"type": "bytes32"
						},
						{
							"internalType": "uint256",
							"name": "baseUnit",
							"type": "uint256"
						},
						{
							"internalType": "enum UniswapConfig.PriceSource",
							"name": "priceSource",
							"type": "uint8"
						},
						{
							"internalType": "uint256",
							"name": "fixedPrice",
							"type": "uint256"
						},
						{
							"internalType": "address",
							"name": "uniswapMarket",
							"type": "address"
						},
						{
							"internalType": "bool",
							"name": "isUniswapReversed",
							"type": "bool"
						}
					],
					"internalType": "struct UniswapConfig.TokenConfig[]",
					"name": "configs",
					"type": "tuple[]"
				}
			],
			"stateMutability": "nonpayable",
			"type": "constructor"
		},
		{
			"anonymous": false,
			"inputs": [
				{
					"indexed": false,
					"internalType": "string",
					"name": "symbol",
					"type": "string"
				},
				{
					"indexed": false,
					"internalType": "uint256",
					"name": "anchorPrice",
					"type": "uint256"
				},
				{
					"indexed": false,
					"internalType": "uint256",
					"name": "oldTimestamp",
					"type": "uint256"
				},
				{
					"indexed": false,
					"internalType": "uint256",
					"name": "newTimestamp",
					"type": "uint256"
				}
			],
			"name": "AnchorPriceUpdated",
			"type": "event"
		},
		{
			"anonymous": false,
			"inputs": [
				{
					"indexed": false,
					"internalType": "string",
					"name": "symbol",
					"type": "string"
				},
				{
					"indexed": false,
					"internalType": "uint256",
					"name": "reporter",
					"type": "uint256"
				},
				{
					"indexed": false,
					"internalType": "uint256",
					"name": "anchor",
					"type": "uint256"
				}
			],
			"name": "PriceGuarded",
			"type": "event"
		},
		{
			"anonymous": false,
			"inputs": [
				{
					"indexed": false,
					"internalType": "string",
					"name": "symbol",
					"type": "string"
				},
				{
					"indexed": false,
					"internalType": "uint256",
					"name": "price",
					"type": "uint256"
				}
			],
			"name": "PriceUpdated",
			"type": "event"
		},
		{
			"anonymous": false,
			"inputs": [
				{
					"indexed": false,
					"internalType": "address",
					"name": "reporter",
					"type": "address"
				}
			],
			"name": "ReporterInvalidated",
			"type": "event"
		},
		{
			"anonymous": false,
			"inputs": [
				{
					"indexed": true,
					"internalType": "bytes32",
					"name": "symbolHash",
					"type": "bytes32"
				},
				{
					"indexed": false,
					"internalType": "uint256",
					"name": "oldTimestamp",
					"type": "uint256"
				},
				{
					"indexed": false,
					"internalType": "uint256",
					"name": "newTimestamp",
					"type": "uint256"
				},
				{
					"indexed": false,
					"internalType": "uint256",
					"name": "oldPrice",
					"type": "uint256"
				},
				{
					"indexed": false,
					"internalType": "uint256",
					"name": "newPrice",
					"type": "uint256"
				}
			],
			"name": "UniswapWindowUpdated",
			"type": "event"
		},
		{
			"inputs": [],
			"name": "anchorPeriod",
			"outputs": [
				{
					"internalType": "uint256",
					"name": "",
					"type": "uint256"
				}
			],
			"stateMutability": "view",
			"type": "function"
		},
		{
			"inputs": [],
			"name": "ethBaseUnit",
			"outputs": [
				{
					"internalType": "uint256",
					"name": "",
					"type": "uint256"
				}
			],
			"stateMutability": "view",
			"type": "function"
		},
		{
			"inputs": [],
			"name": "expScale",
			"outputs": [
				{
					"internalType": "uint256",
					"name": "",
					"type": "uint256"
				}
			],
			"stateMutability": "view",
			"type": "function"
		},
		{
			"inputs": [
				{
					"internalType": "uint256",
					"name": "i",
					"type": "uint256"
				}
			],
			"name": "getTokenConfig",
			"outputs": [
				{
					"components": [
						{
							"internalType": "address",
							"name": "dToken",
							"type": "address"
						},
						{
							"internalType": "address",
							"name": "underlying",
							"type": "address"
						},
						{
							"internalType": "bytes32",
							"name": "symbolHash",
							"type": "bytes32"
						},
						{
							"internalType": "uint256",
							"name": "baseUnit",
							"type": "uint256"
						},
						{
							"internalType": "enum UniswapConfig.PriceSource",
							"name": "priceSource",
							"type": "uint8"
						},
						{
							"internalType": "uint256",
							"name": "fixedPrice",
							"type": "uint256"
						},
						{
							"internalType": "address",
							"name": "uniswapMarket",
							"type": "address"
						},
						{
							"internalType": "bool",
							"name": "isUniswapReversed",
							"type": "bool"
						}
					],
					"internalType": "struct UniswapConfig.TokenConfig",
					"name": "",
					"type": "tuple"
				}
			],
			"stateMutability": "view",
			"type": "function"
		},
		{
			"inputs": [
				{
					"internalType": "address",
					"name": "dToken",
					"type": "address"
				}
			],
			"name": "getTokenConfigByDToken",
			"outputs": [
				{
					"components": [
						{
							"internalType": "address",
							"name": "dToken",
							"type": "address"
						},
						{
							"internalType": "address",
							"name": "underlying",
							"type": "address"
						},
						{
							"internalType": "bytes32",
							"name": "symbolHash",
							"type": "bytes32"
						},
						{
							"internalType": "uint256",
							"name": "baseUnit",
							"type": "uint256"
						},
						{
							"internalType": "enum UniswapConfig.PriceSource",
							"name": "priceSource",
							"type": "uint8"
						},
						{
							"internalType": "uint256",
							"name": "fixedPrice",
							"type": "uint256"
						},
						{
							"internalType": "address",
							"name": "uniswapMarket",
							"type": "address"
						},
						{
							"internalType": "bool",
							"name": "isUniswapReversed",
							"type": "bool"
						}
					],
					"internalType": "struct UniswapConfig.TokenConfig",
					"name": "",
					"type": "tuple"
				}
			],
			"stateMutability": "view",
			"type": "function"
		},
		{
			"inputs": [
				{
					"internalType": "string",
					"name": "symbol",
					"type": "string"
				}
			],
			"name": "getTokenConfigBySymbol",
			"outputs": [
				{
					"components": [
						{
							"internalType": "address",
							"name": "dToken",
							"type": "address"
						},
						{
							"internalType": "address",
							"name": "underlying",
							"type": "address"
						},
						{
							"internalType": "bytes32",
							"name": "symbolHash",
							"type": "bytes32"
						},
						{
							"internalType": "uint256",
							"name": "baseUnit",
							"type": "uint256"
						},
						{
							"internalType": "enum UniswapConfig.PriceSource",
							"name": "priceSource",
							"type": "uint8"
						},
						{
							"internalType": "uint256",
							"name": "fixedPrice",
							"type": "uint256"
						},
						{
							"internalType": "address",
							"name": "uniswapMarket",
							"type": "address"
						},
						{
							"internalType": "bool",
							"name": "isUniswapReversed",
							"type": "bool"
						}
					],
					"internalType": "struct UniswapConfig.TokenConfig",
					"name": "",
					"type": "tuple"
				}
			],
			"stateMutability": "view",
			"type": "function"
		},
		{
			"inputs": [
				{
					"internalType": "bytes32",
					"name": "symbolHash",
					"type": "bytes32"
				}
			],
			"name": "getTokenConfigBySymbolHash",
			"outputs": [
				{
					"components": [
						{
							"internalType": "address",
							"name": "dToken",
							"type": "address"
						},
						{
							"internalType": "address",
							"name": "underlying",
							"type": "address"
						},
						{
							"internalType": "bytes32",
							"name": "symbolHash",
							"type": "bytes32"
						},
						{
							"internalType": "uint256",
							"name": "baseUnit",
							"type": "uint256"
						},
						{
							"internalType": "enum UniswapConfig.PriceSource",
							"name": "priceSource",
							"type": "uint8"
						},
						{
							"internalType": "uint256",
							"name": "fixedPrice",
							"type": "uint256"
						},
						{
							"internalType": "address",
							"name": "uniswapMarket",
							"type": "address"
						},
						{
							"internalType": "bool",
							"name": "isUniswapReversed",
							"type": "bool"
						}
					],
					"internalType": "struct UniswapConfig.TokenConfig",
					"name": "",
					"type": "tuple"
				}
			],
			"stateMutability": "view",
			"type": "function"
		},
		{
			"inputs": [
				{
					"internalType": "address",
					"name": "underlying",
					"type": "address"
				}
			],
			"name": "getTokenConfigByUnderlying",
			"outputs": [
				{
					"components": [
						{
							"internalType": "address",
							"name": "dToken",
							"type": "address"
						},
						{
							"internalType": "address",
							"name": "underlying",
							"type": "address"
						},
						{
							"internalType": "bytes32",
							"name": "symbolHash",
							"type": "bytes32"
						},
						{
							"internalType": "uint256",
							"name": "baseUnit",
							"type": "uint256"
						},
						{
							"internalType": "enum UniswapConfig.PriceSource",
							"name": "priceSource",
							"type": "uint8"
						},
						{
							"internalType": "uint256",
							"name": "fixedPrice",
							"type": "uint256"
						},
						{
							"internalType": "address",
							"name": "uniswapMarket",
							"type": "address"
						},
						{
							"internalType": "bool",
							"name": "isUniswapReversed",
							"type": "bool"
						}
					],
					"internalType": "struct UniswapConfig.TokenConfig",
					"name": "",
					"type": "tuple"
				}
			],
			"stateMutability": "view",
			"type": "function"
		},
		{
			"inputs": [
				{
					"internalType": "address",
					"name": "dToken",
					"type": "address"
				}
			],
			"name": "getUnderlyingPrice",
			"outputs": [
				{
					"internalType": "uint256",
					"name": "",
					"type": "uint256"
				}
			],
			"stateMutability": "view",
			"type": "function"
		},
		{
			"inputs": [
				{
					"internalType": "bytes",
					"name": "message",
					"type": "bytes"
				},
				{
					"internalType": "bytes",
					"name": "signature",
					"type": "bytes"
				}
			],
			"name": "invalidateReporter",
			"outputs": [],
			"stateMutability": "nonpayable",
			"type": "function"
		},
		{
			"inputs": [],
			"name": "lowerBoundAnchorRatio",
			"outputs": [
				{
					"internalType": "uint256",
					"name": "",
					"type": "uint256"
				}
			],
			"stateMutability": "view",
			"type": "function"
		},
		{
			"inputs": [],
			"name": "maxTokens",
			"outputs": [
				{
					"internalType": "uint256",
					"name": "",
					"type": "uint256"
				}
			],
			"stateMutability": "view",
			"type": "function"
		},
		{
			"inputs": [
				{
					"internalType": "bytes32",
					"name": "",
					"type": "bytes32"
				}
			],
			"name": "newObservations",
			"outputs": [
				{
					"internalType": "uint256",
					"name": "timestamp",
					"type": "uint256"
				},
				{
					"internalType": "uint256",
					"name": "acc",
					"type": "uint256"
				}
			],
			"stateMutability": "view",
			"type": "function"
		},
		{
			"inputs": [],
			"name": "numTokens",
			"outputs": [
				{
					"internalType": "uint256",
					"name": "",
					"type": "uint256"
				}
			],
			"stateMutability": "view",
			"type": "function"
		},
		{
			"inputs": [
				{
					"internalType": "bytes32",
					"name": "",
					"type": "bytes32"
				}
			],
			"name": "oldObservations",
			"outputs": [
				{
					"internalType": "uint256",
					"name": "timestamp",
					"type": "uint256"
				},
				{
					"internalType": "uint256",
					"name": "acc",
					"type": "uint256"
				}
			],
			"stateMutability": "view",
			"type": "function"
		},
		{
			"inputs": [
				{
					"internalType": "bytes[]",
					"name": "messages",
					"type": "bytes[]"
				},
				{
					"internalType": "bytes[]",
					"name": "signatures",
					"type": "bytes[]"
				},
				{
					"internalType": "string[]",
					"name": "symbols",
					"type": "string[]"
				}
			],
			"name": "postPrices",
			"outputs": [],
			"stateMutability": "nonpayable",
			"type": "function"
		},
		{
			"inputs": [
				{
					"internalType": "string",
					"name": "symbol",
					"type": "string"
				}
			],
			"name": "price",
			"outputs": [
				{
					"internalType": "uint256",
					"name": "",
					"type": "uint256"
				}
			],
			"stateMutability": "view",
			"type": "function"
		},
		{
			"inputs": [],
			"name": "priceData",
			"outputs": [
				{
					"internalType": "contract OpenOraclePriceData",
					"name": "",
					"type": "address"
				}
			],
			"stateMutability": "view",
			"type": "function"
		},
		{
			"inputs": [
				{
					"internalType": "bytes32",
					"name": "",
					"type": "bytes32"
				}
			],
			"name": "prices",
			"outputs": [
				{
					"internalType": "uint256",
					"name": "",
					"type": "uint256"
				}
			],
			"stateMutability": "view",
			"type": "function"
		},
		{
			"inputs": [],
			"name": "reporter",
			"outputs": [
				{
					"internalType": "address",
					"name": "",
					"type": "address"
				}
			],
			"stateMutability": "view",
			"type": "function"
		},
		{
			"inputs": [],
			"name": "reporterInvalidated",
			"outputs": [
				{
					"internalType": "bool",
					"name": "",
					"type": "bool"
				}
			],
			"stateMutability": "view",
			"type": "function"
		},
		{
			"inputs": [
				{
					"internalType": "bytes",
					"name": "message",
					"type": "bytes"
				},
				{
					"internalType": "bytes",
					"name": "signature",
					"type": "bytes"
				}
			],
			"name": "source",
			"outputs": [
				{
					"internalType": "address",
					"name": "",
					"type": "address"
				}
			],
			"stateMutability": "pure",
			"type": "function"
		},
		{
			"inputs": [],
			"name": "upperBoundAnchorRatio",
			"outputs": [
				{
					"internalType": "uint256",
					"name": "",
					"type": "uint256"
				}
			],
			"stateMutability": "view",
			"type": "function"
		}
	]
}