{
	"data": {
		"bytecode": {
			"linkReferences": {},
			"object": "611ea06040523480156200001257600080fd5b506040516200778d3803806200778d833981016040819052620000359162002344565b601e81511115620000635760405162461bcd60e51b81526004016200005a90620023f6565b60405180910390fd5b80516080526200007e8160006001600160e01b03620021b416565b5160601b6001600160601b03191660a0526200009c816001620021b4565b5160601b6001600160601b03191660c052620000ba816002620021b4565b5160601b6001600160601b03191660e052620000d8816003620021b4565b5160601b6001600160601b03191661010052620000f7816004620021b4565b5160601b6001600160601b0319166101205262000116816005620021b4565b5160601b6001600160601b0319166101405262000135816006620021b4565b5160601b6001600160601b0319166101605262000154816007620021b4565b5160601b6001600160601b0319166101805262000173816008620021b4565b5160601b6001600160601b0319166101a05262000192816009620021b4565b5160601b6001600160601b0319166101c052620001b181600a620021b4565b5160601b6001600160601b0319166101e052620001d081600b620021b4565b5160601b6001600160601b03191661020052620001ef81600c620021b4565b5160601b6001600160601b031916610220526200020e81600d620021b4565b5160601b6001600160601b031916610240526200022d81600e620021b4565b5160601b6001600160601b031916610260526200024c81600f620021b4565b5160601b6001600160601b031916610280526200026b816010620021b4565b5160601b6001600160601b0319166102a0526200028a816011620021b4565b5160601b6001600160601b0319166102c052620002a9816012620021b4565b5160601b6001600160601b0319166102e052620002c8816013620021b4565b5160601b6001600160601b03191661030052620002e7816014620021b4565b5160601b6001600160601b0319166103205262000306816015620021b4565b5160601b6001600160601b0319166103405262000325816016620021b4565b5160601b6001600160601b0319166103605262000344816017620021b4565b5160601b6001600160601b0319166103805262000363816018620021b4565b5160601b6001600160601b0319166103a05262000382816019620021b4565b5160601b6001600160601b0319166103c052620003a181601a620021b4565b5160601b6001600160601b0319166103e052620003c081601b620021b4565b5160601b6001600160601b03191661040052620003df81601c620021b4565b5160601b6001600160601b03191661042052620003fe81601d620021b4565b5160601b6001600160601b031916610440526200041d816000620021b4565b6020015160601b6001600160601b031916610460526200043f816001620021b4565b6020015160601b6001600160601b0319166104805262000461816002620021b4565b6020015160601b6001600160601b0319166104a05262000483816003620021b4565b6020015160601b6001600160601b0319166104c052620004a5816004620021b4565b6020015160601b6001600160601b0319166104e052620004c7816005620021b4565b6020015160601b6001600160601b03191661050052620004e9816006620021b4565b6020015160601b6001600160601b031916610520526200050b816007620021b4565b6020015160601b6001600160601b031916610540526200052d816008620021b4565b6020015160601b6001600160601b031916610560526200054f816009620021b4565b6020015160601b6001600160601b031916610580526200057181600a620021b4565b6020015160601b6001600160601b0319166105a0526200059381600b620021b4565b6020015160601b6001600160601b0319166105c052620005b581600c620021b4565b6020015160601b6001600160601b0319166105e052620005d781600d620021b4565b6020015160601b6001600160601b03191661060052620005f981600e620021b4565b6020015160601b6001600160601b031916610620526200061b81600f620021b4565b6020015160601b6001600160601b031916610640526200063d816010620021b4565b6020015160601b6001600160601b031916610660526200065f816011620021b4565b6020015160601b6001600160601b0319166106805262000681816012620021b4565b6020015160601b6001600160601b0319166106a052620006a3816013620021b4565b6020015160601b6001600160601b0319166106c052620006c5816014620021b4565b6020015160601b6001600160601b0319166106e052620006e7816015620021b4565b6020015160601b6001600160601b0319166107005262000709816016620021b4565b6020015160601b6001600160601b031916610720526200072b816017620021b4565b6020015160601b6001600160601b031916610740526200074d816018620021b4565b6020015160601b6001600160601b031916610760526200076f816019620021b4565b6020015160601b6001600160601b031916610780526200079181601a620021b4565b6020015160601b6001600160601b0319166107a052620007b381601b620021b4565b6020015160601b6001600160601b0319166107c052620007d581601c620021b4565b6020015160601b6001600160601b0319166107e052620007f781601d620021b4565b6020015160601b6001600160601b0319166108005262000819816000620021b4565b6040015161082052620008378160016001600160e01b03620021b416565b6040015161084052620008558160026001600160e01b03620021b416565b6040015161086052620008738160036001600160e01b03620021b416565b6040015161088052620008918160046001600160e01b03620021b416565b604001516108a052620008af8160056001600160e01b03620021b416565b604001516108c052620008cd8160066001600160e01b03620021b416565b604001516108e052620008eb8160076001600160e01b03620021b416565b6040015161090052620009098160086001600160e01b03620021b416565b6040015161092052620009278160096001600160e01b03620021b416565b60400151610940526200094581600a6001600160e01b03620021b416565b60400151610960526200096381600b6001600160e01b03620021b416565b60400151610980526200098181600c6001600160e01b03620021b416565b604001516109a0526200099f81600d6001600160e01b03620021b416565b604001516109c052620009bd81600e6001600160e01b03620021b416565b604001516109e052620009db81600f6001600160e01b03620021b416565b60400151610a0052620009f98160106001600160e01b03620021b416565b60400151610a205262000a178160116001600160e01b03620021b416565b60400151610a405262000a358160126001600160e01b03620021b416565b60400151610a605262000a538160136001600160e01b03620021b416565b60400151610a805262000a718160146001600160e01b03620021b416565b60400151610aa05262000a8f8160156001600160e01b03620021b416565b60400151610ac05262000aad8160166001600160e01b03620021b416565b60400151610ae05262000acb8160176001600160e01b03620021b416565b60400151610b005262000ae98160186001600160e01b03620021b416565b60400151610b205262000b078160196001600160e01b03620021b416565b60400151610b405262000b2581601a6001600160e01b03620021b416565b60400151610b605262000b4381601b6001600160e01b03620021b416565b60400151610b805262000b6181601c6001600160e01b03620021b416565b60400151610ba05262000b7f81601d6001600160e01b03620021b416565b60400151610bc05262000b9d8160006001600160e01b03620021b416565b60600151610be05262000bbb8160016001600160e01b03620021b416565b60600151610c005262000bd98160026001600160e01b03620021b416565b60600151610c205262000bf78160036001600160e01b03620021b416565b60600151610c405262000c158160046001600160e01b03620021b416565b60600151610c605262000c338160056001600160e01b03620021b416565b60600151610c805262000c518160066001600160e01b03620021b416565b60600151610ca05262000c6f8160076001600160e01b03620021b416565b60600151610cc05262000c8d8160086001600160e01b03620021b416565b60600151610ce05262000cab8160096001600160e01b03620021b416565b60600151610d005262000cc981600a6001600160e01b03620021b416565b60600151610d205262000ce781600b6001600160e01b03620021b416565b60600151610d405262000d0581600c6001600160e01b03620021b416565b60600151610d605262000d2381600d6001600160e01b03620021b416565b60600151610d805262000d4181600e6001600160e01b03620021b416565b60600151610da05262000d5f81600f6001600160e01b03620021b416565b60600151610dc05262000d7d8160106001600160e01b03620021b416565b60600151610de05262000d9b8160116001600160e01b03620021b416565b60600151610e005262000db98160126001600160e01b03620021b416565b60600151610e205262000dd78160136001600160e01b03620021b416565b60600151610e405262000df58160146001600160e01b03620021b416565b60600151610e605262000e138160156001600160e01b03620021b416565b60600151610e805262000e318160166001600160e01b03620021b416565b60600151610ea05262000e4f8160176001600160e01b03620021b416565b60600151610ec05262000e6d8160186001600160e01b03620021b416565b60600151610ee05262000e8b8160196001600160e01b03620021b416565b60600151610f005262000ea981601a6001600160e01b03620021b416565b60600151610f205262000ec781601b6001600160e01b03620021b416565b60600151610f405262000ee581601c6001600160e01b03620021b416565b60600151610f605262000f0381601d6001600160e01b03620021b416565b60600151610f805262000f218160006001600160e01b03620021b416565b60800151600281111562000f3157fe5b610fa081600281111562000f4157fe5b60f81b90525062000f5d8160016001600160e01b03620021b416565b60800151600281111562000f6d57fe5b610fc081600281111562000f7d57fe5b60f81b90525062000f998160026001600160e01b03620021b416565b60800151600281111562000fa957fe5b610fe081600281111562000fb957fe5b60f81b90525062000fd58160036001600160e01b03620021b416565b60800151600281111562000fe557fe5b61100081600281111562000ff557fe5b60f81b905250620010118160046001600160e01b03620021b416565b6080015160028111156200102157fe5b6110208160028111156200103157fe5b60f81b9052506200104d8160056001600160e01b03620021b416565b6080015160028111156200105d57fe5b6110408160028111156200106d57fe5b60f81b905250620010898160066001600160e01b03620021b416565b6080015160028111156200109957fe5b611060816002811115620010a957fe5b60f81b905250620010c58160076001600160e01b03620021b416565b608001516002811115620010d557fe5b611080816002811115620010e557fe5b60f81b905250620011018160086001600160e01b03620021b416565b6080015160028111156200111157fe5b6110a08160028111156200112157fe5b60f81b9052506200113d8160096001600160e01b03620021b416565b6080015160028111156200114d57fe5b6110c08160028111156200115d57fe5b60f81b9052506200117981600a6001600160e01b03620021b416565b6080015160028111156200118957fe5b6110e08160028111156200119957fe5b60f81b905250620011b581600b6001600160e01b03620021b416565b608001516002811115620011c557fe5b611100816002811115620011d557fe5b60f81b905250620011f181600c6001600160e01b03620021b416565b6080015160028111156200120157fe5b6111208160028111156200121157fe5b60f81b9052506200122d81600d6001600160e01b03620021b416565b6080015160028111156200123d57fe5b6111408160028111156200124d57fe5b60f81b9052506200126981600e6001600160e01b03620021b416565b6080015160028111156200127957fe5b6111608160028111156200128957fe5b60f81b905250620012a581600f6001600160e01b03620021b416565b608001516002811115620012b557fe5b611180816002811115620012c557fe5b60f81b905250620012e18160106001600160e01b03620021b416565b608001516002811115620012f157fe5b6111a08160028111156200130157fe5b60f81b9052506200131d8160116001600160e01b03620021b416565b6080015160028111156200132d57fe5b6111c08160028111156200133d57fe5b60f81b905250620013598160126001600160e01b03620021b416565b6080015160028111156200136957fe5b6111e08160028111156200137957fe5b60f81b905250620013958160136001600160e01b03620021b416565b608001516002811115620013a557fe5b611200816002811115620013b557fe5b60f81b905250620013d18160146001600160e01b03620021b416565b608001516002811115620013e157fe5b611220816002811115620013f157fe5b60f81b9052506200140d8160156001600160e01b03620021b416565b6080015160028111156200141d57fe5b6112408160028111156200142d57fe5b60f81b905250620014498160166001600160e01b03620021b416565b6080015160028111156200145957fe5b6112608160028111156200146957fe5b60f81b905250620014858160176001600160e01b03620021b416565b6080015160028111156200149557fe5b611280816002811115620014a557fe5b60f81b905250620014c18160186001600160e01b03620021b416565b608001516002811115620014d157fe5b6112a0816002811115620014e157fe5b60f81b905250620014fd8160196001600160e01b03620021b416565b6080015160028111156200150d57fe5b6112c08160028111156200151d57fe5b60f81b9052506200153981601a6001600160e01b03620021b416565b6080015160028111156200154957fe5b6112e08160028111156200155957fe5b60f81b9052506200157581601b6001600160e01b03620021b416565b6080015160028111156200158557fe5b6113008160028111156200159557fe5b60f81b905250620015b181601c6001600160e01b03620021b416565b608001516002811115620015c157fe5b611320816002811115620015d157fe5b60f81b905250620015ed81601d6001600160e01b03620021b416565b608001516002811115620015fd57fe5b6113408160028111156200160d57fe5b60f81b905250620016298160006001600160e01b03620021b416565b60a0015161136052620016478160016001600160e01b03620021b416565b60a0015161138052620016658160026001600160e01b03620021b416565b60a001516113a052620016838160036001600160e01b03620021b416565b60a001516113c052620016a18160046001600160e01b03620021b416565b60a001516113e052620016bf8160056001600160e01b03620021b416565b60a0015161140052620016dd8160066001600160e01b03620021b416565b60a0015161142052620016fb8160076001600160e01b03620021b416565b60a0015161144052620017198160086001600160e01b03620021b416565b60a0015161146052620017378160096001600160e01b03620021b416565b60a00151611480526200175581600a6001600160e01b03620021b416565b60a001516114a0526200177381600b6001600160e01b03620021b416565b60a001516114c0526200179181600c6001600160e01b03620021b416565b60a001516114e052620017af81600d6001600160e01b03620021b416565b60a0015161150052620017cd81600e6001600160e01b03620021b416565b60a0015161152052620017eb81600f6001600160e01b03620021b416565b60a0015161154052620018098160106001600160e01b03620021b416565b60a0015161156052620018278160116001600160e01b03620021b416565b60a0015161158052620018458160126001600160e01b03620021b416565b60a001516115a052620018638160136001600160e01b03620021b416565b60a001516115c052620018818160146001600160e01b03620021b416565b60a001516115e0526200189f8160156001600160e01b03620021b416565b60a0015161160052620018bd8160166001600160e01b03620021b416565b60a0015161162052620018db8160176001600160e01b03620021b416565b60a0015161164052620018f98160186001600160e01b03620021b416565b60a0015161166052620019178160196001600160e01b03620021b416565b60a00151611680526200193581601a6001600160e01b03620021b416565b60a001516116a0526200195381601b6001600160e01b03620021b416565b60a001516116c0526200197181601c6001600160e01b03620021b416565b60a001516116e0526200198f81601d6001600160e01b03620021b416565b60a0015161170052620019ad8160006001600160e01b03620021b416565b60c0015160601b6001600160601b03191661172052620019cf816001620021b4565b60c0015160601b6001600160601b03191661174052620019f1816002620021b4565b60c0015160601b6001600160601b0319166117605262001a13816003620021b4565b60c0015160601b6001600160601b0319166117805262001a35816004620021b4565b60c0015160601b6001600160601b0319166117a05262001a57816005620021b4565b60c0015160601b6001600160601b0319166117c05262001a79816006620021b4565b60c0015160601b6001600160601b0319166117e05262001a9b816007620021b4565b60c0015160601b6001600160601b0319166118005262001abd816008620021b4565b60c0015160601b6001600160601b0319166118205262001adf816009620021b4565b60c0015160601b6001600160601b0319166118405262001b0181600a620021b4565b60c0015160601b6001600160601b0319166118605262001b2381600b620021b4565b60c0015160601b6001600160601b0319166118805262001b4581600c620021b4565b60c0015160601b6001600160601b0319166118a05262001b6781600d620021b4565b60c0015160601b6001600160601b0319166118c05262001b8981600e620021b4565b60c0015160601b6001600160601b0319166118e05262001bab81600f620021b4565b60c0015160601b6001600160601b0319166119005262001bcd816010620021b4565b60c0015160601b6001600160601b0319166119205262001bef816011620021b4565b60c0015160601b6001600160601b0319166119405262001c11816012620021b4565b60c0015160601b6001600160601b0319166119605262001c33816013620021b4565b60c0015160601b6001600160601b0319166119805262001c55816014620021b4565b60c0015160601b6001600160601b0319166119a05262001c77816015620021b4565b60c0015160601b6001600160601b0319166119c05262001c99816016620021b4565b60c0015160601b6001600160601b0319166119e05262001cbb816017620021b4565b60c0015160601b6001600160601b031916611a005262001cdd816018620021b4565b60c0015160601b6001600160601b031916611a205262001cff816019620021b4565b60c0015160601b6001600160601b031916611a405262001d2181601a620021b4565b60c0015160601b6001600160601b031916611a605262001d4381601b620021b4565b60c0015160601b6001600160601b031916611a805262001d6581601c620021b4565b60c0015160601b6001600160601b031916611aa05262001d8781601d620021b4565b60c0015160601b6001600160601b031916611ac05262001da9816000620021b4565b60e00151151560f81b611ae05262001dcc8160016001600160e01b03620021b416565b60e00151151560f81b611b005262001def8160026001600160e01b03620021b416565b60e00151151560f81b611b205262001e128160036001600160e01b03620021b416565b60e00151151560f81b611b405262001e358160046001600160e01b03620021b416565b60e00151151560f81b611b605262001e588160056001600160e01b03620021b416565b60e00151151560f81b611b805262001e7b8160066001600160e01b03620021b416565b60e00151151560f81b611ba05262001e9e8160076001600160e01b03620021b416565b60e00151151560f81b611bc05262001ec18160086001600160e01b03620021b416565b60e00151151560f81b611be05262001ee48160096001600160e01b03620021b416565b60e00151151560f81b611c005262001f0781600a6001600160e01b03620021b416565b60e00151151560f81b611c205262001f2a81600b6001600160e01b03620021b416565b60e00151151560f81b611c405262001f4d81600c6001600160e01b03620021b416565b60e00151151560f81b611c605262001f7081600d6001600160e01b03620021b416565b60e00151151560f81b611c805262001f9381600e6001600160e01b03620021b416565b60e00151151560f81b611ca05262001fb681600f6001600160e01b03620021b416565b60e00151151560f81b611cc05262001fd98160106001600160e01b03620021b416565b60e00151151560f81b611ce05262001ffc8160116001600160e01b03620021b416565b60e00151151560f81b611d00526200201f8160126001600160e01b03620021b416565b60e00151151560f81b611d2052620020428160136001600160e01b03620021b416565b60e00151151560f81b611d4052620020658160146001600160e01b03620021b416565b60e00151151560f81b611d6052620020888160156001600160e01b03620021b416565b60e00151151560f81b611d8052620020ab8160166001600160e01b03620021b416565b60e00151151560f81b611da052620020ce8160176001600160e01b03620021b416565b60e00151151560f81b611dc052620020f18160186001600160e01b03620021b416565b60e00151151560f81b611de052620021148160196001600160e01b03620021b416565b60e00151151560f81b611e00526200213781601a6001600160e01b03620021b416565b60e00151151560f81b611e20526200215a81601b6001600160e01b03620021b416565b60e00151151560f81b611e40526200217d81601c6001600160e01b03620021b416565b60e00151151560f81b611e6052620021a081601d6001600160e01b03620021b416565b60e00151151560f81b611e80525062002467565b620021be6200222e565b8251821015620021e557828281518110620021d557fe5b6020026020010151905062002228565b506040805161010081018252600080825260208201819052918101829052606081018290526080810182905260a0810182905260c0810182905260e08101919091525b92915050565b60408051610100810182526000808252602082018190529181018290526060810182905290608082019081526000602082018190526040820181905260609091015290565b80516001600160a01b03811681146200222857600080fd5b805180151581146200222857600080fd5b6000610100808385031215620022b0578182fd5b620022bb8162002420565b915050620022ca838362002273565b8152620022db836020840162002273565b602082015260408201516040820152606082015160608201526080820151600381106200230757600080fd5b608082015260a08281015190820152620023258360c0840162002273565b60c0820152620023398360e084016200228b565b60e082015292915050565b6000602080838503121562002357578182fd5b82516001600160401b038111156200236d578283fd5b80840185601f8201126200237f578384fd5b8051915062002398620023928362002447565b62002420565b82815283810190828501610100808602850187018a1015620023b8578788fd5b8794505b85851015620023e857620023d18a836200229c565b8452600194909401939286019290810190620023bc565b509098975050505050505050565b60208082526010908201526f746f6f206d616e7920636f6e6669677360801b604082015260600190565b6040518181016001600160401b03811182821017156200243f57600080fd5b604052919050565b60006001600160401b038211156200245d578081fd5b5060209081020190565b60805160a05160601c60c05160601c60e05160601c6101005160601c6101205160601c6101405160601c6101605160601c6101805160601c6101a05160601c6101c05160601c6101e05160601c6102005160601c6102205160601c6102405160601c6102605160601c6102805160601c6102a05160601c6102c05160601c6102e05160601c6103005160601c6103205160601c6103405160601c6103605160601c6103805160601c6103a05160601c6103c05160601c6103e05160601c6104005160601c6104205160601c6104405160601c6104605160601c6104805160601c6104a05160601c6104c05160601c6104e05160601c6105005160601c6105205160601c6105405160601c6105605160601c6105805160601c6105a05160601c6105c05160601c6105e05160601c6106005160601c6106205160601c6106405160601c6106605160601c6106805160601c6106a05160601c6106c05160601c6106e05160601c6107005160601c6107205160601c6107405160601c6107605160601c6107805160601c6107a05160601c6107c05160601c6107e05160601c6108005160601c610820516108405161086051610880516108a0516108c0516108e05161090051610920516109405161096051610980516109a0516109c0516109e051610a0051610a2051610a4051610a6051610a8051610aa051610ac051610ae051610b0051610b2051610b4051610b6051610b8051610ba051610bc051610be051610c0051610c2051610c4051610c6051610c8051610ca051610cc051610ce051610d0051610d2051610d4051610d6051610d8051610da051610dc051610de051610e0051610e2051610e4051610e6051610e8051610ea051610ec051610ee051610f0051610f2051610f4051610f6051610f8051610fa05160f81c610fc05160f81c610fe05160f81c6110005160f81c6110205160f81c6110405160f81c6110605160f81c6110805160f81c6110a05160f81c6110c05160f81c6110e05160f81c6111005160f81c6111205160f81c6111405160f81c6111605160f81c6111805160f81c6111a05160f81c6111c05160f81c6111e05160f81c6112005160f81c6112205160f81c6112405160f81c6112605160f81c6112805160f81c6112a05160f81c6112c05160f81c6112e05160f81c6113005160f81c6113205160f81c6113405160f81c61136051611380516113a0516113c0516113e05161140051611420516114405161146051611480516114a0516114c0516114e05161150051611520516115405161156051611580516115a0516115c0516115e05161160051611620516116405161166051611680516116a0516116c0516116e051611700516117205160601c6117405160601c6117605160601c6117805160601c6117a05160601c6117c05160601c6117e05160601c6118005160601c6118205160601c6118405160601c6118605160601c6118805160601c6118a05160601c6118c05160601c6118e05160601c6119005160601c6119205160601c6119405160601c6119605160601c6119805160601c6119a05160601c6119c05160601c6119e05160601c611a005160601c611a205160601c611a405160601c611a605160601c611a805160601c611aa05160601c611ac05160601c611ae05160f81c611b005160f81c611b205160f81c611b405160f81c611b605160f81c611b805160f81c611ba05160f81c611bc05160f81c611be05160f81c611c005160f81c611c205160f81c611c405160f81c611c605160f81c611c805160f81c611ca05160f81c611cc05160f81c611ce05160f81c611d005160f81c611d205160f81c611d405160f81c611d605160f81c611d805160f81c611da05160f81c611dc05160f81c611de05160f81c611e005160f81c611e205160f81c611e405160f81c611e605160f81c611e805160f81c6146256200316860003980612d77525080612c05525080612a935250806129215250806127af52508061263d5250806124cb5250806123595250806121e7525080612075525080611f03525080611d91525080611c1f525080611aad52508061193b5250806117c95250806116575250806114e552508061137352508061120152508061108f525080610f1d525080610dab525080610c39525080610ac75250806109555250806107e35250806106715250806104ff52508061038d525080612d48525080612bd6525080612a645250806128f252508061278052508061260e52508061249c52508061232a5250806121b8525080612046525080611ed4525080611d62525080611bf0525080611a7e52508061190c52508061179a5250806116285250806114b65250806113445250806111d2525080611060525080610eee525080610d7c525080610c0a525080610a985250806109265250806107b45250806106425250806104d052508061035e525080612d22525080612bb0525080612a3e5250806128cc52508061275a5250806125e8525080612476525080612304525080612192525080612020525080611eae525080611d3c525080611bca525080611a585250806118e652508061177452508061160252508061149052508061131e5250806111ac52508061103a525080610ec8525080610d56525080610be4525080610a7252508061090052508061078e52508061061c5250806104aa525080610338525080612cf1525080612b7f525080612a0d52508061289b5250806127295250806125b75250806124455250806122d3525080612161525080611fef525080611e7d525080611d0b525080611b99525080611a275250806118b55250806117435250806115d152508061145f5250806112ed52508061117b525080611009525080610e97525080610d25525080610bb3525080610a415250806108cf52508061075d5250806105eb525080610479525080610307525080612ccb525080612b595250806129e752508061287552508061270352508061259152508061241f5250806122ad52508061213b525080611fc9525080611e57525080611ce5525080611b73525080611a0152508061188f52508061171d5250806115ab5250806114395250806112c7525080611155525080610fe3525080610e71525080610cff525080610b8d525080610a1b5250806108a95250806107375250806105c55250806104535250806102e1525080612ca552806133e1525080612b3352806133b15250806129c1528061338152508061284f52806133515250806126dd528061332152508061256b52806132f15250806123f952806132c152508061228752806132915250806121155280613261525080611fa35280613231525080611e315280613201525080611cbf52806131d1525080611b4d52806131a15250806119db528061317152508061186952806131415250806116f7528061311152508061158552806130e152508061141352806130b15250806112a1528061308152508061112f5280613051525080610fbd5280613021525080610e4b5280612ff1525080610cd95280612fc1525080610b675280612f915250806109f55280612f615250806108835280612f315250806107115280612f0152508061059f5280612ed152508061042d5280612ea15250806102bb5280612e71525080612c765280613b96525080612b045280613b545250806129925280613b125250806128205280613ad05250806126ae5280613a8e52508061253c5280613a4c5250806123ca5280613a0a52508061225852806139c85250806120e65280613986525080611f745280613944525080611e025280613902525080611c9052806138c0525080611b1e528061387e5250806119ac528061383c52508061183a52806137fa5250806116c852806137b852508061155652806137765250806113e4528061373452508061127252806136f252508061110052806136b0525080610f8e528061366e525080610e1c528061362c525080610caa52806135ea525080610b3852806135a85250806109c6528061356652508061085452806135245250806106e252806134e252508061057052806134a05250806103fe528061345e52508061028c528061341c525080612c475280614354525080612ad5528061431252508061296352806142d05250806127f1528061428e52508061267f528061424c52508061250d528061420a52508061239b52806141c852508061222952806141865250806120b75280614144525080611f455280614102525080611dd352806140c0525080611c61528061407e525080611aef528061403c52508061197d5280613ffa52508061180b5280613fb85250806116995280613f765250806115275280613f345250806113b55280613ef25250806112435280613eb05250806110d15280613e6e525080610f5f5280613e2c525080610ded5280613dea525080610c7b5280613da8525080610b095280613d665250806109975280613d245250806108255280613ce25250806106b35280613ca05250806105415280613c5e5250806103cf5280613c1c52508061025d5280613bda52508061020d5280612da452506146256000f3fe608060405234801561001057600080fd5b50600436106100885760003560e01c80638a0038881161005b5780638a003888146100fc5780638e499bcf1461010f578063e831574214610117578063eea85ecb1461011f57610088565b806306981c911461008d5780631a125204146100b6578063276c2cba146100d65780634da21942146100e9575b600080fd5b6100a061009b366004614429565b610132565b6040516100ad9190614510565b60405180910390f35b6100c96100c4366004614411565b610163565b6040516100ad9190614549565b6100c96100e4366004614429565b6101b3565b6100c96100f73660046143d9565b6101f0565b6100c961010a366004614411565b610203565b6100a0612da2565b6100a0612dc6565b6100c961012d3660046143d9565b612dcb565b60008160405160200161014591906144d7565b6040516020818303038152906040528051906020012090505b919050565b61016b614394565b600061017683612e6d565b905060001981146101925761018a81610203565b91505061015e565b60405162461bcd60e51b81526004016101aa90614519565b60405180910390fd5b6101bb614394565b6101ea826040516020016101cf91906144d7565b60405160208183030381529060405280519060200120610163565b92915050565b6101f8614394565b600061017683613418565b61020b614394565b7f0000000000000000000000000000000000000000000000000000000000000000821061024a5760405162461bcd60e51b81526004016101aa90614519565b816103b8576040518061010001604052807f00000000000000000000000000000000000000000000000000000000000000006001600160a01b031681526020017f00000000000000000000000000000000000000000000000000000000000000006001600160a01b031681526020017f000000000000000000000000000000000000000000000000000000000000000081526020017f000000000000000000000000000000000000000000000000000000000000000081526020017f0000000000000000000000000000000000000000000000000000000000000000600281111561033157fe5b81526020017f000000000000000000000000000000000000000000000000000000000000000081526020017f00000000000000000000000000000000000000000000000000000000000000006001600160a01b031681526020017f00000000000000000000000000000000000000000000000000000000000000001515815250905061015e565b816001141561052a576040518061010001604052807f00000000000000000000000000000000000000000000000000000000000000006001600160a01b031681526020017f00000000000000000000000000000000000000000000000000000000000000006001600160a01b031681526020017f000000000000000000000000000000000000000000000000000000000000000081526020017f000000000000000000000000000000000000000000000000000000000000000081526020017f000000000000000000000000000000000000000000000000000000000000000060028111156104a357fe5b81526020017f000000000000000000000000000000000000000000000000000000000000000081526020017f00000000000000000000000000000000000000000000000000000000000000006001600160a01b031681526020017f00000000000000000000000000000000000000000000000000000000000000001515815250905061015e565b816002141561069c576040518061010001604052807f00000000000000000000000000000000000000000000000000000000000000006001600160a01b031681526020017f00000000000000000000000000000000000000000000000000000000000000006001600160a01b031681526020017f000000000000000000000000000000000000000000000000000000000000000081526020017f000000000000000000000000000000000000000000000000000000000000000081526020017f0000000000000000000000000000000000000000000000000000000000000000600281111561061557fe5b81526020017f000000000000000000000000000000000000000000000000000000000000000081526020017f00000000000000000000000000000000000000000000000000000000000000006001600160a01b031681526020017f00000000000000000000000000000000000000000000000000000000000000001515815250905061015e565b816003141561080e576040518061010001604052807f00000000000000000000000000000000000000000000000000000000000000006001600160a01b031681526020017f00000000000000000000000000000000000000000000000000000000000000006001600160a01b031681526020017f000000000000000000000000000000000000000000000000000000000000000081526020017f000000000000000000000000000000000000000000000000000000000000000081526020017f0000000000000000000000000000000000000000000000000000000000000000600281111561078757fe5b81526020017f000000000000000000000000000000000000000000000000000000000000000081526020017f00000000000000000000000000000000000000000000000000000000000000006001600160a01b031681526020017f00000000000000000000000000000000000000000000000000000000000000001515815250905061015e565b8160041415610980576040518061010001604052807f00000000000000000000000000000000000000000000000000000000000000006001600160a01b031681526020017f00000000000000000000000000000000000000000000000000000000000000006001600160a01b031681526020017f000000000000000000000000000000000000000000000000000000000000000081526020017f000000000000000000000000000000000000000000000000000000000000000081526020017f000000000000000000000000000000000000000000000000000000000000000060028111156108f957fe5b81526020017f000000000000000000000000000000000000000000000000000000000000000081526020017f00000000000000000000000000000000000000000000000000000000000000006001600160a01b031681526020017f00000000000000000000000000000000000000000000000000000000000000001515815250905061015e565b8160051415610af2576040518061010001604052807f00000000000000000000000000000000000000000000000000000000000000006001600160a01b031681526020017f00000000000000000000000000000000000000000000000000000000000000006001600160a01b031681526020017f000000000000000000000000000000000000000000000000000000000000000081526020017f000000000000000000000000000000000000000000000000000000000000000081526020017f00000000000000000000000000000000000000000000000000000000000000006002811115610a6b57fe5b81526020017f000000000000000000000000000000000000000000000000000000000000000081526020017f00000000000000000000000000000000000000000000000000000000000000006001600160a01b031681526020017f00000000000000000000000000000000000000000000000000000000000000001515815250905061015e565b8160061415610c64576040518061010001604052807f00000000000000000000000000000000000000000000000000000000000000006001600160a01b031681526020017f00000000000000000000000000000000000000000000000000000000000000006001600160a01b031681526020017f000000000000000000000000000000000000000000000000000000000000000081526020017f000000000000000000000000000000000000000000000000000000000000000081526020017f00000000000000000000000000000000000000000000000000000000000000006002811115610bdd57fe5b81526020017f000000000000000000000000000000000000000000000000000000000000000081526020017f00000000000000000000000000000000000000000000000000000000000000006001600160a01b031681526020017f00000000000000000000000000000000000000000000000000000000000000001515815250905061015e565b8160071415610dd6576040518061010001604052807f00000000000000000000000000000000000000000000000000000000000000006001600160a01b031681526020017f00000000000000000000000000000000000000000000000000000000000000006001600160a01b031681526020017f000000000000000000000000000000000000000000000000000000000000000081526020017f000000000000000000000000000000000000000000000000000000000000000081526020017f00000000000000000000000000000000000000000000000000000000000000006002811115610d4f57fe5b81526020017f000000000000000000000000000000000000000000000000000000000000000081526020017f00000000000000000000000000000000000000000000000000000000000000006001600160a01b031681526020017f00000000000000000000000000000000000000000000000000000000000000001515815250905061015e565b8160081415610f48576040518061010001604052807f00000000000000000000000000000000000000000000000000000000000000006001600160a01b031681526020017f00000000000000000000000000000000000000000000000000000000000000006001600160a01b031681526020017f000000000000000000000000000000000000000000000000000000000000000081526020017f000000000000000000000000000000000000000000000000000000000000000081526020017f00000000000000000000000000000000000000000000000000000000000000006002811115610ec157fe5b81526020017f000000000000000000000000000000000000000000000000000000000000000081526020017f00000000000000000000000000000000000000000000000000000000000000006001600160a01b031681526020017f00000000000000000000000000000000000000000000000000000000000000001515815250905061015e565b81600914156110ba576040518061010001604052807f00000000000000000000000000000000000000000000000000000000000000006001600160a01b031681526020017f00000000000000000000000000000000000000000000000000000000000000006001600160a01b031681526020017f000000000000000000000000000000000000000000000000000000000000000081526020017f000000000000000000000000000000000000000000000000000000000000000081526020017f0000000000000000000000000000000000000000000000000000000000000000600281111561103357fe5b81526020017f000000000000000000000000000000000000000000000000000000000000000081526020017f00000000000000000000000000000000000000000000000000000000000000006001600160a01b031681526020017f00000000000000000000000000000000000000000000000000000000000000001515815250905061015e565b81600a141561122c576040518061010001604052807f00000000000000000000000000000000000000000000000000000000000000006001600160a01b031681526020017f00000000000000000000000000000000000000000000000000000000000000006001600160a01b031681526020017f000000000000000000000000000000000000000000000000000000000000000081526020017f000000000000000000000000000000000000000000000000000000000000000081526020017f000000000000000000000000000000000000000000000000000000000000000060028111156111a557fe5b81526020017f000000000000000000000000000000000000000000000000000000000000000081526020017f00000000000000000000000000000000000000000000000000000000000000006001600160a01b031681526020017f00000000000000000000000000000000000000000000000000000000000000001515815250905061015e565b81600b141561139e576040518061010001604052807f00000000000000000000000000000000000000000000000000000000000000006001600160a01b031681526020017f00000000000000000000000000000000000000000000000000000000000000006001600160a01b031681526020017f000000000000000000000000000000000000000000000000000000000000000081526020017f000000000000000000000000000000000000000000000000000000000000000081526020017f0000000000000000000000000000000000000000000000000000000000000000600281111561131757fe5b81526020017f000000000000000000000000000000000000000000000000000000000000000081526020017f00000000000000000000000000000000000000000000000000000000000000006001600160a01b031681526020017f00000000000000000000000000000000000000000000000000000000000000001515815250905061015e565b81600c1415611510576040518061010001604052807f00000000000000000000000000000000000000000000000000000000000000006001600160a01b031681526020017f00000000000000000000000000000000000000000000000000000000000000006001600160a01b031681526020017f000000000000000000000000000000000000000000000000000000000000000081526020017f000000000000000000000000000000000000000000000000000000000000000081526020017f0000000000000000000000000000000000000000000000000000000000000000600281111561148957fe5b81526020017f000000000000000000000000000000000000000000000000000000000000000081526020017f00000000000000000000000000000000000000000000000000000000000000006001600160a01b031681526020017f00000000000000000000000000000000000000000000000000000000000000001515815250905061015e565b81600d1415611682576040518061010001604052807f00000000000000000000000000000000000000000000000000000000000000006001600160a01b031681526020017f00000000000000000000000000000000000000000000000000000000000000006001600160a01b031681526020017f000000000000000000000000000000000000000000000000000000000000000081526020017f000000000000000000000000000000000000000000000000000000000000000081526020017f000000000000000000000000000000000000000000000000000000000000000060028111156115fb57fe5b81526020017f000000000000000000000000000000000000000000000000000000000000000081526020017f00000000000000000000000000000000000000000000000000000000000000006001600160a01b031681526020017f00000000000000000000000000000000000000000000000000000000000000001515815250905061015e565b81600e14156117f4576040518061010001604052807f00000000000000000000000000000000000000000000000000000000000000006001600160a01b031681526020017f00000000000000000000000000000000000000000000000000000000000000006001600160a01b031681526020017f000000000000000000000000000000000000000000000000000000000000000081526020017f000000000000000000000000000000000000000000000000000000000000000081526020017f0000000000000000000000000000000000000000000000000000000000000000600281111561176d57fe5b81526020017f000000000000000000000000000000000000000000000000000000000000000081526020017f00000000000000000000000000000000000000000000000000000000000000006001600160a01b031681526020017f00000000000000000000000000000000000000000000000000000000000000001515815250905061015e565b81600f1415611966576040518061010001604052807f00000000000000000000000000000000000000000000000000000000000000006001600160a01b031681526020017f00000000000000000000000000000000000000000000000000000000000000006001600160a01b031681526020017f000000000000000000000000000000000000000000000000000000000000000081526020017f000000000000000000000000000000000000000000000000000000000000000081526020017f000000000000000000000000000000000000000000000000000000000000000060028111156118df57fe5b81526020017f000000000000000000000000000000000000000000000000000000000000000081526020017f00000000000000000000000000000000000000000000000000000000000000006001600160a01b031681526020017f00000000000000000000000000000000000000000000000000000000000000001515815250905061015e565b8160101415611ad8576040518061010001604052807f00000000000000000000000000000000000000000000000000000000000000006001600160a01b031681526020017f00000000000000000000000000000000000000000000000000000000000000006001600160a01b031681526020017f000000000000000000000000000000000000000000000000000000000000000081526020017f000000000000000000000000000000000000000000000000000000000000000081526020017f00000000000000000000000000000000000000000000000000000000000000006002811115611a5157fe5b81526020017f000000000000000000000000000000000000000000000000000000000000000081526020017f00000000000000000000000000000000000000000000000000000000000000006001600160a01b031681526020017f00000000000000000000000000000000000000000000000000000000000000001515815250905061015e565b8160111415611c4a576040518061010001604052807f00000000000000000000000000000000000000000000000000000000000000006001600160a01b031681526020017f00000000000000000000000000000000000000000000000000000000000000006001600160a01b031681526020017f000000000000000000000000000000000000000000000000000000000000000081526020017f000000000000000000000000000000000000000000000000000000000000000081526020017f00000000000000000000000000000000000000000000000000000000000000006002811115611bc357fe5b81526020017f000000000000000000000000000000000000000000000000000000000000000081526020017f00000000000000000000000000000000000000000000000000000000000000006001600160a01b031681526020017f00000000000000000000000000000000000000000000000000000000000000001515815250905061015e565b8160121415611dbc576040518061010001604052807f00000000000000000000000000000000000000000000000000000000000000006001600160a01b031681526020017f00000000000000000000000000000000000000000000000000000000000000006001600160a01b031681526020017f000000000000000000000000000000000000000000000000000000000000000081526020017f000000000000000000000000000000000000000000000000000000000000000081526020017f00000000000000000000000000000000000000000000000000000000000000006002811115611d3557fe5b81526020017f000000000000000000000000000000000000000000000000000000000000000081526020017f00000000000000000000000000000000000000000000000000000000000000006001600160a01b031681526020017f00000000000000000000000000000000000000000000000000000000000000001515815250905061015e565b8160131415611f2e576040518061010001604052807f00000000000000000000000000000000000000000000000000000000000000006001600160a01b031681526020017f00000000000000000000000000000000000000000000000000000000000000006001600160a01b031681526020017f000000000000000000000000000000000000000000000000000000000000000081526020017f000000000000000000000000000000000000000000000000000000000000000081526020017f00000000000000000000000000000000000000000000000000000000000000006002811115611ea757fe5b81526020017f000000000000000000000000000000000000000000000000000000000000000081526020017f00000000000000000000000000000000000000000000000000000000000000006001600160a01b031681526020017f00000000000000000000000000000000000000000000000000000000000000001515815250905061015e565b81601414156120a0576040518061010001604052807f00000000000000000000000000000000000000000000000000000000000000006001600160a01b031681526020017f00000000000000000000000000000000000000000000000000000000000000006001600160a01b031681526020017f000000000000000000000000000000000000000000000000000000000000000081526020017f000000000000000000000000000000000000000000000000000000000000000081526020017f0000000000000000000000000000000000000000000000000000000000000000600281111561201957fe5b81526020017f000000000000000000000000000000000000000000000000000000000000000081526020017f00000000000000000000000000000000000000000000000000000000000000006001600160a01b031681526020017f00000000000000000000000000000000000000000000000000000000000000001515815250905061015e565b8160151415612212576040518061010001604052807f00000000000000000000000000000000000000000000000000000000000000006001600160a01b031681526020017f00000000000000000000000000000000000000000000000000000000000000006001600160a01b031681526020017f000000000000000000000000000000000000000000000000000000000000000081526020017f000000000000000000000000000000000000000000000000000000000000000081526020017f0000000000000000000000000000000000000000000000000000000000000000600281111561218b57fe5b81526020017f000000000000000000000000000000000000000000000000000000000000000081526020017f00000000000000000000000000000000000000000000000000000000000000006001600160a01b031681526020017f00000000000000000000000000000000000000000000000000000000000000001515815250905061015e565b8160161415612384576040518061010001604052807f00000000000000000000000000000000000000000000000000000000000000006001600160a01b031681526020017f00000000000000000000000000000000000000000000000000000000000000006001600160a01b031681526020017f000000000000000000000000000000000000000000000000000000000000000081526020017f000000000000000000000000000000000000000000000000000000000000000081526020017f000000000000000000000000000000000000000000000000000000000000000060028111156122fd57fe5b81526020017f000000000000000000000000000000000000000000000000000000000000000081526020017f00000000000000000000000000000000000000000000000000000000000000006001600160a01b031681526020017f00000000000000000000000000000000000000000000000000000000000000001515815250905061015e565b81601714156124f6576040518061010001604052807f00000000000000000000000000000000000000000000000000000000000000006001600160a01b031681526020017f00000000000000000000000000000000000000000000000000000000000000006001600160a01b031681526020017f000000000000000000000000000000000000000000000000000000000000000081526020017f000000000000000000000000000000000000000000000000000000000000000081526020017f0000000000000000000000000000000000000000000000000000000000000000600281111561246f57fe5b81526020017f000000000000000000000000000000000000000000000000000000000000000081526020017f00000000000000000000000000000000000000000000000000000000000000006001600160a01b031681526020017f00000000000000000000000000000000000000000000000000000000000000001515815250905061015e565b8160181415612668576040518061010001604052807f00000000000000000000000000000000000000000000000000000000000000006001600160a01b031681526020017f00000000000000000000000000000000000000000000000000000000000000006001600160a01b031681526020017f000000000000000000000000000000000000000000000000000000000000000081526020017f000000000000000000000000000000000000000000000000000000000000000081526020017f000000000000000000000000000000000000000000000000000000000000000060028111156125e157fe5b81526020017f000000000000000000000000000000000000000000000000000000000000000081526020017f00000000000000000000000000000000000000000000000000000000000000006001600160a01b031681526020017f00000000000000000000000000000000000000000000000000000000000000001515815250905061015e565b81601914156127da576040518061010001604052807f00000000000000000000000000000000000000000000000000000000000000006001600160a01b031681526020017f00000000000000000000000000000000000000000000000000000000000000006001600160a01b031681526020017f000000000000000000000000000000000000000000000000000000000000000081526020017f000000000000000000000000000000000000000000000000000000000000000081526020017f0000000000000000000000000000000000000000000000000000000000000000600281111561275357fe5b81526020017f000000000000000000000000000000000000000000000000000000000000000081526020017f00000000000000000000000000000000000000000000000000000000000000006001600160a01b031681526020017f00000000000000000000000000000000000000000000000000000000000000001515815250905061015e565b81601a141561294c576040518061010001604052807f00000000000000000000000000000000000000000000000000000000000000006001600160a01b031681526020017f00000000000000000000000000000000000000000000000000000000000000006001600160a01b031681526020017f000000000000000000000000000000000000000000000000000000000000000081526020017f000000000000000000000000000000000000000000000000000000000000000081526020017f000000000000000000000000000000000000000000000000000000000000000060028111156128c557fe5b81526020017f000000000000000000000000000000000000000000000000000000000000000081526020017f00000000000000000000000000000000000000000000000000000000000000006001600160a01b031681526020017f00000000000000000000000000000000000000000000000000000000000000001515815250905061015e565b81601b1415612abe576040518061010001604052807f00000000000000000000000000000000000000000000000000000000000000006001600160a01b031681526020017f00000000000000000000000000000000000000000000000000000000000000006001600160a01b031681526020017f000000000000000000000000000000000000000000000000000000000000000081526020017f000000000000000000000000000000000000000000000000000000000000000081526020017f00000000000000000000000000000000000000000000000000000000000000006002811115612a3757fe5b81526020017f000000000000000000000000000000000000000000000000000000000000000081526020017f00000000000000000000000000000000000000000000000000000000000000006001600160a01b031681526020017f00000000000000000000000000000000000000000000000000000000000000001515815250905061015e565b81601c1415612c30576040518061010001604052807f00000000000000000000000000000000000000000000000000000000000000006001600160a01b031681526020017f00000000000000000000000000000000000000000000000000000000000000006001600160a01b031681526020017f000000000000000000000000000000000000000000000000000000000000000081526020017f000000000000000000000000000000000000000000000000000000000000000081526020017f00000000000000000000000000000000000000000000000000000000000000006002811115612ba957fe5b81526020017f000000000000000000000000000000000000000000000000000000000000000081526020017f00000000000000000000000000000000000000000000000000000000000000006001600160a01b031681526020017f00000000000000000000000000000000000000000000000000000000000000001515815250905061015e565b81601d141561015e576040518061010001604052807f00000000000000000000000000000000000000000000000000000000000000006001600160a01b031681526020017f00000000000000000000000000000000000000000000000000000000000000006001600160a01b031681526020017f000000000000000000000000000000000000000000000000000000000000000081526020017f000000000000000000000000000000000000000000000000000000000000000081526020017f00000000000000000000000000000000000000000000000000000000000000006002811115612d1b57fe5b81526020017f000000000000000000000000000000000000000000000000000000000000000081526020017f00000000000000000000000000000000000000000000000000000000000000006001600160a01b031681526020017f00000000000000000000000000000000000000000000000000000000000000001515815250905061015e565b7f000000000000000000000000000000000000000000000000000000000000000081565b601e81565b612dd3614394565b6000612dde83613bd6565b90506000198114612df25761018a81610203565b612e66836001600160a01b0316636f307dc36040518163ffffffff1660e01b815260040160206040518083038186803b158015612e2e57600080fd5b505afa158015612e42573d6000803e3d6000fd5b505050506040513d601f19601f820116820180604052508101906100f791906143f5565b9392505050565b60007f0000000000000000000000000000000000000000000000000000000000000000821415612e9f5750600061015e565b7f0000000000000000000000000000000000000000000000000000000000000000821415612ecf5750600161015e565b7f0000000000000000000000000000000000000000000000000000000000000000821415612eff5750600261015e565b7f0000000000000000000000000000000000000000000000000000000000000000821415612f2f5750600361015e565b7f0000000000000000000000000000000000000000000000000000000000000000821415612f5f5750600461015e565b7f0000000000000000000000000000000000000000000000000000000000000000821415612f8f5750600561015e565b7f0000000000000000000000000000000000000000000000000000000000000000821415612fbf5750600661015e565b7f0000000000000000000000000000000000000000000000000000000000000000821415612fef5750600761015e565b7f000000000000000000000000000000000000000000000000000000000000000082141561301f5750600861015e565b7f000000000000000000000000000000000000000000000000000000000000000082141561304f5750600961015e565b7f000000000000000000000000000000000000000000000000000000000000000082141561307f5750600a61015e565b7f00000000000000000000000000000000000000000000000000000000000000008214156130af5750600b61015e565b7f00000000000000000000000000000000000000000000000000000000000000008214156130df5750600c61015e565b7f000000000000000000000000000000000000000000000000000000000000000082141561310f5750600d61015e565b7f000000000000000000000000000000000000000000000000000000000000000082141561313f5750600e61015e565b7f000000000000000000000000000000000000000000000000000000000000000082141561316f5750600f61015e565b7f000000000000000000000000000000000000000000000000000000000000000082141561319f5750601061015e565b7f00000000000000000000000000000000000000000000000000000000000000008214156131cf5750601161015e565b7f00000000000000000000000000000000000000000000000000000000000000008214156131ff5750601261015e565b7f000000000000000000000000000000000000000000000000000000000000000082141561322f5750601361015e565b7f000000000000000000000000000000000000000000000000000000000000000082141561325f5750601461015e565b7f000000000000000000000000000000000000000000000000000000000000000082141561328f5750601561015e565b7f00000000000000000000000000000000000000000000000000000000000000008214156132bf5750601661015e565b7f00000000000000000000000000000000000000000000000000000000000000008214156132ef5750601761015e565b7f000000000000000000000000000000000000000000000000000000000000000082141561331f5750601861015e565b7f000000000000000000000000000000000000000000000000000000000000000082141561334f5750601961015e565b7f000000000000000000000000000000000000000000000000000000000000000082141561337f5750601a61015e565b7f00000000000000000000000000000000000000000000000000000000000000008214156133af5750601b61015e565b7f00000000000000000000000000000000000000000000000000000000000000008214156133df5750601c61015e565b7f000000000000000000000000000000000000000000000000000000000000000082141561340f5750601d61015e565b50600019919050565b60007f00000000000000000000000000000000000000000000000000000000000000006001600160a01b0316826001600160a01b0316141561345c5750600061015e565b7f00000000000000000000000000000000000000000000000000000000000000006001600160a01b0316826001600160a01b0316141561349e5750600161015e565b7f00000000000000000000000000000000000000000000000000000000000000006001600160a01b0316826001600160a01b031614156134e05750600261015e565b7f00000000000000000000000000000000000000000000000000000000000000006001600160a01b0316826001600160a01b031614156135225750600361015e565b7f00000000000000000000000000000000000000000000000000000000000000006001600160a01b0316826001600160a01b031614156135645750600461015e565b7f00000000000000000000000000000000000000000000000000000000000000006001600160a01b0316826001600160a01b031614156135a65750600561015e565b7f00000000000000000000000000000000000000000000000000000000000000006001600160a01b0316826001600160a01b031614156135e85750600661015e565b7f00000000000000000000000000000000000000000000000000000000000000006001600160a01b0316826001600160a01b0316141561362a5750600761015e565b7f00000000000000000000000000000000000000000000000000000000000000006001600160a01b0316826001600160a01b0316141561366c5750600861015e565b7f00000000000000000000000000000000000000000000000000000000000000006001600160a01b0316826001600160a01b031614156136ae5750600961015e565b7f00000000000000000000000000000000000000000000000000000000000000006001600160a01b0316826001600160a01b031614156136f05750600a61015e565b7f00000000000000000000000000000000000000000000000000000000000000006001600160a01b0316826001600160a01b031614156137325750600b61015e565b7f00000000000000000000000000000000000000000000000000000000000000006001600160a01b0316826001600160a01b031614156137745750600c61015e565b7f00000000000000000000000000000000000000000000000000000000000000006001600160a01b0316826001600160a01b031614156137b65750600d61015e565b7f00000000000000000000000000000000000000000000000000000000000000006001600160a01b0316826001600160a01b031614156137f85750600e61015e565b7f00000000000000000000000000000000000000000000000000000000000000006001600160a01b0316826001600160a01b0316141561383a5750600f61015e565b7f00000000000000000000000000000000000000000000000000000000000000006001600160a01b0316826001600160a01b0316141561387c5750601061015e565b7f00000000000000000000000000000000000000000000000000000000000000006001600160a01b0316826001600160a01b031614156138be5750601161015e565b7f00000000000000000000000000000000000000000000000000000000000000006001600160a01b0316826001600160a01b031614156139005750601261015e565b7f00000000000000000000000000000000000000000000000000000000000000006001600160a01b0316826001600160a01b031614156139425750601361015e565b7f00000000000000000000000000000000000000000000000000000000000000006001600160a01b0316826001600160a01b031614156139845750601461015e565b7f00000000000000000000000000000000000000000000000000000000000000006001600160a01b0316826001600160a01b031614156139c65750601561015e565b7f00000000000000000000000000000000000000000000000000000000000000006001600160a01b0316826001600160a01b03161415613a085750601661015e565b7f00000000000000000000000000000000000000000000000000000000000000006001600160a01b0316826001600160a01b03161415613a4a5750601761015e565b7f00000000000000000000000000000000000000000000000000000000000000006001600160a01b0316826001600160a01b03161415613a8c5750601861015e565b7f00000000000000000000000000000000000000000000000000000000000000006001600160a01b0316826001600160a01b03161415613ace5750601961015e565b7f00000000000000000000000000000000000000000000000000000000000000006001600160a01b0316826001600160a01b03161415613b105750601a61015e565b7f00000000000000000000000000000000000000000000000000000000000000006001600160a01b0316826001600160a01b03161415613b525750601b61015e565b7f00000000000000000000000000000000000000000000000000000000000000006001600160a01b0316826001600160a01b03161415613b945750601c61015e565b7f00000000000000000000000000000000000000000000000000000000000000006001600160a01b0316826001600160a01b0316141561340f5750601d61015e565b60007f00000000000000000000000000000000000000000000000000000000000000006001600160a01b0316826001600160a01b03161415613c1a5750600061015e565b7f00000000000000000000000000000000000000000000000000000000000000006001600160a01b0316826001600160a01b03161415613c5c5750600161015e565b7f00000000000000000000000000000000000000000000000000000000000000006001600160a01b0316826001600160a01b03161415613c9e5750600261015e565b7f00000000000000000000000000000000000000000000000000000000000000006001600160a01b0316826001600160a01b03161415613ce05750600361015e565b7f00000000000000000000000000000000000000000000000000000000000000006001600160a01b0316826001600160a01b03161415613d225750600461015e565b7f00000000000000000000000000000000000000000000000000000000000000006001600160a01b0316826001600160a01b03161415613d645750600561015e565b7f00000000000000000000000000000000000000000000000000000000000000006001600160a01b0316826001600160a01b03161415613da65750600661015e565b7f00000000000000000000000000000000000000000000000000000000000000006001600160a01b0316826001600160a01b03161415613de85750600761015e565b7f00000000000000000000000000000000000000000000000000000000000000006001600160a01b0316826001600160a01b03161415613e2a5750600861015e565b7f00000000000000000000000000000000000000000000000000000000000000006001600160a01b0316826001600160a01b03161415613e6c5750600961015e565b7f00000000000000000000000000000000000000000000000000000000000000006001600160a01b0316826001600160a01b03161415613eae5750600a61015e565b7f00000000000000000000000000000000000000000000000000000000000000006001600160a01b0316826001600160a01b03161415613ef05750600b61015e565b7f00000000000000000000000000000000000000000000000000000000000000006001600160a01b0316826001600160a01b03161415613f325750600c61015e565b7f00000000000000000000000000000000000000000000000000000000000000006001600160a01b0316826001600160a01b03161415613f745750600d61015e565b7f00000000000000000000000000000000000000000000000000000000000000006001600160a01b0316826001600160a01b03161415613fb65750600e61015e565b7f00000000000000000000000000000000000000000000000000000000000000006001600160a01b0316826001600160a01b03161415613ff85750600f61015e565b7f00000000000000000000000000000000000000000000000000000000000000006001600160a01b0316826001600160a01b0316141561403a5750601061015e565b7f00000000000000000000000000000000000000000000000000000000000000006001600160a01b0316826001600160a01b0316141561407c5750601161015e565b7f00000000000000000000000000000000000000000000000000000000000000006001600160a01b0316826001600160a01b031614156140be5750601261015e565b7f00000000000000000000000000000000000000000000000000000000000000006001600160a01b0316826001600160a01b031614156141005750601361015e565b7f00000000000000000000000000000000000000000000000000000000000000006001600160a01b0316826001600160a01b031614156141425750601461015e565b7f00000000000000000000000000000000000000000000000000000000000000006001600160a01b0316826001600160a01b031614156141845750601561015e565b7f00000000000000000000000000000000000000000000000000000000000000006001600160a01b0316826001600160a01b031614156141c65750601661015e565b7f00000000000000000000000000000000000000000000000000000000000000006001600160a01b0316826001600160a01b031614156142085750601761015e565b7f00000000000000000000000000000000000000000000000000000000000000006001600160a01b0316826001600160a01b0316141561424a5750601861015e565b7f00000000000000000000000000000000000000000000000000000000000000006001600160a01b0316826001600160a01b0316141561428c5750601961015e565b7f00000000000000000000000000000000000000000000000000000000000000006001600160a01b0316826001600160a01b031614156142ce5750601a61015e565b7f00000000000000000000000000000000000000000000000000000000000000006001600160a01b0316826001600160a01b031614156143105750601b61015e565b7f00000000000000000000000000000000000000000000000000000000000000006001600160a01b0316826001600160a01b031614156143525750601c61015e565b7f00000000000000000000000000000000000000000000000000000000000000006001600160a01b0316826001600160a01b0316141561340f5750601d61015e565b60408051610100810182526000808252602082018190529181018290526060810182905290608082019081526000602082018190526040820181905260609091015290565b6000602082840312156143ea578081fd5b8135612e66816145d7565b600060208284031215614406578081fd5b8151612e66816145d7565b600060208284031215614422578081fd5b5035919050565b60006020828403121561443a578081fd5b813567ffffffffffffffff80821115614451578283fd5b81840185601f820112614462578384fd5b8035925081831115614472578384fd5b604051601f8401601f191681016020018381118282101715614492578586fd5b6040528381528184016020018710156144a9578485fd5b6144ba8460208301602085016145cb565b9695505050505050565b6001600160a01b03169052565b15159052565b60008251815b818110156144f757602081860181015185830152016144dd565b818111156145055782828501525b509190910192915050565b90815260200190565b6020808252601690820152751d1bdad95b8818dbdb999a59c81b9bdd08199bdd5b9960521b604082015260600190565b81516001600160a01b03908116825260208084015190911690820152604080830151908201526060808301519082015260808201516101008201906003811061458e57fe5b8060808401525060a083015160a083015260c08301516145b160c08401826144c4565b5060e08301516145c460e08401826144d1565b5092915050565b82818337506000910152565b6001600160a01b03811681146145ec57600080fd5b5056fea2646970667358221220f89399666bcb95dbbbc708eb21d6fba4e5e441020685a9851490e6e7fb9b7be564736f6c634300060a0033",
			"opcodes": "PUSH2 0x1EA0 PUSH1 0x40 MSTORE CALLVALUE DUP1 ISZERO PUSH3 0x12 JUMPI PUSH1 0x0 DUP1 REVERT JUMPDEST POP PUSH1 0x40 MLOAD PUSH3 0x778D CODESIZE SUB DUP1 PUSH3 0x778D DUP4 CODECOPY DUP2 ADD PUSH1 0x40 DUP2 SWAP1 MSTORE PUSH3 0x35 SWAP2 PUSH3 0x2344 JUMP JUMPDEST PUSH1 0x1E DUP2 MLOAD GT ISZERO PUSH3 0x63 JUMPI PUSH1 0x40 MLOAD PUSH3 0x461BCD PUSH1 0xE5 SHL DUP2 MSTORE PUSH1 0x4 ADD PUSH3 0x5A SWAP1 PUSH3 0x23F6 JUMP JUMPDEST PUSH1 0x40 MLOAD DUP1 SWAP2 SUB SWAP1 REVERT JUMPDEST DUP1 MLOAD PUSH1 0x80 MSTORE PUSH3 0x7E DUP2 PUSH1 0x0 PUSH1 0x1 PUSH1 0x1 PUSH1 0xE0 SHL SUB PUSH3 0x21B4 AND JUMP JUMPDEST MLOAD PUSH1 0x60 SHL PUSH1 0x1 PUSH1 0x1 PUSH1 0x60 SHL SUB NOT AND PUSH1 0xA0 MSTORE PUSH3 0x9C DUP2 PUSH1 0x1 PUSH3 0x21B4 JUMP JUMPDEST MLOAD PUSH1 0x60 SHL PUSH1 0x1 PUSH1 0x1 PUSH1 0x60 SHL SUB NOT AND PUSH1 0xC0 MSTORE PUSH3 0xBA DUP2 PUSH1 0x2 PUSH3 0x21B4 JUMP JUMPDEST MLOAD PUSH1 0x60 SHL PUSH1 0x1 PUSH1 0x1 PUSH1 0x60 SHL SUB NOT AND PUSH1 0xE0 MSTORE PUSH3 0xD8 DUP2 PUSH1 0x3 PUSH3 0x21B4 JUMP JUMPDEST MLOAD PUSH1 0x60 SHL PUSH1 0x1 PUSH1 0x1 PUSH1 0x60 SHL SUB NOT AND PUSH2 0x100 MSTORE PUSH3 0xF7 DUP2 PUSH1 0x4 PUSH3 0x21B4 JUMP JUMPDEST MLOAD PUSH1 0x60 SHL PUSH1 0x1 PUSH1 0x1 PUSH1 0x60 SHL SUB NOT AND PUSH2 0x120 MSTORE PUSH3 0x116 DUP2 PUSH1 0x5 PUSH3 0x21B4 JUMP JUMPDEST MLOAD PUSH1 0x60 SHL PUSH1 0x1 PUSH1 0x1 PUSH1 0x60 SHL SUB NOT AND PUSH2 0x140 MSTORE PUSH3 0x135 DUP2 PUSH1 0x6 PUSH3 0x21B4 JUMP JUMPDEST MLOAD PUSH1 0x60 SHL PUSH1 0x1 PUSH1 0x1 PUSH1 0x60 SHL SUB NOT AND PUSH2 0x160 MSTORE PUSH3 0x154 DUP2 PUSH1 0x7 PUSH3 0x21B4 JUMP JUMPDEST MLOAD PUSH1 0x60 SHL PUSH1 0x1 PUSH1 0x1 PUSH1 0x60 SHL SUB NOT AND PUSH2 0x180 MSTORE PUSH3 0x173 DUP2 PUSH1 0x8 PUSH3 0x21B4 JUMP JUMPDEST MLOAD PUSH1 0x60 SHL PUSH1 0x1 PUSH1 0x1 PUSH1 0x60 SHL SUB NOT AND PUSH2 0x1A0 MSTORE PUSH3 0x192 DUP2 PUSH1 0x9 PUSH3 0x21B4 JUMP JUMPDEST MLOAD PUSH1 0x60 SHL PUSH1 0x1 PUSH1 0x1 PUSH1 0x60 SHL SUB NOT AND PUSH2 0x1C0 MSTORE PUSH3 0x1B1 DUP2 PUSH1 0xA PUSH3 0x21B4 JUMP JUMPDEST MLOAD PUSH1 0x60 SHL PUSH1 0x1 PUSH1 0x1 PUSH1 0x60 SHL SUB NOT AND PUSH2 0x1E0 MSTORE PUSH3 0x1D0 DUP2 PUSH1 0xB PUSH3 0x21B4 JUMP JUMPDEST MLOAD PUSH1 0x60 SHL PUSH1 0x1 PUSH1 0x1 PUSH1 0x60 SHL SUB NOT AND PUSH2 0x200 MSTORE PUSH3 0x1EF DUP2 PUSH1 0xC PUSH3 0x21B4 JUMP JUMPDEST MLOAD PUSH1 0x60 SHL PUSH1 0x1 PUSH1 0x1 PUSH1 0x60 SHL SUB NOT AND PUSH2 0x220 MSTORE PUSH3 0x20E DUP2 PUSH1 0xD PUSH3 0x21B4 JUMP JUMPDEST MLOAD PUSH1 0x60 SHL PUSH1 0x1 PUSH1 0x1 PUSH1 0x60 SHL SUB NOT AND PUSH2 0x240 MSTORE PUSH3 0x22D DUP2 PUSH1 0xE PUSH3 0x21B4 JUMP JUMPDEST MLOAD PUSH1 0x60 SHL PUSH1 0x1 PUSH1 0x1 PUSH1 0x60 SHL SUB NOT AND PUSH2 0x260 MSTORE PUSH3 0x24C DUP2 PUSH1 0xF PUSH3 0x21B4 JUMP JUMPDEST MLOAD PUSH1 0x60 SHL PUSH1 0x1 PUSH1 0x1 PUSH1 0x60 SHL SUB NOT AND PUSH2 0x280 MSTORE PUSH3 0x26B DUP2 PUSH1 0x10 PUSH3 0x21B4 JUMP JUMPDEST MLOAD PUSH1 0x60 SHL PUSH1 0x1 PUSH1 0x1 PUSH1 0x60 SHL SUB NOT AND PUSH2 0x2A0 MSTORE PUSH3 0x28A DUP2 PUSH1 0x11 PUSH3 0x21B4 JUMP JUMPDEST MLOAD PUSH1 0x60 SHL PUSH1 0x1 PUSH1 0x1 PUSH1 0x60 SHL SUB NOT AND PUSH2 0x2C0 MSTORE PUSH3 0x2A9 DUP2 PUSH1 0x12 PUSH3 0x21B4 JUMP JUMPDEST MLOAD PUSH1 0x60 SHL PUSH1 0x1 PUSH1 0x1 PUSH1 0x60 SHL SUB NOT AND PUSH2 0x2E0 MSTORE PUSH3 0x2C8 DUP2 PUSH1 0x13 PUSH3 0x21B4 JUMP JUMPDEST MLOAD PUSH1 0x60 SHL PUSH1 0x1 PUSH1 0x1 PUSH1 0x60 SHL SUB NOT AND PUSH2 0x300 MSTORE PUSH3 0x2E7 DUP2 PUSH1 0x14 PUSH3 0x21B4 JUMP JUMPDEST MLOAD PUSH1 0x60 SHL PUSH1 0x1 PUSH1 0x1 PUSH1 0x60 SHL SUB NOT AND PUSH2 0x320 MSTORE PUSH3 0x306 DUP2 PUSH1 0x15 PUSH3 0x21B4 JUMP JUMPDEST MLOAD PUSH1 0x60 SHL PUSH1 0x1 PUSH1 0x1 PUSH1 0x60 SHL SUB NOT AND PUSH2 0x340 MSTORE PUSH3 0x325 DUP2 PUSH1 0x16 PUSH3 0x21B4 JUMP JUMPDEST MLOAD PUSH1 0x60 SHL PUSH1 0x1 PUSH1 0x1 PUSH1 0x60 SHL SUB NOT AND PUSH2 0x360 MSTORE PUSH3 0x344 DUP2 PUSH1 0x17 PUSH3 0x21B4 JUMP JUMPDEST MLOAD PUSH1 0x60 SHL PUSH1 0x1 PUSH1 0x1 PUSH1 0x60 SHL SUB NOT AND PUSH2 0x380 MSTORE PUSH3 0x363 DUP2 PUSH1 0x18 PUSH3 0x21B4 JUMP JUMPDEST MLOAD PUSH1 0x60 SHL PUSH1 0x1 PUSH1 0x1 PUSH1 0x60 SHL SUB NOT AND PUSH2 0x3A0 MSTORE PUSH3 0x382 DUP2 PUSH1 0x19 PUSH3 0x21B4 JUMP JUMPDEST MLOAD PUSH1 0x60 SHL PUSH1 0x1 PUSH1 0x1 PUSH1 0x60 SHL SUB NOT AND PUSH2 0x3C0 MSTORE PUSH3 0x3A1 DUP2 PUSH1 0x1A PUSH3 0x21B4 JUMP JUMPDEST MLOAD PUSH1 0x60 SHL PUSH1 0x1 PUSH1 0x1 PUSH1 0x60 SHL SUB NOT AND PUSH2 0x3E0 MSTORE PUSH3 0x3C0 DUP2 PUSH1 0x1B PUSH3 0x21B4 JUMP JUMPDEST MLOAD PUSH1 0x60 SHL PUSH1 0x1 PUSH1 0x1 PUSH1 0x60 SHL SUB NOT AND PUSH2 0x400 MSTORE PUSH3 0x3DF DUP2 PUSH1 0x1C PUSH3 0x21B4 JUMP JUMPDEST MLOAD PUSH1 0x60 SHL PUSH1 0x1 PUSH1 0x1 PUSH1 0x60 SHL SUB NOT AND PUSH2 0x420 MSTORE PUSH3 0x3FE DUP2 PUSH1 0x1D PUSH3 0x21B4 JUMP JUMPDEST MLOAD PUSH1 0x60 SHL PUSH1 0x1 PUSH1 0x1 PUSH1 0x60 SHL SUB NOT AND PUSH2 0x440 MSTORE PUSH3 0x41D DUP2 PUSH1 0x0 PUSH3 0x21B4 JUMP JUMPDEST PUSH1 0x20 ADD MLOAD PUSH1 0x60 SHL PUSH1 0x1 PUSH1 0x1 PUSH1 0x60 SHL SUB NOT AND PUSH2 0x460 MSTORE PUSH3 0x43F DUP2 PUSH1 0x1 PUSH3 0x21B4 JUMP JUMPDEST PUSH1 0x20 ADD MLOAD PUSH1 0x60 SHL PUSH1 0x1 PUSH1 0x1 PUSH1 0x60 SHL SUB NOT AND PUSH2 0x480 MSTORE PUSH3 0x461 DUP2 PUSH1 0x2 PUSH3 0x21B4 JUMP JUMPDEST PUSH1 0x20 ADD MLOAD PUSH1 0x60 SHL PUSH1 0x1 PUSH1 0x1 PUSH1 0x60 SHL SUB NOT AND PUSH2 0x4A0 MSTORE PUSH3 0x483 DUP2 PUSH1 0x3 PUSH3 0x21B4 JUMP JUMPDEST PUSH1 0x20 ADD MLOAD PUSH1 0x60 SHL PUSH1 0x1 PUSH1 0x1 PUSH1 0x60 SHL SUB NOT AND PUSH2 0x4C0 MSTORE PUSH3 0x4A5 DUP2 PUSH1 0x4 PUSH3 0x21B4 JUMP JUMPDEST PUSH1 0x20 ADD MLOAD PUSH1 0x60 SHL PUSH1 0x1 PUSH1 0x1 PUSH1 0x60 SHL SUB NOT AND PUSH2 0x4E0 MSTORE PUSH3 0x4C7 DUP2 PUSH1 0x5 PUSH3 0x21B4 JUMP JUMPDEST PUSH1 0x20 ADD MLOAD PUSH1 0x60 SHL PUSH1 0x1 PUSH1 0x1 PUSH1 0x60 SHL SUB NOT AND PUSH2 0x500 MSTORE PUSH3 0x4E9 DUP2 PUSH1 0x6 PUSH3 0x21B4 JUMP JUMPDEST PUSH1 0x20 ADD MLOAD PUSH1 0x60 SHL PUSH1 0x1 PUSH1 0x1 PUSH1 0x60 SHL SUB NOT AND PUSH2 0x520 MSTORE PUSH3 0x50B DUP2 PUSH1 0x7 PUSH3 0x21B4 JUMP JUMPDEST PUSH1 0x20 ADD MLOAD PUSH1 0x60 SHL PUSH1 0x1 PUSH1 0x1 PUSH1 0x60 SHL SUB NOT AND PUSH2 0x540 MSTORE PUSH3 0x52D DUP2 PUSH1 0x8 PUSH3 0x21B4 JUMP JUMPDEST PUSH1 0x20 ADD MLOAD PUSH1 0x60 SHL PUSH1 0x1 PUSH1 0x1 PUSH1 0x60 SHL SUB NOT AND PUSH2 0x560 MSTORE PUSH3 0x54F DUP2 PUSH1 0x9 PUSH3 0x21B4 JUMP JUMPDEST PUSH1 0x20 ADD MLOAD PUSH1 0x60 SHL PUSH1 0x1 PUSH1 0x1 PUSH1 0x60 SHL SUB NOT AND PUSH2 0x580 MSTORE PUSH3 0x571 DUP2 PUSH1 0xA PUSH3 0x21B4 JUMP JUMPDEST PUSH1 0x20 ADD MLOAD PUSH1 0x60 SHL PUSH1 0x1 PUSH1 0x1 PUSH1 0x60 SHL SUB NOT AND PUSH2 0x5A0 MSTORE PUSH3 0x593 DUP2 PUSH1 0xB PUSH3 0x21B4 JUMP JUMPDEST PUSH1 0x20 ADD MLOAD PUSH1 0x60 SHL PUSH1 0x1 PUSH1 0x1 PUSH1 0x60 SHL SUB NOT AND PUSH2 0x5C0 MSTORE PUSH3 0x5B5 DUP2 PUSH1 0xC PUSH3 0x21B4 JUMP JUMPDEST PUSH1 0x20 ADD MLOAD PUSH1 0x60 SHL PUSH1 0x1 PUSH1 0x1 PUSH1 0x60 SHL SUB NOT AND PUSH2 0x5E0 MSTORE PUSH3 0x5D7 DUP2 PUSH1 0xD PUSH3 0x21B4 JUMP JUMPDEST PUSH1 0x20 ADD MLOAD PUSH1 0x60 SHL PUSH1 0x1 PUSH1 0x1 PUSH1 0x60 SHL SUB NOT AND PUSH2 0x600 MSTORE PUSH3 0x5F9 DUP2 PUSH1 0xE PUSH3 0x21B4 JUMP JUMPDEST PUSH1 0x20 ADD MLOAD PUSH1 0x60 SHL PUSH1 0x1 PUSH1 0x1 PUSH1 0x60 SHL SUB NOT AND PUSH2 0x620 MSTORE PUSH3 0x61B DUP2 PUSH1 0xF PUSH3 0x21B4 JUMP JUMPDEST PUSH1 0x20 ADD MLOAD PUSH1 0x60 SHL PUSH1 0x1 PUSH1 0x1 PUSH1 0x60 SHL SUB NOT AND PUSH2 0x640 MSTORE PUSH3 0x63D DUP2 PUSH1 0x10 PUSH3 0x21B4 JUMP JUMPDEST PUSH1 0x20 ADD MLOAD PUSH1 0x60 SHL PUSH1 0x1 PUSH1 0x1 PUSH1 0x60 SHL SUB NOT AND PUSH2 0x660 MSTORE PUSH3 0x65F DUP2 PUSH1 0x11 PUSH3 0x21B4 JUMP JUMPDEST PUSH1 0x20 ADD MLOAD PUSH1 0x60 SHL PUSH1 0x1 PUSH1 0x1 PUSH1 0x60 SHL SUB NOT AND PUSH2 0x680 MSTORE PUSH3 0x681 DUP2 PUSH1 0x12 PUSH3 0x21B4 JUMP JUMPDEST PUSH1 0x20 ADD MLOAD PUSH1 0x60 SHL PUSH1 0x1 PUSH1 0x1 PUSH1 0x60 SHL SUB NOT AND PUSH2 0x6A0 MSTORE PUSH3 0x6A3 DUP2 PUSH1 0x13 PUSH3 0x21B4 JUMP JUMPDEST PUSH1 0x20 ADD MLOAD PUSH1 0x60 SHL PUSH1 0x1 PUSH1 0x1 PUSH1 0x60 SHL SUB NOT AND PUSH2 0x6C0 MSTORE PUSH3 0x6C5 DUP2 PUSH1 0x14 PUSH3 0x21B4 JUMP JUMPDEST PUSH1 0x20 ADD MLOAD PUSH1 0x60 SHL PUSH1 0x1 PUSH1 0x1 PUSH1 0x60 SHL SUB NOT AND PUSH2 0x6E0 MSTORE PUSH3 0x6E7 DUP2 PUSH1 0x15 PUSH3 0x21B4 JUMP JUMPDEST PUSH1 0x20 ADD MLOAD PUSH1 0x60 SHL PUSH1 0x1 PUSH1 0x1 PUSH1 0x60 SHL SUB NOT AND PUSH2 0x700 MSTORE PUSH3 0x709 DUP2 PUSH1 0x16 PUSH3 0x21B4 JUMP JUMPDEST PUSH1 0x20 ADD MLOAD PUSH1 0x60 SHL PUSH1 0x1 PUSH1 0x1 PUSH1 0x60 SHL SUB NOT AND PUSH2 0x720 MSTORE PUSH3 0x72B DUP2 PUSH1 0x17 PUSH3 0x21B4 JUMP JUMPDEST PUSH1 0x20 ADD MLOAD PUSH1 0x60 SHL PUSH1 0x1 PUSH1 0x1 PUSH1 0x60 SHL SUB NOT AND PUSH2 0x740 MSTORE PUSH3 0x74D DUP2 PUSH1 0x18 PUSH3 0x21B4 JUMP JUMPDEST PUSH1 0x20 ADD MLOAD PUSH1 0x60 SHL PUSH1 0x1 PUSH1 0x1 PUSH1 0x60 SHL SUB NOT AND PUSH2 0x760 MSTORE PUSH3 0x76F DUP2 PUSH1 0x19 PUSH3 0x21B4 JUMP JUMPDEST PUSH1 0x20 ADD MLOAD PUSH1 0x60 SHL PUSH1 0x1 PUSH1 0x1 PUSH1 0x60 SHL SUB NOT AND PUSH2 0x780 MSTORE PUSH3 0x791 DUP2 PUSH1 0x1A PUSH3 0x21B4 JUMP JUMPDEST PUSH1 0x20 ADD MLOAD PUSH1 0x60 SHL PUSH1 0x1 PUSH1 0x1 PUSH1 0x60 SHL SUB NOT AND PUSH2 0x7A0 MSTORE PUSH3 0x7B3 DUP2 PUSH1 0x1B PUSH3 0x21B4 JUMP JUMPDEST PUSH1 0x20 ADD MLOAD PUSH1 0x60 SHL PUSH1 0x1 PUSH1 0x1 PUSH1 0x60 SHL SUB NOT AND PUSH2 0x7C0 MSTORE PUSH3 0x7D5 DUP2 PUSH1 0x1C PUSH3 0x21B4 JUMP JUMPDEST PUSH1 0x20 ADD MLOAD PUSH1 0x60 SHL PUSH1 0x1 PUSH1 0x1 PUSH1 0x60 SHL SUB NOT AND PUSH2 0x7E0 MSTORE PUSH3 0x7F7 DUP2 PUSH1 0x1D PUSH3 0x21B4 JUMP JUMPDEST PUSH1 0x20 ADD MLOAD PUSH1 0x60 SHL PUSH1 0x1 PUSH1 0x1 PUSH1 0x60 SHL SUB NOT AND PUSH2 0x800 MSTORE PUSH3 0x819 DUP2 PUSH1 0x0 PUSH3 0x21B4 JUMP JUMPDEST PUSH1 0x40 ADD MLOAD PUSH2 0x820 MSTORE PUSH3 0x837 DUP2 PUSH1 0x1 PUSH1 0x1 PUSH1 0x1 PUSH1 0xE0 SHL SUB PUSH3 0x21B4 AND JUMP JUMPDEST PUSH1 0x40 ADD MLOAD PUSH2 0x840 MSTORE PUSH3 0x855 DUP2 PUSH1 0x2 PUSH1 0x1 PUSH1 0x1 PUSH1 0xE0 SHL SUB PUSH3 0x21B4 AND JUMP JUMPDEST PUSH1 0x40 ADD MLOAD PUSH2 0x860 MSTORE PUSH3 0x873 DUP2 PUSH1 0x3 PUSH1 0x1 PUSH1 0x1 PUSH1 0xE0 SHL SUB PUSH3 0x21B4 AND JUMP JUMPDEST PUSH1 0x40 ADD MLOAD PUSH2 0x880 MSTORE PUSH3 0x891 DUP2 PUSH1 0x4 PUSH1 0x1 PUSH1 0x1 PUSH1 0xE0 SHL SUB PUSH3 0x21B4 AND JUMP JUMPDEST PUSH1 0x40 ADD MLOAD PUSH2 0x8A0 MSTORE PUSH3 0x8AF DUP2 PUSH1 0x5 PUSH1 0x1 PUSH1 0x1 PUSH1 0xE0 SHL SUB PUSH3 0x21B4 AND JUMP JUMPDEST PUSH1 0x40 ADD MLOAD PUSH2 0x8C0 MSTORE PUSH3 0x8CD DUP2 PUSH1 0x6 PUSH1 0x1 PUSH1 0x1 PUSH1 0xE0 SHL SUB PUSH3 0x21B4 AND JUMP JUMPDEST PUSH1 0x40 ADD MLOAD PUSH2 0x8E0 MSTORE PUSH3 0x8EB DUP2 PUSH1 0x7 PUSH1 0x1 PUSH1 0x1 PUSH1 0xE0 SHL SUB PUSH3 0x21B4 AND JUMP JUMPDEST PUSH1 0x40 ADD MLOAD PUSH2 0x900 MSTORE PUSH3 0x909 DUP2 PUSH1 0x8 PUSH1 0x1 PUSH1 0x1 PUSH1 0xE0 SHL SUB PUSH3 0x21B4 AND JUMP JUMPDEST PUSH1 0x40 ADD MLOAD PUSH2 0x920 MSTORE PUSH3 0x927 DUP2 PUSH1 0x9 PUSH1 0x1 PUSH1 0x1 PUSH1 0xE0 SHL SUB PUSH3 0x21B4 AND JUMP JUMPDEST PUSH1 0x40 ADD MLOAD PUSH2 0x940 MSTORE PUSH3 0x945 DUP2 PUSH1 0xA PUSH1 0x1 PUSH1 0x1 PUSH1 0xE0 SHL SUB PUSH3 0x21B4 AND JUMP JUMPDEST PUSH1 0x40 ADD MLOAD PUSH2 0x960 MSTORE PUSH3 0x963 DUP2 PUSH1 0xB PUSH1 0x1 PUSH1 0x1 PUSH1 0xE0 SHL SUB PUSH3 0x21B4 AND JUMP JUMPDEST PUSH1 0x40 ADD MLOAD PUSH2 0x980 MSTORE PUSH3 0x981 DUP2 PUSH1 0xC PUSH1 0x1 PUSH1 0x1 PUSH1 0xE0 SHL SUB PUSH3 0x21B4 AND JUMP JUMPDEST PUSH1 0x40 ADD MLOAD PUSH2 0x9A0 MSTORE PUSH3 0x99F DUP2 PUSH1 0xD PUSH1 0x1 PUSH1 0x1 PUSH1 0xE0 SHL SUB PUSH3 0x21B4 AND JUMP JUMPDEST PUSH1 0x40 ADD MLOAD PUSH2 0x9C0 MSTORE PUSH3 0x9BD DUP2 PUSH1 0xE PUSH1 0x1 PUSH1 0x1 PUSH1 0xE0 SHL SUB PUSH3 0x21B4 AND JUMP JUMPDEST PUSH1 0x40 ADD MLOAD PUSH2 0x9E0 MSTORE PUSH3 0x9DB DUP2 PUSH1 0xF PUSH1 0x1 PUSH1 0x1 PUSH1 0xE0 SHL SUB PUSH3 0x21B4 AND JUMP JUMPDEST PUSH1 0x40 ADD MLOAD PUSH2 0xA00 MSTORE PUSH3 0x9F9 DUP2 PUSH1 0x10 PUSH1 0x1 PUSH1 0x1 PUSH1 0xE0 SHL SUB PUSH3 0x21B4 AND JUMP JUMPDEST PUSH1 0x40 ADD MLOAD PUSH2 0xA20 MSTORE PUSH3 0xA17 DUP2 PUSH1 0x11 PUSH1 0x1 PUSH1 0x1 PUSH1 0xE0 SHL SUB PUSH3 0x21B4 AND JUMP JUMPDEST PUSH1 0x40 ADD MLOAD PUSH2 0xA40 MSTORE PUSH3 0xA35 DUP2 PUSH1 0x12 PUSH1 0x1 PUSH1 0x1 PUSH1 0xE0 SHL SUB PUSH3 0x21B4 AND JUMP JUMPDEST PUSH1 0x40 ADD MLOAD PUSH2 0xA60 MSTORE PUSH3 0xA53 DUP2 PUSH1 0x13 PUSH1 0x1 PUSH1 0x1 PUSH1 0xE0 SHL SUB PUSH3 0x21B4 AND JUMP JUMPDEST PUSH1 0x40 ADD MLOAD PUSH2 0xA80 MSTORE PUSH3 0xA71 DUP2 PUSH1 0x14 PUSH1 0x1 PUSH1 0x1 PUSH1 0xE0 SHL SUB PUSH3 0x21B4 AND JUMP JUMPDEST PUSH1 0x40 ADD MLOAD PUSH2 0xAA0 MSTORE PUSH3 0xA8F DUP2 PUSH1 0x15 PUSH1 0x1 PUSH1 0x1 PUSH1 0xE0 SHL SUB PUSH3 0x21B4 AND JUMP JUMPDEST PUSH1 0x40 ADD MLOAD PUSH2 0xAC0 MSTORE PUSH3 0xAAD DUP2 PUSH1 0x16 PUSH1 0x1 PUSH1 0x1 PUSH1 0xE0 SHL SUB PUSH3 0x21B4 AND JUMP JUMPDEST PUSH1 0x40 ADD MLOAD PUSH2 0xAE0 MSTORE PUSH3 0xACB DUP2 PUSH1 0x17 PUSH1 0x1 PUSH1 0x1 PUSH1 0xE0 SHL SUB PUSH3 0x21B4 AND JUMP JUMPDEST PUSH1 0x40 ADD MLOAD PUSH2 0xB00 MSTORE PUSH3 0xAE9 DUP2 PUSH1 0x18 PUSH1 0x1 PUSH1 0x1 PUSH1 0xE0 SHL SUB PUSH3 0x21B4 AND JUMP JUMPDEST PUSH1 0x40 ADD MLOAD PUSH2 0xB20 MSTORE PUSH3 0xB07 DUP2 PUSH1 0x19 PUSH1 0x1 PUSH1 0x1 PUSH1 0xE0 SHL SUB PUSH3 0x21B4 AND JUMP JUMPDEST PUSH1 0x40 ADD MLOAD PUSH2 0xB40 MSTORE PUSH3 0xB25 DUP2 PUSH1 0x1A PUSH1 0x1 PUSH1 0x1 PUSH1 0xE0 SHL SUB PUSH3 0x21B4 AND JUMP JUMPDEST PUSH1 0x40 ADD MLOAD PUSH2 0xB60 MSTORE PUSH3 0xB43 DUP2 PUSH1 0x1B PUSH1 0x1 PUSH1 0x1 PUSH1 0xE0 SHL SUB PUSH3 0x21B4 AND JUMP JUMPDEST PUSH1 0x40 ADD MLOAD PUSH2 0xB80 MSTORE PUSH3 0xB61 DUP2 PUSH1 0x1C PUSH1 0x1 PUSH1 0x1 PUSH1 0xE0 SHL SUB PUSH3 0x21B4 AND JUMP JUMPDEST PUSH1 0x40 ADD MLOAD PUSH2 0xBA0 MSTORE PUSH3 0xB7F DUP2 PUSH1 0x1D PUSH1 0x1 PUSH1 0x1 PUSH1 0xE0 SHL SUB PUSH3 0x21B4 AND JUMP JUMPDEST PUSH1 0x40 ADD MLOAD PUSH2 0xBC0 MSTORE PUSH3 0xB9D DUP2 PUSH1 0x0 PUSH1 0x1 PUSH1 0x1 PUSH1 0xE0 SHL SUB PUSH3 0x21B4 AND JUMP JUMPDEST PUSH1 0x60 ADD MLOAD PUSH2 0xBE0 MSTORE PUSH3 0xBBB DUP2 PUSH1 0x1 PUSH1 0x1 PUSH1 0x1 PUSH1 0xE0 SHL SUB PUSH3 0x21B4 AND JUMP JUMPDEST PUSH1 0x60 ADD MLOAD PUSH2 0xC00 MSTORE PUSH3 0xBD9 DUP2 PUSH1 0x2 PUSH1 0x1 PUSH1 0x1 PUSH1 0xE0 SHL SUB PUSH3 0x21B4 AND JUMP JUMPDEST PUSH1 0x60 ADD MLOAD PUSH2 0xC20 MSTORE PUSH3 0xBF7 DUP2 PUSH1 0x3 PUSH1 0x1 PUSH1 0x1 PUSH1 0xE0 SHL SUB PUSH3 0x21B4 AND JUMP JUMPDEST PUSH1 0x60 ADD MLOAD PUSH2 0xC40 MSTORE PUSH3 0xC15 DUP2 PUSH1 0x4 PUSH1 0x1 PUSH1 0x1 PUSH1 0xE0 SHL SUB PUSH3 0x21B4 AND JUMP JUMPDEST PUSH1 0x60 ADD MLOAD PUSH2 0xC60 MSTORE PUSH3 0xC33 DUP2 PUSH1 0x5 PUSH1 0x1 PUSH1 0x1 PUSH1 0xE0 SHL SUB PUSH3 0x21B4 AND JUMP JUMPDEST PUSH1 0x60 ADD MLOAD PUSH2 0xC80 MSTORE PUSH3 0xC51 DUP2 PUSH1 0x6 PUSH1 0x1 PUSH1 0x1 PUSH1 0xE0 SHL SUB PUSH3 0x21B4 AND JUMP JUMPDEST PUSH1 0x60 ADD MLOAD PUSH2 0xCA0 MSTORE PUSH3 0xC6F DUP2 PUSH1 0x7 PUSH1 0x1 PUSH1 0x1 PUSH1 0xE0 SHL SUB PUSH3 0x21B4 AND JUMP JUMPDEST PUSH1 0x60 ADD MLOAD PUSH2 0xCC0 MSTORE PUSH3 0xC8D DUP2 PUSH1 0x8 PUSH1 0x1 PUSH1 0x1 PUSH1 0xE0 SHL SUB PUSH3 0x21B4 AND JUMP JUMPDEST PUSH1 0x60 ADD MLOAD PUSH2 0xCE0 MSTORE PUSH3 0xCAB DUP2 PUSH1 0x9 PUSH1 0x1 PUSH1 0x1 PUSH1 0xE0 SHL SUB PUSH3 0x21B4 AND JUMP JUMPDEST PUSH1 0x60 ADD MLOAD PUSH2 0xD00 MSTORE PUSH3 0xCC9 DUP2 PUSH1 0xA PUSH1 0x1 PUSH1 0x1 PUSH1 0xE0 SHL SUB PUSH3 0x21B4 AND JUMP JUMPDEST PUSH1 0x60 ADD MLOAD PUSH2 0xD20 MSTORE PUSH3 0xCE7 DUP2 PUSH1 0xB PUSH1 0x1 PUSH1 0x1 PUSH1 0xE0 SHL SUB PUSH3 0x21B4 AND JUMP JUMPDEST PUSH1 0x60 ADD MLOAD PUSH2 0xD40 MSTORE PUSH3 0xD05 DUP2 PUSH1 0xC PUSH1 0x1 PUSH1 0x1 PUSH1 0xE0 SHL SUB PUSH3 0x21B4 AND JUMP JUMPDEST PUSH1 0x60 ADD MLOAD PUSH2 0xD60 MSTORE PUSH3 0xD23 DUP2 PUSH1 0xD PUSH1 0x1 PUSH1 0x1 PUSH1 0xE0 SHL SUB PUSH3 0x21B4 AND JUMP JUMPDEST PUSH1 0x60 ADD MLOAD PUSH2 0xD80 MSTORE PUSH3 0xD41 DUP2 PUSH1 0xE PUSH1 0x1 PUSH1 0x1 PUSH1 0xE0 SHL SUB PUSH3 0x21B4 AND JUMP JUMPDEST PUSH1 0x60 ADD MLOAD PUSH2 0xDA0 MSTORE PUSH3 0xD5F DUP2 PUSH1 0xF PUSH1 0x1 PUSH1 0x1 PUSH1 0xE0 SHL SUB PUSH3 0x21B4 AND JUMP JUMPDEST PUSH1 0x60 ADD MLOAD PUSH2 0xDC0 MSTORE PUSH3 0xD7D DUP2 PUSH1 0x10 PUSH1 0x1 PUSH1 0x1 PUSH1 0xE0 SHL SUB PUSH3 0x21B4 AND JUMP JUMPDEST PUSH1 0x60 ADD MLOAD PUSH2 0xDE0 MSTORE PUSH3 0xD9B DUP2 PUSH1 0x11 PUSH1 0x1 PUSH1 0x1 PUSH1 0xE0 SHL SUB PUSH3 0x21B4 AND JUMP JUMPDEST PUSH1 0x60 ADD MLOAD PUSH2 0xE00 MSTORE PUSH3 0xDB9 DUP2 PUSH1 0x12 PUSH1 0x1 PUSH1 0x1 PUSH1 0xE0 SHL SUB PUSH3 0x21B4 AND JUMP JUMPDEST PUSH1 0x60 ADD MLOAD PUSH2 0xE20 MSTORE PUSH3 0xDD7 DUP2 PUSH1 0x13 PUSH1 0x1 PUSH1 0x1 PUSH1 0xE0 SHL SUB PUSH3 0x21B4 AND JUMP JUMPDEST PUSH1 0x60 ADD MLOAD PUSH2 0xE40 MSTORE PUSH3 0xDF5 DUP2 PUSH1 0x14 PUSH1 0x1 PUSH1 0x1 PUSH1 0xE0 SHL SUB PUSH3 0x21B4 AND JUMP JUMPDEST PUSH1 0x60 ADD MLOAD PUSH2 0xE60 MSTORE PUSH3 0xE13 DUP2 PUSH1 0x15 PUSH1 0x1 PUSH1 0x1 PUSH1 0xE0 SHL SUB PUSH3 0x21B4 AND JUMP JUMPDEST PUSH1 0x60 ADD MLOAD PUSH2 0xE80 MSTORE PUSH3 0xE31 DUP2 PUSH1 0x16 PUSH1 0x1 PUSH1 0x1 PUSH1 0xE0 SHL SUB PUSH3 0x21B4 AND JUMP JUMPDEST PUSH1 0x60 ADD MLOAD PUSH2 0xEA0 MSTORE PUSH3 0xE4F DUP2 PUSH1 0x17 PUSH1 0x1 PUSH1 0x1 PUSH1 0xE0 SHL SUB PUSH3 0x21B4 AND JUMP JUMPDEST PUSH1 0x60 ADD MLOAD PUSH2 0xEC0 MSTORE PUSH3 0xE6D DUP2 PUSH1 0x18 PUSH1 0x1 PUSH1 0x1 PUSH1 0xE0 SHL SUB PUSH3 0x21B4 AND JUMP JUMPDEST PUSH1 0x60 ADD MLOAD PUSH2 0xEE0 MSTORE PUSH3 0xE8B DUP2 PUSH1 0x19 PUSH1 0x1 PUSH1 0x1 PUSH1 0xE0 SHL SUB PUSH3 0x21B4 AND JUMP JUMPDEST PUSH1 0x60 ADD MLOAD PUSH2 0xF00 MSTORE PUSH3 0xEA9 DUP2 PUSH1 0x1A PUSH1 0x1 PUSH1 0x1 PUSH1 0xE0 SHL SUB PUSH3 0x21B4 AND JUMP JUMPDEST PUSH1 0x60 ADD MLOAD PUSH2 0xF20 MSTORE PUSH3 0xEC7 DUP2 PUSH1 0x1B PUSH1 0x1 PUSH1 0x1 PUSH1 0xE0 SHL SUB PUSH3 0x21B4 AND JUMP JUMPDEST PUSH1 0x60 ADD MLOAD PUSH2 0xF40 MSTORE PUSH3 0xEE5 DUP2 PUSH1 0x1C PUSH1 0x1 PUSH1 0x1 PUSH1 0xE0 SHL SUB PUSH3 0x21B4 AND JUMP JUMPDEST PUSH1 0x60 ADD MLOAD PUSH2 0xF60 MSTORE PUSH3 0xF03 DUP2 PUSH1 0x1D PUSH1 0x1 PUSH1 0x1 PUSH1 0xE0 SHL SUB PUSH3 0x21B4 AND JUMP JUMPDEST PUSH1 0x60 ADD MLOAD PUSH2 0xF80 MSTORE PUSH3 0xF21 DUP2 PUSH1 0x0 PUSH1 0x1 PUSH1 0x1 PUSH1 0xE0 SHL SUB PUSH3 0x21B4 AND JUMP JUMPDEST PUSH1 0x80 ADD MLOAD PUSH1 0x2 DUP2 GT ISZERO PUSH3 0xF31 JUMPI INVALID JUMPDEST PUSH2 0xFA0 DUP2 PUSH1 0x2 DUP2 GT ISZERO PUSH3 0xF41 JUMPI INVALID JUMPDEST PUSH1 0xF8 SHL SWAP1 MSTORE POP PUSH3 0xF5D DUP2 PUSH1 0x1 PUSH1 0x1 PUSH1 0x1 PUSH1 0xE0 SHL SUB PUSH3 0x21B4 AND JUMP JUMPDEST PUSH1 0x80 ADD MLOAD PUSH1 0x2 DUP2 GT ISZERO PUSH3 0xF6D JUMPI INVALID JUMPDEST PUSH2 0xFC0 DUP2 PUSH1 0x2 DUP2 GT ISZERO PUSH3 0xF7D JUMPI INVALID JUMPDEST PUSH1 0xF8 SHL SWAP1 MSTORE POP PUSH3 0xF99 DUP2 PUSH1 0x2 PUSH1 0x1 PUSH1 0x1 PUSH1 0xE0 SHL SUB PUSH3 0x21B4 AND JUMP JUMPDEST PUSH1 0x80 ADD MLOAD PUSH1 0x2 DUP2 GT ISZERO PUSH3 0xFA9 JUMPI INVALID JUMPDEST PUSH2 0xFE0 DUP2 PUSH1 0x2 DUP2 GT ISZERO PUSH3 0xFB9 JUMPI INVALID JUMPDEST PUSH1 0xF8 SHL SWAP1 MSTORE POP PUSH3 0xFD5 DUP2 PUSH1 0x3 PUSH1 0x1 PUSH1 0x1 PUSH1 0xE0 SHL SUB PUSH3 0x21B4 AND JUMP JUMPDEST PUSH1 0x80 ADD MLOAD PUSH1 0x2 DUP2 GT ISZERO PUSH3 0xFE5 JUMPI INVALID JUMPDEST PUSH2 0x1000 DUP2 PUSH1 0x2 DUP2 GT ISZERO PUSH3 0xFF5 JUMPI INVALID JUMPDEST PUSH1 0xF8 SHL SWAP1 MSTORE POP PUSH3 0x1011 DUP2 PUSH1 0x4 PUSH1 0x1 PUSH1 0x1 PUSH1 0xE0 SHL SUB PUSH3 0x21B4 AND JUMP JUMPDEST PUSH1 0x80 ADD MLOAD PUSH1 0x2 DUP2 GT ISZERO PUSH3 0x1021 JUMPI INVALID JUMPDEST PUSH2 0x1020 DUP2 PUSH1 0x2 DUP2 GT ISZERO PUSH3 0x1031 JUMPI INVALID JUMPDEST PUSH1 0xF8 SHL SWAP1 MSTORE POP PUSH3 0x104D DUP2 PUSH1 0x5 PUSH1 0x1 PUSH1 0x1 PUSH1 0xE0 SHL SUB PUSH3 0x21B4 AND JUMP JUMPDEST PUSH1 0x80 ADD MLOAD PUSH1 0x2 DUP2 GT ISZERO PUSH3 0x105D JUMPI INVALID JUMPDEST PUSH2 0x1040 DUP2 PUSH1 0x2 DUP2 GT ISZERO PUSH3 0x106D JUMPI INVALID JUMPDEST PUSH1 0xF8 SHL SWAP1 MSTORE POP PUSH3 0x1089 DUP2 PUSH1 0x6 PUSH1 0x1 PUSH1 0x1 PUSH1 0xE0 SHL SUB PUSH3 0x21B4 AND JUMP JUMPDEST PUSH1 0x80 ADD MLOAD PUSH1 0x2 DUP2 GT ISZERO PUSH3 0x1099 JUMPI INVALID JUMPDEST PUSH2 0x1060 DUP2 PUSH1 0x2 DUP2 GT ISZERO PUSH3 0x10A9 JUMPI INVALID JUMPDEST PUSH1 0xF8 SHL SWAP1 MSTORE POP PUSH3 0x10C5 DUP2 PUSH1 0x7 PUSH1 0x1 PUSH1 0x1 PUSH1 0xE0 SHL SUB PUSH3 0x21B4 AND JUMP JUMPDEST PUSH1 0x80 ADD MLOAD PUSH1 0x2 DUP2 GT ISZERO PUSH3 0x10D5 JUMPI INVALID JUMPDEST PUSH2 0x1080 DUP2 PUSH1 0x2 DUP2 GT ISZERO PUSH3 0x10E5 JUMPI INVALID JUMPDEST PUSH1 0xF8 SHL SWAP1 MSTORE POP PUSH3 0x1101 DUP2 PUSH1 0x8 PUSH1 0x1 PUSH1 0x1 PUSH1 0xE0 SHL SUB PUSH3 0x21B4 AND JUMP JUMPDEST PUSH1 0x80 ADD MLOAD PUSH1 0x2 DUP2 GT ISZERO PUSH3 0x1111 JUMPI INVALID JUMPDEST PUSH2 0x10A0 DUP2 PUSH1 0x2 DUP2 GT ISZERO PUSH3 0x1121 JUMPI INVALID JUMPDEST PUSH1 0xF8 SHL SWAP1 MSTORE POP PUSH3 0x113D DUP2 PUSH1 0x9 PUSH1 0x1 PUSH1 0x1 PUSH1 0xE0 SHL SUB PUSH3 0x21B4 AND JUMP JUMPDEST PUSH1 0x80 ADD MLOAD PUSH1 0x2 DUP2 GT ISZERO PUSH3 0x114D JUMPI INVALID JUMPDEST PUSH2 0x10C0 DUP2 PUSH1 0x2 DUP2 GT ISZERO PUSH3 0x115D JUMPI INVALID JUMPDEST PUSH1 0xF8 SHL SWAP1 MSTORE POP PUSH3 0x1179 DUP2 PUSH1 0xA PUSH1 0x1 PUSH1 0x1 PUSH1 0xE0 SHL SUB PUSH3 0x21B4 AND JUMP JUMPDEST PUSH1 0x80 ADD MLOAD PUSH1 0x2 DUP2 GT ISZERO PUSH3 0x1189 JUMPI INVALID JUMPDEST PUSH2 0x10E0 DUP2 PUSH1 0x2 DUP2 GT ISZERO PUSH3 0x1199 JUMPI INVALID JUMPDEST PUSH1 0xF8 SHL SWAP1 MSTORE POP PUSH3 0x11B5 DUP2 PUSH1 0xB PUSH1 0x1 PUSH1 0x1 PUSH1 0xE0 SHL SUB PUSH3 0x21B4 AND JUMP JUMPDEST PUSH1 0x80 ADD MLOAD PUSH1 0x2 DUP2 GT ISZERO PUSH3 0x11C5 JUMPI INVALID JUMPDEST PUSH2 0x1100 DUP2 PUSH1 0x2 DUP2 GT ISZERO PUSH3 0x11D5 JUMPI INVALID JUMPDEST PUSH1 0xF8 SHL SWAP1 MSTORE POP PUSH3 0x11F1 DUP2 PUSH1 0xC PUSH1 0x1 PUSH1 0x1 PUSH1 0xE0 SHL SUB PUSH3 0x21B4 AND JUMP JUMPDEST PUSH1 0x80 ADD MLOAD PUSH1 0x2 DUP2 GT ISZERO PUSH3 0x1201 JUMPI INVALID JUMPDEST PUSH2 0x1120 DUP2 PUSH1 0x2 DUP2 GT ISZERO PUSH3 0x1211 JUMPI INVALID JUMPDEST PUSH1 0xF8 SHL SWAP1 MSTORE POP PUSH3 0x122D DUP2 PUSH1 0xD PUSH1 0x1 PUSH1 0x1 PUSH1 0xE0 SHL SUB PUSH3 0x21B4 AND JUMP JUMPDEST PUSH1 0x80 ADD MLOAD PUSH1 0x2 DUP2 GT ISZERO PUSH3 0x123D JUMPI INVALID JUMPDEST PUSH2 0x1140 DUP2 PUSH1 0x2 DUP2 GT ISZERO PUSH3 0x124D JUMPI INVALID JUMPDEST PUSH1 0xF8 SHL SWAP1 MSTORE POP PUSH3 0x1269 DUP2 PUSH1 0xE PUSH1 0x1 PUSH1 0x1 PUSH1 0xE0 SHL SUB PUSH3 0x21B4 AND JUMP JUMPDEST PUSH1 0x80 ADD MLOAD PUSH1 0x2 DUP2 GT ISZERO PUSH3 0x1279 JUMPI INVALID JUMPDEST PUSH2 0x1160 DUP2 PUSH1 0x2 DUP2 GT ISZERO PUSH3 0x1289 JUMPI INVALID JUMPDEST PUSH1 0xF8 SHL SWAP1 MSTORE POP PUSH3 0x12A5 DUP2 PUSH1 0xF PUSH1 0x1 PUSH1 0x1 PUSH1 0xE0 SHL SUB PUSH3 0x21B4 AND JUMP JUMPDEST PUSH1 0x80 ADD MLOAD PUSH1 0x2 DUP2 GT ISZERO PUSH3 0x12B5 JUMPI INVALID JUMPDEST PUSH2 0x1180 DUP2 PUSH1 0x2 DUP2 GT ISZERO PUSH3 0x12C5 JUMPI INVALID JUMPDEST PUSH1 0xF8 SHL SWAP1 MSTORE POP PUSH3 0x12E1 DUP2 PUSH1 0x10 PUSH1 0x1 PUSH1 0x1 PUSH1 0xE0 SHL SUB PUSH3 0x21B4 AND JUMP JUMPDEST PUSH1 0x80 ADD MLOAD PUSH1 0x2 DUP2 GT ISZERO PUSH3 0x12F1 JUMPI INVALID JUMPDEST PUSH2 0x11A0 DUP2 PUSH1 0x2 DUP2 GT ISZERO PUSH3 0x1301 JUMPI INVALID JUMPDEST PUSH1 0xF8 SHL SWAP1 MSTORE POP PUSH3 0x131D DUP2 PUSH1 0x11 PUSH1 0x1 PUSH1 0x1 PUSH1 0xE0 SHL SUB PUSH3 0x21B4 AND JUMP JUMPDEST PUSH1 0x80 ADD MLOAD PUSH1 0x2 DUP2 GT ISZERO PUSH3 0x132D JUMPI INVALID JUMPDEST PUSH2 0x11C0 DUP2 PUSH1 0x2 DUP2 GT ISZERO PUSH3 0x133D JUMPI INVALID JUMPDEST PUSH1 0xF8 SHL SWAP1 MSTORE POP PUSH3 0x1359 DUP2 PUSH1 0x12 PUSH1 0x1 PUSH1 0x1 PUSH1 0xE0 SHL SUB PUSH3 0x21B4 AND JUMP JUMPDEST PUSH1 0x80 ADD MLOAD PUSH1 0x2 DUP2 GT ISZERO PUSH3 0x1369 JUMPI INVALID JUMPDEST PUSH2 0x11E0 DUP2 PUSH1 0x2 DUP2 GT ISZERO PUSH3 0x1379 JUMPI INVALID JUMPDEST PUSH1 0xF8 SHL SWAP1 MSTORE POP PUSH3 0x1395 DUP2 PUSH1 0x13 PUSH1 0x1 PUSH1 0x1 PUSH1 0xE0 SHL SUB PUSH3 0x21B4 AND JUMP JUMPDEST PUSH1 0x80 ADD MLOAD PUSH1 0x2 DUP2 GT ISZERO PUSH3 0x13A5 JUMPI INVALID JUMPDEST PUSH2 0x1200 DUP2 PUSH1 0x2 DUP2 GT ISZERO PUSH3 0x13B5 JUMPI INVALID JUMPDEST PUSH1 0xF8 SHL SWAP1 MSTORE POP PUSH3 0x13D1 DUP2 PUSH1 0x14 PUSH1 0x1 PUSH1 0x1 PUSH1 0xE0 SHL SUB PUSH3 0x21B4 AND JUMP JUMPDEST PUSH1 0x80 ADD MLOAD PUSH1 0x2 DUP2 GT ISZERO PUSH3 0x13E1 JUMPI INVALID JUMPDEST PUSH2 0x1220 DUP2 PUSH1 0x2 DUP2 GT ISZERO PUSH3 0x13F1 JUMPI INVALID JUMPDEST PUSH1 0xF8 SHL SWAP1 MSTORE POP PUSH3 0x140D DUP2 PUSH1 0x15 PUSH1 0x1 PUSH1 0x1 PUSH1 0xE0 SHL SUB PUSH3 0x21B4 AND JUMP JUMPDEST PUSH1 0x80 ADD MLOAD PUSH1 0x2 DUP2 GT ISZERO PUSH3 0x141D JUMPI INVALID JUMPDEST PUSH2 0x1240 DUP2 PUSH1 0x2 DUP2 GT ISZERO PUSH3 0x142D JUMPI INVALID JUMPDEST PUSH1 0xF8 SHL SWAP1 MSTORE POP PUSH3 0x1449 DUP2 PUSH1 0x16 PUSH1 0x1 PUSH1 0x1 PUSH1 0xE0 SHL SUB PUSH3 0x21B4 AND JUMP JUMPDEST PUSH1 0x80 ADD MLOAD PUSH1 0x2 DUP2 GT ISZERO PUSH3 0x1459 JUMPI INVALID JUMPDEST PUSH2 0x1260 DUP2 PUSH1 0x2 DUP2 GT ISZERO PUSH3 0x1469 JUMPI INVALID JUMPDEST PUSH1 0xF8 SHL SWAP1 MSTORE POP PUSH3 0x1485 DUP2 PUSH1 0x17 PUSH1 0x1 PUSH1 0x1 PUSH1 0xE0 SHL SUB PUSH3 0x21B4 AND JUMP JUMPDEST PUSH1 0x80 ADD MLOAD PUSH1 0x2 DUP2 GT ISZERO PUSH3 0x1495 JUMPI INVALID JUMPDEST PUSH2 0x1280 DUP2 PUSH1 0x2 DUP2 GT ISZERO PUSH3 0x14A5 JUMPI INVALID JUMPDEST PUSH1 0xF8 SHL SWAP1 MSTORE POP PUSH3 0x14C1 DUP2 PUSH1 0x18 PUSH1 0x1 PUSH1 0x1 PUSH1 0xE0 SHL SUB PUSH3 0x21B4 AND JUMP JUMPDEST PUSH1 0x80 ADD MLOAD PUSH1 0x2 DUP2 GT ISZERO PUSH3 0x14D1 JUMPI INVALID JUMPDEST PUSH2 0x12A0 DUP2 PUSH1 0x2 DUP2 GT ISZERO PUSH3 0x14E1 JUMPI INVALID JUMPDEST PUSH1 0xF8 SHL SWAP1 MSTORE POP PUSH3 0x14FD DUP2 PUSH1 0x19 PUSH1 0x1 PUSH1 0x1 PUSH1 0xE0 SHL SUB PUSH3 0x21B4 AND JUMP JUMPDEST PUSH1 0x80 ADD MLOAD PUSH1 0x2 DUP2 GT ISZERO PUSH3 0x150D JUMPI INVALID JUMPDEST PUSH2 0x12C0 DUP2 PUSH1 0x2 DUP2 GT ISZERO PUSH3 0x151D JUMPI INVALID JUMPDEST PUSH1 0xF8 SHL SWAP1 MSTORE POP PUSH3 0x1539 DUP2 PUSH1 0x1A PUSH1 0x1 PUSH1 0x1 PUSH1 0xE0 SHL SUB PUSH3 0x21B4 AND JUMP JUMPDEST PUSH1 0x80 ADD MLOAD PUSH1 0x2 DUP2 GT ISZERO PUSH3 0x1549 JUMPI INVALID JUMPDEST PUSH2 0x12E0 DUP2 PUSH1 0x2 DUP2 GT ISZERO PUSH3 0x1559 JUMPI INVALID JUMPDEST PUSH1 0xF8 SHL SWAP1 MSTORE POP PUSH3 0x1575 DUP2 PUSH1 0x1B PUSH1 0x1 PUSH1 0x1 PUSH1 0xE0 SHL SUB PUSH3 0x21B4 AND JUMP JUMPDEST PUSH1 0x80 ADD MLOAD PUSH1 0x2 DUP2 GT ISZERO PUSH3 0x1585 JUMPI INVALID JUMPDEST PUSH2 0x1300 DUP2 PUSH1 0x2 DUP2 GT ISZERO PUSH3 0x1595 JUMPI INVALID JUMPDEST PUSH1 0xF8 SHL SWAP1 MSTORE POP PUSH3 0x15B1 DUP2 PUSH1 0x1C PUSH1 0x1 PUSH1 0x1 PUSH1 0xE0 SHL SUB PUSH3 0x21B4 AND JUMP JUMPDEST PUSH1 0x80 ADD MLOAD PUSH1 0x2 DUP2 GT ISZERO PUSH3 0x15C1 JUMPI INVALID JUMPDEST PUSH2 0x1320 DUP2 PUSH1 0x2 DUP2 GT ISZERO PUSH3 0x15D1 JUMPI INVALID JUMPDEST PUSH1 0xF8 SHL SWAP1 MSTORE POP PUSH3 0x15ED DUP2 PUSH1 0x1D PUSH1 0x1 PUSH1 0x1 PUSH1 0xE0 SHL SUB PUSH3 0x21B4 AND JUMP JUMPDEST PUSH1 0x80 ADD MLOAD PUSH1 0x2 DUP2 GT ISZERO PUSH3 0x15FD JUMPI INVALID JUMPDEST PUSH2 0x1340 DUP2 PUSH1 0x2 DUP2 GT ISZERO PUSH3 0x160D JUMPI INVALID JUMPDEST PUSH1 0xF8 SHL SWAP1 MSTORE POP PUSH3 0x1629 DUP2 PUSH1 0x0 PUSH1 0x1 PUSH1 0x1 PUSH1 0xE0 SHL SUB PUSH3 0x21B4 AND JUMP JUMPDEST PUSH1 0xA0 ADD MLOAD PUSH2 0x1360 MSTORE PUSH3 0x1647 DUP2 PUSH1 0x1 PUSH1 0x1 PUSH1 0x1 PUSH1 0xE0 SHL SUB PUSH3 0x21B4 AND JUMP JUMPDEST PUSH1 0xA0 ADD MLOAD PUSH2 0x1380 MSTORE PUSH3 0x1665 DUP2 PUSH1 0x2 PUSH1 0x1 PUSH1 0x1 PUSH1 0xE0 SHL SUB PUSH3 0x21B4 AND JUMP JUMPDEST PUSH1 0xA0 ADD MLOAD PUSH2 0x13A0 MSTORE PUSH3 0x1683 DUP2 PUSH1 0x3 PUSH1 0x1 PUSH1 0x1 PUSH1 0xE0 SHL SUB PUSH3 0x21B4 AND JUMP JUMPDEST PUSH1 0xA0 ADD MLOAD PUSH2 0x13C0 MSTORE PUSH3 0x16A1 DUP2 PUSH1 0x4 PUSH1 0x1 PUSH1 0x1 PUSH1 0xE0 SHL SUB PUSH3 0x21B4 AND JUMP JUMPDEST PUSH1 0xA0 ADD MLOAD PUSH2 0x13E0 MSTORE PUSH3 0x16BF DUP2 PUSH1 0x5 PUSH1 0x1 PUSH1 0x1 PUSH1 0xE0 SHL SUB PUSH3 0x21B4 AND JUMP JUMPDEST PUSH1 0xA0 ADD MLOAD PUSH2 0x1400 MSTORE PUSH3 0x16DD DUP2 PUSH1 0x6 PUSH1 0x1 PUSH1 0x1 PUSH1 0xE0 SHL SUB PUSH3 0x21B4 AND JUMP JUMPDEST PUSH1 0xA0 ADD MLOAD PUSH2 0x1420 MSTORE PUSH3 0x16FB DUP2 PUSH1 0x7 PUSH1 0x1 PUSH1 0x1 PUSH1 0xE0 SHL SUB PUSH3 0x21B4 AND JUMP JUMPDEST PUSH1 0xA0 ADD MLOAD PUSH2 0x1440 MSTORE PUSH3 0x1719 DUP2 PUSH1 0x8 PUSH1 0x1 PUSH1 0x1 PUSH1 0xE0 SHL SUB PUSH3 0x21B4 AND JUMP JUMPDEST PUSH1 0xA0 ADD MLOAD PUSH2 0x1460 MSTORE PUSH3 0x1737 DUP2 PUSH1 0x9 PUSH1 0x1 PUSH1 0x1 PUSH1 0xE0 SHL SUB PUSH3 0x21B4 AND JUMP JUMPDEST PUSH1 0xA0 ADD MLOAD PUSH2 0x1480 MSTORE PUSH3 0x1755 DUP2 PUSH1 0xA PUSH1 0x1 PUSH1 0x1 PUSH1 0xE0 SHL SUB PUSH3 0x21B4 AND JUMP JUMPDEST PUSH1 0xA0 ADD MLOAD PUSH2 0x14A0 MSTORE PUSH3 0x1773 DUP2 PUSH1 0xB PUSH1 0x1 PUSH1 0x1 PUSH1 0xE0 SHL SUB PUSH3 0x21B4 AND JUMP JUMPDEST PUSH1 0xA0 ADD MLOAD PUSH2 0x14C0 MSTORE PUSH3 0x1791 DUP2 PUSH1 0xC PUSH1 0x1 PUSH1 0x1 PUSH1 0xE0 SHL SUB PUSH3 0x21B4 AND JUMP JUMPDEST PUSH1 0xA0 ADD MLOAD PUSH2 0x14E0 MSTORE PUSH3 0x17AF DUP2 PUSH1 0xD PUSH1 0x1 PUSH1 0x1 PUSH1 0xE0 SHL SUB PUSH3 0x21B4 AND JUMP JUMPDEST PUSH1 0xA0 ADD MLOAD PUSH2 0x1500 MSTORE PUSH3 0x17CD DUP2 PUSH1 0xE PUSH1 0x1 PUSH1 0x1 PUSH1 0xE0 SHL SUB PUSH3 0x21B4 AND JUMP JUMPDEST PUSH1 0xA0 ADD MLOAD PUSH2 0x1520 MSTORE PUSH3 0x17EB DUP2 PUSH1 0xF PUSH1 0x1 PUSH1 0x1 PUSH1 0xE0 SHL SUB PUSH3 0x21B4 AND JUMP JUMPDEST PUSH1 0xA0 ADD MLOAD PUSH2 0x1540 MSTORE PUSH3 0x1809 DUP2 PUSH1 0x10 PUSH1 0x1 PUSH1 0x1 PUSH1 0xE0 SHL SUB PUSH3 0x21B4 AND JUMP JUMPDEST PUSH1 0xA0 ADD MLOAD PUSH2 0x1560 MSTORE PUSH3 0x1827 DUP2 PUSH1 0x11 PUSH1 0x1 PUSH1 0x1 PUSH1 0xE0 SHL SUB PUSH3 0x21B4 AND JUMP JUMPDEST PUSH1 0xA0 ADD MLOAD PUSH2 0x1580 MSTORE PUSH3 0x1845 DUP2 PUSH1 0x12 PUSH1 0x1 PUSH1 0x1 PUSH1 0xE0 SHL SUB PUSH3 0x21B4 AND JUMP JUMPDEST PUSH1 0xA0 ADD MLOAD PUSH2 0x15A0 MSTORE PUSH3 0x1863 DUP2 PUSH1 0x13 PUSH1 0x1 PUSH1 0x1 PUSH1 0xE0 SHL SUB PUSH3 0x21B4 AND JUMP JUMPDEST PUSH1 0xA0 ADD MLOAD PUSH2 0x15C0 MSTORE PUSH3 0x1881 DUP2 PUSH1 0x14 PUSH1 0x1 PUSH1 0x1 PUSH1 0xE0 SHL SUB PUSH3 0x21B4 AND JUMP JUMPDEST PUSH1 0xA0 ADD MLOAD PUSH2 0x15E0 MSTORE PUSH3 0x189F DUP2 PUSH1 0x15 PUSH1 0x1 PUSH1 0x1 PUSH1 0xE0 SHL SUB PUSH3 0x21B4 AND JUMP JUMPDEST PUSH1 0xA0 ADD MLOAD PUSH2 0x1600 MSTORE PUSH3 0x18BD DUP2 PUSH1 0x16 PUSH1 0x1 PUSH1 0x1 PUSH1 0xE0 SHL SUB PUSH3 0x21B4 AND JUMP JUMPDEST PUSH1 0xA0 ADD MLOAD PUSH2 0x1620 MSTORE PUSH3 0x18DB DUP2 PUSH1 0x17 PUSH1 0x1 PUSH1 0x1 PUSH1 0xE0 SHL SUB PUSH3 0x21B4 AND JUMP JUMPDEST PUSH1 0xA0 ADD MLOAD PUSH2 0x1640 MSTORE PUSH3 0x18F9 DUP2 PUSH1 0x18 PUSH1 0x1 PUSH1 0x1 PUSH1 0xE0 SHL SUB PUSH3 0x21B4 AND JUMP JUMPDEST PUSH1 0xA0 ADD MLOAD PUSH2 0x1660 MSTORE PUSH3 0x1917 DUP2 PUSH1 0x19 PUSH1 0x1 PUSH1 0x1 PUSH1 0xE0 SHL SUB PUSH3 0x21B4 AND JUMP JUMPDEST PUSH1 0xA0 ADD MLOAD PUSH2 0x1680 MSTORE PUSH3 0x1935 DUP2 PUSH1 0x1A PUSH1 0x1 PUSH1 0x1 PUSH1 0xE0 SHL SUB PUSH3 0x21B4 AND JUMP JUMPDEST PUSH1 0xA0 ADD MLOAD PUSH2 0x16A0 MSTORE PUSH3 0x1953 DUP2 PUSH1 0x1B PUSH1 0x1 PUSH1 0x1 PUSH1 0xE0 SHL SUB PUSH3 0x21B4 AND JUMP JUMPDEST PUSH1 0xA0 ADD MLOAD PUSH2 0x16C0 MSTORE PUSH3 0x1971 DUP2 PUSH1 0x1C PUSH1 0x1 PUSH1 0x1 PUSH1 0xE0 SHL SUB PUSH3 0x21B4 AND JUMP JUMPDEST PUSH1 0xA0 ADD MLOAD PUSH2 0x16E0 MSTORE PUSH3 0x198F DUP2 PUSH1 0x1D PUSH1 0x1 PUSH1 0x1 PUSH1 0xE0 SHL SUB PUSH3 0x21B4 AND JUMP JUMPDEST PUSH1 0xA0 ADD MLOAD PUSH2 0x1700 MSTORE PUSH3 0x19AD DUP2 PUSH1 0x0 PUSH1 0x1 PUSH1 0x1 PUSH1 0xE0 SHL SUB PUSH3 0x21B4 AND JUMP JUMPDEST PUSH1 0xC0 ADD MLOAD PUSH1 0x60 SHL PUSH1 0x1 PUSH1 0x1 PUSH1 0x60 SHL SUB NOT AND PUSH2 0x1720 MSTORE PUSH3 0x19CF DUP2 PUSH1 0x1 PUSH3 0x21B4 JUMP JUMPDEST PUSH1 0xC0 ADD MLOAD PUSH1 0x60 SHL PUSH1 0x1 PUSH1 0x1 PUSH1 0x60 SHL SUB NOT AND PUSH2 0x1740 MSTORE PUSH3 0x19F1 DUP2 PUSH1 0x2 PUSH3 0x21B4 JUMP JUMPDEST PUSH1 0xC0 ADD MLOAD PUSH1 0x60 SHL PUSH1 0x1 PUSH1 0x1 PUSH1 0x60 SHL SUB NOT AND PUSH2 0x1760 MSTORE PUSH3 0x1A13 DUP2 PUSH1 0x3 PUSH3 0x21B4 JUMP JUMPDEST PUSH1 0xC0 ADD MLOAD PUSH1 0x60 SHL PUSH1 0x1 PUSH1 0x1 PUSH1 0x60 SHL SUB NOT AND PUSH2 0x1780 MSTORE PUSH3 0x1A35 DUP2 PUSH1 0x4 PUSH3 0x21B4 JUMP JUMPDEST PUSH1 0xC0 ADD MLOAD PUSH1 0x60 SHL PUSH1 0x1 PUSH1 0x1 PUSH1 0x60 SHL SUB NOT AND PUSH2 0x17A0 MSTORE PUSH3 0x1A57 DUP2 PUSH1 0x5 PUSH3 0x21B4 JUMP JUMPDEST PUSH1 0xC0 ADD MLOAD PUSH1 0x60 SHL PUSH1 0x1 PUSH1 0x1 PUSH1 0x60 SHL SUB NOT AND PUSH2 0x17C0 MSTORE PUSH3 0x1A79 DUP2 PUSH1 0x6 PUSH3 0x21B4 JUMP JUMPDEST PUSH1 0xC0 ADD MLOAD PUSH1 0x60 SHL PUSH1 0x1 PUSH1 0x1 PUSH1 0x60 SHL SUB NOT AND PUSH2 0x17E0 MSTORE PUSH3 0x1A9B DUP2 PUSH1 0x7 PUSH3 0x21B4 JUMP JUMPDEST PUSH1 0xC0 ADD MLOAD PUSH1 0x60 SHL PUSH1 0x1 PUSH1 0x1 PUSH1 0x60 SHL SUB NOT AND PUSH2 0x1800 MSTORE PUSH3 0x1ABD DUP2 PUSH1 0x8 PUSH3 0x21B4 JUMP JUMPDEST PUSH1 0xC0 ADD MLOAD PUSH1 0x60 SHL PUSH1 0x1 PUSH1 0x1 PUSH1 0x60 SHL SUB NOT AND PUSH2 0x1820 MSTORE PUSH3 0x1ADF DUP2 PUSH1 0x9 PUSH3 0x21B4 JUMP JUMPDEST PUSH1 0xC0 ADD MLOAD PUSH1 0x60 SHL PUSH1 0x1 PUSH1 0x1 PUSH1 0x60 SHL SUB NOT AND PUSH2 0x1840 MSTORE PUSH3 0x1B01 DUP2 PUSH1 0xA PUSH3 0x21B4 JUMP JUMPDEST PUSH1 0xC0 ADD MLOAD PUSH1 0x60 SHL PUSH1 0x1 PUSH1 0x1 PUSH1 0x60 SHL SUB NOT AND PUSH2 0x1860 MSTORE PUSH3 0x1B23 DUP2 PUSH1 0xB PUSH3 0x21B4 JUMP JUMPDEST PUSH1 0xC0 ADD MLOAD PUSH1 0x60 SHL PUSH1 0x1 PUSH1 0x1 PUSH1 0x60 SHL SUB NOT AND PUSH2 0x1880 MSTORE PUSH3 0x1B45 DUP2 PUSH1 0xC PUSH3 0x21B4 JUMP JUMPDEST PUSH1 0xC0 ADD MLOAD PUSH1 0x60 SHL PUSH1 0x1 PUSH1 0x1 PUSH1 0x60 SHL SUB NOT AND PUSH2 0x18A0 MSTORE PUSH3 0x1B67 DUP2 PUSH1 0xD PUSH3 0x21B4 JUMP JUMPDEST PUSH1 0xC0 ADD MLOAD PUSH1 0x60 SHL PUSH1 0x1 PUSH1 0x1 PUSH1 0x60 SHL SUB NOT AND PUSH2 0x18C0 MSTORE PUSH3 0x1B89 DUP2 PUSH1 0xE PUSH3 0x21B4 JUMP JUMPDEST PUSH1 0xC0 ADD MLOAD PUSH1 0x60 SHL PUSH1 0x1 PUSH1 0x1 PUSH1 0x60 SHL SUB NOT AND PUSH2 0x18E0 MSTORE PUSH3 0x1BAB DUP2 PUSH1 0xF PUSH3 0x21B4 JUMP JUMPDEST PUSH1 0xC0 ADD MLOAD PUSH1 0x60 SHL PUSH1 0x1 PUSH1 0x1 PUSH1 0x60 SHL SUB NOT AND PUSH2 0x1900 MSTORE PUSH3 0x1BCD DUP2 PUSH1 0x10 PUSH3 0x21B4 JUMP JUMPDEST PUSH1 0xC0 ADD MLOAD PUSH1 0x60 SHL PUSH1 0x1 PUSH1 0x1 PUSH1 0x60 SHL SUB NOT AND PUSH2 0x1920 MSTORE PUSH3 0x1BEF DUP2 PUSH1 0x11 PUSH3 0x21B4 JUMP JUMPDEST PUSH1 0xC0 ADD MLOAD PUSH1 0x60 SHL PUSH1 0x1 PUSH1 0x1 PUSH1 0x60 SHL SUB NOT AND PUSH2 0x1940 MSTORE PUSH3 0x1C11 DUP2 PUSH1 0x12 PUSH3 0x21B4 JUMP JUMPDEST PUSH1 0xC0 ADD MLOAD PUSH1 0x60 SHL PUSH1 0x1 PUSH1 0x1 PUSH1 0x60 SHL SUB NOT AND PUSH2 0x1960 MSTORE PUSH3 0x1C33 DUP2 PUSH1 0x13 PUSH3 0x21B4 JUMP JUMPDEST PUSH1 0xC0 ADD MLOAD PUSH1 0x60 SHL PUSH1 0x1 PUSH1 0x1 PUSH1 0x60 SHL SUB NOT AND PUSH2 0x1980 MSTORE PUSH3 0x1C55 DUP2 PUSH1 0x14 PUSH3 0x21B4 JUMP JUMPDEST PUSH1 0xC0 ADD MLOAD PUSH1 0x60 SHL PUSH1 0x1 PUSH1 0x1 PUSH1 0x60 SHL SUB NOT AND PUSH2 0x19A0 MSTORE PUSH3 0x1C77 DUP2 PUSH1 0x15 PUSH3 0x21B4 JUMP JUMPDEST PUSH1 0xC0 ADD MLOAD PUSH1 0x60 SHL PUSH1 0x1 PUSH1 0x1 PUSH1 0x60 SHL SUB NOT AND PUSH2 0x19C0 MSTORE PUSH3 0x1C99 DUP2 PUSH1 0x16 PUSH3 0x21B4 JUMP JUMPDEST PUSH1 0xC0 ADD MLOAD PUSH1 0x60 SHL PUSH1 0x1 PUSH1 0x1 PUSH1 0x60 SHL SUB NOT AND PUSH2 0x19E0 MSTORE PUSH3 0x1CBB DUP2 PUSH1 0x17 PUSH3 0x21B4 JUMP JUMPDEST PUSH1 0xC0 ADD MLOAD PUSH1 0x60 SHL PUSH1 0x1 PUSH1 0x1 PUSH1 0x60 SHL SUB NOT AND PUSH2 0x1A00 MSTORE PUSH3 0x1CDD DUP2 PUSH1 0x18 PUSH3 0x21B4 JUMP JUMPDEST PUSH1 0xC0 ADD MLOAD PUSH1 0x60 SHL PUSH1 0x1 PUSH1 0x1 PUSH1 0x60 SHL SUB NOT AND PUSH2 0x1A20 MSTORE PUSH3 0x1CFF DUP2 PUSH1 0x19 PUSH3 0x21B4 JUMP JUMPDEST PUSH1 0xC0 ADD MLOAD PUSH1 0x60 SHL PUSH1 0x1 PUSH1 0x1 PUSH1 0x60 SHL SUB NOT AND PUSH2 0x1A40 MSTORE PUSH3 0x1D21 DUP2 PUSH1 0x1A PUSH3 0x21B4 JUMP JUMPDEST PUSH1 0xC0 ADD MLOAD PUSH1 0x60 SHL PUSH1 0x1 PUSH1 0x1 PUSH1 0x60 SHL SUB NOT AND PUSH2 0x1A60 MSTORE PUSH3 0x1D43 DUP2 PUSH1 0x1B PUSH3 0x21B4 JUMP JUMPDEST PUSH1 0xC0 ADD MLOAD PUSH1 0x60 SHL PUSH1 0x1 PUSH1 0x1 PUSH1 0x60 SHL SUB NOT AND PUSH2 0x1A80 MSTORE PUSH3 0x1D65 DUP2 PUSH1 0x1C PUSH3 0x21B4 JUMP JUMPDEST PUSH1 0xC0 ADD MLOAD PUSH1 0x60 SHL PUSH1 0x1 PUSH1 0x1 PUSH1 0x60 SHL SUB NOT AND PUSH2 0x1AA0 MSTORE PUSH3 0x1D87 DUP2 PUSH1 0x1D PUSH3 0x21B4 JUMP JUMPDEST PUSH1 0xC0 ADD MLOAD PUSH1 0x60 SHL PUSH1 0x1 PUSH1 0x1 PUSH1 0x60 SHL SUB NOT AND PUSH2 0x1AC0 MSTORE PUSH3 0x1DA9 DUP2 PUSH1 0x0 PUSH3 0x21B4 JUMP JUMPDEST PUSH1 0xE0 ADD MLOAD ISZERO ISZERO PUSH1 0xF8 SHL PUSH2 0x1AE0 MSTORE PUSH3 0x1DCC DUP2 PUSH1 0x1 PUSH1 0x1 PUSH1 0x1 PUSH1 0xE0 SHL SUB PUSH3 0x21B4 AND JUMP JUMPDEST PUSH1 0xE0 ADD MLOAD ISZERO ISZERO PUSH1 0xF8 SHL PUSH2 0x1B00 MSTORE PUSH3 0x1DEF DUP2 PUSH1 0x2 PUSH1 0x1 PUSH1 0x1 PUSH1 0xE0 SHL SUB PUSH3 0x21B4 AND JUMP JUMPDEST PUSH1 0xE0 ADD MLOAD ISZERO ISZERO PUSH1 0xF8 SHL PUSH2 0x1B20 MSTORE PUSH3 0x1E12 DUP2 PUSH1 0x3 PUSH1 0x1 PUSH1 0x1 PUSH1 0xE0 SHL SUB PUSH3 0x21B4 AND JUMP JUMPDEST PUSH1 0xE0 ADD MLOAD ISZERO ISZERO PUSH1 0xF8 SHL PUSH2 0x1B40 MSTORE PUSH3 0x1E35 DUP2 PUSH1 0x4 PUSH1 0x1 PUSH1 0x1 PUSH1 0xE0 SHL SUB PUSH3 0x21B4 AND JUMP JUMPDEST PUSH1 0xE0 ADD MLOAD ISZERO ISZERO PUSH1 0xF8 SHL PUSH2 0x1B60 MSTORE PUSH3 0x1E58 DUP2 PUSH1 0x5 PUSH1 0x1 PUSH1 0x1 PUSH1 0xE0 SHL SUB PUSH3 0x21B4 AND JUMP JUMPDEST PUSH1 0xE0 ADD MLOAD ISZERO ISZERO PUSH1 0xF8 SHL PUSH2 0x1B80 MSTORE PUSH3 0x1E7B DUP2 PUSH1 0x6 PUSH1 0x1 PUSH1 0x1 PUSH1 0xE0 SHL SUB PUSH3 0x21B4 AND JUMP JUMPDEST PUSH1 0xE0 ADD MLOAD ISZERO ISZERO PUSH1 0xF8 SHL PUSH2 0x1BA0 MSTORE PUSH3 0x1E9E DUP2 PUSH1 0x7 PUSH1 0x1 PUSH1 0x1 PUSH1 0xE0 SHL SUB PUSH3 0x21B4 AND JUMP JUMPDEST PUSH1 0xE0 ADD MLOAD ISZERO ISZERO PUSH1 0xF8 SHL PUSH2 0x1BC0 MSTORE PUSH3 0x1EC1 DUP2 PUSH1 0x8 PUSH1 0x1 PUSH1 0x1 PUSH1 0xE0 SHL SUB PUSH3 0x21B4 AND JUMP JUMPDEST PUSH1 0xE0 ADD MLOAD ISZERO ISZERO PUSH1 0xF8 SHL PUSH2 0x1BE0 MSTORE PUSH3 0x1EE4 DUP2 PUSH1 0x9 PUSH1 0x1 PUSH1 0x1 PUSH1 0xE0 SHL SUB PUSH3 0x21B4 AND JUMP JUMPDEST PUSH1 0xE0 ADD MLOAD ISZERO ISZERO PUSH1 0xF8 SHL PUSH2 0x1C00 MSTORE PUSH3 0x1F07 DUP2 PUSH1 0xA PUSH1 0x1 PUSH1 0x1 PUSH1 0xE0 SHL SUB PUSH3 0x21B4 AND JUMP JUMPDEST PUSH1 0xE0 ADD MLOAD ISZERO ISZERO PUSH1 0xF8 SHL PUSH2 0x1C20 MSTORE PUSH3 0x1F2A DUP2 PUSH1 0xB PUSH1 0x1 PUSH1 0x1 PUSH1 0xE0 SHL SUB PUSH3 0x21B4 AND JUMP JUMPDEST PUSH1 0xE0 ADD MLOAD ISZERO ISZERO PUSH1 0xF8 SHL PUSH2 0x1C40 MSTORE PUSH3 0x1F4D DUP2 PUSH1 0xC PUSH1 0x1 PUSH1 0x1 PUSH1 0xE0 SHL SUB PUSH3 0x21B4 AND JUMP JUMPDEST PUSH1 0xE0 ADD MLOAD ISZERO ISZERO PUSH1 0xF8 SHL PUSH2 0x1C60 MSTORE PUSH3 0x1F70 DUP2 PUSH1 0xD PUSH1 0x1 PUSH1 0x1 PUSH1 0xE0 SHL SUB PUSH3 0x21B4 AND JUMP JUMPDEST PUSH1 0xE0 ADD MLOAD ISZERO ISZERO PUSH1 0xF8 SHL PUSH2 0x1C80 MSTORE PUSH3 0x1F93 DUP2 PUSH1 0xE PUSH1 0x1 PUSH1 0x1 PUSH1 0xE0 SHL SUB PUSH3 0x21B4 AND JUMP JUMPDEST PUSH1 0xE0 ADD MLOAD ISZERO ISZERO PUSH1 0xF8 SHL PUSH2 0x1CA0 MSTORE PUSH3 0x1FB6 DUP2 PUSH1 0xF PUSH1 0x1 PUSH1 0x1 PUSH1 0xE0 SHL SUB PUSH3 0x21B4 AND JUMP JUMPDEST PUSH1 0xE0 ADD MLOAD ISZERO ISZERO PUSH1 0xF8 SHL PUSH2 0x1CC0 MSTORE PUSH3 0x1FD9 DUP2 PUSH1 0x10 PUSH1 0x1 PUSH1 0x1 PUSH1 0xE0 SHL SUB PUSH3 0x21B4 AND JUMP JUMPDEST PUSH1 0xE0 ADD MLOAD ISZERO ISZERO PUSH1 0xF8 SHL PUSH2 0x1CE0 MSTORE PUSH3 0x1FFC DUP2 PUSH1 0x11 PUSH1 0x1 PUSH1 0x1 PUSH1 0xE0 SHL SUB PUSH3 0x21B4 AND JUMP JUMPDEST PUSH1 0xE0 ADD MLOAD ISZERO ISZERO PUSH1 0xF8 SHL PUSH2 0x1D00 MSTORE PUSH3 0x201F DUP2 PUSH1 0x12 PUSH1 0x1 PUSH1 0x1 PUSH1 0xE0 SHL SUB PUSH3 0x21B4 AND JUMP JUMPDEST PUSH1 0xE0 ADD MLOAD ISZERO ISZERO PUSH1 0xF8 SHL PUSH2 0x1D20 MSTORE PUSH3 0x2042 DUP2 PUSH1 0x13 PUSH1 0x1 PUSH1 0x1 PUSH1 0xE0 SHL SUB PUSH3 0x21B4 AND JUMP JUMPDEST PUSH1 0xE0 ADD MLOAD ISZERO ISZERO PUSH1 0xF8 SHL PUSH2 0x1D40 MSTORE PUSH3 0x2065 DUP2 PUSH1 0x14 PUSH1 0x1 PUSH1 0x1 PUSH1 0xE0 SHL SUB PUSH3 0x21B4 AND JUMP JUMPDEST PUSH1 0xE0 ADD MLOAD ISZERO ISZERO PUSH1 0xF8 SHL PUSH2 0x1D60 MSTORE PUSH3 0x2088 DUP2 PUSH1 0x15 PUSH1 0x1 PUSH1 0x1 PUSH1 0xE0 SHL SUB PUSH3 0x21B4 AND JUMP JUMPDEST PUSH1 0xE0 ADD MLOAD ISZERO ISZERO PUSH1 0xF8 SHL PUSH2 0x1D80 MSTORE PUSH3 0x20AB DUP2 PUSH1 0x16 PUSH1 0x1 PUSH1 0x1 PUSH1 0xE0 SHL SUB PUSH3 0x21B4 AND JUMP JUMPDEST PUSH1 0xE0 ADD MLOAD ISZERO ISZERO PUSH1 0xF8 SHL PUSH2 0x1DA0 MSTORE PUSH3 0x20CE DUP2 PUSH1 0x17 PUSH1 0x1 PUSH1 0x1 PUSH1 0xE0 SHL SUB PUSH3 0x21B4 AND JUMP JUMPDEST PUSH1 0xE0 ADD MLOAD ISZERO ISZERO PUSH1 0xF8 SHL PUSH2 0x1DC0 MSTORE PUSH3 0x20F1 DUP2 PUSH1 0x18 PUSH1 0x1 PUSH1 0x1 PUSH1 0xE0 SHL SUB PUSH3 0x21B4 AND JUMP JUMPDEST PUSH1 0xE0 ADD MLOAD ISZERO ISZERO PUSH1 0xF8 SHL PUSH2 0x1DE0 MSTORE PUSH3 0x2114 DUP2 PUSH1 0x19 PUSH1 0x1 PUSH1 0x1 PUSH1 0xE0 SHL SUB PUSH3 0x21B4 AND JUMP JUMPDEST PUSH1 0xE0 ADD MLOAD ISZERO ISZERO PUSH1 0xF8 SHL PUSH2 0x1E00 MSTORE PUSH3 0x2137 DUP2 PUSH1 0x1A PUSH1 0x1 PUSH1 0x1 PUSH1 0xE0 SHL SUB PUSH3 0x21B4 AND JUMP JUMPDEST PUSH1 0xE0 ADD MLOAD ISZERO ISZERO PUSH1 0xF8 SHL PUSH2 0x1E20 MSTORE PUSH3 0x215A DUP2 PUSH1 0x1B PUSH1 0x1 PUSH1 0x1 PUSH1 0xE0 SHL SUB PUSH3 0x21B4 AND JUMP JUMPDEST PUSH1 0xE0 ADD MLOAD ISZERO ISZERO PUSH1 0xF8 SHL PUSH2 0x1E40 MSTORE PUSH3 0x217D DUP2 PUSH1 0x1C PUSH1 0x1 PUSH1 0x1 PUSH1 0xE0 SHL SUB PUSH3 0x21B4 AND JUMP JUMPDEST PUSH1 0xE0 ADD MLOAD ISZERO ISZERO PUSH1 0xF8 SHL PUSH2 0x1E60 MSTORE PUSH3 0x21A0 DUP2 PUSH1 0x1D PUSH1 0x1 PUSH1 0x1 PUSH1 0xE0 SHL SUB PUSH3 0x21B4 AND JUMP JUMPDEST PUSH1 0xE0 ADD MLOAD ISZERO ISZERO PUSH1 0xF8 SHL PUSH2 0x1E80 MSTORE POP PUSH3 0x2467 JUMP JUMPDEST PUSH3 0x21BE PUSH3 0x222E JUMP JUMPDEST DUP3 MLOAD DUP3 LT ISZERO PUSH3 0x21E5 JUMPI DUP3 DUP3 DUP2 MLOAD DUP2 LT PUSH3 0x21D5 JUMPI INVALID JUMPDEST PUSH1 0x20 MUL PUSH1 0x20 ADD ADD MLOAD SWAP1 POP PUSH3 0x2228 JUMP JUMPDEST POP PUSH1 0x40 DUP1 MLOAD PUSH2 0x100 DUP2 ADD DUP3 MSTORE PUSH1 0x0 DUP1 DUP3 MSTORE PUSH1 0x20 DUP3 ADD DUP2 SWAP1 MSTORE SWAP2 DUP2 ADD DUP3 SWAP1 MSTORE PUSH1 0x60 DUP2 ADD DUP3 SWAP1 MSTORE PUSH1 0x80 DUP2 ADD DUP3 SWAP1 MSTORE PUSH1 0xA0 DUP2 ADD DUP3 SWAP1 MSTORE PUSH1 0xC0 DUP2 ADD DUP3 SWAP1 MSTORE PUSH1 0xE0 DUP2 ADD SWAP2 SWAP1 SWAP2 MSTORE JUMPDEST SWAP3 SWAP2 POP POP JUMP JUMPDEST PUSH1 0x40 DUP1 MLOAD PUSH2 0x100 DUP2 ADD DUP3 MSTORE PUSH1 0x0 DUP1 DUP3 MSTORE PUSH1 0x20 DUP3 ADD DUP2 SWAP1 MSTORE SWAP2 DUP2 ADD DUP3 SWAP1 MSTORE PUSH1 0x60 DUP2 ADD DUP3 SWAP1 MSTORE SWAP1 PUSH1 0x80 DUP3 ADD SWAP1 DUP2 MSTORE PUSH1 0x0 PUSH1 0x20 DUP3 ADD DUP2 SWAP1 MSTORE PUSH1 0x40 DUP3 ADD DUP2 SWAP1 MSTORE PUSH1 0x60 SWAP1 SWAP2 ADD MSTORE SWAP1 JUMP JUMPDEST DUP1 MLOAD PUSH1 0x1 PUSH1 0x1 PUSH1 0xA0 SHL SUB DUP2 AND DUP2 EQ PUSH3 0x2228 JUMPI PUSH1 0x0 DUP1 REVERT JUMPDEST DUP1 MLOAD DUP1 ISZERO ISZERO DUP2 EQ PUSH3 0x2228 JUMPI PUSH1 0x0 DUP1 REVERT JUMPDEST PUSH1 0x0 PUSH2 0x100 DUP1 DUP4 DUP6 SUB SLT ISZERO PUSH3 0x22B0 JUMPI DUP2 DUP3 REVERT JUMPDEST PUSH3 0x22BB DUP2 PUSH3 0x2420 JUMP JUMPDEST SWAP2 POP POP PUSH3 0x22CA DUP4 DUP4 PUSH3 0x2273 JUMP JUMPDEST DUP2 MSTORE PUSH3 0x22DB DUP4 PUSH1 0x20 DUP5 ADD PUSH3 0x2273 JUMP JUMPDEST PUSH1 0x20 DUP3 ADD MSTORE PUSH1 0x40 DUP3 ADD MLOAD PUSH1 0x40 DUP3 ADD MSTORE PUSH1 0x60 DUP3 ADD MLOAD PUSH1 0x60 DUP3 ADD MSTORE PUSH1 0x80 DUP3 ADD MLOAD PUSH1 0x3 DUP2 LT PUSH3 0x2307 JUMPI PUSH1 0x0 DUP1 REVERT JUMPDEST PUSH1 0x80 DUP3 ADD MSTORE PUSH1 0xA0 DUP3 DUP2 ADD MLOAD SWAP1 DUP3 ADD MSTORE PUSH3 0x2325 DUP4 PUSH1 0xC0 DUP5 ADD PUSH3 0x2273 JUMP JUMPDEST PUSH1 0xC0 DUP3 ADD MSTORE PUSH3 0x2339 DUP4 PUSH1 0xE0 DUP5 ADD PUSH3 0x228B JUMP JUMPDEST PUSH1 0xE0 DUP3 ADD MSTORE SWAP3 SWAP2 POP POP JUMP JUMPDEST PUSH1 0x0 PUSH1 0x20 DUP1 DUP4 DUP6 SUB SLT ISZERO PUSH3 0x2357 JUMPI DUP2 DUP3 REVERT JUMPDEST DUP3 MLOAD PUSH1 0x1 PUSH1 0x1 PUSH1 0x40 SHL SUB DUP2 GT ISZERO PUSH3 0x236D JUMPI DUP3 DUP4 REVERT JUMPDEST DUP1 DUP5 ADD DUP6 PUSH1 0x1F DUP3 ADD SLT PUSH3 0x237F JUMPI DUP4 DUP5 REVERT JUMPDEST DUP1 MLOAD SWAP2 POP PUSH3 0x2398 PUSH3 0x2392 DUP4 PUSH3 0x2447 JUMP JUMPDEST PUSH3 0x2420 JUMP JUMPDEST DUP3 DUP2 MSTORE DUP4 DUP2 ADD SWAP1 DUP3 DUP6 ADD PUSH2 0x100 DUP1 DUP7 MUL DUP6 ADD DUP8 ADD DUP11 LT ISZERO PUSH3 0x23B8 JUMPI DUP8 DUP9 REVERT JUMPDEST DUP8 SWAP5 POP JUMPDEST DUP6 DUP6 LT ISZERO PUSH3 0x23E8 JUMPI PUSH3 0x23D1 DUP11 DUP4 PUSH3 0x229C JUMP JUMPDEST DUP5 MSTORE PUSH1 0x1 SWAP5 SWAP1 SWAP5 ADD SWAP4 SWAP3 DUP7 ADD SWAP3 SWAP1 DUP2 ADD SWAP1 PUSH3 0x23BC JUMP JUMPDEST POP SWAP1 SWAP9 SWAP8 POP POP POP POP POP POP POP POP JUMP JUMPDEST PUSH1 0x20 DUP1 DUP3 MSTORE PUSH1 0x10 SWAP1 DUP3 ADD MSTORE PUSH16 0x746F6F206D616E7920636F6E66696773 PUSH1 0x80 SHL PUSH1 0x40 DUP3 ADD MSTORE PUSH1 0x60 ADD SWAP1 JUMP JUMPDEST PUSH1 0x40 MLOAD DUP2 DUP2 ADD PUSH1 0x1 PUSH1 0x1 PUSH1 0x40 SHL SUB DUP2 GT DUP3 DUP3 LT OR ISZERO PUSH3 0x243F JUMPI PUSH1 0x0 DUP1 REVERT JUMPDEST PUSH1 0x40 MSTORE SWAP2 SWAP1 POP JUMP JUMPDEST PUSH1 0x0 PUSH1 0x1 PUSH1 0x1 PUSH1 0x40 SHL SUB DUP3 GT ISZERO PUSH3 0x245D JUMPI DUP1 DUP2 REVERT JUMPDEST POP PUSH1 0x20 SWAP1 DUP2 MUL ADD SWAP1 JUMP JUMPDEST PUSH1 0x80 MLOAD PUSH1 0xA0 MLOAD PUSH1 0x60 SHR PUSH1 0xC0 MLOAD PUSH1 0x60 SHR PUSH1 0xE0 MLOAD PUSH1 0x60 SHR PUSH2 0x100 MLOAD PUSH1 0x60 SHR PUSH2 0x120 MLOAD PUSH1 0x60 SHR PUSH2 0x140 MLOAD PUSH1 0x60 SHR PUSH2 0x160 MLOAD PUSH1 0x60 SHR PUSH2 0x180 MLOAD PUSH1 0x60 SHR PUSH2 0x1A0 MLOAD PUSH1 0x60 SHR PUSH2 0x1C0 MLOAD PUSH1 0x60 SHR PUSH2 0x1E0 MLOAD PUSH1 0x60 SHR PUSH2 0x200 MLOAD PUSH1 0x60 SHR PUSH2 0x220 MLOAD PUSH1 0x60 SHR PUSH2 0x240 MLOAD PUSH1 0x60 SHR PUSH2 0x260 MLOAD PUSH1 0x60 SHR PUSH2 0x280 MLOAD PUSH1 0x60 SHR PUSH2 0x2A0 MLOAD PUSH1 0x60 SHR PUSH2 0x2C0 MLOAD PUSH1 0x60 SHR PUSH2 0x2E0 MLOAD PUSH1 0x60 SHR PUSH2 0x300 MLOAD PUSH1 0x60 SHR PUSH2 0x320 MLOAD PUSH1 0x60 SHR PUSH2 0x340 MLOAD PUSH1 0x60 SHR PUSH2 0x360 MLOAD PUSH1 0x60 SHR PUSH2 0x380 MLOAD PUSH1 0x60 SHR PUSH2 0x3A0 MLOAD PUSH1 0x60 SHR PUSH2 0x3C0 MLOAD PUSH1 0x60 SHR PUSH2 0x3E0 MLOAD PUSH1 0x60 SHR PUSH2 0x400 MLOAD PUSH1 0x60 SHR PUSH2 0x420 MLOAD PUSH1 0x60 SHR PUSH2 0x440 MLOAD PUSH1 0x60 SHR PUSH2 0x460 MLOAD PUSH1 0x60 SHR PUSH2 0x480 MLOAD PUSH1 0x60 SHR PUSH2 0x4A0 MLOAD PUSH1 0x60 SHR PUSH2 0x4C0 MLOAD PUSH1 0x60 SHR PUSH2 0x4E0 MLOAD PUSH1 0x60 SHR PUSH2 0x500 MLOAD PUSH1 0x60 SHR PUSH2 0x520 MLOAD PUSH1 0x60 SHR PUSH2 0x540 MLOAD PUSH1 0x60 SHR PUSH2 0x560 MLOAD PUSH1 0x60 SHR PUSH2 0x580 MLOAD PUSH1 0x60 SHR PUSH2 0x5A0 MLOAD PUSH1 0x60 SHR PUSH2 0x5C0 MLOAD PUSH1 0x60 SHR PUSH2 0x5E0 MLOAD PUSH1 0x60 SHR PUSH2 0x600 MLOAD PUSH1 0x60 SHR PUSH2 0x620 MLOAD PUSH1 0x60 SHR PUSH2 0x640 MLOAD PUSH1 0x60 SHR PUSH2 0x660 MLOAD PUSH1 0x60 SHR PUSH2 0x680 MLOAD PUSH1 0x60 SHR PUSH2 0x6A0 MLOAD PUSH1 0x60 SHR PUSH2 0x6C0 MLOAD PUSH1 0x60 SHR PUSH2 0x6E0 MLOAD PUSH1 0x60 SHR PUSH2 0x700 MLOAD PUSH1 0x60 SHR PUSH2 0x720 MLOAD PUSH1 0x60 SHR PUSH2 0x740 MLOAD PUSH1 0x60 SHR PUSH2 0x760 MLOAD PUSH1 0x60 SHR PUSH2 0x780 MLOAD PUSH1 0x60 SHR PUSH2 0x7A0 MLOAD PUSH1 0x60 SHR PUSH2 0x7C0 MLOAD PUSH1 0x60 SHR PUSH2 0x7E0 MLOAD PUSH1 0x60 SHR PUSH2 0x800 MLOAD PUSH1 0x60 SHR PUSH2 0x820 MLOAD PUSH2 0x840 MLOAD PUSH2 0x860 MLOAD PUSH2 0x880 MLOAD PUSH2 0x8A0 MLOAD PUSH2 0x8C0 MLOAD PUSH2 0x8E0 MLOAD PUSH2 0x900 MLOAD PUSH2 0x920 MLOAD PUSH2 0x940 MLOAD PUSH2 0x960 MLOAD PUSH2 0x980 MLOAD PUSH2 0x9A0 MLOAD PUSH2 0x9C0 MLOAD PUSH2 0x9E0 MLOAD PUSH2 0xA00 MLOAD PUSH2 0xA20 MLOAD PUSH2 0xA40 MLOAD PUSH2 0xA60 MLOAD PUSH2 0xA80 MLOAD PUSH2 0xAA0 MLOAD PUSH2 0xAC0 MLOAD PUSH2 0xAE0 MLOAD PUSH2 0xB00 MLOAD PUSH2 0xB20 MLOAD PUSH2 0xB40 MLOAD PUSH2 0xB60 MLOAD PUSH2 0xB80 MLOAD PUSH2 0xBA0 MLOAD PUSH2 0xBC0 MLOAD PUSH2 0xBE0 MLOAD PUSH2 0xC00 MLOAD PUSH2 0xC20 MLOAD PUSH2 0xC40 MLOAD PUSH2 0xC60 MLOAD PUSH2 0xC80 MLOAD PUSH2 0xCA0 MLOAD PUSH2 0xCC0 MLOAD PUSH2 0xCE0 MLOAD PUSH2 0xD00 MLOAD PUSH2 0xD20 MLOAD PUSH2 0xD40 MLOAD PUSH2 0xD60 MLOAD PUSH2 0xD80 MLOAD PUSH2 0xDA0 MLOAD PUSH2 0xDC0 MLOAD PUSH2 0xDE0 MLOAD PUSH2 0xE00 MLOAD PUSH2 0xE20 MLOAD PUSH2 0xE40 MLOAD PUSH2 0xE60 MLOAD PUSH2 0xE80 MLOAD PUSH2 0xEA0 MLOAD PUSH2 0xEC0 MLOAD PUSH2 0xEE0 MLOAD PUSH2 0xF00 MLOAD PUSH2 0xF20 MLOAD PUSH2 0xF40 MLOAD PUSH2 0xF60 MLOAD PUSH2 0xF80 MLOAD PUSH2 0xFA0 MLOAD PUSH1 0xF8 SHR PUSH2 0xFC0 MLOAD PUSH1 0xF8 SHR PUSH2 0xFE0 MLOAD PUSH1 0xF8 SHR PUSH2 0x1000 MLOAD PUSH1 0xF8 SHR PUSH2 0x1020 MLOAD PUSH1 0xF8 SHR PUSH2 0x1040 MLOAD PUSH1 0xF8 SHR PUSH2 0x1060 MLOAD PUSH1 0xF8 SHR PUSH2 0x1080 MLOAD PUSH1 0xF8 SHR PUSH2 0x10A0 MLOAD PUSH1 0xF8 SHR PUSH2 0x10C0 MLOAD PUSH1 0xF8 SHR PUSH2 0x10E0 MLOAD PUSH1 0xF8 SHR PUSH2 0x1100 MLOAD PUSH1 0xF8 SHR PUSH2 0x1120 MLOAD PUSH1 0xF8 SHR PUSH2 0x1140 MLOAD PUSH1 0xF8 SHR PUSH2 0x1160 MLOAD PUSH1 0xF8 SHR PUSH2 0x1180 MLOAD PUSH1 0xF8 SHR PUSH2 0x11A0 MLOAD PUSH1 0xF8 SHR PUSH2 0x11C0 MLOAD PUSH1 0xF8 SHR PUSH2 0x11E0 MLOAD PUSH1 0xF8 SHR PUSH2 0x1200 MLOAD PUSH1 0xF8 SHR PUSH2 0x1220 MLOAD PUSH1 0xF8 SHR PUSH2 0x1240 MLOAD PUSH1 0xF8 SHR PUSH2 0x1260 MLOAD PUSH1 0xF8 SHR PUSH2 0x1280 MLOAD PUSH1 0xF8 SHR PUSH2 0x12A0 MLOAD PUSH1 0xF8 SHR PUSH2 0x12C0 MLOAD PUSH1 0xF8 SHR PUSH2 0x12E0 MLOAD PUSH1 0xF8 SHR PUSH2 0x1300 MLOAD PUSH1 0xF8 SHR PUSH2 0x1320 MLOAD PUSH1 0xF8 SHR PUSH2 0x1340 MLOAD PUSH1 0xF8 SHR PUSH2 0x1360 MLOAD PUSH2 0x1380 MLOAD PUSH2 0x13A0 MLOAD PUSH2 0x13C0 MLOAD PUSH2 0x13E0 MLOAD PUSH2 0x1400 MLOAD PUSH2 0x1420 MLOAD PUSH2 0x1440 MLOAD PUSH2 0x1460 MLOAD PUSH2 0x1480 MLOAD PUSH2 0x14A0 MLOAD PUSH2 0x14C0 MLOAD PUSH2 0x14E0 MLOAD PUSH2 0x1500 MLOAD PUSH2 0x1520 MLOAD PUSH2 0x1540 MLOAD PUSH2 0x1560 MLOAD PUSH2 0x1580 MLOAD PUSH2 0x15A0 MLOAD PUSH2 0x15C0 MLOAD PUSH2 0x15E0 MLOAD PUSH2 0x1600 MLOAD PUSH2 0x1620 MLOAD PUSH2 0x1640 MLOAD PUSH2 0x1660 MLOAD PUSH2 0x1680 MLOAD PUSH2 0x16A0 MLOAD PUSH2 0x16C0 MLOAD PUSH2 0x16E0 MLOAD PUSH2 0x1700 MLOAD PUSH2 0x1720 MLOAD PUSH1 0x60 SHR PUSH2 0x1740 MLOAD PUSH1 0x60 SHR PUSH2 0x1760 MLOAD PUSH1 0x60 SHR PUSH2 0x1780 MLOAD PUSH1 0x60 SHR PUSH2 0x17A0 MLOAD PUSH1 0x60 SHR PUSH2 0x17C0 MLOAD PUSH1 0x60 SHR PUSH2 0x17E0 MLOAD PUSH1 0x60 SHR PUSH2 0x1800 MLOAD PUSH1 0x60 SHR PUSH2 0x1820 MLOAD PUSH1 0x60 SHR PUSH2 0x1840 MLOAD PUSH1 0x60 SHR PUSH2 0x1860 MLOAD PUSH1 0x60 SHR PUSH2 0x1880 MLOAD PUSH1 0x60 SHR PUSH2 0x18A0 MLOAD PUSH1 0x60 SHR PUSH2 0x18C0 MLOAD PUSH1 0x60 SHR PUSH2 0x18E0 MLOAD PUSH1 0x60 SHR PUSH2 0x1900 MLOAD PUSH1 0x60 SHR PUSH2 0x1920 MLOAD PUSH1 0x60 SHR PUSH2 0x1940 MLOAD PUSH1 0x60 SHR PUSH2 0x1960 MLOAD PUSH1 0x60 SHR PUSH2 0x1980 MLOAD PUSH1 0x60 SHR PUSH2 0x19A0 MLOAD PUSH1 0x60 SHR PUSH2 0x19C0 MLOAD PUSH1 0x60 SHR PUSH2 0x19E0 MLOAD PUSH1 0x60 SHR PUSH2 0x1A00 MLOAD PUSH1 0x60 SHR PUSH2 0x1A20 MLOAD PUSH1 0x60 SHR PUSH2 0x1A40 MLOAD PUSH1 0x60 SHR PUSH2 0x1A60 MLOAD PUSH1 0x60 SHR PUSH2 0x1A80 MLOAD PUSH1 0x60 SHR PUSH2 0x1AA0 MLOAD PUSH1 0x60 SHR PUSH2 0x1AC0 MLOAD PUSH1 0x60 SHR PUSH2 0x1AE0 MLOAD PUSH1 0xF8 SHR PUSH2 0x1B00 MLOAD PUSH1 0xF8 SHR PUSH2 0x1B20 MLOAD PUSH1 0xF8 SHR PUSH2 0x1B40 MLOAD PUSH1 0xF8 SHR PUSH2 0x1B60 MLOAD PUSH1 0xF8 SHR PUSH2 0x1B80 MLOAD PUSH1 0xF8 SHR PUSH2 0x1BA0 MLOAD PUSH1 0xF8 SHR PUSH2 0x1BC0 MLOAD PUSH1 0xF8 SHR PUSH2 0x1BE0 MLOAD PUSH1 0xF8 SHR PUSH2 0x1C00 MLOAD PUSH1 0xF8 SHR PUSH2 0x1C20 MLOAD PUSH1 0xF8 SHR PUSH2 0x1C40 MLOAD PUSH1 0xF8 SHR PUSH2 0x1C60 MLOAD PUSH1 0xF8 SHR PUSH2 0x1C80 MLOAD PUSH1 0xF8 SHR PUSH2 0x1CA0 MLOAD PUSH1 0xF8 SHR PUSH2 0x1CC0 MLOAD PUSH1 0xF8 SHR PUSH2 0x1CE0 MLOAD PUSH1 0xF8 SHR PUSH2 0x1D00 MLOAD PUSH1 0xF8 SHR PUSH2 0x1D20 MLOAD PUSH1 0xF8 SHR PUSH2 0x1D40 MLOAD PUSH1 0xF8 SHR PUSH2 0x1D60 MLOAD PUSH1 0xF8 SHR PUSH2 0x1D80 MLOAD PUSH1 0xF8 SHR PUSH2 0x1DA0 MLOAD PUSH1 0xF8 SHR PUSH2 0x1DC0 MLOAD PUSH1 0xF8 SHR PUSH2 0x1DE0 MLOAD PUSH1 0xF8 SHR PUSH2 0x1E00 MLOAD PUSH1 0xF8 SHR PUSH2 0x1E20 MLOAD PUSH1 0xF8 SHR PUSH2 0x1E40 MLOAD PUSH1 0xF8 SHR PUSH2 0x1E60 MLOAD PUSH1 0xF8 SHR PUSH2 0x1E80 MLOAD PUSH1 0xF8 SHR PUSH2 0x4625 PUSH3 0x3168 PUSH1 0x0 CODECOPY DUP1 PUSH2 0x2D77 MSTORE POP DUP1 PUSH2 0x2C05 MSTORE POP DUP1 PUSH2 0x2A93 MSTORE POP DUP1 PUSH2 0x2921 MSTORE POP DUP1 PUSH2 0x27AF MSTORE POP DUP1 PUSH2 0x263D MSTORE POP DUP1 PUSH2 0x24CB MSTORE POP DUP1 PUSH2 0x2359 MSTORE POP DUP1 PUSH2 0x21E7 MSTORE POP DUP1 PUSH2 0x2075 MSTORE POP DUP1 PUSH2 0x1F03 MSTORE POP DUP1 PUSH2 0x1D91 MSTORE POP DUP1 PUSH2 0x1C1F MSTORE POP DUP1 PUSH2 0x1AAD MSTORE POP DUP1 PUSH2 0x193B MSTORE POP DUP1 PUSH2 0x17C9 MSTORE POP DUP1 PUSH2 0x1657 MSTORE POP DUP1 PUSH2 0x14E5 MSTORE POP DUP1 PUSH2 0x1373 MSTORE POP DUP1 PUSH2 0x1201 MSTORE POP DUP1 PUSH2 0x108F MSTORE POP DUP1 PUSH2 0xF1D MSTORE POP DUP1 PUSH2 0xDAB MSTORE POP DUP1 PUSH2 0xC39 MSTORE POP DUP1 PUSH2 0xAC7 MSTORE POP DUP1 PUSH2 0x955 MSTORE POP DUP1 PUSH2 0x7E3 MSTORE POP DUP1 PUSH2 0x671 MSTORE POP DUP1 PUSH2 0x4FF MSTORE POP DUP1 PUSH2 0x38D MSTORE POP DUP1 PUSH2 0x2D48 MSTORE POP DUP1 PUSH2 0x2BD6 MSTORE POP DUP1 PUSH2 0x2A64 MSTORE POP DUP1 PUSH2 0x28F2 MSTORE POP DUP1 PUSH2 0x2780 MSTORE POP DUP1 PUSH2 0x260E MSTORE POP DUP1 PUSH2 0x249C MSTORE POP DUP1 PUSH2 0x232A MSTORE POP DUP1 PUSH2 0x21B8 MSTORE POP DUP1 PUSH2 0x2046 MSTORE POP DUP1 PUSH2 0x1ED4 MSTORE POP DUP1 PUSH2 0x1D62 MSTORE POP DUP1 PUSH2 0x1BF0 MSTORE POP DUP1 PUSH2 0x1A7E MSTORE POP DUP1 PUSH2 0x190C MSTORE POP DUP1 PUSH2 0x179A MSTORE POP DUP1 PUSH2 0x1628 MSTORE POP DUP1 PUSH2 0x14B6 MSTORE POP DUP1 PUSH2 0x1344 MSTORE POP DUP1 PUSH2 0x11D2 MSTORE POP DUP1 PUSH2 0x1060 MSTORE POP DUP1 PUSH2 0xEEE MSTORE POP DUP1 PUSH2 0xD7C MSTORE POP DUP1 PUSH2 0xC0A MSTORE POP DUP1 PUSH2 0xA98 MSTORE POP DUP1 PUSH2 0x926 MSTORE POP DUP1 PUSH2 0x7B4 MSTORE POP DUP1 PUSH2 0x642 MSTORE POP DUP1 PUSH2 0x4D0 MSTORE POP DUP1 PUSH2 0x35E MSTORE POP DUP1 PUSH2 0x2D22 MSTORE POP DUP1 PUSH2 0x2BB0 MSTORE POP DUP1 PUSH2 0x2A3E MSTORE POP DUP1 PUSH2 0x28CC MSTORE POP DUP1 PUSH2 0x275A MSTORE POP DUP1 PUSH2 0x25E8 MSTORE POP DUP1 PUSH2 0x2476 MSTORE POP DUP1 PUSH2 0x2304 MSTORE POP DUP1 PUSH2 0x2192 MSTORE POP DUP1 PUSH2 0x2020 MSTORE POP DUP1 PUSH2 0x1EAE MSTORE POP DUP1 PUSH2 0x1D3C MSTORE POP DUP1 PUSH2 0x1BCA MSTORE POP DUP1 PUSH2 0x1A58 MSTORE POP DUP1 PUSH2 0x18E6 MSTORE POP DUP1 PUSH2 0x1774 MSTORE POP DUP1 PUSH2 0x1602 MSTORE POP DUP1 PUSH2 0x1490 MSTORE POP DUP1 PUSH2 0x131E MSTORE POP DUP1 PUSH2 0x11AC MSTORE POP DUP1 PUSH2 0x103A MSTORE POP DUP1 PUSH2 0xEC8 MSTORE POP DUP1 PUSH2 0xD56 MSTORE POP DUP1 PUSH2 0xBE4 MSTORE POP DUP1 PUSH2 0xA72 MSTORE POP DUP1 PUSH2 0x900 MSTORE POP DUP1 PUSH2 0x78E MSTORE POP DUP1 PUSH2 0x61C MSTORE POP DUP1 PUSH2 0x4AA MSTORE POP DUP1 PUSH2 0x338 MSTORE POP DUP1 PUSH2 0x2CF1 MSTORE POP DUP1 PUSH2 0x2B7F MSTORE POP DUP1 PUSH2 0x2A0D MSTORE POP DUP1 PUSH2 0x289B MSTORE POP DUP1 PUSH2 0x2729 MSTORE POP DUP1 PUSH2 0x25B7 MSTORE POP DUP1 PUSH2 0x2445 MSTORE POP DUP1 PUSH2 0x22D3 MSTORE POP DUP1 PUSH2 0x2161 MSTORE POP DUP1 PUSH2 0x1FEF MSTORE POP DUP1 PUSH2 0x1E7D MSTORE POP DUP1 PUSH2 0x1D0B MSTORE POP DUP1 PUSH2 0x1B99 MSTORE POP DUP1 PUSH2 0x1A27 MSTORE POP DUP1 PUSH2 0x18B5 MSTORE POP DUP1 PUSH2 0x1743 MSTORE POP DUP1 PUSH2 0x15D1 MSTORE POP DUP1 PUSH2 0x145F MSTORE POP DUP1 PUSH2 0x12ED MSTORE POP DUP1 PUSH2 0x117B MSTORE POP DUP1 PUSH2 0x1009 MSTORE POP DUP1 PUSH2 0xE97 MSTORE POP DUP1 PUSH2 0xD25 MSTORE POP DUP1 PUSH2 0xBB3 MSTORE POP DUP1 PUSH2 0xA41 MSTORE POP DUP1 PUSH2 0x8CF MSTORE POP DUP1 PUSH2 0x75D MSTORE POP DUP1 PUSH2 0x5EB MSTORE POP DUP1 PUSH2 0x479 MSTORE POP DUP1 PUSH2 0x307 MSTORE POP DUP1 PUSH2 0x2CCB MSTORE POP DUP1 PUSH2 0x2B59 MSTORE POP DUP1 PUSH2 0x29E7 MSTORE POP DUP1 PUSH2 0x2875 MSTORE POP DUP1 PUSH2 0x2703 MSTORE POP DUP1 PUSH2 0x2591 MSTORE POP DUP1 PUSH2 0x241F MSTORE POP DUP1 PUSH2 0x22AD MSTORE POP DUP1 PUSH2 0x213B MSTORE POP DUP1 PUSH2 0x1FC9 MSTORE POP DUP1 PUSH2 0x1E57 MSTORE POP DUP1 PUSH2 0x1CE5 MSTORE POP DUP1 PUSH2 0x1B73 MSTORE POP DUP1 PUSH2 0x1A01 MSTORE POP DUP1 PUSH2 0x188F MSTORE POP DUP1 PUSH2 0x171D MSTORE POP DUP1 PUSH2 0x15AB MSTORE POP DUP1 PUSH2 0x1439 MSTORE POP DUP1 PUSH2 0x12C7 MSTORE POP DUP1 PUSH2 0x1155 MSTORE POP DUP1 PUSH2 0xFE3 MSTORE POP DUP1 PUSH2 0xE71 MSTORE POP DUP1 PUSH2 0xCFF MSTORE POP DUP1 PUSH2 0xB8D MSTORE POP DUP1 PUSH2 0xA1B MSTORE POP DUP1 PUSH2 0x8A9 MSTORE POP DUP1 PUSH2 0x737 MSTORE POP DUP1 PUSH2 0x5C5 MSTORE POP DUP1 PUSH2 0x453 MSTORE POP DUP1 PUSH2 0x2E1 MSTORE POP DUP1 PUSH2 0x2CA5 MSTORE DUP1 PUSH2 0x33E1 MSTORE POP DUP1 PUSH2 0x2B33 MSTORE DUP1 PUSH2 0x33B1 MSTORE POP DUP1 PUSH2 0x29C1 MSTORE DUP1 PUSH2 0x3381 MSTORE POP DUP1 PUSH2 0x284F MSTORE DUP1 PUSH2 0x3351 MSTORE POP DUP1 PUSH2 0x26DD MSTORE DUP1 PUSH2 0x3321 MSTORE POP DUP1 PUSH2 0x256B MSTORE DUP1 PUSH2 0x32F1 MSTORE POP DUP1 PUSH2 0x23F9 MSTORE DUP1 PUSH2 0x32C1 MSTORE POP DUP1 PUSH2 0x2287 MSTORE DUP1 PUSH2 0x3291 MSTORE POP DUP1 PUSH2 0x2115 MSTORE DUP1 PUSH2 0x3261 MSTORE POP DUP1 PUSH2 0x1FA3 MSTORE DUP1 PUSH2 0x3231 MSTORE POP DUP1 PUSH2 0x1E31 MSTORE DUP1 PUSH2 0x3201 MSTORE POP DUP1 PUSH2 0x1CBF MSTORE DUP1 PUSH2 0x31D1 MSTORE POP DUP1 PUSH2 0x1B4D MSTORE DUP1 PUSH2 0x31A1 MSTORE POP DUP1 PUSH2 0x19DB MSTORE DUP1 PUSH2 0x3171 MSTORE POP DUP1 PUSH2 0x1869 MSTORE DUP1 PUSH2 0x3141 MSTORE POP DUP1 PUSH2 0x16F7 MSTORE DUP1 PUSH2 0x3111 MSTORE POP DUP1 PUSH2 0x1585 MSTORE DUP1 PUSH2 0x30E1 MSTORE POP DUP1 PUSH2 0x1413 MSTORE DUP1 PUSH2 0x30B1 MSTORE POP DUP1 PUSH2 0x12A1 MSTORE DUP1 PUSH2 0x3081 MSTORE POP DUP1 PUSH2 0x112F MSTORE DUP1 PUSH2 0x3051 MSTORE POP DUP1 PUSH2 0xFBD MSTORE DUP1 PUSH2 0x3021 MSTORE POP DUP1 PUSH2 0xE4B MSTORE DUP1 PUSH2 0x2FF1 MSTORE POP DUP1 PUSH2 0xCD9 MSTORE DUP1 PUSH2 0x2FC1 MSTORE POP DUP1 PUSH2 0xB67 MSTORE DUP1 PUSH2 0x2F91 MSTORE POP DUP1 PUSH2 0x9F5 MSTORE DUP1 PUSH2 0x2F61 MSTORE POP DUP1 PUSH2 0x883 MSTORE DUP1 PUSH2 0x2F31 MSTORE POP DUP1 PUSH2 0x711 MSTORE DUP1 PUSH2 0x2F01 MSTORE POP DUP1 PUSH2 0x59F MSTORE DUP1 PUSH2 0x2ED1 MSTORE POP DUP1 PUSH2 0x42D MSTORE DUP1 PUSH2 0x2EA1 MSTORE POP DUP1 PUSH2 0x2BB MSTORE DUP1 PUSH2 0x2E71 MSTORE POP DUP1 PUSH2 0x2C76 MSTORE DUP1 PUSH2 0x3B96 MSTORE POP DUP1 PUSH2 0x2B04 MSTORE DUP1 PUSH2 0x3B54 MSTORE POP DUP1 PUSH2 0x2992 MSTORE DUP1 PUSH2 0x3B12 MSTORE POP DUP1 PUSH2 0x2820 MSTORE DUP1 PUSH2 0x3AD0 MSTORE POP DUP1 PUSH2 0x26AE MSTORE DUP1 PUSH2 0x3A8E MSTORE POP DUP1 PUSH2 0x253C MSTORE DUP1 PUSH2 0x3A4C MSTORE POP DUP1 PUSH2 0x23CA MSTORE DUP1 PUSH2 0x3A0A MSTORE POP DUP1 PUSH2 0x2258 MSTORE DUP1 PUSH2 0x39C8 MSTORE POP DUP1 PUSH2 0x20E6 MSTORE DUP1 PUSH2 0x3986 MSTORE POP DUP1 PUSH2 0x1F74 MSTORE DUP1 PUSH2 0x3944 MSTORE POP DUP1 PUSH2 0x1E02 MSTORE DUP1 PUSH2 0x3902 MSTORE POP DUP1 PUSH2 0x1C90 MSTORE DUP1 PUSH2 0x38C0 MSTORE POP DUP1 PUSH2 0x1B1E MSTORE DUP1 PUSH2 0x387E MSTORE POP DUP1 PUSH2 0x19AC MSTORE DUP1 PUSH2 0x383C MSTORE POP DUP1 PUSH2 0x183A MSTORE DUP1 PUSH2 0x37FA MSTORE POP DUP1 PUSH2 0x16C8 MSTORE DUP1 PUSH2 0x37B8 MSTORE POP DUP1 PUSH2 0x1556 MSTORE DUP1 PUSH2 0x3776 MSTORE POP DUP1 PUSH2 0x13E4 MSTORE DUP1 PUSH2 0x3734 MSTORE POP DUP1 PUSH2 0x1272 MSTORE DUP1 PUSH2 0x36F2 MSTORE POP DUP1 PUSH2 0x1100 MSTORE DUP1 PUSH2 0x36B0 MSTORE POP DUP1 PUSH2 0xF8E MSTORE DUP1 PUSH2 0x366E MSTORE POP DUP1 PUSH2 0xE1C MSTORE DUP1 PUSH2 0x362C MSTORE POP DUP1 PUSH2 0xCAA MSTORE DUP1 PUSH2 0x35EA MSTORE POP DUP1 PUSH2 0xB38 MSTORE DUP1 PUSH2 0x35A8 MSTORE POP DUP1 PUSH2 0x9C6 MSTORE DUP1 PUSH2 0x3566 MSTORE POP DUP1 PUSH2 0x854 MSTORE DUP1 PUSH2 0x3524 MSTORE POP DUP1 PUSH2 0x6E2 MSTORE DUP1 PUSH2 0x34E2 MSTORE POP DUP1 PUSH2 0x570 MSTORE DUP1 PUSH2 0x34A0 MSTORE POP DUP1 PUSH2 0x3FE MSTORE DUP1 PUSH2 0x345E MSTORE POP DUP1 PUSH2 0x28C MSTORE DUP1 PUSH2 0x341C MSTORE POP DUP1 PUSH2 0x2C47 MSTORE DUP1 PUSH2 0x4354 MSTORE POP DUP1 PUSH2 0x2AD5 MSTORE DUP1 PUSH2 0x4312 MSTORE POP DUP1 PUSH2 0x2963 MSTORE DUP1 PUSH2 0x42D0 MSTORE POP DUP1 PUSH2 0x27F1 MSTORE DUP1 PUSH2 0x428E MSTORE POP DUP1 PUSH2 0x267F MSTORE DUP1 PUSH2 0x424C MSTORE POP DUP1 PUSH2 0x250D MSTORE DUP1 PUSH2 0x420A MSTORE POP DUP1 PUSH2 0x239B MSTORE DUP1 PUSH2 0x41C8 MSTORE POP DUP1 PUSH2 0x2229 MSTORE DUP1 PUSH2 0x4186 MSTORE POP DUP1 PUSH2 0x20B7 MSTORE DUP1 PUSH2 0x4144 MSTORE POP DUP1 PUSH2 0x1F45 MSTORE DUP1 PUSH2 0x4102 MSTORE POP DUP1 PUSH2 0x1DD3 MSTORE DUP1 PUSH2 0x40C0 MSTORE POP DUP1 PUSH2 0x1C61 MSTORE DUP1 PUSH2 0x407E MSTORE POP DUP1 PUSH2 0x1AEF MSTORE DUP1 PUSH2 0x403C MSTORE POP DUP1 PUSH2 0x197D MSTORE DUP1 PUSH2 0x3FFA MSTORE POP DUP1 PUSH2 0x180B MSTORE DUP1 PUSH2 0x3FB8 MSTORE POP DUP1 PUSH2 0x1699 MSTORE DUP1 PUSH2 0x3F76 MSTORE POP DUP1 PUSH2 0x1527 MSTORE DUP1 PUSH2 0x3F34 MSTORE POP DUP1 PUSH2 0x13B5 MSTORE DUP1 PUSH2 0x3EF2 MSTORE POP DUP1 PUSH2 0x1243 MSTORE DUP1 PUSH2 0x3EB0 MSTORE POP DUP1 PUSH2 0x10D1 MSTORE DUP1 PUSH2 0x3E6E MSTORE POP DUP1 PUSH2 0xF5F MSTORE DUP1 PUSH2 0x3E2C MSTORE POP DUP1 PUSH2 0xDED MSTORE DUP1 PUSH2 0x3DEA MSTORE POP DUP1 PUSH2 0xC7B MSTORE DUP1 PUSH2 0x3DA8 MSTORE POP DUP1 PUSH2 0xB09 MSTORE DUP1 PUSH2 0x3D66 MSTORE POP DUP1 PUSH2 0x997 MSTORE DUP1 PUSH2 0x3D24 MSTORE POP DUP1 PUSH2 0x825 MSTORE DUP1 PUSH2 0x3CE2 MSTORE POP DUP1 PUSH2 0x6B3 MSTORE DUP1 PUSH2 0x3CA0 MSTORE POP DUP1 PUSH2 0x541 MSTORE DUP1 PUSH2 0x3C5E MSTORE POP DUP1 PUSH2 0x3CF MSTORE DUP1 PUSH2 0x3C1C MSTORE POP DUP1 PUSH2 0x25D MSTORE DUP1 PUSH2 0x3BDA MSTORE POP DUP1 PUSH2 0x20D MSTORE DUP1 PUSH2 0x2DA4 MSTORE POP PUSH2 0x4625 PUSH1 0x0 RETURN INVALID PUSH1 0x80 PUSH1 0x40 MSTORE CALLVALUE DUP1 ISZERO PUSH2 0x10 JUMPI PUSH1 0x0 DUP1 REVERT JUMPDEST POP PUSH1 0x4 CALLDATASIZE LT PUSH2 0x88 JUMPI PUSH1 0x0 CALLDATALOAD PUSH1 0xE0 SHR DUP1 PUSH4 0x8A003888 GT PUSH2 0x5B JUMPI DUP1 PUSH4 0x8A003888 EQ PUSH2 0xFC JUMPI DUP1 PUSH4 0x8E499BCF EQ PUSH2 0x10F JUMPI DUP1 PUSH4 0xE8315742 EQ PUSH2 0x117 JUMPI DUP1 PUSH4 0xEEA85ECB EQ PUSH2 0x11F JUMPI PUSH2 0x88 JUMP JUMPDEST DUP1 PUSH4 0x6981C91 EQ PUSH2 0x8D JUMPI DUP1 PUSH4 0x1A125204 EQ PUSH2 0xB6 JUMPI DUP1 PUSH4 0x276C2CBA EQ PUSH2 0xD6 JUMPI DUP1 PUSH4 0x4DA21942 EQ PUSH2 0xE9 JUMPI JUMPDEST PUSH1 0x0 DUP1 REVERT JUMPDEST PUSH2 0xA0 PUSH2 0x9B CALLDATASIZE PUSH1 0x4 PUSH2 0x4429 JUMP JUMPDEST PUSH2 0x132 JUMP JUMPDEST PUSH1 0x40 MLOAD PUSH2 0xAD SWAP2 SWAP1 PUSH2 0x4510 JUMP JUMPDEST PUSH1 0x40 MLOAD DUP1 SWAP2 SUB SWAP1 RETURN JUMPDEST PUSH2 0xC9 PUSH2 0xC4 CALLDATASIZE PUSH1 0x4 PUSH2 0x4411 JUMP JUMPDEST PUSH2 0x163 JUMP JUMPDEST PUSH1 0x40 MLOAD PUSH2 0xAD SWAP2 SWAP1 PUSH2 0x4549 JUMP JUMPDEST PUSH2 0xC9 PUSH2 0xE4 CALLDATASIZE PUSH1 0x4 PUSH2 0x4429 JUMP JUMPDEST PUSH2 0x1B3 JUMP JUMPDEST PUSH2 0xC9 PUSH2 0xF7 CALLDATASIZE PUSH1 0x4 PUSH2 0x43D9 JUMP JUMPDEST PUSH2 0x1F0 JUMP JUMPDEST PUSH2 0xC9 PUSH2 0x10A CALLDATASIZE PUSH1 0x4 PUSH2 0x4411 JUMP JUMPDEST PUSH2 0x203 JUMP JUMPDEST PUSH2 0xA0 PUSH2 0x2DA2 JUMP JUMPDEST PUSH2 0xA0 PUSH2 0x2DC6 JUMP JUMPDEST PUSH2 0xC9 PUSH2 0x12D CALLDATASIZE PUSH1 0x4 PUSH2 0x43D9 JUMP JUMPDEST PUSH2 0x2DCB JUMP JUMPDEST PUSH1 0x0 DUP2 PUSH1 0x40 MLOAD PUSH1 0x20 ADD PUSH2 0x145 SWAP2 SWAP1 PUSH2 0x44D7 JUMP JUMPDEST PUSH1 0x40 MLOAD PUSH1 0x20 DUP2 DUP4 SUB SUB DUP2 MSTORE SWAP1 PUSH1 0x40 MSTORE DUP1 MLOAD SWAP1 PUSH1 0x20 ADD KECCAK256 SWAP1 POP JUMPDEST SWAP2 SWAP1 POP JUMP JUMPDEST PUSH2 0x16B PUSH2 0x4394 JUMP JUMPDEST PUSH1 0x0 PUSH2 0x176 DUP4 PUSH2 0x2E6D JUMP JUMPDEST SWAP1 POP PUSH1 0x0 NOT DUP2 EQ PUSH2 0x192 JUMPI PUSH2 0x18A DUP2 PUSH2 0x203 JUMP JUMPDEST SWAP2 POP POP PUSH2 0x15E JUMP JUMPDEST PUSH1 0x40 MLOAD PUSH3 0x461BCD PUSH1 0xE5 SHL DUP2 MSTORE PUSH1 0x4 ADD PUSH2 0x1AA SWAP1 PUSH2 0x4519 JUMP JUMPDEST PUSH1 0x40 MLOAD DUP1 SWAP2 SUB SWAP1 REVERT JUMPDEST PUSH2 0x1BB PUSH2 0x4394 JUMP JUMPDEST PUSH2 0x1EA DUP3 PUSH1 0x40 MLOAD PUSH1 0x20 ADD PUSH2 0x1CF SWAP2 SWAP1 PUSH2 0x44D7 JUMP JUMPDEST PUSH1 0x40 MLOAD PUSH1 0x20 DUP2 DUP4 SUB SUB DUP2 MSTORE SWAP1 PUSH1 0x40 MSTORE DUP1 MLOAD SWAP1 PUSH1 0x20 ADD KECCAK256 PUSH2 0x163 JUMP JUMPDEST SWAP3 SWAP2 POP POP JUMP JUMPDEST PUSH2 0x1F8 PUSH2 0x4394 JUMP JUMPDEST PUSH1 0x0 PUSH2 0x176 DUP4 PUSH2 0x3418 JUMP JUMPDEST PUSH2 0x20B PUSH2 0x4394 JUMP JUMPDEST PUSH32 0x0 DUP3 LT PUSH2 0x24A JUMPI PUSH1 0x40 MLOAD PUSH3 0x461BCD PUSH1 0xE5 SHL DUP2 MSTORE PUSH1 0x4 ADD PUSH2 0x1AA SWAP1 PUSH2 0x4519 JUMP JUMPDEST DUP2 PUSH2 0x3B8 JUMPI PUSH1 0x40 MLOAD DUP1 PUSH2 0x100 ADD PUSH1 0x40 MSTORE DUP1 PUSH32 0x0 PUSH1 0x1 PUSH1 0x1 PUSH1 0xA0 SHL SUB AND DUP2 MSTORE PUSH1 0x20 ADD PUSH32 0x0 PUSH1 0x1 PUSH1 0x1 PUSH1 0xA0 SHL SUB AND DUP2 MSTORE PUSH1 0x20 ADD PUSH32 0x0 DUP2 MSTORE PUSH1 0x20 ADD PUSH32 0x0 DUP2 MSTORE PUSH1 0x20 ADD PUSH32 0x0 PUSH1 0x2 DUP2 GT ISZERO PUSH2 0x331 JUMPI INVALID JUMPDEST DUP2 MSTORE PUSH1 0x20 ADD PUSH32 0x0 DUP2 MSTORE PUSH1 0x20 ADD PUSH32 0x0 PUSH1 0x1 PUSH1 0x1 PUSH1 0xA0 SHL SUB AND DUP2 MSTORE PUSH1 0x20 ADD PUSH32 0x0 ISZERO ISZERO DUP2 MSTORE POP SWAP1 POP PUSH2 0x15E JUMP JUMPDEST DUP2 PUSH1 0x1 EQ ISZERO PUSH2 0x52A JUMPI PUSH1 0x40 MLOAD DUP1 PUSH2 0x100 ADD PUSH1 0x40 MSTORE DUP1 PUSH32 0x0 PUSH1 0x1 PUSH1 0x1 PUSH1 0xA0 SHL SUB AND DUP2 MSTORE PUSH1 0x20 ADD PUSH32 0x0 PUSH1 0x1 PUSH1 0x1 PUSH1 0xA0 SHL SUB AND DUP2 MSTORE PUSH1 0x20 ADD PUSH32 0x0 DUP2 MSTORE PUSH1 0x20 ADD PUSH32 0x0 DUP2 MSTORE PUSH1 0x20 ADD PUSH32 0x0 PUSH1 0x2 DUP2 GT ISZERO PUSH2 0x4A3 JUMPI INVALID JUMPDEST DUP2 MSTORE PUSH1 0x20 ADD PUSH32 0x0 DUP2 MSTORE PUSH1 0x20 ADD PUSH32 0x0 PUSH1 0x1 PUSH1 0x1 PUSH1 0xA0 SHL SUB AND DUP2 MSTORE PUSH1 0x20 ADD PUSH32 0x0 ISZERO ISZERO DUP2 MSTORE POP SWAP1 POP PUSH2 0x15E JUMP JUMPDEST DUP2 PUSH1 0x2 EQ ISZERO PUSH2 0x69C JUMPI PUSH1 0x40 MLOAD DUP1 PUSH2 0x100 ADD PUSH1 0x40 MSTORE DUP1 PUSH32 0x0 PUSH1 0x1 PUSH1 0x1 PUSH1 0xA0 SHL SUB AND DUP2 MSTORE PUSH1 0x20 ADD PUSH32 0x0 PUSH1 0x1 PUSH1 0x1 PUSH1 0xA0 SHL SUB AND DUP2 MSTORE PUSH1 0x20 ADD PUSH32 0x0 DUP2 MSTORE PUSH1 0x20 ADD PUSH32 0x0 DUP2 MSTORE PUSH1 0x20 ADD PUSH32 0x0 PUSH1 0x2 DUP2 GT ISZERO PUSH2 0x615 JUMPI INVALID JUMPDEST DUP2 MSTORE PUSH1 0x20 ADD PUSH32 0x0 DUP2 MSTORE PUSH1 0x20 ADD PUSH32 0x0 PUSH1 0x1 PUSH1 0x1 PUSH1 0xA0 SHL SUB AND DUP2 MSTORE PUSH1 0x20 ADD PUSH32 0x0 ISZERO ISZERO DUP2 MSTORE POP SWAP1 POP PUSH2 0x15E JUMP JUMPDEST DUP2 PUSH1 0x3 EQ ISZERO PUSH2 0x80E JUMPI PUSH1 0x40 MLOAD DUP1 PUSH2 0x100 ADD PUSH1 0x40 MSTORE DUP1 PUSH32 0x0 PUSH1 0x1 PUSH1 0x1 PUSH1 0xA0 SHL SUB AND DUP2 MSTORE PUSH1 0x20 ADD PUSH32 0x0 PUSH1 0x1 PUSH1 0x1 PUSH1 0xA0 SHL SUB AND DUP2 MSTORE PUSH1 0x20 ADD PUSH32 0x0 DUP2 MSTORE PUSH1 0x20 ADD PUSH32 0x0 DUP2 MSTORE PUSH1 0x20 ADD PUSH32 0x0 PUSH1 0x2 DUP2 GT ISZERO PUSH2 0x787 JUMPI INVALID JUMPDEST DUP2 MSTORE PUSH1 0x20 ADD PUSH32 0x0 DUP2 MSTORE PUSH1 0x20 ADD PUSH32 0x0 PUSH1 0x1 PUSH1 0x1 PUSH1 0xA0 SHL SUB AND DUP2 MSTORE PUSH1 0x20 ADD PUSH32 0x0 ISZERO ISZERO DUP2 MSTORE POP SWAP1 POP PUSH2 0x15E JUMP JUMPDEST DUP2 PUSH1 0x4 EQ ISZERO PUSH2 0x980 JUMPI PUSH1 0x40 MLOAD DUP1 PUSH2 0x100 ADD PUSH1 0x40 MSTORE DUP1 PUSH32 0x0 PUSH1 0x1 PUSH1 0x1 PUSH1 0xA0 SHL SUB AND DUP2 MSTORE PUSH1 0x20 ADD PUSH32 0x0 PUSH1 0x1 PUSH1 0x1 PUSH1 0xA0 SHL SUB AND DUP2 MSTORE PUSH1 0x20 ADD PUSH32 0x0 DUP2 MSTORE PUSH1 0x20 ADD PUSH32 0x0 DUP2 MSTORE PUSH1 0x20 ADD PUSH32 0x0 PUSH1 0x2 DUP2 GT ISZERO PUSH2 0x8F9 JUMPI INVALID JUMPDEST DUP2 MSTORE PUSH1 0x20 ADD PUSH32 0x0 DUP2 MSTORE PUSH1 0x20 ADD PUSH32 0x0 PUSH1 0x1 PUSH1 0x1 PUSH1 0xA0 SHL SUB AND DUP2 MSTORE PUSH1 0x20 ADD PUSH32 0x0 ISZERO ISZERO DUP2 MSTORE POP SWAP1 POP PUSH2 0x15E JUMP JUMPDEST DUP2 PUSH1 0x5 EQ ISZERO PUSH2 0xAF2 JUMPI PUSH1 0x40 MLOAD DUP1 PUSH2 0x100 ADD PUSH1 0x40 MSTORE DUP1 PUSH32 0x0 PUSH1 0x1 PUSH1 0x1 PUSH1 0xA0 SHL SUB AND DUP2 MSTORE PUSH1 0x20 ADD PUSH32 0x0 PUSH1 0x1 PUSH1 0x1 PUSH1 0xA0 SHL SUB AND DUP2 MSTORE PUSH1 0x20 ADD PUSH32 0x0 DUP2 MSTORE PUSH1 0x20 ADD PUSH32 0x0 DUP2 MSTORE PUSH1 0x20 ADD PUSH32 0x0 PUSH1 0x2 DUP2 GT ISZERO PUSH2 0xA6B JUMPI INVALID JUMPDEST DUP2 MSTORE PUSH1 0x20 ADD PUSH32 0x0 DUP2 MSTORE PUSH1 0x20 ADD PUSH32 0x0 PUSH1 0x1 PUSH1 0x1 PUSH1 0xA0 SHL SUB AND DUP2 MSTORE PUSH1 0x20 ADD PUSH32 0x0 ISZERO ISZERO DUP2 MSTORE POP SWAP1 POP PUSH2 0x15E JUMP JUMPDEST DUP2 PUSH1 0x6 EQ ISZERO PUSH2 0xC64 JUMPI PUSH1 0x40 MLOAD DUP1 PUSH2 0x100 ADD PUSH1 0x40 MSTORE DUP1 PUSH32 0x0 PUSH1 0x1 PUSH1 0x1 PUSH1 0xA0 SHL SUB AND DUP2 MSTORE PUSH1 0x20 ADD PUSH32 0x0 PUSH1 0x1 PUSH1 0x1 PUSH1 0xA0 SHL SUB AND DUP2 MSTORE PUSH1 0x20 ADD PUSH32 0x0 DUP2 MSTORE PUSH1 0x20 ADD PUSH32 0x0 DUP2 MSTORE PUSH1 0x20 ADD PUSH32 0x0 PUSH1 0x2 DUP2 GT ISZERO PUSH2 0xBDD JUMPI INVALID JUMPDEST DUP2 MSTORE PUSH1 0x20 ADD PUSH32 0x0 DUP2 MSTORE PUSH1 0x20 ADD PUSH32 0x0 PUSH1 0x1 PUSH1 0x1 PUSH1 0xA0 SHL SUB AND DUP2 MSTORE PUSH1 0x20 ADD PUSH32 0x0 ISZERO ISZERO DUP2 MSTORE POP SWAP1 POP PUSH2 0x15E JUMP JUMPDEST DUP2 PUSH1 0x7 EQ ISZERO PUSH2 0xDD6 JUMPI PUSH1 0x40 MLOAD DUP1 PUSH2 0x100 ADD PUSH1 0x40 MSTORE DUP1 PUSH32 0x0 PUSH1 0x1 PUSH1 0x1 PUSH1 0xA0 SHL SUB AND DUP2 MSTORE PUSH1 0x20 ADD PUSH32 0x0 PUSH1 0x1 PUSH1 0x1 PUSH1 0xA0 SHL SUB AND DUP2 MSTORE PUSH1 0x20 ADD PUSH32 0x0 DUP2 MSTORE PUSH1 0x20 ADD PUSH32 0x0 DUP2 MSTORE PUSH1 0x20 ADD PUSH32 0x0 PUSH1 0x2 DUP2 GT ISZERO PUSH2 0xD4F JUMPI INVALID JUMPDEST DUP2 MSTORE PUSH1 0x20 ADD PUSH32 0x0 DUP2 MSTORE PUSH1 0x20 ADD PUSH32 0x0 PUSH1 0x1 PUSH1 0x1 PUSH1 0xA0 SHL SUB AND DUP2 MSTORE PUSH1 0x20 ADD PUSH32 0x0 ISZERO ISZERO DUP2 MSTORE POP SWAP1 POP PUSH2 0x15E JUMP JUMPDEST DUP2 PUSH1 0x8 EQ ISZERO PUSH2 0xF48 JUMPI PUSH1 0x40 MLOAD DUP1 PUSH2 0x100 ADD PUSH1 0x40 MSTORE DUP1 PUSH32 0x0 PUSH1 0x1 PUSH1 0x1 PUSH1 0xA0 SHL SUB AND DUP2 MSTORE PUSH1 0x20 ADD PUSH32 0x0 PUSH1 0x1 PUSH1 0x1 PUSH1 0xA0 SHL SUB AND DUP2 MSTORE PUSH1 0x20 ADD PUSH32 0x0 DUP2 MSTORE PUSH1 0x20 ADD PUSH32 0x0 DUP2 MSTORE PUSH1 0x20 ADD PUSH32 0x0 PUSH1 0x2 DUP2 GT ISZERO PUSH2 0xEC1 JUMPI INVALID JUMPDEST DUP2 MSTORE PUSH1 0x20 ADD PUSH32 0x0 DUP2 MSTORE PUSH1 0x20 ADD PUSH32 0x0 PUSH1 0x1 PUSH1 0x1 PUSH1 0xA0 SHL SUB AND DUP2 MSTORE PUSH1 0x20 ADD PUSH32 0x0 ISZERO ISZERO DUP2 MSTORE POP SWAP1 POP PUSH2 0x15E JUMP JUMPDEST DUP2 PUSH1 0x9 EQ ISZERO PUSH2 0x10BA JUMPI PUSH1 0x40 MLOAD DUP1 PUSH2 0x100 ADD PUSH1 0x40 MSTORE DUP1 PUSH32 0x0 PUSH1 0x1 PUSH1 0x1 PUSH1 0xA0 SHL SUB AND DUP2 MSTORE PUSH1 0x20 ADD PUSH32 0x0 PUSH1 0x1 PUSH1 0x1 PUSH1 0xA0 SHL SUB AND DUP2 MSTORE PUSH1 0x20 ADD PUSH32 0x0 DUP2 MSTORE PUSH1 0x20 ADD PUSH32 0x0 DUP2 MSTORE PUSH1 0x20 ADD PUSH32 0x0 PUSH1 0x2 DUP2 GT ISZERO PUSH2 0x1033 JUMPI INVALID JUMPDEST DUP2 MSTORE PUSH1 0x20 ADD PUSH32 0x0 DUP2 MSTORE PUSH1 0x20 ADD PUSH32 0x0 PUSH1 0x1 PUSH1 0x1 PUSH1 0xA0 SHL SUB AND DUP2 MSTORE PUSH1 0x20 ADD PUSH32 0x0 ISZERO ISZERO DUP2 MSTORE POP SWAP1 POP PUSH2 0x15E JUMP JUMPDEST DUP2 PUSH1 0xA EQ ISZERO PUSH2 0x122C JUMPI PUSH1 0x40 MLOAD DUP1 PUSH2 0x100 ADD PUSH1 0x40 MSTORE DUP1 PUSH32 0x0 PUSH1 0x1 PUSH1 0x1 PUSH1 0xA0 SHL SUB AND DUP2 MSTORE PUSH1 0x20 ADD PUSH32 0x0 PUSH1 0x1 PUSH1 0x1 PUSH1 0xA0 SHL SUB AND DUP2 MSTORE PUSH1 0x20 ADD PUSH32 0x0 DUP2 MSTORE PUSH1 0x20 ADD PUSH32 0x0 DUP2 MSTORE PUSH1 0x20 ADD PUSH32 0x0 PUSH1 0x2 DUP2 GT ISZERO PUSH2 0x11A5 JUMPI INVALID JUMPDEST DUP2 MSTORE PUSH1 0x20 ADD PUSH32 0x0 DUP2 MSTORE PUSH1 0x20 ADD PUSH32 0x0 PUSH1 0x1 PUSH1 0x1 PUSH1 0xA0 SHL SUB AND DUP2 MSTORE PUSH1 0x20 ADD PUSH32 0x0 ISZERO ISZERO DUP2 MSTORE POP SWAP1 POP PUSH2 0x15E JUMP JUMPDEST DUP2 PUSH1 0xB EQ ISZERO PUSH2 0x139E JUMPI PUSH1 0x40 MLOAD DUP1 PUSH2 0x100 ADD PUSH1 0x40 MSTORE DUP1 PUSH32 0x0 PUSH1 0x1 PUSH1 0x1 PUSH1 0xA0 SHL SUB AND DUP2 MSTORE PUSH1 0x20 ADD PUSH32 0x0 PUSH1 0x1 PUSH1 0x1 PUSH1 0xA0 SHL SUB AND DUP2 MSTORE PUSH1 0x20 ADD PUSH32 0x0 DUP2 MSTORE PUSH1 0x20 ADD PUSH32 0x0 DUP2 MSTORE PUSH1 0x20 ADD PUSH32 0x0 PUSH1 0x2 DUP2 GT ISZERO PUSH2 0x1317 JUMPI INVALID JUMPDEST DUP2 MSTORE PUSH1 0x20 ADD PUSH32 0x0 DUP2 MSTORE PUSH1 0x20 ADD PUSH32 0x0 PUSH1 0x1 PUSH1 0x1 PUSH1 0xA0 SHL SUB AND DUP2 MSTORE PUSH1 0x20 ADD PUSH32 0x0 ISZERO ISZERO DUP2 MSTORE POP SWAP1 POP PUSH2 0x15E JUMP JUMPDEST DUP2 PUSH1 0xC EQ ISZERO PUSH2 0x1510 JUMPI PUSH1 0x40 MLOAD DUP1 PUSH2 0x100 ADD PUSH1 0x40 MSTORE DUP1 PUSH32 0x0 PUSH1 0x1 PUSH1 0x1 PUSH1 0xA0 SHL SUB AND DUP2 MSTORE PUSH1 0x20 ADD PUSH32 0x0 PUSH1 0x1 PUSH1 0x1 PUSH1 0xA0 SHL SUB AND DUP2 MSTORE PUSH1 0x20 ADD PUSH32 0x0 DUP2 MSTORE PUSH1 0x20 ADD PUSH32 0x0 DUP2 MSTORE PUSH1 0x20 ADD PUSH32 0x0 PUSH1 0x2 DUP2 GT ISZERO PUSH2 0x1489 JUMPI INVALID JUMPDEST DUP2 MSTORE PUSH1 0x20 ADD PUSH32 0x0 DUP2 MSTORE PUSH1 0x20 ADD PUSH32 0x0 PUSH1 0x1 PUSH1 0x1 PUSH1 0xA0 SHL SUB AND DUP2 MSTORE PUSH1 0x20 ADD PUSH32 0x0 ISZERO ISZERO DUP2 MSTORE POP SWAP1 POP PUSH2 0x15E JUMP JUMPDEST DUP2 PUSH1 0xD EQ ISZERO PUSH2 0x1682 JUMPI PUSH1 0x40 MLOAD DUP1 PUSH2 0x100 ADD PUSH1 0x40 MSTORE DUP1 PUSH32 0x0 PUSH1 0x1 PUSH1 0x1 PUSH1 0xA0 SHL SUB AND DUP2 MSTORE PUSH1 0x20 ADD PUSH32 0x0 PUSH1 0x1 PUSH1 0x1 PUSH1 0xA0 SHL SUB AND DUP2 MSTORE PUSH1 0x20 ADD PUSH32 0x0 DUP2 MSTORE PUSH1 0x20 ADD PUSH32 0x0 DUP2 MSTORE PUSH1 0x20 ADD PUSH32 0x0 PUSH1 0x2 DUP2 GT ISZERO PUSH2 0x15FB JUMPI INVALID JUMPDEST DUP2 MSTORE PUSH1 0x20 ADD PUSH32 0x0 DUP2 MSTORE PUSH1 0x20 ADD PUSH32 0x0 PUSH1 0x1 PUSH1 0x1 PUSH1 0xA0 SHL SUB AND DUP2 MSTORE PUSH1 0x20 ADD PUSH32 0x0 ISZERO ISZERO DUP2 MSTORE POP SWAP1 POP PUSH2 0x15E JUMP JUMPDEST DUP2 PUSH1 0xE EQ ISZERO PUSH2 0x17F4 JUMPI PUSH1 0x40 MLOAD DUP1 PUSH2 0x100 ADD PUSH1 0x40 MSTORE DUP1 PUSH32 0x0 PUSH1 0x1 PUSH1 0x1 PUSH1 0xA0 SHL SUB AND DUP2 MSTORE PUSH1 0x20 ADD PUSH32 0x0 PUSH1 0x1 PUSH1 0x1 PUSH1 0xA0 SHL SUB AND DUP2 MSTORE PUSH1 0x20 ADD PUSH32 0x0 DUP2 MSTORE PUSH1 0x20 ADD PUSH32 0x0 DUP2 MSTORE PUSH1 0x20 ADD PUSH32 0x0 PUSH1 0x2 DUP2 GT ISZERO PUSH2 0x176D JUMPI INVALID JUMPDEST DUP2 MSTORE PUSH1 0x20 ADD PUSH32 0x0 DUP2 MSTORE PUSH1 0x20 ADD PUSH32 0x0 PUSH1 0x1 PUSH1 0x1 PUSH1 0xA0 SHL SUB AND DUP2 MSTORE PUSH1 0x20 ADD PUSH32 0x0 ISZERO ISZERO DUP2 MSTORE POP SWAP1 POP PUSH2 0x15E JUMP JUMPDEST DUP2 PUSH1 0xF EQ ISZERO PUSH2 0x1966 JUMPI PUSH1 0x40 MLOAD DUP1 PUSH2 0x100 ADD PUSH1 0x40 MSTORE DUP1 PUSH32 0x0 PUSH1 0x1 PUSH1 0x1 PUSH1 0xA0 SHL SUB AND DUP2 MSTORE PUSH1 0x20 ADD PUSH32 0x0 PUSH1 0x1 PUSH1 0x1 PUSH1 0xA0 SHL SUB AND DUP2 MSTORE PUSH1 0x20 ADD PUSH32 0x0 DUP2 MSTORE PUSH1 0x20 ADD PUSH32 0x0 DUP2 MSTORE PUSH1 0x20 ADD PUSH32 0x0 PUSH1 0x2 DUP2 GT ISZERO PUSH2 0x18DF JUMPI INVALID JUMPDEST DUP2 MSTORE PUSH1 0x20 ADD PUSH32 0x0 DUP2 MSTORE PUSH1 0x20 ADD PUSH32 0x0 PUSH1 0x1 PUSH1 0x1 PUSH1 0xA0 SHL SUB AND DUP2 MSTORE PUSH1 0x20 ADD PUSH32 0x0 ISZERO ISZERO DUP2 MSTORE POP SWAP1 POP PUSH2 0x15E JUMP JUMPDEST DUP2 PUSH1 0x10 EQ ISZERO PUSH2 0x1AD8 JUMPI PUSH1 0x40 MLOAD DUP1 PUSH2 0x100 ADD PUSH1 0x40 MSTORE DUP1 PUSH32 0x0 PUSH1 0x1 PUSH1 0x1 PUSH1 0xA0 SHL SUB AND DUP2 MSTORE PUSH1 0x20 ADD PUSH32 0x0 PUSH1 0x1 PUSH1 0x1 PUSH1 0xA0 SHL SUB AND DUP2 MSTORE PUSH1 0x20 ADD PUSH32 0x0 DUP2 MSTORE PUSH1 0x20 ADD PUSH32 0x0 DUP2 MSTORE PUSH1 0x20 ADD PUSH32 0x0 PUSH1 0x2 DUP2 GT ISZERO PUSH2 0x1A51 JUMPI INVALID JUMPDEST DUP2 MSTORE PUSH1 0x20 ADD PUSH32 0x0 DUP2 MSTORE PUSH1 0x20 ADD PUSH32 0x0 PUSH1 0x1 PUSH1 0x1 PUSH1 0xA0 SHL SUB AND DUP2 MSTORE PUSH1 0x20 ADD PUSH32 0x0 ISZERO ISZERO DUP2 MSTORE POP SWAP1 POP PUSH2 0x15E JUMP JUMPDEST DUP2 PUSH1 0x11 EQ ISZERO PUSH2 0x1C4A JUMPI PUSH1 0x40 MLOAD DUP1 PUSH2 0x100 ADD PUSH1 0x40 MSTORE DUP1 PUSH32 0x0 PUSH1 0x1 PUSH1 0x1 PUSH1 0xA0 SHL SUB AND DUP2 MSTORE PUSH1 0x20 ADD PUSH32 0x0 PUSH1 0x1 PUSH1 0x1 PUSH1 0xA0 SHL SUB AND DUP2 MSTORE PUSH1 0x20 ADD PUSH32 0x0 DUP2 MSTORE PUSH1 0x20 ADD PUSH32 0x0 DUP2 MSTORE PUSH1 0x20 ADD PUSH32 0x0 PUSH1 0x2 DUP2 GT ISZERO PUSH2 0x1BC3 JUMPI INVALID JUMPDEST DUP2 MSTORE PUSH1 0x20 ADD PUSH32 0x0 DUP2 MSTORE PUSH1 0x20 ADD PUSH32 0x0 PUSH1 0x1 PUSH1 0x1 PUSH1 0xA0 SHL SUB AND DUP2 MSTORE PUSH1 0x20 ADD PUSH32 0x0 ISZERO ISZERO DUP2 MSTORE POP SWAP1 POP PUSH2 0x15E JUMP JUMPDEST DUP2 PUSH1 0x12 EQ ISZERO PUSH2 0x1DBC JUMPI PUSH1 0x40 MLOAD DUP1 PUSH2 0x100 ADD PUSH1 0x40 MSTORE DUP1 PUSH32 0x0 PUSH1 0x1 PUSH1 0x1 PUSH1 0xA0 SHL SUB AND DUP2 MSTORE PUSH1 0x20 ADD PUSH32 0x0 PUSH1 0x1 PUSH1 0x1 PUSH1 0xA0 SHL SUB AND DUP2 MSTORE PUSH1 0x20 ADD PUSH32 0x0 DUP2 MSTORE PUSH1 0x20 ADD PUSH32 0x0 DUP2 MSTORE PUSH1 0x20 ADD PUSH32 0x0 PUSH1 0x2 DUP2 GT ISZERO PUSH2 0x1D35 JUMPI INVALID JUMPDEST DUP2 MSTORE PUSH1 0x20 ADD PUSH32 0x0 DUP2 MSTORE PUSH1 0x20 ADD PUSH32 0x0 PUSH1 0x1 PUSH1 0x1 PUSH1 0xA0 SHL SUB AND DUP2 MSTORE PUSH1 0x20 ADD PUSH32 0x0 ISZERO ISZERO DUP2 MSTORE POP SWAP1 POP PUSH2 0x15E JUMP JUMPDEST DUP2 PUSH1 0x13 EQ ISZERO PUSH2 0x1F2E JUMPI PUSH1 0x40 MLOAD DUP1 PUSH2 0x100 ADD PUSH1 0x40 MSTORE DUP1 PUSH32 0x0 PUSH1 0x1 PUSH1 0x1 PUSH1 0xA0 SHL SUB AND DUP2 MSTORE PUSH1 0x20 ADD PUSH32 0x0 PUSH1 0x1 PUSH1 0x1 PUSH1 0xA0 SHL SUB AND DUP2 MSTORE PUSH1 0x20 ADD PUSH32 0x0 DUP2 MSTORE PUSH1 0x20 ADD PUSH32 0x0 DUP2 MSTORE PUSH1 0x20 ADD PUSH32 0x0 PUSH1 0x2 DUP2 GT ISZERO PUSH2 0x1EA7 JUMPI INVALID JUMPDEST DUP2 MSTORE PUSH1 0x20 ADD PUSH32 0x0 DUP2 MSTORE PUSH1 0x20 ADD PUSH32 0x0 PUSH1 0x1 PUSH1 0x1 PUSH1 0xA0 SHL SUB AND DUP2 MSTORE PUSH1 0x20 ADD PUSH32 0x0 ISZERO ISZERO DUP2 MSTORE POP SWAP1 POP PUSH2 0x15E JUMP JUMPDEST DUP2 PUSH1 0x14 EQ ISZERO PUSH2 0x20A0 JUMPI PUSH1 0x40 MLOAD DUP1 PUSH2 0x100 ADD PUSH1 0x40 MSTORE DUP1 PUSH32 0x0 PUSH1 0x1 PUSH1 0x1 PUSH1 0xA0 SHL SUB AND DUP2 MSTORE PUSH1 0x20 ADD PUSH32 0x0 PUSH1 0x1 PUSH1 0x1 PUSH1 0xA0 SHL SUB AND DUP2 MSTORE PUSH1 0x20 ADD PUSH32 0x0 DUP2 MSTORE PUSH1 0x20 ADD PUSH32 0x0 DUP2 MSTORE PUSH1 0x20 ADD PUSH32 0x0 PUSH1 0x2 DUP2 GT ISZERO PUSH2 0x2019 JUMPI INVALID JUMPDEST DUP2 MSTORE PUSH1 0x20 ADD PUSH32 0x0 DUP2 MSTORE PUSH1 0x20 ADD PUSH32 0x0 PUSH1 0x1 PUSH1 0x1 PUSH1 0xA0 SHL SUB AND DUP2 MSTORE PUSH1 0x20 ADD PUSH32 0x0 ISZERO ISZERO DUP2 MSTORE POP SWAP1 POP PUSH2 0x15E JUMP JUMPDEST DUP2 PUSH1 0x15 EQ ISZERO PUSH2 0x2212 JUMPI PUSH1 0x40 MLOAD DUP1 PUSH2 0x100 ADD PUSH1 0x40 MSTORE DUP1 PUSH32 0x0 PUSH1 0x1 PUSH1 0x1 PUSH1 0xA0 SHL SUB AND DUP2 MSTORE PUSH1 0x20 ADD PUSH32 0x0 PUSH1 0x1 PUSH1 0x1 PUSH1 0xA0 SHL SUB AND DUP2 MSTORE PUSH1 0x20 ADD PUSH32 0x0 DUP2 MSTORE PUSH1 0x20 ADD PUSH32 0x0 DUP2 MSTORE PUSH1 0x20 ADD PUSH32 0x0 PUSH1 0x2 DUP2 GT ISZERO PUSH2 0x218B JUMPI INVALID JUMPDEST DUP2 MSTORE PUSH1 0x20 ADD PUSH32 0x0 DUP2 MSTORE PUSH1 0x20 ADD PUSH32 0x0 PUSH1 0x1 PUSH1 0x1 PUSH1 0xA0 SHL SUB AND DUP2 MSTORE PUSH1 0x20 ADD PUSH32 0x0 ISZERO ISZERO DUP2 MSTORE POP SWAP1 POP PUSH2 0x15E JUMP JUMPDEST DUP2 PUSH1 0x16 EQ ISZERO PUSH2 0x2384 JUMPI PUSH1 0x40 MLOAD DUP1 PUSH2 0x100 ADD PUSH1 0x40 MSTORE DUP1 PUSH32 0x0 PUSH1 0x1 PUSH1 0x1 PUSH1 0xA0 SHL SUB AND DUP2 MSTORE PUSH1 0x20 ADD PUSH32 0x0 PUSH1 0x1 PUSH1 0x1 PUSH1 0xA0 SHL SUB AND DUP2 MSTORE PUSH1 0x20 ADD PUSH32 0x0 DUP2 MSTORE PUSH1 0x20 ADD PUSH32 0x0 DUP2 MSTORE PUSH1 0x20 ADD PUSH32 0x0 PUSH1 0x2 DUP2 GT ISZERO PUSH2 0x22FD JUMPI INVALID JUMPDEST DUP2 MSTORE PUSH1 0x20 ADD PUSH32 0x0 DUP2 MSTORE PUSH1 0x20 ADD PUSH32 0x0 PUSH1 0x1 PUSH1 0x1 PUSH1 0xA0 SHL SUB AND DUP2 MSTORE PUSH1 0x20 ADD PUSH32 0x0 ISZERO ISZERO DUP2 MSTORE POP SWAP1 POP PUSH2 0x15E JUMP JUMPDEST DUP2 PUSH1 0x17 EQ ISZERO PUSH2 0x24F6 JUMPI PUSH1 0x40 MLOAD DUP1 PUSH2 0x100 ADD PUSH1 0x40 MSTORE DUP1 PUSH32 0x0 PUSH1 0x1 PUSH1 0x1 PUSH1 0xA0 SHL SUB AND DUP2 MSTORE PUSH1 0x20 ADD PUSH32 0x0 PUSH1 0x1 PUSH1 0x1 PUSH1 0xA0 SHL SUB AND DUP2 MSTORE PUSH1 0x20 ADD PUSH32 0x0 DUP2 MSTORE PUSH1 0x20 ADD PUSH32 0x0 DUP2 MSTORE PUSH1 0x20 ADD PUSH32 0x0 PUSH1 0x2 DUP2 GT ISZERO PUSH2 0x246F JUMPI INVALID JUMPDEST DUP2 MSTORE PUSH1 0x20 ADD PUSH32 0x0 DUP2 MSTORE PUSH1 0x20 ADD PUSH32 0x0 PUSH1 0x1 PUSH1 0x1 PUSH1 0xA0 SHL SUB AND DUP2 MSTORE PUSH1 0x20 ADD PUSH32 0x0 ISZERO ISZERO DUP2 MSTORE POP SWAP1 POP PUSH2 0x15E JUMP JUMPDEST DUP2 PUSH1 0x18 EQ ISZERO PUSH2 0x2668 JUMPI PUSH1 0x40 MLOAD DUP1 PUSH2 0x100 ADD PUSH1 0x40 MSTORE DUP1 PUSH32 0x0 PUSH1 0x1 PUSH1 0x1 PUSH1 0xA0 SHL SUB AND DUP2 MSTORE PUSH1 0x20 ADD PUSH32 0x0 PUSH1 0x1 PUSH1 0x1 PUSH1 0xA0 SHL SUB AND DUP2 MSTORE PUSH1 0x20 ADD PUSH32 0x0 DUP2 MSTORE PUSH1 0x20 ADD PUSH32 0x0 DUP2 MSTORE PUSH1 0x20 ADD PUSH32 0x0 PUSH1 0x2 DUP2 GT ISZERO PUSH2 0x25E1 JUMPI INVALID JUMPDEST DUP2 MSTORE PUSH1 0x20 ADD PUSH32 0x0 DUP2 MSTORE PUSH1 0x20 ADD PUSH32 0x0 PUSH1 0x1 PUSH1 0x1 PUSH1 0xA0 SHL SUB AND DUP2 MSTORE PUSH1 0x20 ADD PUSH32 0x0 ISZERO ISZERO DUP2 MSTORE POP SWAP1 POP PUSH2 0x15E JUMP JUMPDEST DUP2 PUSH1 0x19 EQ ISZERO PUSH2 0x27DA JUMPI PUSH1 0x40 MLOAD DUP1 PUSH2 0x100 ADD PUSH1 0x40 MSTORE DUP1 PUSH32 0x0 PUSH1 0x1 PUSH1 0x1 PUSH1 0xA0 SHL SUB AND DUP2 MSTORE PUSH1 0x20 ADD PUSH32 0x0 PUSH1 0x1 PUSH1 0x1 PUSH1 0xA0 SHL SUB AND DUP2 MSTORE PUSH1 0x20 ADD PUSH32 0x0 DUP2 MSTORE PUSH1 0x20 ADD PUSH32 0x0 DUP2 MSTORE PUSH1 0x20 ADD PUSH32 0x0 PUSH1 0x2 DUP2 GT ISZERO PUSH2 0x2753 JUMPI INVALID JUMPDEST DUP2 MSTORE PUSH1 0x20 ADD PUSH32 0x0 DUP2 MSTORE PUSH1 0x20 ADD PUSH32 0x0 PUSH1 0x1 PUSH1 0x1 PUSH1 0xA0 SHL SUB AND DUP2 MSTORE PUSH1 0x20 ADD PUSH32 0x0 ISZERO ISZERO DUP2 MSTORE POP SWAP1 POP PUSH2 0x15E JUMP JUMPDEST DUP2 PUSH1 0x1A EQ ISZERO PUSH2 0x294C JUMPI PUSH1 0x40 MLOAD DUP1 PUSH2 0x100 ADD PUSH1 0x40 MSTORE DUP1 PUSH32 0x0 PUSH1 0x1 PUSH1 0x1 PUSH1 0xA0 SHL SUB AND DUP2 MSTORE PUSH1 0x20 ADD PUSH32 0x0 PUSH1 0x1 PUSH1 0x1 PUSH1 0xA0 SHL SUB AND DUP2 MSTORE PUSH1 0x20 ADD PUSH32 0x0 DUP2 MSTORE PUSH1 0x20 ADD PUSH32 0x0 DUP2 MSTORE PUSH1 0x20 ADD PUSH32 0x0 PUSH1 0x2 DUP2 GT ISZERO PUSH2 0x28C5 JUMPI INVALID JUMPDEST DUP2 MSTORE PUSH1 0x20 ADD PUSH32 0x0 DUP2 MSTORE PUSH1 0x20 ADD PUSH32 0x0 PUSH1 0x1 PUSH1 0x1 PUSH1 0xA0 SHL SUB AND DUP2 MSTORE PUSH1 0x20 ADD PUSH32 0x0 ISZERO ISZERO DUP2 MSTORE POP SWAP1 POP PUSH2 0x15E JUMP JUMPDEST DUP2 PUSH1 0x1B EQ ISZERO PUSH2 0x2ABE JUMPI PUSH1 0x40 MLOAD DUP1 PUSH2 0x100 ADD PUSH1 0x40 MSTORE DUP1 PUSH32 0x0 PUSH1 0x1 PUSH1 0x1 PUSH1 0xA0 SHL SUB AND DUP2 MSTORE PUSH1 0x20 ADD PUSH32 0x0 PUSH1 0x1 PUSH1 0x1 PUSH1 0xA0 SHL SUB AND DUP2 MSTORE PUSH1 0x20 ADD PUSH32 0x0 DUP2 MSTORE PUSH1 0x20 ADD PUSH32 0x0 DUP2 MSTORE PUSH1 0x20 ADD PUSH32 0x0 PUSH1 0x2 DUP2 GT ISZERO PUSH2 0x2A37 JUMPI INVALID JUMPDEST DUP2 MSTORE PUSH1 0x20 ADD PUSH32 0x0 DUP2 MSTORE PUSH1 0x20 ADD PUSH32 0x0 PUSH1 0x1 PUSH1 0x1 PUSH1 0xA0 SHL SUB AND DUP2 MSTORE PUSH1 0x20 ADD PUSH32 0x0 ISZERO ISZERO DUP2 MSTORE POP SWAP1 POP PUSH2 0x15E JUMP JUMPDEST DUP2 PUSH1 0x1C EQ ISZERO PUSH2 0x2C30 JUMPI PUSH1 0x40 MLOAD DUP1 PUSH2 0x100 ADD PUSH1 0x40 MSTORE DUP1 PUSH32 0x0 PUSH1 0x1 PUSH1 0x1 PUSH1 0xA0 SHL SUB AND DUP2 MSTORE PUSH1 0x20 ADD PUSH32 0x0 PUSH1 0x1 PUSH1 0x1 PUSH1 0xA0 SHL SUB AND DUP2 MSTORE PUSH1 0x20 ADD PUSH32 0x0 DUP2 MSTORE PUSH1 0x20 ADD PUSH32 0x0 DUP2 MSTORE PUSH1 0x20 ADD PUSH32 0x0 PUSH1 0x2 DUP2 GT ISZERO PUSH2 0x2BA9 JUMPI INVALID JUMPDEST DUP2 MSTORE PUSH1 0x20 ADD PUSH32 0x0 DUP2 MSTORE PUSH1 0x20 ADD PUSH32 0x0 PUSH1 0x1 PUSH1 0x1 PUSH1 0xA0 SHL SUB AND DUP2 MSTORE PUSH1 0x20 ADD PUSH32 0x0 ISZERO ISZERO DUP2 MSTORE POP SWAP1 POP PUSH2 0x15E JUMP JUMPDEST DUP2 PUSH1 0x1D EQ ISZERO PUSH2 0x15E JUMPI PUSH1 0x40 MLOAD DUP1 PUSH2 0x100 ADD PUSH1 0x40 MSTORE DUP1 PUSH32 0x0 PUSH1 0x1 PUSH1 0x1 PUSH1 0xA0 SHL SUB AND DUP2 MSTORE PUSH1 0x20 ADD PUSH32 0x0 PUSH1 0x1 PUSH1 0x1 PUSH1 0xA0 SHL SUB AND DUP2 MSTORE PUSH1 0x20 ADD PUSH32 0x0 DUP2 MSTORE PUSH1 0x20 ADD PUSH32 0x0 DUP2 MSTORE PUSH1 0x20 ADD PUSH32 0x0 PUSH1 0x2 DUP2 GT ISZERO PUSH2 0x2D1B JUMPI INVALID JUMPDEST DUP2 MSTORE PUSH1 0x20 ADD PUSH32 0x0 DUP2 MSTORE PUSH1 0x20 ADD PUSH32 0x0 PUSH1 0x1 PUSH1 0x1 PUSH1 0xA0 SHL SUB AND DUP2 MSTORE PUSH1 0x20 ADD PUSH32 0x0 ISZERO ISZERO DUP2 MSTORE POP SWAP1 POP PUSH2 0x15E JUMP JUMPDEST PUSH32 0x0 DUP2 JUMP JUMPDEST PUSH1 0x1E DUP2 JUMP JUMPDEST PUSH2 0x2DD3 PUSH2 0x4394 JUMP JUMPDEST PUSH1 0x0 PUSH2 0x2DDE DUP4 PUSH2 0x3BD6 JUMP JUMPDEST SWAP1 POP PUSH1 0x0 NOT DUP2 EQ PUSH2 0x2DF2 JUMPI PUSH2 0x18A DUP2 PUSH2 0x203 JUMP JUMPDEST PUSH2 0x2E66 DUP4 PUSH1 0x1 PUSH1 0x1 PUSH1 0xA0 SHL SUB AND PUSH4 0x6F307DC3 PUSH1 0x40 MLOAD DUP2 PUSH4 0xFFFFFFFF AND PUSH1 0xE0 SHL DUP2 MSTORE PUSH1 0x4 ADD PUSH1 0x20 PUSH1 0x40 MLOAD DUP1 DUP4 SUB DUP2 DUP7 DUP1 EXTCODESIZE ISZERO DUP1 ISZERO PUSH2 0x2E2E JUMPI PUSH1 0x0 DUP1 REVERT JUMPDEST POP GAS STATICCALL ISZERO DUP1 ISZERO PUSH2 0x2E42 JUMPI RETURNDATASIZE PUSH1 0x0 DUP1 RETURNDATACOPY RETURNDATASIZE PUSH1 0x0 REVERT JUMPDEST POP POP POP POP PUSH1 0x40 MLOAD RETURNDATASIZE PUSH1 0x1F NOT PUSH1 0x1F DUP3 ADD AND DUP3 ADD DUP1 PUSH1 0x40 MSTORE POP DUP2 ADD SWAP1 PUSH2 0xF7 SWAP2 SWAP1 PUSH2 0x43F5 JUMP JUMPDEST SWAP4 SWAP3 POP POP POP JUMP JUMPDEST PUSH1 0x0 PUSH32 0x0 DUP3 EQ ISZERO PUSH2 0x2E9F JUMPI POP PUSH1 0x0 PUSH2 0x15E JUMP JUMPDEST PUSH32 0x0 DUP3 EQ ISZERO PUSH2 0x2ECF JUMPI POP PUSH1 0x1 PUSH2 0x15E JUMP JUMPDEST PUSH32 0x0 DUP3 EQ ISZERO PUSH2 0x2EFF JUMPI POP PUSH1 0x2 PUSH2 0x15E JUMP JUMPDEST PUSH32 0x0 DUP3 EQ ISZERO PUSH2 0x2F2F JUMPI POP PUSH1 0x3 PUSH2 0x15E JUMP JUMPDEST PUSH32 0x0 DUP3 EQ ISZERO PUSH2 0x2F5F JUMPI POP PUSH1 0x4 PUSH2 0x15E JUMP JUMPDEST PUSH32 0x0 DUP3 EQ ISZERO PUSH2 0x2F8F JUMPI POP PUSH1 0x5 PUSH2 0x15E JUMP JUMPDEST PUSH32 0x0 DUP3 EQ ISZERO PUSH2 0x2FBF JUMPI POP PUSH1 0x6 PUSH2 0x15E JUMP JUMPDEST PUSH32 0x0 DUP3 EQ ISZERO PUSH2 0x2FEF JUMPI POP PUSH1 0x7 PUSH2 0x15E JUMP JUMPDEST PUSH32 0x0 DUP3 EQ ISZERO PUSH2 0x301F JUMPI POP PUSH1 0x8 PUSH2 0x15E JUMP JUMPDEST PUSH32 0x0 DUP3 EQ ISZERO PUSH2 0x304F JUMPI POP PUSH1 0x9 PUSH2 0x15E JUMP JUMPDEST PUSH32 0x0 DUP3 EQ ISZERO PUSH2 0x307F JUMPI POP PUSH1 0xA PUSH2 0x15E JUMP JUMPDEST PUSH32 0x0 DUP3 EQ ISZERO PUSH2 0x30AF JUMPI POP PUSH1 0xB PUSH2 0x15E JUMP JUMPDEST PUSH32 0x0 DUP3 EQ ISZERO PUSH2 0x30DF JUMPI POP PUSH1 0xC PUSH2 0x15E JUMP JUMPDEST PUSH32 0x0 DUP3 EQ ISZERO PUSH2 0x310F JUMPI POP PUSH1 0xD PUSH2 0x15E JUMP JUMPDEST PUSH32 0x0 DUP3 EQ ISZERO PUSH2 0x313F JUMPI POP PUSH1 0xE PUSH2 0x15E JUMP JUMPDEST PUSH32 0x0 DUP3 EQ ISZERO PUSH2 0x316F JUMPI POP PUSH1 0xF PUSH2 0x15E JUMP JUMPDEST PUSH32 0x0 DUP3 EQ ISZERO PUSH2 0x319F JUMPI POP PUSH1 0x10 PUSH2 0x15E JUMP JUMPDEST PUSH32 0x0 DUP3 EQ ISZERO PUSH2 0x31CF JUMPI POP PUSH1 0x11 PUSH2 0x15E JUMP JUMPDEST PUSH32 0x0 DUP3 EQ ISZERO PUSH2 0x31FF JUMPI POP PUSH1 0x12 PUSH2 0x15E JUMP JUMPDEST PUSH32 0x0 DUP3 EQ ISZERO PUSH2 0x322F JUMPI POP PUSH1 0x13 PUSH2 0x15E JUMP JUMPDEST PUSH32 0x0 DUP3 EQ ISZERO PUSH2 0x325F JUMPI POP PUSH1 0x14 PUSH2 0x15E JUMP JUMPDEST PUSH32 0x0 DUP3 EQ ISZERO PUSH2 0x328F JUMPI POP PUSH1 0x15 PUSH2 0x15E JUMP JUMPDEST PUSH32 0x0 DUP3 EQ ISZERO PUSH2 0x32BF JUMPI POP PUSH1 0x16 PUSH2 0x15E JUMP JUMPDEST PUSH32 0x0 DUP3 EQ ISZERO PUSH2 0x32EF JUMPI POP PUSH1 0x17 PUSH2 0x15E JUMP JUMPDEST PUSH32 0x0 DUP3 EQ ISZERO PUSH2 0x331F JUMPI POP PUSH1 0x18 PUSH2 0x15E JUMP JUMPDEST PUSH32 0x0 DUP3 EQ ISZERO PUSH2 0x334F JUMPI POP PUSH1 0x19 PUSH2 0x15E JUMP JUMPDEST PUSH32 0x0 DUP3 EQ ISZERO PUSH2 0x337F JUMPI POP PUSH1 0x1A PUSH2 0x15E JUMP JUMPDEST PUSH32 0x0 DUP3 EQ ISZERO PUSH2 0x33AF JUMPI POP PUSH1 0x1B PUSH2 0x15E JUMP JUMPDEST PUSH32 0x0 DUP3 EQ ISZERO PUSH2 0x33DF JUMPI POP PUSH1 0x1C PUSH2 0x15E JUMP JUMPDEST PUSH32 0x0 DUP3 EQ ISZERO PUSH2 0x340F JUMPI POP PUSH1 0x1D PUSH2 0x15E JUMP JUMPDEST POP PUSH1 0x0 NOT SWAP2 SWAP1 POP JUMP JUMPDEST PUSH1 0x0 PUSH32 0x0 PUSH1 0x1 PUSH1 0x1 PUSH1 0xA0 SHL SUB AND DUP3 PUSH1 0x1 PUSH1 0x1 PUSH1 0xA0 SHL SUB AND EQ ISZERO PUSH2 0x345C JUMPI POP PUSH1 0x0 PUSH2 0x15E JUMP JUMPDEST PUSH32 0x0 PUSH1 0x1 PUSH1 0x1 PUSH1 0xA0 SHL SUB AND DUP3 PUSH1 0x1 PUSH1 0x1 PUSH1 0xA0 SHL SUB AND EQ ISZERO PUSH2 0x349E JUMPI POP PUSH1 0x1 PUSH2 0x15E JUMP JUMPDEST PUSH32 0x0 PUSH1 0x1 PUSH1 0x1 PUSH1 0xA0 SHL SUB AND DUP3 PUSH1 0x1 PUSH1 0x1 PUSH1 0xA0 SHL SUB AND EQ ISZERO PUSH2 0x34E0 JUMPI POP PUSH1 0x2 PUSH2 0x15E JUMP JUMPDEST PUSH32 0x0 PUSH1 0x1 PUSH1 0x1 PUSH1 0xA0 SHL SUB AND DUP3 PUSH1 0x1 PUSH1 0x1 PUSH1 0xA0 SHL SUB AND EQ ISZERO PUSH2 0x3522 JUMPI POP PUSH1 0x3 PUSH2 0x15E JUMP JUMPDEST PUSH32 0x0 PUSH1 0x1 PUSH1 0x1 PUSH1 0xA0 SHL SUB AND DUP3 PUSH1 0x1 PUSH1 0x1 PUSH1 0xA0 SHL SUB AND EQ ISZERO PUSH2 0x3564 JUMPI POP PUSH1 0x4 PUSH2 0x15E JUMP JUMPDEST PUSH32 0x0 PUSH1 0x1 PUSH1 0x1 PUSH1 0xA0 SHL SUB AND DUP3 PUSH1 0x1 PUSH1 0x1 PUSH1 0xA0 SHL SUB AND EQ ISZERO PUSH2 0x35A6 JUMPI POP PUSH1 0x5 PUSH2 0x15E JUMP JUMPDEST PUSH32 0x0 PUSH1 0x1 PUSH1 0x1 PUSH1 0xA0 SHL SUB AND DUP3 PUSH1 0x1 PUSH1 0x1 PUSH1 0xA0 SHL SUB AND EQ ISZERO PUSH2 0x35E8 JUMPI POP PUSH1 0x6 PUSH2 0x15E JUMP JUMPDEST PUSH32 0x0 PUSH1 0x1 PUSH1 0x1 PUSH1 0xA0 SHL SUB AND DUP3 PUSH1 0x1 PUSH1 0x1 PUSH1 0xA0 SHL SUB AND EQ ISZERO PUSH2 0x362A JUMPI POP PUSH1 0x7 PUSH2 0x15E JUMP JUMPDEST PUSH32 0x0 PUSH1 0x1 PUSH1 0x1 PUSH1 0xA0 SHL SUB AND DUP3 PUSH1 0x1 PUSH1 0x1 PUSH1 0xA0 SHL SUB AND EQ ISZERO PUSH2 0x366C JUMPI POP PUSH1 0x8 PUSH2 0x15E JUMP JUMPDEST PUSH32 0x0 PUSH1 0x1 PUSH1 0x1 PUSH1 0xA0 SHL SUB AND DUP3 PUSH1 0x1 PUSH1 0x1 PUSH1 0xA0 SHL SUB AND EQ ISZERO PUSH2 0x36AE JUMPI POP PUSH1 0x9 PUSH2 0x15E JUMP JUMPDEST PUSH32 0x0 PUSH1 0x1 PUSH1 0x1 PUSH1 0xA0 SHL SUB AND DUP3 PUSH1 0x1 PUSH1 0x1 PUSH1 0xA0 SHL SUB AND EQ ISZERO PUSH2 0x36F0 JUMPI POP PUSH1 0xA PUSH2 0x15E JUMP JUMPDEST PUSH32 0x0 PUSH1 0x1 PUSH1 0x1 PUSH1 0xA0 SHL SUB AND DUP3 PUSH1 0x1 PUSH1 0x1 PUSH1 0xA0 SHL SUB AND EQ ISZERO PUSH2 0x3732 JUMPI POP PUSH1 0xB PUSH2 0x15E JUMP JUMPDEST PUSH32 0x0 PUSH1 0x1 PUSH1 0x1 PUSH1 0xA0 SHL SUB AND DUP3 PUSH1 0x1 PUSH1 0x1 PUSH1 0xA0 SHL SUB AND EQ ISZERO PUSH2 0x3774 JUMPI POP PUSH1 0xC PUSH2 0x15E JUMP JUMPDEST PUSH32 0x0 PUSH1 0x1 PUSH1 0x1 PUSH1 0xA0 SHL SUB AND DUP3 PUSH1 0x1 PUSH1 0x1 PUSH1 0xA0 SHL SUB AND EQ ISZERO PUSH2 0x37B6 JUMPI POP PUSH1 0xD PUSH2 0x15E JUMP JUMPDEST PUSH32 0x0 PUSH1 0x1 PUSH1 0x1 PUSH1 0xA0 SHL SUB AND DUP3 PUSH1 0x1 PUSH1 0x1 PUSH1 0xA0 SHL SUB AND EQ ISZERO PUSH2 0x37F8 JUMPI POP PUSH1 0xE PUSH2 0x15E JUMP JUMPDEST PUSH32 0x0 PUSH1 0x1 PUSH1 0x1 PUSH1 0xA0 SHL SUB AND DUP3 PUSH1 0x1 PUSH1 0x1 PUSH1 0xA0 SHL SUB AND EQ ISZERO PUSH2 0x383A JUMPI POP PUSH1 0xF PUSH2 0x15E JUMP JUMPDEST PUSH32 0x0 PUSH1 0x1 PUSH1 0x1 PUSH1 0xA0 SHL SUB AND DUP3 PUSH1 0x1 PUSH1 0x1 PUSH1 0xA0 SHL SUB AND EQ ISZERO PUSH2 0x387C JUMPI POP PUSH1 0x10 PUSH2 0x15E JUMP JUMPDEST PUSH32 0x0 PUSH1 0x1 PUSH1 0x1 PUSH1 0xA0 SHL SUB AND DUP3 PUSH1 0x1 PUSH1 0x1 PUSH1 0xA0 SHL SUB AND EQ ISZERO PUSH2 0x38BE JUMPI POP PUSH1 0x11 PUSH2 0x15E JUMP JUMPDEST PUSH32 0x0 PUSH1 0x1 PUSH1 0x1 PUSH1 0xA0 SHL SUB AND DUP3 PUSH1 0x1 PUSH1 0x1 PUSH1 0xA0 SHL SUB AND EQ ISZERO PUSH2 0x3900 JUMPI POP PUSH1 0x12 PUSH2 0x15E JUMP JUMPDEST PUSH32 0x0 PUSH1 0x1 PUSH1 0x1 PUSH1 0xA0 SHL SUB AND DUP3 PUSH1 0x1 PUSH1 0x1 PUSH1 0xA0 SHL SUB AND EQ ISZERO PUSH2 0x3942 JUMPI POP PUSH1 0x13 PUSH2 0x15E JUMP JUMPDEST PUSH32 0x0 PUSH1 0x1 PUSH1 0x1 PUSH1 0xA0 SHL SUB AND DUP3 PUSH1 0x1 PUSH1 0x1 PUSH1 0xA0 SHL SUB AND EQ ISZERO PUSH2 0x3984 JUMPI POP PUSH1 0x14 PUSH2 0x15E JUMP JUMPDEST PUSH32 0x0 PUSH1 0x1 PUSH1 0x1 PUSH1 0xA0 SHL SUB AND DUP3 PUSH1 0x1 PUSH1 0x1 PUSH1 0xA0 SHL SUB AND EQ ISZERO PUSH2 0x39C6 JUMPI POP PUSH1 0x15 PUSH2 0x15E JUMP JUMPDEST PUSH32 0x0 PUSH1 0x1 PUSH1 0x1 PUSH1 0xA0 SHL SUB AND DUP3 PUSH1 0x1 PUSH1 0x1 PUSH1 0xA0 SHL SUB AND EQ ISZERO PUSH2 0x3A08 JUMPI POP PUSH1 0x16 PUSH2 0x15E JUMP JUMPDEST PUSH32 0x0 PUSH1 0x1 PUSH1 0x1 PUSH1 0xA0 SHL SUB AND DUP3 PUSH1 0x1 PUSH1 0x1 PUSH1 0xA0 SHL SUB AND EQ ISZERO PUSH2 0x3A4A JUMPI POP PUSH1 0x17 PUSH2 0x15E JUMP JUMPDEST PUSH32 0x0 PUSH1 0x1 PUSH1 0x1 PUSH1 0xA0 SHL SUB AND DUP3 PUSH1 0x1 PUSH1 0x1 PUSH1 0xA0 SHL SUB AND EQ ISZERO PUSH2 0x3A8C JUMPI POP PUSH1 0x18 PUSH2 0x15E JUMP JUMPDEST PUSH32 0x0 PUSH1 0x1 PUSH1 0x1 PUSH1 0xA0 SHL SUB AND DUP3 PUSH1 0x1 PUSH1 0x1 PUSH1 0xA0 SHL SUB AND EQ ISZERO PUSH2 0x3ACE JUMPI POP PUSH1 0x19 PUSH2 0x15E JUMP JUMPDEST PUSH32 0x0 PUSH1 0x1 PUSH1 0x1 PUSH1 0xA0 SHL SUB AND DUP3 PUSH1 0x1 PUSH1 0x1 PUSH1 0xA0 SHL SUB AND EQ ISZERO PUSH2 0x3B10 JUMPI POP PUSH1 0x1A PUSH2 0x15E JUMP JUMPDEST PUSH32 0x0 PUSH1 0x1 PUSH1 0x1 PUSH1 0xA0 SHL SUB AND DUP3 PUSH1 0x1 PUSH1 0x1 PUSH1 0xA0 SHL SUB AND EQ ISZERO PUSH2 0x3B52 JUMPI POP PUSH1 0x1B PUSH2 0x15E JUMP JUMPDEST PUSH32 0x0 PUSH1 0x1 PUSH1 0x1 PUSH1 0xA0 SHL SUB AND DUP3 PUSH1 0x1 PUSH1 0x1 PUSH1 0xA0 SHL SUB AND EQ ISZERO PUSH2 0x3B94 JUMPI POP PUSH1 0x1C PUSH2 0x15E JUMP JUMPDEST PUSH32 0x0 PUSH1 0x1 PUSH1 0x1 PUSH1 0xA0 SHL SUB AND DUP3 PUSH1 0x1 PUSH1 0x1 PUSH1 0xA0 SHL SUB AND EQ ISZERO PUSH2 0x340F JUMPI POP PUSH1 0x1D PUSH2 0x15E JUMP JUMPDEST PUSH1 0x0 PUSH32 0x0 PUSH1 0x1 PUSH1 0x1 PUSH1 0xA0 SHL SUB AND DUP3 PUSH1 0x1 PUSH1 0x1 PUSH1 0xA0 SHL SUB AND EQ ISZERO PUSH2 0x3C1A JUMPI POP PUSH1 0x0 PUSH2 0x15E JUMP JUMPDEST PUSH32 0x0 PUSH1 0x1 PUSH1 0x1 PUSH1 0xA0 SHL SUB AND DUP3 PUSH1 0x1 PUSH1 0x1 PUSH1 0xA0 SHL SUB AND EQ ISZERO PUSH2 0x3C5C JUMPI POP PUSH1 0x1 PUSH2 0x15E JUMP JUMPDEST PUSH32 0x0 PUSH1 0x1 PUSH1 0x1 PUSH1 0xA0 SHL SUB AND DUP3 PUSH1 0x1 PUSH1 0x1 PUSH1 0xA0 SHL SUB AND EQ ISZERO PUSH2 0x3C9E JUMPI POP PUSH1 0x2 PUSH2 0x15E JUMP JUMPDEST PUSH32 0x0 PUSH1 0x1 PUSH1 0x1 PUSH1 0xA0 SHL SUB AND DUP3 PUSH1 0x1 PUSH1 0x1 PUSH1 0xA0 SHL SUB AND EQ ISZERO PUSH2 0x3CE0 JUMPI POP PUSH1 0x3 PUSH2 0x15E JUMP JUMPDEST PUSH32 0x0 PUSH1 0x1 PUSH1 0x1 PUSH1 0xA0 SHL SUB AND DUP3 PUSH1 0x1 PUSH1 0x1 PUSH1 0xA0 SHL SUB AND EQ ISZERO PUSH2 0x3D22 JUMPI POP PUSH1 0x4 PUSH2 0x15E JUMP JUMPDEST PUSH32 0x0 PUSH1 0x1 PUSH1 0x1 PUSH1 0xA0 SHL SUB AND DUP3 PUSH1 0x1 PUSH1 0x1 PUSH1 0xA0 SHL SUB AND EQ ISZERO PUSH2 0x3D64 JUMPI POP PUSH1 0x5 PUSH2 0x15E JUMP JUMPDEST PUSH32 0x0 PUSH1 0x1 PUSH1 0x1 PUSH1 0xA0 SHL SUB AND DUP3 PUSH1 0x1 PUSH1 0x1 PUSH1 0xA0 SHL SUB AND EQ ISZERO PUSH2 0x3DA6 JUMPI POP PUSH1 0x6 PUSH2 0x15E JUMP JUMPDEST PUSH32 0x0 PUSH1 0x1 PUSH1 0x1 PUSH1 0xA0 SHL SUB AND DUP3 PUSH1 0x1 PUSH1 0x1 PUSH1 0xA0 SHL SUB AND EQ ISZERO PUSH2 0x3DE8 JUMPI POP PUSH1 0x7 PUSH2 0x15E JUMP JUMPDEST PUSH32 0x0 PUSH1 0x1 PUSH1 0x1 PUSH1 0xA0 SHL SUB AND DUP3 PUSH1 0x1 PUSH1 0x1 PUSH1 0xA0 SHL SUB AND EQ ISZERO PUSH2 0x3E2A JUMPI POP PUSH1 0x8 PUSH2 0x15E JUMP JUMPDEST PUSH32 0x0 PUSH1 0x1 PUSH1 0x1 PUSH1 0xA0 SHL SUB AND DUP3 PUSH1 0x1 PUSH1 0x1 PUSH1 0xA0 SHL SUB AND EQ ISZERO PUSH2 0x3E6C JUMPI POP PUSH1 0x9 PUSH2 0x15E JUMP JUMPDEST PUSH32 0x0 PUSH1 0x1 PUSH1 0x1 PUSH1 0xA0 SHL SUB AND DUP3 PUSH1 0x1 PUSH1 0x1 PUSH1 0xA0 SHL SUB AND EQ ISZERO PUSH2 0x3EAE JUMPI POP PUSH1 0xA PUSH2 0x15E JUMP JUMPDEST PUSH32 0x0 PUSH1 0x1 PUSH1 0x1 PUSH1 0xA0 SHL SUB AND DUP3 PUSH1 0x1 PUSH1 0x1 PUSH1 0xA0 SHL SUB AND EQ ISZERO PUSH2 0x3EF0 JUMPI POP PUSH1 0xB PUSH2 0x15E JUMP JUMPDEST PUSH32 0x0 PUSH1 0x1 PUSH1 0x1 PUSH1 0xA0 SHL SUB AND DUP3 PUSH1 0x1 PUSH1 0x1 PUSH1 0xA0 SHL SUB AND EQ ISZERO PUSH2 0x3F32 JUMPI POP PUSH1 0xC PUSH2 0x15E JUMP JUMPDEST PUSH32 0x0 PUSH1 0x1 PUSH1 0x1 PUSH1 0xA0 SHL SUB AND DUP3 PUSH1 0x1 PUSH1 0x1 PUSH1 0xA0 SHL SUB AND EQ ISZERO PUSH2 0x3F74 JUMPI POP PUSH1 0xD PUSH2 0x15E JUMP JUMPDEST PUSH32 0x0 PUSH1 0x1 PUSH1 0x1 PUSH1 0xA0 SHL SUB AND DUP3 PUSH1 0x1 PUSH1 0x1 PUSH1 0xA0 SHL SUB AND EQ ISZERO PUSH2 0x3FB6 JUMPI POP PUSH1 0xE PUSH2 0x15E JUMP JUMPDEST PUSH32 0x0 PUSH1 0x1 PUSH1 0x1 PUSH1 0xA0 SHL SUB AND DUP3 PUSH1 0x1 PUSH1 0x1 PUSH1 0xA0 SHL SUB AND EQ ISZERO PUSH2 0x3FF8 JUMPI POP PUSH1 0xF PUSH2 0x15E JUMP JUMPDEST PUSH32 0x0 PUSH1 0x1 PUSH1 0x1 PUSH1 0xA0 SHL SUB AND DUP3 PUSH1 0x1 PUSH1 0x1 PUSH1 0xA0 SHL SUB AND EQ ISZERO PUSH2 0x403A JUMPI POP PUSH1 0x10 PUSH2 0x15E JUMP JUMPDEST PUSH32 0x0 PUSH1 0x1 PUSH1 0x1 PUSH1 0xA0 SHL SUB AND DUP3 PUSH1 0x1 PUSH1 0x1 PUSH1 0xA0 SHL SUB AND EQ ISZERO PUSH2 0x407C JUMPI POP PUSH1 0x11 PUSH2 0x15E JUMP JUMPDEST PUSH32 0x0 PUSH1 0x1 PUSH1 0x1 PUSH1 0xA0 SHL SUB AND DUP3 PUSH1 0x1 PUSH1 0x1 PUSH1 0xA0 SHL SUB AND EQ ISZERO PUSH2 0x40BE JUMPI POP PUSH1 0x12 PUSH2 0x15E JUMP JUMPDEST PUSH32 0x0 PUSH1 0x1 PUSH1 0x1 PUSH1 0xA0 SHL SUB AND DUP3 PUSH1 0x1 PUSH1 0x1 PUSH1 0xA0 SHL SUB AND EQ ISZERO PUSH2 0x4100 JUMPI POP PUSH1 0x13 PUSH2 0x15E JUMP JUMPDEST PUSH32 0x0 PUSH1 0x1 PUSH1 0x1 PUSH1 0xA0 SHL SUB AND DUP3 PUSH1 0x1 PUSH1 0x1 PUSH1 0xA0 SHL SUB AND EQ ISZERO PUSH2 0x4142 JUMPI POP PUSH1 0x14 PUSH2 0x15E JUMP JUMPDEST PUSH32 0x0 PUSH1 0x1 PUSH1 0x1 PUSH1 0xA0 SHL SUB AND DUP3 PUSH1 0x1 PUSH1 0x1 PUSH1 0xA0 SHL SUB AND EQ ISZERO PUSH2 0x4184 JUMPI POP PUSH1 0x15 PUSH2 0x15E JUMP JUMPDEST PUSH32 0x0 PUSH1 0x1 PUSH1 0x1 PUSH1 0xA0 SHL SUB AND DUP3 PUSH1 0x1 PUSH1 0x1 PUSH1 0xA0 SHL SUB AND EQ ISZERO PUSH2 0x41C6 JUMPI POP PUSH1 0x16 PUSH2 0x15E JUMP JUMPDEST PUSH32 0x0 PUSH1 0x1 PUSH1 0x1 PUSH1 0xA0 SHL SUB AND DUP3 PUSH1 0x1 PUSH1 0x1 PUSH1 0xA0 SHL SUB AND EQ ISZERO PUSH2 0x4208 JUMPI POP PUSH1 0x17 PUSH2 0x15E JUMP JUMPDEST PUSH32 0x0 PUSH1 0x1 PUSH1 0x1 PUSH1 0xA0 SHL SUB AND DUP3 PUSH1 0x1 PUSH1 0x1 PUSH1 0xA0 SHL SUB AND EQ ISZERO PUSH2 0x424A JUMPI POP PUSH1 0x18 PUSH2 0x15E JUMP JUMPDEST PUSH32 0x0 PUSH1 0x1 PUSH1 0x1 PUSH1 0xA0 SHL SUB AND DUP3 PUSH1 0x1 PUSH1 0x1 PUSH1 0xA0 SHL SUB AND EQ ISZERO PUSH2 0x428C JUMPI POP PUSH1 0x19 PUSH2 0x15E JUMP JUMPDEST PUSH32 0x0 PUSH1 0x1 PUSH1 0x1 PUSH1 0xA0 SHL SUB AND DUP3 PUSH1 0x1 PUSH1 0x1 PUSH1 0xA0 SHL SUB AND EQ ISZERO PUSH2 0x42CE JUMPI POP PUSH1 0x1A PUSH2 0x15E JUMP JUMPDEST PUSH32 0x0 PUSH1 0x1 PUSH1 0x1 PUSH1 0xA0 SHL SUB AND DUP3 PUSH1 0x1 PUSH1 0x1 PUSH1 0xA0 SHL SUB AND EQ ISZERO PUSH2 0x4310 JUMPI POP PUSH1 0x1B PUSH2 0x15E JUMP JUMPDEST PUSH32 0x0 PUSH1 0x1 PUSH1 0x1 PUSH1 0xA0 SHL SUB AND DUP3 PUSH1 0x1 PUSH1 0x1 PUSH1 0xA0 SHL SUB AND EQ ISZERO PUSH2 0x4352 JUMPI POP PUSH1 0x1C PUSH2 0x15E JUMP JUMPDEST PUSH32 0x0 PUSH1 0x1 PUSH1 0x1 PUSH1 0xA0 SHL SUB AND DUP3 PUSH1 0x1 PUSH1 0x1 PUSH1 0xA0 SHL SUB AND EQ ISZERO PUSH2 0x340F JUMPI POP PUSH1 0x1D PUSH2 0x15E JUMP JUMPDEST PUSH1 0x40 DUP1 MLOAD PUSH2 0x100 DUP2 ADD DUP3 MSTORE PUSH1 0x0 DUP1 DUP3 MSTORE PUSH1 0x20 DUP3 ADD DUP2 SWAP1 MSTORE SWAP2 DUP2 ADD DUP3 SWAP1 MSTORE PUSH1 0x60 DUP2 ADD DUP3 SWAP1 MSTORE SWAP1 PUSH1 0x80 DUP3 ADD SWAP1 DUP2 MSTORE PUSH1 0x0 PUSH1 0x20 DUP3 ADD DUP2 SWAP1 MSTORE PUSH1 0x40 DUP3 ADD DUP2 SWAP1 MSTORE PUSH1 0x60 SWAP1 SWAP2 ADD MSTORE SWAP1 JUMP JUMPDEST PUSH1 0x0 PUSH1 0x20 DUP3 DUP5 SUB SLT ISZERO PUSH2 0x43EA JUMPI DUP1 DUP2 REVERT JUMPDEST DUP2 CALLDATALOAD PUSH2 0x2E66 DUP2 PUSH2 0x45D7 JUMP JUMPDEST PUSH1 0x0 PUSH1 0x20 DUP3 DUP5 SUB SLT ISZERO PUSH2 0x4406 JUMPI DUP1 DUP2 REVERT JUMPDEST DUP2 MLOAD PUSH2 0x2E66 DUP2 PUSH2 0x45D7 JUMP JUMPDEST PUSH1 0x0 PUSH1 0x20 DUP3 DUP5 SUB SLT ISZERO PUSH2 0x4422 JUMPI DUP1 DUP2 REVERT JUMPDEST POP CALLDATALOAD SWAP2 SWAP1 POP JUMP JUMPDEST PUSH1 0x0 PUSH1 0x20 DUP3 DUP5 SUB SLT ISZERO PUSH2 0x443A JUMPI DUP1 DUP2 REVERT JUMPDEST DUP2 CALLDATALOAD PUSH8 0xFFFFFFFFFFFFFFFF DUP1 DUP3 GT ISZERO PUSH2 0x4451 JUMPI DUP3 DUP4 REVERT JUMPDEST DUP2 DUP5 ADD DUP6 PUSH1 0x1F DUP3 ADD SLT PUSH2 0x4462 JUMPI DUP4 DUP5 REVERT JUMPDEST DUP1 CALLDATALOAD SWAP3 POP DUP2 DUP4 GT ISZERO PUSH2 0x4472 JUMPI DUP4 DUP5 REVERT JUMPDEST PUSH1 0x40 MLOAD PUSH1 0x1F DUP5 ADD PUSH1 0x1F NOT AND DUP2 ADD PUSH1 0x20 ADD DUP4 DUP2 GT DUP3 DUP3 LT OR ISZERO PUSH2 0x4492 JUMPI DUP6 DUP7 REVERT JUMPDEST PUSH1 0x40 MSTORE DUP4 DUP2 MSTORE DUP2 DUP5 ADD PUSH1 0x20 ADD DUP8 LT ISZERO PUSH2 0x44A9 JUMPI DUP5 DUP6 REVERT JUMPDEST PUSH2 0x44BA DUP5 PUSH1 0x20 DUP4 ADD PUSH1 0x20 DUP6 ADD PUSH2 0x45CB JUMP JUMPDEST SWAP7 SWAP6 POP POP POP POP POP POP JUMP JUMPDEST PUSH1 0x1 PUSH1 0x1 PUSH1 0xA0 SHL SUB AND SWAP1 MSTORE JUMP JUMPDEST ISZERO ISZERO SWAP1 MSTORE JUMP JUMPDEST PUSH1 0x0 DUP3 MLOAD DUP2 JUMPDEST DUP2 DUP2 LT ISZERO PUSH2 0x44F7 JUMPI PUSH1 0x20 DUP2 DUP7 ADD DUP2 ADD MLOAD DUP6 DUP4 ADD MSTORE ADD PUSH2 0x44DD JUMP JUMPDEST DUP2 DUP2 GT ISZERO PUSH2 0x4505 JUMPI DUP3 DUP3 DUP6 ADD MSTORE JUMPDEST POP SWAP2 SWAP1 SWAP2 ADD SWAP3 SWAP2 POP POP JUMP JUMPDEST SWAP1 DUP2 MSTORE PUSH1 0x20 ADD SWAP1 JUMP JUMPDEST PUSH1 0x20 DUP1 DUP3 MSTORE PUSH1 0x16 SWAP1 DUP3 ADD MSTORE PUSH22 0x1D1BDAD95B8818DBDB999A59C81B9BDD08199BDD5B99 PUSH1 0x52 SHL PUSH1 0x40 DUP3 ADD MSTORE PUSH1 0x60 ADD SWAP1 JUMP JUMPDEST DUP2 MLOAD PUSH1 0x1 PUSH1 0x1 PUSH1 0xA0 SHL SUB SWAP1 DUP2 AND DUP3 MSTORE PUSH1 0x20 DUP1 DUP5 ADD MLOAD SWAP1 SWAP2 AND SWAP1 DUP3 ADD MSTORE PUSH1 0x40 DUP1 DUP4 ADD MLOAD SWAP1 DUP3 ADD MSTORE PUSH1 0x60 DUP1 DUP4 ADD MLOAD SWAP1 DUP3 ADD MSTORE PUSH1 0x80 DUP3 ADD MLOAD PUSH2 0x100 DUP3 ADD SWAP1 PUSH1 0x3 DUP2 LT PUSH2 0x458E JUMPI INVALID JUMPDEST DUP1 PUSH1 0x80 DUP5 ADD MSTORE POP PUSH1 0xA0 DUP4 ADD MLOAD PUSH1 0xA0 DUP4 ADD MSTORE PUSH1 0xC0 DUP4 ADD MLOAD PUSH2 0x45B1 PUSH1 0xC0 DUP5 ADD DUP3 PUSH2 0x44C4 JUMP JUMPDEST POP PUSH1 0xE0 DUP4 ADD MLOAD PUSH2 0x45C4 PUSH1 0xE0 DUP5 ADD DUP3 PUSH2 0x44D1 JUMP JUMPDEST POP SWAP3 SWAP2 POP POP JUMP JUMPDEST DUP3 DUP2 DUP4 CALLDATACOPY POP PUSH1 0x0 SWAP2 ADD MSTORE JUMP JUMPDEST PUSH1 0x1 PUSH1 0x1 PUSH1 0xA0 SHL SUB DUP2 AND DUP2 EQ PUSH2 0x45EC JUMPI PUSH1 0x0 DUP1 REVERT JUMPDEST POP JUMP INVALID LOG2 PUSH5 0x6970667358 0x22 SLT KECCAK256 0xF8 SWAP4 SWAP10 PUSH7 0x6BCB95DBBBC708 0xEB 0x21 0xD6 0xFB LOG4 0xE5 0xE4 COINBASE MUL MOD DUP6 0xA9 DUP6 EQ SWAP1 0xE6 0xE7 0xFB SWAP12 PUSH28 0xE564736F6C634300060A003300000000000000000000000000000000 "
		},
		"gasEstimates": {
			"creation": {
				"codeDepositCost": "3591400",
				"executionCost": "infinite",
				"totalCost": "infinite"
			},
			"external": {
				"getHashBySymbol(string)": "infinite",
				"getTokenConfig(uint256)": "infinite",
				"getTokenConfigByDToken(address)": "infinite",
				"getTokenConfigBySymbol(string)": "infinite",
				"getTokenConfigBySymbolHash(bytes32)": "infinite",
				"getTokenConfigByUnderlying(address)": "infinite",
				"maxTokens()": "272",
				"numTokens()": "infinite"
			},
			"internal": {
				"get(struct UniswapConfig.TokenConfig memory[] memory,uint256)": "infinite",
				"getDTokenIndex(address)": "infinite",
				"getSymbolHashIndex(bytes32)": "infinite",
				"getUnderlyingIndex(address)": "infinite"
			}
		},
		"methodIdentifiers": {
			"getHashBySymbol(string)": "06981c91",
			"getTokenConfig(uint256)": "8a003888",
			"getTokenConfigByDToken(address)": "eea85ecb",
			"getTokenConfigBySymbol(string)": "276c2cba",
			"getTokenConfigBySymbolHash(bytes32)": "1a125204",
			"getTokenConfigByUnderlying(address)": "4da21942",
			"maxTokens()": "e8315742",
			"numTokens()": "8e499bcf"
		}
	},
	"abi": [
		{
			"inputs": [
				{
					"components": [
						{
							"internalType": "address",
							"name": "dToken",
							"type": "address"
						},
						{
							"internalType": "address",
							"name": "underlying",
							"type": "address"
						},
						{
							"internalType": "bytes32",
							"name": "symbolHash",
							"type": "bytes32"
						},
						{
							"internalType": "uint256",
							"name": "baseUnit",
							"type": "uint256"
						},
						{
							"internalType": "enum UniswapConfig.PriceSource",
							"name": "priceSource",
							"type": "uint8"
						},
						{
							"internalType": "uint256",
							"name": "fixedPrice",
							"type": "uint256"
						},
						{
							"internalType": "address",
							"name": "uniswapMarket",
							"type": "address"
						},
						{
							"internalType": "bool",
							"name": "isUniswapReversed",
							"type": "bool"
						}
					],
					"internalType": "struct UniswapConfig.TokenConfig[]",
					"name": "configs",
					"type": "tuple[]"
				}
			],
			"stateMutability": "nonpayable",
			"type": "constructor"
		},
		{
			"inputs": [
				{
					"internalType": "string",
					"name": "symbol",
					"type": "string"
				}
			],
			"name": "getHashBySymbol",
			"outputs": [
				{
					"internalType": "bytes32",
					"name": "",
					"type": "bytes32"
				}
			],
			"stateMutability": "view",
			"type": "function"
		},
		{
			"inputs": [
				{
					"internalType": "uint256",
					"name": "i",
					"type": "uint256"
				}
			],
			"name": "getTokenConfig",
			"outputs": [
				{
					"components": [
						{
							"internalType": "address",
							"name": "dToken",
							"type": "address"
						},
						{
							"internalType": "address",
							"name": "underlying",
							"type": "address"
						},
						{
							"internalType": "bytes32",
							"name": "symbolHash",
							"type": "bytes32"
						},
						{
							"internalType": "uint256",
							"name": "baseUnit",
							"type": "uint256"
						},
						{
							"internalType": "enum UniswapConfig.PriceSource",
							"name": "priceSource",
							"type": "uint8"
						},
						{
							"internalType": "uint256",
							"name": "fixedPrice",
							"type": "uint256"
						},
						{
							"internalType": "address",
							"name": "uniswapMarket",
							"type": "address"
						},
						{
							"internalType": "bool",
							"name": "isUniswapReversed",
							"type": "bool"
						}
					],
					"internalType": "struct UniswapConfig.TokenConfig",
					"name": "",
					"type": "tuple"
				}
			],
			"stateMutability": "view",
			"type": "function"
		},
		{
			"inputs": [
				{
					"internalType": "address",
					"name": "dToken",
					"type": "address"
				}
			],
			"name": "getTokenConfigByDToken",
			"outputs": [
				{
					"components": [
						{
							"internalType": "address",
							"name": "dToken",
							"type": "address"
						},
						{
							"internalType": "address",
							"name": "underlying",
							"type": "address"
						},
						{
							"internalType": "bytes32",
							"name": "symbolHash",
							"type": "bytes32"
						},
						{
							"internalType": "uint256",
							"name": "baseUnit",
							"type": "uint256"
						},
						{
							"internalType": "enum UniswapConfig.PriceSource",
							"name": "priceSource",
							"type": "uint8"
						},
						{
							"internalType": "uint256",
							"name": "fixedPrice",
							"type": "uint256"
						},
						{
							"internalType": "address",
							"name": "uniswapMarket",
							"type": "address"
						},
						{
							"internalType": "bool",
							"name": "isUniswapReversed",
							"type": "bool"
						}
					],
					"internalType": "struct UniswapConfig.TokenConfig",
					"name": "",
					"type": "tuple"
				}
			],
			"stateMutability": "view",
			"type": "function"
		},
		{
			"inputs": [
				{
					"internalType": "string",
					"name": "symbol",
					"type": "string"
				}
			],
			"name": "getTokenConfigBySymbol",
			"outputs": [
				{
					"components": [
						{
							"internalType": "address",
							"name": "dToken",
							"type": "address"
						},
						{
							"internalType": "address",
							"name": "underlying",
							"type": "address"
						},
						{
							"internalType": "bytes32",
							"name": "symbolHash",
							"type": "bytes32"
						},
						{
							"internalType": "uint256",
							"name": "baseUnit",
							"type": "uint256"
						},
						{
							"internalType": "enum UniswapConfig.PriceSource",
							"name": "priceSource",
							"type": "uint8"
						},
						{
							"internalType": "uint256",
							"name": "fixedPrice",
							"type": "uint256"
						},
						{
							"internalType": "address",
							"name": "uniswapMarket",
							"type": "address"
						},
						{
							"internalType": "bool",
							"name": "isUniswapReversed",
							"type": "bool"
						}
					],
					"internalType": "struct UniswapConfig.TokenConfig",
					"name": "",
					"type": "tuple"
				}
			],
			"stateMutability": "view",
			"type": "function"
		},
		{
			"inputs": [
				{
					"internalType": "bytes32",
					"name": "symbolHash",
					"type": "bytes32"
				}
			],
			"name": "getTokenConfigBySymbolHash",
			"outputs": [
				{
					"components": [
						{
							"internalType": "address",
							"name": "dToken",
							"type": "address"
						},
						{
							"internalType": "address",
							"name": "underlying",
							"type": "address"
						},
						{
							"internalType": "bytes32",
							"name": "symbolHash",
							"type": "bytes32"
						},
						{
							"internalType": "uint256",
							"name": "baseUnit",
							"type": "uint256"
						},
						{
							"internalType": "enum UniswapConfig.PriceSource",
							"name": "priceSource",
							"type": "uint8"
						},
						{
							"internalType": "uint256",
							"name": "fixedPrice",
							"type": "uint256"
						},
						{
							"internalType": "address",
							"name": "uniswapMarket",
							"type": "address"
						},
						{
							"internalType": "bool",
							"name": "isUniswapReversed",
							"type": "bool"
						}
					],
					"internalType": "struct UniswapConfig.TokenConfig",
					"name": "",
					"type": "tuple"
				}
			],
			"stateMutability": "view",
			"type": "function"
		},
		{
			"inputs": [
				{
					"internalType": "address",
					"name": "underlying",
					"type": "address"
				}
			],
			"name": "getTokenConfigByUnderlying",
			"outputs": [
				{
					"components": [
						{
							"internalType": "address",
							"name": "dToken",
							"type": "address"
						},
						{
							"internalType": "address",
							"name": "underlying",
							"type": "address"
						},
						{
							"internalType": "bytes32",
							"name": "symbolHash",
							"type": "bytes32"
						},
						{
							"internalType": "uint256",
							"name": "baseUnit",
							"type": "uint256"
						},
						{
							"internalType": "enum UniswapConfig.PriceSource",
							"name": "priceSource",
							"type": "uint8"
						},
						{
							"internalType": "uint256",
							"name": "fixedPrice",
							"type": "uint256"
						},
						{
							"internalType": "address",
							"name": "uniswapMarket",
							"type": "address"
						},
						{
							"internalType": "bool",
							"name": "isUniswapReversed",
							"type": "bool"
						}
					],
					"internalType": "struct UniswapConfig.TokenConfig",
					"name": "",
					"type": "tuple"
				}
			],
			"stateMutability": "view",
			"type": "function"
		},
		{
			"inputs": [],
			"name": "maxTokens",
			"outputs": [
				{
					"internalType": "uint256",
					"name": "",
					"type": "uint256"
				}
			],
			"stateMutability": "view",
			"type": "function"
		},
		{
			"inputs": [],
			"name": "numTokens",
			"outputs": [
				{
					"internalType": "uint256",
					"name": "",
					"type": "uint256"
				}
			],
			"stateMutability": "view",
			"type": "function"
		}
	]
}