{
	"data": {
		"bytecode": {
			"linkReferences": {},
			"object": "611ea06040523480156200001257600080fd5b50604051620071fa380380620071fa833981016040819052620000359162001dfe565b601e81511115620000635760405162461bcd60e51b81526004016200005a9062001ead565b60405180910390fd5b80516080526200007581600062001c6e565b5160601b6001600160601b03191660a0526200009381600162001c6e565b5160601b6001600160601b03191660c052620000b181600262001c6e565b5160601b6001600160601b03191660e052620000cf81600362001c6e565b5160601b6001600160601b03191661010052620000ee81600462001c6e565b5160601b6001600160601b031916610120526200010d81600562001c6e565b5160601b6001600160601b031916610140526200012c81600662001c6e565b5160601b6001600160601b031916610160526200014b81600762001c6e565b5160601b6001600160601b031916610180526200016a81600862001c6e565b5160601b6001600160601b0319166101a0526200018981600962001c6e565b5160601b6001600160601b0319166101c052620001a881600a62001c6e565b5160601b6001600160601b0319166101e052620001c781600b62001c6e565b5160601b6001600160601b03191661020052620001e681600c62001c6e565b5160601b6001600160601b031916610220526200020581600d62001c6e565b5160601b6001600160601b031916610240526200022481600e62001c6e565b5160601b6001600160601b031916610260526200024381600f62001c6e565b5160601b6001600160601b031916610280526200026281601062001c6e565b5160601b6001600160601b0319166102a0526200028181601162001c6e565b5160601b6001600160601b0319166102c052620002a081601262001c6e565b5160601b6001600160601b0319166102e052620002bf81601362001c6e565b5160601b6001600160601b03191661030052620002de81601462001c6e565b5160601b6001600160601b03191661032052620002fd81601562001c6e565b5160601b6001600160601b031916610340526200031c81601662001c6e565b5160601b6001600160601b031916610360526200033b81601762001c6e565b5160601b6001600160601b031916610380526200035a81601862001c6e565b5160601b6001600160601b0319166103a0526200037981601962001c6e565b5160601b6001600160601b0319166103c0526200039881601a62001c6e565b5160601b6001600160601b0319166103e052620003b781601b62001c6e565b5160601b6001600160601b03191661040052620003d681601c62001c6e565b5160601b6001600160601b03191661042052620003f581601d62001c6e565b5160601b6001600160601b031916610440526200041481600062001c6e565b6020015160601b6001600160601b031916610460526200043681600162001c6e565b6020015160601b6001600160601b031916610480526200045881600262001c6e565b6020015160601b6001600160601b0319166104a0526200047a81600362001c6e565b6020015160601b6001600160601b0319166104c0526200049c81600462001c6e565b6020015160601b6001600160601b0319166104e052620004be81600562001c6e565b6020015160601b6001600160601b03191661050052620004e081600662001c6e565b6020015160601b6001600160601b031916610520526200050281600762001c6e565b6020015160601b6001600160601b031916610540526200052481600862001c6e565b6020015160601b6001600160601b031916610560526200054681600962001c6e565b6020015160601b6001600160601b031916610580526200056881600a62001c6e565b6020015160601b6001600160601b0319166105a0526200058a81600b62001c6e565b6020015160601b6001600160601b0319166105c052620005ac81600c62001c6e565b6020015160601b6001600160601b0319166105e052620005ce81600d62001c6e565b6020015160601b6001600160601b03191661060052620005f081600e62001c6e565b6020015160601b6001600160601b031916610620526200061281600f62001c6e565b6020015160601b6001600160601b031916610640526200063481601062001c6e565b6020015160601b6001600160601b031916610660526200065681601162001c6e565b6020015160601b6001600160601b031916610680526200067881601262001c6e565b6020015160601b6001600160601b0319166106a0526200069a81601362001c6e565b6020015160601b6001600160601b0319166106c052620006bc81601462001c6e565b6020015160601b6001600160601b0319166106e052620006de81601562001c6e565b6020015160601b6001600160601b031916610700526200070081601662001c6e565b6020015160601b6001600160601b031916610720526200072281601762001c6e565b6020015160601b6001600160601b031916610740526200074481601862001c6e565b6020015160601b6001600160601b031916610760526200076681601962001c6e565b6020015160601b6001600160601b031916610780526200078881601a62001c6e565b6020015160601b6001600160601b0319166107a052620007aa81601b62001c6e565b6020015160601b6001600160601b0319166107c052620007cc81601c62001c6e565b6020015160601b6001600160601b0319166107e052620007ee81601d62001c6e565b6020015160601b6001600160601b031916610800526200081081600062001c6e565b60400151610820526200082581600162001c6e565b60400151610840526200083a81600262001c6e565b60400151610860526200084f81600362001c6e565b60400151610880526200086481600462001c6e565b604001516108a0526200087981600562001c6e565b604001516108c0526200088e81600662001c6e565b604001516108e052620008a381600762001c6e565b6040015161090052620008b881600862001c6e565b6040015161092052620008cd81600962001c6e565b6040015161094052620008e281600a62001c6e565b6040015161096052620008f781600b62001c6e565b60400151610980526200090c81600c62001c6e565b604001516109a0526200092181600d62001c6e565b604001516109c0526200093681600e62001c6e565b604001516109e0526200094b81600f62001c6e565b60400151610a00526200096081601062001c6e565b60400151610a20526200097581601162001c6e565b60400151610a40526200098a81601262001c6e565b60400151610a60526200099f81601362001c6e565b60400151610a8052620009b481601462001c6e565b60400151610aa052620009c981601562001c6e565b60400151610ac052620009de81601662001c6e565b60400151610ae052620009f381601762001c6e565b60400151610b005262000a0881601862001c6e565b60400151610b205262000a1d81601962001c6e565b60400151610b405262000a3281601a62001c6e565b60400151610b605262000a4781601b62001c6e565b60400151610b805262000a5c81601c62001c6e565b60400151610ba05262000a7181601d62001c6e565b60400151610bc05262000a8681600062001c6e565b60600151610be05262000a9b81600162001c6e565b60600151610c005262000ab081600262001c6e565b60600151610c205262000ac581600362001c6e565b60600151610c405262000ada81600462001c6e565b60600151610c605262000aef81600562001c6e565b60600151610c805262000b0481600662001c6e565b60600151610ca05262000b1981600762001c6e565b60600151610cc05262000b2e81600862001c6e565b60600151610ce05262000b4381600962001c6e565b60600151610d005262000b5881600a62001c6e565b60600151610d205262000b6d81600b62001c6e565b60600151610d405262000b8281600c62001c6e565b60600151610d605262000b9781600d62001c6e565b60600151610d805262000bac81600e62001c6e565b60600151610da05262000bc181600f62001c6e565b60600151610dc05262000bd681601062001c6e565b60600151610de05262000beb81601162001c6e565b60600151610e005262000c0081601262001c6e565b60600151610e205262000c1581601362001c6e565b60600151610e405262000c2a81601462001c6e565b60600151610e605262000c3f81601562001c6e565b60600151610e805262000c5481601662001c6e565b60600151610ea05262000c6981601762001c6e565b60600151610ec05262000c7e81601862001c6e565b60600151610ee05262000c9381601962001c6e565b60600151610f005262000ca881601a62001c6e565b60600151610f205262000cbd81601b62001c6e565b60600151610f405262000cd281601c62001c6e565b60600151610f605262000ce781601d62001c6e565b60600151610f805262000cfc81600062001c6e565b60800151600281111562000d0c57fe5b610fa081600281111562000d1c57fe5b60f81b90525062000d2f81600162001c6e565b60800151600281111562000d3f57fe5b610fc081600281111562000d4f57fe5b60f81b90525062000d6281600262001c6e565b60800151600281111562000d7257fe5b610fe081600281111562000d8257fe5b60f81b90525062000d9581600362001c6e565b60800151600281111562000da557fe5b61100081600281111562000db557fe5b60f81b90525062000dc881600462001c6e565b60800151600281111562000dd857fe5b61102081600281111562000de857fe5b60f81b90525062000dfb81600562001c6e565b60800151600281111562000e0b57fe5b61104081600281111562000e1b57fe5b60f81b90525062000e2e81600662001c6e565b60800151600281111562000e3e57fe5b61106081600281111562000e4e57fe5b60f81b90525062000e6181600762001c6e565b60800151600281111562000e7157fe5b61108081600281111562000e8157fe5b60f81b90525062000e9481600862001c6e565b60800151600281111562000ea457fe5b6110a081600281111562000eb457fe5b60f81b90525062000ec781600962001c6e565b60800151600281111562000ed757fe5b6110c081600281111562000ee757fe5b60f81b90525062000efa81600a62001c6e565b60800151600281111562000f0a57fe5b6110e081600281111562000f1a57fe5b60f81b90525062000f2d81600b62001c6e565b60800151600281111562000f3d57fe5b61110081600281111562000f4d57fe5b60f81b90525062000f6081600c62001c6e565b60800151600281111562000f7057fe5b61112081600281111562000f8057fe5b60f81b90525062000f9381600d62001c6e565b60800151600281111562000fa357fe5b61114081600281111562000fb357fe5b60f81b90525062000fc681600e62001c6e565b60800151600281111562000fd657fe5b61116081600281111562000fe657fe5b60f81b90525062000ff981600f62001c6e565b6080015160028111156200100957fe5b6111808160028111156200101957fe5b60f81b9052506200102c81601062001c6e565b6080015160028111156200103c57fe5b6111a08160028111156200104c57fe5b60f81b9052506200105f81601162001c6e565b6080015160028111156200106f57fe5b6111c08160028111156200107f57fe5b60f81b9052506200109281601262001c6e565b608001516002811115620010a257fe5b6111e0816002811115620010b257fe5b60f81b905250620010c581601362001c6e565b608001516002811115620010d557fe5b611200816002811115620010e557fe5b60f81b905250620010f881601462001c6e565b6080015160028111156200110857fe5b6112208160028111156200111857fe5b60f81b9052506200112b81601562001c6e565b6080015160028111156200113b57fe5b6112408160028111156200114b57fe5b60f81b9052506200115e81601662001c6e565b6080015160028111156200116e57fe5b6112608160028111156200117e57fe5b60f81b9052506200119181601762001c6e565b608001516002811115620011a157fe5b611280816002811115620011b157fe5b60f81b905250620011c481601862001c6e565b608001516002811115620011d457fe5b6112a0816002811115620011e457fe5b60f81b905250620011f781601962001c6e565b6080015160028111156200120757fe5b6112c08160028111156200121757fe5b60f81b9052506200122a81601a62001c6e565b6080015160028111156200123a57fe5b6112e08160028111156200124a57fe5b60f81b9052506200125d81601b62001c6e565b6080015160028111156200126d57fe5b6113008160028111156200127d57fe5b60f81b9052506200129081601c62001c6e565b608001516002811115620012a057fe5b611320816002811115620012b057fe5b60f81b905250620012c381601d62001c6e565b608001516002811115620012d357fe5b611340816002811115620012e357fe5b60f81b905250620012f681600062001c6e565b60a00151611360526200130b81600162001c6e565b60a00151611380526200132081600262001c6e565b60a001516113a0526200133581600362001c6e565b60a001516113c0526200134a81600462001c6e565b60a001516113e0526200135f81600562001c6e565b60a00151611400526200137481600662001c6e565b60a00151611420526200138981600762001c6e565b60a00151611440526200139e81600862001c6e565b60a0015161146052620013b381600962001c6e565b60a0015161148052620013c881600a62001c6e565b60a001516114a052620013dd81600b62001c6e565b60a001516114c052620013f281600c62001c6e565b60a001516114e0526200140781600d62001c6e565b60a00151611500526200141c81600e62001c6e565b60a00151611520526200143181600f62001c6e565b60a00151611540526200144681601062001c6e565b60a00151611560526200145b81601162001c6e565b60a00151611580526200147081601262001c6e565b60a001516115a0526200148581601362001c6e565b60a001516115c0526200149a81601462001c6e565b60a001516115e052620014af81601562001c6e565b60a0015161160052620014c481601662001c6e565b60a0015161162052620014d981601762001c6e565b60a0015161164052620014ee81601862001c6e565b60a00151611660526200150381601962001c6e565b60a00151611680526200151881601a62001c6e565b60a001516116a0526200152d81601b62001c6e565b60a001516116c0526200154281601c62001c6e565b60a001516116e0526200155781601d62001c6e565b60a00151611700526200156c81600062001c6e565b60c0015160601b6001600160601b031916611720526200158e81600162001c6e565b60c0015160601b6001600160601b03191661174052620015b081600262001c6e565b60c0015160601b6001600160601b03191661176052620015d281600362001c6e565b60c0015160601b6001600160601b03191661178052620015f481600462001c6e565b60c0015160601b6001600160601b0319166117a0526200161681600562001c6e565b60c0015160601b6001600160601b0319166117c0526200163881600662001c6e565b60c0015160601b6001600160601b0319166117e0526200165a81600762001c6e565b60c0015160601b6001600160601b031916611800526200167c81600862001c6e565b60c0015160601b6001600160601b031916611820526200169e81600962001c6e565b60c0015160601b6001600160601b03191661184052620016c081600a62001c6e565b60c0015160601b6001600160601b03191661186052620016e281600b62001c6e565b60c0015160601b6001600160601b031916611880526200170481600c62001c6e565b60c0015160601b6001600160601b0319166118a0526200172681600d62001c6e565b60c0015160601b6001600160601b0319166118c0526200174881600e62001c6e565b60c0015160601b6001600160601b0319166118e0526200176a81600f62001c6e565b60c0015160601b6001600160601b031916611900526200178c81601062001c6e565b60c0015160601b6001600160601b03191661192052620017ae81601162001c6e565b60c0015160601b6001600160601b03191661194052620017d081601262001c6e565b60c0015160601b6001600160601b03191661196052620017f281601362001c6e565b60c0015160601b6001600160601b031916611980526200181481601462001c6e565b60c0015160601b6001600160601b0319166119a0526200183681601562001c6e565b60c0015160601b6001600160601b0319166119c0526200185881601662001c6e565b60c0015160601b6001600160601b0319166119e0526200187a81601762001c6e565b60c0015160601b6001600160601b031916611a00526200189c81601862001c6e565b60c0015160601b6001600160601b031916611a2052620018be81601962001c6e565b60c0015160601b6001600160601b031916611a4052620018e081601a62001c6e565b60c0015160601b6001600160601b031916611a60526200190281601b62001c6e565b60c0015160601b6001600160601b031916611a80526200192481601c62001c6e565b60c0015160601b6001600160601b031916611aa0526200194681601d62001c6e565b60c0015160601b6001600160601b031916611ac0526200196881600062001c6e565b60e00151151560f81b611ae0526200198281600162001c6e565b60e00151151560f81b611b00526200199c81600262001c6e565b60e00151151560f81b611b2052620019b681600362001c6e565b60e00151151560f81b611b4052620019d081600462001c6e565b60e00151151560f81b611b6052620019ea81600562001c6e565b60e00151151560f81b611b805262001a0481600662001c6e565b60e00151151560f81b611ba05262001a1e81600762001c6e565b60e00151151560f81b611bc05262001a3881600862001c6e565b60e00151151560f81b611be05262001a5281600962001c6e565b60e00151151560f81b611c005262001a6c81600a62001c6e565b60e00151151560f81b611c205262001a8681600b62001c6e565b60e00151151560f81b611c405262001aa081600c62001c6e565b60e00151151560f81b611c605262001aba81600d62001c6e565b60e00151151560f81b611c805262001ad481600e62001c6e565b60e00151151560f81b611ca05262001aee81600f62001c6e565b60e00151151560f81b611cc05262001b0881601062001c6e565b60e00151151560f81b611ce05262001b2281601162001c6e565b60e00151151560f81b611d005262001b3c81601262001c6e565b60e00151151560f81b611d205262001b5681601362001c6e565b60e00151151560f81b611d405262001b7081601462001c6e565b60e00151151560f81b611d605262001b8a81601562001c6e565b60e00151151560f81b611d805262001ba481601662001c6e565b60e00151151560f81b611da05262001bbe81601762001c6e565b60e00151151560f81b611dc05262001bd881601862001c6e565b60e00151151560f81b611de05262001bf281601962001c6e565b60e00151151560f81b611e005262001c0c81601a62001c6e565b60e00151151560f81b611e205262001c2681601b62001c6e565b60e00151151560f81b611e405262001c4081601c62001c6e565b60e00151151560f81b611e605262001c5a81601d62001c6e565b60e00151151560f81b611e80525062001f1e565b62001c7862001ce8565b825182101562001c9f5782828151811062001c8f57fe5b6020026020010151905062001ce2565b506040805161010081018252600080825260208201819052918101829052606081018290526080810182905260a0810182905260c0810182905260e08101919091525b92915050565b60408051610100810182526000808252602082018190529181018290526060810182905290608082019081526000602082018190526040820181905260609091015290565b80516001600160a01b038116811462001ce257600080fd5b8051801515811462001ce257600080fd5b600061010080838503121562001d6a578182fd5b62001d758162001ed7565b91505062001d84838362001d2d565b815262001d95836020840162001d2d565b6020820152604082015160408201526060820151606082015260808201516003811062001dc157600080fd5b608082015260a0828101519082015262001ddf8360c0840162001d2d565b60c082015262001df38360e0840162001d45565b60e082015292915050565b6000602080838503121562001e11578182fd5b82516001600160401b0381111562001e27578283fd5b8301601f8101851362001e38578283fd5b805162001e4f62001e498262001efe565b62001ed7565b81815283810190838501610100808502860187018a101562001e6f578788fd5b8795505b8486101562001e9f5762001e888a8362001d56565b845260019590950194928601929081019062001e73565b509098975050505050505050565b60208082526010908201526f746f6f206d616e7920636f6e6669677360801b604082015260600190565b6040518181016001600160401b038111828210171562001ef657600080fd5b604052919050565b60006001600160401b0382111562001f14578081fd5b5060209081020190565b60805160a05160601c60c05160601c60e05160601c6101005160601c6101205160601c6101405160601c6101605160601c6101805160601c6101a05160601c6101c05160601c6101e05160601c6102005160601c6102205160601c6102405160601c6102605160601c6102805160601c6102a05160601c6102c05160601c6102e05160601c6103005160601c6103205160601c6103405160601c6103605160601c6103805160601c6103a05160601c6103c05160601c6103e05160601c6104005160601c6104205160601c6104405160601c6104605160601c6104805160601c6104a05160601c6104c05160601c6104e05160601c6105005160601c6105205160601c6105405160601c6105605160601c6105805160601c6105a05160601c6105c05160601c6105e05160601c6106005160601c6106205160601c6106405160601c6106605160601c6106805160601c6106a05160601c6106c05160601c6106e05160601c6107005160601c6107205160601c6107405160601c6107605160601c6107805160601c6107a05160601c6107c05160601c6107e05160601c6108005160601c610820516108405161086051610880516108a0516108c0516108e05161090051610920516109405161096051610980516109a0516109c0516109e051610a0051610a2051610a4051610a6051610a8051610aa051610ac051610ae051610b0051610b2051610b4051610b6051610b8051610ba051610bc051610be051610c0051610c2051610c4051610c6051610c8051610ca051610cc051610ce051610d0051610d2051610d4051610d6051610d8051610da051610dc051610de051610e0051610e2051610e4051610e6051610e8051610ea051610ec051610ee051610f0051610f2051610f4051610f6051610f8051610fa05160f81c610fc05160f81c610fe05160f81c6110005160f81c6110205160f81c6110405160f81c6110605160f81c6110805160f81c6110a05160f81c6110c05160f81c6110e05160f81c6111005160f81c6111205160f81c6111405160f81c6111605160f81c6111805160f81c6111a05160f81c6111c05160f81c6111e05160f81c6112005160f81c6112205160f81c6112405160f81c6112605160f81c6112805160f81c6112a05160f81c6112c05160f81c6112e05160f81c6113005160f81c6113205160f81c6113405160f81c61136051611380516113a0516113c0516113e05161140051611420516114405161146051611480516114a0516114c0516114e05161150051611520516115405161156051611580516115a0516115c0516115e05161160051611620516116405161166051611680516116a0516116c0516116e051611700516117205160601c6117405160601c6117605160601c6117805160601c6117a05160601c6117c05160601c6117e05160601c6118005160601c6118205160601c6118405160601c6118605160601c6118805160601c6118a05160601c6118c05160601c6118e05160601c6119005160601c6119205160601c6119405160601c6119605160601c6119805160601c6119a05160601c6119c05160601c6119e05160601c611a005160601c611a205160601c611a405160601c611a605160601c611a805160601c611aa05160601c611ac05160601c611ae05160f81c611b005160f81c611b205160f81c611b405160f81c611b605160f81c611b805160f81c611ba05160f81c611bc05160f81c611be05160f81c611c005160f81c611c205160f81c611c405160f81c611c605160f81c611c805160f81c611ca05160f81c611cc05160f81c611ce05160f81c611d005160f81c611d205160f81c611d405160f81c611d605160f81c611d805160f81c611da05160f81c611dc05160f81c611de05160f81c611e005160f81c611e205160f81c611e405160f81c611e605160f81c611e805160f81c6145db62002c1f60003980612d2d525080612bbb525080612a495250806128d75250806127655250806125f352508061248152508061230f52508061219d52508061202b525080611eb9525080611d47525080611bd5525080611a635250806118f152508061177f52508061160d52508061149b5250806113295250806111b7525080611045525080610ed3525080610d61525080610bef525080610a7d52508061090b5250806107995250806106275250806104b5525080610343525080612cfe525080612b8c525080612a1a5250806128a85250806127365250806125c45250806124525250806122e052508061216e525080611ffc525080611e8a525080611d18525080611ba6525080611a345250806118c25250806117505250806115de52508061146c5250806112fa525080611188525080611016525080610ea4525080610d32525080610bc0525080610a4e5250806108dc52508061076a5250806105f8525080610486525080610314525080612cd8525080612b665250806129f452508061288252508061271052508061259e52508061242c5250806122ba525080612148525080611fd6525080611e64525080611cf2525080611b80525080611a0e52508061189c52508061172a5250806115b85250806114465250806112d4525080611162525080610ff0525080610e7e525080610d0c525080610b9a525080610a285250806108b65250806107445250806105d25250806104605250806102ee525080612ca7525080612b355250806129c35250806128515250806126df52508061256d5250806123fb525080612289525080612117525080611fa5525080611e33525080611cc1525080611b4f5250806119dd52508061186b5250806116f95250806115875250806114155250806112a3525080611131525080610fbf525080610e4d525080610cdb525080610b695250806109f75250806108855250806107135250806105a152508061042f5250806102bd525080612c81525080612b0f52508061299d52508061282b5250806126b95250806125475250806123d55250806122635250806120f1525080611f7f525080611e0d525080611c9b525080611b295250806119b75250806118455250806116d35250806115615250806113ef52508061127d52508061110b525080610f99525080610e27525080610cb5525080610b435250806109d152508061085f5250806106ed52508061057b525080610409525080610297525080612c5b5280613397525080612ae952806133675250806129775280613337525080612805528061330752508061269352806132d752508061252152806132a75250806123af528061327752508061223d52806132475250806120cb5280613217525080611f5952806131e7525080611de752806131b7525080611c755280613187525080611b035280613157525080611991528061312752508061181f52806130f75250806116ad52806130c752508061153b52806130975250806113c9528061306752508061125752806130375250806110e55280613007525080610f735280612fd7525080610e015280612fa7525080610c8f5280612f77525080610b1d5280612f475250806109ab5280612f175250806108395280612ee75250806106c75280612eb75250806105555280612e875250806103e35280612e575250806102715280612e27525080612c2c5280613b4c525080612aba5280613b0a5250806129485280613ac85250806127d65280613a865250806126645280613a445250806124f25280613a0252508061238052806139c052508061220e528061397e52508061209c528061393c525080611f2a52806138fa525080611db852806138b8525080611c465280613876525080611ad4528061383452508061196252806137f25250806117f052806137b052508061167e528061376e52508061150c528061372c52508061139a52806136ea52508061122852806136a85250806110b65280613666525080610f445280613624525080610dd252806135e2525080610c6052806135a0525080610aee528061355e52508061097c528061351c52508061080a52806134da525080610698528061349852508061052652806134565250806103b4528061341452508061024252806133d2525080612bfd528061430a525080612a8b52806142c852508061291952806142865250806127a7528061424452508061263552806142025250806124c352806141c0525080612351528061417e5250806121df528061413c52508061206d52806140fa525080611efb52806140b8525080611d895280614076525080611c175280614034525080611aa55280613ff25250806119335280613fb05250806117c15280613f6e52508061164f5280613f2c5250806114dd5280613eea52508061136b5280613ea85250806111f95280613e665250806110875280613e24525080610f155280613de2525080610da35280613da0525080610c315280613d5e525080610abf5280613d1c52508061094d5280613cda5250806107db5280613c985250806106695280613c565250806104f75280613c145250806103855280613bd25250806102135280613b905250806101c35280612d5a52506145db6000f3fe608060405234801561001057600080fd5b506004361061007d5760003560e01c80638a0038881161005b5780638a003888146100d15780638e499bcf146100e4578063e8315742146100f9578063eea85ecb146101015761007d565b80631a12520414610082578063276c2cba146100ab5780634da21942146100be575b600080fd5b6100956100903660046143c7565b610114565b6040516100a291906144f6565b60405180910390f35b6100956100b93660046143df565b610169565b6100956100cc36600461438f565b6101a6565b6100956100df3660046143c7565b6101b9565b6100ec612d58565b6040516100a29190614578565b6100ec612d7c565b61009561010f36600461438f565b612d81565b61011c61434a565b600061012783612e23565b905060001981146101435761013b816101b9565b915050610164565b60405162461bcd60e51b815260040161015b906144c6565b60405180910390fd5b919050565b61017161434a565b6101a082604051602001610185919061448d565b60405160208183030381529060405280519060200120610114565b92915050565b6101ae61434a565b6000610127836133ce565b6101c161434a565b7f000000000000000000000000000000000000000000000000000000000000000082106102005760405162461bcd60e51b815260040161015b906144c6565b8161036e576040518061010001604052807f00000000000000000000000000000000000000000000000000000000000000006001600160a01b031681526020017f00000000000000000000000000000000000000000000000000000000000000006001600160a01b031681526020017f000000000000000000000000000000000000000000000000000000000000000081526020017f000000000000000000000000000000000000000000000000000000000000000081526020017f000000000000000000000000000000000000000000000000000000000000000060028111156102e757fe5b81526020017f000000000000000000000000000000000000000000000000000000000000000081526020017f00000000000000000000000000000000000000000000000000000000000000006001600160a01b031681526020017f000000000000000000000000000000000000000000000000000000000000000015158152509050610164565b81600114156104e0576040518061010001604052807f00000000000000000000000000000000000000000000000000000000000000006001600160a01b031681526020017f00000000000000000000000000000000000000000000000000000000000000006001600160a01b031681526020017f000000000000000000000000000000000000000000000000000000000000000081526020017f000000000000000000000000000000000000000000000000000000000000000081526020017f0000000000000000000000000000000000000000000000000000000000000000600281111561045957fe5b81526020017f000000000000000000000000000000000000000000000000000000000000000081526020017f00000000000000000000000000000000000000000000000000000000000000006001600160a01b031681526020017f000000000000000000000000000000000000000000000000000000000000000015158152509050610164565b8160021415610652576040518061010001604052807f00000000000000000000000000000000000000000000000000000000000000006001600160a01b031681526020017f00000000000000000000000000000000000000000000000000000000000000006001600160a01b031681526020017f000000000000000000000000000000000000000000000000000000000000000081526020017f000000000000000000000000000000000000000000000000000000000000000081526020017f000000000000000000000000000000000000000000000000000000000000000060028111156105cb57fe5b81526020017f000000000000000000000000000000000000000000000000000000000000000081526020017f00000000000000000000000000000000000000000000000000000000000000006001600160a01b031681526020017f000000000000000000000000000000000000000000000000000000000000000015158152509050610164565b81600314156107c4576040518061010001604052807f00000000000000000000000000000000000000000000000000000000000000006001600160a01b031681526020017f00000000000000000000000000000000000000000000000000000000000000006001600160a01b031681526020017f000000000000000000000000000000000000000000000000000000000000000081526020017f000000000000000000000000000000000000000000000000000000000000000081526020017f0000000000000000000000000000000000000000000000000000000000000000600281111561073d57fe5b81526020017f000000000000000000000000000000000000000000000000000000000000000081526020017f00000000000000000000000000000000000000000000000000000000000000006001600160a01b031681526020017f000000000000000000000000000000000000000000000000000000000000000015158152509050610164565b8160041415610936576040518061010001604052807f00000000000000000000000000000000000000000000000000000000000000006001600160a01b031681526020017f00000000000000000000000000000000000000000000000000000000000000006001600160a01b031681526020017f000000000000000000000000000000000000000000000000000000000000000081526020017f000000000000000000000000000000000000000000000000000000000000000081526020017f000000000000000000000000000000000000000000000000000000000000000060028111156108af57fe5b81526020017f000000000000000000000000000000000000000000000000000000000000000081526020017f00000000000000000000000000000000000000000000000000000000000000006001600160a01b031681526020017f000000000000000000000000000000000000000000000000000000000000000015158152509050610164565b8160051415610aa8576040518061010001604052807f00000000000000000000000000000000000000000000000000000000000000006001600160a01b031681526020017f00000000000000000000000000000000000000000000000000000000000000006001600160a01b031681526020017f000000000000000000000000000000000000000000000000000000000000000081526020017f000000000000000000000000000000000000000000000000000000000000000081526020017f00000000000000000000000000000000000000000000000000000000000000006002811115610a2157fe5b81526020017f000000000000000000000000000000000000000000000000000000000000000081526020017f00000000000000000000000000000000000000000000000000000000000000006001600160a01b031681526020017f000000000000000000000000000000000000000000000000000000000000000015158152509050610164565b8160061415610c1a576040518061010001604052807f00000000000000000000000000000000000000000000000000000000000000006001600160a01b031681526020017f00000000000000000000000000000000000000000000000000000000000000006001600160a01b031681526020017f000000000000000000000000000000000000000000000000000000000000000081526020017f000000000000000000000000000000000000000000000000000000000000000081526020017f00000000000000000000000000000000000000000000000000000000000000006002811115610b9357fe5b81526020017f000000000000000000000000000000000000000000000000000000000000000081526020017f00000000000000000000000000000000000000000000000000000000000000006001600160a01b031681526020017f000000000000000000000000000000000000000000000000000000000000000015158152509050610164565b8160071415610d8c576040518061010001604052807f00000000000000000000000000000000000000000000000000000000000000006001600160a01b031681526020017f00000000000000000000000000000000000000000000000000000000000000006001600160a01b031681526020017f000000000000000000000000000000000000000000000000000000000000000081526020017f000000000000000000000000000000000000000000000000000000000000000081526020017f00000000000000000000000000000000000000000000000000000000000000006002811115610d0557fe5b81526020017f000000000000000000000000000000000000000000000000000000000000000081526020017f00000000000000000000000000000000000000000000000000000000000000006001600160a01b031681526020017f000000000000000000000000000000000000000000000000000000000000000015158152509050610164565b8160081415610efe576040518061010001604052807f00000000000000000000000000000000000000000000000000000000000000006001600160a01b031681526020017f00000000000000000000000000000000000000000000000000000000000000006001600160a01b031681526020017f000000000000000000000000000000000000000000000000000000000000000081526020017f000000000000000000000000000000000000000000000000000000000000000081526020017f00000000000000000000000000000000000000000000000000000000000000006002811115610e7757fe5b81526020017f000000000000000000000000000000000000000000000000000000000000000081526020017f00000000000000000000000000000000000000000000000000000000000000006001600160a01b031681526020017f000000000000000000000000000000000000000000000000000000000000000015158152509050610164565b8160091415611070576040518061010001604052807f00000000000000000000000000000000000000000000000000000000000000006001600160a01b031681526020017f00000000000000000000000000000000000000000000000000000000000000006001600160a01b031681526020017f000000000000000000000000000000000000000000000000000000000000000081526020017f000000000000000000000000000000000000000000000000000000000000000081526020017f00000000000000000000000000000000000000000000000000000000000000006002811115610fe957fe5b81526020017f000000000000000000000000000000000000000000000000000000000000000081526020017f00000000000000000000000000000000000000000000000000000000000000006001600160a01b031681526020017f000000000000000000000000000000000000000000000000000000000000000015158152509050610164565b81600a14156111e2576040518061010001604052807f00000000000000000000000000000000000000000000000000000000000000006001600160a01b031681526020017f00000000000000000000000000000000000000000000000000000000000000006001600160a01b031681526020017f000000000000000000000000000000000000000000000000000000000000000081526020017f000000000000000000000000000000000000000000000000000000000000000081526020017f0000000000000000000000000000000000000000000000000000000000000000600281111561115b57fe5b81526020017f000000000000000000000000000000000000000000000000000000000000000081526020017f00000000000000000000000000000000000000000000000000000000000000006001600160a01b031681526020017f000000000000000000000000000000000000000000000000000000000000000015158152509050610164565b81600b1415611354576040518061010001604052807f00000000000000000000000000000000000000000000000000000000000000006001600160a01b031681526020017f00000000000000000000000000000000000000000000000000000000000000006001600160a01b031681526020017f000000000000000000000000000000000000000000000000000000000000000081526020017f000000000000000000000000000000000000000000000000000000000000000081526020017f000000000000000000000000000000000000000000000000000000000000000060028111156112cd57fe5b81526020017f000000000000000000000000000000000000000000000000000000000000000081526020017f00000000000000000000000000000000000000000000000000000000000000006001600160a01b031681526020017f000000000000000000000000000000000000000000000000000000000000000015158152509050610164565b81600c14156114c6576040518061010001604052807f00000000000000000000000000000000000000000000000000000000000000006001600160a01b031681526020017f00000000000000000000000000000000000000000000000000000000000000006001600160a01b031681526020017f000000000000000000000000000000000000000000000000000000000000000081526020017f000000000000000000000000000000000000000000000000000000000000000081526020017f0000000000000000000000000000000000000000000000000000000000000000600281111561143f57fe5b81526020017f000000000000000000000000000000000000000000000000000000000000000081526020017f00000000000000000000000000000000000000000000000000000000000000006001600160a01b031681526020017f000000000000000000000000000000000000000000000000000000000000000015158152509050610164565b81600d1415611638576040518061010001604052807f00000000000000000000000000000000000000000000000000000000000000006001600160a01b031681526020017f00000000000000000000000000000000000000000000000000000000000000006001600160a01b031681526020017f000000000000000000000000000000000000000000000000000000000000000081526020017f000000000000000000000000000000000000000000000000000000000000000081526020017f000000000000000000000000000000000000000000000000000000000000000060028111156115b157fe5b81526020017f000000000000000000000000000000000000000000000000000000000000000081526020017f00000000000000000000000000000000000000000000000000000000000000006001600160a01b031681526020017f000000000000000000000000000000000000000000000000000000000000000015158152509050610164565b81600e14156117aa576040518061010001604052807f00000000000000000000000000000000000000000000000000000000000000006001600160a01b031681526020017f00000000000000000000000000000000000000000000000000000000000000006001600160a01b031681526020017f000000000000000000000000000000000000000000000000000000000000000081526020017f000000000000000000000000000000000000000000000000000000000000000081526020017f0000000000000000000000000000000000000000000000000000000000000000600281111561172357fe5b81526020017f000000000000000000000000000000000000000000000000000000000000000081526020017f00000000000000000000000000000000000000000000000000000000000000006001600160a01b031681526020017f000000000000000000000000000000000000000000000000000000000000000015158152509050610164565b81600f141561191c576040518061010001604052807f00000000000000000000000000000000000000000000000000000000000000006001600160a01b031681526020017f00000000000000000000000000000000000000000000000000000000000000006001600160a01b031681526020017f000000000000000000000000000000000000000000000000000000000000000081526020017f000000000000000000000000000000000000000000000000000000000000000081526020017f0000000000000000000000000000000000000000000000000000000000000000600281111561189557fe5b81526020017f000000000000000000000000000000000000000000000000000000000000000081526020017f00000000000000000000000000000000000000000000000000000000000000006001600160a01b031681526020017f000000000000000000000000000000000000000000000000000000000000000015158152509050610164565b8160101415611a8e576040518061010001604052807f00000000000000000000000000000000000000000000000000000000000000006001600160a01b031681526020017f00000000000000000000000000000000000000000000000000000000000000006001600160a01b031681526020017f000000000000000000000000000000000000000000000000000000000000000081526020017f000000000000000000000000000000000000000000000000000000000000000081526020017f00000000000000000000000000000000000000000000000000000000000000006002811115611a0757fe5b81526020017f000000000000000000000000000000000000000000000000000000000000000081526020017f00000000000000000000000000000000000000000000000000000000000000006001600160a01b031681526020017f000000000000000000000000000000000000000000000000000000000000000015158152509050610164565b8160111415611c00576040518061010001604052807f00000000000000000000000000000000000000000000000000000000000000006001600160a01b031681526020017f00000000000000000000000000000000000000000000000000000000000000006001600160a01b031681526020017f000000000000000000000000000000000000000000000000000000000000000081526020017f000000000000000000000000000000000000000000000000000000000000000081526020017f00000000000000000000000000000000000000000000000000000000000000006002811115611b7957fe5b81526020017f000000000000000000000000000000000000000000000000000000000000000081526020017f00000000000000000000000000000000000000000000000000000000000000006001600160a01b031681526020017f000000000000000000000000000000000000000000000000000000000000000015158152509050610164565b8160121415611d72576040518061010001604052807f00000000000000000000000000000000000000000000000000000000000000006001600160a01b031681526020017f00000000000000000000000000000000000000000000000000000000000000006001600160a01b031681526020017f000000000000000000000000000000000000000000000000000000000000000081526020017f000000000000000000000000000000000000000000000000000000000000000081526020017f00000000000000000000000000000000000000000000000000000000000000006002811115611ceb57fe5b81526020017f000000000000000000000000000000000000000000000000000000000000000081526020017f00000000000000000000000000000000000000000000000000000000000000006001600160a01b031681526020017f000000000000000000000000000000000000000000000000000000000000000015158152509050610164565b8160131415611ee4576040518061010001604052807f00000000000000000000000000000000000000000000000000000000000000006001600160a01b031681526020017f00000000000000000000000000000000000000000000000000000000000000006001600160a01b031681526020017f000000000000000000000000000000000000000000000000000000000000000081526020017f000000000000000000000000000000000000000000000000000000000000000081526020017f00000000000000000000000000000000000000000000000000000000000000006002811115611e5d57fe5b81526020017f000000000000000000000000000000000000000000000000000000000000000081526020017f00000000000000000000000000000000000000000000000000000000000000006001600160a01b031681526020017f000000000000000000000000000000000000000000000000000000000000000015158152509050610164565b8160141415612056576040518061010001604052807f00000000000000000000000000000000000000000000000000000000000000006001600160a01b031681526020017f00000000000000000000000000000000000000000000000000000000000000006001600160a01b031681526020017f000000000000000000000000000000000000000000000000000000000000000081526020017f000000000000000000000000000000000000000000000000000000000000000081526020017f00000000000000000000000000000000000000000000000000000000000000006002811115611fcf57fe5b81526020017f000000000000000000000000000000000000000000000000000000000000000081526020017f00000000000000000000000000000000000000000000000000000000000000006001600160a01b031681526020017f000000000000000000000000000000000000000000000000000000000000000015158152509050610164565b81601514156121c8576040518061010001604052807f00000000000000000000000000000000000000000000000000000000000000006001600160a01b031681526020017f00000000000000000000000000000000000000000000000000000000000000006001600160a01b031681526020017f000000000000000000000000000000000000000000000000000000000000000081526020017f000000000000000000000000000000000000000000000000000000000000000081526020017f0000000000000000000000000000000000000000000000000000000000000000600281111561214157fe5b81526020017f000000000000000000000000000000000000000000000000000000000000000081526020017f00000000000000000000000000000000000000000000000000000000000000006001600160a01b031681526020017f000000000000000000000000000000000000000000000000000000000000000015158152509050610164565b816016141561233a576040518061010001604052807f00000000000000000000000000000000000000000000000000000000000000006001600160a01b031681526020017f00000000000000000000000000000000000000000000000000000000000000006001600160a01b031681526020017f000000000000000000000000000000000000000000000000000000000000000081526020017f000000000000000000000000000000000000000000000000000000000000000081526020017f000000000000000000000000000000000000000000000000000000000000000060028111156122b357fe5b81526020017f000000000000000000000000000000000000000000000000000000000000000081526020017f00000000000000000000000000000000000000000000000000000000000000006001600160a01b031681526020017f000000000000000000000000000000000000000000000000000000000000000015158152509050610164565b81601714156124ac576040518061010001604052807f00000000000000000000000000000000000000000000000000000000000000006001600160a01b031681526020017f00000000000000000000000000000000000000000000000000000000000000006001600160a01b031681526020017f000000000000000000000000000000000000000000000000000000000000000081526020017f000000000000000000000000000000000000000000000000000000000000000081526020017f0000000000000000000000000000000000000000000000000000000000000000600281111561242557fe5b81526020017f000000000000000000000000000000000000000000000000000000000000000081526020017f00000000000000000000000000000000000000000000000000000000000000006001600160a01b031681526020017f000000000000000000000000000000000000000000000000000000000000000015158152509050610164565b816018141561261e576040518061010001604052807f00000000000000000000000000000000000000000000000000000000000000006001600160a01b031681526020017f00000000000000000000000000000000000000000000000000000000000000006001600160a01b031681526020017f000000000000000000000000000000000000000000000000000000000000000081526020017f000000000000000000000000000000000000000000000000000000000000000081526020017f0000000000000000000000000000000000000000000000000000000000000000600281111561259757fe5b81526020017f000000000000000000000000000000000000000000000000000000000000000081526020017f00000000000000000000000000000000000000000000000000000000000000006001600160a01b031681526020017f000000000000000000000000000000000000000000000000000000000000000015158152509050610164565b8160191415612790576040518061010001604052807f00000000000000000000000000000000000000000000000000000000000000006001600160a01b031681526020017f00000000000000000000000000000000000000000000000000000000000000006001600160a01b031681526020017f000000000000000000000000000000000000000000000000000000000000000081526020017f000000000000000000000000000000000000000000000000000000000000000081526020017f0000000000000000000000000000000000000000000000000000000000000000600281111561270957fe5b81526020017f000000000000000000000000000000000000000000000000000000000000000081526020017f00000000000000000000000000000000000000000000000000000000000000006001600160a01b031681526020017f000000000000000000000000000000000000000000000000000000000000000015158152509050610164565b81601a1415612902576040518061010001604052807f00000000000000000000000000000000000000000000000000000000000000006001600160a01b031681526020017f00000000000000000000000000000000000000000000000000000000000000006001600160a01b031681526020017f000000000000000000000000000000000000000000000000000000000000000081526020017f000000000000000000000000000000000000000000000000000000000000000081526020017f0000000000000000000000000000000000000000000000000000000000000000600281111561287b57fe5b81526020017f000000000000000000000000000000000000000000000000000000000000000081526020017f00000000000000000000000000000000000000000000000000000000000000006001600160a01b031681526020017f000000000000000000000000000000000000000000000000000000000000000015158152509050610164565b81601b1415612a74576040518061010001604052807f00000000000000000000000000000000000000000000000000000000000000006001600160a01b031681526020017f00000000000000000000000000000000000000000000000000000000000000006001600160a01b031681526020017f000000000000000000000000000000000000000000000000000000000000000081526020017f000000000000000000000000000000000000000000000000000000000000000081526020017f000000000000000000000000000000000000000000000000000000000000000060028111156129ed57fe5b81526020017f000000000000000000000000000000000000000000000000000000000000000081526020017f00000000000000000000000000000000000000000000000000000000000000006001600160a01b031681526020017f000000000000000000000000000000000000000000000000000000000000000015158152509050610164565b81601c1415612be6576040518061010001604052807f00000000000000000000000000000000000000000000000000000000000000006001600160a01b031681526020017f00000000000000000000000000000000000000000000000000000000000000006001600160a01b031681526020017f000000000000000000000000000000000000000000000000000000000000000081526020017f000000000000000000000000000000000000000000000000000000000000000081526020017f00000000000000000000000000000000000000000000000000000000000000006002811115612b5f57fe5b81526020017f000000000000000000000000000000000000000000000000000000000000000081526020017f00000000000000000000000000000000000000000000000000000000000000006001600160a01b031681526020017f000000000000000000000000000000000000000000000000000000000000000015158152509050610164565b81601d1415610164576040518061010001604052807f00000000000000000000000000000000000000000000000000000000000000006001600160a01b031681526020017f00000000000000000000000000000000000000000000000000000000000000006001600160a01b031681526020017f000000000000000000000000000000000000000000000000000000000000000081526020017f000000000000000000000000000000000000000000000000000000000000000081526020017f00000000000000000000000000000000000000000000000000000000000000006002811115612cd157fe5b81526020017f000000000000000000000000000000000000000000000000000000000000000081526020017f00000000000000000000000000000000000000000000000000000000000000006001600160a01b031681526020017f000000000000000000000000000000000000000000000000000000000000000015158152509050610164565b7f000000000000000000000000000000000000000000000000000000000000000081565b601e81565b612d8961434a565b6000612d9483613b8c565b90506000198114612da85761013b816101b9565b612e1c836001600160a01b0316636f307dc36040518163ffffffff1660e01b815260040160206040518083038186803b158015612de457600080fd5b505afa158015612df8573d6000803e3d6000fd5b505050506040513d601f19601f820116820180604052508101906100cc91906143ab565b9392505050565b60007f0000000000000000000000000000000000000000000000000000000000000000821415612e5557506000610164565b7f0000000000000000000000000000000000000000000000000000000000000000821415612e8557506001610164565b7f0000000000000000000000000000000000000000000000000000000000000000821415612eb557506002610164565b7f0000000000000000000000000000000000000000000000000000000000000000821415612ee557506003610164565b7f0000000000000000000000000000000000000000000000000000000000000000821415612f1557506004610164565b7f0000000000000000000000000000000000000000000000000000000000000000821415612f4557506005610164565b7f0000000000000000000000000000000000000000000000000000000000000000821415612f7557506006610164565b7f0000000000000000000000000000000000000000000000000000000000000000821415612fa557506007610164565b7f0000000000000000000000000000000000000000000000000000000000000000821415612fd557506008610164565b7f000000000000000000000000000000000000000000000000000000000000000082141561300557506009610164565b7f00000000000000000000000000000000000000000000000000000000000000008214156130355750600a610164565b7f00000000000000000000000000000000000000000000000000000000000000008214156130655750600b610164565b7f00000000000000000000000000000000000000000000000000000000000000008214156130955750600c610164565b7f00000000000000000000000000000000000000000000000000000000000000008214156130c55750600d610164565b7f00000000000000000000000000000000000000000000000000000000000000008214156130f55750600e610164565b7f00000000000000000000000000000000000000000000000000000000000000008214156131255750600f610164565b7f000000000000000000000000000000000000000000000000000000000000000082141561315557506010610164565b7f000000000000000000000000000000000000000000000000000000000000000082141561318557506011610164565b7f00000000000000000000000000000000000000000000000000000000000000008214156131b557506012610164565b7f00000000000000000000000000000000000000000000000000000000000000008214156131e557506013610164565b7f000000000000000000000000000000000000000000000000000000000000000082141561321557506014610164565b7f000000000000000000000000000000000000000000000000000000000000000082141561324557506015610164565b7f000000000000000000000000000000000000000000000000000000000000000082141561327557506016610164565b7f00000000000000000000000000000000000000000000000000000000000000008214156132a557506017610164565b7f00000000000000000000000000000000000000000000000000000000000000008214156132d557506018610164565b7f000000000000000000000000000000000000000000000000000000000000000082141561330557506019610164565b7f00000000000000000000000000000000000000000000000000000000000000008214156133355750601a610164565b7f00000000000000000000000000000000000000000000000000000000000000008214156133655750601b610164565b7f00000000000000000000000000000000000000000000000000000000000000008214156133955750601c610164565b7f00000000000000000000000000000000000000000000000000000000000000008214156133c55750601d610164565b50600019919050565b60007f00000000000000000000000000000000000000000000000000000000000000006001600160a01b0316826001600160a01b0316141561341257506000610164565b7f00000000000000000000000000000000000000000000000000000000000000006001600160a01b0316826001600160a01b0316141561345457506001610164565b7f00000000000000000000000000000000000000000000000000000000000000006001600160a01b0316826001600160a01b0316141561349657506002610164565b7f00000000000000000000000000000000000000000000000000000000000000006001600160a01b0316826001600160a01b031614156134d857506003610164565b7f00000000000000000000000000000000000000000000000000000000000000006001600160a01b0316826001600160a01b0316141561351a57506004610164565b7f00000000000000000000000000000000000000000000000000000000000000006001600160a01b0316826001600160a01b0316141561355c57506005610164565b7f00000000000000000000000000000000000000000000000000000000000000006001600160a01b0316826001600160a01b0316141561359e57506006610164565b7f00000000000000000000000000000000000000000000000000000000000000006001600160a01b0316826001600160a01b031614156135e057506007610164565b7f00000000000000000000000000000000000000000000000000000000000000006001600160a01b0316826001600160a01b0316141561362257506008610164565b7f00000000000000000000000000000000000000000000000000000000000000006001600160a01b0316826001600160a01b0316141561366457506009610164565b7f00000000000000000000000000000000000000000000000000000000000000006001600160a01b0316826001600160a01b031614156136a65750600a610164565b7f00000000000000000000000000000000000000000000000000000000000000006001600160a01b0316826001600160a01b031614156136e85750600b610164565b7f00000000000000000000000000000000000000000000000000000000000000006001600160a01b0316826001600160a01b0316141561372a5750600c610164565b7f00000000000000000000000000000000000000000000000000000000000000006001600160a01b0316826001600160a01b0316141561376c5750600d610164565b7f00000000000000000000000000000000000000000000000000000000000000006001600160a01b0316826001600160a01b031614156137ae5750600e610164565b7f00000000000000000000000000000000000000000000000000000000000000006001600160a01b0316826001600160a01b031614156137f05750600f610164565b7f00000000000000000000000000000000000000000000000000000000000000006001600160a01b0316826001600160a01b0316141561383257506010610164565b7f00000000000000000000000000000000000000000000000000000000000000006001600160a01b0316826001600160a01b0316141561387457506011610164565b7f00000000000000000000000000000000000000000000000000000000000000006001600160a01b0316826001600160a01b031614156138b657506012610164565b7f00000000000000000000000000000000000000000000000000000000000000006001600160a01b0316826001600160a01b031614156138f857506013610164565b7f00000000000000000000000000000000000000000000000000000000000000006001600160a01b0316826001600160a01b0316141561393a57506014610164565b7f00000000000000000000000000000000000000000000000000000000000000006001600160a01b0316826001600160a01b0316141561397c57506015610164565b7f00000000000000000000000000000000000000000000000000000000000000006001600160a01b0316826001600160a01b031614156139be57506016610164565b7f00000000000000000000000000000000000000000000000000000000000000006001600160a01b0316826001600160a01b03161415613a0057506017610164565b7f00000000000000000000000000000000000000000000000000000000000000006001600160a01b0316826001600160a01b03161415613a4257506018610164565b7f00000000000000000000000000000000000000000000000000000000000000006001600160a01b0316826001600160a01b03161415613a8457506019610164565b7f00000000000000000000000000000000000000000000000000000000000000006001600160a01b0316826001600160a01b03161415613ac65750601a610164565b7f00000000000000000000000000000000000000000000000000000000000000006001600160a01b0316826001600160a01b03161415613b085750601b610164565b7f00000000000000000000000000000000000000000000000000000000000000006001600160a01b0316826001600160a01b03161415613b4a5750601c610164565b7f00000000000000000000000000000000000000000000000000000000000000006001600160a01b0316826001600160a01b031614156133c55750601d610164565b60007f00000000000000000000000000000000000000000000000000000000000000006001600160a01b0316826001600160a01b03161415613bd057506000610164565b7f00000000000000000000000000000000000000000000000000000000000000006001600160a01b0316826001600160a01b03161415613c1257506001610164565b7f00000000000000000000000000000000000000000000000000000000000000006001600160a01b0316826001600160a01b03161415613c5457506002610164565b7f00000000000000000000000000000000000000000000000000000000000000006001600160a01b0316826001600160a01b03161415613c9657506003610164565b7f00000000000000000000000000000000000000000000000000000000000000006001600160a01b0316826001600160a01b03161415613cd857506004610164565b7f00000000000000000000000000000000000000000000000000000000000000006001600160a01b0316826001600160a01b03161415613d1a57506005610164565b7f00000000000000000000000000000000000000000000000000000000000000006001600160a01b0316826001600160a01b03161415613d5c57506006610164565b7f00000000000000000000000000000000000000000000000000000000000000006001600160a01b0316826001600160a01b03161415613d9e57506007610164565b7f00000000000000000000000000000000000000000000000000000000000000006001600160a01b0316826001600160a01b03161415613de057506008610164565b7f00000000000000000000000000000000000000000000000000000000000000006001600160a01b0316826001600160a01b03161415613e2257506009610164565b7f00000000000000000000000000000000000000000000000000000000000000006001600160a01b0316826001600160a01b03161415613e645750600a610164565b7f00000000000000000000000000000000000000000000000000000000000000006001600160a01b0316826001600160a01b03161415613ea65750600b610164565b7f00000000000000000000000000000000000000000000000000000000000000006001600160a01b0316826001600160a01b03161415613ee85750600c610164565b7f00000000000000000000000000000000000000000000000000000000000000006001600160a01b0316826001600160a01b03161415613f2a5750600d610164565b7f00000000000000000000000000000000000000000000000000000000000000006001600160a01b0316826001600160a01b03161415613f6c5750600e610164565b7f00000000000000000000000000000000000000000000000000000000000000006001600160a01b0316826001600160a01b03161415613fae5750600f610164565b7f00000000000000000000000000000000000000000000000000000000000000006001600160a01b0316826001600160a01b03161415613ff057506010610164565b7f00000000000000000000000000000000000000000000000000000000000000006001600160a01b0316826001600160a01b0316141561403257506011610164565b7f00000000000000000000000000000000000000000000000000000000000000006001600160a01b0316826001600160a01b0316141561407457506012610164565b7f00000000000000000000000000000000000000000000000000000000000000006001600160a01b0316826001600160a01b031614156140b657506013610164565b7f00000000000000000000000000000000000000000000000000000000000000006001600160a01b0316826001600160a01b031614156140f857506014610164565b7f00000000000000000000000000000000000000000000000000000000000000006001600160a01b0316826001600160a01b0316141561413a57506015610164565b7f00000000000000000000000000000000000000000000000000000000000000006001600160a01b0316826001600160a01b0316141561417c57506016610164565b7f00000000000000000000000000000000000000000000000000000000000000006001600160a01b0316826001600160a01b031614156141be57506017610164565b7f00000000000000000000000000000000000000000000000000000000000000006001600160a01b0316826001600160a01b0316141561420057506018610164565b7f00000000000000000000000000000000000000000000000000000000000000006001600160a01b0316826001600160a01b0316141561424257506019610164565b7f00000000000000000000000000000000000000000000000000000000000000006001600160a01b0316826001600160a01b031614156142845750601a610164565b7f00000000000000000000000000000000000000000000000000000000000000006001600160a01b0316826001600160a01b031614156142c65750601b610164565b7f00000000000000000000000000000000000000000000000000000000000000006001600160a01b0316826001600160a01b031614156143085750601c610164565b7f00000000000000000000000000000000000000000000000000000000000000006001600160a01b0316826001600160a01b031614156133c55750601d610164565b60408051610100810182526000808252602082018190529181018290526060810182905290608082019081526000602082018190526040820181905260609091015290565b6000602082840312156143a0578081fd5b8135612e1c8161458d565b6000602082840312156143bc578081fd5b8151612e1c8161458d565b6000602082840312156143d8578081fd5b5035919050565b6000602082840312156143f0578081fd5b813567ffffffffffffffff80821115614407578283fd5b818401915084601f83011261441a578283fd5b813581811115614428578384fd5b604051601f8201601f191681016020018381118282101715614448578586fd5b60405281815283820160200187101561445f578485fd5b614470826020830160208701614581565b9695505050505050565b6001600160a01b03169052565b15159052565b60008251815b818110156144ad5760208186018101518583015201614493565b818111156144bb5782828501525b509190910192915050565b6020808252601690820152751d1bdad95b8818dbdb999a59c81b9bdd08199bdd5b9960521b604082015260600190565b81516001600160a01b03908116825260208084015190911690820152604080830151908201526060808301519082015260808201516101008201906003811061453b57fe5b8060808401525060a083015160a083015260c083015161455e60c084018261447a565b5060e083015161457160e0840182614487565b5092915050565b90815260200190565b82818337506000910152565b6001600160a01b03811681146145a257600080fd5b5056fea26469706673582212204cd953215f068ffd6f73b181c724b0dee65f5b2719b10038fcd9886856278a2264736f6c634300060c0033",
			"opcodes": "PUSH2 0x1EA0 PUSH1 0x40 MSTORE CALLVALUE DUP1 ISZERO PUSH3 0x12 JUMPI PUSH1 0x0 DUP1 REVERT JUMPDEST POP PUSH1 0x40 MLOAD PUSH3 0x71FA CODESIZE SUB DUP1 PUSH3 0x71FA DUP4 CODECOPY DUP2 ADD PUSH1 0x40 DUP2 SWAP1 MSTORE PUSH3 0x35 SWAP2 PUSH3 0x1DFE JUMP JUMPDEST PUSH1 0x1E DUP2 MLOAD GT ISZERO PUSH3 0x63 JUMPI PUSH1 0x40 MLOAD PUSH3 0x461BCD PUSH1 0xE5 SHL DUP2 MSTORE PUSH1 0x4 ADD PUSH3 0x5A SWAP1 PUSH3 0x1EAD JUMP JUMPDEST PUSH1 0x40 MLOAD DUP1 SWAP2 SUB SWAP1 REVERT JUMPDEST DUP1 MLOAD PUSH1 0x80 MSTORE PUSH3 0x75 DUP2 PUSH1 0x0 PUSH3 0x1C6E JUMP JUMPDEST MLOAD PUSH1 0x60 SHL PUSH1 0x1 PUSH1 0x1 PUSH1 0x60 SHL SUB NOT AND PUSH1 0xA0 MSTORE PUSH3 0x93 DUP2 PUSH1 0x1 PUSH3 0x1C6E JUMP JUMPDEST MLOAD PUSH1 0x60 SHL PUSH1 0x1 PUSH1 0x1 PUSH1 0x60 SHL SUB NOT AND PUSH1 0xC0 MSTORE PUSH3 0xB1 DUP2 PUSH1 0x2 PUSH3 0x1C6E JUMP JUMPDEST MLOAD PUSH1 0x60 SHL PUSH1 0x1 PUSH1 0x1 PUSH1 0x60 SHL SUB NOT AND PUSH1 0xE0 MSTORE PUSH3 0xCF DUP2 PUSH1 0x3 PUSH3 0x1C6E JUMP JUMPDEST MLOAD PUSH1 0x60 SHL PUSH1 0x1 PUSH1 0x1 PUSH1 0x60 SHL SUB NOT AND PUSH2 0x100 MSTORE PUSH3 0xEE DUP2 PUSH1 0x4 PUSH3 0x1C6E JUMP JUMPDEST MLOAD PUSH1 0x60 SHL PUSH1 0x1 PUSH1 0x1 PUSH1 0x60 SHL SUB NOT AND PUSH2 0x120 MSTORE PUSH3 0x10D DUP2 PUSH1 0x5 PUSH3 0x1C6E JUMP JUMPDEST MLOAD PUSH1 0x60 SHL PUSH1 0x1 PUSH1 0x1 PUSH1 0x60 SHL SUB NOT AND PUSH2 0x140 MSTORE PUSH3 0x12C DUP2 PUSH1 0x6 PUSH3 0x1C6E JUMP JUMPDEST MLOAD PUSH1 0x60 SHL PUSH1 0x1 PUSH1 0x1 PUSH1 0x60 SHL SUB NOT AND PUSH2 0x160 MSTORE PUSH3 0x14B DUP2 PUSH1 0x7 PUSH3 0x1C6E JUMP JUMPDEST MLOAD PUSH1 0x60 SHL PUSH1 0x1 PUSH1 0x1 PUSH1 0x60 SHL SUB NOT AND PUSH2 0x180 MSTORE PUSH3 0x16A DUP2 PUSH1 0x8 PUSH3 0x1C6E JUMP JUMPDEST MLOAD PUSH1 0x60 SHL PUSH1 0x1 PUSH1 0x1 PUSH1 0x60 SHL SUB NOT AND PUSH2 0x1A0 MSTORE PUSH3 0x189 DUP2 PUSH1 0x9 PUSH3 0x1C6E JUMP JUMPDEST MLOAD PUSH1 0x60 SHL PUSH1 0x1 PUSH1 0x1 PUSH1 0x60 SHL SUB NOT AND PUSH2 0x1C0 MSTORE PUSH3 0x1A8 DUP2 PUSH1 0xA PUSH3 0x1C6E JUMP JUMPDEST MLOAD PUSH1 0x60 SHL PUSH1 0x1 PUSH1 0x1 PUSH1 0x60 SHL SUB NOT AND PUSH2 0x1E0 MSTORE PUSH3 0x1C7 DUP2 PUSH1 0xB PUSH3 0x1C6E JUMP JUMPDEST MLOAD PUSH1 0x60 SHL PUSH1 0x1 PUSH1 0x1 PUSH1 0x60 SHL SUB NOT AND PUSH2 0x200 MSTORE PUSH3 0x1E6 DUP2 PUSH1 0xC PUSH3 0x1C6E JUMP JUMPDEST MLOAD PUSH1 0x60 SHL PUSH1 0x1 PUSH1 0x1 PUSH1 0x60 SHL SUB NOT AND PUSH2 0x220 MSTORE PUSH3 0x205 DUP2 PUSH1 0xD PUSH3 0x1C6E JUMP JUMPDEST MLOAD PUSH1 0x60 SHL PUSH1 0x1 PUSH1 0x1 PUSH1 0x60 SHL SUB NOT AND PUSH2 0x240 MSTORE PUSH3 0x224 DUP2 PUSH1 0xE PUSH3 0x1C6E JUMP JUMPDEST MLOAD PUSH1 0x60 SHL PUSH1 0x1 PUSH1 0x1 PUSH1 0x60 SHL SUB NOT AND PUSH2 0x260 MSTORE PUSH3 0x243 DUP2 PUSH1 0xF PUSH3 0x1C6E JUMP JUMPDEST MLOAD PUSH1 0x60 SHL PUSH1 0x1 PUSH1 0x1 PUSH1 0x60 SHL SUB NOT AND PUSH2 0x280 MSTORE PUSH3 0x262 DUP2 PUSH1 0x10 PUSH3 0x1C6E JUMP JUMPDEST MLOAD PUSH1 0x60 SHL PUSH1 0x1 PUSH1 0x1 PUSH1 0x60 SHL SUB NOT AND PUSH2 0x2A0 MSTORE PUSH3 0x281 DUP2 PUSH1 0x11 PUSH3 0x1C6E JUMP JUMPDEST MLOAD PUSH1 0x60 SHL PUSH1 0x1 PUSH1 0x1 PUSH1 0x60 SHL SUB NOT AND PUSH2 0x2C0 MSTORE PUSH3 0x2A0 DUP2 PUSH1 0x12 PUSH3 0x1C6E JUMP JUMPDEST MLOAD PUSH1 0x60 SHL PUSH1 0x1 PUSH1 0x1 PUSH1 0x60 SHL SUB NOT AND PUSH2 0x2E0 MSTORE PUSH3 0x2BF DUP2 PUSH1 0x13 PUSH3 0x1C6E JUMP JUMPDEST MLOAD PUSH1 0x60 SHL PUSH1 0x1 PUSH1 0x1 PUSH1 0x60 SHL SUB NOT AND PUSH2 0x300 MSTORE PUSH3 0x2DE DUP2 PUSH1 0x14 PUSH3 0x1C6E JUMP JUMPDEST MLOAD PUSH1 0x60 SHL PUSH1 0x1 PUSH1 0x1 PUSH1 0x60 SHL SUB NOT AND PUSH2 0x320 MSTORE PUSH3 0x2FD DUP2 PUSH1 0x15 PUSH3 0x1C6E JUMP JUMPDEST MLOAD PUSH1 0x60 SHL PUSH1 0x1 PUSH1 0x1 PUSH1 0x60 SHL SUB NOT AND PUSH2 0x340 MSTORE PUSH3 0x31C DUP2 PUSH1 0x16 PUSH3 0x1C6E JUMP JUMPDEST MLOAD PUSH1 0x60 SHL PUSH1 0x1 PUSH1 0x1 PUSH1 0x60 SHL SUB NOT AND PUSH2 0x360 MSTORE PUSH3 0x33B DUP2 PUSH1 0x17 PUSH3 0x1C6E JUMP JUMPDEST MLOAD PUSH1 0x60 SHL PUSH1 0x1 PUSH1 0x1 PUSH1 0x60 SHL SUB NOT AND PUSH2 0x380 MSTORE PUSH3 0x35A DUP2 PUSH1 0x18 PUSH3 0x1C6E JUMP JUMPDEST MLOAD PUSH1 0x60 SHL PUSH1 0x1 PUSH1 0x1 PUSH1 0x60 SHL SUB NOT AND PUSH2 0x3A0 MSTORE PUSH3 0x379 DUP2 PUSH1 0x19 PUSH3 0x1C6E JUMP JUMPDEST MLOAD PUSH1 0x60 SHL PUSH1 0x1 PUSH1 0x1 PUSH1 0x60 SHL SUB NOT AND PUSH2 0x3C0 MSTORE PUSH3 0x398 DUP2 PUSH1 0x1A PUSH3 0x1C6E JUMP JUMPDEST MLOAD PUSH1 0x60 SHL PUSH1 0x1 PUSH1 0x1 PUSH1 0x60 SHL SUB NOT AND PUSH2 0x3E0 MSTORE PUSH3 0x3B7 DUP2 PUSH1 0x1B PUSH3 0x1C6E JUMP JUMPDEST MLOAD PUSH1 0x60 SHL PUSH1 0x1 PUSH1 0x1 PUSH1 0x60 SHL SUB NOT AND PUSH2 0x400 MSTORE PUSH3 0x3D6 DUP2 PUSH1 0x1C PUSH3 0x1C6E JUMP JUMPDEST MLOAD PUSH1 0x60 SHL PUSH1 0x1 PUSH1 0x1 PUSH1 0x60 SHL SUB NOT AND PUSH2 0x420 MSTORE PUSH3 0x3F5 DUP2 PUSH1 0x1D PUSH3 0x1C6E JUMP JUMPDEST MLOAD PUSH1 0x60 SHL PUSH1 0x1 PUSH1 0x1 PUSH1 0x60 SHL SUB NOT AND PUSH2 0x440 MSTORE PUSH3 0x414 DUP2 PUSH1 0x0 PUSH3 0x1C6E JUMP JUMPDEST PUSH1 0x20 ADD MLOAD PUSH1 0x60 SHL PUSH1 0x1 PUSH1 0x1 PUSH1 0x60 SHL SUB NOT AND PUSH2 0x460 MSTORE PUSH3 0x436 DUP2 PUSH1 0x1 PUSH3 0x1C6E JUMP JUMPDEST PUSH1 0x20 ADD MLOAD PUSH1 0x60 SHL PUSH1 0x1 PUSH1 0x1 PUSH1 0x60 SHL SUB NOT AND PUSH2 0x480 MSTORE PUSH3 0x458 DUP2 PUSH1 0x2 PUSH3 0x1C6E JUMP JUMPDEST PUSH1 0x20 ADD MLOAD PUSH1 0x60 SHL PUSH1 0x1 PUSH1 0x1 PUSH1 0x60 SHL SUB NOT AND PUSH2 0x4A0 MSTORE PUSH3 0x47A DUP2 PUSH1 0x3 PUSH3 0x1C6E JUMP JUMPDEST PUSH1 0x20 ADD MLOAD PUSH1 0x60 SHL PUSH1 0x1 PUSH1 0x1 PUSH1 0x60 SHL SUB NOT AND PUSH2 0x4C0 MSTORE PUSH3 0x49C DUP2 PUSH1 0x4 PUSH3 0x1C6E JUMP JUMPDEST PUSH1 0x20 ADD MLOAD PUSH1 0x60 SHL PUSH1 0x1 PUSH1 0x1 PUSH1 0x60 SHL SUB NOT AND PUSH2 0x4E0 MSTORE PUSH3 0x4BE DUP2 PUSH1 0x5 PUSH3 0x1C6E JUMP JUMPDEST PUSH1 0x20 ADD MLOAD PUSH1 0x60 SHL PUSH1 0x1 PUSH1 0x1 PUSH1 0x60 SHL SUB NOT AND PUSH2 0x500 MSTORE PUSH3 0x4E0 DUP2 PUSH1 0x6 PUSH3 0x1C6E JUMP JUMPDEST PUSH1 0x20 ADD MLOAD PUSH1 0x60 SHL PUSH1 0x1 PUSH1 0x1 PUSH1 0x60 SHL SUB NOT AND PUSH2 0x520 MSTORE PUSH3 0x502 DUP2 PUSH1 0x7 PUSH3 0x1C6E JUMP JUMPDEST PUSH1 0x20 ADD MLOAD PUSH1 0x60 SHL PUSH1 0x1 PUSH1 0x1 PUSH1 0x60 SHL SUB NOT AND PUSH2 0x540 MSTORE PUSH3 0x524 DUP2 PUSH1 0x8 PUSH3 0x1C6E JUMP JUMPDEST PUSH1 0x20 ADD MLOAD PUSH1 0x60 SHL PUSH1 0x1 PUSH1 0x1 PUSH1 0x60 SHL SUB NOT AND PUSH2 0x560 MSTORE PUSH3 0x546 DUP2 PUSH1 0x9 PUSH3 0x1C6E JUMP JUMPDEST PUSH1 0x20 ADD MLOAD PUSH1 0x60 SHL PUSH1 0x1 PUSH1 0x1 PUSH1 0x60 SHL SUB NOT AND PUSH2 0x580 MSTORE PUSH3 0x568 DUP2 PUSH1 0xA PUSH3 0x1C6E JUMP JUMPDEST PUSH1 0x20 ADD MLOAD PUSH1 0x60 SHL PUSH1 0x1 PUSH1 0x1 PUSH1 0x60 SHL SUB NOT AND PUSH2 0x5A0 MSTORE PUSH3 0x58A DUP2 PUSH1 0xB PUSH3 0x1C6E JUMP JUMPDEST PUSH1 0x20 ADD MLOAD PUSH1 0x60 SHL PUSH1 0x1 PUSH1 0x1 PUSH1 0x60 SHL SUB NOT AND PUSH2 0x5C0 MSTORE PUSH3 0x5AC DUP2 PUSH1 0xC PUSH3 0x1C6E JUMP JUMPDEST PUSH1 0x20 ADD MLOAD PUSH1 0x60 SHL PUSH1 0x1 PUSH1 0x1 PUSH1 0x60 SHL SUB NOT AND PUSH2 0x5E0 MSTORE PUSH3 0x5CE DUP2 PUSH1 0xD PUSH3 0x1C6E JUMP JUMPDEST PUSH1 0x20 ADD MLOAD PUSH1 0x60 SHL PUSH1 0x1 PUSH1 0x1 PUSH1 0x60 SHL SUB NOT AND PUSH2 0x600 MSTORE PUSH3 0x5F0 DUP2 PUSH1 0xE PUSH3 0x1C6E JUMP JUMPDEST PUSH1 0x20 ADD MLOAD PUSH1 0x60 SHL PUSH1 0x1 PUSH1 0x1 PUSH1 0x60 SHL SUB NOT AND PUSH2 0x620 MSTORE PUSH3 0x612 DUP2 PUSH1 0xF PUSH3 0x1C6E JUMP JUMPDEST PUSH1 0x20 ADD MLOAD PUSH1 0x60 SHL PUSH1 0x1 PUSH1 0x1 PUSH1 0x60 SHL SUB NOT AND PUSH2 0x640 MSTORE PUSH3 0x634 DUP2 PUSH1 0x10 PUSH3 0x1C6E JUMP JUMPDEST PUSH1 0x20 ADD MLOAD PUSH1 0x60 SHL PUSH1 0x1 PUSH1 0x1 PUSH1 0x60 SHL SUB NOT AND PUSH2 0x660 MSTORE PUSH3 0x656 DUP2 PUSH1 0x11 PUSH3 0x1C6E JUMP JUMPDEST PUSH1 0x20 ADD MLOAD PUSH1 0x60 SHL PUSH1 0x1 PUSH1 0x1 PUSH1 0x60 SHL SUB NOT AND PUSH2 0x680 MSTORE PUSH3 0x678 DUP2 PUSH1 0x12 PUSH3 0x1C6E JUMP JUMPDEST PUSH1 0x20 ADD MLOAD PUSH1 0x60 SHL PUSH1 0x1 PUSH1 0x1 PUSH1 0x60 SHL SUB NOT AND PUSH2 0x6A0 MSTORE PUSH3 0x69A DUP2 PUSH1 0x13 PUSH3 0x1C6E JUMP JUMPDEST PUSH1 0x20 ADD MLOAD PUSH1 0x60 SHL PUSH1 0x1 PUSH1 0x1 PUSH1 0x60 SHL SUB NOT AND PUSH2 0x6C0 MSTORE PUSH3 0x6BC DUP2 PUSH1 0x14 PUSH3 0x1C6E JUMP JUMPDEST PUSH1 0x20 ADD MLOAD PUSH1 0x60 SHL PUSH1 0x1 PUSH1 0x1 PUSH1 0x60 SHL SUB NOT AND PUSH2 0x6E0 MSTORE PUSH3 0x6DE DUP2 PUSH1 0x15 PUSH3 0x1C6E JUMP JUMPDEST PUSH1 0x20 ADD MLOAD PUSH1 0x60 SHL PUSH1 0x1 PUSH1 0x1 PUSH1 0x60 SHL SUB NOT AND PUSH2 0x700 MSTORE PUSH3 0x700 DUP2 PUSH1 0x16 PUSH3 0x1C6E JUMP JUMPDEST PUSH1 0x20 ADD MLOAD PUSH1 0x60 SHL PUSH1 0x1 PUSH1 0x1 PUSH1 0x60 SHL SUB NOT AND PUSH2 0x720 MSTORE PUSH3 0x722 DUP2 PUSH1 0x17 PUSH3 0x1C6E JUMP JUMPDEST PUSH1 0x20 ADD MLOAD PUSH1 0x60 SHL PUSH1 0x1 PUSH1 0x1 PUSH1 0x60 SHL SUB NOT AND PUSH2 0x740 MSTORE PUSH3 0x744 DUP2 PUSH1 0x18 PUSH3 0x1C6E JUMP JUMPDEST PUSH1 0x20 ADD MLOAD PUSH1 0x60 SHL PUSH1 0x1 PUSH1 0x1 PUSH1 0x60 SHL SUB NOT AND PUSH2 0x760 MSTORE PUSH3 0x766 DUP2 PUSH1 0x19 PUSH3 0x1C6E JUMP JUMPDEST PUSH1 0x20 ADD MLOAD PUSH1 0x60 SHL PUSH1 0x1 PUSH1 0x1 PUSH1 0x60 SHL SUB NOT AND PUSH2 0x780 MSTORE PUSH3 0x788 DUP2 PUSH1 0x1A PUSH3 0x1C6E JUMP JUMPDEST PUSH1 0x20 ADD MLOAD PUSH1 0x60 SHL PUSH1 0x1 PUSH1 0x1 PUSH1 0x60 SHL SUB NOT AND PUSH2 0x7A0 MSTORE PUSH3 0x7AA DUP2 PUSH1 0x1B PUSH3 0x1C6E JUMP JUMPDEST PUSH1 0x20 ADD MLOAD PUSH1 0x60 SHL PUSH1 0x1 PUSH1 0x1 PUSH1 0x60 SHL SUB NOT AND PUSH2 0x7C0 MSTORE PUSH3 0x7CC DUP2 PUSH1 0x1C PUSH3 0x1C6E JUMP JUMPDEST PUSH1 0x20 ADD MLOAD PUSH1 0x60 SHL PUSH1 0x1 PUSH1 0x1 PUSH1 0x60 SHL SUB NOT AND PUSH2 0x7E0 MSTORE PUSH3 0x7EE DUP2 PUSH1 0x1D PUSH3 0x1C6E JUMP JUMPDEST PUSH1 0x20 ADD MLOAD PUSH1 0x60 SHL PUSH1 0x1 PUSH1 0x1 PUSH1 0x60 SHL SUB NOT AND PUSH2 0x800 MSTORE PUSH3 0x810 DUP2 PUSH1 0x0 PUSH3 0x1C6E JUMP JUMPDEST PUSH1 0x40 ADD MLOAD PUSH2 0x820 MSTORE PUSH3 0x825 DUP2 PUSH1 0x1 PUSH3 0x1C6E JUMP JUMPDEST PUSH1 0x40 ADD MLOAD PUSH2 0x840 MSTORE PUSH3 0x83A DUP2 PUSH1 0x2 PUSH3 0x1C6E JUMP JUMPDEST PUSH1 0x40 ADD MLOAD PUSH2 0x860 MSTORE PUSH3 0x84F DUP2 PUSH1 0x3 PUSH3 0x1C6E JUMP JUMPDEST PUSH1 0x40 ADD MLOAD PUSH2 0x880 MSTORE PUSH3 0x864 DUP2 PUSH1 0x4 PUSH3 0x1C6E JUMP JUMPDEST PUSH1 0x40 ADD MLOAD PUSH2 0x8A0 MSTORE PUSH3 0x879 DUP2 PUSH1 0x5 PUSH3 0x1C6E JUMP JUMPDEST PUSH1 0x40 ADD MLOAD PUSH2 0x8C0 MSTORE PUSH3 0x88E DUP2 PUSH1 0x6 PUSH3 0x1C6E JUMP JUMPDEST PUSH1 0x40 ADD MLOAD PUSH2 0x8E0 MSTORE PUSH3 0x8A3 DUP2 PUSH1 0x7 PUSH3 0x1C6E JUMP JUMPDEST PUSH1 0x40 ADD MLOAD PUSH2 0x900 MSTORE PUSH3 0x8B8 DUP2 PUSH1 0x8 PUSH3 0x1C6E JUMP JUMPDEST PUSH1 0x40 ADD MLOAD PUSH2 0x920 MSTORE PUSH3 0x8CD DUP2 PUSH1 0x9 PUSH3 0x1C6E JUMP JUMPDEST PUSH1 0x40 ADD MLOAD PUSH2 0x940 MSTORE PUSH3 0x8E2 DUP2 PUSH1 0xA PUSH3 0x1C6E JUMP JUMPDEST PUSH1 0x40 ADD MLOAD PUSH2 0x960 MSTORE PUSH3 0x8F7 DUP2 PUSH1 0xB PUSH3 0x1C6E JUMP JUMPDEST PUSH1 0x40 ADD MLOAD PUSH2 0x980 MSTORE PUSH3 0x90C DUP2 PUSH1 0xC PUSH3 0x1C6E JUMP JUMPDEST PUSH1 0x40 ADD MLOAD PUSH2 0x9A0 MSTORE PUSH3 0x921 DUP2 PUSH1 0xD PUSH3 0x1C6E JUMP JUMPDEST PUSH1 0x40 ADD MLOAD PUSH2 0x9C0 MSTORE PUSH3 0x936 DUP2 PUSH1 0xE PUSH3 0x1C6E JUMP JUMPDEST PUSH1 0x40 ADD MLOAD PUSH2 0x9E0 MSTORE PUSH3 0x94B DUP2 PUSH1 0xF PUSH3 0x1C6E JUMP JUMPDEST PUSH1 0x40 ADD MLOAD PUSH2 0xA00 MSTORE PUSH3 0x960 DUP2 PUSH1 0x10 PUSH3 0x1C6E JUMP JUMPDEST PUSH1 0x40 ADD MLOAD PUSH2 0xA20 MSTORE PUSH3 0x975 DUP2 PUSH1 0x11 PUSH3 0x1C6E JUMP JUMPDEST PUSH1 0x40 ADD MLOAD PUSH2 0xA40 MSTORE PUSH3 0x98A DUP2 PUSH1 0x12 PUSH3 0x1C6E JUMP JUMPDEST PUSH1 0x40 ADD MLOAD PUSH2 0xA60 MSTORE PUSH3 0x99F DUP2 PUSH1 0x13 PUSH3 0x1C6E JUMP JUMPDEST PUSH1 0x40 ADD MLOAD PUSH2 0xA80 MSTORE PUSH3 0x9B4 DUP2 PUSH1 0x14 PUSH3 0x1C6E JUMP JUMPDEST PUSH1 0x40 ADD MLOAD PUSH2 0xAA0 MSTORE PUSH3 0x9C9 DUP2 PUSH1 0x15 PUSH3 0x1C6E JUMP JUMPDEST PUSH1 0x40 ADD MLOAD PUSH2 0xAC0 MSTORE PUSH3 0x9DE DUP2 PUSH1 0x16 PUSH3 0x1C6E JUMP JUMPDEST PUSH1 0x40 ADD MLOAD PUSH2 0xAE0 MSTORE PUSH3 0x9F3 DUP2 PUSH1 0x17 PUSH3 0x1C6E JUMP JUMPDEST PUSH1 0x40 ADD MLOAD PUSH2 0xB00 MSTORE PUSH3 0xA08 DUP2 PUSH1 0x18 PUSH3 0x1C6E JUMP JUMPDEST PUSH1 0x40 ADD MLOAD PUSH2 0xB20 MSTORE PUSH3 0xA1D DUP2 PUSH1 0x19 PUSH3 0x1C6E JUMP JUMPDEST PUSH1 0x40 ADD MLOAD PUSH2 0xB40 MSTORE PUSH3 0xA32 DUP2 PUSH1 0x1A PUSH3 0x1C6E JUMP JUMPDEST PUSH1 0x40 ADD MLOAD PUSH2 0xB60 MSTORE PUSH3 0xA47 DUP2 PUSH1 0x1B PUSH3 0x1C6E JUMP JUMPDEST PUSH1 0x40 ADD MLOAD PUSH2 0xB80 MSTORE PUSH3 0xA5C DUP2 PUSH1 0x1C PUSH3 0x1C6E JUMP JUMPDEST PUSH1 0x40 ADD MLOAD PUSH2 0xBA0 MSTORE PUSH3 0xA71 DUP2 PUSH1 0x1D PUSH3 0x1C6E JUMP JUMPDEST PUSH1 0x40 ADD MLOAD PUSH2 0xBC0 MSTORE PUSH3 0xA86 DUP2 PUSH1 0x0 PUSH3 0x1C6E JUMP JUMPDEST PUSH1 0x60 ADD MLOAD PUSH2 0xBE0 MSTORE PUSH3 0xA9B DUP2 PUSH1 0x1 PUSH3 0x1C6E JUMP JUMPDEST PUSH1 0x60 ADD MLOAD PUSH2 0xC00 MSTORE PUSH3 0xAB0 DUP2 PUSH1 0x2 PUSH3 0x1C6E JUMP JUMPDEST PUSH1 0x60 ADD MLOAD PUSH2 0xC20 MSTORE PUSH3 0xAC5 DUP2 PUSH1 0x3 PUSH3 0x1C6E JUMP JUMPDEST PUSH1 0x60 ADD MLOAD PUSH2 0xC40 MSTORE PUSH3 0xADA DUP2 PUSH1 0x4 PUSH3 0x1C6E JUMP JUMPDEST PUSH1 0x60 ADD MLOAD PUSH2 0xC60 MSTORE PUSH3 0xAEF DUP2 PUSH1 0x5 PUSH3 0x1C6E JUMP JUMPDEST PUSH1 0x60 ADD MLOAD PUSH2 0xC80 MSTORE PUSH3 0xB04 DUP2 PUSH1 0x6 PUSH3 0x1C6E JUMP JUMPDEST PUSH1 0x60 ADD MLOAD PUSH2 0xCA0 MSTORE PUSH3 0xB19 DUP2 PUSH1 0x7 PUSH3 0x1C6E JUMP JUMPDEST PUSH1 0x60 ADD MLOAD PUSH2 0xCC0 MSTORE PUSH3 0xB2E DUP2 PUSH1 0x8 PUSH3 0x1C6E JUMP JUMPDEST PUSH1 0x60 ADD MLOAD PUSH2 0xCE0 MSTORE PUSH3 0xB43 DUP2 PUSH1 0x9 PUSH3 0x1C6E JUMP JUMPDEST PUSH1 0x60 ADD MLOAD PUSH2 0xD00 MSTORE PUSH3 0xB58 DUP2 PUSH1 0xA PUSH3 0x1C6E JUMP JUMPDEST PUSH1 0x60 ADD MLOAD PUSH2 0xD20 MSTORE PUSH3 0xB6D DUP2 PUSH1 0xB PUSH3 0x1C6E JUMP JUMPDEST PUSH1 0x60 ADD MLOAD PUSH2 0xD40 MSTORE PUSH3 0xB82 DUP2 PUSH1 0xC PUSH3 0x1C6E JUMP JUMPDEST PUSH1 0x60 ADD MLOAD PUSH2 0xD60 MSTORE PUSH3 0xB97 DUP2 PUSH1 0xD PUSH3 0x1C6E JUMP JUMPDEST PUSH1 0x60 ADD MLOAD PUSH2 0xD80 MSTORE PUSH3 0xBAC DUP2 PUSH1 0xE PUSH3 0x1C6E JUMP JUMPDEST PUSH1 0x60 ADD MLOAD PUSH2 0xDA0 MSTORE PUSH3 0xBC1 DUP2 PUSH1 0xF PUSH3 0x1C6E JUMP JUMPDEST PUSH1 0x60 ADD MLOAD PUSH2 0xDC0 MSTORE PUSH3 0xBD6 DUP2 PUSH1 0x10 PUSH3 0x1C6E JUMP JUMPDEST PUSH1 0x60 ADD MLOAD PUSH2 0xDE0 MSTORE PUSH3 0xBEB DUP2 PUSH1 0x11 PUSH3 0x1C6E JUMP JUMPDEST PUSH1 0x60 ADD MLOAD PUSH2 0xE00 MSTORE PUSH3 0xC00 DUP2 PUSH1 0x12 PUSH3 0x1C6E JUMP JUMPDEST PUSH1 0x60 ADD MLOAD PUSH2 0xE20 MSTORE PUSH3 0xC15 DUP2 PUSH1 0x13 PUSH3 0x1C6E JUMP JUMPDEST PUSH1 0x60 ADD MLOAD PUSH2 0xE40 MSTORE PUSH3 0xC2A DUP2 PUSH1 0x14 PUSH3 0x1C6E JUMP JUMPDEST PUSH1 0x60 ADD MLOAD PUSH2 0xE60 MSTORE PUSH3 0xC3F DUP2 PUSH1 0x15 PUSH3 0x1C6E JUMP JUMPDEST PUSH1 0x60 ADD MLOAD PUSH2 0xE80 MSTORE PUSH3 0xC54 DUP2 PUSH1 0x16 PUSH3 0x1C6E JUMP JUMPDEST PUSH1 0x60 ADD MLOAD PUSH2 0xEA0 MSTORE PUSH3 0xC69 DUP2 PUSH1 0x17 PUSH3 0x1C6E JUMP JUMPDEST PUSH1 0x60 ADD MLOAD PUSH2 0xEC0 MSTORE PUSH3 0xC7E DUP2 PUSH1 0x18 PUSH3 0x1C6E JUMP JUMPDEST PUSH1 0x60 ADD MLOAD PUSH2 0xEE0 MSTORE PUSH3 0xC93 DUP2 PUSH1 0x19 PUSH3 0x1C6E JUMP JUMPDEST PUSH1 0x60 ADD MLOAD PUSH2 0xF00 MSTORE PUSH3 0xCA8 DUP2 PUSH1 0x1A PUSH3 0x1C6E JUMP JUMPDEST PUSH1 0x60 ADD MLOAD PUSH2 0xF20 MSTORE PUSH3 0xCBD DUP2 PUSH1 0x1B PUSH3 0x1C6E JUMP JUMPDEST PUSH1 0x60 ADD MLOAD PUSH2 0xF40 MSTORE PUSH3 0xCD2 DUP2 PUSH1 0x1C PUSH3 0x1C6E JUMP JUMPDEST PUSH1 0x60 ADD MLOAD PUSH2 0xF60 MSTORE PUSH3 0xCE7 DUP2 PUSH1 0x1D PUSH3 0x1C6E JUMP JUMPDEST PUSH1 0x60 ADD MLOAD PUSH2 0xF80 MSTORE PUSH3 0xCFC DUP2 PUSH1 0x0 PUSH3 0x1C6E JUMP JUMPDEST PUSH1 0x80 ADD MLOAD PUSH1 0x2 DUP2 GT ISZERO PUSH3 0xD0C JUMPI INVALID JUMPDEST PUSH2 0xFA0 DUP2 PUSH1 0x2 DUP2 GT ISZERO PUSH3 0xD1C JUMPI INVALID JUMPDEST PUSH1 0xF8 SHL SWAP1 MSTORE POP PUSH3 0xD2F DUP2 PUSH1 0x1 PUSH3 0x1C6E JUMP JUMPDEST PUSH1 0x80 ADD MLOAD PUSH1 0x2 DUP2 GT ISZERO PUSH3 0xD3F JUMPI INVALID JUMPDEST PUSH2 0xFC0 DUP2 PUSH1 0x2 DUP2 GT ISZERO PUSH3 0xD4F JUMPI INVALID JUMPDEST PUSH1 0xF8 SHL SWAP1 MSTORE POP PUSH3 0xD62 DUP2 PUSH1 0x2 PUSH3 0x1C6E JUMP JUMPDEST PUSH1 0x80 ADD MLOAD PUSH1 0x2 DUP2 GT ISZERO PUSH3 0xD72 JUMPI INVALID JUMPDEST PUSH2 0xFE0 DUP2 PUSH1 0x2 DUP2 GT ISZERO PUSH3 0xD82 JUMPI INVALID JUMPDEST PUSH1 0xF8 SHL SWAP1 MSTORE POP PUSH3 0xD95 DUP2 PUSH1 0x3 PUSH3 0x1C6E JUMP JUMPDEST PUSH1 0x80 ADD MLOAD PUSH1 0x2 DUP2 GT ISZERO PUSH3 0xDA5 JUMPI INVALID JUMPDEST PUSH2 0x1000 DUP2 PUSH1 0x2 DUP2 GT ISZERO PUSH3 0xDB5 JUMPI INVALID JUMPDEST PUSH1 0xF8 SHL SWAP1 MSTORE POP PUSH3 0xDC8 DUP2 PUSH1 0x4 PUSH3 0x1C6E JUMP JUMPDEST PUSH1 0x80 ADD MLOAD PUSH1 0x2 DUP2 GT ISZERO PUSH3 0xDD8 JUMPI INVALID JUMPDEST PUSH2 0x1020 DUP2 PUSH1 0x2 DUP2 GT ISZERO PUSH3 0xDE8 JUMPI INVALID JUMPDEST PUSH1 0xF8 SHL SWAP1 MSTORE POP PUSH3 0xDFB DUP2 PUSH1 0x5 PUSH3 0x1C6E JUMP JUMPDEST PUSH1 0x80 ADD MLOAD PUSH1 0x2 DUP2 GT ISZERO PUSH3 0xE0B JUMPI INVALID JUMPDEST PUSH2 0x1040 DUP2 PUSH1 0x2 DUP2 GT ISZERO PUSH3 0xE1B JUMPI INVALID JUMPDEST PUSH1 0xF8 SHL SWAP1 MSTORE POP PUSH3 0xE2E DUP2 PUSH1 0x6 PUSH3 0x1C6E JUMP JUMPDEST PUSH1 0x80 ADD MLOAD PUSH1 0x2 DUP2 GT ISZERO PUSH3 0xE3E JUMPI INVALID JUMPDEST PUSH2 0x1060 DUP2 PUSH1 0x2 DUP2 GT ISZERO PUSH3 0xE4E JUMPI INVALID JUMPDEST PUSH1 0xF8 SHL SWAP1 MSTORE POP PUSH3 0xE61 DUP2 PUSH1 0x7 PUSH3 0x1C6E JUMP JUMPDEST PUSH1 0x80 ADD MLOAD PUSH1 0x2 DUP2 GT ISZERO PUSH3 0xE71 JUMPI INVALID JUMPDEST PUSH2 0x1080 DUP2 PUSH1 0x2 DUP2 GT ISZERO PUSH3 0xE81 JUMPI INVALID JUMPDEST PUSH1 0xF8 SHL SWAP1 MSTORE POP PUSH3 0xE94 DUP2 PUSH1 0x8 PUSH3 0x1C6E JUMP JUMPDEST PUSH1 0x80 ADD MLOAD PUSH1 0x2 DUP2 GT ISZERO PUSH3 0xEA4 JUMPI INVALID JUMPDEST PUSH2 0x10A0 DUP2 PUSH1 0x2 DUP2 GT ISZERO PUSH3 0xEB4 JUMPI INVALID JUMPDEST PUSH1 0xF8 SHL SWAP1 MSTORE POP PUSH3 0xEC7 DUP2 PUSH1 0x9 PUSH3 0x1C6E JUMP JUMPDEST PUSH1 0x80 ADD MLOAD PUSH1 0x2 DUP2 GT ISZERO PUSH3 0xED7 JUMPI INVALID JUMPDEST PUSH2 0x10C0 DUP2 PUSH1 0x2 DUP2 GT ISZERO PUSH3 0xEE7 JUMPI INVALID JUMPDEST PUSH1 0xF8 SHL SWAP1 MSTORE POP PUSH3 0xEFA DUP2 PUSH1 0xA PUSH3 0x1C6E JUMP JUMPDEST PUSH1 0x80 ADD MLOAD PUSH1 0x2 DUP2 GT ISZERO PUSH3 0xF0A JUMPI INVALID JUMPDEST PUSH2 0x10E0 DUP2 PUSH1 0x2 DUP2 GT ISZERO PUSH3 0xF1A JUMPI INVALID JUMPDEST PUSH1 0xF8 SHL SWAP1 MSTORE POP PUSH3 0xF2D DUP2 PUSH1 0xB PUSH3 0x1C6E JUMP JUMPDEST PUSH1 0x80 ADD MLOAD PUSH1 0x2 DUP2 GT ISZERO PUSH3 0xF3D JUMPI INVALID JUMPDEST PUSH2 0x1100 DUP2 PUSH1 0x2 DUP2 GT ISZERO PUSH3 0xF4D JUMPI INVALID JUMPDEST PUSH1 0xF8 SHL SWAP1 MSTORE POP PUSH3 0xF60 DUP2 PUSH1 0xC PUSH3 0x1C6E JUMP JUMPDEST PUSH1 0x80 ADD MLOAD PUSH1 0x2 DUP2 GT ISZERO PUSH3 0xF70 JUMPI INVALID JUMPDEST PUSH2 0x1120 DUP2 PUSH1 0x2 DUP2 GT ISZERO PUSH3 0xF80 JUMPI INVALID JUMPDEST PUSH1 0xF8 SHL SWAP1 MSTORE POP PUSH3 0xF93 DUP2 PUSH1 0xD PUSH3 0x1C6E JUMP JUMPDEST PUSH1 0x80 ADD MLOAD PUSH1 0x2 DUP2 GT ISZERO PUSH3 0xFA3 JUMPI INVALID JUMPDEST PUSH2 0x1140 DUP2 PUSH1 0x2 DUP2 GT ISZERO PUSH3 0xFB3 JUMPI INVALID JUMPDEST PUSH1 0xF8 SHL SWAP1 MSTORE POP PUSH3 0xFC6 DUP2 PUSH1 0xE PUSH3 0x1C6E JUMP JUMPDEST PUSH1 0x80 ADD MLOAD PUSH1 0x2 DUP2 GT ISZERO PUSH3 0xFD6 JUMPI INVALID JUMPDEST PUSH2 0x1160 DUP2 PUSH1 0x2 DUP2 GT ISZERO PUSH3 0xFE6 JUMPI INVALID JUMPDEST PUSH1 0xF8 SHL SWAP1 MSTORE POP PUSH3 0xFF9 DUP2 PUSH1 0xF PUSH3 0x1C6E JUMP JUMPDEST PUSH1 0x80 ADD MLOAD PUSH1 0x2 DUP2 GT ISZERO PUSH3 0x1009 JUMPI INVALID JUMPDEST PUSH2 0x1180 DUP2 PUSH1 0x2 DUP2 GT ISZERO PUSH3 0x1019 JUMPI INVALID JUMPDEST PUSH1 0xF8 SHL SWAP1 MSTORE POP PUSH3 0x102C DUP2 PUSH1 0x10 PUSH3 0x1C6E JUMP JUMPDEST PUSH1 0x80 ADD MLOAD PUSH1 0x2 DUP2 GT ISZERO PUSH3 0x103C JUMPI INVALID JUMPDEST PUSH2 0x11A0 DUP2 PUSH1 0x2 DUP2 GT ISZERO PUSH3 0x104C JUMPI INVALID JUMPDEST PUSH1 0xF8 SHL SWAP1 MSTORE POP PUSH3 0x105F DUP2 PUSH1 0x11 PUSH3 0x1C6E JUMP JUMPDEST PUSH1 0x80 ADD MLOAD PUSH1 0x2 DUP2 GT ISZERO PUSH3 0x106F JUMPI INVALID JUMPDEST PUSH2 0x11C0 DUP2 PUSH1 0x2 DUP2 GT ISZERO PUSH3 0x107F JUMPI INVALID JUMPDEST PUSH1 0xF8 SHL SWAP1 MSTORE POP PUSH3 0x1092 DUP2 PUSH1 0x12 PUSH3 0x1C6E JUMP JUMPDEST PUSH1 0x80 ADD MLOAD PUSH1 0x2 DUP2 GT ISZERO PUSH3 0x10A2 JUMPI INVALID JUMPDEST PUSH2 0x11E0 DUP2 PUSH1 0x2 DUP2 GT ISZERO PUSH3 0x10B2 JUMPI INVALID JUMPDEST PUSH1 0xF8 SHL SWAP1 MSTORE POP PUSH3 0x10C5 DUP2 PUSH1 0x13 PUSH3 0x1C6E JUMP JUMPDEST PUSH1 0x80 ADD MLOAD PUSH1 0x2 DUP2 GT ISZERO PUSH3 0x10D5 JUMPI INVALID JUMPDEST PUSH2 0x1200 DUP2 PUSH1 0x2 DUP2 GT ISZERO PUSH3 0x10E5 JUMPI INVALID JUMPDEST PUSH1 0xF8 SHL SWAP1 MSTORE POP PUSH3 0x10F8 DUP2 PUSH1 0x14 PUSH3 0x1C6E JUMP JUMPDEST PUSH1 0x80 ADD MLOAD PUSH1 0x2 DUP2 GT ISZERO PUSH3 0x1108 JUMPI INVALID JUMPDEST PUSH2 0x1220 DUP2 PUSH1 0x2 DUP2 GT ISZERO PUSH3 0x1118 JUMPI INVALID JUMPDEST PUSH1 0xF8 SHL SWAP1 MSTORE POP PUSH3 0x112B DUP2 PUSH1 0x15 PUSH3 0x1C6E JUMP JUMPDEST PUSH1 0x80 ADD MLOAD PUSH1 0x2 DUP2 GT ISZERO PUSH3 0x113B JUMPI INVALID JUMPDEST PUSH2 0x1240 DUP2 PUSH1 0x2 DUP2 GT ISZERO PUSH3 0x114B JUMPI INVALID JUMPDEST PUSH1 0xF8 SHL SWAP1 MSTORE POP PUSH3 0x115E DUP2 PUSH1 0x16 PUSH3 0x1C6E JUMP JUMPDEST PUSH1 0x80 ADD MLOAD PUSH1 0x2 DUP2 GT ISZERO PUSH3 0x116E JUMPI INVALID JUMPDEST PUSH2 0x1260 DUP2 PUSH1 0x2 DUP2 GT ISZERO PUSH3 0x117E JUMPI INVALID JUMPDEST PUSH1 0xF8 SHL SWAP1 MSTORE POP PUSH3 0x1191 DUP2 PUSH1 0x17 PUSH3 0x1C6E JUMP JUMPDEST PUSH1 0x80 ADD MLOAD PUSH1 0x2 DUP2 GT ISZERO PUSH3 0x11A1 JUMPI INVALID JUMPDEST PUSH2 0x1280 DUP2 PUSH1 0x2 DUP2 GT ISZERO PUSH3 0x11B1 JUMPI INVALID JUMPDEST PUSH1 0xF8 SHL SWAP1 MSTORE POP PUSH3 0x11C4 DUP2 PUSH1 0x18 PUSH3 0x1C6E JUMP JUMPDEST PUSH1 0x80 ADD MLOAD PUSH1 0x2 DUP2 GT ISZERO PUSH3 0x11D4 JUMPI INVALID JUMPDEST PUSH2 0x12A0 DUP2 PUSH1 0x2 DUP2 GT ISZERO PUSH3 0x11E4 JUMPI INVALID JUMPDEST PUSH1 0xF8 SHL SWAP1 MSTORE POP PUSH3 0x11F7 DUP2 PUSH1 0x19 PUSH3 0x1C6E JUMP JUMPDEST PUSH1 0x80 ADD MLOAD PUSH1 0x2 DUP2 GT ISZERO PUSH3 0x1207 JUMPI INVALID JUMPDEST PUSH2 0x12C0 DUP2 PUSH1 0x2 DUP2 GT ISZERO PUSH3 0x1217 JUMPI INVALID JUMPDEST PUSH1 0xF8 SHL SWAP1 MSTORE POP PUSH3 0x122A DUP2 PUSH1 0x1A PUSH3 0x1C6E JUMP JUMPDEST PUSH1 0x80 ADD MLOAD PUSH1 0x2 DUP2 GT ISZERO PUSH3 0x123A JUMPI INVALID JUMPDEST PUSH2 0x12E0 DUP2 PUSH1 0x2 DUP2 GT ISZERO PUSH3 0x124A JUMPI INVALID JUMPDEST PUSH1 0xF8 SHL SWAP1 MSTORE POP PUSH3 0x125D DUP2 PUSH1 0x1B PUSH3 0x1C6E JUMP JUMPDEST PUSH1 0x80 ADD MLOAD PUSH1 0x2 DUP2 GT ISZERO PUSH3 0x126D JUMPI INVALID JUMPDEST PUSH2 0x1300 DUP2 PUSH1 0x2 DUP2 GT ISZERO PUSH3 0x127D JUMPI INVALID JUMPDEST PUSH1 0xF8 SHL SWAP1 MSTORE POP PUSH3 0x1290 DUP2 PUSH1 0x1C PUSH3 0x1C6E JUMP JUMPDEST PUSH1 0x80 ADD MLOAD PUSH1 0x2 DUP2 GT ISZERO PUSH3 0x12A0 JUMPI INVALID JUMPDEST PUSH2 0x1320 DUP2 PUSH1 0x2 DUP2 GT ISZERO PUSH3 0x12B0 JUMPI INVALID JUMPDEST PUSH1 0xF8 SHL SWAP1 MSTORE POP PUSH3 0x12C3 DUP2 PUSH1 0x1D PUSH3 0x1C6E JUMP JUMPDEST PUSH1 0x80 ADD MLOAD PUSH1 0x2 DUP2 GT ISZERO PUSH3 0x12D3 JUMPI INVALID JUMPDEST PUSH2 0x1340 DUP2 PUSH1 0x2 DUP2 GT ISZERO PUSH3 0x12E3 JUMPI INVALID JUMPDEST PUSH1 0xF8 SHL SWAP1 MSTORE POP PUSH3 0x12F6 DUP2 PUSH1 0x0 PUSH3 0x1C6E JUMP JUMPDEST PUSH1 0xA0 ADD MLOAD PUSH2 0x1360 MSTORE PUSH3 0x130B DUP2 PUSH1 0x1 PUSH3 0x1C6E JUMP JUMPDEST PUSH1 0xA0 ADD MLOAD PUSH2 0x1380 MSTORE PUSH3 0x1320 DUP2 PUSH1 0x2 PUSH3 0x1C6E JUMP JUMPDEST PUSH1 0xA0 ADD MLOAD PUSH2 0x13A0 MSTORE PUSH3 0x1335 DUP2 PUSH1 0x3 PUSH3 0x1C6E JUMP JUMPDEST PUSH1 0xA0 ADD MLOAD PUSH2 0x13C0 MSTORE PUSH3 0x134A DUP2 PUSH1 0x4 PUSH3 0x1C6E JUMP JUMPDEST PUSH1 0xA0 ADD MLOAD PUSH2 0x13E0 MSTORE PUSH3 0x135F DUP2 PUSH1 0x5 PUSH3 0x1C6E JUMP JUMPDEST PUSH1 0xA0 ADD MLOAD PUSH2 0x1400 MSTORE PUSH3 0x1374 DUP2 PUSH1 0x6 PUSH3 0x1C6E JUMP JUMPDEST PUSH1 0xA0 ADD MLOAD PUSH2 0x1420 MSTORE PUSH3 0x1389 DUP2 PUSH1 0x7 PUSH3 0x1C6E JUMP JUMPDEST PUSH1 0xA0 ADD MLOAD PUSH2 0x1440 MSTORE PUSH3 0x139E DUP2 PUSH1 0x8 PUSH3 0x1C6E JUMP JUMPDEST PUSH1 0xA0 ADD MLOAD PUSH2 0x1460 MSTORE PUSH3 0x13B3 DUP2 PUSH1 0x9 PUSH3 0x1C6E JUMP JUMPDEST PUSH1 0xA0 ADD MLOAD PUSH2 0x1480 MSTORE PUSH3 0x13C8 DUP2 PUSH1 0xA PUSH3 0x1C6E JUMP JUMPDEST PUSH1 0xA0 ADD MLOAD PUSH2 0x14A0 MSTORE PUSH3 0x13DD DUP2 PUSH1 0xB PUSH3 0x1C6E JUMP JUMPDEST PUSH1 0xA0 ADD MLOAD PUSH2 0x14C0 MSTORE PUSH3 0x13F2 DUP2 PUSH1 0xC PUSH3 0x1C6E JUMP JUMPDEST PUSH1 0xA0 ADD MLOAD PUSH2 0x14E0 MSTORE PUSH3 0x1407 DUP2 PUSH1 0xD PUSH3 0x1C6E JUMP JUMPDEST PUSH1 0xA0 ADD MLOAD PUSH2 0x1500 MSTORE PUSH3 0x141C DUP2 PUSH1 0xE PUSH3 0x1C6E JUMP JUMPDEST PUSH1 0xA0 ADD MLOAD PUSH2 0x1520 MSTORE PUSH3 0x1431 DUP2 PUSH1 0xF PUSH3 0x1C6E JUMP JUMPDEST PUSH1 0xA0 ADD MLOAD PUSH2 0x1540 MSTORE PUSH3 0x1446 DUP2 PUSH1 0x10 PUSH3 0x1C6E JUMP JUMPDEST PUSH1 0xA0 ADD MLOAD PUSH2 0x1560 MSTORE PUSH3 0x145B DUP2 PUSH1 0x11 PUSH3 0x1C6E JUMP JUMPDEST PUSH1 0xA0 ADD MLOAD PUSH2 0x1580 MSTORE PUSH3 0x1470 DUP2 PUSH1 0x12 PUSH3 0x1C6E JUMP JUMPDEST PUSH1 0xA0 ADD MLOAD PUSH2 0x15A0 MSTORE PUSH3 0x1485 DUP2 PUSH1 0x13 PUSH3 0x1C6E JUMP JUMPDEST PUSH1 0xA0 ADD MLOAD PUSH2 0x15C0 MSTORE PUSH3 0x149A DUP2 PUSH1 0x14 PUSH3 0x1C6E JUMP JUMPDEST PUSH1 0xA0 ADD MLOAD PUSH2 0x15E0 MSTORE PUSH3 0x14AF DUP2 PUSH1 0x15 PUSH3 0x1C6E JUMP JUMPDEST PUSH1 0xA0 ADD MLOAD PUSH2 0x1600 MSTORE PUSH3 0x14C4 DUP2 PUSH1 0x16 PUSH3 0x1C6E JUMP JUMPDEST PUSH1 0xA0 ADD MLOAD PUSH2 0x1620 MSTORE PUSH3 0x14D9 DUP2 PUSH1 0x17 PUSH3 0x1C6E JUMP JUMPDEST PUSH1 0xA0 ADD MLOAD PUSH2 0x1640 MSTORE PUSH3 0x14EE DUP2 PUSH1 0x18 PUSH3 0x1C6E JUMP JUMPDEST PUSH1 0xA0 ADD MLOAD PUSH2 0x1660 MSTORE PUSH3 0x1503 DUP2 PUSH1 0x19 PUSH3 0x1C6E JUMP JUMPDEST PUSH1 0xA0 ADD MLOAD PUSH2 0x1680 MSTORE PUSH3 0x1518 DUP2 PUSH1 0x1A PUSH3 0x1C6E JUMP JUMPDEST PUSH1 0xA0 ADD MLOAD PUSH2 0x16A0 MSTORE PUSH3 0x152D DUP2 PUSH1 0x1B PUSH3 0x1C6E JUMP JUMPDEST PUSH1 0xA0 ADD MLOAD PUSH2 0x16C0 MSTORE PUSH3 0x1542 DUP2 PUSH1 0x1C PUSH3 0x1C6E JUMP JUMPDEST PUSH1 0xA0 ADD MLOAD PUSH2 0x16E0 MSTORE PUSH3 0x1557 DUP2 PUSH1 0x1D PUSH3 0x1C6E JUMP JUMPDEST PUSH1 0xA0 ADD MLOAD PUSH2 0x1700 MSTORE PUSH3 0x156C DUP2 PUSH1 0x0 PUSH3 0x1C6E JUMP JUMPDEST PUSH1 0xC0 ADD MLOAD PUSH1 0x60 SHL PUSH1 0x1 PUSH1 0x1 PUSH1 0x60 SHL SUB NOT AND PUSH2 0x1720 MSTORE PUSH3 0x158E DUP2 PUSH1 0x1 PUSH3 0x1C6E JUMP JUMPDEST PUSH1 0xC0 ADD MLOAD PUSH1 0x60 SHL PUSH1 0x1 PUSH1 0x1 PUSH1 0x60 SHL SUB NOT AND PUSH2 0x1740 MSTORE PUSH3 0x15B0 DUP2 PUSH1 0x2 PUSH3 0x1C6E JUMP JUMPDEST PUSH1 0xC0 ADD MLOAD PUSH1 0x60 SHL PUSH1 0x1 PUSH1 0x1 PUSH1 0x60 SHL SUB NOT AND PUSH2 0x1760 MSTORE PUSH3 0x15D2 DUP2 PUSH1 0x3 PUSH3 0x1C6E JUMP JUMPDEST PUSH1 0xC0 ADD MLOAD PUSH1 0x60 SHL PUSH1 0x1 PUSH1 0x1 PUSH1 0x60 SHL SUB NOT AND PUSH2 0x1780 MSTORE PUSH3 0x15F4 DUP2 PUSH1 0x4 PUSH3 0x1C6E JUMP JUMPDEST PUSH1 0xC0 ADD MLOAD PUSH1 0x60 SHL PUSH1 0x1 PUSH1 0x1 PUSH1 0x60 SHL SUB NOT AND PUSH2 0x17A0 MSTORE PUSH3 0x1616 DUP2 PUSH1 0x5 PUSH3 0x1C6E JUMP JUMPDEST PUSH1 0xC0 ADD MLOAD PUSH1 0x60 SHL PUSH1 0x1 PUSH1 0x1 PUSH1 0x60 SHL SUB NOT AND PUSH2 0x17C0 MSTORE PUSH3 0x1638 DUP2 PUSH1 0x6 PUSH3 0x1C6E JUMP JUMPDEST PUSH1 0xC0 ADD MLOAD PUSH1 0x60 SHL PUSH1 0x1 PUSH1 0x1 PUSH1 0x60 SHL SUB NOT AND PUSH2 0x17E0 MSTORE PUSH3 0x165A DUP2 PUSH1 0x7 PUSH3 0x1C6E JUMP JUMPDEST PUSH1 0xC0 ADD MLOAD PUSH1 0x60 SHL PUSH1 0x1 PUSH1 0x1 PUSH1 0x60 SHL SUB NOT AND PUSH2 0x1800 MSTORE PUSH3 0x167C DUP2 PUSH1 0x8 PUSH3 0x1C6E JUMP JUMPDEST PUSH1 0xC0 ADD MLOAD PUSH1 0x60 SHL PUSH1 0x1 PUSH1 0x1 PUSH1 0x60 SHL SUB NOT AND PUSH2 0x1820 MSTORE PUSH3 0x169E DUP2 PUSH1 0x9 PUSH3 0x1C6E JUMP JUMPDEST PUSH1 0xC0 ADD MLOAD PUSH1 0x60 SHL PUSH1 0x1 PUSH1 0x1 PUSH1 0x60 SHL SUB NOT AND PUSH2 0x1840 MSTORE PUSH3 0x16C0 DUP2 PUSH1 0xA PUSH3 0x1C6E JUMP JUMPDEST PUSH1 0xC0 ADD MLOAD PUSH1 0x60 SHL PUSH1 0x1 PUSH1 0x1 PUSH1 0x60 SHL SUB NOT AND PUSH2 0x1860 MSTORE PUSH3 0x16E2 DUP2 PUSH1 0xB PUSH3 0x1C6E JUMP JUMPDEST PUSH1 0xC0 ADD MLOAD PUSH1 0x60 SHL PUSH1 0x1 PUSH1 0x1 PUSH1 0x60 SHL SUB NOT AND PUSH2 0x1880 MSTORE PUSH3 0x1704 DUP2 PUSH1 0xC PUSH3 0x1C6E JUMP JUMPDEST PUSH1 0xC0 ADD MLOAD PUSH1 0x60 SHL PUSH1 0x1 PUSH1 0x1 PUSH1 0x60 SHL SUB NOT AND PUSH2 0x18A0 MSTORE PUSH3 0x1726 DUP2 PUSH1 0xD PUSH3 0x1C6E JUMP JUMPDEST PUSH1 0xC0 ADD MLOAD PUSH1 0x60 SHL PUSH1 0x1 PUSH1 0x1 PUSH1 0x60 SHL SUB NOT AND PUSH2 0x18C0 MSTORE PUSH3 0x1748 DUP2 PUSH1 0xE PUSH3 0x1C6E JUMP JUMPDEST PUSH1 0xC0 ADD MLOAD PUSH1 0x60 SHL PUSH1 0x1 PUSH1 0x1 PUSH1 0x60 SHL SUB NOT AND PUSH2 0x18E0 MSTORE PUSH3 0x176A DUP2 PUSH1 0xF PUSH3 0x1C6E JUMP JUMPDEST PUSH1 0xC0 ADD MLOAD PUSH1 0x60 SHL PUSH1 0x1 PUSH1 0x1 PUSH1 0x60 SHL SUB NOT AND PUSH2 0x1900 MSTORE PUSH3 0x178C DUP2 PUSH1 0x10 PUSH3 0x1C6E JUMP JUMPDEST PUSH1 0xC0 ADD MLOAD PUSH1 0x60 SHL PUSH1 0x1 PUSH1 0x1 PUSH1 0x60 SHL SUB NOT AND PUSH2 0x1920 MSTORE PUSH3 0x17AE DUP2 PUSH1 0x11 PUSH3 0x1C6E JUMP JUMPDEST PUSH1 0xC0 ADD MLOAD PUSH1 0x60 SHL PUSH1 0x1 PUSH1 0x1 PUSH1 0x60 SHL SUB NOT AND PUSH2 0x1940 MSTORE PUSH3 0x17D0 DUP2 PUSH1 0x12 PUSH3 0x1C6E JUMP JUMPDEST PUSH1 0xC0 ADD MLOAD PUSH1 0x60 SHL PUSH1 0x1 PUSH1 0x1 PUSH1 0x60 SHL SUB NOT AND PUSH2 0x1960 MSTORE PUSH3 0x17F2 DUP2 PUSH1 0x13 PUSH3 0x1C6E JUMP JUMPDEST PUSH1 0xC0 ADD MLOAD PUSH1 0x60 SHL PUSH1 0x1 PUSH1 0x1 PUSH1 0x60 SHL SUB NOT AND PUSH2 0x1980 MSTORE PUSH3 0x1814 DUP2 PUSH1 0x14 PUSH3 0x1C6E JUMP JUMPDEST PUSH1 0xC0 ADD MLOAD PUSH1 0x60 SHL PUSH1 0x1 PUSH1 0x1 PUSH1 0x60 SHL SUB NOT AND PUSH2 0x19A0 MSTORE PUSH3 0x1836 DUP2 PUSH1 0x15 PUSH3 0x1C6E JUMP JUMPDEST PUSH1 0xC0 ADD MLOAD PUSH1 0x60 SHL PUSH1 0x1 PUSH1 0x1 PUSH1 0x60 SHL SUB NOT AND PUSH2 0x19C0 MSTORE PUSH3 0x1858 DUP2 PUSH1 0x16 PUSH3 0x1C6E JUMP JUMPDEST PUSH1 0xC0 ADD MLOAD PUSH1 0x60 SHL PUSH1 0x1 PUSH1 0x1 PUSH1 0x60 SHL SUB NOT AND PUSH2 0x19E0 MSTORE PUSH3 0x187A DUP2 PUSH1 0x17 PUSH3 0x1C6E JUMP JUMPDEST PUSH1 0xC0 ADD MLOAD PUSH1 0x60 SHL PUSH1 0x1 PUSH1 0x1 PUSH1 0x60 SHL SUB NOT AND PUSH2 0x1A00 MSTORE PUSH3 0x189C DUP2 PUSH1 0x18 PUSH3 0x1C6E JUMP JUMPDEST PUSH1 0xC0 ADD MLOAD PUSH1 0x60 SHL PUSH1 0x1 PUSH1 0x1 PUSH1 0x60 SHL SUB NOT AND PUSH2 0x1A20 MSTORE PUSH3 0x18BE DUP2 PUSH1 0x19 PUSH3 0x1C6E JUMP JUMPDEST PUSH1 0xC0 ADD MLOAD PUSH1 0x60 SHL PUSH1 0x1 PUSH1 0x1 PUSH1 0x60 SHL SUB NOT AND PUSH2 0x1A40 MSTORE PUSH3 0x18E0 DUP2 PUSH1 0x1A PUSH3 0x1C6E JUMP JUMPDEST PUSH1 0xC0 ADD MLOAD PUSH1 0x60 SHL PUSH1 0x1 PUSH1 0x1 PUSH1 0x60 SHL SUB NOT AND PUSH2 0x1A60 MSTORE PUSH3 0x1902 DUP2 PUSH1 0x1B PUSH3 0x1C6E JUMP JUMPDEST PUSH1 0xC0 ADD MLOAD PUSH1 0x60 SHL PUSH1 0x1 PUSH1 0x1 PUSH1 0x60 SHL SUB NOT AND PUSH2 0x1A80 MSTORE PUSH3 0x1924 DUP2 PUSH1 0x1C PUSH3 0x1C6E JUMP JUMPDEST PUSH1 0xC0 ADD MLOAD PUSH1 0x60 SHL PUSH1 0x1 PUSH1 0x1 PUSH1 0x60 SHL SUB NOT AND PUSH2 0x1AA0 MSTORE PUSH3 0x1946 DUP2 PUSH1 0x1D PUSH3 0x1C6E JUMP JUMPDEST PUSH1 0xC0 ADD MLOAD PUSH1 0x60 SHL PUSH1 0x1 PUSH1 0x1 PUSH1 0x60 SHL SUB NOT AND PUSH2 0x1AC0 MSTORE PUSH3 0x1968 DUP2 PUSH1 0x0 PUSH3 0x1C6E JUMP JUMPDEST PUSH1 0xE0 ADD MLOAD ISZERO ISZERO PUSH1 0xF8 SHL PUSH2 0x1AE0 MSTORE PUSH3 0x1982 DUP2 PUSH1 0x1 PUSH3 0x1C6E JUMP JUMPDEST PUSH1 0xE0 ADD MLOAD ISZERO ISZERO PUSH1 0xF8 SHL PUSH2 0x1B00 MSTORE PUSH3 0x199C DUP2 PUSH1 0x2 PUSH3 0x1C6E JUMP JUMPDEST PUSH1 0xE0 ADD MLOAD ISZERO ISZERO PUSH1 0xF8 SHL PUSH2 0x1B20 MSTORE PUSH3 0x19B6 DUP2 PUSH1 0x3 PUSH3 0x1C6E JUMP JUMPDEST PUSH1 0xE0 ADD MLOAD ISZERO ISZERO PUSH1 0xF8 SHL PUSH2 0x1B40 MSTORE PUSH3 0x19D0 DUP2 PUSH1 0x4 PUSH3 0x1C6E JUMP JUMPDEST PUSH1 0xE0 ADD MLOAD ISZERO ISZERO PUSH1 0xF8 SHL PUSH2 0x1B60 MSTORE PUSH3 0x19EA DUP2 PUSH1 0x5 PUSH3 0x1C6E JUMP JUMPDEST PUSH1 0xE0 ADD MLOAD ISZERO ISZERO PUSH1 0xF8 SHL PUSH2 0x1B80 MSTORE PUSH3 0x1A04 DUP2 PUSH1 0x6 PUSH3 0x1C6E JUMP JUMPDEST PUSH1 0xE0 ADD MLOAD ISZERO ISZERO PUSH1 0xF8 SHL PUSH2 0x1BA0 MSTORE PUSH3 0x1A1E DUP2 PUSH1 0x7 PUSH3 0x1C6E JUMP JUMPDEST PUSH1 0xE0 ADD MLOAD ISZERO ISZERO PUSH1 0xF8 SHL PUSH2 0x1BC0 MSTORE PUSH3 0x1A38 DUP2 PUSH1 0x8 PUSH3 0x1C6E JUMP JUMPDEST PUSH1 0xE0 ADD MLOAD ISZERO ISZERO PUSH1 0xF8 SHL PUSH2 0x1BE0 MSTORE PUSH3 0x1A52 DUP2 PUSH1 0x9 PUSH3 0x1C6E JUMP JUMPDEST PUSH1 0xE0 ADD MLOAD ISZERO ISZERO PUSH1 0xF8 SHL PUSH2 0x1C00 MSTORE PUSH3 0x1A6C DUP2 PUSH1 0xA PUSH3 0x1C6E JUMP JUMPDEST PUSH1 0xE0 ADD MLOAD ISZERO ISZERO PUSH1 0xF8 SHL PUSH2 0x1C20 MSTORE PUSH3 0x1A86 DUP2 PUSH1 0xB PUSH3 0x1C6E JUMP JUMPDEST PUSH1 0xE0 ADD MLOAD ISZERO ISZERO PUSH1 0xF8 SHL PUSH2 0x1C40 MSTORE PUSH3 0x1AA0 DUP2 PUSH1 0xC PUSH3 0x1C6E JUMP JUMPDEST PUSH1 0xE0 ADD MLOAD ISZERO ISZERO PUSH1 0xF8 SHL PUSH2 0x1C60 MSTORE PUSH3 0x1ABA DUP2 PUSH1 0xD PUSH3 0x1C6E JUMP JUMPDEST PUSH1 0xE0 ADD MLOAD ISZERO ISZERO PUSH1 0xF8 SHL PUSH2 0x1C80 MSTORE PUSH3 0x1AD4 DUP2 PUSH1 0xE PUSH3 0x1C6E JUMP JUMPDEST PUSH1 0xE0 ADD MLOAD ISZERO ISZERO PUSH1 0xF8 SHL PUSH2 0x1CA0 MSTORE PUSH3 0x1AEE DUP2 PUSH1 0xF PUSH3 0x1C6E JUMP JUMPDEST PUSH1 0xE0 ADD MLOAD ISZERO ISZERO PUSH1 0xF8 SHL PUSH2 0x1CC0 MSTORE PUSH3 0x1B08 DUP2 PUSH1 0x10 PUSH3 0x1C6E JUMP JUMPDEST PUSH1 0xE0 ADD MLOAD ISZERO ISZERO PUSH1 0xF8 SHL PUSH2 0x1CE0 MSTORE PUSH3 0x1B22 DUP2 PUSH1 0x11 PUSH3 0x1C6E JUMP JUMPDEST PUSH1 0xE0 ADD MLOAD ISZERO ISZERO PUSH1 0xF8 SHL PUSH2 0x1D00 MSTORE PUSH3 0x1B3C DUP2 PUSH1 0x12 PUSH3 0x1C6E JUMP JUMPDEST PUSH1 0xE0 ADD MLOAD ISZERO ISZERO PUSH1 0xF8 SHL PUSH2 0x1D20 MSTORE PUSH3 0x1B56 DUP2 PUSH1 0x13 PUSH3 0x1C6E JUMP JUMPDEST PUSH1 0xE0 ADD MLOAD ISZERO ISZERO PUSH1 0xF8 SHL PUSH2 0x1D40 MSTORE PUSH3 0x1B70 DUP2 PUSH1 0x14 PUSH3 0x1C6E JUMP JUMPDEST PUSH1 0xE0 ADD MLOAD ISZERO ISZERO PUSH1 0xF8 SHL PUSH2 0x1D60 MSTORE PUSH3 0x1B8A DUP2 PUSH1 0x15 PUSH3 0x1C6E JUMP JUMPDEST PUSH1 0xE0 ADD MLOAD ISZERO ISZERO PUSH1 0xF8 SHL PUSH2 0x1D80 MSTORE PUSH3 0x1BA4 DUP2 PUSH1 0x16 PUSH3 0x1C6E JUMP JUMPDEST PUSH1 0xE0 ADD MLOAD ISZERO ISZERO PUSH1 0xF8 SHL PUSH2 0x1DA0 MSTORE PUSH3 0x1BBE DUP2 PUSH1 0x17 PUSH3 0x1C6E JUMP JUMPDEST PUSH1 0xE0 ADD MLOAD ISZERO ISZERO PUSH1 0xF8 SHL PUSH2 0x1DC0 MSTORE PUSH3 0x1BD8 DUP2 PUSH1 0x18 PUSH3 0x1C6E JUMP JUMPDEST PUSH1 0xE0 ADD MLOAD ISZERO ISZERO PUSH1 0xF8 SHL PUSH2 0x1DE0 MSTORE PUSH3 0x1BF2 DUP2 PUSH1 0x19 PUSH3 0x1C6E JUMP JUMPDEST PUSH1 0xE0 ADD MLOAD ISZERO ISZERO PUSH1 0xF8 SHL PUSH2 0x1E00 MSTORE PUSH3 0x1C0C DUP2 PUSH1 0x1A PUSH3 0x1C6E JUMP JUMPDEST PUSH1 0xE0 ADD MLOAD ISZERO ISZERO PUSH1 0xF8 SHL PUSH2 0x1E20 MSTORE PUSH3 0x1C26 DUP2 PUSH1 0x1B PUSH3 0x1C6E JUMP JUMPDEST PUSH1 0xE0 ADD MLOAD ISZERO ISZERO PUSH1 0xF8 SHL PUSH2 0x1E40 MSTORE PUSH3 0x1C40 DUP2 PUSH1 0x1C PUSH3 0x1C6E JUMP JUMPDEST PUSH1 0xE0 ADD MLOAD ISZERO ISZERO PUSH1 0xF8 SHL PUSH2 0x1E60 MSTORE PUSH3 0x1C5A DUP2 PUSH1 0x1D PUSH3 0x1C6E JUMP JUMPDEST PUSH1 0xE0 ADD MLOAD ISZERO ISZERO PUSH1 0xF8 SHL PUSH2 0x1E80 MSTORE POP PUSH3 0x1F1E JUMP JUMPDEST PUSH3 0x1C78 PUSH3 0x1CE8 JUMP JUMPDEST DUP3 MLOAD DUP3 LT ISZERO PUSH3 0x1C9F JUMPI DUP3 DUP3 DUP2 MLOAD DUP2 LT PUSH3 0x1C8F JUMPI INVALID JUMPDEST PUSH1 0x20 MUL PUSH1 0x20 ADD ADD MLOAD SWAP1 POP PUSH3 0x1CE2 JUMP JUMPDEST POP PUSH1 0x40 DUP1 MLOAD PUSH2 0x100 DUP2 ADD DUP3 MSTORE PUSH1 0x0 DUP1 DUP3 MSTORE PUSH1 0x20 DUP3 ADD DUP2 SWAP1 MSTORE SWAP2 DUP2 ADD DUP3 SWAP1 MSTORE PUSH1 0x60 DUP2 ADD DUP3 SWAP1 MSTORE PUSH1 0x80 DUP2 ADD DUP3 SWAP1 MSTORE PUSH1 0xA0 DUP2 ADD DUP3 SWAP1 MSTORE PUSH1 0xC0 DUP2 ADD DUP3 SWAP1 MSTORE PUSH1 0xE0 DUP2 ADD SWAP2 SWAP1 SWAP2 MSTORE JUMPDEST SWAP3 SWAP2 POP POP JUMP JUMPDEST PUSH1 0x40 DUP1 MLOAD PUSH2 0x100 DUP2 ADD DUP3 MSTORE PUSH1 0x0 DUP1 DUP3 MSTORE PUSH1 0x20 DUP3 ADD DUP2 SWAP1 MSTORE SWAP2 DUP2 ADD DUP3 SWAP1 MSTORE PUSH1 0x60 DUP2 ADD DUP3 SWAP1 MSTORE SWAP1 PUSH1 0x80 DUP3 ADD SWAP1 DUP2 MSTORE PUSH1 0x0 PUSH1 0x20 DUP3 ADD DUP2 SWAP1 MSTORE PUSH1 0x40 DUP3 ADD DUP2 SWAP1 MSTORE PUSH1 0x60 SWAP1 SWAP2 ADD MSTORE SWAP1 JUMP JUMPDEST DUP1 MLOAD PUSH1 0x1 PUSH1 0x1 PUSH1 0xA0 SHL SUB DUP2 AND DUP2 EQ PUSH3 0x1CE2 JUMPI PUSH1 0x0 DUP1 REVERT JUMPDEST DUP1 MLOAD DUP1 ISZERO ISZERO DUP2 EQ PUSH3 0x1CE2 JUMPI PUSH1 0x0 DUP1 REVERT JUMPDEST PUSH1 0x0 PUSH2 0x100 DUP1 DUP4 DUP6 SUB SLT ISZERO PUSH3 0x1D6A JUMPI DUP2 DUP3 REVERT JUMPDEST PUSH3 0x1D75 DUP2 PUSH3 0x1ED7 JUMP JUMPDEST SWAP2 POP POP PUSH3 0x1D84 DUP4 DUP4 PUSH3 0x1D2D JUMP JUMPDEST DUP2 MSTORE PUSH3 0x1D95 DUP4 PUSH1 0x20 DUP5 ADD PUSH3 0x1D2D JUMP JUMPDEST PUSH1 0x20 DUP3 ADD MSTORE PUSH1 0x40 DUP3 ADD MLOAD PUSH1 0x40 DUP3 ADD MSTORE PUSH1 0x60 DUP3 ADD MLOAD PUSH1 0x60 DUP3 ADD MSTORE PUSH1 0x80 DUP3 ADD MLOAD PUSH1 0x3 DUP2 LT PUSH3 0x1DC1 JUMPI PUSH1 0x0 DUP1 REVERT JUMPDEST PUSH1 0x80 DUP3 ADD MSTORE PUSH1 0xA0 DUP3 DUP2 ADD MLOAD SWAP1 DUP3 ADD MSTORE PUSH3 0x1DDF DUP4 PUSH1 0xC0 DUP5 ADD PUSH3 0x1D2D JUMP JUMPDEST PUSH1 0xC0 DUP3 ADD MSTORE PUSH3 0x1DF3 DUP4 PUSH1 0xE0 DUP5 ADD PUSH3 0x1D45 JUMP JUMPDEST PUSH1 0xE0 DUP3 ADD MSTORE SWAP3 SWAP2 POP POP JUMP JUMPDEST PUSH1 0x0 PUSH1 0x20 DUP1 DUP4 DUP6 SUB SLT ISZERO PUSH3 0x1E11 JUMPI DUP2 DUP3 REVERT JUMPDEST DUP3 MLOAD PUSH1 0x1 PUSH1 0x1 PUSH1 0x40 SHL SUB DUP2 GT ISZERO PUSH3 0x1E27 JUMPI DUP3 DUP4 REVERT JUMPDEST DUP4 ADD PUSH1 0x1F DUP2 ADD DUP6 SGT PUSH3 0x1E38 JUMPI DUP3 DUP4 REVERT JUMPDEST DUP1 MLOAD PUSH3 0x1E4F PUSH3 0x1E49 DUP3 PUSH3 0x1EFE JUMP JUMPDEST PUSH3 0x1ED7 JUMP JUMPDEST DUP2 DUP2 MSTORE DUP4 DUP2 ADD SWAP1 DUP4 DUP6 ADD PUSH2 0x100 DUP1 DUP6 MUL DUP7 ADD DUP8 ADD DUP11 LT ISZERO PUSH3 0x1E6F JUMPI DUP8 DUP9 REVERT JUMPDEST DUP8 SWAP6 POP JUMPDEST DUP5 DUP7 LT ISZERO PUSH3 0x1E9F JUMPI PUSH3 0x1E88 DUP11 DUP4 PUSH3 0x1D56 JUMP JUMPDEST DUP5 MSTORE PUSH1 0x1 SWAP6 SWAP1 SWAP6 ADD SWAP5 SWAP3 DUP7 ADD SWAP3 SWAP1 DUP2 ADD SWAP1 PUSH3 0x1E73 JUMP JUMPDEST POP SWAP1 SWAP9 SWAP8 POP POP POP POP POP POP POP POP JUMP JUMPDEST PUSH1 0x20 DUP1 DUP3 MSTORE PUSH1 0x10 SWAP1 DUP3 ADD MSTORE PUSH16 0x746F6F206D616E7920636F6E66696773 PUSH1 0x80 SHL PUSH1 0x40 DUP3 ADD MSTORE PUSH1 0x60 ADD SWAP1 JUMP JUMPDEST PUSH1 0x40 MLOAD DUP2 DUP2 ADD PUSH1 0x1 PUSH1 0x1 PUSH1 0x40 SHL SUB DUP2 GT DUP3 DUP3 LT OR ISZERO PUSH3 0x1EF6 JUMPI PUSH1 0x0 DUP1 REVERT JUMPDEST PUSH1 0x40 MSTORE SWAP2 SWAP1 POP JUMP JUMPDEST PUSH1 0x0 PUSH1 0x1 PUSH1 0x1 PUSH1 0x40 SHL SUB DUP3 GT ISZERO PUSH3 0x1F14 JUMPI DUP1 DUP2 REVERT JUMPDEST POP PUSH1 0x20 SWAP1 DUP2 MUL ADD SWAP1 JUMP JUMPDEST PUSH1 0x80 MLOAD PUSH1 0xA0 MLOAD PUSH1 0x60 SHR PUSH1 0xC0 MLOAD PUSH1 0x60 SHR PUSH1 0xE0 MLOAD PUSH1 0x60 SHR PUSH2 0x100 MLOAD PUSH1 0x60 SHR PUSH2 0x120 MLOAD PUSH1 0x60 SHR PUSH2 0x140 MLOAD PUSH1 0x60 SHR PUSH2 0x160 MLOAD PUSH1 0x60 SHR PUSH2 0x180 MLOAD PUSH1 0x60 SHR PUSH2 0x1A0 MLOAD PUSH1 0x60 SHR PUSH2 0x1C0 MLOAD PUSH1 0x60 SHR PUSH2 0x1E0 MLOAD PUSH1 0x60 SHR PUSH2 0x200 MLOAD PUSH1 0x60 SHR PUSH2 0x220 MLOAD PUSH1 0x60 SHR PUSH2 0x240 MLOAD PUSH1 0x60 SHR PUSH2 0x260 MLOAD PUSH1 0x60 SHR PUSH2 0x280 MLOAD PUSH1 0x60 SHR PUSH2 0x2A0 MLOAD PUSH1 0x60 SHR PUSH2 0x2C0 MLOAD PUSH1 0x60 SHR PUSH2 0x2E0 MLOAD PUSH1 0x60 SHR PUSH2 0x300 MLOAD PUSH1 0x60 SHR PUSH2 0x320 MLOAD PUSH1 0x60 SHR PUSH2 0x340 MLOAD PUSH1 0x60 SHR PUSH2 0x360 MLOAD PUSH1 0x60 SHR PUSH2 0x380 MLOAD PUSH1 0x60 SHR PUSH2 0x3A0 MLOAD PUSH1 0x60 SHR PUSH2 0x3C0 MLOAD PUSH1 0x60 SHR PUSH2 0x3E0 MLOAD PUSH1 0x60 SHR PUSH2 0x400 MLOAD PUSH1 0x60 SHR PUSH2 0x420 MLOAD PUSH1 0x60 SHR PUSH2 0x440 MLOAD PUSH1 0x60 SHR PUSH2 0x460 MLOAD PUSH1 0x60 SHR PUSH2 0x480 MLOAD PUSH1 0x60 SHR PUSH2 0x4A0 MLOAD PUSH1 0x60 SHR PUSH2 0x4C0 MLOAD PUSH1 0x60 SHR PUSH2 0x4E0 MLOAD PUSH1 0x60 SHR PUSH2 0x500 MLOAD PUSH1 0x60 SHR PUSH2 0x520 MLOAD PUSH1 0x60 SHR PUSH2 0x540 MLOAD PUSH1 0x60 SHR PUSH2 0x560 MLOAD PUSH1 0x60 SHR PUSH2 0x580 MLOAD PUSH1 0x60 SHR PUSH2 0x5A0 MLOAD PUSH1 0x60 SHR PUSH2 0x5C0 MLOAD PUSH1 0x60 SHR PUSH2 0x5E0 MLOAD PUSH1 0x60 SHR PUSH2 0x600 MLOAD PUSH1 0x60 SHR PUSH2 0x620 MLOAD PUSH1 0x60 SHR PUSH2 0x640 MLOAD PUSH1 0x60 SHR PUSH2 0x660 MLOAD PUSH1 0x60 SHR PUSH2 0x680 MLOAD PUSH1 0x60 SHR PUSH2 0x6A0 MLOAD PUSH1 0x60 SHR PUSH2 0x6C0 MLOAD PUSH1 0x60 SHR PUSH2 0x6E0 MLOAD PUSH1 0x60 SHR PUSH2 0x700 MLOAD PUSH1 0x60 SHR PUSH2 0x720 MLOAD PUSH1 0x60 SHR PUSH2 0x740 MLOAD PUSH1 0x60 SHR PUSH2 0x760 MLOAD PUSH1 0x60 SHR PUSH2 0x780 MLOAD PUSH1 0x60 SHR PUSH2 0x7A0 MLOAD PUSH1 0x60 SHR PUSH2 0x7C0 MLOAD PUSH1 0x60 SHR PUSH2 0x7E0 MLOAD PUSH1 0x60 SHR PUSH2 0x800 MLOAD PUSH1 0x60 SHR PUSH2 0x820 MLOAD PUSH2 0x840 MLOAD PUSH2 0x860 MLOAD PUSH2 0x880 MLOAD PUSH2 0x8A0 MLOAD PUSH2 0x8C0 MLOAD PUSH2 0x8E0 MLOAD PUSH2 0x900 MLOAD PUSH2 0x920 MLOAD PUSH2 0x940 MLOAD PUSH2 0x960 MLOAD PUSH2 0x980 MLOAD PUSH2 0x9A0 MLOAD PUSH2 0x9C0 MLOAD PUSH2 0x9E0 MLOAD PUSH2 0xA00 MLOAD PUSH2 0xA20 MLOAD PUSH2 0xA40 MLOAD PUSH2 0xA60 MLOAD PUSH2 0xA80 MLOAD PUSH2 0xAA0 MLOAD PUSH2 0xAC0 MLOAD PUSH2 0xAE0 MLOAD PUSH2 0xB00 MLOAD PUSH2 0xB20 MLOAD PUSH2 0xB40 MLOAD PUSH2 0xB60 MLOAD PUSH2 0xB80 MLOAD PUSH2 0xBA0 MLOAD PUSH2 0xBC0 MLOAD PUSH2 0xBE0 MLOAD PUSH2 0xC00 MLOAD PUSH2 0xC20 MLOAD PUSH2 0xC40 MLOAD PUSH2 0xC60 MLOAD PUSH2 0xC80 MLOAD PUSH2 0xCA0 MLOAD PUSH2 0xCC0 MLOAD PUSH2 0xCE0 MLOAD PUSH2 0xD00 MLOAD PUSH2 0xD20 MLOAD PUSH2 0xD40 MLOAD PUSH2 0xD60 MLOAD PUSH2 0xD80 MLOAD PUSH2 0xDA0 MLOAD PUSH2 0xDC0 MLOAD PUSH2 0xDE0 MLOAD PUSH2 0xE00 MLOAD PUSH2 0xE20 MLOAD PUSH2 0xE40 MLOAD PUSH2 0xE60 MLOAD PUSH2 0xE80 MLOAD PUSH2 0xEA0 MLOAD PUSH2 0xEC0 MLOAD PUSH2 0xEE0 MLOAD PUSH2 0xF00 MLOAD PUSH2 0xF20 MLOAD PUSH2 0xF40 MLOAD PUSH2 0xF60 MLOAD PUSH2 0xF80 MLOAD PUSH2 0xFA0 MLOAD PUSH1 0xF8 SHR PUSH2 0xFC0 MLOAD PUSH1 0xF8 SHR PUSH2 0xFE0 MLOAD PUSH1 0xF8 SHR PUSH2 0x1000 MLOAD PUSH1 0xF8 SHR PUSH2 0x1020 MLOAD PUSH1 0xF8 SHR PUSH2 0x1040 MLOAD PUSH1 0xF8 SHR PUSH2 0x1060 MLOAD PUSH1 0xF8 SHR PUSH2 0x1080 MLOAD PUSH1 0xF8 SHR PUSH2 0x10A0 MLOAD PUSH1 0xF8 SHR PUSH2 0x10C0 MLOAD PUSH1 0xF8 SHR PUSH2 0x10E0 MLOAD PUSH1 0xF8 SHR PUSH2 0x1100 MLOAD PUSH1 0xF8 SHR PUSH2 0x1120 MLOAD PUSH1 0xF8 SHR PUSH2 0x1140 MLOAD PUSH1 0xF8 SHR PUSH2 0x1160 MLOAD PUSH1 0xF8 SHR PUSH2 0x1180 MLOAD PUSH1 0xF8 SHR PUSH2 0x11A0 MLOAD PUSH1 0xF8 SHR PUSH2 0x11C0 MLOAD PUSH1 0xF8 SHR PUSH2 0x11E0 MLOAD PUSH1 0xF8 SHR PUSH2 0x1200 MLOAD PUSH1 0xF8 SHR PUSH2 0x1220 MLOAD PUSH1 0xF8 SHR PUSH2 0x1240 MLOAD PUSH1 0xF8 SHR PUSH2 0x1260 MLOAD PUSH1 0xF8 SHR PUSH2 0x1280 MLOAD PUSH1 0xF8 SHR PUSH2 0x12A0 MLOAD PUSH1 0xF8 SHR PUSH2 0x12C0 MLOAD PUSH1 0xF8 SHR PUSH2 0x12E0 MLOAD PUSH1 0xF8 SHR PUSH2 0x1300 MLOAD PUSH1 0xF8 SHR PUSH2 0x1320 MLOAD PUSH1 0xF8 SHR PUSH2 0x1340 MLOAD PUSH1 0xF8 SHR PUSH2 0x1360 MLOAD PUSH2 0x1380 MLOAD PUSH2 0x13A0 MLOAD PUSH2 0x13C0 MLOAD PUSH2 0x13E0 MLOAD PUSH2 0x1400 MLOAD PUSH2 0x1420 MLOAD PUSH2 0x1440 MLOAD PUSH2 0x1460 MLOAD PUSH2 0x1480 MLOAD PUSH2 0x14A0 MLOAD PUSH2 0x14C0 MLOAD PUSH2 0x14E0 MLOAD PUSH2 0x1500 MLOAD PUSH2 0x1520 MLOAD PUSH2 0x1540 MLOAD PUSH2 0x1560 MLOAD PUSH2 0x1580 MLOAD PUSH2 0x15A0 MLOAD PUSH2 0x15C0 MLOAD PUSH2 0x15E0 MLOAD PUSH2 0x1600 MLOAD PUSH2 0x1620 MLOAD PUSH2 0x1640 MLOAD PUSH2 0x1660 MLOAD PUSH2 0x1680 MLOAD PUSH2 0x16A0 MLOAD PUSH2 0x16C0 MLOAD PUSH2 0x16E0 MLOAD PUSH2 0x1700 MLOAD PUSH2 0x1720 MLOAD PUSH1 0x60 SHR PUSH2 0x1740 MLOAD PUSH1 0x60 SHR PUSH2 0x1760 MLOAD PUSH1 0x60 SHR PUSH2 0x1780 MLOAD PUSH1 0x60 SHR PUSH2 0x17A0 MLOAD PUSH1 0x60 SHR PUSH2 0x17C0 MLOAD PUSH1 0x60 SHR PUSH2 0x17E0 MLOAD PUSH1 0x60 SHR PUSH2 0x1800 MLOAD PUSH1 0x60 SHR PUSH2 0x1820 MLOAD PUSH1 0x60 SHR PUSH2 0x1840 MLOAD PUSH1 0x60 SHR PUSH2 0x1860 MLOAD PUSH1 0x60 SHR PUSH2 0x1880 MLOAD PUSH1 0x60 SHR PUSH2 0x18A0 MLOAD PUSH1 0x60 SHR PUSH2 0x18C0 MLOAD PUSH1 0x60 SHR PUSH2 0x18E0 MLOAD PUSH1 0x60 SHR PUSH2 0x1900 MLOAD PUSH1 0x60 SHR PUSH2 0x1920 MLOAD PUSH1 0x60 SHR PUSH2 0x1940 MLOAD PUSH1 0x60 SHR PUSH2 0x1960 MLOAD PUSH1 0x60 SHR PUSH2 0x1980 MLOAD PUSH1 0x60 SHR PUSH2 0x19A0 MLOAD PUSH1 0x60 SHR PUSH2 0x19C0 MLOAD PUSH1 0x60 SHR PUSH2 0x19E0 MLOAD PUSH1 0x60 SHR PUSH2 0x1A00 MLOAD PUSH1 0x60 SHR PUSH2 0x1A20 MLOAD PUSH1 0x60 SHR PUSH2 0x1A40 MLOAD PUSH1 0x60 SHR PUSH2 0x1A60 MLOAD PUSH1 0x60 SHR PUSH2 0x1A80 MLOAD PUSH1 0x60 SHR PUSH2 0x1AA0 MLOAD PUSH1 0x60 SHR PUSH2 0x1AC0 MLOAD PUSH1 0x60 SHR PUSH2 0x1AE0 MLOAD PUSH1 0xF8 SHR PUSH2 0x1B00 MLOAD PUSH1 0xF8 SHR PUSH2 0x1B20 MLOAD PUSH1 0xF8 SHR PUSH2 0x1B40 MLOAD PUSH1 0xF8 SHR PUSH2 0x1B60 MLOAD PUSH1 0xF8 SHR PUSH2 0x1B80 MLOAD PUSH1 0xF8 SHR PUSH2 0x1BA0 MLOAD PUSH1 0xF8 SHR PUSH2 0x1BC0 MLOAD PUSH1 0xF8 SHR PUSH2 0x1BE0 MLOAD PUSH1 0xF8 SHR PUSH2 0x1C00 MLOAD PUSH1 0xF8 SHR PUSH2 0x1C20 MLOAD PUSH1 0xF8 SHR PUSH2 0x1C40 MLOAD PUSH1 0xF8 SHR PUSH2 0x1C60 MLOAD PUSH1 0xF8 SHR PUSH2 0x1C80 MLOAD PUSH1 0xF8 SHR PUSH2 0x1CA0 MLOAD PUSH1 0xF8 SHR PUSH2 0x1CC0 MLOAD PUSH1 0xF8 SHR PUSH2 0x1CE0 MLOAD PUSH1 0xF8 SHR PUSH2 0x1D00 MLOAD PUSH1 0xF8 SHR PUSH2 0x1D20 MLOAD PUSH1 0xF8 SHR PUSH2 0x1D40 MLOAD PUSH1 0xF8 SHR PUSH2 0x1D60 MLOAD PUSH1 0xF8 SHR PUSH2 0x1D80 MLOAD PUSH1 0xF8 SHR PUSH2 0x1DA0 MLOAD PUSH1 0xF8 SHR PUSH2 0x1DC0 MLOAD PUSH1 0xF8 SHR PUSH2 0x1DE0 MLOAD PUSH1 0xF8 SHR PUSH2 0x1E00 MLOAD PUSH1 0xF8 SHR PUSH2 0x1E20 MLOAD PUSH1 0xF8 SHR PUSH2 0x1E40 MLOAD PUSH1 0xF8 SHR PUSH2 0x1E60 MLOAD PUSH1 0xF8 SHR PUSH2 0x1E80 MLOAD PUSH1 0xF8 SHR PUSH2 0x45DB PUSH3 0x2C1F PUSH1 0x0 CODECOPY DUP1 PUSH2 0x2D2D MSTORE POP DUP1 PUSH2 0x2BBB MSTORE POP DUP1 PUSH2 0x2A49 MSTORE POP DUP1 PUSH2 0x28D7 MSTORE POP DUP1 PUSH2 0x2765 MSTORE POP DUP1 PUSH2 0x25F3 MSTORE POP DUP1 PUSH2 0x2481 MSTORE POP DUP1 PUSH2 0x230F MSTORE POP DUP1 PUSH2 0x219D MSTORE POP DUP1 PUSH2 0x202B MSTORE POP DUP1 PUSH2 0x1EB9 MSTORE POP DUP1 PUSH2 0x1D47 MSTORE POP DUP1 PUSH2 0x1BD5 MSTORE POP DUP1 PUSH2 0x1A63 MSTORE POP DUP1 PUSH2 0x18F1 MSTORE POP DUP1 PUSH2 0x177F MSTORE POP DUP1 PUSH2 0x160D MSTORE POP DUP1 PUSH2 0x149B MSTORE POP DUP1 PUSH2 0x1329 MSTORE POP DUP1 PUSH2 0x11B7 MSTORE POP DUP1 PUSH2 0x1045 MSTORE POP DUP1 PUSH2 0xED3 MSTORE POP DUP1 PUSH2 0xD61 MSTORE POP DUP1 PUSH2 0xBEF MSTORE POP DUP1 PUSH2 0xA7D MSTORE POP DUP1 PUSH2 0x90B MSTORE POP DUP1 PUSH2 0x799 MSTORE POP DUP1 PUSH2 0x627 MSTORE POP DUP1 PUSH2 0x4B5 MSTORE POP DUP1 PUSH2 0x343 MSTORE POP DUP1 PUSH2 0x2CFE MSTORE POP DUP1 PUSH2 0x2B8C MSTORE POP DUP1 PUSH2 0x2A1A MSTORE POP DUP1 PUSH2 0x28A8 MSTORE POP DUP1 PUSH2 0x2736 MSTORE POP DUP1 PUSH2 0x25C4 MSTORE POP DUP1 PUSH2 0x2452 MSTORE POP DUP1 PUSH2 0x22E0 MSTORE POP DUP1 PUSH2 0x216E MSTORE POP DUP1 PUSH2 0x1FFC MSTORE POP DUP1 PUSH2 0x1E8A MSTORE POP DUP1 PUSH2 0x1D18 MSTORE POP DUP1 PUSH2 0x1BA6 MSTORE POP DUP1 PUSH2 0x1A34 MSTORE POP DUP1 PUSH2 0x18C2 MSTORE POP DUP1 PUSH2 0x1750 MSTORE POP DUP1 PUSH2 0x15DE MSTORE POP DUP1 PUSH2 0x146C MSTORE POP DUP1 PUSH2 0x12FA MSTORE POP DUP1 PUSH2 0x1188 MSTORE POP DUP1 PUSH2 0x1016 MSTORE POP DUP1 PUSH2 0xEA4 MSTORE POP DUP1 PUSH2 0xD32 MSTORE POP DUP1 PUSH2 0xBC0 MSTORE POP DUP1 PUSH2 0xA4E MSTORE POP DUP1 PUSH2 0x8DC MSTORE POP DUP1 PUSH2 0x76A MSTORE POP DUP1 PUSH2 0x5F8 MSTORE POP DUP1 PUSH2 0x486 MSTORE POP DUP1 PUSH2 0x314 MSTORE POP DUP1 PUSH2 0x2CD8 MSTORE POP DUP1 PUSH2 0x2B66 MSTORE POP DUP1 PUSH2 0x29F4 MSTORE POP DUP1 PUSH2 0x2882 MSTORE POP DUP1 PUSH2 0x2710 MSTORE POP DUP1 PUSH2 0x259E MSTORE POP DUP1 PUSH2 0x242C MSTORE POP DUP1 PUSH2 0x22BA MSTORE POP DUP1 PUSH2 0x2148 MSTORE POP DUP1 PUSH2 0x1FD6 MSTORE POP DUP1 PUSH2 0x1E64 MSTORE POP DUP1 PUSH2 0x1CF2 MSTORE POP DUP1 PUSH2 0x1B80 MSTORE POP DUP1 PUSH2 0x1A0E MSTORE POP DUP1 PUSH2 0x189C MSTORE POP DUP1 PUSH2 0x172A MSTORE POP DUP1 PUSH2 0x15B8 MSTORE POP DUP1 PUSH2 0x1446 MSTORE POP DUP1 PUSH2 0x12D4 MSTORE POP DUP1 PUSH2 0x1162 MSTORE POP DUP1 PUSH2 0xFF0 MSTORE POP DUP1 PUSH2 0xE7E MSTORE POP DUP1 PUSH2 0xD0C MSTORE POP DUP1 PUSH2 0xB9A MSTORE POP DUP1 PUSH2 0xA28 MSTORE POP DUP1 PUSH2 0x8B6 MSTORE POP DUP1 PUSH2 0x744 MSTORE POP DUP1 PUSH2 0x5D2 MSTORE POP DUP1 PUSH2 0x460 MSTORE POP DUP1 PUSH2 0x2EE MSTORE POP DUP1 PUSH2 0x2CA7 MSTORE POP DUP1 PUSH2 0x2B35 MSTORE POP DUP1 PUSH2 0x29C3 MSTORE POP DUP1 PUSH2 0x2851 MSTORE POP DUP1 PUSH2 0x26DF MSTORE POP DUP1 PUSH2 0x256D MSTORE POP DUP1 PUSH2 0x23FB MSTORE POP DUP1 PUSH2 0x2289 MSTORE POP DUP1 PUSH2 0x2117 MSTORE POP DUP1 PUSH2 0x1FA5 MSTORE POP DUP1 PUSH2 0x1E33 MSTORE POP DUP1 PUSH2 0x1CC1 MSTORE POP DUP1 PUSH2 0x1B4F MSTORE POP DUP1 PUSH2 0x19DD MSTORE POP DUP1 PUSH2 0x186B MSTORE POP DUP1 PUSH2 0x16F9 MSTORE POP DUP1 PUSH2 0x1587 MSTORE POP DUP1 PUSH2 0x1415 MSTORE POP DUP1 PUSH2 0x12A3 MSTORE POP DUP1 PUSH2 0x1131 MSTORE POP DUP1 PUSH2 0xFBF MSTORE POP DUP1 PUSH2 0xE4D MSTORE POP DUP1 PUSH2 0xCDB MSTORE POP DUP1 PUSH2 0xB69 MSTORE POP DUP1 PUSH2 0x9F7 MSTORE POP DUP1 PUSH2 0x885 MSTORE POP DUP1 PUSH2 0x713 MSTORE POP DUP1 PUSH2 0x5A1 MSTORE POP DUP1 PUSH2 0x42F MSTORE POP DUP1 PUSH2 0x2BD MSTORE POP DUP1 PUSH2 0x2C81 MSTORE POP DUP1 PUSH2 0x2B0F MSTORE POP DUP1 PUSH2 0x299D MSTORE POP DUP1 PUSH2 0x282B MSTORE POP DUP1 PUSH2 0x26B9 MSTORE POP DUP1 PUSH2 0x2547 MSTORE POP DUP1 PUSH2 0x23D5 MSTORE POP DUP1 PUSH2 0x2263 MSTORE POP DUP1 PUSH2 0x20F1 MSTORE POP DUP1 PUSH2 0x1F7F MSTORE POP DUP1 PUSH2 0x1E0D MSTORE POP DUP1 PUSH2 0x1C9B MSTORE POP DUP1 PUSH2 0x1B29 MSTORE POP DUP1 PUSH2 0x19B7 MSTORE POP DUP1 PUSH2 0x1845 MSTORE POP DUP1 PUSH2 0x16D3 MSTORE POP DUP1 PUSH2 0x1561 MSTORE POP DUP1 PUSH2 0x13EF MSTORE POP DUP1 PUSH2 0x127D MSTORE POP DUP1 PUSH2 0x110B MSTORE POP DUP1 PUSH2 0xF99 MSTORE POP DUP1 PUSH2 0xE27 MSTORE POP DUP1 PUSH2 0xCB5 MSTORE POP DUP1 PUSH2 0xB43 MSTORE POP DUP1 PUSH2 0x9D1 MSTORE POP DUP1 PUSH2 0x85F MSTORE POP DUP1 PUSH2 0x6ED MSTORE POP DUP1 PUSH2 0x57B MSTORE POP DUP1 PUSH2 0x409 MSTORE POP DUP1 PUSH2 0x297 MSTORE POP DUP1 PUSH2 0x2C5B MSTORE DUP1 PUSH2 0x3397 MSTORE POP DUP1 PUSH2 0x2AE9 MSTORE DUP1 PUSH2 0x3367 MSTORE POP DUP1 PUSH2 0x2977 MSTORE DUP1 PUSH2 0x3337 MSTORE POP DUP1 PUSH2 0x2805 MSTORE DUP1 PUSH2 0x3307 MSTORE POP DUP1 PUSH2 0x2693 MSTORE DUP1 PUSH2 0x32D7 MSTORE POP DUP1 PUSH2 0x2521 MSTORE DUP1 PUSH2 0x32A7 MSTORE POP DUP1 PUSH2 0x23AF MSTORE DUP1 PUSH2 0x3277 MSTORE POP DUP1 PUSH2 0x223D MSTORE DUP1 PUSH2 0x3247 MSTORE POP DUP1 PUSH2 0x20CB MSTORE DUP1 PUSH2 0x3217 MSTORE POP DUP1 PUSH2 0x1F59 MSTORE DUP1 PUSH2 0x31E7 MSTORE POP DUP1 PUSH2 0x1DE7 MSTORE DUP1 PUSH2 0x31B7 MSTORE POP DUP1 PUSH2 0x1C75 MSTORE DUP1 PUSH2 0x3187 MSTORE POP DUP1 PUSH2 0x1B03 MSTORE DUP1 PUSH2 0x3157 MSTORE POP DUP1 PUSH2 0x1991 MSTORE DUP1 PUSH2 0x3127 MSTORE POP DUP1 PUSH2 0x181F MSTORE DUP1 PUSH2 0x30F7 MSTORE POP DUP1 PUSH2 0x16AD MSTORE DUP1 PUSH2 0x30C7 MSTORE POP DUP1 PUSH2 0x153B MSTORE DUP1 PUSH2 0x3097 MSTORE POP DUP1 PUSH2 0x13C9 MSTORE DUP1 PUSH2 0x3067 MSTORE POP DUP1 PUSH2 0x1257 MSTORE DUP1 PUSH2 0x3037 MSTORE POP DUP1 PUSH2 0x10E5 MSTORE DUP1 PUSH2 0x3007 MSTORE POP DUP1 PUSH2 0xF73 MSTORE DUP1 PUSH2 0x2FD7 MSTORE POP DUP1 PUSH2 0xE01 MSTORE DUP1 PUSH2 0x2FA7 MSTORE POP DUP1 PUSH2 0xC8F MSTORE DUP1 PUSH2 0x2F77 MSTORE POP DUP1 PUSH2 0xB1D MSTORE DUP1 PUSH2 0x2F47 MSTORE POP DUP1 PUSH2 0x9AB MSTORE DUP1 PUSH2 0x2F17 MSTORE POP DUP1 PUSH2 0x839 MSTORE DUP1 PUSH2 0x2EE7 MSTORE POP DUP1 PUSH2 0x6C7 MSTORE DUP1 PUSH2 0x2EB7 MSTORE POP DUP1 PUSH2 0x555 MSTORE DUP1 PUSH2 0x2E87 MSTORE POP DUP1 PUSH2 0x3E3 MSTORE DUP1 PUSH2 0x2E57 MSTORE POP DUP1 PUSH2 0x271 MSTORE DUP1 PUSH2 0x2E27 MSTORE POP DUP1 PUSH2 0x2C2C MSTORE DUP1 PUSH2 0x3B4C MSTORE POP DUP1 PUSH2 0x2ABA MSTORE DUP1 PUSH2 0x3B0A MSTORE POP DUP1 PUSH2 0x2948 MSTORE DUP1 PUSH2 0x3AC8 MSTORE POP DUP1 PUSH2 0x27D6 MSTORE DUP1 PUSH2 0x3A86 MSTORE POP DUP1 PUSH2 0x2664 MSTORE DUP1 PUSH2 0x3A44 MSTORE POP DUP1 PUSH2 0x24F2 MSTORE DUP1 PUSH2 0x3A02 MSTORE POP DUP1 PUSH2 0x2380 MSTORE DUP1 PUSH2 0x39C0 MSTORE POP DUP1 PUSH2 0x220E MSTORE DUP1 PUSH2 0x397E MSTORE POP DUP1 PUSH2 0x209C MSTORE DUP1 PUSH2 0x393C MSTORE POP DUP1 PUSH2 0x1F2A MSTORE DUP1 PUSH2 0x38FA MSTORE POP DUP1 PUSH2 0x1DB8 MSTORE DUP1 PUSH2 0x38B8 MSTORE POP DUP1 PUSH2 0x1C46 MSTORE DUP1 PUSH2 0x3876 MSTORE POP DUP1 PUSH2 0x1AD4 MSTORE DUP1 PUSH2 0x3834 MSTORE POP DUP1 PUSH2 0x1962 MSTORE DUP1 PUSH2 0x37F2 MSTORE POP DUP1 PUSH2 0x17F0 MSTORE DUP1 PUSH2 0x37B0 MSTORE POP DUP1 PUSH2 0x167E MSTORE DUP1 PUSH2 0x376E MSTORE POP DUP1 PUSH2 0x150C MSTORE DUP1 PUSH2 0x372C MSTORE POP DUP1 PUSH2 0x139A MSTORE DUP1 PUSH2 0x36EA MSTORE POP DUP1 PUSH2 0x1228 MSTORE DUP1 PUSH2 0x36A8 MSTORE POP DUP1 PUSH2 0x10B6 MSTORE DUP1 PUSH2 0x3666 MSTORE POP DUP1 PUSH2 0xF44 MSTORE DUP1 PUSH2 0x3624 MSTORE POP DUP1 PUSH2 0xDD2 MSTORE DUP1 PUSH2 0x35E2 MSTORE POP DUP1 PUSH2 0xC60 MSTORE DUP1 PUSH2 0x35A0 MSTORE POP DUP1 PUSH2 0xAEE MSTORE DUP1 PUSH2 0x355E MSTORE POP DUP1 PUSH2 0x97C MSTORE DUP1 PUSH2 0x351C MSTORE POP DUP1 PUSH2 0x80A MSTORE DUP1 PUSH2 0x34DA MSTORE POP DUP1 PUSH2 0x698 MSTORE DUP1 PUSH2 0x3498 MSTORE POP DUP1 PUSH2 0x526 MSTORE DUP1 PUSH2 0x3456 MSTORE POP DUP1 PUSH2 0x3B4 MSTORE DUP1 PUSH2 0x3414 MSTORE POP DUP1 PUSH2 0x242 MSTORE DUP1 PUSH2 0x33D2 MSTORE POP DUP1 PUSH2 0x2BFD MSTORE DUP1 PUSH2 0x430A MSTORE POP DUP1 PUSH2 0x2A8B MSTORE DUP1 PUSH2 0x42C8 MSTORE POP DUP1 PUSH2 0x2919 MSTORE DUP1 PUSH2 0x4286 MSTORE POP DUP1 PUSH2 0x27A7 MSTORE DUP1 PUSH2 0x4244 MSTORE POP DUP1 PUSH2 0x2635 MSTORE DUP1 PUSH2 0x4202 MSTORE POP DUP1 PUSH2 0x24C3 MSTORE DUP1 PUSH2 0x41C0 MSTORE POP DUP1 PUSH2 0x2351 MSTORE DUP1 PUSH2 0x417E MSTORE POP DUP1 PUSH2 0x21DF MSTORE DUP1 PUSH2 0x413C MSTORE POP DUP1 PUSH2 0x206D MSTORE DUP1 PUSH2 0x40FA MSTORE POP DUP1 PUSH2 0x1EFB MSTORE DUP1 PUSH2 0x40B8 MSTORE POP DUP1 PUSH2 0x1D89 MSTORE DUP1 PUSH2 0x4076 MSTORE POP DUP1 PUSH2 0x1C17 MSTORE DUP1 PUSH2 0x4034 MSTORE POP DUP1 PUSH2 0x1AA5 MSTORE DUP1 PUSH2 0x3FF2 MSTORE POP DUP1 PUSH2 0x1933 MSTORE DUP1 PUSH2 0x3FB0 MSTORE POP DUP1 PUSH2 0x17C1 MSTORE DUP1 PUSH2 0x3F6E MSTORE POP DUP1 PUSH2 0x164F MSTORE DUP1 PUSH2 0x3F2C MSTORE POP DUP1 PUSH2 0x14DD MSTORE DUP1 PUSH2 0x3EEA MSTORE POP DUP1 PUSH2 0x136B MSTORE DUP1 PUSH2 0x3EA8 MSTORE POP DUP1 PUSH2 0x11F9 MSTORE DUP1 PUSH2 0x3E66 MSTORE POP DUP1 PUSH2 0x1087 MSTORE DUP1 PUSH2 0x3E24 MSTORE POP DUP1 PUSH2 0xF15 MSTORE DUP1 PUSH2 0x3DE2 MSTORE POP DUP1 PUSH2 0xDA3 MSTORE DUP1 PUSH2 0x3DA0 MSTORE POP DUP1 PUSH2 0xC31 MSTORE DUP1 PUSH2 0x3D5E MSTORE POP DUP1 PUSH2 0xABF MSTORE DUP1 PUSH2 0x3D1C MSTORE POP DUP1 PUSH2 0x94D MSTORE DUP1 PUSH2 0x3CDA MSTORE POP DUP1 PUSH2 0x7DB MSTORE DUP1 PUSH2 0x3C98 MSTORE POP DUP1 PUSH2 0x669 MSTORE DUP1 PUSH2 0x3C56 MSTORE POP DUP1 PUSH2 0x4F7 MSTORE DUP1 PUSH2 0x3C14 MSTORE POP DUP1 PUSH2 0x385 MSTORE DUP1 PUSH2 0x3BD2 MSTORE POP DUP1 PUSH2 0x213 MSTORE DUP1 PUSH2 0x3B90 MSTORE POP DUP1 PUSH2 0x1C3 MSTORE DUP1 PUSH2 0x2D5A MSTORE POP PUSH2 0x45DB PUSH1 0x0 RETURN INVALID PUSH1 0x80 PUSH1 0x40 MSTORE CALLVALUE DUP1 ISZERO PUSH2 0x10 JUMPI PUSH1 0x0 DUP1 REVERT JUMPDEST POP PUSH1 0x4 CALLDATASIZE LT PUSH2 0x7D JUMPI PUSH1 0x0 CALLDATALOAD PUSH1 0xE0 SHR DUP1 PUSH4 0x8A003888 GT PUSH2 0x5B JUMPI DUP1 PUSH4 0x8A003888 EQ PUSH2 0xD1 JUMPI DUP1 PUSH4 0x8E499BCF EQ PUSH2 0xE4 JUMPI DUP1 PUSH4 0xE8315742 EQ PUSH2 0xF9 JUMPI DUP1 PUSH4 0xEEA85ECB EQ PUSH2 0x101 JUMPI PUSH2 0x7D JUMP JUMPDEST DUP1 PUSH4 0x1A125204 EQ PUSH2 0x82 JUMPI DUP1 PUSH4 0x276C2CBA EQ PUSH2 0xAB JUMPI DUP1 PUSH4 0x4DA21942 EQ PUSH2 0xBE JUMPI JUMPDEST PUSH1 0x0 DUP1 REVERT JUMPDEST PUSH2 0x95 PUSH2 0x90 CALLDATASIZE PUSH1 0x4 PUSH2 0x43C7 JUMP JUMPDEST PUSH2 0x114 JUMP JUMPDEST PUSH1 0x40 MLOAD PUSH2 0xA2 SWAP2 SWAP1 PUSH2 0x44F6 JUMP JUMPDEST PUSH1 0x40 MLOAD DUP1 SWAP2 SUB SWAP1 RETURN JUMPDEST PUSH2 0x95 PUSH2 0xB9 CALLDATASIZE PUSH1 0x4 PUSH2 0x43DF JUMP JUMPDEST PUSH2 0x169 JUMP JUMPDEST PUSH2 0x95 PUSH2 0xCC CALLDATASIZE PUSH1 0x4 PUSH2 0x438F JUMP JUMPDEST PUSH2 0x1A6 JUMP JUMPDEST PUSH2 0x95 PUSH2 0xDF CALLDATASIZE PUSH1 0x4 PUSH2 0x43C7 JUMP JUMPDEST PUSH2 0x1B9 JUMP JUMPDEST PUSH2 0xEC PUSH2 0x2D58 JUMP JUMPDEST PUSH1 0x40 MLOAD PUSH2 0xA2 SWAP2 SWAP1 PUSH2 0x4578 JUMP JUMPDEST PUSH2 0xEC PUSH2 0x2D7C JUMP JUMPDEST PUSH2 0x95 PUSH2 0x10F CALLDATASIZE PUSH1 0x4 PUSH2 0x438F JUMP JUMPDEST PUSH2 0x2D81 JUMP JUMPDEST PUSH2 0x11C PUSH2 0x434A JUMP JUMPDEST PUSH1 0x0 PUSH2 0x127 DUP4 PUSH2 0x2E23 JUMP JUMPDEST SWAP1 POP PUSH1 0x0 NOT DUP2 EQ PUSH2 0x143 JUMPI PUSH2 0x13B DUP2 PUSH2 0x1B9 JUMP JUMPDEST SWAP2 POP POP PUSH2 0x164 JUMP JUMPDEST PUSH1 0x40 MLOAD PUSH3 0x461BCD PUSH1 0xE5 SHL DUP2 MSTORE PUSH1 0x4 ADD PUSH2 0x15B SWAP1 PUSH2 0x44C6 JUMP JUMPDEST PUSH1 0x40 MLOAD DUP1 SWAP2 SUB SWAP1 REVERT JUMPDEST SWAP2 SWAP1 POP JUMP JUMPDEST PUSH2 0x171 PUSH2 0x434A JUMP JUMPDEST PUSH2 0x1A0 DUP3 PUSH1 0x40 MLOAD PUSH1 0x20 ADD PUSH2 0x185 SWAP2 SWAP1 PUSH2 0x448D JUMP JUMPDEST PUSH1 0x40 MLOAD PUSH1 0x20 DUP2 DUP4 SUB SUB DUP2 MSTORE SWAP1 PUSH1 0x40 MSTORE DUP1 MLOAD SWAP1 PUSH1 0x20 ADD KECCAK256 PUSH2 0x114 JUMP JUMPDEST SWAP3 SWAP2 POP POP JUMP JUMPDEST PUSH2 0x1AE PUSH2 0x434A JUMP JUMPDEST PUSH1 0x0 PUSH2 0x127 DUP4 PUSH2 0x33CE JUMP JUMPDEST PUSH2 0x1C1 PUSH2 0x434A JUMP JUMPDEST PUSH32 0x0 DUP3 LT PUSH2 0x200 JUMPI PUSH1 0x40 MLOAD PUSH3 0x461BCD PUSH1 0xE5 SHL DUP2 MSTORE PUSH1 0x4 ADD PUSH2 0x15B SWAP1 PUSH2 0x44C6 JUMP JUMPDEST DUP2 PUSH2 0x36E JUMPI PUSH1 0x40 MLOAD DUP1 PUSH2 0x100 ADD PUSH1 0x40 MSTORE DUP1 PUSH32 0x0 PUSH1 0x1 PUSH1 0x1 PUSH1 0xA0 SHL SUB AND DUP2 MSTORE PUSH1 0x20 ADD PUSH32 0x0 PUSH1 0x1 PUSH1 0x1 PUSH1 0xA0 SHL SUB AND DUP2 MSTORE PUSH1 0x20 ADD PUSH32 0x0 DUP2 MSTORE PUSH1 0x20 ADD PUSH32 0x0 DUP2 MSTORE PUSH1 0x20 ADD PUSH32 0x0 PUSH1 0x2 DUP2 GT ISZERO PUSH2 0x2E7 JUMPI INVALID JUMPDEST DUP2 MSTORE PUSH1 0x20 ADD PUSH32 0x0 DUP2 MSTORE PUSH1 0x20 ADD PUSH32 0x0 PUSH1 0x1 PUSH1 0x1 PUSH1 0xA0 SHL SUB AND DUP2 MSTORE PUSH1 0x20 ADD PUSH32 0x0 ISZERO ISZERO DUP2 MSTORE POP SWAP1 POP PUSH2 0x164 JUMP JUMPDEST DUP2 PUSH1 0x1 EQ ISZERO PUSH2 0x4E0 JUMPI PUSH1 0x40 MLOAD DUP1 PUSH2 0x100 ADD PUSH1 0x40 MSTORE DUP1 PUSH32 0x0 PUSH1 0x1 PUSH1 0x1 PUSH1 0xA0 SHL SUB AND DUP2 MSTORE PUSH1 0x20 ADD PUSH32 0x0 PUSH1 0x1 PUSH1 0x1 PUSH1 0xA0 SHL SUB AND DUP2 MSTORE PUSH1 0x20 ADD PUSH32 0x0 DUP2 MSTORE PUSH1 0x20 ADD PUSH32 0x0 DUP2 MSTORE PUSH1 0x20 ADD PUSH32 0x0 PUSH1 0x2 DUP2 GT ISZERO PUSH2 0x459 JUMPI INVALID JUMPDEST DUP2 MSTORE PUSH1 0x20 ADD PUSH32 0x0 DUP2 MSTORE PUSH1 0x20 ADD PUSH32 0x0 PUSH1 0x1 PUSH1 0x1 PUSH1 0xA0 SHL SUB AND DUP2 MSTORE PUSH1 0x20 ADD PUSH32 0x0 ISZERO ISZERO DUP2 MSTORE POP SWAP1 POP PUSH2 0x164 JUMP JUMPDEST DUP2 PUSH1 0x2 EQ ISZERO PUSH2 0x652 JUMPI PUSH1 0x40 MLOAD DUP1 PUSH2 0x100 ADD PUSH1 0x40 MSTORE DUP1 PUSH32 0x0 PUSH1 0x1 PUSH1 0x1 PUSH1 0xA0 SHL SUB AND DUP2 MSTORE PUSH1 0x20 ADD PUSH32 0x0 PUSH1 0x1 PUSH1 0x1 PUSH1 0xA0 SHL SUB AND DUP2 MSTORE PUSH1 0x20 ADD PUSH32 0x0 DUP2 MSTORE PUSH1 0x20 ADD PUSH32 0x0 DUP2 MSTORE PUSH1 0x20 ADD PUSH32 0x0 PUSH1 0x2 DUP2 GT ISZERO PUSH2 0x5CB JUMPI INVALID JUMPDEST DUP2 MSTORE PUSH1 0x20 ADD PUSH32 0x0 DUP2 MSTORE PUSH1 0x20 ADD PUSH32 0x0 PUSH1 0x1 PUSH1 0x1 PUSH1 0xA0 SHL SUB AND DUP2 MSTORE PUSH1 0x20 ADD PUSH32 0x0 ISZERO ISZERO DUP2 MSTORE POP SWAP1 POP PUSH2 0x164 JUMP JUMPDEST DUP2 PUSH1 0x3 EQ ISZERO PUSH2 0x7C4 JUMPI PUSH1 0x40 MLOAD DUP1 PUSH2 0x100 ADD PUSH1 0x40 MSTORE DUP1 PUSH32 0x0 PUSH1 0x1 PUSH1 0x1 PUSH1 0xA0 SHL SUB AND DUP2 MSTORE PUSH1 0x20 ADD PUSH32 0x0 PUSH1 0x1 PUSH1 0x1 PUSH1 0xA0 SHL SUB AND DUP2 MSTORE PUSH1 0x20 ADD PUSH32 0x0 DUP2 MSTORE PUSH1 0x20 ADD PUSH32 0x0 DUP2 MSTORE PUSH1 0x20 ADD PUSH32 0x0 PUSH1 0x2 DUP2 GT ISZERO PUSH2 0x73D JUMPI INVALID JUMPDEST DUP2 MSTORE PUSH1 0x20 ADD PUSH32 0x0 DUP2 MSTORE PUSH1 0x20 ADD PUSH32 0x0 PUSH1 0x1 PUSH1 0x1 PUSH1 0xA0 SHL SUB AND DUP2 MSTORE PUSH1 0x20 ADD PUSH32 0x0 ISZERO ISZERO DUP2 MSTORE POP SWAP1 POP PUSH2 0x164 JUMP JUMPDEST DUP2 PUSH1 0x4 EQ ISZERO PUSH2 0x936 JUMPI PUSH1 0x40 MLOAD DUP1 PUSH2 0x100 ADD PUSH1 0x40 MSTORE DUP1 PUSH32 0x0 PUSH1 0x1 PUSH1 0x1 PUSH1 0xA0 SHL SUB AND DUP2 MSTORE PUSH1 0x20 ADD PUSH32 0x0 PUSH1 0x1 PUSH1 0x1 PUSH1 0xA0 SHL SUB AND DUP2 MSTORE PUSH1 0x20 ADD PUSH32 0x0 DUP2 MSTORE PUSH1 0x20 ADD PUSH32 0x0 DUP2 MSTORE PUSH1 0x20 ADD PUSH32 0x0 PUSH1 0x2 DUP2 GT ISZERO PUSH2 0x8AF JUMPI INVALID JUMPDEST DUP2 MSTORE PUSH1 0x20 ADD PUSH32 0x0 DUP2 MSTORE PUSH1 0x20 ADD PUSH32 0x0 PUSH1 0x1 PUSH1 0x1 PUSH1 0xA0 SHL SUB AND DUP2 MSTORE PUSH1 0x20 ADD PUSH32 0x0 ISZERO ISZERO DUP2 MSTORE POP SWAP1 POP PUSH2 0x164 JUMP JUMPDEST DUP2 PUSH1 0x5 EQ ISZERO PUSH2 0xAA8 JUMPI PUSH1 0x40 MLOAD DUP1 PUSH2 0x100 ADD PUSH1 0x40 MSTORE DUP1 PUSH32 0x0 PUSH1 0x1 PUSH1 0x1 PUSH1 0xA0 SHL SUB AND DUP2 MSTORE PUSH1 0x20 ADD PUSH32 0x0 PUSH1 0x1 PUSH1 0x1 PUSH1 0xA0 SHL SUB AND DUP2 MSTORE PUSH1 0x20 ADD PUSH32 0x0 DUP2 MSTORE PUSH1 0x20 ADD PUSH32 0x0 DUP2 MSTORE PUSH1 0x20 ADD PUSH32 0x0 PUSH1 0x2 DUP2 GT ISZERO PUSH2 0xA21 JUMPI INVALID JUMPDEST DUP2 MSTORE PUSH1 0x20 ADD PUSH32 0x0 DUP2 MSTORE PUSH1 0x20 ADD PUSH32 0x0 PUSH1 0x1 PUSH1 0x1 PUSH1 0xA0 SHL SUB AND DUP2 MSTORE PUSH1 0x20 ADD PUSH32 0x0 ISZERO ISZERO DUP2 MSTORE POP SWAP1 POP PUSH2 0x164 JUMP JUMPDEST DUP2 PUSH1 0x6 EQ ISZERO PUSH2 0xC1A JUMPI PUSH1 0x40 MLOAD DUP1 PUSH2 0x100 ADD PUSH1 0x40 MSTORE DUP1 PUSH32 0x0 PUSH1 0x1 PUSH1 0x1 PUSH1 0xA0 SHL SUB AND DUP2 MSTORE PUSH1 0x20 ADD PUSH32 0x0 PUSH1 0x1 PUSH1 0x1 PUSH1 0xA0 SHL SUB AND DUP2 MSTORE PUSH1 0x20 ADD PUSH32 0x0 DUP2 MSTORE PUSH1 0x20 ADD PUSH32 0x0 DUP2 MSTORE PUSH1 0x20 ADD PUSH32 0x0 PUSH1 0x2 DUP2 GT ISZERO PUSH2 0xB93 JUMPI INVALID JUMPDEST DUP2 MSTORE PUSH1 0x20 ADD PUSH32 0x0 DUP2 MSTORE PUSH1 0x20 ADD PUSH32 0x0 PUSH1 0x1 PUSH1 0x1 PUSH1 0xA0 SHL SUB AND DUP2 MSTORE PUSH1 0x20 ADD PUSH32 0x0 ISZERO ISZERO DUP2 MSTORE POP SWAP1 POP PUSH2 0x164 JUMP JUMPDEST DUP2 PUSH1 0x7 EQ ISZERO PUSH2 0xD8C JUMPI PUSH1 0x40 MLOAD DUP1 PUSH2 0x100 ADD PUSH1 0x40 MSTORE DUP1 PUSH32 0x0 PUSH1 0x1 PUSH1 0x1 PUSH1 0xA0 SHL SUB AND DUP2 MSTORE PUSH1 0x20 ADD PUSH32 0x0 PUSH1 0x1 PUSH1 0x1 PUSH1 0xA0 SHL SUB AND DUP2 MSTORE PUSH1 0x20 ADD PUSH32 0x0 DUP2 MSTORE PUSH1 0x20 ADD PUSH32 0x0 DUP2 MSTORE PUSH1 0x20 ADD PUSH32 0x0 PUSH1 0x2 DUP2 GT ISZERO PUSH2 0xD05 JUMPI INVALID JUMPDEST DUP2 MSTORE PUSH1 0x20 ADD PUSH32 0x0 DUP2 MSTORE PUSH1 0x20 ADD PUSH32 0x0 PUSH1 0x1 PUSH1 0x1 PUSH1 0xA0 SHL SUB AND DUP2 MSTORE PUSH1 0x20 ADD PUSH32 0x0 ISZERO ISZERO DUP2 MSTORE POP SWAP1 POP PUSH2 0x164 JUMP JUMPDEST DUP2 PUSH1 0x8 EQ ISZERO PUSH2 0xEFE JUMPI PUSH1 0x40 MLOAD DUP1 PUSH2 0x100 ADD PUSH1 0x40 MSTORE DUP1 PUSH32 0x0 PUSH1 0x1 PUSH1 0x1 PUSH1 0xA0 SHL SUB AND DUP2 MSTORE PUSH1 0x20 ADD PUSH32 0x0 PUSH1 0x1 PUSH1 0x1 PUSH1 0xA0 SHL SUB AND DUP2 MSTORE PUSH1 0x20 ADD PUSH32 0x0 DUP2 MSTORE PUSH1 0x20 ADD PUSH32 0x0 DUP2 MSTORE PUSH1 0x20 ADD PUSH32 0x0 PUSH1 0x2 DUP2 GT ISZERO PUSH2 0xE77 JUMPI INVALID JUMPDEST DUP2 MSTORE PUSH1 0x20 ADD PUSH32 0x0 DUP2 MSTORE PUSH1 0x20 ADD PUSH32 0x0 PUSH1 0x1 PUSH1 0x1 PUSH1 0xA0 SHL SUB AND DUP2 MSTORE PUSH1 0x20 ADD PUSH32 0x0 ISZERO ISZERO DUP2 MSTORE POP SWAP1 POP PUSH2 0x164 JUMP JUMPDEST DUP2 PUSH1 0x9 EQ ISZERO PUSH2 0x1070 JUMPI PUSH1 0x40 MLOAD DUP1 PUSH2 0x100 ADD PUSH1 0x40 MSTORE DUP1 PUSH32 0x0 PUSH1 0x1 PUSH1 0x1 PUSH1 0xA0 SHL SUB AND DUP2 MSTORE PUSH1 0x20 ADD PUSH32 0x0 PUSH1 0x1 PUSH1 0x1 PUSH1 0xA0 SHL SUB AND DUP2 MSTORE PUSH1 0x20 ADD PUSH32 0x0 DUP2 MSTORE PUSH1 0x20 ADD PUSH32 0x0 DUP2 MSTORE PUSH1 0x20 ADD PUSH32 0x0 PUSH1 0x2 DUP2 GT ISZERO PUSH2 0xFE9 JUMPI INVALID JUMPDEST DUP2 MSTORE PUSH1 0x20 ADD PUSH32 0x0 DUP2 MSTORE PUSH1 0x20 ADD PUSH32 0x0 PUSH1 0x1 PUSH1 0x1 PUSH1 0xA0 SHL SUB AND DUP2 MSTORE PUSH1 0x20 ADD PUSH32 0x0 ISZERO ISZERO DUP2 MSTORE POP SWAP1 POP PUSH2 0x164 JUMP JUMPDEST DUP2 PUSH1 0xA EQ ISZERO PUSH2 0x11E2 JUMPI PUSH1 0x40 MLOAD DUP1 PUSH2 0x100 ADD PUSH1 0x40 MSTORE DUP1 PUSH32 0x0 PUSH1 0x1 PUSH1 0x1 PUSH1 0xA0 SHL SUB AND DUP2 MSTORE PUSH1 0x20 ADD PUSH32 0x0 PUSH1 0x1 PUSH1 0x1 PUSH1 0xA0 SHL SUB AND DUP2 MSTORE PUSH1 0x20 ADD PUSH32 0x0 DUP2 MSTORE PUSH1 0x20 ADD PUSH32 0x0 DUP2 MSTORE PUSH1 0x20 ADD PUSH32 0x0 PUSH1 0x2 DUP2 GT ISZERO PUSH2 0x115B JUMPI INVALID JUMPDEST DUP2 MSTORE PUSH1 0x20 ADD PUSH32 0x0 DUP2 MSTORE PUSH1 0x20 ADD PUSH32 0x0 PUSH1 0x1 PUSH1 0x1 PUSH1 0xA0 SHL SUB AND DUP2 MSTORE PUSH1 0x20 ADD PUSH32 0x0 ISZERO ISZERO DUP2 MSTORE POP SWAP1 POP PUSH2 0x164 JUMP JUMPDEST DUP2 PUSH1 0xB EQ ISZERO PUSH2 0x1354 JUMPI PUSH1 0x40 MLOAD DUP1 PUSH2 0x100 ADD PUSH1 0x40 MSTORE DUP1 PUSH32 0x0 PUSH1 0x1 PUSH1 0x1 PUSH1 0xA0 SHL SUB AND DUP2 MSTORE PUSH1 0x20 ADD PUSH32 0x0 PUSH1 0x1 PUSH1 0x1 PUSH1 0xA0 SHL SUB AND DUP2 MSTORE PUSH1 0x20 ADD PUSH32 0x0 DUP2 MSTORE PUSH1 0x20 ADD PUSH32 0x0 DUP2 MSTORE PUSH1 0x20 ADD PUSH32 0x0 PUSH1 0x2 DUP2 GT ISZERO PUSH2 0x12CD JUMPI INVALID JUMPDEST DUP2 MSTORE PUSH1 0x20 ADD PUSH32 0x0 DUP2 MSTORE PUSH1 0x20 ADD PUSH32 0x0 PUSH1 0x1 PUSH1 0x1 PUSH1 0xA0 SHL SUB AND DUP2 MSTORE PUSH1 0x20 ADD PUSH32 0x0 ISZERO ISZERO DUP2 MSTORE POP SWAP1 POP PUSH2 0x164 JUMP JUMPDEST DUP2 PUSH1 0xC EQ ISZERO PUSH2 0x14C6 JUMPI PUSH1 0x40 MLOAD DUP1 PUSH2 0x100 ADD PUSH1 0x40 MSTORE DUP1 PUSH32 0x0 PUSH1 0x1 PUSH1 0x1 PUSH1 0xA0 SHL SUB AND DUP2 MSTORE PUSH1 0x20 ADD PUSH32 0x0 PUSH1 0x1 PUSH1 0x1 PUSH1 0xA0 SHL SUB AND DUP2 MSTORE PUSH1 0x20 ADD PUSH32 0x0 DUP2 MSTORE PUSH1 0x20 ADD PUSH32 0x0 DUP2 MSTORE PUSH1 0x20 ADD PUSH32 0x0 PUSH1 0x2 DUP2 GT ISZERO PUSH2 0x143F JUMPI INVALID JUMPDEST DUP2 MSTORE PUSH1 0x20 ADD PUSH32 0x0 DUP2 MSTORE PUSH1 0x20 ADD PUSH32 0x0 PUSH1 0x1 PUSH1 0x1 PUSH1 0xA0 SHL SUB AND DUP2 MSTORE PUSH1 0x20 ADD PUSH32 0x0 ISZERO ISZERO DUP2 MSTORE POP SWAP1 POP PUSH2 0x164 JUMP JUMPDEST DUP2 PUSH1 0xD EQ ISZERO PUSH2 0x1638 JUMPI PUSH1 0x40 MLOAD DUP1 PUSH2 0x100 ADD PUSH1 0x40 MSTORE DUP1 PUSH32 0x0 PUSH1 0x1 PUSH1 0x1 PUSH1 0xA0 SHL SUB AND DUP2 MSTORE PUSH1 0x20 ADD PUSH32 0x0 PUSH1 0x1 PUSH1 0x1 PUSH1 0xA0 SHL SUB AND DUP2 MSTORE PUSH1 0x20 ADD PUSH32 0x0 DUP2 MSTORE PUSH1 0x20 ADD PUSH32 0x0 DUP2 MSTORE PUSH1 0x20 ADD PUSH32 0x0 PUSH1 0x2 DUP2 GT ISZERO PUSH2 0x15B1 JUMPI INVALID JUMPDEST DUP2 MSTORE PUSH1 0x20 ADD PUSH32 0x0 DUP2 MSTORE PUSH1 0x20 ADD PUSH32 0x0 PUSH1 0x1 PUSH1 0x1 PUSH1 0xA0 SHL SUB AND DUP2 MSTORE PUSH1 0x20 ADD PUSH32 0x0 ISZERO ISZERO DUP2 MSTORE POP SWAP1 POP PUSH2 0x164 JUMP JUMPDEST DUP2 PUSH1 0xE EQ ISZERO PUSH2 0x17AA JUMPI PUSH1 0x40 MLOAD DUP1 PUSH2 0x100 ADD PUSH1 0x40 MSTORE DUP1 PUSH32 0x0 PUSH1 0x1 PUSH1 0x1 PUSH1 0xA0 SHL SUB AND DUP2 MSTORE PUSH1 0x20 ADD PUSH32 0x0 PUSH1 0x1 PUSH1 0x1 PUSH1 0xA0 SHL SUB AND DUP2 MSTORE PUSH1 0x20 ADD PUSH32 0x0 DUP2 MSTORE PUSH1 0x20 ADD PUSH32 0x0 DUP2 MSTORE PUSH1 0x20 ADD PUSH32 0x0 PUSH1 0x2 DUP2 GT ISZERO PUSH2 0x1723 JUMPI INVALID JUMPDEST DUP2 MSTORE PUSH1 0x20 ADD PUSH32 0x0 DUP2 MSTORE PUSH1 0x20 ADD PUSH32 0x0 PUSH1 0x1 PUSH1 0x1 PUSH1 0xA0 SHL SUB AND DUP2 MSTORE PUSH1 0x20 ADD PUSH32 0x0 ISZERO ISZERO DUP2 MSTORE POP SWAP1 POP PUSH2 0x164 JUMP JUMPDEST DUP2 PUSH1 0xF EQ ISZERO PUSH2 0x191C JUMPI PUSH1 0x40 MLOAD DUP1 PUSH2 0x100 ADD PUSH1 0x40 MSTORE DUP1 PUSH32 0x0 PUSH1 0x1 PUSH1 0x1 PUSH1 0xA0 SHL SUB AND DUP2 MSTORE PUSH1 0x20 ADD PUSH32 0x0 PUSH1 0x1 PUSH1 0x1 PUSH1 0xA0 SHL SUB AND DUP2 MSTORE PUSH1 0x20 ADD PUSH32 0x0 DUP2 MSTORE PUSH1 0x20 ADD PUSH32 0x0 DUP2 MSTORE PUSH1 0x20 ADD PUSH32 0x0 PUSH1 0x2 DUP2 GT ISZERO PUSH2 0x1895 JUMPI INVALID JUMPDEST DUP2 MSTORE PUSH1 0x20 ADD PUSH32 0x0 DUP2 MSTORE PUSH1 0x20 ADD PUSH32 0x0 PUSH1 0x1 PUSH1 0x1 PUSH1 0xA0 SHL SUB AND DUP2 MSTORE PUSH1 0x20 ADD PUSH32 0x0 ISZERO ISZERO DUP2 MSTORE POP SWAP1 POP PUSH2 0x164 JUMP JUMPDEST DUP2 PUSH1 0x10 EQ ISZERO PUSH2 0x1A8E JUMPI PUSH1 0x40 MLOAD DUP1 PUSH2 0x100 ADD PUSH1 0x40 MSTORE DUP1 PUSH32 0x0 PUSH1 0x1 PUSH1 0x1 PUSH1 0xA0 SHL SUB AND DUP2 MSTORE PUSH1 0x20 ADD PUSH32 0x0 PUSH1 0x1 PUSH1 0x1 PUSH1 0xA0 SHL SUB AND DUP2 MSTORE PUSH1 0x20 ADD PUSH32 0x0 DUP2 MSTORE PUSH1 0x20 ADD PUSH32 0x0 DUP2 MSTORE PUSH1 0x20 ADD PUSH32 0x0 PUSH1 0x2 DUP2 GT ISZERO PUSH2 0x1A07 JUMPI INVALID JUMPDEST DUP2 MSTORE PUSH1 0x20 ADD PUSH32 0x0 DUP2 MSTORE PUSH1 0x20 ADD PUSH32 0x0 PUSH1 0x1 PUSH1 0x1 PUSH1 0xA0 SHL SUB AND DUP2 MSTORE PUSH1 0x20 ADD PUSH32 0x0 ISZERO ISZERO DUP2 MSTORE POP SWAP1 POP PUSH2 0x164 JUMP JUMPDEST DUP2 PUSH1 0x11 EQ ISZERO PUSH2 0x1C00 JUMPI PUSH1 0x40 MLOAD DUP1 PUSH2 0x100 ADD PUSH1 0x40 MSTORE DUP1 PUSH32 0x0 PUSH1 0x1 PUSH1 0x1 PUSH1 0xA0 SHL SUB AND DUP2 MSTORE PUSH1 0x20 ADD PUSH32 0x0 PUSH1 0x1 PUSH1 0x1 PUSH1 0xA0 SHL SUB AND DUP2 MSTORE PUSH1 0x20 ADD PUSH32 0x0 DUP2 MSTORE PUSH1 0x20 ADD PUSH32 0x0 DUP2 MSTORE PUSH1 0x20 ADD PUSH32 0x0 PUSH1 0x2 DUP2 GT ISZERO PUSH2 0x1B79 JUMPI INVALID JUMPDEST DUP2 MSTORE PUSH1 0x20 ADD PUSH32 0x0 DUP2 MSTORE PUSH1 0x20 ADD PUSH32 0x0 PUSH1 0x1 PUSH1 0x1 PUSH1 0xA0 SHL SUB AND DUP2 MSTORE PUSH1 0x20 ADD PUSH32 0x0 ISZERO ISZERO DUP2 MSTORE POP SWAP1 POP PUSH2 0x164 JUMP JUMPDEST DUP2 PUSH1 0x12 EQ ISZERO PUSH2 0x1D72 JUMPI PUSH1 0x40 MLOAD DUP1 PUSH2 0x100 ADD PUSH1 0x40 MSTORE DUP1 PUSH32 0x0 PUSH1 0x1 PUSH1 0x1 PUSH1 0xA0 SHL SUB AND DUP2 MSTORE PUSH1 0x20 ADD PUSH32 0x0 PUSH1 0x1 PUSH1 0x1 PUSH1 0xA0 SHL SUB AND DUP2 MSTORE PUSH1 0x20 ADD PUSH32 0x0 DUP2 MSTORE PUSH1 0x20 ADD PUSH32 0x0 DUP2 MSTORE PUSH1 0x20 ADD PUSH32 0x0 PUSH1 0x2 DUP2 GT ISZERO PUSH2 0x1CEB JUMPI INVALID JUMPDEST DUP2 MSTORE PUSH1 0x20 ADD PUSH32 0x0 DUP2 MSTORE PUSH1 0x20 ADD PUSH32 0x0 PUSH1 0x1 PUSH1 0x1 PUSH1 0xA0 SHL SUB AND DUP2 MSTORE PUSH1 0x20 ADD PUSH32 0x0 ISZERO ISZERO DUP2 MSTORE POP SWAP1 POP PUSH2 0x164 JUMP JUMPDEST DUP2 PUSH1 0x13 EQ ISZERO PUSH2 0x1EE4 JUMPI PUSH1 0x40 MLOAD DUP1 PUSH2 0x100 ADD PUSH1 0x40 MSTORE DUP1 PUSH32 0x0 PUSH1 0x1 PUSH1 0x1 PUSH1 0xA0 SHL SUB AND DUP2 MSTORE PUSH1 0x20 ADD PUSH32 0x0 PUSH1 0x1 PUSH1 0x1 PUSH1 0xA0 SHL SUB AND DUP2 MSTORE PUSH1 0x20 ADD PUSH32 0x0 DUP2 MSTORE PUSH1 0x20 ADD PUSH32 0x0 DUP2 MSTORE PUSH1 0x20 ADD PUSH32 0x0 PUSH1 0x2 DUP2 GT ISZERO PUSH2 0x1E5D JUMPI INVALID JUMPDEST DUP2 MSTORE PUSH1 0x20 ADD PUSH32 0x0 DUP2 MSTORE PUSH1 0x20 ADD PUSH32 0x0 PUSH1 0x1 PUSH1 0x1 PUSH1 0xA0 SHL SUB AND DUP2 MSTORE PUSH1 0x20 ADD PUSH32 0x0 ISZERO ISZERO DUP2 MSTORE POP SWAP1 POP PUSH2 0x164 JUMP JUMPDEST DUP2 PUSH1 0x14 EQ ISZERO PUSH2 0x2056 JUMPI PUSH1 0x40 MLOAD DUP1 PUSH2 0x100 ADD PUSH1 0x40 MSTORE DUP1 PUSH32 0x0 PUSH1 0x1 PUSH1 0x1 PUSH1 0xA0 SHL SUB AND DUP2 MSTORE PUSH1 0x20 ADD PUSH32 0x0 PUSH1 0x1 PUSH1 0x1 PUSH1 0xA0 SHL SUB AND DUP2 MSTORE PUSH1 0x20 ADD PUSH32 0x0 DUP2 MSTORE PUSH1 0x20 ADD PUSH32 0x0 DUP2 MSTORE PUSH1 0x20 ADD PUSH32 0x0 PUSH1 0x2 DUP2 GT ISZERO PUSH2 0x1FCF JUMPI INVALID JUMPDEST DUP2 MSTORE PUSH1 0x20 ADD PUSH32 0x0 DUP2 MSTORE PUSH1 0x20 ADD PUSH32 0x0 PUSH1 0x1 PUSH1 0x1 PUSH1 0xA0 SHL SUB AND DUP2 MSTORE PUSH1 0x20 ADD PUSH32 0x0 ISZERO ISZERO DUP2 MSTORE POP SWAP1 POP PUSH2 0x164 JUMP JUMPDEST DUP2 PUSH1 0x15 EQ ISZERO PUSH2 0x21C8 JUMPI PUSH1 0x40 MLOAD DUP1 PUSH2 0x100 ADD PUSH1 0x40 MSTORE DUP1 PUSH32 0x0 PUSH1 0x1 PUSH1 0x1 PUSH1 0xA0 SHL SUB AND DUP2 MSTORE PUSH1 0x20 ADD PUSH32 0x0 PUSH1 0x1 PUSH1 0x1 PUSH1 0xA0 SHL SUB AND DUP2 MSTORE PUSH1 0x20 ADD PUSH32 0x0 DUP2 MSTORE PUSH1 0x20 ADD PUSH32 0x0 DUP2 MSTORE PUSH1 0x20 ADD PUSH32 0x0 PUSH1 0x2 DUP2 GT ISZERO PUSH2 0x2141 JUMPI INVALID JUMPDEST DUP2 MSTORE PUSH1 0x20 ADD PUSH32 0x0 DUP2 MSTORE PUSH1 0x20 ADD PUSH32 0x0 PUSH1 0x1 PUSH1 0x1 PUSH1 0xA0 SHL SUB AND DUP2 MSTORE PUSH1 0x20 ADD PUSH32 0x0 ISZERO ISZERO DUP2 MSTORE POP SWAP1 POP PUSH2 0x164 JUMP JUMPDEST DUP2 PUSH1 0x16 EQ ISZERO PUSH2 0x233A JUMPI PUSH1 0x40 MLOAD DUP1 PUSH2 0x100 ADD PUSH1 0x40 MSTORE DUP1 PUSH32 0x0 PUSH1 0x1 PUSH1 0x1 PUSH1 0xA0 SHL SUB AND DUP2 MSTORE PUSH1 0x20 ADD PUSH32 0x0 PUSH1 0x1 PUSH1 0x1 PUSH1 0xA0 SHL SUB AND DUP2 MSTORE PUSH1 0x20 ADD PUSH32 0x0 DUP2 MSTORE PUSH1 0x20 ADD PUSH32 0x0 DUP2 MSTORE PUSH1 0x20 ADD PUSH32 0x0 PUSH1 0x2 DUP2 GT ISZERO PUSH2 0x22B3 JUMPI INVALID JUMPDEST DUP2 MSTORE PUSH1 0x20 ADD PUSH32 0x0 DUP2 MSTORE PUSH1 0x20 ADD PUSH32 0x0 PUSH1 0x1 PUSH1 0x1 PUSH1 0xA0 SHL SUB AND DUP2 MSTORE PUSH1 0x20 ADD PUSH32 0x0 ISZERO ISZERO DUP2 MSTORE POP SWAP1 POP PUSH2 0x164 JUMP JUMPDEST DUP2 PUSH1 0x17 EQ ISZERO PUSH2 0x24AC JUMPI PUSH1 0x40 MLOAD DUP1 PUSH2 0x100 ADD PUSH1 0x40 MSTORE DUP1 PUSH32 0x0 PUSH1 0x1 PUSH1 0x1 PUSH1 0xA0 SHL SUB AND DUP2 MSTORE PUSH1 0x20 ADD PUSH32 0x0 PUSH1 0x1 PUSH1 0x1 PUSH1 0xA0 SHL SUB AND DUP2 MSTORE PUSH1 0x20 ADD PUSH32 0x0 DUP2 MSTORE PUSH1 0x20 ADD PUSH32 0x0 DUP2 MSTORE PUSH1 0x20 ADD PUSH32 0x0 PUSH1 0x2 DUP2 GT ISZERO PUSH2 0x2425 JUMPI INVALID JUMPDEST DUP2 MSTORE PUSH1 0x20 ADD PUSH32 0x0 DUP2 MSTORE PUSH1 0x20 ADD PUSH32 0x0 PUSH1 0x1 PUSH1 0x1 PUSH1 0xA0 SHL SUB AND DUP2 MSTORE PUSH1 0x20 ADD PUSH32 0x0 ISZERO ISZERO DUP2 MSTORE POP SWAP1 POP PUSH2 0x164 JUMP JUMPDEST DUP2 PUSH1 0x18 EQ ISZERO PUSH2 0x261E JUMPI PUSH1 0x40 MLOAD DUP1 PUSH2 0x100 ADD PUSH1 0x40 MSTORE DUP1 PUSH32 0x0 PUSH1 0x1 PUSH1 0x1 PUSH1 0xA0 SHL SUB AND DUP2 MSTORE PUSH1 0x20 ADD PUSH32 0x0 PUSH1 0x1 PUSH1 0x1 PUSH1 0xA0 SHL SUB AND DUP2 MSTORE PUSH1 0x20 ADD PUSH32 0x0 DUP2 MSTORE PUSH1 0x20 ADD PUSH32 0x0 DUP2 MSTORE PUSH1 0x20 ADD PUSH32 0x0 PUSH1 0x2 DUP2 GT ISZERO PUSH2 0x2597 JUMPI INVALID JUMPDEST DUP2 MSTORE PUSH1 0x20 ADD PUSH32 0x0 DUP2 MSTORE PUSH1 0x20 ADD PUSH32 0x0 PUSH1 0x1 PUSH1 0x1 PUSH1 0xA0 SHL SUB AND DUP2 MSTORE PUSH1 0x20 ADD PUSH32 0x0 ISZERO ISZERO DUP2 MSTORE POP SWAP1 POP PUSH2 0x164 JUMP JUMPDEST DUP2 PUSH1 0x19 EQ ISZERO PUSH2 0x2790 JUMPI PUSH1 0x40 MLOAD DUP1 PUSH2 0x100 ADD PUSH1 0x40 MSTORE DUP1 PUSH32 0x0 PUSH1 0x1 PUSH1 0x1 PUSH1 0xA0 SHL SUB AND DUP2 MSTORE PUSH1 0x20 ADD PUSH32 0x0 PUSH1 0x1 PUSH1 0x1 PUSH1 0xA0 SHL SUB AND DUP2 MSTORE PUSH1 0x20 ADD PUSH32 0x0 DUP2 MSTORE PUSH1 0x20 ADD PUSH32 0x0 DUP2 MSTORE PUSH1 0x20 ADD PUSH32 0x0 PUSH1 0x2 DUP2 GT ISZERO PUSH2 0x2709 JUMPI INVALID JUMPDEST DUP2 MSTORE PUSH1 0x20 ADD PUSH32 0x0 DUP2 MSTORE PUSH1 0x20 ADD PUSH32 0x0 PUSH1 0x1 PUSH1 0x1 PUSH1 0xA0 SHL SUB AND DUP2 MSTORE PUSH1 0x20 ADD PUSH32 0x0 ISZERO ISZERO DUP2 MSTORE POP SWAP1 POP PUSH2 0x164 JUMP JUMPDEST DUP2 PUSH1 0x1A EQ ISZERO PUSH2 0x2902 JUMPI PUSH1 0x40 MLOAD DUP1 PUSH2 0x100 ADD PUSH1 0x40 MSTORE DUP1 PUSH32 0x0 PUSH1 0x1 PUSH1 0x1 PUSH1 0xA0 SHL SUB AND DUP2 MSTORE PUSH1 0x20 ADD PUSH32 0x0 PUSH1 0x1 PUSH1 0x1 PUSH1 0xA0 SHL SUB AND DUP2 MSTORE PUSH1 0x20 ADD PUSH32 0x0 DUP2 MSTORE PUSH1 0x20 ADD PUSH32 0x0 DUP2 MSTORE PUSH1 0x20 ADD PUSH32 0x0 PUSH1 0x2 DUP2 GT ISZERO PUSH2 0x287B JUMPI INVALID JUMPDEST DUP2 MSTORE PUSH1 0x20 ADD PUSH32 0x0 DUP2 MSTORE PUSH1 0x20 ADD PUSH32 0x0 PUSH1 0x1 PUSH1 0x1 PUSH1 0xA0 SHL SUB AND DUP2 MSTORE PUSH1 0x20 ADD PUSH32 0x0 ISZERO ISZERO DUP2 MSTORE POP SWAP1 POP PUSH2 0x164 JUMP JUMPDEST DUP2 PUSH1 0x1B EQ ISZERO PUSH2 0x2A74 JUMPI PUSH1 0x40 MLOAD DUP1 PUSH2 0x100 ADD PUSH1 0x40 MSTORE DUP1 PUSH32 0x0 PUSH1 0x1 PUSH1 0x1 PUSH1 0xA0 SHL SUB AND DUP2 MSTORE PUSH1 0x20 ADD PUSH32 0x0 PUSH1 0x1 PUSH1 0x1 PUSH1 0xA0 SHL SUB AND DUP2 MSTORE PUSH1 0x20 ADD PUSH32 0x0 DUP2 MSTORE PUSH1 0x20 ADD PUSH32 0x0 DUP2 MSTORE PUSH1 0x20 ADD PUSH32 0x0 PUSH1 0x2 DUP2 GT ISZERO PUSH2 0x29ED JUMPI INVALID JUMPDEST DUP2 MSTORE PUSH1 0x20 ADD PUSH32 0x0 DUP2 MSTORE PUSH1 0x20 ADD PUSH32 0x0 PUSH1 0x1 PUSH1 0x1 PUSH1 0xA0 SHL SUB AND DUP2 MSTORE PUSH1 0x20 ADD PUSH32 0x0 ISZERO ISZERO DUP2 MSTORE POP SWAP1 POP PUSH2 0x164 JUMP JUMPDEST DUP2 PUSH1 0x1C EQ ISZERO PUSH2 0x2BE6 JUMPI PUSH1 0x40 MLOAD DUP1 PUSH2 0x100 ADD PUSH1 0x40 MSTORE DUP1 PUSH32 0x0 PUSH1 0x1 PUSH1 0x1 PUSH1 0xA0 SHL SUB AND DUP2 MSTORE PUSH1 0x20 ADD PUSH32 0x0 PUSH1 0x1 PUSH1 0x1 PUSH1 0xA0 SHL SUB AND DUP2 MSTORE PUSH1 0x20 ADD PUSH32 0x0 DUP2 MSTORE PUSH1 0x20 ADD PUSH32 0x0 DUP2 MSTORE PUSH1 0x20 ADD PUSH32 0x0 PUSH1 0x2 DUP2 GT ISZERO PUSH2 0x2B5F JUMPI INVALID JUMPDEST DUP2 MSTORE PUSH1 0x20 ADD PUSH32 0x0 DUP2 MSTORE PUSH1 0x20 ADD PUSH32 0x0 PUSH1 0x1 PUSH1 0x1 PUSH1 0xA0 SHL SUB AND DUP2 MSTORE PUSH1 0x20 ADD PUSH32 0x0 ISZERO ISZERO DUP2 MSTORE POP SWAP1 POP PUSH2 0x164 JUMP JUMPDEST DUP2 PUSH1 0x1D EQ ISZERO PUSH2 0x164 JUMPI PUSH1 0x40 MLOAD DUP1 PUSH2 0x100 ADD PUSH1 0x40 MSTORE DUP1 PUSH32 0x0 PUSH1 0x1 PUSH1 0x1 PUSH1 0xA0 SHL SUB AND DUP2 MSTORE PUSH1 0x20 ADD PUSH32 0x0 PUSH1 0x1 PUSH1 0x1 PUSH1 0xA0 SHL SUB AND DUP2 MSTORE PUSH1 0x20 ADD PUSH32 0x0 DUP2 MSTORE PUSH1 0x20 ADD PUSH32 0x0 DUP2 MSTORE PUSH1 0x20 ADD PUSH32 0x0 PUSH1 0x2 DUP2 GT ISZERO PUSH2 0x2CD1 JUMPI INVALID JUMPDEST DUP2 MSTORE PUSH1 0x20 ADD PUSH32 0x0 DUP2 MSTORE PUSH1 0x20 ADD PUSH32 0x0 PUSH1 0x1 PUSH1 0x1 PUSH1 0xA0 SHL SUB AND DUP2 MSTORE PUSH1 0x20 ADD PUSH32 0x0 ISZERO ISZERO DUP2 MSTORE POP SWAP1 POP PUSH2 0x164 JUMP JUMPDEST PUSH32 0x0 DUP2 JUMP JUMPDEST PUSH1 0x1E DUP2 JUMP JUMPDEST PUSH2 0x2D89 PUSH2 0x434A JUMP JUMPDEST PUSH1 0x0 PUSH2 0x2D94 DUP4 PUSH2 0x3B8C JUMP JUMPDEST SWAP1 POP PUSH1 0x0 NOT DUP2 EQ PUSH2 0x2DA8 JUMPI PUSH2 0x13B DUP2 PUSH2 0x1B9 JUMP JUMPDEST PUSH2 0x2E1C DUP4 PUSH1 0x1 PUSH1 0x1 PUSH1 0xA0 SHL SUB AND PUSH4 0x6F307DC3 PUSH1 0x40 MLOAD DUP2 PUSH4 0xFFFFFFFF AND PUSH1 0xE0 SHL DUP2 MSTORE PUSH1 0x4 ADD PUSH1 0x20 PUSH1 0x40 MLOAD DUP1 DUP4 SUB DUP2 DUP7 DUP1 EXTCODESIZE ISZERO DUP1 ISZERO PUSH2 0x2DE4 JUMPI PUSH1 0x0 DUP1 REVERT JUMPDEST POP GAS STATICCALL ISZERO DUP1 ISZERO PUSH2 0x2DF8 JUMPI RETURNDATASIZE PUSH1 0x0 DUP1 RETURNDATACOPY RETURNDATASIZE PUSH1 0x0 REVERT JUMPDEST POP POP POP POP PUSH1 0x40 MLOAD RETURNDATASIZE PUSH1 0x1F NOT PUSH1 0x1F DUP3 ADD AND DUP3 ADD DUP1 PUSH1 0x40 MSTORE POP DUP2 ADD SWAP1 PUSH2 0xCC SWAP2 SWAP1 PUSH2 0x43AB JUMP JUMPDEST SWAP4 SWAP3 POP POP POP JUMP JUMPDEST PUSH1 0x0 PUSH32 0x0 DUP3 EQ ISZERO PUSH2 0x2E55 JUMPI POP PUSH1 0x0 PUSH2 0x164 JUMP JUMPDEST PUSH32 0x0 DUP3 EQ ISZERO PUSH2 0x2E85 JUMPI POP PUSH1 0x1 PUSH2 0x164 JUMP JUMPDEST PUSH32 0x0 DUP3 EQ ISZERO PUSH2 0x2EB5 JUMPI POP PUSH1 0x2 PUSH2 0x164 JUMP JUMPDEST PUSH32 0x0 DUP3 EQ ISZERO PUSH2 0x2EE5 JUMPI POP PUSH1 0x3 PUSH2 0x164 JUMP JUMPDEST PUSH32 0x0 DUP3 EQ ISZERO PUSH2 0x2F15 JUMPI POP PUSH1 0x4 PUSH2 0x164 JUMP JUMPDEST PUSH32 0x0 DUP3 EQ ISZERO PUSH2 0x2F45 JUMPI POP PUSH1 0x5 PUSH2 0x164 JUMP JUMPDEST PUSH32 0x0 DUP3 EQ ISZERO PUSH2 0x2F75 JUMPI POP PUSH1 0x6 PUSH2 0x164 JUMP JUMPDEST PUSH32 0x0 DUP3 EQ ISZERO PUSH2 0x2FA5 JUMPI POP PUSH1 0x7 PUSH2 0x164 JUMP JUMPDEST PUSH32 0x0 DUP3 EQ ISZERO PUSH2 0x2FD5 JUMPI POP PUSH1 0x8 PUSH2 0x164 JUMP JUMPDEST PUSH32 0x0 DUP3 EQ ISZERO PUSH2 0x3005 JUMPI POP PUSH1 0x9 PUSH2 0x164 JUMP JUMPDEST PUSH32 0x0 DUP3 EQ ISZERO PUSH2 0x3035 JUMPI POP PUSH1 0xA PUSH2 0x164 JUMP JUMPDEST PUSH32 0x0 DUP3 EQ ISZERO PUSH2 0x3065 JUMPI POP PUSH1 0xB PUSH2 0x164 JUMP JUMPDEST PUSH32 0x0 DUP3 EQ ISZERO PUSH2 0x3095 JUMPI POP PUSH1 0xC PUSH2 0x164 JUMP JUMPDEST PUSH32 0x0 DUP3 EQ ISZERO PUSH2 0x30C5 JUMPI POP PUSH1 0xD PUSH2 0x164 JUMP JUMPDEST PUSH32 0x0 DUP3 EQ ISZERO PUSH2 0x30F5 JUMPI POP PUSH1 0xE PUSH2 0x164 JUMP JUMPDEST PUSH32 0x0 DUP3 EQ ISZERO PUSH2 0x3125 JUMPI POP PUSH1 0xF PUSH2 0x164 JUMP JUMPDEST PUSH32 0x0 DUP3 EQ ISZERO PUSH2 0x3155 JUMPI POP PUSH1 0x10 PUSH2 0x164 JUMP JUMPDEST PUSH32 0x0 DUP3 EQ ISZERO PUSH2 0x3185 JUMPI POP PUSH1 0x11 PUSH2 0x164 JUMP JUMPDEST PUSH32 0x0 DUP3 EQ ISZERO PUSH2 0x31B5 JUMPI POP PUSH1 0x12 PUSH2 0x164 JUMP JUMPDEST PUSH32 0x0 DUP3 EQ ISZERO PUSH2 0x31E5 JUMPI POP PUSH1 0x13 PUSH2 0x164 JUMP JUMPDEST PUSH32 0x0 DUP3 EQ ISZERO PUSH2 0x3215 JUMPI POP PUSH1 0x14 PUSH2 0x164 JUMP JUMPDEST PUSH32 0x0 DUP3 EQ ISZERO PUSH2 0x3245 JUMPI POP PUSH1 0x15 PUSH2 0x164 JUMP JUMPDEST PUSH32 0x0 DUP3 EQ ISZERO PUSH2 0x3275 JUMPI POP PUSH1 0x16 PUSH2 0x164 JUMP JUMPDEST PUSH32 0x0 DUP3 EQ ISZERO PUSH2 0x32A5 JUMPI POP PUSH1 0x17 PUSH2 0x164 JUMP JUMPDEST PUSH32 0x0 DUP3 EQ ISZERO PUSH2 0x32D5 JUMPI POP PUSH1 0x18 PUSH2 0x164 JUMP JUMPDEST PUSH32 0x0 DUP3 EQ ISZERO PUSH2 0x3305 JUMPI POP PUSH1 0x19 PUSH2 0x164 JUMP JUMPDEST PUSH32 0x0 DUP3 EQ ISZERO PUSH2 0x3335 JUMPI POP PUSH1 0x1A PUSH2 0x164 JUMP JUMPDEST PUSH32 0x0 DUP3 EQ ISZERO PUSH2 0x3365 JUMPI POP PUSH1 0x1B PUSH2 0x164 JUMP JUMPDEST PUSH32 0x0 DUP3 EQ ISZERO PUSH2 0x3395 JUMPI POP PUSH1 0x1C PUSH2 0x164 JUMP JUMPDEST PUSH32 0x0 DUP3 EQ ISZERO PUSH2 0x33C5 JUMPI POP PUSH1 0x1D PUSH2 0x164 JUMP JUMPDEST POP PUSH1 0x0 NOT SWAP2 SWAP1 POP JUMP JUMPDEST PUSH1 0x0 PUSH32 0x0 PUSH1 0x1 PUSH1 0x1 PUSH1 0xA0 SHL SUB AND DUP3 PUSH1 0x1 PUSH1 0x1 PUSH1 0xA0 SHL SUB AND EQ ISZERO PUSH2 0x3412 JUMPI POP PUSH1 0x0 PUSH2 0x164 JUMP JUMPDEST PUSH32 0x0 PUSH1 0x1 PUSH1 0x1 PUSH1 0xA0 SHL SUB AND DUP3 PUSH1 0x1 PUSH1 0x1 PUSH1 0xA0 SHL SUB AND EQ ISZERO PUSH2 0x3454 JUMPI POP PUSH1 0x1 PUSH2 0x164 JUMP JUMPDEST PUSH32 0x0 PUSH1 0x1 PUSH1 0x1 PUSH1 0xA0 SHL SUB AND DUP3 PUSH1 0x1 PUSH1 0x1 PUSH1 0xA0 SHL SUB AND EQ ISZERO PUSH2 0x3496 JUMPI POP PUSH1 0x2 PUSH2 0x164 JUMP JUMPDEST PUSH32 0x0 PUSH1 0x1 PUSH1 0x1 PUSH1 0xA0 SHL SUB AND DUP3 PUSH1 0x1 PUSH1 0x1 PUSH1 0xA0 SHL SUB AND EQ ISZERO PUSH2 0x34D8 JUMPI POP PUSH1 0x3 PUSH2 0x164 JUMP JUMPDEST PUSH32 0x0 PUSH1 0x1 PUSH1 0x1 PUSH1 0xA0 SHL SUB AND DUP3 PUSH1 0x1 PUSH1 0x1 PUSH1 0xA0 SHL SUB AND EQ ISZERO PUSH2 0x351A JUMPI POP PUSH1 0x4 PUSH2 0x164 JUMP JUMPDEST PUSH32 0x0 PUSH1 0x1 PUSH1 0x1 PUSH1 0xA0 SHL SUB AND DUP3 PUSH1 0x1 PUSH1 0x1 PUSH1 0xA0 SHL SUB AND EQ ISZERO PUSH2 0x355C JUMPI POP PUSH1 0x5 PUSH2 0x164 JUMP JUMPDEST PUSH32 0x0 PUSH1 0x1 PUSH1 0x1 PUSH1 0xA0 SHL SUB AND DUP3 PUSH1 0x1 PUSH1 0x1 PUSH1 0xA0 SHL SUB AND EQ ISZERO PUSH2 0x359E JUMPI POP PUSH1 0x6 PUSH2 0x164 JUMP JUMPDEST PUSH32 0x0 PUSH1 0x1 PUSH1 0x1 PUSH1 0xA0 SHL SUB AND DUP3 PUSH1 0x1 PUSH1 0x1 PUSH1 0xA0 SHL SUB AND EQ ISZERO PUSH2 0x35E0 JUMPI POP PUSH1 0x7 PUSH2 0x164 JUMP JUMPDEST PUSH32 0x0 PUSH1 0x1 PUSH1 0x1 PUSH1 0xA0 SHL SUB AND DUP3 PUSH1 0x1 PUSH1 0x1 PUSH1 0xA0 SHL SUB AND EQ ISZERO PUSH2 0x3622 JUMPI POP PUSH1 0x8 PUSH2 0x164 JUMP JUMPDEST PUSH32 0x0 PUSH1 0x1 PUSH1 0x1 PUSH1 0xA0 SHL SUB AND DUP3 PUSH1 0x1 PUSH1 0x1 PUSH1 0xA0 SHL SUB AND EQ ISZERO PUSH2 0x3664 JUMPI POP PUSH1 0x9 PUSH2 0x164 JUMP JUMPDEST PUSH32 0x0 PUSH1 0x1 PUSH1 0x1 PUSH1 0xA0 SHL SUB AND DUP3 PUSH1 0x1 PUSH1 0x1 PUSH1 0xA0 SHL SUB AND EQ ISZERO PUSH2 0x36A6 JUMPI POP PUSH1 0xA PUSH2 0x164 JUMP JUMPDEST PUSH32 0x0 PUSH1 0x1 PUSH1 0x1 PUSH1 0xA0 SHL SUB AND DUP3 PUSH1 0x1 PUSH1 0x1 PUSH1 0xA0 SHL SUB AND EQ ISZERO PUSH2 0x36E8 JUMPI POP PUSH1 0xB PUSH2 0x164 JUMP JUMPDEST PUSH32 0x0 PUSH1 0x1 PUSH1 0x1 PUSH1 0xA0 SHL SUB AND DUP3 PUSH1 0x1 PUSH1 0x1 PUSH1 0xA0 SHL SUB AND EQ ISZERO PUSH2 0x372A JUMPI POP PUSH1 0xC PUSH2 0x164 JUMP JUMPDEST PUSH32 0x0 PUSH1 0x1 PUSH1 0x1 PUSH1 0xA0 SHL SUB AND DUP3 PUSH1 0x1 PUSH1 0x1 PUSH1 0xA0 SHL SUB AND EQ ISZERO PUSH2 0x376C JUMPI POP PUSH1 0xD PUSH2 0x164 JUMP JUMPDEST PUSH32 0x0 PUSH1 0x1 PUSH1 0x1 PUSH1 0xA0 SHL SUB AND DUP3 PUSH1 0x1 PUSH1 0x1 PUSH1 0xA0 SHL SUB AND EQ ISZERO PUSH2 0x37AE JUMPI POP PUSH1 0xE PUSH2 0x164 JUMP JUMPDEST PUSH32 0x0 PUSH1 0x1 PUSH1 0x1 PUSH1 0xA0 SHL SUB AND DUP3 PUSH1 0x1 PUSH1 0x1 PUSH1 0xA0 SHL SUB AND EQ ISZERO PUSH2 0x37F0 JUMPI POP PUSH1 0xF PUSH2 0x164 JUMP JUMPDEST PUSH32 0x0 PUSH1 0x1 PUSH1 0x1 PUSH1 0xA0 SHL SUB AND DUP3 PUSH1 0x1 PUSH1 0x1 PUSH1 0xA0 SHL SUB AND EQ ISZERO PUSH2 0x3832 JUMPI POP PUSH1 0x10 PUSH2 0x164 JUMP JUMPDEST PUSH32 0x0 PUSH1 0x1 PUSH1 0x1 PUSH1 0xA0 SHL SUB AND DUP3 PUSH1 0x1 PUSH1 0x1 PUSH1 0xA0 SHL SUB AND EQ ISZERO PUSH2 0x3874 JUMPI POP PUSH1 0x11 PUSH2 0x164 JUMP JUMPDEST PUSH32 0x0 PUSH1 0x1 PUSH1 0x1 PUSH1 0xA0 SHL SUB AND DUP3 PUSH1 0x1 PUSH1 0x1 PUSH1 0xA0 SHL SUB AND EQ ISZERO PUSH2 0x38B6 JUMPI POP PUSH1 0x12 PUSH2 0x164 JUMP JUMPDEST PUSH32 0x0 PUSH1 0x1 PUSH1 0x1 PUSH1 0xA0 SHL SUB AND DUP3 PUSH1 0x1 PUSH1 0x1 PUSH1 0xA0 SHL SUB AND EQ ISZERO PUSH2 0x38F8 JUMPI POP PUSH1 0x13 PUSH2 0x164 JUMP JUMPDEST PUSH32 0x0 PUSH1 0x1 PUSH1 0x1 PUSH1 0xA0 SHL SUB AND DUP3 PUSH1 0x1 PUSH1 0x1 PUSH1 0xA0 SHL SUB AND EQ ISZERO PUSH2 0x393A JUMPI POP PUSH1 0x14 PUSH2 0x164 JUMP JUMPDEST PUSH32 0x0 PUSH1 0x1 PUSH1 0x1 PUSH1 0xA0 SHL SUB AND DUP3 PUSH1 0x1 PUSH1 0x1 PUSH1 0xA0 SHL SUB AND EQ ISZERO PUSH2 0x397C JUMPI POP PUSH1 0x15 PUSH2 0x164 JUMP JUMPDEST PUSH32 0x0 PUSH1 0x1 PUSH1 0x1 PUSH1 0xA0 SHL SUB AND DUP3 PUSH1 0x1 PUSH1 0x1 PUSH1 0xA0 SHL SUB AND EQ ISZERO PUSH2 0x39BE JUMPI POP PUSH1 0x16 PUSH2 0x164 JUMP JUMPDEST PUSH32 0x0 PUSH1 0x1 PUSH1 0x1 PUSH1 0xA0 SHL SUB AND DUP3 PUSH1 0x1 PUSH1 0x1 PUSH1 0xA0 SHL SUB AND EQ ISZERO PUSH2 0x3A00 JUMPI POP PUSH1 0x17 PUSH2 0x164 JUMP JUMPDEST PUSH32 0x0 PUSH1 0x1 PUSH1 0x1 PUSH1 0xA0 SHL SUB AND DUP3 PUSH1 0x1 PUSH1 0x1 PUSH1 0xA0 SHL SUB AND EQ ISZERO PUSH2 0x3A42 JUMPI POP PUSH1 0x18 PUSH2 0x164 JUMP JUMPDEST PUSH32 0x0 PUSH1 0x1 PUSH1 0x1 PUSH1 0xA0 SHL SUB AND DUP3 PUSH1 0x1 PUSH1 0x1 PUSH1 0xA0 SHL SUB AND EQ ISZERO PUSH2 0x3A84 JUMPI POP PUSH1 0x19 PUSH2 0x164 JUMP JUMPDEST PUSH32 0x0 PUSH1 0x1 PUSH1 0x1 PUSH1 0xA0 SHL SUB AND DUP3 PUSH1 0x1 PUSH1 0x1 PUSH1 0xA0 SHL SUB AND EQ ISZERO PUSH2 0x3AC6 JUMPI POP PUSH1 0x1A PUSH2 0x164 JUMP JUMPDEST PUSH32 0x0 PUSH1 0x1 PUSH1 0x1 PUSH1 0xA0 SHL SUB AND DUP3 PUSH1 0x1 PUSH1 0x1 PUSH1 0xA0 SHL SUB AND EQ ISZERO PUSH2 0x3B08 JUMPI POP PUSH1 0x1B PUSH2 0x164 JUMP JUMPDEST PUSH32 0x0 PUSH1 0x1 PUSH1 0x1 PUSH1 0xA0 SHL SUB AND DUP3 PUSH1 0x1 PUSH1 0x1 PUSH1 0xA0 SHL SUB AND EQ ISZERO PUSH2 0x3B4A JUMPI POP PUSH1 0x1C PUSH2 0x164 JUMP JUMPDEST PUSH32 0x0 PUSH1 0x1 PUSH1 0x1 PUSH1 0xA0 SHL SUB AND DUP3 PUSH1 0x1 PUSH1 0x1 PUSH1 0xA0 SHL SUB AND EQ ISZERO PUSH2 0x33C5 JUMPI POP PUSH1 0x1D PUSH2 0x164 JUMP JUMPDEST PUSH1 0x0 PUSH32 0x0 PUSH1 0x1 PUSH1 0x1 PUSH1 0xA0 SHL SUB AND DUP3 PUSH1 0x1 PUSH1 0x1 PUSH1 0xA0 SHL SUB AND EQ ISZERO PUSH2 0x3BD0 JUMPI POP PUSH1 0x0 PUSH2 0x164 JUMP JUMPDEST PUSH32 0x0 PUSH1 0x1 PUSH1 0x1 PUSH1 0xA0 SHL SUB AND DUP3 PUSH1 0x1 PUSH1 0x1 PUSH1 0xA0 SHL SUB AND EQ ISZERO PUSH2 0x3C12 JUMPI POP PUSH1 0x1 PUSH2 0x164 JUMP JUMPDEST PUSH32 0x0 PUSH1 0x1 PUSH1 0x1 PUSH1 0xA0 SHL SUB AND DUP3 PUSH1 0x1 PUSH1 0x1 PUSH1 0xA0 SHL SUB AND EQ ISZERO PUSH2 0x3C54 JUMPI POP PUSH1 0x2 PUSH2 0x164 JUMP JUMPDEST PUSH32 0x0 PUSH1 0x1 PUSH1 0x1 PUSH1 0xA0 SHL SUB AND DUP3 PUSH1 0x1 PUSH1 0x1 PUSH1 0xA0 SHL SUB AND EQ ISZERO PUSH2 0x3C96 JUMPI POP PUSH1 0x3 PUSH2 0x164 JUMP JUMPDEST PUSH32 0x0 PUSH1 0x1 PUSH1 0x1 PUSH1 0xA0 SHL SUB AND DUP3 PUSH1 0x1 PUSH1 0x1 PUSH1 0xA0 SHL SUB AND EQ ISZERO PUSH2 0x3CD8 JUMPI POP PUSH1 0x4 PUSH2 0x164 JUMP JUMPDEST PUSH32 0x0 PUSH1 0x1 PUSH1 0x1 PUSH1 0xA0 SHL SUB AND DUP3 PUSH1 0x1 PUSH1 0x1 PUSH1 0xA0 SHL SUB AND EQ ISZERO PUSH2 0x3D1A JUMPI POP PUSH1 0x5 PUSH2 0x164 JUMP JUMPDEST PUSH32 0x0 PUSH1 0x1 PUSH1 0x1 PUSH1 0xA0 SHL SUB AND DUP3 PUSH1 0x1 PUSH1 0x1 PUSH1 0xA0 SHL SUB AND EQ ISZERO PUSH2 0x3D5C JUMPI POP PUSH1 0x6 PUSH2 0x164 JUMP JUMPDEST PUSH32 0x0 PUSH1 0x1 PUSH1 0x1 PUSH1 0xA0 SHL SUB AND DUP3 PUSH1 0x1 PUSH1 0x1 PUSH1 0xA0 SHL SUB AND EQ ISZERO PUSH2 0x3D9E JUMPI POP PUSH1 0x7 PUSH2 0x164 JUMP JUMPDEST PUSH32 0x0 PUSH1 0x1 PUSH1 0x1 PUSH1 0xA0 SHL SUB AND DUP3 PUSH1 0x1 PUSH1 0x1 PUSH1 0xA0 SHL SUB AND EQ ISZERO PUSH2 0x3DE0 JUMPI POP PUSH1 0x8 PUSH2 0x164 JUMP JUMPDEST PUSH32 0x0 PUSH1 0x1 PUSH1 0x1 PUSH1 0xA0 SHL SUB AND DUP3 PUSH1 0x1 PUSH1 0x1 PUSH1 0xA0 SHL SUB AND EQ ISZERO PUSH2 0x3E22 JUMPI POP PUSH1 0x9 PUSH2 0x164 JUMP JUMPDEST PUSH32 0x0 PUSH1 0x1 PUSH1 0x1 PUSH1 0xA0 SHL SUB AND DUP3 PUSH1 0x1 PUSH1 0x1 PUSH1 0xA0 SHL SUB AND EQ ISZERO PUSH2 0x3E64 JUMPI POP PUSH1 0xA PUSH2 0x164 JUMP JUMPDEST PUSH32 0x0 PUSH1 0x1 PUSH1 0x1 PUSH1 0xA0 SHL SUB AND DUP3 PUSH1 0x1 PUSH1 0x1 PUSH1 0xA0 SHL SUB AND EQ ISZERO PUSH2 0x3EA6 JUMPI POP PUSH1 0xB PUSH2 0x164 JUMP JUMPDEST PUSH32 0x0 PUSH1 0x1 PUSH1 0x1 PUSH1 0xA0 SHL SUB AND DUP3 PUSH1 0x1 PUSH1 0x1 PUSH1 0xA0 SHL SUB AND EQ ISZERO PUSH2 0x3EE8 JUMPI POP PUSH1 0xC PUSH2 0x164 JUMP JUMPDEST PUSH32 0x0 PUSH1 0x1 PUSH1 0x1 PUSH1 0xA0 SHL SUB AND DUP3 PUSH1 0x1 PUSH1 0x1 PUSH1 0xA0 SHL SUB AND EQ ISZERO PUSH2 0x3F2A JUMPI POP PUSH1 0xD PUSH2 0x164 JUMP JUMPDEST PUSH32 0x0 PUSH1 0x1 PUSH1 0x1 PUSH1 0xA0 SHL SUB AND DUP3 PUSH1 0x1 PUSH1 0x1 PUSH1 0xA0 SHL SUB AND EQ ISZERO PUSH2 0x3F6C JUMPI POP PUSH1 0xE PUSH2 0x164 JUMP JUMPDEST PUSH32 0x0 PUSH1 0x1 PUSH1 0x1 PUSH1 0xA0 SHL SUB AND DUP3 PUSH1 0x1 PUSH1 0x1 PUSH1 0xA0 SHL SUB AND EQ ISZERO PUSH2 0x3FAE JUMPI POP PUSH1 0xF PUSH2 0x164 JUMP JUMPDEST PUSH32 0x0 PUSH1 0x1 PUSH1 0x1 PUSH1 0xA0 SHL SUB AND DUP3 PUSH1 0x1 PUSH1 0x1 PUSH1 0xA0 SHL SUB AND EQ ISZERO PUSH2 0x3FF0 JUMPI POP PUSH1 0x10 PUSH2 0x164 JUMP JUMPDEST PUSH32 0x0 PUSH1 0x1 PUSH1 0x1 PUSH1 0xA0 SHL SUB AND DUP3 PUSH1 0x1 PUSH1 0x1 PUSH1 0xA0 SHL SUB AND EQ ISZERO PUSH2 0x4032 JUMPI POP PUSH1 0x11 PUSH2 0x164 JUMP JUMPDEST PUSH32 0x0 PUSH1 0x1 PUSH1 0x1 PUSH1 0xA0 SHL SUB AND DUP3 PUSH1 0x1 PUSH1 0x1 PUSH1 0xA0 SHL SUB AND EQ ISZERO PUSH2 0x4074 JUMPI POP PUSH1 0x12 PUSH2 0x164 JUMP JUMPDEST PUSH32 0x0 PUSH1 0x1 PUSH1 0x1 PUSH1 0xA0 SHL SUB AND DUP3 PUSH1 0x1 PUSH1 0x1 PUSH1 0xA0 SHL SUB AND EQ ISZERO PUSH2 0x40B6 JUMPI POP PUSH1 0x13 PUSH2 0x164 JUMP JUMPDEST PUSH32 0x0 PUSH1 0x1 PUSH1 0x1 PUSH1 0xA0 SHL SUB AND DUP3 PUSH1 0x1 PUSH1 0x1 PUSH1 0xA0 SHL SUB AND EQ ISZERO PUSH2 0x40F8 JUMPI POP PUSH1 0x14 PUSH2 0x164 JUMP JUMPDEST PUSH32 0x0 PUSH1 0x1 PUSH1 0x1 PUSH1 0xA0 SHL SUB AND DUP3 PUSH1 0x1 PUSH1 0x1 PUSH1 0xA0 SHL SUB AND EQ ISZERO PUSH2 0x413A JUMPI POP PUSH1 0x15 PUSH2 0x164 JUMP JUMPDEST PUSH32 0x0 PUSH1 0x1 PUSH1 0x1 PUSH1 0xA0 SHL SUB AND DUP3 PUSH1 0x1 PUSH1 0x1 PUSH1 0xA0 SHL SUB AND EQ ISZERO PUSH2 0x417C JUMPI POP PUSH1 0x16 PUSH2 0x164 JUMP JUMPDEST PUSH32 0x0 PUSH1 0x1 PUSH1 0x1 PUSH1 0xA0 SHL SUB AND DUP3 PUSH1 0x1 PUSH1 0x1 PUSH1 0xA0 SHL SUB AND EQ ISZERO PUSH2 0x41BE JUMPI POP PUSH1 0x17 PUSH2 0x164 JUMP JUMPDEST PUSH32 0x0 PUSH1 0x1 PUSH1 0x1 PUSH1 0xA0 SHL SUB AND DUP3 PUSH1 0x1 PUSH1 0x1 PUSH1 0xA0 SHL SUB AND EQ ISZERO PUSH2 0x4200 JUMPI POP PUSH1 0x18 PUSH2 0x164 JUMP JUMPDEST PUSH32 0x0 PUSH1 0x1 PUSH1 0x1 PUSH1 0xA0 SHL SUB AND DUP3 PUSH1 0x1 PUSH1 0x1 PUSH1 0xA0 SHL SUB AND EQ ISZERO PUSH2 0x4242 JUMPI POP PUSH1 0x19 PUSH2 0x164 JUMP JUMPDEST PUSH32 0x0 PUSH1 0x1 PUSH1 0x1 PUSH1 0xA0 SHL SUB AND DUP3 PUSH1 0x1 PUSH1 0x1 PUSH1 0xA0 SHL SUB AND EQ ISZERO PUSH2 0x4284 JUMPI POP PUSH1 0x1A PUSH2 0x164 JUMP JUMPDEST PUSH32 0x0 PUSH1 0x1 PUSH1 0x1 PUSH1 0xA0 SHL SUB AND DUP3 PUSH1 0x1 PUSH1 0x1 PUSH1 0xA0 SHL SUB AND EQ ISZERO PUSH2 0x42C6 JUMPI POP PUSH1 0x1B PUSH2 0x164 JUMP JUMPDEST PUSH32 0x0 PUSH1 0x1 PUSH1 0x1 PUSH1 0xA0 SHL SUB AND DUP3 PUSH1 0x1 PUSH1 0x1 PUSH1 0xA0 SHL SUB AND EQ ISZERO PUSH2 0x4308 JUMPI POP PUSH1 0x1C PUSH2 0x164 JUMP JUMPDEST PUSH32 0x0 PUSH1 0x1 PUSH1 0x1 PUSH1 0xA0 SHL SUB AND DUP3 PUSH1 0x1 PUSH1 0x1 PUSH1 0xA0 SHL SUB AND EQ ISZERO PUSH2 0x33C5 JUMPI POP PUSH1 0x1D PUSH2 0x164 JUMP JUMPDEST PUSH1 0x40 DUP1 MLOAD PUSH2 0x100 DUP2 ADD DUP3 MSTORE PUSH1 0x0 DUP1 DUP3 MSTORE PUSH1 0x20 DUP3 ADD DUP2 SWAP1 MSTORE SWAP2 DUP2 ADD DUP3 SWAP1 MSTORE PUSH1 0x60 DUP2 ADD DUP3 SWAP1 MSTORE SWAP1 PUSH1 0x80 DUP3 ADD SWAP1 DUP2 MSTORE PUSH1 0x0 PUSH1 0x20 DUP3 ADD DUP2 SWAP1 MSTORE PUSH1 0x40 DUP3 ADD DUP2 SWAP1 MSTORE PUSH1 0x60 SWAP1 SWAP2 ADD MSTORE SWAP1 JUMP JUMPDEST PUSH1 0x0 PUSH1 0x20 DUP3 DUP5 SUB SLT ISZERO PUSH2 0x43A0 JUMPI DUP1 DUP2 REVERT JUMPDEST DUP2 CALLDATALOAD PUSH2 0x2E1C DUP2 PUSH2 0x458D JUMP JUMPDEST PUSH1 0x0 PUSH1 0x20 DUP3 DUP5 SUB SLT ISZERO PUSH2 0x43BC JUMPI DUP1 DUP2 REVERT JUMPDEST DUP2 MLOAD PUSH2 0x2E1C DUP2 PUSH2 0x458D JUMP JUMPDEST PUSH1 0x0 PUSH1 0x20 DUP3 DUP5 SUB SLT ISZERO PUSH2 0x43D8 JUMPI DUP1 DUP2 REVERT JUMPDEST POP CALLDATALOAD SWAP2 SWAP1 POP JUMP JUMPDEST PUSH1 0x0 PUSH1 0x20 DUP3 DUP5 SUB SLT ISZERO PUSH2 0x43F0 JUMPI DUP1 DUP2 REVERT JUMPDEST DUP2 CALLDATALOAD PUSH8 0xFFFFFFFFFFFFFFFF DUP1 DUP3 GT ISZERO PUSH2 0x4407 JUMPI DUP3 DUP4 REVERT JUMPDEST DUP2 DUP5 ADD SWAP2 POP DUP5 PUSH1 0x1F DUP4 ADD SLT PUSH2 0x441A JUMPI DUP3 DUP4 REVERT JUMPDEST DUP2 CALLDATALOAD DUP2 DUP2 GT ISZERO PUSH2 0x4428 JUMPI DUP4 DUP5 REVERT JUMPDEST PUSH1 0x40 MLOAD PUSH1 0x1F DUP3 ADD PUSH1 0x1F NOT AND DUP2 ADD PUSH1 0x20 ADD DUP4 DUP2 GT DUP3 DUP3 LT OR ISZERO PUSH2 0x4448 JUMPI DUP6 DUP7 REVERT JUMPDEST PUSH1 0x40 MSTORE DUP2 DUP2 MSTORE DUP4 DUP3 ADD PUSH1 0x20 ADD DUP8 LT ISZERO PUSH2 0x445F JUMPI DUP5 DUP6 REVERT JUMPDEST PUSH2 0x4470 DUP3 PUSH1 0x20 DUP4 ADD PUSH1 0x20 DUP8 ADD PUSH2 0x4581 JUMP JUMPDEST SWAP7 SWAP6 POP POP POP POP POP POP JUMP JUMPDEST PUSH1 0x1 PUSH1 0x1 PUSH1 0xA0 SHL SUB AND SWAP1 MSTORE JUMP JUMPDEST ISZERO ISZERO SWAP1 MSTORE JUMP JUMPDEST PUSH1 0x0 DUP3 MLOAD DUP2 JUMPDEST DUP2 DUP2 LT ISZERO PUSH2 0x44AD JUMPI PUSH1 0x20 DUP2 DUP7 ADD DUP2 ADD MLOAD DUP6 DUP4 ADD MSTORE ADD PUSH2 0x4493 JUMP JUMPDEST DUP2 DUP2 GT ISZERO PUSH2 0x44BB JUMPI DUP3 DUP3 DUP6 ADD MSTORE JUMPDEST POP SWAP2 SWAP1 SWAP2 ADD SWAP3 SWAP2 POP POP JUMP JUMPDEST PUSH1 0x20 DUP1 DUP3 MSTORE PUSH1 0x16 SWAP1 DUP3 ADD MSTORE PUSH22 0x1D1BDAD95B8818DBDB999A59C81B9BDD08199BDD5B99 PUSH1 0x52 SHL PUSH1 0x40 DUP3 ADD MSTORE PUSH1 0x60 ADD SWAP1 JUMP JUMPDEST DUP2 MLOAD PUSH1 0x1 PUSH1 0x1 PUSH1 0xA0 SHL SUB SWAP1 DUP2 AND DUP3 MSTORE PUSH1 0x20 DUP1 DUP5 ADD MLOAD SWAP1 SWAP2 AND SWAP1 DUP3 ADD MSTORE PUSH1 0x40 DUP1 DUP4 ADD MLOAD SWAP1 DUP3 ADD MSTORE PUSH1 0x60 DUP1 DUP4 ADD MLOAD SWAP1 DUP3 ADD MSTORE PUSH1 0x80 DUP3 ADD MLOAD PUSH2 0x100 DUP3 ADD SWAP1 PUSH1 0x3 DUP2 LT PUSH2 0x453B JUMPI INVALID JUMPDEST DUP1 PUSH1 0x80 DUP5 ADD MSTORE POP PUSH1 0xA0 DUP4 ADD MLOAD PUSH1 0xA0 DUP4 ADD MSTORE PUSH1 0xC0 DUP4 ADD MLOAD PUSH2 0x455E PUSH1 0xC0 DUP5 ADD DUP3 PUSH2 0x447A JUMP JUMPDEST POP PUSH1 0xE0 DUP4 ADD MLOAD PUSH2 0x4571 PUSH1 0xE0 DUP5 ADD DUP3 PUSH2 0x4487 JUMP JUMPDEST POP SWAP3 SWAP2 POP POP JUMP JUMPDEST SWAP1 DUP2 MSTORE PUSH1 0x20 ADD SWAP1 JUMP JUMPDEST DUP3 DUP2 DUP4 CALLDATACOPY POP PUSH1 0x0 SWAP2 ADD MSTORE JUMP JUMPDEST PUSH1 0x1 PUSH1 0x1 PUSH1 0xA0 SHL SUB DUP2 AND DUP2 EQ PUSH2 0x45A2 JUMPI PUSH1 0x0 DUP1 REVERT JUMPDEST POP JUMP INVALID LOG2 PUSH5 0x6970667358 0x22 SLT KECCAK256 0x4C 0xD9 MSTORE8 0x21 0x5F MOD DUP16 REVERT PUSH16 0x73B181C724B0DEE65F5B2719B10038FC 0xD9 DUP9 PUSH9 0x56278A2264736F6C63 NUMBER STOP MOD 0xC STOP CALLER "
		},
		"gasEstimates": {
			"creation": {
				"codeDepositCost": "3576600",
				"executionCost": "infinite",
				"totalCost": "infinite"
			},
			"external": {
				"getTokenConfig(uint256)": "infinite",
				"getTokenConfigByDToken(address)": "infinite",
				"getTokenConfigBySymbol(string)": "infinite",
				"getTokenConfigBySymbolHash(bytes32)": "infinite",
				"getTokenConfigByUnderlying(address)": "infinite",
				"maxTokens()": "272",
				"numTokens()": "infinite"
			},
			"internal": {
				"get(struct UniswapConfig.TokenConfig memory[] memory,uint256)": "infinite",
				"getDTokenIndex(address)": "infinite",
				"getSymbolHashIndex(bytes32)": "infinite",
				"getUnderlyingIndex(address)": "infinite"
			}
		},
		"methodIdentifiers": {
			"getTokenConfig(uint256)": "8a003888",
			"getTokenConfigByDToken(address)": "eea85ecb",
			"getTokenConfigBySymbol(string)": "276c2cba",
			"getTokenConfigBySymbolHash(bytes32)": "1a125204",
			"getTokenConfigByUnderlying(address)": "4da21942",
			"maxTokens()": "e8315742",
			"numTokens()": "8e499bcf"
		}
	},
	"abi": [
		{
			"inputs": [
				{
					"components": [
						{
							"internalType": "address",
							"name": "dToken",
							"type": "address"
						},
						{
							"internalType": "address",
							"name": "underlying",
							"type": "address"
						},
						{
							"internalType": "bytes32",
							"name": "symbolHash",
							"type": "bytes32"
						},
						{
							"internalType": "uint256",
							"name": "baseUnit",
							"type": "uint256"
						},
						{
							"internalType": "enum UniswapConfig.PriceSource",
							"name": "priceSource",
							"type": "uint8"
						},
						{
							"internalType": "uint256",
							"name": "fixedPrice",
							"type": "uint256"
						},
						{
							"internalType": "address",
							"name": "uniswapMarket",
							"type": "address"
						},
						{
							"internalType": "bool",
							"name": "isUniswapReversed",
							"type": "bool"
						}
					],
					"internalType": "struct UniswapConfig.TokenConfig[]",
					"name": "configs",
					"type": "tuple[]"
				}
			],
			"stateMutability": "nonpayable",
			"type": "constructor"
		},
		{
			"inputs": [
				{
					"internalType": "uint256",
					"name": "i",
					"type": "uint256"
				}
			],
			"name": "getTokenConfig",
			"outputs": [
				{
					"components": [
						{
							"internalType": "address",
							"name": "dToken",
							"type": "address"
						},
						{
							"internalType": "address",
							"name": "underlying",
							"type": "address"
						},
						{
							"internalType": "bytes32",
							"name": "symbolHash",
							"type": "bytes32"
						},
						{
							"internalType": "uint256",
							"name": "baseUnit",
							"type": "uint256"
						},
						{
							"internalType": "enum UniswapConfig.PriceSource",
							"name": "priceSource",
							"type": "uint8"
						},
						{
							"internalType": "uint256",
							"name": "fixedPrice",
							"type": "uint256"
						},
						{
							"internalType": "address",
							"name": "uniswapMarket",
							"type": "address"
						},
						{
							"internalType": "bool",
							"name": "isUniswapReversed",
							"type": "bool"
						}
					],
					"internalType": "struct UniswapConfig.TokenConfig",
					"name": "",
					"type": "tuple"
				}
			],
			"stateMutability": "view",
			"type": "function"
		},
		{
			"inputs": [
				{
					"internalType": "address",
					"name": "dToken",
					"type": "address"
				}
			],
			"name": "getTokenConfigByDToken",
			"outputs": [
				{
					"components": [
						{
							"internalType": "address",
							"name": "dToken",
							"type": "address"
						},
						{
							"internalType": "address",
							"name": "underlying",
							"type": "address"
						},
						{
							"internalType": "bytes32",
							"name": "symbolHash",
							"type": "bytes32"
						},
						{
							"internalType": "uint256",
							"name": "baseUnit",
							"type": "uint256"
						},
						{
							"internalType": "enum UniswapConfig.PriceSource",
							"name": "priceSource",
							"type": "uint8"
						},
						{
							"internalType": "uint256",
							"name": "fixedPrice",
							"type": "uint256"
						},
						{
							"internalType": "address",
							"name": "uniswapMarket",
							"type": "address"
						},
						{
							"internalType": "bool",
							"name": "isUniswapReversed",
							"type": "bool"
						}
					],
					"internalType": "struct UniswapConfig.TokenConfig",
					"name": "",
					"type": "tuple"
				}
			],
			"stateMutability": "view",
			"type": "function"
		},
		{
			"inputs": [
				{
					"internalType": "string",
					"name": "symbol",
					"type": "string"
				}
			],
			"name": "getTokenConfigBySymbol",
			"outputs": [
				{
					"components": [
						{
							"internalType": "address",
							"name": "dToken",
							"type": "address"
						},
						{
							"internalType": "address",
							"name": "underlying",
							"type": "address"
						},
						{
							"internalType": "bytes32",
							"name": "symbolHash",
							"type": "bytes32"
						},
						{
							"internalType": "uint256",
							"name": "baseUnit",
							"type": "uint256"
						},
						{
							"internalType": "enum UniswapConfig.PriceSource",
							"name": "priceSource",
							"type": "uint8"
						},
						{
							"internalType": "uint256",
							"name": "fixedPrice",
							"type": "uint256"
						},
						{
							"internalType": "address",
							"name": "uniswapMarket",
							"type": "address"
						},
						{
							"internalType": "bool",
							"name": "isUniswapReversed",
							"type": "bool"
						}
					],
					"internalType": "struct UniswapConfig.TokenConfig",
					"name": "",
					"type": "tuple"
				}
			],
			"stateMutability": "view",
			"type": "function"
		},
		{
			"inputs": [
				{
					"internalType": "bytes32",
					"name": "symbolHash",
					"type": "bytes32"
				}
			],
			"name": "getTokenConfigBySymbolHash",
			"outputs": [
				{
					"components": [
						{
							"internalType": "address",
							"name": "dToken",
							"type": "address"
						},
						{
							"internalType": "address",
							"name": "underlying",
							"type": "address"
						},
						{
							"internalType": "bytes32",
							"name": "symbolHash",
							"type": "bytes32"
						},
						{
							"internalType": "uint256",
							"name": "baseUnit",
							"type": "uint256"
						},
						{
							"internalType": "enum UniswapConfig.PriceSource",
							"name": "priceSource",
							"type": "uint8"
						},
						{
							"internalType": "uint256",
							"name": "fixedPrice",
							"type": "uint256"
						},
						{
							"internalType": "address",
							"name": "uniswapMarket",
							"type": "address"
						},
						{
							"internalType": "bool",
							"name": "isUniswapReversed",
							"type": "bool"
						}
					],
					"internalType": "struct UniswapConfig.TokenConfig",
					"name": "",
					"type": "tuple"
				}
			],
			"stateMutability": "view",
			"type": "function"
		},
		{
			"inputs": [
				{
					"internalType": "address",
					"name": "underlying",
					"type": "address"
				}
			],
			"name": "getTokenConfigByUnderlying",
			"outputs": [
				{
					"components": [
						{
							"internalType": "address",
							"name": "dToken",
							"type": "address"
						},
						{
							"internalType": "address",
							"name": "underlying",
							"type": "address"
						},
						{
							"internalType": "bytes32",
							"name": "symbolHash",
							"type": "bytes32"
						},
						{
							"internalType": "uint256",
							"name": "baseUnit",
							"type": "uint256"
						},
						{
							"internalType": "enum UniswapConfig.PriceSource",
							"name": "priceSource",
							"type": "uint8"
						},
						{
							"internalType": "uint256",
							"name": "fixedPrice",
							"type": "uint256"
						},
						{
							"internalType": "address",
							"name": "uniswapMarket",
							"type": "address"
						},
						{
							"internalType": "bool",
							"name": "isUniswapReversed",
							"type": "bool"
						}
					],
					"internalType": "struct UniswapConfig.TokenConfig",
					"name": "",
					"type": "tuple"
				}
			],
			"stateMutability": "view",
			"type": "function"
		},
		{
			"inputs": [],
			"name": "maxTokens",
			"outputs": [
				{
					"internalType": "uint256",
					"name": "",
					"type": "uint256"
				}
			],
			"stateMutability": "view",
			"type": "function"
		},
		{
			"inputs": [],
			"name": "numTokens",
			"outputs": [
				{
					"internalType": "uint256",
					"name": "",
					"type": "uint256"
				}
			],
			"stateMutability": "view",
			"type": "function"
		}
	]
}