{
	"data": {
		"bytecode": {
			"linkReferences": {},
			"object": "611f406040523480156200001257600080fd5b50604051620096313803806200963183398101604081905262000035916200280f565b80601e81511115620000645760405162461bcd60e51b81526004016200005b90620029fb565b60405180910390fd5b80516080526200007f8160006001600160e01b036200239616565b5160601b6001600160601b03191660a0526200009d81600162002396565b5160601b6001600160601b03191660c052620000bb81600262002396565b5160601b6001600160601b03191660e052620000d981600362002396565b5160601b6001600160601b03191661010052620000f881600462002396565b5160601b6001600160601b031916610120526200011781600562002396565b5160601b6001600160601b031916610140526200013681600662002396565b5160601b6001600160601b031916610160526200015581600762002396565b5160601b6001600160601b031916610180526200017481600862002396565b5160601b6001600160601b0319166101a0526200019381600962002396565b5160601b6001600160601b0319166101c052620001b281600a62002396565b5160601b6001600160601b0319166101e052620001d181600b62002396565b5160601b6001600160601b03191661020052620001f081600c62002396565b5160601b6001600160601b031916610220526200020f81600d62002396565b5160601b6001600160601b031916610240526200022e81600e62002396565b5160601b6001600160601b031916610260526200024d81600f62002396565b5160601b6001600160601b031916610280526200026c81601062002396565b5160601b6001600160601b0319166102a0526200028b81601162002396565b5160601b6001600160601b0319166102c052620002aa81601262002396565b5160601b6001600160601b0319166102e052620002c981601362002396565b5160601b6001600160601b03191661030052620002e881601462002396565b5160601b6001600160601b031916610320526200030781601562002396565b5160601b6001600160601b031916610340526200032681601662002396565b5160601b6001600160601b031916610360526200034581601762002396565b5160601b6001600160601b031916610380526200036481601862002396565b5160601b6001600160601b0319166103a0526200038381601962002396565b5160601b6001600160601b0319166103c052620003a281601a62002396565b5160601b6001600160601b0319166103e052620003c181601b62002396565b5160601b6001600160601b03191661040052620003e081601c62002396565b5160601b6001600160601b03191661042052620003ff81601d62002396565b5160601b6001600160601b031916610440526200041e81600062002396565b6020015160601b6001600160601b031916610460526200044081600162002396565b6020015160601b6001600160601b031916610480526200046281600262002396565b6020015160601b6001600160601b0319166104a0526200048481600362002396565b6020015160601b6001600160601b0319166104c052620004a681600462002396565b6020015160601b6001600160601b0319166104e052620004c881600562002396565b6020015160601b6001600160601b03191661050052620004ea81600662002396565b6020015160601b6001600160601b031916610520526200050c81600762002396565b6020015160601b6001600160601b031916610540526200052e81600862002396565b6020015160601b6001600160601b031916610560526200055081600962002396565b6020015160601b6001600160601b031916610580526200057281600a62002396565b6020015160601b6001600160601b0319166105a0526200059481600b62002396565b6020015160601b6001600160601b0319166105c052620005b681600c62002396565b6020015160601b6001600160601b0319166105e052620005d881600d62002396565b6020015160601b6001600160601b03191661060052620005fa81600e62002396565b6020015160601b6001600160601b031916610620526200061c81600f62002396565b6020015160601b6001600160601b031916610640526200063e81601062002396565b6020015160601b6001600160601b031916610660526200066081601162002396565b6020015160601b6001600160601b031916610680526200068281601262002396565b6020015160601b6001600160601b0319166106a052620006a481601362002396565b6020015160601b6001600160601b0319166106c052620006c681601462002396565b6020015160601b6001600160601b0319166106e052620006e881601562002396565b6020015160601b6001600160601b031916610700526200070a81601662002396565b6020015160601b6001600160601b031916610720526200072c81601762002396565b6020015160601b6001600160601b031916610740526200074e81601862002396565b6020015160601b6001600160601b031916610760526200077081601962002396565b6020015160601b6001600160601b031916610780526200079281601a62002396565b6020015160601b6001600160601b0319166107a052620007b481601b62002396565b6020015160601b6001600160601b0319166107c052620007d681601c62002396565b6020015160601b6001600160601b0319166107e052620007f881601d62002396565b6020015160601b6001600160601b031916610800526200081a81600062002396565b6040015161082052620008388160016001600160e01b036200239616565b6040015161084052620008568160026001600160e01b036200239616565b6040015161086052620008748160036001600160e01b036200239616565b6040015161088052620008928160046001600160e01b036200239616565b604001516108a052620008b08160056001600160e01b036200239616565b604001516108c052620008ce8160066001600160e01b036200239616565b604001516108e052620008ec8160076001600160e01b036200239616565b60400151610900526200090a8160086001600160e01b036200239616565b6040015161092052620009288160096001600160e01b036200239616565b60400151610940526200094681600a6001600160e01b036200239616565b60400151610960526200096481600b6001600160e01b036200239616565b60400151610980526200098281600c6001600160e01b036200239616565b604001516109a052620009a081600d6001600160e01b036200239616565b604001516109c052620009be81600e6001600160e01b036200239616565b604001516109e052620009dc81600f6001600160e01b036200239616565b60400151610a0052620009fa8160106001600160e01b036200239616565b60400151610a205262000a188160116001600160e01b036200239616565b60400151610a405262000a368160126001600160e01b036200239616565b60400151610a605262000a548160136001600160e01b036200239616565b60400151610a805262000a728160146001600160e01b036200239616565b60400151610aa05262000a908160156001600160e01b036200239616565b60400151610ac05262000aae8160166001600160e01b036200239616565b60400151610ae05262000acc8160176001600160e01b036200239616565b60400151610b005262000aea8160186001600160e01b036200239616565b60400151610b205262000b088160196001600160e01b036200239616565b60400151610b405262000b2681601a6001600160e01b036200239616565b60400151610b605262000b4481601b6001600160e01b036200239616565b60400151610b805262000b6281601c6001600160e01b036200239616565b60400151610ba05262000b8081601d6001600160e01b036200239616565b60400151610bc05262000b9e8160006001600160e01b036200239616565b60600151610be05262000bbc8160016001600160e01b036200239616565b60600151610c005262000bda8160026001600160e01b036200239616565b60600151610c205262000bf88160036001600160e01b036200239616565b60600151610c405262000c168160046001600160e01b036200239616565b60600151610c605262000c348160056001600160e01b036200239616565b60600151610c805262000c528160066001600160e01b036200239616565b60600151610ca05262000c708160076001600160e01b036200239616565b60600151610cc05262000c8e8160086001600160e01b036200239616565b60600151610ce05262000cac8160096001600160e01b036200239616565b60600151610d005262000cca81600a6001600160e01b036200239616565b60600151610d205262000ce881600b6001600160e01b036200239616565b60600151610d405262000d0681600c6001600160e01b036200239616565b60600151610d605262000d2481600d6001600160e01b036200239616565b60600151610d805262000d4281600e6001600160e01b036200239616565b60600151610da05262000d6081600f6001600160e01b036200239616565b60600151610dc05262000d7e8160106001600160e01b036200239616565b60600151610de05262000d9c8160116001600160e01b036200239616565b60600151610e005262000dba8160126001600160e01b036200239616565b60600151610e205262000dd88160136001600160e01b036200239616565b60600151610e405262000df68160146001600160e01b036200239616565b60600151610e605262000e148160156001600160e01b036200239616565b60600151610e805262000e328160166001600160e01b036200239616565b60600151610ea05262000e508160176001600160e01b036200239616565b60600151610ec05262000e6e8160186001600160e01b036200239616565b60600151610ee05262000e8c8160196001600160e01b036200239616565b60600151610f005262000eaa81601a6001600160e01b036200239616565b60600151610f205262000ec881601b6001600160e01b036200239616565b60600151610f405262000ee681601c6001600160e01b036200239616565b60600151610f605262000f0481601d6001600160e01b036200239616565b60600151610f805262000f228160006001600160e01b036200239616565b60800151600281111562000f3257fe5b610fa081600281111562000f4257fe5b60f81b90525062000f5e8160016001600160e01b036200239616565b60800151600281111562000f6e57fe5b610fc081600281111562000f7e57fe5b60f81b90525062000f9a8160026001600160e01b036200239616565b60800151600281111562000faa57fe5b610fe081600281111562000fba57fe5b60f81b90525062000fd68160036001600160e01b036200239616565b60800151600281111562000fe657fe5b61100081600281111562000ff657fe5b60f81b905250620010128160046001600160e01b036200239616565b6080015160028111156200102257fe5b6110208160028111156200103257fe5b60f81b9052506200104e8160056001600160e01b036200239616565b6080015160028111156200105e57fe5b6110408160028111156200106e57fe5b60f81b9052506200108a8160066001600160e01b036200239616565b6080015160028111156200109a57fe5b611060816002811115620010aa57fe5b60f81b905250620010c68160076001600160e01b036200239616565b608001516002811115620010d657fe5b611080816002811115620010e657fe5b60f81b905250620011028160086001600160e01b036200239616565b6080015160028111156200111257fe5b6110a08160028111156200112257fe5b60f81b9052506200113e8160096001600160e01b036200239616565b6080015160028111156200114e57fe5b6110c08160028111156200115e57fe5b60f81b9052506200117a81600a6001600160e01b036200239616565b6080015160028111156200118a57fe5b6110e08160028111156200119a57fe5b60f81b905250620011b681600b6001600160e01b036200239616565b608001516002811115620011c657fe5b611100816002811115620011d657fe5b60f81b905250620011f281600c6001600160e01b036200239616565b6080015160028111156200120257fe5b6111208160028111156200121257fe5b60f81b9052506200122e81600d6001600160e01b036200239616565b6080015160028111156200123e57fe5b6111408160028111156200124e57fe5b60f81b9052506200126a81600e6001600160e01b036200239616565b6080015160028111156200127a57fe5b6111608160028111156200128a57fe5b60f81b905250620012a681600f6001600160e01b036200239616565b608001516002811115620012b657fe5b611180816002811115620012c657fe5b60f81b905250620012e28160106001600160e01b036200239616565b608001516002811115620012f257fe5b6111a08160028111156200130257fe5b60f81b9052506200131e8160116001600160e01b036200239616565b6080015160028111156200132e57fe5b6111c08160028111156200133e57fe5b60f81b9052506200135a8160126001600160e01b036200239616565b6080015160028111156200136a57fe5b6111e08160028111156200137a57fe5b60f81b905250620013968160136001600160e01b036200239616565b608001516002811115620013a657fe5b611200816002811115620013b657fe5b60f81b905250620013d28160146001600160e01b036200239616565b608001516002811115620013e257fe5b611220816002811115620013f257fe5b60f81b9052506200140e8160156001600160e01b036200239616565b6080015160028111156200141e57fe5b6112408160028111156200142e57fe5b60f81b9052506200144a8160166001600160e01b036200239616565b6080015160028111156200145a57fe5b6112608160028111156200146a57fe5b60f81b905250620014868160176001600160e01b036200239616565b6080015160028111156200149657fe5b611280816002811115620014a657fe5b60f81b905250620014c28160186001600160e01b036200239616565b608001516002811115620014d257fe5b6112a0816002811115620014e257fe5b60f81b905250620014fe8160196001600160e01b036200239616565b6080015160028111156200150e57fe5b6112c08160028111156200151e57fe5b60f81b9052506200153a81601a6001600160e01b036200239616565b6080015160028111156200154a57fe5b6112e08160028111156200155a57fe5b60f81b9052506200157681601b6001600160e01b036200239616565b6080015160028111156200158657fe5b6113008160028111156200159657fe5b60f81b905250620015b281601c6001600160e01b036200239616565b608001516002811115620015c257fe5b611320816002811115620015d257fe5b60f81b905250620015ee81601d6001600160e01b036200239616565b608001516002811115620015fe57fe5b6113408160028111156200160e57fe5b60f81b9052506200162a8160006001600160e01b036200239616565b60a0015161136052620016488160016001600160e01b036200239616565b60a0015161138052620016668160026001600160e01b036200239616565b60a001516113a052620016848160036001600160e01b036200239616565b60a001516113c052620016a28160046001600160e01b036200239616565b60a001516113e052620016c08160056001600160e01b036200239616565b60a0015161140052620016de8160066001600160e01b036200239616565b60a0015161142052620016fc8160076001600160e01b036200239616565b60a00151611440526200171a8160086001600160e01b036200239616565b60a0015161146052620017388160096001600160e01b036200239616565b60a00151611480526200175681600a6001600160e01b036200239616565b60a001516114a0526200177481600b6001600160e01b036200239616565b60a001516114c0526200179281600c6001600160e01b036200239616565b60a001516114e052620017b081600d6001600160e01b036200239616565b60a0015161150052620017ce81600e6001600160e01b036200239616565b60a0015161152052620017ec81600f6001600160e01b036200239616565b60a00151611540526200180a8160106001600160e01b036200239616565b60a0015161156052620018288160116001600160e01b036200239616565b60a0015161158052620018468160126001600160e01b036200239616565b60a001516115a052620018648160136001600160e01b036200239616565b60a001516115c052620018828160146001600160e01b036200239616565b60a001516115e052620018a08160156001600160e01b036200239616565b60a0015161160052620018be8160166001600160e01b036200239616565b60a0015161162052620018dc8160176001600160e01b036200239616565b60a0015161164052620018fa8160186001600160e01b036200239616565b60a0015161166052620019188160196001600160e01b036200239616565b60a00151611680526200193681601a6001600160e01b036200239616565b60a001516116a0526200195481601b6001600160e01b036200239616565b60a001516116c0526200197281601c6001600160e01b036200239616565b60a001516116e0526200199081601d6001600160e01b036200239616565b60a0015161170052620019ae8160006001600160e01b036200239616565b60c0015160601b6001600160601b03191661172052620019d081600162002396565b60c0015160601b6001600160601b03191661174052620019f281600262002396565b60c0015160601b6001600160601b0319166117605262001a1481600362002396565b60c0015160601b6001600160601b0319166117805262001a3681600462002396565b60c0015160601b6001600160601b0319166117a05262001a5881600562002396565b60c0015160601b6001600160601b0319166117c05262001a7a81600662002396565b60c0015160601b6001600160601b0319166117e05262001a9c81600762002396565b60c0015160601b6001600160601b0319166118005262001abe81600862002396565b60c0015160601b6001600160601b0319166118205262001ae081600962002396565b60c0015160601b6001600160601b0319166118405262001b0281600a62002396565b60c0015160601b6001600160601b0319166118605262001b2481600b62002396565b60c0015160601b6001600160601b0319166118805262001b4681600c62002396565b60c0015160601b6001600160601b0319166118a05262001b6881600d62002396565b60c0015160601b6001600160601b0319166118c05262001b8a81600e62002396565b60c0015160601b6001600160601b0319166118e05262001bac81600f62002396565b60c0015160601b6001600160601b0319166119005262001bce81601062002396565b60c0015160601b6001600160601b0319166119205262001bf081601162002396565b60c0015160601b6001600160601b0319166119405262001c1281601262002396565b60c0015160601b6001600160601b0319166119605262001c3481601362002396565b60c0015160601b6001600160601b0319166119805262001c5681601462002396565b60c0015160601b6001600160601b0319166119a05262001c7881601562002396565b60c0015160601b6001600160601b0319166119c05262001c9a81601662002396565b60c0015160601b6001600160601b0319166119e05262001cbc81601762002396565b60c0015160601b6001600160601b031916611a005262001cde81601862002396565b60c0015160601b6001600160601b031916611a205262001d0081601962002396565b60c0015160601b6001600160601b031916611a405262001d2281601a62002396565b60c0015160601b6001600160601b031916611a605262001d4481601b62002396565b60c0015160601b6001600160601b031916611a805262001d6681601c62002396565b60c0015160601b6001600160601b031916611aa05262001d8881601d62002396565b60c0015160601b6001600160601b031916611ac05262001daa81600062002396565b60e00151151560f81b611ae05262001dcd8160016001600160e01b036200239616565b60e00151151560f81b611b005262001df08160026001600160e01b036200239616565b60e00151151560f81b611b205262001e138160036001600160e01b036200239616565b60e00151151560f81b611b405262001e368160046001600160e01b036200239616565b60e00151151560f81b611b605262001e598160056001600160e01b036200239616565b60e00151151560f81b611b805262001e7c8160066001600160e01b036200239616565b60e00151151560f81b611ba05262001e9f8160076001600160e01b036200239616565b60e00151151560f81b611bc05262001ec28160086001600160e01b036200239616565b60e00151151560f81b611be05262001ee58160096001600160e01b036200239616565b60e00151151560f81b611c005262001f0881600a6001600160e01b036200239616565b60e00151151560f81b611c205262001f2b81600b6001600160e01b036200239616565b60e00151151560f81b611c405262001f4e81600c6001600160e01b036200239616565b60e00151151560f81b611c605262001f7181600d6001600160e01b036200239616565b60e00151151560f81b611c805262001f9481600e6001600160e01b036200239616565b60e00151151560f81b611ca05262001fb781600f6001600160e01b036200239616565b60e00151151560f81b611cc05262001fda8160106001600160e01b036200239616565b60e00151151560f81b611ce05262001ffd8160116001600160e01b036200239616565b60e00151151560f81b611d0052620020208160126001600160e01b036200239616565b60e00151151560f81b611d2052620020438160136001600160e01b036200239616565b60e00151151560f81b611d4052620020668160146001600160e01b036200239616565b60e00151151560f81b611d6052620020898160156001600160e01b036200239616565b60e00151151560f81b611d8052620020ac8160166001600160e01b036200239616565b60e00151151560f81b611da052620020cf8160176001600160e01b036200239616565b60e00151151560f81b611dc052620020f28160186001600160e01b036200239616565b60e00151151560f81b611de052620021158160196001600160e01b036200239616565b60e00151151560f81b611e00526200213881601a6001600160e01b036200239616565b60e00151151560f81b611e20526200215b81601b6001600160e01b036200239616565b60e00151151560f81b611e40526200217e81601c6001600160e01b036200239616565b60e00151151560f81b611e6052620021a181601d6001600160e01b036200239616565b60e00151151560f81b611e8052506001600160601b0319606086811b8216611ea05285901b16611ec052611f20829052670de0b6b3a7640000198311620021f35782670de0b6b3a764000001620021f7565b6000195b611ee052670de0b6b3a76400008310620022135760016200221f565b82670de0b6b3a7640000035b611f005260005b81518110156200238a576200223a620026e2565b8282815181106200224757fe5b602002602001015190506000816060015111620022785760405162461bcd60e51b81526004016200005b9062002976565b60c08101516002826080015160028111156200229057fe5b141562002355576001600160a01b038116620022c05760405162461bcd60e51b81526004016200005b90620029b8565b60408201516000620022db846001600160e01b036200241016565b600083815260026020908152604080832042808255600390935292819020828155600193840185905592909201839055905191925083917fe37d39315e3419c0937360f1ac88f2c52ecf67e3b22b367f82047ddb4591904a91620023459181908690819062002aa2565b60405180910390a250506200237f565b6001600160a01b038116156200237f5760405162461bcd60e51b81526004016200005b9062002a5c565b505060010162002226565b50505050505062002b33565b620023a0620026e2565b8251821015620023c757828281518110620023b757fe5b602002602001015190506200240a565b506040805161010081018252600080825260208201819052918101829052606081018290526080810182905260a0810182905260c0810182905260e08101919091525b92915050565b60008060006200242f8460c001516200245260201b620035361760201c565b50915091508360e0015115620024495791506200244d9050565b5090505b919050565b60008080620024696001600160e01b036200265e16565b9050836001600160a01b0316635909c0d56040518163ffffffff1660e01b815260040160206040518083038186803b158015620024a557600080fd5b505afa158015620024ba573d6000803e3d6000fd5b505050506040513d601f19601f82011682018060405250810190620024e091906200295d565b9250836001600160a01b0316635a3d54936040518163ffffffff1660e01b815260040160206040518083038186803b1580156200251c57600080fd5b505afa15801562002531573d6000803e3d6000fd5b505050506040513d601f19601f820116820180604052508101906200255791906200295d565b91506000806000866001600160a01b0316630902f1ac6040518163ffffffff1660e01b815260040160606040518083038186803b1580156200259857600080fd5b505afa158015620025ad573d6000803e3d6000fd5b505050506040513d601f19601f82011682018060405250810190620025d3919062002903565b9250925092508363ffffffff168163ffffffff16146200265457600081850390508063ffffffff166200261284866200266860201b6200370b1760201c565b600001516001600160e01b031602870196508063ffffffff166200264285856200266860201b6200370b1760201c565b516001600160e01b0316029590950194505b5050509193909250565b63ffffffff421690565b6200267262002727565b6000826001600160701b0316116200269e5760405162461bcd60e51b81526004016200005b9062002a25565b6040805160208101909152806001600160701b038416600160701b600160e01b03607087901b1681620026cd57fe5b046001600160e01b0316815250905092915050565b60408051610100810182526000808252602082018190529181018290526060810182905290608082019081526000602082018190526040820181905260609091015290565b60408051602081019091526000815290565b80516200240a8162002b04565b805180151581146200240a57600080fd5b8051600381106200240a57600080fd5b60006101008083850312156200277b578182fd5b620027868162002abd565b9150508151620027968162002b04565b81526020820151620027a88162002b04565b806020830152506040820151604082015260608201516060820152620027d2836080840162002757565b608082015260a082015160a0820152620027f08360c0840162002739565b60c0820152620028048360e0840162002746565b60e082015292915050565b600080600080600060a0868803121562002827578081fd5b8551620028348162002b04565b80955050602080870151620028498162002b04565b6040880151606089015160808a015192975090955093506001600160401b0381111562002874578283fd5b80880189601f82011262002886578384fd5b805191506200289f620028998362002ae4565b62002abd565b82815283810190828501610100808602850187018e1015620028bf578788fd5b8794505b85851015620028ef57620028d88e8362002767565b8452600194909401939286019290810190620028c3565b505080955050505050509295509295909350565b60008060006060848603121562002918578283fd5b8351620029258162002b1d565b6020850151909350620029388162002b1d565b604085015190925063ffffffff8116811462002952578182fd5b809150509250925092565b6000602082840312156200296f578081fd5b5051919050565b60208082526022908201527f62617365556e6974206d7573742062652067726561746572207468616e207a65604082015261726f60f01b606082015260800190565b60208082526023908201527f7265706f7274656420707269636573206d757374206861766520616e20616e636040820152623437b960e91b606082015260800190565b60208082526010908201526f746f6f206d616e7920636f6e6669677360801b604082015260600190565b60208082526017908201527f4669786564506f696e743a204449565f42595f5a45524f000000000000000000604082015260600190565b60208082526026908201527f6f6e6c79207265706f7274656420707269636573207574696c697a6520616e2060408201526530b731b437b960d11b606082015260800190565b93845260208401929092526040830152606082015260800190565b6040518181016001600160401b038111828210171562002adc57600080fd5b604052919050565b60006001600160401b0382111562002afa578081fd5b5060209081020190565b6001600160a01b038116811462002b1a57600080fd5b50565b6001600160701b038116811462002b1a57600080fd5b60805160a05160601c60c05160601c60e05160601c6101005160601c6101205160601c6101405160601c6101605160601c6101805160601c6101a05160601c6101c05160601c6101e05160601c6102005160601c6102205160601c6102405160601c6102605160601c6102805160601c6102a05160601c6102c05160601c6102e05160601c6103005160601c6103205160601c6103405160601c6103605160601c6103805160601c6103a05160601c6103c05160601c6103e05160601c6104005160601c6104205160601c6104405160601c6104605160601c6104805160601c6104a05160601c6104c05160601c6104e05160601c6105005160601c6105205160601c6105405160601c6105605160601c6105805160601c6105a05160601c6105c05160601c6105e05160601c6106005160601c6106205160601c6106405160601c6106605160601c6106805160601c6106a05160601c6106c05160601c6106e05160601c6107005160601c6107205160601c6107405160601c6107605160601c6107805160601c6107a05160601c6107c05160601c6107e05160601c6108005160601c610820516108405161086051610880516108a0516108c0516108e05161090051610920516109405161096051610980516109a0516109c0516109e051610a0051610a2051610a4051610a6051610a8051610aa051610ac051610ae051610b0051610b2051610b4051610b6051610b8051610ba051610bc051610be051610c0051610c2051610c4051610c6051610c8051610ca051610cc051610ce051610d0051610d2051610d4051610d6051610d8051610da051610dc051610de051610e0051610e2051610e4051610e6051610e8051610ea051610ec051610ee051610f0051610f2051610f4051610f6051610f8051610fa05160f81c610fc05160f81c610fe05160f81c6110005160f81c6110205160f81c6110405160f81c6110605160f81c6110805160f81c6110a05160f81c6110c05160f81c6110e05160f81c6111005160f81c6111205160f81c6111405160f81c6111605160f81c6111805160f81c6111a05160f81c6111c05160f81c6111e05160f81c6112005160f81c6112205160f81c6112405160f81c6112605160f81c6112805160f81c6112a05160f81c6112c05160f81c6112e05160f81c6113005160f81c6113205160f81c6113405160f81c61136051611380516113a0516113c0516113e05161140051611420516114405161146051611480516114a0516114c0516114e05161150051611520516115405161156051611580516115a0516115c0516115e05161160051611620516116405161166051611680516116a0516116c0516116e051611700516117205160601c6117405160601c6117605160601c6117805160601c6117a05160601c6117c05160601c6117e05160601c6118005160601c6118205160601c6118405160601c6118605160601c6118805160601c6118a05160601c6118c05160601c6118e05160601c6119005160601c6119205160601c6119405160601c6119605160601c6119805160601c6119a05160601c6119c05160601c6119e05160601c611a005160601c611a205160601c611a405160601c611a605160601c611a805160601c611aa05160601c611ac05160601c611ae05160f81c611b005160f81c611b205160f81c611b405160f81c611b605160f81c611b805160f81c611ba05160f81c611bc05160f81c611be05160f81c611c005160f81c611c205160f81c611c405160f81c611c605160f81c611c805160f81c611ca05160f81c611cc05160f81c611ce05160f81c611d005160f81c611d205160f81c611d405160f81c611d605160f81c611d805160f81c611da05160f81c611dc05160f81c611de05160f81c611e005160f81c611e205160f81c611e405160f81c611e605160f81c611e805160f81c611ea05160601c611ec05160601c611ee051611f0051611f2051615d9d6200389460003980613259528061528652508061320c52806151ff5250806103a352806151d45250806102fe528061312552806131b452806145d552508061323052806132c052806145a6525080613076525080612f04525080612d92525080612c20525080612aae52508061293c5250806127ca5250806126585250806124e6525080612374525080612202525080612090525080611f1e525080611dac525080611c3a525080611ac85250806119565250806117e452508061167252508061150052508061138e52508061121c5250806110aa525080610f38525080610dc6525080610c54525080610ae25250806109705250806107fe52508061068c525080613047525080612ed5525080612d63525080612bf1525080612a7f52508061290d52508061279b5250806126295250806124b75250806123455250806121d3525080612061525080611eef525080611d7d525080611c0b525080611a995250806119275250806117b55250806116435250806114d152508061135f5250806111ed52508061107b525080610f09525080610d97525080610c25525080610ab35250806109415250806107cf52508061065d525080613021525080612eaf525080612d3d525080612bcb525080612a595250806128e752508061277552508061260352508061249152508061231f5250806121ad52508061203b525080611ec9525080611d57525080611be5525080611a7352508061190152508061178f52508061161d5250806114ab5250806113395250806111c7525080611055525080610ee3525080610d71525080610bff525080610a8d52508061091b5250806107a9525080610637525080612ff0525080612e7e525080612d0c525080612b9a525080612a285250806128b65250806127445250806125d25250806124605250806122ee52508061217c52508061200a525080611e98525080611d26525080611bb4525080611a425250806118d052508061175e5250806115ec52508061147a525080611308525080611196525080611024525080610eb2525080610d40525080610bce525080610a5c5250806108ea525080610778525080610606525080612fca525080612e58525080612ce6525080612b74525080612a0252508061289052508061271e5250806125ac52508061243a5250806122c8525080612156525080611fe4525080611e72525080611d00525080611b8e525080611a1c5250806118aa5250806117385250806115c65250806114545250806112e2525080611170525080610ffe525080610e8c525080610d1a525080610ba8525080610a365250806108c45250806107525250806105e0525080612fa45280613cfa525080612e325280613cca525080612cc05280613c9a525080612b4e5280613c6a5250806129dc5280613c3a52508061286a5280613c0a5250806126f85280613bda5250806125865280613baa5250806124145280613b7a5250806122a25280613b4a5250806121305280613b1a525080611fbe5280613aea525080611e4c5280613aba525080611cda5280613a8a525080611b685280613a5a5250806119f65280613a2a52508061188452806139fa52508061171252806139ca5250806115a0528061399a52508061142e528061396a5250806112bc528061393a52508061114a528061390a525080610fd852806138da525080610e6652806138aa525080610cf4528061387a525080610b82528061384a525080610a10528061381a52508061089e52806137ea52508061072c52806137ba5250806105ba528061378a525080612f7552806144af525080612e03528061446d525080612c91528061442b525080612b1f52806143e95250806129ad52806143a752508061283b52806143655250806126c9528061432352508061255752806142e15250806123e5528061429f525080612273528061425d525080612101528061421b525080611f8f52806141d9525080611e1d5280614197525080611cab5280614155525080611b3952806141135250806119c752806140d1525080611855528061408f5250806116e3528061404d525080611571528061400b5250806113ff5280613fc952508061128d5280613f8752508061111b5280613f45525080610fa95280613f03525080610e375280613ec1525080610cc55280613e7f525080610b535280613e3d5250806109e15280613dfb52508061086f5280613db95250806106fd5280613d7752508061058b5280613d35525080612f465280614f20525080612dd45280614ede525080612c625280614e9c525080612af05280614e5a52508061297e5280614e1852508061280c5280614dd652508061269a5280614d945250806125285280614d525250806123b65280614d105250806122445280614cce5250806120d25280614c8c525080611f605280614c4a525080611dee5280614c08525080611c7c5280614bc6525080611b0a5280614b845250806119985280614b425250806118265280614b005250806116b45280614abe5250806115425280614a7c5250806113d05280614a3a52508061125e52806149f85250806110ec52806149b6525080610f7a5280614974525080610e085280614932525080610c9652806148f0525080610b2452806148ae5250806109b2528061486c525080610840528061482a5250806106ce52806147e852508061055c52806147a652508061050c52806131e85250615d9d6000f3fe608060405234801561001057600080fd5b50600436106101585760003560e01c80638aba91b4116100c3578063e9206d781161007c578063e9206d7814610295578063eaa1c2ca1461029d578063ecc1e984146102b0578063eea85ecb146102c3578063fc57d4df146102d6578063fe2c6198146102e957610158565b80638aba91b4146102605780638e499bcf1461027557806392b843571461027d578063d1b353b414610245578063e61a5fe414610285578063e83157421461028d57610158565b8063482a619311610115578063482a6193146101f75780634da219421461020a57806360846bc61461021d578063651ed7881461023057806369aa3ac6146102455780638a0038881461024d57610158565b8063010ec4411461015d57806306981c911461017b5780631a1252041461019b57806324105209146101bb578063276c2cba146101c357806337c0e12d146101d6575b600080fd5b6101656102fc565b604051610172919061588c565b60405180910390f35b61018e61018936600461566e565b610320565b60405161017291906158cf565b6101ae6101a93660046155b8565b610351565b6040516101729190615bbe565b61018e6103a1565b6101ae6101d136600461566e565b6103c5565b6101e96101e43660046155b8565b610402565b604051610172929190615c39565b61016561020536600461560d565b61041b565b6101ae6102183660046154ea565b6104c8565b61018e61022b3660046155b8565b6104db565b6102386104ed565b60405161017291906158c4565b61018e6104f6565b6101ae61025b3660046155b8565b610502565b61027361026e36600461560d565b6130a1565b005b61018e6131e6565b61018e61320a565b61016561322e565b61018e613252565b61018e613257565b6101e96102ab3660046155b8565b61327b565b6102736102be366004615522565b613294565b6101ae6102d13660046154ea565b61342e565b61018e6102e43660046154ea565b6134d0565b61018e6102f736600461566e565b613518565b7f000000000000000000000000000000000000000000000000000000000000000081565b600081604051602001610333919061581e565b6040516020818303038152906040528051906020012090505b919050565b610359615390565b600061036483613786565b905060001981146103805761037881610502565b91505061034c565b60405162461bcd60e51b8152600401610398906159d5565b60405180910390fd5b7f000000000000000000000000000000000000000000000000000000000000000081565b6103cd615390565b6103fc826040516020016103e1919061581e565b60405160208183030381529060405280519060200120610351565b92915050565b6002602052600090815260409020805460019091015482565b6000806000808480602001905181019061043591906155d0565b92509250925060008680519060200120604051602001610455919061583a565b6040516020818303038152906040528051906020012090506001818386866040516000815260200160405260405161049094939291906158d8565b6020604051602081039080840390855afa1580156104b2573d6000803e3d6000fd5b5050604051601f19015198975050505050505050565b6104d0615390565b600061036483613d31565b60006020819052908152604090205481565b60015460ff1681565b670de0b6b3a764000081565b61050a615390565b7f000000000000000000000000000000000000000000000000000000000000000082106105495760405162461bcd60e51b8152600401610398906159d5565b816106b7576040518061010001604052807f00000000000000000000000000000000000000000000000000000000000000006001600160a01b031681526020017f00000000000000000000000000000000000000000000000000000000000000006001600160a01b031681526020017f000000000000000000000000000000000000000000000000000000000000000081526020017f000000000000000000000000000000000000000000000000000000000000000081526020017f0000000000000000000000000000000000000000000000000000000000000000600281111561063057fe5b81526020017f000000000000000000000000000000000000000000000000000000000000000081526020017f00000000000000000000000000000000000000000000000000000000000000006001600160a01b031681526020017f00000000000000000000000000000000000000000000000000000000000000001515815250905061034c565b8160011415610829576040518061010001604052807f00000000000000000000000000000000000000000000000000000000000000006001600160a01b031681526020017f00000000000000000000000000000000000000000000000000000000000000006001600160a01b031681526020017f000000000000000000000000000000000000000000000000000000000000000081526020017f000000000000000000000000000000000000000000000000000000000000000081526020017f000000000000000000000000000000000000000000000000000000000000000060028111156107a257fe5b81526020017f000000000000000000000000000000000000000000000000000000000000000081526020017f00000000000000000000000000000000000000000000000000000000000000006001600160a01b031681526020017f00000000000000000000000000000000000000000000000000000000000000001515815250905061034c565b816002141561099b576040518061010001604052807f00000000000000000000000000000000000000000000000000000000000000006001600160a01b031681526020017f00000000000000000000000000000000000000000000000000000000000000006001600160a01b031681526020017f000000000000000000000000000000000000000000000000000000000000000081526020017f000000000000000000000000000000000000000000000000000000000000000081526020017f0000000000000000000000000000000000000000000000000000000000000000600281111561091457fe5b81526020017f000000000000000000000000000000000000000000000000000000000000000081526020017f00000000000000000000000000000000000000000000000000000000000000006001600160a01b031681526020017f00000000000000000000000000000000000000000000000000000000000000001515815250905061034c565b8160031415610b0d576040518061010001604052807f00000000000000000000000000000000000000000000000000000000000000006001600160a01b031681526020017f00000000000000000000000000000000000000000000000000000000000000006001600160a01b031681526020017f000000000000000000000000000000000000000000000000000000000000000081526020017f000000000000000000000000000000000000000000000000000000000000000081526020017f00000000000000000000000000000000000000000000000000000000000000006002811115610a8657fe5b81526020017f000000000000000000000000000000000000000000000000000000000000000081526020017f00000000000000000000000000000000000000000000000000000000000000006001600160a01b031681526020017f00000000000000000000000000000000000000000000000000000000000000001515815250905061034c565b8160041415610c7f576040518061010001604052807f00000000000000000000000000000000000000000000000000000000000000006001600160a01b031681526020017f00000000000000000000000000000000000000000000000000000000000000006001600160a01b031681526020017f000000000000000000000000000000000000000000000000000000000000000081526020017f000000000000000000000000000000000000000000000000000000000000000081526020017f00000000000000000000000000000000000000000000000000000000000000006002811115610bf857fe5b81526020017f000000000000000000000000000000000000000000000000000000000000000081526020017f00000000000000000000000000000000000000000000000000000000000000006001600160a01b031681526020017f00000000000000000000000000000000000000000000000000000000000000001515815250905061034c565b8160051415610df1576040518061010001604052807f00000000000000000000000000000000000000000000000000000000000000006001600160a01b031681526020017f00000000000000000000000000000000000000000000000000000000000000006001600160a01b031681526020017f000000000000000000000000000000000000000000000000000000000000000081526020017f000000000000000000000000000000000000000000000000000000000000000081526020017f00000000000000000000000000000000000000000000000000000000000000006002811115610d6a57fe5b81526020017f000000000000000000000000000000000000000000000000000000000000000081526020017f00000000000000000000000000000000000000000000000000000000000000006001600160a01b031681526020017f00000000000000000000000000000000000000000000000000000000000000001515815250905061034c565b8160061415610f63576040518061010001604052807f00000000000000000000000000000000000000000000000000000000000000006001600160a01b031681526020017f00000000000000000000000000000000000000000000000000000000000000006001600160a01b031681526020017f000000000000000000000000000000000000000000000000000000000000000081526020017f000000000000000000000000000000000000000000000000000000000000000081526020017f00000000000000000000000000000000000000000000000000000000000000006002811115610edc57fe5b81526020017f000000000000000000000000000000000000000000000000000000000000000081526020017f00000000000000000000000000000000000000000000000000000000000000006001600160a01b031681526020017f00000000000000000000000000000000000000000000000000000000000000001515815250905061034c565b81600714156110d5576040518061010001604052807f00000000000000000000000000000000000000000000000000000000000000006001600160a01b031681526020017f00000000000000000000000000000000000000000000000000000000000000006001600160a01b031681526020017f000000000000000000000000000000000000000000000000000000000000000081526020017f000000000000000000000000000000000000000000000000000000000000000081526020017f0000000000000000000000000000000000000000000000000000000000000000600281111561104e57fe5b81526020017f000000000000000000000000000000000000000000000000000000000000000081526020017f00000000000000000000000000000000000000000000000000000000000000006001600160a01b031681526020017f00000000000000000000000000000000000000000000000000000000000000001515815250905061034c565b8160081415611247576040518061010001604052807f00000000000000000000000000000000000000000000000000000000000000006001600160a01b031681526020017f00000000000000000000000000000000000000000000000000000000000000006001600160a01b031681526020017f000000000000000000000000000000000000000000000000000000000000000081526020017f000000000000000000000000000000000000000000000000000000000000000081526020017f000000000000000000000000000000000000000000000000000000000000000060028111156111c057fe5b81526020017f000000000000000000000000000000000000000000000000000000000000000081526020017f00000000000000000000000000000000000000000000000000000000000000006001600160a01b031681526020017f00000000000000000000000000000000000000000000000000000000000000001515815250905061034c565b81600914156113b9576040518061010001604052807f00000000000000000000000000000000000000000000000000000000000000006001600160a01b031681526020017f00000000000000000000000000000000000000000000000000000000000000006001600160a01b031681526020017f000000000000000000000000000000000000000000000000000000000000000081526020017f000000000000000000000000000000000000000000000000000000000000000081526020017f0000000000000000000000000000000000000000000000000000000000000000600281111561133257fe5b81526020017f000000000000000000000000000000000000000000000000000000000000000081526020017f00000000000000000000000000000000000000000000000000000000000000006001600160a01b031681526020017f00000000000000000000000000000000000000000000000000000000000000001515815250905061034c565b81600a141561152b576040518061010001604052807f00000000000000000000000000000000000000000000000000000000000000006001600160a01b031681526020017f00000000000000000000000000000000000000000000000000000000000000006001600160a01b031681526020017f000000000000000000000000000000000000000000000000000000000000000081526020017f000000000000000000000000000000000000000000000000000000000000000081526020017f000000000000000000000000000000000000000000000000000000000000000060028111156114a457fe5b81526020017f000000000000000000000000000000000000000000000000000000000000000081526020017f00000000000000000000000000000000000000000000000000000000000000006001600160a01b031681526020017f00000000000000000000000000000000000000000000000000000000000000001515815250905061034c565b81600b141561169d576040518061010001604052807f00000000000000000000000000000000000000000000000000000000000000006001600160a01b031681526020017f00000000000000000000000000000000000000000000000000000000000000006001600160a01b031681526020017f000000000000000000000000000000000000000000000000000000000000000081526020017f000000000000000000000000000000000000000000000000000000000000000081526020017f0000000000000000000000000000000000000000000000000000000000000000600281111561161657fe5b81526020017f000000000000000000000000000000000000000000000000000000000000000081526020017f00000000000000000000000000000000000000000000000000000000000000006001600160a01b031681526020017f00000000000000000000000000000000000000000000000000000000000000001515815250905061034c565b81600c141561180f576040518061010001604052807f00000000000000000000000000000000000000000000000000000000000000006001600160a01b031681526020017f00000000000000000000000000000000000000000000000000000000000000006001600160a01b031681526020017f000000000000000000000000000000000000000000000000000000000000000081526020017f000000000000000000000000000000000000000000000000000000000000000081526020017f0000000000000000000000000000000000000000000000000000000000000000600281111561178857fe5b81526020017f000000000000000000000000000000000000000000000000000000000000000081526020017f00000000000000000000000000000000000000000000000000000000000000006001600160a01b031681526020017f00000000000000000000000000000000000000000000000000000000000000001515815250905061034c565b81600d1415611981576040518061010001604052807f00000000000000000000000000000000000000000000000000000000000000006001600160a01b031681526020017f00000000000000000000000000000000000000000000000000000000000000006001600160a01b031681526020017f000000000000000000000000000000000000000000000000000000000000000081526020017f000000000000000000000000000000000000000000000000000000000000000081526020017f000000000000000000000000000000000000000000000000000000000000000060028111156118fa57fe5b81526020017f000000000000000000000000000000000000000000000000000000000000000081526020017f00000000000000000000000000000000000000000000000000000000000000006001600160a01b031681526020017f00000000000000000000000000000000000000000000000000000000000000001515815250905061034c565b81600e1415611af3576040518061010001604052807f00000000000000000000000000000000000000000000000000000000000000006001600160a01b031681526020017f00000000000000000000000000000000000000000000000000000000000000006001600160a01b031681526020017f000000000000000000000000000000000000000000000000000000000000000081526020017f000000000000000000000000000000000000000000000000000000000000000081526020017f00000000000000000000000000000000000000000000000000000000000000006002811115611a6c57fe5b81526020017f000000000000000000000000000000000000000000000000000000000000000081526020017f00000000000000000000000000000000000000000000000000000000000000006001600160a01b031681526020017f00000000000000000000000000000000000000000000000000000000000000001515815250905061034c565b81600f1415611c65576040518061010001604052807f00000000000000000000000000000000000000000000000000000000000000006001600160a01b031681526020017f00000000000000000000000000000000000000000000000000000000000000006001600160a01b031681526020017f000000000000000000000000000000000000000000000000000000000000000081526020017f000000000000000000000000000000000000000000000000000000000000000081526020017f00000000000000000000000000000000000000000000000000000000000000006002811115611bde57fe5b81526020017f000000000000000000000000000000000000000000000000000000000000000081526020017f00000000000000000000000000000000000000000000000000000000000000006001600160a01b031681526020017f00000000000000000000000000000000000000000000000000000000000000001515815250905061034c565b8160101415611dd7576040518061010001604052807f00000000000000000000000000000000000000000000000000000000000000006001600160a01b031681526020017f00000000000000000000000000000000000000000000000000000000000000006001600160a01b031681526020017f000000000000000000000000000000000000000000000000000000000000000081526020017f000000000000000000000000000000000000000000000000000000000000000081526020017f00000000000000000000000000000000000000000000000000000000000000006002811115611d5057fe5b81526020017f000000000000000000000000000000000000000000000000000000000000000081526020017f00000000000000000000000000000000000000000000000000000000000000006001600160a01b031681526020017f00000000000000000000000000000000000000000000000000000000000000001515815250905061034c565b8160111415611f49576040518061010001604052807f00000000000000000000000000000000000000000000000000000000000000006001600160a01b031681526020017f00000000000000000000000000000000000000000000000000000000000000006001600160a01b031681526020017f000000000000000000000000000000000000000000000000000000000000000081526020017f000000000000000000000000000000000000000000000000000000000000000081526020017f00000000000000000000000000000000000000000000000000000000000000006002811115611ec257fe5b81526020017f000000000000000000000000000000000000000000000000000000000000000081526020017f00000000000000000000000000000000000000000000000000000000000000006001600160a01b031681526020017f00000000000000000000000000000000000000000000000000000000000000001515815250905061034c565b81601214156120bb576040518061010001604052807f00000000000000000000000000000000000000000000000000000000000000006001600160a01b031681526020017f00000000000000000000000000000000000000000000000000000000000000006001600160a01b031681526020017f000000000000000000000000000000000000000000000000000000000000000081526020017f000000000000000000000000000000000000000000000000000000000000000081526020017f0000000000000000000000000000000000000000000000000000000000000000600281111561203457fe5b81526020017f000000000000000000000000000000000000000000000000000000000000000081526020017f00000000000000000000000000000000000000000000000000000000000000006001600160a01b031681526020017f00000000000000000000000000000000000000000000000000000000000000001515815250905061034c565b816013141561222d576040518061010001604052807f00000000000000000000000000000000000000000000000000000000000000006001600160a01b031681526020017f00000000000000000000000000000000000000000000000000000000000000006001600160a01b031681526020017f000000000000000000000000000000000000000000000000000000000000000081526020017f000000000000000000000000000000000000000000000000000000000000000081526020017f000000000000000000000000000000000000000000000000000000000000000060028111156121a657fe5b81526020017f000000000000000000000000000000000000000000000000000000000000000081526020017f00000000000000000000000000000000000000000000000000000000000000006001600160a01b031681526020017f00000000000000000000000000000000000000000000000000000000000000001515815250905061034c565b816014141561239f576040518061010001604052807f00000000000000000000000000000000000000000000000000000000000000006001600160a01b031681526020017f00000000000000000000000000000000000000000000000000000000000000006001600160a01b031681526020017f000000000000000000000000000000000000000000000000000000000000000081526020017f000000000000000000000000000000000000000000000000000000000000000081526020017f0000000000000000000000000000000000000000000000000000000000000000600281111561231857fe5b81526020017f000000000000000000000000000000000000000000000000000000000000000081526020017f00000000000000000000000000000000000000000000000000000000000000006001600160a01b031681526020017f00000000000000000000000000000000000000000000000000000000000000001515815250905061034c565b8160151415612511576040518061010001604052807f00000000000000000000000000000000000000000000000000000000000000006001600160a01b031681526020017f00000000000000000000000000000000000000000000000000000000000000006001600160a01b031681526020017f000000000000000000000000000000000000000000000000000000000000000081526020017f000000000000000000000000000000000000000000000000000000000000000081526020017f0000000000000000000000000000000000000000000000000000000000000000600281111561248a57fe5b81526020017f000000000000000000000000000000000000000000000000000000000000000081526020017f00000000000000000000000000000000000000000000000000000000000000006001600160a01b031681526020017f00000000000000000000000000000000000000000000000000000000000000001515815250905061034c565b8160161415612683576040518061010001604052807f00000000000000000000000000000000000000000000000000000000000000006001600160a01b031681526020017f00000000000000000000000000000000000000000000000000000000000000006001600160a01b031681526020017f000000000000000000000000000000000000000000000000000000000000000081526020017f000000000000000000000000000000000000000000000000000000000000000081526020017f000000000000000000000000000000000000000000000000000000000000000060028111156125fc57fe5b81526020017f000000000000000000000000000000000000000000000000000000000000000081526020017f00000000000000000000000000000000000000000000000000000000000000006001600160a01b031681526020017f00000000000000000000000000000000000000000000000000000000000000001515815250905061034c565b81601714156127f5576040518061010001604052807f00000000000000000000000000000000000000000000000000000000000000006001600160a01b031681526020017f00000000000000000000000000000000000000000000000000000000000000006001600160a01b031681526020017f000000000000000000000000000000000000000000000000000000000000000081526020017f000000000000000000000000000000000000000000000000000000000000000081526020017f0000000000000000000000000000000000000000000000000000000000000000600281111561276e57fe5b81526020017f000000000000000000000000000000000000000000000000000000000000000081526020017f00000000000000000000000000000000000000000000000000000000000000006001600160a01b031681526020017f00000000000000000000000000000000000000000000000000000000000000001515815250905061034c565b8160181415612967576040518061010001604052807f00000000000000000000000000000000000000000000000000000000000000006001600160a01b031681526020017f00000000000000000000000000000000000000000000000000000000000000006001600160a01b031681526020017f000000000000000000000000000000000000000000000000000000000000000081526020017f000000000000000000000000000000000000000000000000000000000000000081526020017f000000000000000000000000000000000000000000000000000000000000000060028111156128e057fe5b81526020017f000000000000000000000000000000000000000000000000000000000000000081526020017f00000000000000000000000000000000000000000000000000000000000000006001600160a01b031681526020017f00000000000000000000000000000000000000000000000000000000000000001515815250905061034c565b8160191415612ad9576040518061010001604052807f00000000000000000000000000000000000000000000000000000000000000006001600160a01b031681526020017f00000000000000000000000000000000000000000000000000000000000000006001600160a01b031681526020017f000000000000000000000000000000000000000000000000000000000000000081526020017f000000000000000000000000000000000000000000000000000000000000000081526020017f00000000000000000000000000000000000000000000000000000000000000006002811115612a5257fe5b81526020017f000000000000000000000000000000000000000000000000000000000000000081526020017f00000000000000000000000000000000000000000000000000000000000000006001600160a01b031681526020017f00000000000000000000000000000000000000000000000000000000000000001515815250905061034c565b81601a1415612c4b576040518061010001604052807f00000000000000000000000000000000000000000000000000000000000000006001600160a01b031681526020017f00000000000000000000000000000000000000000000000000000000000000006001600160a01b031681526020017f000000000000000000000000000000000000000000000000000000000000000081526020017f000000000000000000000000000000000000000000000000000000000000000081526020017f00000000000000000000000000000000000000000000000000000000000000006002811115612bc457fe5b81526020017f000000000000000000000000000000000000000000000000000000000000000081526020017f00000000000000000000000000000000000000000000000000000000000000006001600160a01b031681526020017f00000000000000000000000000000000000000000000000000000000000000001515815250905061034c565b81601b1415612dbd576040518061010001604052807f00000000000000000000000000000000000000000000000000000000000000006001600160a01b031681526020017f00000000000000000000000000000000000000000000000000000000000000006001600160a01b031681526020017f000000000000000000000000000000000000000000000000000000000000000081526020017f000000000000000000000000000000000000000000000000000000000000000081526020017f00000000000000000000000000000000000000000000000000000000000000006002811115612d3657fe5b81526020017f000000000000000000000000000000000000000000000000000000000000000081526020017f00000000000000000000000000000000000000000000000000000000000000006001600160a01b031681526020017f00000000000000000000000000000000000000000000000000000000000000001515815250905061034c565b81601c1415612f2f576040518061010001604052807f00000000000000000000000000000000000000000000000000000000000000006001600160a01b031681526020017f00000000000000000000000000000000000000000000000000000000000000006001600160a01b031681526020017f000000000000000000000000000000000000000000000000000000000000000081526020017f000000000000000000000000000000000000000000000000000000000000000081526020017f00000000000000000000000000000000000000000000000000000000000000006002811115612ea857fe5b81526020017f000000000000000000000000000000000000000000000000000000000000000081526020017f00000000000000000000000000000000000000000000000000000000000000006001600160a01b031681526020017f00000000000000000000000000000000000000000000000000000000000000001515815250905061034c565b81601d141561034c576040518061010001604052807f00000000000000000000000000000000000000000000000000000000000000006001600160a01b031681526020017f00000000000000000000000000000000000000000000000000000000000000006001600160a01b031681526020017f000000000000000000000000000000000000000000000000000000000000000081526020017f000000000000000000000000000000000000000000000000000000000000000081526020017f0000000000000000000000000000000000000000000000000000000000000000600281111561301a57fe5b81526020017f000000000000000000000000000000000000000000000000000000000000000081526020017f00000000000000000000000000000000000000000000000000000000000000006001600160a01b031681526020017f00000000000000000000000000000000000000000000000000000000000000001515815250905061034c565b6060828060200190518101906130b791906156dc565b5090506040516020016130c99061586b565b60405160208183030381529060405280519060200120816040516020016130f0919061581e565b60405160208183030381529060405280519060200120146131235760405162461bcd60e51b815260040161039890615ac3565b7f00000000000000000000000000000000000000000000000000000000000000006001600160a01b0316613157848461041b565b6001600160a01b03161461317d5760405162461bcd60e51b815260040161039890615a05565b6001805460ff1916811790556040517f98a13f7b181a3a1f99c871e7a3507d4a037d386d157279f978e0d555ae9fe74d906131d9907f00000000000000000000000000000000000000000000000000000000000000009061588c565b60405180910390a1505050565b7f000000000000000000000000000000000000000000000000000000000000000081565b7f000000000000000000000000000000000000000000000000000000000000000081565b7f000000000000000000000000000000000000000000000000000000000000000081565b601e81565b7f000000000000000000000000000000000000000000000000000000000000000081565b6003602052600090815260409020805460019091015482565b8483146132b35760405162461bcd60e51b815260040161039890615b44565b60005b858110156133a7577f00000000000000000000000000000000000000000000000000000000000000006001600160a01b03166338636e9a8888848181106132f957fe5b905060200281019061330b9190615c62565b88888681811061331757fe5b90506020028101906133299190615c62565b6040518563ffffffff1660e01b815260040161334894939291906158f6565b600060405180830381600087803b15801561336257600080fd5b505af1158015613376573d6000803e3d6000fd5b505050506040513d6000823e601f3d908101601f1916820160405261339e91908101906156a9565b506001016132b6565b5060006133b26144ef565b905060005b828110156134245761341c8484838181106133ce57fe5b90506020028101906133e09190615ca9565b8080601f016020809104026020016040519081016040528093929190818152602001838380828437600092019190915250869250614535915050565b6001016133b7565b5050505050505050565b613436615390565b6000613441836147a2565b905060001981146134555761037881610502565b6134c9836001600160a01b0316636f307dc36040518163ffffffff1660e01b815260040160206040518083038186803b15801561349157600080fd5b505afa1580156134a5573d6000803e3d6000fd5b505050506040513d601f19601f820116820180604052508101906102189190615506565b9392505050565b60006134da615390565b6134e38361342e565b905080606001516135096c0c9f2c9cd04674edea4000000061350484614f60565b61504f565b8161351057fe5b049392505050565b6000613522615390565b61352b836103c5565b90506134c981614f60565b6000806000613543615089565b9050836001600160a01b0316635909c0d56040518163ffffffff1660e01b815260040160206040518083038186803b15801561357e57600080fd5b505afa158015613592573d6000803e3d6000fd5b505050506040513d601f19601f820116820180604052508101906135b69190615775565b9250836001600160a01b0316635a3d54936040518163ffffffff1660e01b815260040160206040518083038186803b1580156135f157600080fd5b505afa158015613605573d6000803e3d6000fd5b505050506040513d601f19601f820116820180604052508101906136299190615775565b91506000806000866001600160a01b0316630902f1ac6040518163ffffffff1660e01b815260040160606040518083038186803b15801561366957600080fd5b505afa15801561367d573d6000803e3d6000fd5b505050506040513d601f19601f820116820180604052508101906136a1919061572c565b9250925092508363ffffffff168163ffffffff16146137015780840363ffffffff81166136ce848661370b565b516001600160e01b031602969096019563ffffffff81166136ef858561370b565b516001600160e01b0316029590950194505b5050509193909250565b6137136153d5565b6000826001600160701b03161161373c5760405162461bcd60e51b815260040161039890615b87565b6040805160208101909152806001600160701b0384166dffffffffffffffffffffffffffff60701b607087901b168161377157fe5b046001600160e01b0316815250905092915050565b60007f00000000000000000000000000000000000000000000000000000000000000008214156137b85750600061034c565b7f00000000000000000000000000000000000000000000000000000000000000008214156137e85750600161034c565b7f00000000000000000000000000000000000000000000000000000000000000008214156138185750600261034c565b7f00000000000000000000000000000000000000000000000000000000000000008214156138485750600361034c565b7f00000000000000000000000000000000000000000000000000000000000000008214156138785750600461034c565b7f00000000000000000000000000000000000000000000000000000000000000008214156138a85750600561034c565b7f00000000000000000000000000000000000000000000000000000000000000008214156138d85750600661034c565b7f00000000000000000000000000000000000000000000000000000000000000008214156139085750600761034c565b7f00000000000000000000000000000000000000000000000000000000000000008214156139385750600861034c565b7f00000000000000000000000000000000000000000000000000000000000000008214156139685750600961034c565b7f00000000000000000000000000000000000000000000000000000000000000008214156139985750600a61034c565b7f00000000000000000000000000000000000000000000000000000000000000008214156139c85750600b61034c565b7f00000000000000000000000000000000000000000000000000000000000000008214156139f85750600c61034c565b7f0000000000000000000000000000000000000000000000000000000000000000821415613a285750600d61034c565b7f0000000000000000000000000000000000000000000000000000000000000000821415613a585750600e61034c565b7f0000000000000000000000000000000000000000000000000000000000000000821415613a885750600f61034c565b7f0000000000000000000000000000000000000000000000000000000000000000821415613ab85750601061034c565b7f0000000000000000000000000000000000000000000000000000000000000000821415613ae85750601161034c565b7f0000000000000000000000000000000000000000000000000000000000000000821415613b185750601261034c565b7f0000000000000000000000000000000000000000000000000000000000000000821415613b485750601361034c565b7f0000000000000000000000000000000000000000000000000000000000000000821415613b785750601461034c565b7f0000000000000000000000000000000000000000000000000000000000000000821415613ba85750601561034c565b7f0000000000000000000000000000000000000000000000000000000000000000821415613bd85750601661034c565b7f0000000000000000000000000000000000000000000000000000000000000000821415613c085750601761034c565b7f0000000000000000000000000000000000000000000000000000000000000000821415613c385750601861034c565b7f0000000000000000000000000000000000000000000000000000000000000000821415613c685750601961034c565b7f0000000000000000000000000000000000000000000000000000000000000000821415613c985750601a61034c565b7f0000000000000000000000000000000000000000000000000000000000000000821415613cc85750601b61034c565b7f0000000000000000000000000000000000000000000000000000000000000000821415613cf85750601c61034c565b7f0000000000000000000000000000000000000000000000000000000000000000821415613d285750601d61034c565b50600019919050565b60007f00000000000000000000000000000000000000000000000000000000000000006001600160a01b0316826001600160a01b03161415613d755750600061034c565b7f00000000000000000000000000000000000000000000000000000000000000006001600160a01b0316826001600160a01b03161415613db75750600161034c565b7f00000000000000000000000000000000000000000000000000000000000000006001600160a01b0316826001600160a01b03161415613df95750600261034c565b7f00000000000000000000000000000000000000000000000000000000000000006001600160a01b0316826001600160a01b03161415613e3b5750600361034c565b7f00000000000000000000000000000000000000000000000000000000000000006001600160a01b0316826001600160a01b03161415613e7d5750600461034c565b7f00000000000000000000000000000000000000000000000000000000000000006001600160a01b0316826001600160a01b03161415613ebf5750600561034c565b7f00000000000000000000000000000000000000000000000000000000000000006001600160a01b0316826001600160a01b03161415613f015750600661034c565b7f00000000000000000000000000000000000000000000000000000000000000006001600160a01b0316826001600160a01b03161415613f435750600761034c565b7f00000000000000000000000000000000000000000000000000000000000000006001600160a01b0316826001600160a01b03161415613f855750600861034c565b7f00000000000000000000000000000000000000000000000000000000000000006001600160a01b0316826001600160a01b03161415613fc75750600961034c565b7f00000000000000000000000000000000000000000000000000000000000000006001600160a01b0316826001600160a01b031614156140095750600a61034c565b7f00000000000000000000000000000000000000000000000000000000000000006001600160a01b0316826001600160a01b0316141561404b5750600b61034c565b7f00000000000000000000000000000000000000000000000000000000000000006001600160a01b0316826001600160a01b0316141561408d5750600c61034c565b7f00000000000000000000000000000000000000000000000000000000000000006001600160a01b0316826001600160a01b031614156140cf5750600d61034c565b7f00000000000000000000000000000000000000000000000000000000000000006001600160a01b0316826001600160a01b031614156141115750600e61034c565b7f00000000000000000000000000000000000000000000000000000000000000006001600160a01b0316826001600160a01b031614156141535750600f61034c565b7f00000000000000000000000000000000000000000000000000000000000000006001600160a01b0316826001600160a01b031614156141955750601061034c565b7f00000000000000000000000000000000000000000000000000000000000000006001600160a01b0316826001600160a01b031614156141d75750601161034c565b7f00000000000000000000000000000000000000000000000000000000000000006001600160a01b0316826001600160a01b031614156142195750601261034c565b7f00000000000000000000000000000000000000000000000000000000000000006001600160a01b0316826001600160a01b0316141561425b5750601361034c565b7f00000000000000000000000000000000000000000000000000000000000000006001600160a01b0316826001600160a01b0316141561429d5750601461034c565b7f00000000000000000000000000000000000000000000000000000000000000006001600160a01b0316826001600160a01b031614156142df5750601561034c565b7f00000000000000000000000000000000000000000000000000000000000000006001600160a01b0316826001600160a01b031614156143215750601661034c565b7f00000000000000000000000000000000000000000000000000000000000000006001600160a01b0316826001600160a01b031614156143635750601761034c565b7f00000000000000000000000000000000000000000000000000000000000000006001600160a01b0316826001600160a01b031614156143a55750601861034c565b7f00000000000000000000000000000000000000000000000000000000000000006001600160a01b0316826001600160a01b031614156143e75750601961034c565b7f00000000000000000000000000000000000000000000000000000000000000006001600160a01b0316826001600160a01b031614156144295750601a61034c565b7f00000000000000000000000000000000000000000000000000000000000000006001600160a01b0316826001600160a01b0316141561446b5750601b61034c565b7f00000000000000000000000000000000000000000000000000000000000000006001600160a01b0316826001600160a01b031614156144ad5750601c61034c565b7f00000000000000000000000000000000000000000000000000000000000000006001600160a01b0316826001600160a01b03161415613d285750601d61034c565b60006145306040518060400160405280600381526020016208aa8960eb1b8152506145226040516020016103e19061587d565b670de0b6b3a7640000615093565b905090565b61453d615390565b614546836103c5565b905060028160800151600281111561455a57fe5b146145775760405162461bcd60e51b815260040161039890615a55565b60008360405160200161458a919061581e565b60405160208183030381529060405280519060200120905060007f00000000000000000000000000000000000000000000000000000000000000006001600160a01b03166376977a3a7f0000000000000000000000000000000000000000000000000000000000000000876040518363ffffffff1660e01b81526004016146129291906158a0565b60206040518083038186803b15801561462a57600080fd5b505afa15801561463e573d6000803e3d6000fd5b505050506040513d601f19601f82011682018060405250810190614662919061578d565b67ffffffffffffffff169050600060405160200161467f9061587d565b604051602081830303815290604052805190602001208314156146a35750836146b1565b6146ae868587615093565b90505b60015460ff161561470c5760008381526020819052604090819020829055517f159e83f4712ba2552e68be9d848e49bf6dd35c24f19564ffd523b6549450a2f4906146ff9088908490615928565b60405180910390a161479a565b61471682826151ab565b1561475e5760008381526020819052604090819020839055517f159e83f4712ba2552e68be9d848e49bf6dd35c24f19564ffd523b6549450a2f4906146ff9088908590615928565b7f90756d4c8646a4591078abac0e4e32dfa8437921729e36d51b88b659d265bfde8683836040516147919392919061594a565b60405180910390a15b505050505050565b60007f00000000000000000000000000000000000000000000000000000000000000006001600160a01b0316826001600160a01b031614156147e65750600061034c565b7f00000000000000000000000000000000000000000000000000000000000000006001600160a01b0316826001600160a01b031614156148285750600161034c565b7f00000000000000000000000000000000000000000000000000000000000000006001600160a01b0316826001600160a01b0316141561486a5750600261034c565b7f00000000000000000000000000000000000000000000000000000000000000006001600160a01b0316826001600160a01b031614156148ac5750600361034c565b7f00000000000000000000000000000000000000000000000000000000000000006001600160a01b0316826001600160a01b031614156148ee5750600461034c565b7f00000000000000000000000000000000000000000000000000000000000000006001600160a01b0316826001600160a01b031614156149305750600561034c565b7f00000000000000000000000000000000000000000000000000000000000000006001600160a01b0316826001600160a01b031614156149725750600661034c565b7f00000000000000000000000000000000000000000000000000000000000000006001600160a01b0316826001600160a01b031614156149b45750600761034c565b7f00000000000000000000000000000000000000000000000000000000000000006001600160a01b0316826001600160a01b031614156149f65750600861034c565b7f00000000000000000000000000000000000000000000000000000000000000006001600160a01b0316826001600160a01b03161415614a385750600961034c565b7f00000000000000000000000000000000000000000000000000000000000000006001600160a01b0316826001600160a01b03161415614a7a5750600a61034c565b7f00000000000000000000000000000000000000000000000000000000000000006001600160a01b0316826001600160a01b03161415614abc5750600b61034c565b7f00000000000000000000000000000000000000000000000000000000000000006001600160a01b0316826001600160a01b03161415614afe5750600c61034c565b7f00000000000000000000000000000000000000000000000000000000000000006001600160a01b0316826001600160a01b03161415614b405750600d61034c565b7f00000000000000000000000000000000000000000000000000000000000000006001600160a01b0316826001600160a01b03161415614b825750600e61034c565b7f00000000000000000000000000000000000000000000000000000000000000006001600160a01b0316826001600160a01b03161415614bc45750600f61034c565b7f00000000000000000000000000000000000000000000000000000000000000006001600160a01b0316826001600160a01b03161415614c065750601061034c565b7f00000000000000000000000000000000000000000000000000000000000000006001600160a01b0316826001600160a01b03161415614c485750601161034c565b7f00000000000000000000000000000000000000000000000000000000000000006001600160a01b0316826001600160a01b03161415614c8a5750601261034c565b7f00000000000000000000000000000000000000000000000000000000000000006001600160a01b0316826001600160a01b03161415614ccc5750601361034c565b7f00000000000000000000000000000000000000000000000000000000000000006001600160a01b0316826001600160a01b03161415614d0e5750601461034c565b7f00000000000000000000000000000000000000000000000000000000000000006001600160a01b0316826001600160a01b03161415614d505750601561034c565b7f00000000000000000000000000000000000000000000000000000000000000006001600160a01b0316826001600160a01b03161415614d925750601661034c565b7f00000000000000000000000000000000000000000000000000000000000000006001600160a01b0316826001600160a01b03161415614dd45750601761034c565b7f00000000000000000000000000000000000000000000000000000000000000006001600160a01b0316826001600160a01b03161415614e165750601861034c565b7f00000000000000000000000000000000000000000000000000000000000000006001600160a01b0316826001600160a01b03161415614e585750601961034c565b7f00000000000000000000000000000000000000000000000000000000000000006001600160a01b0316826001600160a01b03161415614e9a5750601a61034c565b7f00000000000000000000000000000000000000000000000000000000000000006001600160a01b0316826001600160a01b03161415614edc5750601b61034c565b7f00000000000000000000000000000000000000000000000000000000000000006001600160a01b0316826001600160a01b03161415614f1e5750601c61034c565b7f00000000000000000000000000000000000000000000000000000000000000006001600160a01b0316826001600160a01b03161415613d285750601d61034c565b6000600282608001516002811115614f7457fe5b1415614f92575060408082015160009081526020819052205461034c565b600182608001516002811115614fa457fe5b1415614fb5575060a081015161034c565b600082608001516002811115614fc757fe5b141561034c576000806000604051602001614fe19061587d565b604051602081830303815290604052805190602001208152602001908152602001600020549050600081116150285760405162461bcd60e51b815260040161039890615af8565b670de0b6b3a764000061503f828560a0015161504f565b8161504657fe5b0491505061034c565b60008261505e575060006103fc565b8282028284828161506b57fe5b04146134c95760405162461bcd60e51b81526004016103989061599e565b63ffffffff421690565b6000806000806150a286615233565b9250925092508042116150c75760405162461bcd60e51b815260040161039890615a8c565b428190036150d36153d5565b604051806020016040528083868803816150e957fe5b046001600160e01b03168152509050600061510382615346565b90506000615111828a61504f565b905060008a60e0015115615134578a60600151828161512c57fe5b04905061515f565b670de0b6b3a76400008061514c848e6060015161504f565b8161515357fe5b048161515b57fe5b0490505b7ff63d078e0de851897107641e96093a59e5ddc3c25e7b85a2585e3eba9e774a7b8c828842604051615194949392919061596f565b60405180910390a19b9a5050505050505050505050565b6000821561522a576000836151c884670de0b6b3a764000061504f565b816151cf57fe5b0490507f0000000000000000000000000000000000000000000000000000000000000000811115801561522257507f00000000000000000000000000000000000000000000000000000000000000008110155b9150506103fc565b50600092915050565b60008060008084604001519050600061524b8661535e565b90506152556153e7565b50600082815260036020908152604091829020825180840190935280548084526001909101549183019190915242037f00000000000000000000000000000000000000000000000000000000000000008110615321578151600085815260026020908152604080832093845581860180516001958601556003909252918290204280825593018690558a82015185519151925190937fe37d39315e3419c0937360f1ac88f2c52ecf67e3b22b367f82047ddb4591904a9361531893928990615c47565b60405180910390a25b5050600091825260026020526040909120600181015490549196909550909350915050565b516612725dd1d243ab6001600160e01b039091160490565b60008060006153708460c00151613536565b50915091508360e001511561538857915061034c9050565b50905061034c565b60408051610100810182526000808252602082018190529181018290526060810182905290608082019081526000602082018190526040820181905260609091015290565b60408051602081019091526000815290565b604051806040016040528060008152602001600081525090565b60008083601f840112615412578182fd5b50813567ffffffffffffffff811115615429578182fd5b602083019150836020808302850101111561544357600080fd5b9250929050565b600082601f83011261545a578081fd5b813561546d61546882615ce6565b615cbf565b915080825283602082850101111561548457600080fd5b8060208401602084013760009082016020015292915050565b600082601f8301126154ad578081fd5b81516154bb61546882615ce6565b91508082528360208285010111156154d257600080fd5b6154e3816020840160208601615d0a565b5092915050565b6000602082840312156154fb578081fd5b81356134c981615d3a565b600060208284031215615517578081fd5b81516134c981615d3a565b6000806000806000806060878903121561553a578182fd5b863567ffffffffffffffff80821115615551578384fd5b61555d8a838b01615401565b90985096506020890135915080821115615575578384fd5b6155818a838b01615401565b90965094506040890135915080821115615599578384fd5b506155a689828a01615401565b979a9699509497509295939492505050565b6000602082840312156155c9578081fd5b5035919050565b6000806000606084860312156155e4578283fd5b8351925060208401519150604084015160ff81168114615602578182fd5b809150509250925092565b6000806040838503121561561f578182fd5b823567ffffffffffffffff80821115615636578384fd5b6156428683870161544a565b93506020850135915080821115615657578283fd5b506156648582860161544a565b9150509250929050565b60006020828403121561567f578081fd5b813567ffffffffffffffff811115615695578182fd5b6156a18482850161544a565b949350505050565b6000602082840312156156ba578081fd5b815167ffffffffffffffff8111156156d0578182fd5b6156a18482850161549d565b600080604083850312156156ee578182fd5b825167ffffffffffffffff811115615704578283fd5b6157108582860161549d565b925050602083015161572181615d3a565b809150509250929050565b600080600060608486031215615740578283fd5b835161574b81615d52565b602085015190935061575c81615d52565b604085015190925063ffffffff81168114615602578182fd5b600060208284031215615786578081fd5b5051919050565b60006020828403121561579e578081fd5b815167ffffffffffffffff811681146134c9578182fd5b6001600160a01b03169052565b15159052565b60008284528282602086013780602084860101526020601f19601f85011685010190509392505050565b6000815180845261580a816020860160208601615d0a565b601f01601f19169290920160200192915050565b60008251615830818460208701615d0a565b9190910192915050565b7f19457468657265756d205369676e6564204d6573736167653a0a3332000000008152601c810191909152603c0190565b65726f7461746560d01b815260060190565b6208aa8960eb1b815260030190565b6001600160a01b0391909116815260200190565b6001600160a01b03831681526040602082018190526000906156a1908301846157f2565b901515815260200190565b90815260200190565b93845260ff9290921660208401526040830152606082015260800190565b60006040825261590a6040830186886157c8565b828103602084015261591d8185876157c8565b979650505050505050565b60006040825261593b60408301856157f2565b90508260208301529392505050565b60006060825261595d60608301866157f2565b60208301949094525060400152919050565b60006080825261598260808301876157f2565b6020830195909552506040810192909252606090910152919050565b60208082526017908201527f6d756c7469706c69636174696f6e206f766572666c6f77000000000000000000604082015260600190565b6020808252601690820152751d1bdad95b8818dbdb999a59c81b9bdd08199bdd5b9960521b604082015260600190565b60208082526030908201527f696e76616c69646174696f6e206d657373616765206d75737420636f6d65206660408201526f3937b6903a3432903932b837b93a32b960811b606082015260800190565b6020808252601f908201527f6f6e6c79207265706f72746572207072696365732067657420706f7374656400604082015260600190565b6020808252601a908201527f6e6f77206d75737420636f6d65206166746572206265666f7265000000000000604082015260600190565b6020808252818101527f696e76616c6964206d657373616765206d7573742062652027726f7461746527604082015260600190565b6020808252602c908201527f455448207072696365206e6f74207365742c2063616e6e6f7420636f6e76657260408201526b7420746f20646f6c6c61727360a01b606082015260800190565b60208082526023908201527f6d6573736167657320616e64207369676e617475726573206d75737420626520604082015262313a3160e81b606082015260800190565b60208082526017908201527f4669786564506f696e743a204449565f42595f5a45524f000000000000000000604082015260600190565b81516001600160a01b039081168252602080840151909116908201526040808301519082015260608083015190820152608082015161010082019060038110615c0357fe5b8060808401525060a083015160a083015260c0830151615c2660c08401826157b5565b5060e08301516154e360e08401826157c2565b918252602082015260400190565b93845260208401929092526040830152606082015260800190565b6000808335601e19843603018112615c78578283fd5b8084018035925067ffffffffffffffff831115615c93578384fd5b6020019250503681900382131561544357600080fd5b6000808335601e19843603018112615c78578182fd5b60405181810167ffffffffffffffff81118282101715615cde57600080fd5b604052919050565b600067ffffffffffffffff821115615cfc578081fd5b50601f01601f191660200190565b60005b83811015615d25578181015183820152602001615d0d565b83811115615d34576000848401525b50505050565b6001600160a01b0381168114615d4f57600080fd5b50565b6001600160701b0381168114615d4f57600080fdfea26469706673582212202a2b0d4137923a5d558db0638124f69b6fe3a00db66c6a9ab370468a6e8f02b264736f6c634300060a0033",
			"opcodes": "PUSH2 0x1F40 PUSH1 0x40 MSTORE CALLVALUE DUP1 ISZERO PUSH3 0x12 JUMPI PUSH1 0x0 DUP1 REVERT JUMPDEST POP PUSH1 0x40 MLOAD PUSH3 0x9631 CODESIZE SUB DUP1 PUSH3 0x9631 DUP4 CODECOPY DUP2 ADD PUSH1 0x40 DUP2 SWAP1 MSTORE PUSH3 0x35 SWAP2 PUSH3 0x280F JUMP JUMPDEST DUP1 PUSH1 0x1E DUP2 MLOAD GT ISZERO PUSH3 0x64 JUMPI PUSH1 0x40 MLOAD PUSH3 0x461BCD PUSH1 0xE5 SHL DUP2 MSTORE PUSH1 0x4 ADD PUSH3 0x5B SWAP1 PUSH3 0x29FB JUMP JUMPDEST PUSH1 0x40 MLOAD DUP1 SWAP2 SUB SWAP1 REVERT JUMPDEST DUP1 MLOAD PUSH1 0x80 MSTORE PUSH3 0x7F DUP2 PUSH1 0x0 PUSH1 0x1 PUSH1 0x1 PUSH1 0xE0 SHL SUB PUSH3 0x2396 AND JUMP JUMPDEST MLOAD PUSH1 0x60 SHL PUSH1 0x1 PUSH1 0x1 PUSH1 0x60 SHL SUB NOT AND PUSH1 0xA0 MSTORE PUSH3 0x9D DUP2 PUSH1 0x1 PUSH3 0x2396 JUMP JUMPDEST MLOAD PUSH1 0x60 SHL PUSH1 0x1 PUSH1 0x1 PUSH1 0x60 SHL SUB NOT AND PUSH1 0xC0 MSTORE PUSH3 0xBB DUP2 PUSH1 0x2 PUSH3 0x2396 JUMP JUMPDEST MLOAD PUSH1 0x60 SHL PUSH1 0x1 PUSH1 0x1 PUSH1 0x60 SHL SUB NOT AND PUSH1 0xE0 MSTORE PUSH3 0xD9 DUP2 PUSH1 0x3 PUSH3 0x2396 JUMP JUMPDEST MLOAD PUSH1 0x60 SHL PUSH1 0x1 PUSH1 0x1 PUSH1 0x60 SHL SUB NOT AND PUSH2 0x100 MSTORE PUSH3 0xF8 DUP2 PUSH1 0x4 PUSH3 0x2396 JUMP JUMPDEST MLOAD PUSH1 0x60 SHL PUSH1 0x1 PUSH1 0x1 PUSH1 0x60 SHL SUB NOT AND PUSH2 0x120 MSTORE PUSH3 0x117 DUP2 PUSH1 0x5 PUSH3 0x2396 JUMP JUMPDEST MLOAD PUSH1 0x60 SHL PUSH1 0x1 PUSH1 0x1 PUSH1 0x60 SHL SUB NOT AND PUSH2 0x140 MSTORE PUSH3 0x136 DUP2 PUSH1 0x6 PUSH3 0x2396 JUMP JUMPDEST MLOAD PUSH1 0x60 SHL PUSH1 0x1 PUSH1 0x1 PUSH1 0x60 SHL SUB NOT AND PUSH2 0x160 MSTORE PUSH3 0x155 DUP2 PUSH1 0x7 PUSH3 0x2396 JUMP JUMPDEST MLOAD PUSH1 0x60 SHL PUSH1 0x1 PUSH1 0x1 PUSH1 0x60 SHL SUB NOT AND PUSH2 0x180 MSTORE PUSH3 0x174 DUP2 PUSH1 0x8 PUSH3 0x2396 JUMP JUMPDEST MLOAD PUSH1 0x60 SHL PUSH1 0x1 PUSH1 0x1 PUSH1 0x60 SHL SUB NOT AND PUSH2 0x1A0 MSTORE PUSH3 0x193 DUP2 PUSH1 0x9 PUSH3 0x2396 JUMP JUMPDEST MLOAD PUSH1 0x60 SHL PUSH1 0x1 PUSH1 0x1 PUSH1 0x60 SHL SUB NOT AND PUSH2 0x1C0 MSTORE PUSH3 0x1B2 DUP2 PUSH1 0xA PUSH3 0x2396 JUMP JUMPDEST MLOAD PUSH1 0x60 SHL PUSH1 0x1 PUSH1 0x1 PUSH1 0x60 SHL SUB NOT AND PUSH2 0x1E0 MSTORE PUSH3 0x1D1 DUP2 PUSH1 0xB PUSH3 0x2396 JUMP JUMPDEST MLOAD PUSH1 0x60 SHL PUSH1 0x1 PUSH1 0x1 PUSH1 0x60 SHL SUB NOT AND PUSH2 0x200 MSTORE PUSH3 0x1F0 DUP2 PUSH1 0xC PUSH3 0x2396 JUMP JUMPDEST MLOAD PUSH1 0x60 SHL PUSH1 0x1 PUSH1 0x1 PUSH1 0x60 SHL SUB NOT AND PUSH2 0x220 MSTORE PUSH3 0x20F DUP2 PUSH1 0xD PUSH3 0x2396 JUMP JUMPDEST MLOAD PUSH1 0x60 SHL PUSH1 0x1 PUSH1 0x1 PUSH1 0x60 SHL SUB NOT AND PUSH2 0x240 MSTORE PUSH3 0x22E DUP2 PUSH1 0xE PUSH3 0x2396 JUMP JUMPDEST MLOAD PUSH1 0x60 SHL PUSH1 0x1 PUSH1 0x1 PUSH1 0x60 SHL SUB NOT AND PUSH2 0x260 MSTORE PUSH3 0x24D DUP2 PUSH1 0xF PUSH3 0x2396 JUMP JUMPDEST MLOAD PUSH1 0x60 SHL PUSH1 0x1 PUSH1 0x1 PUSH1 0x60 SHL SUB NOT AND PUSH2 0x280 MSTORE PUSH3 0x26C DUP2 PUSH1 0x10 PUSH3 0x2396 JUMP JUMPDEST MLOAD PUSH1 0x60 SHL PUSH1 0x1 PUSH1 0x1 PUSH1 0x60 SHL SUB NOT AND PUSH2 0x2A0 MSTORE PUSH3 0x28B DUP2 PUSH1 0x11 PUSH3 0x2396 JUMP JUMPDEST MLOAD PUSH1 0x60 SHL PUSH1 0x1 PUSH1 0x1 PUSH1 0x60 SHL SUB NOT AND PUSH2 0x2C0 MSTORE PUSH3 0x2AA DUP2 PUSH1 0x12 PUSH3 0x2396 JUMP JUMPDEST MLOAD PUSH1 0x60 SHL PUSH1 0x1 PUSH1 0x1 PUSH1 0x60 SHL SUB NOT AND PUSH2 0x2E0 MSTORE PUSH3 0x2C9 DUP2 PUSH1 0x13 PUSH3 0x2396 JUMP JUMPDEST MLOAD PUSH1 0x60 SHL PUSH1 0x1 PUSH1 0x1 PUSH1 0x60 SHL SUB NOT AND PUSH2 0x300 MSTORE PUSH3 0x2E8 DUP2 PUSH1 0x14 PUSH3 0x2396 JUMP JUMPDEST MLOAD PUSH1 0x60 SHL PUSH1 0x1 PUSH1 0x1 PUSH1 0x60 SHL SUB NOT AND PUSH2 0x320 MSTORE PUSH3 0x307 DUP2 PUSH1 0x15 PUSH3 0x2396 JUMP JUMPDEST MLOAD PUSH1 0x60 SHL PUSH1 0x1 PUSH1 0x1 PUSH1 0x60 SHL SUB NOT AND PUSH2 0x340 MSTORE PUSH3 0x326 DUP2 PUSH1 0x16 PUSH3 0x2396 JUMP JUMPDEST MLOAD PUSH1 0x60 SHL PUSH1 0x1 PUSH1 0x1 PUSH1 0x60 SHL SUB NOT AND PUSH2 0x360 MSTORE PUSH3 0x345 DUP2 PUSH1 0x17 PUSH3 0x2396 JUMP JUMPDEST MLOAD PUSH1 0x60 SHL PUSH1 0x1 PUSH1 0x1 PUSH1 0x60 SHL SUB NOT AND PUSH2 0x380 MSTORE PUSH3 0x364 DUP2 PUSH1 0x18 PUSH3 0x2396 JUMP JUMPDEST MLOAD PUSH1 0x60 SHL PUSH1 0x1 PUSH1 0x1 PUSH1 0x60 SHL SUB NOT AND PUSH2 0x3A0 MSTORE PUSH3 0x383 DUP2 PUSH1 0x19 PUSH3 0x2396 JUMP JUMPDEST MLOAD PUSH1 0x60 SHL PUSH1 0x1 PUSH1 0x1 PUSH1 0x60 SHL SUB NOT AND PUSH2 0x3C0 MSTORE PUSH3 0x3A2 DUP2 PUSH1 0x1A PUSH3 0x2396 JUMP JUMPDEST MLOAD PUSH1 0x60 SHL PUSH1 0x1 PUSH1 0x1 PUSH1 0x60 SHL SUB NOT AND PUSH2 0x3E0 MSTORE PUSH3 0x3C1 DUP2 PUSH1 0x1B PUSH3 0x2396 JUMP JUMPDEST MLOAD PUSH1 0x60 SHL PUSH1 0x1 PUSH1 0x1 PUSH1 0x60 SHL SUB NOT AND PUSH2 0x400 MSTORE PUSH3 0x3E0 DUP2 PUSH1 0x1C PUSH3 0x2396 JUMP JUMPDEST MLOAD PUSH1 0x60 SHL PUSH1 0x1 PUSH1 0x1 PUSH1 0x60 SHL SUB NOT AND PUSH2 0x420 MSTORE PUSH3 0x3FF DUP2 PUSH1 0x1D PUSH3 0x2396 JUMP JUMPDEST MLOAD PUSH1 0x60 SHL PUSH1 0x1 PUSH1 0x1 PUSH1 0x60 SHL SUB NOT AND PUSH2 0x440 MSTORE PUSH3 0x41E DUP2 PUSH1 0x0 PUSH3 0x2396 JUMP JUMPDEST PUSH1 0x20 ADD MLOAD PUSH1 0x60 SHL PUSH1 0x1 PUSH1 0x1 PUSH1 0x60 SHL SUB NOT AND PUSH2 0x460 MSTORE PUSH3 0x440 DUP2 PUSH1 0x1 PUSH3 0x2396 JUMP JUMPDEST PUSH1 0x20 ADD MLOAD PUSH1 0x60 SHL PUSH1 0x1 PUSH1 0x1 PUSH1 0x60 SHL SUB NOT AND PUSH2 0x480 MSTORE PUSH3 0x462 DUP2 PUSH1 0x2 PUSH3 0x2396 JUMP JUMPDEST PUSH1 0x20 ADD MLOAD PUSH1 0x60 SHL PUSH1 0x1 PUSH1 0x1 PUSH1 0x60 SHL SUB NOT AND PUSH2 0x4A0 MSTORE PUSH3 0x484 DUP2 PUSH1 0x3 PUSH3 0x2396 JUMP JUMPDEST PUSH1 0x20 ADD MLOAD PUSH1 0x60 SHL PUSH1 0x1 PUSH1 0x1 PUSH1 0x60 SHL SUB NOT AND PUSH2 0x4C0 MSTORE PUSH3 0x4A6 DUP2 PUSH1 0x4 PUSH3 0x2396 JUMP JUMPDEST PUSH1 0x20 ADD MLOAD PUSH1 0x60 SHL PUSH1 0x1 PUSH1 0x1 PUSH1 0x60 SHL SUB NOT AND PUSH2 0x4E0 MSTORE PUSH3 0x4C8 DUP2 PUSH1 0x5 PUSH3 0x2396 JUMP JUMPDEST PUSH1 0x20 ADD MLOAD PUSH1 0x60 SHL PUSH1 0x1 PUSH1 0x1 PUSH1 0x60 SHL SUB NOT AND PUSH2 0x500 MSTORE PUSH3 0x4EA DUP2 PUSH1 0x6 PUSH3 0x2396 JUMP JUMPDEST PUSH1 0x20 ADD MLOAD PUSH1 0x60 SHL PUSH1 0x1 PUSH1 0x1 PUSH1 0x60 SHL SUB NOT AND PUSH2 0x520 MSTORE PUSH3 0x50C DUP2 PUSH1 0x7 PUSH3 0x2396 JUMP JUMPDEST PUSH1 0x20 ADD MLOAD PUSH1 0x60 SHL PUSH1 0x1 PUSH1 0x1 PUSH1 0x60 SHL SUB NOT AND PUSH2 0x540 MSTORE PUSH3 0x52E DUP2 PUSH1 0x8 PUSH3 0x2396 JUMP JUMPDEST PUSH1 0x20 ADD MLOAD PUSH1 0x60 SHL PUSH1 0x1 PUSH1 0x1 PUSH1 0x60 SHL SUB NOT AND PUSH2 0x560 MSTORE PUSH3 0x550 DUP2 PUSH1 0x9 PUSH3 0x2396 JUMP JUMPDEST PUSH1 0x20 ADD MLOAD PUSH1 0x60 SHL PUSH1 0x1 PUSH1 0x1 PUSH1 0x60 SHL SUB NOT AND PUSH2 0x580 MSTORE PUSH3 0x572 DUP2 PUSH1 0xA PUSH3 0x2396 JUMP JUMPDEST PUSH1 0x20 ADD MLOAD PUSH1 0x60 SHL PUSH1 0x1 PUSH1 0x1 PUSH1 0x60 SHL SUB NOT AND PUSH2 0x5A0 MSTORE PUSH3 0x594 DUP2 PUSH1 0xB PUSH3 0x2396 JUMP JUMPDEST PUSH1 0x20 ADD MLOAD PUSH1 0x60 SHL PUSH1 0x1 PUSH1 0x1 PUSH1 0x60 SHL SUB NOT AND PUSH2 0x5C0 MSTORE PUSH3 0x5B6 DUP2 PUSH1 0xC PUSH3 0x2396 JUMP JUMPDEST PUSH1 0x20 ADD MLOAD PUSH1 0x60 SHL PUSH1 0x1 PUSH1 0x1 PUSH1 0x60 SHL SUB NOT AND PUSH2 0x5E0 MSTORE PUSH3 0x5D8 DUP2 PUSH1 0xD PUSH3 0x2396 JUMP JUMPDEST PUSH1 0x20 ADD MLOAD PUSH1 0x60 SHL PUSH1 0x1 PUSH1 0x1 PUSH1 0x60 SHL SUB NOT AND PUSH2 0x600 MSTORE PUSH3 0x5FA DUP2 PUSH1 0xE PUSH3 0x2396 JUMP JUMPDEST PUSH1 0x20 ADD MLOAD PUSH1 0x60 SHL PUSH1 0x1 PUSH1 0x1 PUSH1 0x60 SHL SUB NOT AND PUSH2 0x620 MSTORE PUSH3 0x61C DUP2 PUSH1 0xF PUSH3 0x2396 JUMP JUMPDEST PUSH1 0x20 ADD MLOAD PUSH1 0x60 SHL PUSH1 0x1 PUSH1 0x1 PUSH1 0x60 SHL SUB NOT AND PUSH2 0x640 MSTORE PUSH3 0x63E DUP2 PUSH1 0x10 PUSH3 0x2396 JUMP JUMPDEST PUSH1 0x20 ADD MLOAD PUSH1 0x60 SHL PUSH1 0x1 PUSH1 0x1 PUSH1 0x60 SHL SUB NOT AND PUSH2 0x660 MSTORE PUSH3 0x660 DUP2 PUSH1 0x11 PUSH3 0x2396 JUMP JUMPDEST PUSH1 0x20 ADD MLOAD PUSH1 0x60 SHL PUSH1 0x1 PUSH1 0x1 PUSH1 0x60 SHL SUB NOT AND PUSH2 0x680 MSTORE PUSH3 0x682 DUP2 PUSH1 0x12 PUSH3 0x2396 JUMP JUMPDEST PUSH1 0x20 ADD MLOAD PUSH1 0x60 SHL PUSH1 0x1 PUSH1 0x1 PUSH1 0x60 SHL SUB NOT AND PUSH2 0x6A0 MSTORE PUSH3 0x6A4 DUP2 PUSH1 0x13 PUSH3 0x2396 JUMP JUMPDEST PUSH1 0x20 ADD MLOAD PUSH1 0x60 SHL PUSH1 0x1 PUSH1 0x1 PUSH1 0x60 SHL SUB NOT AND PUSH2 0x6C0 MSTORE PUSH3 0x6C6 DUP2 PUSH1 0x14 PUSH3 0x2396 JUMP JUMPDEST PUSH1 0x20 ADD MLOAD PUSH1 0x60 SHL PUSH1 0x1 PUSH1 0x1 PUSH1 0x60 SHL SUB NOT AND PUSH2 0x6E0 MSTORE PUSH3 0x6E8 DUP2 PUSH1 0x15 PUSH3 0x2396 JUMP JUMPDEST PUSH1 0x20 ADD MLOAD PUSH1 0x60 SHL PUSH1 0x1 PUSH1 0x1 PUSH1 0x60 SHL SUB NOT AND PUSH2 0x700 MSTORE PUSH3 0x70A DUP2 PUSH1 0x16 PUSH3 0x2396 JUMP JUMPDEST PUSH1 0x20 ADD MLOAD PUSH1 0x60 SHL PUSH1 0x1 PUSH1 0x1 PUSH1 0x60 SHL SUB NOT AND PUSH2 0x720 MSTORE PUSH3 0x72C DUP2 PUSH1 0x17 PUSH3 0x2396 JUMP JUMPDEST PUSH1 0x20 ADD MLOAD PUSH1 0x60 SHL PUSH1 0x1 PUSH1 0x1 PUSH1 0x60 SHL SUB NOT AND PUSH2 0x740 MSTORE PUSH3 0x74E DUP2 PUSH1 0x18 PUSH3 0x2396 JUMP JUMPDEST PUSH1 0x20 ADD MLOAD PUSH1 0x60 SHL PUSH1 0x1 PUSH1 0x1 PUSH1 0x60 SHL SUB NOT AND PUSH2 0x760 MSTORE PUSH3 0x770 DUP2 PUSH1 0x19 PUSH3 0x2396 JUMP JUMPDEST PUSH1 0x20 ADD MLOAD PUSH1 0x60 SHL PUSH1 0x1 PUSH1 0x1 PUSH1 0x60 SHL SUB NOT AND PUSH2 0x780 MSTORE PUSH3 0x792 DUP2 PUSH1 0x1A PUSH3 0x2396 JUMP JUMPDEST PUSH1 0x20 ADD MLOAD PUSH1 0x60 SHL PUSH1 0x1 PUSH1 0x1 PUSH1 0x60 SHL SUB NOT AND PUSH2 0x7A0 MSTORE PUSH3 0x7B4 DUP2 PUSH1 0x1B PUSH3 0x2396 JUMP JUMPDEST PUSH1 0x20 ADD MLOAD PUSH1 0x60 SHL PUSH1 0x1 PUSH1 0x1 PUSH1 0x60 SHL SUB NOT AND PUSH2 0x7C0 MSTORE PUSH3 0x7D6 DUP2 PUSH1 0x1C PUSH3 0x2396 JUMP JUMPDEST PUSH1 0x20 ADD MLOAD PUSH1 0x60 SHL PUSH1 0x1 PUSH1 0x1 PUSH1 0x60 SHL SUB NOT AND PUSH2 0x7E0 MSTORE PUSH3 0x7F8 DUP2 PUSH1 0x1D PUSH3 0x2396 JUMP JUMPDEST PUSH1 0x20 ADD MLOAD PUSH1 0x60 SHL PUSH1 0x1 PUSH1 0x1 PUSH1 0x60 SHL SUB NOT AND PUSH2 0x800 MSTORE PUSH3 0x81A DUP2 PUSH1 0x0 PUSH3 0x2396 JUMP JUMPDEST PUSH1 0x40 ADD MLOAD PUSH2 0x820 MSTORE PUSH3 0x838 DUP2 PUSH1 0x1 PUSH1 0x1 PUSH1 0x1 PUSH1 0xE0 SHL SUB PUSH3 0x2396 AND JUMP JUMPDEST PUSH1 0x40 ADD MLOAD PUSH2 0x840 MSTORE PUSH3 0x856 DUP2 PUSH1 0x2 PUSH1 0x1 PUSH1 0x1 PUSH1 0xE0 SHL SUB PUSH3 0x2396 AND JUMP JUMPDEST PUSH1 0x40 ADD MLOAD PUSH2 0x860 MSTORE PUSH3 0x874 DUP2 PUSH1 0x3 PUSH1 0x1 PUSH1 0x1 PUSH1 0xE0 SHL SUB PUSH3 0x2396 AND JUMP JUMPDEST PUSH1 0x40 ADD MLOAD PUSH2 0x880 MSTORE PUSH3 0x892 DUP2 PUSH1 0x4 PUSH1 0x1 PUSH1 0x1 PUSH1 0xE0 SHL SUB PUSH3 0x2396 AND JUMP JUMPDEST PUSH1 0x40 ADD MLOAD PUSH2 0x8A0 MSTORE PUSH3 0x8B0 DUP2 PUSH1 0x5 PUSH1 0x1 PUSH1 0x1 PUSH1 0xE0 SHL SUB PUSH3 0x2396 AND JUMP JUMPDEST PUSH1 0x40 ADD MLOAD PUSH2 0x8C0 MSTORE PUSH3 0x8CE DUP2 PUSH1 0x6 PUSH1 0x1 PUSH1 0x1 PUSH1 0xE0 SHL SUB PUSH3 0x2396 AND JUMP JUMPDEST PUSH1 0x40 ADD MLOAD PUSH2 0x8E0 MSTORE PUSH3 0x8EC DUP2 PUSH1 0x7 PUSH1 0x1 PUSH1 0x1 PUSH1 0xE0 SHL SUB PUSH3 0x2396 AND JUMP JUMPDEST PUSH1 0x40 ADD MLOAD PUSH2 0x900 MSTORE PUSH3 0x90A DUP2 PUSH1 0x8 PUSH1 0x1 PUSH1 0x1 PUSH1 0xE0 SHL SUB PUSH3 0x2396 AND JUMP JUMPDEST PUSH1 0x40 ADD MLOAD PUSH2 0x920 MSTORE PUSH3 0x928 DUP2 PUSH1 0x9 PUSH1 0x1 PUSH1 0x1 PUSH1 0xE0 SHL SUB PUSH3 0x2396 AND JUMP JUMPDEST PUSH1 0x40 ADD MLOAD PUSH2 0x940 MSTORE PUSH3 0x946 DUP2 PUSH1 0xA PUSH1 0x1 PUSH1 0x1 PUSH1 0xE0 SHL SUB PUSH3 0x2396 AND JUMP JUMPDEST PUSH1 0x40 ADD MLOAD PUSH2 0x960 MSTORE PUSH3 0x964 DUP2 PUSH1 0xB PUSH1 0x1 PUSH1 0x1 PUSH1 0xE0 SHL SUB PUSH3 0x2396 AND JUMP JUMPDEST PUSH1 0x40 ADD MLOAD PUSH2 0x980 MSTORE PUSH3 0x982 DUP2 PUSH1 0xC PUSH1 0x1 PUSH1 0x1 PUSH1 0xE0 SHL SUB PUSH3 0x2396 AND JUMP JUMPDEST PUSH1 0x40 ADD MLOAD PUSH2 0x9A0 MSTORE PUSH3 0x9A0 DUP2 PUSH1 0xD PUSH1 0x1 PUSH1 0x1 PUSH1 0xE0 SHL SUB PUSH3 0x2396 AND JUMP JUMPDEST PUSH1 0x40 ADD MLOAD PUSH2 0x9C0 MSTORE PUSH3 0x9BE DUP2 PUSH1 0xE PUSH1 0x1 PUSH1 0x1 PUSH1 0xE0 SHL SUB PUSH3 0x2396 AND JUMP JUMPDEST PUSH1 0x40 ADD MLOAD PUSH2 0x9E0 MSTORE PUSH3 0x9DC DUP2 PUSH1 0xF PUSH1 0x1 PUSH1 0x1 PUSH1 0xE0 SHL SUB PUSH3 0x2396 AND JUMP JUMPDEST PUSH1 0x40 ADD MLOAD PUSH2 0xA00 MSTORE PUSH3 0x9FA DUP2 PUSH1 0x10 PUSH1 0x1 PUSH1 0x1 PUSH1 0xE0 SHL SUB PUSH3 0x2396 AND JUMP JUMPDEST PUSH1 0x40 ADD MLOAD PUSH2 0xA20 MSTORE PUSH3 0xA18 DUP2 PUSH1 0x11 PUSH1 0x1 PUSH1 0x1 PUSH1 0xE0 SHL SUB PUSH3 0x2396 AND JUMP JUMPDEST PUSH1 0x40 ADD MLOAD PUSH2 0xA40 MSTORE PUSH3 0xA36 DUP2 PUSH1 0x12 PUSH1 0x1 PUSH1 0x1 PUSH1 0xE0 SHL SUB PUSH3 0x2396 AND JUMP JUMPDEST PUSH1 0x40 ADD MLOAD PUSH2 0xA60 MSTORE PUSH3 0xA54 DUP2 PUSH1 0x13 PUSH1 0x1 PUSH1 0x1 PUSH1 0xE0 SHL SUB PUSH3 0x2396 AND JUMP JUMPDEST PUSH1 0x40 ADD MLOAD PUSH2 0xA80 MSTORE PUSH3 0xA72 DUP2 PUSH1 0x14 PUSH1 0x1 PUSH1 0x1 PUSH1 0xE0 SHL SUB PUSH3 0x2396 AND JUMP JUMPDEST PUSH1 0x40 ADD MLOAD PUSH2 0xAA0 MSTORE PUSH3 0xA90 DUP2 PUSH1 0x15 PUSH1 0x1 PUSH1 0x1 PUSH1 0xE0 SHL SUB PUSH3 0x2396 AND JUMP JUMPDEST PUSH1 0x40 ADD MLOAD PUSH2 0xAC0 MSTORE PUSH3 0xAAE DUP2 PUSH1 0x16 PUSH1 0x1 PUSH1 0x1 PUSH1 0xE0 SHL SUB PUSH3 0x2396 AND JUMP JUMPDEST PUSH1 0x40 ADD MLOAD PUSH2 0xAE0 MSTORE PUSH3 0xACC DUP2 PUSH1 0x17 PUSH1 0x1 PUSH1 0x1 PUSH1 0xE0 SHL SUB PUSH3 0x2396 AND JUMP JUMPDEST PUSH1 0x40 ADD MLOAD PUSH2 0xB00 MSTORE PUSH3 0xAEA DUP2 PUSH1 0x18 PUSH1 0x1 PUSH1 0x1 PUSH1 0xE0 SHL SUB PUSH3 0x2396 AND JUMP JUMPDEST PUSH1 0x40 ADD MLOAD PUSH2 0xB20 MSTORE PUSH3 0xB08 DUP2 PUSH1 0x19 PUSH1 0x1 PUSH1 0x1 PUSH1 0xE0 SHL SUB PUSH3 0x2396 AND JUMP JUMPDEST PUSH1 0x40 ADD MLOAD PUSH2 0xB40 MSTORE PUSH3 0xB26 DUP2 PUSH1 0x1A PUSH1 0x1 PUSH1 0x1 PUSH1 0xE0 SHL SUB PUSH3 0x2396 AND JUMP JUMPDEST PUSH1 0x40 ADD MLOAD PUSH2 0xB60 MSTORE PUSH3 0xB44 DUP2 PUSH1 0x1B PUSH1 0x1 PUSH1 0x1 PUSH1 0xE0 SHL SUB PUSH3 0x2396 AND JUMP JUMPDEST PUSH1 0x40 ADD MLOAD PUSH2 0xB80 MSTORE PUSH3 0xB62 DUP2 PUSH1 0x1C PUSH1 0x1 PUSH1 0x1 PUSH1 0xE0 SHL SUB PUSH3 0x2396 AND JUMP JUMPDEST PUSH1 0x40 ADD MLOAD PUSH2 0xBA0 MSTORE PUSH3 0xB80 DUP2 PUSH1 0x1D PUSH1 0x1 PUSH1 0x1 PUSH1 0xE0 SHL SUB PUSH3 0x2396 AND JUMP JUMPDEST PUSH1 0x40 ADD MLOAD PUSH2 0xBC0 MSTORE PUSH3 0xB9E DUP2 PUSH1 0x0 PUSH1 0x1 PUSH1 0x1 PUSH1 0xE0 SHL SUB PUSH3 0x2396 AND JUMP JUMPDEST PUSH1 0x60 ADD MLOAD PUSH2 0xBE0 MSTORE PUSH3 0xBBC DUP2 PUSH1 0x1 PUSH1 0x1 PUSH1 0x1 PUSH1 0xE0 SHL SUB PUSH3 0x2396 AND JUMP JUMPDEST PUSH1 0x60 ADD MLOAD PUSH2 0xC00 MSTORE PUSH3 0xBDA DUP2 PUSH1 0x2 PUSH1 0x1 PUSH1 0x1 PUSH1 0xE0 SHL SUB PUSH3 0x2396 AND JUMP JUMPDEST PUSH1 0x60 ADD MLOAD PUSH2 0xC20 MSTORE PUSH3 0xBF8 DUP2 PUSH1 0x3 PUSH1 0x1 PUSH1 0x1 PUSH1 0xE0 SHL SUB PUSH3 0x2396 AND JUMP JUMPDEST PUSH1 0x60 ADD MLOAD PUSH2 0xC40 MSTORE PUSH3 0xC16 DUP2 PUSH1 0x4 PUSH1 0x1 PUSH1 0x1 PUSH1 0xE0 SHL SUB PUSH3 0x2396 AND JUMP JUMPDEST PUSH1 0x60 ADD MLOAD PUSH2 0xC60 MSTORE PUSH3 0xC34 DUP2 PUSH1 0x5 PUSH1 0x1 PUSH1 0x1 PUSH1 0xE0 SHL SUB PUSH3 0x2396 AND JUMP JUMPDEST PUSH1 0x60 ADD MLOAD PUSH2 0xC80 MSTORE PUSH3 0xC52 DUP2 PUSH1 0x6 PUSH1 0x1 PUSH1 0x1 PUSH1 0xE0 SHL SUB PUSH3 0x2396 AND JUMP JUMPDEST PUSH1 0x60 ADD MLOAD PUSH2 0xCA0 MSTORE PUSH3 0xC70 DUP2 PUSH1 0x7 PUSH1 0x1 PUSH1 0x1 PUSH1 0xE0 SHL SUB PUSH3 0x2396 AND JUMP JUMPDEST PUSH1 0x60 ADD MLOAD PUSH2 0xCC0 MSTORE PUSH3 0xC8E DUP2 PUSH1 0x8 PUSH1 0x1 PUSH1 0x1 PUSH1 0xE0 SHL SUB PUSH3 0x2396 AND JUMP JUMPDEST PUSH1 0x60 ADD MLOAD PUSH2 0xCE0 MSTORE PUSH3 0xCAC DUP2 PUSH1 0x9 PUSH1 0x1 PUSH1 0x1 PUSH1 0xE0 SHL SUB PUSH3 0x2396 AND JUMP JUMPDEST PUSH1 0x60 ADD MLOAD PUSH2 0xD00 MSTORE PUSH3 0xCCA DUP2 PUSH1 0xA PUSH1 0x1 PUSH1 0x1 PUSH1 0xE0 SHL SUB PUSH3 0x2396 AND JUMP JUMPDEST PUSH1 0x60 ADD MLOAD PUSH2 0xD20 MSTORE PUSH3 0xCE8 DUP2 PUSH1 0xB PUSH1 0x1 PUSH1 0x1 PUSH1 0xE0 SHL SUB PUSH3 0x2396 AND JUMP JUMPDEST PUSH1 0x60 ADD MLOAD PUSH2 0xD40 MSTORE PUSH3 0xD06 DUP2 PUSH1 0xC PUSH1 0x1 PUSH1 0x1 PUSH1 0xE0 SHL SUB PUSH3 0x2396 AND JUMP JUMPDEST PUSH1 0x60 ADD MLOAD PUSH2 0xD60 MSTORE PUSH3 0xD24 DUP2 PUSH1 0xD PUSH1 0x1 PUSH1 0x1 PUSH1 0xE0 SHL SUB PUSH3 0x2396 AND JUMP JUMPDEST PUSH1 0x60 ADD MLOAD PUSH2 0xD80 MSTORE PUSH3 0xD42 DUP2 PUSH1 0xE PUSH1 0x1 PUSH1 0x1 PUSH1 0xE0 SHL SUB PUSH3 0x2396 AND JUMP JUMPDEST PUSH1 0x60 ADD MLOAD PUSH2 0xDA0 MSTORE PUSH3 0xD60 DUP2 PUSH1 0xF PUSH1 0x1 PUSH1 0x1 PUSH1 0xE0 SHL SUB PUSH3 0x2396 AND JUMP JUMPDEST PUSH1 0x60 ADD MLOAD PUSH2 0xDC0 MSTORE PUSH3 0xD7E DUP2 PUSH1 0x10 PUSH1 0x1 PUSH1 0x1 PUSH1 0xE0 SHL SUB PUSH3 0x2396 AND JUMP JUMPDEST PUSH1 0x60 ADD MLOAD PUSH2 0xDE0 MSTORE PUSH3 0xD9C DUP2 PUSH1 0x11 PUSH1 0x1 PUSH1 0x1 PUSH1 0xE0 SHL SUB PUSH3 0x2396 AND JUMP JUMPDEST PUSH1 0x60 ADD MLOAD PUSH2 0xE00 MSTORE PUSH3 0xDBA DUP2 PUSH1 0x12 PUSH1 0x1 PUSH1 0x1 PUSH1 0xE0 SHL SUB PUSH3 0x2396 AND JUMP JUMPDEST PUSH1 0x60 ADD MLOAD PUSH2 0xE20 MSTORE PUSH3 0xDD8 DUP2 PUSH1 0x13 PUSH1 0x1 PUSH1 0x1 PUSH1 0xE0 SHL SUB PUSH3 0x2396 AND JUMP JUMPDEST PUSH1 0x60 ADD MLOAD PUSH2 0xE40 MSTORE PUSH3 0xDF6 DUP2 PUSH1 0x14 PUSH1 0x1 PUSH1 0x1 PUSH1 0xE0 SHL SUB PUSH3 0x2396 AND JUMP JUMPDEST PUSH1 0x60 ADD MLOAD PUSH2 0xE60 MSTORE PUSH3 0xE14 DUP2 PUSH1 0x15 PUSH1 0x1 PUSH1 0x1 PUSH1 0xE0 SHL SUB PUSH3 0x2396 AND JUMP JUMPDEST PUSH1 0x60 ADD MLOAD PUSH2 0xE80 MSTORE PUSH3 0xE32 DUP2 PUSH1 0x16 PUSH1 0x1 PUSH1 0x1 PUSH1 0xE0 SHL SUB PUSH3 0x2396 AND JUMP JUMPDEST PUSH1 0x60 ADD MLOAD PUSH2 0xEA0 MSTORE PUSH3 0xE50 DUP2 PUSH1 0x17 PUSH1 0x1 PUSH1 0x1 PUSH1 0xE0 SHL SUB PUSH3 0x2396 AND JUMP JUMPDEST PUSH1 0x60 ADD MLOAD PUSH2 0xEC0 MSTORE PUSH3 0xE6E DUP2 PUSH1 0x18 PUSH1 0x1 PUSH1 0x1 PUSH1 0xE0 SHL SUB PUSH3 0x2396 AND JUMP JUMPDEST PUSH1 0x60 ADD MLOAD PUSH2 0xEE0 MSTORE PUSH3 0xE8C DUP2 PUSH1 0x19 PUSH1 0x1 PUSH1 0x1 PUSH1 0xE0 SHL SUB PUSH3 0x2396 AND JUMP JUMPDEST PUSH1 0x60 ADD MLOAD PUSH2 0xF00 MSTORE PUSH3 0xEAA DUP2 PUSH1 0x1A PUSH1 0x1 PUSH1 0x1 PUSH1 0xE0 SHL SUB PUSH3 0x2396 AND JUMP JUMPDEST PUSH1 0x60 ADD MLOAD PUSH2 0xF20 MSTORE PUSH3 0xEC8 DUP2 PUSH1 0x1B PUSH1 0x1 PUSH1 0x1 PUSH1 0xE0 SHL SUB PUSH3 0x2396 AND JUMP JUMPDEST PUSH1 0x60 ADD MLOAD PUSH2 0xF40 MSTORE PUSH3 0xEE6 DUP2 PUSH1 0x1C PUSH1 0x1 PUSH1 0x1 PUSH1 0xE0 SHL SUB PUSH3 0x2396 AND JUMP JUMPDEST PUSH1 0x60 ADD MLOAD PUSH2 0xF60 MSTORE PUSH3 0xF04 DUP2 PUSH1 0x1D PUSH1 0x1 PUSH1 0x1 PUSH1 0xE0 SHL SUB PUSH3 0x2396 AND JUMP JUMPDEST PUSH1 0x60 ADD MLOAD PUSH2 0xF80 MSTORE PUSH3 0xF22 DUP2 PUSH1 0x0 PUSH1 0x1 PUSH1 0x1 PUSH1 0xE0 SHL SUB PUSH3 0x2396 AND JUMP JUMPDEST PUSH1 0x80 ADD MLOAD PUSH1 0x2 DUP2 GT ISZERO PUSH3 0xF32 JUMPI INVALID JUMPDEST PUSH2 0xFA0 DUP2 PUSH1 0x2 DUP2 GT ISZERO PUSH3 0xF42 JUMPI INVALID JUMPDEST PUSH1 0xF8 SHL SWAP1 MSTORE POP PUSH3 0xF5E DUP2 PUSH1 0x1 PUSH1 0x1 PUSH1 0x1 PUSH1 0xE0 SHL SUB PUSH3 0x2396 AND JUMP JUMPDEST PUSH1 0x80 ADD MLOAD PUSH1 0x2 DUP2 GT ISZERO PUSH3 0xF6E JUMPI INVALID JUMPDEST PUSH2 0xFC0 DUP2 PUSH1 0x2 DUP2 GT ISZERO PUSH3 0xF7E JUMPI INVALID JUMPDEST PUSH1 0xF8 SHL SWAP1 MSTORE POP PUSH3 0xF9A DUP2 PUSH1 0x2 PUSH1 0x1 PUSH1 0x1 PUSH1 0xE0 SHL SUB PUSH3 0x2396 AND JUMP JUMPDEST PUSH1 0x80 ADD MLOAD PUSH1 0x2 DUP2 GT ISZERO PUSH3 0xFAA JUMPI INVALID JUMPDEST PUSH2 0xFE0 DUP2 PUSH1 0x2 DUP2 GT ISZERO PUSH3 0xFBA JUMPI INVALID JUMPDEST PUSH1 0xF8 SHL SWAP1 MSTORE POP PUSH3 0xFD6 DUP2 PUSH1 0x3 PUSH1 0x1 PUSH1 0x1 PUSH1 0xE0 SHL SUB PUSH3 0x2396 AND JUMP JUMPDEST PUSH1 0x80 ADD MLOAD PUSH1 0x2 DUP2 GT ISZERO PUSH3 0xFE6 JUMPI INVALID JUMPDEST PUSH2 0x1000 DUP2 PUSH1 0x2 DUP2 GT ISZERO PUSH3 0xFF6 JUMPI INVALID JUMPDEST PUSH1 0xF8 SHL SWAP1 MSTORE POP PUSH3 0x1012 DUP2 PUSH1 0x4 PUSH1 0x1 PUSH1 0x1 PUSH1 0xE0 SHL SUB PUSH3 0x2396 AND JUMP JUMPDEST PUSH1 0x80 ADD MLOAD PUSH1 0x2 DUP2 GT ISZERO PUSH3 0x1022 JUMPI INVALID JUMPDEST PUSH2 0x1020 DUP2 PUSH1 0x2 DUP2 GT ISZERO PUSH3 0x1032 JUMPI INVALID JUMPDEST PUSH1 0xF8 SHL SWAP1 MSTORE POP PUSH3 0x104E DUP2 PUSH1 0x5 PUSH1 0x1 PUSH1 0x1 PUSH1 0xE0 SHL SUB PUSH3 0x2396 AND JUMP JUMPDEST PUSH1 0x80 ADD MLOAD PUSH1 0x2 DUP2 GT ISZERO PUSH3 0x105E JUMPI INVALID JUMPDEST PUSH2 0x1040 DUP2 PUSH1 0x2 DUP2 GT ISZERO PUSH3 0x106E JUMPI INVALID JUMPDEST PUSH1 0xF8 SHL SWAP1 MSTORE POP PUSH3 0x108A DUP2 PUSH1 0x6 PUSH1 0x1 PUSH1 0x1 PUSH1 0xE0 SHL SUB PUSH3 0x2396 AND JUMP JUMPDEST PUSH1 0x80 ADD MLOAD PUSH1 0x2 DUP2 GT ISZERO PUSH3 0x109A JUMPI INVALID JUMPDEST PUSH2 0x1060 DUP2 PUSH1 0x2 DUP2 GT ISZERO PUSH3 0x10AA JUMPI INVALID JUMPDEST PUSH1 0xF8 SHL SWAP1 MSTORE POP PUSH3 0x10C6 DUP2 PUSH1 0x7 PUSH1 0x1 PUSH1 0x1 PUSH1 0xE0 SHL SUB PUSH3 0x2396 AND JUMP JUMPDEST PUSH1 0x80 ADD MLOAD PUSH1 0x2 DUP2 GT ISZERO PUSH3 0x10D6 JUMPI INVALID JUMPDEST PUSH2 0x1080 DUP2 PUSH1 0x2 DUP2 GT ISZERO PUSH3 0x10E6 JUMPI INVALID JUMPDEST PUSH1 0xF8 SHL SWAP1 MSTORE POP PUSH3 0x1102 DUP2 PUSH1 0x8 PUSH1 0x1 PUSH1 0x1 PUSH1 0xE0 SHL SUB PUSH3 0x2396 AND JUMP JUMPDEST PUSH1 0x80 ADD MLOAD PUSH1 0x2 DUP2 GT ISZERO PUSH3 0x1112 JUMPI INVALID JUMPDEST PUSH2 0x10A0 DUP2 PUSH1 0x2 DUP2 GT ISZERO PUSH3 0x1122 JUMPI INVALID JUMPDEST PUSH1 0xF8 SHL SWAP1 MSTORE POP PUSH3 0x113E DUP2 PUSH1 0x9 PUSH1 0x1 PUSH1 0x1 PUSH1 0xE0 SHL SUB PUSH3 0x2396 AND JUMP JUMPDEST PUSH1 0x80 ADD MLOAD PUSH1 0x2 DUP2 GT ISZERO PUSH3 0x114E JUMPI INVALID JUMPDEST PUSH2 0x10C0 DUP2 PUSH1 0x2 DUP2 GT ISZERO PUSH3 0x115E JUMPI INVALID JUMPDEST PUSH1 0xF8 SHL SWAP1 MSTORE POP PUSH3 0x117A DUP2 PUSH1 0xA PUSH1 0x1 PUSH1 0x1 PUSH1 0xE0 SHL SUB PUSH3 0x2396 AND JUMP JUMPDEST PUSH1 0x80 ADD MLOAD PUSH1 0x2 DUP2 GT ISZERO PUSH3 0x118A JUMPI INVALID JUMPDEST PUSH2 0x10E0 DUP2 PUSH1 0x2 DUP2 GT ISZERO PUSH3 0x119A JUMPI INVALID JUMPDEST PUSH1 0xF8 SHL SWAP1 MSTORE POP PUSH3 0x11B6 DUP2 PUSH1 0xB PUSH1 0x1 PUSH1 0x1 PUSH1 0xE0 SHL SUB PUSH3 0x2396 AND JUMP JUMPDEST PUSH1 0x80 ADD MLOAD PUSH1 0x2 DUP2 GT ISZERO PUSH3 0x11C6 JUMPI INVALID JUMPDEST PUSH2 0x1100 DUP2 PUSH1 0x2 DUP2 GT ISZERO PUSH3 0x11D6 JUMPI INVALID JUMPDEST PUSH1 0xF8 SHL SWAP1 MSTORE POP PUSH3 0x11F2 DUP2 PUSH1 0xC PUSH1 0x1 PUSH1 0x1 PUSH1 0xE0 SHL SUB PUSH3 0x2396 AND JUMP JUMPDEST PUSH1 0x80 ADD MLOAD PUSH1 0x2 DUP2 GT ISZERO PUSH3 0x1202 JUMPI INVALID JUMPDEST PUSH2 0x1120 DUP2 PUSH1 0x2 DUP2 GT ISZERO PUSH3 0x1212 JUMPI INVALID JUMPDEST PUSH1 0xF8 SHL SWAP1 MSTORE POP PUSH3 0x122E DUP2 PUSH1 0xD PUSH1 0x1 PUSH1 0x1 PUSH1 0xE0 SHL SUB PUSH3 0x2396 AND JUMP JUMPDEST PUSH1 0x80 ADD MLOAD PUSH1 0x2 DUP2 GT ISZERO PUSH3 0x123E JUMPI INVALID JUMPDEST PUSH2 0x1140 DUP2 PUSH1 0x2 DUP2 GT ISZERO PUSH3 0x124E JUMPI INVALID JUMPDEST PUSH1 0xF8 SHL SWAP1 MSTORE POP PUSH3 0x126A DUP2 PUSH1 0xE PUSH1 0x1 PUSH1 0x1 PUSH1 0xE0 SHL SUB PUSH3 0x2396 AND JUMP JUMPDEST PUSH1 0x80 ADD MLOAD PUSH1 0x2 DUP2 GT ISZERO PUSH3 0x127A JUMPI INVALID JUMPDEST PUSH2 0x1160 DUP2 PUSH1 0x2 DUP2 GT ISZERO PUSH3 0x128A JUMPI INVALID JUMPDEST PUSH1 0xF8 SHL SWAP1 MSTORE POP PUSH3 0x12A6 DUP2 PUSH1 0xF PUSH1 0x1 PUSH1 0x1 PUSH1 0xE0 SHL SUB PUSH3 0x2396 AND JUMP JUMPDEST PUSH1 0x80 ADD MLOAD PUSH1 0x2 DUP2 GT ISZERO PUSH3 0x12B6 JUMPI INVALID JUMPDEST PUSH2 0x1180 DUP2 PUSH1 0x2 DUP2 GT ISZERO PUSH3 0x12C6 JUMPI INVALID JUMPDEST PUSH1 0xF8 SHL SWAP1 MSTORE POP PUSH3 0x12E2 DUP2 PUSH1 0x10 PUSH1 0x1 PUSH1 0x1 PUSH1 0xE0 SHL SUB PUSH3 0x2396 AND JUMP JUMPDEST PUSH1 0x80 ADD MLOAD PUSH1 0x2 DUP2 GT ISZERO PUSH3 0x12F2 JUMPI INVALID JUMPDEST PUSH2 0x11A0 DUP2 PUSH1 0x2 DUP2 GT ISZERO PUSH3 0x1302 JUMPI INVALID JUMPDEST PUSH1 0xF8 SHL SWAP1 MSTORE POP PUSH3 0x131E DUP2 PUSH1 0x11 PUSH1 0x1 PUSH1 0x1 PUSH1 0xE0 SHL SUB PUSH3 0x2396 AND JUMP JUMPDEST PUSH1 0x80 ADD MLOAD PUSH1 0x2 DUP2 GT ISZERO PUSH3 0x132E JUMPI INVALID JUMPDEST PUSH2 0x11C0 DUP2 PUSH1 0x2 DUP2 GT ISZERO PUSH3 0x133E JUMPI INVALID JUMPDEST PUSH1 0xF8 SHL SWAP1 MSTORE POP PUSH3 0x135A DUP2 PUSH1 0x12 PUSH1 0x1 PUSH1 0x1 PUSH1 0xE0 SHL SUB PUSH3 0x2396 AND JUMP JUMPDEST PUSH1 0x80 ADD MLOAD PUSH1 0x2 DUP2 GT ISZERO PUSH3 0x136A JUMPI INVALID JUMPDEST PUSH2 0x11E0 DUP2 PUSH1 0x2 DUP2 GT ISZERO PUSH3 0x137A JUMPI INVALID JUMPDEST PUSH1 0xF8 SHL SWAP1 MSTORE POP PUSH3 0x1396 DUP2 PUSH1 0x13 PUSH1 0x1 PUSH1 0x1 PUSH1 0xE0 SHL SUB PUSH3 0x2396 AND JUMP JUMPDEST PUSH1 0x80 ADD MLOAD PUSH1 0x2 DUP2 GT ISZERO PUSH3 0x13A6 JUMPI INVALID JUMPDEST PUSH2 0x1200 DUP2 PUSH1 0x2 DUP2 GT ISZERO PUSH3 0x13B6 JUMPI INVALID JUMPDEST PUSH1 0xF8 SHL SWAP1 MSTORE POP PUSH3 0x13D2 DUP2 PUSH1 0x14 PUSH1 0x1 PUSH1 0x1 PUSH1 0xE0 SHL SUB PUSH3 0x2396 AND JUMP JUMPDEST PUSH1 0x80 ADD MLOAD PUSH1 0x2 DUP2 GT ISZERO PUSH3 0x13E2 JUMPI INVALID JUMPDEST PUSH2 0x1220 DUP2 PUSH1 0x2 DUP2 GT ISZERO PUSH3 0x13F2 JUMPI INVALID JUMPDEST PUSH1 0xF8 SHL SWAP1 MSTORE POP PUSH3 0x140E DUP2 PUSH1 0x15 PUSH1 0x1 PUSH1 0x1 PUSH1 0xE0 SHL SUB PUSH3 0x2396 AND JUMP JUMPDEST PUSH1 0x80 ADD MLOAD PUSH1 0x2 DUP2 GT ISZERO PUSH3 0x141E JUMPI INVALID JUMPDEST PUSH2 0x1240 DUP2 PUSH1 0x2 DUP2 GT ISZERO PUSH3 0x142E JUMPI INVALID JUMPDEST PUSH1 0xF8 SHL SWAP1 MSTORE POP PUSH3 0x144A DUP2 PUSH1 0x16 PUSH1 0x1 PUSH1 0x1 PUSH1 0xE0 SHL SUB PUSH3 0x2396 AND JUMP JUMPDEST PUSH1 0x80 ADD MLOAD PUSH1 0x2 DUP2 GT ISZERO PUSH3 0x145A JUMPI INVALID JUMPDEST PUSH2 0x1260 DUP2 PUSH1 0x2 DUP2 GT ISZERO PUSH3 0x146A JUMPI INVALID JUMPDEST PUSH1 0xF8 SHL SWAP1 MSTORE POP PUSH3 0x1486 DUP2 PUSH1 0x17 PUSH1 0x1 PUSH1 0x1 PUSH1 0xE0 SHL SUB PUSH3 0x2396 AND JUMP JUMPDEST PUSH1 0x80 ADD MLOAD PUSH1 0x2 DUP2 GT ISZERO PUSH3 0x1496 JUMPI INVALID JUMPDEST PUSH2 0x1280 DUP2 PUSH1 0x2 DUP2 GT ISZERO PUSH3 0x14A6 JUMPI INVALID JUMPDEST PUSH1 0xF8 SHL SWAP1 MSTORE POP PUSH3 0x14C2 DUP2 PUSH1 0x18 PUSH1 0x1 PUSH1 0x1 PUSH1 0xE0 SHL SUB PUSH3 0x2396 AND JUMP JUMPDEST PUSH1 0x80 ADD MLOAD PUSH1 0x2 DUP2 GT ISZERO PUSH3 0x14D2 JUMPI INVALID JUMPDEST PUSH2 0x12A0 DUP2 PUSH1 0x2 DUP2 GT ISZERO PUSH3 0x14E2 JUMPI INVALID JUMPDEST PUSH1 0xF8 SHL SWAP1 MSTORE POP PUSH3 0x14FE DUP2 PUSH1 0x19 PUSH1 0x1 PUSH1 0x1 PUSH1 0xE0 SHL SUB PUSH3 0x2396 AND JUMP JUMPDEST PUSH1 0x80 ADD MLOAD PUSH1 0x2 DUP2 GT ISZERO PUSH3 0x150E JUMPI INVALID JUMPDEST PUSH2 0x12C0 DUP2 PUSH1 0x2 DUP2 GT ISZERO PUSH3 0x151E JUMPI INVALID JUMPDEST PUSH1 0xF8 SHL SWAP1 MSTORE POP PUSH3 0x153A DUP2 PUSH1 0x1A PUSH1 0x1 PUSH1 0x1 PUSH1 0xE0 SHL SUB PUSH3 0x2396 AND JUMP JUMPDEST PUSH1 0x80 ADD MLOAD PUSH1 0x2 DUP2 GT ISZERO PUSH3 0x154A JUMPI INVALID JUMPDEST PUSH2 0x12E0 DUP2 PUSH1 0x2 DUP2 GT ISZERO PUSH3 0x155A JUMPI INVALID JUMPDEST PUSH1 0xF8 SHL SWAP1 MSTORE POP PUSH3 0x1576 DUP2 PUSH1 0x1B PUSH1 0x1 PUSH1 0x1 PUSH1 0xE0 SHL SUB PUSH3 0x2396 AND JUMP JUMPDEST PUSH1 0x80 ADD MLOAD PUSH1 0x2 DUP2 GT ISZERO PUSH3 0x1586 JUMPI INVALID JUMPDEST PUSH2 0x1300 DUP2 PUSH1 0x2 DUP2 GT ISZERO PUSH3 0x1596 JUMPI INVALID JUMPDEST PUSH1 0xF8 SHL SWAP1 MSTORE POP PUSH3 0x15B2 DUP2 PUSH1 0x1C PUSH1 0x1 PUSH1 0x1 PUSH1 0xE0 SHL SUB PUSH3 0x2396 AND JUMP JUMPDEST PUSH1 0x80 ADD MLOAD PUSH1 0x2 DUP2 GT ISZERO PUSH3 0x15C2 JUMPI INVALID JUMPDEST PUSH2 0x1320 DUP2 PUSH1 0x2 DUP2 GT ISZERO PUSH3 0x15D2 JUMPI INVALID JUMPDEST PUSH1 0xF8 SHL SWAP1 MSTORE POP PUSH3 0x15EE DUP2 PUSH1 0x1D PUSH1 0x1 PUSH1 0x1 PUSH1 0xE0 SHL SUB PUSH3 0x2396 AND JUMP JUMPDEST PUSH1 0x80 ADD MLOAD PUSH1 0x2 DUP2 GT ISZERO PUSH3 0x15FE JUMPI INVALID JUMPDEST PUSH2 0x1340 DUP2 PUSH1 0x2 DUP2 GT ISZERO PUSH3 0x160E JUMPI INVALID JUMPDEST PUSH1 0xF8 SHL SWAP1 MSTORE POP PUSH3 0x162A DUP2 PUSH1 0x0 PUSH1 0x1 PUSH1 0x1 PUSH1 0xE0 SHL SUB PUSH3 0x2396 AND JUMP JUMPDEST PUSH1 0xA0 ADD MLOAD PUSH2 0x1360 MSTORE PUSH3 0x1648 DUP2 PUSH1 0x1 PUSH1 0x1 PUSH1 0x1 PUSH1 0xE0 SHL SUB PUSH3 0x2396 AND JUMP JUMPDEST PUSH1 0xA0 ADD MLOAD PUSH2 0x1380 MSTORE PUSH3 0x1666 DUP2 PUSH1 0x2 PUSH1 0x1 PUSH1 0x1 PUSH1 0xE0 SHL SUB PUSH3 0x2396 AND JUMP JUMPDEST PUSH1 0xA0 ADD MLOAD PUSH2 0x13A0 MSTORE PUSH3 0x1684 DUP2 PUSH1 0x3 PUSH1 0x1 PUSH1 0x1 PUSH1 0xE0 SHL SUB PUSH3 0x2396 AND JUMP JUMPDEST PUSH1 0xA0 ADD MLOAD PUSH2 0x13C0 MSTORE PUSH3 0x16A2 DUP2 PUSH1 0x4 PUSH1 0x1 PUSH1 0x1 PUSH1 0xE0 SHL SUB PUSH3 0x2396 AND JUMP JUMPDEST PUSH1 0xA0 ADD MLOAD PUSH2 0x13E0 MSTORE PUSH3 0x16C0 DUP2 PUSH1 0x5 PUSH1 0x1 PUSH1 0x1 PUSH1 0xE0 SHL SUB PUSH3 0x2396 AND JUMP JUMPDEST PUSH1 0xA0 ADD MLOAD PUSH2 0x1400 MSTORE PUSH3 0x16DE DUP2 PUSH1 0x6 PUSH1 0x1 PUSH1 0x1 PUSH1 0xE0 SHL SUB PUSH3 0x2396 AND JUMP JUMPDEST PUSH1 0xA0 ADD MLOAD PUSH2 0x1420 MSTORE PUSH3 0x16FC DUP2 PUSH1 0x7 PUSH1 0x1 PUSH1 0x1 PUSH1 0xE0 SHL SUB PUSH3 0x2396 AND JUMP JUMPDEST PUSH1 0xA0 ADD MLOAD PUSH2 0x1440 MSTORE PUSH3 0x171A DUP2 PUSH1 0x8 PUSH1 0x1 PUSH1 0x1 PUSH1 0xE0 SHL SUB PUSH3 0x2396 AND JUMP JUMPDEST PUSH1 0xA0 ADD MLOAD PUSH2 0x1460 MSTORE PUSH3 0x1738 DUP2 PUSH1 0x9 PUSH1 0x1 PUSH1 0x1 PUSH1 0xE0 SHL SUB PUSH3 0x2396 AND JUMP JUMPDEST PUSH1 0xA0 ADD MLOAD PUSH2 0x1480 MSTORE PUSH3 0x1756 DUP2 PUSH1 0xA PUSH1 0x1 PUSH1 0x1 PUSH1 0xE0 SHL SUB PUSH3 0x2396 AND JUMP JUMPDEST PUSH1 0xA0 ADD MLOAD PUSH2 0x14A0 MSTORE PUSH3 0x1774 DUP2 PUSH1 0xB PUSH1 0x1 PUSH1 0x1 PUSH1 0xE0 SHL SUB PUSH3 0x2396 AND JUMP JUMPDEST PUSH1 0xA0 ADD MLOAD PUSH2 0x14C0 MSTORE PUSH3 0x1792 DUP2 PUSH1 0xC PUSH1 0x1 PUSH1 0x1 PUSH1 0xE0 SHL SUB PUSH3 0x2396 AND JUMP JUMPDEST PUSH1 0xA0 ADD MLOAD PUSH2 0x14E0 MSTORE PUSH3 0x17B0 DUP2 PUSH1 0xD PUSH1 0x1 PUSH1 0x1 PUSH1 0xE0 SHL SUB PUSH3 0x2396 AND JUMP JUMPDEST PUSH1 0xA0 ADD MLOAD PUSH2 0x1500 MSTORE PUSH3 0x17CE DUP2 PUSH1 0xE PUSH1 0x1 PUSH1 0x1 PUSH1 0xE0 SHL SUB PUSH3 0x2396 AND JUMP JUMPDEST PUSH1 0xA0 ADD MLOAD PUSH2 0x1520 MSTORE PUSH3 0x17EC DUP2 PUSH1 0xF PUSH1 0x1 PUSH1 0x1 PUSH1 0xE0 SHL SUB PUSH3 0x2396 AND JUMP JUMPDEST PUSH1 0xA0 ADD MLOAD PUSH2 0x1540 MSTORE PUSH3 0x180A DUP2 PUSH1 0x10 PUSH1 0x1 PUSH1 0x1 PUSH1 0xE0 SHL SUB PUSH3 0x2396 AND JUMP JUMPDEST PUSH1 0xA0 ADD MLOAD PUSH2 0x1560 MSTORE PUSH3 0x1828 DUP2 PUSH1 0x11 PUSH1 0x1 PUSH1 0x1 PUSH1 0xE0 SHL SUB PUSH3 0x2396 AND JUMP JUMPDEST PUSH1 0xA0 ADD MLOAD PUSH2 0x1580 MSTORE PUSH3 0x1846 DUP2 PUSH1 0x12 PUSH1 0x1 PUSH1 0x1 PUSH1 0xE0 SHL SUB PUSH3 0x2396 AND JUMP JUMPDEST PUSH1 0xA0 ADD MLOAD PUSH2 0x15A0 MSTORE PUSH3 0x1864 DUP2 PUSH1 0x13 PUSH1 0x1 PUSH1 0x1 PUSH1 0xE0 SHL SUB PUSH3 0x2396 AND JUMP JUMPDEST PUSH1 0xA0 ADD MLOAD PUSH2 0x15C0 MSTORE PUSH3 0x1882 DUP2 PUSH1 0x14 PUSH1 0x1 PUSH1 0x1 PUSH1 0xE0 SHL SUB PUSH3 0x2396 AND JUMP JUMPDEST PUSH1 0xA0 ADD MLOAD PUSH2 0x15E0 MSTORE PUSH3 0x18A0 DUP2 PUSH1 0x15 PUSH1 0x1 PUSH1 0x1 PUSH1 0xE0 SHL SUB PUSH3 0x2396 AND JUMP JUMPDEST PUSH1 0xA0 ADD MLOAD PUSH2 0x1600 MSTORE PUSH3 0x18BE DUP2 PUSH1 0x16 PUSH1 0x1 PUSH1 0x1 PUSH1 0xE0 SHL SUB PUSH3 0x2396 AND JUMP JUMPDEST PUSH1 0xA0 ADD MLOAD PUSH2 0x1620 MSTORE PUSH3 0x18DC DUP2 PUSH1 0x17 PUSH1 0x1 PUSH1 0x1 PUSH1 0xE0 SHL SUB PUSH3 0x2396 AND JUMP JUMPDEST PUSH1 0xA0 ADD MLOAD PUSH2 0x1640 MSTORE PUSH3 0x18FA DUP2 PUSH1 0x18 PUSH1 0x1 PUSH1 0x1 PUSH1 0xE0 SHL SUB PUSH3 0x2396 AND JUMP JUMPDEST PUSH1 0xA0 ADD MLOAD PUSH2 0x1660 MSTORE PUSH3 0x1918 DUP2 PUSH1 0x19 PUSH1 0x1 PUSH1 0x1 PUSH1 0xE0 SHL SUB PUSH3 0x2396 AND JUMP JUMPDEST PUSH1 0xA0 ADD MLOAD PUSH2 0x1680 MSTORE PUSH3 0x1936 DUP2 PUSH1 0x1A PUSH1 0x1 PUSH1 0x1 PUSH1 0xE0 SHL SUB PUSH3 0x2396 AND JUMP JUMPDEST PUSH1 0xA0 ADD MLOAD PUSH2 0x16A0 MSTORE PUSH3 0x1954 DUP2 PUSH1 0x1B PUSH1 0x1 PUSH1 0x1 PUSH1 0xE0 SHL SUB PUSH3 0x2396 AND JUMP JUMPDEST PUSH1 0xA0 ADD MLOAD PUSH2 0x16C0 MSTORE PUSH3 0x1972 DUP2 PUSH1 0x1C PUSH1 0x1 PUSH1 0x1 PUSH1 0xE0 SHL SUB PUSH3 0x2396 AND JUMP JUMPDEST PUSH1 0xA0 ADD MLOAD PUSH2 0x16E0 MSTORE PUSH3 0x1990 DUP2 PUSH1 0x1D PUSH1 0x1 PUSH1 0x1 PUSH1 0xE0 SHL SUB PUSH3 0x2396 AND JUMP JUMPDEST PUSH1 0xA0 ADD MLOAD PUSH2 0x1700 MSTORE PUSH3 0x19AE DUP2 PUSH1 0x0 PUSH1 0x1 PUSH1 0x1 PUSH1 0xE0 SHL SUB PUSH3 0x2396 AND JUMP JUMPDEST PUSH1 0xC0 ADD MLOAD PUSH1 0x60 SHL PUSH1 0x1 PUSH1 0x1 PUSH1 0x60 SHL SUB NOT AND PUSH2 0x1720 MSTORE PUSH3 0x19D0 DUP2 PUSH1 0x1 PUSH3 0x2396 JUMP JUMPDEST PUSH1 0xC0 ADD MLOAD PUSH1 0x60 SHL PUSH1 0x1 PUSH1 0x1 PUSH1 0x60 SHL SUB NOT AND PUSH2 0x1740 MSTORE PUSH3 0x19F2 DUP2 PUSH1 0x2 PUSH3 0x2396 JUMP JUMPDEST PUSH1 0xC0 ADD MLOAD PUSH1 0x60 SHL PUSH1 0x1 PUSH1 0x1 PUSH1 0x60 SHL SUB NOT AND PUSH2 0x1760 MSTORE PUSH3 0x1A14 DUP2 PUSH1 0x3 PUSH3 0x2396 JUMP JUMPDEST PUSH1 0xC0 ADD MLOAD PUSH1 0x60 SHL PUSH1 0x1 PUSH1 0x1 PUSH1 0x60 SHL SUB NOT AND PUSH2 0x1780 MSTORE PUSH3 0x1A36 DUP2 PUSH1 0x4 PUSH3 0x2396 JUMP JUMPDEST PUSH1 0xC0 ADD MLOAD PUSH1 0x60 SHL PUSH1 0x1 PUSH1 0x1 PUSH1 0x60 SHL SUB NOT AND PUSH2 0x17A0 MSTORE PUSH3 0x1A58 DUP2 PUSH1 0x5 PUSH3 0x2396 JUMP JUMPDEST PUSH1 0xC0 ADD MLOAD PUSH1 0x60 SHL PUSH1 0x1 PUSH1 0x1 PUSH1 0x60 SHL SUB NOT AND PUSH2 0x17C0 MSTORE PUSH3 0x1A7A DUP2 PUSH1 0x6 PUSH3 0x2396 JUMP JUMPDEST PUSH1 0xC0 ADD MLOAD PUSH1 0x60 SHL PUSH1 0x1 PUSH1 0x1 PUSH1 0x60 SHL SUB NOT AND PUSH2 0x17E0 MSTORE PUSH3 0x1A9C DUP2 PUSH1 0x7 PUSH3 0x2396 JUMP JUMPDEST PUSH1 0xC0 ADD MLOAD PUSH1 0x60 SHL PUSH1 0x1 PUSH1 0x1 PUSH1 0x60 SHL SUB NOT AND PUSH2 0x1800 MSTORE PUSH3 0x1ABE DUP2 PUSH1 0x8 PUSH3 0x2396 JUMP JUMPDEST PUSH1 0xC0 ADD MLOAD PUSH1 0x60 SHL PUSH1 0x1 PUSH1 0x1 PUSH1 0x60 SHL SUB NOT AND PUSH2 0x1820 MSTORE PUSH3 0x1AE0 DUP2 PUSH1 0x9 PUSH3 0x2396 JUMP JUMPDEST PUSH1 0xC0 ADD MLOAD PUSH1 0x60 SHL PUSH1 0x1 PUSH1 0x1 PUSH1 0x60 SHL SUB NOT AND PUSH2 0x1840 MSTORE PUSH3 0x1B02 DUP2 PUSH1 0xA PUSH3 0x2396 JUMP JUMPDEST PUSH1 0xC0 ADD MLOAD PUSH1 0x60 SHL PUSH1 0x1 PUSH1 0x1 PUSH1 0x60 SHL SUB NOT AND PUSH2 0x1860 MSTORE PUSH3 0x1B24 DUP2 PUSH1 0xB PUSH3 0x2396 JUMP JUMPDEST PUSH1 0xC0 ADD MLOAD PUSH1 0x60 SHL PUSH1 0x1 PUSH1 0x1 PUSH1 0x60 SHL SUB NOT AND PUSH2 0x1880 MSTORE PUSH3 0x1B46 DUP2 PUSH1 0xC PUSH3 0x2396 JUMP JUMPDEST PUSH1 0xC0 ADD MLOAD PUSH1 0x60 SHL PUSH1 0x1 PUSH1 0x1 PUSH1 0x60 SHL SUB NOT AND PUSH2 0x18A0 MSTORE PUSH3 0x1B68 DUP2 PUSH1 0xD PUSH3 0x2396 JUMP JUMPDEST PUSH1 0xC0 ADD MLOAD PUSH1 0x60 SHL PUSH1 0x1 PUSH1 0x1 PUSH1 0x60 SHL SUB NOT AND PUSH2 0x18C0 MSTORE PUSH3 0x1B8A DUP2 PUSH1 0xE PUSH3 0x2396 JUMP JUMPDEST PUSH1 0xC0 ADD MLOAD PUSH1 0x60 SHL PUSH1 0x1 PUSH1 0x1 PUSH1 0x60 SHL SUB NOT AND PUSH2 0x18E0 MSTORE PUSH3 0x1BAC DUP2 PUSH1 0xF PUSH3 0x2396 JUMP JUMPDEST PUSH1 0xC0 ADD MLOAD PUSH1 0x60 SHL PUSH1 0x1 PUSH1 0x1 PUSH1 0x60 SHL SUB NOT AND PUSH2 0x1900 MSTORE PUSH3 0x1BCE DUP2 PUSH1 0x10 PUSH3 0x2396 JUMP JUMPDEST PUSH1 0xC0 ADD MLOAD PUSH1 0x60 SHL PUSH1 0x1 PUSH1 0x1 PUSH1 0x60 SHL SUB NOT AND PUSH2 0x1920 MSTORE PUSH3 0x1BF0 DUP2 PUSH1 0x11 PUSH3 0x2396 JUMP JUMPDEST PUSH1 0xC0 ADD MLOAD PUSH1 0x60 SHL PUSH1 0x1 PUSH1 0x1 PUSH1 0x60 SHL SUB NOT AND PUSH2 0x1940 MSTORE PUSH3 0x1C12 DUP2 PUSH1 0x12 PUSH3 0x2396 JUMP JUMPDEST PUSH1 0xC0 ADD MLOAD PUSH1 0x60 SHL PUSH1 0x1 PUSH1 0x1 PUSH1 0x60 SHL SUB NOT AND PUSH2 0x1960 MSTORE PUSH3 0x1C34 DUP2 PUSH1 0x13 PUSH3 0x2396 JUMP JUMPDEST PUSH1 0xC0 ADD MLOAD PUSH1 0x60 SHL PUSH1 0x1 PUSH1 0x1 PUSH1 0x60 SHL SUB NOT AND PUSH2 0x1980 MSTORE PUSH3 0x1C56 DUP2 PUSH1 0x14 PUSH3 0x2396 JUMP JUMPDEST PUSH1 0xC0 ADD MLOAD PUSH1 0x60 SHL PUSH1 0x1 PUSH1 0x1 PUSH1 0x60 SHL SUB NOT AND PUSH2 0x19A0 MSTORE PUSH3 0x1C78 DUP2 PUSH1 0x15 PUSH3 0x2396 JUMP JUMPDEST PUSH1 0xC0 ADD MLOAD PUSH1 0x60 SHL PUSH1 0x1 PUSH1 0x1 PUSH1 0x60 SHL SUB NOT AND PUSH2 0x19C0 MSTORE PUSH3 0x1C9A DUP2 PUSH1 0x16 PUSH3 0x2396 JUMP JUMPDEST PUSH1 0xC0 ADD MLOAD PUSH1 0x60 SHL PUSH1 0x1 PUSH1 0x1 PUSH1 0x60 SHL SUB NOT AND PUSH2 0x19E0 MSTORE PUSH3 0x1CBC DUP2 PUSH1 0x17 PUSH3 0x2396 JUMP JUMPDEST PUSH1 0xC0 ADD MLOAD PUSH1 0x60 SHL PUSH1 0x1 PUSH1 0x1 PUSH1 0x60 SHL SUB NOT AND PUSH2 0x1A00 MSTORE PUSH3 0x1CDE DUP2 PUSH1 0x18 PUSH3 0x2396 JUMP JUMPDEST PUSH1 0xC0 ADD MLOAD PUSH1 0x60 SHL PUSH1 0x1 PUSH1 0x1 PUSH1 0x60 SHL SUB NOT AND PUSH2 0x1A20 MSTORE PUSH3 0x1D00 DUP2 PUSH1 0x19 PUSH3 0x2396 JUMP JUMPDEST PUSH1 0xC0 ADD MLOAD PUSH1 0x60 SHL PUSH1 0x1 PUSH1 0x1 PUSH1 0x60 SHL SUB NOT AND PUSH2 0x1A40 MSTORE PUSH3 0x1D22 DUP2 PUSH1 0x1A PUSH3 0x2396 JUMP JUMPDEST PUSH1 0xC0 ADD MLOAD PUSH1 0x60 SHL PUSH1 0x1 PUSH1 0x1 PUSH1 0x60 SHL SUB NOT AND PUSH2 0x1A60 MSTORE PUSH3 0x1D44 DUP2 PUSH1 0x1B PUSH3 0x2396 JUMP JUMPDEST PUSH1 0xC0 ADD MLOAD PUSH1 0x60 SHL PUSH1 0x1 PUSH1 0x1 PUSH1 0x60 SHL SUB NOT AND PUSH2 0x1A80 MSTORE PUSH3 0x1D66 DUP2 PUSH1 0x1C PUSH3 0x2396 JUMP JUMPDEST PUSH1 0xC0 ADD MLOAD PUSH1 0x60 SHL PUSH1 0x1 PUSH1 0x1 PUSH1 0x60 SHL SUB NOT AND PUSH2 0x1AA0 MSTORE PUSH3 0x1D88 DUP2 PUSH1 0x1D PUSH3 0x2396 JUMP JUMPDEST PUSH1 0xC0 ADD MLOAD PUSH1 0x60 SHL PUSH1 0x1 PUSH1 0x1 PUSH1 0x60 SHL SUB NOT AND PUSH2 0x1AC0 MSTORE PUSH3 0x1DAA DUP2 PUSH1 0x0 PUSH3 0x2396 JUMP JUMPDEST PUSH1 0xE0 ADD MLOAD ISZERO ISZERO PUSH1 0xF8 SHL PUSH2 0x1AE0 MSTORE PUSH3 0x1DCD DUP2 PUSH1 0x1 PUSH1 0x1 PUSH1 0x1 PUSH1 0xE0 SHL SUB PUSH3 0x2396 AND JUMP JUMPDEST PUSH1 0xE0 ADD MLOAD ISZERO ISZERO PUSH1 0xF8 SHL PUSH2 0x1B00 MSTORE PUSH3 0x1DF0 DUP2 PUSH1 0x2 PUSH1 0x1 PUSH1 0x1 PUSH1 0xE0 SHL SUB PUSH3 0x2396 AND JUMP JUMPDEST PUSH1 0xE0 ADD MLOAD ISZERO ISZERO PUSH1 0xF8 SHL PUSH2 0x1B20 MSTORE PUSH3 0x1E13 DUP2 PUSH1 0x3 PUSH1 0x1 PUSH1 0x1 PUSH1 0xE0 SHL SUB PUSH3 0x2396 AND JUMP JUMPDEST PUSH1 0xE0 ADD MLOAD ISZERO ISZERO PUSH1 0xF8 SHL PUSH2 0x1B40 MSTORE PUSH3 0x1E36 DUP2 PUSH1 0x4 PUSH1 0x1 PUSH1 0x1 PUSH1 0xE0 SHL SUB PUSH3 0x2396 AND JUMP JUMPDEST PUSH1 0xE0 ADD MLOAD ISZERO ISZERO PUSH1 0xF8 SHL PUSH2 0x1B60 MSTORE PUSH3 0x1E59 DUP2 PUSH1 0x5 PUSH1 0x1 PUSH1 0x1 PUSH1 0xE0 SHL SUB PUSH3 0x2396 AND JUMP JUMPDEST PUSH1 0xE0 ADD MLOAD ISZERO ISZERO PUSH1 0xF8 SHL PUSH2 0x1B80 MSTORE PUSH3 0x1E7C DUP2 PUSH1 0x6 PUSH1 0x1 PUSH1 0x1 PUSH1 0xE0 SHL SUB PUSH3 0x2396 AND JUMP JUMPDEST PUSH1 0xE0 ADD MLOAD ISZERO ISZERO PUSH1 0xF8 SHL PUSH2 0x1BA0 MSTORE PUSH3 0x1E9F DUP2 PUSH1 0x7 PUSH1 0x1 PUSH1 0x1 PUSH1 0xE0 SHL SUB PUSH3 0x2396 AND JUMP JUMPDEST PUSH1 0xE0 ADD MLOAD ISZERO ISZERO PUSH1 0xF8 SHL PUSH2 0x1BC0 MSTORE PUSH3 0x1EC2 DUP2 PUSH1 0x8 PUSH1 0x1 PUSH1 0x1 PUSH1 0xE0 SHL SUB PUSH3 0x2396 AND JUMP JUMPDEST PUSH1 0xE0 ADD MLOAD ISZERO ISZERO PUSH1 0xF8 SHL PUSH2 0x1BE0 MSTORE PUSH3 0x1EE5 DUP2 PUSH1 0x9 PUSH1 0x1 PUSH1 0x1 PUSH1 0xE0 SHL SUB PUSH3 0x2396 AND JUMP JUMPDEST PUSH1 0xE0 ADD MLOAD ISZERO ISZERO PUSH1 0xF8 SHL PUSH2 0x1C00 MSTORE PUSH3 0x1F08 DUP2 PUSH1 0xA PUSH1 0x1 PUSH1 0x1 PUSH1 0xE0 SHL SUB PUSH3 0x2396 AND JUMP JUMPDEST PUSH1 0xE0 ADD MLOAD ISZERO ISZERO PUSH1 0xF8 SHL PUSH2 0x1C20 MSTORE PUSH3 0x1F2B DUP2 PUSH1 0xB PUSH1 0x1 PUSH1 0x1 PUSH1 0xE0 SHL SUB PUSH3 0x2396 AND JUMP JUMPDEST PUSH1 0xE0 ADD MLOAD ISZERO ISZERO PUSH1 0xF8 SHL PUSH2 0x1C40 MSTORE PUSH3 0x1F4E DUP2 PUSH1 0xC PUSH1 0x1 PUSH1 0x1 PUSH1 0xE0 SHL SUB PUSH3 0x2396 AND JUMP JUMPDEST PUSH1 0xE0 ADD MLOAD ISZERO ISZERO PUSH1 0xF8 SHL PUSH2 0x1C60 MSTORE PUSH3 0x1F71 DUP2 PUSH1 0xD PUSH1 0x1 PUSH1 0x1 PUSH1 0xE0 SHL SUB PUSH3 0x2396 AND JUMP JUMPDEST PUSH1 0xE0 ADD MLOAD ISZERO ISZERO PUSH1 0xF8 SHL PUSH2 0x1C80 MSTORE PUSH3 0x1F94 DUP2 PUSH1 0xE PUSH1 0x1 PUSH1 0x1 PUSH1 0xE0 SHL SUB PUSH3 0x2396 AND JUMP JUMPDEST PUSH1 0xE0 ADD MLOAD ISZERO ISZERO PUSH1 0xF8 SHL PUSH2 0x1CA0 MSTORE PUSH3 0x1FB7 DUP2 PUSH1 0xF PUSH1 0x1 PUSH1 0x1 PUSH1 0xE0 SHL SUB PUSH3 0x2396 AND JUMP JUMPDEST PUSH1 0xE0 ADD MLOAD ISZERO ISZERO PUSH1 0xF8 SHL PUSH2 0x1CC0 MSTORE PUSH3 0x1FDA DUP2 PUSH1 0x10 PUSH1 0x1 PUSH1 0x1 PUSH1 0xE0 SHL SUB PUSH3 0x2396 AND JUMP JUMPDEST PUSH1 0xE0 ADD MLOAD ISZERO ISZERO PUSH1 0xF8 SHL PUSH2 0x1CE0 MSTORE PUSH3 0x1FFD DUP2 PUSH1 0x11 PUSH1 0x1 PUSH1 0x1 PUSH1 0xE0 SHL SUB PUSH3 0x2396 AND JUMP JUMPDEST PUSH1 0xE0 ADD MLOAD ISZERO ISZERO PUSH1 0xF8 SHL PUSH2 0x1D00 MSTORE PUSH3 0x2020 DUP2 PUSH1 0x12 PUSH1 0x1 PUSH1 0x1 PUSH1 0xE0 SHL SUB PUSH3 0x2396 AND JUMP JUMPDEST PUSH1 0xE0 ADD MLOAD ISZERO ISZERO PUSH1 0xF8 SHL PUSH2 0x1D20 MSTORE PUSH3 0x2043 DUP2 PUSH1 0x13 PUSH1 0x1 PUSH1 0x1 PUSH1 0xE0 SHL SUB PUSH3 0x2396 AND JUMP JUMPDEST PUSH1 0xE0 ADD MLOAD ISZERO ISZERO PUSH1 0xF8 SHL PUSH2 0x1D40 MSTORE PUSH3 0x2066 DUP2 PUSH1 0x14 PUSH1 0x1 PUSH1 0x1 PUSH1 0xE0 SHL SUB PUSH3 0x2396 AND JUMP JUMPDEST PUSH1 0xE0 ADD MLOAD ISZERO ISZERO PUSH1 0xF8 SHL PUSH2 0x1D60 MSTORE PUSH3 0x2089 DUP2 PUSH1 0x15 PUSH1 0x1 PUSH1 0x1 PUSH1 0xE0 SHL SUB PUSH3 0x2396 AND JUMP JUMPDEST PUSH1 0xE0 ADD MLOAD ISZERO ISZERO PUSH1 0xF8 SHL PUSH2 0x1D80 MSTORE PUSH3 0x20AC DUP2 PUSH1 0x16 PUSH1 0x1 PUSH1 0x1 PUSH1 0xE0 SHL SUB PUSH3 0x2396 AND JUMP JUMPDEST PUSH1 0xE0 ADD MLOAD ISZERO ISZERO PUSH1 0xF8 SHL PUSH2 0x1DA0 MSTORE PUSH3 0x20CF DUP2 PUSH1 0x17 PUSH1 0x1 PUSH1 0x1 PUSH1 0xE0 SHL SUB PUSH3 0x2396 AND JUMP JUMPDEST PUSH1 0xE0 ADD MLOAD ISZERO ISZERO PUSH1 0xF8 SHL PUSH2 0x1DC0 MSTORE PUSH3 0x20F2 DUP2 PUSH1 0x18 PUSH1 0x1 PUSH1 0x1 PUSH1 0xE0 SHL SUB PUSH3 0x2396 AND JUMP JUMPDEST PUSH1 0xE0 ADD MLOAD ISZERO ISZERO PUSH1 0xF8 SHL PUSH2 0x1DE0 MSTORE PUSH3 0x2115 DUP2 PUSH1 0x19 PUSH1 0x1 PUSH1 0x1 PUSH1 0xE0 SHL SUB PUSH3 0x2396 AND JUMP JUMPDEST PUSH1 0xE0 ADD MLOAD ISZERO ISZERO PUSH1 0xF8 SHL PUSH2 0x1E00 MSTORE PUSH3 0x2138 DUP2 PUSH1 0x1A PUSH1 0x1 PUSH1 0x1 PUSH1 0xE0 SHL SUB PUSH3 0x2396 AND JUMP JUMPDEST PUSH1 0xE0 ADD MLOAD ISZERO ISZERO PUSH1 0xF8 SHL PUSH2 0x1E20 MSTORE PUSH3 0x215B DUP2 PUSH1 0x1B PUSH1 0x1 PUSH1 0x1 PUSH1 0xE0 SHL SUB PUSH3 0x2396 AND JUMP JUMPDEST PUSH1 0xE0 ADD MLOAD ISZERO ISZERO PUSH1 0xF8 SHL PUSH2 0x1E40 MSTORE PUSH3 0x217E DUP2 PUSH1 0x1C PUSH1 0x1 PUSH1 0x1 PUSH1 0xE0 SHL SUB PUSH3 0x2396 AND JUMP JUMPDEST PUSH1 0xE0 ADD MLOAD ISZERO ISZERO PUSH1 0xF8 SHL PUSH2 0x1E60 MSTORE PUSH3 0x21A1 DUP2 PUSH1 0x1D PUSH1 0x1 PUSH1 0x1 PUSH1 0xE0 SHL SUB PUSH3 0x2396 AND JUMP JUMPDEST PUSH1 0xE0 ADD MLOAD ISZERO ISZERO PUSH1 0xF8 SHL PUSH2 0x1E80 MSTORE POP PUSH1 0x1 PUSH1 0x1 PUSH1 0x60 SHL SUB NOT PUSH1 0x60 DUP7 DUP2 SHL DUP3 AND PUSH2 0x1EA0 MSTORE DUP6 SWAP1 SHL AND PUSH2 0x1EC0 MSTORE PUSH2 0x1F20 DUP3 SWAP1 MSTORE PUSH8 0xDE0B6B3A7640000 NOT DUP4 GT PUSH3 0x21F3 JUMPI DUP3 PUSH8 0xDE0B6B3A7640000 ADD PUSH3 0x21F7 JUMP JUMPDEST PUSH1 0x0 NOT JUMPDEST PUSH2 0x1EE0 MSTORE PUSH8 0xDE0B6B3A7640000 DUP4 LT PUSH3 0x2213 JUMPI PUSH1 0x1 PUSH3 0x221F JUMP JUMPDEST DUP3 PUSH8 0xDE0B6B3A7640000 SUB JUMPDEST PUSH2 0x1F00 MSTORE PUSH1 0x0 JUMPDEST DUP2 MLOAD DUP2 LT ISZERO PUSH3 0x238A JUMPI PUSH3 0x223A PUSH3 0x26E2 JUMP JUMPDEST DUP3 DUP3 DUP2 MLOAD DUP2 LT PUSH3 0x2247 JUMPI INVALID JUMPDEST PUSH1 0x20 MUL PUSH1 0x20 ADD ADD MLOAD SWAP1 POP PUSH1 0x0 DUP2 PUSH1 0x60 ADD MLOAD GT PUSH3 0x2278 JUMPI PUSH1 0x40 MLOAD PUSH3 0x461BCD PUSH1 0xE5 SHL DUP2 MSTORE PUSH1 0x4 ADD PUSH3 0x5B SWAP1 PUSH3 0x2976 JUMP JUMPDEST PUSH1 0xC0 DUP2 ADD MLOAD PUSH1 0x2 DUP3 PUSH1 0x80 ADD MLOAD PUSH1 0x2 DUP2 GT ISZERO PUSH3 0x2290 JUMPI INVALID JUMPDEST EQ ISZERO PUSH3 0x2355 JUMPI PUSH1 0x1 PUSH1 0x1 PUSH1 0xA0 SHL SUB DUP2 AND PUSH3 0x22C0 JUMPI PUSH1 0x40 MLOAD PUSH3 0x461BCD PUSH1 0xE5 SHL DUP2 MSTORE PUSH1 0x4 ADD PUSH3 0x5B SWAP1 PUSH3 0x29B8 JUMP JUMPDEST PUSH1 0x40 DUP3 ADD MLOAD PUSH1 0x0 PUSH3 0x22DB DUP5 PUSH1 0x1 PUSH1 0x1 PUSH1 0xE0 SHL SUB PUSH3 0x2410 AND JUMP JUMPDEST PUSH1 0x0 DUP4 DUP2 MSTORE PUSH1 0x2 PUSH1 0x20 SWAP1 DUP2 MSTORE PUSH1 0x40 DUP1 DUP4 KECCAK256 TIMESTAMP DUP1 DUP3 SSTORE PUSH1 0x3 SWAP1 SWAP4 MSTORE SWAP3 DUP2 SWAP1 KECCAK256 DUP3 DUP2 SSTORE PUSH1 0x1 SWAP4 DUP5 ADD DUP6 SWAP1 SSTORE SWAP3 SWAP1 SWAP3 ADD DUP4 SWAP1 SSTORE SWAP1 MLOAD SWAP2 SWAP3 POP DUP4 SWAP2 PUSH32 0xE37D39315E3419C0937360F1AC88F2C52ECF67E3B22B367F82047DDB4591904A SWAP2 PUSH3 0x2345 SWAP2 DUP2 SWAP1 DUP7 SWAP1 DUP2 SWAP1 PUSH3 0x2AA2 JUMP JUMPDEST PUSH1 0x40 MLOAD DUP1 SWAP2 SUB SWAP1 LOG2 POP POP PUSH3 0x237F JUMP JUMPDEST PUSH1 0x1 PUSH1 0x1 PUSH1 0xA0 SHL SUB DUP2 AND ISZERO PUSH3 0x237F JUMPI PUSH1 0x40 MLOAD PUSH3 0x461BCD PUSH1 0xE5 SHL DUP2 MSTORE PUSH1 0x4 ADD PUSH3 0x5B SWAP1 PUSH3 0x2A5C JUMP JUMPDEST POP POP PUSH1 0x1 ADD PUSH3 0x2226 JUMP JUMPDEST POP POP POP POP POP POP PUSH3 0x2B33 JUMP JUMPDEST PUSH3 0x23A0 PUSH3 0x26E2 JUMP JUMPDEST DUP3 MLOAD DUP3 LT ISZERO PUSH3 0x23C7 JUMPI DUP3 DUP3 DUP2 MLOAD DUP2 LT PUSH3 0x23B7 JUMPI INVALID JUMPDEST PUSH1 0x20 MUL PUSH1 0x20 ADD ADD MLOAD SWAP1 POP PUSH3 0x240A JUMP JUMPDEST POP PUSH1 0x40 DUP1 MLOAD PUSH2 0x100 DUP2 ADD DUP3 MSTORE PUSH1 0x0 DUP1 DUP3 MSTORE PUSH1 0x20 DUP3 ADD DUP2 SWAP1 MSTORE SWAP2 DUP2 ADD DUP3 SWAP1 MSTORE PUSH1 0x60 DUP2 ADD DUP3 SWAP1 MSTORE PUSH1 0x80 DUP2 ADD DUP3 SWAP1 MSTORE PUSH1 0xA0 DUP2 ADD DUP3 SWAP1 MSTORE PUSH1 0xC0 DUP2 ADD DUP3 SWAP1 MSTORE PUSH1 0xE0 DUP2 ADD SWAP2 SWAP1 SWAP2 MSTORE JUMPDEST SWAP3 SWAP2 POP POP JUMP JUMPDEST PUSH1 0x0 DUP1 PUSH1 0x0 PUSH3 0x242F DUP5 PUSH1 0xC0 ADD MLOAD PUSH3 0x2452 PUSH1 0x20 SHL PUSH3 0x3536 OR PUSH1 0x20 SHR JUMP JUMPDEST POP SWAP2 POP SWAP2 POP DUP4 PUSH1 0xE0 ADD MLOAD ISZERO PUSH3 0x2449 JUMPI SWAP2 POP PUSH3 0x244D SWAP1 POP JUMP JUMPDEST POP SWAP1 POP JUMPDEST SWAP2 SWAP1 POP JUMP JUMPDEST PUSH1 0x0 DUP1 DUP1 PUSH3 0x2469 PUSH1 0x1 PUSH1 0x1 PUSH1 0xE0 SHL SUB PUSH3 0x265E AND JUMP JUMPDEST SWAP1 POP DUP4 PUSH1 0x1 PUSH1 0x1 PUSH1 0xA0 SHL SUB AND PUSH4 0x5909C0D5 PUSH1 0x40 MLOAD DUP2 PUSH4 0xFFFFFFFF AND PUSH1 0xE0 SHL DUP2 MSTORE PUSH1 0x4 ADD PUSH1 0x20 PUSH1 0x40 MLOAD DUP1 DUP4 SUB DUP2 DUP7 DUP1 EXTCODESIZE ISZERO DUP1 ISZERO PUSH3 0x24A5 JUMPI PUSH1 0x0 DUP1 REVERT JUMPDEST POP GAS STATICCALL ISZERO DUP1 ISZERO PUSH3 0x24BA JUMPI RETURNDATASIZE PUSH1 0x0 DUP1 RETURNDATACOPY RETURNDATASIZE PUSH1 0x0 REVERT JUMPDEST POP POP POP POP PUSH1 0x40 MLOAD RETURNDATASIZE PUSH1 0x1F NOT PUSH1 0x1F DUP3 ADD AND DUP3 ADD DUP1 PUSH1 0x40 MSTORE POP DUP2 ADD SWAP1 PUSH3 0x24E0 SWAP2 SWAP1 PUSH3 0x295D JUMP JUMPDEST SWAP3 POP DUP4 PUSH1 0x1 PUSH1 0x1 PUSH1 0xA0 SHL SUB AND PUSH4 0x5A3D5493 PUSH1 0x40 MLOAD DUP2 PUSH4 0xFFFFFFFF AND PUSH1 0xE0 SHL DUP2 MSTORE PUSH1 0x4 ADD PUSH1 0x20 PUSH1 0x40 MLOAD DUP1 DUP4 SUB DUP2 DUP7 DUP1 EXTCODESIZE ISZERO DUP1 ISZERO PUSH3 0x251C JUMPI PUSH1 0x0 DUP1 REVERT JUMPDEST POP GAS STATICCALL ISZERO DUP1 ISZERO PUSH3 0x2531 JUMPI RETURNDATASIZE PUSH1 0x0 DUP1 RETURNDATACOPY RETURNDATASIZE PUSH1 0x0 REVERT JUMPDEST POP POP POP POP PUSH1 0x40 MLOAD RETURNDATASIZE PUSH1 0x1F NOT PUSH1 0x1F DUP3 ADD AND DUP3 ADD DUP1 PUSH1 0x40 MSTORE POP DUP2 ADD SWAP1 PUSH3 0x2557 SWAP2 SWAP1 PUSH3 0x295D JUMP JUMPDEST SWAP2 POP PUSH1 0x0 DUP1 PUSH1 0x0 DUP7 PUSH1 0x1 PUSH1 0x1 PUSH1 0xA0 SHL SUB AND PUSH4 0x902F1AC PUSH1 0x40 MLOAD DUP2 PUSH4 0xFFFFFFFF AND PUSH1 0xE0 SHL DUP2 MSTORE PUSH1 0x4 ADD PUSH1 0x60 PUSH1 0x40 MLOAD DUP1 DUP4 SUB DUP2 DUP7 DUP1 EXTCODESIZE ISZERO DUP1 ISZERO PUSH3 0x2598 JUMPI PUSH1 0x0 DUP1 REVERT JUMPDEST POP GAS STATICCALL ISZERO DUP1 ISZERO PUSH3 0x25AD JUMPI RETURNDATASIZE PUSH1 0x0 DUP1 RETURNDATACOPY RETURNDATASIZE PUSH1 0x0 REVERT JUMPDEST POP POP POP POP PUSH1 0x40 MLOAD RETURNDATASIZE PUSH1 0x1F NOT PUSH1 0x1F DUP3 ADD AND DUP3 ADD DUP1 PUSH1 0x40 MSTORE POP DUP2 ADD SWAP1 PUSH3 0x25D3 SWAP2 SWAP1 PUSH3 0x2903 JUMP JUMPDEST SWAP3 POP SWAP3 POP SWAP3 POP DUP4 PUSH4 0xFFFFFFFF AND DUP2 PUSH4 0xFFFFFFFF AND EQ PUSH3 0x2654 JUMPI PUSH1 0x0 DUP2 DUP6 SUB SWAP1 POP DUP1 PUSH4 0xFFFFFFFF AND PUSH3 0x2612 DUP5 DUP7 PUSH3 0x2668 PUSH1 0x20 SHL PUSH3 0x370B OR PUSH1 0x20 SHR JUMP JUMPDEST PUSH1 0x0 ADD MLOAD PUSH1 0x1 PUSH1 0x1 PUSH1 0xE0 SHL SUB AND MUL DUP8 ADD SWAP7 POP DUP1 PUSH4 0xFFFFFFFF AND PUSH3 0x2642 DUP6 DUP6 PUSH3 0x2668 PUSH1 0x20 SHL PUSH3 0x370B OR PUSH1 0x20 SHR JUMP JUMPDEST MLOAD PUSH1 0x1 PUSH1 0x1 PUSH1 0xE0 SHL SUB AND MUL SWAP6 SWAP1 SWAP6 ADD SWAP5 POP JUMPDEST POP POP POP SWAP2 SWAP4 SWAP1 SWAP3 POP JUMP JUMPDEST PUSH4 0xFFFFFFFF TIMESTAMP AND SWAP1 JUMP JUMPDEST PUSH3 0x2672 PUSH3 0x2727 JUMP JUMPDEST PUSH1 0x0 DUP3 PUSH1 0x1 PUSH1 0x1 PUSH1 0x70 SHL SUB AND GT PUSH3 0x269E JUMPI PUSH1 0x40 MLOAD PUSH3 0x461BCD PUSH1 0xE5 SHL DUP2 MSTORE PUSH1 0x4 ADD PUSH3 0x5B SWAP1 PUSH3 0x2A25 JUMP JUMPDEST PUSH1 0x40 DUP1 MLOAD PUSH1 0x20 DUP2 ADD SWAP1 SWAP2 MSTORE DUP1 PUSH1 0x1 PUSH1 0x1 PUSH1 0x70 SHL SUB DUP5 AND PUSH1 0x1 PUSH1 0x70 SHL PUSH1 0x1 PUSH1 0xE0 SHL SUB PUSH1 0x70 DUP8 SWAP1 SHL AND DUP2 PUSH3 0x26CD JUMPI INVALID JUMPDEST DIV PUSH1 0x1 PUSH1 0x1 PUSH1 0xE0 SHL SUB AND DUP2 MSTORE POP SWAP1 POP SWAP3 SWAP2 POP POP JUMP JUMPDEST PUSH1 0x40 DUP1 MLOAD PUSH2 0x100 DUP2 ADD DUP3 MSTORE PUSH1 0x0 DUP1 DUP3 MSTORE PUSH1 0x20 DUP3 ADD DUP2 SWAP1 MSTORE SWAP2 DUP2 ADD DUP3 SWAP1 MSTORE PUSH1 0x60 DUP2 ADD DUP3 SWAP1 MSTORE SWAP1 PUSH1 0x80 DUP3 ADD SWAP1 DUP2 MSTORE PUSH1 0x0 PUSH1 0x20 DUP3 ADD DUP2 SWAP1 MSTORE PUSH1 0x40 DUP3 ADD DUP2 SWAP1 MSTORE PUSH1 0x60 SWAP1 SWAP2 ADD MSTORE SWAP1 JUMP JUMPDEST PUSH1 0x40 DUP1 MLOAD PUSH1 0x20 DUP2 ADD SWAP1 SWAP2 MSTORE PUSH1 0x0 DUP2 MSTORE SWAP1 JUMP JUMPDEST DUP1 MLOAD PUSH3 0x240A DUP2 PUSH3 0x2B04 JUMP JUMPDEST DUP1 MLOAD DUP1 ISZERO ISZERO DUP2 EQ PUSH3 0x240A JUMPI PUSH1 0x0 DUP1 REVERT JUMPDEST DUP1 MLOAD PUSH1 0x3 DUP2 LT PUSH3 0x240A JUMPI PUSH1 0x0 DUP1 REVERT JUMPDEST PUSH1 0x0 PUSH2 0x100 DUP1 DUP4 DUP6 SUB SLT ISZERO PUSH3 0x277B JUMPI DUP2 DUP3 REVERT JUMPDEST PUSH3 0x2786 DUP2 PUSH3 0x2ABD JUMP JUMPDEST SWAP2 POP POP DUP2 MLOAD PUSH3 0x2796 DUP2 PUSH3 0x2B04 JUMP JUMPDEST DUP2 MSTORE PUSH1 0x20 DUP3 ADD MLOAD PUSH3 0x27A8 DUP2 PUSH3 0x2B04 JUMP JUMPDEST DUP1 PUSH1 0x20 DUP4 ADD MSTORE POP PUSH1 0x40 DUP3 ADD MLOAD PUSH1 0x40 DUP3 ADD MSTORE PUSH1 0x60 DUP3 ADD MLOAD PUSH1 0x60 DUP3 ADD MSTORE PUSH3 0x27D2 DUP4 PUSH1 0x80 DUP5 ADD PUSH3 0x2757 JUMP JUMPDEST PUSH1 0x80 DUP3 ADD MSTORE PUSH1 0xA0 DUP3 ADD MLOAD PUSH1 0xA0 DUP3 ADD MSTORE PUSH3 0x27F0 DUP4 PUSH1 0xC0 DUP5 ADD PUSH3 0x2739 JUMP JUMPDEST PUSH1 0xC0 DUP3 ADD MSTORE PUSH3 0x2804 DUP4 PUSH1 0xE0 DUP5 ADD PUSH3 0x2746 JUMP JUMPDEST PUSH1 0xE0 DUP3 ADD MSTORE SWAP3 SWAP2 POP POP JUMP JUMPDEST PUSH1 0x0 DUP1 PUSH1 0x0 DUP1 PUSH1 0x0 PUSH1 0xA0 DUP7 DUP9 SUB SLT ISZERO PUSH3 0x2827 JUMPI DUP1 DUP2 REVERT JUMPDEST DUP6 MLOAD PUSH3 0x2834 DUP2 PUSH3 0x2B04 JUMP JUMPDEST DUP1 SWAP6 POP POP PUSH1 0x20 DUP1 DUP8 ADD MLOAD PUSH3 0x2849 DUP2 PUSH3 0x2B04 JUMP JUMPDEST PUSH1 0x40 DUP9 ADD MLOAD PUSH1 0x60 DUP10 ADD MLOAD PUSH1 0x80 DUP11 ADD MLOAD SWAP3 SWAP8 POP SWAP1 SWAP6 POP SWAP4 POP PUSH1 0x1 PUSH1 0x1 PUSH1 0x40 SHL SUB DUP2 GT ISZERO PUSH3 0x2874 JUMPI DUP3 DUP4 REVERT JUMPDEST DUP1 DUP9 ADD DUP10 PUSH1 0x1F DUP3 ADD SLT PUSH3 0x2886 JUMPI DUP4 DUP5 REVERT JUMPDEST DUP1 MLOAD SWAP2 POP PUSH3 0x289F PUSH3 0x2899 DUP4 PUSH3 0x2AE4 JUMP JUMPDEST PUSH3 0x2ABD JUMP JUMPDEST DUP3 DUP2 MSTORE DUP4 DUP2 ADD SWAP1 DUP3 DUP6 ADD PUSH2 0x100 DUP1 DUP7 MUL DUP6 ADD DUP8 ADD DUP15 LT ISZERO PUSH3 0x28BF JUMPI DUP8 DUP9 REVERT JUMPDEST DUP8 SWAP5 POP JUMPDEST DUP6 DUP6 LT ISZERO PUSH3 0x28EF JUMPI PUSH3 0x28D8 DUP15 DUP4 PUSH3 0x2767 JUMP JUMPDEST DUP5 MSTORE PUSH1 0x1 SWAP5 SWAP1 SWAP5 ADD SWAP4 SWAP3 DUP7 ADD SWAP3 SWAP1 DUP2 ADD SWAP1 PUSH3 0x28C3 JUMP JUMPDEST POP POP DUP1 SWAP6 POP POP POP POP POP POP SWAP3 SWAP6 POP SWAP3 SWAP6 SWAP1 SWAP4 POP JUMP JUMPDEST PUSH1 0x0 DUP1 PUSH1 0x0 PUSH1 0x60 DUP5 DUP7 SUB SLT ISZERO PUSH3 0x2918 JUMPI DUP3 DUP4 REVERT JUMPDEST DUP4 MLOAD PUSH3 0x2925 DUP2 PUSH3 0x2B1D JUMP JUMPDEST PUSH1 0x20 DUP6 ADD MLOAD SWAP1 SWAP4 POP PUSH3 0x2938 DUP2 PUSH3 0x2B1D JUMP JUMPDEST PUSH1 0x40 DUP6 ADD MLOAD SWAP1 SWAP3 POP PUSH4 0xFFFFFFFF DUP2 AND DUP2 EQ PUSH3 0x2952 JUMPI DUP2 DUP3 REVERT JUMPDEST DUP1 SWAP2 POP POP SWAP3 POP SWAP3 POP SWAP3 JUMP JUMPDEST PUSH1 0x0 PUSH1 0x20 DUP3 DUP5 SUB SLT ISZERO PUSH3 0x296F JUMPI DUP1 DUP2 REVERT JUMPDEST POP MLOAD SWAP2 SWAP1 POP JUMP JUMPDEST PUSH1 0x20 DUP1 DUP3 MSTORE PUSH1 0x22 SWAP1 DUP3 ADD MSTORE PUSH32 0x62617365556E6974206D7573742062652067726561746572207468616E207A65 PUSH1 0x40 DUP3 ADD MSTORE PUSH2 0x726F PUSH1 0xF0 SHL PUSH1 0x60 DUP3 ADD MSTORE PUSH1 0x80 ADD SWAP1 JUMP JUMPDEST PUSH1 0x20 DUP1 DUP3 MSTORE PUSH1 0x23 SWAP1 DUP3 ADD MSTORE PUSH32 0x7265706F7274656420707269636573206D757374206861766520616E20616E63 PUSH1 0x40 DUP3 ADD MSTORE PUSH3 0x3437B9 PUSH1 0xE9 SHL PUSH1 0x60 DUP3 ADD MSTORE PUSH1 0x80 ADD SWAP1 JUMP JUMPDEST PUSH1 0x20 DUP1 DUP3 MSTORE PUSH1 0x10 SWAP1 DUP3 ADD MSTORE PUSH16 0x746F6F206D616E7920636F6E66696773 PUSH1 0x80 SHL PUSH1 0x40 DUP3 ADD MSTORE PUSH1 0x60 ADD SWAP1 JUMP JUMPDEST PUSH1 0x20 DUP1 DUP3 MSTORE PUSH1 0x17 SWAP1 DUP3 ADD MSTORE PUSH32 0x4669786564506F696E743A204449565F42595F5A45524F000000000000000000 PUSH1 0x40 DUP3 ADD MSTORE PUSH1 0x60 ADD SWAP1 JUMP JUMPDEST PUSH1 0x20 DUP1 DUP3 MSTORE PUSH1 0x26 SWAP1 DUP3 ADD MSTORE PUSH32 0x6F6E6C79207265706F7274656420707269636573207574696C697A6520616E20 PUSH1 0x40 DUP3 ADD MSTORE PUSH6 0x30B731B437B9 PUSH1 0xD1 SHL PUSH1 0x60 DUP3 ADD MSTORE PUSH1 0x80 ADD SWAP1 JUMP JUMPDEST SWAP4 DUP5 MSTORE PUSH1 0x20 DUP5 ADD SWAP3 SWAP1 SWAP3 MSTORE PUSH1 0x40 DUP4 ADD MSTORE PUSH1 0x60 DUP3 ADD MSTORE PUSH1 0x80 ADD SWAP1 JUMP JUMPDEST PUSH1 0x40 MLOAD DUP2 DUP2 ADD PUSH1 0x1 PUSH1 0x1 PUSH1 0x40 SHL SUB DUP2 GT DUP3 DUP3 LT OR ISZERO PUSH3 0x2ADC JUMPI PUSH1 0x0 DUP1 REVERT JUMPDEST PUSH1 0x40 MSTORE SWAP2 SWAP1 POP JUMP JUMPDEST PUSH1 0x0 PUSH1 0x1 PUSH1 0x1 PUSH1 0x40 SHL SUB DUP3 GT ISZERO PUSH3 0x2AFA JUMPI DUP1 DUP2 REVERT JUMPDEST POP PUSH1 0x20 SWAP1 DUP2 MUL ADD SWAP1 JUMP JUMPDEST PUSH1 0x1 PUSH1 0x1 PUSH1 0xA0 SHL SUB DUP2 AND DUP2 EQ PUSH3 0x2B1A JUMPI PUSH1 0x0 DUP1 REVERT JUMPDEST POP JUMP JUMPDEST PUSH1 0x1 PUSH1 0x1 PUSH1 0x70 SHL SUB DUP2 AND DUP2 EQ PUSH3 0x2B1A JUMPI PUSH1 0x0 DUP1 REVERT JUMPDEST PUSH1 0x80 MLOAD PUSH1 0xA0 MLOAD PUSH1 0x60 SHR PUSH1 0xC0 MLOAD PUSH1 0x60 SHR PUSH1 0xE0 MLOAD PUSH1 0x60 SHR PUSH2 0x100 MLOAD PUSH1 0x60 SHR PUSH2 0x120 MLOAD PUSH1 0x60 SHR PUSH2 0x140 MLOAD PUSH1 0x60 SHR PUSH2 0x160 MLOAD PUSH1 0x60 SHR PUSH2 0x180 MLOAD PUSH1 0x60 SHR PUSH2 0x1A0 MLOAD PUSH1 0x60 SHR PUSH2 0x1C0 MLOAD PUSH1 0x60 SHR PUSH2 0x1E0 MLOAD PUSH1 0x60 SHR PUSH2 0x200 MLOAD PUSH1 0x60 SHR PUSH2 0x220 MLOAD PUSH1 0x60 SHR PUSH2 0x240 MLOAD PUSH1 0x60 SHR PUSH2 0x260 MLOAD PUSH1 0x60 SHR PUSH2 0x280 MLOAD PUSH1 0x60 SHR PUSH2 0x2A0 MLOAD PUSH1 0x60 SHR PUSH2 0x2C0 MLOAD PUSH1 0x60 SHR PUSH2 0x2E0 MLOAD PUSH1 0x60 SHR PUSH2 0x300 MLOAD PUSH1 0x60 SHR PUSH2 0x320 MLOAD PUSH1 0x60 SHR PUSH2 0x340 MLOAD PUSH1 0x60 SHR PUSH2 0x360 MLOAD PUSH1 0x60 SHR PUSH2 0x380 MLOAD PUSH1 0x60 SHR PUSH2 0x3A0 MLOAD PUSH1 0x60 SHR PUSH2 0x3C0 MLOAD PUSH1 0x60 SHR PUSH2 0x3E0 MLOAD PUSH1 0x60 SHR PUSH2 0x400 MLOAD PUSH1 0x60 SHR PUSH2 0x420 MLOAD PUSH1 0x60 SHR PUSH2 0x440 MLOAD PUSH1 0x60 SHR PUSH2 0x460 MLOAD PUSH1 0x60 SHR PUSH2 0x480 MLOAD PUSH1 0x60 SHR PUSH2 0x4A0 MLOAD PUSH1 0x60 SHR PUSH2 0x4C0 MLOAD PUSH1 0x60 SHR PUSH2 0x4E0 MLOAD PUSH1 0x60 SHR PUSH2 0x500 MLOAD PUSH1 0x60 SHR PUSH2 0x520 MLOAD PUSH1 0x60 SHR PUSH2 0x540 MLOAD PUSH1 0x60 SHR PUSH2 0x560 MLOAD PUSH1 0x60 SHR PUSH2 0x580 MLOAD PUSH1 0x60 SHR PUSH2 0x5A0 MLOAD PUSH1 0x60 SHR PUSH2 0x5C0 MLOAD PUSH1 0x60 SHR PUSH2 0x5E0 MLOAD PUSH1 0x60 SHR PUSH2 0x600 MLOAD PUSH1 0x60 SHR PUSH2 0x620 MLOAD PUSH1 0x60 SHR PUSH2 0x640 MLOAD PUSH1 0x60 SHR PUSH2 0x660 MLOAD PUSH1 0x60 SHR PUSH2 0x680 MLOAD PUSH1 0x60 SHR PUSH2 0x6A0 MLOAD PUSH1 0x60 SHR PUSH2 0x6C0 MLOAD PUSH1 0x60 SHR PUSH2 0x6E0 MLOAD PUSH1 0x60 SHR PUSH2 0x700 MLOAD PUSH1 0x60 SHR PUSH2 0x720 MLOAD PUSH1 0x60 SHR PUSH2 0x740 MLOAD PUSH1 0x60 SHR PUSH2 0x760 MLOAD PUSH1 0x60 SHR PUSH2 0x780 MLOAD PUSH1 0x60 SHR PUSH2 0x7A0 MLOAD PUSH1 0x60 SHR PUSH2 0x7C0 MLOAD PUSH1 0x60 SHR PUSH2 0x7E0 MLOAD PUSH1 0x60 SHR PUSH2 0x800 MLOAD PUSH1 0x60 SHR PUSH2 0x820 MLOAD PUSH2 0x840 MLOAD PUSH2 0x860 MLOAD PUSH2 0x880 MLOAD PUSH2 0x8A0 MLOAD PUSH2 0x8C0 MLOAD PUSH2 0x8E0 MLOAD PUSH2 0x900 MLOAD PUSH2 0x920 MLOAD PUSH2 0x940 MLOAD PUSH2 0x960 MLOAD PUSH2 0x980 MLOAD PUSH2 0x9A0 MLOAD PUSH2 0x9C0 MLOAD PUSH2 0x9E0 MLOAD PUSH2 0xA00 MLOAD PUSH2 0xA20 MLOAD PUSH2 0xA40 MLOAD PUSH2 0xA60 MLOAD PUSH2 0xA80 MLOAD PUSH2 0xAA0 MLOAD PUSH2 0xAC0 MLOAD PUSH2 0xAE0 MLOAD PUSH2 0xB00 MLOAD PUSH2 0xB20 MLOAD PUSH2 0xB40 MLOAD PUSH2 0xB60 MLOAD PUSH2 0xB80 MLOAD PUSH2 0xBA0 MLOAD PUSH2 0xBC0 MLOAD PUSH2 0xBE0 MLOAD PUSH2 0xC00 MLOAD PUSH2 0xC20 MLOAD PUSH2 0xC40 MLOAD PUSH2 0xC60 MLOAD PUSH2 0xC80 MLOAD PUSH2 0xCA0 MLOAD PUSH2 0xCC0 MLOAD PUSH2 0xCE0 MLOAD PUSH2 0xD00 MLOAD PUSH2 0xD20 MLOAD PUSH2 0xD40 MLOAD PUSH2 0xD60 MLOAD PUSH2 0xD80 MLOAD PUSH2 0xDA0 MLOAD PUSH2 0xDC0 MLOAD PUSH2 0xDE0 MLOAD PUSH2 0xE00 MLOAD PUSH2 0xE20 MLOAD PUSH2 0xE40 MLOAD PUSH2 0xE60 MLOAD PUSH2 0xE80 MLOAD PUSH2 0xEA0 MLOAD PUSH2 0xEC0 MLOAD PUSH2 0xEE0 MLOAD PUSH2 0xF00 MLOAD PUSH2 0xF20 MLOAD PUSH2 0xF40 MLOAD PUSH2 0xF60 MLOAD PUSH2 0xF80 MLOAD PUSH2 0xFA0 MLOAD PUSH1 0xF8 SHR PUSH2 0xFC0 MLOAD PUSH1 0xF8 SHR PUSH2 0xFE0 MLOAD PUSH1 0xF8 SHR PUSH2 0x1000 MLOAD PUSH1 0xF8 SHR PUSH2 0x1020 MLOAD PUSH1 0xF8 SHR PUSH2 0x1040 MLOAD PUSH1 0xF8 SHR PUSH2 0x1060 MLOAD PUSH1 0xF8 SHR PUSH2 0x1080 MLOAD PUSH1 0xF8 SHR PUSH2 0x10A0 MLOAD PUSH1 0xF8 SHR PUSH2 0x10C0 MLOAD PUSH1 0xF8 SHR PUSH2 0x10E0 MLOAD PUSH1 0xF8 SHR PUSH2 0x1100 MLOAD PUSH1 0xF8 SHR PUSH2 0x1120 MLOAD PUSH1 0xF8 SHR PUSH2 0x1140 MLOAD PUSH1 0xF8 SHR PUSH2 0x1160 MLOAD PUSH1 0xF8 SHR PUSH2 0x1180 MLOAD PUSH1 0xF8 SHR PUSH2 0x11A0 MLOAD PUSH1 0xF8 SHR PUSH2 0x11C0 MLOAD PUSH1 0xF8 SHR PUSH2 0x11E0 MLOAD PUSH1 0xF8 SHR PUSH2 0x1200 MLOAD PUSH1 0xF8 SHR PUSH2 0x1220 MLOAD PUSH1 0xF8 SHR PUSH2 0x1240 MLOAD PUSH1 0xF8 SHR PUSH2 0x1260 MLOAD PUSH1 0xF8 SHR PUSH2 0x1280 MLOAD PUSH1 0xF8 SHR PUSH2 0x12A0 MLOAD PUSH1 0xF8 SHR PUSH2 0x12C0 MLOAD PUSH1 0xF8 SHR PUSH2 0x12E0 MLOAD PUSH1 0xF8 SHR PUSH2 0x1300 MLOAD PUSH1 0xF8 SHR PUSH2 0x1320 MLOAD PUSH1 0xF8 SHR PUSH2 0x1340 MLOAD PUSH1 0xF8 SHR PUSH2 0x1360 MLOAD PUSH2 0x1380 MLOAD PUSH2 0x13A0 MLOAD PUSH2 0x13C0 MLOAD PUSH2 0x13E0 MLOAD PUSH2 0x1400 MLOAD PUSH2 0x1420 MLOAD PUSH2 0x1440 MLOAD PUSH2 0x1460 MLOAD PUSH2 0x1480 MLOAD PUSH2 0x14A0 MLOAD PUSH2 0x14C0 MLOAD PUSH2 0x14E0 MLOAD PUSH2 0x1500 MLOAD PUSH2 0x1520 MLOAD PUSH2 0x1540 MLOAD PUSH2 0x1560 MLOAD PUSH2 0x1580 MLOAD PUSH2 0x15A0 MLOAD PUSH2 0x15C0 MLOAD PUSH2 0x15E0 MLOAD PUSH2 0x1600 MLOAD PUSH2 0x1620 MLOAD PUSH2 0x1640 MLOAD PUSH2 0x1660 MLOAD PUSH2 0x1680 MLOAD PUSH2 0x16A0 MLOAD PUSH2 0x16C0 MLOAD PUSH2 0x16E0 MLOAD PUSH2 0x1700 MLOAD PUSH2 0x1720 MLOAD PUSH1 0x60 SHR PUSH2 0x1740 MLOAD PUSH1 0x60 SHR PUSH2 0x1760 MLOAD PUSH1 0x60 SHR PUSH2 0x1780 MLOAD PUSH1 0x60 SHR PUSH2 0x17A0 MLOAD PUSH1 0x60 SHR PUSH2 0x17C0 MLOAD PUSH1 0x60 SHR PUSH2 0x17E0 MLOAD PUSH1 0x60 SHR PUSH2 0x1800 MLOAD PUSH1 0x60 SHR PUSH2 0x1820 MLOAD PUSH1 0x60 SHR PUSH2 0x1840 MLOAD PUSH1 0x60 SHR PUSH2 0x1860 MLOAD PUSH1 0x60 SHR PUSH2 0x1880 MLOAD PUSH1 0x60 SHR PUSH2 0x18A0 MLOAD PUSH1 0x60 SHR PUSH2 0x18C0 MLOAD PUSH1 0x60 SHR PUSH2 0x18E0 MLOAD PUSH1 0x60 SHR PUSH2 0x1900 MLOAD PUSH1 0x60 SHR PUSH2 0x1920 MLOAD PUSH1 0x60 SHR PUSH2 0x1940 MLOAD PUSH1 0x60 SHR PUSH2 0x1960 MLOAD PUSH1 0x60 SHR PUSH2 0x1980 MLOAD PUSH1 0x60 SHR PUSH2 0x19A0 MLOAD PUSH1 0x60 SHR PUSH2 0x19C0 MLOAD PUSH1 0x60 SHR PUSH2 0x19E0 MLOAD PUSH1 0x60 SHR PUSH2 0x1A00 MLOAD PUSH1 0x60 SHR PUSH2 0x1A20 MLOAD PUSH1 0x60 SHR PUSH2 0x1A40 MLOAD PUSH1 0x60 SHR PUSH2 0x1A60 MLOAD PUSH1 0x60 SHR PUSH2 0x1A80 MLOAD PUSH1 0x60 SHR PUSH2 0x1AA0 MLOAD PUSH1 0x60 SHR PUSH2 0x1AC0 MLOAD PUSH1 0x60 SHR PUSH2 0x1AE0 MLOAD PUSH1 0xF8 SHR PUSH2 0x1B00 MLOAD PUSH1 0xF8 SHR PUSH2 0x1B20 MLOAD PUSH1 0xF8 SHR PUSH2 0x1B40 MLOAD PUSH1 0xF8 SHR PUSH2 0x1B60 MLOAD PUSH1 0xF8 SHR PUSH2 0x1B80 MLOAD PUSH1 0xF8 SHR PUSH2 0x1BA0 MLOAD PUSH1 0xF8 SHR PUSH2 0x1BC0 MLOAD PUSH1 0xF8 SHR PUSH2 0x1BE0 MLOAD PUSH1 0xF8 SHR PUSH2 0x1C00 MLOAD PUSH1 0xF8 SHR PUSH2 0x1C20 MLOAD PUSH1 0xF8 SHR PUSH2 0x1C40 MLOAD PUSH1 0xF8 SHR PUSH2 0x1C60 MLOAD PUSH1 0xF8 SHR PUSH2 0x1C80 MLOAD PUSH1 0xF8 SHR PUSH2 0x1CA0 MLOAD PUSH1 0xF8 SHR PUSH2 0x1CC0 MLOAD PUSH1 0xF8 SHR PUSH2 0x1CE0 MLOAD PUSH1 0xF8 SHR PUSH2 0x1D00 MLOAD PUSH1 0xF8 SHR PUSH2 0x1D20 MLOAD PUSH1 0xF8 SHR PUSH2 0x1D40 MLOAD PUSH1 0xF8 SHR PUSH2 0x1D60 MLOAD PUSH1 0xF8 SHR PUSH2 0x1D80 MLOAD PUSH1 0xF8 SHR PUSH2 0x1DA0 MLOAD PUSH1 0xF8 SHR PUSH2 0x1DC0 MLOAD PUSH1 0xF8 SHR PUSH2 0x1DE0 MLOAD PUSH1 0xF8 SHR PUSH2 0x1E00 MLOAD PUSH1 0xF8 SHR PUSH2 0x1E20 MLOAD PUSH1 0xF8 SHR PUSH2 0x1E40 MLOAD PUSH1 0xF8 SHR PUSH2 0x1E60 MLOAD PUSH1 0xF8 SHR PUSH2 0x1E80 MLOAD PUSH1 0xF8 SHR PUSH2 0x1EA0 MLOAD PUSH1 0x60 SHR PUSH2 0x1EC0 MLOAD PUSH1 0x60 SHR PUSH2 0x1EE0 MLOAD PUSH2 0x1F00 MLOAD PUSH2 0x1F20 MLOAD PUSH2 0x5D9D PUSH3 0x3894 PUSH1 0x0 CODECOPY DUP1 PUSH2 0x3259 MSTORE DUP1 PUSH2 0x5286 MSTORE POP DUP1 PUSH2 0x320C MSTORE DUP1 PUSH2 0x51FF MSTORE POP DUP1 PUSH2 0x3A3 MSTORE DUP1 PUSH2 0x51D4 MSTORE POP DUP1 PUSH2 0x2FE MSTORE DUP1 PUSH2 0x3125 MSTORE DUP1 PUSH2 0x31B4 MSTORE DUP1 PUSH2 0x45D5 MSTORE POP DUP1 PUSH2 0x3230 MSTORE DUP1 PUSH2 0x32C0 MSTORE DUP1 PUSH2 0x45A6 MSTORE POP DUP1 PUSH2 0x3076 MSTORE POP DUP1 PUSH2 0x2F04 MSTORE POP DUP1 PUSH2 0x2D92 MSTORE POP DUP1 PUSH2 0x2C20 MSTORE POP DUP1 PUSH2 0x2AAE MSTORE POP DUP1 PUSH2 0x293C MSTORE POP DUP1 PUSH2 0x27CA MSTORE POP DUP1 PUSH2 0x2658 MSTORE POP DUP1 PUSH2 0x24E6 MSTORE POP DUP1 PUSH2 0x2374 MSTORE POP DUP1 PUSH2 0x2202 MSTORE POP DUP1 PUSH2 0x2090 MSTORE POP DUP1 PUSH2 0x1F1E MSTORE POP DUP1 PUSH2 0x1DAC MSTORE POP DUP1 PUSH2 0x1C3A MSTORE POP DUP1 PUSH2 0x1AC8 MSTORE POP DUP1 PUSH2 0x1956 MSTORE POP DUP1 PUSH2 0x17E4 MSTORE POP DUP1 PUSH2 0x1672 MSTORE POP DUP1 PUSH2 0x1500 MSTORE POP DUP1 PUSH2 0x138E MSTORE POP DUP1 PUSH2 0x121C MSTORE POP DUP1 PUSH2 0x10AA MSTORE POP DUP1 PUSH2 0xF38 MSTORE POP DUP1 PUSH2 0xDC6 MSTORE POP DUP1 PUSH2 0xC54 MSTORE POP DUP1 PUSH2 0xAE2 MSTORE POP DUP1 PUSH2 0x970 MSTORE POP DUP1 PUSH2 0x7FE MSTORE POP DUP1 PUSH2 0x68C MSTORE POP DUP1 PUSH2 0x3047 MSTORE POP DUP1 PUSH2 0x2ED5 MSTORE POP DUP1 PUSH2 0x2D63 MSTORE POP DUP1 PUSH2 0x2BF1 MSTORE POP DUP1 PUSH2 0x2A7F MSTORE POP DUP1 PUSH2 0x290D MSTORE POP DUP1 PUSH2 0x279B MSTORE POP DUP1 PUSH2 0x2629 MSTORE POP DUP1 PUSH2 0x24B7 MSTORE POP DUP1 PUSH2 0x2345 MSTORE POP DUP1 PUSH2 0x21D3 MSTORE POP DUP1 PUSH2 0x2061 MSTORE POP DUP1 PUSH2 0x1EEF MSTORE POP DUP1 PUSH2 0x1D7D MSTORE POP DUP1 PUSH2 0x1C0B MSTORE POP DUP1 PUSH2 0x1A99 MSTORE POP DUP1 PUSH2 0x1927 MSTORE POP DUP1 PUSH2 0x17B5 MSTORE POP DUP1 PUSH2 0x1643 MSTORE POP DUP1 PUSH2 0x14D1 MSTORE POP DUP1 PUSH2 0x135F MSTORE POP DUP1 PUSH2 0x11ED MSTORE POP DUP1 PUSH2 0x107B MSTORE POP DUP1 PUSH2 0xF09 MSTORE POP DUP1 PUSH2 0xD97 MSTORE POP DUP1 PUSH2 0xC25 MSTORE POP DUP1 PUSH2 0xAB3 MSTORE POP DUP1 PUSH2 0x941 MSTORE POP DUP1 PUSH2 0x7CF MSTORE POP DUP1 PUSH2 0x65D MSTORE POP DUP1 PUSH2 0x3021 MSTORE POP DUP1 PUSH2 0x2EAF MSTORE POP DUP1 PUSH2 0x2D3D MSTORE POP DUP1 PUSH2 0x2BCB MSTORE POP DUP1 PUSH2 0x2A59 MSTORE POP DUP1 PUSH2 0x28E7 MSTORE POP DUP1 PUSH2 0x2775 MSTORE POP DUP1 PUSH2 0x2603 MSTORE POP DUP1 PUSH2 0x2491 MSTORE POP DUP1 PUSH2 0x231F MSTORE POP DUP1 PUSH2 0x21AD MSTORE POP DUP1 PUSH2 0x203B MSTORE POP DUP1 PUSH2 0x1EC9 MSTORE POP DUP1 PUSH2 0x1D57 MSTORE POP DUP1 PUSH2 0x1BE5 MSTORE POP DUP1 PUSH2 0x1A73 MSTORE POP DUP1 PUSH2 0x1901 MSTORE POP DUP1 PUSH2 0x178F MSTORE POP DUP1 PUSH2 0x161D MSTORE POP DUP1 PUSH2 0x14AB MSTORE POP DUP1 PUSH2 0x1339 MSTORE POP DUP1 PUSH2 0x11C7 MSTORE POP DUP1 PUSH2 0x1055 MSTORE POP DUP1 PUSH2 0xEE3 MSTORE POP DUP1 PUSH2 0xD71 MSTORE POP DUP1 PUSH2 0xBFF MSTORE POP DUP1 PUSH2 0xA8D MSTORE POP DUP1 PUSH2 0x91B MSTORE POP DUP1 PUSH2 0x7A9 MSTORE POP DUP1 PUSH2 0x637 MSTORE POP DUP1 PUSH2 0x2FF0 MSTORE POP DUP1 PUSH2 0x2E7E MSTORE POP DUP1 PUSH2 0x2D0C MSTORE POP DUP1 PUSH2 0x2B9A MSTORE POP DUP1 PUSH2 0x2A28 MSTORE POP DUP1 PUSH2 0x28B6 MSTORE POP DUP1 PUSH2 0x2744 MSTORE POP DUP1 PUSH2 0x25D2 MSTORE POP DUP1 PUSH2 0x2460 MSTORE POP DUP1 PUSH2 0x22EE MSTORE POP DUP1 PUSH2 0x217C MSTORE POP DUP1 PUSH2 0x200A MSTORE POP DUP1 PUSH2 0x1E98 MSTORE POP DUP1 PUSH2 0x1D26 MSTORE POP DUP1 PUSH2 0x1BB4 MSTORE POP DUP1 PUSH2 0x1A42 MSTORE POP DUP1 PUSH2 0x18D0 MSTORE POP DUP1 PUSH2 0x175E MSTORE POP DUP1 PUSH2 0x15EC MSTORE POP DUP1 PUSH2 0x147A MSTORE POP DUP1 PUSH2 0x1308 MSTORE POP DUP1 PUSH2 0x1196 MSTORE POP DUP1 PUSH2 0x1024 MSTORE POP DUP1 PUSH2 0xEB2 MSTORE POP DUP1 PUSH2 0xD40 MSTORE POP DUP1 PUSH2 0xBCE MSTORE POP DUP1 PUSH2 0xA5C MSTORE POP DUP1 PUSH2 0x8EA MSTORE POP DUP1 PUSH2 0x778 MSTORE POP DUP1 PUSH2 0x606 MSTORE POP DUP1 PUSH2 0x2FCA MSTORE POP DUP1 PUSH2 0x2E58 MSTORE POP DUP1 PUSH2 0x2CE6 MSTORE POP DUP1 PUSH2 0x2B74 MSTORE POP DUP1 PUSH2 0x2A02 MSTORE POP DUP1 PUSH2 0x2890 MSTORE POP DUP1 PUSH2 0x271E MSTORE POP DUP1 PUSH2 0x25AC MSTORE POP DUP1 PUSH2 0x243A MSTORE POP DUP1 PUSH2 0x22C8 MSTORE POP DUP1 PUSH2 0x2156 MSTORE POP DUP1 PUSH2 0x1FE4 MSTORE POP DUP1 PUSH2 0x1E72 MSTORE POP DUP1 PUSH2 0x1D00 MSTORE POP DUP1 PUSH2 0x1B8E MSTORE POP DUP1 PUSH2 0x1A1C MSTORE POP DUP1 PUSH2 0x18AA MSTORE POP DUP1 PUSH2 0x1738 MSTORE POP DUP1 PUSH2 0x15C6 MSTORE POP DUP1 PUSH2 0x1454 MSTORE POP DUP1 PUSH2 0x12E2 MSTORE POP DUP1 PUSH2 0x1170 MSTORE POP DUP1 PUSH2 0xFFE MSTORE POP DUP1 PUSH2 0xE8C MSTORE POP DUP1 PUSH2 0xD1A MSTORE POP DUP1 PUSH2 0xBA8 MSTORE POP DUP1 PUSH2 0xA36 MSTORE POP DUP1 PUSH2 0x8C4 MSTORE POP DUP1 PUSH2 0x752 MSTORE POP DUP1 PUSH2 0x5E0 MSTORE POP DUP1 PUSH2 0x2FA4 MSTORE DUP1 PUSH2 0x3CFA MSTORE POP DUP1 PUSH2 0x2E32 MSTORE DUP1 PUSH2 0x3CCA MSTORE POP DUP1 PUSH2 0x2CC0 MSTORE DUP1 PUSH2 0x3C9A MSTORE POP DUP1 PUSH2 0x2B4E MSTORE DUP1 PUSH2 0x3C6A MSTORE POP DUP1 PUSH2 0x29DC MSTORE DUP1 PUSH2 0x3C3A MSTORE POP DUP1 PUSH2 0x286A MSTORE DUP1 PUSH2 0x3C0A MSTORE POP DUP1 PUSH2 0x26F8 MSTORE DUP1 PUSH2 0x3BDA MSTORE POP DUP1 PUSH2 0x2586 MSTORE DUP1 PUSH2 0x3BAA MSTORE POP DUP1 PUSH2 0x2414 MSTORE DUP1 PUSH2 0x3B7A MSTORE POP DUP1 PUSH2 0x22A2 MSTORE DUP1 PUSH2 0x3B4A MSTORE POP DUP1 PUSH2 0x2130 MSTORE DUP1 PUSH2 0x3B1A MSTORE POP DUP1 PUSH2 0x1FBE MSTORE DUP1 PUSH2 0x3AEA MSTORE POP DUP1 PUSH2 0x1E4C MSTORE DUP1 PUSH2 0x3ABA MSTORE POP DUP1 PUSH2 0x1CDA MSTORE DUP1 PUSH2 0x3A8A MSTORE POP DUP1 PUSH2 0x1B68 MSTORE DUP1 PUSH2 0x3A5A MSTORE POP DUP1 PUSH2 0x19F6 MSTORE DUP1 PUSH2 0x3A2A MSTORE POP DUP1 PUSH2 0x1884 MSTORE DUP1 PUSH2 0x39FA MSTORE POP DUP1 PUSH2 0x1712 MSTORE DUP1 PUSH2 0x39CA MSTORE POP DUP1 PUSH2 0x15A0 MSTORE DUP1 PUSH2 0x399A MSTORE POP DUP1 PUSH2 0x142E MSTORE DUP1 PUSH2 0x396A MSTORE POP DUP1 PUSH2 0x12BC MSTORE DUP1 PUSH2 0x393A MSTORE POP DUP1 PUSH2 0x114A MSTORE DUP1 PUSH2 0x390A MSTORE POP DUP1 PUSH2 0xFD8 MSTORE DUP1 PUSH2 0x38DA MSTORE POP DUP1 PUSH2 0xE66 MSTORE DUP1 PUSH2 0x38AA MSTORE POP DUP1 PUSH2 0xCF4 MSTORE DUP1 PUSH2 0x387A MSTORE POP DUP1 PUSH2 0xB82 MSTORE DUP1 PUSH2 0x384A MSTORE POP DUP1 PUSH2 0xA10 MSTORE DUP1 PUSH2 0x381A MSTORE POP DUP1 PUSH2 0x89E MSTORE DUP1 PUSH2 0x37EA MSTORE POP DUP1 PUSH2 0x72C MSTORE DUP1 PUSH2 0x37BA MSTORE POP DUP1 PUSH2 0x5BA MSTORE DUP1 PUSH2 0x378A MSTORE POP DUP1 PUSH2 0x2F75 MSTORE DUP1 PUSH2 0x44AF MSTORE POP DUP1 PUSH2 0x2E03 MSTORE DUP1 PUSH2 0x446D MSTORE POP DUP1 PUSH2 0x2C91 MSTORE DUP1 PUSH2 0x442B MSTORE POP DUP1 PUSH2 0x2B1F MSTORE DUP1 PUSH2 0x43E9 MSTORE POP DUP1 PUSH2 0x29AD MSTORE DUP1 PUSH2 0x43A7 MSTORE POP DUP1 PUSH2 0x283B MSTORE DUP1 PUSH2 0x4365 MSTORE POP DUP1 PUSH2 0x26C9 MSTORE DUP1 PUSH2 0x4323 MSTORE POP DUP1 PUSH2 0x2557 MSTORE DUP1 PUSH2 0x42E1 MSTORE POP DUP1 PUSH2 0x23E5 MSTORE DUP1 PUSH2 0x429F MSTORE POP DUP1 PUSH2 0x2273 MSTORE DUP1 PUSH2 0x425D MSTORE POP DUP1 PUSH2 0x2101 MSTORE DUP1 PUSH2 0x421B MSTORE POP DUP1 PUSH2 0x1F8F MSTORE DUP1 PUSH2 0x41D9 MSTORE POP DUP1 PUSH2 0x1E1D MSTORE DUP1 PUSH2 0x4197 MSTORE POP DUP1 PUSH2 0x1CAB MSTORE DUP1 PUSH2 0x4155 MSTORE POP DUP1 PUSH2 0x1B39 MSTORE DUP1 PUSH2 0x4113 MSTORE POP DUP1 PUSH2 0x19C7 MSTORE DUP1 PUSH2 0x40D1 MSTORE POP DUP1 PUSH2 0x1855 MSTORE DUP1 PUSH2 0x408F MSTORE POP DUP1 PUSH2 0x16E3 MSTORE DUP1 PUSH2 0x404D MSTORE POP DUP1 PUSH2 0x1571 MSTORE DUP1 PUSH2 0x400B MSTORE POP DUP1 PUSH2 0x13FF MSTORE DUP1 PUSH2 0x3FC9 MSTORE POP DUP1 PUSH2 0x128D MSTORE DUP1 PUSH2 0x3F87 MSTORE POP DUP1 PUSH2 0x111B MSTORE DUP1 PUSH2 0x3F45 MSTORE POP DUP1 PUSH2 0xFA9 MSTORE DUP1 PUSH2 0x3F03 MSTORE POP DUP1 PUSH2 0xE37 MSTORE DUP1 PUSH2 0x3EC1 MSTORE POP DUP1 PUSH2 0xCC5 MSTORE DUP1 PUSH2 0x3E7F MSTORE POP DUP1 PUSH2 0xB53 MSTORE DUP1 PUSH2 0x3E3D MSTORE POP DUP1 PUSH2 0x9E1 MSTORE DUP1 PUSH2 0x3DFB MSTORE POP DUP1 PUSH2 0x86F MSTORE DUP1 PUSH2 0x3DB9 MSTORE POP DUP1 PUSH2 0x6FD MSTORE DUP1 PUSH2 0x3D77 MSTORE POP DUP1 PUSH2 0x58B MSTORE DUP1 PUSH2 0x3D35 MSTORE POP DUP1 PUSH2 0x2F46 MSTORE DUP1 PUSH2 0x4F20 MSTORE POP DUP1 PUSH2 0x2DD4 MSTORE DUP1 PUSH2 0x4EDE MSTORE POP DUP1 PUSH2 0x2C62 MSTORE DUP1 PUSH2 0x4E9C MSTORE POP DUP1 PUSH2 0x2AF0 MSTORE DUP1 PUSH2 0x4E5A MSTORE POP DUP1 PUSH2 0x297E MSTORE DUP1 PUSH2 0x4E18 MSTORE POP DUP1 PUSH2 0x280C MSTORE DUP1 PUSH2 0x4DD6 MSTORE POP DUP1 PUSH2 0x269A MSTORE DUP1 PUSH2 0x4D94 MSTORE POP DUP1 PUSH2 0x2528 MSTORE DUP1 PUSH2 0x4D52 MSTORE POP DUP1 PUSH2 0x23B6 MSTORE DUP1 PUSH2 0x4D10 MSTORE POP DUP1 PUSH2 0x2244 MSTORE DUP1 PUSH2 0x4CCE MSTORE POP DUP1 PUSH2 0x20D2 MSTORE DUP1 PUSH2 0x4C8C MSTORE POP DUP1 PUSH2 0x1F60 MSTORE DUP1 PUSH2 0x4C4A MSTORE POP DUP1 PUSH2 0x1DEE MSTORE DUP1 PUSH2 0x4C08 MSTORE POP DUP1 PUSH2 0x1C7C MSTORE DUP1 PUSH2 0x4BC6 MSTORE POP DUP1 PUSH2 0x1B0A MSTORE DUP1 PUSH2 0x4B84 MSTORE POP DUP1 PUSH2 0x1998 MSTORE DUP1 PUSH2 0x4B42 MSTORE POP DUP1 PUSH2 0x1826 MSTORE DUP1 PUSH2 0x4B00 MSTORE POP DUP1 PUSH2 0x16B4 MSTORE DUP1 PUSH2 0x4ABE MSTORE POP DUP1 PUSH2 0x1542 MSTORE DUP1 PUSH2 0x4A7C MSTORE POP DUP1 PUSH2 0x13D0 MSTORE DUP1 PUSH2 0x4A3A MSTORE POP DUP1 PUSH2 0x125E MSTORE DUP1 PUSH2 0x49F8 MSTORE POP DUP1 PUSH2 0x10EC MSTORE DUP1 PUSH2 0x49B6 MSTORE POP DUP1 PUSH2 0xF7A MSTORE DUP1 PUSH2 0x4974 MSTORE POP DUP1 PUSH2 0xE08 MSTORE DUP1 PUSH2 0x4932 MSTORE POP DUP1 PUSH2 0xC96 MSTORE DUP1 PUSH2 0x48F0 MSTORE POP DUP1 PUSH2 0xB24 MSTORE DUP1 PUSH2 0x48AE MSTORE POP DUP1 PUSH2 0x9B2 MSTORE DUP1 PUSH2 0x486C MSTORE POP DUP1 PUSH2 0x840 MSTORE DUP1 PUSH2 0x482A MSTORE POP DUP1 PUSH2 0x6CE MSTORE DUP1 PUSH2 0x47E8 MSTORE POP DUP1 PUSH2 0x55C MSTORE DUP1 PUSH2 0x47A6 MSTORE POP DUP1 PUSH2 0x50C MSTORE DUP1 PUSH2 0x31E8 MSTORE POP PUSH2 0x5D9D PUSH1 0x0 RETURN INVALID PUSH1 0x80 PUSH1 0x40 MSTORE CALLVALUE DUP1 ISZERO PUSH2 0x10 JUMPI PUSH1 0x0 DUP1 REVERT JUMPDEST POP PUSH1 0x4 CALLDATASIZE LT PUSH2 0x158 JUMPI PUSH1 0x0 CALLDATALOAD PUSH1 0xE0 SHR DUP1 PUSH4 0x8ABA91B4 GT PUSH2 0xC3 JUMPI DUP1 PUSH4 0xE9206D78 GT PUSH2 0x7C JUMPI DUP1 PUSH4 0xE9206D78 EQ PUSH2 0x295 JUMPI DUP1 PUSH4 0xEAA1C2CA EQ PUSH2 0x29D JUMPI DUP1 PUSH4 0xECC1E984 EQ PUSH2 0x2B0 JUMPI DUP1 PUSH4 0xEEA85ECB EQ PUSH2 0x2C3 JUMPI DUP1 PUSH4 0xFC57D4DF EQ PUSH2 0x2D6 JUMPI DUP1 PUSH4 0xFE2C6198 EQ PUSH2 0x2E9 JUMPI PUSH2 0x158 JUMP JUMPDEST DUP1 PUSH4 0x8ABA91B4 EQ PUSH2 0x260 JUMPI DUP1 PUSH4 0x8E499BCF EQ PUSH2 0x275 JUMPI DUP1 PUSH4 0x92B84357 EQ PUSH2 0x27D JUMPI DUP1 PUSH4 0xD1B353B4 EQ PUSH2 0x245 JUMPI DUP1 PUSH4 0xE61A5FE4 EQ PUSH2 0x285 JUMPI DUP1 PUSH4 0xE8315742 EQ PUSH2 0x28D JUMPI PUSH2 0x158 JUMP JUMPDEST DUP1 PUSH4 0x482A6193 GT PUSH2 0x115 JUMPI DUP1 PUSH4 0x482A6193 EQ PUSH2 0x1F7 JUMPI DUP1 PUSH4 0x4DA21942 EQ PUSH2 0x20A JUMPI DUP1 PUSH4 0x60846BC6 EQ PUSH2 0x21D JUMPI DUP1 PUSH4 0x651ED788 EQ PUSH2 0x230 JUMPI DUP1 PUSH4 0x69AA3AC6 EQ PUSH2 0x245 JUMPI DUP1 PUSH4 0x8A003888 EQ PUSH2 0x24D JUMPI PUSH2 0x158 JUMP JUMPDEST DUP1 PUSH4 0x10EC441 EQ PUSH2 0x15D JUMPI DUP1 PUSH4 0x6981C91 EQ PUSH2 0x17B JUMPI DUP1 PUSH4 0x1A125204 EQ PUSH2 0x19B JUMPI DUP1 PUSH4 0x24105209 EQ PUSH2 0x1BB JUMPI DUP1 PUSH4 0x276C2CBA EQ PUSH2 0x1C3 JUMPI DUP1 PUSH4 0x37C0E12D EQ PUSH2 0x1D6 JUMPI JUMPDEST PUSH1 0x0 DUP1 REVERT JUMPDEST PUSH2 0x165 PUSH2 0x2FC JUMP JUMPDEST PUSH1 0x40 MLOAD PUSH2 0x172 SWAP2 SWAP1 PUSH2 0x588C JUMP JUMPDEST PUSH1 0x40 MLOAD DUP1 SWAP2 SUB SWAP1 RETURN JUMPDEST PUSH2 0x18E PUSH2 0x189 CALLDATASIZE PUSH1 0x4 PUSH2 0x566E JUMP JUMPDEST PUSH2 0x320 JUMP JUMPDEST PUSH1 0x40 MLOAD PUSH2 0x172 SWAP2 SWAP1 PUSH2 0x58CF JUMP JUMPDEST PUSH2 0x1AE PUSH2 0x1A9 CALLDATASIZE PUSH1 0x4 PUSH2 0x55B8 JUMP JUMPDEST PUSH2 0x351 JUMP JUMPDEST PUSH1 0x40 MLOAD PUSH2 0x172 SWAP2 SWAP1 PUSH2 0x5BBE JUMP JUMPDEST PUSH2 0x18E PUSH2 0x3A1 JUMP JUMPDEST PUSH2 0x1AE PUSH2 0x1D1 CALLDATASIZE PUSH1 0x4 PUSH2 0x566E JUMP JUMPDEST PUSH2 0x3C5 JUMP JUMPDEST PUSH2 0x1E9 PUSH2 0x1E4 CALLDATASIZE PUSH1 0x4 PUSH2 0x55B8 JUMP JUMPDEST PUSH2 0x402 JUMP JUMPDEST PUSH1 0x40 MLOAD PUSH2 0x172 SWAP3 SWAP2 SWAP1 PUSH2 0x5C39 JUMP JUMPDEST PUSH2 0x165 PUSH2 0x205 CALLDATASIZE PUSH1 0x4 PUSH2 0x560D JUMP JUMPDEST PUSH2 0x41B JUMP JUMPDEST PUSH2 0x1AE PUSH2 0x218 CALLDATASIZE PUSH1 0x4 PUSH2 0x54EA JUMP JUMPDEST PUSH2 0x4C8 JUMP JUMPDEST PUSH2 0x18E PUSH2 0x22B CALLDATASIZE PUSH1 0x4 PUSH2 0x55B8 JUMP JUMPDEST PUSH2 0x4DB JUMP JUMPDEST PUSH2 0x238 PUSH2 0x4ED JUMP JUMPDEST PUSH1 0x40 MLOAD PUSH2 0x172 SWAP2 SWAP1 PUSH2 0x58C4 JUMP JUMPDEST PUSH2 0x18E PUSH2 0x4F6 JUMP JUMPDEST PUSH2 0x1AE PUSH2 0x25B CALLDATASIZE PUSH1 0x4 PUSH2 0x55B8 JUMP JUMPDEST PUSH2 0x502 JUMP JUMPDEST PUSH2 0x273 PUSH2 0x26E CALLDATASIZE PUSH1 0x4 PUSH2 0x560D JUMP JUMPDEST PUSH2 0x30A1 JUMP JUMPDEST STOP JUMPDEST PUSH2 0x18E PUSH2 0x31E6 JUMP JUMPDEST PUSH2 0x18E PUSH2 0x320A JUMP JUMPDEST PUSH2 0x165 PUSH2 0x322E JUMP JUMPDEST PUSH2 0x18E PUSH2 0x3252 JUMP JUMPDEST PUSH2 0x18E PUSH2 0x3257 JUMP JUMPDEST PUSH2 0x1E9 PUSH2 0x2AB CALLDATASIZE PUSH1 0x4 PUSH2 0x55B8 JUMP JUMPDEST PUSH2 0x327B JUMP JUMPDEST PUSH2 0x273 PUSH2 0x2BE CALLDATASIZE PUSH1 0x4 PUSH2 0x5522 JUMP JUMPDEST PUSH2 0x3294 JUMP JUMPDEST PUSH2 0x1AE PUSH2 0x2D1 CALLDATASIZE PUSH1 0x4 PUSH2 0x54EA JUMP JUMPDEST PUSH2 0x342E JUMP JUMPDEST PUSH2 0x18E PUSH2 0x2E4 CALLDATASIZE PUSH1 0x4 PUSH2 0x54EA JUMP JUMPDEST PUSH2 0x34D0 JUMP JUMPDEST PUSH2 0x18E PUSH2 0x2F7 CALLDATASIZE PUSH1 0x4 PUSH2 0x566E JUMP JUMPDEST PUSH2 0x3518 JUMP JUMPDEST PUSH32 0x0 DUP2 JUMP JUMPDEST PUSH1 0x0 DUP2 PUSH1 0x40 MLOAD PUSH1 0x20 ADD PUSH2 0x333 SWAP2 SWAP1 PUSH2 0x581E JUMP JUMPDEST PUSH1 0x40 MLOAD PUSH1 0x20 DUP2 DUP4 SUB SUB DUP2 MSTORE SWAP1 PUSH1 0x40 MSTORE DUP1 MLOAD SWAP1 PUSH1 0x20 ADD KECCAK256 SWAP1 POP JUMPDEST SWAP2 SWAP1 POP JUMP JUMPDEST PUSH2 0x359 PUSH2 0x5390 JUMP JUMPDEST PUSH1 0x0 PUSH2 0x364 DUP4 PUSH2 0x3786 JUMP JUMPDEST SWAP1 POP PUSH1 0x0 NOT DUP2 EQ PUSH2 0x380 JUMPI PUSH2 0x378 DUP2 PUSH2 0x502 JUMP JUMPDEST SWAP2 POP POP PUSH2 0x34C JUMP JUMPDEST PUSH1 0x40 MLOAD PUSH3 0x461BCD PUSH1 0xE5 SHL DUP2 MSTORE PUSH1 0x4 ADD PUSH2 0x398 SWAP1 PUSH2 0x59D5 JUMP JUMPDEST PUSH1 0x40 MLOAD DUP1 SWAP2 SUB SWAP1 REVERT JUMPDEST PUSH32 0x0 DUP2 JUMP JUMPDEST PUSH2 0x3CD PUSH2 0x5390 JUMP JUMPDEST PUSH2 0x3FC DUP3 PUSH1 0x40 MLOAD PUSH1 0x20 ADD PUSH2 0x3E1 SWAP2 SWAP1 PUSH2 0x581E JUMP JUMPDEST PUSH1 0x40 MLOAD PUSH1 0x20 DUP2 DUP4 SUB SUB DUP2 MSTORE SWAP1 PUSH1 0x40 MSTORE DUP1 MLOAD SWAP1 PUSH1 0x20 ADD KECCAK256 PUSH2 0x351 JUMP JUMPDEST SWAP3 SWAP2 POP POP JUMP JUMPDEST PUSH1 0x2 PUSH1 0x20 MSTORE PUSH1 0x0 SWAP1 DUP2 MSTORE PUSH1 0x40 SWAP1 KECCAK256 DUP1 SLOAD PUSH1 0x1 SWAP1 SWAP2 ADD SLOAD DUP3 JUMP JUMPDEST PUSH1 0x0 DUP1 PUSH1 0x0 DUP1 DUP5 DUP1 PUSH1 0x20 ADD SWAP1 MLOAD DUP2 ADD SWAP1 PUSH2 0x435 SWAP2 SWAP1 PUSH2 0x55D0 JUMP JUMPDEST SWAP3 POP SWAP3 POP SWAP3 POP PUSH1 0x0 DUP7 DUP1 MLOAD SWAP1 PUSH1 0x20 ADD KECCAK256 PUSH1 0x40 MLOAD PUSH1 0x20 ADD PUSH2 0x455 SWAP2 SWAP1 PUSH2 0x583A JUMP JUMPDEST PUSH1 0x40 MLOAD PUSH1 0x20 DUP2 DUP4 SUB SUB DUP2 MSTORE SWAP1 PUSH1 0x40 MSTORE DUP1 MLOAD SWAP1 PUSH1 0x20 ADD KECCAK256 SWAP1 POP PUSH1 0x1 DUP2 DUP4 DUP7 DUP7 PUSH1 0x40 MLOAD PUSH1 0x0 DUP2 MSTORE PUSH1 0x20 ADD PUSH1 0x40 MSTORE PUSH1 0x40 MLOAD PUSH2 0x490 SWAP5 SWAP4 SWAP3 SWAP2 SWAP1 PUSH2 0x58D8 JUMP JUMPDEST PUSH1 0x20 PUSH1 0x40 MLOAD PUSH1 0x20 DUP2 SUB SWAP1 DUP1 DUP5 SUB SWAP1 DUP6 GAS STATICCALL ISZERO DUP1 ISZERO PUSH2 0x4B2 JUMPI RETURNDATASIZE PUSH1 0x0 DUP1 RETURNDATACOPY RETURNDATASIZE PUSH1 0x0 REVERT JUMPDEST POP POP PUSH1 0x40 MLOAD PUSH1 0x1F NOT ADD MLOAD SWAP9 SWAP8 POP POP POP POP POP POP POP POP JUMP JUMPDEST PUSH2 0x4D0 PUSH2 0x5390 JUMP JUMPDEST PUSH1 0x0 PUSH2 0x364 DUP4 PUSH2 0x3D31 JUMP JUMPDEST PUSH1 0x0 PUSH1 0x20 DUP2 SWAP1 MSTORE SWAP1 DUP2 MSTORE PUSH1 0x40 SWAP1 KECCAK256 SLOAD DUP2 JUMP JUMPDEST PUSH1 0x1 SLOAD PUSH1 0xFF AND DUP2 JUMP JUMPDEST PUSH8 0xDE0B6B3A7640000 DUP2 JUMP JUMPDEST PUSH2 0x50A PUSH2 0x5390 JUMP JUMPDEST PUSH32 0x0 DUP3 LT PUSH2 0x549 JUMPI PUSH1 0x40 MLOAD PUSH3 0x461BCD PUSH1 0xE5 SHL DUP2 MSTORE PUSH1 0x4 ADD PUSH2 0x398 SWAP1 PUSH2 0x59D5 JUMP JUMPDEST DUP2 PUSH2 0x6B7 JUMPI PUSH1 0x40 MLOAD DUP1 PUSH2 0x100 ADD PUSH1 0x40 MSTORE DUP1 PUSH32 0x0 PUSH1 0x1 PUSH1 0x1 PUSH1 0xA0 SHL SUB AND DUP2 MSTORE PUSH1 0x20 ADD PUSH32 0x0 PUSH1 0x1 PUSH1 0x1 PUSH1 0xA0 SHL SUB AND DUP2 MSTORE PUSH1 0x20 ADD PUSH32 0x0 DUP2 MSTORE PUSH1 0x20 ADD PUSH32 0x0 DUP2 MSTORE PUSH1 0x20 ADD PUSH32 0x0 PUSH1 0x2 DUP2 GT ISZERO PUSH2 0x630 JUMPI INVALID JUMPDEST DUP2 MSTORE PUSH1 0x20 ADD PUSH32 0x0 DUP2 MSTORE PUSH1 0x20 ADD PUSH32 0x0 PUSH1 0x1 PUSH1 0x1 PUSH1 0xA0 SHL SUB AND DUP2 MSTORE PUSH1 0x20 ADD PUSH32 0x0 ISZERO ISZERO DUP2 MSTORE POP SWAP1 POP PUSH2 0x34C JUMP JUMPDEST DUP2 PUSH1 0x1 EQ ISZERO PUSH2 0x829 JUMPI PUSH1 0x40 MLOAD DUP1 PUSH2 0x100 ADD PUSH1 0x40 MSTORE DUP1 PUSH32 0x0 PUSH1 0x1 PUSH1 0x1 PUSH1 0xA0 SHL SUB AND DUP2 MSTORE PUSH1 0x20 ADD PUSH32 0x0 PUSH1 0x1 PUSH1 0x1 PUSH1 0xA0 SHL SUB AND DUP2 MSTORE PUSH1 0x20 ADD PUSH32 0x0 DUP2 MSTORE PUSH1 0x20 ADD PUSH32 0x0 DUP2 MSTORE PUSH1 0x20 ADD PUSH32 0x0 PUSH1 0x2 DUP2 GT ISZERO PUSH2 0x7A2 JUMPI INVALID JUMPDEST DUP2 MSTORE PUSH1 0x20 ADD PUSH32 0x0 DUP2 MSTORE PUSH1 0x20 ADD PUSH32 0x0 PUSH1 0x1 PUSH1 0x1 PUSH1 0xA0 SHL SUB AND DUP2 MSTORE PUSH1 0x20 ADD PUSH32 0x0 ISZERO ISZERO DUP2 MSTORE POP SWAP1 POP PUSH2 0x34C JUMP JUMPDEST DUP2 PUSH1 0x2 EQ ISZERO PUSH2 0x99B JUMPI PUSH1 0x40 MLOAD DUP1 PUSH2 0x100 ADD PUSH1 0x40 MSTORE DUP1 PUSH32 0x0 PUSH1 0x1 PUSH1 0x1 PUSH1 0xA0 SHL SUB AND DUP2 MSTORE PUSH1 0x20 ADD PUSH32 0x0 PUSH1 0x1 PUSH1 0x1 PUSH1 0xA0 SHL SUB AND DUP2 MSTORE PUSH1 0x20 ADD PUSH32 0x0 DUP2 MSTORE PUSH1 0x20 ADD PUSH32 0x0 DUP2 MSTORE PUSH1 0x20 ADD PUSH32 0x0 PUSH1 0x2 DUP2 GT ISZERO PUSH2 0x914 JUMPI INVALID JUMPDEST DUP2 MSTORE PUSH1 0x20 ADD PUSH32 0x0 DUP2 MSTORE PUSH1 0x20 ADD PUSH32 0x0 PUSH1 0x1 PUSH1 0x1 PUSH1 0xA0 SHL SUB AND DUP2 MSTORE PUSH1 0x20 ADD PUSH32 0x0 ISZERO ISZERO DUP2 MSTORE POP SWAP1 POP PUSH2 0x34C JUMP JUMPDEST DUP2 PUSH1 0x3 EQ ISZERO PUSH2 0xB0D JUMPI PUSH1 0x40 MLOAD DUP1 PUSH2 0x100 ADD PUSH1 0x40 MSTORE DUP1 PUSH32 0x0 PUSH1 0x1 PUSH1 0x1 PUSH1 0xA0 SHL SUB AND DUP2 MSTORE PUSH1 0x20 ADD PUSH32 0x0 PUSH1 0x1 PUSH1 0x1 PUSH1 0xA0 SHL SUB AND DUP2 MSTORE PUSH1 0x20 ADD PUSH32 0x0 DUP2 MSTORE PUSH1 0x20 ADD PUSH32 0x0 DUP2 MSTORE PUSH1 0x20 ADD PUSH32 0x0 PUSH1 0x2 DUP2 GT ISZERO PUSH2 0xA86 JUMPI INVALID JUMPDEST DUP2 MSTORE PUSH1 0x20 ADD PUSH32 0x0 DUP2 MSTORE PUSH1 0x20 ADD PUSH32 0x0 PUSH1 0x1 PUSH1 0x1 PUSH1 0xA0 SHL SUB AND DUP2 MSTORE PUSH1 0x20 ADD PUSH32 0x0 ISZERO ISZERO DUP2 MSTORE POP SWAP1 POP PUSH2 0x34C JUMP JUMPDEST DUP2 PUSH1 0x4 EQ ISZERO PUSH2 0xC7F JUMPI PUSH1 0x40 MLOAD DUP1 PUSH2 0x100 ADD PUSH1 0x40 MSTORE DUP1 PUSH32 0x0 PUSH1 0x1 PUSH1 0x1 PUSH1 0xA0 SHL SUB AND DUP2 MSTORE PUSH1 0x20 ADD PUSH32 0x0 PUSH1 0x1 PUSH1 0x1 PUSH1 0xA0 SHL SUB AND DUP2 MSTORE PUSH1 0x20 ADD PUSH32 0x0 DUP2 MSTORE PUSH1 0x20 ADD PUSH32 0x0 DUP2 MSTORE PUSH1 0x20 ADD PUSH32 0x0 PUSH1 0x2 DUP2 GT ISZERO PUSH2 0xBF8 JUMPI INVALID JUMPDEST DUP2 MSTORE PUSH1 0x20 ADD PUSH32 0x0 DUP2 MSTORE PUSH1 0x20 ADD PUSH32 0x0 PUSH1 0x1 PUSH1 0x1 PUSH1 0xA0 SHL SUB AND DUP2 MSTORE PUSH1 0x20 ADD PUSH32 0x0 ISZERO ISZERO DUP2 MSTORE POP SWAP1 POP PUSH2 0x34C JUMP JUMPDEST DUP2 PUSH1 0x5 EQ ISZERO PUSH2 0xDF1 JUMPI PUSH1 0x40 MLOAD DUP1 PUSH2 0x100 ADD PUSH1 0x40 MSTORE DUP1 PUSH32 0x0 PUSH1 0x1 PUSH1 0x1 PUSH1 0xA0 SHL SUB AND DUP2 MSTORE PUSH1 0x20 ADD PUSH32 0x0 PUSH1 0x1 PUSH1 0x1 PUSH1 0xA0 SHL SUB AND DUP2 MSTORE PUSH1 0x20 ADD PUSH32 0x0 DUP2 MSTORE PUSH1 0x20 ADD PUSH32 0x0 DUP2 MSTORE PUSH1 0x20 ADD PUSH32 0x0 PUSH1 0x2 DUP2 GT ISZERO PUSH2 0xD6A JUMPI INVALID JUMPDEST DUP2 MSTORE PUSH1 0x20 ADD PUSH32 0x0 DUP2 MSTORE PUSH1 0x20 ADD PUSH32 0x0 PUSH1 0x1 PUSH1 0x1 PUSH1 0xA0 SHL SUB AND DUP2 MSTORE PUSH1 0x20 ADD PUSH32 0x0 ISZERO ISZERO DUP2 MSTORE POP SWAP1 POP PUSH2 0x34C JUMP JUMPDEST DUP2 PUSH1 0x6 EQ ISZERO PUSH2 0xF63 JUMPI PUSH1 0x40 MLOAD DUP1 PUSH2 0x100 ADD PUSH1 0x40 MSTORE DUP1 PUSH32 0x0 PUSH1 0x1 PUSH1 0x1 PUSH1 0xA0 SHL SUB AND DUP2 MSTORE PUSH1 0x20 ADD PUSH32 0x0 PUSH1 0x1 PUSH1 0x1 PUSH1 0xA0 SHL SUB AND DUP2 MSTORE PUSH1 0x20 ADD PUSH32 0x0 DUP2 MSTORE PUSH1 0x20 ADD PUSH32 0x0 DUP2 MSTORE PUSH1 0x20 ADD PUSH32 0x0 PUSH1 0x2 DUP2 GT ISZERO PUSH2 0xEDC JUMPI INVALID JUMPDEST DUP2 MSTORE PUSH1 0x20 ADD PUSH32 0x0 DUP2 MSTORE PUSH1 0x20 ADD PUSH32 0x0 PUSH1 0x1 PUSH1 0x1 PUSH1 0xA0 SHL SUB AND DUP2 MSTORE PUSH1 0x20 ADD PUSH32 0x0 ISZERO ISZERO DUP2 MSTORE POP SWAP1 POP PUSH2 0x34C JUMP JUMPDEST DUP2 PUSH1 0x7 EQ ISZERO PUSH2 0x10D5 JUMPI PUSH1 0x40 MLOAD DUP1 PUSH2 0x100 ADD PUSH1 0x40 MSTORE DUP1 PUSH32 0x0 PUSH1 0x1 PUSH1 0x1 PUSH1 0xA0 SHL SUB AND DUP2 MSTORE PUSH1 0x20 ADD PUSH32 0x0 PUSH1 0x1 PUSH1 0x1 PUSH1 0xA0 SHL SUB AND DUP2 MSTORE PUSH1 0x20 ADD PUSH32 0x0 DUP2 MSTORE PUSH1 0x20 ADD PUSH32 0x0 DUP2 MSTORE PUSH1 0x20 ADD PUSH32 0x0 PUSH1 0x2 DUP2 GT ISZERO PUSH2 0x104E JUMPI INVALID JUMPDEST DUP2 MSTORE PUSH1 0x20 ADD PUSH32 0x0 DUP2 MSTORE PUSH1 0x20 ADD PUSH32 0x0 PUSH1 0x1 PUSH1 0x1 PUSH1 0xA0 SHL SUB AND DUP2 MSTORE PUSH1 0x20 ADD PUSH32 0x0 ISZERO ISZERO DUP2 MSTORE POP SWAP1 POP PUSH2 0x34C JUMP JUMPDEST DUP2 PUSH1 0x8 EQ ISZERO PUSH2 0x1247 JUMPI PUSH1 0x40 MLOAD DUP1 PUSH2 0x100 ADD PUSH1 0x40 MSTORE DUP1 PUSH32 0x0 PUSH1 0x1 PUSH1 0x1 PUSH1 0xA0 SHL SUB AND DUP2 MSTORE PUSH1 0x20 ADD PUSH32 0x0 PUSH1 0x1 PUSH1 0x1 PUSH1 0xA0 SHL SUB AND DUP2 MSTORE PUSH1 0x20 ADD PUSH32 0x0 DUP2 MSTORE PUSH1 0x20 ADD PUSH32 0x0 DUP2 MSTORE PUSH1 0x20 ADD PUSH32 0x0 PUSH1 0x2 DUP2 GT ISZERO PUSH2 0x11C0 JUMPI INVALID JUMPDEST DUP2 MSTORE PUSH1 0x20 ADD PUSH32 0x0 DUP2 MSTORE PUSH1 0x20 ADD PUSH32 0x0 PUSH1 0x1 PUSH1 0x1 PUSH1 0xA0 SHL SUB AND DUP2 MSTORE PUSH1 0x20 ADD PUSH32 0x0 ISZERO ISZERO DUP2 MSTORE POP SWAP1 POP PUSH2 0x34C JUMP JUMPDEST DUP2 PUSH1 0x9 EQ ISZERO PUSH2 0x13B9 JUMPI PUSH1 0x40 MLOAD DUP1 PUSH2 0x100 ADD PUSH1 0x40 MSTORE DUP1 PUSH32 0x0 PUSH1 0x1 PUSH1 0x1 PUSH1 0xA0 SHL SUB AND DUP2 MSTORE PUSH1 0x20 ADD PUSH32 0x0 PUSH1 0x1 PUSH1 0x1 PUSH1 0xA0 SHL SUB AND DUP2 MSTORE PUSH1 0x20 ADD PUSH32 0x0 DUP2 MSTORE PUSH1 0x20 ADD PUSH32 0x0 DUP2 MSTORE PUSH1 0x20 ADD PUSH32 0x0 PUSH1 0x2 DUP2 GT ISZERO PUSH2 0x1332 JUMPI INVALID JUMPDEST DUP2 MSTORE PUSH1 0x20 ADD PUSH32 0x0 DUP2 MSTORE PUSH1 0x20 ADD PUSH32 0x0 PUSH1 0x1 PUSH1 0x1 PUSH1 0xA0 SHL SUB AND DUP2 MSTORE PUSH1 0x20 ADD PUSH32 0x0 ISZERO ISZERO DUP2 MSTORE POP SWAP1 POP PUSH2 0x34C JUMP JUMPDEST DUP2 PUSH1 0xA EQ ISZERO PUSH2 0x152B JUMPI PUSH1 0x40 MLOAD DUP1 PUSH2 0x100 ADD PUSH1 0x40 MSTORE DUP1 PUSH32 0x0 PUSH1 0x1 PUSH1 0x1 PUSH1 0xA0 SHL SUB AND DUP2 MSTORE PUSH1 0x20 ADD PUSH32 0x0 PUSH1 0x1 PUSH1 0x1 PUSH1 0xA0 SHL SUB AND DUP2 MSTORE PUSH1 0x20 ADD PUSH32 0x0 DUP2 MSTORE PUSH1 0x20 ADD PUSH32 0x0 DUP2 MSTORE PUSH1 0x20 ADD PUSH32 0x0 PUSH1 0x2 DUP2 GT ISZERO PUSH2 0x14A4 JUMPI INVALID JUMPDEST DUP2 MSTORE PUSH1 0x20 ADD PUSH32 0x0 DUP2 MSTORE PUSH1 0x20 ADD PUSH32 0x0 PUSH1 0x1 PUSH1 0x1 PUSH1 0xA0 SHL SUB AND DUP2 MSTORE PUSH1 0x20 ADD PUSH32 0x0 ISZERO ISZERO DUP2 MSTORE POP SWAP1 POP PUSH2 0x34C JUMP JUMPDEST DUP2 PUSH1 0xB EQ ISZERO PUSH2 0x169D JUMPI PUSH1 0x40 MLOAD DUP1 PUSH2 0x100 ADD PUSH1 0x40 MSTORE DUP1 PUSH32 0x0 PUSH1 0x1 PUSH1 0x1 PUSH1 0xA0 SHL SUB AND DUP2 MSTORE PUSH1 0x20 ADD PUSH32 0x0 PUSH1 0x1 PUSH1 0x1 PUSH1 0xA0 SHL SUB AND DUP2 MSTORE PUSH1 0x20 ADD PUSH32 0x0 DUP2 MSTORE PUSH1 0x20 ADD PUSH32 0x0 DUP2 MSTORE PUSH1 0x20 ADD PUSH32 0x0 PUSH1 0x2 DUP2 GT ISZERO PUSH2 0x1616 JUMPI INVALID JUMPDEST DUP2 MSTORE PUSH1 0x20 ADD PUSH32 0x0 DUP2 MSTORE PUSH1 0x20 ADD PUSH32 0x0 PUSH1 0x1 PUSH1 0x1 PUSH1 0xA0 SHL SUB AND DUP2 MSTORE PUSH1 0x20 ADD PUSH32 0x0 ISZERO ISZERO DUP2 MSTORE POP SWAP1 POP PUSH2 0x34C JUMP JUMPDEST DUP2 PUSH1 0xC EQ ISZERO PUSH2 0x180F JUMPI PUSH1 0x40 MLOAD DUP1 PUSH2 0x100 ADD PUSH1 0x40 MSTORE DUP1 PUSH32 0x0 PUSH1 0x1 PUSH1 0x1 PUSH1 0xA0 SHL SUB AND DUP2 MSTORE PUSH1 0x20 ADD PUSH32 0x0 PUSH1 0x1 PUSH1 0x1 PUSH1 0xA0 SHL SUB AND DUP2 MSTORE PUSH1 0x20 ADD PUSH32 0x0 DUP2 MSTORE PUSH1 0x20 ADD PUSH32 0x0 DUP2 MSTORE PUSH1 0x20 ADD PUSH32 0x0 PUSH1 0x2 DUP2 GT ISZERO PUSH2 0x1788 JUMPI INVALID JUMPDEST DUP2 MSTORE PUSH1 0x20 ADD PUSH32 0x0 DUP2 MSTORE PUSH1 0x20 ADD PUSH32 0x0 PUSH1 0x1 PUSH1 0x1 PUSH1 0xA0 SHL SUB AND DUP2 MSTORE PUSH1 0x20 ADD PUSH32 0x0 ISZERO ISZERO DUP2 MSTORE POP SWAP1 POP PUSH2 0x34C JUMP JUMPDEST DUP2 PUSH1 0xD EQ ISZERO PUSH2 0x1981 JUMPI PUSH1 0x40 MLOAD DUP1 PUSH2 0x100 ADD PUSH1 0x40 MSTORE DUP1 PUSH32 0x0 PUSH1 0x1 PUSH1 0x1 PUSH1 0xA0 SHL SUB AND DUP2 MSTORE PUSH1 0x20 ADD PUSH32 0x0 PUSH1 0x1 PUSH1 0x1 PUSH1 0xA0 SHL SUB AND DUP2 MSTORE PUSH1 0x20 ADD PUSH32 0x0 DUP2 MSTORE PUSH1 0x20 ADD PUSH32 0x0 DUP2 MSTORE PUSH1 0x20 ADD PUSH32 0x0 PUSH1 0x2 DUP2 GT ISZERO PUSH2 0x18FA JUMPI INVALID JUMPDEST DUP2 MSTORE PUSH1 0x20 ADD PUSH32 0x0 DUP2 MSTORE PUSH1 0x20 ADD PUSH32 0x0 PUSH1 0x1 PUSH1 0x1 PUSH1 0xA0 SHL SUB AND DUP2 MSTORE PUSH1 0x20 ADD PUSH32 0x0 ISZERO ISZERO DUP2 MSTORE POP SWAP1 POP PUSH2 0x34C JUMP JUMPDEST DUP2 PUSH1 0xE EQ ISZERO PUSH2 0x1AF3 JUMPI PUSH1 0x40 MLOAD DUP1 PUSH2 0x100 ADD PUSH1 0x40 MSTORE DUP1 PUSH32 0x0 PUSH1 0x1 PUSH1 0x1 PUSH1 0xA0 SHL SUB AND DUP2 MSTORE PUSH1 0x20 ADD PUSH32 0x0 PUSH1 0x1 PUSH1 0x1 PUSH1 0xA0 SHL SUB AND DUP2 MSTORE PUSH1 0x20 ADD PUSH32 0x0 DUP2 MSTORE PUSH1 0x20 ADD PUSH32 0x0 DUP2 MSTORE PUSH1 0x20 ADD PUSH32 0x0 PUSH1 0x2 DUP2 GT ISZERO PUSH2 0x1A6C JUMPI INVALID JUMPDEST DUP2 MSTORE PUSH1 0x20 ADD PUSH32 0x0 DUP2 MSTORE PUSH1 0x20 ADD PUSH32 0x0 PUSH1 0x1 PUSH1 0x1 PUSH1 0xA0 SHL SUB AND DUP2 MSTORE PUSH1 0x20 ADD PUSH32 0x0 ISZERO ISZERO DUP2 MSTORE POP SWAP1 POP PUSH2 0x34C JUMP JUMPDEST DUP2 PUSH1 0xF EQ ISZERO PUSH2 0x1C65 JUMPI PUSH1 0x40 MLOAD DUP1 PUSH2 0x100 ADD PUSH1 0x40 MSTORE DUP1 PUSH32 0x0 PUSH1 0x1 PUSH1 0x1 PUSH1 0xA0 SHL SUB AND DUP2 MSTORE PUSH1 0x20 ADD PUSH32 0x0 PUSH1 0x1 PUSH1 0x1 PUSH1 0xA0 SHL SUB AND DUP2 MSTORE PUSH1 0x20 ADD PUSH32 0x0 DUP2 MSTORE PUSH1 0x20 ADD PUSH32 0x0 DUP2 MSTORE PUSH1 0x20 ADD PUSH32 0x0 PUSH1 0x2 DUP2 GT ISZERO PUSH2 0x1BDE JUMPI INVALID JUMPDEST DUP2 MSTORE PUSH1 0x20 ADD PUSH32 0x0 DUP2 MSTORE PUSH1 0x20 ADD PUSH32 0x0 PUSH1 0x1 PUSH1 0x1 PUSH1 0xA0 SHL SUB AND DUP2 MSTORE PUSH1 0x20 ADD PUSH32 0x0 ISZERO ISZERO DUP2 MSTORE POP SWAP1 POP PUSH2 0x34C JUMP JUMPDEST DUP2 PUSH1 0x10 EQ ISZERO PUSH2 0x1DD7 JUMPI PUSH1 0x40 MLOAD DUP1 PUSH2 0x100 ADD PUSH1 0x40 MSTORE DUP1 PUSH32 0x0 PUSH1 0x1 PUSH1 0x1 PUSH1 0xA0 SHL SUB AND DUP2 MSTORE PUSH1 0x20 ADD PUSH32 0x0 PUSH1 0x1 PUSH1 0x1 PUSH1 0xA0 SHL SUB AND DUP2 MSTORE PUSH1 0x20 ADD PUSH32 0x0 DUP2 MSTORE PUSH1 0x20 ADD PUSH32 0x0 DUP2 MSTORE PUSH1 0x20 ADD PUSH32 0x0 PUSH1 0x2 DUP2 GT ISZERO PUSH2 0x1D50 JUMPI INVALID JUMPDEST DUP2 MSTORE PUSH1 0x20 ADD PUSH32 0x0 DUP2 MSTORE PUSH1 0x20 ADD PUSH32 0x0 PUSH1 0x1 PUSH1 0x1 PUSH1 0xA0 SHL SUB AND DUP2 MSTORE PUSH1 0x20 ADD PUSH32 0x0 ISZERO ISZERO DUP2 MSTORE POP SWAP1 POP PUSH2 0x34C JUMP JUMPDEST DUP2 PUSH1 0x11 EQ ISZERO PUSH2 0x1F49 JUMPI PUSH1 0x40 MLOAD DUP1 PUSH2 0x100 ADD PUSH1 0x40 MSTORE DUP1 PUSH32 0x0 PUSH1 0x1 PUSH1 0x1 PUSH1 0xA0 SHL SUB AND DUP2 MSTORE PUSH1 0x20 ADD PUSH32 0x0 PUSH1 0x1 PUSH1 0x1 PUSH1 0xA0 SHL SUB AND DUP2 MSTORE PUSH1 0x20 ADD PUSH32 0x0 DUP2 MSTORE PUSH1 0x20 ADD PUSH32 0x0 DUP2 MSTORE PUSH1 0x20 ADD PUSH32 0x0 PUSH1 0x2 DUP2 GT ISZERO PUSH2 0x1EC2 JUMPI INVALID JUMPDEST DUP2 MSTORE PUSH1 0x20 ADD PUSH32 0x0 DUP2 MSTORE PUSH1 0x20 ADD PUSH32 0x0 PUSH1 0x1 PUSH1 0x1 PUSH1 0xA0 SHL SUB AND DUP2 MSTORE PUSH1 0x20 ADD PUSH32 0x0 ISZERO ISZERO DUP2 MSTORE POP SWAP1 POP PUSH2 0x34C JUMP JUMPDEST DUP2 PUSH1 0x12 EQ ISZERO PUSH2 0x20BB JUMPI PUSH1 0x40 MLOAD DUP1 PUSH2 0x100 ADD PUSH1 0x40 MSTORE DUP1 PUSH32 0x0 PUSH1 0x1 PUSH1 0x1 PUSH1 0xA0 SHL SUB AND DUP2 MSTORE PUSH1 0x20 ADD PUSH32 0x0 PUSH1 0x1 PUSH1 0x1 PUSH1 0xA0 SHL SUB AND DUP2 MSTORE PUSH1 0x20 ADD PUSH32 0x0 DUP2 MSTORE PUSH1 0x20 ADD PUSH32 0x0 DUP2 MSTORE PUSH1 0x20 ADD PUSH32 0x0 PUSH1 0x2 DUP2 GT ISZERO PUSH2 0x2034 JUMPI INVALID JUMPDEST DUP2 MSTORE PUSH1 0x20 ADD PUSH32 0x0 DUP2 MSTORE PUSH1 0x20 ADD PUSH32 0x0 PUSH1 0x1 PUSH1 0x1 PUSH1 0xA0 SHL SUB AND DUP2 MSTORE PUSH1 0x20 ADD PUSH32 0x0 ISZERO ISZERO DUP2 MSTORE POP SWAP1 POP PUSH2 0x34C JUMP JUMPDEST DUP2 PUSH1 0x13 EQ ISZERO PUSH2 0x222D JUMPI PUSH1 0x40 MLOAD DUP1 PUSH2 0x100 ADD PUSH1 0x40 MSTORE DUP1 PUSH32 0x0 PUSH1 0x1 PUSH1 0x1 PUSH1 0xA0 SHL SUB AND DUP2 MSTORE PUSH1 0x20 ADD PUSH32 0x0 PUSH1 0x1 PUSH1 0x1 PUSH1 0xA0 SHL SUB AND DUP2 MSTORE PUSH1 0x20 ADD PUSH32 0x0 DUP2 MSTORE PUSH1 0x20 ADD PUSH32 0x0 DUP2 MSTORE PUSH1 0x20 ADD PUSH32 0x0 PUSH1 0x2 DUP2 GT ISZERO PUSH2 0x21A6 JUMPI INVALID JUMPDEST DUP2 MSTORE PUSH1 0x20 ADD PUSH32 0x0 DUP2 MSTORE PUSH1 0x20 ADD PUSH32 0x0 PUSH1 0x1 PUSH1 0x1 PUSH1 0xA0 SHL SUB AND DUP2 MSTORE PUSH1 0x20 ADD PUSH32 0x0 ISZERO ISZERO DUP2 MSTORE POP SWAP1 POP PUSH2 0x34C JUMP JUMPDEST DUP2 PUSH1 0x14 EQ ISZERO PUSH2 0x239F JUMPI PUSH1 0x40 MLOAD DUP1 PUSH2 0x100 ADD PUSH1 0x40 MSTORE DUP1 PUSH32 0x0 PUSH1 0x1 PUSH1 0x1 PUSH1 0xA0 SHL SUB AND DUP2 MSTORE PUSH1 0x20 ADD PUSH32 0x0 PUSH1 0x1 PUSH1 0x1 PUSH1 0xA0 SHL SUB AND DUP2 MSTORE PUSH1 0x20 ADD PUSH32 0x0 DUP2 MSTORE PUSH1 0x20 ADD PUSH32 0x0 DUP2 MSTORE PUSH1 0x20 ADD PUSH32 0x0 PUSH1 0x2 DUP2 GT ISZERO PUSH2 0x2318 JUMPI INVALID JUMPDEST DUP2 MSTORE PUSH1 0x20 ADD PUSH32 0x0 DUP2 MSTORE PUSH1 0x20 ADD PUSH32 0x0 PUSH1 0x1 PUSH1 0x1 PUSH1 0xA0 SHL SUB AND DUP2 MSTORE PUSH1 0x20 ADD PUSH32 0x0 ISZERO ISZERO DUP2 MSTORE POP SWAP1 POP PUSH2 0x34C JUMP JUMPDEST DUP2 PUSH1 0x15 EQ ISZERO PUSH2 0x2511 JUMPI PUSH1 0x40 MLOAD DUP1 PUSH2 0x100 ADD PUSH1 0x40 MSTORE DUP1 PUSH32 0x0 PUSH1 0x1 PUSH1 0x1 PUSH1 0xA0 SHL SUB AND DUP2 MSTORE PUSH1 0x20 ADD PUSH32 0x0 PUSH1 0x1 PUSH1 0x1 PUSH1 0xA0 SHL SUB AND DUP2 MSTORE PUSH1 0x20 ADD PUSH32 0x0 DUP2 MSTORE PUSH1 0x20 ADD PUSH32 0x0 DUP2 MSTORE PUSH1 0x20 ADD PUSH32 0x0 PUSH1 0x2 DUP2 GT ISZERO PUSH2 0x248A JUMPI INVALID JUMPDEST DUP2 MSTORE PUSH1 0x20 ADD PUSH32 0x0 DUP2 MSTORE PUSH1 0x20 ADD PUSH32 0x0 PUSH1 0x1 PUSH1 0x1 PUSH1 0xA0 SHL SUB AND DUP2 MSTORE PUSH1 0x20 ADD PUSH32 0x0 ISZERO ISZERO DUP2 MSTORE POP SWAP1 POP PUSH2 0x34C JUMP JUMPDEST DUP2 PUSH1 0x16 EQ ISZERO PUSH2 0x2683 JUMPI PUSH1 0x40 MLOAD DUP1 PUSH2 0x100 ADD PUSH1 0x40 MSTORE DUP1 PUSH32 0x0 PUSH1 0x1 PUSH1 0x1 PUSH1 0xA0 SHL SUB AND DUP2 MSTORE PUSH1 0x20 ADD PUSH32 0x0 PUSH1 0x1 PUSH1 0x1 PUSH1 0xA0 SHL SUB AND DUP2 MSTORE PUSH1 0x20 ADD PUSH32 0x0 DUP2 MSTORE PUSH1 0x20 ADD PUSH32 0x0 DUP2 MSTORE PUSH1 0x20 ADD PUSH32 0x0 PUSH1 0x2 DUP2 GT ISZERO PUSH2 0x25FC JUMPI INVALID JUMPDEST DUP2 MSTORE PUSH1 0x20 ADD PUSH32 0x0 DUP2 MSTORE PUSH1 0x20 ADD PUSH32 0x0 PUSH1 0x1 PUSH1 0x1 PUSH1 0xA0 SHL SUB AND DUP2 MSTORE PUSH1 0x20 ADD PUSH32 0x0 ISZERO ISZERO DUP2 MSTORE POP SWAP1 POP PUSH2 0x34C JUMP JUMPDEST DUP2 PUSH1 0x17 EQ ISZERO PUSH2 0x27F5 JUMPI PUSH1 0x40 MLOAD DUP1 PUSH2 0x100 ADD PUSH1 0x40 MSTORE DUP1 PUSH32 0x0 PUSH1 0x1 PUSH1 0x1 PUSH1 0xA0 SHL SUB AND DUP2 MSTORE PUSH1 0x20 ADD PUSH32 0x0 PUSH1 0x1 PUSH1 0x1 PUSH1 0xA0 SHL SUB AND DUP2 MSTORE PUSH1 0x20 ADD PUSH32 0x0 DUP2 MSTORE PUSH1 0x20 ADD PUSH32 0x0 DUP2 MSTORE PUSH1 0x20 ADD PUSH32 0x0 PUSH1 0x2 DUP2 GT ISZERO PUSH2 0x276E JUMPI INVALID JUMPDEST DUP2 MSTORE PUSH1 0x20 ADD PUSH32 0x0 DUP2 MSTORE PUSH1 0x20 ADD PUSH32 0x0 PUSH1 0x1 PUSH1 0x1 PUSH1 0xA0 SHL SUB AND DUP2 MSTORE PUSH1 0x20 ADD PUSH32 0x0 ISZERO ISZERO DUP2 MSTORE POP SWAP1 POP PUSH2 0x34C JUMP JUMPDEST DUP2 PUSH1 0x18 EQ ISZERO PUSH2 0x2967 JUMPI PUSH1 0x40 MLOAD DUP1 PUSH2 0x100 ADD PUSH1 0x40 MSTORE DUP1 PUSH32 0x0 PUSH1 0x1 PUSH1 0x1 PUSH1 0xA0 SHL SUB AND DUP2 MSTORE PUSH1 0x20 ADD PUSH32 0x0 PUSH1 0x1 PUSH1 0x1 PUSH1 0xA0 SHL SUB AND DUP2 MSTORE PUSH1 0x20 ADD PUSH32 0x0 DUP2 MSTORE PUSH1 0x20 ADD PUSH32 0x0 DUP2 MSTORE PUSH1 0x20 ADD PUSH32 0x0 PUSH1 0x2 DUP2 GT ISZERO PUSH2 0x28E0 JUMPI INVALID JUMPDEST DUP2 MSTORE PUSH1 0x20 ADD PUSH32 0x0 DUP2 MSTORE PUSH1 0x20 ADD PUSH32 0x0 PUSH1 0x1 PUSH1 0x1 PUSH1 0xA0 SHL SUB AND DUP2 MSTORE PUSH1 0x20 ADD PUSH32 0x0 ISZERO ISZERO DUP2 MSTORE POP SWAP1 POP PUSH2 0x34C JUMP JUMPDEST DUP2 PUSH1 0x19 EQ ISZERO PUSH2 0x2AD9 JUMPI PUSH1 0x40 MLOAD DUP1 PUSH2 0x100 ADD PUSH1 0x40 MSTORE DUP1 PUSH32 0x0 PUSH1 0x1 PUSH1 0x1 PUSH1 0xA0 SHL SUB AND DUP2 MSTORE PUSH1 0x20 ADD PUSH32 0x0 PUSH1 0x1 PUSH1 0x1 PUSH1 0xA0 SHL SUB AND DUP2 MSTORE PUSH1 0x20 ADD PUSH32 0x0 DUP2 MSTORE PUSH1 0x20 ADD PUSH32 0x0 DUP2 MSTORE PUSH1 0x20 ADD PUSH32 0x0 PUSH1 0x2 DUP2 GT ISZERO PUSH2 0x2A52 JUMPI INVALID JUMPDEST DUP2 MSTORE PUSH1 0x20 ADD PUSH32 0x0 DUP2 MSTORE PUSH1 0x20 ADD PUSH32 0x0 PUSH1 0x1 PUSH1 0x1 PUSH1 0xA0 SHL SUB AND DUP2 MSTORE PUSH1 0x20 ADD PUSH32 0x0 ISZERO ISZERO DUP2 MSTORE POP SWAP1 POP PUSH2 0x34C JUMP JUMPDEST DUP2 PUSH1 0x1A EQ ISZERO PUSH2 0x2C4B JUMPI PUSH1 0x40 MLOAD DUP1 PUSH2 0x100 ADD PUSH1 0x40 MSTORE DUP1 PUSH32 0x0 PUSH1 0x1 PUSH1 0x1 PUSH1 0xA0 SHL SUB AND DUP2 MSTORE PUSH1 0x20 ADD PUSH32 0x0 PUSH1 0x1 PUSH1 0x1 PUSH1 0xA0 SHL SUB AND DUP2 MSTORE PUSH1 0x20 ADD PUSH32 0x0 DUP2 MSTORE PUSH1 0x20 ADD PUSH32 0x0 DUP2 MSTORE PUSH1 0x20 ADD PUSH32 0x0 PUSH1 0x2 DUP2 GT ISZERO PUSH2 0x2BC4 JUMPI INVALID JUMPDEST DUP2 MSTORE PUSH1 0x20 ADD PUSH32 0x0 DUP2 MSTORE PUSH1 0x20 ADD PUSH32 0x0 PUSH1 0x1 PUSH1 0x1 PUSH1 0xA0 SHL SUB AND DUP2 MSTORE PUSH1 0x20 ADD PUSH32 0x0 ISZERO ISZERO DUP2 MSTORE POP SWAP1 POP PUSH2 0x34C JUMP JUMPDEST DUP2 PUSH1 0x1B EQ ISZERO PUSH2 0x2DBD JUMPI PUSH1 0x40 MLOAD DUP1 PUSH2 0x100 ADD PUSH1 0x40 MSTORE DUP1 PUSH32 0x0 PUSH1 0x1 PUSH1 0x1 PUSH1 0xA0 SHL SUB AND DUP2 MSTORE PUSH1 0x20 ADD PUSH32 0x0 PUSH1 0x1 PUSH1 0x1 PUSH1 0xA0 SHL SUB AND DUP2 MSTORE PUSH1 0x20 ADD PUSH32 0x0 DUP2 MSTORE PUSH1 0x20 ADD PUSH32 0x0 DUP2 MSTORE PUSH1 0x20 ADD PUSH32 0x0 PUSH1 0x2 DUP2 GT ISZERO PUSH2 0x2D36 JUMPI INVALID JUMPDEST DUP2 MSTORE PUSH1 0x20 ADD PUSH32 0x0 DUP2 MSTORE PUSH1 0x20 ADD PUSH32 0x0 PUSH1 0x1 PUSH1 0x1 PUSH1 0xA0 SHL SUB AND DUP2 MSTORE PUSH1 0x20 ADD PUSH32 0x0 ISZERO ISZERO DUP2 MSTORE POP SWAP1 POP PUSH2 0x34C JUMP JUMPDEST DUP2 PUSH1 0x1C EQ ISZERO PUSH2 0x2F2F JUMPI PUSH1 0x40 MLOAD DUP1 PUSH2 0x100 ADD PUSH1 0x40 MSTORE DUP1 PUSH32 0x0 PUSH1 0x1 PUSH1 0x1 PUSH1 0xA0 SHL SUB AND DUP2 MSTORE PUSH1 0x20 ADD PUSH32 0x0 PUSH1 0x1 PUSH1 0x1 PUSH1 0xA0 SHL SUB AND DUP2 MSTORE PUSH1 0x20 ADD PUSH32 0x0 DUP2 MSTORE PUSH1 0x20 ADD PUSH32 0x0 DUP2 MSTORE PUSH1 0x20 ADD PUSH32 0x0 PUSH1 0x2 DUP2 GT ISZERO PUSH2 0x2EA8 JUMPI INVALID JUMPDEST DUP2 MSTORE PUSH1 0x20 ADD PUSH32 0x0 DUP2 MSTORE PUSH1 0x20 ADD PUSH32 0x0 PUSH1 0x1 PUSH1 0x1 PUSH1 0xA0 SHL SUB AND DUP2 MSTORE PUSH1 0x20 ADD PUSH32 0x0 ISZERO ISZERO DUP2 MSTORE POP SWAP1 POP PUSH2 0x34C JUMP JUMPDEST DUP2 PUSH1 0x1D EQ ISZERO PUSH2 0x34C JUMPI PUSH1 0x40 MLOAD DUP1 PUSH2 0x100 ADD PUSH1 0x40 MSTORE DUP1 PUSH32 0x0 PUSH1 0x1 PUSH1 0x1 PUSH1 0xA0 SHL SUB AND DUP2 MSTORE PUSH1 0x20 ADD PUSH32 0x0 PUSH1 0x1 PUSH1 0x1 PUSH1 0xA0 SHL SUB AND DUP2 MSTORE PUSH1 0x20 ADD PUSH32 0x0 DUP2 MSTORE PUSH1 0x20 ADD PUSH32 0x0 DUP2 MSTORE PUSH1 0x20 ADD PUSH32 0x0 PUSH1 0x2 DUP2 GT ISZERO PUSH2 0x301A JUMPI INVALID JUMPDEST DUP2 MSTORE PUSH1 0x20 ADD PUSH32 0x0 DUP2 MSTORE PUSH1 0x20 ADD PUSH32 0x0 PUSH1 0x1 PUSH1 0x1 PUSH1 0xA0 SHL SUB AND DUP2 MSTORE PUSH1 0x20 ADD PUSH32 0x0 ISZERO ISZERO DUP2 MSTORE POP SWAP1 POP PUSH2 0x34C JUMP JUMPDEST PUSH1 0x60 DUP3 DUP1 PUSH1 0x20 ADD SWAP1 MLOAD DUP2 ADD SWAP1 PUSH2 0x30B7 SWAP2 SWAP1 PUSH2 0x56DC JUMP JUMPDEST POP SWAP1 POP PUSH1 0x40 MLOAD PUSH1 0x20 ADD PUSH2 0x30C9 SWAP1 PUSH2 0x586B JUMP JUMPDEST PUSH1 0x40 MLOAD PUSH1 0x20 DUP2 DUP4 SUB SUB DUP2 MSTORE SWAP1 PUSH1 0x40 MSTORE DUP1 MLOAD SWAP1 PUSH1 0x20 ADD KECCAK256 DUP2 PUSH1 0x40 MLOAD PUSH1 0x20 ADD PUSH2 0x30F0 SWAP2 SWAP1 PUSH2 0x581E JUMP JUMPDEST PUSH1 0x40 MLOAD PUSH1 0x20 DUP2 DUP4 SUB SUB DUP2 MSTORE SWAP1 PUSH1 0x40 MSTORE DUP1 MLOAD SWAP1 PUSH1 0x20 ADD KECCAK256 EQ PUSH2 0x3123 JUMPI PUSH1 0x40 MLOAD PUSH3 0x461BCD PUSH1 0xE5 SHL DUP2 MSTORE PUSH1 0x4 ADD PUSH2 0x398 SWAP1 PUSH2 0x5AC3 JUMP JUMPDEST PUSH32 0x0 PUSH1 0x1 PUSH1 0x1 PUSH1 0xA0 SHL SUB AND PUSH2 0x3157 DUP5 DUP5 PUSH2 0x41B JUMP JUMPDEST PUSH1 0x1 PUSH1 0x1 PUSH1 0xA0 SHL SUB AND EQ PUSH2 0x317D JUMPI PUSH1 0x40 MLOAD PUSH3 0x461BCD PUSH1 0xE5 SHL DUP2 MSTORE PUSH1 0x4 ADD PUSH2 0x398 SWAP1 PUSH2 0x5A05 JUMP JUMPDEST PUSH1 0x1 DUP1 SLOAD PUSH1 0xFF NOT AND DUP2 OR SWAP1 SSTORE PUSH1 0x40 MLOAD PUSH32 0x98A13F7B181A3A1F99C871E7A3507D4A037D386D157279F978E0D555AE9FE74D SWAP1 PUSH2 0x31D9 SWAP1 PUSH32 0x0 SWAP1 PUSH2 0x588C JUMP JUMPDEST PUSH1 0x40 MLOAD DUP1 SWAP2 SUB SWAP1 LOG1 POP POP POP JUMP JUMPDEST PUSH32 0x0 DUP2 JUMP JUMPDEST PUSH32 0x0 DUP2 JUMP JUMPDEST PUSH32 0x0 DUP2 JUMP JUMPDEST PUSH1 0x1E DUP2 JUMP JUMPDEST PUSH32 0x0 DUP2 JUMP JUMPDEST PUSH1 0x3 PUSH1 0x20 MSTORE PUSH1 0x0 SWAP1 DUP2 MSTORE PUSH1 0x40 SWAP1 KECCAK256 DUP1 SLOAD PUSH1 0x1 SWAP1 SWAP2 ADD SLOAD DUP3 JUMP JUMPDEST DUP5 DUP4 EQ PUSH2 0x32B3 JUMPI PUSH1 0x40 MLOAD PUSH3 0x461BCD PUSH1 0xE5 SHL DUP2 MSTORE PUSH1 0x4 ADD PUSH2 0x398 SWAP1 PUSH2 0x5B44 JUMP JUMPDEST PUSH1 0x0 JUMPDEST DUP6 DUP2 LT ISZERO PUSH2 0x33A7 JUMPI PUSH32 0x0 PUSH1 0x1 PUSH1 0x1 PUSH1 0xA0 SHL SUB AND PUSH4 0x38636E9A DUP9 DUP9 DUP5 DUP2 DUP2 LT PUSH2 0x32F9 JUMPI INVALID JUMPDEST SWAP1 POP PUSH1 0x20 MUL DUP2 ADD SWAP1 PUSH2 0x330B SWAP2 SWAP1 PUSH2 0x5C62 JUMP JUMPDEST DUP9 DUP9 DUP7 DUP2 DUP2 LT PUSH2 0x3317 JUMPI INVALID JUMPDEST SWAP1 POP PUSH1 0x20 MUL DUP2 ADD SWAP1 PUSH2 0x3329 SWAP2 SWAP1 PUSH2 0x5C62 JUMP JUMPDEST PUSH1 0x40 MLOAD DUP6 PUSH4 0xFFFFFFFF AND PUSH1 0xE0 SHL DUP2 MSTORE PUSH1 0x4 ADD PUSH2 0x3348 SWAP5 SWAP4 SWAP3 SWAP2 SWAP1 PUSH2 0x58F6 JUMP JUMPDEST PUSH1 0x0 PUSH1 0x40 MLOAD DUP1 DUP4 SUB DUP2 PUSH1 0x0 DUP8 DUP1 EXTCODESIZE ISZERO DUP1 ISZERO PUSH2 0x3362 JUMPI PUSH1 0x0 DUP1 REVERT JUMPDEST POP GAS CALL ISZERO DUP1 ISZERO PUSH2 0x3376 JUMPI RETURNDATASIZE PUSH1 0x0 DUP1 RETURNDATACOPY RETURNDATASIZE PUSH1 0x0 REVERT JUMPDEST POP POP POP POP PUSH1 0x40 MLOAD RETURNDATASIZE PUSH1 0x0 DUP3 RETURNDATACOPY PUSH1 0x1F RETURNDATASIZE SWAP1 DUP2 ADD PUSH1 0x1F NOT AND DUP3 ADD PUSH1 0x40 MSTORE PUSH2 0x339E SWAP2 SWAP1 DUP2 ADD SWAP1 PUSH2 0x56A9 JUMP JUMPDEST POP PUSH1 0x1 ADD PUSH2 0x32B6 JUMP JUMPDEST POP PUSH1 0x0 PUSH2 0x33B2 PUSH2 0x44EF JUMP JUMPDEST SWAP1 POP PUSH1 0x0 JUMPDEST DUP3 DUP2 LT ISZERO PUSH2 0x3424 JUMPI PUSH2 0x341C DUP5 DUP5 DUP4 DUP2 DUP2 LT PUSH2 0x33CE JUMPI INVALID JUMPDEST SWAP1 POP PUSH1 0x20 MUL DUP2 ADD SWAP1 PUSH2 0x33E0 SWAP2 SWAP1 PUSH2 0x5CA9 JUMP JUMPDEST DUP1 DUP1 PUSH1 0x1F ADD PUSH1 0x20 DUP1 SWAP2 DIV MUL PUSH1 0x20 ADD PUSH1 0x40 MLOAD SWAP1 DUP2 ADD PUSH1 0x40 MSTORE DUP1 SWAP4 SWAP3 SWAP2 SWAP1 DUP2 DUP2 MSTORE PUSH1 0x20 ADD DUP4 DUP4 DUP1 DUP3 DUP5 CALLDATACOPY PUSH1 0x0 SWAP3 ADD SWAP2 SWAP1 SWAP2 MSTORE POP DUP7 SWAP3 POP PUSH2 0x4535 SWAP2 POP POP JUMP JUMPDEST PUSH1 0x1 ADD PUSH2 0x33B7 JUMP JUMPDEST POP POP POP POP POP POP POP POP JUMP JUMPDEST PUSH2 0x3436 PUSH2 0x5390 JUMP JUMPDEST PUSH1 0x0 PUSH2 0x3441 DUP4 PUSH2 0x47A2 JUMP JUMPDEST SWAP1 POP PUSH1 0x0 NOT DUP2 EQ PUSH2 0x3455 JUMPI PUSH2 0x378 DUP2 PUSH2 0x502 JUMP JUMPDEST PUSH2 0x34C9 DUP4 PUSH1 0x1 PUSH1 0x1 PUSH1 0xA0 SHL SUB AND PUSH4 0x6F307DC3 PUSH1 0x40 MLOAD DUP2 PUSH4 0xFFFFFFFF AND PUSH1 0xE0 SHL DUP2 MSTORE PUSH1 0x4 ADD PUSH1 0x20 PUSH1 0x40 MLOAD DUP1 DUP4 SUB DUP2 DUP7 DUP1 EXTCODESIZE ISZERO DUP1 ISZERO PUSH2 0x3491 JUMPI PUSH1 0x0 DUP1 REVERT JUMPDEST POP GAS STATICCALL ISZERO DUP1 ISZERO PUSH2 0x34A5 JUMPI RETURNDATASIZE PUSH1 0x0 DUP1 RETURNDATACOPY RETURNDATASIZE PUSH1 0x0 REVERT JUMPDEST POP POP POP POP PUSH1 0x40 MLOAD RETURNDATASIZE PUSH1 0x1F NOT PUSH1 0x1F DUP3 ADD AND DUP3 ADD DUP1 PUSH1 0x40 MSTORE POP DUP2 ADD SWAP1 PUSH2 0x218 SWAP2 SWAP1 PUSH2 0x5506 JUMP JUMPDEST SWAP4 SWAP3 POP POP POP JUMP JUMPDEST PUSH1 0x0 PUSH2 0x34DA PUSH2 0x5390 JUMP JUMPDEST PUSH2 0x34E3 DUP4 PUSH2 0x342E JUMP JUMPDEST SWAP1 POP DUP1 PUSH1 0x60 ADD MLOAD PUSH2 0x3509 PUSH13 0xC9F2C9CD04674EDEA40000000 PUSH2 0x3504 DUP5 PUSH2 0x4F60 JUMP JUMPDEST PUSH2 0x504F JUMP JUMPDEST DUP2 PUSH2 0x3510 JUMPI INVALID JUMPDEST DIV SWAP4 SWAP3 POP POP POP JUMP JUMPDEST PUSH1 0x0 PUSH2 0x3522 PUSH2 0x5390 JUMP JUMPDEST PUSH2 0x352B DUP4 PUSH2 0x3C5 JUMP JUMPDEST SWAP1 POP PUSH2 0x34C9 DUP2 PUSH2 0x4F60 JUMP JUMPDEST PUSH1 0x0 DUP1 PUSH1 0x0 PUSH2 0x3543 PUSH2 0x5089 JUMP JUMPDEST SWAP1 POP DUP4 PUSH1 0x1 PUSH1 0x1 PUSH1 0xA0 SHL SUB AND PUSH4 0x5909C0D5 PUSH1 0x40 MLOAD DUP2 PUSH4 0xFFFFFFFF AND PUSH1 0xE0 SHL DUP2 MSTORE PUSH1 0x4 ADD PUSH1 0x20 PUSH1 0x40 MLOAD DUP1 DUP4 SUB DUP2 DUP7 DUP1 EXTCODESIZE ISZERO DUP1 ISZERO PUSH2 0x357E JUMPI PUSH1 0x0 DUP1 REVERT JUMPDEST POP GAS STATICCALL ISZERO DUP1 ISZERO PUSH2 0x3592 JUMPI RETURNDATASIZE PUSH1 0x0 DUP1 RETURNDATACOPY RETURNDATASIZE PUSH1 0x0 REVERT JUMPDEST POP POP POP POP PUSH1 0x40 MLOAD RETURNDATASIZE PUSH1 0x1F NOT PUSH1 0x1F DUP3 ADD AND DUP3 ADD DUP1 PUSH1 0x40 MSTORE POP DUP2 ADD SWAP1 PUSH2 0x35B6 SWAP2 SWAP1 PUSH2 0x5775 JUMP JUMPDEST SWAP3 POP DUP4 PUSH1 0x1 PUSH1 0x1 PUSH1 0xA0 SHL SUB AND PUSH4 0x5A3D5493 PUSH1 0x40 MLOAD DUP2 PUSH4 0xFFFFFFFF AND PUSH1 0xE0 SHL DUP2 MSTORE PUSH1 0x4 ADD PUSH1 0x20 PUSH1 0x40 MLOAD DUP1 DUP4 SUB DUP2 DUP7 DUP1 EXTCODESIZE ISZERO DUP1 ISZERO PUSH2 0x35F1 JUMPI PUSH1 0x0 DUP1 REVERT JUMPDEST POP GAS STATICCALL ISZERO DUP1 ISZERO PUSH2 0x3605 JUMPI RETURNDATASIZE PUSH1 0x0 DUP1 RETURNDATACOPY RETURNDATASIZE PUSH1 0x0 REVERT JUMPDEST POP POP POP POP PUSH1 0x40 MLOAD RETURNDATASIZE PUSH1 0x1F NOT PUSH1 0x1F DUP3 ADD AND DUP3 ADD DUP1 PUSH1 0x40 MSTORE POP DUP2 ADD SWAP1 PUSH2 0x3629 SWAP2 SWAP1 PUSH2 0x5775 JUMP JUMPDEST SWAP2 POP PUSH1 0x0 DUP1 PUSH1 0x0 DUP7 PUSH1 0x1 PUSH1 0x1 PUSH1 0xA0 SHL SUB AND PUSH4 0x902F1AC PUSH1 0x40 MLOAD DUP2 PUSH4 0xFFFFFFFF AND PUSH1 0xE0 SHL DUP2 MSTORE PUSH1 0x4 ADD PUSH1 0x60 PUSH1 0x40 MLOAD DUP1 DUP4 SUB DUP2 DUP7 DUP1 EXTCODESIZE ISZERO DUP1 ISZERO PUSH2 0x3669 JUMPI PUSH1 0x0 DUP1 REVERT JUMPDEST POP GAS STATICCALL ISZERO DUP1 ISZERO PUSH2 0x367D JUMPI RETURNDATASIZE PUSH1 0x0 DUP1 RETURNDATACOPY RETURNDATASIZE PUSH1 0x0 REVERT JUMPDEST POP POP POP POP PUSH1 0x40 MLOAD RETURNDATASIZE PUSH1 0x1F NOT PUSH1 0x1F DUP3 ADD AND DUP3 ADD DUP1 PUSH1 0x40 MSTORE POP DUP2 ADD SWAP1 PUSH2 0x36A1 SWAP2 SWAP1 PUSH2 0x572C JUMP JUMPDEST SWAP3 POP SWAP3 POP SWAP3 POP DUP4 PUSH4 0xFFFFFFFF AND DUP2 PUSH4 0xFFFFFFFF AND EQ PUSH2 0x3701 JUMPI DUP1 DUP5 SUB PUSH4 0xFFFFFFFF DUP2 AND PUSH2 0x36CE DUP5 DUP7 PUSH2 0x370B JUMP JUMPDEST MLOAD PUSH1 0x1 PUSH1 0x1 PUSH1 0xE0 SHL SUB AND MUL SWAP7 SWAP1 SWAP7 ADD SWAP6 PUSH4 0xFFFFFFFF DUP2 AND PUSH2 0x36EF DUP6 DUP6 PUSH2 0x370B JUMP JUMPDEST MLOAD PUSH1 0x1 PUSH1 0x1 PUSH1 0xE0 SHL SUB AND MUL SWAP6 SWAP1 SWAP6 ADD SWAP5 POP JUMPDEST POP POP POP SWAP2 SWAP4 SWAP1 SWAP3 POP JUMP JUMPDEST PUSH2 0x3713 PUSH2 0x53D5 JUMP JUMPDEST PUSH1 0x0 DUP3 PUSH1 0x1 PUSH1 0x1 PUSH1 0x70 SHL SUB AND GT PUSH2 0x373C JUMPI PUSH1 0x40 MLOAD PUSH3 0x461BCD PUSH1 0xE5 SHL DUP2 MSTORE PUSH1 0x4 ADD PUSH2 0x398 SWAP1 PUSH2 0x5B87 JUMP JUMPDEST PUSH1 0x40 DUP1 MLOAD PUSH1 0x20 DUP2 ADD SWAP1 SWAP2 MSTORE DUP1 PUSH1 0x1 PUSH1 0x1 PUSH1 0x70 SHL SUB DUP5 AND PUSH14 0xFFFFFFFFFFFFFFFFFFFFFFFFFFFF PUSH1 0x70 SHL PUSH1 0x70 DUP8 SWAP1 SHL AND DUP2 PUSH2 0x3771 JUMPI INVALID JUMPDEST DIV PUSH1 0x1 PUSH1 0x1 PUSH1 0xE0 SHL SUB AND DUP2 MSTORE POP SWAP1 POP SWAP3 SWAP2 POP POP JUMP JUMPDEST PUSH1 0x0 PUSH32 0x0 DUP3 EQ ISZERO PUSH2 0x37B8 JUMPI POP PUSH1 0x0 PUSH2 0x34C JUMP JUMPDEST PUSH32 0x0 DUP3 EQ ISZERO PUSH2 0x37E8 JUMPI POP PUSH1 0x1 PUSH2 0x34C JUMP JUMPDEST PUSH32 0x0 DUP3 EQ ISZERO PUSH2 0x3818 JUMPI POP PUSH1 0x2 PUSH2 0x34C JUMP JUMPDEST PUSH32 0x0 DUP3 EQ ISZERO PUSH2 0x3848 JUMPI POP PUSH1 0x3 PUSH2 0x34C JUMP JUMPDEST PUSH32 0x0 DUP3 EQ ISZERO PUSH2 0x3878 JUMPI POP PUSH1 0x4 PUSH2 0x34C JUMP JUMPDEST PUSH32 0x0 DUP3 EQ ISZERO PUSH2 0x38A8 JUMPI POP PUSH1 0x5 PUSH2 0x34C JUMP JUMPDEST PUSH32 0x0 DUP3 EQ ISZERO PUSH2 0x38D8 JUMPI POP PUSH1 0x6 PUSH2 0x34C JUMP JUMPDEST PUSH32 0x0 DUP3 EQ ISZERO PUSH2 0x3908 JUMPI POP PUSH1 0x7 PUSH2 0x34C JUMP JUMPDEST PUSH32 0x0 DUP3 EQ ISZERO PUSH2 0x3938 JUMPI POP PUSH1 0x8 PUSH2 0x34C JUMP JUMPDEST PUSH32 0x0 DUP3 EQ ISZERO PUSH2 0x3968 JUMPI POP PUSH1 0x9 PUSH2 0x34C JUMP JUMPDEST PUSH32 0x0 DUP3 EQ ISZERO PUSH2 0x3998 JUMPI POP PUSH1 0xA PUSH2 0x34C JUMP JUMPDEST PUSH32 0x0 DUP3 EQ ISZERO PUSH2 0x39C8 JUMPI POP PUSH1 0xB PUSH2 0x34C JUMP JUMPDEST PUSH32 0x0 DUP3 EQ ISZERO PUSH2 0x39F8 JUMPI POP PUSH1 0xC PUSH2 0x34C JUMP JUMPDEST PUSH32 0x0 DUP3 EQ ISZERO PUSH2 0x3A28 JUMPI POP PUSH1 0xD PUSH2 0x34C JUMP JUMPDEST PUSH32 0x0 DUP3 EQ ISZERO PUSH2 0x3A58 JUMPI POP PUSH1 0xE PUSH2 0x34C JUMP JUMPDEST PUSH32 0x0 DUP3 EQ ISZERO PUSH2 0x3A88 JUMPI POP PUSH1 0xF PUSH2 0x34C JUMP JUMPDEST PUSH32 0x0 DUP3 EQ ISZERO PUSH2 0x3AB8 JUMPI POP PUSH1 0x10 PUSH2 0x34C JUMP JUMPDEST PUSH32 0x0 DUP3 EQ ISZERO PUSH2 0x3AE8 JUMPI POP PUSH1 0x11 PUSH2 0x34C JUMP JUMPDEST PUSH32 0x0 DUP3 EQ ISZERO PUSH2 0x3B18 JUMPI POP PUSH1 0x12 PUSH2 0x34C JUMP JUMPDEST PUSH32 0x0 DUP3 EQ ISZERO PUSH2 0x3B48 JUMPI POP PUSH1 0x13 PUSH2 0x34C JUMP JUMPDEST PUSH32 0x0 DUP3 EQ ISZERO PUSH2 0x3B78 JUMPI POP PUSH1 0x14 PUSH2 0x34C JUMP JUMPDEST PUSH32 0x0 DUP3 EQ ISZERO PUSH2 0x3BA8 JUMPI POP PUSH1 0x15 PUSH2 0x34C JUMP JUMPDEST PUSH32 0x0 DUP3 EQ ISZERO PUSH2 0x3BD8 JUMPI POP PUSH1 0x16 PUSH2 0x34C JUMP JUMPDEST PUSH32 0x0 DUP3 EQ ISZERO PUSH2 0x3C08 JUMPI POP PUSH1 0x17 PUSH2 0x34C JUMP JUMPDEST PUSH32 0x0 DUP3 EQ ISZERO PUSH2 0x3C38 JUMPI POP PUSH1 0x18 PUSH2 0x34C JUMP JUMPDEST PUSH32 0x0 DUP3 EQ ISZERO PUSH2 0x3C68 JUMPI POP PUSH1 0x19 PUSH2 0x34C JUMP JUMPDEST PUSH32 0x0 DUP3 EQ ISZERO PUSH2 0x3C98 JUMPI POP PUSH1 0x1A PUSH2 0x34C JUMP JUMPDEST PUSH32 0x0 DUP3 EQ ISZERO PUSH2 0x3CC8 JUMPI POP PUSH1 0x1B PUSH2 0x34C JUMP JUMPDEST PUSH32 0x0 DUP3 EQ ISZERO PUSH2 0x3CF8 JUMPI POP PUSH1 0x1C PUSH2 0x34C JUMP JUMPDEST PUSH32 0x0 DUP3 EQ ISZERO PUSH2 0x3D28 JUMPI POP PUSH1 0x1D PUSH2 0x34C JUMP JUMPDEST POP PUSH1 0x0 NOT SWAP2 SWAP1 POP JUMP JUMPDEST PUSH1 0x0 PUSH32 0x0 PUSH1 0x1 PUSH1 0x1 PUSH1 0xA0 SHL SUB AND DUP3 PUSH1 0x1 PUSH1 0x1 PUSH1 0xA0 SHL SUB AND EQ ISZERO PUSH2 0x3D75 JUMPI POP PUSH1 0x0 PUSH2 0x34C JUMP JUMPDEST PUSH32 0x0 PUSH1 0x1 PUSH1 0x1 PUSH1 0xA0 SHL SUB AND DUP3 PUSH1 0x1 PUSH1 0x1 PUSH1 0xA0 SHL SUB AND EQ ISZERO PUSH2 0x3DB7 JUMPI POP PUSH1 0x1 PUSH2 0x34C JUMP JUMPDEST PUSH32 0x0 PUSH1 0x1 PUSH1 0x1 PUSH1 0xA0 SHL SUB AND DUP3 PUSH1 0x1 PUSH1 0x1 PUSH1 0xA0 SHL SUB AND EQ ISZERO PUSH2 0x3DF9 JUMPI POP PUSH1 0x2 PUSH2 0x34C JUMP JUMPDEST PUSH32 0x0 PUSH1 0x1 PUSH1 0x1 PUSH1 0xA0 SHL SUB AND DUP3 PUSH1 0x1 PUSH1 0x1 PUSH1 0xA0 SHL SUB AND EQ ISZERO PUSH2 0x3E3B JUMPI POP PUSH1 0x3 PUSH2 0x34C JUMP JUMPDEST PUSH32 0x0 PUSH1 0x1 PUSH1 0x1 PUSH1 0xA0 SHL SUB AND DUP3 PUSH1 0x1 PUSH1 0x1 PUSH1 0xA0 SHL SUB AND EQ ISZERO PUSH2 0x3E7D JUMPI POP PUSH1 0x4 PUSH2 0x34C JUMP JUMPDEST PUSH32 0x0 PUSH1 0x1 PUSH1 0x1 PUSH1 0xA0 SHL SUB AND DUP3 PUSH1 0x1 PUSH1 0x1 PUSH1 0xA0 SHL SUB AND EQ ISZERO PUSH2 0x3EBF JUMPI POP PUSH1 0x5 PUSH2 0x34C JUMP JUMPDEST PUSH32 0x0 PUSH1 0x1 PUSH1 0x1 PUSH1 0xA0 SHL SUB AND DUP3 PUSH1 0x1 PUSH1 0x1 PUSH1 0xA0 SHL SUB AND EQ ISZERO PUSH2 0x3F01 JUMPI POP PUSH1 0x6 PUSH2 0x34C JUMP JUMPDEST PUSH32 0x0 PUSH1 0x1 PUSH1 0x1 PUSH1 0xA0 SHL SUB AND DUP3 PUSH1 0x1 PUSH1 0x1 PUSH1 0xA0 SHL SUB AND EQ ISZERO PUSH2 0x3F43 JUMPI POP PUSH1 0x7 PUSH2 0x34C JUMP JUMPDEST PUSH32 0x0 PUSH1 0x1 PUSH1 0x1 PUSH1 0xA0 SHL SUB AND DUP3 PUSH1 0x1 PUSH1 0x1 PUSH1 0xA0 SHL SUB AND EQ ISZERO PUSH2 0x3F85 JUMPI POP PUSH1 0x8 PUSH2 0x34C JUMP JUMPDEST PUSH32 0x0 PUSH1 0x1 PUSH1 0x1 PUSH1 0xA0 SHL SUB AND DUP3 PUSH1 0x1 PUSH1 0x1 PUSH1 0xA0 SHL SUB AND EQ ISZERO PUSH2 0x3FC7 JUMPI POP PUSH1 0x9 PUSH2 0x34C JUMP JUMPDEST PUSH32 0x0 PUSH1 0x1 PUSH1 0x1 PUSH1 0xA0 SHL SUB AND DUP3 PUSH1 0x1 PUSH1 0x1 PUSH1 0xA0 SHL SUB AND EQ ISZERO PUSH2 0x4009 JUMPI POP PUSH1 0xA PUSH2 0x34C JUMP JUMPDEST PUSH32 0x0 PUSH1 0x1 PUSH1 0x1 PUSH1 0xA0 SHL SUB AND DUP3 PUSH1 0x1 PUSH1 0x1 PUSH1 0xA0 SHL SUB AND EQ ISZERO PUSH2 0x404B JUMPI POP PUSH1 0xB PUSH2 0x34C JUMP JUMPDEST PUSH32 0x0 PUSH1 0x1 PUSH1 0x1 PUSH1 0xA0 SHL SUB AND DUP3 PUSH1 0x1 PUSH1 0x1 PUSH1 0xA0 SHL SUB AND EQ ISZERO PUSH2 0x408D JUMPI POP PUSH1 0xC PUSH2 0x34C JUMP JUMPDEST PUSH32 0x0 PUSH1 0x1 PUSH1 0x1 PUSH1 0xA0 SHL SUB AND DUP3 PUSH1 0x1 PUSH1 0x1 PUSH1 0xA0 SHL SUB AND EQ ISZERO PUSH2 0x40CF JUMPI POP PUSH1 0xD PUSH2 0x34C JUMP JUMPDEST PUSH32 0x0 PUSH1 0x1 PUSH1 0x1 PUSH1 0xA0 SHL SUB AND DUP3 PUSH1 0x1 PUSH1 0x1 PUSH1 0xA0 SHL SUB AND EQ ISZERO PUSH2 0x4111 JUMPI POP PUSH1 0xE PUSH2 0x34C JUMP JUMPDEST PUSH32 0x0 PUSH1 0x1 PUSH1 0x1 PUSH1 0xA0 SHL SUB AND DUP3 PUSH1 0x1 PUSH1 0x1 PUSH1 0xA0 SHL SUB AND EQ ISZERO PUSH2 0x4153 JUMPI POP PUSH1 0xF PUSH2 0x34C JUMP JUMPDEST PUSH32 0x0 PUSH1 0x1 PUSH1 0x1 PUSH1 0xA0 SHL SUB AND DUP3 PUSH1 0x1 PUSH1 0x1 PUSH1 0xA0 SHL SUB AND EQ ISZERO PUSH2 0x4195 JUMPI POP PUSH1 0x10 PUSH2 0x34C JUMP JUMPDEST PUSH32 0x0 PUSH1 0x1 PUSH1 0x1 PUSH1 0xA0 SHL SUB AND DUP3 PUSH1 0x1 PUSH1 0x1 PUSH1 0xA0 SHL SUB AND EQ ISZERO PUSH2 0x41D7 JUMPI POP PUSH1 0x11 PUSH2 0x34C JUMP JUMPDEST PUSH32 0x0 PUSH1 0x1 PUSH1 0x1 PUSH1 0xA0 SHL SUB AND DUP3 PUSH1 0x1 PUSH1 0x1 PUSH1 0xA0 SHL SUB AND EQ ISZERO PUSH2 0x4219 JUMPI POP PUSH1 0x12 PUSH2 0x34C JUMP JUMPDEST PUSH32 0x0 PUSH1 0x1 PUSH1 0x1 PUSH1 0xA0 SHL SUB AND DUP3 PUSH1 0x1 PUSH1 0x1 PUSH1 0xA0 SHL SUB AND EQ ISZERO PUSH2 0x425B JUMPI POP PUSH1 0x13 PUSH2 0x34C JUMP JUMPDEST PUSH32 0x0 PUSH1 0x1 PUSH1 0x1 PUSH1 0xA0 SHL SUB AND DUP3 PUSH1 0x1 PUSH1 0x1 PUSH1 0xA0 SHL SUB AND EQ ISZERO PUSH2 0x429D JUMPI POP PUSH1 0x14 PUSH2 0x34C JUMP JUMPDEST PUSH32 0x0 PUSH1 0x1 PUSH1 0x1 PUSH1 0xA0 SHL SUB AND DUP3 PUSH1 0x1 PUSH1 0x1 PUSH1 0xA0 SHL SUB AND EQ ISZERO PUSH2 0x42DF JUMPI POP PUSH1 0x15 PUSH2 0x34C JUMP JUMPDEST PUSH32 0x0 PUSH1 0x1 PUSH1 0x1 PUSH1 0xA0 SHL SUB AND DUP3 PUSH1 0x1 PUSH1 0x1 PUSH1 0xA0 SHL SUB AND EQ ISZERO PUSH2 0x4321 JUMPI POP PUSH1 0x16 PUSH2 0x34C JUMP JUMPDEST PUSH32 0x0 PUSH1 0x1 PUSH1 0x1 PUSH1 0xA0 SHL SUB AND DUP3 PUSH1 0x1 PUSH1 0x1 PUSH1 0xA0 SHL SUB AND EQ ISZERO PUSH2 0x4363 JUMPI POP PUSH1 0x17 PUSH2 0x34C JUMP JUMPDEST PUSH32 0x0 PUSH1 0x1 PUSH1 0x1 PUSH1 0xA0 SHL SUB AND DUP3 PUSH1 0x1 PUSH1 0x1 PUSH1 0xA0 SHL SUB AND EQ ISZERO PUSH2 0x43A5 JUMPI POP PUSH1 0x18 PUSH2 0x34C JUMP JUMPDEST PUSH32 0x0 PUSH1 0x1 PUSH1 0x1 PUSH1 0xA0 SHL SUB AND DUP3 PUSH1 0x1 PUSH1 0x1 PUSH1 0xA0 SHL SUB AND EQ ISZERO PUSH2 0x43E7 JUMPI POP PUSH1 0x19 PUSH2 0x34C JUMP JUMPDEST PUSH32 0x0 PUSH1 0x1 PUSH1 0x1 PUSH1 0xA0 SHL SUB AND DUP3 PUSH1 0x1 PUSH1 0x1 PUSH1 0xA0 SHL SUB AND EQ ISZERO PUSH2 0x4429 JUMPI POP PUSH1 0x1A PUSH2 0x34C JUMP JUMPDEST PUSH32 0x0 PUSH1 0x1 PUSH1 0x1 PUSH1 0xA0 SHL SUB AND DUP3 PUSH1 0x1 PUSH1 0x1 PUSH1 0xA0 SHL SUB AND EQ ISZERO PUSH2 0x446B JUMPI POP PUSH1 0x1B PUSH2 0x34C JUMP JUMPDEST PUSH32 0x0 PUSH1 0x1 PUSH1 0x1 PUSH1 0xA0 SHL SUB AND DUP3 PUSH1 0x1 PUSH1 0x1 PUSH1 0xA0 SHL SUB AND EQ ISZERO PUSH2 0x44AD JUMPI POP PUSH1 0x1C PUSH2 0x34C JUMP JUMPDEST PUSH32 0x0 PUSH1 0x1 PUSH1 0x1 PUSH1 0xA0 SHL SUB AND DUP3 PUSH1 0x1 PUSH1 0x1 PUSH1 0xA0 SHL SUB AND EQ ISZERO PUSH2 0x3D28 JUMPI POP PUSH1 0x1D PUSH2 0x34C JUMP JUMPDEST PUSH1 0x0 PUSH2 0x4530 PUSH1 0x40 MLOAD DUP1 PUSH1 0x40 ADD PUSH1 0x40 MSTORE DUP1 PUSH1 0x3 DUP2 MSTORE PUSH1 0x20 ADD PUSH3 0x8AA89 PUSH1 0xEB SHL DUP2 MSTORE POP PUSH2 0x4522 PUSH1 0x40 MLOAD PUSH1 0x20 ADD PUSH2 0x3E1 SWAP1 PUSH2 0x587D JUMP JUMPDEST PUSH8 0xDE0B6B3A7640000 PUSH2 0x5093 JUMP JUMPDEST SWAP1 POP SWAP1 JUMP JUMPDEST PUSH2 0x453D PUSH2 0x5390 JUMP JUMPDEST PUSH2 0x4546 DUP4 PUSH2 0x3C5 JUMP JUMPDEST SWAP1 POP PUSH1 0x2 DUP2 PUSH1 0x80 ADD MLOAD PUSH1 0x2 DUP2 GT ISZERO PUSH2 0x455A JUMPI INVALID JUMPDEST EQ PUSH2 0x4577 JUMPI PUSH1 0x40 MLOAD PUSH3 0x461BCD PUSH1 0xE5 SHL DUP2 MSTORE PUSH1 0x4 ADD PUSH2 0x398 SWAP1 PUSH2 0x5A55 JUMP JUMPDEST PUSH1 0x0 DUP4 PUSH1 0x40 MLOAD PUSH1 0x20 ADD PUSH2 0x458A SWAP2 SWAP1 PUSH2 0x581E JUMP JUMPDEST PUSH1 0x40 MLOAD PUSH1 0x20 DUP2 DUP4 SUB SUB DUP2 MSTORE SWAP1 PUSH1 0x40 MSTORE DUP1 MLOAD SWAP1 PUSH1 0x20 ADD KECCAK256 SWAP1 POP PUSH1 0x0 PUSH32 0x0 PUSH1 0x1 PUSH1 0x1 PUSH1 0xA0 SHL SUB AND PUSH4 0x76977A3A PUSH32 0x0 DUP8 PUSH1 0x40 MLOAD DUP4 PUSH4 0xFFFFFFFF AND PUSH1 0xE0 SHL DUP2 MSTORE PUSH1 0x4 ADD PUSH2 0x4612 SWAP3 SWAP2 SWAP1 PUSH2 0x58A0 JUMP JUMPDEST PUSH1 0x20 PUSH1 0x40 MLOAD DUP1 DUP4 SUB DUP2 DUP7 DUP1 EXTCODESIZE ISZERO DUP1 ISZERO PUSH2 0x462A JUMPI PUSH1 0x0 DUP1 REVERT JUMPDEST POP GAS STATICCALL ISZERO DUP1 ISZERO PUSH2 0x463E JUMPI RETURNDATASIZE PUSH1 0x0 DUP1 RETURNDATACOPY RETURNDATASIZE PUSH1 0x0 REVERT JUMPDEST POP POP POP POP PUSH1 0x40 MLOAD RETURNDATASIZE PUSH1 0x1F NOT PUSH1 0x1F DUP3 ADD AND DUP3 ADD DUP1 PUSH1 0x40 MSTORE POP DUP2 ADD SWAP1 PUSH2 0x4662 SWAP2 SWAP1 PUSH2 0x578D JUMP JUMPDEST PUSH8 0xFFFFFFFFFFFFFFFF AND SWAP1 POP PUSH1 0x0 PUSH1 0x40 MLOAD PUSH1 0x20 ADD PUSH2 0x467F SWAP1 PUSH2 0x587D JUMP JUMPDEST PUSH1 0x40 MLOAD PUSH1 0x20 DUP2 DUP4 SUB SUB DUP2 MSTORE SWAP1 PUSH1 0x40 MSTORE DUP1 MLOAD SWAP1 PUSH1 0x20 ADD KECCAK256 DUP4 EQ ISZERO PUSH2 0x46A3 JUMPI POP DUP4 PUSH2 0x46B1 JUMP JUMPDEST PUSH2 0x46AE DUP7 DUP6 DUP8 PUSH2 0x5093 JUMP JUMPDEST SWAP1 POP JUMPDEST PUSH1 0x1 SLOAD PUSH1 0xFF AND ISZERO PUSH2 0x470C JUMPI PUSH1 0x0 DUP4 DUP2 MSTORE PUSH1 0x20 DUP2 SWAP1 MSTORE PUSH1 0x40 SWAP1 DUP2 SWAP1 KECCAK256 DUP3 SWAP1 SSTORE MLOAD PUSH32 0x159E83F4712BA2552E68BE9D848E49BF6DD35C24F19564FFD523B6549450A2F4 SWAP1 PUSH2 0x46FF SWAP1 DUP9 SWAP1 DUP5 SWAP1 PUSH2 0x5928 JUMP JUMPDEST PUSH1 0x40 MLOAD DUP1 SWAP2 SUB SWAP1 LOG1 PUSH2 0x479A JUMP JUMPDEST PUSH2 0x4716 DUP3 DUP3 PUSH2 0x51AB JUMP JUMPDEST ISZERO PUSH2 0x475E JUMPI PUSH1 0x0 DUP4 DUP2 MSTORE PUSH1 0x20 DUP2 SWAP1 MSTORE PUSH1 0x40 SWAP1 DUP2 SWAP1 KECCAK256 DUP4 SWAP1 SSTORE MLOAD PUSH32 0x159E83F4712BA2552E68BE9D848E49BF6DD35C24F19564FFD523B6549450A2F4 SWAP1 PUSH2 0x46FF SWAP1 DUP9 SWAP1 DUP6 SWAP1 PUSH2 0x5928 JUMP JUMPDEST PUSH32 0x90756D4C8646A4591078ABAC0E4E32DFA8437921729E36D51B88B659D265BFDE DUP7 DUP4 DUP4 PUSH1 0x40 MLOAD PUSH2 0x4791 SWAP4 SWAP3 SWAP2 SWAP1 PUSH2 0x594A JUMP JUMPDEST PUSH1 0x40 MLOAD DUP1 SWAP2 SUB SWAP1 LOG1 JUMPDEST POP POP POP POP POP POP JUMP JUMPDEST PUSH1 0x0 PUSH32 0x0 PUSH1 0x1 PUSH1 0x1 PUSH1 0xA0 SHL SUB AND DUP3 PUSH1 0x1 PUSH1 0x1 PUSH1 0xA0 SHL SUB AND EQ ISZERO PUSH2 0x47E6 JUMPI POP PUSH1 0x0 PUSH2 0x34C JUMP JUMPDEST PUSH32 0x0 PUSH1 0x1 PUSH1 0x1 PUSH1 0xA0 SHL SUB AND DUP3 PUSH1 0x1 PUSH1 0x1 PUSH1 0xA0 SHL SUB AND EQ ISZERO PUSH2 0x4828 JUMPI POP PUSH1 0x1 PUSH2 0x34C JUMP JUMPDEST PUSH32 0x0 PUSH1 0x1 PUSH1 0x1 PUSH1 0xA0 SHL SUB AND DUP3 PUSH1 0x1 PUSH1 0x1 PUSH1 0xA0 SHL SUB AND EQ ISZERO PUSH2 0x486A JUMPI POP PUSH1 0x2 PUSH2 0x34C JUMP JUMPDEST PUSH32 0x0 PUSH1 0x1 PUSH1 0x1 PUSH1 0xA0 SHL SUB AND DUP3 PUSH1 0x1 PUSH1 0x1 PUSH1 0xA0 SHL SUB AND EQ ISZERO PUSH2 0x48AC JUMPI POP PUSH1 0x3 PUSH2 0x34C JUMP JUMPDEST PUSH32 0x0 PUSH1 0x1 PUSH1 0x1 PUSH1 0xA0 SHL SUB AND DUP3 PUSH1 0x1 PUSH1 0x1 PUSH1 0xA0 SHL SUB AND EQ ISZERO PUSH2 0x48EE JUMPI POP PUSH1 0x4 PUSH2 0x34C JUMP JUMPDEST PUSH32 0x0 PUSH1 0x1 PUSH1 0x1 PUSH1 0xA0 SHL SUB AND DUP3 PUSH1 0x1 PUSH1 0x1 PUSH1 0xA0 SHL SUB AND EQ ISZERO PUSH2 0x4930 JUMPI POP PUSH1 0x5 PUSH2 0x34C JUMP JUMPDEST PUSH32 0x0 PUSH1 0x1 PUSH1 0x1 PUSH1 0xA0 SHL SUB AND DUP3 PUSH1 0x1 PUSH1 0x1 PUSH1 0xA0 SHL SUB AND EQ ISZERO PUSH2 0x4972 JUMPI POP PUSH1 0x6 PUSH2 0x34C JUMP JUMPDEST PUSH32 0x0 PUSH1 0x1 PUSH1 0x1 PUSH1 0xA0 SHL SUB AND DUP3 PUSH1 0x1 PUSH1 0x1 PUSH1 0xA0 SHL SUB AND EQ ISZERO PUSH2 0x49B4 JUMPI POP PUSH1 0x7 PUSH2 0x34C JUMP JUMPDEST PUSH32 0x0 PUSH1 0x1 PUSH1 0x1 PUSH1 0xA0 SHL SUB AND DUP3 PUSH1 0x1 PUSH1 0x1 PUSH1 0xA0 SHL SUB AND EQ ISZERO PUSH2 0x49F6 JUMPI POP PUSH1 0x8 PUSH2 0x34C JUMP JUMPDEST PUSH32 0x0 PUSH1 0x1 PUSH1 0x1 PUSH1 0xA0 SHL SUB AND DUP3 PUSH1 0x1 PUSH1 0x1 PUSH1 0xA0 SHL SUB AND EQ ISZERO PUSH2 0x4A38 JUMPI POP PUSH1 0x9 PUSH2 0x34C JUMP JUMPDEST PUSH32 0x0 PUSH1 0x1 PUSH1 0x1 PUSH1 0xA0 SHL SUB AND DUP3 PUSH1 0x1 PUSH1 0x1 PUSH1 0xA0 SHL SUB AND EQ ISZERO PUSH2 0x4A7A JUMPI POP PUSH1 0xA PUSH2 0x34C JUMP JUMPDEST PUSH32 0x0 PUSH1 0x1 PUSH1 0x1 PUSH1 0xA0 SHL SUB AND DUP3 PUSH1 0x1 PUSH1 0x1 PUSH1 0xA0 SHL SUB AND EQ ISZERO PUSH2 0x4ABC JUMPI POP PUSH1 0xB PUSH2 0x34C JUMP JUMPDEST PUSH32 0x0 PUSH1 0x1 PUSH1 0x1 PUSH1 0xA0 SHL SUB AND DUP3 PUSH1 0x1 PUSH1 0x1 PUSH1 0xA0 SHL SUB AND EQ ISZERO PUSH2 0x4AFE JUMPI POP PUSH1 0xC PUSH2 0x34C JUMP JUMPDEST PUSH32 0x0 PUSH1 0x1 PUSH1 0x1 PUSH1 0xA0 SHL SUB AND DUP3 PUSH1 0x1 PUSH1 0x1 PUSH1 0xA0 SHL SUB AND EQ ISZERO PUSH2 0x4B40 JUMPI POP PUSH1 0xD PUSH2 0x34C JUMP JUMPDEST PUSH32 0x0 PUSH1 0x1 PUSH1 0x1 PUSH1 0xA0 SHL SUB AND DUP3 PUSH1 0x1 PUSH1 0x1 PUSH1 0xA0 SHL SUB AND EQ ISZERO PUSH2 0x4B82 JUMPI POP PUSH1 0xE PUSH2 0x34C JUMP JUMPDEST PUSH32 0x0 PUSH1 0x1 PUSH1 0x1 PUSH1 0xA0 SHL SUB AND DUP3 PUSH1 0x1 PUSH1 0x1 PUSH1 0xA0 SHL SUB AND EQ ISZERO PUSH2 0x4BC4 JUMPI POP PUSH1 0xF PUSH2 0x34C JUMP JUMPDEST PUSH32 0x0 PUSH1 0x1 PUSH1 0x1 PUSH1 0xA0 SHL SUB AND DUP3 PUSH1 0x1 PUSH1 0x1 PUSH1 0xA0 SHL SUB AND EQ ISZERO PUSH2 0x4C06 JUMPI POP PUSH1 0x10 PUSH2 0x34C JUMP JUMPDEST PUSH32 0x0 PUSH1 0x1 PUSH1 0x1 PUSH1 0xA0 SHL SUB AND DUP3 PUSH1 0x1 PUSH1 0x1 PUSH1 0xA0 SHL SUB AND EQ ISZERO PUSH2 0x4C48 JUMPI POP PUSH1 0x11 PUSH2 0x34C JUMP JUMPDEST PUSH32 0x0 PUSH1 0x1 PUSH1 0x1 PUSH1 0xA0 SHL SUB AND DUP3 PUSH1 0x1 PUSH1 0x1 PUSH1 0xA0 SHL SUB AND EQ ISZERO PUSH2 0x4C8A JUMPI POP PUSH1 0x12 PUSH2 0x34C JUMP JUMPDEST PUSH32 0x0 PUSH1 0x1 PUSH1 0x1 PUSH1 0xA0 SHL SUB AND DUP3 PUSH1 0x1 PUSH1 0x1 PUSH1 0xA0 SHL SUB AND EQ ISZERO PUSH2 0x4CCC JUMPI POP PUSH1 0x13 PUSH2 0x34C JUMP JUMPDEST PUSH32 0x0 PUSH1 0x1 PUSH1 0x1 PUSH1 0xA0 SHL SUB AND DUP3 PUSH1 0x1 PUSH1 0x1 PUSH1 0xA0 SHL SUB AND EQ ISZERO PUSH2 0x4D0E JUMPI POP PUSH1 0x14 PUSH2 0x34C JUMP JUMPDEST PUSH32 0x0 PUSH1 0x1 PUSH1 0x1 PUSH1 0xA0 SHL SUB AND DUP3 PUSH1 0x1 PUSH1 0x1 PUSH1 0xA0 SHL SUB AND EQ ISZERO PUSH2 0x4D50 JUMPI POP PUSH1 0x15 PUSH2 0x34C JUMP JUMPDEST PUSH32 0x0 PUSH1 0x1 PUSH1 0x1 PUSH1 0xA0 SHL SUB AND DUP3 PUSH1 0x1 PUSH1 0x1 PUSH1 0xA0 SHL SUB AND EQ ISZERO PUSH2 0x4D92 JUMPI POP PUSH1 0x16 PUSH2 0x34C JUMP JUMPDEST PUSH32 0x0 PUSH1 0x1 PUSH1 0x1 PUSH1 0xA0 SHL SUB AND DUP3 PUSH1 0x1 PUSH1 0x1 PUSH1 0xA0 SHL SUB AND EQ ISZERO PUSH2 0x4DD4 JUMPI POP PUSH1 0x17 PUSH2 0x34C JUMP JUMPDEST PUSH32 0x0 PUSH1 0x1 PUSH1 0x1 PUSH1 0xA0 SHL SUB AND DUP3 PUSH1 0x1 PUSH1 0x1 PUSH1 0xA0 SHL SUB AND EQ ISZERO PUSH2 0x4E16 JUMPI POP PUSH1 0x18 PUSH2 0x34C JUMP JUMPDEST PUSH32 0x0 PUSH1 0x1 PUSH1 0x1 PUSH1 0xA0 SHL SUB AND DUP3 PUSH1 0x1 PUSH1 0x1 PUSH1 0xA0 SHL SUB AND EQ ISZERO PUSH2 0x4E58 JUMPI POP PUSH1 0x19 PUSH2 0x34C JUMP JUMPDEST PUSH32 0x0 PUSH1 0x1 PUSH1 0x1 PUSH1 0xA0 SHL SUB AND DUP3 PUSH1 0x1 PUSH1 0x1 PUSH1 0xA0 SHL SUB AND EQ ISZERO PUSH2 0x4E9A JUMPI POP PUSH1 0x1A PUSH2 0x34C JUMP JUMPDEST PUSH32 0x0 PUSH1 0x1 PUSH1 0x1 PUSH1 0xA0 SHL SUB AND DUP3 PUSH1 0x1 PUSH1 0x1 PUSH1 0xA0 SHL SUB AND EQ ISZERO PUSH2 0x4EDC JUMPI POP PUSH1 0x1B PUSH2 0x34C JUMP JUMPDEST PUSH32 0x0 PUSH1 0x1 PUSH1 0x1 PUSH1 0xA0 SHL SUB AND DUP3 PUSH1 0x1 PUSH1 0x1 PUSH1 0xA0 SHL SUB AND EQ ISZERO PUSH2 0x4F1E JUMPI POP PUSH1 0x1C PUSH2 0x34C JUMP JUMPDEST PUSH32 0x0 PUSH1 0x1 PUSH1 0x1 PUSH1 0xA0 SHL SUB AND DUP3 PUSH1 0x1 PUSH1 0x1 PUSH1 0xA0 SHL SUB AND EQ ISZERO PUSH2 0x3D28 JUMPI POP PUSH1 0x1D PUSH2 0x34C JUMP JUMPDEST PUSH1 0x0 PUSH1 0x2 DUP3 PUSH1 0x80 ADD MLOAD PUSH1 0x2 DUP2 GT ISZERO PUSH2 0x4F74 JUMPI INVALID JUMPDEST EQ ISZERO PUSH2 0x4F92 JUMPI POP PUSH1 0x40 DUP1 DUP3 ADD MLOAD PUSH1 0x0 SWAP1 DUP2 MSTORE PUSH1 0x20 DUP2 SWAP1 MSTORE KECCAK256 SLOAD PUSH2 0x34C JUMP JUMPDEST PUSH1 0x1 DUP3 PUSH1 0x80 ADD MLOAD PUSH1 0x2 DUP2 GT ISZERO PUSH2 0x4FA4 JUMPI INVALID JUMPDEST EQ ISZERO PUSH2 0x4FB5 JUMPI POP PUSH1 0xA0 DUP2 ADD MLOAD PUSH2 0x34C JUMP JUMPDEST PUSH1 0x0 DUP3 PUSH1 0x80 ADD MLOAD PUSH1 0x2 DUP2 GT ISZERO PUSH2 0x4FC7 JUMPI INVALID JUMPDEST EQ ISZERO PUSH2 0x34C JUMPI PUSH1 0x0 DUP1 PUSH1 0x0 PUSH1 0x40 MLOAD PUSH1 0x20 ADD PUSH2 0x4FE1 SWAP1 PUSH2 0x587D JUMP JUMPDEST PUSH1 0x40 MLOAD PUSH1 0x20 DUP2 DUP4 SUB SUB DUP2 MSTORE SWAP1 PUSH1 0x40 MSTORE DUP1 MLOAD SWAP1 PUSH1 0x20 ADD KECCAK256 DUP2 MSTORE PUSH1 0x20 ADD SWAP1 DUP2 MSTORE PUSH1 0x20 ADD PUSH1 0x0 KECCAK256 SLOAD SWAP1 POP PUSH1 0x0 DUP2 GT PUSH2 0x5028 JUMPI PUSH1 0x40 MLOAD PUSH3 0x461BCD PUSH1 0xE5 SHL DUP2 MSTORE PUSH1 0x4 ADD PUSH2 0x398 SWAP1 PUSH2 0x5AF8 JUMP JUMPDEST PUSH8 0xDE0B6B3A7640000 PUSH2 0x503F DUP3 DUP6 PUSH1 0xA0 ADD MLOAD PUSH2 0x504F JUMP JUMPDEST DUP2 PUSH2 0x5046 JUMPI INVALID JUMPDEST DIV SWAP2 POP POP PUSH2 0x34C JUMP JUMPDEST PUSH1 0x0 DUP3 PUSH2 0x505E JUMPI POP PUSH1 0x0 PUSH2 0x3FC JUMP JUMPDEST DUP3 DUP3 MUL DUP3 DUP5 DUP3 DUP2 PUSH2 0x506B JUMPI INVALID JUMPDEST DIV EQ PUSH2 0x34C9 JUMPI PUSH1 0x40 MLOAD PUSH3 0x461BCD PUSH1 0xE5 SHL DUP2 MSTORE PUSH1 0x4 ADD PUSH2 0x398 SWAP1 PUSH2 0x599E JUMP JUMPDEST PUSH4 0xFFFFFFFF TIMESTAMP AND SWAP1 JUMP JUMPDEST PUSH1 0x0 DUP1 PUSH1 0x0 DUP1 PUSH2 0x50A2 DUP7 PUSH2 0x5233 JUMP JUMPDEST SWAP3 POP SWAP3 POP SWAP3 POP DUP1 TIMESTAMP GT PUSH2 0x50C7 JUMPI PUSH1 0x40 MLOAD PUSH3 0x461BCD PUSH1 0xE5 SHL DUP2 MSTORE PUSH1 0x4 ADD PUSH2 0x398 SWAP1 PUSH2 0x5A8C JUMP JUMPDEST TIMESTAMP DUP2 SWAP1 SUB PUSH2 0x50D3 PUSH2 0x53D5 JUMP JUMPDEST PUSH1 0x40 MLOAD DUP1 PUSH1 0x20 ADD PUSH1 0x40 MSTORE DUP1 DUP4 DUP7 DUP9 SUB DUP2 PUSH2 0x50E9 JUMPI INVALID JUMPDEST DIV PUSH1 0x1 PUSH1 0x1 PUSH1 0xE0 SHL SUB AND DUP2 MSTORE POP SWAP1 POP PUSH1 0x0 PUSH2 0x5103 DUP3 PUSH2 0x5346 JUMP JUMPDEST SWAP1 POP PUSH1 0x0 PUSH2 0x5111 DUP3 DUP11 PUSH2 0x504F JUMP JUMPDEST SWAP1 POP PUSH1 0x0 DUP11 PUSH1 0xE0 ADD MLOAD ISZERO PUSH2 0x5134 JUMPI DUP11 PUSH1 0x60 ADD MLOAD DUP3 DUP2 PUSH2 0x512C JUMPI INVALID JUMPDEST DIV SWAP1 POP PUSH2 0x515F JUMP JUMPDEST PUSH8 0xDE0B6B3A7640000 DUP1 PUSH2 0x514C DUP5 DUP15 PUSH1 0x60 ADD MLOAD PUSH2 0x504F JUMP JUMPDEST DUP2 PUSH2 0x5153 JUMPI INVALID JUMPDEST DIV DUP2 PUSH2 0x515B JUMPI INVALID JUMPDEST DIV SWAP1 POP JUMPDEST PUSH32 0xF63D078E0DE851897107641E96093A59E5DDC3C25E7B85A2585E3EBA9E774A7B DUP13 DUP3 DUP9 TIMESTAMP PUSH1 0x40 MLOAD PUSH2 0x5194 SWAP5 SWAP4 SWAP3 SWAP2 SWAP1 PUSH2 0x596F JUMP JUMPDEST PUSH1 0x40 MLOAD DUP1 SWAP2 SUB SWAP1 LOG1 SWAP12 SWAP11 POP POP POP POP POP POP POP POP POP POP POP JUMP JUMPDEST PUSH1 0x0 DUP3 ISZERO PUSH2 0x522A JUMPI PUSH1 0x0 DUP4 PUSH2 0x51C8 DUP5 PUSH8 0xDE0B6B3A7640000 PUSH2 0x504F JUMP JUMPDEST DUP2 PUSH2 0x51CF JUMPI INVALID JUMPDEST DIV SWAP1 POP PUSH32 0x0 DUP2 GT ISZERO DUP1 ISZERO PUSH2 0x5222 JUMPI POP PUSH32 0x0 DUP2 LT ISZERO JUMPDEST SWAP2 POP POP PUSH2 0x3FC JUMP JUMPDEST POP PUSH1 0x0 SWAP3 SWAP2 POP POP JUMP JUMPDEST PUSH1 0x0 DUP1 PUSH1 0x0 DUP1 DUP5 PUSH1 0x40 ADD MLOAD SWAP1 POP PUSH1 0x0 PUSH2 0x524B DUP7 PUSH2 0x535E JUMP JUMPDEST SWAP1 POP PUSH2 0x5255 PUSH2 0x53E7 JUMP JUMPDEST POP PUSH1 0x0 DUP3 DUP2 MSTORE PUSH1 0x3 PUSH1 0x20 SWAP1 DUP2 MSTORE PUSH1 0x40 SWAP2 DUP3 SWAP1 KECCAK256 DUP3 MLOAD DUP1 DUP5 ADD SWAP1 SWAP4 MSTORE DUP1 SLOAD DUP1 DUP5 MSTORE PUSH1 0x1 SWAP1 SWAP2 ADD SLOAD SWAP2 DUP4 ADD SWAP2 SWAP1 SWAP2 MSTORE TIMESTAMP SUB PUSH32 0x0 DUP2 LT PUSH2 0x5321 JUMPI DUP2 MLOAD PUSH1 0x0 DUP6 DUP2 MSTORE PUSH1 0x2 PUSH1 0x20 SWAP1 DUP2 MSTORE PUSH1 0x40 DUP1 DUP4 KECCAK256 SWAP4 DUP5 SSTORE DUP2 DUP7 ADD DUP1 MLOAD PUSH1 0x1 SWAP6 DUP7 ADD SSTORE PUSH1 0x3 SWAP1 SWAP3 MSTORE SWAP2 DUP3 SWAP1 KECCAK256 TIMESTAMP DUP1 DUP3 SSTORE SWAP4 ADD DUP7 SWAP1 SSTORE DUP11 DUP3 ADD MLOAD DUP6 MLOAD SWAP2 MLOAD SWAP3 MLOAD SWAP1 SWAP4 PUSH32 0xE37D39315E3419C0937360F1AC88F2C52ECF67E3B22B367F82047DDB4591904A SWAP4 PUSH2 0x5318 SWAP4 SWAP3 DUP10 SWAP1 PUSH2 0x5C47 JUMP JUMPDEST PUSH1 0x40 MLOAD DUP1 SWAP2 SUB SWAP1 LOG2 JUMPDEST POP POP PUSH1 0x0 SWAP2 DUP3 MSTORE PUSH1 0x2 PUSH1 0x20 MSTORE PUSH1 0x40 SWAP1 SWAP2 KECCAK256 PUSH1 0x1 DUP2 ADD SLOAD SWAP1 SLOAD SWAP2 SWAP7 SWAP1 SWAP6 POP SWAP1 SWAP4 POP SWAP2 POP POP JUMP JUMPDEST MLOAD PUSH7 0x12725DD1D243AB PUSH1 0x1 PUSH1 0x1 PUSH1 0xE0 SHL SUB SWAP1 SWAP2 AND DIV SWAP1 JUMP JUMPDEST PUSH1 0x0 DUP1 PUSH1 0x0 PUSH2 0x5370 DUP5 PUSH1 0xC0 ADD MLOAD PUSH2 0x3536 JUMP JUMPDEST POP SWAP2 POP SWAP2 POP DUP4 PUSH1 0xE0 ADD MLOAD ISZERO PUSH2 0x5388 JUMPI SWAP2 POP PUSH2 0x34C SWAP1 POP JUMP JUMPDEST POP SWAP1 POP PUSH2 0x34C JUMP JUMPDEST PUSH1 0x40 DUP1 MLOAD PUSH2 0x100 DUP2 ADD DUP3 MSTORE PUSH1 0x0 DUP1 DUP3 MSTORE PUSH1 0x20 DUP3 ADD DUP2 SWAP1 MSTORE SWAP2 DUP2 ADD DUP3 SWAP1 MSTORE PUSH1 0x60 DUP2 ADD DUP3 SWAP1 MSTORE SWAP1 PUSH1 0x80 DUP3 ADD SWAP1 DUP2 MSTORE PUSH1 0x0 PUSH1 0x20 DUP3 ADD DUP2 SWAP1 MSTORE PUSH1 0x40 DUP3 ADD DUP2 SWAP1 MSTORE PUSH1 0x60 SWAP1 SWAP2 ADD MSTORE SWAP1 JUMP JUMPDEST PUSH1 0x40 DUP1 MLOAD PUSH1 0x20 DUP2 ADD SWAP1 SWAP2 MSTORE PUSH1 0x0 DUP2 MSTORE SWAP1 JUMP JUMPDEST PUSH1 0x40 MLOAD DUP1 PUSH1 0x40 ADD PUSH1 0x40 MSTORE DUP1 PUSH1 0x0 DUP2 MSTORE PUSH1 0x20 ADD PUSH1 0x0 DUP2 MSTORE POP SWAP1 JUMP JUMPDEST PUSH1 0x0 DUP1 DUP4 PUSH1 0x1F DUP5 ADD SLT PUSH2 0x5412 JUMPI DUP2 DUP3 REVERT JUMPDEST POP DUP2 CALLDATALOAD PUSH8 0xFFFFFFFFFFFFFFFF DUP2 GT ISZERO PUSH2 0x5429 JUMPI DUP2 DUP3 REVERT JUMPDEST PUSH1 0x20 DUP4 ADD SWAP2 POP DUP4 PUSH1 0x20 DUP1 DUP4 MUL DUP6 ADD ADD GT ISZERO PUSH2 0x5443 JUMPI PUSH1 0x0 DUP1 REVERT JUMPDEST SWAP3 POP SWAP3 SWAP1 POP JUMP JUMPDEST PUSH1 0x0 DUP3 PUSH1 0x1F DUP4 ADD SLT PUSH2 0x545A JUMPI DUP1 DUP2 REVERT JUMPDEST DUP2 CALLDATALOAD PUSH2 0x546D PUSH2 0x5468 DUP3 PUSH2 0x5CE6 JUMP JUMPDEST PUSH2 0x5CBF JUMP JUMPDEST SWAP2 POP DUP1 DUP3 MSTORE DUP4 PUSH1 0x20 DUP3 DUP6 ADD ADD GT ISZERO PUSH2 0x5484 JUMPI PUSH1 0x0 DUP1 REVERT JUMPDEST DUP1 PUSH1 0x20 DUP5 ADD PUSH1 0x20 DUP5 ADD CALLDATACOPY PUSH1 0x0 SWAP1 DUP3 ADD PUSH1 0x20 ADD MSTORE SWAP3 SWAP2 POP POP JUMP JUMPDEST PUSH1 0x0 DUP3 PUSH1 0x1F DUP4 ADD SLT PUSH2 0x54AD JUMPI DUP1 DUP2 REVERT JUMPDEST DUP2 MLOAD PUSH2 0x54BB PUSH2 0x5468 DUP3 PUSH2 0x5CE6 JUMP JUMPDEST SWAP2 POP DUP1 DUP3 MSTORE DUP4 PUSH1 0x20 DUP3 DUP6 ADD ADD GT ISZERO PUSH2 0x54D2 JUMPI PUSH1 0x0 DUP1 REVERT JUMPDEST PUSH2 0x54E3 DUP2 PUSH1 0x20 DUP5 ADD PUSH1 0x20 DUP7 ADD PUSH2 0x5D0A JUMP JUMPDEST POP SWAP3 SWAP2 POP POP JUMP JUMPDEST PUSH1 0x0 PUSH1 0x20 DUP3 DUP5 SUB SLT ISZERO PUSH2 0x54FB JUMPI DUP1 DUP2 REVERT JUMPDEST DUP2 CALLDATALOAD PUSH2 0x34C9 DUP2 PUSH2 0x5D3A JUMP JUMPDEST PUSH1 0x0 PUSH1 0x20 DUP3 DUP5 SUB SLT ISZERO PUSH2 0x5517 JUMPI DUP1 DUP2 REVERT JUMPDEST DUP2 MLOAD PUSH2 0x34C9 DUP2 PUSH2 0x5D3A JUMP JUMPDEST PUSH1 0x0 DUP1 PUSH1 0x0 DUP1 PUSH1 0x0 DUP1 PUSH1 0x60 DUP8 DUP10 SUB SLT ISZERO PUSH2 0x553A JUMPI DUP2 DUP3 REVERT JUMPDEST DUP7 CALLDATALOAD PUSH8 0xFFFFFFFFFFFFFFFF DUP1 DUP3 GT ISZERO PUSH2 0x5551 JUMPI DUP4 DUP5 REVERT JUMPDEST PUSH2 0x555D DUP11 DUP4 DUP12 ADD PUSH2 0x5401 JUMP JUMPDEST SWAP1 SWAP9 POP SWAP7 POP PUSH1 0x20 DUP10 ADD CALLDATALOAD SWAP2 POP DUP1 DUP3 GT ISZERO PUSH2 0x5575 JUMPI DUP4 DUP5 REVERT JUMPDEST PUSH2 0x5581 DUP11 DUP4 DUP12 ADD PUSH2 0x5401 JUMP JUMPDEST SWAP1 SWAP7 POP SWAP5 POP PUSH1 0x40 DUP10 ADD CALLDATALOAD SWAP2 POP DUP1 DUP3 GT ISZERO PUSH2 0x5599 JUMPI DUP4 DUP5 REVERT JUMPDEST POP PUSH2 0x55A6 DUP10 DUP3 DUP11 ADD PUSH2 0x5401 JUMP JUMPDEST SWAP8 SWAP11 SWAP7 SWAP10 POP SWAP5 SWAP8 POP SWAP3 SWAP6 SWAP4 SWAP5 SWAP3 POP POP POP JUMP JUMPDEST PUSH1 0x0 PUSH1 0x20 DUP3 DUP5 SUB SLT ISZERO PUSH2 0x55C9 JUMPI DUP1 DUP2 REVERT JUMPDEST POP CALLDATALOAD SWAP2 SWAP1 POP JUMP JUMPDEST PUSH1 0x0 DUP1 PUSH1 0x0 PUSH1 0x60 DUP5 DUP7 SUB SLT ISZERO PUSH2 0x55E4 JUMPI DUP3 DUP4 REVERT JUMPDEST DUP4 MLOAD SWAP3 POP PUSH1 0x20 DUP5 ADD MLOAD SWAP2 POP PUSH1 0x40 DUP5 ADD MLOAD PUSH1 0xFF DUP2 AND DUP2 EQ PUSH2 0x5602 JUMPI DUP2 DUP3 REVERT JUMPDEST DUP1 SWAP2 POP POP SWAP3 POP SWAP3 POP SWAP3 JUMP JUMPDEST PUSH1 0x0 DUP1 PUSH1 0x40 DUP4 DUP6 SUB SLT ISZERO PUSH2 0x561F JUMPI DUP2 DUP3 REVERT JUMPDEST DUP3 CALLDATALOAD PUSH8 0xFFFFFFFFFFFFFFFF DUP1 DUP3 GT ISZERO PUSH2 0x5636 JUMPI DUP4 DUP5 REVERT JUMPDEST PUSH2 0x5642 DUP7 DUP4 DUP8 ADD PUSH2 0x544A JUMP JUMPDEST SWAP4 POP PUSH1 0x20 DUP6 ADD CALLDATALOAD SWAP2 POP DUP1 DUP3 GT ISZERO PUSH2 0x5657 JUMPI DUP3 DUP4 REVERT JUMPDEST POP PUSH2 0x5664 DUP6 DUP3 DUP7 ADD PUSH2 0x544A JUMP JUMPDEST SWAP2 POP POP SWAP3 POP SWAP3 SWAP1 POP JUMP JUMPDEST PUSH1 0x0 PUSH1 0x20 DUP3 DUP5 SUB SLT ISZERO PUSH2 0x567F JUMPI DUP1 DUP2 REVERT JUMPDEST DUP2 CALLDATALOAD PUSH8 0xFFFFFFFFFFFFFFFF DUP2 GT ISZERO PUSH2 0x5695 JUMPI DUP2 DUP3 REVERT JUMPDEST PUSH2 0x56A1 DUP5 DUP3 DUP6 ADD PUSH2 0x544A JUMP JUMPDEST SWAP5 SWAP4 POP POP POP POP JUMP JUMPDEST PUSH1 0x0 PUSH1 0x20 DUP3 DUP5 SUB SLT ISZERO PUSH2 0x56BA JUMPI DUP1 DUP2 REVERT JUMPDEST DUP2 MLOAD PUSH8 0xFFFFFFFFFFFFFFFF DUP2 GT ISZERO PUSH2 0x56D0 JUMPI DUP2 DUP3 REVERT JUMPDEST PUSH2 0x56A1 DUP5 DUP3 DUP6 ADD PUSH2 0x549D JUMP JUMPDEST PUSH1 0x0 DUP1 PUSH1 0x40 DUP4 DUP6 SUB SLT ISZERO PUSH2 0x56EE JUMPI DUP2 DUP3 REVERT JUMPDEST DUP3 MLOAD PUSH8 0xFFFFFFFFFFFFFFFF DUP2 GT ISZERO PUSH2 0x5704 JUMPI DUP3 DUP4 REVERT JUMPDEST PUSH2 0x5710 DUP6 DUP3 DUP7 ADD PUSH2 0x549D JUMP JUMPDEST SWAP3 POP POP PUSH1 0x20 DUP4 ADD MLOAD PUSH2 0x5721 DUP2 PUSH2 0x5D3A JUMP JUMPDEST DUP1 SWAP2 POP POP SWAP3 POP SWAP3 SWAP1 POP JUMP JUMPDEST PUSH1 0x0 DUP1 PUSH1 0x0 PUSH1 0x60 DUP5 DUP7 SUB SLT ISZERO PUSH2 0x5740 JUMPI DUP3 DUP4 REVERT JUMPDEST DUP4 MLOAD PUSH2 0x574B DUP2 PUSH2 0x5D52 JUMP JUMPDEST PUSH1 0x20 DUP6 ADD MLOAD SWAP1 SWAP4 POP PUSH2 0x575C DUP2 PUSH2 0x5D52 JUMP JUMPDEST PUSH1 0x40 DUP6 ADD MLOAD SWAP1 SWAP3 POP PUSH4 0xFFFFFFFF DUP2 AND DUP2 EQ PUSH2 0x5602 JUMPI DUP2 DUP3 REVERT JUMPDEST PUSH1 0x0 PUSH1 0x20 DUP3 DUP5 SUB SLT ISZERO PUSH2 0x5786 JUMPI DUP1 DUP2 REVERT JUMPDEST POP MLOAD SWAP2 SWAP1 POP JUMP JUMPDEST PUSH1 0x0 PUSH1 0x20 DUP3 DUP5 SUB SLT ISZERO PUSH2 0x579E JUMPI DUP1 DUP2 REVERT JUMPDEST DUP2 MLOAD PUSH8 0xFFFFFFFFFFFFFFFF DUP2 AND DUP2 EQ PUSH2 0x34C9 JUMPI DUP2 DUP3 REVERT JUMPDEST PUSH1 0x1 PUSH1 0x1 PUSH1 0xA0 SHL SUB AND SWAP1 MSTORE JUMP JUMPDEST ISZERO ISZERO SWAP1 MSTORE JUMP JUMPDEST PUSH1 0x0 DUP3 DUP5 MSTORE DUP3 DUP3 PUSH1 0x20 DUP7 ADD CALLDATACOPY DUP1 PUSH1 0x20 DUP5 DUP7 ADD ADD MSTORE PUSH1 0x20 PUSH1 0x1F NOT PUSH1 0x1F DUP6 ADD AND DUP6 ADD ADD SWAP1 POP SWAP4 SWAP3 POP POP POP JUMP JUMPDEST PUSH1 0x0 DUP2 MLOAD DUP1 DUP5 MSTORE PUSH2 0x580A DUP2 PUSH1 0x20 DUP7 ADD PUSH1 0x20 DUP7 ADD PUSH2 0x5D0A JUMP JUMPDEST PUSH1 0x1F ADD PUSH1 0x1F NOT AND SWAP3 SWAP1 SWAP3 ADD PUSH1 0x20 ADD SWAP3 SWAP2 POP POP JUMP JUMPDEST PUSH1 0x0 DUP3 MLOAD PUSH2 0x5830 DUP2 DUP5 PUSH1 0x20 DUP8 ADD PUSH2 0x5D0A JUMP JUMPDEST SWAP2 SWAP1 SWAP2 ADD SWAP3 SWAP2 POP POP JUMP JUMPDEST PUSH32 0x19457468657265756D205369676E6564204D6573736167653A0A333200000000 DUP2 MSTORE PUSH1 0x1C DUP2 ADD SWAP2 SWAP1 SWAP2 MSTORE PUSH1 0x3C ADD SWAP1 JUMP JUMPDEST PUSH6 0x726F74617465 PUSH1 0xD0 SHL DUP2 MSTORE PUSH1 0x6 ADD SWAP1 JUMP JUMPDEST PUSH3 0x8AA89 PUSH1 0xEB SHL DUP2 MSTORE PUSH1 0x3 ADD SWAP1 JUMP JUMPDEST PUSH1 0x1 PUSH1 0x1 PUSH1 0xA0 SHL SUB SWAP2 SWAP1 SWAP2 AND DUP2 MSTORE PUSH1 0x20 ADD SWAP1 JUMP JUMPDEST PUSH1 0x1 PUSH1 0x1 PUSH1 0xA0 SHL SUB DUP4 AND DUP2 MSTORE PUSH1 0x40 PUSH1 0x20 DUP3 ADD DUP2 SWAP1 MSTORE PUSH1 0x0 SWAP1 PUSH2 0x56A1 SWAP1 DUP4 ADD DUP5 PUSH2 0x57F2 JUMP JUMPDEST SWAP1 ISZERO ISZERO DUP2 MSTORE PUSH1 0x20 ADD SWAP1 JUMP JUMPDEST SWAP1 DUP2 MSTORE PUSH1 0x20 ADD SWAP1 JUMP JUMPDEST SWAP4 DUP5 MSTORE PUSH1 0xFF SWAP3 SWAP1 SWAP3 AND PUSH1 0x20 DUP5 ADD MSTORE PUSH1 0x40 DUP4 ADD MSTORE PUSH1 0x60 DUP3 ADD MSTORE PUSH1 0x80 ADD SWAP1 JUMP JUMPDEST PUSH1 0x0 PUSH1 0x40 DUP3 MSTORE PUSH2 0x590A PUSH1 0x40 DUP4 ADD DUP7 DUP9 PUSH2 0x57C8 JUMP JUMPDEST DUP3 DUP2 SUB PUSH1 0x20 DUP5 ADD MSTORE PUSH2 0x591D DUP2 DUP6 DUP8 PUSH2 0x57C8 JUMP JUMPDEST SWAP8 SWAP7 POP POP POP POP POP POP POP JUMP JUMPDEST PUSH1 0x0 PUSH1 0x40 DUP3 MSTORE PUSH2 0x593B PUSH1 0x40 DUP4 ADD DUP6 PUSH2 0x57F2 JUMP JUMPDEST SWAP1 POP DUP3 PUSH1 0x20 DUP4 ADD MSTORE SWAP4 SWAP3 POP POP POP JUMP JUMPDEST PUSH1 0x0 PUSH1 0x60 DUP3 MSTORE PUSH2 0x595D PUSH1 0x60 DUP4 ADD DUP7 PUSH2 0x57F2 JUMP JUMPDEST PUSH1 0x20 DUP4 ADD SWAP5 SWAP1 SWAP5 MSTORE POP PUSH1 0x40 ADD MSTORE SWAP2 SWAP1 POP JUMP JUMPDEST PUSH1 0x0 PUSH1 0x80 DUP3 MSTORE PUSH2 0x5982 PUSH1 0x80 DUP4 ADD DUP8 PUSH2 0x57F2 JUMP JUMPDEST PUSH1 0x20 DUP4 ADD SWAP6 SWAP1 SWAP6 MSTORE POP PUSH1 0x40 DUP2 ADD SWAP3 SWAP1 SWAP3 MSTORE PUSH1 0x60 SWAP1 SWAP2 ADD MSTORE SWAP2 SWAP1 POP JUMP JUMPDEST PUSH1 0x20 DUP1 DUP3 MSTORE PUSH1 0x17 SWAP1 DUP3 ADD MSTORE PUSH32 0x6D756C7469706C69636174696F6E206F766572666C6F77000000000000000000 PUSH1 0x40 DUP3 ADD MSTORE PUSH1 0x60 ADD SWAP1 JUMP JUMPDEST PUSH1 0x20 DUP1 DUP3 MSTORE PUSH1 0x16 SWAP1 DUP3 ADD MSTORE PUSH22 0x1D1BDAD95B8818DBDB999A59C81B9BDD08199BDD5B99 PUSH1 0x52 SHL PUSH1 0x40 DUP3 ADD MSTORE PUSH1 0x60 ADD SWAP1 JUMP JUMPDEST PUSH1 0x20 DUP1 DUP3 MSTORE PUSH1 0x30 SWAP1 DUP3 ADD MSTORE PUSH32 0x696E76616C69646174696F6E206D657373616765206D75737420636F6D652066 PUSH1 0x40 DUP3 ADD MSTORE PUSH16 0x3937B6903A3432903932B837B93A32B9 PUSH1 0x81 SHL PUSH1 0x60 DUP3 ADD MSTORE PUSH1 0x80 ADD SWAP1 JUMP JUMPDEST PUSH1 0x20 DUP1 DUP3 MSTORE PUSH1 0x1F SWAP1 DUP3 ADD MSTORE PUSH32 0x6F6E6C79207265706F72746572207072696365732067657420706F7374656400 PUSH1 0x40 DUP3 ADD MSTORE PUSH1 0x60 ADD SWAP1 JUMP JUMPDEST PUSH1 0x20 DUP1 DUP3 MSTORE PUSH1 0x1A SWAP1 DUP3 ADD MSTORE PUSH32 0x6E6F77206D75737420636F6D65206166746572206265666F7265000000000000 PUSH1 0x40 DUP3 ADD MSTORE PUSH1 0x60 ADD SWAP1 JUMP JUMPDEST PUSH1 0x20 DUP1 DUP3 MSTORE DUP2 DUP2 ADD MSTORE PUSH32 0x696E76616C6964206D657373616765206D7573742062652027726F7461746527 PUSH1 0x40 DUP3 ADD MSTORE PUSH1 0x60 ADD SWAP1 JUMP JUMPDEST PUSH1 0x20 DUP1 DUP3 MSTORE PUSH1 0x2C SWAP1 DUP3 ADD MSTORE PUSH32 0x455448207072696365206E6F74207365742C2063616E6E6F7420636F6E766572 PUSH1 0x40 DUP3 ADD MSTORE PUSH12 0x7420746F20646F6C6C617273 PUSH1 0xA0 SHL PUSH1 0x60 DUP3 ADD MSTORE PUSH1 0x80 ADD SWAP1 JUMP JUMPDEST PUSH1 0x20 DUP1 DUP3 MSTORE PUSH1 0x23 SWAP1 DUP3 ADD MSTORE PUSH32 0x6D6573736167657320616E64207369676E617475726573206D75737420626520 PUSH1 0x40 DUP3 ADD MSTORE PUSH3 0x313A31 PUSH1 0xE8 SHL PUSH1 0x60 DUP3 ADD MSTORE PUSH1 0x80 ADD SWAP1 JUMP JUMPDEST PUSH1 0x20 DUP1 DUP3 MSTORE PUSH1 0x17 SWAP1 DUP3 ADD MSTORE PUSH32 0x4669786564506F696E743A204449565F42595F5A45524F000000000000000000 PUSH1 0x40 DUP3 ADD MSTORE PUSH1 0x60 ADD SWAP1 JUMP JUMPDEST DUP2 MLOAD PUSH1 0x1 PUSH1 0x1 PUSH1 0xA0 SHL SUB SWAP1 DUP2 AND DUP3 MSTORE PUSH1 0x20 DUP1 DUP5 ADD MLOAD SWAP1 SWAP2 AND SWAP1 DUP3 ADD MSTORE PUSH1 0x40 DUP1 DUP4 ADD MLOAD SWAP1 DUP3 ADD MSTORE PUSH1 0x60 DUP1 DUP4 ADD MLOAD SWAP1 DUP3 ADD MSTORE PUSH1 0x80 DUP3 ADD MLOAD PUSH2 0x100 DUP3 ADD SWAP1 PUSH1 0x3 DUP2 LT PUSH2 0x5C03 JUMPI INVALID JUMPDEST DUP1 PUSH1 0x80 DUP5 ADD MSTORE POP PUSH1 0xA0 DUP4 ADD MLOAD PUSH1 0xA0 DUP4 ADD MSTORE PUSH1 0xC0 DUP4 ADD MLOAD PUSH2 0x5C26 PUSH1 0xC0 DUP5 ADD DUP3 PUSH2 0x57B5 JUMP JUMPDEST POP PUSH1 0xE0 DUP4 ADD MLOAD PUSH2 0x54E3 PUSH1 0xE0 DUP5 ADD DUP3 PUSH2 0x57C2 JUMP JUMPDEST SWAP2 DUP3 MSTORE PUSH1 0x20 DUP3 ADD MSTORE PUSH1 0x40 ADD SWAP1 JUMP JUMPDEST SWAP4 DUP5 MSTORE PUSH1 0x20 DUP5 ADD SWAP3 SWAP1 SWAP3 MSTORE PUSH1 0x40 DUP4 ADD MSTORE PUSH1 0x60 DUP3 ADD MSTORE PUSH1 0x80 ADD SWAP1 JUMP JUMPDEST PUSH1 0x0 DUP1 DUP4 CALLDATALOAD PUSH1 0x1E NOT DUP5 CALLDATASIZE SUB ADD DUP2 SLT PUSH2 0x5C78 JUMPI DUP3 DUP4 REVERT JUMPDEST DUP1 DUP5 ADD DUP1 CALLDATALOAD SWAP3 POP PUSH8 0xFFFFFFFFFFFFFFFF DUP4 GT ISZERO PUSH2 0x5C93 JUMPI DUP4 DUP5 REVERT JUMPDEST PUSH1 0x20 ADD SWAP3 POP POP CALLDATASIZE DUP2 SWAP1 SUB DUP3 SGT ISZERO PUSH2 0x5443 JUMPI PUSH1 0x0 DUP1 REVERT JUMPDEST PUSH1 0x0 DUP1 DUP4 CALLDATALOAD PUSH1 0x1E NOT DUP5 CALLDATASIZE SUB ADD DUP2 SLT PUSH2 0x5C78 JUMPI DUP2 DUP3 REVERT JUMPDEST PUSH1 0x40 MLOAD DUP2 DUP2 ADD PUSH8 0xFFFFFFFFFFFFFFFF DUP2 GT DUP3 DUP3 LT OR ISZERO PUSH2 0x5CDE JUMPI PUSH1 0x0 DUP1 REVERT JUMPDEST PUSH1 0x40 MSTORE SWAP2 SWAP1 POP JUMP JUMPDEST PUSH1 0x0 PUSH8 0xFFFFFFFFFFFFFFFF DUP3 GT ISZERO PUSH2 0x5CFC JUMPI DUP1 DUP2 REVERT JUMPDEST POP PUSH1 0x1F ADD PUSH1 0x1F NOT AND PUSH1 0x20 ADD SWAP1 JUMP JUMPDEST PUSH1 0x0 JUMPDEST DUP4 DUP2 LT ISZERO PUSH2 0x5D25 JUMPI DUP2 DUP2 ADD MLOAD DUP4 DUP3 ADD MSTORE PUSH1 0x20 ADD PUSH2 0x5D0D JUMP JUMPDEST DUP4 DUP2 GT ISZERO PUSH2 0x5D34 JUMPI PUSH1 0x0 DUP5 DUP5 ADD MSTORE JUMPDEST POP POP POP POP JUMP JUMPDEST PUSH1 0x1 PUSH1 0x1 PUSH1 0xA0 SHL SUB DUP2 AND DUP2 EQ PUSH2 0x5D4F JUMPI PUSH1 0x0 DUP1 REVERT JUMPDEST POP JUMP JUMPDEST PUSH1 0x1 PUSH1 0x1 PUSH1 0x70 SHL SUB DUP2 AND DUP2 EQ PUSH2 0x5D4F JUMPI PUSH1 0x0 DUP1 REVERT INVALID LOG2 PUSH5 0x6970667358 0x22 SLT KECCAK256 0x2A 0x2B 0xD COINBASE CALLDATACOPY SWAP3 GASPRICE 0x5D SSTORE DUP14 0xB0 PUSH4 0x8124F69B PUSH16 0xE3A00DB66C6A9AB370468A6E8F02B264 PUSH20 0x6F6C634300060A00330000000000000000000000 "
		},
		"gasEstimates": {
			"creation": {
				"codeDepositCost": "4793000",
				"executionCost": "infinite",
				"totalCost": "infinite"
			},
			"external": {
				"anchorPeriod()": "infinite",
				"ethBaseUnit()": "317",
				"expScale()": "339",
				"getHashBySymbol(string)": "infinite",
				"getTokenConfig(uint256)": "infinite",
				"getTokenConfigByDToken(address)": "infinite",
				"getTokenConfigBySymbol(string)": "infinite",
				"getTokenConfigBySymbolHash(bytes32)": "infinite",
				"getTokenConfigByUnderlying(address)": "infinite",
				"getUnderlyingPrice(address)": "infinite",
				"invalidateReporter(bytes,bytes)": "infinite",
				"lowerBoundAnchorRatio()": "infinite",
				"maxTokens()": "361",
				"newObservations(bytes32)": "2048",
				"numTokens()": "infinite",
				"oldObservations(bytes32)": "2138",
				"postPrices(bytes[],bytes[],string[])": "infinite",
				"price(string)": "infinite",
				"priceData()": "infinite",
				"prices(bytes32)": "1241",
				"reporter()": "infinite",
				"reporterInvalidated()": "1129",
				"source(bytes,bytes)": "infinite",
				"upperBoundAnchorRatio()": "infinite"
			},
			"internal": {
				"currentCumulativePrice(struct UniswapConfig.TokenConfig memory)": "infinite",
				"fetchAnchorPrice(string memory,struct UniswapConfig.TokenConfig memory,uint256)": "infinite",
				"fetchEthPrice()": "infinite",
				"isWithinAnchor(uint256,uint256)": "infinite",
				"mul(uint256,uint256)": "infinite",
				"pokeWindowValues(struct UniswapConfig.TokenConfig memory)": "infinite",
				"postPriceInternal(string memory,uint256)": "infinite",
				"priceInternal(struct UniswapConfig.TokenConfig memory)": "infinite"
			}
		},
		"methodIdentifiers": {
			"anchorPeriod()": "e9206d78",
			"ethBaseUnit()": "d1b353b4",
			"expScale()": "69aa3ac6",
			"getHashBySymbol(string)": "06981c91",
			"getTokenConfig(uint256)": "8a003888",
			"getTokenConfigByDToken(address)": "eea85ecb",
			"getTokenConfigBySymbol(string)": "276c2cba",
			"getTokenConfigBySymbolHash(bytes32)": "1a125204",
			"getTokenConfigByUnderlying(address)": "4da21942",
			"getUnderlyingPrice(address)": "fc57d4df",
			"invalidateReporter(bytes,bytes)": "8aba91b4",
			"lowerBoundAnchorRatio()": "92b84357",
			"maxTokens()": "e8315742",
			"newObservations(bytes32)": "eaa1c2ca",
			"numTokens()": "8e499bcf",
			"oldObservations(bytes32)": "37c0e12d",
			"postPrices(bytes[],bytes[],string[])": "ecc1e984",
			"price(string)": "fe2c6198",
			"priceData()": "e61a5fe4",
			"prices(bytes32)": "60846bc6",
			"reporter()": "010ec441",
			"reporterInvalidated()": "651ed788",
			"source(bytes,bytes)": "482a6193",
			"upperBoundAnchorRatio()": "24105209"
		}
	},
	"abi": [
		{
			"inputs": [
				{
					"internalType": "contract OpenOraclePriceData",
					"name": "priceData_",
					"type": "address"
				},
				{
					"internalType": "address",
					"name": "reporter_",
					"type": "address"
				},
				{
					"internalType": "uint256",
					"name": "anchorToleranceMantissa_",
					"type": "uint256"
				},
				{
					"internalType": "uint256",
					"name": "anchorPeriod_",
					"type": "uint256"
				},
				{
					"components": [
						{
							"internalType": "address",
							"name": "dToken",
							"type": "address"
						},
						{
							"internalType": "address",
							"name": "underlying",
							"type": "address"
						},
						{
							"internalType": "bytes32",
							"name": "symbolHash",
							"type": "bytes32"
						},
						{
							"internalType": "uint256",
							"name": "baseUnit",
							"type": "uint256"
						},
						{
							"internalType": "enum UniswapConfig.PriceSource",
							"name": "priceSource",
							"type": "uint8"
						},
						{
							"internalType": "uint256",
							"name": "fixedPrice",
							"type": "uint256"
						},
						{
							"internalType": "address",
							"name": "uniswapMarket",
							"type": "address"
						},
						{
							"internalType": "bool",
							"name": "isUniswapReversed",
							"type": "bool"
						}
					],
					"internalType": "struct UniswapConfig.TokenConfig[]",
					"name": "configs",
					"type": "tuple[]"
				}
			],
			"stateMutability": "nonpayable",
			"type": "constructor"
		},
		{
			"anonymous": false,
			"inputs": [
				{
					"indexed": false,
					"internalType": "string",
					"name": "symbol",
					"type": "string"
				},
				{
					"indexed": false,
					"internalType": "uint256",
					"name": "anchorPrice",
					"type": "uint256"
				},
				{
					"indexed": false,
					"internalType": "uint256",
					"name": "oldTimestamp",
					"type": "uint256"
				},
				{
					"indexed": false,
					"internalType": "uint256",
					"name": "newTimestamp",
					"type": "uint256"
				}
			],
			"name": "AnchorPriceUpdated",
			"type": "event"
		},
		{
			"anonymous": false,
			"inputs": [
				{
					"indexed": false,
					"internalType": "string",
					"name": "symbol",
					"type": "string"
				},
				{
					"indexed": false,
					"internalType": "uint256",
					"name": "reporter",
					"type": "uint256"
				},
				{
					"indexed": false,
					"internalType": "uint256",
					"name": "anchor",
					"type": "uint256"
				}
			],
			"name": "PriceGuarded",
			"type": "event"
		},
		{
			"anonymous": false,
			"inputs": [
				{
					"indexed": false,
					"internalType": "string",
					"name": "symbol",
					"type": "string"
				},
				{
					"indexed": false,
					"internalType": "uint256",
					"name": "price",
					"type": "uint256"
				}
			],
			"name": "PriceUpdated",
			"type": "event"
		},
		{
			"anonymous": false,
			"inputs": [
				{
					"indexed": false,
					"internalType": "address",
					"name": "reporter",
					"type": "address"
				}
			],
			"name": "ReporterInvalidated",
			"type": "event"
		},
		{
			"anonymous": false,
			"inputs": [
				{
					"indexed": true,
					"internalType": "bytes32",
					"name": "symbolHash",
					"type": "bytes32"
				},
				{
					"indexed": false,
					"internalType": "uint256",
					"name": "oldTimestamp",
					"type": "uint256"
				},
				{
					"indexed": false,
					"internalType": "uint256",
					"name": "newTimestamp",
					"type": "uint256"
				},
				{
					"indexed": false,
					"internalType": "uint256",
					"name": "oldPrice",
					"type": "uint256"
				},
				{
					"indexed": false,
					"internalType": "uint256",
					"name": "newPrice",
					"type": "uint256"
				}
			],
			"name": "UniswapWindowUpdated",
			"type": "event"
		},
		{
			"inputs": [],
			"name": "anchorPeriod",
			"outputs": [
				{
					"internalType": "uint256",
					"name": "",
					"type": "uint256"
				}
			],
			"stateMutability": "view",
			"type": "function"
		},
		{
			"inputs": [],
			"name": "ethBaseUnit",
			"outputs": [
				{
					"internalType": "uint256",
					"name": "",
					"type": "uint256"
				}
			],
			"stateMutability": "view",
			"type": "function"
		},
		{
			"inputs": [],
			"name": "expScale",
			"outputs": [
				{
					"internalType": "uint256",
					"name": "",
					"type": "uint256"
				}
			],
			"stateMutability": "view",
			"type": "function"
		},
		{
			"inputs": [
				{
					"internalType": "string",
					"name": "symbol",
					"type": "string"
				}
			],
			"name": "getHashBySymbol",
			"outputs": [
				{
					"internalType": "bytes32",
					"name": "",
					"type": "bytes32"
				}
			],
			"stateMutability": "view",
			"type": "function"
		},
		{
			"inputs": [
				{
					"internalType": "uint256",
					"name": "i",
					"type": "uint256"
				}
			],
			"name": "getTokenConfig",
			"outputs": [
				{
					"components": [
						{
							"internalType": "address",
							"name": "dToken",
							"type": "address"
						},
						{
							"internalType": "address",
							"name": "underlying",
							"type": "address"
						},
						{
							"internalType": "bytes32",
							"name": "symbolHash",
							"type": "bytes32"
						},
						{
							"internalType": "uint256",
							"name": "baseUnit",
							"type": "uint256"
						},
						{
							"internalType": "enum UniswapConfig.PriceSource",
							"name": "priceSource",
							"type": "uint8"
						},
						{
							"internalType": "uint256",
							"name": "fixedPrice",
							"type": "uint256"
						},
						{
							"internalType": "address",
							"name": "uniswapMarket",
							"type": "address"
						},
						{
							"internalType": "bool",
							"name": "isUniswapReversed",
							"type": "bool"
						}
					],
					"internalType": "struct UniswapConfig.TokenConfig",
					"name": "",
					"type": "tuple"
				}
			],
			"stateMutability": "view",
			"type": "function"
		},
		{
			"inputs": [
				{
					"internalType": "address",
					"name": "dToken",
					"type": "address"
				}
			],
			"name": "getTokenConfigByDToken",
			"outputs": [
				{
					"components": [
						{
							"internalType": "address",
							"name": "dToken",
							"type": "address"
						},
						{
							"internalType": "address",
							"name": "underlying",
							"type": "address"
						},
						{
							"internalType": "bytes32",
							"name": "symbolHash",
							"type": "bytes32"
						},
						{
							"internalType": "uint256",
							"name": "baseUnit",
							"type": "uint256"
						},
						{
							"internalType": "enum UniswapConfig.PriceSource",
							"name": "priceSource",
							"type": "uint8"
						},
						{
							"internalType": "uint256",
							"name": "fixedPrice",
							"type": "uint256"
						},
						{
							"internalType": "address",
							"name": "uniswapMarket",
							"type": "address"
						},
						{
							"internalType": "bool",
							"name": "isUniswapReversed",
							"type": "bool"
						}
					],
					"internalType": "struct UniswapConfig.TokenConfig",
					"name": "",
					"type": "tuple"
				}
			],
			"stateMutability": "view",
			"type": "function"
		},
		{
			"inputs": [
				{
					"internalType": "string",
					"name": "symbol",
					"type": "string"
				}
			],
			"name": "getTokenConfigBySymbol",
			"outputs": [
				{
					"components": [
						{
							"internalType": "address",
							"name": "dToken",
							"type": "address"
						},
						{
							"internalType": "address",
							"name": "underlying",
							"type": "address"
						},
						{
							"internalType": "bytes32",
							"name": "symbolHash",
							"type": "bytes32"
						},
						{
							"internalType": "uint256",
							"name": "baseUnit",
							"type": "uint256"
						},
						{
							"internalType": "enum UniswapConfig.PriceSource",
							"name": "priceSource",
							"type": "uint8"
						},
						{
							"internalType": "uint256",
							"name": "fixedPrice",
							"type": "uint256"
						},
						{
							"internalType": "address",
							"name": "uniswapMarket",
							"type": "address"
						},
						{
							"internalType": "bool",
							"name": "isUniswapReversed",
							"type": "bool"
						}
					],
					"internalType": "struct UniswapConfig.TokenConfig",
					"name": "",
					"type": "tuple"
				}
			],
			"stateMutability": "view",
			"type": "function"
		},
		{
			"inputs": [
				{
					"internalType": "bytes32",
					"name": "symbolHash",
					"type": "bytes32"
				}
			],
			"name": "getTokenConfigBySymbolHash",
			"outputs": [
				{
					"components": [
						{
							"internalType": "address",
							"name": "dToken",
							"type": "address"
						},
						{
							"internalType": "address",
							"name": "underlying",
							"type": "address"
						},
						{
							"internalType": "bytes32",
							"name": "symbolHash",
							"type": "bytes32"
						},
						{
							"internalType": "uint256",
							"name": "baseUnit",
							"type": "uint256"
						},
						{
							"internalType": "enum UniswapConfig.PriceSource",
							"name": "priceSource",
							"type": "uint8"
						},
						{
							"internalType": "uint256",
							"name": "fixedPrice",
							"type": "uint256"
						},
						{
							"internalType": "address",
							"name": "uniswapMarket",
							"type": "address"
						},
						{
							"internalType": "bool",
							"name": "isUniswapReversed",
							"type": "bool"
						}
					],
					"internalType": "struct UniswapConfig.TokenConfig",
					"name": "",
					"type": "tuple"
				}
			],
			"stateMutability": "view",
			"type": "function"
		},
		{
			"inputs": [
				{
					"internalType": "address",
					"name": "underlying",
					"type": "address"
				}
			],
			"name": "getTokenConfigByUnderlying",
			"outputs": [
				{
					"components": [
						{
							"internalType": "address",
							"name": "dToken",
							"type": "address"
						},
						{
							"internalType": "address",
							"name": "underlying",
							"type": "address"
						},
						{
							"internalType": "bytes32",
							"name": "symbolHash",
							"type": "bytes32"
						},
						{
							"internalType": "uint256",
							"name": "baseUnit",
							"type": "uint256"
						},
						{
							"internalType": "enum UniswapConfig.PriceSource",
							"name": "priceSource",
							"type": "uint8"
						},
						{
							"internalType": "uint256",
							"name": "fixedPrice",
							"type": "uint256"
						},
						{
							"internalType": "address",
							"name": "uniswapMarket",
							"type": "address"
						},
						{
							"internalType": "bool",
							"name": "isUniswapReversed",
							"type": "bool"
						}
					],
					"internalType": "struct UniswapConfig.TokenConfig",
					"name": "",
					"type": "tuple"
				}
			],
			"stateMutability": "view",
			"type": "function"
		},
		{
			"inputs": [
				{
					"internalType": "address",
					"name": "dToken",
					"type": "address"
				}
			],
			"name": "getUnderlyingPrice",
			"outputs": [
				{
					"internalType": "uint256",
					"name": "",
					"type": "uint256"
				}
			],
			"stateMutability": "view",
			"type": "function"
		},
		{
			"inputs": [
				{
					"internalType": "bytes",
					"name": "message",
					"type": "bytes"
				},
				{
					"internalType": "bytes",
					"name": "signature",
					"type": "bytes"
				}
			],
			"name": "invalidateReporter",
			"outputs": [],
			"stateMutability": "nonpayable",
			"type": "function"
		},
		{
			"inputs": [],
			"name": "lowerBoundAnchorRatio",
			"outputs": [
				{
					"internalType": "uint256",
					"name": "",
					"type": "uint256"
				}
			],
			"stateMutability": "view",
			"type": "function"
		},
		{
			"inputs": [],
			"name": "maxTokens",
			"outputs": [
				{
					"internalType": "uint256",
					"name": "",
					"type": "uint256"
				}
			],
			"stateMutability": "view",
			"type": "function"
		},
		{
			"inputs": [
				{
					"internalType": "bytes32",
					"name": "",
					"type": "bytes32"
				}
			],
			"name": "newObservations",
			"outputs": [
				{
					"internalType": "uint256",
					"name": "timestamp",
					"type": "uint256"
				},
				{
					"internalType": "uint256",
					"name": "acc",
					"type": "uint256"
				}
			],
			"stateMutability": "view",
			"type": "function"
		},
		{
			"inputs": [],
			"name": "numTokens",
			"outputs": [
				{
					"internalType": "uint256",
					"name": "",
					"type": "uint256"
				}
			],
			"stateMutability": "view",
			"type": "function"
		},
		{
			"inputs": [
				{
					"internalType": "bytes32",
					"name": "",
					"type": "bytes32"
				}
			],
			"name": "oldObservations",
			"outputs": [
				{
					"internalType": "uint256",
					"name": "timestamp",
					"type": "uint256"
				},
				{
					"internalType": "uint256",
					"name": "acc",
					"type": "uint256"
				}
			],
			"stateMutability": "view",
			"type": "function"
		},
		{
			"inputs": [
				{
					"internalType": "bytes[]",
					"name": "messages",
					"type": "bytes[]"
				},
				{
					"internalType": "bytes[]",
					"name": "signatures",
					"type": "bytes[]"
				},
				{
					"internalType": "string[]",
					"name": "symbols",
					"type": "string[]"
				}
			],
			"name": "postPrices",
			"outputs": [],
			"stateMutability": "nonpayable",
			"type": "function"
		},
		{
			"inputs": [
				{
					"internalType": "string",
					"name": "symbol",
					"type": "string"
				}
			],
			"name": "price",
			"outputs": [
				{
					"internalType": "uint256",
					"name": "",
					"type": "uint256"
				}
			],
			"stateMutability": "view",
			"type": "function"
		},
		{
			"inputs": [],
			"name": "priceData",
			"outputs": [
				{
					"internalType": "contract OpenOraclePriceData",
					"name": "",
					"type": "address"
				}
			],
			"stateMutability": "view",
			"type": "function"
		},
		{
			"inputs": [
				{
					"internalType": "bytes32",
					"name": "",
					"type": "bytes32"
				}
			],
			"name": "prices",
			"outputs": [
				{
					"internalType": "uint256",
					"name": "",
					"type": "uint256"
				}
			],
			"stateMutability": "view",
			"type": "function"
		},
		{
			"inputs": [],
			"name": "reporter",
			"outputs": [
				{
					"internalType": "address",
					"name": "",
					"type": "address"
				}
			],
			"stateMutability": "view",
			"type": "function"
		},
		{
			"inputs": [],
			"name": "reporterInvalidated",
			"outputs": [
				{
					"internalType": "bool",
					"name": "",
					"type": "bool"
				}
			],
			"stateMutability": "view",
			"type": "function"
		},
		{
			"inputs": [
				{
					"internalType": "bytes",
					"name": "message",
					"type": "bytes"
				},
				{
					"internalType": "bytes",
					"name": "signature",
					"type": "bytes"
				}
			],
			"name": "source",
			"outputs": [
				{
					"internalType": "address",
					"name": "",
					"type": "address"
				}
			],
			"stateMutability": "pure",
			"type": "function"
		},
		{
			"inputs": [],
			"name": "upperBoundAnchorRatio",
			"outputs": [
				{
					"internalType": "uint256",
					"name": "",
					"type": "uint256"
				}
			],
			"stateMutability": "view",
			"type": "function"
		}
	]
}