{
	"data": {
		"bytecode": {
			"linkReferences": {},
			"object": "608060405234801561001057600080fd5b50614042806100206000396000f3fe608060405234801561001057600080fd5b50600436106100ea5760003560e01c80638cc2d79f1161008c578063ab55f25a11610066578063ab55f25a14610238578063b8980f7314610258578063f3ff526d14610278578063fd95439114610298576100ea565b80638cc2d79f146101d857806396994869146101f8578063995ed99f14610218576100ea565b806343c811cc116100c857806343c811cc146101585780634a0186a51461017857806375d80e90146101985780637dd8f6d9146101b8576100ea565b80630491292b146100ef5780631f8a2049146101185780633f3158a314610138575b600080fd5b6101026100fd366004612e15565b6102b8565b60405161010f9190613da7565b60405180910390f35b61012b610126366004612dc7565b610410565b60405161010f9190613e3a565b61014b610146366004612d05565b610d45565b60405161010f9190613d74565b61016b610166366004612edd565b610de8565b60405161010f9190613dc9565b61018b610186366004612cc4565b610f43565b60405161010f9190613d85565b6101ab6101a6366004612f37565b610fdf565b60405161010f9190613db8565b6101cb6101c6366004612de5565b6111a2565b60405161010f9190613e1b565b6101eb6101e6366004612de5565b6112de565b60405161010f9190613e2c565b61020b610206366004612f37565b61167e565b60405161010f9190613dda565b61022b610226366004612edd565b611831565b60405161010f9190613deb565b61024b610246366004612e7c565b61198b565b60405161010f9190613e57565b61026b610266366004612cc4565b611d12565b60405161010f9190613d96565b61028b610286366004612dc7565b611da3565b60405161010f9190613e49565b6102ab6102a6366004612de5565b611f35565b60405161010f9190613e65565b606080838390506040519080825280602002602001820160405280156102f857816020015b6102e56123bc565b8152602001906001900390816102dd5790505b50905060005b8381101561040657604051806040016040528086868481811061031d57fe5b90506020020160206103329190810190613140565b63ffffffff168152602001886001600160a01b031663782d6fe18989898781811061035957fe5b905060200201602061036e9190810190613140565b6040518363ffffffff1660e01b815260040161038b929190613d59565b60206040518083038186803b1580156103a357600080fd5b505afa1580156103b7573d6000803e3d6000fd5b505050506040513d601f19601f820116820180604052506103db919081019061317c565b6001600160601b03168152508282815181106103f357fe5b60209081029190910101526001016102fe565b5095945050505050565b6104186123d6565b6000826001600160a01b031663bd6d894d6040518163ffffffff1660e01b8152600401602060405180830381600087803b15801561045557600080fd5b505af1158015610469573d6000803e3d6000fd5b505050506040513d601f19601f8201168201806040525061048d919081019061301b565b90506000836001600160a01b031663e8b29a906040518163ffffffff1660e01b815260040160206040518083038186803b1580156104ca57600080fd5b505afa1580156104de573d6000803e3d6000fd5b505050506040513d601f19601f820116820180604052506105029190810190612ebf565b9050600080826001600160a01b0316638e8f294b876040518263ffffffff1660e01b81526004016105339190613d22565b604080518083038186803b15801561054a57600080fd5b505afa15801561055e573d6000803e3d6000fd5b505050506040513d601f19601f820116820180604052506105829190810190612d8d565b91509150600080610623886001600160a01b03166395d89b416040518163ffffffff1660e01b815260040160006040518083038186803b1580156105c557600080fd5b505afa1580156105d9573d6000803e3d6000fd5b505050506040513d6000823e601f3d908101601f191682016040526106019190810190612f8c565b604051806040016040528060048152602001630c88aa8960e31b8152506120de565b156106345750600090506012610794565b6000889050806001600160a01b0316636f307dc36040518163ffffffff1660e01b815260040160206040518083038186803b15801561067257600080fd5b505afa158015610686573d6000803e3d6000fd5b505050506040513d601f19601f820116820180604052506106aa9190810190612be2565b9250806001600160a01b0316636f307dc36040518163ffffffff1660e01b815260040160206040518083038186803b1580156106e557600080fd5b505afa1580156106f9573d6000803e3d6000fd5b505050506040513d601f19601f8201168201806040525061071d9190810190612be2565b6001600160a01b031663313ce5676040518163ffffffff1660e01b815260040160206040518083038186803b15801561075557600080fd5b505afa158015610769573d6000803e3d6000fd5b505050506040513d601f19601f8201168201806040525061078d919081019061315e565b60ff169150505b60405160009081906060906001600160a01b038916906346ae07a560e11b906107c1908e90602001613d22565b60408051601f19818403018152908290526107df9291602001613cfa565b60408051601f19818403018152908290526107f991613d16565b6000604051808303816000865af19150503d8060008114610836576040519150601f19603f3d011682016040523d82523d6000602084013e61083b565b606091505b5091509150811561085d578080602001905161085a919081019061301b565b92505b6000809050600060608a6001600160a01b03168b6001600160a01b0316634a584432905060e01b8f6040516020016108959190613d22565b60408051601f19818403018152908290526108b39291602001613cfa565b60408051601f19818403018152908290526108cd91613d16565b6000604051808303816000865af19150503d806000811461090a576040519150601f19603f3d011682016040523d82523d6000602084013e61090f565b606091505b50915091508115610931578080602001905161092e919081019061301b565b92505b6040518061020001604052808f6001600160a01b031681526020018d81526020018f6001600160a01b031663ae9d70b06040518163ffffffff1660e01b815260040160206040518083038186803b15801561098b57600080fd5b505afa15801561099f573d6000803e3d6000fd5b505050506040513d601f19601f820116820180604052506109c3919081019061301b565b81526020018f6001600160a01b031663f8f9da286040518163ffffffff1660e01b815260040160206040518083038186803b158015610a0157600080fd5b505afa158015610a15573d6000803e3d6000fd5b505050506040513d601f19601f82011682018060405250610a39919081019061301b565b81526020018f6001600160a01b031663173b99046040518163ffffffff1660e01b815260040160206040518083038186803b158015610a7757600080fd5b505afa158015610a8b573d6000803e3d6000fd5b505050506040513d601f19601f82011682018060405250610aaf919081019061301b565b81526020018f6001600160a01b03166347bd37186040518163ffffffff1660e01b815260040160206040518083038186803b158015610aed57600080fd5b505afa158015610b01573d6000803e3d6000fd5b505050506040513d601f19601f82011682018060405250610b25919081019061301b565b81526020018f6001600160a01b0316638f840ddd6040518163ffffffff1660e01b815260040160206040518083038186803b158015610b6357600080fd5b505afa158015610b77573d6000803e3d6000fd5b505050506040513d601f19601f82011682018060405250610b9b919081019061301b565b81526020018f6001600160a01b03166318160ddd6040518163ffffffff1660e01b815260040160206040518083038186803b158015610bd957600080fd5b505afa158015610bed573d6000803e3d6000fd5b505050506040513d601f19601f82011682018060405250610c11919081019061301b565b81526020018f6001600160a01b0316633b1d21a26040518163ffffffff1660e01b815260040160206040518083038186803b158015610c4f57600080fd5b505afa158015610c63573d6000803e3d6000fd5b505050506040513d601f19601f82011682018060405250610c87919081019061301b565b81526020018b151581526020018a8152602001896001600160a01b031681526020018f6001600160a01b031663313ce5676040518163ffffffff1660e01b815260040160206040518083038186803b158015610ce257600080fd5b505afa158015610cf6573d6000803e3d6000fd5b505050506040513d601f19601f82011682018060405250610d1a919081019061315e565b60ff168152602001888152602001878152602001848152509c50505050505050505050505050919050565b60408051838152602080850282010190915260609083908290828015610d8557816020015b610d72612467565b815260200190600190039081610d6a5790505b50905060005b82811015610ddc57610dbd878783818110610da257fe5b9050602002016020610db79190810190612dc7565b866112de565b828281518110610dc957fe5b6020908102919091010152600101610d8b565b509150505b9392505050565b6060600082519050606081604051908082528060200260200182016040528015610e2c57816020015b610e196124a6565b815260200190600190039081610e115790505b50905060005b82811015610ddc57610e426124cd565b876001600160a01b031663e23a9a52878481518110610e5d57fe5b6020026020010151896040518363ffffffff1660e01b8152600401610e83929190613e81565b60606040518083038186803b158015610e9b57600080fd5b505afa158015610eaf573d6000803e3d6000fd5b505050506040513d601f19601f82011682018060405250610ed39190810190612fdf565b90506040518060800160405280878481518110610eec57fe5b60200260200101518152602001826000015115158152602001826020015160ff16815260200182604001516001600160601b0316815250838381518110610f2f57fe5b602090810291909101015250600101610e32565b60408051828152602080840282010190915260609082908290828015610f8357816020015b610f706123d6565b815260200190600190039081610f685790505b50905060005b82811015610fd457610fb5868683818110610fa057fe5b90506020020160206101269190810190612dc7565b828281518110610fc157fe5b6020908102919091010152600101610f89565b509150505b92915050565b6060808383905060405190808252806020026020018201604052801561101f57816020015b61100c6124ed565b8152602001906001900390816110045790505b50905060005b8381101561119957606080606080896001600160a01b031663328dd9828a8a8881811061104e57fe5b905060200201356040518263ffffffff1660e01b81526004016110719190613e73565b60006040518083038186803b15801561108957600080fd5b505afa15801561109d573d6000803e3d6000fd5b505050506040513d6000823e601f3d908101601f191682016040526110c59190810190612c08565b9350935093509350604051806101c001604052806000815260200160006001600160a01b031681526020016000815260200185815260200184815260200183815260200182815260200160008152602001600081526020016000815260200160008152602001600081526020016000151581526020016000151581525086868151811061114e57fe5b602002602001018190525061118986868151811061116857fe5b60200260200101518b8b8b8981811061117d57fe5b90506020020135612137565b5050600190920191506110259050565b50949350505050565b6111aa612569565b6000806000856001600160a01b0316635ec88c79866040518263ffffffff1660e01b81526004016111db9190613d22565b60606040518083038186803b1580156111f357600080fd5b505afa158015611207573d6000803e3d6000fd5b505050506040513d601f19601f8201168201806040525061122b91908101906130fd565b9250925092508260001461123e57600080fd5b604080516060810191829052632aff3bff60e21b909152806001600160a01b03881663abfceffc6112728960648501613d22565b60006040518083038186803b15801561128a57600080fd5b505afa15801561129e573d6000803e3d6000fd5b505050506040513d6000823e601f3d908101601f191682016040526112c69190810190612d59565b81526020810193909352604090920152949350505050565b6112e6612467565b6040516370a0823160e01b81526000906001600160a01b038516906370a0823190611315908690600401613d30565b60206040518083038186803b15801561132d57600080fd5b505afa158015611341573d6000803e3d6000fd5b505050506040513d601f19601f82011682018060405250611365919081019061301b565b90506000846001600160a01b03166317bfdfbc856040518263ffffffff1660e01b81526004016113959190613d30565b602060405180830381600087803b1580156113af57600080fd5b505af11580156113c3573d6000803e3d6000fd5b505050506040513d601f19601f820116820180604052506113e7919081019061301b565b90506000856001600160a01b0316633af9e669866040518263ffffffff1660e01b81526004016114179190613d30565b602060405180830381600087803b15801561143157600080fd5b505af1158015611445573d6000803e3d6000fd5b505050506040513d601f19601f82011682018060405250611469919081019061301b565b90506000806114aa886001600160a01b03166395d89b416040518163ffffffff1660e01b815260040160006040518083038186803b1580156105c557600080fd5b156114c45750506001600160a01b03851680319031611641565b60008890506000816001600160a01b0316636f307dc36040518163ffffffff1660e01b815260040160206040518083038186803b15801561150457600080fd5b505afa158015611518573d6000803e3d6000fd5b505050506040513d601f19601f8201168201806040525061153c9190810190612be2565b6040516370a0823160e01b81529091506001600160a01b038216906370a082319061156b908c90600401613d30565b60206040518083038186803b15801561158357600080fd5b505afa158015611597573d6000803e3d6000fd5b505050506040513d601f19601f820116820180604052506115bb919081019061301b565b604051636eb1769f60e11b81529094506001600160a01b0382169063dd62ed3e906115ec908c908e90600401613d3e565b60206040518083038186803b15801561160457600080fd5b505afa158015611618573d6000803e3d6000fd5b505050506040513d601f19601f8201168201806040525061163c919081019061301b565b925050505b6040805160c0810182526001600160a01b039990991689526020890195909552938701929092526060860152608085015260a08401525090919050565b606080838390506040519080825280602002602001820160405280156116be57816020015b6116ab61258a565b8152602001906001900390816116a35790505b50905060005b8381101561119957606080606080896001600160a01b031663328dd9828a8a888181106116ed57fe5b905060200201356040518263ffffffff1660e01b81526004016117109190613e73565b60006040518083038186803b15801561172857600080fd5b505afa15801561173c573d6000803e3d6000fd5b505050506040513d6000823e601f3d908101601f191682016040526117649190810190612c08565b9350935093509350604051806101a001604052806000815260200160006001600160a01b031681526020016000815260200185815260200184815260200183815260200182815260200160008152602001600081526020016000815260200160008152602001600015158152602001600015158152508686815181106117e657fe5b602002602001018190525061182186868151811061180057fe5b60200260200101518b8b8b8981811061181557fe5b9050602002013561223a565b5050600190920191506116c49050565b606060008251905060608160405190808252806020026020018201604052801561187557816020015b6118626124a6565b81526020019060019003908161185a5790505b50905060005b82811015610ddc5761188b6124cd565b876001600160a01b031663e23a9a528784815181106118a657fe5b6020026020010151896040518363ffffffff1660e01b81526004016118cc929190613e81565b60606040518083038186803b1580156118e457600080fd5b505afa1580156118f8573d6000803e3d6000fd5b505050506040513d601f19601f8201168201806040525061191c9190810190612ffd565b9050604051806080016040528087848151811061193557fe5b6020026020010151815260200182600001511515815260200182602001511515815260200182604001516001600160601b031681525083838151811061197757fe5b60209081029190910101525060010161187b565b6119936125ff565b6040516370a0823160e01b81526000906001600160a01b038616906370a08231906119c2908690600401613d22565b60206040518083038186803b1580156119da57600080fd5b505afa1580156119ee573d6000803e3d6000fd5b505050506040513d601f19601f82011682018060405250611a12919081019061301b565b60405163cd033a0760e01b81529091506001600160a01b0385169063cd033a0790611a41908690600401613d22565b600060405180830381600087803b158015611a5b57600080fd5b505af1158015611a6f573d6000803e3d6000fd5b50506040516370a0823160e01b8152600092506001600160a01b03881691506370a0823190611aa2908790600401613d22565b60206040518083038186803b158015611aba57600080fd5b505afa158015611ace573d6000803e3d6000fd5b505050506040513d601f19601f82011682018060405250611af2919081019061301b565b90506000856001600160a01b0316636954a937866040518263ffffffff1660e01b8152600401611b229190613d22565b60206040518083038186803b158015611b3a57600080fd5b505afa158015611b4e573d6000803e3d6000fd5b505050506040513d601f19601f82011682018060405250611b72919081019061301b565b90506000611ba782846040518060400160405280600e81526020016d1cdd5b4819185b9ac81d1bdd185b60921b815250612360565b90506000611bdb82866040518060400160405280600d81526020016c1cdd5888185b1b1bd8d85d1959609a1b815250612390565b905060405180608001604052808681526020018a6001600160a01b031663b4b5ea578a6040518263ffffffff1660e01b8152600401611c1a9190613d22565b60206040518083038186803b158015611c3257600080fd5b505afa158015611c46573d6000803e3d6000fd5b505050506040513d601f19601f82011682018060405250611c6a919081019061317c565b6001600160601b031681526020018a6001600160a01b031663587cde1e8a6040518263ffffffff1660e01b8152600401611ca49190613d22565b60206040518083038186803b158015611cbc57600080fd5b505afa158015611cd0573d6000803e3d6000fd5b505050506040513d601f19601f82011682018060405250611cf49190810190612be2565b6001600160a01b031681526020019190915298975050505050505050565b60408051828152602080840282010190915260609082908290828015611d5257816020015b611d3f612630565b815260200190600190039081611d375790505b50905060005b82811015610fd457611d84868683818110611d6f57fe5b90506020020160206102869190810190612dc7565b828281518110611d9057fe5b6020908102919091010152600101611d58565b611dab612630565b6000826001600160a01b031663e8b29a906040518163ffffffff1660e01b815260040160206040518083038186803b158015611de657600080fd5b505afa158015611dfa573d6000803e3d6000fd5b505050506040513d601f19601f82011682018060405250611e1e9190810190612ebf565b90506000816001600160a01b0316637dc0d1d06040518163ffffffff1660e01b815260040160206040518083038186803b158015611e5b57600080fd5b505afa158015611e6f573d6000803e3d6000fd5b505050506040513d601f19601f82011682018060405250611e939190810190612ebf565b90506040518060400160405280856001600160a01b03168152602001826001600160a01b031663fc57d4df876040518263ffffffff1660e01b8152600401611edb9190613dfc565b60206040518083038186803b158015611ef357600080fd5b505afa158015611f07573d6000803e3d6000fd5b505050506040513d601f19601f82011682018060405250611f2b919081019061301b565b9052949350505050565b611f3d612647565b6040805160608101918290526370a0823160e01b909152806001600160a01b0385166370a08231611f718660648501613d22565b60206040518083038186803b158015611f8957600080fd5b505afa158015611f9d573d6000803e3d6000fd5b505050506040513d601f19601f82011682018060405250611fc1919081019061301b565b8152602001846001600160a01b031663b4b5ea57856040518263ffffffff1660e01b8152600401611ff29190613d22565b60206040518083038186803b15801561200a57600080fd5b505afa15801561201e573d6000803e3d6000fd5b505050506040513d601f19601f82011682018060405250612042919081019061317c565b6001600160601b03168152602001846001600160a01b031663587cde1e856040518263ffffffff1660e01b815260040161207c9190613d22565b60206040518083038186803b15801561209457600080fd5b505afa1580156120a8573d6000803e3d6000fd5b505050506040513d601f19601f820116820180604052506120cc9190810190612be2565b6001600160a01b031690529392505050565b6000816040516020016120f19190613d16565b60405160208183030381529060405280519060200120836040516020016121189190613d16565b6040516020818303038152906040528051906020012014905092915050565b61213f612671565b60405163013cf08b60e01b81526001600160a01b0384169063013cf08b9061216b908590600401613e73565b6101406040518083038186803b15801561218457600080fd5b505afa158015612198573d6000803e3d6000fd5b505050506040513d601f19601f820116820180604052506121bc9190810190612fc0565b918452506020808201516001600160a01b03169084015260408082015190840152606081015160e08085019190915260808201516101008086019190915260a08301516101208087019190915260c0840151610140870152918301516101608601528201511515610180850152015115156101a09092019190915250565b600080600080600080600080896001600160a01b031663013cf08b8a6040518263ffffffff1660e01b81526004016122729190613e73565b6101206040518083038186803b15801561228b57600080fd5b505afa15801561229f573d6000803e3d6000fd5b505050506040513d601f19601f820116820180604052506122c39190810190613039565b9850985098509850985098509850985050888b6000018181525050878b602001906001600160a01b031690816001600160a01b031681525050868b6040018181525050858b60e0018181525050848b610100018181525050838b610120018181525050828b610140018181525050818b610160019015159081151581525050808b6101800190151590811515815250505050505050505050505050565b600083830182858210156111995760405162461bcd60e51b81526004016123879190613e0a565b60405180910390fd5b600081848411156123b45760405162461bcd60e51b81526004016123879190613e0a565b505050900390565b604051806040016040528060008152602001600081525090565b60405180610200016040528060006001600160a01b0316815260200160008152602001600081526020016000815260200160008152602001600081526020016000815260200160008152602001600081526020016000151581526020016000815260200160006001600160a01b03168152602001600081526020016000815260200160008152602001600081525090565b6040518060c0016040528060006001600160a01b0316815260200160008152602001600081526020016000815260200160008152602001600081525090565b60408051608081018252600080825260208201819052918101829052606081019190915290565b604080516060810182526000808252602082018190529181019190915290565b604051806101c001604052806000815260200160006001600160a01b03168152602001600081526020016060815260200160608152602001606081526020016060815260200160008152602001600081526020016000815260200160008152602001600081526020016000151581526020016000151581525090565b60405180606001604052806060815260200160008152602001600081525090565b604051806101a001604052806000815260200160006001600160a01b031681526020016000815260200160608152602001606081526020016060815260200160608152602001600081526020016000815260200160008152602001600081526020016000151581526020016000151581525090565b6040518060800160405280600081526020016000815260200160006001600160a01b03168152602001600081525090565b604080518082019091526000808252602082015290565b6040518060600160405280600081526020016000815260200160006001600160a01b031681525090565b6040518061014001604052806000815260200160006001600160a01b031681526020016000815260200160008152602001600081526020016000815260200160008152602001600081526020016000151581526020016000151581525090565b8035610fd981613fb2565b8051610fd981613fb2565b600082601f8301126126f857600080fd5b815161270b61270682613eb5565b613e8f565b9150818183526020840193506020810190508385602084028201111561273057600080fd5b60005b8381101561275c578161274688826126dc565b8452506020928301929190910190600101612733565b5050505092915050565b600082601f83011261277757600080fd5b815161278561270682613eb5565b81815260209384019390925082018360005b8381101561275c57815186016127ad88826129c3565b8452506020928301929190910190600101612797565b60008083601f8401126127d557600080fd5b5081356001600160401b038111156127ec57600080fd5b60208301915083602082028301111561280457600080fd5b9250929050565b600082601f83011261281c57600080fd5b815161282a61270682613eb5565b9150818183526020840193506020810190508385602084028201111561284f57600080fd5b60005b8381101561275c57816128658882612a1d565b8452506020928301929190910190600101612852565b600082601f83011261288c57600080fd5b815161289a61270682613eb5565b81815260209384019390925082018360005b8381101561275c57815186016128c288826129c3565b84525060209283019291909101906001016128ac565b600082601f8301126128e957600080fd5b81356128f761270682613eb5565b9150818183526020840193506020810190508385602084028201111561291c57600080fd5b60005b8381101561275c57816129328882612bab565b845250602092830192919091019060010161291f565b600082601f83011261295957600080fd5b815161296761270682613eb5565b9150818183526020840193506020810190508385602084028201111561298c57600080fd5b60005b8381101561275c57816129a28882612bb6565b845250602092830192919091019060010161298f565b8051610fd981613fc9565b600082601f8301126129d457600080fd5b81516129e261270682613ed5565b915080825260208301602083018583830111156129fe57600080fd5b612a09838284613f7c565b50505092915050565b8035610fd981613fd2565b8051610fd981613fd2565b60006101408284031215612a3b57600080fd5b612a46610140613e8f565b90506000612a548484612bb6565b8252506020612a65848483016126dc565b6020830152506040612a7984828501612bb6565b6040830152506060612a8d84828501612bb6565b6060830152506080612aa184828501612bb6565b60808301525060a0612ab584828501612bb6565b60a08301525060c0612ac984828501612bb6565b60c08301525060e0612add84828501612bb6565b60e083015250610100612af2848285016129b8565b61010083015250610120612b08848285016129b8565b6101208301525092915050565b600060608284031215612b2757600080fd5b612b316060613e8f565b90506000612b3f84846129b8565b8252506020612b5084848301612bcc565b6020830152506040612b6484828501612bd7565b60408301525092915050565b600060608284031215612b8257600080fd5b612b8c6060613e8f565b90506000612b9a84846129b8565b8252506020612b50848483016129b8565b8035610fd981613fdb565b8051610fd981613fdb565b8035610fd981613fe4565b8051610fd981613fed565b8051610fd981613ff6565b600060208284031215612bf457600080fd5b6000612c0084846126dc565b949350505050565b60008060008060808587031215612c1e57600080fd5b84516001600160401b03811115612c3457600080fd5b612c40878288016126e7565b94505060208501516001600160401b03811115612c5c57600080fd5b612c6887828801612948565b93505060408501516001600160401b03811115612c8457600080fd5b612c908782880161287b565b92505060608501516001600160401b03811115612cac57600080fd5b612cb887828801612766565b91505092959194509250565b60008060208385031215612cd757600080fd5b82356001600160401b03811115612ced57600080fd5b612cf9858286016127c3565b92509250509250929050565b600080600060408486031215612d1a57600080fd5b83356001600160401b03811115612d3057600080fd5b612d3c868287016127c3565b93509350506020612d4f868287016126d1565b9150509250925092565b600060208284031215612d6b57600080fd5b81516001600160401b03811115612d8157600080fd5b612c008482850161280b565b60008060408385031215612da057600080fd5b6000612dac85856129b8565b9250506020612dbd85828601612bb6565b9150509250929050565b600060208284031215612dd957600080fd5b6000612c008484612a12565b60008060408385031215612df857600080fd5b6000612e048585612a12565b9250506020612dbd858286016126d1565b60008060008060608587031215612e2b57600080fd5b6000612e378787612a12565b9450506020612e48878288016126d1565b93505060408501356001600160401b03811115612e6457600080fd5b612e70878288016127c3565b95989497509550505050565b600080600060608486031215612e9157600080fd5b6000612e9d8686612a12565b9350506020612eae86828701612a12565b9250506040612d4f868287016126d1565b600060208284031215612ed157600080fd5b6000612c008484612a1d565b600080600060608486031215612ef257600080fd5b6000612efe8686612a12565b9350506020612f0f868287016126d1565b92505060408401356001600160401b03811115612f2b57600080fd5b612d4f868287016128d8565b600080600060408486031215612f4c57600080fd5b6000612f588686612a12565b93505060208401356001600160401b03811115612f7457600080fd5b612f80868287016127c3565b92509250509250925092565b600060208284031215612f9e57600080fd5b81516001600160401b03811115612fb457600080fd5b612c00848285016129c3565b60006101408284031215612fd357600080fd5b6000612c008484612a28565b600060608284031215612ff157600080fd5b6000612c008484612b15565b60006060828403121561300f57600080fd5b6000612c008484612b70565b60006020828403121561302d57600080fd5b6000612c008484612bb6565b60008060008060008060008060006101208a8c03121561305857600080fd5b60006130648c8c612bb6565b99505060206130758c828d016126dc565b98505060406130868c828d01612bb6565b97505060606130978c828d01612bb6565b96505060806130a88c828d01612bb6565b95505060a06130b98c828d01612bb6565b94505060c06130ca8c828d01612bb6565b93505060e06130db8c828d016129b8565b9250506101006130ed8c828d016129b8565b9150509295985092959850929598565b60008060006060848603121561311257600080fd5b600061311e8686612bb6565b935050602061312f86828701612bb6565b9250506040612d4f86828701612bb6565b60006020828403121561315257600080fd5b6000612c008484612bc1565b60006020828403121561317057600080fd5b6000612c008484612bcc565b60006020828403121561318e57600080fd5b6000612c008484612bd7565b60006131a68383613262565b505060200190565b6000610de1838361370e565b60006131a68383613746565b60006131d28383613797565b505060c00190565b60006131e6838361380d565b50506102000190565b60006131fb838361394c565b505060400190565b60006131fb83836139f1565b6000610de18383613a02565b60006132278383613b36565b505060800190565b6000610de18383613b80565b60006132278383613c9f565b60006131a68383613cd6565b61325c81613f66565b82525050565b61325c81613f14565b600061327682613f02565b6132808185613f06565b935061328b83613efc565b8060005b838110156132b95781516132a3888261319a565b97506132ae83613efc565b92505060010161328f565b509495945050505050565b60006132cf82613f02565b6132d98185613f06565b9350836020820285016132eb85613efc565b8060005b85811015613325578484038952815161330885826131ae565b945061331383613efc565b60209a909a01999250506001016132ef565b5091979650505050505050565b600061333d82613f02565b6133478185613f06565b935061335283613efc565b8060005b838110156132b957815161336a88826131ba565b975061337583613efc565b925050600101613356565b600061338b82613f02565b6133958185613f06565b9350836020820285016133a785613efc565b8060005b8581101561332557848403895281516133c485826131ae565b94506133cf83613efc565b60209a909a01999250506001016133ab565b60006133ec82613f02565b6133f68185613f06565b935061340183613efc565b8060005b838110156132b957815161341988826131c6565b975061342483613efc565b925050600101613405565b600061343a82613f02565b6134448185613f06565b935061344f83613efc565b8060005b838110156132b957815161346788826131da565b975061347283613efc565b925050600101613453565b600061348882613f02565b6134928185613f06565b935061349d83613efc565b8060005b838110156132b95781516134b588826131ef565b97506134c083613efc565b9250506001016134a1565b60006134d682613f02565b6134e08185613f06565b93506134eb83613efc565b8060005b838110156132b95781516135038882613203565b975061350e83613efc565b9250506001016134ef565b600061352482613f02565b61352e8185613f06565b93508360208202850161354085613efc565b8060005b85811015613325578484038952815161355d858261320f565b945061356883613efc565b60209a909a0199925050600101613544565b600061358582613f02565b61358f8185613f06565b935061359a83613efc565b8060005b838110156132b95781516135b2888261321b565b97506135bd83613efc565b92505060010161359e565b60006135d382613f02565b6135dd8185613f06565b9350836020820285016135ef85613efc565b8060005b85811015613325578484038952815161360c858261322f565b945061361783613efc565b60209a909a01999250506001016135f3565b600061363482613f02565b61363e8185613f06565b935061364983613efc565b8060005b838110156132b9578151613661888261323b565b975061366c83613efc565b92505060010161364d565b600061368282613f02565b61368c8185613f06565b935061369783613efc565b8060005b838110156132b95781516136af8882613247565b97506136ba83613efc565b92505060010161369b565b61325c81613f1f565b61325c6136da82613f24565b613f48565b60006136ea82613f02565b6136f48185613f0f565b9350613704818560208601613f7c565b9290920192915050565b600061371982613f02565b6137238185613f06565b9350613733818560208601613f7c565b61373c81613fa8565b9093019392505050565b61325c81613f31565b80516060808452600091908401906137678282613332565b915050602083015161377c6020860182613cd6565b50604083015161378f6040860182613cd6565b509392505050565b805160c08301906137a88482613262565b5060208201516137bb6020850182613cd6565b5060408201516137ce6040850182613cd6565b5060608201516137e16060850182613cd6565b5060808201516137f46080850182613cd6565b5060a082015161380760a0850182613cd6565b50505050565b805161020083019061381f8482613262565b5060208201516138326020850182613cd6565b5060408201516138456040850182613cd6565b5060608201516138586060850182613cd6565b50608082015161386b6080850182613cd6565b5060a082015161387e60a0850182613cd6565b5060c082015161389160c0850182613cd6565b5060e08201516138a460e0850182613cd6565b506101008201516138b9610100850182613cd6565b506101208201516138ce6101208501826136c5565b506101408201516138e3610140850182613cd6565b506101608201516138f8610160850182613262565b5061018082015161390d610180850182613cd6565b506101a08201516139226101a0850182613cd6565b506101c08201516139376101c0850182613cd6565b506101e08201516138076101e0850182613cd6565b8051604083019061395d8482613262565b5060208201516138076020850182613cd6565b805160808301906139818482613cd6565b5060208201516139946020850182613cd6565b5060408201516139a76040850182613262565b5060608201516138076060850182613cd6565b805160608301906139cb8482613cd6565b5060208201516139de6020850182613cd6565b5060408201516138076040850182613262565b8051604083019061395d8482613cd6565b80516000906101c0840190613a178582613cd6565b506020830151613a2a6020860182613262565b506040830151613a3d6040860182613cd6565b5060608301518482036060860152613a55828261326b565b91505060808301518482036080860152613a6f8282613677565b91505060a083015184820360a0860152613a898282613380565b91505060c083015184820360c0860152613aa382826132c4565b91505060e0830151613ab860e0860182613cd6565b50610100830151613acd610100860182613cd6565b50610120830151613ae2610120860182613cd6565b50610140830151613af7610140860182613cd6565b50610160830151613b0c610160860182613cd6565b50610180830151613b216101808601826136c5565b506101a083015161378f6101a08601826136c5565b80516080830190613b478482613cd6565b506020820151613b5a60208501826136c5565b506040820151613b6d6040850182613ce8565b5060608201516138076060850182613cf1565b80516000906101a0840190613b958582613cd6565b506020830151613ba86020860182613262565b506040830151613bbb6040860182613cd6565b5060608301518482036060860152613bd3828261326b565b91505060808301518482036080860152613bed8282613677565b91505060a083015184820360a0860152613c078282613380565b91505060c083015184820360c0860152613c2182826132c4565b91505060e0830151613c3660e0860182613cd6565b50610100830151613c4b610100860182613cd6565b50610120830151613c60610120860182613cd6565b50610140830151613c75610140860182613cd6565b50610160830151613c8a6101608601826136c5565b5061018083015161378f6101808601826136c5565b80516080830190613cb08482613cd6565b506020820151613cc360208501826136c5565b506040820151613b6d60408501826136c5565b61325c81613f48565b61325c81613f71565b61325c81613f54565b61325c81613f5a565b6000613d0682856136ce565b600482019150612c0082846136df565b6000610de182846136df565b60208101610fd98284613262565b60208101610fd98284613253565b60408101613d4c8285613253565b610de16020830184613262565b60408101613d678285613262565b610de16020830184613cdf565b60208082528101610de181846133e1565b60208082528101610de1818461342f565b60208082528101610de1818461347d565b60208082528101610de181846134cb565b60208082528101610de18184613519565b60208082528101610de1818461357a565b60208082528101610de181846135c8565b60208082528101610de18184613629565b60208101610fd98284613746565b60208082528101610de1818461370e565b60208082528101610de1818461374f565b60c08101610fd98284613797565b6102008101610fd9828461380d565b60408101610fd9828461394c565b60808101610fd98284613970565b60608101610fd982846139ba565b60208101610fd98284613cd6565b60408101613d4c8285613cd6565b6040518181016001600160401b0381118282101715613ead57600080fd5b604052919050565b60006001600160401b03821115613ecb57600080fd5b5060209081020190565b60006001600160401b03821115613eeb57600080fd5b506020601f91909101601f19160190565b60200190565b5190565b90815260200190565b919050565b6000610fd982613f3c565b151590565b6001600160e01b03191690565b6000610fd982613f14565b6001600160a01b031690565b90565b63ffffffff1690565b60ff1690565b6001600160601b031690565b6000610fd982613f31565b6000610fd982613f4b565b60005b83811015613f97578181015183820152602001613f7f565b838111156138075750506000910152565b601f01601f191690565b613fbb81613f14565b8114613fc657600080fd5b50565b613fbb81613f1f565b613fbb81613f31565b613fbb81613f48565b613fbb81613f4b565b613fbb81613f54565b613fbb81613f5a56fea365627a7a72315820e9780e2979603b5f5d0276d9b435691e864bc12a02492dd381ecdd939d1a4c836c6578706572696d656e74616cf564736f6c63430005110040",
			"opcodes": "PUSH1 0x80 PUSH1 0x40 MSTORE CALLVALUE DUP1 ISZERO PUSH2 0x10 JUMPI PUSH1 0x0 DUP1 REVERT JUMPDEST POP PUSH2 0x4042 DUP1 PUSH2 0x20 PUSH1 0x0 CODECOPY PUSH1 0x0 RETURN INVALID PUSH1 0x80 PUSH1 0x40 MSTORE CALLVALUE DUP1 ISZERO PUSH2 0x10 JUMPI PUSH1 0x0 DUP1 REVERT JUMPDEST POP PUSH1 0x4 CALLDATASIZE LT PUSH2 0xEA JUMPI PUSH1 0x0 CALLDATALOAD PUSH1 0xE0 SHR DUP1 PUSH4 0x8CC2D79F GT PUSH2 0x8C JUMPI DUP1 PUSH4 0xAB55F25A GT PUSH2 0x66 JUMPI DUP1 PUSH4 0xAB55F25A EQ PUSH2 0x238 JUMPI DUP1 PUSH4 0xB8980F73 EQ PUSH2 0x258 JUMPI DUP1 PUSH4 0xF3FF526D EQ PUSH2 0x278 JUMPI DUP1 PUSH4 0xFD954391 EQ PUSH2 0x298 JUMPI PUSH2 0xEA JUMP JUMPDEST DUP1 PUSH4 0x8CC2D79F EQ PUSH2 0x1D8 JUMPI DUP1 PUSH4 0x96994869 EQ PUSH2 0x1F8 JUMPI DUP1 PUSH4 0x995ED99F EQ PUSH2 0x218 JUMPI PUSH2 0xEA JUMP JUMPDEST DUP1 PUSH4 0x43C811CC GT PUSH2 0xC8 JUMPI DUP1 PUSH4 0x43C811CC EQ PUSH2 0x158 JUMPI DUP1 PUSH4 0x4A0186A5 EQ PUSH2 0x178 JUMPI DUP1 PUSH4 0x75D80E90 EQ PUSH2 0x198 JUMPI DUP1 PUSH4 0x7DD8F6D9 EQ PUSH2 0x1B8 JUMPI PUSH2 0xEA JUMP JUMPDEST DUP1 PUSH4 0x491292B EQ PUSH2 0xEF JUMPI DUP1 PUSH4 0x1F8A2049 EQ PUSH2 0x118 JUMPI DUP1 PUSH4 0x3F3158A3 EQ PUSH2 0x138 JUMPI JUMPDEST PUSH1 0x0 DUP1 REVERT JUMPDEST PUSH2 0x102 PUSH2 0xFD CALLDATASIZE PUSH1 0x4 PUSH2 0x2E15 JUMP JUMPDEST PUSH2 0x2B8 JUMP JUMPDEST PUSH1 0x40 MLOAD PUSH2 0x10F SWAP2 SWAP1 PUSH2 0x3DA7 JUMP JUMPDEST PUSH1 0x40 MLOAD DUP1 SWAP2 SUB SWAP1 RETURN JUMPDEST PUSH2 0x12B PUSH2 0x126 CALLDATASIZE PUSH1 0x4 PUSH2 0x2DC7 JUMP JUMPDEST PUSH2 0x410 JUMP JUMPDEST PUSH1 0x40 MLOAD PUSH2 0x10F SWAP2 SWAP1 PUSH2 0x3E3A JUMP JUMPDEST PUSH2 0x14B PUSH2 0x146 CALLDATASIZE PUSH1 0x4 PUSH2 0x2D05 JUMP JUMPDEST PUSH2 0xD45 JUMP JUMPDEST PUSH1 0x40 MLOAD PUSH2 0x10F SWAP2 SWAP1 PUSH2 0x3D74 JUMP JUMPDEST PUSH2 0x16B PUSH2 0x166 CALLDATASIZE PUSH1 0x4 PUSH2 0x2EDD JUMP JUMPDEST PUSH2 0xDE8 JUMP JUMPDEST PUSH1 0x40 MLOAD PUSH2 0x10F SWAP2 SWAP1 PUSH2 0x3DC9 JUMP JUMPDEST PUSH2 0x18B PUSH2 0x186 CALLDATASIZE PUSH1 0x4 PUSH2 0x2CC4 JUMP JUMPDEST PUSH2 0xF43 JUMP JUMPDEST PUSH1 0x40 MLOAD PUSH2 0x10F SWAP2 SWAP1 PUSH2 0x3D85 JUMP JUMPDEST PUSH2 0x1AB PUSH2 0x1A6 CALLDATASIZE PUSH1 0x4 PUSH2 0x2F37 JUMP JUMPDEST PUSH2 0xFDF JUMP JUMPDEST PUSH1 0x40 MLOAD PUSH2 0x10F SWAP2 SWAP1 PUSH2 0x3DB8 JUMP JUMPDEST PUSH2 0x1CB PUSH2 0x1C6 CALLDATASIZE PUSH1 0x4 PUSH2 0x2DE5 JUMP JUMPDEST PUSH2 0x11A2 JUMP JUMPDEST PUSH1 0x40 MLOAD PUSH2 0x10F SWAP2 SWAP1 PUSH2 0x3E1B JUMP JUMPDEST PUSH2 0x1EB PUSH2 0x1E6 CALLDATASIZE PUSH1 0x4 PUSH2 0x2DE5 JUMP JUMPDEST PUSH2 0x12DE JUMP JUMPDEST PUSH1 0x40 MLOAD PUSH2 0x10F SWAP2 SWAP1 PUSH2 0x3E2C JUMP JUMPDEST PUSH2 0x20B PUSH2 0x206 CALLDATASIZE PUSH1 0x4 PUSH2 0x2F37 JUMP JUMPDEST PUSH2 0x167E JUMP JUMPDEST PUSH1 0x40 MLOAD PUSH2 0x10F SWAP2 SWAP1 PUSH2 0x3DDA JUMP JUMPDEST PUSH2 0x22B PUSH2 0x226 CALLDATASIZE PUSH1 0x4 PUSH2 0x2EDD JUMP JUMPDEST PUSH2 0x1831 JUMP JUMPDEST PUSH1 0x40 MLOAD PUSH2 0x10F SWAP2 SWAP1 PUSH2 0x3DEB JUMP JUMPDEST PUSH2 0x24B PUSH2 0x246 CALLDATASIZE PUSH1 0x4 PUSH2 0x2E7C JUMP JUMPDEST PUSH2 0x198B JUMP JUMPDEST PUSH1 0x40 MLOAD PUSH2 0x10F SWAP2 SWAP1 PUSH2 0x3E57 JUMP JUMPDEST PUSH2 0x26B PUSH2 0x266 CALLDATASIZE PUSH1 0x4 PUSH2 0x2CC4 JUMP JUMPDEST PUSH2 0x1D12 JUMP JUMPDEST PUSH1 0x40 MLOAD PUSH2 0x10F SWAP2 SWAP1 PUSH2 0x3D96 JUMP JUMPDEST PUSH2 0x28B PUSH2 0x286 CALLDATASIZE PUSH1 0x4 PUSH2 0x2DC7 JUMP JUMPDEST PUSH2 0x1DA3 JUMP JUMPDEST PUSH1 0x40 MLOAD PUSH2 0x10F SWAP2 SWAP1 PUSH2 0x3E49 JUMP JUMPDEST PUSH2 0x2AB PUSH2 0x2A6 CALLDATASIZE PUSH1 0x4 PUSH2 0x2DE5 JUMP JUMPDEST PUSH2 0x1F35 JUMP JUMPDEST PUSH1 0x40 MLOAD PUSH2 0x10F SWAP2 SWAP1 PUSH2 0x3E65 JUMP JUMPDEST PUSH1 0x60 DUP1 DUP4 DUP4 SWAP1 POP PUSH1 0x40 MLOAD SWAP1 DUP1 DUP3 MSTORE DUP1 PUSH1 0x20 MUL PUSH1 0x20 ADD DUP3 ADD PUSH1 0x40 MSTORE DUP1 ISZERO PUSH2 0x2F8 JUMPI DUP2 PUSH1 0x20 ADD JUMPDEST PUSH2 0x2E5 PUSH2 0x23BC JUMP JUMPDEST DUP2 MSTORE PUSH1 0x20 ADD SWAP1 PUSH1 0x1 SWAP1 SUB SWAP1 DUP2 PUSH2 0x2DD JUMPI SWAP1 POP JUMPDEST POP SWAP1 POP PUSH1 0x0 JUMPDEST DUP4 DUP2 LT ISZERO PUSH2 0x406 JUMPI PUSH1 0x40 MLOAD DUP1 PUSH1 0x40 ADD PUSH1 0x40 MSTORE DUP1 DUP7 DUP7 DUP5 DUP2 DUP2 LT PUSH2 0x31D JUMPI INVALID JUMPDEST SWAP1 POP PUSH1 0x20 MUL ADD PUSH1 0x20 PUSH2 0x332 SWAP2 SWAP1 DUP2 ADD SWAP1 PUSH2 0x3140 JUMP JUMPDEST PUSH4 0xFFFFFFFF AND DUP2 MSTORE PUSH1 0x20 ADD DUP9 PUSH1 0x1 PUSH1 0x1 PUSH1 0xA0 SHL SUB AND PUSH4 0x782D6FE1 DUP10 DUP10 DUP10 DUP8 DUP2 DUP2 LT PUSH2 0x359 JUMPI INVALID JUMPDEST SWAP1 POP PUSH1 0x20 MUL ADD PUSH1 0x20 PUSH2 0x36E SWAP2 SWAP1 DUP2 ADD SWAP1 PUSH2 0x3140 JUMP JUMPDEST PUSH1 0x40 MLOAD DUP4 PUSH4 0xFFFFFFFF AND PUSH1 0xE0 SHL DUP2 MSTORE PUSH1 0x4 ADD PUSH2 0x38B SWAP3 SWAP2 SWAP1 PUSH2 0x3D59 JUMP JUMPDEST PUSH1 0x20 PUSH1 0x40 MLOAD DUP1 DUP4 SUB DUP2 DUP7 DUP1 EXTCODESIZE ISZERO DUP1 ISZERO PUSH2 0x3A3 JUMPI PUSH1 0x0 DUP1 REVERT JUMPDEST POP GAS STATICCALL ISZERO DUP1 ISZERO PUSH2 0x3B7 JUMPI RETURNDATASIZE PUSH1 0x0 DUP1 RETURNDATACOPY RETURNDATASIZE PUSH1 0x0 REVERT JUMPDEST POP POP POP POP PUSH1 0x40 MLOAD RETURNDATASIZE PUSH1 0x1F NOT PUSH1 0x1F DUP3 ADD AND DUP3 ADD DUP1 PUSH1 0x40 MSTORE POP PUSH2 0x3DB SWAP2 SWAP1 DUP2 ADD SWAP1 PUSH2 0x317C JUMP JUMPDEST PUSH1 0x1 PUSH1 0x1 PUSH1 0x60 SHL SUB AND DUP2 MSTORE POP DUP3 DUP3 DUP2 MLOAD DUP2 LT PUSH2 0x3F3 JUMPI INVALID JUMPDEST PUSH1 0x20 SWAP1 DUP2 MUL SWAP2 SWAP1 SWAP2 ADD ADD MSTORE PUSH1 0x1 ADD PUSH2 0x2FE JUMP JUMPDEST POP SWAP6 SWAP5 POP POP POP POP POP JUMP JUMPDEST PUSH2 0x418 PUSH2 0x23D6 JUMP JUMPDEST PUSH1 0x0 DUP3 PUSH1 0x1 PUSH1 0x1 PUSH1 0xA0 SHL SUB AND PUSH4 0xBD6D894D PUSH1 0x40 MLOAD DUP2 PUSH4 0xFFFFFFFF AND PUSH1 0xE0 SHL DUP2 MSTORE PUSH1 0x4 ADD PUSH1 0x20 PUSH1 0x40 MLOAD DUP1 DUP4 SUB DUP2 PUSH1 0x0 DUP8 DUP1 EXTCODESIZE ISZERO DUP1 ISZERO PUSH2 0x455 JUMPI PUSH1 0x0 DUP1 REVERT JUMPDEST POP GAS CALL ISZERO DUP1 ISZERO PUSH2 0x469 JUMPI RETURNDATASIZE PUSH1 0x0 DUP1 RETURNDATACOPY RETURNDATASIZE PUSH1 0x0 REVERT JUMPDEST POP POP POP POP PUSH1 0x40 MLOAD RETURNDATASIZE PUSH1 0x1F NOT PUSH1 0x1F DUP3 ADD AND DUP3 ADD DUP1 PUSH1 0x40 MSTORE POP PUSH2 0x48D SWAP2 SWAP1 DUP2 ADD SWAP1 PUSH2 0x301B JUMP JUMPDEST SWAP1 POP PUSH1 0x0 DUP4 PUSH1 0x1 PUSH1 0x1 PUSH1 0xA0 SHL SUB AND PUSH4 0xE8B29A90 PUSH1 0x40 MLOAD DUP2 PUSH4 0xFFFFFFFF AND PUSH1 0xE0 SHL DUP2 MSTORE PUSH1 0x4 ADD PUSH1 0x20 PUSH1 0x40 MLOAD DUP1 DUP4 SUB DUP2 DUP7 DUP1 EXTCODESIZE ISZERO DUP1 ISZERO PUSH2 0x4CA JUMPI PUSH1 0x0 DUP1 REVERT JUMPDEST POP GAS STATICCALL ISZERO DUP1 ISZERO PUSH2 0x4DE JUMPI RETURNDATASIZE PUSH1 0x0 DUP1 RETURNDATACOPY RETURNDATASIZE PUSH1 0x0 REVERT JUMPDEST POP POP POP POP PUSH1 0x40 MLOAD RETURNDATASIZE PUSH1 0x1F NOT PUSH1 0x1F DUP3 ADD AND DUP3 ADD DUP1 PUSH1 0x40 MSTORE POP PUSH2 0x502 SWAP2 SWAP1 DUP2 ADD SWAP1 PUSH2 0x2EBF JUMP JUMPDEST SWAP1 POP PUSH1 0x0 DUP1 DUP3 PUSH1 0x1 PUSH1 0x1 PUSH1 0xA0 SHL SUB AND PUSH4 0x8E8F294B DUP8 PUSH1 0x40 MLOAD DUP3 PUSH4 0xFFFFFFFF AND PUSH1 0xE0 SHL DUP2 MSTORE PUSH1 0x4 ADD PUSH2 0x533 SWAP2 SWAP1 PUSH2 0x3D22 JUMP JUMPDEST PUSH1 0x40 DUP1 MLOAD DUP1 DUP4 SUB DUP2 DUP7 DUP1 EXTCODESIZE ISZERO DUP1 ISZERO PUSH2 0x54A JUMPI PUSH1 0x0 DUP1 REVERT JUMPDEST POP GAS STATICCALL ISZERO DUP1 ISZERO PUSH2 0x55E JUMPI RETURNDATASIZE PUSH1 0x0 DUP1 RETURNDATACOPY RETURNDATASIZE PUSH1 0x0 REVERT JUMPDEST POP POP POP POP PUSH1 0x40 MLOAD RETURNDATASIZE PUSH1 0x1F NOT PUSH1 0x1F DUP3 ADD AND DUP3 ADD DUP1 PUSH1 0x40 MSTORE POP PUSH2 0x582 SWAP2 SWAP1 DUP2 ADD SWAP1 PUSH2 0x2D8D JUMP JUMPDEST SWAP2 POP SWAP2 POP PUSH1 0x0 DUP1 PUSH2 0x623 DUP9 PUSH1 0x1 PUSH1 0x1 PUSH1 0xA0 SHL SUB AND PUSH4 0x95D89B41 PUSH1 0x40 MLOAD DUP2 PUSH4 0xFFFFFFFF AND PUSH1 0xE0 SHL DUP2 MSTORE PUSH1 0x4 ADD PUSH1 0x0 PUSH1 0x40 MLOAD DUP1 DUP4 SUB DUP2 DUP7 DUP1 EXTCODESIZE ISZERO DUP1 ISZERO PUSH2 0x5C5 JUMPI PUSH1 0x0 DUP1 REVERT JUMPDEST POP GAS STATICCALL ISZERO DUP1 ISZERO PUSH2 0x5D9 JUMPI RETURNDATASIZE PUSH1 0x0 DUP1 RETURNDATACOPY RETURNDATASIZE PUSH1 0x0 REVERT JUMPDEST POP POP POP POP PUSH1 0x40 MLOAD RETURNDATASIZE PUSH1 0x0 DUP3 RETURNDATACOPY PUSH1 0x1F RETURNDATASIZE SWAP1 DUP2 ADD PUSH1 0x1F NOT AND DUP3 ADD PUSH1 0x40 MSTORE PUSH2 0x601 SWAP2 SWAP1 DUP2 ADD SWAP1 PUSH2 0x2F8C JUMP JUMPDEST PUSH1 0x40 MLOAD DUP1 PUSH1 0x40 ADD PUSH1 0x40 MSTORE DUP1 PUSH1 0x4 DUP2 MSTORE PUSH1 0x20 ADD PUSH4 0xC88AA89 PUSH1 0xE3 SHL DUP2 MSTORE POP PUSH2 0x20DE JUMP JUMPDEST ISZERO PUSH2 0x634 JUMPI POP PUSH1 0x0 SWAP1 POP PUSH1 0x12 PUSH2 0x794 JUMP JUMPDEST PUSH1 0x0 DUP9 SWAP1 POP DUP1 PUSH1 0x1 PUSH1 0x1 PUSH1 0xA0 SHL SUB AND PUSH4 0x6F307DC3 PUSH1 0x40 MLOAD DUP2 PUSH4 0xFFFFFFFF AND PUSH1 0xE0 SHL DUP2 MSTORE PUSH1 0x4 ADD PUSH1 0x20 PUSH1 0x40 MLOAD DUP1 DUP4 SUB DUP2 DUP7 DUP1 EXTCODESIZE ISZERO DUP1 ISZERO PUSH2 0x672 JUMPI PUSH1 0x0 DUP1 REVERT JUMPDEST POP GAS STATICCALL ISZERO DUP1 ISZERO PUSH2 0x686 JUMPI RETURNDATASIZE PUSH1 0x0 DUP1 RETURNDATACOPY RETURNDATASIZE PUSH1 0x0 REVERT JUMPDEST POP POP POP POP PUSH1 0x40 MLOAD RETURNDATASIZE PUSH1 0x1F NOT PUSH1 0x1F DUP3 ADD AND DUP3 ADD DUP1 PUSH1 0x40 MSTORE POP PUSH2 0x6AA SWAP2 SWAP1 DUP2 ADD SWAP1 PUSH2 0x2BE2 JUMP JUMPDEST SWAP3 POP DUP1 PUSH1 0x1 PUSH1 0x1 PUSH1 0xA0 SHL SUB AND PUSH4 0x6F307DC3 PUSH1 0x40 MLOAD DUP2 PUSH4 0xFFFFFFFF AND PUSH1 0xE0 SHL DUP2 MSTORE PUSH1 0x4 ADD PUSH1 0x20 PUSH1 0x40 MLOAD DUP1 DUP4 SUB DUP2 DUP7 DUP1 EXTCODESIZE ISZERO DUP1 ISZERO PUSH2 0x6E5 JUMPI PUSH1 0x0 DUP1 REVERT JUMPDEST POP GAS STATICCALL ISZERO DUP1 ISZERO PUSH2 0x6F9 JUMPI RETURNDATASIZE PUSH1 0x0 DUP1 RETURNDATACOPY RETURNDATASIZE PUSH1 0x0 REVERT JUMPDEST POP POP POP POP PUSH1 0x40 MLOAD RETURNDATASIZE PUSH1 0x1F NOT PUSH1 0x1F DUP3 ADD AND DUP3 ADD DUP1 PUSH1 0x40 MSTORE POP PUSH2 0x71D SWAP2 SWAP1 DUP2 ADD SWAP1 PUSH2 0x2BE2 JUMP JUMPDEST PUSH1 0x1 PUSH1 0x1 PUSH1 0xA0 SHL SUB AND PUSH4 0x313CE567 PUSH1 0x40 MLOAD DUP2 PUSH4 0xFFFFFFFF AND PUSH1 0xE0 SHL DUP2 MSTORE PUSH1 0x4 ADD PUSH1 0x20 PUSH1 0x40 MLOAD DUP1 DUP4 SUB DUP2 DUP7 DUP1 EXTCODESIZE ISZERO DUP1 ISZERO PUSH2 0x755 JUMPI PUSH1 0x0 DUP1 REVERT JUMPDEST POP GAS STATICCALL ISZERO DUP1 ISZERO PUSH2 0x769 JUMPI RETURNDATASIZE PUSH1 0x0 DUP1 RETURNDATACOPY RETURNDATASIZE PUSH1 0x0 REVERT JUMPDEST POP POP POP POP PUSH1 0x40 MLOAD RETURNDATASIZE PUSH1 0x1F NOT PUSH1 0x1F DUP3 ADD AND DUP3 ADD DUP1 PUSH1 0x40 MSTORE POP PUSH2 0x78D SWAP2 SWAP1 DUP2 ADD SWAP1 PUSH2 0x315E JUMP JUMPDEST PUSH1 0xFF AND SWAP2 POP POP JUMPDEST PUSH1 0x40 MLOAD PUSH1 0x0 SWAP1 DUP2 SWAP1 PUSH1 0x60 SWAP1 PUSH1 0x1 PUSH1 0x1 PUSH1 0xA0 SHL SUB DUP10 AND SWAP1 PUSH4 0x46AE07A5 PUSH1 0xE1 SHL SWAP1 PUSH2 0x7C1 SWAP1 DUP15 SWAP1 PUSH1 0x20 ADD PUSH2 0x3D22 JUMP JUMPDEST PUSH1 0x40 DUP1 MLOAD PUSH1 0x1F NOT DUP2 DUP5 SUB ADD DUP2 MSTORE SWAP1 DUP3 SWAP1 MSTORE PUSH2 0x7DF SWAP3 SWAP2 PUSH1 0x20 ADD PUSH2 0x3CFA JUMP JUMPDEST PUSH1 0x40 DUP1 MLOAD PUSH1 0x1F NOT DUP2 DUP5 SUB ADD DUP2 MSTORE SWAP1 DUP3 SWAP1 MSTORE PUSH2 0x7F9 SWAP2 PUSH2 0x3D16 JUMP JUMPDEST PUSH1 0x0 PUSH1 0x40 MLOAD DUP1 DUP4 SUB DUP2 PUSH1 0x0 DUP7 GAS CALL SWAP2 POP POP RETURNDATASIZE DUP1 PUSH1 0x0 DUP2 EQ PUSH2 0x836 JUMPI PUSH1 0x40 MLOAD SWAP2 POP PUSH1 0x1F NOT PUSH1 0x3F RETURNDATASIZE ADD AND DUP3 ADD PUSH1 0x40 MSTORE RETURNDATASIZE DUP3 MSTORE RETURNDATASIZE PUSH1 0x0 PUSH1 0x20 DUP5 ADD RETURNDATACOPY PUSH2 0x83B JUMP JUMPDEST PUSH1 0x60 SWAP2 POP JUMPDEST POP SWAP2 POP SWAP2 POP DUP2 ISZERO PUSH2 0x85D JUMPI DUP1 DUP1 PUSH1 0x20 ADD SWAP1 MLOAD PUSH2 0x85A SWAP2 SWAP1 DUP2 ADD SWAP1 PUSH2 0x301B JUMP JUMPDEST SWAP3 POP JUMPDEST PUSH1 0x0 DUP1 SWAP1 POP PUSH1 0x0 PUSH1 0x60 DUP11 PUSH1 0x1 PUSH1 0x1 PUSH1 0xA0 SHL SUB AND DUP12 PUSH1 0x1 PUSH1 0x1 PUSH1 0xA0 SHL SUB AND PUSH4 0x4A584432 SWAP1 POP PUSH1 0xE0 SHL DUP16 PUSH1 0x40 MLOAD PUSH1 0x20 ADD PUSH2 0x895 SWAP2 SWAP1 PUSH2 0x3D22 JUMP JUMPDEST PUSH1 0x40 DUP1 MLOAD PUSH1 0x1F NOT DUP2 DUP5 SUB ADD DUP2 MSTORE SWAP1 DUP3 SWAP1 MSTORE PUSH2 0x8B3 SWAP3 SWAP2 PUSH1 0x20 ADD PUSH2 0x3CFA JUMP JUMPDEST PUSH1 0x40 DUP1 MLOAD PUSH1 0x1F NOT DUP2 DUP5 SUB ADD DUP2 MSTORE SWAP1 DUP3 SWAP1 MSTORE PUSH2 0x8CD SWAP2 PUSH2 0x3D16 JUMP JUMPDEST PUSH1 0x0 PUSH1 0x40 MLOAD DUP1 DUP4 SUB DUP2 PUSH1 0x0 DUP7 GAS CALL SWAP2 POP POP RETURNDATASIZE DUP1 PUSH1 0x0 DUP2 EQ PUSH2 0x90A JUMPI PUSH1 0x40 MLOAD SWAP2 POP PUSH1 0x1F NOT PUSH1 0x3F RETURNDATASIZE ADD AND DUP3 ADD PUSH1 0x40 MSTORE RETURNDATASIZE DUP3 MSTORE RETURNDATASIZE PUSH1 0x0 PUSH1 0x20 DUP5 ADD RETURNDATACOPY PUSH2 0x90F JUMP JUMPDEST PUSH1 0x60 SWAP2 POP JUMPDEST POP SWAP2 POP SWAP2 POP DUP2 ISZERO PUSH2 0x931 JUMPI DUP1 DUP1 PUSH1 0x20 ADD SWAP1 MLOAD PUSH2 0x92E SWAP2 SWAP1 DUP2 ADD SWAP1 PUSH2 0x301B JUMP JUMPDEST SWAP3 POP JUMPDEST PUSH1 0x40 MLOAD DUP1 PUSH2 0x200 ADD PUSH1 0x40 MSTORE DUP1 DUP16 PUSH1 0x1 PUSH1 0x1 PUSH1 0xA0 SHL SUB AND DUP2 MSTORE PUSH1 0x20 ADD DUP14 DUP2 MSTORE PUSH1 0x20 ADD DUP16 PUSH1 0x1 PUSH1 0x1 PUSH1 0xA0 SHL SUB AND PUSH4 0xAE9D70B0 PUSH1 0x40 MLOAD DUP2 PUSH4 0xFFFFFFFF AND PUSH1 0xE0 SHL DUP2 MSTORE PUSH1 0x4 ADD PUSH1 0x20 PUSH1 0x40 MLOAD DUP1 DUP4 SUB DUP2 DUP7 DUP1 EXTCODESIZE ISZERO DUP1 ISZERO PUSH2 0x98B JUMPI PUSH1 0x0 DUP1 REVERT JUMPDEST POP GAS STATICCALL ISZERO DUP1 ISZERO PUSH2 0x99F JUMPI RETURNDATASIZE PUSH1 0x0 DUP1 RETURNDATACOPY RETURNDATASIZE PUSH1 0x0 REVERT JUMPDEST POP POP POP POP PUSH1 0x40 MLOAD RETURNDATASIZE PUSH1 0x1F NOT PUSH1 0x1F DUP3 ADD AND DUP3 ADD DUP1 PUSH1 0x40 MSTORE POP PUSH2 0x9C3 SWAP2 SWAP1 DUP2 ADD SWAP1 PUSH2 0x301B JUMP JUMPDEST DUP2 MSTORE PUSH1 0x20 ADD DUP16 PUSH1 0x1 PUSH1 0x1 PUSH1 0xA0 SHL SUB AND PUSH4 0xF8F9DA28 PUSH1 0x40 MLOAD DUP2 PUSH4 0xFFFFFFFF AND PUSH1 0xE0 SHL DUP2 MSTORE PUSH1 0x4 ADD PUSH1 0x20 PUSH1 0x40 MLOAD DUP1 DUP4 SUB DUP2 DUP7 DUP1 EXTCODESIZE ISZERO DUP1 ISZERO PUSH2 0xA01 JUMPI PUSH1 0x0 DUP1 REVERT JUMPDEST POP GAS STATICCALL ISZERO DUP1 ISZERO PUSH2 0xA15 JUMPI RETURNDATASIZE PUSH1 0x0 DUP1 RETURNDATACOPY RETURNDATASIZE PUSH1 0x0 REVERT JUMPDEST POP POP POP POP PUSH1 0x40 MLOAD RETURNDATASIZE PUSH1 0x1F NOT PUSH1 0x1F DUP3 ADD AND DUP3 ADD DUP1 PUSH1 0x40 MSTORE POP PUSH2 0xA39 SWAP2 SWAP1 DUP2 ADD SWAP1 PUSH2 0x301B JUMP JUMPDEST DUP2 MSTORE PUSH1 0x20 ADD DUP16 PUSH1 0x1 PUSH1 0x1 PUSH1 0xA0 SHL SUB AND PUSH4 0x173B9904 PUSH1 0x40 MLOAD DUP2 PUSH4 0xFFFFFFFF AND PUSH1 0xE0 SHL DUP2 MSTORE PUSH1 0x4 ADD PUSH1 0x20 PUSH1 0x40 MLOAD DUP1 DUP4 SUB DUP2 DUP7 DUP1 EXTCODESIZE ISZERO DUP1 ISZERO PUSH2 0xA77 JUMPI PUSH1 0x0 DUP1 REVERT JUMPDEST POP GAS STATICCALL ISZERO DUP1 ISZERO PUSH2 0xA8B JUMPI RETURNDATASIZE PUSH1 0x0 DUP1 RETURNDATACOPY RETURNDATASIZE PUSH1 0x0 REVERT JUMPDEST POP POP POP POP PUSH1 0x40 MLOAD RETURNDATASIZE PUSH1 0x1F NOT PUSH1 0x1F DUP3 ADD AND DUP3 ADD DUP1 PUSH1 0x40 MSTORE POP PUSH2 0xAAF SWAP2 SWAP1 DUP2 ADD SWAP1 PUSH2 0x301B JUMP JUMPDEST DUP2 MSTORE PUSH1 0x20 ADD DUP16 PUSH1 0x1 PUSH1 0x1 PUSH1 0xA0 SHL SUB AND PUSH4 0x47BD3718 PUSH1 0x40 MLOAD DUP2 PUSH4 0xFFFFFFFF AND PUSH1 0xE0 SHL DUP2 MSTORE PUSH1 0x4 ADD PUSH1 0x20 PUSH1 0x40 MLOAD DUP1 DUP4 SUB DUP2 DUP7 DUP1 EXTCODESIZE ISZERO DUP1 ISZERO PUSH2 0xAED JUMPI PUSH1 0x0 DUP1 REVERT JUMPDEST POP GAS STATICCALL ISZERO DUP1 ISZERO PUSH2 0xB01 JUMPI RETURNDATASIZE PUSH1 0x0 DUP1 RETURNDATACOPY RETURNDATASIZE PUSH1 0x0 REVERT JUMPDEST POP POP POP POP PUSH1 0x40 MLOAD RETURNDATASIZE PUSH1 0x1F NOT PUSH1 0x1F DUP3 ADD AND DUP3 ADD DUP1 PUSH1 0x40 MSTORE POP PUSH2 0xB25 SWAP2 SWAP1 DUP2 ADD SWAP1 PUSH2 0x301B JUMP JUMPDEST DUP2 MSTORE PUSH1 0x20 ADD DUP16 PUSH1 0x1 PUSH1 0x1 PUSH1 0xA0 SHL SUB AND PUSH4 0x8F840DDD PUSH1 0x40 MLOAD DUP2 PUSH4 0xFFFFFFFF AND PUSH1 0xE0 SHL DUP2 MSTORE PUSH1 0x4 ADD PUSH1 0x20 PUSH1 0x40 MLOAD DUP1 DUP4 SUB DUP2 DUP7 DUP1 EXTCODESIZE ISZERO DUP1 ISZERO PUSH2 0xB63 JUMPI PUSH1 0x0 DUP1 REVERT JUMPDEST POP GAS STATICCALL ISZERO DUP1 ISZERO PUSH2 0xB77 JUMPI RETURNDATASIZE PUSH1 0x0 DUP1 RETURNDATACOPY RETURNDATASIZE PUSH1 0x0 REVERT JUMPDEST POP POP POP POP PUSH1 0x40 MLOAD RETURNDATASIZE PUSH1 0x1F NOT PUSH1 0x1F DUP3 ADD AND DUP3 ADD DUP1 PUSH1 0x40 MSTORE POP PUSH2 0xB9B SWAP2 SWAP1 DUP2 ADD SWAP1 PUSH2 0x301B JUMP JUMPDEST DUP2 MSTORE PUSH1 0x20 ADD DUP16 PUSH1 0x1 PUSH1 0x1 PUSH1 0xA0 SHL SUB AND PUSH4 0x18160DDD PUSH1 0x40 MLOAD DUP2 PUSH4 0xFFFFFFFF AND PUSH1 0xE0 SHL DUP2 MSTORE PUSH1 0x4 ADD PUSH1 0x20 PUSH1 0x40 MLOAD DUP1 DUP4 SUB DUP2 DUP7 DUP1 EXTCODESIZE ISZERO DUP1 ISZERO PUSH2 0xBD9 JUMPI PUSH1 0x0 DUP1 REVERT JUMPDEST POP GAS STATICCALL ISZERO DUP1 ISZERO PUSH2 0xBED JUMPI RETURNDATASIZE PUSH1 0x0 DUP1 RETURNDATACOPY RETURNDATASIZE PUSH1 0x0 REVERT JUMPDEST POP POP POP POP PUSH1 0x40 MLOAD RETURNDATASIZE PUSH1 0x1F NOT PUSH1 0x1F DUP3 ADD AND DUP3 ADD DUP1 PUSH1 0x40 MSTORE POP PUSH2 0xC11 SWAP2 SWAP1 DUP2 ADD SWAP1 PUSH2 0x301B JUMP JUMPDEST DUP2 MSTORE PUSH1 0x20 ADD DUP16 PUSH1 0x1 PUSH1 0x1 PUSH1 0xA0 SHL SUB AND PUSH4 0x3B1D21A2 PUSH1 0x40 MLOAD DUP2 PUSH4 0xFFFFFFFF AND PUSH1 0xE0 SHL DUP2 MSTORE PUSH1 0x4 ADD PUSH1 0x20 PUSH1 0x40 MLOAD DUP1 DUP4 SUB DUP2 DUP7 DUP1 EXTCODESIZE ISZERO DUP1 ISZERO PUSH2 0xC4F JUMPI PUSH1 0x0 DUP1 REVERT JUMPDEST POP GAS STATICCALL ISZERO DUP1 ISZERO PUSH2 0xC63 JUMPI RETURNDATASIZE PUSH1 0x0 DUP1 RETURNDATACOPY RETURNDATASIZE PUSH1 0x0 REVERT JUMPDEST POP POP POP POP PUSH1 0x40 MLOAD RETURNDATASIZE PUSH1 0x1F NOT PUSH1 0x1F DUP3 ADD AND DUP3 ADD DUP1 PUSH1 0x40 MSTORE POP PUSH2 0xC87 SWAP2 SWAP1 DUP2 ADD SWAP1 PUSH2 0x301B JUMP JUMPDEST DUP2 MSTORE PUSH1 0x20 ADD DUP12 ISZERO ISZERO DUP2 MSTORE PUSH1 0x20 ADD DUP11 DUP2 MSTORE PUSH1 0x20 ADD DUP10 PUSH1 0x1 PUSH1 0x1 PUSH1 0xA0 SHL SUB AND DUP2 MSTORE PUSH1 0x20 ADD DUP16 PUSH1 0x1 PUSH1 0x1 PUSH1 0xA0 SHL SUB AND PUSH4 0x313CE567 PUSH1 0x40 MLOAD DUP2 PUSH4 0xFFFFFFFF AND PUSH1 0xE0 SHL DUP2 MSTORE PUSH1 0x4 ADD PUSH1 0x20 PUSH1 0x40 MLOAD DUP1 DUP4 SUB DUP2 DUP7 DUP1 EXTCODESIZE ISZERO DUP1 ISZERO PUSH2 0xCE2 JUMPI PUSH1 0x0 DUP1 REVERT JUMPDEST POP GAS STATICCALL ISZERO DUP1 ISZERO PUSH2 0xCF6 JUMPI RETURNDATASIZE PUSH1 0x0 DUP1 RETURNDATACOPY RETURNDATASIZE PUSH1 0x0 REVERT JUMPDEST POP POP POP POP PUSH1 0x40 MLOAD RETURNDATASIZE PUSH1 0x1F NOT PUSH1 0x1F DUP3 ADD AND DUP3 ADD DUP1 PUSH1 0x40 MSTORE POP PUSH2 0xD1A SWAP2 SWAP1 DUP2 ADD SWAP1 PUSH2 0x315E JUMP JUMPDEST PUSH1 0xFF AND DUP2 MSTORE PUSH1 0x20 ADD DUP9 DUP2 MSTORE PUSH1 0x20 ADD DUP8 DUP2 MSTORE PUSH1 0x20 ADD DUP5 DUP2 MSTORE POP SWAP13 POP POP POP POP POP POP POP POP POP POP POP POP POP SWAP2 SWAP1 POP JUMP JUMPDEST PUSH1 0x40 DUP1 MLOAD DUP4 DUP2 MSTORE PUSH1 0x20 DUP1 DUP6 MUL DUP3 ADD ADD SWAP1 SWAP2 MSTORE PUSH1 0x60 SWAP1 DUP4 SWAP1 DUP3 SWAP1 DUP3 DUP1 ISZERO PUSH2 0xD85 JUMPI DUP2 PUSH1 0x20 ADD JUMPDEST PUSH2 0xD72 PUSH2 0x2467 JUMP JUMPDEST DUP2 MSTORE PUSH1 0x20 ADD SWAP1 PUSH1 0x1 SWAP1 SUB SWAP1 DUP2 PUSH2 0xD6A JUMPI SWAP1 POP JUMPDEST POP SWAP1 POP PUSH1 0x0 JUMPDEST DUP3 DUP2 LT ISZERO PUSH2 0xDDC JUMPI PUSH2 0xDBD DUP8 DUP8 DUP4 DUP2 DUP2 LT PUSH2 0xDA2 JUMPI INVALID JUMPDEST SWAP1 POP PUSH1 0x20 MUL ADD PUSH1 0x20 PUSH2 0xDB7 SWAP2 SWAP1 DUP2 ADD SWAP1 PUSH2 0x2DC7 JUMP JUMPDEST DUP7 PUSH2 0x12DE JUMP JUMPDEST DUP3 DUP3 DUP2 MLOAD DUP2 LT PUSH2 0xDC9 JUMPI INVALID JUMPDEST PUSH1 0x20 SWAP1 DUP2 MUL SWAP2 SWAP1 SWAP2 ADD ADD MSTORE PUSH1 0x1 ADD PUSH2 0xD8B JUMP JUMPDEST POP SWAP2 POP POP JUMPDEST SWAP4 SWAP3 POP POP POP JUMP JUMPDEST PUSH1 0x60 PUSH1 0x0 DUP3 MLOAD SWAP1 POP PUSH1 0x60 DUP2 PUSH1 0x40 MLOAD SWAP1 DUP1 DUP3 MSTORE DUP1 PUSH1 0x20 MUL PUSH1 0x20 ADD DUP3 ADD PUSH1 0x40 MSTORE DUP1 ISZERO PUSH2 0xE2C JUMPI DUP2 PUSH1 0x20 ADD JUMPDEST PUSH2 0xE19 PUSH2 0x24A6 JUMP JUMPDEST DUP2 MSTORE PUSH1 0x20 ADD SWAP1 PUSH1 0x1 SWAP1 SUB SWAP1 DUP2 PUSH2 0xE11 JUMPI SWAP1 POP JUMPDEST POP SWAP1 POP PUSH1 0x0 JUMPDEST DUP3 DUP2 LT ISZERO PUSH2 0xDDC JUMPI PUSH2 0xE42 PUSH2 0x24CD JUMP JUMPDEST DUP8 PUSH1 0x1 PUSH1 0x1 PUSH1 0xA0 SHL SUB AND PUSH4 0xE23A9A52 DUP8 DUP5 DUP2 MLOAD DUP2 LT PUSH2 0xE5D JUMPI INVALID JUMPDEST PUSH1 0x20 MUL PUSH1 0x20 ADD ADD MLOAD DUP10 PUSH1 0x40 MLOAD DUP4 PUSH4 0xFFFFFFFF AND PUSH1 0xE0 SHL DUP2 MSTORE PUSH1 0x4 ADD PUSH2 0xE83 SWAP3 SWAP2 SWAP1 PUSH2 0x3E81 JUMP JUMPDEST PUSH1 0x60 PUSH1 0x40 MLOAD DUP1 DUP4 SUB DUP2 DUP7 DUP1 EXTCODESIZE ISZERO DUP1 ISZERO PUSH2 0xE9B JUMPI PUSH1 0x0 DUP1 REVERT JUMPDEST POP GAS STATICCALL ISZERO DUP1 ISZERO PUSH2 0xEAF JUMPI RETURNDATASIZE PUSH1 0x0 DUP1 RETURNDATACOPY RETURNDATASIZE PUSH1 0x0 REVERT JUMPDEST POP POP POP POP PUSH1 0x40 MLOAD RETURNDATASIZE PUSH1 0x1F NOT PUSH1 0x1F DUP3 ADD AND DUP3 ADD DUP1 PUSH1 0x40 MSTORE POP PUSH2 0xED3 SWAP2 SWAP1 DUP2 ADD SWAP1 PUSH2 0x2FDF JUMP JUMPDEST SWAP1 POP PUSH1 0x40 MLOAD DUP1 PUSH1 0x80 ADD PUSH1 0x40 MSTORE DUP1 DUP8 DUP5 DUP2 MLOAD DUP2 LT PUSH2 0xEEC JUMPI INVALID JUMPDEST PUSH1 0x20 MUL PUSH1 0x20 ADD ADD MLOAD DUP2 MSTORE PUSH1 0x20 ADD DUP3 PUSH1 0x0 ADD MLOAD ISZERO ISZERO DUP2 MSTORE PUSH1 0x20 ADD DUP3 PUSH1 0x20 ADD MLOAD PUSH1 0xFF AND DUP2 MSTORE PUSH1 0x20 ADD DUP3 PUSH1 0x40 ADD MLOAD PUSH1 0x1 PUSH1 0x1 PUSH1 0x60 SHL SUB AND DUP2 MSTORE POP DUP4 DUP4 DUP2 MLOAD DUP2 LT PUSH2 0xF2F JUMPI INVALID JUMPDEST PUSH1 0x20 SWAP1 DUP2 MUL SWAP2 SWAP1 SWAP2 ADD ADD MSTORE POP PUSH1 0x1 ADD PUSH2 0xE32 JUMP JUMPDEST PUSH1 0x40 DUP1 MLOAD DUP3 DUP2 MSTORE PUSH1 0x20 DUP1 DUP5 MUL DUP3 ADD ADD SWAP1 SWAP2 MSTORE PUSH1 0x60 SWAP1 DUP3 SWAP1 DUP3 SWAP1 DUP3 DUP1 ISZERO PUSH2 0xF83 JUMPI DUP2 PUSH1 0x20 ADD JUMPDEST PUSH2 0xF70 PUSH2 0x23D6 JUMP JUMPDEST DUP2 MSTORE PUSH1 0x20 ADD SWAP1 PUSH1 0x1 SWAP1 SUB SWAP1 DUP2 PUSH2 0xF68 JUMPI SWAP1 POP JUMPDEST POP SWAP1 POP PUSH1 0x0 JUMPDEST DUP3 DUP2 LT ISZERO PUSH2 0xFD4 JUMPI PUSH2 0xFB5 DUP7 DUP7 DUP4 DUP2 DUP2 LT PUSH2 0xFA0 JUMPI INVALID JUMPDEST SWAP1 POP PUSH1 0x20 MUL ADD PUSH1 0x20 PUSH2 0x126 SWAP2 SWAP1 DUP2 ADD SWAP1 PUSH2 0x2DC7 JUMP JUMPDEST DUP3 DUP3 DUP2 MLOAD DUP2 LT PUSH2 0xFC1 JUMPI INVALID JUMPDEST PUSH1 0x20 SWAP1 DUP2 MUL SWAP2 SWAP1 SWAP2 ADD ADD MSTORE PUSH1 0x1 ADD PUSH2 0xF89 JUMP JUMPDEST POP SWAP2 POP POP JUMPDEST SWAP3 SWAP2 POP POP JUMP JUMPDEST PUSH1 0x60 DUP1 DUP4 DUP4 SWAP1 POP PUSH1 0x40 MLOAD SWAP1 DUP1 DUP3 MSTORE DUP1 PUSH1 0x20 MUL PUSH1 0x20 ADD DUP3 ADD PUSH1 0x40 MSTORE DUP1 ISZERO PUSH2 0x101F JUMPI DUP2 PUSH1 0x20 ADD JUMPDEST PUSH2 0x100C PUSH2 0x24ED JUMP JUMPDEST DUP2 MSTORE PUSH1 0x20 ADD SWAP1 PUSH1 0x1 SWAP1 SUB SWAP1 DUP2 PUSH2 0x1004 JUMPI SWAP1 POP JUMPDEST POP SWAP1 POP PUSH1 0x0 JUMPDEST DUP4 DUP2 LT ISZERO PUSH2 0x1199 JUMPI PUSH1 0x60 DUP1 PUSH1 0x60 DUP1 DUP10 PUSH1 0x1 PUSH1 0x1 PUSH1 0xA0 SHL SUB AND PUSH4 0x328DD982 DUP11 DUP11 DUP9 DUP2 DUP2 LT PUSH2 0x104E JUMPI INVALID JUMPDEST SWAP1 POP PUSH1 0x20 MUL ADD CALLDATALOAD PUSH1 0x40 MLOAD DUP3 PUSH4 0xFFFFFFFF AND PUSH1 0xE0 SHL DUP2 MSTORE PUSH1 0x4 ADD PUSH2 0x1071 SWAP2 SWAP1 PUSH2 0x3E73 JUMP JUMPDEST PUSH1 0x0 PUSH1 0x40 MLOAD DUP1 DUP4 SUB DUP2 DUP7 DUP1 EXTCODESIZE ISZERO DUP1 ISZERO PUSH2 0x1089 JUMPI PUSH1 0x0 DUP1 REVERT JUMPDEST POP GAS STATICCALL ISZERO DUP1 ISZERO PUSH2 0x109D JUMPI RETURNDATASIZE PUSH1 0x0 DUP1 RETURNDATACOPY RETURNDATASIZE PUSH1 0x0 REVERT JUMPDEST POP POP POP POP PUSH1 0x40 MLOAD RETURNDATASIZE PUSH1 0x0 DUP3 RETURNDATACOPY PUSH1 0x1F RETURNDATASIZE SWAP1 DUP2 ADD PUSH1 0x1F NOT AND DUP3 ADD PUSH1 0x40 MSTORE PUSH2 0x10C5 SWAP2 SWAP1 DUP2 ADD SWAP1 PUSH2 0x2C08 JUMP JUMPDEST SWAP4 POP SWAP4 POP SWAP4 POP SWAP4 POP PUSH1 0x40 MLOAD DUP1 PUSH2 0x1C0 ADD PUSH1 0x40 MSTORE DUP1 PUSH1 0x0 DUP2 MSTORE PUSH1 0x20 ADD PUSH1 0x0 PUSH1 0x1 PUSH1 0x1 PUSH1 0xA0 SHL SUB AND DUP2 MSTORE PUSH1 0x20 ADD PUSH1 0x0 DUP2 MSTORE PUSH1 0x20 ADD DUP6 DUP2 MSTORE PUSH1 0x20 ADD DUP5 DUP2 MSTORE PUSH1 0x20 ADD DUP4 DUP2 MSTORE PUSH1 0x20 ADD DUP3 DUP2 MSTORE PUSH1 0x20 ADD PUSH1 0x0 DUP2 MSTORE PUSH1 0x20 ADD PUSH1 0x0 DUP2 MSTORE PUSH1 0x20 ADD PUSH1 0x0 DUP2 MSTORE PUSH1 0x20 ADD PUSH1 0x0 DUP2 MSTORE PUSH1 0x20 ADD PUSH1 0x0 DUP2 MSTORE PUSH1 0x20 ADD PUSH1 0x0 ISZERO ISZERO DUP2 MSTORE PUSH1 0x20 ADD PUSH1 0x0 ISZERO ISZERO DUP2 MSTORE POP DUP7 DUP7 DUP2 MLOAD DUP2 LT PUSH2 0x114E JUMPI INVALID JUMPDEST PUSH1 0x20 MUL PUSH1 0x20 ADD ADD DUP2 SWAP1 MSTORE POP PUSH2 0x1189 DUP7 DUP7 DUP2 MLOAD DUP2 LT PUSH2 0x1168 JUMPI INVALID JUMPDEST PUSH1 0x20 MUL PUSH1 0x20 ADD ADD MLOAD DUP12 DUP12 DUP12 DUP10 DUP2 DUP2 LT PUSH2 0x117D JUMPI INVALID JUMPDEST SWAP1 POP PUSH1 0x20 MUL ADD CALLDATALOAD PUSH2 0x2137 JUMP JUMPDEST POP POP PUSH1 0x1 SWAP1 SWAP3 ADD SWAP2 POP PUSH2 0x1025 SWAP1 POP JUMP JUMPDEST POP SWAP5 SWAP4 POP POP POP POP JUMP JUMPDEST PUSH2 0x11AA PUSH2 0x2569 JUMP JUMPDEST PUSH1 0x0 DUP1 PUSH1 0x0 DUP6 PUSH1 0x1 PUSH1 0x1 PUSH1 0xA0 SHL SUB AND PUSH4 0x5EC88C79 DUP7 PUSH1 0x40 MLOAD DUP3 PUSH4 0xFFFFFFFF AND PUSH1 0xE0 SHL DUP2 MSTORE PUSH1 0x4 ADD PUSH2 0x11DB SWAP2 SWAP1 PUSH2 0x3D22 JUMP JUMPDEST PUSH1 0x60 PUSH1 0x40 MLOAD DUP1 DUP4 SUB DUP2 DUP7 DUP1 EXTCODESIZE ISZERO DUP1 ISZERO PUSH2 0x11F3 JUMPI PUSH1 0x0 DUP1 REVERT JUMPDEST POP GAS STATICCALL ISZERO DUP1 ISZERO PUSH2 0x1207 JUMPI RETURNDATASIZE PUSH1 0x0 DUP1 RETURNDATACOPY RETURNDATASIZE PUSH1 0x0 REVERT JUMPDEST POP POP POP POP PUSH1 0x40 MLOAD RETURNDATASIZE PUSH1 0x1F NOT PUSH1 0x1F DUP3 ADD AND DUP3 ADD DUP1 PUSH1 0x40 MSTORE POP PUSH2 0x122B SWAP2 SWAP1 DUP2 ADD SWAP1 PUSH2 0x30FD JUMP JUMPDEST SWAP3 POP SWAP3 POP SWAP3 POP DUP3 PUSH1 0x0 EQ PUSH2 0x123E JUMPI PUSH1 0x0 DUP1 REVERT JUMPDEST PUSH1 0x40 DUP1 MLOAD PUSH1 0x60 DUP2 ADD SWAP2 DUP3 SWAP1 MSTORE PUSH4 0x2AFF3BFF PUSH1 0xE2 SHL SWAP1 SWAP2 MSTORE DUP1 PUSH1 0x1 PUSH1 0x1 PUSH1 0xA0 SHL SUB DUP9 AND PUSH4 0xABFCEFFC PUSH2 0x1272 DUP10 PUSH1 0x64 DUP6 ADD PUSH2 0x3D22 JUMP JUMPDEST PUSH1 0x0 PUSH1 0x40 MLOAD DUP1 DUP4 SUB DUP2 DUP7 DUP1 EXTCODESIZE ISZERO DUP1 ISZERO PUSH2 0x128A JUMPI PUSH1 0x0 DUP1 REVERT JUMPDEST POP GAS STATICCALL ISZERO DUP1 ISZERO PUSH2 0x129E JUMPI RETURNDATASIZE PUSH1 0x0 DUP1 RETURNDATACOPY RETURNDATASIZE PUSH1 0x0 REVERT JUMPDEST POP POP POP POP PUSH1 0x40 MLOAD RETURNDATASIZE PUSH1 0x0 DUP3 RETURNDATACOPY PUSH1 0x1F RETURNDATASIZE SWAP1 DUP2 ADD PUSH1 0x1F NOT AND DUP3 ADD PUSH1 0x40 MSTORE PUSH2 0x12C6 SWAP2 SWAP1 DUP2 ADD SWAP1 PUSH2 0x2D59 JUMP JUMPDEST DUP2 MSTORE PUSH1 0x20 DUP2 ADD SWAP4 SWAP1 SWAP4 MSTORE PUSH1 0x40 SWAP1 SWAP3 ADD MSTORE SWAP5 SWAP4 POP POP POP POP JUMP JUMPDEST PUSH2 0x12E6 PUSH2 0x2467 JUMP JUMPDEST PUSH1 0x40 MLOAD PUSH4 0x70A08231 PUSH1 0xE0 SHL DUP2 MSTORE PUSH1 0x0 SWAP1 PUSH1 0x1 PUSH1 0x1 PUSH1 0xA0 SHL SUB DUP6 AND SWAP1 PUSH4 0x70A08231 SWAP1 PUSH2 0x1315 SWAP1 DUP7 SWAP1 PUSH1 0x4 ADD PUSH2 0x3D30 JUMP JUMPDEST PUSH1 0x20 PUSH1 0x40 MLOAD DUP1 DUP4 SUB DUP2 DUP7 DUP1 EXTCODESIZE ISZERO DUP1 ISZERO PUSH2 0x132D JUMPI PUSH1 0x0 DUP1 REVERT JUMPDEST POP GAS STATICCALL ISZERO DUP1 ISZERO PUSH2 0x1341 JUMPI RETURNDATASIZE PUSH1 0x0 DUP1 RETURNDATACOPY RETURNDATASIZE PUSH1 0x0 REVERT JUMPDEST POP POP POP POP PUSH1 0x40 MLOAD RETURNDATASIZE PUSH1 0x1F NOT PUSH1 0x1F DUP3 ADD AND DUP3 ADD DUP1 PUSH1 0x40 MSTORE POP PUSH2 0x1365 SWAP2 SWAP1 DUP2 ADD SWAP1 PUSH2 0x301B JUMP JUMPDEST SWAP1 POP PUSH1 0x0 DUP5 PUSH1 0x1 PUSH1 0x1 PUSH1 0xA0 SHL SUB AND PUSH4 0x17BFDFBC DUP6 PUSH1 0x40 MLOAD DUP3 PUSH4 0xFFFFFFFF AND PUSH1 0xE0 SHL DUP2 MSTORE PUSH1 0x4 ADD PUSH2 0x1395 SWAP2 SWAP1 PUSH2 0x3D30 JUMP JUMPDEST PUSH1 0x20 PUSH1 0x40 MLOAD DUP1 DUP4 SUB DUP2 PUSH1 0x0 DUP8 DUP1 EXTCODESIZE ISZERO DUP1 ISZERO PUSH2 0x13AF JUMPI PUSH1 0x0 DUP1 REVERT JUMPDEST POP GAS CALL ISZERO DUP1 ISZERO PUSH2 0x13C3 JUMPI RETURNDATASIZE PUSH1 0x0 DUP1 RETURNDATACOPY RETURNDATASIZE PUSH1 0x0 REVERT JUMPDEST POP POP POP POP PUSH1 0x40 MLOAD RETURNDATASIZE PUSH1 0x1F NOT PUSH1 0x1F DUP3 ADD AND DUP3 ADD DUP1 PUSH1 0x40 MSTORE POP PUSH2 0x13E7 SWAP2 SWAP1 DUP2 ADD SWAP1 PUSH2 0x301B JUMP JUMPDEST SWAP1 POP PUSH1 0x0 DUP6 PUSH1 0x1 PUSH1 0x1 PUSH1 0xA0 SHL SUB AND PUSH4 0x3AF9E669 DUP7 PUSH1 0x40 MLOAD DUP3 PUSH4 0xFFFFFFFF AND PUSH1 0xE0 SHL DUP2 MSTORE PUSH1 0x4 ADD PUSH2 0x1417 SWAP2 SWAP1 PUSH2 0x3D30 JUMP JUMPDEST PUSH1 0x20 PUSH1 0x40 MLOAD DUP1 DUP4 SUB DUP2 PUSH1 0x0 DUP8 DUP1 EXTCODESIZE ISZERO DUP1 ISZERO PUSH2 0x1431 JUMPI PUSH1 0x0 DUP1 REVERT JUMPDEST POP GAS CALL ISZERO DUP1 ISZERO PUSH2 0x1445 JUMPI RETURNDATASIZE PUSH1 0x0 DUP1 RETURNDATACOPY RETURNDATASIZE PUSH1 0x0 REVERT JUMPDEST POP POP POP POP PUSH1 0x40 MLOAD RETURNDATASIZE PUSH1 0x1F NOT PUSH1 0x1F DUP3 ADD AND DUP3 ADD DUP1 PUSH1 0x40 MSTORE POP PUSH2 0x1469 SWAP2 SWAP1 DUP2 ADD SWAP1 PUSH2 0x301B JUMP JUMPDEST SWAP1 POP PUSH1 0x0 DUP1 PUSH2 0x14AA DUP9 PUSH1 0x1 PUSH1 0x1 PUSH1 0xA0 SHL SUB AND PUSH4 0x95D89B41 PUSH1 0x40 MLOAD DUP2 PUSH4 0xFFFFFFFF AND PUSH1 0xE0 SHL DUP2 MSTORE PUSH1 0x4 ADD PUSH1 0x0 PUSH1 0x40 MLOAD DUP1 DUP4 SUB DUP2 DUP7 DUP1 EXTCODESIZE ISZERO DUP1 ISZERO PUSH2 0x5C5 JUMPI PUSH1 0x0 DUP1 REVERT JUMPDEST ISZERO PUSH2 0x14C4 JUMPI POP POP PUSH1 0x1 PUSH1 0x1 PUSH1 0xA0 SHL SUB DUP6 AND DUP1 BALANCE SWAP1 BALANCE PUSH2 0x1641 JUMP JUMPDEST PUSH1 0x0 DUP9 SWAP1 POP PUSH1 0x0 DUP2 PUSH1 0x1 PUSH1 0x1 PUSH1 0xA0 SHL SUB AND PUSH4 0x6F307DC3 PUSH1 0x40 MLOAD DUP2 PUSH4 0xFFFFFFFF AND PUSH1 0xE0 SHL DUP2 MSTORE PUSH1 0x4 ADD PUSH1 0x20 PUSH1 0x40 MLOAD DUP1 DUP4 SUB DUP2 DUP7 DUP1 EXTCODESIZE ISZERO DUP1 ISZERO PUSH2 0x1504 JUMPI PUSH1 0x0 DUP1 REVERT JUMPDEST POP GAS STATICCALL ISZERO DUP1 ISZERO PUSH2 0x1518 JUMPI RETURNDATASIZE PUSH1 0x0 DUP1 RETURNDATACOPY RETURNDATASIZE PUSH1 0x0 REVERT JUMPDEST POP POP POP POP PUSH1 0x40 MLOAD RETURNDATASIZE PUSH1 0x1F NOT PUSH1 0x1F DUP3 ADD AND DUP3 ADD DUP1 PUSH1 0x40 MSTORE POP PUSH2 0x153C SWAP2 SWAP1 DUP2 ADD SWAP1 PUSH2 0x2BE2 JUMP JUMPDEST PUSH1 0x40 MLOAD PUSH4 0x70A08231 PUSH1 0xE0 SHL DUP2 MSTORE SWAP1 SWAP2 POP PUSH1 0x1 PUSH1 0x1 PUSH1 0xA0 SHL SUB DUP3 AND SWAP1 PUSH4 0x70A08231 SWAP1 PUSH2 0x156B SWAP1 DUP13 SWAP1 PUSH1 0x4 ADD PUSH2 0x3D30 JUMP JUMPDEST PUSH1 0x20 PUSH1 0x40 MLOAD DUP1 DUP4 SUB DUP2 DUP7 DUP1 EXTCODESIZE ISZERO DUP1 ISZERO PUSH2 0x1583 JUMPI PUSH1 0x0 DUP1 REVERT JUMPDEST POP GAS STATICCALL ISZERO DUP1 ISZERO PUSH2 0x1597 JUMPI RETURNDATASIZE PUSH1 0x0 DUP1 RETURNDATACOPY RETURNDATASIZE PUSH1 0x0 REVERT JUMPDEST POP POP POP POP PUSH1 0x40 MLOAD RETURNDATASIZE PUSH1 0x1F NOT PUSH1 0x1F DUP3 ADD AND DUP3 ADD DUP1 PUSH1 0x40 MSTORE POP PUSH2 0x15BB SWAP2 SWAP1 DUP2 ADD SWAP1 PUSH2 0x301B JUMP JUMPDEST PUSH1 0x40 MLOAD PUSH4 0x6EB1769F PUSH1 0xE1 SHL DUP2 MSTORE SWAP1 SWAP5 POP PUSH1 0x1 PUSH1 0x1 PUSH1 0xA0 SHL SUB DUP3 AND SWAP1 PUSH4 0xDD62ED3E SWAP1 PUSH2 0x15EC SWAP1 DUP13 SWAP1 DUP15 SWAP1 PUSH1 0x4 ADD PUSH2 0x3D3E JUMP JUMPDEST PUSH1 0x20 PUSH1 0x40 MLOAD DUP1 DUP4 SUB DUP2 DUP7 DUP1 EXTCODESIZE ISZERO DUP1 ISZERO PUSH2 0x1604 JUMPI PUSH1 0x0 DUP1 REVERT JUMPDEST POP GAS STATICCALL ISZERO DUP1 ISZERO PUSH2 0x1618 JUMPI RETURNDATASIZE PUSH1 0x0 DUP1 RETURNDATACOPY RETURNDATASIZE PUSH1 0x0 REVERT JUMPDEST POP POP POP POP PUSH1 0x40 MLOAD RETURNDATASIZE PUSH1 0x1F NOT PUSH1 0x1F DUP3 ADD AND DUP3 ADD DUP1 PUSH1 0x40 MSTORE POP PUSH2 0x163C SWAP2 SWAP1 DUP2 ADD SWAP1 PUSH2 0x301B JUMP JUMPDEST SWAP3 POP POP POP JUMPDEST PUSH1 0x40 DUP1 MLOAD PUSH1 0xC0 DUP2 ADD DUP3 MSTORE PUSH1 0x1 PUSH1 0x1 PUSH1 0xA0 SHL SUB SWAP10 SWAP1 SWAP10 AND DUP10 MSTORE PUSH1 0x20 DUP10 ADD SWAP6 SWAP1 SWAP6 MSTORE SWAP4 DUP8 ADD SWAP3 SWAP1 SWAP3 MSTORE PUSH1 0x60 DUP7 ADD MSTORE PUSH1 0x80 DUP6 ADD MSTORE PUSH1 0xA0 DUP5 ADD MSTORE POP SWAP1 SWAP2 SWAP1 POP JUMP JUMPDEST PUSH1 0x60 DUP1 DUP4 DUP4 SWAP1 POP PUSH1 0x40 MLOAD SWAP1 DUP1 DUP3 MSTORE DUP1 PUSH1 0x20 MUL PUSH1 0x20 ADD DUP3 ADD PUSH1 0x40 MSTORE DUP1 ISZERO PUSH2 0x16BE JUMPI DUP2 PUSH1 0x20 ADD JUMPDEST PUSH2 0x16AB PUSH2 0x258A JUMP JUMPDEST DUP2 MSTORE PUSH1 0x20 ADD SWAP1 PUSH1 0x1 SWAP1 SUB SWAP1 DUP2 PUSH2 0x16A3 JUMPI SWAP1 POP JUMPDEST POP SWAP1 POP PUSH1 0x0 JUMPDEST DUP4 DUP2 LT ISZERO PUSH2 0x1199 JUMPI PUSH1 0x60 DUP1 PUSH1 0x60 DUP1 DUP10 PUSH1 0x1 PUSH1 0x1 PUSH1 0xA0 SHL SUB AND PUSH4 0x328DD982 DUP11 DUP11 DUP9 DUP2 DUP2 LT PUSH2 0x16ED JUMPI INVALID JUMPDEST SWAP1 POP PUSH1 0x20 MUL ADD CALLDATALOAD PUSH1 0x40 MLOAD DUP3 PUSH4 0xFFFFFFFF AND PUSH1 0xE0 SHL DUP2 MSTORE PUSH1 0x4 ADD PUSH2 0x1710 SWAP2 SWAP1 PUSH2 0x3E73 JUMP JUMPDEST PUSH1 0x0 PUSH1 0x40 MLOAD DUP1 DUP4 SUB DUP2 DUP7 DUP1 EXTCODESIZE ISZERO DUP1 ISZERO PUSH2 0x1728 JUMPI PUSH1 0x0 DUP1 REVERT JUMPDEST POP GAS STATICCALL ISZERO DUP1 ISZERO PUSH2 0x173C JUMPI RETURNDATASIZE PUSH1 0x0 DUP1 RETURNDATACOPY RETURNDATASIZE PUSH1 0x0 REVERT JUMPDEST POP POP POP POP PUSH1 0x40 MLOAD RETURNDATASIZE PUSH1 0x0 DUP3 RETURNDATACOPY PUSH1 0x1F RETURNDATASIZE SWAP1 DUP2 ADD PUSH1 0x1F NOT AND DUP3 ADD PUSH1 0x40 MSTORE PUSH2 0x1764 SWAP2 SWAP1 DUP2 ADD SWAP1 PUSH2 0x2C08 JUMP JUMPDEST SWAP4 POP SWAP4 POP SWAP4 POP SWAP4 POP PUSH1 0x40 MLOAD DUP1 PUSH2 0x1A0 ADD PUSH1 0x40 MSTORE DUP1 PUSH1 0x0 DUP2 MSTORE PUSH1 0x20 ADD PUSH1 0x0 PUSH1 0x1 PUSH1 0x1 PUSH1 0xA0 SHL SUB AND DUP2 MSTORE PUSH1 0x20 ADD PUSH1 0x0 DUP2 MSTORE PUSH1 0x20 ADD DUP6 DUP2 MSTORE PUSH1 0x20 ADD DUP5 DUP2 MSTORE PUSH1 0x20 ADD DUP4 DUP2 MSTORE PUSH1 0x20 ADD DUP3 DUP2 MSTORE PUSH1 0x20 ADD PUSH1 0x0 DUP2 MSTORE PUSH1 0x20 ADD PUSH1 0x0 DUP2 MSTORE PUSH1 0x20 ADD PUSH1 0x0 DUP2 MSTORE PUSH1 0x20 ADD PUSH1 0x0 DUP2 MSTORE PUSH1 0x20 ADD PUSH1 0x0 ISZERO ISZERO DUP2 MSTORE PUSH1 0x20 ADD PUSH1 0x0 ISZERO ISZERO DUP2 MSTORE POP DUP7 DUP7 DUP2 MLOAD DUP2 LT PUSH2 0x17E6 JUMPI INVALID JUMPDEST PUSH1 0x20 MUL PUSH1 0x20 ADD ADD DUP2 SWAP1 MSTORE POP PUSH2 0x1821 DUP7 DUP7 DUP2 MLOAD DUP2 LT PUSH2 0x1800 JUMPI INVALID JUMPDEST PUSH1 0x20 MUL PUSH1 0x20 ADD ADD MLOAD DUP12 DUP12 DUP12 DUP10 DUP2 DUP2 LT PUSH2 0x1815 JUMPI INVALID JUMPDEST SWAP1 POP PUSH1 0x20 MUL ADD CALLDATALOAD PUSH2 0x223A JUMP JUMPDEST POP POP PUSH1 0x1 SWAP1 SWAP3 ADD SWAP2 POP PUSH2 0x16C4 SWAP1 POP JUMP JUMPDEST PUSH1 0x60 PUSH1 0x0 DUP3 MLOAD SWAP1 POP PUSH1 0x60 DUP2 PUSH1 0x40 MLOAD SWAP1 DUP1 DUP3 MSTORE DUP1 PUSH1 0x20 MUL PUSH1 0x20 ADD DUP3 ADD PUSH1 0x40 MSTORE DUP1 ISZERO PUSH2 0x1875 JUMPI DUP2 PUSH1 0x20 ADD JUMPDEST PUSH2 0x1862 PUSH2 0x24A6 JUMP JUMPDEST DUP2 MSTORE PUSH1 0x20 ADD SWAP1 PUSH1 0x1 SWAP1 SUB SWAP1 DUP2 PUSH2 0x185A JUMPI SWAP1 POP JUMPDEST POP SWAP1 POP PUSH1 0x0 JUMPDEST DUP3 DUP2 LT ISZERO PUSH2 0xDDC JUMPI PUSH2 0x188B PUSH2 0x24CD JUMP JUMPDEST DUP8 PUSH1 0x1 PUSH1 0x1 PUSH1 0xA0 SHL SUB AND PUSH4 0xE23A9A52 DUP8 DUP5 DUP2 MLOAD DUP2 LT PUSH2 0x18A6 JUMPI INVALID JUMPDEST PUSH1 0x20 MUL PUSH1 0x20 ADD ADD MLOAD DUP10 PUSH1 0x40 MLOAD DUP4 PUSH4 0xFFFFFFFF AND PUSH1 0xE0 SHL DUP2 MSTORE PUSH1 0x4 ADD PUSH2 0x18CC SWAP3 SWAP2 SWAP1 PUSH2 0x3E81 JUMP JUMPDEST PUSH1 0x60 PUSH1 0x40 MLOAD DUP1 DUP4 SUB DUP2 DUP7 DUP1 EXTCODESIZE ISZERO DUP1 ISZERO PUSH2 0x18E4 JUMPI PUSH1 0x0 DUP1 REVERT JUMPDEST POP GAS STATICCALL ISZERO DUP1 ISZERO PUSH2 0x18F8 JUMPI RETURNDATASIZE PUSH1 0x0 DUP1 RETURNDATACOPY RETURNDATASIZE PUSH1 0x0 REVERT JUMPDEST POP POP POP POP PUSH1 0x40 MLOAD RETURNDATASIZE PUSH1 0x1F NOT PUSH1 0x1F DUP3 ADD AND DUP3 ADD DUP1 PUSH1 0x40 MSTORE POP PUSH2 0x191C SWAP2 SWAP1 DUP2 ADD SWAP1 PUSH2 0x2FFD JUMP JUMPDEST SWAP1 POP PUSH1 0x40 MLOAD DUP1 PUSH1 0x80 ADD PUSH1 0x40 MSTORE DUP1 DUP8 DUP5 DUP2 MLOAD DUP2 LT PUSH2 0x1935 JUMPI INVALID JUMPDEST PUSH1 0x20 MUL PUSH1 0x20 ADD ADD MLOAD DUP2 MSTORE PUSH1 0x20 ADD DUP3 PUSH1 0x0 ADD MLOAD ISZERO ISZERO DUP2 MSTORE PUSH1 0x20 ADD DUP3 PUSH1 0x20 ADD MLOAD ISZERO ISZERO DUP2 MSTORE PUSH1 0x20 ADD DUP3 PUSH1 0x40 ADD MLOAD PUSH1 0x1 PUSH1 0x1 PUSH1 0x60 SHL SUB AND DUP2 MSTORE POP DUP4 DUP4 DUP2 MLOAD DUP2 LT PUSH2 0x1977 JUMPI INVALID JUMPDEST PUSH1 0x20 SWAP1 DUP2 MUL SWAP2 SWAP1 SWAP2 ADD ADD MSTORE POP PUSH1 0x1 ADD PUSH2 0x187B JUMP JUMPDEST PUSH2 0x1993 PUSH2 0x25FF JUMP JUMPDEST PUSH1 0x40 MLOAD PUSH4 0x70A08231 PUSH1 0xE0 SHL DUP2 MSTORE PUSH1 0x0 SWAP1 PUSH1 0x1 PUSH1 0x1 PUSH1 0xA0 SHL SUB DUP7 AND SWAP1 PUSH4 0x70A08231 SWAP1 PUSH2 0x19C2 SWAP1 DUP7 SWAP1 PUSH1 0x4 ADD PUSH2 0x3D22 JUMP JUMPDEST PUSH1 0x20 PUSH1 0x40 MLOAD DUP1 DUP4 SUB DUP2 DUP7 DUP1 EXTCODESIZE ISZERO DUP1 ISZERO PUSH2 0x19DA JUMPI PUSH1 0x0 DUP1 REVERT JUMPDEST POP GAS STATICCALL ISZERO DUP1 ISZERO PUSH2 0x19EE JUMPI RETURNDATASIZE PUSH1 0x0 DUP1 RETURNDATACOPY RETURNDATASIZE PUSH1 0x0 REVERT JUMPDEST POP POP POP POP PUSH1 0x40 MLOAD RETURNDATASIZE PUSH1 0x1F NOT PUSH1 0x1F DUP3 ADD AND DUP3 ADD DUP1 PUSH1 0x40 MSTORE POP PUSH2 0x1A12 SWAP2 SWAP1 DUP2 ADD SWAP1 PUSH2 0x301B JUMP JUMPDEST PUSH1 0x40 MLOAD PUSH4 0xCD033A07 PUSH1 0xE0 SHL DUP2 MSTORE SWAP1 SWAP2 POP PUSH1 0x1 PUSH1 0x1 PUSH1 0xA0 SHL SUB DUP6 AND SWAP1 PUSH4 0xCD033A07 SWAP1 PUSH2 0x1A41 SWAP1 DUP7 SWAP1 PUSH1 0x4 ADD PUSH2 0x3D22 JUMP JUMPDEST PUSH1 0x0 PUSH1 0x40 MLOAD DUP1 DUP4 SUB DUP2 PUSH1 0x0 DUP8 DUP1 EXTCODESIZE ISZERO DUP1 ISZERO PUSH2 0x1A5B JUMPI PUSH1 0x0 DUP1 REVERT JUMPDEST POP GAS CALL ISZERO DUP1 ISZERO PUSH2 0x1A6F JUMPI RETURNDATASIZE PUSH1 0x0 DUP1 RETURNDATACOPY RETURNDATASIZE PUSH1 0x0 REVERT JUMPDEST POP POP PUSH1 0x40 MLOAD PUSH4 0x70A08231 PUSH1 0xE0 SHL DUP2 MSTORE PUSH1 0x0 SWAP3 POP PUSH1 0x1 PUSH1 0x1 PUSH1 0xA0 SHL SUB DUP9 AND SWAP2 POP PUSH4 0x70A08231 SWAP1 PUSH2 0x1AA2 SWAP1 DUP8 SWAP1 PUSH1 0x4 ADD PUSH2 0x3D22 JUMP JUMPDEST PUSH1 0x20 PUSH1 0x40 MLOAD DUP1 DUP4 SUB DUP2 DUP7 DUP1 EXTCODESIZE ISZERO DUP1 ISZERO PUSH2 0x1ABA JUMPI PUSH1 0x0 DUP1 REVERT JUMPDEST POP GAS STATICCALL ISZERO DUP1 ISZERO PUSH2 0x1ACE JUMPI RETURNDATASIZE PUSH1 0x0 DUP1 RETURNDATACOPY RETURNDATASIZE PUSH1 0x0 REVERT JUMPDEST POP POP POP POP PUSH1 0x40 MLOAD RETURNDATASIZE PUSH1 0x1F NOT PUSH1 0x1F DUP3 ADD AND DUP3 ADD DUP1 PUSH1 0x40 MSTORE POP PUSH2 0x1AF2 SWAP2 SWAP1 DUP2 ADD SWAP1 PUSH2 0x301B JUMP JUMPDEST SWAP1 POP PUSH1 0x0 DUP6 PUSH1 0x1 PUSH1 0x1 PUSH1 0xA0 SHL SUB AND PUSH4 0x6954A937 DUP7 PUSH1 0x40 MLOAD DUP3 PUSH4 0xFFFFFFFF AND PUSH1 0xE0 SHL DUP2 MSTORE PUSH1 0x4 ADD PUSH2 0x1B22 SWAP2 SWAP1 PUSH2 0x3D22 JUMP JUMPDEST PUSH1 0x20 PUSH1 0x40 MLOAD DUP1 DUP4 SUB DUP2 DUP7 DUP1 EXTCODESIZE ISZERO DUP1 ISZERO PUSH2 0x1B3A JUMPI PUSH1 0x0 DUP1 REVERT JUMPDEST POP GAS STATICCALL ISZERO DUP1 ISZERO PUSH2 0x1B4E JUMPI RETURNDATASIZE PUSH1 0x0 DUP1 RETURNDATACOPY RETURNDATASIZE PUSH1 0x0 REVERT JUMPDEST POP POP POP POP PUSH1 0x40 MLOAD RETURNDATASIZE PUSH1 0x1F NOT PUSH1 0x1F DUP3 ADD AND DUP3 ADD DUP1 PUSH1 0x40 MSTORE POP PUSH2 0x1B72 SWAP2 SWAP1 DUP2 ADD SWAP1 PUSH2 0x301B JUMP JUMPDEST SWAP1 POP PUSH1 0x0 PUSH2 0x1BA7 DUP3 DUP5 PUSH1 0x40 MLOAD DUP1 PUSH1 0x40 ADD PUSH1 0x40 MSTORE DUP1 PUSH1 0xE DUP2 MSTORE PUSH1 0x20 ADD PUSH14 0x1CDD5B4819185B9AC81D1BDD185B PUSH1 0x92 SHL DUP2 MSTORE POP PUSH2 0x2360 JUMP JUMPDEST SWAP1 POP PUSH1 0x0 PUSH2 0x1BDB DUP3 DUP7 PUSH1 0x40 MLOAD DUP1 PUSH1 0x40 ADD PUSH1 0x40 MSTORE DUP1 PUSH1 0xD DUP2 MSTORE PUSH1 0x20 ADD PUSH13 0x1CDD5888185B1B1BD8D85D1959 PUSH1 0x9A SHL DUP2 MSTORE POP PUSH2 0x2390 JUMP JUMPDEST SWAP1 POP PUSH1 0x40 MLOAD DUP1 PUSH1 0x80 ADD PUSH1 0x40 MSTORE DUP1 DUP7 DUP2 MSTORE PUSH1 0x20 ADD DUP11 PUSH1 0x1 PUSH1 0x1 PUSH1 0xA0 SHL SUB AND PUSH4 0xB4B5EA57 DUP11 PUSH1 0x40 MLOAD DUP3 PUSH4 0xFFFFFFFF AND PUSH1 0xE0 SHL DUP2 MSTORE PUSH1 0x4 ADD PUSH2 0x1C1A SWAP2 SWAP1 PUSH2 0x3D22 JUMP JUMPDEST PUSH1 0x20 PUSH1 0x40 MLOAD DUP1 DUP4 SUB DUP2 DUP7 DUP1 EXTCODESIZE ISZERO DUP1 ISZERO PUSH2 0x1C32 JUMPI PUSH1 0x0 DUP1 REVERT JUMPDEST POP GAS STATICCALL ISZERO DUP1 ISZERO PUSH2 0x1C46 JUMPI RETURNDATASIZE PUSH1 0x0 DUP1 RETURNDATACOPY RETURNDATASIZE PUSH1 0x0 REVERT JUMPDEST POP POP POP POP PUSH1 0x40 MLOAD RETURNDATASIZE PUSH1 0x1F NOT PUSH1 0x1F DUP3 ADD AND DUP3 ADD DUP1 PUSH1 0x40 MSTORE POP PUSH2 0x1C6A SWAP2 SWAP1 DUP2 ADD SWAP1 PUSH2 0x317C JUMP JUMPDEST PUSH1 0x1 PUSH1 0x1 PUSH1 0x60 SHL SUB AND DUP2 MSTORE PUSH1 0x20 ADD DUP11 PUSH1 0x1 PUSH1 0x1 PUSH1 0xA0 SHL SUB AND PUSH4 0x587CDE1E DUP11 PUSH1 0x40 MLOAD DUP3 PUSH4 0xFFFFFFFF AND PUSH1 0xE0 SHL DUP2 MSTORE PUSH1 0x4 ADD PUSH2 0x1CA4 SWAP2 SWAP1 PUSH2 0x3D22 JUMP JUMPDEST PUSH1 0x20 PUSH1 0x40 MLOAD DUP1 DUP4 SUB DUP2 DUP7 DUP1 EXTCODESIZE ISZERO DUP1 ISZERO PUSH2 0x1CBC JUMPI PUSH1 0x0 DUP1 REVERT JUMPDEST POP GAS STATICCALL ISZERO DUP1 ISZERO PUSH2 0x1CD0 JUMPI RETURNDATASIZE PUSH1 0x0 DUP1 RETURNDATACOPY RETURNDATASIZE PUSH1 0x0 REVERT JUMPDEST POP POP POP POP PUSH1 0x40 MLOAD RETURNDATASIZE PUSH1 0x1F NOT PUSH1 0x1F DUP3 ADD AND DUP3 ADD DUP1 PUSH1 0x40 MSTORE POP PUSH2 0x1CF4 SWAP2 SWAP1 DUP2 ADD SWAP1 PUSH2 0x2BE2 JUMP JUMPDEST PUSH1 0x1 PUSH1 0x1 PUSH1 0xA0 SHL SUB AND DUP2 MSTORE PUSH1 0x20 ADD SWAP2 SWAP1 SWAP2 MSTORE SWAP9 SWAP8 POP POP POP POP POP POP POP POP JUMP JUMPDEST PUSH1 0x40 DUP1 MLOAD DUP3 DUP2 MSTORE PUSH1 0x20 DUP1 DUP5 MUL DUP3 ADD ADD SWAP1 SWAP2 MSTORE PUSH1 0x60 SWAP1 DUP3 SWAP1 DUP3 SWAP1 DUP3 DUP1 ISZERO PUSH2 0x1D52 JUMPI DUP2 PUSH1 0x20 ADD JUMPDEST PUSH2 0x1D3F PUSH2 0x2630 JUMP JUMPDEST DUP2 MSTORE PUSH1 0x20 ADD SWAP1 PUSH1 0x1 SWAP1 SUB SWAP1 DUP2 PUSH2 0x1D37 JUMPI SWAP1 POP JUMPDEST POP SWAP1 POP PUSH1 0x0 JUMPDEST DUP3 DUP2 LT ISZERO PUSH2 0xFD4 JUMPI PUSH2 0x1D84 DUP7 DUP7 DUP4 DUP2 DUP2 LT PUSH2 0x1D6F JUMPI INVALID JUMPDEST SWAP1 POP PUSH1 0x20 MUL ADD PUSH1 0x20 PUSH2 0x286 SWAP2 SWAP1 DUP2 ADD SWAP1 PUSH2 0x2DC7 JUMP JUMPDEST DUP3 DUP3 DUP2 MLOAD DUP2 LT PUSH2 0x1D90 JUMPI INVALID JUMPDEST PUSH1 0x20 SWAP1 DUP2 MUL SWAP2 SWAP1 SWAP2 ADD ADD MSTORE PUSH1 0x1 ADD PUSH2 0x1D58 JUMP JUMPDEST PUSH2 0x1DAB PUSH2 0x2630 JUMP JUMPDEST PUSH1 0x0 DUP3 PUSH1 0x1 PUSH1 0x1 PUSH1 0xA0 SHL SUB AND PUSH4 0xE8B29A90 PUSH1 0x40 MLOAD DUP2 PUSH4 0xFFFFFFFF AND PUSH1 0xE0 SHL DUP2 MSTORE PUSH1 0x4 ADD PUSH1 0x20 PUSH1 0x40 MLOAD DUP1 DUP4 SUB DUP2 DUP7 DUP1 EXTCODESIZE ISZERO DUP1 ISZERO PUSH2 0x1DE6 JUMPI PUSH1 0x0 DUP1 REVERT JUMPDEST POP GAS STATICCALL ISZERO DUP1 ISZERO PUSH2 0x1DFA JUMPI RETURNDATASIZE PUSH1 0x0 DUP1 RETURNDATACOPY RETURNDATASIZE PUSH1 0x0 REVERT JUMPDEST POP POP POP POP PUSH1 0x40 MLOAD RETURNDATASIZE PUSH1 0x1F NOT PUSH1 0x1F DUP3 ADD AND DUP3 ADD DUP1 PUSH1 0x40 MSTORE POP PUSH2 0x1E1E SWAP2 SWAP1 DUP2 ADD SWAP1 PUSH2 0x2EBF JUMP JUMPDEST SWAP1 POP PUSH1 0x0 DUP2 PUSH1 0x1 PUSH1 0x1 PUSH1 0xA0 SHL SUB AND PUSH4 0x7DC0D1D0 PUSH1 0x40 MLOAD DUP2 PUSH4 0xFFFFFFFF AND PUSH1 0xE0 SHL DUP2 MSTORE PUSH1 0x4 ADD PUSH1 0x20 PUSH1 0x40 MLOAD DUP1 DUP4 SUB DUP2 DUP7 DUP1 EXTCODESIZE ISZERO DUP1 ISZERO PUSH2 0x1E5B JUMPI PUSH1 0x0 DUP1 REVERT JUMPDEST POP GAS STATICCALL ISZERO DUP1 ISZERO PUSH2 0x1E6F JUMPI RETURNDATASIZE PUSH1 0x0 DUP1 RETURNDATACOPY RETURNDATASIZE PUSH1 0x0 REVERT JUMPDEST POP POP POP POP PUSH1 0x40 MLOAD RETURNDATASIZE PUSH1 0x1F NOT PUSH1 0x1F DUP3 ADD AND DUP3 ADD DUP1 PUSH1 0x40 MSTORE POP PUSH2 0x1E93 SWAP2 SWAP1 DUP2 ADD SWAP1 PUSH2 0x2EBF JUMP JUMPDEST SWAP1 POP PUSH1 0x40 MLOAD DUP1 PUSH1 0x40 ADD PUSH1 0x40 MSTORE DUP1 DUP6 PUSH1 0x1 PUSH1 0x1 PUSH1 0xA0 SHL SUB AND DUP2 MSTORE PUSH1 0x20 ADD DUP3 PUSH1 0x1 PUSH1 0x1 PUSH1 0xA0 SHL SUB AND PUSH4 0xFC57D4DF DUP8 PUSH1 0x40 MLOAD DUP3 PUSH4 0xFFFFFFFF AND PUSH1 0xE0 SHL DUP2 MSTORE PUSH1 0x4 ADD PUSH2 0x1EDB SWAP2 SWAP1 PUSH2 0x3DFC JUMP JUMPDEST PUSH1 0x20 PUSH1 0x40 MLOAD DUP1 DUP4 SUB DUP2 DUP7 DUP1 EXTCODESIZE ISZERO DUP1 ISZERO PUSH2 0x1EF3 JUMPI PUSH1 0x0 DUP1 REVERT JUMPDEST POP GAS STATICCALL ISZERO DUP1 ISZERO PUSH2 0x1F07 JUMPI RETURNDATASIZE PUSH1 0x0 DUP1 RETURNDATACOPY RETURNDATASIZE PUSH1 0x0 REVERT JUMPDEST POP POP POP POP PUSH1 0x40 MLOAD RETURNDATASIZE PUSH1 0x1F NOT PUSH1 0x1F DUP3 ADD AND DUP3 ADD DUP1 PUSH1 0x40 MSTORE POP PUSH2 0x1F2B SWAP2 SWAP1 DUP2 ADD SWAP1 PUSH2 0x301B JUMP JUMPDEST SWAP1 MSTORE SWAP5 SWAP4 POP POP POP POP JUMP JUMPDEST PUSH2 0x1F3D PUSH2 0x2647 JUMP JUMPDEST PUSH1 0x40 DUP1 MLOAD PUSH1 0x60 DUP2 ADD SWAP2 DUP3 SWAP1 MSTORE PUSH4 0x70A08231 PUSH1 0xE0 SHL SWAP1 SWAP2 MSTORE DUP1 PUSH1 0x1 PUSH1 0x1 PUSH1 0xA0 SHL SUB DUP6 AND PUSH4 0x70A08231 PUSH2 0x1F71 DUP7 PUSH1 0x64 DUP6 ADD PUSH2 0x3D22 JUMP JUMPDEST PUSH1 0x20 PUSH1 0x40 MLOAD DUP1 DUP4 SUB DUP2 DUP7 DUP1 EXTCODESIZE ISZERO DUP1 ISZERO PUSH2 0x1F89 JUMPI PUSH1 0x0 DUP1 REVERT JUMPDEST POP GAS STATICCALL ISZERO DUP1 ISZERO PUSH2 0x1F9D JUMPI RETURNDATASIZE PUSH1 0x0 DUP1 RETURNDATACOPY RETURNDATASIZE PUSH1 0x0 REVERT JUMPDEST POP POP POP POP PUSH1 0x40 MLOAD RETURNDATASIZE PUSH1 0x1F NOT PUSH1 0x1F DUP3 ADD AND DUP3 ADD DUP1 PUSH1 0x40 MSTORE POP PUSH2 0x1FC1 SWAP2 SWAP1 DUP2 ADD SWAP1 PUSH2 0x301B JUMP JUMPDEST DUP2 MSTORE PUSH1 0x20 ADD DUP5 PUSH1 0x1 PUSH1 0x1 PUSH1 0xA0 SHL SUB AND PUSH4 0xB4B5EA57 DUP6 PUSH1 0x40 MLOAD DUP3 PUSH4 0xFFFFFFFF AND PUSH1 0xE0 SHL DUP2 MSTORE PUSH1 0x4 ADD PUSH2 0x1FF2 SWAP2 SWAP1 PUSH2 0x3D22 JUMP JUMPDEST PUSH1 0x20 PUSH1 0x40 MLOAD DUP1 DUP4 SUB DUP2 DUP7 DUP1 EXTCODESIZE ISZERO DUP1 ISZERO PUSH2 0x200A JUMPI PUSH1 0x0 DUP1 REVERT JUMPDEST POP GAS STATICCALL ISZERO DUP1 ISZERO PUSH2 0x201E JUMPI RETURNDATASIZE PUSH1 0x0 DUP1 RETURNDATACOPY RETURNDATASIZE PUSH1 0x0 REVERT JUMPDEST POP POP POP POP PUSH1 0x40 MLOAD RETURNDATASIZE PUSH1 0x1F NOT PUSH1 0x1F DUP3 ADD AND DUP3 ADD DUP1 PUSH1 0x40 MSTORE POP PUSH2 0x2042 SWAP2 SWAP1 DUP2 ADD SWAP1 PUSH2 0x317C JUMP JUMPDEST PUSH1 0x1 PUSH1 0x1 PUSH1 0x60 SHL SUB AND DUP2 MSTORE PUSH1 0x20 ADD DUP5 PUSH1 0x1 PUSH1 0x1 PUSH1 0xA0 SHL SUB AND PUSH4 0x587CDE1E DUP6 PUSH1 0x40 MLOAD DUP3 PUSH4 0xFFFFFFFF AND PUSH1 0xE0 SHL DUP2 MSTORE PUSH1 0x4 ADD PUSH2 0x207C SWAP2 SWAP1 PUSH2 0x3D22 JUMP JUMPDEST PUSH1 0x20 PUSH1 0x40 MLOAD DUP1 DUP4 SUB DUP2 DUP7 DUP1 EXTCODESIZE ISZERO DUP1 ISZERO PUSH2 0x2094 JUMPI PUSH1 0x0 DUP1 REVERT JUMPDEST POP GAS STATICCALL ISZERO DUP1 ISZERO PUSH2 0x20A8 JUMPI RETURNDATASIZE PUSH1 0x0 DUP1 RETURNDATACOPY RETURNDATASIZE PUSH1 0x0 REVERT JUMPDEST POP POP POP POP PUSH1 0x40 MLOAD RETURNDATASIZE PUSH1 0x1F NOT PUSH1 0x1F DUP3 ADD AND DUP3 ADD DUP1 PUSH1 0x40 MSTORE POP PUSH2 0x20CC SWAP2 SWAP1 DUP2 ADD SWAP1 PUSH2 0x2BE2 JUMP JUMPDEST PUSH1 0x1 PUSH1 0x1 PUSH1 0xA0 SHL SUB AND SWAP1 MSTORE SWAP4 SWAP3 POP POP POP JUMP JUMPDEST PUSH1 0x0 DUP2 PUSH1 0x40 MLOAD PUSH1 0x20 ADD PUSH2 0x20F1 SWAP2 SWAP1 PUSH2 0x3D16 JUMP JUMPDEST PUSH1 0x40 MLOAD PUSH1 0x20 DUP2 DUP4 SUB SUB DUP2 MSTORE SWAP1 PUSH1 0x40 MSTORE DUP1 MLOAD SWAP1 PUSH1 0x20 ADD KECCAK256 DUP4 PUSH1 0x40 MLOAD PUSH1 0x20 ADD PUSH2 0x2118 SWAP2 SWAP1 PUSH2 0x3D16 JUMP JUMPDEST PUSH1 0x40 MLOAD PUSH1 0x20 DUP2 DUP4 SUB SUB DUP2 MSTORE SWAP1 PUSH1 0x40 MSTORE DUP1 MLOAD SWAP1 PUSH1 0x20 ADD KECCAK256 EQ SWAP1 POP SWAP3 SWAP2 POP POP JUMP JUMPDEST PUSH2 0x213F PUSH2 0x2671 JUMP JUMPDEST PUSH1 0x40 MLOAD PUSH4 0x13CF08B PUSH1 0xE0 SHL DUP2 MSTORE PUSH1 0x1 PUSH1 0x1 PUSH1 0xA0 SHL SUB DUP5 AND SWAP1 PUSH4 0x13CF08B SWAP1 PUSH2 0x216B SWAP1 DUP6 SWAP1 PUSH1 0x4 ADD PUSH2 0x3E73 JUMP JUMPDEST PUSH2 0x140 PUSH1 0x40 MLOAD DUP1 DUP4 SUB DUP2 DUP7 DUP1 EXTCODESIZE ISZERO DUP1 ISZERO PUSH2 0x2184 JUMPI PUSH1 0x0 DUP1 REVERT JUMPDEST POP GAS STATICCALL ISZERO DUP1 ISZERO PUSH2 0x2198 JUMPI RETURNDATASIZE PUSH1 0x0 DUP1 RETURNDATACOPY RETURNDATASIZE PUSH1 0x0 REVERT JUMPDEST POP POP POP POP PUSH1 0x40 MLOAD RETURNDATASIZE PUSH1 0x1F NOT PUSH1 0x1F DUP3 ADD AND DUP3 ADD DUP1 PUSH1 0x40 MSTORE POP PUSH2 0x21BC SWAP2 SWAP1 DUP2 ADD SWAP1 PUSH2 0x2FC0 JUMP JUMPDEST SWAP2 DUP5 MSTORE POP PUSH1 0x20 DUP1 DUP3 ADD MLOAD PUSH1 0x1 PUSH1 0x1 PUSH1 0xA0 SHL SUB AND SWAP1 DUP5 ADD MSTORE PUSH1 0x40 DUP1 DUP3 ADD MLOAD SWAP1 DUP5 ADD MSTORE PUSH1 0x60 DUP2 ADD MLOAD PUSH1 0xE0 DUP1 DUP6 ADD SWAP2 SWAP1 SWAP2 MSTORE PUSH1 0x80 DUP3 ADD MLOAD PUSH2 0x100 DUP1 DUP7 ADD SWAP2 SWAP1 SWAP2 MSTORE PUSH1 0xA0 DUP4 ADD MLOAD PUSH2 0x120 DUP1 DUP8 ADD SWAP2 SWAP1 SWAP2 MSTORE PUSH1 0xC0 DUP5 ADD MLOAD PUSH2 0x140 DUP8 ADD MSTORE SWAP2 DUP4 ADD MLOAD PUSH2 0x160 DUP7 ADD MSTORE DUP3 ADD MLOAD ISZERO ISZERO PUSH2 0x180 DUP6 ADD MSTORE ADD MLOAD ISZERO ISZERO PUSH2 0x1A0 SWAP1 SWAP3 ADD SWAP2 SWAP1 SWAP2 MSTORE POP JUMP JUMPDEST PUSH1 0x0 DUP1 PUSH1 0x0 DUP1 PUSH1 0x0 DUP1 PUSH1 0x0 DUP1 DUP10 PUSH1 0x1 PUSH1 0x1 PUSH1 0xA0 SHL SUB AND PUSH4 0x13CF08B DUP11 PUSH1 0x40 MLOAD DUP3 PUSH4 0xFFFFFFFF AND PUSH1 0xE0 SHL DUP2 MSTORE PUSH1 0x4 ADD PUSH2 0x2272 SWAP2 SWAP1 PUSH2 0x3E73 JUMP JUMPDEST PUSH2 0x120 PUSH1 0x40 MLOAD DUP1 DUP4 SUB DUP2 DUP7 DUP1 EXTCODESIZE ISZERO DUP1 ISZERO PUSH2 0x228B JUMPI PUSH1 0x0 DUP1 REVERT JUMPDEST POP GAS STATICCALL ISZERO DUP1 ISZERO PUSH2 0x229F JUMPI RETURNDATASIZE PUSH1 0x0 DUP1 RETURNDATACOPY RETURNDATASIZE PUSH1 0x0 REVERT JUMPDEST POP POP POP POP PUSH1 0x40 MLOAD RETURNDATASIZE PUSH1 0x1F NOT PUSH1 0x1F DUP3 ADD AND DUP3 ADD DUP1 PUSH1 0x40 MSTORE POP PUSH2 0x22C3 SWAP2 SWAP1 DUP2 ADD SWAP1 PUSH2 0x3039 JUMP JUMPDEST SWAP9 POP SWAP9 POP SWAP9 POP SWAP9 POP SWAP9 POP SWAP9 POP SWAP9 POP SWAP9 POP POP DUP9 DUP12 PUSH1 0x0 ADD DUP2 DUP2 MSTORE POP POP DUP8 DUP12 PUSH1 0x20 ADD SWAP1 PUSH1 0x1 PUSH1 0x1 PUSH1 0xA0 SHL SUB AND SWAP1 DUP2 PUSH1 0x1 PUSH1 0x1 PUSH1 0xA0 SHL SUB AND DUP2 MSTORE POP POP DUP7 DUP12 PUSH1 0x40 ADD DUP2 DUP2 MSTORE POP POP DUP6 DUP12 PUSH1 0xE0 ADD DUP2 DUP2 MSTORE POP POP DUP5 DUP12 PUSH2 0x100 ADD DUP2 DUP2 MSTORE POP POP DUP4 DUP12 PUSH2 0x120 ADD DUP2 DUP2 MSTORE POP POP DUP3 DUP12 PUSH2 0x140 ADD DUP2 DUP2 MSTORE POP POP DUP2 DUP12 PUSH2 0x160 ADD SWAP1 ISZERO ISZERO SWAP1 DUP2 ISZERO ISZERO DUP2 MSTORE POP POP DUP1 DUP12 PUSH2 0x180 ADD SWAP1 ISZERO ISZERO SWAP1 DUP2 ISZERO ISZERO DUP2 MSTORE POP POP POP POP POP POP POP POP POP POP POP POP POP JUMP JUMPDEST PUSH1 0x0 DUP4 DUP4 ADD DUP3 DUP6 DUP3 LT ISZERO PUSH2 0x1199 JUMPI PUSH1 0x40 MLOAD PUSH3 0x461BCD PUSH1 0xE5 SHL DUP2 MSTORE PUSH1 0x4 ADD PUSH2 0x2387 SWAP2 SWAP1 PUSH2 0x3E0A JUMP JUMPDEST PUSH1 0x40 MLOAD DUP1 SWAP2 SUB SWAP1 REVERT JUMPDEST PUSH1 0x0 DUP2 DUP5 DUP5 GT ISZERO PUSH2 0x23B4 JUMPI PUSH1 0x40 MLOAD PUSH3 0x461BCD PUSH1 0xE5 SHL DUP2 MSTORE PUSH1 0x4 ADD PUSH2 0x2387 SWAP2 SWAP1 PUSH2 0x3E0A JUMP JUMPDEST POP POP POP SWAP1 SUB SWAP1 JUMP JUMPDEST PUSH1 0x40 MLOAD DUP1 PUSH1 0x40 ADD PUSH1 0x40 MSTORE DUP1 PUSH1 0x0 DUP2 MSTORE PUSH1 0x20 ADD PUSH1 0x0 DUP2 MSTORE POP SWAP1 JUMP JUMPDEST PUSH1 0x40 MLOAD DUP1 PUSH2 0x200 ADD PUSH1 0x40 MSTORE DUP1 PUSH1 0x0 PUSH1 0x1 PUSH1 0x1 PUSH1 0xA0 SHL SUB AND DUP2 MSTORE PUSH1 0x20 ADD PUSH1 0x0 DUP2 MSTORE PUSH1 0x20 ADD PUSH1 0x0 DUP2 MSTORE PUSH1 0x20 ADD PUSH1 0x0 DUP2 MSTORE PUSH1 0x20 ADD PUSH1 0x0 DUP2 MSTORE PUSH1 0x20 ADD PUSH1 0x0 DUP2 MSTORE PUSH1 0x20 ADD PUSH1 0x0 DUP2 MSTORE PUSH1 0x20 ADD PUSH1 0x0 DUP2 MSTORE PUSH1 0x20 ADD PUSH1 0x0 DUP2 MSTORE PUSH1 0x20 ADD PUSH1 0x0 ISZERO ISZERO DUP2 MSTORE PUSH1 0x20 ADD PUSH1 0x0 DUP2 MSTORE PUSH1 0x20 ADD PUSH1 0x0 PUSH1 0x1 PUSH1 0x1 PUSH1 0xA0 SHL SUB AND DUP2 MSTORE PUSH1 0x20 ADD PUSH1 0x0 DUP2 MSTORE PUSH1 0x20 ADD PUSH1 0x0 DUP2 MSTORE PUSH1 0x20 ADD PUSH1 0x0 DUP2 MSTORE PUSH1 0x20 ADD PUSH1 0x0 DUP2 MSTORE POP SWAP1 JUMP JUMPDEST PUSH1 0x40 MLOAD DUP1 PUSH1 0xC0 ADD PUSH1 0x40 MSTORE DUP1 PUSH1 0x0 PUSH1 0x1 PUSH1 0x1 PUSH1 0xA0 SHL SUB AND DUP2 MSTORE PUSH1 0x20 ADD PUSH1 0x0 DUP2 MSTORE PUSH1 0x20 ADD PUSH1 0x0 DUP2 MSTORE PUSH1 0x20 ADD PUSH1 0x0 DUP2 MSTORE PUSH1 0x20 ADD PUSH1 0x0 DUP2 MSTORE PUSH1 0x20 ADD PUSH1 0x0 DUP2 MSTORE POP SWAP1 JUMP JUMPDEST PUSH1 0x40 DUP1 MLOAD PUSH1 0x80 DUP2 ADD DUP3 MSTORE PUSH1 0x0 DUP1 DUP3 MSTORE PUSH1 0x20 DUP3 ADD DUP2 SWAP1 MSTORE SWAP2 DUP2 ADD DUP3 SWAP1 MSTORE PUSH1 0x60 DUP2 ADD SWAP2 SWAP1 SWAP2 MSTORE SWAP1 JUMP JUMPDEST PUSH1 0x40 DUP1 MLOAD PUSH1 0x60 DUP2 ADD DUP3 MSTORE PUSH1 0x0 DUP1 DUP3 MSTORE PUSH1 0x20 DUP3 ADD DUP2 SWAP1 MSTORE SWAP2 DUP2 ADD SWAP2 SWAP1 SWAP2 MSTORE SWAP1 JUMP JUMPDEST PUSH1 0x40 MLOAD DUP1 PUSH2 0x1C0 ADD PUSH1 0x40 MSTORE DUP1 PUSH1 0x0 DUP2 MSTORE PUSH1 0x20 ADD PUSH1 0x0 PUSH1 0x1 PUSH1 0x1 PUSH1 0xA0 SHL SUB AND DUP2 MSTORE PUSH1 0x20 ADD PUSH1 0x0 DUP2 MSTORE PUSH1 0x20 ADD PUSH1 0x60 DUP2 MSTORE PUSH1 0x20 ADD PUSH1 0x60 DUP2 MSTORE PUSH1 0x20 ADD PUSH1 0x60 DUP2 MSTORE PUSH1 0x20 ADD PUSH1 0x60 DUP2 MSTORE PUSH1 0x20 ADD PUSH1 0x0 DUP2 MSTORE PUSH1 0x20 ADD PUSH1 0x0 DUP2 MSTORE PUSH1 0x20 ADD PUSH1 0x0 DUP2 MSTORE PUSH1 0x20 ADD PUSH1 0x0 DUP2 MSTORE PUSH1 0x20 ADD PUSH1 0x0 DUP2 MSTORE PUSH1 0x20 ADD PUSH1 0x0 ISZERO ISZERO DUP2 MSTORE PUSH1 0x20 ADD PUSH1 0x0 ISZERO ISZERO DUP2 MSTORE POP SWAP1 JUMP JUMPDEST PUSH1 0x40 MLOAD DUP1 PUSH1 0x60 ADD PUSH1 0x40 MSTORE DUP1 PUSH1 0x60 DUP2 MSTORE PUSH1 0x20 ADD PUSH1 0x0 DUP2 MSTORE PUSH1 0x20 ADD PUSH1 0x0 DUP2 MSTORE POP SWAP1 JUMP JUMPDEST PUSH1 0x40 MLOAD DUP1 PUSH2 0x1A0 ADD PUSH1 0x40 MSTORE DUP1 PUSH1 0x0 DUP2 MSTORE PUSH1 0x20 ADD PUSH1 0x0 PUSH1 0x1 PUSH1 0x1 PUSH1 0xA0 SHL SUB AND DUP2 MSTORE PUSH1 0x20 ADD PUSH1 0x0 DUP2 MSTORE PUSH1 0x20 ADD PUSH1 0x60 DUP2 MSTORE PUSH1 0x20 ADD PUSH1 0x60 DUP2 MSTORE PUSH1 0x20 ADD PUSH1 0x60 DUP2 MSTORE PUSH1 0x20 ADD PUSH1 0x60 DUP2 MSTORE PUSH1 0x20 ADD PUSH1 0x0 DUP2 MSTORE PUSH1 0x20 ADD PUSH1 0x0 DUP2 MSTORE PUSH1 0x20 ADD PUSH1 0x0 DUP2 MSTORE PUSH1 0x20 ADD PUSH1 0x0 DUP2 MSTORE PUSH1 0x20 ADD PUSH1 0x0 ISZERO ISZERO DUP2 MSTORE PUSH1 0x20 ADD PUSH1 0x0 ISZERO ISZERO DUP2 MSTORE POP SWAP1 JUMP JUMPDEST PUSH1 0x40 MLOAD DUP1 PUSH1 0x80 ADD PUSH1 0x40 MSTORE DUP1 PUSH1 0x0 DUP2 MSTORE PUSH1 0x20 ADD PUSH1 0x0 DUP2 MSTORE PUSH1 0x20 ADD PUSH1 0x0 PUSH1 0x1 PUSH1 0x1 PUSH1 0xA0 SHL SUB AND DUP2 MSTORE PUSH1 0x20 ADD PUSH1 0x0 DUP2 MSTORE POP SWAP1 JUMP JUMPDEST PUSH1 0x40 DUP1 MLOAD DUP1 DUP3 ADD SWAP1 SWAP2 MSTORE PUSH1 0x0 DUP1 DUP3 MSTORE PUSH1 0x20 DUP3 ADD MSTORE SWAP1 JUMP JUMPDEST PUSH1 0x40 MLOAD DUP1 PUSH1 0x60 ADD PUSH1 0x40 MSTORE DUP1 PUSH1 0x0 DUP2 MSTORE PUSH1 0x20 ADD PUSH1 0x0 DUP2 MSTORE PUSH1 0x20 ADD PUSH1 0x0 PUSH1 0x1 PUSH1 0x1 PUSH1 0xA0 SHL SUB AND DUP2 MSTORE POP SWAP1 JUMP JUMPDEST PUSH1 0x40 MLOAD DUP1 PUSH2 0x140 ADD PUSH1 0x40 MSTORE DUP1 PUSH1 0x0 DUP2 MSTORE PUSH1 0x20 ADD PUSH1 0x0 PUSH1 0x1 PUSH1 0x1 PUSH1 0xA0 SHL SUB AND DUP2 MSTORE PUSH1 0x20 ADD PUSH1 0x0 DUP2 MSTORE PUSH1 0x20 ADD PUSH1 0x0 DUP2 MSTORE PUSH1 0x20 ADD PUSH1 0x0 DUP2 MSTORE PUSH1 0x20 ADD PUSH1 0x0 DUP2 MSTORE PUSH1 0x20 ADD PUSH1 0x0 DUP2 MSTORE PUSH1 0x20 ADD PUSH1 0x0 DUP2 MSTORE PUSH1 0x20 ADD PUSH1 0x0 ISZERO ISZERO DUP2 MSTORE PUSH1 0x20 ADD PUSH1 0x0 ISZERO ISZERO DUP2 MSTORE POP SWAP1 JUMP JUMPDEST DUP1 CALLDATALOAD PUSH2 0xFD9 DUP2 PUSH2 0x3FB2 JUMP JUMPDEST DUP1 MLOAD PUSH2 0xFD9 DUP2 PUSH2 0x3FB2 JUMP JUMPDEST PUSH1 0x0 DUP3 PUSH1 0x1F DUP4 ADD SLT PUSH2 0x26F8 JUMPI PUSH1 0x0 DUP1 REVERT JUMPDEST DUP2 MLOAD PUSH2 0x270B PUSH2 0x2706 DUP3 PUSH2 0x3EB5 JUMP JUMPDEST PUSH2 0x3E8F JUMP JUMPDEST SWAP2 POP DUP2 DUP2 DUP4 MSTORE PUSH1 0x20 DUP5 ADD SWAP4 POP PUSH1 0x20 DUP2 ADD SWAP1 POP DUP4 DUP6 PUSH1 0x20 DUP5 MUL DUP3 ADD GT ISZERO PUSH2 0x2730 JUMPI PUSH1 0x0 DUP1 REVERT JUMPDEST PUSH1 0x0 JUMPDEST DUP4 DUP2 LT ISZERO PUSH2 0x275C JUMPI DUP2 PUSH2 0x2746 DUP9 DUP3 PUSH2 0x26DC JUMP JUMPDEST DUP5 MSTORE POP PUSH1 0x20 SWAP3 DUP4 ADD SWAP3 SWAP2 SWAP1 SWAP2 ADD SWAP1 PUSH1 0x1 ADD PUSH2 0x2733 JUMP JUMPDEST POP POP POP POP SWAP3 SWAP2 POP POP JUMP JUMPDEST PUSH1 0x0 DUP3 PUSH1 0x1F DUP4 ADD SLT PUSH2 0x2777 JUMPI PUSH1 0x0 DUP1 REVERT JUMPDEST DUP2 MLOAD PUSH2 0x2785 PUSH2 0x2706 DUP3 PUSH2 0x3EB5 JUMP JUMPDEST DUP2 DUP2 MSTORE PUSH1 0x20 SWAP4 DUP5 ADD SWAP4 SWAP1 SWAP3 POP DUP3 ADD DUP4 PUSH1 0x0 JUMPDEST DUP4 DUP2 LT ISZERO PUSH2 0x275C JUMPI DUP2 MLOAD DUP7 ADD PUSH2 0x27AD DUP9 DUP3 PUSH2 0x29C3 JUMP JUMPDEST DUP5 MSTORE POP PUSH1 0x20 SWAP3 DUP4 ADD SWAP3 SWAP2 SWAP1 SWAP2 ADD SWAP1 PUSH1 0x1 ADD PUSH2 0x2797 JUMP JUMPDEST PUSH1 0x0 DUP1 DUP4 PUSH1 0x1F DUP5 ADD SLT PUSH2 0x27D5 JUMPI PUSH1 0x0 DUP1 REVERT JUMPDEST POP DUP2 CALLDATALOAD PUSH1 0x1 PUSH1 0x1 PUSH1 0x40 SHL SUB DUP2 GT ISZERO PUSH2 0x27EC JUMPI PUSH1 0x0 DUP1 REVERT JUMPDEST PUSH1 0x20 DUP4 ADD SWAP2 POP DUP4 PUSH1 0x20 DUP3 MUL DUP4 ADD GT ISZERO PUSH2 0x2804 JUMPI PUSH1 0x0 DUP1 REVERT JUMPDEST SWAP3 POP SWAP3 SWAP1 POP JUMP JUMPDEST PUSH1 0x0 DUP3 PUSH1 0x1F DUP4 ADD SLT PUSH2 0x281C JUMPI PUSH1 0x0 DUP1 REVERT JUMPDEST DUP2 MLOAD PUSH2 0x282A PUSH2 0x2706 DUP3 PUSH2 0x3EB5 JUMP JUMPDEST SWAP2 POP DUP2 DUP2 DUP4 MSTORE PUSH1 0x20 DUP5 ADD SWAP4 POP PUSH1 0x20 DUP2 ADD SWAP1 POP DUP4 DUP6 PUSH1 0x20 DUP5 MUL DUP3 ADD GT ISZERO PUSH2 0x284F JUMPI PUSH1 0x0 DUP1 REVERT JUMPDEST PUSH1 0x0 JUMPDEST DUP4 DUP2 LT ISZERO PUSH2 0x275C JUMPI DUP2 PUSH2 0x2865 DUP9 DUP3 PUSH2 0x2A1D JUMP JUMPDEST DUP5 MSTORE POP PUSH1 0x20 SWAP3 DUP4 ADD SWAP3 SWAP2 SWAP1 SWAP2 ADD SWAP1 PUSH1 0x1 ADD PUSH2 0x2852 JUMP JUMPDEST PUSH1 0x0 DUP3 PUSH1 0x1F DUP4 ADD SLT PUSH2 0x288C JUMPI PUSH1 0x0 DUP1 REVERT JUMPDEST DUP2 MLOAD PUSH2 0x289A PUSH2 0x2706 DUP3 PUSH2 0x3EB5 JUMP JUMPDEST DUP2 DUP2 MSTORE PUSH1 0x20 SWAP4 DUP5 ADD SWAP4 SWAP1 SWAP3 POP DUP3 ADD DUP4 PUSH1 0x0 JUMPDEST DUP4 DUP2 LT ISZERO PUSH2 0x275C JUMPI DUP2 MLOAD DUP7 ADD PUSH2 0x28C2 DUP9 DUP3 PUSH2 0x29C3 JUMP JUMPDEST DUP5 MSTORE POP PUSH1 0x20 SWAP3 DUP4 ADD SWAP3 SWAP2 SWAP1 SWAP2 ADD SWAP1 PUSH1 0x1 ADD PUSH2 0x28AC JUMP JUMPDEST PUSH1 0x0 DUP3 PUSH1 0x1F DUP4 ADD SLT PUSH2 0x28E9 JUMPI PUSH1 0x0 DUP1 REVERT JUMPDEST DUP2 CALLDATALOAD PUSH2 0x28F7 PUSH2 0x2706 DUP3 PUSH2 0x3EB5 JUMP JUMPDEST SWAP2 POP DUP2 DUP2 DUP4 MSTORE PUSH1 0x20 DUP5 ADD SWAP4 POP PUSH1 0x20 DUP2 ADD SWAP1 POP DUP4 DUP6 PUSH1 0x20 DUP5 MUL DUP3 ADD GT ISZERO PUSH2 0x291C JUMPI PUSH1 0x0 DUP1 REVERT JUMPDEST PUSH1 0x0 JUMPDEST DUP4 DUP2 LT ISZERO PUSH2 0x275C JUMPI DUP2 PUSH2 0x2932 DUP9 DUP3 PUSH2 0x2BAB JUMP JUMPDEST DUP5 MSTORE POP PUSH1 0x20 SWAP3 DUP4 ADD SWAP3 SWAP2 SWAP1 SWAP2 ADD SWAP1 PUSH1 0x1 ADD PUSH2 0x291F JUMP JUMPDEST PUSH1 0x0 DUP3 PUSH1 0x1F DUP4 ADD SLT PUSH2 0x2959 JUMPI PUSH1 0x0 DUP1 REVERT JUMPDEST DUP2 MLOAD PUSH2 0x2967 PUSH2 0x2706 DUP3 PUSH2 0x3EB5 JUMP JUMPDEST SWAP2 POP DUP2 DUP2 DUP4 MSTORE PUSH1 0x20 DUP5 ADD SWAP4 POP PUSH1 0x20 DUP2 ADD SWAP1 POP DUP4 DUP6 PUSH1 0x20 DUP5 MUL DUP3 ADD GT ISZERO PUSH2 0x298C JUMPI PUSH1 0x0 DUP1 REVERT JUMPDEST PUSH1 0x0 JUMPDEST DUP4 DUP2 LT ISZERO PUSH2 0x275C JUMPI DUP2 PUSH2 0x29A2 DUP9 DUP3 PUSH2 0x2BB6 JUMP JUMPDEST DUP5 MSTORE POP PUSH1 0x20 SWAP3 DUP4 ADD SWAP3 SWAP2 SWAP1 SWAP2 ADD SWAP1 PUSH1 0x1 ADD PUSH2 0x298F JUMP JUMPDEST DUP1 MLOAD PUSH2 0xFD9 DUP2 PUSH2 0x3FC9 JUMP JUMPDEST PUSH1 0x0 DUP3 PUSH1 0x1F DUP4 ADD SLT PUSH2 0x29D4 JUMPI PUSH1 0x0 DUP1 REVERT JUMPDEST DUP2 MLOAD PUSH2 0x29E2 PUSH2 0x2706 DUP3 PUSH2 0x3ED5 JUMP JUMPDEST SWAP2 POP DUP1 DUP3 MSTORE PUSH1 0x20 DUP4 ADD PUSH1 0x20 DUP4 ADD DUP6 DUP4 DUP4 ADD GT ISZERO PUSH2 0x29FE JUMPI PUSH1 0x0 DUP1 REVERT JUMPDEST PUSH2 0x2A09 DUP4 DUP3 DUP5 PUSH2 0x3F7C JUMP JUMPDEST POP POP POP SWAP3 SWAP2 POP POP JUMP JUMPDEST DUP1 CALLDATALOAD PUSH2 0xFD9 DUP2 PUSH2 0x3FD2 JUMP JUMPDEST DUP1 MLOAD PUSH2 0xFD9 DUP2 PUSH2 0x3FD2 JUMP JUMPDEST PUSH1 0x0 PUSH2 0x140 DUP3 DUP5 SUB SLT ISZERO PUSH2 0x2A3B JUMPI PUSH1 0x0 DUP1 REVERT JUMPDEST PUSH2 0x2A46 PUSH2 0x140 PUSH2 0x3E8F JUMP JUMPDEST SWAP1 POP PUSH1 0x0 PUSH2 0x2A54 DUP5 DUP5 PUSH2 0x2BB6 JUMP JUMPDEST DUP3 MSTORE POP PUSH1 0x20 PUSH2 0x2A65 DUP5 DUP5 DUP4 ADD PUSH2 0x26DC JUMP JUMPDEST PUSH1 0x20 DUP4 ADD MSTORE POP PUSH1 0x40 PUSH2 0x2A79 DUP5 DUP3 DUP6 ADD PUSH2 0x2BB6 JUMP JUMPDEST PUSH1 0x40 DUP4 ADD MSTORE POP PUSH1 0x60 PUSH2 0x2A8D DUP5 DUP3 DUP6 ADD PUSH2 0x2BB6 JUMP JUMPDEST PUSH1 0x60 DUP4 ADD MSTORE POP PUSH1 0x80 PUSH2 0x2AA1 DUP5 DUP3 DUP6 ADD PUSH2 0x2BB6 JUMP JUMPDEST PUSH1 0x80 DUP4 ADD MSTORE POP PUSH1 0xA0 PUSH2 0x2AB5 DUP5 DUP3 DUP6 ADD PUSH2 0x2BB6 JUMP JUMPDEST PUSH1 0xA0 DUP4 ADD MSTORE POP PUSH1 0xC0 PUSH2 0x2AC9 DUP5 DUP3 DUP6 ADD PUSH2 0x2BB6 JUMP JUMPDEST PUSH1 0xC0 DUP4 ADD MSTORE POP PUSH1 0xE0 PUSH2 0x2ADD DUP5 DUP3 DUP6 ADD PUSH2 0x2BB6 JUMP JUMPDEST PUSH1 0xE0 DUP4 ADD MSTORE POP PUSH2 0x100 PUSH2 0x2AF2 DUP5 DUP3 DUP6 ADD PUSH2 0x29B8 JUMP JUMPDEST PUSH2 0x100 DUP4 ADD MSTORE POP PUSH2 0x120 PUSH2 0x2B08 DUP5 DUP3 DUP6 ADD PUSH2 0x29B8 JUMP JUMPDEST PUSH2 0x120 DUP4 ADD MSTORE POP SWAP3 SWAP2 POP POP JUMP JUMPDEST PUSH1 0x0 PUSH1 0x60 DUP3 DUP5 SUB SLT ISZERO PUSH2 0x2B27 JUMPI PUSH1 0x0 DUP1 REVERT JUMPDEST PUSH2 0x2B31 PUSH1 0x60 PUSH2 0x3E8F JUMP JUMPDEST SWAP1 POP PUSH1 0x0 PUSH2 0x2B3F DUP5 DUP5 PUSH2 0x29B8 JUMP JUMPDEST DUP3 MSTORE POP PUSH1 0x20 PUSH2 0x2B50 DUP5 DUP5 DUP4 ADD PUSH2 0x2BCC JUMP JUMPDEST PUSH1 0x20 DUP4 ADD MSTORE POP PUSH1 0x40 PUSH2 0x2B64 DUP5 DUP3 DUP6 ADD PUSH2 0x2BD7 JUMP JUMPDEST PUSH1 0x40 DUP4 ADD MSTORE POP SWAP3 SWAP2 POP POP JUMP JUMPDEST PUSH1 0x0 PUSH1 0x60 DUP3 DUP5 SUB SLT ISZERO PUSH2 0x2B82 JUMPI PUSH1 0x0 DUP1 REVERT JUMPDEST PUSH2 0x2B8C PUSH1 0x60 PUSH2 0x3E8F JUMP JUMPDEST SWAP1 POP PUSH1 0x0 PUSH2 0x2B9A DUP5 DUP5 PUSH2 0x29B8 JUMP JUMPDEST DUP3 MSTORE POP PUSH1 0x20 PUSH2 0x2B50 DUP5 DUP5 DUP4 ADD PUSH2 0x29B8 JUMP JUMPDEST DUP1 CALLDATALOAD PUSH2 0xFD9 DUP2 PUSH2 0x3FDB JUMP JUMPDEST DUP1 MLOAD PUSH2 0xFD9 DUP2 PUSH2 0x3FDB JUMP JUMPDEST DUP1 CALLDATALOAD PUSH2 0xFD9 DUP2 PUSH2 0x3FE4 JUMP JUMPDEST DUP1 MLOAD PUSH2 0xFD9 DUP2 PUSH2 0x3FED JUMP JUMPDEST DUP1 MLOAD PUSH2 0xFD9 DUP2 PUSH2 0x3FF6 JUMP JUMPDEST PUSH1 0x0 PUSH1 0x20 DUP3 DUP5 SUB SLT ISZERO PUSH2 0x2BF4 JUMPI PUSH1 0x0 DUP1 REVERT JUMPDEST PUSH1 0x0 PUSH2 0x2C00 DUP5 DUP5 PUSH2 0x26DC JUMP JUMPDEST SWAP5 SWAP4 POP POP POP POP JUMP JUMPDEST PUSH1 0x0 DUP1 PUSH1 0x0 DUP1 PUSH1 0x80 DUP6 DUP8 SUB SLT ISZERO PUSH2 0x2C1E JUMPI PUSH1 0x0 DUP1 REVERT JUMPDEST DUP5 MLOAD PUSH1 0x1 PUSH1 0x1 PUSH1 0x40 SHL SUB DUP2 GT ISZERO PUSH2 0x2C34 JUMPI PUSH1 0x0 DUP1 REVERT JUMPDEST PUSH2 0x2C40 DUP8 DUP3 DUP9 ADD PUSH2 0x26E7 JUMP JUMPDEST SWAP5 POP POP PUSH1 0x20 DUP6 ADD MLOAD PUSH1 0x1 PUSH1 0x1 PUSH1 0x40 SHL SUB DUP2 GT ISZERO PUSH2 0x2C5C JUMPI PUSH1 0x0 DUP1 REVERT JUMPDEST PUSH2 0x2C68 DUP8 DUP3 DUP9 ADD PUSH2 0x2948 JUMP JUMPDEST SWAP4 POP POP PUSH1 0x40 DUP6 ADD MLOAD PUSH1 0x1 PUSH1 0x1 PUSH1 0x40 SHL SUB DUP2 GT ISZERO PUSH2 0x2C84 JUMPI PUSH1 0x0 DUP1 REVERT JUMPDEST PUSH2 0x2C90 DUP8 DUP3 DUP9 ADD PUSH2 0x287B JUMP JUMPDEST SWAP3 POP POP PUSH1 0x60 DUP6 ADD MLOAD PUSH1 0x1 PUSH1 0x1 PUSH1 0x40 SHL SUB DUP2 GT ISZERO PUSH2 0x2CAC JUMPI PUSH1 0x0 DUP1 REVERT JUMPDEST PUSH2 0x2CB8 DUP8 DUP3 DUP9 ADD PUSH2 0x2766 JUMP JUMPDEST SWAP2 POP POP SWAP3 SWAP6 SWAP2 SWAP5 POP SWAP3 POP JUMP JUMPDEST PUSH1 0x0 DUP1 PUSH1 0x20 DUP4 DUP6 SUB SLT ISZERO PUSH2 0x2CD7 JUMPI PUSH1 0x0 DUP1 REVERT JUMPDEST DUP3 CALLDATALOAD PUSH1 0x1 PUSH1 0x1 PUSH1 0x40 SHL SUB DUP2 GT ISZERO PUSH2 0x2CED JUMPI PUSH1 0x0 DUP1 REVERT JUMPDEST PUSH2 0x2CF9 DUP6 DUP3 DUP7 ADD PUSH2 0x27C3 JUMP JUMPDEST SWAP3 POP SWAP3 POP POP SWAP3 POP SWAP3 SWAP1 POP JUMP JUMPDEST PUSH1 0x0 DUP1 PUSH1 0x0 PUSH1 0x40 DUP5 DUP7 SUB SLT ISZERO PUSH2 0x2D1A JUMPI PUSH1 0x0 DUP1 REVERT JUMPDEST DUP4 CALLDATALOAD PUSH1 0x1 PUSH1 0x1 PUSH1 0x40 SHL SUB DUP2 GT ISZERO PUSH2 0x2D30 JUMPI PUSH1 0x0 DUP1 REVERT JUMPDEST PUSH2 0x2D3C DUP7 DUP3 DUP8 ADD PUSH2 0x27C3 JUMP JUMPDEST SWAP4 POP SWAP4 POP POP PUSH1 0x20 PUSH2 0x2D4F DUP7 DUP3 DUP8 ADD PUSH2 0x26D1 JUMP JUMPDEST SWAP2 POP POP SWAP3 POP SWAP3 POP SWAP3 JUMP JUMPDEST PUSH1 0x0 PUSH1 0x20 DUP3 DUP5 SUB SLT ISZERO PUSH2 0x2D6B JUMPI PUSH1 0x0 DUP1 REVERT JUMPDEST DUP2 MLOAD PUSH1 0x1 PUSH1 0x1 PUSH1 0x40 SHL SUB DUP2 GT ISZERO PUSH2 0x2D81 JUMPI PUSH1 0x0 DUP1 REVERT JUMPDEST PUSH2 0x2C00 DUP5 DUP3 DUP6 ADD PUSH2 0x280B JUMP JUMPDEST PUSH1 0x0 DUP1 PUSH1 0x40 DUP4 DUP6 SUB SLT ISZERO PUSH2 0x2DA0 JUMPI PUSH1 0x0 DUP1 REVERT JUMPDEST PUSH1 0x0 PUSH2 0x2DAC DUP6 DUP6 PUSH2 0x29B8 JUMP JUMPDEST SWAP3 POP POP PUSH1 0x20 PUSH2 0x2DBD DUP6 DUP3 DUP7 ADD PUSH2 0x2BB6 JUMP JUMPDEST SWAP2 POP POP SWAP3 POP SWAP3 SWAP1 POP JUMP JUMPDEST PUSH1 0x0 PUSH1 0x20 DUP3 DUP5 SUB SLT ISZERO PUSH2 0x2DD9 JUMPI PUSH1 0x0 DUP1 REVERT JUMPDEST PUSH1 0x0 PUSH2 0x2C00 DUP5 DUP5 PUSH2 0x2A12 JUMP JUMPDEST PUSH1 0x0 DUP1 PUSH1 0x40 DUP4 DUP6 SUB SLT ISZERO PUSH2 0x2DF8 JUMPI PUSH1 0x0 DUP1 REVERT JUMPDEST PUSH1 0x0 PUSH2 0x2E04 DUP6 DUP6 PUSH2 0x2A12 JUMP JUMPDEST SWAP3 POP POP PUSH1 0x20 PUSH2 0x2DBD DUP6 DUP3 DUP7 ADD PUSH2 0x26D1 JUMP JUMPDEST PUSH1 0x0 DUP1 PUSH1 0x0 DUP1 PUSH1 0x60 DUP6 DUP8 SUB SLT ISZERO PUSH2 0x2E2B JUMPI PUSH1 0x0 DUP1 REVERT JUMPDEST PUSH1 0x0 PUSH2 0x2E37 DUP8 DUP8 PUSH2 0x2A12 JUMP JUMPDEST SWAP5 POP POP PUSH1 0x20 PUSH2 0x2E48 DUP8 DUP3 DUP9 ADD PUSH2 0x26D1 JUMP JUMPDEST SWAP4 POP POP PUSH1 0x40 DUP6 ADD CALLDATALOAD PUSH1 0x1 PUSH1 0x1 PUSH1 0x40 SHL SUB DUP2 GT ISZERO PUSH2 0x2E64 JUMPI PUSH1 0x0 DUP1 REVERT JUMPDEST PUSH2 0x2E70 DUP8 DUP3 DUP9 ADD PUSH2 0x27C3 JUMP JUMPDEST SWAP6 SWAP9 SWAP5 SWAP8 POP SWAP6 POP POP POP POP JUMP JUMPDEST PUSH1 0x0 DUP1 PUSH1 0x0 PUSH1 0x60 DUP5 DUP7 SUB SLT ISZERO PUSH2 0x2E91 JUMPI PUSH1 0x0 DUP1 REVERT JUMPDEST PUSH1 0x0 PUSH2 0x2E9D DUP7 DUP7 PUSH2 0x2A12 JUMP JUMPDEST SWAP4 POP POP PUSH1 0x20 PUSH2 0x2EAE DUP7 DUP3 DUP8 ADD PUSH2 0x2A12 JUMP JUMPDEST SWAP3 POP POP PUSH1 0x40 PUSH2 0x2D4F DUP7 DUP3 DUP8 ADD PUSH2 0x26D1 JUMP JUMPDEST PUSH1 0x0 PUSH1 0x20 DUP3 DUP5 SUB SLT ISZERO PUSH2 0x2ED1 JUMPI PUSH1 0x0 DUP1 REVERT JUMPDEST PUSH1 0x0 PUSH2 0x2C00 DUP5 DUP5 PUSH2 0x2A1D JUMP JUMPDEST PUSH1 0x0 DUP1 PUSH1 0x0 PUSH1 0x60 DUP5 DUP7 SUB SLT ISZERO PUSH2 0x2EF2 JUMPI PUSH1 0x0 DUP1 REVERT JUMPDEST PUSH1 0x0 PUSH2 0x2EFE DUP7 DUP7 PUSH2 0x2A12 JUMP JUMPDEST SWAP4 POP POP PUSH1 0x20 PUSH2 0x2F0F DUP7 DUP3 DUP8 ADD PUSH2 0x26D1 JUMP JUMPDEST SWAP3 POP POP PUSH1 0x40 DUP5 ADD CALLDATALOAD PUSH1 0x1 PUSH1 0x1 PUSH1 0x40 SHL SUB DUP2 GT ISZERO PUSH2 0x2F2B JUMPI PUSH1 0x0 DUP1 REVERT JUMPDEST PUSH2 0x2D4F DUP7 DUP3 DUP8 ADD PUSH2 0x28D8 JUMP JUMPDEST PUSH1 0x0 DUP1 PUSH1 0x0 PUSH1 0x40 DUP5 DUP7 SUB SLT ISZERO PUSH2 0x2F4C JUMPI PUSH1 0x0 DUP1 REVERT JUMPDEST PUSH1 0x0 PUSH2 0x2F58 DUP7 DUP7 PUSH2 0x2A12 JUMP JUMPDEST SWAP4 POP POP PUSH1 0x20 DUP5 ADD CALLDATALOAD PUSH1 0x1 PUSH1 0x1 PUSH1 0x40 SHL SUB DUP2 GT ISZERO PUSH2 0x2F74 JUMPI PUSH1 0x0 DUP1 REVERT JUMPDEST PUSH2 0x2F80 DUP7 DUP3 DUP8 ADD PUSH2 0x27C3 JUMP JUMPDEST SWAP3 POP SWAP3 POP POP SWAP3 POP SWAP3 POP SWAP3 JUMP JUMPDEST PUSH1 0x0 PUSH1 0x20 DUP3 DUP5 SUB SLT ISZERO PUSH2 0x2F9E JUMPI PUSH1 0x0 DUP1 REVERT JUMPDEST DUP2 MLOAD PUSH1 0x1 PUSH1 0x1 PUSH1 0x40 SHL SUB DUP2 GT ISZERO PUSH2 0x2FB4 JUMPI PUSH1 0x0 DUP1 REVERT JUMPDEST PUSH2 0x2C00 DUP5 DUP3 DUP6 ADD PUSH2 0x29C3 JUMP JUMPDEST PUSH1 0x0 PUSH2 0x140 DUP3 DUP5 SUB SLT ISZERO PUSH2 0x2FD3 JUMPI PUSH1 0x0 DUP1 REVERT JUMPDEST PUSH1 0x0 PUSH2 0x2C00 DUP5 DUP5 PUSH2 0x2A28 JUMP JUMPDEST PUSH1 0x0 PUSH1 0x60 DUP3 DUP5 SUB SLT ISZERO PUSH2 0x2FF1 JUMPI PUSH1 0x0 DUP1 REVERT JUMPDEST PUSH1 0x0 PUSH2 0x2C00 DUP5 DUP5 PUSH2 0x2B15 JUMP JUMPDEST PUSH1 0x0 PUSH1 0x60 DUP3 DUP5 SUB SLT ISZERO PUSH2 0x300F JUMPI PUSH1 0x0 DUP1 REVERT JUMPDEST PUSH1 0x0 PUSH2 0x2C00 DUP5 DUP5 PUSH2 0x2B70 JUMP JUMPDEST PUSH1 0x0 PUSH1 0x20 DUP3 DUP5 SUB SLT ISZERO PUSH2 0x302D JUMPI PUSH1 0x0 DUP1 REVERT JUMPDEST PUSH1 0x0 PUSH2 0x2C00 DUP5 DUP5 PUSH2 0x2BB6 JUMP JUMPDEST PUSH1 0x0 DUP1 PUSH1 0x0 DUP1 PUSH1 0x0 DUP1 PUSH1 0x0 DUP1 PUSH1 0x0 PUSH2 0x120 DUP11 DUP13 SUB SLT ISZERO PUSH2 0x3058 JUMPI PUSH1 0x0 DUP1 REVERT JUMPDEST PUSH1 0x0 PUSH2 0x3064 DUP13 DUP13 PUSH2 0x2BB6 JUMP JUMPDEST SWAP10 POP POP PUSH1 0x20 PUSH2 0x3075 DUP13 DUP3 DUP14 ADD PUSH2 0x26DC JUMP JUMPDEST SWAP9 POP POP PUSH1 0x40 PUSH2 0x3086 DUP13 DUP3 DUP14 ADD PUSH2 0x2BB6 JUMP JUMPDEST SWAP8 POP POP PUSH1 0x60 PUSH2 0x3097 DUP13 DUP3 DUP14 ADD PUSH2 0x2BB6 JUMP JUMPDEST SWAP7 POP POP PUSH1 0x80 PUSH2 0x30A8 DUP13 DUP3 DUP14 ADD PUSH2 0x2BB6 JUMP JUMPDEST SWAP6 POP POP PUSH1 0xA0 PUSH2 0x30B9 DUP13 DUP3 DUP14 ADD PUSH2 0x2BB6 JUMP JUMPDEST SWAP5 POP POP PUSH1 0xC0 PUSH2 0x30CA DUP13 DUP3 DUP14 ADD PUSH2 0x2BB6 JUMP JUMPDEST SWAP4 POP POP PUSH1 0xE0 PUSH2 0x30DB DUP13 DUP3 DUP14 ADD PUSH2 0x29B8 JUMP JUMPDEST SWAP3 POP POP PUSH2 0x100 PUSH2 0x30ED DUP13 DUP3 DUP14 ADD PUSH2 0x29B8 JUMP JUMPDEST SWAP2 POP POP SWAP3 SWAP6 SWAP9 POP SWAP3 SWAP6 SWAP9 POP SWAP3 SWAP6 SWAP9 JUMP JUMPDEST PUSH1 0x0 DUP1 PUSH1 0x0 PUSH1 0x60 DUP5 DUP7 SUB SLT ISZERO PUSH2 0x3112 JUMPI PUSH1 0x0 DUP1 REVERT JUMPDEST PUSH1 0x0 PUSH2 0x311E DUP7 DUP7 PUSH2 0x2BB6 JUMP JUMPDEST SWAP4 POP POP PUSH1 0x20 PUSH2 0x312F DUP7 DUP3 DUP8 ADD PUSH2 0x2BB6 JUMP JUMPDEST SWAP3 POP POP PUSH1 0x40 PUSH2 0x2D4F DUP7 DUP3 DUP8 ADD PUSH2 0x2BB6 JUMP JUMPDEST PUSH1 0x0 PUSH1 0x20 DUP3 DUP5 SUB SLT ISZERO PUSH2 0x3152 JUMPI PUSH1 0x0 DUP1 REVERT JUMPDEST PUSH1 0x0 PUSH2 0x2C00 DUP5 DUP5 PUSH2 0x2BC1 JUMP JUMPDEST PUSH1 0x0 PUSH1 0x20 DUP3 DUP5 SUB SLT ISZERO PUSH2 0x3170 JUMPI PUSH1 0x0 DUP1 REVERT JUMPDEST PUSH1 0x0 PUSH2 0x2C00 DUP5 DUP5 PUSH2 0x2BCC JUMP JUMPDEST PUSH1 0x0 PUSH1 0x20 DUP3 DUP5 SUB SLT ISZERO PUSH2 0x318E JUMPI PUSH1 0x0 DUP1 REVERT JUMPDEST PUSH1 0x0 PUSH2 0x2C00 DUP5 DUP5 PUSH2 0x2BD7 JUMP JUMPDEST PUSH1 0x0 PUSH2 0x31A6 DUP4 DUP4 PUSH2 0x3262 JUMP JUMPDEST POP POP PUSH1 0x20 ADD SWAP1 JUMP JUMPDEST PUSH1 0x0 PUSH2 0xDE1 DUP4 DUP4 PUSH2 0x370E JUMP JUMPDEST PUSH1 0x0 PUSH2 0x31A6 DUP4 DUP4 PUSH2 0x3746 JUMP JUMPDEST PUSH1 0x0 PUSH2 0x31D2 DUP4 DUP4 PUSH2 0x3797 JUMP JUMPDEST POP POP PUSH1 0xC0 ADD SWAP1 JUMP JUMPDEST PUSH1 0x0 PUSH2 0x31E6 DUP4 DUP4 PUSH2 0x380D JUMP JUMPDEST POP POP PUSH2 0x200 ADD SWAP1 JUMP JUMPDEST PUSH1 0x0 PUSH2 0x31FB DUP4 DUP4 PUSH2 0x394C JUMP JUMPDEST POP POP PUSH1 0x40 ADD SWAP1 JUMP JUMPDEST PUSH1 0x0 PUSH2 0x31FB DUP4 DUP4 PUSH2 0x39F1 JUMP JUMPDEST PUSH1 0x0 PUSH2 0xDE1 DUP4 DUP4 PUSH2 0x3A02 JUMP JUMPDEST PUSH1 0x0 PUSH2 0x3227 DUP4 DUP4 PUSH2 0x3B36 JUMP JUMPDEST POP POP PUSH1 0x80 ADD SWAP1 JUMP JUMPDEST PUSH1 0x0 PUSH2 0xDE1 DUP4 DUP4 PUSH2 0x3B80 JUMP JUMPDEST PUSH1 0x0 PUSH2 0x3227 DUP4 DUP4 PUSH2 0x3C9F JUMP JUMPDEST PUSH1 0x0 PUSH2 0x31A6 DUP4 DUP4 PUSH2 0x3CD6 JUMP JUMPDEST PUSH2 0x325C DUP2 PUSH2 0x3F66 JUMP JUMPDEST DUP3 MSTORE POP POP JUMP JUMPDEST PUSH2 0x325C DUP2 PUSH2 0x3F14 JUMP JUMPDEST PUSH1 0x0 PUSH2 0x3276 DUP3 PUSH2 0x3F02 JUMP JUMPDEST PUSH2 0x3280 DUP2 DUP6 PUSH2 0x3F06 JUMP JUMPDEST SWAP4 POP PUSH2 0x328B DUP4 PUSH2 0x3EFC JUMP JUMPDEST DUP1 PUSH1 0x0 JUMPDEST DUP4 DUP2 LT ISZERO PUSH2 0x32B9 JUMPI DUP2 MLOAD PUSH2 0x32A3 DUP9 DUP3 PUSH2 0x319A JUMP JUMPDEST SWAP8 POP PUSH2 0x32AE DUP4 PUSH2 0x3EFC JUMP JUMPDEST SWAP3 POP POP PUSH1 0x1 ADD PUSH2 0x328F JUMP JUMPDEST POP SWAP5 SWAP6 SWAP5 POP POP POP POP POP JUMP JUMPDEST PUSH1 0x0 PUSH2 0x32CF DUP3 PUSH2 0x3F02 JUMP JUMPDEST PUSH2 0x32D9 DUP2 DUP6 PUSH2 0x3F06 JUMP JUMPDEST SWAP4 POP DUP4 PUSH1 0x20 DUP3 MUL DUP6 ADD PUSH2 0x32EB DUP6 PUSH2 0x3EFC JUMP JUMPDEST DUP1 PUSH1 0x0 JUMPDEST DUP6 DUP2 LT ISZERO PUSH2 0x3325 JUMPI DUP5 DUP5 SUB DUP10 MSTORE DUP2 MLOAD PUSH2 0x3308 DUP6 DUP3 PUSH2 0x31AE JUMP JUMPDEST SWAP5 POP PUSH2 0x3313 DUP4 PUSH2 0x3EFC JUMP JUMPDEST PUSH1 0x20 SWAP11 SWAP1 SWAP11 ADD SWAP10 SWAP3 POP POP PUSH1 0x1 ADD PUSH2 0x32EF JUMP JUMPDEST POP SWAP2 SWAP8 SWAP7 POP POP POP POP POP POP POP JUMP JUMPDEST PUSH1 0x0 PUSH2 0x333D DUP3 PUSH2 0x3F02 JUMP JUMPDEST PUSH2 0x3347 DUP2 DUP6 PUSH2 0x3F06 JUMP JUMPDEST SWAP4 POP PUSH2 0x3352 DUP4 PUSH2 0x3EFC JUMP JUMPDEST DUP1 PUSH1 0x0 JUMPDEST DUP4 DUP2 LT ISZERO PUSH2 0x32B9 JUMPI DUP2 MLOAD PUSH2 0x336A DUP9 DUP3 PUSH2 0x31BA JUMP JUMPDEST SWAP8 POP PUSH2 0x3375 DUP4 PUSH2 0x3EFC JUMP JUMPDEST SWAP3 POP POP PUSH1 0x1 ADD PUSH2 0x3356 JUMP JUMPDEST PUSH1 0x0 PUSH2 0x338B DUP3 PUSH2 0x3F02 JUMP JUMPDEST PUSH2 0x3395 DUP2 DUP6 PUSH2 0x3F06 JUMP JUMPDEST SWAP4 POP DUP4 PUSH1 0x20 DUP3 MUL DUP6 ADD PUSH2 0x33A7 DUP6 PUSH2 0x3EFC JUMP JUMPDEST DUP1 PUSH1 0x0 JUMPDEST DUP6 DUP2 LT ISZERO PUSH2 0x3325 JUMPI DUP5 DUP5 SUB DUP10 MSTORE DUP2 MLOAD PUSH2 0x33C4 DUP6 DUP3 PUSH2 0x31AE JUMP JUMPDEST SWAP5 POP PUSH2 0x33CF DUP4 PUSH2 0x3EFC JUMP JUMPDEST PUSH1 0x20 SWAP11 SWAP1 SWAP11 ADD SWAP10 SWAP3 POP POP PUSH1 0x1 ADD PUSH2 0x33AB JUMP JUMPDEST PUSH1 0x0 PUSH2 0x33EC DUP3 PUSH2 0x3F02 JUMP JUMPDEST PUSH2 0x33F6 DUP2 DUP6 PUSH2 0x3F06 JUMP JUMPDEST SWAP4 POP PUSH2 0x3401 DUP4 PUSH2 0x3EFC JUMP JUMPDEST DUP1 PUSH1 0x0 JUMPDEST DUP4 DUP2 LT ISZERO PUSH2 0x32B9 JUMPI DUP2 MLOAD PUSH2 0x3419 DUP9 DUP3 PUSH2 0x31C6 JUMP JUMPDEST SWAP8 POP PUSH2 0x3424 DUP4 PUSH2 0x3EFC JUMP JUMPDEST SWAP3 POP POP PUSH1 0x1 ADD PUSH2 0x3405 JUMP JUMPDEST PUSH1 0x0 PUSH2 0x343A DUP3 PUSH2 0x3F02 JUMP JUMPDEST PUSH2 0x3444 DUP2 DUP6 PUSH2 0x3F06 JUMP JUMPDEST SWAP4 POP PUSH2 0x344F DUP4 PUSH2 0x3EFC JUMP JUMPDEST DUP1 PUSH1 0x0 JUMPDEST DUP4 DUP2 LT ISZERO PUSH2 0x32B9 JUMPI DUP2 MLOAD PUSH2 0x3467 DUP9 DUP3 PUSH2 0x31DA JUMP JUMPDEST SWAP8 POP PUSH2 0x3472 DUP4 PUSH2 0x3EFC JUMP JUMPDEST SWAP3 POP POP PUSH1 0x1 ADD PUSH2 0x3453 JUMP JUMPDEST PUSH1 0x0 PUSH2 0x3488 DUP3 PUSH2 0x3F02 JUMP JUMPDEST PUSH2 0x3492 DUP2 DUP6 PUSH2 0x3F06 JUMP JUMPDEST SWAP4 POP PUSH2 0x349D DUP4 PUSH2 0x3EFC JUMP JUMPDEST DUP1 PUSH1 0x0 JUMPDEST DUP4 DUP2 LT ISZERO PUSH2 0x32B9 JUMPI DUP2 MLOAD PUSH2 0x34B5 DUP9 DUP3 PUSH2 0x31EF JUMP JUMPDEST SWAP8 POP PUSH2 0x34C0 DUP4 PUSH2 0x3EFC JUMP JUMPDEST SWAP3 POP POP PUSH1 0x1 ADD PUSH2 0x34A1 JUMP JUMPDEST PUSH1 0x0 PUSH2 0x34D6 DUP3 PUSH2 0x3F02 JUMP JUMPDEST PUSH2 0x34E0 DUP2 DUP6 PUSH2 0x3F06 JUMP JUMPDEST SWAP4 POP PUSH2 0x34EB DUP4 PUSH2 0x3EFC JUMP JUMPDEST DUP1 PUSH1 0x0 JUMPDEST DUP4 DUP2 LT ISZERO PUSH2 0x32B9 JUMPI DUP2 MLOAD PUSH2 0x3503 DUP9 DUP3 PUSH2 0x3203 JUMP JUMPDEST SWAP8 POP PUSH2 0x350E DUP4 PUSH2 0x3EFC JUMP JUMPDEST SWAP3 POP POP PUSH1 0x1 ADD PUSH2 0x34EF JUMP JUMPDEST PUSH1 0x0 PUSH2 0x3524 DUP3 PUSH2 0x3F02 JUMP JUMPDEST PUSH2 0x352E DUP2 DUP6 PUSH2 0x3F06 JUMP JUMPDEST SWAP4 POP DUP4 PUSH1 0x20 DUP3 MUL DUP6 ADD PUSH2 0x3540 DUP6 PUSH2 0x3EFC JUMP JUMPDEST DUP1 PUSH1 0x0 JUMPDEST DUP6 DUP2 LT ISZERO PUSH2 0x3325 JUMPI DUP5 DUP5 SUB DUP10 MSTORE DUP2 MLOAD PUSH2 0x355D DUP6 DUP3 PUSH2 0x320F JUMP JUMPDEST SWAP5 POP PUSH2 0x3568 DUP4 PUSH2 0x3EFC JUMP JUMPDEST PUSH1 0x20 SWAP11 SWAP1 SWAP11 ADD SWAP10 SWAP3 POP POP PUSH1 0x1 ADD PUSH2 0x3544 JUMP JUMPDEST PUSH1 0x0 PUSH2 0x3585 DUP3 PUSH2 0x3F02 JUMP JUMPDEST PUSH2 0x358F DUP2 DUP6 PUSH2 0x3F06 JUMP JUMPDEST SWAP4 POP PUSH2 0x359A DUP4 PUSH2 0x3EFC JUMP JUMPDEST DUP1 PUSH1 0x0 JUMPDEST DUP4 DUP2 LT ISZERO PUSH2 0x32B9 JUMPI DUP2 MLOAD PUSH2 0x35B2 DUP9 DUP3 PUSH2 0x321B JUMP JUMPDEST SWAP8 POP PUSH2 0x35BD DUP4 PUSH2 0x3EFC JUMP JUMPDEST SWAP3 POP POP PUSH1 0x1 ADD PUSH2 0x359E JUMP JUMPDEST PUSH1 0x0 PUSH2 0x35D3 DUP3 PUSH2 0x3F02 JUMP JUMPDEST PUSH2 0x35DD DUP2 DUP6 PUSH2 0x3F06 JUMP JUMPDEST SWAP4 POP DUP4 PUSH1 0x20 DUP3 MUL DUP6 ADD PUSH2 0x35EF DUP6 PUSH2 0x3EFC JUMP JUMPDEST DUP1 PUSH1 0x0 JUMPDEST DUP6 DUP2 LT ISZERO PUSH2 0x3325 JUMPI DUP5 DUP5 SUB DUP10 MSTORE DUP2 MLOAD PUSH2 0x360C DUP6 DUP3 PUSH2 0x322F JUMP JUMPDEST SWAP5 POP PUSH2 0x3617 DUP4 PUSH2 0x3EFC JUMP JUMPDEST PUSH1 0x20 SWAP11 SWAP1 SWAP11 ADD SWAP10 SWAP3 POP POP PUSH1 0x1 ADD PUSH2 0x35F3 JUMP JUMPDEST PUSH1 0x0 PUSH2 0x3634 DUP3 PUSH2 0x3F02 JUMP JUMPDEST PUSH2 0x363E DUP2 DUP6 PUSH2 0x3F06 JUMP JUMPDEST SWAP4 POP PUSH2 0x3649 DUP4 PUSH2 0x3EFC JUMP JUMPDEST DUP1 PUSH1 0x0 JUMPDEST DUP4 DUP2 LT ISZERO PUSH2 0x32B9 JUMPI DUP2 MLOAD PUSH2 0x3661 DUP9 DUP3 PUSH2 0x323B JUMP JUMPDEST SWAP8 POP PUSH2 0x366C DUP4 PUSH2 0x3EFC JUMP JUMPDEST SWAP3 POP POP PUSH1 0x1 ADD PUSH2 0x364D JUMP JUMPDEST PUSH1 0x0 PUSH2 0x3682 DUP3 PUSH2 0x3F02 JUMP JUMPDEST PUSH2 0x368C DUP2 DUP6 PUSH2 0x3F06 JUMP JUMPDEST SWAP4 POP PUSH2 0x3697 DUP4 PUSH2 0x3EFC JUMP JUMPDEST DUP1 PUSH1 0x0 JUMPDEST DUP4 DUP2 LT ISZERO PUSH2 0x32B9 JUMPI DUP2 MLOAD PUSH2 0x36AF DUP9 DUP3 PUSH2 0x3247 JUMP JUMPDEST SWAP8 POP PUSH2 0x36BA DUP4 PUSH2 0x3EFC JUMP JUMPDEST SWAP3 POP POP PUSH1 0x1 ADD PUSH2 0x369B JUMP JUMPDEST PUSH2 0x325C DUP2 PUSH2 0x3F1F JUMP JUMPDEST PUSH2 0x325C PUSH2 0x36DA DUP3 PUSH2 0x3F24 JUMP JUMPDEST PUSH2 0x3F48 JUMP JUMPDEST PUSH1 0x0 PUSH2 0x36EA DUP3 PUSH2 0x3F02 JUMP JUMPDEST PUSH2 0x36F4 DUP2 DUP6 PUSH2 0x3F0F JUMP JUMPDEST SWAP4 POP PUSH2 0x3704 DUP2 DUP6 PUSH1 0x20 DUP7 ADD PUSH2 0x3F7C JUMP JUMPDEST SWAP3 SWAP1 SWAP3 ADD SWAP3 SWAP2 POP POP JUMP JUMPDEST PUSH1 0x0 PUSH2 0x3719 DUP3 PUSH2 0x3F02 JUMP JUMPDEST PUSH2 0x3723 DUP2 DUP6 PUSH2 0x3F06 JUMP JUMPDEST SWAP4 POP PUSH2 0x3733 DUP2 DUP6 PUSH1 0x20 DUP7 ADD PUSH2 0x3F7C JUMP JUMPDEST PUSH2 0x373C DUP2 PUSH2 0x3FA8 JUMP JUMPDEST SWAP1 SWAP4 ADD SWAP4 SWAP3 POP POP POP JUMP JUMPDEST PUSH2 0x325C DUP2 PUSH2 0x3F31 JUMP JUMPDEST DUP1 MLOAD PUSH1 0x60 DUP1 DUP5 MSTORE PUSH1 0x0 SWAP2 SWAP1 DUP5 ADD SWAP1 PUSH2 0x3767 DUP3 DUP3 PUSH2 0x3332 JUMP JUMPDEST SWAP2 POP POP PUSH1 0x20 DUP4 ADD MLOAD PUSH2 0x377C PUSH1 0x20 DUP7 ADD DUP3 PUSH2 0x3CD6 JUMP JUMPDEST POP PUSH1 0x40 DUP4 ADD MLOAD PUSH2 0x378F PUSH1 0x40 DUP7 ADD DUP3 PUSH2 0x3CD6 JUMP JUMPDEST POP SWAP4 SWAP3 POP POP POP JUMP JUMPDEST DUP1 MLOAD PUSH1 0xC0 DUP4 ADD SWAP1 PUSH2 0x37A8 DUP5 DUP3 PUSH2 0x3262 JUMP JUMPDEST POP PUSH1 0x20 DUP3 ADD MLOAD PUSH2 0x37BB PUSH1 0x20 DUP6 ADD DUP3 PUSH2 0x3CD6 JUMP JUMPDEST POP PUSH1 0x40 DUP3 ADD MLOAD PUSH2 0x37CE PUSH1 0x40 DUP6 ADD DUP3 PUSH2 0x3CD6 JUMP JUMPDEST POP PUSH1 0x60 DUP3 ADD MLOAD PUSH2 0x37E1 PUSH1 0x60 DUP6 ADD DUP3 PUSH2 0x3CD6 JUMP JUMPDEST POP PUSH1 0x80 DUP3 ADD MLOAD PUSH2 0x37F4 PUSH1 0x80 DUP6 ADD DUP3 PUSH2 0x3CD6 JUMP JUMPDEST POP PUSH1 0xA0 DUP3 ADD MLOAD PUSH2 0x3807 PUSH1 0xA0 DUP6 ADD DUP3 PUSH2 0x3CD6 JUMP JUMPDEST POP POP POP POP JUMP JUMPDEST DUP1 MLOAD PUSH2 0x200 DUP4 ADD SWAP1 PUSH2 0x381F DUP5 DUP3 PUSH2 0x3262 JUMP JUMPDEST POP PUSH1 0x20 DUP3 ADD MLOAD PUSH2 0x3832 PUSH1 0x20 DUP6 ADD DUP3 PUSH2 0x3CD6 JUMP JUMPDEST POP PUSH1 0x40 DUP3 ADD MLOAD PUSH2 0x3845 PUSH1 0x40 DUP6 ADD DUP3 PUSH2 0x3CD6 JUMP JUMPDEST POP PUSH1 0x60 DUP3 ADD MLOAD PUSH2 0x3858 PUSH1 0x60 DUP6 ADD DUP3 PUSH2 0x3CD6 JUMP JUMPDEST POP PUSH1 0x80 DUP3 ADD MLOAD PUSH2 0x386B PUSH1 0x80 DUP6 ADD DUP3 PUSH2 0x3CD6 JUMP JUMPDEST POP PUSH1 0xA0 DUP3 ADD MLOAD PUSH2 0x387E PUSH1 0xA0 DUP6 ADD DUP3 PUSH2 0x3CD6 JUMP JUMPDEST POP PUSH1 0xC0 DUP3 ADD MLOAD PUSH2 0x3891 PUSH1 0xC0 DUP6 ADD DUP3 PUSH2 0x3CD6 JUMP JUMPDEST POP PUSH1 0xE0 DUP3 ADD MLOAD PUSH2 0x38A4 PUSH1 0xE0 DUP6 ADD DUP3 PUSH2 0x3CD6 JUMP JUMPDEST POP PUSH2 0x100 DUP3 ADD MLOAD PUSH2 0x38B9 PUSH2 0x100 DUP6 ADD DUP3 PUSH2 0x3CD6 JUMP JUMPDEST POP PUSH2 0x120 DUP3 ADD MLOAD PUSH2 0x38CE PUSH2 0x120 DUP6 ADD DUP3 PUSH2 0x36C5 JUMP JUMPDEST POP PUSH2 0x140 DUP3 ADD MLOAD PUSH2 0x38E3 PUSH2 0x140 DUP6 ADD DUP3 PUSH2 0x3CD6 JUMP JUMPDEST POP PUSH2 0x160 DUP3 ADD MLOAD PUSH2 0x38F8 PUSH2 0x160 DUP6 ADD DUP3 PUSH2 0x3262 JUMP JUMPDEST POP PUSH2 0x180 DUP3 ADD MLOAD PUSH2 0x390D PUSH2 0x180 DUP6 ADD DUP3 PUSH2 0x3CD6 JUMP JUMPDEST POP PUSH2 0x1A0 DUP3 ADD MLOAD PUSH2 0x3922 PUSH2 0x1A0 DUP6 ADD DUP3 PUSH2 0x3CD6 JUMP JUMPDEST POP PUSH2 0x1C0 DUP3 ADD MLOAD PUSH2 0x3937 PUSH2 0x1C0 DUP6 ADD DUP3 PUSH2 0x3CD6 JUMP JUMPDEST POP PUSH2 0x1E0 DUP3 ADD MLOAD PUSH2 0x3807 PUSH2 0x1E0 DUP6 ADD DUP3 PUSH2 0x3CD6 JUMP JUMPDEST DUP1 MLOAD PUSH1 0x40 DUP4 ADD SWAP1 PUSH2 0x395D DUP5 DUP3 PUSH2 0x3262 JUMP JUMPDEST POP PUSH1 0x20 DUP3 ADD MLOAD PUSH2 0x3807 PUSH1 0x20 DUP6 ADD DUP3 PUSH2 0x3CD6 JUMP JUMPDEST DUP1 MLOAD PUSH1 0x80 DUP4 ADD SWAP1 PUSH2 0x3981 DUP5 DUP3 PUSH2 0x3CD6 JUMP JUMPDEST POP PUSH1 0x20 DUP3 ADD MLOAD PUSH2 0x3994 PUSH1 0x20 DUP6 ADD DUP3 PUSH2 0x3CD6 JUMP JUMPDEST POP PUSH1 0x40 DUP3 ADD MLOAD PUSH2 0x39A7 PUSH1 0x40 DUP6 ADD DUP3 PUSH2 0x3262 JUMP JUMPDEST POP PUSH1 0x60 DUP3 ADD MLOAD PUSH2 0x3807 PUSH1 0x60 DUP6 ADD DUP3 PUSH2 0x3CD6 JUMP JUMPDEST DUP1 MLOAD PUSH1 0x60 DUP4 ADD SWAP1 PUSH2 0x39CB DUP5 DUP3 PUSH2 0x3CD6 JUMP JUMPDEST POP PUSH1 0x20 DUP3 ADD MLOAD PUSH2 0x39DE PUSH1 0x20 DUP6 ADD DUP3 PUSH2 0x3CD6 JUMP JUMPDEST POP PUSH1 0x40 DUP3 ADD MLOAD PUSH2 0x3807 PUSH1 0x40 DUP6 ADD DUP3 PUSH2 0x3262 JUMP JUMPDEST DUP1 MLOAD PUSH1 0x40 DUP4 ADD SWAP1 PUSH2 0x395D DUP5 DUP3 PUSH2 0x3CD6 JUMP JUMPDEST DUP1 MLOAD PUSH1 0x0 SWAP1 PUSH2 0x1C0 DUP5 ADD SWAP1 PUSH2 0x3A17 DUP6 DUP3 PUSH2 0x3CD6 JUMP JUMPDEST POP PUSH1 0x20 DUP4 ADD MLOAD PUSH2 0x3A2A PUSH1 0x20 DUP7 ADD DUP3 PUSH2 0x3262 JUMP JUMPDEST POP PUSH1 0x40 DUP4 ADD MLOAD PUSH2 0x3A3D PUSH1 0x40 DUP7 ADD DUP3 PUSH2 0x3CD6 JUMP JUMPDEST POP PUSH1 0x60 DUP4 ADD MLOAD DUP5 DUP3 SUB PUSH1 0x60 DUP7 ADD MSTORE PUSH2 0x3A55 DUP3 DUP3 PUSH2 0x326B JUMP JUMPDEST SWAP2 POP POP PUSH1 0x80 DUP4 ADD MLOAD DUP5 DUP3 SUB PUSH1 0x80 DUP7 ADD MSTORE PUSH2 0x3A6F DUP3 DUP3 PUSH2 0x3677 JUMP JUMPDEST SWAP2 POP POP PUSH1 0xA0 DUP4 ADD MLOAD DUP5 DUP3 SUB PUSH1 0xA0 DUP7 ADD MSTORE PUSH2 0x3A89 DUP3 DUP3 PUSH2 0x3380 JUMP JUMPDEST SWAP2 POP POP PUSH1 0xC0 DUP4 ADD MLOAD DUP5 DUP3 SUB PUSH1 0xC0 DUP7 ADD MSTORE PUSH2 0x3AA3 DUP3 DUP3 PUSH2 0x32C4 JUMP JUMPDEST SWAP2 POP POP PUSH1 0xE0 DUP4 ADD MLOAD PUSH2 0x3AB8 PUSH1 0xE0 DUP7 ADD DUP3 PUSH2 0x3CD6 JUMP JUMPDEST POP PUSH2 0x100 DUP4 ADD MLOAD PUSH2 0x3ACD PUSH2 0x100 DUP7 ADD DUP3 PUSH2 0x3CD6 JUMP JUMPDEST POP PUSH2 0x120 DUP4 ADD MLOAD PUSH2 0x3AE2 PUSH2 0x120 DUP7 ADD DUP3 PUSH2 0x3CD6 JUMP JUMPDEST POP PUSH2 0x140 DUP4 ADD MLOAD PUSH2 0x3AF7 PUSH2 0x140 DUP7 ADD DUP3 PUSH2 0x3CD6 JUMP JUMPDEST POP PUSH2 0x160 DUP4 ADD MLOAD PUSH2 0x3B0C PUSH2 0x160 DUP7 ADD DUP3 PUSH2 0x3CD6 JUMP JUMPDEST POP PUSH2 0x180 DUP4 ADD MLOAD PUSH2 0x3B21 PUSH2 0x180 DUP7 ADD DUP3 PUSH2 0x36C5 JUMP JUMPDEST POP PUSH2 0x1A0 DUP4 ADD MLOAD PUSH2 0x378F PUSH2 0x1A0 DUP7 ADD DUP3 PUSH2 0x36C5 JUMP JUMPDEST DUP1 MLOAD PUSH1 0x80 DUP4 ADD SWAP1 PUSH2 0x3B47 DUP5 DUP3 PUSH2 0x3CD6 JUMP JUMPDEST POP PUSH1 0x20 DUP3 ADD MLOAD PUSH2 0x3B5A PUSH1 0x20 DUP6 ADD DUP3 PUSH2 0x36C5 JUMP JUMPDEST POP PUSH1 0x40 DUP3 ADD MLOAD PUSH2 0x3B6D PUSH1 0x40 DUP6 ADD DUP3 PUSH2 0x3CE8 JUMP JUMPDEST POP PUSH1 0x60 DUP3 ADD MLOAD PUSH2 0x3807 PUSH1 0x60 DUP6 ADD DUP3 PUSH2 0x3CF1 JUMP JUMPDEST DUP1 MLOAD PUSH1 0x0 SWAP1 PUSH2 0x1A0 DUP5 ADD SWAP1 PUSH2 0x3B95 DUP6 DUP3 PUSH2 0x3CD6 JUMP JUMPDEST POP PUSH1 0x20 DUP4 ADD MLOAD PUSH2 0x3BA8 PUSH1 0x20 DUP7 ADD DUP3 PUSH2 0x3262 JUMP JUMPDEST POP PUSH1 0x40 DUP4 ADD MLOAD PUSH2 0x3BBB PUSH1 0x40 DUP7 ADD DUP3 PUSH2 0x3CD6 JUMP JUMPDEST POP PUSH1 0x60 DUP4 ADD MLOAD DUP5 DUP3 SUB PUSH1 0x60 DUP7 ADD MSTORE PUSH2 0x3BD3 DUP3 DUP3 PUSH2 0x326B JUMP JUMPDEST SWAP2 POP POP PUSH1 0x80 DUP4 ADD MLOAD DUP5 DUP3 SUB PUSH1 0x80 DUP7 ADD MSTORE PUSH2 0x3BED DUP3 DUP3 PUSH2 0x3677 JUMP JUMPDEST SWAP2 POP POP PUSH1 0xA0 DUP4 ADD MLOAD DUP5 DUP3 SUB PUSH1 0xA0 DUP7 ADD MSTORE PUSH2 0x3C07 DUP3 DUP3 PUSH2 0x3380 JUMP JUMPDEST SWAP2 POP POP PUSH1 0xC0 DUP4 ADD MLOAD DUP5 DUP3 SUB PUSH1 0xC0 DUP7 ADD MSTORE PUSH2 0x3C21 DUP3 DUP3 PUSH2 0x32C4 JUMP JUMPDEST SWAP2 POP POP PUSH1 0xE0 DUP4 ADD MLOAD PUSH2 0x3C36 PUSH1 0xE0 DUP7 ADD DUP3 PUSH2 0x3CD6 JUMP JUMPDEST POP PUSH2 0x100 DUP4 ADD MLOAD PUSH2 0x3C4B PUSH2 0x100 DUP7 ADD DUP3 PUSH2 0x3CD6 JUMP JUMPDEST POP PUSH2 0x120 DUP4 ADD MLOAD PUSH2 0x3C60 PUSH2 0x120 DUP7 ADD DUP3 PUSH2 0x3CD6 JUMP JUMPDEST POP PUSH2 0x140 DUP4 ADD MLOAD PUSH2 0x3C75 PUSH2 0x140 DUP7 ADD DUP3 PUSH2 0x3CD6 JUMP JUMPDEST POP PUSH2 0x160 DUP4 ADD MLOAD PUSH2 0x3C8A PUSH2 0x160 DUP7 ADD DUP3 PUSH2 0x36C5 JUMP JUMPDEST POP PUSH2 0x180 DUP4 ADD MLOAD PUSH2 0x378F PUSH2 0x180 DUP7 ADD DUP3 PUSH2 0x36C5 JUMP JUMPDEST DUP1 MLOAD PUSH1 0x80 DUP4 ADD SWAP1 PUSH2 0x3CB0 DUP5 DUP3 PUSH2 0x3CD6 JUMP JUMPDEST POP PUSH1 0x20 DUP3 ADD MLOAD PUSH2 0x3CC3 PUSH1 0x20 DUP6 ADD DUP3 PUSH2 0x36C5 JUMP JUMPDEST POP PUSH1 0x40 DUP3 ADD MLOAD PUSH2 0x3B6D PUSH1 0x40 DUP6 ADD DUP3 PUSH2 0x36C5 JUMP JUMPDEST PUSH2 0x325C DUP2 PUSH2 0x3F48 JUMP JUMPDEST PUSH2 0x325C DUP2 PUSH2 0x3F71 JUMP JUMPDEST PUSH2 0x325C DUP2 PUSH2 0x3F54 JUMP JUMPDEST PUSH2 0x325C DUP2 PUSH2 0x3F5A JUMP JUMPDEST PUSH1 0x0 PUSH2 0x3D06 DUP3 DUP6 PUSH2 0x36CE JUMP JUMPDEST PUSH1 0x4 DUP3 ADD SWAP2 POP PUSH2 0x2C00 DUP3 DUP5 PUSH2 0x36DF JUMP JUMPDEST PUSH1 0x0 PUSH2 0xDE1 DUP3 DUP5 PUSH2 0x36DF JUMP JUMPDEST PUSH1 0x20 DUP2 ADD PUSH2 0xFD9 DUP3 DUP5 PUSH2 0x3262 JUMP JUMPDEST PUSH1 0x20 DUP2 ADD PUSH2 0xFD9 DUP3 DUP5 PUSH2 0x3253 JUMP JUMPDEST PUSH1 0x40 DUP2 ADD PUSH2 0x3D4C DUP3 DUP6 PUSH2 0x3253 JUMP JUMPDEST PUSH2 0xDE1 PUSH1 0x20 DUP4 ADD DUP5 PUSH2 0x3262 JUMP JUMPDEST PUSH1 0x40 DUP2 ADD PUSH2 0x3D67 DUP3 DUP6 PUSH2 0x3262 JUMP JUMPDEST PUSH2 0xDE1 PUSH1 0x20 DUP4 ADD DUP5 PUSH2 0x3CDF JUMP JUMPDEST PUSH1 0x20 DUP1 DUP3 MSTORE DUP2 ADD PUSH2 0xDE1 DUP2 DUP5 PUSH2 0x33E1 JUMP JUMPDEST PUSH1 0x20 DUP1 DUP3 MSTORE DUP2 ADD PUSH2 0xDE1 DUP2 DUP5 PUSH2 0x342F JUMP JUMPDEST PUSH1 0x20 DUP1 DUP3 MSTORE DUP2 ADD PUSH2 0xDE1 DUP2 DUP5 PUSH2 0x347D JUMP JUMPDEST PUSH1 0x20 DUP1 DUP3 MSTORE DUP2 ADD PUSH2 0xDE1 DUP2 DUP5 PUSH2 0x34CB JUMP JUMPDEST PUSH1 0x20 DUP1 DUP3 MSTORE DUP2 ADD PUSH2 0xDE1 DUP2 DUP5 PUSH2 0x3519 JUMP JUMPDEST PUSH1 0x20 DUP1 DUP3 MSTORE DUP2 ADD PUSH2 0xDE1 DUP2 DUP5 PUSH2 0x357A JUMP JUMPDEST PUSH1 0x20 DUP1 DUP3 MSTORE DUP2 ADD PUSH2 0xDE1 DUP2 DUP5 PUSH2 0x35C8 JUMP JUMPDEST PUSH1 0x20 DUP1 DUP3 MSTORE DUP2 ADD PUSH2 0xDE1 DUP2 DUP5 PUSH2 0x3629 JUMP JUMPDEST PUSH1 0x20 DUP2 ADD PUSH2 0xFD9 DUP3 DUP5 PUSH2 0x3746 JUMP JUMPDEST PUSH1 0x20 DUP1 DUP3 MSTORE DUP2 ADD PUSH2 0xDE1 DUP2 DUP5 PUSH2 0x370E JUMP JUMPDEST PUSH1 0x20 DUP1 DUP3 MSTORE DUP2 ADD PUSH2 0xDE1 DUP2 DUP5 PUSH2 0x374F JUMP JUMPDEST PUSH1 0xC0 DUP2 ADD PUSH2 0xFD9 DUP3 DUP5 PUSH2 0x3797 JUMP JUMPDEST PUSH2 0x200 DUP2 ADD PUSH2 0xFD9 DUP3 DUP5 PUSH2 0x380D JUMP JUMPDEST PUSH1 0x40 DUP2 ADD PUSH2 0xFD9 DUP3 DUP5 PUSH2 0x394C JUMP JUMPDEST PUSH1 0x80 DUP2 ADD PUSH2 0xFD9 DUP3 DUP5 PUSH2 0x3970 JUMP JUMPDEST PUSH1 0x60 DUP2 ADD PUSH2 0xFD9 DUP3 DUP5 PUSH2 0x39BA JUMP JUMPDEST PUSH1 0x20 DUP2 ADD PUSH2 0xFD9 DUP3 DUP5 PUSH2 0x3CD6 JUMP JUMPDEST PUSH1 0x40 DUP2 ADD PUSH2 0x3D4C DUP3 DUP6 PUSH2 0x3CD6 JUMP JUMPDEST PUSH1 0x40 MLOAD DUP2 DUP2 ADD PUSH1 0x1 PUSH1 0x1 PUSH1 0x40 SHL SUB DUP2 GT DUP3 DUP3 LT OR ISZERO PUSH2 0x3EAD JUMPI PUSH1 0x0 DUP1 REVERT JUMPDEST PUSH1 0x40 MSTORE SWAP2 SWAP1 POP JUMP JUMPDEST PUSH1 0x0 PUSH1 0x1 PUSH1 0x1 PUSH1 0x40 SHL SUB DUP3 GT ISZERO PUSH2 0x3ECB JUMPI PUSH1 0x0 DUP1 REVERT JUMPDEST POP PUSH1 0x20 SWAP1 DUP2 MUL ADD SWAP1 JUMP JUMPDEST PUSH1 0x0 PUSH1 0x1 PUSH1 0x1 PUSH1 0x40 SHL SUB DUP3 GT ISZERO PUSH2 0x3EEB JUMPI PUSH1 0x0 DUP1 REVERT JUMPDEST POP PUSH1 0x20 PUSH1 0x1F SWAP2 SWAP1 SWAP2 ADD PUSH1 0x1F NOT AND ADD SWAP1 JUMP JUMPDEST PUSH1 0x20 ADD SWAP1 JUMP JUMPDEST MLOAD SWAP1 JUMP JUMPDEST SWAP1 DUP2 MSTORE PUSH1 0x20 ADD SWAP1 JUMP JUMPDEST SWAP2 SWAP1 POP JUMP JUMPDEST PUSH1 0x0 PUSH2 0xFD9 DUP3 PUSH2 0x3F3C JUMP JUMPDEST ISZERO ISZERO SWAP1 JUMP JUMPDEST PUSH1 0x1 PUSH1 0x1 PUSH1 0xE0 SHL SUB NOT AND SWAP1 JUMP JUMPDEST PUSH1 0x0 PUSH2 0xFD9 DUP3 PUSH2 0x3F14 JUMP JUMPDEST PUSH1 0x1 PUSH1 0x1 PUSH1 0xA0 SHL SUB AND SWAP1 JUMP JUMPDEST SWAP1 JUMP JUMPDEST PUSH4 0xFFFFFFFF AND SWAP1 JUMP JUMPDEST PUSH1 0xFF AND SWAP1 JUMP JUMPDEST PUSH1 0x1 PUSH1 0x1 PUSH1 0x60 SHL SUB AND SWAP1 JUMP JUMPDEST PUSH1 0x0 PUSH2 0xFD9 DUP3 PUSH2 0x3F31 JUMP JUMPDEST PUSH1 0x0 PUSH2 0xFD9 DUP3 PUSH2 0x3F4B JUMP JUMPDEST PUSH1 0x0 JUMPDEST DUP4 DUP2 LT ISZERO PUSH2 0x3F97 JUMPI DUP2 DUP2 ADD MLOAD DUP4 DUP3 ADD MSTORE PUSH1 0x20 ADD PUSH2 0x3F7F JUMP JUMPDEST DUP4 DUP2 GT ISZERO PUSH2 0x3807 JUMPI POP POP PUSH1 0x0 SWAP2 ADD MSTORE JUMP JUMPDEST PUSH1 0x1F ADD PUSH1 0x1F NOT AND SWAP1 JUMP JUMPDEST PUSH2 0x3FBB DUP2 PUSH2 0x3F14 JUMP JUMPDEST DUP2 EQ PUSH2 0x3FC6 JUMPI PUSH1 0x0 DUP1 REVERT JUMPDEST POP JUMP JUMPDEST PUSH2 0x3FBB DUP2 PUSH2 0x3F1F JUMP JUMPDEST PUSH2 0x3FBB DUP2 PUSH2 0x3F31 JUMP JUMPDEST PUSH2 0x3FBB DUP2 PUSH2 0x3F48 JUMP JUMPDEST PUSH2 0x3FBB DUP2 PUSH2 0x3F4B JUMP JUMPDEST PUSH2 0x3FBB DUP2 PUSH2 0x3F54 JUMP JUMPDEST PUSH2 0x3FBB DUP2 PUSH2 0x3F5A JUMP INVALID LOG3 PUSH6 0x627A7A723158 KECCAK256 0xE9 PUSH25 0xE2979603B5F5D0276D9B435691E864BC12A02492DD381ECDD SWAP4 SWAP14 BYTE 0x4C DUP4 PUSH13 0x6578706572696D656E74616CF5 PUSH5 0x736F6C6343 STOP SDIV GT STOP BLOCKHASH "
		},
		"gasEstimates": {
			"creation": {
				"codeDepositCost": "3290000",
				"executionCost": "3659",
				"totalCost": "3293659"
			},
			"external": {
				"dTokenBalances(address,address)": "infinite",
				"dTokenBalancesAll(address[],address)": "infinite",
				"dTokenMetadata(address)": "infinite",
				"dTokenMetadataAll(address[])": "infinite",
				"dTokenUnderlyingPrice(address)": "infinite",
				"dTokenUnderlyingPriceAll(address[])": "infinite",
				"getAccountLimits(address,address)": "infinite",
				"getDankBalanceMetadata(address,address)": "infinite",
				"getDankBalanceMetadataExt(address,address,address)": "infinite",
				"getDankVotes(address,address,uint32[])": "infinite",
				"getGovBravoProposals(address,uint256[])": "infinite",
				"getGovBravoReceipts(address,address,uint256[])": "infinite",
				"getGovProposals(address,uint256[])": "infinite",
				"getGovReceipts(address,address,uint256[])": "infinite"
			},
			"internal": {
				"add(uint256,uint256,string memory)": "infinite",
				"dankareStrings(string memory,string memory)": "infinite",
				"setBravoProposal(struct DankLens.GovBravoProposal memory,contract GovernorBravoInterface,uint256)": "infinite",
				"setProposal(struct DankLens.GovProposal memory,contract GovernorAlpha,uint256)": "infinite",
				"sub(uint256,uint256,string memory)": "infinite"
			}
		},
		"methodIdentifiers": {
			"dTokenBalances(address,address)": "8cc2d79f",
			"dTokenBalancesAll(address[],address)": "3f3158a3",
			"dTokenMetadata(address)": "1f8a2049",
			"dTokenMetadataAll(address[])": "4a0186a5",
			"dTokenUnderlyingPrice(address)": "f3ff526d",
			"dTokenUnderlyingPriceAll(address[])": "b8980f73",
			"getAccountLimits(address,address)": "7dd8f6d9",
			"getDankBalanceMetadata(address,address)": "fd954391",
			"getDankBalanceMetadataExt(address,address,address)": "ab55f25a",
			"getDankVotes(address,address,uint32[])": "0491292b",
			"getGovBravoProposals(address,uint256[])": "75d80e90",
			"getGovBravoReceipts(address,address,uint256[])": "43c811cc",
			"getGovProposals(address,uint256[])": "96994869",
			"getGovReceipts(address,address,uint256[])": "995ed99f"
		}
	},
	"abi": [
		{
			"constant": false,
			"inputs": [
				{
					"internalType": "contract DToken",
					"name": "dToken",
					"type": "address"
				},
				{
					"internalType": "address payable",
					"name": "account",
					"type": "address"
				}
			],
			"name": "dTokenBalances",
			"outputs": [
				{
					"components": [
						{
							"internalType": "address",
							"name": "dToken",
							"type": "address"
						},
						{
							"internalType": "uint256",
							"name": "balanceOf",
							"type": "uint256"
						},
						{
							"internalType": "uint256",
							"name": "borrowBalanceCurrent",
							"type": "uint256"
						},
						{
							"internalType": "uint256",
							"name": "balanceOfUnderlying",
							"type": "uint256"
						},
						{
							"internalType": "uint256",
							"name": "tokenBalance",
							"type": "uint256"
						},
						{
							"internalType": "uint256",
							"name": "tokenAllowance",
							"type": "uint256"
						}
					],
					"internalType": "struct DankLens.DTokenBalances",
					"name": "",
					"type": "tuple"
				}
			],
			"payable": false,
			"stateMutability": "nonpayable",
			"type": "function"
		},
		{
			"constant": false,
			"inputs": [
				{
					"internalType": "contract DToken[]",
					"name": "dTokens",
					"type": "address[]"
				},
				{
					"internalType": "address payable",
					"name": "account",
					"type": "address"
				}
			],
			"name": "dTokenBalancesAll",
			"outputs": [
				{
					"components": [
						{
							"internalType": "address",
							"name": "dToken",
							"type": "address"
						},
						{
							"internalType": "uint256",
							"name": "balanceOf",
							"type": "uint256"
						},
						{
							"internalType": "uint256",
							"name": "borrowBalanceCurrent",
							"type": "uint256"
						},
						{
							"internalType": "uint256",
							"name": "balanceOfUnderlying",
							"type": "uint256"
						},
						{
							"internalType": "uint256",
							"name": "tokenBalance",
							"type": "uint256"
						},
						{
							"internalType": "uint256",
							"name": "tokenAllowance",
							"type": "uint256"
						}
					],
					"internalType": "struct DankLens.DTokenBalances[]",
					"name": "",
					"type": "tuple[]"
				}
			],
			"payable": false,
			"stateMutability": "nonpayable",
			"type": "function"
		},
		{
			"constant": false,
			"inputs": [
				{
					"internalType": "contract DToken",
					"name": "dToken",
					"type": "address"
				}
			],
			"name": "dTokenMetadata",
			"outputs": [
				{
					"components": [
						{
							"internalType": "address",
							"name": "dToken",
							"type": "address"
						},
						{
							"internalType": "uint256",
							"name": "exchangeRateCurrent",
							"type": "uint256"
						},
						{
							"internalType": "uint256",
							"name": "supplyRatePerBlock",
							"type": "uint256"
						},
						{
							"internalType": "uint256",
							"name": "borrowRatePerBlock",
							"type": "uint256"
						},
						{
							"internalType": "uint256",
							"name": "reserveFactorMantissa",
							"type": "uint256"
						},
						{
							"internalType": "uint256",
							"name": "totalBorrows",
							"type": "uint256"
						},
						{
							"internalType": "uint256",
							"name": "totalReserves",
							"type": "uint256"
						},
						{
							"internalType": "uint256",
							"name": "totalSupply",
							"type": "uint256"
						},
						{
							"internalType": "uint256",
							"name": "totalCash",
							"type": "uint256"
						},
						{
							"internalType": "bool",
							"name": "isListed",
							"type": "bool"
						},
						{
							"internalType": "uint256",
							"name": "collateralFactorMantissa",
							"type": "uint256"
						},
						{
							"internalType": "address",
							"name": "underlyingAssetAddress",
							"type": "address"
						},
						{
							"internalType": "uint256",
							"name": "dTokenDecimals",
							"type": "uint256"
						},
						{
							"internalType": "uint256",
							"name": "underlyingDecimals",
							"type": "uint256"
						},
						{
							"internalType": "uint256",
							"name": "dankSpeed",
							"type": "uint256"
						},
						{
							"internalType": "uint256",
							"name": "borrowCap",
							"type": "uint256"
						}
					],
					"internalType": "struct DankLens.DTokenMetadata",
					"name": "",
					"type": "tuple"
				}
			],
			"payable": false,
			"stateMutability": "nonpayable",
			"type": "function"
		},
		{
			"constant": false,
			"inputs": [
				{
					"internalType": "contract DToken[]",
					"name": "dTokens",
					"type": "address[]"
				}
			],
			"name": "dTokenMetadataAll",
			"outputs": [
				{
					"components": [
						{
							"internalType": "address",
							"name": "dToken",
							"type": "address"
						},
						{
							"internalType": "uint256",
							"name": "exchangeRateCurrent",
							"type": "uint256"
						},
						{
							"internalType": "uint256",
							"name": "supplyRatePerBlock",
							"type": "uint256"
						},
						{
							"internalType": "uint256",
							"name": "borrowRatePerBlock",
							"type": "uint256"
						},
						{
							"internalType": "uint256",
							"name": "reserveFactorMantissa",
							"type": "uint256"
						},
						{
							"internalType": "uint256",
							"name": "totalBorrows",
							"type": "uint256"
						},
						{
							"internalType": "uint256",
							"name": "totalReserves",
							"type": "uint256"
						},
						{
							"internalType": "uint256",
							"name": "totalSupply",
							"type": "uint256"
						},
						{
							"internalType": "uint256",
							"name": "totalCash",
							"type": "uint256"
						},
						{
							"internalType": "bool",
							"name": "isListed",
							"type": "bool"
						},
						{
							"internalType": "uint256",
							"name": "collateralFactorMantissa",
							"type": "uint256"
						},
						{
							"internalType": "address",
							"name": "underlyingAssetAddress",
							"type": "address"
						},
						{
							"internalType": "uint256",
							"name": "dTokenDecimals",
							"type": "uint256"
						},
						{
							"internalType": "uint256",
							"name": "underlyingDecimals",
							"type": "uint256"
						},
						{
							"internalType": "uint256",
							"name": "dankSpeed",
							"type": "uint256"
						},
						{
							"internalType": "uint256",
							"name": "borrowCap",
							"type": "uint256"
						}
					],
					"internalType": "struct DankLens.DTokenMetadata[]",
					"name": "",
					"type": "tuple[]"
				}
			],
			"payable": false,
			"stateMutability": "nonpayable",
			"type": "function"
		},
		{
			"constant": false,
			"inputs": [
				{
					"internalType": "contract DToken",
					"name": "dToken",
					"type": "address"
				}
			],
			"name": "dTokenUnderlyingPrice",
			"outputs": [
				{
					"components": [
						{
							"internalType": "address",
							"name": "dToken",
							"type": "address"
						},
						{
							"internalType": "uint256",
							"name": "underlyingPrice",
							"type": "uint256"
						}
					],
					"internalType": "struct DankLens.DTokenUnderlyingPrice",
					"name": "",
					"type": "tuple"
				}
			],
			"payable": false,
			"stateMutability": "nonpayable",
			"type": "function"
		},
		{
			"constant": false,
			"inputs": [
				{
					"internalType": "contract DToken[]",
					"name": "dTokens",
					"type": "address[]"
				}
			],
			"name": "dTokenUnderlyingPriceAll",
			"outputs": [
				{
					"components": [
						{
							"internalType": "address",
							"name": "dToken",
							"type": "address"
						},
						{
							"internalType": "uint256",
							"name": "underlyingPrice",
							"type": "uint256"
						}
					],
					"internalType": "struct DankLens.DTokenUnderlyingPrice[]",
					"name": "",
					"type": "tuple[]"
				}
			],
			"payable": false,
			"stateMutability": "nonpayable",
			"type": "function"
		},
		{
			"constant": false,
			"inputs": [
				{
					"internalType": "contract DanktrollerLensInterface",
					"name": "danktroller",
					"type": "address"
				},
				{
					"internalType": "address",
					"name": "account",
					"type": "address"
				}
			],
			"name": "getAccountLimits",
			"outputs": [
				{
					"components": [
						{
							"internalType": "contract DToken[]",
							"name": "markets",
							"type": "address[]"
						},
						{
							"internalType": "uint256",
							"name": "liquidity",
							"type": "uint256"
						},
						{
							"internalType": "uint256",
							"name": "shortfall",
							"type": "uint256"
						}
					],
					"internalType": "struct DankLens.AccountLimits",
					"name": "",
					"type": "tuple"
				}
			],
			"payable": false,
			"stateMutability": "nonpayable",
			"type": "function"
		},
		{
			"constant": true,
			"inputs": [
				{
					"internalType": "contract Dank",
					"name": "dank",
					"type": "address"
				},
				{
					"internalType": "address",
					"name": "account",
					"type": "address"
				}
			],
			"name": "getDankBalanceMetadata",
			"outputs": [
				{
					"components": [
						{
							"internalType": "uint256",
							"name": "balance",
							"type": "uint256"
						},
						{
							"internalType": "uint256",
							"name": "votes",
							"type": "uint256"
						},
						{
							"internalType": "address",
							"name": "delegate",
							"type": "address"
						}
					],
					"internalType": "struct DankLens.DankBalanceMetadata",
					"name": "",
					"type": "tuple"
				}
			],
			"payable": false,
			"stateMutability": "view",
			"type": "function"
		},
		{
			"constant": false,
			"inputs": [
				{
					"internalType": "contract Dank",
					"name": "dank",
					"type": "address"
				},
				{
					"internalType": "contract DanktrollerLensInterface",
					"name": "danktroller",
					"type": "address"
				},
				{
					"internalType": "address",
					"name": "account",
					"type": "address"
				}
			],
			"name": "getDankBalanceMetadataExt",
			"outputs": [
				{
					"components": [
						{
							"internalType": "uint256",
							"name": "balance",
							"type": "uint256"
						},
						{
							"internalType": "uint256",
							"name": "votes",
							"type": "uint256"
						},
						{
							"internalType": "address",
							"name": "delegate",
							"type": "address"
						},
						{
							"internalType": "uint256",
							"name": "allocated",
							"type": "uint256"
						}
					],
					"internalType": "struct DankLens.DankBalanceMetadataExt",
					"name": "",
					"type": "tuple"
				}
			],
			"payable": false,
			"stateMutability": "nonpayable",
			"type": "function"
		},
		{
			"constant": true,
			"inputs": [
				{
					"internalType": "contract Dank",
					"name": "dank",
					"type": "address"
				},
				{
					"internalType": "address",
					"name": "account",
					"type": "address"
				},
				{
					"internalType": "uint32[]",
					"name": "blockNumbers",
					"type": "uint32[]"
				}
			],
			"name": "getDankVotes",
			"outputs": [
				{
					"components": [
						{
							"internalType": "uint256",
							"name": "blockNumber",
							"type": "uint256"
						},
						{
							"internalType": "uint256",
							"name": "votes",
							"type": "uint256"
						}
					],
					"internalType": "struct DankLens.DankVotes[]",
					"name": "",
					"type": "tuple[]"
				}
			],
			"payable": false,
			"stateMutability": "view",
			"type": "function"
		},
		{
			"constant": true,
			"inputs": [
				{
					"internalType": "contract GovernorBravoInterface",
					"name": "governor",
					"type": "address"
				},
				{
					"internalType": "uint256[]",
					"name": "proposalIds",
					"type": "uint256[]"
				}
			],
			"name": "getGovBravoProposals",
			"outputs": [
				{
					"components": [
						{
							"internalType": "uint256",
							"name": "proposalId",
							"type": "uint256"
						},
						{
							"internalType": "address",
							"name": "proposer",
							"type": "address"
						},
						{
							"internalType": "uint256",
							"name": "eta",
							"type": "uint256"
						},
						{
							"internalType": "address[]",
							"name": "targets",
							"type": "address[]"
						},
						{
							"internalType": "uint256[]",
							"name": "values",
							"type": "uint256[]"
						},
						{
							"internalType": "string[]",
							"name": "signatures",
							"type": "string[]"
						},
						{
							"internalType": "bytes[]",
							"name": "calldatas",
							"type": "bytes[]"
						},
						{
							"internalType": "uint256",
							"name": "startBlock",
							"type": "uint256"
						},
						{
							"internalType": "uint256",
							"name": "endBlock",
							"type": "uint256"
						},
						{
							"internalType": "uint256",
							"name": "forVotes",
							"type": "uint256"
						},
						{
							"internalType": "uint256",
							"name": "againstVotes",
							"type": "uint256"
						},
						{
							"internalType": "uint256",
							"name": "abstainVotes",
							"type": "uint256"
						},
						{
							"internalType": "bool",
							"name": "canceled",
							"type": "bool"
						},
						{
							"internalType": "bool",
							"name": "executed",
							"type": "bool"
						}
					],
					"internalType": "struct DankLens.GovBravoProposal[]",
					"name": "",
					"type": "tuple[]"
				}
			],
			"payable": false,
			"stateMutability": "view",
			"type": "function"
		},
		{
			"constant": true,
			"inputs": [
				{
					"internalType": "contract GovernorBravoInterface",
					"name": "governor",
					"type": "address"
				},
				{
					"internalType": "address",
					"name": "voter",
					"type": "address"
				},
				{
					"internalType": "uint256[]",
					"name": "proposalIds",
					"type": "uint256[]"
				}
			],
			"name": "getGovBravoReceipts",
			"outputs": [
				{
					"components": [
						{
							"internalType": "uint256",
							"name": "proposalId",
							"type": "uint256"
						},
						{
							"internalType": "bool",
							"name": "hasVoted",
							"type": "bool"
						},
						{
							"internalType": "uint8",
							"name": "support",
							"type": "uint8"
						},
						{
							"internalType": "uint96",
							"name": "votes",
							"type": "uint96"
						}
					],
					"internalType": "struct DankLens.GovBravoReceipt[]",
					"name": "",
					"type": "tuple[]"
				}
			],
			"payable": false,
			"stateMutability": "view",
			"type": "function"
		},
		{
			"constant": true,
			"inputs": [
				{
					"internalType": "contract GovernorAlpha",
					"name": "governor",
					"type": "address"
				},
				{
					"internalType": "uint256[]",
					"name": "proposalIds",
					"type": "uint256[]"
				}
			],
			"name": "getGovProposals",
			"outputs": [
				{
					"components": [
						{
							"internalType": "uint256",
							"name": "proposalId",
							"type": "uint256"
						},
						{
							"internalType": "address",
							"name": "proposer",
							"type": "address"
						},
						{
							"internalType": "uint256",
							"name": "eta",
							"type": "uint256"
						},
						{
							"internalType": "address[]",
							"name": "targets",
							"type": "address[]"
						},
						{
							"internalType": "uint256[]",
							"name": "values",
							"type": "uint256[]"
						},
						{
							"internalType": "string[]",
							"name": "signatures",
							"type": "string[]"
						},
						{
							"internalType": "bytes[]",
							"name": "calldatas",
							"type": "bytes[]"
						},
						{
							"internalType": "uint256",
							"name": "startBlock",
							"type": "uint256"
						},
						{
							"internalType": "uint256",
							"name": "endBlock",
							"type": "uint256"
						},
						{
							"internalType": "uint256",
							"name": "forVotes",
							"type": "uint256"
						},
						{
							"internalType": "uint256",
							"name": "againstVotes",
							"type": "uint256"
						},
						{
							"internalType": "bool",
							"name": "canceled",
							"type": "bool"
						},
						{
							"internalType": "bool",
							"name": "executed",
							"type": "bool"
						}
					],
					"internalType": "struct DankLens.GovProposal[]",
					"name": "",
					"type": "tuple[]"
				}
			],
			"payable": false,
			"stateMutability": "view",
			"type": "function"
		},
		{
			"constant": true,
			"inputs": [
				{
					"internalType": "contract GovernorAlpha",
					"name": "governor",
					"type": "address"
				},
				{
					"internalType": "address",
					"name": "voter",
					"type": "address"
				},
				{
					"internalType": "uint256[]",
					"name": "proposalIds",
					"type": "uint256[]"
				}
			],
			"name": "getGovReceipts",
			"outputs": [
				{
					"components": [
						{
							"internalType": "uint256",
							"name": "proposalId",
							"type": "uint256"
						},
						{
							"internalType": "bool",
							"name": "hasVoted",
							"type": "bool"
						},
						{
							"internalType": "bool",
							"name": "support",
							"type": "bool"
						},
						{
							"internalType": "uint96",
							"name": "votes",
							"type": "uint96"
						}
					],
					"internalType": "struct DankLens.GovReceipt[]",
					"name": "",
					"type": "tuple[]"
				}
			],
			"payable": false,
			"stateMutability": "view",
			"type": "function"
		}
	]
}