{
	"data": {
		"bytecode": {
			"linkReferences": {},
			"object": "60806040523480156200001157600080fd5b506040516200534638038062005346833981810160405260e08110156200003757600080fd5b8151602083015160408085015160608601805192519496939591949391820192846401000000008211156200006b57600080fd5b9083019060208201858111156200008157600080fd5b82516401000000008111828201881017156200009c57600080fd5b82525081516020918201929091019080838360005b83811015620000cb578181015183820152602001620000b1565b50505050905090810190601f168015620000f95780820380516001836020036101000a031916815260200191505b50604052602001805160405193929190846401000000008211156200011d57600080fd5b9083019060208201858111156200013357600080fd5b82516401000000008111828201881017156200014e57600080fd5b82525081516020918201929091019080838360005b838110156200017d57818101518382015260200162000163565b50505050905090810190601f168015620001ab5780820380516001836020036101000a031916815260200191505b506040908152602082015191015160038054610100600160a81b03191633610100021790559092509050620001e587878787878762000218565b600380546001600160a01b0390921661010002610100600160a81b03199092169190911790555062000855945050505050565b60035461010090046001600160a01b03163314620002685760405162461bcd60e51b8152600401808060200182810382526024815260200180620052ad6024913960400191505060405180910390fd5b600954158015620002795750600a54155b620002b65760405162461bcd60e51b8152600401808060200182810382526023815260200180620052d16023913960400191505060405180910390fd5b600784905583620002f95760405162461bcd60e51b8152600401808060200182810382526030815260200180620052f46030913960400191505060405180910390fd5b60006200030f876001600160e01b036200042e16565b9050801562000365576040805162461bcd60e51b815260206004820152601a60248201527f73657474696e672064616e6b74726f6c6c6572206661696c6564000000000000604482015290519081900360640190fd5b620003786001600160e01b036200059816565b600955670de0b6b3a7640000600a556200039b866001600160e01b036200059d16565b90508015620003dc5760405162461bcd60e51b8152600401808060200182810382526022815260200180620053246022913960400191505060405180910390fd5b8351620003f1906001906020870190620007b3565b50825162000407906002906020860190620007b3565b50506003805460ff90921660ff199283161790556000805490911660011790555050505050565b60035460009061010090046001600160a01b031633146200046857620004606001603f6001600160e01b036200074316565b905062000593565b6005546040805163d8a72acb60e01b815290516001600160a01b039283169285169163d8a72acb916004808301926020929190829003018186803b158015620004b057600080fd5b505afa158015620004c5573d6000803e3d6000fd5b505050506040513d6020811015620004dc57600080fd5b505162000530576040805162461bcd60e51b815260206004820152601c60248201527f6d61726b6572206d6574686f642072657475726e65642066616c736500000000604482015290519081900360640190fd5b600580546001600160a01b0319166001600160a01b03858116918217909255604080519284168352602083019190915280517fe4cbaeda07bdcbcdb1168b355a1a57d377f426f2b049dfb311395a0c6043937d9281900390910190a160005b9150505b919050565b435b90565b600354600090819061010090046001600160a01b03163314620005da57620005d1600160426001600160e01b036200074316565b91505062000593565b620005ed6001600160e01b036200059816565b600954146200060d57620005d1600a60416001600160e01b036200074316565b600660009054906101000a90046001600160a01b03169050826001600160a01b0316632191f92a6040518163ffffffff1660e01b815260040160206040518083038186803b1580156200065f57600080fd5b505afa15801562000674573d6000803e3d6000fd5b505050506040513d60208110156200068b57600080fd5b5051620006df576040805162461bcd60e51b815260206004820152601c60248201527f6d61726b6572206d6574686f642072657475726e65642066616c736500000000604482015290519081900360640190fd5b600680546001600160a01b0319166001600160a01b03858116918217909255604080519284168352602083019190915280517fedffc32e068c7c95dfd4bdfd5c4d939a084d6b11c4199eac8436ed234d72f9269281900390910190a160006200058f565b60007f45b96fe442630264581b197e84bbada861235052c5a1aadfff9ea4e40a969aa08360108111156200077357fe5b8360508111156200078057fe5b604080519283526020830191909152600082820152519081900360600190a1826010811115620007ac57fe5b9392505050565b828054600181600116156101000203166002900490600052602060002090601f016020900481019282601f10620007f657805160ff191683800117855562000826565b8280016001018555821562000826579182015b828111156200082657825182559160200191906001019062000809565b506200083492915062000838565b5090565b6200059a91905b808211156200083457600081556001016200083f565b614a4880620008656000396000f3fe6080604052600436106102725760003560e01c806395d89b411161014f578063c37f68e2116100c1578063e9c714f21161007a578063e9c714f214610a22578063f2b3abbd14610a37578063f3fdb15a14610a6a578063f851a44014610a7f578063f8f9da2814610a94578063fca7820b14610aa957610272565b8063c37f68e2146108ff578063c5ebeaec14610958578063db006a7514610982578063dd62ed3e146109ac578063e5974619146109e7578063e8b29a9014610a0d57610272565b8063aa5af0fd11610113578063aa5af0fd1461081c578063aae40a2a14610831578063ae9d70b01461085f578063b2a02ff114610874578063b71d1a0c146108b7578063bd6d894d146108ea57610272565b806395d89b411461062757806395dd91931461063c57806399d8c1b41461066f578063a6afed95146107ce578063a9059cbb146107e357610272565b80633af9e669116101e85780636c540baf116101ac5780636c540baf146105585780636fbd78231461056d57806370a08231146105a057806373acee98146105d3578063852a12e3146105e85780638f840ddd1461061257610272565b80633af9e669146104c95780633b1d21a2146104fc57806347bd3718146105115780634e4d9fea14610526578063601a0bf11461052e57610272565b806318160ddd1161023a57806318160ddd146103eb578063182df0f51461040057806323b872dd146104155780632678224714610458578063313ce567146104895780633ac4202f146104b457610272565b806306fdde03146102b0578063095ea7b31461033a5780631249c58b14610387578063173b99041461039157806317bfdfbc146103b8575b600061027d34610ad3565b5090506102ad816040518060400160405280600b81526020016a1b5a5b9d0819985a5b195960aa1b815250610b7b565b50005b3480156102bc57600080fd5b506102c5610d7b565b6040805160208082528351818301528351919283929083019185019080838360005b838110156102ff5781810151838201526020016102e7565b50505050905090810190601f16801561032c5780820380516001836020036101000a031916815260200191505b509250505060405180910390f35b34801561034657600080fd5b506103736004803603604081101561035d57600080fd5b506001600160a01b038135169060200135610e08565b604080519115158252519081900360200190f35b61038f610e75565b005b34801561039d57600080fd5b506103a6610eb3565b60408051918252519081900360200190f35b3480156103c457600080fd5b506103a6600480360360208110156103db57600080fd5b50356001600160a01b0316610eb9565b3480156103f757600080fd5b506103a6610f79565b34801561040c57600080fd5b506103a6610f7f565b34801561042157600080fd5b506103736004803603606081101561043857600080fd5b506001600160a01b03813581169160208101359091169060400135610fe2565b34801561046457600080fd5b5061046d611054565b604080516001600160a01b039092168252519081900360200190f35b34801561049557600080fd5b5061049e611063565b6040805160ff9092168252519081900360200190f35b3480156104c057600080fd5b5061037361106c565b3480156104d557600080fd5b506103a6600480360360208110156104ec57600080fd5b50356001600160a01b0316611071565b34801561050857600080fd5b506103a6611129565b34801561051d57600080fd5b506103a6611138565b61038f61113e565b34801561053a57600080fd5b506103a66004803603602081101561055157600080fd5b5035611180565b34801561056457600080fd5b506103a661121b565b34801561057957600080fd5b506103a66004803603602081101561059057600080fd5b50356001600160a01b0316611221565b3480156105ac57600080fd5b506103a6600480360360208110156105c357600080fd5b50356001600160a01b0316611378565b3480156105df57600080fd5b506103a6611393565b3480156105f457600080fd5b506103a66004803603602081101561060b57600080fd5b5035611449565b34801561061e57600080fd5b506103a6611454565b34801561063357600080fd5b506102c561145a565b34801561064857600080fd5b506103a66004803603602081101561065f57600080fd5b50356001600160a01b03166114b2565b34801561067b57600080fd5b5061038f600480360360c081101561069257600080fd5b6001600160a01b038235811692602081013590911691604082013591908101906080810160608201356401000000008111156106cd57600080fd5b8201836020820111156106df57600080fd5b8035906020019184600183028401116401000000008311171561070157600080fd5b91908080601f016020809104026020016040519081016040528093929190818152602001838380828437600092019190915250929594936020810193503591505064010000000081111561075457600080fd5b82018360208201111561076657600080fd5b8035906020019184600183028401116401000000008311171561078857600080fd5b91908080601f0160208091040260200160405190810160405280939291908181526020018383808284376000920191909152509295505050903560ff16915061150f9050565b3480156107da57600080fd5b506103a66116f6565b3480156107ef57600080fd5b506103736004803603604081101561080657600080fd5b506001600160a01b038135169060200135611a4e565b34801561082857600080fd5b506103a6611abf565b61038f6004803603604081101561084757600080fd5b506001600160a01b0381358116916020013516611ac5565b34801561086b57600080fd5b506103a6611b12565b34801561088057600080fd5b506103a66004803603606081101561089757600080fd5b506001600160a01b03813581169160208101359091169060400135611bb1565b3480156108c357600080fd5b506103a6600480360360208110156108da57600080fd5b50356001600160a01b0316611c22565b3480156108f657600080fd5b506103a6611cae565b34801561090b57600080fd5b506109326004803603602081101561092257600080fd5b50356001600160a01b0316611d6a565b604080519485526020850193909352838301919091526060830152519081900360800190f35b34801561096457600080fd5b506103a66004803603602081101561097b57600080fd5b5035611dff565b34801561098e57600080fd5b506103a6600480360360208110156109a557600080fd5b5035611e0a565b3480156109b857600080fd5b506103a6600480360360408110156109cf57600080fd5b506001600160a01b0381358116916020013516611e15565b61038f600480360360208110156109fd57600080fd5b50356001600160a01b0316611e40565b348015610a1957600080fd5b5061046d611e8e565b348015610a2e57600080fd5b506103a6611e9d565b348015610a4357600080fd5b506103a660048036036020811015610a5a57600080fd5b50356001600160a01b0316611fa0565b348015610a7657600080fd5b5061046d611fda565b348015610a8b57600080fd5b5061046d611fe9565b348015610aa057600080fd5b506103a6611ffd565b348015610ab557600080fd5b506103a660048036036020811015610acc57600080fd5b5035612061565b60008054819060ff16610b1a576040805162461bcd60e51b815260206004820152600a6024820152691c994b595b9d195c995960b21b604482015290519081900360640190fd5b6000805460ff19168155610b2c6116f6565b90508015610b5757610b4a816010811115610b4357fe5b601e6120df565b925060009150610b679050565b610b613385612145565b92509250505b6000805460ff191660011790559092909150565b81610b8557610d77565b606081516005016040519080825280601f01601f191660200182016040528015610bb6576020820181803883390190505b50905060005b8251811015610c0757828181518110610bd157fe5b602001015160f81c60f81b828281518110610be857fe5b60200101906001600160f81b031916908160001a905350600101610bbc565b8151600160fd1b90839083908110610c1b57fe5b60200101906001600160f81b031916908160001a905350602860f81b828260010181518110610c4657fe5b60200101906001600160f81b031916908160001a905350600a840460300160f81b828260020181518110610c7657fe5b60200101906001600160f81b031916908160001a905350600a840660300160f81b828260030181518110610ca657fe5b60200101906001600160f81b031916908160001a905350602960f81b828260040181518110610cd157fe5b60200101906001600160f81b031916908160001a905350818415610d735760405162461bcd60e51b81526004018080602001828103825283818151815260200191508051906020019080838360005b83811015610d38578181015183820152602001610d20565b50505050905090810190601f168015610d655780820380516001836020036101000a031916815260200191505b509250505060405180910390fd5b5050505b5050565b60018054604080516020600284861615610100026000190190941693909304601f81018490048402820184019092528181529291830182828015610e005780601f10610dd557610100808354040283529160200191610e00565b820191906000526020600020905b815481529060010190602001808311610de357829003601f168201915b505050505081565b336000818152600f602090815260408083206001600160a01b03871680855290835281842086905581518681529151939493909284927f8c5be1e5ebec7d5bd14f71427d1e84f3dd0314c0f7b2291e5b200ac8c7c3b925929081900390910190a360019150505b92915050565b6000610e8034610ad3565b509050610eb0816040518060400160405280600b81526020016a1b5a5b9d0819985a5b195960aa1b815250610b7b565b50565b60085481565b6000805460ff16610efe576040805162461bcd60e51b815260206004820152600a6024820152691c994b595b9d195c995960b21b604482015290519081900360640190fd5b6000805460ff19168155610f106116f6565b14610f5b576040805162461bcd60e51b81526020600482015260166024820152751858d8dc9d59481a5b9d195c995cdd0819985a5b195960521b604482015290519081900360640190fd5b610f64826114b2565b90505b6000805460ff19166001179055919050565b600d5481565b6000806000610f8c612517565b90925090506000826003811115610f9f57fe5b14610fdb5760405162461bcd60e51b815260040180806020018281038252603581526020018061495f6035913960400191505060405180910390fd5b9150505b90565b6000805460ff16611027576040805162461bcd60e51b815260206004820152600a6024820152691c994b595b9d195c995960b21b604482015290519081900360640190fd5b6000805460ff1916815561103d338686866125c6565b1490506000805460ff191660011790559392505050565b6004546001600160a01b031681565b60035460ff1681565b600181565b600061107b61464d565b604051806020016040528061108e611cae565b90526001600160a01b0384166000908152600e60205260408120549192509081906110ba908490612854565b909250905060008260038111156110cd57fe5b1461111f576040805162461bcd60e51b815260206004820152601f60248201527f62616c616e636520636f756c64206e6f742062652063616c63756c6174656400604482015290519081900360640190fd5b925050505b919050565b60006111336128a7565b905090565b600b5481565b6000611149346128d3565b509050610eb081604051806040016040528060128152602001711c995c185e509bdc9c9bddc819985a5b195960721b815250610b7b565b6000805460ff166111c5576040805162461bcd60e51b815260206004820152600a6024820152691c994b595b9d195c995960b21b604482015290519081900360640190fd5b6000805460ff191681556111d76116f6565b905080156111fd576111f58160108111156111ee57fe5b60306120df565b915050610f67565b61120683612955565b9150506000805460ff19166001179055919050565b60095481565b60035460009061010090046001600160a01b0316331461124e576112476001603f6120df565b9050611124565b6005546040805163d8a72acb60e01b815290516001600160a01b039283169285169163d8a72acb916004808301926020929190829003018186803b15801561129557600080fd5b505afa1580156112a9573d6000803e3d6000fd5b505050506040513d60208110156112bf57600080fd5b5051611312576040805162461bcd60e51b815260206004820152601c60248201527f6d61726b6572206d6574686f642072657475726e65642066616c736500000000604482015290519081900360640190fd5b600580546001600160a01b0319166001600160a01b03858116918217909255604080519284168352602083019190915280517fe4cbaeda07bdcbcdb1168b355a1a57d377f426f2b049dfb311395a0c6043937d9281900390910190a160005b9392505050565b6001600160a01b03166000908152600e602052604090205490565b6000805460ff166113d8576040805162461bcd60e51b815260206004820152600a6024820152691c994b595b9d195c995960b21b604482015290519081900360640190fd5b6000805460ff191681556113ea6116f6565b14611435576040805162461bcd60e51b81526020600482015260166024820152751858d8dc9d59481a5b9d195c995cdd0819985a5b195960521b604482015290519081900360640190fd5b50600b546000805460ff1916600117905590565b6000610e6f82612a88565b600c5481565b6002805460408051602060018416156101000260001901909316849004601f81018490048402820184019092528181529291830182828015610e005780601f10610dd557610100808354040283529160200191610e00565b60008060006114c084612b09565b909250905060008260038111156114d357fe5b146113715760405162461bcd60e51b815260040180806020018281038252603781526020018061486a6037913960400191505060405180910390fd5b60035461010090046001600160a01b0316331461155d5760405162461bcd60e51b81526004018080602001828103825260248152602001806147a66024913960400191505060405180910390fd5b60095415801561156d5750600a54155b6115a85760405162461bcd60e51b81526004018080602001828103825260238152602001806147ca6023913960400191505060405180910390fd5b6007849055836115e95760405162461bcd60e51b81526004018080602001828103825260308152602001806147ed6030913960400191505060405180910390fd5b60006115f487611221565b90508015611649576040805162461bcd60e51b815260206004820152601a60248201527f73657474696e672064616e6b74726f6c6c6572206661696c6564000000000000604482015290519081900360640190fd5b611651612bbd565b600955670de0b6b3a7640000600a5561166986612bc1565b905080156116a85760405162461bcd60e51b815260040180806020018281038252602281526020018061481d6022913960400191505060405180910390fd5b83516116bb906001906020870190614660565b5082516116cf906002906020860190614660565b50506003805460ff90921660ff199283161790556000805490911660011790555050505050565b600080611701612bbd565b6009549091508082141561171a57600092505050610fdf565b60006117246128a7565b600b54600c54600a54600654604080516315f2405360e01b815260048101879052602481018690526044810185905290519596509394929391926000926001600160a01b03909216916315f24053916064808301926020929190829003018186803b15801561179257600080fd5b505afa1580156117a6573d6000803e3d6000fd5b505050506040513d60208110156117bc57600080fd5b5051905065048c2739500081111561181b576040805162461bcd60e51b815260206004820152601c60248201527f626f72726f772072617465206973206162737572646c79206869676800000000604482015290519081900360640190fd5b6000806118288989612d36565b9092509050600082600381111561183b57fe5b1461188d576040805162461bcd60e51b815260206004820152601f60248201527f636f756c64206e6f742063616c63756c61746520626c6f636b2064656c746100604482015290519081900360640190fd5b61189561464d565b6000806000806118b360405180602001604052808a81525087612d59565b909750945060008760038111156118c657fe5b146118f8576118e3600960068960038111156118de57fe5b612dc1565b9e505050505050505050505050505050610fdf565b611902858c612854565b9097509350600087600381111561191557fe5b1461192d576118e3600960018960038111156118de57fe5b611937848c612e27565b9097509250600087600381111561194a57fe5b14611962576118e3600960048960038111156118de57fe5b61197d6040518060200160405280600854815250858c612e4d565b9097509150600087600381111561199057fe5b146119a8576118e3600960058960038111156118de57fe5b6119b3858a8b612e4d565b909750905060008760038111156119c657fe5b146119de576118e3600960038960038111156118de57fe5b60098e9055600a819055600b839055600c829055604080518d8152602081018690528082018390526060810185905290517f4dec04e750ca11537cabcd8a9eab06494de08da3735bc8871cd41250e190bc049181900360800190a160009e50505050505050505050505050505090565b6000805460ff16611a93576040805162461bcd60e51b815260206004820152600a6024820152691c994b595b9d195c995960b21b604482015290519081900360640190fd5b6000805460ff19168155611aa9333386866125c6565b1490506000805460ff1916600117905592915050565b600a5481565b6000611ad2833484612ea9565b509050611b0d81604051806040016040528060168152602001751b1a5c5d5a59185d19509bdc9c9bddc819985a5b195960521b815250610b7b565b505050565b6006546000906001600160a01b031663b8168816611b2e6128a7565b600b54600c546008546040518563ffffffff1660e01b81526004018085815260200184815260200183815260200182815260200194505050505060206040518083038186803b158015611b8057600080fd5b505afa158015611b94573d6000803e3d6000fd5b505050506040513d6020811015611baa57600080fd5b5051905090565b6000805460ff16611bf6576040805162461bcd60e51b815260206004820152600a6024820152691c994b595b9d195c995960b21b604482015290519081900360640190fd5b6000805460ff19169055611c0c33858585612fdb565b90506000805460ff191660011790559392505050565b60035460009061010090046001600160a01b03163314611c4857611247600160456120df565b600480546001600160a01b038481166001600160a01b0319831681179093556040805191909216808252602082019390935281517fca4f2f25d0898edd99413412fb94012f9e54ec8142f9b093e7720646a95b16a9929181900390910190a16000611371565b6000805460ff16611cf3576040805162461bcd60e51b815260206004820152600a6024820152691c994b595b9d195c995960b21b604482015290519081900360640190fd5b6000805460ff19168155611d056116f6565b14611d50576040805162461bcd60e51b81526020600482015260166024820152751858d8dc9d59481a5b9d195c995cdd0819985a5b195960521b604482015290519081900360640190fd5b611d58610f7f565b90506000805460ff1916600117905590565b6001600160a01b0381166000908152600e6020526040812054819081908190818080611d9589612b09565b935090506000816003811115611da757fe5b14611dc55760095b975060009650869550859450611df89350505050565b611dcd612517565b925090506000816003811115611ddf57fe5b14611deb576009611daf565b5060009650919450925090505b9193509193565b6000610e6f826131b7565b6000610e6f82613236565b6001600160a01b039182166000908152600f6020908152604080832093909416825291909152205490565b6000611e4c82346132b0565b509050610d77816040518060400160405280601881526020017f7265706179426f72726f77426568616c66206661696c65640000000000000000815250610b7b565b6005546001600160a01b031681565b6004546000906001600160a01b031633141580611eb8575033155b15611ed057611ec9600160006120df565b9050610fdf565b60038054600480546001600160a01b03818116610100818102610100600160a81b0319871617968790556001600160a01b031990931690935560408051948390048216808652929095041660208401528351909391927ff9ffabca9c8276e99321725bcb43fb076a6c66a54b7f21c4e8146d8519b417dc92908290030190a1600454604080516001600160a01b038085168252909216602083015280517fca4f2f25d0898edd99413412fb94012f9e54ec8142f9b093e7720646a95b16a99281900390910190a160009250505090565b600080611fab6116f6565b90508015611fd157611fc9816010811115611fc257fe5b60406120df565b915050611124565b61137183612bc1565b6006546001600160a01b031681565b60035461010090046001600160a01b031681565b6006546000906001600160a01b03166315f240536120196128a7565b600b54600c546040518463ffffffff1660e01b815260040180848152602001838152602001828152602001935050505060206040518083038186803b158015611b8057600080fd5b6000805460ff166120a6576040805162461bcd60e51b815260206004820152600a6024820152691c994b595b9d195c995960b21b604482015290519081900360640190fd5b6000805460ff191681556120b86116f6565b905080156120d6576111f58160108111156120cf57fe5b60466120df565b6112068361335b565b60007f45b96fe442630264581b197e84bbada861235052c5a1aadfff9ea4e40a969aa083601081111561210e57fe5b83605081111561211a57fe5b604080519283526020830191909152600082820152519081900360600190a182601081111561137157fe5b60055460408051634ef4c3e160e01b81523060048201526001600160a01b03858116602483015260448201859052915160009384938493911691634ef4c3e19160648082019260209290919082900301818787803b1580156121a657600080fd5b505af11580156121ba573d6000803e3d6000fd5b505050506040513d60208110156121d057600080fd5b5051905080156121f4576121e76003601f83612dc1565b9250600091506125109050565b6121fc612bbd565b60095414612210576121e7600a60226120df565b6122186146de565b612220612517565b604083018190526020830182600381111561223757fe5b600381111561224257fe5b905250600090508160200151600381111561225957fe5b146122835761227560096021836020015160038111156118de57fe5b935060009250612510915050565b61228d8686613403565b60c08201819052604080516020810182529083015181526122ae919061349f565b60608301819052602083018260038111156122c557fe5b60038111156122d057fe5b90525060009050816020015160038111156122e757fe5b14612339576040805162461bcd60e51b815260206004820181905260248201527f4d494e545f45584348414e47455f43414c43554c4154494f4e5f4641494c4544604482015290519081900360640190fd5b612349600d548260600151612e27565b608083018190526020830182600381111561236057fe5b600381111561236b57fe5b905250600090508160200151600381111561238257fe5b146123be5760405162461bcd60e51b81526004018080602001828103825260288152602001806149946028913960400191505060405180910390fd5b6001600160a01b0386166000908152600e602052604090205460608201516123e69190612e27565b60a08301819052602083018260038111156123fd57fe5b600381111561240857fe5b905250600090508160200151600381111561241f57fe5b1461245b5760405162461bcd60e51b815260040180806020018281038252602b81526020018061483f602b913960400191505060405180910390fd5b6080810151600d5560a08101516001600160a01b0387166000818152600e60209081526040918290209390935560c084015160608086015183519485529484019190915282820193909352517f4c209b5fc8ad50758f13e2e1088ba56a560dff690a1c6fef26394f4c03821c4f929181900390910190a1606081015160408051918252516001600160a01b0388169130916000805160206148db8339815191529181900360200190a360c00151600093509150505b9250929050565b600d54600090819080612532575050600754600091506125c2565b600061253c6128a7565b9050600061254861464d565b600061255984600b54600c546134b6565b93509050600081600381111561256b57fe5b14612580579550600094506125c29350505050565b61258a83866134f4565b92509050600081600381111561259c57fe5b146125b1579550600094506125c29350505050565b50516000955093506125c292505050565b9091565b600554604080516317b9b84b60e31b81523060048201526001600160a01b03868116602483015285811660448301526064820185905291516000938493169163bdcdc25891608480830192602092919082900301818787803b15801561262b57600080fd5b505af115801561263f573d6000803e3d6000fd5b505050506040513d602081101561265557600080fd5b5051905080156126745761266c6003604a83612dc1565b91505061284c565b836001600160a01b0316856001600160a01b0316141561269a5761266c6002604b6120df565b60006001600160a01b0387811690871614156126b957506000196126e1565b506001600160a01b038086166000908152600f60209081526040808320938a16835292905220545b6000806000806126f18589612d36565b9094509250600084600381111561270457fe5b14612722576127156009604b6120df565b965050505050505061284c565b6001600160a01b038a166000908152600e60205260409020546127459089612d36565b9094509150600084600381111561275857fe5b14612769576127156009604c6120df565b6001600160a01b0389166000908152600e602052604090205461278c9089612e27565b9094509050600084600381111561279f57fe5b146127b0576127156009604d6120df565b6001600160a01b03808b166000908152600e6020526040808220859055918b168152208190556000198514612808576001600160a01b03808b166000908152600f60209081526040808320938f168352929052208390555b886001600160a01b03168a6001600160a01b03166000805160206148db8339815191528a6040518082815260200191505060405180910390a3600096505050505050505b949350505050565b600080600061286161464d565b61286b8686612d59565b9092509050600082600381111561287e57fe5b1461288f5750915060009050612510565b600061289a826135a4565b9350935050509250929050565b60008060006128b64734612d36565b909250905060008260038111156128c957fe5b14610fdb57600080fd5b60008054819060ff1661291a576040805162461bcd60e51b815260206004820152600a6024820152691c994b595b9d195c995960b21b604482015290519081900360640190fd5b6000805460ff1916815561292c6116f6565b9050801561294a57610b4a81601081111561294357fe5b60366120df565b610b613333866135b3565b600354600090819061010090046001600160a01b0316331461297d57611fc9600160316120df565b612985612bbd565b6009541461299957611fc9600a60336120df565b826129a26128a7565b10156129b457611fc9600e60326120df565b600c548311156129ca57611fc9600260346120df565b50600c5482810390811115612a105760405162461bcd60e51b81526004018080602001828103825260248152602001806149f06024913960400191505060405180910390fd5b600c819055600354612a309061010090046001600160a01b031684613901565b600354604080516101009092046001600160a01b0316825260208201859052818101839052517f3bad0c59cf2f06e7314077049f48a93578cd16f5ef92329f1dab1420a99c177e916060908290030190a16000611371565b6000805460ff16612acd576040805162461bcd60e51b815260206004820152600a6024820152691c994b595b9d195c995960b21b604482015290519081900360640190fd5b6000805460ff19168155612adf6116f6565b90508015612afd576111f5816010811115612af657fe5b60276120df565b61120633600085613937565b6001600160a01b038116600090815260106020526040812080548291829182918291612b40575060009450849350612bb892505050565b612b508160000154600a54613dfe565b90945092506000846003811115612b6357fe5b14612b78575091935060009250612bb8915050565b612b86838260010154613e3d565b90945091506000846003811115612b9957fe5b14612bae575091935060009250612bb8915050565b5060009450925050505b915091565b4390565b600354600090819061010090046001600160a01b03163314612be957611fc9600160426120df565b612bf1612bbd565b60095414612c0557611fc9600a60416120df565b600660009054906101000a90046001600160a01b03169050826001600160a01b0316632191f92a6040518163ffffffff1660e01b815260040160206040518083038186803b158015612c5657600080fd5b505afa158015612c6a573d6000803e3d6000fd5b505050506040513d6020811015612c8057600080fd5b5051612cd3576040805162461bcd60e51b815260206004820152601c60248201527f6d61726b6572206d6574686f642072657475726e65642066616c736500000000604482015290519081900360640190fd5b600680546001600160a01b0319166001600160a01b03858116918217909255604080519284168352602083019190915280517fedffc32e068c7c95dfd4bdfd5c4d939a084d6b11c4199eac8436ed234d72f9269281900390910190a16000611371565b600080838311612d4d575060009050818303612510565b50600390506000612510565b6000612d6361464d565b600080612d74866000015186613dfe565b90925090506000826003811115612d8757fe5b14612da657506040805160208101909152600081529092509050612510565b60408051602081019091529081526000969095509350505050565b60007f45b96fe442630264581b197e84bbada861235052c5a1aadfff9ea4e40a969aa0846010811115612df057fe5b846050811115612dfc57fe5b604080519283526020830191909152818101859052519081900360600190a183601081111561284c57fe5b600080838301848110612e3f57600092509050612510565b506002915060009050612510565b6000806000612e5a61464d565b612e648787612d59565b90925090506000826003811115612e7757fe5b14612e885750915060009050612ea1565b612e9a612e94826135a4565b86612e27565b9350935050505b935093915050565b60008054819060ff16612ef0576040805162461bcd60e51b815260206004820152600a6024820152691c994b595b9d195c995960b21b604482015290519081900360640190fd5b6000805460ff19168155612f026116f6565b90508015612f2d57612f20816010811115612f1957fe5b600f6120df565b925060009150612fc49050565b836001600160a01b031663a6afed956040518163ffffffff1660e01b8152600401602060405180830381600087803b158015612f6857600080fd5b505af1158015612f7c573d6000803e3d6000fd5b505050506040513d6020811015612f9257600080fd5b505190508015612fb257612f20816010811115612fab57fe5b60106120df565b612fbe33878787613e68565b92509250505b6000805460ff191660011790559094909350915050565b6005546040805163d02f735160e01b81523060048201526001600160a01b038781166024830152868116604483015285811660648301526084820185905291516000938493169163d02f73519160a480830192602092919082900301818787803b15801561304857600080fd5b505af115801561305c573d6000803e3d6000fd5b505050506040513d602081101561307257600080fd5b5051905080156130895761266c6003601b83612dc1565b846001600160a01b0316846001600160a01b031614156130af5761266c6006601c6120df565b6001600160a01b0384166000908152600e6020526040812054819081906130d69087612d36565b909350915060008360038111156130e957fe5b1461310c576131016009601a8560038111156118de57fe5b94505050505061284c565b6001600160a01b0388166000908152600e602052604090205461312f9087612e27565b9093509050600083600381111561314257fe5b1461315a57613101600960198560038111156118de57fe5b6001600160a01b038088166000818152600e60209081526040808320879055938c168083529184902085905583518a8152935191936000805160206148db833981519152929081900390910190a360009998505050505050505050565b6000805460ff166131fc576040805162461bcd60e51b815260206004820152600a6024820152691c994b595b9d195c995960b21b604482015290519081900360640190fd5b6000805460ff1916815561320e6116f6565b9050801561322c576111f581601081111561322557fe5b60086120df565b611206338461435a565b6000805460ff1661327b576040805162461bcd60e51b815260206004820152600a6024820152691c994b595b9d195c995960b21b604482015290519081900360640190fd5b6000805460ff1916815561328d6116f6565b905080156132a4576111f5816010811115612af657fe5b61120633846000613937565b60008054819060ff166132f7576040805162461bcd60e51b815260206004820152600a6024820152691c994b595b9d195c995960b21b604482015290519081900360640190fd5b6000805460ff191681556133096116f6565b905080156133345761332781601081111561332057fe5b60356120df565b9250600091506133459050565b61333f3386866135b3565b92509250505b6000805460ff1916600117905590939092509050565b60035460009061010090046001600160a01b0316331461338157611247600160476120df565b613389612bbd565b6009541461339d57611247600a60486120df565b670de0b6b3a76400008211156133b957611247600260496120df565b6008805490839055604080518281526020810185905281517faaa68312e2ea9d50e16af5068410ab56e1a1fd06037b1a35664812c30f821460929181900390910190a16000611371565b6000336001600160a01b03841614613454576040805162461bcd60e51b815260206004820152600f60248201526e0e6cadcc8cae440dad2e6dac2e8c6d608b1b604482015290519081900360640190fd5b813414613499576040805162461bcd60e51b815260206004820152600e60248201526d0ecc2d8eaca40dad2e6dac2e8c6d60931b604482015290519081900360640190fd5b50919050565b60008060006134ac61464d565b61286b86866145ee565b6000806000806134c68787612e27565b909250905060008260038111156134d957fe5b146134ea5750915060009050612ea1565b612e9a8186612d36565b60006134fe61464d565b60008061351386670de0b6b3a7640000613dfe565b9092509050600082600381111561352657fe5b1461354557506040805160208101909152600081529092509050612510565b6000806135528388613e3d565b9092509050600082600381111561356557fe5b1461358757506040805160208101909152600081529094509250612510915050565b604080516020810190915290815260009890975095505050505050565b51670de0b6b3a7640000900490565b60055460408051631200453160e11b81523060048201526001600160a01b0386811660248301528581166044830152606482018590529151600093849384939116916324008a629160848082019260209290919082900301818787803b15801561361c57600080fd5b505af1158015613630573d6000803e3d6000fd5b505050506040513d602081101561364657600080fd5b50519050801561366a5761365d6003603883612dc1565b925060009150612ea19050565b613672612bbd565b600954146136865761365d600a60396120df565b61368e61471c565b6001600160a01b03861660009081526010602052604090206001015460608201526136b886612b09565b60808301819052602083018260038111156136cf57fe5b60038111156136da57fe5b90525060009050816020015160038111156136f157fe5b1461371b5761370d60096037836020015160038111156118de57fe5b935060009250612ea1915050565b600019851415613734576080810151604082015261373c565b604081018590525b61374a878260400151613403565b60e08201819052608082015161375f91612d36565b60a083018190526020830182600381111561377657fe5b600381111561378157fe5b905250600090508160200151600381111561379857fe5b146137d45760405162461bcd60e51b815260040180806020018281038252603a8152602001806148a1603a913960400191505060405180910390fd5b6137e4600b548260e00151612d36565b60c08301819052602083018260038111156137fb57fe5b600381111561380657fe5b905250600090508160200151600381111561381d57fe5b146138595760405162461bcd60e51b81526004018080602001828103825260318152602001806148fb6031913960400191505060405180910390fd5b60a080820180516001600160a01b03808a16600081815260106020908152604091829020948555600a5460019095019490945560c0870151600b81905560e088015195518251948f16855294840192909252828101949094526060820192909252608081019190915290517f1a2a22cb034d26d1854bdc6666a5b91fe25efbbb5dcad3b0355478d6f5c362a1929181900390910190a160e00151600097909650945050505050565b6040516001600160a01b0383169082156108fc029083906000818181858888f19350505050158015611b0d573d6000803e3d6000fd5b6000821580613944575081155b61397f5760405162461bcd60e51b81526004018080602001828103825260348152602001806149bc6034913960400191505060405180910390fd5b6139876146de565b61398f612517565b60408301819052602083018260038111156139a657fe5b60038111156139b157fe5b90525060009050816020015160038111156139c857fe5b146139ec576139e46009602b836020015160038111156118de57fe5b915050611371565b8315613a6d576060810184905260408051602081018252908201518152613a139085612854565b6080830181905260208301826003811115613a2a57fe5b6003811115613a3557fe5b9052506000905081602001516003811115613a4c57fe5b14613a68576139e460096029836020015160038111156118de57fe5b613ae6565b613a89836040518060200160405280846040015181525061349f565b6060830181905260208301826003811115613aa057fe5b6003811115613aab57fe5b9052506000905081602001516003811115613ac257fe5b14613ade576139e46009602a836020015160038111156118de57fe5b608081018390525b60055460608201516040805163eabe7d9160e01b81523060048201526001600160a01b03898116602483015260448201939093529051600093929092169163eabe7d919160648082019260209290919082900301818787803b158015613b4b57600080fd5b505af1158015613b5f573d6000803e3d6000fd5b505050506040513d6020811015613b7557600080fd5b505190508015613b9557613b8c6003602883612dc1565b92505050611371565b613b9d612bbd565b60095414613bb157613b8c600a602c6120df565b613bc1600d548360600151612d36565b60a0840181905260208401826003811115613bd857fe5b6003811115613be357fe5b9052506000905082602001516003811115613bfa57fe5b14613c1657613b8c6009602e846020015160038111156118de57fe5b6001600160a01b0386166000908152600e60205260409020546060830151613c3e9190612d36565b60c0840181905260208401826003811115613c5557fe5b6003811115613c6057fe5b9052506000905082602001516003811115613c7757fe5b14613c9357613b8c6009602d846020015160038111156118de57fe5b8160800151613ca06128a7565b1015613cb257613b8c600e602f6120df565b613cc0868360800151613901565b60a0820151600d5560c08201516001600160a01b0387166000818152600e60209081526040918290209390935560608501518151908152905130936000805160206148db833981519152928290030190a36080820151606080840151604080516001600160a01b038b168152602081019490945283810191909152517fe5b754fb1abb7f01b499791d0b820ae3b6af3424ac1c59768edb53f4ec31a9299281900390910190a160055460808301516060840151604080516351dff98960e01b81523060048201526001600160a01b038b81166024830152604482019490945260648101929092525191909216916351dff98991608480830192600092919082900301818387803b158015613dd357600080fd5b505af1158015613de7573d6000803e3d6000fd5b5060009250613df4915050565b9695505050505050565b60008083613e1157506000905080612510565b83830283858281613e1e57fe5b0414613e3257506002915060009050612510565b600092509050612510565b60008082613e515750600190506000612510565b6000838581613e5c57fe5b04915091509250929050565b60055460408051632fe3f38f60e11b81523060048201526001600160a01b0384811660248301528781166044830152868116606483015260848201869052915160009384938493911691635fc7e71e9160a48082019260209290919082900301818787803b158015613ed957600080fd5b505af1158015613eed573d6000803e3d6000fd5b505050506040513d6020811015613f0357600080fd5b505190508015613f2757613f1a6003601283612dc1565b9250600091506143519050565b613f2f612bbd565b60095414613f4357613f1a600a60166120df565b613f4b612bbd565b846001600160a01b0316636c540baf6040518163ffffffff1660e01b815260040160206040518083038186803b158015613f8457600080fd5b505afa158015613f98573d6000803e3d6000fd5b505050506040513d6020811015613fae57600080fd5b505114613fc157613f1a600a60116120df565b866001600160a01b0316866001600160a01b03161415613fe757613f1a600660176120df565b84613ff857613f1a600760156120df565b60001985141561400e57613f1a600760146120df565b60008061401c8989896135b3565b9092509050811561404c5761403d82601081111561403657fe5b60186120df565b94506000935061435192505050565b6005546040805163c488847b60e01b81523060048201526001600160a01b038981166024830152604482018590528251600094859492169263c488847b926064808301939192829003018186803b1580156140a657600080fd5b505afa1580156140ba573d6000803e3d6000fd5b505050506040513d60408110156140d057600080fd5b5080516020909101519092509050811561411b5760405162461bcd60e51b815260040180806020018281038252603381526020018061492c6033913960400191505060405180910390fd5b80886001600160a01b03166370a082318c6040518263ffffffff1660e01b815260040180826001600160a01b03166001600160a01b0316815260200191505060206040518083038186803b15801561417257600080fd5b505afa158015614186573d6000803e3d6000fd5b505050506040513d602081101561419c57600080fd5b505110156141f1576040805162461bcd60e51b815260206004820152601860248201527f4c49515549444154455f5345495a455f544f4f5f4d5543480000000000000000604482015290519081900360640190fd5b60006001600160a01b03891630141561421757614210308d8d85612fdb565b90506142a1565b6040805163b2a02ff160e01b81526001600160a01b038e811660048301528d81166024830152604482018590529151918b169163b2a02ff1916064808201926020929091908290030181600087803b15801561427257600080fd5b505af1158015614286573d6000803e3d6000fd5b505050506040513d602081101561429c57600080fd5b505190505b80156142eb576040805162461bcd60e51b81526020600482015260146024820152731d1bdad95b881cd95a5e9d5c994819985a5b195960621b604482015290519081900360640190fd5b604080516001600160a01b03808f168252808e1660208301528183018790528b1660608201526080810184905290517f298637f684da70674f26509b10f07ec2fbc77a335ab1e7d6215a4b2484d8bb529181900360a00190a16000975092955050505050505b94509492505050565b6005546040805163368f515360e21b81523060048201526001600160a01b0385811660248301526044820185905291516000938493169163da3d454c91606480830192602092919082900301818787803b1580156143b757600080fd5b505af11580156143cb573d6000803e3d6000fd5b505050506040513d60208110156143e157600080fd5b505190508015614400576143f86003600e83612dc1565b915050610e6f565b614408612bbd565b6009541461441b576143f8600a806120df565b826144246128a7565b1015614436576143f8600e60096120df565b61443e614762565b61444785612b09565b602083018190528282600381111561445b57fe5b600381111561446657fe5b905250600090508151600381111561447a57fe5b1461449f5761449660096007836000015160038111156118de57fe5b92505050610e6f565b6144ad816020015185612e27565b60408301819052828260038111156144c157fe5b60038111156144cc57fe5b90525060009050815160038111156144e057fe5b146144fc576144966009600c836000015160038111156118de57fe5b614508600b5485612e27565b606083018190528282600381111561451c57fe5b600381111561452757fe5b905250600090508151600381111561453b57fe5b14614557576144966009600b836000015160038111156118de57fe5b6145618585613901565b604080820180516001600160a01b03881660008181526010602090815290859020928355600a54600190930192909255606080860151600b81905593518551928352928201899052818501929092529081019190915290517f13ed6866d4e1ee6da46f845c46d7e54120883d75c5ea9a2dacc1c4ca8984ab809181900360800190a1600095945050505050565b60006145f861464d565b60008061460d670de0b6b3a764000087613dfe565b9092509050600082600381111561462057fe5b1461463f57506040805160208101909152600081529092509050612510565b61289a8186600001516134f4565b6040518060200160405280600081525090565b828054600181600116156101000203166002900490600052602060002090601f016020900481019282601f106146a157805160ff19168380011785556146ce565b828001600101855582156146ce579182015b828111156146ce5782518255916020019190600101906146b3565b506146da92915061478b565b5090565b6040805160e0810190915280600081526020016000815260200160008152602001600081526020016000815260200160008152602001600081525090565b6040805161010081019091528060008152602001600081526020016000815260200160008152602001600081526020016000815260200160008152602001600081525090565b604080516080810190915280600081526020016000815260200160008152602001600081525090565b610fdf91905b808211156146da576000815560010161479156fe6f6e6c792061646d696e206d617920696e697469616c697a6520746865206d61726b65746d61726b6574206d6179206f6e6c7920626520696e697469616c697a6564206f6e6365696e697469616c2065786368616e67652072617465206d7573742062652067726561746572207468616e207a65726f2e73657474696e6720696e7465726573742072617465206d6f64656c206661696c65644d494e545f4e45575f4143434f554e545f42414c414e43455f43414c43554c4154494f4e5f4641494c4544626f72726f7742616c616e636553746f7265643a20626f72726f7742616c616e636553746f726564496e7465726e616c206661696c656452455041595f424f52524f575f4e45575f4143434f554e545f424f52524f575f42414c414e43455f43414c43554c4154494f4e5f4641494c4544ddf252ad1be2c89b69c2b068fc378daa952ba7f163c4a11628f55a4df523b3ef52455041595f424f52524f575f4e45575f544f54414c5f42414c414e43455f43414c43554c4154494f4e5f4641494c45444c49515549444154455f44414e4b54524f4c4c45525f43414c43554c4154455f414d4f554e545f5345495a455f4641494c454465786368616e67655261746553746f7265643a2065786368616e67655261746553746f726564496e7465726e616c206661696c65644d494e545f4e45575f544f54414c5f535550504c595f43414c43554c4154494f4e5f4641494c45446f6e65206f662072656465656d546f6b656e73496e206f722072656465656d416d6f756e74496e206d757374206265207a65726f72656475636520726573657276657320756e657870656374656420756e646572666c6f77a265627a7a7231582037b548f3ccaf9a0d9544891b7f72841a6f86e10e42e8a8b9f7a22e16b128660564736f6c634300051100326f6e6c792061646d696e206d617920696e697469616c697a6520746865206d61726b65746d61726b6574206d6179206f6e6c7920626520696e697469616c697a6564206f6e6365696e697469616c2065786368616e67652072617465206d7573742062652067726561746572207468616e207a65726f2e73657474696e6720696e7465726573742072617465206d6f64656c206661696c6564",
			"opcodes": "PUSH1 0x80 PUSH1 0x40 MSTORE CALLVALUE DUP1 ISZERO PUSH3 0x11 JUMPI PUSH1 0x0 DUP1 REVERT JUMPDEST POP PUSH1 0x40 MLOAD PUSH3 0x5346 CODESIZE SUB DUP1 PUSH3 0x5346 DUP4 CODECOPY DUP2 DUP2 ADD PUSH1 0x40 MSTORE PUSH1 0xE0 DUP2 LT ISZERO PUSH3 0x37 JUMPI PUSH1 0x0 DUP1 REVERT JUMPDEST DUP2 MLOAD PUSH1 0x20 DUP4 ADD MLOAD PUSH1 0x40 DUP1 DUP6 ADD MLOAD PUSH1 0x60 DUP7 ADD DUP1 MLOAD SWAP3 MLOAD SWAP5 SWAP7 SWAP4 SWAP6 SWAP2 SWAP5 SWAP4 SWAP2 DUP3 ADD SWAP3 DUP5 PUSH5 0x100000000 DUP3 GT ISZERO PUSH3 0x6B JUMPI PUSH1 0x0 DUP1 REVERT JUMPDEST SWAP1 DUP4 ADD SWAP1 PUSH1 0x20 DUP3 ADD DUP6 DUP2 GT ISZERO PUSH3 0x81 JUMPI PUSH1 0x0 DUP1 REVERT JUMPDEST DUP3 MLOAD PUSH5 0x100000000 DUP2 GT DUP3 DUP3 ADD DUP9 LT OR ISZERO PUSH3 0x9C JUMPI PUSH1 0x0 DUP1 REVERT JUMPDEST DUP3 MSTORE POP DUP2 MLOAD PUSH1 0x20 SWAP2 DUP3 ADD SWAP3 SWAP1 SWAP2 ADD SWAP1 DUP1 DUP4 DUP4 PUSH1 0x0 JUMPDEST DUP4 DUP2 LT ISZERO PUSH3 0xCB JUMPI DUP2 DUP2 ADD MLOAD DUP4 DUP3 ADD MSTORE PUSH1 0x20 ADD PUSH3 0xB1 JUMP JUMPDEST POP POP POP POP SWAP1 POP SWAP1 DUP2 ADD SWAP1 PUSH1 0x1F AND DUP1 ISZERO PUSH3 0xF9 JUMPI DUP1 DUP3 SUB DUP1 MLOAD PUSH1 0x1 DUP4 PUSH1 0x20 SUB PUSH2 0x100 EXP SUB NOT AND DUP2 MSTORE PUSH1 0x20 ADD SWAP2 POP JUMPDEST POP PUSH1 0x40 MSTORE PUSH1 0x20 ADD DUP1 MLOAD PUSH1 0x40 MLOAD SWAP4 SWAP3 SWAP2 SWAP1 DUP5 PUSH5 0x100000000 DUP3 GT ISZERO PUSH3 0x11D JUMPI PUSH1 0x0 DUP1 REVERT JUMPDEST SWAP1 DUP4 ADD SWAP1 PUSH1 0x20 DUP3 ADD DUP6 DUP2 GT ISZERO PUSH3 0x133 JUMPI PUSH1 0x0 DUP1 REVERT JUMPDEST DUP3 MLOAD PUSH5 0x100000000 DUP2 GT DUP3 DUP3 ADD DUP9 LT OR ISZERO PUSH3 0x14E JUMPI PUSH1 0x0 DUP1 REVERT JUMPDEST DUP3 MSTORE POP DUP2 MLOAD PUSH1 0x20 SWAP2 DUP3 ADD SWAP3 SWAP1 SWAP2 ADD SWAP1 DUP1 DUP4 DUP4 PUSH1 0x0 JUMPDEST DUP4 DUP2 LT ISZERO PUSH3 0x17D JUMPI DUP2 DUP2 ADD MLOAD DUP4 DUP3 ADD MSTORE PUSH1 0x20 ADD PUSH3 0x163 JUMP JUMPDEST POP POP POP POP SWAP1 POP SWAP1 DUP2 ADD SWAP1 PUSH1 0x1F AND DUP1 ISZERO PUSH3 0x1AB JUMPI DUP1 DUP3 SUB DUP1 MLOAD PUSH1 0x1 DUP4 PUSH1 0x20 SUB PUSH2 0x100 EXP SUB NOT AND DUP2 MSTORE PUSH1 0x20 ADD SWAP2 POP JUMPDEST POP PUSH1 0x40 SWAP1 DUP2 MSTORE PUSH1 0x20 DUP3 ADD MLOAD SWAP2 ADD MLOAD PUSH1 0x3 DUP1 SLOAD PUSH2 0x100 PUSH1 0x1 PUSH1 0xA8 SHL SUB NOT AND CALLER PUSH2 0x100 MUL OR SWAP1 SSTORE SWAP1 SWAP3 POP SWAP1 POP PUSH3 0x1E5 DUP8 DUP8 DUP8 DUP8 DUP8 DUP8 PUSH3 0x218 JUMP JUMPDEST PUSH1 0x3 DUP1 SLOAD PUSH1 0x1 PUSH1 0x1 PUSH1 0xA0 SHL SUB SWAP1 SWAP3 AND PUSH2 0x100 MUL PUSH2 0x100 PUSH1 0x1 PUSH1 0xA8 SHL SUB NOT SWAP1 SWAP3 AND SWAP2 SWAP1 SWAP2 OR SWAP1 SSTORE POP PUSH3 0x855 SWAP5 POP POP POP POP POP JUMP JUMPDEST PUSH1 0x3 SLOAD PUSH2 0x100 SWAP1 DIV PUSH1 0x1 PUSH1 0x1 PUSH1 0xA0 SHL SUB AND CALLER EQ PUSH3 0x268 JUMPI PUSH1 0x40 MLOAD PUSH3 0x461BCD PUSH1 0xE5 SHL DUP2 MSTORE PUSH1 0x4 ADD DUP1 DUP1 PUSH1 0x20 ADD DUP3 DUP2 SUB DUP3 MSTORE PUSH1 0x24 DUP2 MSTORE PUSH1 0x20 ADD DUP1 PUSH3 0x52AD PUSH1 0x24 SWAP2 CODECOPY PUSH1 0x40 ADD SWAP2 POP POP PUSH1 0x40 MLOAD DUP1 SWAP2 SUB SWAP1 REVERT JUMPDEST PUSH1 0x9 SLOAD ISZERO DUP1 ISZERO PUSH3 0x279 JUMPI POP PUSH1 0xA SLOAD ISZERO JUMPDEST PUSH3 0x2B6 JUMPI PUSH1 0x40 MLOAD PUSH3 0x461BCD PUSH1 0xE5 SHL DUP2 MSTORE PUSH1 0x4 ADD DUP1 DUP1 PUSH1 0x20 ADD DUP3 DUP2 SUB DUP3 MSTORE PUSH1 0x23 DUP2 MSTORE PUSH1 0x20 ADD DUP1 PUSH3 0x52D1 PUSH1 0x23 SWAP2 CODECOPY PUSH1 0x40 ADD SWAP2 POP POP PUSH1 0x40 MLOAD DUP1 SWAP2 SUB SWAP1 REVERT JUMPDEST PUSH1 0x7 DUP5 SWAP1 SSTORE DUP4 PUSH3 0x2F9 JUMPI PUSH1 0x40 MLOAD PUSH3 0x461BCD PUSH1 0xE5 SHL DUP2 MSTORE PUSH1 0x4 ADD DUP1 DUP1 PUSH1 0x20 ADD DUP3 DUP2 SUB DUP3 MSTORE PUSH1 0x30 DUP2 MSTORE PUSH1 0x20 ADD DUP1 PUSH3 0x52F4 PUSH1 0x30 SWAP2 CODECOPY PUSH1 0x40 ADD SWAP2 POP POP PUSH1 0x40 MLOAD DUP1 SWAP2 SUB SWAP1 REVERT JUMPDEST PUSH1 0x0 PUSH3 0x30F DUP8 PUSH1 0x1 PUSH1 0x1 PUSH1 0xE0 SHL SUB PUSH3 0x42E AND JUMP JUMPDEST SWAP1 POP DUP1 ISZERO PUSH3 0x365 JUMPI PUSH1 0x40 DUP1 MLOAD PUSH3 0x461BCD PUSH1 0xE5 SHL DUP2 MSTORE PUSH1 0x20 PUSH1 0x4 DUP3 ADD MSTORE PUSH1 0x1A PUSH1 0x24 DUP3 ADD MSTORE PUSH32 0x73657474696E672064616E6B74726F6C6C6572206661696C6564000000000000 PUSH1 0x44 DUP3 ADD MSTORE SWAP1 MLOAD SWAP1 DUP2 SWAP1 SUB PUSH1 0x64 ADD SWAP1 REVERT JUMPDEST PUSH3 0x378 PUSH1 0x1 PUSH1 0x1 PUSH1 0xE0 SHL SUB PUSH3 0x598 AND JUMP JUMPDEST PUSH1 0x9 SSTORE PUSH8 0xDE0B6B3A7640000 PUSH1 0xA SSTORE PUSH3 0x39B DUP7 PUSH1 0x1 PUSH1 0x1 PUSH1 0xE0 SHL SUB PUSH3 0x59D AND JUMP JUMPDEST SWAP1 POP DUP1 ISZERO PUSH3 0x3DC JUMPI PUSH1 0x40 MLOAD PUSH3 0x461BCD PUSH1 0xE5 SHL DUP2 MSTORE PUSH1 0x4 ADD DUP1 DUP1 PUSH1 0x20 ADD DUP3 DUP2 SUB DUP3 MSTORE PUSH1 0x22 DUP2 MSTORE PUSH1 0x20 ADD DUP1 PUSH3 0x5324 PUSH1 0x22 SWAP2 CODECOPY PUSH1 0x40 ADD SWAP2 POP POP PUSH1 0x40 MLOAD DUP1 SWAP2 SUB SWAP1 REVERT JUMPDEST DUP4 MLOAD PUSH3 0x3F1 SWAP1 PUSH1 0x1 SWAP1 PUSH1 0x20 DUP8 ADD SWAP1 PUSH3 0x7B3 JUMP JUMPDEST POP DUP3 MLOAD PUSH3 0x407 SWAP1 PUSH1 0x2 SWAP1 PUSH1 0x20 DUP7 ADD SWAP1 PUSH3 0x7B3 JUMP JUMPDEST POP POP PUSH1 0x3 DUP1 SLOAD PUSH1 0xFF SWAP1 SWAP3 AND PUSH1 0xFF NOT SWAP3 DUP4 AND OR SWAP1 SSTORE PUSH1 0x0 DUP1 SLOAD SWAP1 SWAP2 AND PUSH1 0x1 OR SWAP1 SSTORE POP POP POP POP POP JUMP JUMPDEST PUSH1 0x3 SLOAD PUSH1 0x0 SWAP1 PUSH2 0x100 SWAP1 DIV PUSH1 0x1 PUSH1 0x1 PUSH1 0xA0 SHL SUB AND CALLER EQ PUSH3 0x468 JUMPI PUSH3 0x460 PUSH1 0x1 PUSH1 0x3F PUSH1 0x1 PUSH1 0x1 PUSH1 0xE0 SHL SUB PUSH3 0x743 AND JUMP JUMPDEST SWAP1 POP PUSH3 0x593 JUMP JUMPDEST PUSH1 0x5 SLOAD PUSH1 0x40 DUP1 MLOAD PUSH4 0xD8A72ACB PUSH1 0xE0 SHL DUP2 MSTORE SWAP1 MLOAD PUSH1 0x1 PUSH1 0x1 PUSH1 0xA0 SHL SUB SWAP3 DUP4 AND SWAP3 DUP6 AND SWAP2 PUSH4 0xD8A72ACB SWAP2 PUSH1 0x4 DUP1 DUP4 ADD SWAP3 PUSH1 0x20 SWAP3 SWAP2 SWAP1 DUP3 SWAP1 SUB ADD DUP2 DUP7 DUP1 EXTCODESIZE ISZERO DUP1 ISZERO PUSH3 0x4B0 JUMPI PUSH1 0x0 DUP1 REVERT JUMPDEST POP GAS STATICCALL ISZERO DUP1 ISZERO PUSH3 0x4C5 JUMPI RETURNDATASIZE PUSH1 0x0 DUP1 RETURNDATACOPY RETURNDATASIZE PUSH1 0x0 REVERT JUMPDEST POP POP POP POP PUSH1 0x40 MLOAD RETURNDATASIZE PUSH1 0x20 DUP2 LT ISZERO PUSH3 0x4DC JUMPI PUSH1 0x0 DUP1 REVERT JUMPDEST POP MLOAD PUSH3 0x530 JUMPI PUSH1 0x40 DUP1 MLOAD PUSH3 0x461BCD PUSH1 0xE5 SHL DUP2 MSTORE PUSH1 0x20 PUSH1 0x4 DUP3 ADD MSTORE PUSH1 0x1C PUSH1 0x24 DUP3 ADD MSTORE PUSH32 0x6D61726B6572206D6574686F642072657475726E65642066616C736500000000 PUSH1 0x44 DUP3 ADD MSTORE SWAP1 MLOAD SWAP1 DUP2 SWAP1 SUB PUSH1 0x64 ADD SWAP1 REVERT JUMPDEST PUSH1 0x5 DUP1 SLOAD PUSH1 0x1 PUSH1 0x1 PUSH1 0xA0 SHL SUB NOT AND PUSH1 0x1 PUSH1 0x1 PUSH1 0xA0 SHL SUB DUP6 DUP2 AND SWAP2 DUP3 OR SWAP1 SWAP3 SSTORE PUSH1 0x40 DUP1 MLOAD SWAP3 DUP5 AND DUP4 MSTORE PUSH1 0x20 DUP4 ADD SWAP2 SWAP1 SWAP2 MSTORE DUP1 MLOAD PUSH32 0xE4CBAEDA07BDCBCDB1168B355A1A57D377F426F2B049DFB311395A0C6043937D SWAP3 DUP2 SWAP1 SUB SWAP1 SWAP2 ADD SWAP1 LOG1 PUSH1 0x0 JUMPDEST SWAP2 POP POP JUMPDEST SWAP2 SWAP1 POP JUMP JUMPDEST NUMBER JUMPDEST SWAP1 JUMP JUMPDEST PUSH1 0x3 SLOAD PUSH1 0x0 SWAP1 DUP2 SWAP1 PUSH2 0x100 SWAP1 DIV PUSH1 0x1 PUSH1 0x1 PUSH1 0xA0 SHL SUB AND CALLER EQ PUSH3 0x5DA JUMPI PUSH3 0x5D1 PUSH1 0x1 PUSH1 0x42 PUSH1 0x1 PUSH1 0x1 PUSH1 0xE0 SHL SUB PUSH3 0x743 AND JUMP JUMPDEST SWAP2 POP POP PUSH3 0x593 JUMP JUMPDEST PUSH3 0x5ED PUSH1 0x1 PUSH1 0x1 PUSH1 0xE0 SHL SUB PUSH3 0x598 AND JUMP JUMPDEST PUSH1 0x9 SLOAD EQ PUSH3 0x60D JUMPI PUSH3 0x5D1 PUSH1 0xA PUSH1 0x41 PUSH1 0x1 PUSH1 0x1 PUSH1 0xE0 SHL SUB PUSH3 0x743 AND JUMP JUMPDEST PUSH1 0x6 PUSH1 0x0 SWAP1 SLOAD SWAP1 PUSH2 0x100 EXP SWAP1 DIV PUSH1 0x1 PUSH1 0x1 PUSH1 0xA0 SHL SUB AND SWAP1 POP DUP3 PUSH1 0x1 PUSH1 0x1 PUSH1 0xA0 SHL SUB AND PUSH4 0x2191F92A PUSH1 0x40 MLOAD DUP2 PUSH4 0xFFFFFFFF AND PUSH1 0xE0 SHL DUP2 MSTORE PUSH1 0x4 ADD PUSH1 0x20 PUSH1 0x40 MLOAD DUP1 DUP4 SUB DUP2 DUP7 DUP1 EXTCODESIZE ISZERO DUP1 ISZERO PUSH3 0x65F JUMPI PUSH1 0x0 DUP1 REVERT JUMPDEST POP GAS STATICCALL ISZERO DUP1 ISZERO PUSH3 0x674 JUMPI RETURNDATASIZE PUSH1 0x0 DUP1 RETURNDATACOPY RETURNDATASIZE PUSH1 0x0 REVERT JUMPDEST POP POP POP POP PUSH1 0x40 MLOAD RETURNDATASIZE PUSH1 0x20 DUP2 LT ISZERO PUSH3 0x68B JUMPI PUSH1 0x0 DUP1 REVERT JUMPDEST POP MLOAD PUSH3 0x6DF JUMPI PUSH1 0x40 DUP1 MLOAD PUSH3 0x461BCD PUSH1 0xE5 SHL DUP2 MSTORE PUSH1 0x20 PUSH1 0x4 DUP3 ADD MSTORE PUSH1 0x1C PUSH1 0x24 DUP3 ADD MSTORE PUSH32 0x6D61726B6572206D6574686F642072657475726E65642066616C736500000000 PUSH1 0x44 DUP3 ADD MSTORE SWAP1 MLOAD SWAP1 DUP2 SWAP1 SUB PUSH1 0x64 ADD SWAP1 REVERT JUMPDEST PUSH1 0x6 DUP1 SLOAD PUSH1 0x1 PUSH1 0x1 PUSH1 0xA0 SHL SUB NOT AND PUSH1 0x1 PUSH1 0x1 PUSH1 0xA0 SHL SUB DUP6 DUP2 AND SWAP2 DUP3 OR SWAP1 SWAP3 SSTORE PUSH1 0x40 DUP1 MLOAD SWAP3 DUP5 AND DUP4 MSTORE PUSH1 0x20 DUP4 ADD SWAP2 SWAP1 SWAP2 MSTORE DUP1 MLOAD PUSH32 0xEDFFC32E068C7C95DFD4BDFD5C4D939A084D6B11C4199EAC8436ED234D72F926 SWAP3 DUP2 SWAP1 SUB SWAP1 SWAP2 ADD SWAP1 LOG1 PUSH1 0x0 PUSH3 0x58F JUMP JUMPDEST PUSH1 0x0 PUSH32 0x45B96FE442630264581B197E84BBADA861235052C5A1AADFFF9EA4E40A969AA0 DUP4 PUSH1 0x10 DUP2 GT ISZERO PUSH3 0x773 JUMPI INVALID JUMPDEST DUP4 PUSH1 0x50 DUP2 GT ISZERO PUSH3 0x780 JUMPI INVALID JUMPDEST PUSH1 0x40 DUP1 MLOAD SWAP3 DUP4 MSTORE PUSH1 0x20 DUP4 ADD SWAP2 SWAP1 SWAP2 MSTORE PUSH1 0x0 DUP3 DUP3 ADD MSTORE MLOAD SWAP1 DUP2 SWAP1 SUB PUSH1 0x60 ADD SWAP1 LOG1 DUP3 PUSH1 0x10 DUP2 GT ISZERO PUSH3 0x7AC JUMPI INVALID JUMPDEST SWAP4 SWAP3 POP POP POP JUMP JUMPDEST DUP3 DUP1 SLOAD PUSH1 0x1 DUP2 PUSH1 0x1 AND ISZERO PUSH2 0x100 MUL SUB AND PUSH1 0x2 SWAP1 DIV SWAP1 PUSH1 0x0 MSTORE PUSH1 0x20 PUSH1 0x0 KECCAK256 SWAP1 PUSH1 0x1F ADD PUSH1 0x20 SWAP1 DIV DUP2 ADD SWAP3 DUP3 PUSH1 0x1F LT PUSH3 0x7F6 JUMPI DUP1 MLOAD PUSH1 0xFF NOT AND DUP4 DUP1 ADD OR DUP6 SSTORE PUSH3 0x826 JUMP JUMPDEST DUP3 DUP1 ADD PUSH1 0x1 ADD DUP6 SSTORE DUP3 ISZERO PUSH3 0x826 JUMPI SWAP2 DUP3 ADD JUMPDEST DUP3 DUP2 GT ISZERO PUSH3 0x826 JUMPI DUP3 MLOAD DUP3 SSTORE SWAP2 PUSH1 0x20 ADD SWAP2 SWAP1 PUSH1 0x1 ADD SWAP1 PUSH3 0x809 JUMP JUMPDEST POP PUSH3 0x834 SWAP3 SWAP2 POP PUSH3 0x838 JUMP JUMPDEST POP SWAP1 JUMP JUMPDEST PUSH3 0x59A SWAP2 SWAP1 JUMPDEST DUP1 DUP3 GT ISZERO PUSH3 0x834 JUMPI PUSH1 0x0 DUP2 SSTORE PUSH1 0x1 ADD PUSH3 0x83F JUMP JUMPDEST PUSH2 0x4A48 DUP1 PUSH3 0x865 PUSH1 0x0 CODECOPY PUSH1 0x0 RETURN INVALID PUSH1 0x80 PUSH1 0x40 MSTORE PUSH1 0x4 CALLDATASIZE LT PUSH2 0x272 JUMPI PUSH1 0x0 CALLDATALOAD PUSH1 0xE0 SHR DUP1 PUSH4 0x95D89B41 GT PUSH2 0x14F JUMPI DUP1 PUSH4 0xC37F68E2 GT PUSH2 0xC1 JUMPI DUP1 PUSH4 0xE9C714F2 GT PUSH2 0x7A JUMPI DUP1 PUSH4 0xE9C714F2 EQ PUSH2 0xA22 JUMPI DUP1 PUSH4 0xF2B3ABBD EQ PUSH2 0xA37 JUMPI DUP1 PUSH4 0xF3FDB15A EQ PUSH2 0xA6A JUMPI DUP1 PUSH4 0xF851A440 EQ PUSH2 0xA7F JUMPI DUP1 PUSH4 0xF8F9DA28 EQ PUSH2 0xA94 JUMPI DUP1 PUSH4 0xFCA7820B EQ PUSH2 0xAA9 JUMPI PUSH2 0x272 JUMP JUMPDEST DUP1 PUSH4 0xC37F68E2 EQ PUSH2 0x8FF JUMPI DUP1 PUSH4 0xC5EBEAEC EQ PUSH2 0x958 JUMPI DUP1 PUSH4 0xDB006A75 EQ PUSH2 0x982 JUMPI DUP1 PUSH4 0xDD62ED3E EQ PUSH2 0x9AC JUMPI DUP1 PUSH4 0xE5974619 EQ PUSH2 0x9E7 JUMPI DUP1 PUSH4 0xE8B29A90 EQ PUSH2 0xA0D JUMPI PUSH2 0x272 JUMP JUMPDEST DUP1 PUSH4 0xAA5AF0FD GT PUSH2 0x113 JUMPI DUP1 PUSH4 0xAA5AF0FD EQ PUSH2 0x81C JUMPI DUP1 PUSH4 0xAAE40A2A EQ PUSH2 0x831 JUMPI DUP1 PUSH4 0xAE9D70B0 EQ PUSH2 0x85F JUMPI DUP1 PUSH4 0xB2A02FF1 EQ PUSH2 0x874 JUMPI DUP1 PUSH4 0xB71D1A0C EQ PUSH2 0x8B7 JUMPI DUP1 PUSH4 0xBD6D894D EQ PUSH2 0x8EA JUMPI PUSH2 0x272 JUMP JUMPDEST DUP1 PUSH4 0x95D89B41 EQ PUSH2 0x627 JUMPI DUP1 PUSH4 0x95DD9193 EQ PUSH2 0x63C JUMPI DUP1 PUSH4 0x99D8C1B4 EQ PUSH2 0x66F JUMPI DUP1 PUSH4 0xA6AFED95 EQ PUSH2 0x7CE JUMPI DUP1 PUSH4 0xA9059CBB EQ PUSH2 0x7E3 JUMPI PUSH2 0x272 JUMP JUMPDEST DUP1 PUSH4 0x3AF9E669 GT PUSH2 0x1E8 JUMPI DUP1 PUSH4 0x6C540BAF GT PUSH2 0x1AC JUMPI DUP1 PUSH4 0x6C540BAF EQ PUSH2 0x558 JUMPI DUP1 PUSH4 0x6FBD7823 EQ PUSH2 0x56D JUMPI DUP1 PUSH4 0x70A08231 EQ PUSH2 0x5A0 JUMPI DUP1 PUSH4 0x73ACEE98 EQ PUSH2 0x5D3 JUMPI DUP1 PUSH4 0x852A12E3 EQ PUSH2 0x5E8 JUMPI DUP1 PUSH4 0x8F840DDD EQ PUSH2 0x612 JUMPI PUSH2 0x272 JUMP JUMPDEST DUP1 PUSH4 0x3AF9E669 EQ PUSH2 0x4C9 JUMPI DUP1 PUSH4 0x3B1D21A2 EQ PUSH2 0x4FC JUMPI DUP1 PUSH4 0x47BD3718 EQ PUSH2 0x511 JUMPI DUP1 PUSH4 0x4E4D9FEA EQ PUSH2 0x526 JUMPI DUP1 PUSH4 0x601A0BF1 EQ PUSH2 0x52E JUMPI PUSH2 0x272 JUMP JUMPDEST DUP1 PUSH4 0x18160DDD GT PUSH2 0x23A JUMPI DUP1 PUSH4 0x18160DDD EQ PUSH2 0x3EB JUMPI DUP1 PUSH4 0x182DF0F5 EQ PUSH2 0x400 JUMPI DUP1 PUSH4 0x23B872DD EQ PUSH2 0x415 JUMPI DUP1 PUSH4 0x26782247 EQ PUSH2 0x458 JUMPI DUP1 PUSH4 0x313CE567 EQ PUSH2 0x489 JUMPI DUP1 PUSH4 0x3AC4202F EQ PUSH2 0x4B4 JUMPI PUSH2 0x272 JUMP JUMPDEST DUP1 PUSH4 0x6FDDE03 EQ PUSH2 0x2B0 JUMPI DUP1 PUSH4 0x95EA7B3 EQ PUSH2 0x33A JUMPI DUP1 PUSH4 0x1249C58B EQ PUSH2 0x387 JUMPI DUP1 PUSH4 0x173B9904 EQ PUSH2 0x391 JUMPI DUP1 PUSH4 0x17BFDFBC EQ PUSH2 0x3B8 JUMPI JUMPDEST PUSH1 0x0 PUSH2 0x27D CALLVALUE PUSH2 0xAD3 JUMP JUMPDEST POP SWAP1 POP PUSH2 0x2AD DUP2 PUSH1 0x40 MLOAD DUP1 PUSH1 0x40 ADD PUSH1 0x40 MSTORE DUP1 PUSH1 0xB DUP2 MSTORE PUSH1 0x20 ADD PUSH11 0x1B5A5B9D0819985A5B1959 PUSH1 0xAA SHL DUP2 MSTORE POP PUSH2 0xB7B JUMP JUMPDEST POP STOP JUMPDEST CALLVALUE DUP1 ISZERO PUSH2 0x2BC JUMPI PUSH1 0x0 DUP1 REVERT JUMPDEST POP PUSH2 0x2C5 PUSH2 0xD7B JUMP JUMPDEST PUSH1 0x40 DUP1 MLOAD PUSH1 0x20 DUP1 DUP3 MSTORE DUP4 MLOAD DUP2 DUP4 ADD MSTORE DUP4 MLOAD SWAP2 SWAP3 DUP4 SWAP3 SWAP1 DUP4 ADD SWAP2 DUP6 ADD SWAP1 DUP1 DUP4 DUP4 PUSH1 0x0 JUMPDEST DUP4 DUP2 LT ISZERO PUSH2 0x2FF JUMPI DUP2 DUP2 ADD MLOAD DUP4 DUP3 ADD MSTORE PUSH1 0x20 ADD PUSH2 0x2E7 JUMP JUMPDEST POP POP POP POP SWAP1 POP SWAP1 DUP2 ADD SWAP1 PUSH1 0x1F AND DUP1 ISZERO PUSH2 0x32C JUMPI DUP1 DUP3 SUB DUP1 MLOAD PUSH1 0x1 DUP4 PUSH1 0x20 SUB PUSH2 0x100 EXP SUB NOT AND DUP2 MSTORE PUSH1 0x20 ADD SWAP2 POP JUMPDEST POP SWAP3 POP POP POP PUSH1 0x40 MLOAD DUP1 SWAP2 SUB SWAP1 RETURN JUMPDEST CALLVALUE DUP1 ISZERO PUSH2 0x346 JUMPI PUSH1 0x0 DUP1 REVERT JUMPDEST POP PUSH2 0x373 PUSH1 0x4 DUP1 CALLDATASIZE SUB PUSH1 0x40 DUP2 LT ISZERO PUSH2 0x35D JUMPI PUSH1 0x0 DUP1 REVERT JUMPDEST POP PUSH1 0x1 PUSH1 0x1 PUSH1 0xA0 SHL SUB DUP2 CALLDATALOAD AND SWAP1 PUSH1 0x20 ADD CALLDATALOAD PUSH2 0xE08 JUMP JUMPDEST PUSH1 0x40 DUP1 MLOAD SWAP2 ISZERO ISZERO DUP3 MSTORE MLOAD SWAP1 DUP2 SWAP1 SUB PUSH1 0x20 ADD SWAP1 RETURN JUMPDEST PUSH2 0x38F PUSH2 0xE75 JUMP JUMPDEST STOP JUMPDEST CALLVALUE DUP1 ISZERO PUSH2 0x39D JUMPI PUSH1 0x0 DUP1 REVERT JUMPDEST POP PUSH2 0x3A6 PUSH2 0xEB3 JUMP JUMPDEST PUSH1 0x40 DUP1 MLOAD SWAP2 DUP3 MSTORE MLOAD SWAP1 DUP2 SWAP1 SUB PUSH1 0x20 ADD SWAP1 RETURN JUMPDEST CALLVALUE DUP1 ISZERO PUSH2 0x3C4 JUMPI PUSH1 0x0 DUP1 REVERT JUMPDEST POP PUSH2 0x3A6 PUSH1 0x4 DUP1 CALLDATASIZE SUB PUSH1 0x20 DUP2 LT ISZERO PUSH2 0x3DB JUMPI PUSH1 0x0 DUP1 REVERT JUMPDEST POP CALLDATALOAD PUSH1 0x1 PUSH1 0x1 PUSH1 0xA0 SHL SUB AND PUSH2 0xEB9 JUMP JUMPDEST CALLVALUE DUP1 ISZERO PUSH2 0x3F7 JUMPI PUSH1 0x0 DUP1 REVERT JUMPDEST POP PUSH2 0x3A6 PUSH2 0xF79 JUMP JUMPDEST CALLVALUE DUP1 ISZERO PUSH2 0x40C JUMPI PUSH1 0x0 DUP1 REVERT JUMPDEST POP PUSH2 0x3A6 PUSH2 0xF7F JUMP JUMPDEST CALLVALUE DUP1 ISZERO PUSH2 0x421 JUMPI PUSH1 0x0 DUP1 REVERT JUMPDEST POP PUSH2 0x373 PUSH1 0x4 DUP1 CALLDATASIZE SUB PUSH1 0x60 DUP2 LT ISZERO PUSH2 0x438 JUMPI PUSH1 0x0 DUP1 REVERT JUMPDEST POP PUSH1 0x1 PUSH1 0x1 PUSH1 0xA0 SHL SUB DUP2 CALLDATALOAD DUP2 AND SWAP2 PUSH1 0x20 DUP2 ADD CALLDATALOAD SWAP1 SWAP2 AND SWAP1 PUSH1 0x40 ADD CALLDATALOAD PUSH2 0xFE2 JUMP JUMPDEST CALLVALUE DUP1 ISZERO PUSH2 0x464 JUMPI PUSH1 0x0 DUP1 REVERT JUMPDEST POP PUSH2 0x46D PUSH2 0x1054 JUMP JUMPDEST PUSH1 0x40 DUP1 MLOAD PUSH1 0x1 PUSH1 0x1 PUSH1 0xA0 SHL SUB SWAP1 SWAP3 AND DUP3 MSTORE MLOAD SWAP1 DUP2 SWAP1 SUB PUSH1 0x20 ADD SWAP1 RETURN JUMPDEST CALLVALUE DUP1 ISZERO PUSH2 0x495 JUMPI PUSH1 0x0 DUP1 REVERT JUMPDEST POP PUSH2 0x49E PUSH2 0x1063 JUMP JUMPDEST PUSH1 0x40 DUP1 MLOAD PUSH1 0xFF SWAP1 SWAP3 AND DUP3 MSTORE MLOAD SWAP1 DUP2 SWAP1 SUB PUSH1 0x20 ADD SWAP1 RETURN JUMPDEST CALLVALUE DUP1 ISZERO PUSH2 0x4C0 JUMPI PUSH1 0x0 DUP1 REVERT JUMPDEST POP PUSH2 0x373 PUSH2 0x106C JUMP JUMPDEST CALLVALUE DUP1 ISZERO PUSH2 0x4D5 JUMPI PUSH1 0x0 DUP1 REVERT JUMPDEST POP PUSH2 0x3A6 PUSH1 0x4 DUP1 CALLDATASIZE SUB PUSH1 0x20 DUP2 LT ISZERO PUSH2 0x4EC JUMPI PUSH1 0x0 DUP1 REVERT JUMPDEST POP CALLDATALOAD PUSH1 0x1 PUSH1 0x1 PUSH1 0xA0 SHL SUB AND PUSH2 0x1071 JUMP JUMPDEST CALLVALUE DUP1 ISZERO PUSH2 0x508 JUMPI PUSH1 0x0 DUP1 REVERT JUMPDEST POP PUSH2 0x3A6 PUSH2 0x1129 JUMP JUMPDEST CALLVALUE DUP1 ISZERO PUSH2 0x51D JUMPI PUSH1 0x0 DUP1 REVERT JUMPDEST POP PUSH2 0x3A6 PUSH2 0x1138 JUMP JUMPDEST PUSH2 0x38F PUSH2 0x113E JUMP JUMPDEST CALLVALUE DUP1 ISZERO PUSH2 0x53A JUMPI PUSH1 0x0 DUP1 REVERT JUMPDEST POP PUSH2 0x3A6 PUSH1 0x4 DUP1 CALLDATASIZE SUB PUSH1 0x20 DUP2 LT ISZERO PUSH2 0x551 JUMPI PUSH1 0x0 DUP1 REVERT JUMPDEST POP CALLDATALOAD PUSH2 0x1180 JUMP JUMPDEST CALLVALUE DUP1 ISZERO PUSH2 0x564 JUMPI PUSH1 0x0 DUP1 REVERT JUMPDEST POP PUSH2 0x3A6 PUSH2 0x121B JUMP JUMPDEST CALLVALUE DUP1 ISZERO PUSH2 0x579 JUMPI PUSH1 0x0 DUP1 REVERT JUMPDEST POP PUSH2 0x3A6 PUSH1 0x4 DUP1 CALLDATASIZE SUB PUSH1 0x20 DUP2 LT ISZERO PUSH2 0x590 JUMPI PUSH1 0x0 DUP1 REVERT JUMPDEST POP CALLDATALOAD PUSH1 0x1 PUSH1 0x1 PUSH1 0xA0 SHL SUB AND PUSH2 0x1221 JUMP JUMPDEST CALLVALUE DUP1 ISZERO PUSH2 0x5AC JUMPI PUSH1 0x0 DUP1 REVERT JUMPDEST POP PUSH2 0x3A6 PUSH1 0x4 DUP1 CALLDATASIZE SUB PUSH1 0x20 DUP2 LT ISZERO PUSH2 0x5C3 JUMPI PUSH1 0x0 DUP1 REVERT JUMPDEST POP CALLDATALOAD PUSH1 0x1 PUSH1 0x1 PUSH1 0xA0 SHL SUB AND PUSH2 0x1378 JUMP JUMPDEST CALLVALUE DUP1 ISZERO PUSH2 0x5DF JUMPI PUSH1 0x0 DUP1 REVERT JUMPDEST POP PUSH2 0x3A6 PUSH2 0x1393 JUMP JUMPDEST CALLVALUE DUP1 ISZERO PUSH2 0x5F4 JUMPI PUSH1 0x0 DUP1 REVERT JUMPDEST POP PUSH2 0x3A6 PUSH1 0x4 DUP1 CALLDATASIZE SUB PUSH1 0x20 DUP2 LT ISZERO PUSH2 0x60B JUMPI PUSH1 0x0 DUP1 REVERT JUMPDEST POP CALLDATALOAD PUSH2 0x1449 JUMP JUMPDEST CALLVALUE DUP1 ISZERO PUSH2 0x61E JUMPI PUSH1 0x0 DUP1 REVERT JUMPDEST POP PUSH2 0x3A6 PUSH2 0x1454 JUMP JUMPDEST CALLVALUE DUP1 ISZERO PUSH2 0x633 JUMPI PUSH1 0x0 DUP1 REVERT JUMPDEST POP PUSH2 0x2C5 PUSH2 0x145A JUMP JUMPDEST CALLVALUE DUP1 ISZERO PUSH2 0x648 JUMPI PUSH1 0x0 DUP1 REVERT JUMPDEST POP PUSH2 0x3A6 PUSH1 0x4 DUP1 CALLDATASIZE SUB PUSH1 0x20 DUP2 LT ISZERO PUSH2 0x65F JUMPI PUSH1 0x0 DUP1 REVERT JUMPDEST POP CALLDATALOAD PUSH1 0x1 PUSH1 0x1 PUSH1 0xA0 SHL SUB AND PUSH2 0x14B2 JUMP JUMPDEST CALLVALUE DUP1 ISZERO PUSH2 0x67B JUMPI PUSH1 0x0 DUP1 REVERT JUMPDEST POP PUSH2 0x38F PUSH1 0x4 DUP1 CALLDATASIZE SUB PUSH1 0xC0 DUP2 LT ISZERO PUSH2 0x692 JUMPI PUSH1 0x0 DUP1 REVERT JUMPDEST PUSH1 0x1 PUSH1 0x1 PUSH1 0xA0 SHL SUB DUP3 CALLDATALOAD DUP2 AND SWAP3 PUSH1 0x20 DUP2 ADD CALLDATALOAD SWAP1 SWAP2 AND SWAP2 PUSH1 0x40 DUP3 ADD CALLDATALOAD SWAP2 SWAP1 DUP2 ADD SWAP1 PUSH1 0x80 DUP2 ADD PUSH1 0x60 DUP3 ADD CALLDATALOAD PUSH5 0x100000000 DUP2 GT ISZERO PUSH2 0x6CD JUMPI PUSH1 0x0 DUP1 REVERT JUMPDEST DUP3 ADD DUP4 PUSH1 0x20 DUP3 ADD GT ISZERO PUSH2 0x6DF JUMPI PUSH1 0x0 DUP1 REVERT JUMPDEST DUP1 CALLDATALOAD SWAP1 PUSH1 0x20 ADD SWAP2 DUP5 PUSH1 0x1 DUP4 MUL DUP5 ADD GT PUSH5 0x100000000 DUP4 GT OR ISZERO PUSH2 0x701 JUMPI PUSH1 0x0 DUP1 REVERT JUMPDEST SWAP2 SWAP1 DUP1 DUP1 PUSH1 0x1F ADD PUSH1 0x20 DUP1 SWAP2 DIV MUL PUSH1 0x20 ADD PUSH1 0x40 MLOAD SWAP1 DUP2 ADD PUSH1 0x40 MSTORE DUP1 SWAP4 SWAP3 SWAP2 SWAP1 DUP2 DUP2 MSTORE PUSH1 0x20 ADD DUP4 DUP4 DUP1 DUP3 DUP5 CALLDATACOPY PUSH1 0x0 SWAP3 ADD SWAP2 SWAP1 SWAP2 MSTORE POP SWAP3 SWAP6 SWAP5 SWAP4 PUSH1 0x20 DUP2 ADD SWAP4 POP CALLDATALOAD SWAP2 POP POP PUSH5 0x100000000 DUP2 GT ISZERO PUSH2 0x754 JUMPI PUSH1 0x0 DUP1 REVERT JUMPDEST DUP3 ADD DUP4 PUSH1 0x20 DUP3 ADD GT ISZERO PUSH2 0x766 JUMPI PUSH1 0x0 DUP1 REVERT JUMPDEST DUP1 CALLDATALOAD SWAP1 PUSH1 0x20 ADD SWAP2 DUP5 PUSH1 0x1 DUP4 MUL DUP5 ADD GT PUSH5 0x100000000 DUP4 GT OR ISZERO PUSH2 0x788 JUMPI PUSH1 0x0 DUP1 REVERT JUMPDEST SWAP2 SWAP1 DUP1 DUP1 PUSH1 0x1F ADD PUSH1 0x20 DUP1 SWAP2 DIV MUL PUSH1 0x20 ADD PUSH1 0x40 MLOAD SWAP1 DUP2 ADD PUSH1 0x40 MSTORE DUP1 SWAP4 SWAP3 SWAP2 SWAP1 DUP2 DUP2 MSTORE PUSH1 0x20 ADD DUP4 DUP4 DUP1 DUP3 DUP5 CALLDATACOPY PUSH1 0x0 SWAP3 ADD SWAP2 SWAP1 SWAP2 MSTORE POP SWAP3 SWAP6 POP POP POP SWAP1 CALLDATALOAD PUSH1 0xFF AND SWAP2 POP PUSH2 0x150F SWAP1 POP JUMP JUMPDEST CALLVALUE DUP1 ISZERO PUSH2 0x7DA JUMPI PUSH1 0x0 DUP1 REVERT JUMPDEST POP PUSH2 0x3A6 PUSH2 0x16F6 JUMP JUMPDEST CALLVALUE DUP1 ISZERO PUSH2 0x7EF JUMPI PUSH1 0x0 DUP1 REVERT JUMPDEST POP PUSH2 0x373 PUSH1 0x4 DUP1 CALLDATASIZE SUB PUSH1 0x40 DUP2 LT ISZERO PUSH2 0x806 JUMPI PUSH1 0x0 DUP1 REVERT JUMPDEST POP PUSH1 0x1 PUSH1 0x1 PUSH1 0xA0 SHL SUB DUP2 CALLDATALOAD AND SWAP1 PUSH1 0x20 ADD CALLDATALOAD PUSH2 0x1A4E JUMP JUMPDEST CALLVALUE DUP1 ISZERO PUSH2 0x828 JUMPI PUSH1 0x0 DUP1 REVERT JUMPDEST POP PUSH2 0x3A6 PUSH2 0x1ABF JUMP JUMPDEST PUSH2 0x38F PUSH1 0x4 DUP1 CALLDATASIZE SUB PUSH1 0x40 DUP2 LT ISZERO PUSH2 0x847 JUMPI PUSH1 0x0 DUP1 REVERT JUMPDEST POP PUSH1 0x1 PUSH1 0x1 PUSH1 0xA0 SHL SUB DUP2 CALLDATALOAD DUP2 AND SWAP2 PUSH1 0x20 ADD CALLDATALOAD AND PUSH2 0x1AC5 JUMP JUMPDEST CALLVALUE DUP1 ISZERO PUSH2 0x86B JUMPI PUSH1 0x0 DUP1 REVERT JUMPDEST POP PUSH2 0x3A6 PUSH2 0x1B12 JUMP JUMPDEST CALLVALUE DUP1 ISZERO PUSH2 0x880 JUMPI PUSH1 0x0 DUP1 REVERT JUMPDEST POP PUSH2 0x3A6 PUSH1 0x4 DUP1 CALLDATASIZE SUB PUSH1 0x60 DUP2 LT ISZERO PUSH2 0x897 JUMPI PUSH1 0x0 DUP1 REVERT JUMPDEST POP PUSH1 0x1 PUSH1 0x1 PUSH1 0xA0 SHL SUB DUP2 CALLDATALOAD DUP2 AND SWAP2 PUSH1 0x20 DUP2 ADD CALLDATALOAD SWAP1 SWAP2 AND SWAP1 PUSH1 0x40 ADD CALLDATALOAD PUSH2 0x1BB1 JUMP JUMPDEST CALLVALUE DUP1 ISZERO PUSH2 0x8C3 JUMPI PUSH1 0x0 DUP1 REVERT JUMPDEST POP PUSH2 0x3A6 PUSH1 0x4 DUP1 CALLDATASIZE SUB PUSH1 0x20 DUP2 LT ISZERO PUSH2 0x8DA JUMPI PUSH1 0x0 DUP1 REVERT JUMPDEST POP CALLDATALOAD PUSH1 0x1 PUSH1 0x1 PUSH1 0xA0 SHL SUB AND PUSH2 0x1C22 JUMP JUMPDEST CALLVALUE DUP1 ISZERO PUSH2 0x8F6 JUMPI PUSH1 0x0 DUP1 REVERT JUMPDEST POP PUSH2 0x3A6 PUSH2 0x1CAE JUMP JUMPDEST CALLVALUE DUP1 ISZERO PUSH2 0x90B JUMPI PUSH1 0x0 DUP1 REVERT JUMPDEST POP PUSH2 0x932 PUSH1 0x4 DUP1 CALLDATASIZE SUB PUSH1 0x20 DUP2 LT ISZERO PUSH2 0x922 JUMPI PUSH1 0x0 DUP1 REVERT JUMPDEST POP CALLDATALOAD PUSH1 0x1 PUSH1 0x1 PUSH1 0xA0 SHL SUB AND PUSH2 0x1D6A JUMP JUMPDEST PUSH1 0x40 DUP1 MLOAD SWAP5 DUP6 MSTORE PUSH1 0x20 DUP6 ADD SWAP4 SWAP1 SWAP4 MSTORE DUP4 DUP4 ADD SWAP2 SWAP1 SWAP2 MSTORE PUSH1 0x60 DUP4 ADD MSTORE MLOAD SWAP1 DUP2 SWAP1 SUB PUSH1 0x80 ADD SWAP1 RETURN JUMPDEST CALLVALUE DUP1 ISZERO PUSH2 0x964 JUMPI PUSH1 0x0 DUP1 REVERT JUMPDEST POP PUSH2 0x3A6 PUSH1 0x4 DUP1 CALLDATASIZE SUB PUSH1 0x20 DUP2 LT ISZERO PUSH2 0x97B JUMPI PUSH1 0x0 DUP1 REVERT JUMPDEST POP CALLDATALOAD PUSH2 0x1DFF JUMP JUMPDEST CALLVALUE DUP1 ISZERO PUSH2 0x98E JUMPI PUSH1 0x0 DUP1 REVERT JUMPDEST POP PUSH2 0x3A6 PUSH1 0x4 DUP1 CALLDATASIZE SUB PUSH1 0x20 DUP2 LT ISZERO PUSH2 0x9A5 JUMPI PUSH1 0x0 DUP1 REVERT JUMPDEST POP CALLDATALOAD PUSH2 0x1E0A JUMP JUMPDEST CALLVALUE DUP1 ISZERO PUSH2 0x9B8 JUMPI PUSH1 0x0 DUP1 REVERT JUMPDEST POP PUSH2 0x3A6 PUSH1 0x4 DUP1 CALLDATASIZE SUB PUSH1 0x40 DUP2 LT ISZERO PUSH2 0x9CF JUMPI PUSH1 0x0 DUP1 REVERT JUMPDEST POP PUSH1 0x1 PUSH1 0x1 PUSH1 0xA0 SHL SUB DUP2 CALLDATALOAD DUP2 AND SWAP2 PUSH1 0x20 ADD CALLDATALOAD AND PUSH2 0x1E15 JUMP JUMPDEST PUSH2 0x38F PUSH1 0x4 DUP1 CALLDATASIZE SUB PUSH1 0x20 DUP2 LT ISZERO PUSH2 0x9FD JUMPI PUSH1 0x0 DUP1 REVERT JUMPDEST POP CALLDATALOAD PUSH1 0x1 PUSH1 0x1 PUSH1 0xA0 SHL SUB AND PUSH2 0x1E40 JUMP JUMPDEST CALLVALUE DUP1 ISZERO PUSH2 0xA19 JUMPI PUSH1 0x0 DUP1 REVERT JUMPDEST POP PUSH2 0x46D PUSH2 0x1E8E JUMP JUMPDEST CALLVALUE DUP1 ISZERO PUSH2 0xA2E JUMPI PUSH1 0x0 DUP1 REVERT JUMPDEST POP PUSH2 0x3A6 PUSH2 0x1E9D JUMP JUMPDEST CALLVALUE DUP1 ISZERO PUSH2 0xA43 JUMPI PUSH1 0x0 DUP1 REVERT JUMPDEST POP PUSH2 0x3A6 PUSH1 0x4 DUP1 CALLDATASIZE SUB PUSH1 0x20 DUP2 LT ISZERO PUSH2 0xA5A JUMPI PUSH1 0x0 DUP1 REVERT JUMPDEST POP CALLDATALOAD PUSH1 0x1 PUSH1 0x1 PUSH1 0xA0 SHL SUB AND PUSH2 0x1FA0 JUMP JUMPDEST CALLVALUE DUP1 ISZERO PUSH2 0xA76 JUMPI PUSH1 0x0 DUP1 REVERT JUMPDEST POP PUSH2 0x46D PUSH2 0x1FDA JUMP JUMPDEST CALLVALUE DUP1 ISZERO PUSH2 0xA8B JUMPI PUSH1 0x0 DUP1 REVERT JUMPDEST POP PUSH2 0x46D PUSH2 0x1FE9 JUMP JUMPDEST CALLVALUE DUP1 ISZERO PUSH2 0xAA0 JUMPI PUSH1 0x0 DUP1 REVERT JUMPDEST POP PUSH2 0x3A6 PUSH2 0x1FFD JUMP JUMPDEST CALLVALUE DUP1 ISZERO PUSH2 0xAB5 JUMPI PUSH1 0x0 DUP1 REVERT JUMPDEST POP PUSH2 0x3A6 PUSH1 0x4 DUP1 CALLDATASIZE SUB PUSH1 0x20 DUP2 LT ISZERO PUSH2 0xACC JUMPI PUSH1 0x0 DUP1 REVERT JUMPDEST POP CALLDATALOAD PUSH2 0x2061 JUMP JUMPDEST PUSH1 0x0 DUP1 SLOAD DUP2 SWAP1 PUSH1 0xFF AND PUSH2 0xB1A JUMPI PUSH1 0x40 DUP1 MLOAD PUSH3 0x461BCD PUSH1 0xE5 SHL DUP2 MSTORE PUSH1 0x20 PUSH1 0x4 DUP3 ADD MSTORE PUSH1 0xA PUSH1 0x24 DUP3 ADD MSTORE PUSH10 0x1C994B595B9D195C9959 PUSH1 0xB2 SHL PUSH1 0x44 DUP3 ADD MSTORE SWAP1 MLOAD SWAP1 DUP2 SWAP1 SUB PUSH1 0x64 ADD SWAP1 REVERT JUMPDEST PUSH1 0x0 DUP1 SLOAD PUSH1 0xFF NOT AND DUP2 SSTORE PUSH2 0xB2C PUSH2 0x16F6 JUMP JUMPDEST SWAP1 POP DUP1 ISZERO PUSH2 0xB57 JUMPI PUSH2 0xB4A DUP2 PUSH1 0x10 DUP2 GT ISZERO PUSH2 0xB43 JUMPI INVALID JUMPDEST PUSH1 0x1E PUSH2 0x20DF JUMP JUMPDEST SWAP3 POP PUSH1 0x0 SWAP2 POP PUSH2 0xB67 SWAP1 POP JUMP JUMPDEST PUSH2 0xB61 CALLER DUP6 PUSH2 0x2145 JUMP JUMPDEST SWAP3 POP SWAP3 POP POP JUMPDEST PUSH1 0x0 DUP1 SLOAD PUSH1 0xFF NOT AND PUSH1 0x1 OR SWAP1 SSTORE SWAP1 SWAP3 SWAP1 SWAP2 POP JUMP JUMPDEST DUP2 PUSH2 0xB85 JUMPI PUSH2 0xD77 JUMP JUMPDEST PUSH1 0x60 DUP2 MLOAD PUSH1 0x5 ADD PUSH1 0x40 MLOAD SWAP1 DUP1 DUP3 MSTORE DUP1 PUSH1 0x1F ADD PUSH1 0x1F NOT AND PUSH1 0x20 ADD DUP3 ADD PUSH1 0x40 MSTORE DUP1 ISZERO PUSH2 0xBB6 JUMPI PUSH1 0x20 DUP3 ADD DUP2 DUP1 CODESIZE DUP4 CODECOPY ADD SWAP1 POP JUMPDEST POP SWAP1 POP PUSH1 0x0 JUMPDEST DUP3 MLOAD DUP2 LT ISZERO PUSH2 0xC07 JUMPI DUP3 DUP2 DUP2 MLOAD DUP2 LT PUSH2 0xBD1 JUMPI INVALID JUMPDEST PUSH1 0x20 ADD ADD MLOAD PUSH1 0xF8 SHR PUSH1 0xF8 SHL DUP3 DUP3 DUP2 MLOAD DUP2 LT PUSH2 0xBE8 JUMPI INVALID JUMPDEST PUSH1 0x20 ADD ADD SWAP1 PUSH1 0x1 PUSH1 0x1 PUSH1 0xF8 SHL SUB NOT AND SWAP1 DUP2 PUSH1 0x0 BYTE SWAP1 MSTORE8 POP PUSH1 0x1 ADD PUSH2 0xBBC JUMP JUMPDEST DUP2 MLOAD PUSH1 0x1 PUSH1 0xFD SHL SWAP1 DUP4 SWAP1 DUP4 SWAP1 DUP2 LT PUSH2 0xC1B JUMPI INVALID JUMPDEST PUSH1 0x20 ADD ADD SWAP1 PUSH1 0x1 PUSH1 0x1 PUSH1 0xF8 SHL SUB NOT AND SWAP1 DUP2 PUSH1 0x0 BYTE SWAP1 MSTORE8 POP PUSH1 0x28 PUSH1 0xF8 SHL DUP3 DUP3 PUSH1 0x1 ADD DUP2 MLOAD DUP2 LT PUSH2 0xC46 JUMPI INVALID JUMPDEST PUSH1 0x20 ADD ADD SWAP1 PUSH1 0x1 PUSH1 0x1 PUSH1 0xF8 SHL SUB NOT AND SWAP1 DUP2 PUSH1 0x0 BYTE SWAP1 MSTORE8 POP PUSH1 0xA DUP5 DIV PUSH1 0x30 ADD PUSH1 0xF8 SHL DUP3 DUP3 PUSH1 0x2 ADD DUP2 MLOAD DUP2 LT PUSH2 0xC76 JUMPI INVALID JUMPDEST PUSH1 0x20 ADD ADD SWAP1 PUSH1 0x1 PUSH1 0x1 PUSH1 0xF8 SHL SUB NOT AND SWAP1 DUP2 PUSH1 0x0 BYTE SWAP1 MSTORE8 POP PUSH1 0xA DUP5 MOD PUSH1 0x30 ADD PUSH1 0xF8 SHL DUP3 DUP3 PUSH1 0x3 ADD DUP2 MLOAD DUP2 LT PUSH2 0xCA6 JUMPI INVALID JUMPDEST PUSH1 0x20 ADD ADD SWAP1 PUSH1 0x1 PUSH1 0x1 PUSH1 0xF8 SHL SUB NOT AND SWAP1 DUP2 PUSH1 0x0 BYTE SWAP1 MSTORE8 POP PUSH1 0x29 PUSH1 0xF8 SHL DUP3 DUP3 PUSH1 0x4 ADD DUP2 MLOAD DUP2 LT PUSH2 0xCD1 JUMPI INVALID JUMPDEST PUSH1 0x20 ADD ADD SWAP1 PUSH1 0x1 PUSH1 0x1 PUSH1 0xF8 SHL SUB NOT AND SWAP1 DUP2 PUSH1 0x0 BYTE SWAP1 MSTORE8 POP DUP2 DUP5 ISZERO PUSH2 0xD73 JUMPI PUSH1 0x40 MLOAD PUSH3 0x461BCD PUSH1 0xE5 SHL DUP2 MSTORE PUSH1 0x4 ADD DUP1 DUP1 PUSH1 0x20 ADD DUP3 DUP2 SUB DUP3 MSTORE DUP4 DUP2 DUP2 MLOAD DUP2 MSTORE PUSH1 0x20 ADD SWAP2 POP DUP1 MLOAD SWAP1 PUSH1 0x20 ADD SWAP1 DUP1 DUP4 DUP4 PUSH1 0x0 JUMPDEST DUP4 DUP2 LT ISZERO PUSH2 0xD38 JUMPI DUP2 DUP2 ADD MLOAD DUP4 DUP3 ADD MSTORE PUSH1 0x20 ADD PUSH2 0xD20 JUMP JUMPDEST POP POP POP POP SWAP1 POP SWAP1 DUP2 ADD SWAP1 PUSH1 0x1F AND DUP1 ISZERO PUSH2 0xD65 JUMPI DUP1 DUP3 SUB DUP1 MLOAD PUSH1 0x1 DUP4 PUSH1 0x20 SUB PUSH2 0x100 EXP SUB NOT AND DUP2 MSTORE PUSH1 0x20 ADD SWAP2 POP JUMPDEST POP SWAP3 POP POP POP PUSH1 0x40 MLOAD DUP1 SWAP2 SUB SWAP1 REVERT JUMPDEST POP POP POP JUMPDEST POP POP JUMP JUMPDEST PUSH1 0x1 DUP1 SLOAD PUSH1 0x40 DUP1 MLOAD PUSH1 0x20 PUSH1 0x2 DUP5 DUP7 AND ISZERO PUSH2 0x100 MUL PUSH1 0x0 NOT ADD SWAP1 SWAP5 AND SWAP4 SWAP1 SWAP4 DIV PUSH1 0x1F DUP2 ADD DUP5 SWAP1 DIV DUP5 MUL DUP3 ADD DUP5 ADD SWAP1 SWAP3 MSTORE DUP2 DUP2 MSTORE SWAP3 SWAP2 DUP4 ADD DUP3 DUP3 DUP1 ISZERO PUSH2 0xE00 JUMPI DUP1 PUSH1 0x1F LT PUSH2 0xDD5 JUMPI PUSH2 0x100 DUP1 DUP4 SLOAD DIV MUL DUP4 MSTORE SWAP2 PUSH1 0x20 ADD SWAP2 PUSH2 0xE00 JUMP JUMPDEST DUP3 ADD SWAP2 SWAP1 PUSH1 0x0 MSTORE PUSH1 0x20 PUSH1 0x0 KECCAK256 SWAP1 JUMPDEST DUP2 SLOAD DUP2 MSTORE SWAP1 PUSH1 0x1 ADD SWAP1 PUSH1 0x20 ADD DUP1 DUP4 GT PUSH2 0xDE3 JUMPI DUP3 SWAP1 SUB PUSH1 0x1F AND DUP3 ADD SWAP2 JUMPDEST POP POP POP POP POP DUP2 JUMP JUMPDEST CALLER PUSH1 0x0 DUP2 DUP2 MSTORE PUSH1 0xF PUSH1 0x20 SWAP1 DUP2 MSTORE PUSH1 0x40 DUP1 DUP4 KECCAK256 PUSH1 0x1 PUSH1 0x1 PUSH1 0xA0 SHL SUB DUP8 AND DUP1 DUP6 MSTORE SWAP1 DUP4 MSTORE DUP2 DUP5 KECCAK256 DUP7 SWAP1 SSTORE DUP2 MLOAD DUP7 DUP2 MSTORE SWAP2 MLOAD SWAP4 SWAP5 SWAP4 SWAP1 SWAP3 DUP5 SWAP3 PUSH32 0x8C5BE1E5EBEC7D5BD14F71427D1E84F3DD0314C0F7B2291E5B200AC8C7C3B925 SWAP3 SWAP1 DUP2 SWAP1 SUB SWAP1 SWAP2 ADD SWAP1 LOG3 PUSH1 0x1 SWAP2 POP POP JUMPDEST SWAP3 SWAP2 POP POP JUMP JUMPDEST PUSH1 0x0 PUSH2 0xE80 CALLVALUE PUSH2 0xAD3 JUMP JUMPDEST POP SWAP1 POP PUSH2 0xEB0 DUP2 PUSH1 0x40 MLOAD DUP1 PUSH1 0x40 ADD PUSH1 0x40 MSTORE DUP1 PUSH1 0xB DUP2 MSTORE PUSH1 0x20 ADD PUSH11 0x1B5A5B9D0819985A5B1959 PUSH1 0xAA SHL DUP2 MSTORE POP PUSH2 0xB7B JUMP JUMPDEST POP JUMP JUMPDEST PUSH1 0x8 SLOAD DUP2 JUMP JUMPDEST PUSH1 0x0 DUP1 SLOAD PUSH1 0xFF AND PUSH2 0xEFE JUMPI PUSH1 0x40 DUP1 MLOAD PUSH3 0x461BCD PUSH1 0xE5 SHL DUP2 MSTORE PUSH1 0x20 PUSH1 0x4 DUP3 ADD MSTORE PUSH1 0xA PUSH1 0x24 DUP3 ADD MSTORE PUSH10 0x1C994B595B9D195C9959 PUSH1 0xB2 SHL PUSH1 0x44 DUP3 ADD MSTORE SWAP1 MLOAD SWAP1 DUP2 SWAP1 SUB PUSH1 0x64 ADD SWAP1 REVERT JUMPDEST PUSH1 0x0 DUP1 SLOAD PUSH1 0xFF NOT AND DUP2 SSTORE PUSH2 0xF10 PUSH2 0x16F6 JUMP JUMPDEST EQ PUSH2 0xF5B JUMPI PUSH1 0x40 DUP1 MLOAD PUSH3 0x461BCD PUSH1 0xE5 SHL DUP2 MSTORE PUSH1 0x20 PUSH1 0x4 DUP3 ADD MSTORE PUSH1 0x16 PUSH1 0x24 DUP3 ADD MSTORE PUSH22 0x1858D8DC9D59481A5B9D195C995CDD0819985A5B1959 PUSH1 0x52 SHL PUSH1 0x44 DUP3 ADD MSTORE SWAP1 MLOAD SWAP1 DUP2 SWAP1 SUB PUSH1 0x64 ADD SWAP1 REVERT JUMPDEST PUSH2 0xF64 DUP3 PUSH2 0x14B2 JUMP JUMPDEST SWAP1 POP JUMPDEST PUSH1 0x0 DUP1 SLOAD PUSH1 0xFF NOT AND PUSH1 0x1 OR SWAP1 SSTORE SWAP2 SWAP1 POP JUMP JUMPDEST PUSH1 0xD SLOAD DUP2 JUMP JUMPDEST PUSH1 0x0 DUP1 PUSH1 0x0 PUSH2 0xF8C PUSH2 0x2517 JUMP JUMPDEST SWAP1 SWAP3 POP SWAP1 POP PUSH1 0x0 DUP3 PUSH1 0x3 DUP2 GT ISZERO PUSH2 0xF9F JUMPI INVALID JUMPDEST EQ PUSH2 0xFDB JUMPI PUSH1 0x40 MLOAD PUSH3 0x461BCD PUSH1 0xE5 SHL DUP2 MSTORE PUSH1 0x4 ADD DUP1 DUP1 PUSH1 0x20 ADD DUP3 DUP2 SUB DUP3 MSTORE PUSH1 0x35 DUP2 MSTORE PUSH1 0x20 ADD DUP1 PUSH2 0x495F PUSH1 0x35 SWAP2 CODECOPY PUSH1 0x40 ADD SWAP2 POP POP PUSH1 0x40 MLOAD DUP1 SWAP2 SUB SWAP1 REVERT JUMPDEST SWAP2 POP POP JUMPDEST SWAP1 JUMP JUMPDEST PUSH1 0x0 DUP1 SLOAD PUSH1 0xFF AND PUSH2 0x1027 JUMPI PUSH1 0x40 DUP1 MLOAD PUSH3 0x461BCD PUSH1 0xE5 SHL DUP2 MSTORE PUSH1 0x20 PUSH1 0x4 DUP3 ADD MSTORE PUSH1 0xA PUSH1 0x24 DUP3 ADD MSTORE PUSH10 0x1C994B595B9D195C9959 PUSH1 0xB2 SHL PUSH1 0x44 DUP3 ADD MSTORE SWAP1 MLOAD SWAP1 DUP2 SWAP1 SUB PUSH1 0x64 ADD SWAP1 REVERT JUMPDEST PUSH1 0x0 DUP1 SLOAD PUSH1 0xFF NOT AND DUP2 SSTORE PUSH2 0x103D CALLER DUP7 DUP7 DUP7 PUSH2 0x25C6 JUMP JUMPDEST EQ SWAP1 POP PUSH1 0x0 DUP1 SLOAD PUSH1 0xFF NOT AND PUSH1 0x1 OR SWAP1 SSTORE SWAP4 SWAP3 POP POP POP JUMP JUMPDEST PUSH1 0x4 SLOAD PUSH1 0x1 PUSH1 0x1 PUSH1 0xA0 SHL SUB AND DUP2 JUMP JUMPDEST PUSH1 0x3 SLOAD PUSH1 0xFF AND DUP2 JUMP JUMPDEST PUSH1 0x1 DUP2 JUMP JUMPDEST PUSH1 0x0 PUSH2 0x107B PUSH2 0x464D JUMP JUMPDEST PUSH1 0x40 MLOAD DUP1 PUSH1 0x20 ADD PUSH1 0x40 MSTORE DUP1 PUSH2 0x108E PUSH2 0x1CAE JUMP JUMPDEST SWAP1 MSTORE PUSH1 0x1 PUSH1 0x1 PUSH1 0xA0 SHL SUB DUP5 AND PUSH1 0x0 SWAP1 DUP2 MSTORE PUSH1 0xE PUSH1 0x20 MSTORE PUSH1 0x40 DUP2 KECCAK256 SLOAD SWAP2 SWAP3 POP SWAP1 DUP2 SWAP1 PUSH2 0x10BA SWAP1 DUP5 SWAP1 PUSH2 0x2854 JUMP JUMPDEST SWAP1 SWAP3 POP SWAP1 POP PUSH1 0x0 DUP3 PUSH1 0x3 DUP2 GT ISZERO PUSH2 0x10CD JUMPI INVALID JUMPDEST EQ PUSH2 0x111F JUMPI PUSH1 0x40 DUP1 MLOAD PUSH3 0x461BCD PUSH1 0xE5 SHL DUP2 MSTORE PUSH1 0x20 PUSH1 0x4 DUP3 ADD MSTORE PUSH1 0x1F PUSH1 0x24 DUP3 ADD MSTORE PUSH32 0x62616C616E636520636F756C64206E6F742062652063616C63756C6174656400 PUSH1 0x44 DUP3 ADD MSTORE SWAP1 MLOAD SWAP1 DUP2 SWAP1 SUB PUSH1 0x64 ADD SWAP1 REVERT JUMPDEST SWAP3 POP POP POP JUMPDEST SWAP2 SWAP1 POP JUMP JUMPDEST PUSH1 0x0 PUSH2 0x1133 PUSH2 0x28A7 JUMP JUMPDEST SWAP1 POP SWAP1 JUMP JUMPDEST PUSH1 0xB SLOAD DUP2 JUMP JUMPDEST PUSH1 0x0 PUSH2 0x1149 CALLVALUE PUSH2 0x28D3 JUMP JUMPDEST POP SWAP1 POP PUSH2 0xEB0 DUP2 PUSH1 0x40 MLOAD DUP1 PUSH1 0x40 ADD PUSH1 0x40 MSTORE DUP1 PUSH1 0x12 DUP2 MSTORE PUSH1 0x20 ADD PUSH18 0x1C995C185E509BDC9C9BDDC819985A5B1959 PUSH1 0x72 SHL DUP2 MSTORE POP PUSH2 0xB7B JUMP JUMPDEST PUSH1 0x0 DUP1 SLOAD PUSH1 0xFF AND PUSH2 0x11C5 JUMPI PUSH1 0x40 DUP1 MLOAD PUSH3 0x461BCD PUSH1 0xE5 SHL DUP2 MSTORE PUSH1 0x20 PUSH1 0x4 DUP3 ADD MSTORE PUSH1 0xA PUSH1 0x24 DUP3 ADD MSTORE PUSH10 0x1C994B595B9D195C9959 PUSH1 0xB2 SHL PUSH1 0x44 DUP3 ADD MSTORE SWAP1 MLOAD SWAP1 DUP2 SWAP1 SUB PUSH1 0x64 ADD SWAP1 REVERT JUMPDEST PUSH1 0x0 DUP1 SLOAD PUSH1 0xFF NOT AND DUP2 SSTORE PUSH2 0x11D7 PUSH2 0x16F6 JUMP JUMPDEST SWAP1 POP DUP1 ISZERO PUSH2 0x11FD JUMPI PUSH2 0x11F5 DUP2 PUSH1 0x10 DUP2 GT ISZERO PUSH2 0x11EE JUMPI INVALID JUMPDEST PUSH1 0x30 PUSH2 0x20DF JUMP JUMPDEST SWAP2 POP POP PUSH2 0xF67 JUMP JUMPDEST PUSH2 0x1206 DUP4 PUSH2 0x2955 JUMP JUMPDEST SWAP2 POP POP PUSH1 0x0 DUP1 SLOAD PUSH1 0xFF NOT AND PUSH1 0x1 OR SWAP1 SSTORE SWAP2 SWAP1 POP JUMP JUMPDEST PUSH1 0x9 SLOAD DUP2 JUMP JUMPDEST PUSH1 0x3 SLOAD PUSH1 0x0 SWAP1 PUSH2 0x100 SWAP1 DIV PUSH1 0x1 PUSH1 0x1 PUSH1 0xA0 SHL SUB AND CALLER EQ PUSH2 0x124E JUMPI PUSH2 0x1247 PUSH1 0x1 PUSH1 0x3F PUSH2 0x20DF JUMP JUMPDEST SWAP1 POP PUSH2 0x1124 JUMP JUMPDEST PUSH1 0x5 SLOAD PUSH1 0x40 DUP1 MLOAD PUSH4 0xD8A72ACB PUSH1 0xE0 SHL DUP2 MSTORE SWAP1 MLOAD PUSH1 0x1 PUSH1 0x1 PUSH1 0xA0 SHL SUB SWAP3 DUP4 AND SWAP3 DUP6 AND SWAP2 PUSH4 0xD8A72ACB SWAP2 PUSH1 0x4 DUP1 DUP4 ADD SWAP3 PUSH1 0x20 SWAP3 SWAP2 SWAP1 DUP3 SWAP1 SUB ADD DUP2 DUP7 DUP1 EXTCODESIZE ISZERO DUP1 ISZERO PUSH2 0x1295 JUMPI PUSH1 0x0 DUP1 REVERT JUMPDEST POP GAS STATICCALL ISZERO DUP1 ISZERO PUSH2 0x12A9 JUMPI RETURNDATASIZE PUSH1 0x0 DUP1 RETURNDATACOPY RETURNDATASIZE PUSH1 0x0 REVERT JUMPDEST POP POP POP POP PUSH1 0x40 MLOAD RETURNDATASIZE PUSH1 0x20 DUP2 LT ISZERO PUSH2 0x12BF JUMPI PUSH1 0x0 DUP1 REVERT JUMPDEST POP MLOAD PUSH2 0x1312 JUMPI PUSH1 0x40 DUP1 MLOAD PUSH3 0x461BCD PUSH1 0xE5 SHL DUP2 MSTORE PUSH1 0x20 PUSH1 0x4 DUP3 ADD MSTORE PUSH1 0x1C PUSH1 0x24 DUP3 ADD MSTORE PUSH32 0x6D61726B6572206D6574686F642072657475726E65642066616C736500000000 PUSH1 0x44 DUP3 ADD MSTORE SWAP1 MLOAD SWAP1 DUP2 SWAP1 SUB PUSH1 0x64 ADD SWAP1 REVERT JUMPDEST PUSH1 0x5 DUP1 SLOAD PUSH1 0x1 PUSH1 0x1 PUSH1 0xA0 SHL SUB NOT AND PUSH1 0x1 PUSH1 0x1 PUSH1 0xA0 SHL SUB DUP6 DUP2 AND SWAP2 DUP3 OR SWAP1 SWAP3 SSTORE PUSH1 0x40 DUP1 MLOAD SWAP3 DUP5 AND DUP4 MSTORE PUSH1 0x20 DUP4 ADD SWAP2 SWAP1 SWAP2 MSTORE DUP1 MLOAD PUSH32 0xE4CBAEDA07BDCBCDB1168B355A1A57D377F426F2B049DFB311395A0C6043937D SWAP3 DUP2 SWAP1 SUB SWAP1 SWAP2 ADD SWAP1 LOG1 PUSH1 0x0 JUMPDEST SWAP4 SWAP3 POP POP POP JUMP JUMPDEST PUSH1 0x1 PUSH1 0x1 PUSH1 0xA0 SHL SUB AND PUSH1 0x0 SWAP1 DUP2 MSTORE PUSH1 0xE PUSH1 0x20 MSTORE PUSH1 0x40 SWAP1 KECCAK256 SLOAD SWAP1 JUMP JUMPDEST PUSH1 0x0 DUP1 SLOAD PUSH1 0xFF AND PUSH2 0x13D8 JUMPI PUSH1 0x40 DUP1 MLOAD PUSH3 0x461BCD PUSH1 0xE5 SHL DUP2 MSTORE PUSH1 0x20 PUSH1 0x4 DUP3 ADD MSTORE PUSH1 0xA PUSH1 0x24 DUP3 ADD MSTORE PUSH10 0x1C994B595B9D195C9959 PUSH1 0xB2 SHL PUSH1 0x44 DUP3 ADD MSTORE SWAP1 MLOAD SWAP1 DUP2 SWAP1 SUB PUSH1 0x64 ADD SWAP1 REVERT JUMPDEST PUSH1 0x0 DUP1 SLOAD PUSH1 0xFF NOT AND DUP2 SSTORE PUSH2 0x13EA PUSH2 0x16F6 JUMP JUMPDEST EQ PUSH2 0x1435 JUMPI PUSH1 0x40 DUP1 MLOAD PUSH3 0x461BCD PUSH1 0xE5 SHL DUP2 MSTORE PUSH1 0x20 PUSH1 0x4 DUP3 ADD MSTORE PUSH1 0x16 PUSH1 0x24 DUP3 ADD MSTORE PUSH22 0x1858D8DC9D59481A5B9D195C995CDD0819985A5B1959 PUSH1 0x52 SHL PUSH1 0x44 DUP3 ADD MSTORE SWAP1 MLOAD SWAP1 DUP2 SWAP1 SUB PUSH1 0x64 ADD SWAP1 REVERT JUMPDEST POP PUSH1 0xB SLOAD PUSH1 0x0 DUP1 SLOAD PUSH1 0xFF NOT AND PUSH1 0x1 OR SWAP1 SSTORE SWAP1 JUMP JUMPDEST PUSH1 0x0 PUSH2 0xE6F DUP3 PUSH2 0x2A88 JUMP JUMPDEST PUSH1 0xC SLOAD DUP2 JUMP JUMPDEST PUSH1 0x2 DUP1 SLOAD PUSH1 0x40 DUP1 MLOAD PUSH1 0x20 PUSH1 0x1 DUP5 AND ISZERO PUSH2 0x100 MUL PUSH1 0x0 NOT ADD SWAP1 SWAP4 AND DUP5 SWAP1 DIV PUSH1 0x1F DUP2 ADD DUP5 SWAP1 DIV DUP5 MUL DUP3 ADD DUP5 ADD SWAP1 SWAP3 MSTORE DUP2 DUP2 MSTORE SWAP3 SWAP2 DUP4 ADD DUP3 DUP3 DUP1 ISZERO PUSH2 0xE00 JUMPI DUP1 PUSH1 0x1F LT PUSH2 0xDD5 JUMPI PUSH2 0x100 DUP1 DUP4 SLOAD DIV MUL DUP4 MSTORE SWAP2 PUSH1 0x20 ADD SWAP2 PUSH2 0xE00 JUMP JUMPDEST PUSH1 0x0 DUP1 PUSH1 0x0 PUSH2 0x14C0 DUP5 PUSH2 0x2B09 JUMP JUMPDEST SWAP1 SWAP3 POP SWAP1 POP PUSH1 0x0 DUP3 PUSH1 0x3 DUP2 GT ISZERO PUSH2 0x14D3 JUMPI INVALID JUMPDEST EQ PUSH2 0x1371 JUMPI PUSH1 0x40 MLOAD PUSH3 0x461BCD PUSH1 0xE5 SHL DUP2 MSTORE PUSH1 0x4 ADD DUP1 DUP1 PUSH1 0x20 ADD DUP3 DUP2 SUB DUP3 MSTORE PUSH1 0x37 DUP2 MSTORE PUSH1 0x20 ADD DUP1 PUSH2 0x486A PUSH1 0x37 SWAP2 CODECOPY PUSH1 0x40 ADD SWAP2 POP POP PUSH1 0x40 MLOAD DUP1 SWAP2 SUB SWAP1 REVERT JUMPDEST PUSH1 0x3 SLOAD PUSH2 0x100 SWAP1 DIV PUSH1 0x1 PUSH1 0x1 PUSH1 0xA0 SHL SUB AND CALLER EQ PUSH2 0x155D JUMPI PUSH1 0x40 MLOAD PUSH3 0x461BCD PUSH1 0xE5 SHL DUP2 MSTORE PUSH1 0x4 ADD DUP1 DUP1 PUSH1 0x20 ADD DUP3 DUP2 SUB DUP3 MSTORE PUSH1 0x24 DUP2 MSTORE PUSH1 0x20 ADD DUP1 PUSH2 0x47A6 PUSH1 0x24 SWAP2 CODECOPY PUSH1 0x40 ADD SWAP2 POP POP PUSH1 0x40 MLOAD DUP1 SWAP2 SUB SWAP1 REVERT JUMPDEST PUSH1 0x9 SLOAD ISZERO DUP1 ISZERO PUSH2 0x156D JUMPI POP PUSH1 0xA SLOAD ISZERO JUMPDEST PUSH2 0x15A8 JUMPI PUSH1 0x40 MLOAD PUSH3 0x461BCD PUSH1 0xE5 SHL DUP2 MSTORE PUSH1 0x4 ADD DUP1 DUP1 PUSH1 0x20 ADD DUP3 DUP2 SUB DUP3 MSTORE PUSH1 0x23 DUP2 MSTORE PUSH1 0x20 ADD DUP1 PUSH2 0x47CA PUSH1 0x23 SWAP2 CODECOPY PUSH1 0x40 ADD SWAP2 POP POP PUSH1 0x40 MLOAD DUP1 SWAP2 SUB SWAP1 REVERT JUMPDEST PUSH1 0x7 DUP5 SWAP1 SSTORE DUP4 PUSH2 0x15E9 JUMPI PUSH1 0x40 MLOAD PUSH3 0x461BCD PUSH1 0xE5 SHL DUP2 MSTORE PUSH1 0x4 ADD DUP1 DUP1 PUSH1 0x20 ADD DUP3 DUP2 SUB DUP3 MSTORE PUSH1 0x30 DUP2 MSTORE PUSH1 0x20 ADD DUP1 PUSH2 0x47ED PUSH1 0x30 SWAP2 CODECOPY PUSH1 0x40 ADD SWAP2 POP POP PUSH1 0x40 MLOAD DUP1 SWAP2 SUB SWAP1 REVERT JUMPDEST PUSH1 0x0 PUSH2 0x15F4 DUP8 PUSH2 0x1221 JUMP JUMPDEST SWAP1 POP DUP1 ISZERO PUSH2 0x1649 JUMPI PUSH1 0x40 DUP1 MLOAD PUSH3 0x461BCD PUSH1 0xE5 SHL DUP2 MSTORE PUSH1 0x20 PUSH1 0x4 DUP3 ADD MSTORE PUSH1 0x1A PUSH1 0x24 DUP3 ADD MSTORE PUSH32 0x73657474696E672064616E6B74726F6C6C6572206661696C6564000000000000 PUSH1 0x44 DUP3 ADD MSTORE SWAP1 MLOAD SWAP1 DUP2 SWAP1 SUB PUSH1 0x64 ADD SWAP1 REVERT JUMPDEST PUSH2 0x1651 PUSH2 0x2BBD JUMP JUMPDEST PUSH1 0x9 SSTORE PUSH8 0xDE0B6B3A7640000 PUSH1 0xA SSTORE PUSH2 0x1669 DUP7 PUSH2 0x2BC1 JUMP JUMPDEST SWAP1 POP DUP1 ISZERO PUSH2 0x16A8 JUMPI PUSH1 0x40 MLOAD PUSH3 0x461BCD PUSH1 0xE5 SHL DUP2 MSTORE PUSH1 0x4 ADD DUP1 DUP1 PUSH1 0x20 ADD DUP3 DUP2 SUB DUP3 MSTORE PUSH1 0x22 DUP2 MSTORE PUSH1 0x20 ADD DUP1 PUSH2 0x481D PUSH1 0x22 SWAP2 CODECOPY PUSH1 0x40 ADD SWAP2 POP POP PUSH1 0x40 MLOAD DUP1 SWAP2 SUB SWAP1 REVERT JUMPDEST DUP4 MLOAD PUSH2 0x16BB SWAP1 PUSH1 0x1 SWAP1 PUSH1 0x20 DUP8 ADD SWAP1 PUSH2 0x4660 JUMP JUMPDEST POP DUP3 MLOAD PUSH2 0x16CF SWAP1 PUSH1 0x2 SWAP1 PUSH1 0x20 DUP7 ADD SWAP1 PUSH2 0x4660 JUMP JUMPDEST POP POP PUSH1 0x3 DUP1 SLOAD PUSH1 0xFF SWAP1 SWAP3 AND PUSH1 0xFF NOT SWAP3 DUP4 AND OR SWAP1 SSTORE PUSH1 0x0 DUP1 SLOAD SWAP1 SWAP2 AND PUSH1 0x1 OR SWAP1 SSTORE POP POP POP POP POP JUMP JUMPDEST PUSH1 0x0 DUP1 PUSH2 0x1701 PUSH2 0x2BBD JUMP JUMPDEST PUSH1 0x9 SLOAD SWAP1 SWAP2 POP DUP1 DUP3 EQ ISZERO PUSH2 0x171A JUMPI PUSH1 0x0 SWAP3 POP POP POP PUSH2 0xFDF JUMP JUMPDEST PUSH1 0x0 PUSH2 0x1724 PUSH2 0x28A7 JUMP JUMPDEST PUSH1 0xB SLOAD PUSH1 0xC SLOAD PUSH1 0xA SLOAD PUSH1 0x6 SLOAD PUSH1 0x40 DUP1 MLOAD PUSH4 0x15F24053 PUSH1 0xE0 SHL DUP2 MSTORE PUSH1 0x4 DUP2 ADD DUP8 SWAP1 MSTORE PUSH1 0x24 DUP2 ADD DUP7 SWAP1 MSTORE PUSH1 0x44 DUP2 ADD DUP6 SWAP1 MSTORE SWAP1 MLOAD SWAP6 SWAP7 POP SWAP4 SWAP5 SWAP3 SWAP4 SWAP2 SWAP3 PUSH1 0x0 SWAP3 PUSH1 0x1 PUSH1 0x1 PUSH1 0xA0 SHL SUB SWAP1 SWAP3 AND SWAP2 PUSH4 0x15F24053 SWAP2 PUSH1 0x64 DUP1 DUP4 ADD SWAP3 PUSH1 0x20 SWAP3 SWAP2 SWAP1 DUP3 SWAP1 SUB ADD DUP2 DUP7 DUP1 EXTCODESIZE ISZERO DUP1 ISZERO PUSH2 0x1792 JUMPI PUSH1 0x0 DUP1 REVERT JUMPDEST POP GAS STATICCALL ISZERO DUP1 ISZERO PUSH2 0x17A6 JUMPI RETURNDATASIZE PUSH1 0x0 DUP1 RETURNDATACOPY RETURNDATASIZE PUSH1 0x0 REVERT JUMPDEST POP POP POP POP PUSH1 0x40 MLOAD RETURNDATASIZE PUSH1 0x20 DUP2 LT ISZERO PUSH2 0x17BC JUMPI PUSH1 0x0 DUP1 REVERT JUMPDEST POP MLOAD SWAP1 POP PUSH6 0x48C27395000 DUP2 GT ISZERO PUSH2 0x181B JUMPI PUSH1 0x40 DUP1 MLOAD PUSH3 0x461BCD PUSH1 0xE5 SHL DUP2 MSTORE PUSH1 0x20 PUSH1 0x4 DUP3 ADD MSTORE PUSH1 0x1C PUSH1 0x24 DUP3 ADD MSTORE PUSH32 0x626F72726F772072617465206973206162737572646C79206869676800000000 PUSH1 0x44 DUP3 ADD MSTORE SWAP1 MLOAD SWAP1 DUP2 SWAP1 SUB PUSH1 0x64 ADD SWAP1 REVERT JUMPDEST PUSH1 0x0 DUP1 PUSH2 0x1828 DUP10 DUP10 PUSH2 0x2D36 JUMP JUMPDEST SWAP1 SWAP3 POP SWAP1 POP PUSH1 0x0 DUP3 PUSH1 0x3 DUP2 GT ISZERO PUSH2 0x183B JUMPI INVALID JUMPDEST EQ PUSH2 0x188D JUMPI PUSH1 0x40 DUP1 MLOAD PUSH3 0x461BCD PUSH1 0xE5 SHL DUP2 MSTORE PUSH1 0x20 PUSH1 0x4 DUP3 ADD MSTORE PUSH1 0x1F PUSH1 0x24 DUP3 ADD MSTORE PUSH32 0x636F756C64206E6F742063616C63756C61746520626C6F636B2064656C746100 PUSH1 0x44 DUP3 ADD MSTORE SWAP1 MLOAD SWAP1 DUP2 SWAP1 SUB PUSH1 0x64 ADD SWAP1 REVERT JUMPDEST PUSH2 0x1895 PUSH2 0x464D JUMP JUMPDEST PUSH1 0x0 DUP1 PUSH1 0x0 DUP1 PUSH2 0x18B3 PUSH1 0x40 MLOAD DUP1 PUSH1 0x20 ADD PUSH1 0x40 MSTORE DUP1 DUP11 DUP2 MSTORE POP DUP8 PUSH2 0x2D59 JUMP JUMPDEST SWAP1 SWAP8 POP SWAP5 POP PUSH1 0x0 DUP8 PUSH1 0x3 DUP2 GT ISZERO PUSH2 0x18C6 JUMPI INVALID JUMPDEST EQ PUSH2 0x18F8 JUMPI PUSH2 0x18E3 PUSH1 0x9 PUSH1 0x6 DUP10 PUSH1 0x3 DUP2 GT ISZERO PUSH2 0x18DE JUMPI INVALID JUMPDEST PUSH2 0x2DC1 JUMP JUMPDEST SWAP15 POP POP POP POP POP POP POP POP POP POP POP POP POP POP POP PUSH2 0xFDF JUMP JUMPDEST PUSH2 0x1902 DUP6 DUP13 PUSH2 0x2854 JUMP JUMPDEST SWAP1 SWAP8 POP SWAP4 POP PUSH1 0x0 DUP8 PUSH1 0x3 DUP2 GT ISZERO PUSH2 0x1915 JUMPI INVALID JUMPDEST EQ PUSH2 0x192D JUMPI PUSH2 0x18E3 PUSH1 0x9 PUSH1 0x1 DUP10 PUSH1 0x3 DUP2 GT ISZERO PUSH2 0x18DE JUMPI INVALID JUMPDEST PUSH2 0x1937 DUP5 DUP13 PUSH2 0x2E27 JUMP JUMPDEST SWAP1 SWAP8 POP SWAP3 POP PUSH1 0x0 DUP8 PUSH1 0x3 DUP2 GT ISZERO PUSH2 0x194A JUMPI INVALID JUMPDEST EQ PUSH2 0x1962 JUMPI PUSH2 0x18E3 PUSH1 0x9 PUSH1 0x4 DUP10 PUSH1 0x3 DUP2 GT ISZERO PUSH2 0x18DE JUMPI INVALID JUMPDEST PUSH2 0x197D PUSH1 0x40 MLOAD DUP1 PUSH1 0x20 ADD PUSH1 0x40 MSTORE DUP1 PUSH1 0x8 SLOAD DUP2 MSTORE POP DUP6 DUP13 PUSH2 0x2E4D JUMP JUMPDEST SWAP1 SWAP8 POP SWAP2 POP PUSH1 0x0 DUP8 PUSH1 0x3 DUP2 GT ISZERO PUSH2 0x1990 JUMPI INVALID JUMPDEST EQ PUSH2 0x19A8 JUMPI PUSH2 0x18E3 PUSH1 0x9 PUSH1 0x5 DUP10 PUSH1 0x3 DUP2 GT ISZERO PUSH2 0x18DE JUMPI INVALID JUMPDEST PUSH2 0x19B3 DUP6 DUP11 DUP12 PUSH2 0x2E4D JUMP JUMPDEST SWAP1 SWAP8 POP SWAP1 POP PUSH1 0x0 DUP8 PUSH1 0x3 DUP2 GT ISZERO PUSH2 0x19C6 JUMPI INVALID JUMPDEST EQ PUSH2 0x19DE JUMPI PUSH2 0x18E3 PUSH1 0x9 PUSH1 0x3 DUP10 PUSH1 0x3 DUP2 GT ISZERO PUSH2 0x18DE JUMPI INVALID JUMPDEST PUSH1 0x9 DUP15 SWAP1 SSTORE PUSH1 0xA DUP2 SWAP1 SSTORE PUSH1 0xB DUP4 SWAP1 SSTORE PUSH1 0xC DUP3 SWAP1 SSTORE PUSH1 0x40 DUP1 MLOAD DUP14 DUP2 MSTORE PUSH1 0x20 DUP2 ADD DUP7 SWAP1 MSTORE DUP1 DUP3 ADD DUP4 SWAP1 MSTORE PUSH1 0x60 DUP2 ADD DUP6 SWAP1 MSTORE SWAP1 MLOAD PUSH32 0x4DEC04E750CA11537CABCD8A9EAB06494DE08DA3735BC8871CD41250E190BC04 SWAP2 DUP2 SWAP1 SUB PUSH1 0x80 ADD SWAP1 LOG1 PUSH1 0x0 SWAP15 POP POP POP POP POP POP POP POP POP POP POP POP POP POP POP SWAP1 JUMP JUMPDEST PUSH1 0x0 DUP1 SLOAD PUSH1 0xFF AND PUSH2 0x1A93 JUMPI PUSH1 0x40 DUP1 MLOAD PUSH3 0x461BCD PUSH1 0xE5 SHL DUP2 MSTORE PUSH1 0x20 PUSH1 0x4 DUP3 ADD MSTORE PUSH1 0xA PUSH1 0x24 DUP3 ADD MSTORE PUSH10 0x1C994B595B9D195C9959 PUSH1 0xB2 SHL PUSH1 0x44 DUP3 ADD MSTORE SWAP1 MLOAD SWAP1 DUP2 SWAP1 SUB PUSH1 0x64 ADD SWAP1 REVERT JUMPDEST PUSH1 0x0 DUP1 SLOAD PUSH1 0xFF NOT AND DUP2 SSTORE PUSH2 0x1AA9 CALLER CALLER DUP7 DUP7 PUSH2 0x25C6 JUMP JUMPDEST EQ SWAP1 POP PUSH1 0x0 DUP1 SLOAD PUSH1 0xFF NOT AND PUSH1 0x1 OR SWAP1 SSTORE SWAP3 SWAP2 POP POP JUMP JUMPDEST PUSH1 0xA SLOAD DUP2 JUMP JUMPDEST PUSH1 0x0 PUSH2 0x1AD2 DUP4 CALLVALUE DUP5 PUSH2 0x2EA9 JUMP JUMPDEST POP SWAP1 POP PUSH2 0x1B0D DUP2 PUSH1 0x40 MLOAD DUP1 PUSH1 0x40 ADD PUSH1 0x40 MSTORE DUP1 PUSH1 0x16 DUP2 MSTORE PUSH1 0x20 ADD PUSH22 0x1B1A5C5D5A59185D19509BDC9C9BDDC819985A5B1959 PUSH1 0x52 SHL DUP2 MSTORE POP PUSH2 0xB7B JUMP JUMPDEST POP POP POP JUMP JUMPDEST PUSH1 0x6 SLOAD PUSH1 0x0 SWAP1 PUSH1 0x1 PUSH1 0x1 PUSH1 0xA0 SHL SUB AND PUSH4 0xB8168816 PUSH2 0x1B2E PUSH2 0x28A7 JUMP JUMPDEST PUSH1 0xB SLOAD PUSH1 0xC SLOAD PUSH1 0x8 SLOAD PUSH1 0x40 MLOAD DUP6 PUSH4 0xFFFFFFFF AND PUSH1 0xE0 SHL DUP2 MSTORE PUSH1 0x4 ADD DUP1 DUP6 DUP2 MSTORE PUSH1 0x20 ADD DUP5 DUP2 MSTORE PUSH1 0x20 ADD DUP4 DUP2 MSTORE PUSH1 0x20 ADD DUP3 DUP2 MSTORE PUSH1 0x20 ADD SWAP5 POP POP POP POP POP PUSH1 0x20 PUSH1 0x40 MLOAD DUP1 DUP4 SUB DUP2 DUP7 DUP1 EXTCODESIZE ISZERO DUP1 ISZERO PUSH2 0x1B80 JUMPI PUSH1 0x0 DUP1 REVERT JUMPDEST POP GAS STATICCALL ISZERO DUP1 ISZERO PUSH2 0x1B94 JUMPI RETURNDATASIZE PUSH1 0x0 DUP1 RETURNDATACOPY RETURNDATASIZE PUSH1 0x0 REVERT JUMPDEST POP POP POP POP PUSH1 0x40 MLOAD RETURNDATASIZE PUSH1 0x20 DUP2 LT ISZERO PUSH2 0x1BAA JUMPI PUSH1 0x0 DUP1 REVERT JUMPDEST POP MLOAD SWAP1 POP SWAP1 JUMP JUMPDEST PUSH1 0x0 DUP1 SLOAD PUSH1 0xFF AND PUSH2 0x1BF6 JUMPI PUSH1 0x40 DUP1 MLOAD PUSH3 0x461BCD PUSH1 0xE5 SHL DUP2 MSTORE PUSH1 0x20 PUSH1 0x4 DUP3 ADD MSTORE PUSH1 0xA PUSH1 0x24 DUP3 ADD MSTORE PUSH10 0x1C994B595B9D195C9959 PUSH1 0xB2 SHL PUSH1 0x44 DUP3 ADD MSTORE SWAP1 MLOAD SWAP1 DUP2 SWAP1 SUB PUSH1 0x64 ADD SWAP1 REVERT JUMPDEST PUSH1 0x0 DUP1 SLOAD PUSH1 0xFF NOT AND SWAP1 SSTORE PUSH2 0x1C0C CALLER DUP6 DUP6 DUP6 PUSH2 0x2FDB JUMP JUMPDEST SWAP1 POP PUSH1 0x0 DUP1 SLOAD PUSH1 0xFF NOT AND PUSH1 0x1 OR SWAP1 SSTORE SWAP4 SWAP3 POP POP POP JUMP JUMPDEST PUSH1 0x3 SLOAD PUSH1 0x0 SWAP1 PUSH2 0x100 SWAP1 DIV PUSH1 0x1 PUSH1 0x1 PUSH1 0xA0 SHL SUB AND CALLER EQ PUSH2 0x1C48 JUMPI PUSH2 0x1247 PUSH1 0x1 PUSH1 0x45 PUSH2 0x20DF JUMP JUMPDEST PUSH1 0x4 DUP1 SLOAD PUSH1 0x1 PUSH1 0x1 PUSH1 0xA0 SHL SUB DUP5 DUP2 AND PUSH1 0x1 PUSH1 0x1 PUSH1 0xA0 SHL SUB NOT DUP4 AND DUP2 OR SWAP1 SWAP4 SSTORE PUSH1 0x40 DUP1 MLOAD SWAP2 SWAP1 SWAP3 AND DUP1 DUP3 MSTORE PUSH1 0x20 DUP3 ADD SWAP4 SWAP1 SWAP4 MSTORE DUP2 MLOAD PUSH32 0xCA4F2F25D0898EDD99413412FB94012F9E54EC8142F9B093E7720646A95B16A9 SWAP3 SWAP2 DUP2 SWAP1 SUB SWAP1 SWAP2 ADD SWAP1 LOG1 PUSH1 0x0 PUSH2 0x1371 JUMP JUMPDEST PUSH1 0x0 DUP1 SLOAD PUSH1 0xFF AND PUSH2 0x1CF3 JUMPI PUSH1 0x40 DUP1 MLOAD PUSH3 0x461BCD PUSH1 0xE5 SHL DUP2 MSTORE PUSH1 0x20 PUSH1 0x4 DUP3 ADD MSTORE PUSH1 0xA PUSH1 0x24 DUP3 ADD MSTORE PUSH10 0x1C994B595B9D195C9959 PUSH1 0xB2 SHL PUSH1 0x44 DUP3 ADD MSTORE SWAP1 MLOAD SWAP1 DUP2 SWAP1 SUB PUSH1 0x64 ADD SWAP1 REVERT JUMPDEST PUSH1 0x0 DUP1 SLOAD PUSH1 0xFF NOT AND DUP2 SSTORE PUSH2 0x1D05 PUSH2 0x16F6 JUMP JUMPDEST EQ PUSH2 0x1D50 JUMPI PUSH1 0x40 DUP1 MLOAD PUSH3 0x461BCD PUSH1 0xE5 SHL DUP2 MSTORE PUSH1 0x20 PUSH1 0x4 DUP3 ADD MSTORE PUSH1 0x16 PUSH1 0x24 DUP3 ADD MSTORE PUSH22 0x1858D8DC9D59481A5B9D195C995CDD0819985A5B1959 PUSH1 0x52 SHL PUSH1 0x44 DUP3 ADD MSTORE SWAP1 MLOAD SWAP1 DUP2 SWAP1 SUB PUSH1 0x64 ADD SWAP1 REVERT JUMPDEST PUSH2 0x1D58 PUSH2 0xF7F JUMP JUMPDEST SWAP1 POP PUSH1 0x0 DUP1 SLOAD PUSH1 0xFF NOT AND PUSH1 0x1 OR SWAP1 SSTORE SWAP1 JUMP JUMPDEST PUSH1 0x1 PUSH1 0x1 PUSH1 0xA0 SHL SUB DUP2 AND PUSH1 0x0 SWAP1 DUP2 MSTORE PUSH1 0xE PUSH1 0x20 MSTORE PUSH1 0x40 DUP2 KECCAK256 SLOAD DUP2 SWAP1 DUP2 SWAP1 DUP2 SWAP1 DUP2 DUP1 DUP1 PUSH2 0x1D95 DUP10 PUSH2 0x2B09 JUMP JUMPDEST SWAP4 POP SWAP1 POP PUSH1 0x0 DUP2 PUSH1 0x3 DUP2 GT ISZERO PUSH2 0x1DA7 JUMPI INVALID JUMPDEST EQ PUSH2 0x1DC5 JUMPI PUSH1 0x9 JUMPDEST SWAP8 POP PUSH1 0x0 SWAP7 POP DUP7 SWAP6 POP DUP6 SWAP5 POP PUSH2 0x1DF8 SWAP4 POP POP POP POP JUMP JUMPDEST PUSH2 0x1DCD PUSH2 0x2517 JUMP JUMPDEST SWAP3 POP SWAP1 POP PUSH1 0x0 DUP2 PUSH1 0x3 DUP2 GT ISZERO PUSH2 0x1DDF JUMPI INVALID JUMPDEST EQ PUSH2 0x1DEB JUMPI PUSH1 0x9 PUSH2 0x1DAF JUMP JUMPDEST POP PUSH1 0x0 SWAP7 POP SWAP2 SWAP5 POP SWAP3 POP SWAP1 POP JUMPDEST SWAP2 SWAP4 POP SWAP2 SWAP4 JUMP JUMPDEST PUSH1 0x0 PUSH2 0xE6F DUP3 PUSH2 0x31B7 JUMP JUMPDEST PUSH1 0x0 PUSH2 0xE6F DUP3 PUSH2 0x3236 JUMP JUMPDEST PUSH1 0x1 PUSH1 0x1 PUSH1 0xA0 SHL SUB SWAP2 DUP3 AND PUSH1 0x0 SWAP1 DUP2 MSTORE PUSH1 0xF PUSH1 0x20 SWAP1 DUP2 MSTORE PUSH1 0x40 DUP1 DUP4 KECCAK256 SWAP4 SWAP1 SWAP5 AND DUP3 MSTORE SWAP2 SWAP1 SWAP2 MSTORE KECCAK256 SLOAD SWAP1 JUMP JUMPDEST PUSH1 0x0 PUSH2 0x1E4C DUP3 CALLVALUE PUSH2 0x32B0 JUMP JUMPDEST POP SWAP1 POP PUSH2 0xD77 DUP2 PUSH1 0x40 MLOAD DUP1 PUSH1 0x40 ADD PUSH1 0x40 MSTORE DUP1 PUSH1 0x18 DUP2 MSTORE PUSH1 0x20 ADD PUSH32 0x7265706179426F72726F77426568616C66206661696C65640000000000000000 DUP2 MSTORE POP PUSH2 0xB7B JUMP JUMPDEST PUSH1 0x5 SLOAD PUSH1 0x1 PUSH1 0x1 PUSH1 0xA0 SHL SUB AND DUP2 JUMP JUMPDEST PUSH1 0x4 SLOAD PUSH1 0x0 SWAP1 PUSH1 0x1 PUSH1 0x1 PUSH1 0xA0 SHL SUB AND CALLER EQ ISZERO DUP1 PUSH2 0x1EB8 JUMPI POP CALLER ISZERO JUMPDEST ISZERO PUSH2 0x1ED0 JUMPI PUSH2 0x1EC9 PUSH1 0x1 PUSH1 0x0 PUSH2 0x20DF JUMP JUMPDEST SWAP1 POP PUSH2 0xFDF JUMP JUMPDEST PUSH1 0x3 DUP1 SLOAD PUSH1 0x4 DUP1 SLOAD PUSH1 0x1 PUSH1 0x1 PUSH1 0xA0 SHL SUB DUP2 DUP2 AND PUSH2 0x100 DUP2 DUP2 MUL PUSH2 0x100 PUSH1 0x1 PUSH1 0xA8 SHL SUB NOT DUP8 AND OR SWAP7 DUP8 SWAP1 SSTORE PUSH1 0x1 PUSH1 0x1 PUSH1 0xA0 SHL SUB NOT SWAP1 SWAP4 AND SWAP1 SWAP4 SSTORE PUSH1 0x40 DUP1 MLOAD SWAP5 DUP4 SWAP1 DIV DUP3 AND DUP1 DUP7 MSTORE SWAP3 SWAP1 SWAP6 DIV AND PUSH1 0x20 DUP5 ADD MSTORE DUP4 MLOAD SWAP1 SWAP4 SWAP2 SWAP3 PUSH32 0xF9FFABCA9C8276E99321725BCB43FB076A6C66A54B7F21C4E8146D8519B417DC SWAP3 SWAP1 DUP3 SWAP1 SUB ADD SWAP1 LOG1 PUSH1 0x4 SLOAD PUSH1 0x40 DUP1 MLOAD PUSH1 0x1 PUSH1 0x1 PUSH1 0xA0 SHL SUB DUP1 DUP6 AND DUP3 MSTORE SWAP1 SWAP3 AND PUSH1 0x20 DUP4 ADD MSTORE DUP1 MLOAD PUSH32 0xCA4F2F25D0898EDD99413412FB94012F9E54EC8142F9B093E7720646A95B16A9 SWAP3 DUP2 SWAP1 SUB SWAP1 SWAP2 ADD SWAP1 LOG1 PUSH1 0x0 SWAP3 POP POP POP SWAP1 JUMP JUMPDEST PUSH1 0x0 DUP1 PUSH2 0x1FAB PUSH2 0x16F6 JUMP JUMPDEST SWAP1 POP DUP1 ISZERO PUSH2 0x1FD1 JUMPI PUSH2 0x1FC9 DUP2 PUSH1 0x10 DUP2 GT ISZERO PUSH2 0x1FC2 JUMPI INVALID JUMPDEST PUSH1 0x40 PUSH2 0x20DF JUMP JUMPDEST SWAP2 POP POP PUSH2 0x1124 JUMP JUMPDEST PUSH2 0x1371 DUP4 PUSH2 0x2BC1 JUMP JUMPDEST PUSH1 0x6 SLOAD PUSH1 0x1 PUSH1 0x1 PUSH1 0xA0 SHL SUB AND DUP2 JUMP JUMPDEST PUSH1 0x3 SLOAD PUSH2 0x100 SWAP1 DIV PUSH1 0x1 PUSH1 0x1 PUSH1 0xA0 SHL SUB AND DUP2 JUMP JUMPDEST PUSH1 0x6 SLOAD PUSH1 0x0 SWAP1 PUSH1 0x1 PUSH1 0x1 PUSH1 0xA0 SHL SUB AND PUSH4 0x15F24053 PUSH2 0x2019 PUSH2 0x28A7 JUMP JUMPDEST PUSH1 0xB SLOAD PUSH1 0xC SLOAD PUSH1 0x40 MLOAD DUP5 PUSH4 0xFFFFFFFF AND PUSH1 0xE0 SHL DUP2 MSTORE PUSH1 0x4 ADD DUP1 DUP5 DUP2 MSTORE PUSH1 0x20 ADD DUP4 DUP2 MSTORE PUSH1 0x20 ADD DUP3 DUP2 MSTORE PUSH1 0x20 ADD SWAP4 POP POP POP POP PUSH1 0x20 PUSH1 0x40 MLOAD DUP1 DUP4 SUB DUP2 DUP7 DUP1 EXTCODESIZE ISZERO DUP1 ISZERO PUSH2 0x1B80 JUMPI PUSH1 0x0 DUP1 REVERT JUMPDEST PUSH1 0x0 DUP1 SLOAD PUSH1 0xFF AND PUSH2 0x20A6 JUMPI PUSH1 0x40 DUP1 MLOAD PUSH3 0x461BCD PUSH1 0xE5 SHL DUP2 MSTORE PUSH1 0x20 PUSH1 0x4 DUP3 ADD MSTORE PUSH1 0xA PUSH1 0x24 DUP3 ADD MSTORE PUSH10 0x1C994B595B9D195C9959 PUSH1 0xB2 SHL PUSH1 0x44 DUP3 ADD MSTORE SWAP1 MLOAD SWAP1 DUP2 SWAP1 SUB PUSH1 0x64 ADD SWAP1 REVERT JUMPDEST PUSH1 0x0 DUP1 SLOAD PUSH1 0xFF NOT AND DUP2 SSTORE PUSH2 0x20B8 PUSH2 0x16F6 JUMP JUMPDEST SWAP1 POP DUP1 ISZERO PUSH2 0x20D6 JUMPI PUSH2 0x11F5 DUP2 PUSH1 0x10 DUP2 GT ISZERO PUSH2 0x20CF JUMPI INVALID JUMPDEST PUSH1 0x46 PUSH2 0x20DF JUMP JUMPDEST PUSH2 0x1206 DUP4 PUSH2 0x335B JUMP JUMPDEST PUSH1 0x0 PUSH32 0x45B96FE442630264581B197E84BBADA861235052C5A1AADFFF9EA4E40A969AA0 DUP4 PUSH1 0x10 DUP2 GT ISZERO PUSH2 0x210E JUMPI INVALID JUMPDEST DUP4 PUSH1 0x50 DUP2 GT ISZERO PUSH2 0x211A JUMPI INVALID JUMPDEST PUSH1 0x40 DUP1 MLOAD SWAP3 DUP4 MSTORE PUSH1 0x20 DUP4 ADD SWAP2 SWAP1 SWAP2 MSTORE PUSH1 0x0 DUP3 DUP3 ADD MSTORE MLOAD SWAP1 DUP2 SWAP1 SUB PUSH1 0x60 ADD SWAP1 LOG1 DUP3 PUSH1 0x10 DUP2 GT ISZERO PUSH2 0x1371 JUMPI INVALID JUMPDEST PUSH1 0x5 SLOAD PUSH1 0x40 DUP1 MLOAD PUSH4 0x4EF4C3E1 PUSH1 0xE0 SHL DUP2 MSTORE ADDRESS PUSH1 0x4 DUP3 ADD MSTORE PUSH1 0x1 PUSH1 0x1 PUSH1 0xA0 SHL SUB DUP6 DUP2 AND PUSH1 0x24 DUP4 ADD MSTORE PUSH1 0x44 DUP3 ADD DUP6 SWAP1 MSTORE SWAP2 MLOAD PUSH1 0x0 SWAP4 DUP5 SWAP4 DUP5 SWAP4 SWAP2 AND SWAP2 PUSH4 0x4EF4C3E1 SWAP2 PUSH1 0x64 DUP1 DUP3 ADD SWAP3 PUSH1 0x20 SWAP3 SWAP1 SWAP2 SWAP1 DUP3 SWAP1 SUB ADD DUP2 DUP8 DUP8 DUP1 EXTCODESIZE ISZERO DUP1 ISZERO PUSH2 0x21A6 JUMPI PUSH1 0x0 DUP1 REVERT JUMPDEST POP GAS CALL ISZERO DUP1 ISZERO PUSH2 0x21BA JUMPI RETURNDATASIZE PUSH1 0x0 DUP1 RETURNDATACOPY RETURNDATASIZE PUSH1 0x0 REVERT JUMPDEST POP POP POP POP PUSH1 0x40 MLOAD RETURNDATASIZE PUSH1 0x20 DUP2 LT ISZERO PUSH2 0x21D0 JUMPI PUSH1 0x0 DUP1 REVERT JUMPDEST POP MLOAD SWAP1 POP DUP1 ISZERO PUSH2 0x21F4 JUMPI PUSH2 0x21E7 PUSH1 0x3 PUSH1 0x1F DUP4 PUSH2 0x2DC1 JUMP JUMPDEST SWAP3 POP PUSH1 0x0 SWAP2 POP PUSH2 0x2510 SWAP1 POP JUMP JUMPDEST PUSH2 0x21FC PUSH2 0x2BBD JUMP JUMPDEST PUSH1 0x9 SLOAD EQ PUSH2 0x2210 JUMPI PUSH2 0x21E7 PUSH1 0xA PUSH1 0x22 PUSH2 0x20DF JUMP JUMPDEST PUSH2 0x2218 PUSH2 0x46DE JUMP JUMPDEST PUSH2 0x2220 PUSH2 0x2517 JUMP JUMPDEST PUSH1 0x40 DUP4 ADD DUP2 SWAP1 MSTORE PUSH1 0x20 DUP4 ADD DUP3 PUSH1 0x3 DUP2 GT ISZERO PUSH2 0x2237 JUMPI INVALID JUMPDEST PUSH1 0x3 DUP2 GT ISZERO PUSH2 0x2242 JUMPI INVALID JUMPDEST SWAP1 MSTORE POP PUSH1 0x0 SWAP1 POP DUP2 PUSH1 0x20 ADD MLOAD PUSH1 0x3 DUP2 GT ISZERO PUSH2 0x2259 JUMPI INVALID JUMPDEST EQ PUSH2 0x2283 JUMPI PUSH2 0x2275 PUSH1 0x9 PUSH1 0x21 DUP4 PUSH1 0x20 ADD MLOAD PUSH1 0x3 DUP2 GT ISZERO PUSH2 0x18DE JUMPI INVALID JUMPDEST SWAP4 POP PUSH1 0x0 SWAP3 POP PUSH2 0x2510 SWAP2 POP POP JUMP JUMPDEST PUSH2 0x228D DUP7 DUP7 PUSH2 0x3403 JUMP JUMPDEST PUSH1 0xC0 DUP3 ADD DUP2 SWAP1 MSTORE PUSH1 0x40 DUP1 MLOAD PUSH1 0x20 DUP2 ADD DUP3 MSTORE SWAP1 DUP4 ADD MLOAD DUP2 MSTORE PUSH2 0x22AE SWAP2 SWAP1 PUSH2 0x349F JUMP JUMPDEST PUSH1 0x60 DUP4 ADD DUP2 SWAP1 MSTORE PUSH1 0x20 DUP4 ADD DUP3 PUSH1 0x3 DUP2 GT ISZERO PUSH2 0x22C5 JUMPI INVALID JUMPDEST PUSH1 0x3 DUP2 GT ISZERO PUSH2 0x22D0 JUMPI INVALID JUMPDEST SWAP1 MSTORE POP PUSH1 0x0 SWAP1 POP DUP2 PUSH1 0x20 ADD MLOAD PUSH1 0x3 DUP2 GT ISZERO PUSH2 0x22E7 JUMPI INVALID JUMPDEST EQ PUSH2 0x2339 JUMPI PUSH1 0x40 DUP1 MLOAD PUSH3 0x461BCD PUSH1 0xE5 SHL DUP2 MSTORE PUSH1 0x20 PUSH1 0x4 DUP3 ADD DUP2 SWAP1 MSTORE PUSH1 0x24 DUP3 ADD MSTORE PUSH32 0x4D494E545F45584348414E47455F43414C43554C4154494F4E5F4641494C4544 PUSH1 0x44 DUP3 ADD MSTORE SWAP1 MLOAD SWAP1 DUP2 SWAP1 SUB PUSH1 0x64 ADD SWAP1 REVERT JUMPDEST PUSH2 0x2349 PUSH1 0xD SLOAD DUP3 PUSH1 0x60 ADD MLOAD PUSH2 0x2E27 JUMP JUMPDEST PUSH1 0x80 DUP4 ADD DUP2 SWAP1 MSTORE PUSH1 0x20 DUP4 ADD DUP3 PUSH1 0x3 DUP2 GT ISZERO PUSH2 0x2360 JUMPI INVALID JUMPDEST PUSH1 0x3 DUP2 GT ISZERO PUSH2 0x236B JUMPI INVALID JUMPDEST SWAP1 MSTORE POP PUSH1 0x0 SWAP1 POP DUP2 PUSH1 0x20 ADD MLOAD PUSH1 0x3 DUP2 GT ISZERO PUSH2 0x2382 JUMPI INVALID JUMPDEST EQ PUSH2 0x23BE JUMPI PUSH1 0x40 MLOAD PUSH3 0x461BCD PUSH1 0xE5 SHL DUP2 MSTORE PUSH1 0x4 ADD DUP1 DUP1 PUSH1 0x20 ADD DUP3 DUP2 SUB DUP3 MSTORE PUSH1 0x28 DUP2 MSTORE PUSH1 0x20 ADD DUP1 PUSH2 0x4994 PUSH1 0x28 SWAP2 CODECOPY PUSH1 0x40 ADD SWAP2 POP POP PUSH1 0x40 MLOAD DUP1 SWAP2 SUB SWAP1 REVERT JUMPDEST PUSH1 0x1 PUSH1 0x1 PUSH1 0xA0 SHL SUB DUP7 AND PUSH1 0x0 SWAP1 DUP2 MSTORE PUSH1 0xE PUSH1 0x20 MSTORE PUSH1 0x40 SWAP1 KECCAK256 SLOAD PUSH1 0x60 DUP3 ADD MLOAD PUSH2 0x23E6 SWAP2 SWAP1 PUSH2 0x2E27 JUMP JUMPDEST PUSH1 0xA0 DUP4 ADD DUP2 SWAP1 MSTORE PUSH1 0x20 DUP4 ADD DUP3 PUSH1 0x3 DUP2 GT ISZERO PUSH2 0x23FD JUMPI INVALID JUMPDEST PUSH1 0x3 DUP2 GT ISZERO PUSH2 0x2408 JUMPI INVALID JUMPDEST SWAP1 MSTORE POP PUSH1 0x0 SWAP1 POP DUP2 PUSH1 0x20 ADD MLOAD PUSH1 0x3 DUP2 GT ISZERO PUSH2 0x241F JUMPI INVALID JUMPDEST EQ PUSH2 0x245B JUMPI PUSH1 0x40 MLOAD PUSH3 0x461BCD PUSH1 0xE5 SHL DUP2 MSTORE PUSH1 0x4 ADD DUP1 DUP1 PUSH1 0x20 ADD DUP3 DUP2 SUB DUP3 MSTORE PUSH1 0x2B DUP2 MSTORE PUSH1 0x20 ADD DUP1 PUSH2 0x483F PUSH1 0x2B SWAP2 CODECOPY PUSH1 0x40 ADD SWAP2 POP POP PUSH1 0x40 MLOAD DUP1 SWAP2 SUB SWAP1 REVERT JUMPDEST PUSH1 0x80 DUP2 ADD MLOAD PUSH1 0xD SSTORE PUSH1 0xA0 DUP2 ADD MLOAD PUSH1 0x1 PUSH1 0x1 PUSH1 0xA0 SHL SUB DUP8 AND PUSH1 0x0 DUP2 DUP2 MSTORE PUSH1 0xE PUSH1 0x20 SWAP1 DUP2 MSTORE PUSH1 0x40 SWAP2 DUP3 SWAP1 KECCAK256 SWAP4 SWAP1 SWAP4 SSTORE PUSH1 0xC0 DUP5 ADD MLOAD PUSH1 0x60 DUP1 DUP7 ADD MLOAD DUP4 MLOAD SWAP5 DUP6 MSTORE SWAP5 DUP5 ADD SWAP2 SWAP1 SWAP2 MSTORE DUP3 DUP3 ADD SWAP4 SWAP1 SWAP4 MSTORE MLOAD PUSH32 0x4C209B5FC8AD50758F13E2E1088BA56A560DFF690A1C6FEF26394F4C03821C4F SWAP3 SWAP2 DUP2 SWAP1 SUB SWAP1 SWAP2 ADD SWAP1 LOG1 PUSH1 0x60 DUP2 ADD MLOAD PUSH1 0x40 DUP1 MLOAD SWAP2 DUP3 MSTORE MLOAD PUSH1 0x1 PUSH1 0x1 PUSH1 0xA0 SHL SUB DUP9 AND SWAP2 ADDRESS SWAP2 PUSH1 0x0 DUP1 MLOAD PUSH1 0x20 PUSH2 0x48DB DUP4 CODECOPY DUP2 MLOAD SWAP2 MSTORE SWAP2 DUP2 SWAP1 SUB PUSH1 0x20 ADD SWAP1 LOG3 PUSH1 0xC0 ADD MLOAD PUSH1 0x0 SWAP4 POP SWAP2 POP POP JUMPDEST SWAP3 POP SWAP3 SWAP1 POP JUMP JUMPDEST PUSH1 0xD SLOAD PUSH1 0x0 SWAP1 DUP2 SWAP1 DUP1 PUSH2 0x2532 JUMPI POP POP PUSH1 0x7 SLOAD PUSH1 0x0 SWAP2 POP PUSH2 0x25C2 JUMP JUMPDEST PUSH1 0x0 PUSH2 0x253C PUSH2 0x28A7 JUMP JUMPDEST SWAP1 POP PUSH1 0x0 PUSH2 0x2548 PUSH2 0x464D JUMP JUMPDEST PUSH1 0x0 PUSH2 0x2559 DUP5 PUSH1 0xB SLOAD PUSH1 0xC SLOAD PUSH2 0x34B6 JUMP JUMPDEST SWAP4 POP SWAP1 POP PUSH1 0x0 DUP2 PUSH1 0x3 DUP2 GT ISZERO PUSH2 0x256B JUMPI INVALID JUMPDEST EQ PUSH2 0x2580 JUMPI SWAP6 POP PUSH1 0x0 SWAP5 POP PUSH2 0x25C2 SWAP4 POP POP POP POP JUMP JUMPDEST PUSH2 0x258A DUP4 DUP7 PUSH2 0x34F4 JUMP JUMPDEST SWAP3 POP SWAP1 POP PUSH1 0x0 DUP2 PUSH1 0x3 DUP2 GT ISZERO PUSH2 0x259C JUMPI INVALID JUMPDEST EQ PUSH2 0x25B1 JUMPI SWAP6 POP PUSH1 0x0 SWAP5 POP PUSH2 0x25C2 SWAP4 POP POP POP POP JUMP JUMPDEST POP MLOAD PUSH1 0x0 SWAP6 POP SWAP4 POP PUSH2 0x25C2 SWAP3 POP POP POP JUMP JUMPDEST SWAP1 SWAP2 JUMP JUMPDEST PUSH1 0x5 SLOAD PUSH1 0x40 DUP1 MLOAD PUSH4 0x17B9B84B PUSH1 0xE3 SHL DUP2 MSTORE ADDRESS PUSH1 0x4 DUP3 ADD MSTORE PUSH1 0x1 PUSH1 0x1 PUSH1 0xA0 SHL SUB DUP7 DUP2 AND PUSH1 0x24 DUP4 ADD MSTORE DUP6 DUP2 AND PUSH1 0x44 DUP4 ADD MSTORE PUSH1 0x64 DUP3 ADD DUP6 SWAP1 MSTORE SWAP2 MLOAD PUSH1 0x0 SWAP4 DUP5 SWAP4 AND SWAP2 PUSH4 0xBDCDC258 SWAP2 PUSH1 0x84 DUP1 DUP4 ADD SWAP3 PUSH1 0x20 SWAP3 SWAP2 SWAP1 DUP3 SWAP1 SUB ADD DUP2 DUP8 DUP8 DUP1 EXTCODESIZE ISZERO DUP1 ISZERO PUSH2 0x262B JUMPI PUSH1 0x0 DUP1 REVERT JUMPDEST POP GAS CALL ISZERO DUP1 ISZERO PUSH2 0x263F JUMPI RETURNDATASIZE PUSH1 0x0 DUP1 RETURNDATACOPY RETURNDATASIZE PUSH1 0x0 REVERT JUMPDEST POP POP POP POP PUSH1 0x40 MLOAD RETURNDATASIZE PUSH1 0x20 DUP2 LT ISZERO PUSH2 0x2655 JUMPI PUSH1 0x0 DUP1 REVERT JUMPDEST POP MLOAD SWAP1 POP DUP1 ISZERO PUSH2 0x2674 JUMPI PUSH2 0x266C PUSH1 0x3 PUSH1 0x4A DUP4 PUSH2 0x2DC1 JUMP JUMPDEST SWAP2 POP POP PUSH2 0x284C JUMP JUMPDEST DUP4 PUSH1 0x1 PUSH1 0x1 PUSH1 0xA0 SHL SUB AND DUP6 PUSH1 0x1 PUSH1 0x1 PUSH1 0xA0 SHL SUB AND EQ ISZERO PUSH2 0x269A JUMPI PUSH2 0x266C PUSH1 0x2 PUSH1 0x4B PUSH2 0x20DF JUMP JUMPDEST PUSH1 0x0 PUSH1 0x1 PUSH1 0x1 PUSH1 0xA0 SHL SUB DUP8 DUP2 AND SWAP1 DUP8 AND EQ ISZERO PUSH2 0x26B9 JUMPI POP PUSH1 0x0 NOT PUSH2 0x26E1 JUMP JUMPDEST POP PUSH1 0x1 PUSH1 0x1 PUSH1 0xA0 SHL SUB DUP1 DUP7 AND PUSH1 0x0 SWAP1 DUP2 MSTORE PUSH1 0xF PUSH1 0x20 SWAP1 DUP2 MSTORE PUSH1 0x40 DUP1 DUP4 KECCAK256 SWAP4 DUP11 AND DUP4 MSTORE SWAP3 SWAP1 MSTORE KECCAK256 SLOAD JUMPDEST PUSH1 0x0 DUP1 PUSH1 0x0 DUP1 PUSH2 0x26F1 DUP6 DUP10 PUSH2 0x2D36 JUMP JUMPDEST SWAP1 SWAP5 POP SWAP3 POP PUSH1 0x0 DUP5 PUSH1 0x3 DUP2 GT ISZERO PUSH2 0x2704 JUMPI INVALID JUMPDEST EQ PUSH2 0x2722 JUMPI PUSH2 0x2715 PUSH1 0x9 PUSH1 0x4B PUSH2 0x20DF JUMP JUMPDEST SWAP7 POP POP POP POP POP POP POP PUSH2 0x284C JUMP JUMPDEST PUSH1 0x1 PUSH1 0x1 PUSH1 0xA0 SHL SUB DUP11 AND PUSH1 0x0 SWAP1 DUP2 MSTORE PUSH1 0xE PUSH1 0x20 MSTORE PUSH1 0x40 SWAP1 KECCAK256 SLOAD PUSH2 0x2745 SWAP1 DUP10 PUSH2 0x2D36 JUMP JUMPDEST SWAP1 SWAP5 POP SWAP2 POP PUSH1 0x0 DUP5 PUSH1 0x3 DUP2 GT ISZERO PUSH2 0x2758 JUMPI INVALID JUMPDEST EQ PUSH2 0x2769 JUMPI PUSH2 0x2715 PUSH1 0x9 PUSH1 0x4C PUSH2 0x20DF JUMP JUMPDEST PUSH1 0x1 PUSH1 0x1 PUSH1 0xA0 SHL SUB DUP10 AND PUSH1 0x0 SWAP1 DUP2 MSTORE PUSH1 0xE PUSH1 0x20 MSTORE PUSH1 0x40 SWAP1 KECCAK256 SLOAD PUSH2 0x278C SWAP1 DUP10 PUSH2 0x2E27 JUMP JUMPDEST SWAP1 SWAP5 POP SWAP1 POP PUSH1 0x0 DUP5 PUSH1 0x3 DUP2 GT ISZERO PUSH2 0x279F JUMPI INVALID JUMPDEST EQ PUSH2 0x27B0 JUMPI PUSH2 0x2715 PUSH1 0x9 PUSH1 0x4D PUSH2 0x20DF JUMP JUMPDEST PUSH1 0x1 PUSH1 0x1 PUSH1 0xA0 SHL SUB DUP1 DUP12 AND PUSH1 0x0 SWAP1 DUP2 MSTORE PUSH1 0xE PUSH1 0x20 MSTORE PUSH1 0x40 DUP1 DUP3 KECCAK256 DUP6 SWAP1 SSTORE SWAP2 DUP12 AND DUP2 MSTORE KECCAK256 DUP2 SWAP1 SSTORE PUSH1 0x0 NOT DUP6 EQ PUSH2 0x2808 JUMPI PUSH1 0x1 PUSH1 0x1 PUSH1 0xA0 SHL SUB DUP1 DUP12 AND PUSH1 0x0 SWAP1 DUP2 MSTORE PUSH1 0xF PUSH1 0x20 SWAP1 DUP2 MSTORE PUSH1 0x40 DUP1 DUP4 KECCAK256 SWAP4 DUP16 AND DUP4 MSTORE SWAP3 SWAP1 MSTORE KECCAK256 DUP4 SWAP1 SSTORE JUMPDEST DUP9 PUSH1 0x1 PUSH1 0x1 PUSH1 0xA0 SHL SUB AND DUP11 PUSH1 0x1 PUSH1 0x1 PUSH1 0xA0 SHL SUB AND PUSH1 0x0 DUP1 MLOAD PUSH1 0x20 PUSH2 0x48DB DUP4 CODECOPY DUP2 MLOAD SWAP2 MSTORE DUP11 PUSH1 0x40 MLOAD DUP1 DUP3 DUP2 MSTORE PUSH1 0x20 ADD SWAP2 POP POP PUSH1 0x40 MLOAD DUP1 SWAP2 SUB SWAP1 LOG3 PUSH1 0x0 SWAP7 POP POP POP POP POP POP POP JUMPDEST SWAP5 SWAP4 POP POP POP POP JUMP JUMPDEST PUSH1 0x0 DUP1 PUSH1 0x0 PUSH2 0x2861 PUSH2 0x464D JUMP JUMPDEST PUSH2 0x286B DUP7 DUP7 PUSH2 0x2D59 JUMP JUMPDEST SWAP1 SWAP3 POP SWAP1 POP PUSH1 0x0 DUP3 PUSH1 0x3 DUP2 GT ISZERO PUSH2 0x287E JUMPI INVALID JUMPDEST EQ PUSH2 0x288F JUMPI POP SWAP2 POP PUSH1 0x0 SWAP1 POP PUSH2 0x2510 JUMP JUMPDEST PUSH1 0x0 PUSH2 0x289A DUP3 PUSH2 0x35A4 JUMP JUMPDEST SWAP4 POP SWAP4 POP POP POP SWAP3 POP SWAP3 SWAP1 POP JUMP JUMPDEST PUSH1 0x0 DUP1 PUSH1 0x0 PUSH2 0x28B6 SELFBALANCE CALLVALUE PUSH2 0x2D36 JUMP JUMPDEST SWAP1 SWAP3 POP SWAP1 POP PUSH1 0x0 DUP3 PUSH1 0x3 DUP2 GT ISZERO PUSH2 0x28C9 JUMPI INVALID JUMPDEST EQ PUSH2 0xFDB JUMPI PUSH1 0x0 DUP1 REVERT JUMPDEST PUSH1 0x0 DUP1 SLOAD DUP2 SWAP1 PUSH1 0xFF AND PUSH2 0x291A JUMPI PUSH1 0x40 DUP1 MLOAD PUSH3 0x461BCD PUSH1 0xE5 SHL DUP2 MSTORE PUSH1 0x20 PUSH1 0x4 DUP3 ADD MSTORE PUSH1 0xA PUSH1 0x24 DUP3 ADD MSTORE PUSH10 0x1C994B595B9D195C9959 PUSH1 0xB2 SHL PUSH1 0x44 DUP3 ADD MSTORE SWAP1 MLOAD SWAP1 DUP2 SWAP1 SUB PUSH1 0x64 ADD SWAP1 REVERT JUMPDEST PUSH1 0x0 DUP1 SLOAD PUSH1 0xFF NOT AND DUP2 SSTORE PUSH2 0x292C PUSH2 0x16F6 JUMP JUMPDEST SWAP1 POP DUP1 ISZERO PUSH2 0x294A JUMPI PUSH2 0xB4A DUP2 PUSH1 0x10 DUP2 GT ISZERO PUSH2 0x2943 JUMPI INVALID JUMPDEST PUSH1 0x36 PUSH2 0x20DF JUMP JUMPDEST PUSH2 0xB61 CALLER CALLER DUP7 PUSH2 0x35B3 JUMP JUMPDEST PUSH1 0x3 SLOAD PUSH1 0x0 SWAP1 DUP2 SWAP1 PUSH2 0x100 SWAP1 DIV PUSH1 0x1 PUSH1 0x1 PUSH1 0xA0 SHL SUB AND CALLER EQ PUSH2 0x297D JUMPI PUSH2 0x1FC9 PUSH1 0x1 PUSH1 0x31 PUSH2 0x20DF JUMP JUMPDEST PUSH2 0x2985 PUSH2 0x2BBD JUMP JUMPDEST PUSH1 0x9 SLOAD EQ PUSH2 0x2999 JUMPI PUSH2 0x1FC9 PUSH1 0xA PUSH1 0x33 PUSH2 0x20DF JUMP JUMPDEST DUP3 PUSH2 0x29A2 PUSH2 0x28A7 JUMP JUMPDEST LT ISZERO PUSH2 0x29B4 JUMPI PUSH2 0x1FC9 PUSH1 0xE PUSH1 0x32 PUSH2 0x20DF JUMP JUMPDEST PUSH1 0xC SLOAD DUP4 GT ISZERO PUSH2 0x29CA JUMPI PUSH2 0x1FC9 PUSH1 0x2 PUSH1 0x34 PUSH2 0x20DF JUMP JUMPDEST POP PUSH1 0xC SLOAD DUP3 DUP2 SUB SWAP1 DUP2 GT ISZERO PUSH2 0x2A10 JUMPI PUSH1 0x40 MLOAD PUSH3 0x461BCD PUSH1 0xE5 SHL DUP2 MSTORE PUSH1 0x4 ADD DUP1 DUP1 PUSH1 0x20 ADD DUP3 DUP2 SUB DUP3 MSTORE PUSH1 0x24 DUP2 MSTORE PUSH1 0x20 ADD DUP1 PUSH2 0x49F0 PUSH1 0x24 SWAP2 CODECOPY PUSH1 0x40 ADD SWAP2 POP POP PUSH1 0x40 MLOAD DUP1 SWAP2 SUB SWAP1 REVERT JUMPDEST PUSH1 0xC DUP2 SWAP1 SSTORE PUSH1 0x3 SLOAD PUSH2 0x2A30 SWAP1 PUSH2 0x100 SWAP1 DIV PUSH1 0x1 PUSH1 0x1 PUSH1 0xA0 SHL SUB AND DUP5 PUSH2 0x3901 JUMP JUMPDEST PUSH1 0x3 SLOAD PUSH1 0x40 DUP1 MLOAD PUSH2 0x100 SWAP1 SWAP3 DIV PUSH1 0x1 PUSH1 0x1 PUSH1 0xA0 SHL SUB AND DUP3 MSTORE PUSH1 0x20 DUP3 ADD DUP6 SWAP1 MSTORE DUP2 DUP2 ADD DUP4 SWAP1 MSTORE MLOAD PUSH32 0x3BAD0C59CF2F06E7314077049F48A93578CD16F5EF92329F1DAB1420A99C177E SWAP2 PUSH1 0x60 SWAP1 DUP3 SWAP1 SUB ADD SWAP1 LOG1 PUSH1 0x0 PUSH2 0x1371 JUMP JUMPDEST PUSH1 0x0 DUP1 SLOAD PUSH1 0xFF AND PUSH2 0x2ACD JUMPI PUSH1 0x40 DUP1 MLOAD PUSH3 0x461BCD PUSH1 0xE5 SHL DUP2 MSTORE PUSH1 0x20 PUSH1 0x4 DUP3 ADD MSTORE PUSH1 0xA PUSH1 0x24 DUP3 ADD MSTORE PUSH10 0x1C994B595B9D195C9959 PUSH1 0xB2 SHL PUSH1 0x44 DUP3 ADD MSTORE SWAP1 MLOAD SWAP1 DUP2 SWAP1 SUB PUSH1 0x64 ADD SWAP1 REVERT JUMPDEST PUSH1 0x0 DUP1 SLOAD PUSH1 0xFF NOT AND DUP2 SSTORE PUSH2 0x2ADF PUSH2 0x16F6 JUMP JUMPDEST SWAP1 POP DUP1 ISZERO PUSH2 0x2AFD JUMPI PUSH2 0x11F5 DUP2 PUSH1 0x10 DUP2 GT ISZERO PUSH2 0x2AF6 JUMPI INVALID JUMPDEST PUSH1 0x27 PUSH2 0x20DF JUMP JUMPDEST PUSH2 0x1206 CALLER PUSH1 0x0 DUP6 PUSH2 0x3937 JUMP JUMPDEST PUSH1 0x1 PUSH1 0x1 PUSH1 0xA0 SHL SUB DUP2 AND PUSH1 0x0 SWAP1 DUP2 MSTORE PUSH1 0x10 PUSH1 0x20 MSTORE PUSH1 0x40 DUP2 KECCAK256 DUP1 SLOAD DUP3 SWAP2 DUP3 SWAP2 DUP3 SWAP2 DUP3 SWAP2 PUSH2 0x2B40 JUMPI POP PUSH1 0x0 SWAP5 POP DUP5 SWAP4 POP PUSH2 0x2BB8 SWAP3 POP POP POP JUMP JUMPDEST PUSH2 0x2B50 DUP2 PUSH1 0x0 ADD SLOAD PUSH1 0xA SLOAD PUSH2 0x3DFE JUMP JUMPDEST SWAP1 SWAP5 POP SWAP3 POP PUSH1 0x0 DUP5 PUSH1 0x3 DUP2 GT ISZERO PUSH2 0x2B63 JUMPI INVALID JUMPDEST EQ PUSH2 0x2B78 JUMPI POP SWAP2 SWAP4 POP PUSH1 0x0 SWAP3 POP PUSH2 0x2BB8 SWAP2 POP POP JUMP JUMPDEST PUSH2 0x2B86 DUP4 DUP3 PUSH1 0x1 ADD SLOAD PUSH2 0x3E3D JUMP JUMPDEST SWAP1 SWAP5 POP SWAP2 POP PUSH1 0x0 DUP5 PUSH1 0x3 DUP2 GT ISZERO PUSH2 0x2B99 JUMPI INVALID JUMPDEST EQ PUSH2 0x2BAE JUMPI POP SWAP2 SWAP4 POP PUSH1 0x0 SWAP3 POP PUSH2 0x2BB8 SWAP2 POP POP JUMP JUMPDEST POP PUSH1 0x0 SWAP5 POP SWAP3 POP POP POP JUMPDEST SWAP2 POP SWAP2 JUMP JUMPDEST NUMBER SWAP1 JUMP JUMPDEST PUSH1 0x3 SLOAD PUSH1 0x0 SWAP1 DUP2 SWAP1 PUSH2 0x100 SWAP1 DIV PUSH1 0x1 PUSH1 0x1 PUSH1 0xA0 SHL SUB AND CALLER EQ PUSH2 0x2BE9 JUMPI PUSH2 0x1FC9 PUSH1 0x1 PUSH1 0x42 PUSH2 0x20DF JUMP JUMPDEST PUSH2 0x2BF1 PUSH2 0x2BBD JUMP JUMPDEST PUSH1 0x9 SLOAD EQ PUSH2 0x2C05 JUMPI PUSH2 0x1FC9 PUSH1 0xA PUSH1 0x41 PUSH2 0x20DF JUMP JUMPDEST PUSH1 0x6 PUSH1 0x0 SWAP1 SLOAD SWAP1 PUSH2 0x100 EXP SWAP1 DIV PUSH1 0x1 PUSH1 0x1 PUSH1 0xA0 SHL SUB AND SWAP1 POP DUP3 PUSH1 0x1 PUSH1 0x1 PUSH1 0xA0 SHL SUB AND PUSH4 0x2191F92A PUSH1 0x40 MLOAD DUP2 PUSH4 0xFFFFFFFF AND PUSH1 0xE0 SHL DUP2 MSTORE PUSH1 0x4 ADD PUSH1 0x20 PUSH1 0x40 MLOAD DUP1 DUP4 SUB DUP2 DUP7 DUP1 EXTCODESIZE ISZERO DUP1 ISZERO PUSH2 0x2C56 JUMPI PUSH1 0x0 DUP1 REVERT JUMPDEST POP GAS STATICCALL ISZERO DUP1 ISZERO PUSH2 0x2C6A JUMPI RETURNDATASIZE PUSH1 0x0 DUP1 RETURNDATACOPY RETURNDATASIZE PUSH1 0x0 REVERT JUMPDEST POP POP POP POP PUSH1 0x40 MLOAD RETURNDATASIZE PUSH1 0x20 DUP2 LT ISZERO PUSH2 0x2C80 JUMPI PUSH1 0x0 DUP1 REVERT JUMPDEST POP MLOAD PUSH2 0x2CD3 JUMPI PUSH1 0x40 DUP1 MLOAD PUSH3 0x461BCD PUSH1 0xE5 SHL DUP2 MSTORE PUSH1 0x20 PUSH1 0x4 DUP3 ADD MSTORE PUSH1 0x1C PUSH1 0x24 DUP3 ADD MSTORE PUSH32 0x6D61726B6572206D6574686F642072657475726E65642066616C736500000000 PUSH1 0x44 DUP3 ADD MSTORE SWAP1 MLOAD SWAP1 DUP2 SWAP1 SUB PUSH1 0x64 ADD SWAP1 REVERT JUMPDEST PUSH1 0x6 DUP1 SLOAD PUSH1 0x1 PUSH1 0x1 PUSH1 0xA0 SHL SUB NOT AND PUSH1 0x1 PUSH1 0x1 PUSH1 0xA0 SHL SUB DUP6 DUP2 AND SWAP2 DUP3 OR SWAP1 SWAP3 SSTORE PUSH1 0x40 DUP1 MLOAD SWAP3 DUP5 AND DUP4 MSTORE PUSH1 0x20 DUP4 ADD SWAP2 SWAP1 SWAP2 MSTORE DUP1 MLOAD PUSH32 0xEDFFC32E068C7C95DFD4BDFD5C4D939A084D6B11C4199EAC8436ED234D72F926 SWAP3 DUP2 SWAP1 SUB SWAP1 SWAP2 ADD SWAP1 LOG1 PUSH1 0x0 PUSH2 0x1371 JUMP JUMPDEST PUSH1 0x0 DUP1 DUP4 DUP4 GT PUSH2 0x2D4D JUMPI POP PUSH1 0x0 SWAP1 POP DUP2 DUP4 SUB PUSH2 0x2510 JUMP JUMPDEST POP PUSH1 0x3 SWAP1 POP PUSH1 0x0 PUSH2 0x2510 JUMP JUMPDEST PUSH1 0x0 PUSH2 0x2D63 PUSH2 0x464D JUMP JUMPDEST PUSH1 0x0 DUP1 PUSH2 0x2D74 DUP7 PUSH1 0x0 ADD MLOAD DUP7 PUSH2 0x3DFE JUMP JUMPDEST SWAP1 SWAP3 POP SWAP1 POP PUSH1 0x0 DUP3 PUSH1 0x3 DUP2 GT ISZERO PUSH2 0x2D87 JUMPI INVALID JUMPDEST EQ PUSH2 0x2DA6 JUMPI POP PUSH1 0x40 DUP1 MLOAD PUSH1 0x20 DUP2 ADD SWAP1 SWAP2 MSTORE PUSH1 0x0 DUP2 MSTORE SWAP1 SWAP3 POP SWAP1 POP PUSH2 0x2510 JUMP JUMPDEST PUSH1 0x40 DUP1 MLOAD PUSH1 0x20 DUP2 ADD SWAP1 SWAP2 MSTORE SWAP1 DUP2 MSTORE PUSH1 0x0 SWAP7 SWAP1 SWAP6 POP SWAP4 POP POP POP POP JUMP JUMPDEST PUSH1 0x0 PUSH32 0x45B96FE442630264581B197E84BBADA861235052C5A1AADFFF9EA4E40A969AA0 DUP5 PUSH1 0x10 DUP2 GT ISZERO PUSH2 0x2DF0 JUMPI INVALID JUMPDEST DUP5 PUSH1 0x50 DUP2 GT ISZERO PUSH2 0x2DFC JUMPI INVALID JUMPDEST PUSH1 0x40 DUP1 MLOAD SWAP3 DUP4 MSTORE PUSH1 0x20 DUP4 ADD SWAP2 SWAP1 SWAP2 MSTORE DUP2 DUP2 ADD DUP6 SWAP1 MSTORE MLOAD SWAP1 DUP2 SWAP1 SUB PUSH1 0x60 ADD SWAP1 LOG1 DUP4 PUSH1 0x10 DUP2 GT ISZERO PUSH2 0x284C JUMPI INVALID JUMPDEST PUSH1 0x0 DUP1 DUP4 DUP4 ADD DUP5 DUP2 LT PUSH2 0x2E3F JUMPI PUSH1 0x0 SWAP3 POP SWAP1 POP PUSH2 0x2510 JUMP JUMPDEST POP PUSH1 0x2 SWAP2 POP PUSH1 0x0 SWAP1 POP PUSH2 0x2510 JUMP JUMPDEST PUSH1 0x0 DUP1 PUSH1 0x0 PUSH2 0x2E5A PUSH2 0x464D JUMP JUMPDEST PUSH2 0x2E64 DUP8 DUP8 PUSH2 0x2D59 JUMP JUMPDEST SWAP1 SWAP3 POP SWAP1 POP PUSH1 0x0 DUP3 PUSH1 0x3 DUP2 GT ISZERO PUSH2 0x2E77 JUMPI INVALID JUMPDEST EQ PUSH2 0x2E88 JUMPI POP SWAP2 POP PUSH1 0x0 SWAP1 POP PUSH2 0x2EA1 JUMP JUMPDEST PUSH2 0x2E9A PUSH2 0x2E94 DUP3 PUSH2 0x35A4 JUMP JUMPDEST DUP7 PUSH2 0x2E27 JUMP JUMPDEST SWAP4 POP SWAP4 POP POP POP JUMPDEST SWAP4 POP SWAP4 SWAP2 POP POP JUMP JUMPDEST PUSH1 0x0 DUP1 SLOAD DUP2 SWAP1 PUSH1 0xFF AND PUSH2 0x2EF0 JUMPI PUSH1 0x40 DUP1 MLOAD PUSH3 0x461BCD PUSH1 0xE5 SHL DUP2 MSTORE PUSH1 0x20 PUSH1 0x4 DUP3 ADD MSTORE PUSH1 0xA PUSH1 0x24 DUP3 ADD MSTORE PUSH10 0x1C994B595B9D195C9959 PUSH1 0xB2 SHL PUSH1 0x44 DUP3 ADD MSTORE SWAP1 MLOAD SWAP1 DUP2 SWAP1 SUB PUSH1 0x64 ADD SWAP1 REVERT JUMPDEST PUSH1 0x0 DUP1 SLOAD PUSH1 0xFF NOT AND DUP2 SSTORE PUSH2 0x2F02 PUSH2 0x16F6 JUMP JUMPDEST SWAP1 POP DUP1 ISZERO PUSH2 0x2F2D JUMPI PUSH2 0x2F20 DUP2 PUSH1 0x10 DUP2 GT ISZERO PUSH2 0x2F19 JUMPI INVALID JUMPDEST PUSH1 0xF PUSH2 0x20DF JUMP JUMPDEST SWAP3 POP PUSH1 0x0 SWAP2 POP PUSH2 0x2FC4 SWAP1 POP JUMP JUMPDEST DUP4 PUSH1 0x1 PUSH1 0x1 PUSH1 0xA0 SHL SUB AND PUSH4 0xA6AFED95 PUSH1 0x40 MLOAD DUP2 PUSH4 0xFFFFFFFF AND PUSH1 0xE0 SHL DUP2 MSTORE PUSH1 0x4 ADD PUSH1 0x20 PUSH1 0x40 MLOAD DUP1 DUP4 SUB DUP2 PUSH1 0x0 DUP8 DUP1 EXTCODESIZE ISZERO DUP1 ISZERO PUSH2 0x2F68 JUMPI PUSH1 0x0 DUP1 REVERT JUMPDEST POP GAS CALL ISZERO DUP1 ISZERO PUSH2 0x2F7C JUMPI RETURNDATASIZE PUSH1 0x0 DUP1 RETURNDATACOPY RETURNDATASIZE PUSH1 0x0 REVERT JUMPDEST POP POP POP POP PUSH1 0x40 MLOAD RETURNDATASIZE PUSH1 0x20 DUP2 LT ISZERO PUSH2 0x2F92 JUMPI PUSH1 0x0 DUP1 REVERT JUMPDEST POP MLOAD SWAP1 POP DUP1 ISZERO PUSH2 0x2FB2 JUMPI PUSH2 0x2F20 DUP2 PUSH1 0x10 DUP2 GT ISZERO PUSH2 0x2FAB JUMPI INVALID JUMPDEST PUSH1 0x10 PUSH2 0x20DF JUMP JUMPDEST PUSH2 0x2FBE CALLER DUP8 DUP8 DUP8 PUSH2 0x3E68 JUMP JUMPDEST SWAP3 POP SWAP3 POP POP JUMPDEST PUSH1 0x0 DUP1 SLOAD PUSH1 0xFF NOT AND PUSH1 0x1 OR SWAP1 SSTORE SWAP1 SWAP5 SWAP1 SWAP4 POP SWAP2 POP POP JUMP JUMPDEST PUSH1 0x5 SLOAD PUSH1 0x40 DUP1 MLOAD PUSH4 0xD02F7351 PUSH1 0xE0 SHL DUP2 MSTORE ADDRESS PUSH1 0x4 DUP3 ADD MSTORE PUSH1 0x1 PUSH1 0x1 PUSH1 0xA0 SHL SUB DUP8 DUP2 AND PUSH1 0x24 DUP4 ADD MSTORE DUP7 DUP2 AND PUSH1 0x44 DUP4 ADD MSTORE DUP6 DUP2 AND PUSH1 0x64 DUP4 ADD MSTORE PUSH1 0x84 DUP3 ADD DUP6 SWAP1 MSTORE SWAP2 MLOAD PUSH1 0x0 SWAP4 DUP5 SWAP4 AND SWAP2 PUSH4 0xD02F7351 SWAP2 PUSH1 0xA4 DUP1 DUP4 ADD SWAP3 PUSH1 0x20 SWAP3 SWAP2 SWAP1 DUP3 SWAP1 SUB ADD DUP2 DUP8 DUP8 DUP1 EXTCODESIZE ISZERO DUP1 ISZERO PUSH2 0x3048 JUMPI PUSH1 0x0 DUP1 REVERT JUMPDEST POP GAS CALL ISZERO DUP1 ISZERO PUSH2 0x305C JUMPI RETURNDATASIZE PUSH1 0x0 DUP1 RETURNDATACOPY RETURNDATASIZE PUSH1 0x0 REVERT JUMPDEST POP POP POP POP PUSH1 0x40 MLOAD RETURNDATASIZE PUSH1 0x20 DUP2 LT ISZERO PUSH2 0x3072 JUMPI PUSH1 0x0 DUP1 REVERT JUMPDEST POP MLOAD SWAP1 POP DUP1 ISZERO PUSH2 0x3089 JUMPI PUSH2 0x266C PUSH1 0x3 PUSH1 0x1B DUP4 PUSH2 0x2DC1 JUMP JUMPDEST DUP5 PUSH1 0x1 PUSH1 0x1 PUSH1 0xA0 SHL SUB AND DUP5 PUSH1 0x1 PUSH1 0x1 PUSH1 0xA0 SHL SUB AND EQ ISZERO PUSH2 0x30AF JUMPI PUSH2 0x266C PUSH1 0x6 PUSH1 0x1C PUSH2 0x20DF JUMP JUMPDEST PUSH1 0x1 PUSH1 0x1 PUSH1 0xA0 SHL SUB DUP5 AND PUSH1 0x0 SWAP1 DUP2 MSTORE PUSH1 0xE PUSH1 0x20 MSTORE PUSH1 0x40 DUP2 KECCAK256 SLOAD DUP2 SWAP1 DUP2 SWAP1 PUSH2 0x30D6 SWAP1 DUP8 PUSH2 0x2D36 JUMP JUMPDEST SWAP1 SWAP4 POP SWAP2 POP PUSH1 0x0 DUP4 PUSH1 0x3 DUP2 GT ISZERO PUSH2 0x30E9 JUMPI INVALID JUMPDEST EQ PUSH2 0x310C JUMPI PUSH2 0x3101 PUSH1 0x9 PUSH1 0x1A DUP6 PUSH1 0x3 DUP2 GT ISZERO PUSH2 0x18DE JUMPI INVALID JUMPDEST SWAP5 POP POP POP POP POP PUSH2 0x284C JUMP JUMPDEST PUSH1 0x1 PUSH1 0x1 PUSH1 0xA0 SHL SUB DUP9 AND PUSH1 0x0 SWAP1 DUP2 MSTORE PUSH1 0xE PUSH1 0x20 MSTORE PUSH1 0x40 SWAP1 KECCAK256 SLOAD PUSH2 0x312F SWAP1 DUP8 PUSH2 0x2E27 JUMP JUMPDEST SWAP1 SWAP4 POP SWAP1 POP PUSH1 0x0 DUP4 PUSH1 0x3 DUP2 GT ISZERO PUSH2 0x3142 JUMPI INVALID JUMPDEST EQ PUSH2 0x315A JUMPI PUSH2 0x3101 PUSH1 0x9 PUSH1 0x19 DUP6 PUSH1 0x3 DUP2 GT ISZERO PUSH2 0x18DE JUMPI INVALID JUMPDEST PUSH1 0x1 PUSH1 0x1 PUSH1 0xA0 SHL SUB DUP1 DUP9 AND PUSH1 0x0 DUP2 DUP2 MSTORE PUSH1 0xE PUSH1 0x20 SWAP1 DUP2 MSTORE PUSH1 0x40 DUP1 DUP4 KECCAK256 DUP8 SWAP1 SSTORE SWAP4 DUP13 AND DUP1 DUP4 MSTORE SWAP2 DUP5 SWAP1 KECCAK256 DUP6 SWAP1 SSTORE DUP4 MLOAD DUP11 DUP2 MSTORE SWAP4 MLOAD SWAP2 SWAP4 PUSH1 0x0 DUP1 MLOAD PUSH1 0x20 PUSH2 0x48DB DUP4 CODECOPY DUP2 MLOAD SWAP2 MSTORE SWAP3 SWAP1 DUP2 SWAP1 SUB SWAP1 SWAP2 ADD SWAP1 LOG3 PUSH1 0x0 SWAP10 SWAP9 POP POP POP POP POP POP POP POP POP JUMP JUMPDEST PUSH1 0x0 DUP1 SLOAD PUSH1 0xFF AND PUSH2 0x31FC JUMPI PUSH1 0x40 DUP1 MLOAD PUSH3 0x461BCD PUSH1 0xE5 SHL DUP2 MSTORE PUSH1 0x20 PUSH1 0x4 DUP3 ADD MSTORE PUSH1 0xA PUSH1 0x24 DUP3 ADD MSTORE PUSH10 0x1C994B595B9D195C9959 PUSH1 0xB2 SHL PUSH1 0x44 DUP3 ADD MSTORE SWAP1 MLOAD SWAP1 DUP2 SWAP1 SUB PUSH1 0x64 ADD SWAP1 REVERT JUMPDEST PUSH1 0x0 DUP1 SLOAD PUSH1 0xFF NOT AND DUP2 SSTORE PUSH2 0x320E PUSH2 0x16F6 JUMP JUMPDEST SWAP1 POP DUP1 ISZERO PUSH2 0x322C JUMPI PUSH2 0x11F5 DUP2 PUSH1 0x10 DUP2 GT ISZERO PUSH2 0x3225 JUMPI INVALID JUMPDEST PUSH1 0x8 PUSH2 0x20DF JUMP JUMPDEST PUSH2 0x1206 CALLER DUP5 PUSH2 0x435A JUMP JUMPDEST PUSH1 0x0 DUP1 SLOAD PUSH1 0xFF AND PUSH2 0x327B JUMPI PUSH1 0x40 DUP1 MLOAD PUSH3 0x461BCD PUSH1 0xE5 SHL DUP2 MSTORE PUSH1 0x20 PUSH1 0x4 DUP3 ADD MSTORE PUSH1 0xA PUSH1 0x24 DUP3 ADD MSTORE PUSH10 0x1C994B595B9D195C9959 PUSH1 0xB2 SHL PUSH1 0x44 DUP3 ADD MSTORE SWAP1 MLOAD SWAP1 DUP2 SWAP1 SUB PUSH1 0x64 ADD SWAP1 REVERT JUMPDEST PUSH1 0x0 DUP1 SLOAD PUSH1 0xFF NOT AND DUP2 SSTORE PUSH2 0x328D PUSH2 0x16F6 JUMP JUMPDEST SWAP1 POP DUP1 ISZERO PUSH2 0x32A4 JUMPI PUSH2 0x11F5 DUP2 PUSH1 0x10 DUP2 GT ISZERO PUSH2 0x2AF6 JUMPI INVALID JUMPDEST PUSH2 0x1206 CALLER DUP5 PUSH1 0x0 PUSH2 0x3937 JUMP JUMPDEST PUSH1 0x0 DUP1 SLOAD DUP2 SWAP1 PUSH1 0xFF AND PUSH2 0x32F7 JUMPI PUSH1 0x40 DUP1 MLOAD PUSH3 0x461BCD PUSH1 0xE5 SHL DUP2 MSTORE PUSH1 0x20 PUSH1 0x4 DUP3 ADD MSTORE PUSH1 0xA PUSH1 0x24 DUP3 ADD MSTORE PUSH10 0x1C994B595B9D195C9959 PUSH1 0xB2 SHL PUSH1 0x44 DUP3 ADD MSTORE SWAP1 MLOAD SWAP1 DUP2 SWAP1 SUB PUSH1 0x64 ADD SWAP1 REVERT JUMPDEST PUSH1 0x0 DUP1 SLOAD PUSH1 0xFF NOT AND DUP2 SSTORE PUSH2 0x3309 PUSH2 0x16F6 JUMP JUMPDEST SWAP1 POP DUP1 ISZERO PUSH2 0x3334 JUMPI PUSH2 0x3327 DUP2 PUSH1 0x10 DUP2 GT ISZERO PUSH2 0x3320 JUMPI INVALID JUMPDEST PUSH1 0x35 PUSH2 0x20DF JUMP JUMPDEST SWAP3 POP PUSH1 0x0 SWAP2 POP PUSH2 0x3345 SWAP1 POP JUMP JUMPDEST PUSH2 0x333F CALLER DUP7 DUP7 PUSH2 0x35B3 JUMP JUMPDEST SWAP3 POP SWAP3 POP POP JUMPDEST PUSH1 0x0 DUP1 SLOAD PUSH1 0xFF NOT AND PUSH1 0x1 OR SWAP1 SSTORE SWAP1 SWAP4 SWAP1 SWAP3 POP SWAP1 POP JUMP JUMPDEST PUSH1 0x3 SLOAD PUSH1 0x0 SWAP1 PUSH2 0x100 SWAP1 DIV PUSH1 0x1 PUSH1 0x1 PUSH1 0xA0 SHL SUB AND CALLER EQ PUSH2 0x3381 JUMPI PUSH2 0x1247 PUSH1 0x1 PUSH1 0x47 PUSH2 0x20DF JUMP JUMPDEST PUSH2 0x3389 PUSH2 0x2BBD JUMP JUMPDEST PUSH1 0x9 SLOAD EQ PUSH2 0x339D JUMPI PUSH2 0x1247 PUSH1 0xA PUSH1 0x48 PUSH2 0x20DF JUMP JUMPDEST PUSH8 0xDE0B6B3A7640000 DUP3 GT ISZERO PUSH2 0x33B9 JUMPI PUSH2 0x1247 PUSH1 0x2 PUSH1 0x49 PUSH2 0x20DF JUMP JUMPDEST PUSH1 0x8 DUP1 SLOAD SWAP1 DUP4 SWAP1 SSTORE PUSH1 0x40 DUP1 MLOAD DUP3 DUP2 MSTORE PUSH1 0x20 DUP2 ADD DUP6 SWAP1 MSTORE DUP2 MLOAD PUSH32 0xAAA68312E2EA9D50E16AF5068410AB56E1A1FD06037B1A35664812C30F821460 SWAP3 SWAP2 DUP2 SWAP1 SUB SWAP1 SWAP2 ADD SWAP1 LOG1 PUSH1 0x0 PUSH2 0x1371 JUMP JUMPDEST PUSH1 0x0 CALLER PUSH1 0x1 PUSH1 0x1 PUSH1 0xA0 SHL SUB DUP5 AND EQ PUSH2 0x3454 JUMPI PUSH1 0x40 DUP1 MLOAD PUSH3 0x461BCD PUSH1 0xE5 SHL DUP2 MSTORE PUSH1 0x20 PUSH1 0x4 DUP3 ADD MSTORE PUSH1 0xF PUSH1 0x24 DUP3 ADD MSTORE PUSH15 0xE6CADCC8CAE440DAD2E6DAC2E8C6D PUSH1 0x8B SHL PUSH1 0x44 DUP3 ADD MSTORE SWAP1 MLOAD SWAP1 DUP2 SWAP1 SUB PUSH1 0x64 ADD SWAP1 REVERT JUMPDEST DUP2 CALLVALUE EQ PUSH2 0x3499 JUMPI PUSH1 0x40 DUP1 MLOAD PUSH3 0x461BCD PUSH1 0xE5 SHL DUP2 MSTORE PUSH1 0x20 PUSH1 0x4 DUP3 ADD MSTORE PUSH1 0xE PUSH1 0x24 DUP3 ADD MSTORE PUSH14 0xECC2D8EACA40DAD2E6DAC2E8C6D PUSH1 0x93 SHL PUSH1 0x44 DUP3 ADD MSTORE SWAP1 MLOAD SWAP1 DUP2 SWAP1 SUB PUSH1 0x64 ADD SWAP1 REVERT JUMPDEST POP SWAP2 SWAP1 POP JUMP JUMPDEST PUSH1 0x0 DUP1 PUSH1 0x0 PUSH2 0x34AC PUSH2 0x464D JUMP JUMPDEST PUSH2 0x286B DUP7 DUP7 PUSH2 0x45EE JUMP JUMPDEST PUSH1 0x0 DUP1 PUSH1 0x0 DUP1 PUSH2 0x34C6 DUP8 DUP8 PUSH2 0x2E27 JUMP JUMPDEST SWAP1 SWAP3 POP SWAP1 POP PUSH1 0x0 DUP3 PUSH1 0x3 DUP2 GT ISZERO PUSH2 0x34D9 JUMPI INVALID JUMPDEST EQ PUSH2 0x34EA JUMPI POP SWAP2 POP PUSH1 0x0 SWAP1 POP PUSH2 0x2EA1 JUMP JUMPDEST PUSH2 0x2E9A DUP2 DUP7 PUSH2 0x2D36 JUMP JUMPDEST PUSH1 0x0 PUSH2 0x34FE PUSH2 0x464D JUMP JUMPDEST PUSH1 0x0 DUP1 PUSH2 0x3513 DUP7 PUSH8 0xDE0B6B3A7640000 PUSH2 0x3DFE JUMP JUMPDEST SWAP1 SWAP3 POP SWAP1 POP PUSH1 0x0 DUP3 PUSH1 0x3 DUP2 GT ISZERO PUSH2 0x3526 JUMPI INVALID JUMPDEST EQ PUSH2 0x3545 JUMPI POP PUSH1 0x40 DUP1 MLOAD PUSH1 0x20 DUP2 ADD SWAP1 SWAP2 MSTORE PUSH1 0x0 DUP2 MSTORE SWAP1 SWAP3 POP SWAP1 POP PUSH2 0x2510 JUMP JUMPDEST PUSH1 0x0 DUP1 PUSH2 0x3552 DUP4 DUP9 PUSH2 0x3E3D JUMP JUMPDEST SWAP1 SWAP3 POP SWAP1 POP PUSH1 0x0 DUP3 PUSH1 0x3 DUP2 GT ISZERO PUSH2 0x3565 JUMPI INVALID JUMPDEST EQ PUSH2 0x3587 JUMPI POP PUSH1 0x40 DUP1 MLOAD PUSH1 0x20 DUP2 ADD SWAP1 SWAP2 MSTORE PUSH1 0x0 DUP2 MSTORE SWAP1 SWAP5 POP SWAP3 POP PUSH2 0x2510 SWAP2 POP POP JUMP JUMPDEST PUSH1 0x40 DUP1 MLOAD PUSH1 0x20 DUP2 ADD SWAP1 SWAP2 MSTORE SWAP1 DUP2 MSTORE PUSH1 0x0 SWAP9 SWAP1 SWAP8 POP SWAP6 POP POP POP POP POP POP JUMP JUMPDEST MLOAD PUSH8 0xDE0B6B3A7640000 SWAP1 DIV SWAP1 JUMP JUMPDEST PUSH1 0x5 SLOAD PUSH1 0x40 DUP1 MLOAD PUSH4 0x12004531 PUSH1 0xE1 SHL DUP2 MSTORE ADDRESS PUSH1 0x4 DUP3 ADD MSTORE PUSH1 0x1 PUSH1 0x1 PUSH1 0xA0 SHL SUB DUP7 DUP2 AND PUSH1 0x24 DUP4 ADD MSTORE DUP6 DUP2 AND PUSH1 0x44 DUP4 ADD MSTORE PUSH1 0x64 DUP3 ADD DUP6 SWAP1 MSTORE SWAP2 MLOAD PUSH1 0x0 SWAP4 DUP5 SWAP4 DUP5 SWAP4 SWAP2 AND SWAP2 PUSH4 0x24008A62 SWAP2 PUSH1 0x84 DUP1 DUP3 ADD SWAP3 PUSH1 0x20 SWAP3 SWAP1 SWAP2 SWAP1 DUP3 SWAP1 SUB ADD DUP2 DUP8 DUP8 DUP1 EXTCODESIZE ISZERO DUP1 ISZERO PUSH2 0x361C JUMPI PUSH1 0x0 DUP1 REVERT JUMPDEST POP GAS CALL ISZERO DUP1 ISZERO PUSH2 0x3630 JUMPI RETURNDATASIZE PUSH1 0x0 DUP1 RETURNDATACOPY RETURNDATASIZE PUSH1 0x0 REVERT JUMPDEST POP POP POP POP PUSH1 0x40 MLOAD RETURNDATASIZE PUSH1 0x20 DUP2 LT ISZERO PUSH2 0x3646 JUMPI PUSH1 0x0 DUP1 REVERT JUMPDEST POP MLOAD SWAP1 POP DUP1 ISZERO PUSH2 0x366A JUMPI PUSH2 0x365D PUSH1 0x3 PUSH1 0x38 DUP4 PUSH2 0x2DC1 JUMP JUMPDEST SWAP3 POP PUSH1 0x0 SWAP2 POP PUSH2 0x2EA1 SWAP1 POP JUMP JUMPDEST PUSH2 0x3672 PUSH2 0x2BBD JUMP JUMPDEST PUSH1 0x9 SLOAD EQ PUSH2 0x3686 JUMPI PUSH2 0x365D PUSH1 0xA PUSH1 0x39 PUSH2 0x20DF JUMP JUMPDEST PUSH2 0x368E PUSH2 0x471C JUMP JUMPDEST PUSH1 0x1 PUSH1 0x1 PUSH1 0xA0 SHL SUB DUP7 AND PUSH1 0x0 SWAP1 DUP2 MSTORE PUSH1 0x10 PUSH1 0x20 MSTORE PUSH1 0x40 SWAP1 KECCAK256 PUSH1 0x1 ADD SLOAD PUSH1 0x60 DUP3 ADD MSTORE PUSH2 0x36B8 DUP7 PUSH2 0x2B09 JUMP JUMPDEST PUSH1 0x80 DUP4 ADD DUP2 SWAP1 MSTORE PUSH1 0x20 DUP4 ADD DUP3 PUSH1 0x3 DUP2 GT ISZERO PUSH2 0x36CF JUMPI INVALID JUMPDEST PUSH1 0x3 DUP2 GT ISZERO PUSH2 0x36DA JUMPI INVALID JUMPDEST SWAP1 MSTORE POP PUSH1 0x0 SWAP1 POP DUP2 PUSH1 0x20 ADD MLOAD PUSH1 0x3 DUP2 GT ISZERO PUSH2 0x36F1 JUMPI INVALID JUMPDEST EQ PUSH2 0x371B JUMPI PUSH2 0x370D PUSH1 0x9 PUSH1 0x37 DUP4 PUSH1 0x20 ADD MLOAD PUSH1 0x3 DUP2 GT ISZERO PUSH2 0x18DE JUMPI INVALID JUMPDEST SWAP4 POP PUSH1 0x0 SWAP3 POP PUSH2 0x2EA1 SWAP2 POP POP JUMP JUMPDEST PUSH1 0x0 NOT DUP6 EQ ISZERO PUSH2 0x3734 JUMPI PUSH1 0x80 DUP2 ADD MLOAD PUSH1 0x40 DUP3 ADD MSTORE PUSH2 0x373C JUMP JUMPDEST PUSH1 0x40 DUP2 ADD DUP6 SWAP1 MSTORE JUMPDEST PUSH2 0x374A DUP8 DUP3 PUSH1 0x40 ADD MLOAD PUSH2 0x3403 JUMP JUMPDEST PUSH1 0xE0 DUP3 ADD DUP2 SWAP1 MSTORE PUSH1 0x80 DUP3 ADD MLOAD PUSH2 0x375F SWAP2 PUSH2 0x2D36 JUMP JUMPDEST PUSH1 0xA0 DUP4 ADD DUP2 SWAP1 MSTORE PUSH1 0x20 DUP4 ADD DUP3 PUSH1 0x3 DUP2 GT ISZERO PUSH2 0x3776 JUMPI INVALID JUMPDEST PUSH1 0x3 DUP2 GT ISZERO PUSH2 0x3781 JUMPI INVALID JUMPDEST SWAP1 MSTORE POP PUSH1 0x0 SWAP1 POP DUP2 PUSH1 0x20 ADD MLOAD PUSH1 0x3 DUP2 GT ISZERO PUSH2 0x3798 JUMPI INVALID JUMPDEST EQ PUSH2 0x37D4 JUMPI PUSH1 0x40 MLOAD PUSH3 0x461BCD PUSH1 0xE5 SHL DUP2 MSTORE PUSH1 0x4 ADD DUP1 DUP1 PUSH1 0x20 ADD DUP3 DUP2 SUB DUP3 MSTORE PUSH1 0x3A DUP2 MSTORE PUSH1 0x20 ADD DUP1 PUSH2 0x48A1 PUSH1 0x3A SWAP2 CODECOPY PUSH1 0x40 ADD SWAP2 POP POP PUSH1 0x40 MLOAD DUP1 SWAP2 SUB SWAP1 REVERT JUMPDEST PUSH2 0x37E4 PUSH1 0xB SLOAD DUP3 PUSH1 0xE0 ADD MLOAD PUSH2 0x2D36 JUMP JUMPDEST PUSH1 0xC0 DUP4 ADD DUP2 SWAP1 MSTORE PUSH1 0x20 DUP4 ADD DUP3 PUSH1 0x3 DUP2 GT ISZERO PUSH2 0x37FB JUMPI INVALID JUMPDEST PUSH1 0x3 DUP2 GT ISZERO PUSH2 0x3806 JUMPI INVALID JUMPDEST SWAP1 MSTORE POP PUSH1 0x0 SWAP1 POP DUP2 PUSH1 0x20 ADD MLOAD PUSH1 0x3 DUP2 GT ISZERO PUSH2 0x381D JUMPI INVALID JUMPDEST EQ PUSH2 0x3859 JUMPI PUSH1 0x40 MLOAD PUSH3 0x461BCD PUSH1 0xE5 SHL DUP2 MSTORE PUSH1 0x4 ADD DUP1 DUP1 PUSH1 0x20 ADD DUP3 DUP2 SUB DUP3 MSTORE PUSH1 0x31 DUP2 MSTORE PUSH1 0x20 ADD DUP1 PUSH2 0x48FB PUSH1 0x31 SWAP2 CODECOPY PUSH1 0x40 ADD SWAP2 POP POP PUSH1 0x40 MLOAD DUP1 SWAP2 SUB SWAP1 REVERT JUMPDEST PUSH1 0xA0 DUP1 DUP3 ADD DUP1 MLOAD PUSH1 0x1 PUSH1 0x1 PUSH1 0xA0 SHL SUB DUP1 DUP11 AND PUSH1 0x0 DUP2 DUP2 MSTORE PUSH1 0x10 PUSH1 0x20 SWAP1 DUP2 MSTORE PUSH1 0x40 SWAP2 DUP3 SWAP1 KECCAK256 SWAP5 DUP6 SSTORE PUSH1 0xA SLOAD PUSH1 0x1 SWAP1 SWAP6 ADD SWAP5 SWAP1 SWAP5 SSTORE PUSH1 0xC0 DUP8 ADD MLOAD PUSH1 0xB DUP2 SWAP1 SSTORE PUSH1 0xE0 DUP9 ADD MLOAD SWAP6 MLOAD DUP3 MLOAD SWAP5 DUP16 AND DUP6 MSTORE SWAP5 DUP5 ADD SWAP3 SWAP1 SWAP3 MSTORE DUP3 DUP2 ADD SWAP5 SWAP1 SWAP5 MSTORE PUSH1 0x60 DUP3 ADD SWAP3 SWAP1 SWAP3 MSTORE PUSH1 0x80 DUP2 ADD SWAP2 SWAP1 SWAP2 MSTORE SWAP1 MLOAD PUSH32 0x1A2A22CB034D26D1854BDC6666A5B91FE25EFBBB5DCAD3B0355478D6F5C362A1 SWAP3 SWAP2 DUP2 SWAP1 SUB SWAP1 SWAP2 ADD SWAP1 LOG1 PUSH1 0xE0 ADD MLOAD PUSH1 0x0 SWAP8 SWAP1 SWAP7 POP SWAP5 POP POP POP POP POP JUMP JUMPDEST PUSH1 0x40 MLOAD PUSH1 0x1 PUSH1 0x1 PUSH1 0xA0 SHL SUB DUP4 AND SWAP1 DUP3 ISZERO PUSH2 0x8FC MUL SWAP1 DUP4 SWAP1 PUSH1 0x0 DUP2 DUP2 DUP2 DUP6 DUP9 DUP9 CALL SWAP4 POP POP POP POP ISZERO DUP1 ISZERO PUSH2 0x1B0D JUMPI RETURNDATASIZE PUSH1 0x0 DUP1 RETURNDATACOPY RETURNDATASIZE PUSH1 0x0 REVERT JUMPDEST PUSH1 0x0 DUP3 ISZERO DUP1 PUSH2 0x3944 JUMPI POP DUP2 ISZERO JUMPDEST PUSH2 0x397F JUMPI PUSH1 0x40 MLOAD PUSH3 0x461BCD PUSH1 0xE5 SHL DUP2 MSTORE PUSH1 0x4 ADD DUP1 DUP1 PUSH1 0x20 ADD DUP3 DUP2 SUB DUP3 MSTORE PUSH1 0x34 DUP2 MSTORE PUSH1 0x20 ADD DUP1 PUSH2 0x49BC PUSH1 0x34 SWAP2 CODECOPY PUSH1 0x40 ADD SWAP2 POP POP PUSH1 0x40 MLOAD DUP1 SWAP2 SUB SWAP1 REVERT JUMPDEST PUSH2 0x3987 PUSH2 0x46DE JUMP JUMPDEST PUSH2 0x398F PUSH2 0x2517 JUMP JUMPDEST PUSH1 0x40 DUP4 ADD DUP2 SWAP1 MSTORE PUSH1 0x20 DUP4 ADD DUP3 PUSH1 0x3 DUP2 GT ISZERO PUSH2 0x39A6 JUMPI INVALID JUMPDEST PUSH1 0x3 DUP2 GT ISZERO PUSH2 0x39B1 JUMPI INVALID JUMPDEST SWAP1 MSTORE POP PUSH1 0x0 SWAP1 POP DUP2 PUSH1 0x20 ADD MLOAD PUSH1 0x3 DUP2 GT ISZERO PUSH2 0x39C8 JUMPI INVALID JUMPDEST EQ PUSH2 0x39EC JUMPI PUSH2 0x39E4 PUSH1 0x9 PUSH1 0x2B DUP4 PUSH1 0x20 ADD MLOAD PUSH1 0x3 DUP2 GT ISZERO PUSH2 0x18DE JUMPI INVALID JUMPDEST SWAP2 POP POP PUSH2 0x1371 JUMP JUMPDEST DUP4 ISZERO PUSH2 0x3A6D JUMPI PUSH1 0x60 DUP2 ADD DUP5 SWAP1 MSTORE PUSH1 0x40 DUP1 MLOAD PUSH1 0x20 DUP2 ADD DUP3 MSTORE SWAP1 DUP3 ADD MLOAD DUP2 MSTORE PUSH2 0x3A13 SWAP1 DUP6 PUSH2 0x2854 JUMP JUMPDEST PUSH1 0x80 DUP4 ADD DUP2 SWAP1 MSTORE PUSH1 0x20 DUP4 ADD DUP3 PUSH1 0x3 DUP2 GT ISZERO PUSH2 0x3A2A JUMPI INVALID JUMPDEST PUSH1 0x3 DUP2 GT ISZERO PUSH2 0x3A35 JUMPI INVALID JUMPDEST SWAP1 MSTORE POP PUSH1 0x0 SWAP1 POP DUP2 PUSH1 0x20 ADD MLOAD PUSH1 0x3 DUP2 GT ISZERO PUSH2 0x3A4C JUMPI INVALID JUMPDEST EQ PUSH2 0x3A68 JUMPI PUSH2 0x39E4 PUSH1 0x9 PUSH1 0x29 DUP4 PUSH1 0x20 ADD MLOAD PUSH1 0x3 DUP2 GT ISZERO PUSH2 0x18DE JUMPI INVALID JUMPDEST PUSH2 0x3AE6 JUMP JUMPDEST PUSH2 0x3A89 DUP4 PUSH1 0x40 MLOAD DUP1 PUSH1 0x20 ADD PUSH1 0x40 MSTORE DUP1 DUP5 PUSH1 0x40 ADD MLOAD DUP2 MSTORE POP PUSH2 0x349F JUMP JUMPDEST PUSH1 0x60 DUP4 ADD DUP2 SWAP1 MSTORE PUSH1 0x20 DUP4 ADD DUP3 PUSH1 0x3 DUP2 GT ISZERO PUSH2 0x3AA0 JUMPI INVALID JUMPDEST PUSH1 0x3 DUP2 GT ISZERO PUSH2 0x3AAB JUMPI INVALID JUMPDEST SWAP1 MSTORE POP PUSH1 0x0 SWAP1 POP DUP2 PUSH1 0x20 ADD MLOAD PUSH1 0x3 DUP2 GT ISZERO PUSH2 0x3AC2 JUMPI INVALID JUMPDEST EQ PUSH2 0x3ADE JUMPI PUSH2 0x39E4 PUSH1 0x9 PUSH1 0x2A DUP4 PUSH1 0x20 ADD MLOAD PUSH1 0x3 DUP2 GT ISZERO PUSH2 0x18DE JUMPI INVALID JUMPDEST PUSH1 0x80 DUP2 ADD DUP4 SWAP1 MSTORE JUMPDEST PUSH1 0x5 SLOAD PUSH1 0x60 DUP3 ADD MLOAD PUSH1 0x40 DUP1 MLOAD PUSH4 0xEABE7D91 PUSH1 0xE0 SHL DUP2 MSTORE ADDRESS PUSH1 0x4 DUP3 ADD MSTORE PUSH1 0x1 PUSH1 0x1 PUSH1 0xA0 SHL SUB DUP10 DUP2 AND PUSH1 0x24 DUP4 ADD MSTORE PUSH1 0x44 DUP3 ADD SWAP4 SWAP1 SWAP4 MSTORE SWAP1 MLOAD PUSH1 0x0 SWAP4 SWAP3 SWAP1 SWAP3 AND SWAP2 PUSH4 0xEABE7D91 SWAP2 PUSH1 0x64 DUP1 DUP3 ADD SWAP3 PUSH1 0x20 SWAP3 SWAP1 SWAP2 SWAP1 DUP3 SWAP1 SUB ADD DUP2 DUP8 DUP8 DUP1 EXTCODESIZE ISZERO DUP1 ISZERO PUSH2 0x3B4B JUMPI PUSH1 0x0 DUP1 REVERT JUMPDEST POP GAS CALL ISZERO DUP1 ISZERO PUSH2 0x3B5F JUMPI RETURNDATASIZE PUSH1 0x0 DUP1 RETURNDATACOPY RETURNDATASIZE PUSH1 0x0 REVERT JUMPDEST POP POP POP POP PUSH1 0x40 MLOAD RETURNDATASIZE PUSH1 0x20 DUP2 LT ISZERO PUSH2 0x3B75 JUMPI PUSH1 0x0 DUP1 REVERT JUMPDEST POP MLOAD SWAP1 POP DUP1 ISZERO PUSH2 0x3B95 JUMPI PUSH2 0x3B8C PUSH1 0x3 PUSH1 0x28 DUP4 PUSH2 0x2DC1 JUMP JUMPDEST SWAP3 POP POP POP PUSH2 0x1371 JUMP JUMPDEST PUSH2 0x3B9D PUSH2 0x2BBD JUMP JUMPDEST PUSH1 0x9 SLOAD EQ PUSH2 0x3BB1 JUMPI PUSH2 0x3B8C PUSH1 0xA PUSH1 0x2C PUSH2 0x20DF JUMP JUMPDEST PUSH2 0x3BC1 PUSH1 0xD SLOAD DUP4 PUSH1 0x60 ADD MLOAD PUSH2 0x2D36 JUMP JUMPDEST PUSH1 0xA0 DUP5 ADD DUP2 SWAP1 MSTORE PUSH1 0x20 DUP5 ADD DUP3 PUSH1 0x3 DUP2 GT ISZERO PUSH2 0x3BD8 JUMPI INVALID JUMPDEST PUSH1 0x3 DUP2 GT ISZERO PUSH2 0x3BE3 JUMPI INVALID JUMPDEST SWAP1 MSTORE POP PUSH1 0x0 SWAP1 POP DUP3 PUSH1 0x20 ADD MLOAD PUSH1 0x3 DUP2 GT ISZERO PUSH2 0x3BFA JUMPI INVALID JUMPDEST EQ PUSH2 0x3C16 JUMPI PUSH2 0x3B8C PUSH1 0x9 PUSH1 0x2E DUP5 PUSH1 0x20 ADD MLOAD PUSH1 0x3 DUP2 GT ISZERO PUSH2 0x18DE JUMPI INVALID JUMPDEST PUSH1 0x1 PUSH1 0x1 PUSH1 0xA0 SHL SUB DUP7 AND PUSH1 0x0 SWAP1 DUP2 MSTORE PUSH1 0xE PUSH1 0x20 MSTORE PUSH1 0x40 SWAP1 KECCAK256 SLOAD PUSH1 0x60 DUP4 ADD MLOAD PUSH2 0x3C3E SWAP2 SWAP1 PUSH2 0x2D36 JUMP JUMPDEST PUSH1 0xC0 DUP5 ADD DUP2 SWAP1 MSTORE PUSH1 0x20 DUP5 ADD DUP3 PUSH1 0x3 DUP2 GT ISZERO PUSH2 0x3C55 JUMPI INVALID JUMPDEST PUSH1 0x3 DUP2 GT ISZERO PUSH2 0x3C60 JUMPI INVALID JUMPDEST SWAP1 MSTORE POP PUSH1 0x0 SWAP1 POP DUP3 PUSH1 0x20 ADD MLOAD PUSH1 0x3 DUP2 GT ISZERO PUSH2 0x3C77 JUMPI INVALID JUMPDEST EQ PUSH2 0x3C93 JUMPI PUSH2 0x3B8C PUSH1 0x9 PUSH1 0x2D DUP5 PUSH1 0x20 ADD MLOAD PUSH1 0x3 DUP2 GT ISZERO PUSH2 0x18DE JUMPI INVALID JUMPDEST DUP2 PUSH1 0x80 ADD MLOAD PUSH2 0x3CA0 PUSH2 0x28A7 JUMP JUMPDEST LT ISZERO PUSH2 0x3CB2 JUMPI PUSH2 0x3B8C PUSH1 0xE PUSH1 0x2F PUSH2 0x20DF JUMP JUMPDEST PUSH2 0x3CC0 DUP7 DUP4 PUSH1 0x80 ADD MLOAD PUSH2 0x3901 JUMP JUMPDEST PUSH1 0xA0 DUP3 ADD MLOAD PUSH1 0xD SSTORE PUSH1 0xC0 DUP3 ADD MLOAD PUSH1 0x1 PUSH1 0x1 PUSH1 0xA0 SHL SUB DUP8 AND PUSH1 0x0 DUP2 DUP2 MSTORE PUSH1 0xE PUSH1 0x20 SWAP1 DUP2 MSTORE PUSH1 0x40 SWAP2 DUP3 SWAP1 KECCAK256 SWAP4 SWAP1 SWAP4 SSTORE PUSH1 0x60 DUP6 ADD MLOAD DUP2 MLOAD SWAP1 DUP2 MSTORE SWAP1 MLOAD ADDRESS SWAP4 PUSH1 0x0 DUP1 MLOAD PUSH1 0x20 PUSH2 0x48DB DUP4 CODECOPY DUP2 MLOAD SWAP2 MSTORE SWAP3 DUP3 SWAP1 SUB ADD SWAP1 LOG3 PUSH1 0x80 DUP3 ADD MLOAD PUSH1 0x60 DUP1 DUP5 ADD MLOAD PUSH1 0x40 DUP1 MLOAD PUSH1 0x1 PUSH1 0x1 PUSH1 0xA0 SHL SUB DUP12 AND DUP2 MSTORE PUSH1 0x20 DUP2 ADD SWAP5 SWAP1 SWAP5 MSTORE DUP4 DUP2 ADD SWAP2 SWAP1 SWAP2 MSTORE MLOAD PUSH32 0xE5B754FB1ABB7F01B499791D0B820AE3B6AF3424AC1C59768EDB53F4EC31A929 SWAP3 DUP2 SWAP1 SUB SWAP1 SWAP2 ADD SWAP1 LOG1 PUSH1 0x5 SLOAD PUSH1 0x80 DUP4 ADD MLOAD PUSH1 0x60 DUP5 ADD MLOAD PUSH1 0x40 DUP1 MLOAD PUSH4 0x51DFF989 PUSH1 0xE0 SHL DUP2 MSTORE ADDRESS PUSH1 0x4 DUP3 ADD MSTORE PUSH1 0x1 PUSH1 0x1 PUSH1 0xA0 SHL SUB DUP12 DUP2 AND PUSH1 0x24 DUP4 ADD MSTORE PUSH1 0x44 DUP3 ADD SWAP5 SWAP1 SWAP5 MSTORE PUSH1 0x64 DUP2 ADD SWAP3 SWAP1 SWAP3 MSTORE MLOAD SWAP2 SWAP1 SWAP3 AND SWAP2 PUSH4 0x51DFF989 SWAP2 PUSH1 0x84 DUP1 DUP4 ADD SWAP3 PUSH1 0x0 SWAP3 SWAP2 SWAP1 DUP3 SWAP1 SUB ADD DUP2 DUP4 DUP8 DUP1 EXTCODESIZE ISZERO DUP1 ISZERO PUSH2 0x3DD3 JUMPI PUSH1 0x0 DUP1 REVERT JUMPDEST POP GAS CALL ISZERO DUP1 ISZERO PUSH2 0x3DE7 JUMPI RETURNDATASIZE PUSH1 0x0 DUP1 RETURNDATACOPY RETURNDATASIZE PUSH1 0x0 REVERT JUMPDEST POP PUSH1 0x0 SWAP3 POP PUSH2 0x3DF4 SWAP2 POP POP JUMP JUMPDEST SWAP7 SWAP6 POP POP POP POP POP POP JUMP JUMPDEST PUSH1 0x0 DUP1 DUP4 PUSH2 0x3E11 JUMPI POP PUSH1 0x0 SWAP1 POP DUP1 PUSH2 0x2510 JUMP JUMPDEST DUP4 DUP4 MUL DUP4 DUP6 DUP3 DUP2 PUSH2 0x3E1E JUMPI INVALID JUMPDEST DIV EQ PUSH2 0x3E32 JUMPI POP PUSH1 0x2 SWAP2 POP PUSH1 0x0 SWAP1 POP PUSH2 0x2510 JUMP JUMPDEST PUSH1 0x0 SWAP3 POP SWAP1 POP PUSH2 0x2510 JUMP JUMPDEST PUSH1 0x0 DUP1 DUP3 PUSH2 0x3E51 JUMPI POP PUSH1 0x1 SWAP1 POP PUSH1 0x0 PUSH2 0x2510 JUMP JUMPDEST PUSH1 0x0 DUP4 DUP6 DUP2 PUSH2 0x3E5C JUMPI INVALID JUMPDEST DIV SWAP2 POP SWAP2 POP SWAP3 POP SWAP3 SWAP1 POP JUMP JUMPDEST PUSH1 0x5 SLOAD PUSH1 0x40 DUP1 MLOAD PUSH4 0x2FE3F38F PUSH1 0xE1 SHL DUP2 MSTORE ADDRESS PUSH1 0x4 DUP3 ADD MSTORE PUSH1 0x1 PUSH1 0x1 PUSH1 0xA0 SHL SUB DUP5 DUP2 AND PUSH1 0x24 DUP4 ADD MSTORE DUP8 DUP2 AND PUSH1 0x44 DUP4 ADD MSTORE DUP7 DUP2 AND PUSH1 0x64 DUP4 ADD MSTORE PUSH1 0x84 DUP3 ADD DUP7 SWAP1 MSTORE SWAP2 MLOAD PUSH1 0x0 SWAP4 DUP5 SWAP4 DUP5 SWAP4 SWAP2 AND SWAP2 PUSH4 0x5FC7E71E SWAP2 PUSH1 0xA4 DUP1 DUP3 ADD SWAP3 PUSH1 0x20 SWAP3 SWAP1 SWAP2 SWAP1 DUP3 SWAP1 SUB ADD DUP2 DUP8 DUP8 DUP1 EXTCODESIZE ISZERO DUP1 ISZERO PUSH2 0x3ED9 JUMPI PUSH1 0x0 DUP1 REVERT JUMPDEST POP GAS CALL ISZERO DUP1 ISZERO PUSH2 0x3EED JUMPI RETURNDATASIZE PUSH1 0x0 DUP1 RETURNDATACOPY RETURNDATASIZE PUSH1 0x0 REVERT JUMPDEST POP POP POP POP PUSH1 0x40 MLOAD RETURNDATASIZE PUSH1 0x20 DUP2 LT ISZERO PUSH2 0x3F03 JUMPI PUSH1 0x0 DUP1 REVERT JUMPDEST POP MLOAD SWAP1 POP DUP1 ISZERO PUSH2 0x3F27 JUMPI PUSH2 0x3F1A PUSH1 0x3 PUSH1 0x12 DUP4 PUSH2 0x2DC1 JUMP JUMPDEST SWAP3 POP PUSH1 0x0 SWAP2 POP PUSH2 0x4351 SWAP1 POP JUMP JUMPDEST PUSH2 0x3F2F PUSH2 0x2BBD JUMP JUMPDEST PUSH1 0x9 SLOAD EQ PUSH2 0x3F43 JUMPI PUSH2 0x3F1A PUSH1 0xA PUSH1 0x16 PUSH2 0x20DF JUMP JUMPDEST PUSH2 0x3F4B PUSH2 0x2BBD JUMP JUMPDEST DUP5 PUSH1 0x1 PUSH1 0x1 PUSH1 0xA0 SHL SUB AND PUSH4 0x6C540BAF PUSH1 0x40 MLOAD DUP2 PUSH4 0xFFFFFFFF AND PUSH1 0xE0 SHL DUP2 MSTORE PUSH1 0x4 ADD PUSH1 0x20 PUSH1 0x40 MLOAD DUP1 DUP4 SUB DUP2 DUP7 DUP1 EXTCODESIZE ISZERO DUP1 ISZERO PUSH2 0x3F84 JUMPI PUSH1 0x0 DUP1 REVERT JUMPDEST POP GAS STATICCALL ISZERO DUP1 ISZERO PUSH2 0x3F98 JUMPI RETURNDATASIZE PUSH1 0x0 DUP1 RETURNDATACOPY RETURNDATASIZE PUSH1 0x0 REVERT JUMPDEST POP POP POP POP PUSH1 0x40 MLOAD RETURNDATASIZE PUSH1 0x20 DUP2 LT ISZERO PUSH2 0x3FAE JUMPI PUSH1 0x0 DUP1 REVERT JUMPDEST POP MLOAD EQ PUSH2 0x3FC1 JUMPI PUSH2 0x3F1A PUSH1 0xA PUSH1 0x11 PUSH2 0x20DF JUMP JUMPDEST DUP7 PUSH1 0x1 PUSH1 0x1 PUSH1 0xA0 SHL SUB AND DUP7 PUSH1 0x1 PUSH1 0x1 PUSH1 0xA0 SHL SUB AND EQ ISZERO PUSH2 0x3FE7 JUMPI PUSH2 0x3F1A PUSH1 0x6 PUSH1 0x17 PUSH2 0x20DF JUMP JUMPDEST DUP5 PUSH2 0x3FF8 JUMPI PUSH2 0x3F1A PUSH1 0x7 PUSH1 0x15 PUSH2 0x20DF JUMP JUMPDEST PUSH1 0x0 NOT DUP6 EQ ISZERO PUSH2 0x400E JUMPI PUSH2 0x3F1A PUSH1 0x7 PUSH1 0x14 PUSH2 0x20DF JUMP JUMPDEST PUSH1 0x0 DUP1 PUSH2 0x401C DUP10 DUP10 DUP10 PUSH2 0x35B3 JUMP JUMPDEST SWAP1 SWAP3 POP SWAP1 POP DUP2 ISZERO PUSH2 0x404C JUMPI PUSH2 0x403D DUP3 PUSH1 0x10 DUP2 GT ISZERO PUSH2 0x4036 JUMPI INVALID JUMPDEST PUSH1 0x18 PUSH2 0x20DF JUMP JUMPDEST SWAP5 POP PUSH1 0x0 SWAP4 POP PUSH2 0x4351 SWAP3 POP POP POP JUMP JUMPDEST PUSH1 0x5 SLOAD PUSH1 0x40 DUP1 MLOAD PUSH4 0xC488847B PUSH1 0xE0 SHL DUP2 MSTORE ADDRESS PUSH1 0x4 DUP3 ADD MSTORE PUSH1 0x1 PUSH1 0x1 PUSH1 0xA0 SHL SUB DUP10 DUP2 AND PUSH1 0x24 DUP4 ADD MSTORE PUSH1 0x44 DUP3 ADD DUP6 SWAP1 MSTORE DUP3 MLOAD PUSH1 0x0 SWAP5 DUP6 SWAP5 SWAP3 AND SWAP3 PUSH4 0xC488847B SWAP3 PUSH1 0x64 DUP1 DUP4 ADD SWAP4 SWAP2 SWAP3 DUP3 SWAP1 SUB ADD DUP2 DUP7 DUP1 EXTCODESIZE ISZERO DUP1 ISZERO PUSH2 0x40A6 JUMPI PUSH1 0x0 DUP1 REVERT JUMPDEST POP GAS STATICCALL ISZERO DUP1 ISZERO PUSH2 0x40BA JUMPI RETURNDATASIZE PUSH1 0x0 DUP1 RETURNDATACOPY RETURNDATASIZE PUSH1 0x0 REVERT JUMPDEST POP POP POP POP PUSH1 0x40 MLOAD RETURNDATASIZE PUSH1 0x40 DUP2 LT ISZERO PUSH2 0x40D0 JUMPI PUSH1 0x0 DUP1 REVERT JUMPDEST POP DUP1 MLOAD PUSH1 0x20 SWAP1 SWAP2 ADD MLOAD SWAP1 SWAP3 POP SWAP1 POP DUP2 ISZERO PUSH2 0x411B JUMPI PUSH1 0x40 MLOAD PUSH3 0x461BCD PUSH1 0xE5 SHL DUP2 MSTORE PUSH1 0x4 ADD DUP1 DUP1 PUSH1 0x20 ADD DUP3 DUP2 SUB DUP3 MSTORE PUSH1 0x33 DUP2 MSTORE PUSH1 0x20 ADD DUP1 PUSH2 0x492C PUSH1 0x33 SWAP2 CODECOPY PUSH1 0x40 ADD SWAP2 POP POP PUSH1 0x40 MLOAD DUP1 SWAP2 SUB SWAP1 REVERT JUMPDEST DUP1 DUP9 PUSH1 0x1 PUSH1 0x1 PUSH1 0xA0 SHL SUB AND PUSH4 0x70A08231 DUP13 PUSH1 0x40 MLOAD DUP3 PUSH4 0xFFFFFFFF AND PUSH1 0xE0 SHL DUP2 MSTORE PUSH1 0x4 ADD DUP1 DUP3 PUSH1 0x1 PUSH1 0x1 PUSH1 0xA0 SHL SUB AND PUSH1 0x1 PUSH1 0x1 PUSH1 0xA0 SHL SUB AND DUP2 MSTORE PUSH1 0x20 ADD SWAP2 POP POP PUSH1 0x20 PUSH1 0x40 MLOAD DUP1 DUP4 SUB DUP2 DUP7 DUP1 EXTCODESIZE ISZERO DUP1 ISZERO PUSH2 0x4172 JUMPI PUSH1 0x0 DUP1 REVERT JUMPDEST POP GAS STATICCALL ISZERO DUP1 ISZERO PUSH2 0x4186 JUMPI RETURNDATASIZE PUSH1 0x0 DUP1 RETURNDATACOPY RETURNDATASIZE PUSH1 0x0 REVERT JUMPDEST POP POP POP POP PUSH1 0x40 MLOAD RETURNDATASIZE PUSH1 0x20 DUP2 LT ISZERO PUSH2 0x419C JUMPI PUSH1 0x0 DUP1 REVERT JUMPDEST POP MLOAD LT ISZERO PUSH2 0x41F1 JUMPI PUSH1 0x40 DUP1 MLOAD PUSH3 0x461BCD PUSH1 0xE5 SHL DUP2 MSTORE PUSH1 0x20 PUSH1 0x4 DUP3 ADD MSTORE PUSH1 0x18 PUSH1 0x24 DUP3 ADD MSTORE PUSH32 0x4C49515549444154455F5345495A455F544F4F5F4D5543480000000000000000 PUSH1 0x44 DUP3 ADD MSTORE SWAP1 MLOAD SWAP1 DUP2 SWAP1 SUB PUSH1 0x64 ADD SWAP1 REVERT JUMPDEST PUSH1 0x0 PUSH1 0x1 PUSH1 0x1 PUSH1 0xA0 SHL SUB DUP10 AND ADDRESS EQ ISZERO PUSH2 0x4217 JUMPI PUSH2 0x4210 ADDRESS DUP14 DUP14 DUP6 PUSH2 0x2FDB JUMP JUMPDEST SWAP1 POP PUSH2 0x42A1 JUMP JUMPDEST PUSH1 0x40 DUP1 MLOAD PUSH4 0xB2A02FF1 PUSH1 0xE0 SHL DUP2 MSTORE PUSH1 0x1 PUSH1 0x1 PUSH1 0xA0 SHL SUB DUP15 DUP2 AND PUSH1 0x4 DUP4 ADD MSTORE DUP14 DUP2 AND PUSH1 0x24 DUP4 ADD MSTORE PUSH1 0x44 DUP3 ADD DUP6 SWAP1 MSTORE SWAP2 MLOAD SWAP2 DUP12 AND SWAP2 PUSH4 0xB2A02FF1 SWAP2 PUSH1 0x64 DUP1 DUP3 ADD SWAP3 PUSH1 0x20 SWAP3 SWAP1 SWAP2 SWAP1 DUP3 SWAP1 SUB ADD DUP2 PUSH1 0x0 DUP8 DUP1 EXTCODESIZE ISZERO DUP1 ISZERO PUSH2 0x4272 JUMPI PUSH1 0x0 DUP1 REVERT JUMPDEST POP GAS CALL ISZERO DUP1 ISZERO PUSH2 0x4286 JUMPI RETURNDATASIZE PUSH1 0x0 DUP1 RETURNDATACOPY RETURNDATASIZE PUSH1 0x0 REVERT JUMPDEST POP POP POP POP PUSH1 0x40 MLOAD RETURNDATASIZE PUSH1 0x20 DUP2 LT ISZERO PUSH2 0x429C JUMPI PUSH1 0x0 DUP1 REVERT JUMPDEST POP MLOAD SWAP1 POP JUMPDEST DUP1 ISZERO PUSH2 0x42EB JUMPI PUSH1 0x40 DUP1 MLOAD PUSH3 0x461BCD PUSH1 0xE5 SHL DUP2 MSTORE PUSH1 0x20 PUSH1 0x4 DUP3 ADD MSTORE PUSH1 0x14 PUSH1 0x24 DUP3 ADD MSTORE PUSH20 0x1D1BDAD95B881CD95A5E9D5C994819985A5B1959 PUSH1 0x62 SHL PUSH1 0x44 DUP3 ADD MSTORE SWAP1 MLOAD SWAP1 DUP2 SWAP1 SUB PUSH1 0x64 ADD SWAP1 REVERT JUMPDEST PUSH1 0x40 DUP1 MLOAD PUSH1 0x1 PUSH1 0x1 PUSH1 0xA0 SHL SUB DUP1 DUP16 AND DUP3 MSTORE DUP1 DUP15 AND PUSH1 0x20 DUP4 ADD MSTORE DUP2 DUP4 ADD DUP8 SWAP1 MSTORE DUP12 AND PUSH1 0x60 DUP3 ADD MSTORE PUSH1 0x80 DUP2 ADD DUP5 SWAP1 MSTORE SWAP1 MLOAD PUSH32 0x298637F684DA70674F26509B10F07EC2FBC77A335AB1E7D6215A4B2484D8BB52 SWAP2 DUP2 SWAP1 SUB PUSH1 0xA0 ADD SWAP1 LOG1 PUSH1 0x0 SWAP8 POP SWAP3 SWAP6 POP POP POP POP POP POP JUMPDEST SWAP5 POP SWAP5 SWAP3 POP POP POP JUMP JUMPDEST PUSH1 0x5 SLOAD PUSH1 0x40 DUP1 MLOAD PUSH4 0x368F5153 PUSH1 0xE2 SHL DUP2 MSTORE ADDRESS PUSH1 0x4 DUP3 ADD MSTORE PUSH1 0x1 PUSH1 0x1 PUSH1 0xA0 SHL SUB DUP6 DUP2 AND PUSH1 0x24 DUP4 ADD MSTORE PUSH1 0x44 DUP3 ADD DUP6 SWAP1 MSTORE SWAP2 MLOAD PUSH1 0x0 SWAP4 DUP5 SWAP4 AND SWAP2 PUSH4 0xDA3D454C SWAP2 PUSH1 0x64 DUP1 DUP4 ADD SWAP3 PUSH1 0x20 SWAP3 SWAP2 SWAP1 DUP3 SWAP1 SUB ADD DUP2 DUP8 DUP8 DUP1 EXTCODESIZE ISZERO DUP1 ISZERO PUSH2 0x43B7 JUMPI PUSH1 0x0 DUP1 REVERT JUMPDEST POP GAS CALL ISZERO DUP1 ISZERO PUSH2 0x43CB JUMPI RETURNDATASIZE PUSH1 0x0 DUP1 RETURNDATACOPY RETURNDATASIZE PUSH1 0x0 REVERT JUMPDEST POP POP POP POP PUSH1 0x40 MLOAD RETURNDATASIZE PUSH1 0x20 DUP2 LT ISZERO PUSH2 0x43E1 JUMPI PUSH1 0x0 DUP1 REVERT JUMPDEST POP MLOAD SWAP1 POP DUP1 ISZERO PUSH2 0x4400 JUMPI PUSH2 0x43F8 PUSH1 0x3 PUSH1 0xE DUP4 PUSH2 0x2DC1 JUMP JUMPDEST SWAP2 POP POP PUSH2 0xE6F JUMP JUMPDEST PUSH2 0x4408 PUSH2 0x2BBD JUMP JUMPDEST PUSH1 0x9 SLOAD EQ PUSH2 0x441B JUMPI PUSH2 0x43F8 PUSH1 0xA DUP1 PUSH2 0x20DF JUMP JUMPDEST DUP3 PUSH2 0x4424 PUSH2 0x28A7 JUMP JUMPDEST LT ISZERO PUSH2 0x4436 JUMPI PUSH2 0x43F8 PUSH1 0xE PUSH1 0x9 PUSH2 0x20DF JUMP JUMPDEST PUSH2 0x443E PUSH2 0x4762 JUMP JUMPDEST PUSH2 0x4447 DUP6 PUSH2 0x2B09 JUMP JUMPDEST PUSH1 0x20 DUP4 ADD DUP2 SWAP1 MSTORE DUP3 DUP3 PUSH1 0x3 DUP2 GT ISZERO PUSH2 0x445B JUMPI INVALID JUMPDEST PUSH1 0x3 DUP2 GT ISZERO PUSH2 0x4466 JUMPI INVALID JUMPDEST SWAP1 MSTORE POP PUSH1 0x0 SWAP1 POP DUP2 MLOAD PUSH1 0x3 DUP2 GT ISZERO PUSH2 0x447A JUMPI INVALID JUMPDEST EQ PUSH2 0x449F JUMPI PUSH2 0x4496 PUSH1 0x9 PUSH1 0x7 DUP4 PUSH1 0x0 ADD MLOAD PUSH1 0x3 DUP2 GT ISZERO PUSH2 0x18DE JUMPI INVALID JUMPDEST SWAP3 POP POP POP PUSH2 0xE6F JUMP JUMPDEST PUSH2 0x44AD DUP2 PUSH1 0x20 ADD MLOAD DUP6 PUSH2 0x2E27 JUMP JUMPDEST PUSH1 0x40 DUP4 ADD DUP2 SWAP1 MSTORE DUP3 DUP3 PUSH1 0x3 DUP2 GT ISZERO PUSH2 0x44C1 JUMPI INVALID JUMPDEST PUSH1 0x3 DUP2 GT ISZERO PUSH2 0x44CC JUMPI INVALID JUMPDEST SWAP1 MSTORE POP PUSH1 0x0 SWAP1 POP DUP2 MLOAD PUSH1 0x3 DUP2 GT ISZERO PUSH2 0x44E0 JUMPI INVALID JUMPDEST EQ PUSH2 0x44FC JUMPI PUSH2 0x4496 PUSH1 0x9 PUSH1 0xC DUP4 PUSH1 0x0 ADD MLOAD PUSH1 0x3 DUP2 GT ISZERO PUSH2 0x18DE JUMPI INVALID JUMPDEST PUSH2 0x4508 PUSH1 0xB SLOAD DUP6 PUSH2 0x2E27 JUMP JUMPDEST PUSH1 0x60 DUP4 ADD DUP2 SWAP1 MSTORE DUP3 DUP3 PUSH1 0x3 DUP2 GT ISZERO PUSH2 0x451C JUMPI INVALID JUMPDEST PUSH1 0x3 DUP2 GT ISZERO PUSH2 0x4527 JUMPI INVALID JUMPDEST SWAP1 MSTORE POP PUSH1 0x0 SWAP1 POP DUP2 MLOAD PUSH1 0x3 DUP2 GT ISZERO PUSH2 0x453B JUMPI INVALID JUMPDEST EQ PUSH2 0x4557 JUMPI PUSH2 0x4496 PUSH1 0x9 PUSH1 0xB DUP4 PUSH1 0x0 ADD MLOAD PUSH1 0x3 DUP2 GT ISZERO PUSH2 0x18DE JUMPI INVALID JUMPDEST PUSH2 0x4561 DUP6 DUP6 PUSH2 0x3901 JUMP JUMPDEST PUSH1 0x40 DUP1 DUP3 ADD DUP1 MLOAD PUSH1 0x1 PUSH1 0x1 PUSH1 0xA0 SHL SUB DUP9 AND PUSH1 0x0 DUP2 DUP2 MSTORE PUSH1 0x10 PUSH1 0x20 SWAP1 DUP2 MSTORE SWAP1 DUP6 SWAP1 KECCAK256 SWAP3 DUP4 SSTORE PUSH1 0xA SLOAD PUSH1 0x1 SWAP1 SWAP4 ADD SWAP3 SWAP1 SWAP3 SSTORE PUSH1 0x60 DUP1 DUP7 ADD MLOAD PUSH1 0xB DUP2 SWAP1 SSTORE SWAP4 MLOAD DUP6 MLOAD SWAP3 DUP4 MSTORE SWAP3 DUP3 ADD DUP10 SWAP1 MSTORE DUP2 DUP6 ADD SWAP3 SWAP1 SWAP3 MSTORE SWAP1 DUP2 ADD SWAP2 SWAP1 SWAP2 MSTORE SWAP1 MLOAD PUSH32 0x13ED6866D4E1EE6DA46F845C46D7E54120883D75C5EA9A2DACC1C4CA8984AB80 SWAP2 DUP2 SWAP1 SUB PUSH1 0x80 ADD SWAP1 LOG1 PUSH1 0x0 SWAP6 SWAP5 POP POP POP POP POP JUMP JUMPDEST PUSH1 0x0 PUSH2 0x45F8 PUSH2 0x464D JUMP JUMPDEST PUSH1 0x0 DUP1 PUSH2 0x460D PUSH8 0xDE0B6B3A7640000 DUP8 PUSH2 0x3DFE JUMP JUMPDEST SWAP1 SWAP3 POP SWAP1 POP PUSH1 0x0 DUP3 PUSH1 0x3 DUP2 GT ISZERO PUSH2 0x4620 JUMPI INVALID JUMPDEST EQ PUSH2 0x463F JUMPI POP PUSH1 0x40 DUP1 MLOAD PUSH1 0x20 DUP2 ADD SWAP1 SWAP2 MSTORE PUSH1 0x0 DUP2 MSTORE SWAP1 SWAP3 POP SWAP1 POP PUSH2 0x2510 JUMP JUMPDEST PUSH2 0x289A DUP2 DUP7 PUSH1 0x0 ADD MLOAD PUSH2 0x34F4 JUMP JUMPDEST PUSH1 0x40 MLOAD DUP1 PUSH1 0x20 ADD PUSH1 0x40 MSTORE DUP1 PUSH1 0x0 DUP2 MSTORE POP SWAP1 JUMP JUMPDEST DUP3 DUP1 SLOAD PUSH1 0x1 DUP2 PUSH1 0x1 AND ISZERO PUSH2 0x100 MUL SUB AND PUSH1 0x2 SWAP1 DIV SWAP1 PUSH1 0x0 MSTORE PUSH1 0x20 PUSH1 0x0 KECCAK256 SWAP1 PUSH1 0x1F ADD PUSH1 0x20 SWAP1 DIV DUP2 ADD SWAP3 DUP3 PUSH1 0x1F LT PUSH2 0x46A1 JUMPI DUP1 MLOAD PUSH1 0xFF NOT AND DUP4 DUP1 ADD OR DUP6 SSTORE PUSH2 0x46CE JUMP JUMPDEST DUP3 DUP1 ADD PUSH1 0x1 ADD DUP6 SSTORE DUP3 ISZERO PUSH2 0x46CE JUMPI SWAP2 DUP3 ADD JUMPDEST DUP3 DUP2 GT ISZERO PUSH2 0x46CE JUMPI DUP3 MLOAD DUP3 SSTORE SWAP2 PUSH1 0x20 ADD SWAP2 SWAP1 PUSH1 0x1 ADD SWAP1 PUSH2 0x46B3 JUMP JUMPDEST POP PUSH2 0x46DA SWAP3 SWAP2 POP PUSH2 0x478B JUMP JUMPDEST POP SWAP1 JUMP JUMPDEST PUSH1 0x40 DUP1 MLOAD PUSH1 0xE0 DUP2 ADD SWAP1 SWAP2 MSTORE DUP1 PUSH1 0x0 DUP2 MSTORE PUSH1 0x20 ADD PUSH1 0x0 DUP2 MSTORE PUSH1 0x20 ADD PUSH1 0x0 DUP2 MSTORE PUSH1 0x20 ADD PUSH1 0x0 DUP2 MSTORE PUSH1 0x20 ADD PUSH1 0x0 DUP2 MSTORE PUSH1 0x20 ADD PUSH1 0x0 DUP2 MSTORE PUSH1 0x20 ADD PUSH1 0x0 DUP2 MSTORE POP SWAP1 JUMP JUMPDEST PUSH1 0x40 DUP1 MLOAD PUSH2 0x100 DUP2 ADD SWAP1 SWAP2 MSTORE DUP1 PUSH1 0x0 DUP2 MSTORE PUSH1 0x20 ADD PUSH1 0x0 DUP2 MSTORE PUSH1 0x20 ADD PUSH1 0x0 DUP2 MSTORE PUSH1 0x20 ADD PUSH1 0x0 DUP2 MSTORE PUSH1 0x20 ADD PUSH1 0x0 DUP2 MSTORE PUSH1 0x20 ADD PUSH1 0x0 DUP2 MSTORE PUSH1 0x20 ADD PUSH1 0x0 DUP2 MSTORE PUSH1 0x20 ADD PUSH1 0x0 DUP2 MSTORE POP SWAP1 JUMP JUMPDEST PUSH1 0x40 DUP1 MLOAD PUSH1 0x80 DUP2 ADD SWAP1 SWAP2 MSTORE DUP1 PUSH1 0x0 DUP2 MSTORE PUSH1 0x20 ADD PUSH1 0x0 DUP2 MSTORE PUSH1 0x20 ADD PUSH1 0x0 DUP2 MSTORE PUSH1 0x20 ADD PUSH1 0x0 DUP2 MSTORE POP SWAP1 JUMP JUMPDEST PUSH2 0xFDF SWAP2 SWAP1 JUMPDEST DUP1 DUP3 GT ISZERO PUSH2 0x46DA JUMPI PUSH1 0x0 DUP2 SSTORE PUSH1 0x1 ADD PUSH2 0x4791 JUMP INVALID PUSH16 0x6E6C792061646D696E206D617920696E PUSH10 0x7469616C697A65207468 PUSH6 0x206D61726B65 PUSH21 0x6D61726B6574206D6179206F6E6C7920626520696E PUSH10 0x7469616C697A6564206F PUSH15 0x6365696E697469616C206578636861 PUSH15 0x67652072617465206D757374206265 KECCAK256 PUSH8 0x7265617465722074 PUSH9 0x616E207A65726F2E73 PUSH6 0x7474696E6720 PUSH10 0x6E746572657374207261 PUSH21 0x65206D6F64656C206661696C65644D494E545F4E45 JUMPI 0x5F COINBASE NUMBER NUMBER 0x4F SSTORE 0x4E SLOAD 0x5F TIMESTAMP COINBASE 0x4C COINBASE 0x4E NUMBER GASLIMIT 0x5F NUMBER COINBASE 0x4C NUMBER SSTORE 0x4C COINBASE SLOAD 0x49 0x4F 0x4E 0x5F CHAINID COINBASE 0x49 0x4C GASLIMIT DIFFICULTY PUSH3 0x6F7272 PUSH16 0x7742616C616E636553746F7265643A20 PUSH3 0x6F7272 PUSH16 0x7742616C616E636553746F726564496E PUSH21 0x65726E616C206661696C656452455041595F424F52 MSTORE 0x4F JUMPI 0x5F 0x4E GASLIMIT JUMPI 0x5F COINBASE NUMBER NUMBER 0x4F SSTORE 0x4E SLOAD 0x5F TIMESTAMP 0x4F MSTORE MSTORE 0x4F JUMPI 0x5F TIMESTAMP COINBASE 0x4C COINBASE 0x4E NUMBER GASLIMIT 0x5F NUMBER COINBASE 0x4C NUMBER SSTORE 0x4C COINBASE SLOAD 0x49 0x4F 0x4E 0x5F CHAINID COINBASE 0x49 0x4C GASLIMIT DIFFICULTY 0xDD CALLCODE MSTORE 0xAD SHL 0xE2 0xC8 SWAP12 PUSH10 0xC2B068FC378DAA952BA7 CALL PUSH4 0xC4A11628 CREATE2 GAS 0x4D CREATE2 0x23 0xB3 0xEF MSTORE GASLIMIT POP COINBASE MSIZE 0x5F TIMESTAMP 0x4F MSTORE MSTORE 0x4F JUMPI 0x5F 0x4E GASLIMIT JUMPI 0x5F SLOAD 0x4F SLOAD COINBASE 0x4C 0x5F TIMESTAMP COINBASE 0x4C COINBASE 0x4E NUMBER GASLIMIT 0x5F NUMBER COINBASE 0x4C NUMBER SSTORE 0x4C COINBASE SLOAD 0x49 0x4F 0x4E 0x5F CHAINID COINBASE 0x49 0x4C GASLIMIT DIFFICULTY 0x4C 0x49 MLOAD SSTORE 0x49 DIFFICULTY COINBASE SLOAD GASLIMIT 0x5F DIFFICULTY COINBASE 0x4E 0x4B SLOAD MSTORE 0x4F 0x4C 0x4C GASLIMIT MSTORE 0x5F NUMBER COINBASE 0x4C NUMBER SSTORE 0x4C COINBASE SLOAD GASLIMIT 0x5F COINBASE 0x4D 0x4F SSTORE 0x4E SLOAD 0x5F MSTORE8 GASLIMIT 0x49 GAS GASLIMIT 0x5F CHAINID COINBASE 0x49 0x4C GASLIMIT DIFFICULTY PUSH6 0x786368616E67 PUSH6 0x526174655374 PUSH16 0x7265643A2065786368616E6765526174 PUSH6 0x53746F726564 0x49 PUSH15 0x7465726E616C206661696C65644D49 0x4E SLOAD 0x5F 0x4E GASLIMIT JUMPI 0x5F SLOAD 0x4F SLOAD COINBASE 0x4C 0x5F MSTORE8 SSTORE POP POP 0x4C MSIZE 0x5F NUMBER COINBASE 0x4C NUMBER SSTORE 0x4C COINBASE SLOAD 0x49 0x4F 0x4E 0x5F CHAINID COINBASE 0x49 0x4C GASLIMIT DIFFICULTY PUSH16 0x6E65206F662072656465656D546F6B65 PUSH15 0x73496E206F722072656465656D416D PUSH16 0x756E74496E206D757374206265207A65 PUSH19 0x6F72656475636520726573657276657320756E PUSH6 0x787065637465 PUSH5 0x20756E6465 PUSH19 0x666C6F77A265627A7A7231582037B548F3CCAF SWAP11 0xD SWAP6 DIFFICULTY DUP10 SHL PUSH32 0x72841A6F86E10E42E8A8B9F7A22E16B128660564736F6C634300051100326F6E PUSH13 0x792061646D696E206D61792069 PUSH15 0x697469616C697A6520746865206D61 PUSH19 0x6B65746D61726B6574206D6179206F6E6C7920 PUSH3 0x652069 PUSH15 0x697469616C697A6564206F6E636569 PUSH15 0x697469616C2065786368616E676520 PUSH19 0x617465206D7573742062652067726561746572 KECCAK256 PUSH21 0x68616E207A65726F2E73657474696E6720696E7465 PUSH19 0x6573742072617465206D6F64656C206661696C PUSH6 0x640000000000 "
		},
		"gasEstimates": {
			"creation": {
				"codeDepositCost": "3803200",
				"executionCost": "infinite",
				"totalCost": "infinite"
			},
			"external": {
				"": "infinite",
				"_acceptAdmin()": "46378",
				"_reduceReserves(uint256)": "infinite",
				"_setDanktroller(address)": "infinite",
				"_setInterestRateModel(address)": "infinite",
				"_setPendingAdmin(address)": "23487",
				"_setReserveFactor(uint256)": "infinite",
				"accrualBlockNumber()": "1043",
				"accrueInterest()": "infinite",
				"admin()": "1158",
				"allowance(address,address)": "1361",
				"approve(address,uint256)": "22364",
				"balanceOf(address)": "1231",
				"balanceOfUnderlying(address)": "infinite",
				"borrow(uint256)": "infinite",
				"borrowBalanceCurrent(address)": "infinite",
				"borrowBalanceStored(address)": "infinite",
				"borrowIndex()": "1043",
				"borrowRatePerBlock()": "infinite",
				"danktroller()": "1192",
				"decimals()": "1147",
				"exchangeRateCurrent()": "infinite",
				"exchangeRateStored()": "infinite",
				"getAccountSnapshot(address)": "4229",
				"getCash()": "480",
				"initialize(address,address,uint256,string,string,uint8)": "infinite",
				"interestRateModel()": "1125",
				"isDToken()": "360",
				"liquidateBorrow(address,address)": "infinite",
				"mint()": "infinite",
				"name()": "infinite",
				"pendingAdmin()": "1149",
				"redeem(uint256)": "infinite",
				"redeemUnderlying(uint256)": "infinite",
				"repayBorrow()": "infinite",
				"repayBorrowBehalf(address)": "infinite",
				"reserveFactorMantissa()": "1111",
				"seize(address,address,uint256)": "infinite",
				"supplyRatePerBlock()": "infinite",
				"symbol()": "infinite",
				"totalBorrows()": "1088",
				"totalBorrowsCurrent()": "infinite",
				"totalReserves()": "1153",
				"totalSupply()": "1044",
				"transfer(address,uint256)": "infinite",
				"transferFrom(address,address,uint256)": "infinite"
			},
			"internal": {
				"doTransferIn(address,uint256)": "infinite",
				"doTransferOut(address payable,uint256)": "infinite",
				"getCashPrior()": "194",
				"requireNoError(uint256,string memory)": "infinite"
			}
		},
		"methodIdentifiers": {
			"_acceptAdmin()": "e9c714f2",
			"_reduceReserves(uint256)": "601a0bf1",
			"_setDanktroller(address)": "6fbd7823",
			"_setInterestRateModel(address)": "f2b3abbd",
			"_setPendingAdmin(address)": "b71d1a0c",
			"_setReserveFactor(uint256)": "fca7820b",
			"accrualBlockNumber()": "6c540baf",
			"accrueInterest()": "a6afed95",
			"admin()": "f851a440",
			"allowance(address,address)": "dd62ed3e",
			"approve(address,uint256)": "095ea7b3",
			"balanceOf(address)": "70a08231",
			"balanceOfUnderlying(address)": "3af9e669",
			"borrow(uint256)": "c5ebeaec",
			"borrowBalanceCurrent(address)": "17bfdfbc",
			"borrowBalanceStored(address)": "95dd9193",
			"borrowIndex()": "aa5af0fd",
			"borrowRatePerBlock()": "f8f9da28",
			"danktroller()": "e8b29a90",
			"decimals()": "313ce567",
			"exchangeRateCurrent()": "bd6d894d",
			"exchangeRateStored()": "182df0f5",
			"getAccountSnapshot(address)": "c37f68e2",
			"getCash()": "3b1d21a2",
			"initialize(address,address,uint256,string,string,uint8)": "99d8c1b4",
			"interestRateModel()": "f3fdb15a",
			"isDToken()": "3ac4202f",
			"liquidateBorrow(address,address)": "aae40a2a",
			"mint()": "1249c58b",
			"name()": "06fdde03",
			"pendingAdmin()": "26782247",
			"redeem(uint256)": "db006a75",
			"redeemUnderlying(uint256)": "852a12e3",
			"repayBorrow()": "4e4d9fea",
			"repayBorrowBehalf(address)": "e5974619",
			"reserveFactorMantissa()": "173b9904",
			"seize(address,address,uint256)": "b2a02ff1",
			"supplyRatePerBlock()": "ae9d70b0",
			"symbol()": "95d89b41",
			"totalBorrows()": "47bd3718",
			"totalBorrowsCurrent()": "73acee98",
			"totalReserves()": "8f840ddd",
			"totalSupply()": "18160ddd",
			"transfer(address,uint256)": "a9059cbb",
			"transferFrom(address,address,uint256)": "23b872dd"
		}
	},
	"abi": [
		{
			"inputs": [
				{
					"internalType": "contract DanktrollerInterface",
					"name": "danktroller_",
					"type": "address"
				},
				{
					"internalType": "contract InterestRateModel",
					"name": "interestRateModel_",
					"type": "address"
				},
				{
					"internalType": "uint256",
					"name": "initialExchangeRateMantissa_",
					"type": "uint256"
				},
				{
					"internalType": "string",
					"name": "name_",
					"type": "string"
				},
				{
					"internalType": "string",
					"name": "symbol_",
					"type": "string"
				},
				{
					"internalType": "uint8",
					"name": "decimals_",
					"type": "uint8"
				},
				{
					"internalType": "address payable",
					"name": "admin_",
					"type": "address"
				}
			],
			"payable": false,
			"stateMutability": "nonpayable",
			"type": "constructor"
		},
		{
			"anonymous": false,
			"inputs": [
				{
					"indexed": false,
					"internalType": "uint256",
					"name": "cashPrior",
					"type": "uint256"
				},
				{
					"indexed": false,
					"internalType": "uint256",
					"name": "interestAccumulated",
					"type": "uint256"
				},
				{
					"indexed": false,
					"internalType": "uint256",
					"name": "borrowIndex",
					"type": "uint256"
				},
				{
					"indexed": false,
					"internalType": "uint256",
					"name": "totalBorrows",
					"type": "uint256"
				}
			],
			"name": "AccrueInterest",
			"type": "event"
		},
		{
			"anonymous": false,
			"inputs": [
				{
					"indexed": true,
					"internalType": "address",
					"name": "owner",
					"type": "address"
				},
				{
					"indexed": true,
					"internalType": "address",
					"name": "spender",
					"type": "address"
				},
				{
					"indexed": false,
					"internalType": "uint256",
					"name": "amount",
					"type": "uint256"
				}
			],
			"name": "Approval",
			"type": "event"
		},
		{
			"anonymous": false,
			"inputs": [
				{
					"indexed": false,
					"internalType": "address",
					"name": "borrower",
					"type": "address"
				},
				{
					"indexed": false,
					"internalType": "uint256",
					"name": "borrowAmount",
					"type": "uint256"
				},
				{
					"indexed": false,
					"internalType": "uint256",
					"name": "accountBorrows",
					"type": "uint256"
				},
				{
					"indexed": false,
					"internalType": "uint256",
					"name": "totalBorrows",
					"type": "uint256"
				}
			],
			"name": "Borrow",
			"type": "event"
		},
		{
			"anonymous": false,
			"inputs": [
				{
					"indexed": false,
					"internalType": "uint256",
					"name": "error",
					"type": "uint256"
				},
				{
					"indexed": false,
					"internalType": "uint256",
					"name": "info",
					"type": "uint256"
				},
				{
					"indexed": false,
					"internalType": "uint256",
					"name": "detail",
					"type": "uint256"
				}
			],
			"name": "Failure",
			"type": "event"
		},
		{
			"anonymous": false,
			"inputs": [
				{
					"indexed": false,
					"internalType": "address",
					"name": "liquidator",
					"type": "address"
				},
				{
					"indexed": false,
					"internalType": "address",
					"name": "borrower",
					"type": "address"
				},
				{
					"indexed": false,
					"internalType": "uint256",
					"name": "repayAmount",
					"type": "uint256"
				},
				{
					"indexed": false,
					"internalType": "address",
					"name": "dTokenCollateral",
					"type": "address"
				},
				{
					"indexed": false,
					"internalType": "uint256",
					"name": "seizeTokens",
					"type": "uint256"
				}
			],
			"name": "LiquidateBorrow",
			"type": "event"
		},
		{
			"anonymous": false,
			"inputs": [
				{
					"indexed": false,
					"internalType": "address",
					"name": "minter",
					"type": "address"
				},
				{
					"indexed": false,
					"internalType": "uint256",
					"name": "mintAmount",
					"type": "uint256"
				},
				{
					"indexed": false,
					"internalType": "uint256",
					"name": "mintTokens",
					"type": "uint256"
				}
			],
			"name": "Mint",
			"type": "event"
		},
		{
			"anonymous": false,
			"inputs": [
				{
					"indexed": false,
					"internalType": "address",
					"name": "oldAdmin",
					"type": "address"
				},
				{
					"indexed": false,
					"internalType": "address",
					"name": "newAdmin",
					"type": "address"
				}
			],
			"name": "NewAdmin",
			"type": "event"
		},
		{
			"anonymous": false,
			"inputs": [
				{
					"indexed": false,
					"internalType": "contract DanktrollerInterface",
					"name": "oldDanktroller",
					"type": "address"
				},
				{
					"indexed": false,
					"internalType": "contract DanktrollerInterface",
					"name": "newDanktroller",
					"type": "address"
				}
			],
			"name": "NewDanktroller",
			"type": "event"
		},
		{
			"anonymous": false,
			"inputs": [
				{
					"indexed": false,
					"internalType": "contract InterestRateModel",
					"name": "oldInterestRateModel",
					"type": "address"
				},
				{
					"indexed": false,
					"internalType": "contract InterestRateModel",
					"name": "newInterestRateModel",
					"type": "address"
				}
			],
			"name": "NewMarketInterestRateModel",
			"type": "event"
		},
		{
			"anonymous": false,
			"inputs": [
				{
					"indexed": false,
					"internalType": "address",
					"name": "oldPendingAdmin",
					"type": "address"
				},
				{
					"indexed": false,
					"internalType": "address",
					"name": "newPendingAdmin",
					"type": "address"
				}
			],
			"name": "NewPendingAdmin",
			"type": "event"
		},
		{
			"anonymous": false,
			"inputs": [
				{
					"indexed": false,
					"internalType": "uint256",
					"name": "oldReserveFactorMantissa",
					"type": "uint256"
				},
				{
					"indexed": false,
					"internalType": "uint256",
					"name": "newReserveFactorMantissa",
					"type": "uint256"
				}
			],
			"name": "NewReserveFactor",
			"type": "event"
		},
		{
			"anonymous": false,
			"inputs": [
				{
					"indexed": false,
					"internalType": "address",
					"name": "redeemer",
					"type": "address"
				},
				{
					"indexed": false,
					"internalType": "uint256",
					"name": "redeemAmount",
					"type": "uint256"
				},
				{
					"indexed": false,
					"internalType": "uint256",
					"name": "redeemTokens",
					"type": "uint256"
				}
			],
			"name": "Redeem",
			"type": "event"
		},
		{
			"anonymous": false,
			"inputs": [
				{
					"indexed": false,
					"internalType": "address",
					"name": "payer",
					"type": "address"
				},
				{
					"indexed": false,
					"internalType": "address",
					"name": "borrower",
					"type": "address"
				},
				{
					"indexed": false,
					"internalType": "uint256",
					"name": "repayAmount",
					"type": "uint256"
				},
				{
					"indexed": false,
					"internalType": "uint256",
					"name": "accountBorrows",
					"type": "uint256"
				},
				{
					"indexed": false,
					"internalType": "uint256",
					"name": "totalBorrows",
					"type": "uint256"
				}
			],
			"name": "RepayBorrow",
			"type": "event"
		},
		{
			"anonymous": false,
			"inputs": [
				{
					"indexed": false,
					"internalType": "address",
					"name": "benefactor",
					"type": "address"
				},
				{
					"indexed": false,
					"internalType": "uint256",
					"name": "addAmount",
					"type": "uint256"
				},
				{
					"indexed": false,
					"internalType": "uint256",
					"name": "newTotalReserves",
					"type": "uint256"
				}
			],
			"name": "ReservesAdded",
			"type": "event"
		},
		{
			"anonymous": false,
			"inputs": [
				{
					"indexed": false,
					"internalType": "address",
					"name": "admin",
					"type": "address"
				},
				{
					"indexed": false,
					"internalType": "uint256",
					"name": "reduceAmount",
					"type": "uint256"
				},
				{
					"indexed": false,
					"internalType": "uint256",
					"name": "newTotalReserves",
					"type": "uint256"
				}
			],
			"name": "ReservesReduced",
			"type": "event"
		},
		{
			"anonymous": false,
			"inputs": [
				{
					"indexed": true,
					"internalType": "address",
					"name": "from",
					"type": "address"
				},
				{
					"indexed": true,
					"internalType": "address",
					"name": "to",
					"type": "address"
				},
				{
					"indexed": false,
					"internalType": "uint256",
					"name": "amount",
					"type": "uint256"
				}
			],
			"name": "Transfer",
			"type": "event"
		},
		{
			"payable": true,
			"stateMutability": "payable",
			"type": "fallback"
		},
		{
			"constant": false,
			"inputs": [],
			"name": "_acceptAdmin",
			"outputs": [
				{
					"internalType": "uint256",
					"name": "",
					"type": "uint256"
				}
			],
			"payable": false,
			"stateMutability": "nonpayable",
			"type": "function"
		},
		{
			"constant": false,
			"inputs": [
				{
					"internalType": "uint256",
					"name": "reduceAmount",
					"type": "uint256"
				}
			],
			"name": "_reduceReserves",
			"outputs": [
				{
					"internalType": "uint256",
					"name": "",
					"type": "uint256"
				}
			],
			"payable": false,
			"stateMutability": "nonpayable",
			"type": "function"
		},
		{
			"constant": false,
			"inputs": [
				{
					"internalType": "contract DanktrollerInterface",
					"name": "newDanktroller",
					"type": "address"
				}
			],
			"name": "_setDanktroller",
			"outputs": [
				{
					"internalType": "uint256",
					"name": "",
					"type": "uint256"
				}
			],
			"payable": false,
			"stateMutability": "nonpayable",
			"type": "function"
		},
		{
			"constant": false,
			"inputs": [
				{
					"internalType": "contract InterestRateModel",
					"name": "newInterestRateModel",
					"type": "address"
				}
			],
			"name": "_setInterestRateModel",
			"outputs": [
				{
					"internalType": "uint256",
					"name": "",
					"type": "uint256"
				}
			],
			"payable": false,
			"stateMutability": "nonpayable",
			"type": "function"
		},
		{
			"constant": false,
			"inputs": [
				{
					"internalType": "address payable",
					"name": "newPendingAdmin",
					"type": "address"
				}
			],
			"name": "_setPendingAdmin",
			"outputs": [
				{
					"internalType": "uint256",
					"name": "",
					"type": "uint256"
				}
			],
			"payable": false,
			"stateMutability": "nonpayable",
			"type": "function"
		},
		{
			"constant": false,
			"inputs": [
				{
					"internalType": "uint256",
					"name": "newReserveFactorMantissa",
					"type": "uint256"
				}
			],
			"name": "_setReserveFactor",
			"outputs": [
				{
					"internalType": "uint256",
					"name": "",
					"type": "uint256"
				}
			],
			"payable": false,
			"stateMutability": "nonpayable",
			"type": "function"
		},
		{
			"constant": true,
			"inputs": [],
			"name": "accrualBlockNumber",
			"outputs": [
				{
					"internalType": "uint256",
					"name": "",
					"type": "uint256"
				}
			],
			"payable": false,
			"stateMutability": "view",
			"type": "function"
		},
		{
			"constant": false,
			"inputs": [],
			"name": "accrueInterest",
			"outputs": [
				{
					"internalType": "uint256",
					"name": "",
					"type": "uint256"
				}
			],
			"payable": false,
			"stateMutability": "nonpayable",
			"type": "function"
		},
		{
			"constant": true,
			"inputs": [],
			"name": "admin",
			"outputs": [
				{
					"internalType": "address payable",
					"name": "",
					"type": "address"
				}
			],
			"payable": false,
			"stateMutability": "view",
			"type": "function"
		},
		{
			"constant": true,
			"inputs": [
				{
					"internalType": "address",
					"name": "owner",
					"type": "address"
				},
				{
					"internalType": "address",
					"name": "spender",
					"type": "address"
				}
			],
			"name": "allowance",
			"outputs": [
				{
					"internalType": "uint256",
					"name": "",
					"type": "uint256"
				}
			],
			"payable": false,
			"stateMutability": "view",
			"type": "function"
		},
		{
			"constant": false,
			"inputs": [
				{
					"internalType": "address",
					"name": "spender",
					"type": "address"
				},
				{
					"internalType": "uint256",
					"name": "amount",
					"type": "uint256"
				}
			],
			"name": "approve",
			"outputs": [
				{
					"internalType": "bool",
					"name": "",
					"type": "bool"
				}
			],
			"payable": false,
			"stateMutability": "nonpayable",
			"type": "function"
		},
		{
			"constant": true,
			"inputs": [
				{
					"internalType": "address",
					"name": "owner",
					"type": "address"
				}
			],
			"name": "balanceOf",
			"outputs": [
				{
					"internalType": "uint256",
					"name": "",
					"type": "uint256"
				}
			],
			"payable": false,
			"stateMutability": "view",
			"type": "function"
		},
		{
			"constant": false,
			"inputs": [
				{
					"internalType": "address",
					"name": "owner",
					"type": "address"
				}
			],
			"name": "balanceOfUnderlying",
			"outputs": [
				{
					"internalType": "uint256",
					"name": "",
					"type": "uint256"
				}
			],
			"payable": false,
			"stateMutability": "nonpayable",
			"type": "function"
		},
		{
			"constant": false,
			"inputs": [
				{
					"internalType": "uint256",
					"name": "borrowAmount",
					"type": "uint256"
				}
			],
			"name": "borrow",
			"outputs": [
				{
					"internalType": "uint256",
					"name": "",
					"type": "uint256"
				}
			],
			"payable": false,
			"stateMutability": "nonpayable",
			"type": "function"
		},
		{
			"constant": false,
			"inputs": [
				{
					"internalType": "address",
					"name": "account",
					"type": "address"
				}
			],
			"name": "borrowBalanceCurrent",
			"outputs": [
				{
					"internalType": "uint256",
					"name": "",
					"type": "uint256"
				}
			],
			"payable": false,
			"stateMutability": "nonpayable",
			"type": "function"
		},
		{
			"constant": true,
			"inputs": [
				{
					"internalType": "address",
					"name": "account",
					"type": "address"
				}
			],
			"name": "borrowBalanceStored",
			"outputs": [
				{
					"internalType": "uint256",
					"name": "",
					"type": "uint256"
				}
			],
			"payable": false,
			"stateMutability": "view",
			"type": "function"
		},
		{
			"constant": true,
			"inputs": [],
			"name": "borrowIndex",
			"outputs": [
				{
					"internalType": "uint256",
					"name": "",
					"type": "uint256"
				}
			],
			"payable": false,
			"stateMutability": "view",
			"type": "function"
		},
		{
			"constant": true,
			"inputs": [],
			"name": "borrowRatePerBlock",
			"outputs": [
				{
					"internalType": "uint256",
					"name": "",
					"type": "uint256"
				}
			],
			"payable": false,
			"stateMutability": "view",
			"type": "function"
		},
		{
			"constant": true,
			"inputs": [],
			"name": "danktroller",
			"outputs": [
				{
					"internalType": "contract DanktrollerInterface",
					"name": "",
					"type": "address"
				}
			],
			"payable": false,
			"stateMutability": "view",
			"type": "function"
		},
		{
			"constant": true,
			"inputs": [],
			"name": "decimals",
			"outputs": [
				{
					"internalType": "uint8",
					"name": "",
					"type": "uint8"
				}
			],
			"payable": false,
			"stateMutability": "view",
			"type": "function"
		},
		{
			"constant": false,
			"inputs": [],
			"name": "exchangeRateCurrent",
			"outputs": [
				{
					"internalType": "uint256",
					"name": "",
					"type": "uint256"
				}
			],
			"payable": false,
			"stateMutability": "nonpayable",
			"type": "function"
		},
		{
			"constant": true,
			"inputs": [],
			"name": "exchangeRateStored",
			"outputs": [
				{
					"internalType": "uint256",
					"name": "",
					"type": "uint256"
				}
			],
			"payable": false,
			"stateMutability": "view",
			"type": "function"
		},
		{
			"constant": true,
			"inputs": [
				{
					"internalType": "address",
					"name": "account",
					"type": "address"
				}
			],
			"name": "getAccountSnapshot",
			"outputs": [
				{
					"internalType": "uint256",
					"name": "",
					"type": "uint256"
				},
				{
					"internalType": "uint256",
					"name": "",
					"type": "uint256"
				},
				{
					"internalType": "uint256",
					"name": "",
					"type": "uint256"
				},
				{
					"internalType": "uint256",
					"name": "",
					"type": "uint256"
				}
			],
			"payable": false,
			"stateMutability": "view",
			"type": "function"
		},
		{
			"constant": true,
			"inputs": [],
			"name": "getCash",
			"outputs": [
				{
					"internalType": "uint256",
					"name": "",
					"type": "uint256"
				}
			],
			"payable": false,
			"stateMutability": "view",
			"type": "function"
		},
		{
			"constant": false,
			"inputs": [
				{
					"internalType": "contract DanktrollerInterface",
					"name": "danktroller_",
					"type": "address"
				},
				{
					"internalType": "contract InterestRateModel",
					"name": "interestRateModel_",
					"type": "address"
				},
				{
					"internalType": "uint256",
					"name": "initialExchangeRateMantissa_",
					"type": "uint256"
				},
				{
					"internalType": "string",
					"name": "name_",
					"type": "string"
				},
				{
					"internalType": "string",
					"name": "symbol_",
					"type": "string"
				},
				{
					"internalType": "uint8",
					"name": "decimals_",
					"type": "uint8"
				}
			],
			"name": "initialize",
			"outputs": [],
			"payable": false,
			"stateMutability": "nonpayable",
			"type": "function"
		},
		{
			"constant": true,
			"inputs": [],
			"name": "interestRateModel",
			"outputs": [
				{
					"internalType": "contract InterestRateModel",
					"name": "",
					"type": "address"
				}
			],
			"payable": false,
			"stateMutability": "view",
			"type": "function"
		},
		{
			"constant": true,
			"inputs": [],
			"name": "isDToken",
			"outputs": [
				{
					"internalType": "bool",
					"name": "",
					"type": "bool"
				}
			],
			"payable": false,
			"stateMutability": "view",
			"type": "function"
		},
		{
			"constant": false,
			"inputs": [
				{
					"internalType": "address",
					"name": "borrower",
					"type": "address"
				},
				{
					"internalType": "contract DToken",
					"name": "dTokenCollateral",
					"type": "address"
				}
			],
			"name": "liquidateBorrow",
			"outputs": [],
			"payable": true,
			"stateMutability": "payable",
			"type": "function"
		},
		{
			"constant": false,
			"inputs": [],
			"name": "mint",
			"outputs": [],
			"payable": true,
			"stateMutability": "payable",
			"type": "function"
		},
		{
			"constant": true,
			"inputs": [],
			"name": "name",
			"outputs": [
				{
					"internalType": "string",
					"name": "",
					"type": "string"
				}
			],
			"payable": false,
			"stateMutability": "view",
			"type": "function"
		},
		{
			"constant": true,
			"inputs": [],
			"name": "pendingAdmin",
			"outputs": [
				{
					"internalType": "address payable",
					"name": "",
					"type": "address"
				}
			],
			"payable": false,
			"stateMutability": "view",
			"type": "function"
		},
		{
			"constant": false,
			"inputs": [
				{
					"internalType": "uint256",
					"name": "redeemTokens",
					"type": "uint256"
				}
			],
			"name": "redeem",
			"outputs": [
				{
					"internalType": "uint256",
					"name": "",
					"type": "uint256"
				}
			],
			"payable": false,
			"stateMutability": "nonpayable",
			"type": "function"
		},
		{
			"constant": false,
			"inputs": [
				{
					"internalType": "uint256",
					"name": "redeemAmount",
					"type": "uint256"
				}
			],
			"name": "redeemUnderlying",
			"outputs": [
				{
					"internalType": "uint256",
					"name": "",
					"type": "uint256"
				}
			],
			"payable": false,
			"stateMutability": "nonpayable",
			"type": "function"
		},
		{
			"constant": false,
			"inputs": [],
			"name": "repayBorrow",
			"outputs": [],
			"payable": true,
			"stateMutability": "payable",
			"type": "function"
		},
		{
			"constant": false,
			"inputs": [
				{
					"internalType": "address",
					"name": "borrower",
					"type": "address"
				}
			],
			"name": "repayBorrowBehalf",
			"outputs": [],
			"payable": true,
			"stateMutability": "payable",
			"type": "function"
		},
		{
			"constant": true,
			"inputs": [],
			"name": "reserveFactorMantissa",
			"outputs": [
				{
					"internalType": "uint256",
					"name": "",
					"type": "uint256"
				}
			],
			"payable": false,
			"stateMutability": "view",
			"type": "function"
		},
		{
			"constant": false,
			"inputs": [
				{
					"internalType": "address",
					"name": "liquidator",
					"type": "address"
				},
				{
					"internalType": "address",
					"name": "borrower",
					"type": "address"
				},
				{
					"internalType": "uint256",
					"name": "seizeTokens",
					"type": "uint256"
				}
			],
			"name": "seize",
			"outputs": [
				{
					"internalType": "uint256",
					"name": "",
					"type": "uint256"
				}
			],
			"payable": false,
			"stateMutability": "nonpayable",
			"type": "function"
		},
		{
			"constant": true,
			"inputs": [],
			"name": "supplyRatePerBlock",
			"outputs": [
				{
					"internalType": "uint256",
					"name": "",
					"type": "uint256"
				}
			],
			"payable": false,
			"stateMutability": "view",
			"type": "function"
		},
		{
			"constant": true,
			"inputs": [],
			"name": "symbol",
			"outputs": [
				{
					"internalType": "string",
					"name": "",
					"type": "string"
				}
			],
			"payable": false,
			"stateMutability": "view",
			"type": "function"
		},
		{
			"constant": true,
			"inputs": [],
			"name": "totalBorrows",
			"outputs": [
				{
					"internalType": "uint256",
					"name": "",
					"type": "uint256"
				}
			],
			"payable": false,
			"stateMutability": "view",
			"type": "function"
		},
		{
			"constant": false,
			"inputs": [],
			"name": "totalBorrowsCurrent",
			"outputs": [
				{
					"internalType": "uint256",
					"name": "",
					"type": "uint256"
				}
			],
			"payable": false,
			"stateMutability": "nonpayable",
			"type": "function"
		},
		{
			"constant": true,
			"inputs": [],
			"name": "totalReserves",
			"outputs": [
				{
					"internalType": "uint256",
					"name": "",
					"type": "uint256"
				}
			],
			"payable": false,
			"stateMutability": "view",
			"type": "function"
		},
		{
			"constant": true,
			"inputs": [],
			"name": "totalSupply",
			"outputs": [
				{
					"internalType": "uint256",
					"name": "",
					"type": "uint256"
				}
			],
			"payable": false,
			"stateMutability": "view",
			"type": "function"
		},
		{
			"constant": false,
			"inputs": [
				{
					"internalType": "address",
					"name": "dst",
					"type": "address"
				},
				{
					"internalType": "uint256",
					"name": "amount",
					"type": "uint256"
				}
			],
			"name": "transfer",
			"outputs": [
				{
					"internalType": "bool",
					"name": "",
					"type": "bool"
				}
			],
			"payable": false,
			"stateMutability": "nonpayable",
			"type": "function"
		},
		{
			"constant": false,
			"inputs": [
				{
					"internalType": "address",
					"name": "src",
					"type": "address"
				},
				{
					"internalType": "address",
					"name": "dst",
					"type": "address"
				},
				{
					"internalType": "uint256",
					"name": "amount",
					"type": "uint256"
				}
			],
			"name": "transferFrom",
			"outputs": [
				{
					"internalType": "bool",
					"name": "",
					"type": "bool"
				}
			],
			"payable": false,
			"stateMutability": "nonpayable",
			"type": "function"
		}
	]
}