{
	"data": {
		"bytecode": {
			"linkReferences": {},
			"object": "60806040523480156200001157600080fd5b50604051620057613803806200576183398181016040526101008110156200003857600080fd5b81516020830151604080850151606086015160808701805193519597949692959194919392820192846401000000008211156200007457600080fd5b9083019060208201858111156200008a57600080fd5b8251640100000000811182820188101715620000a557600080fd5b82525081516020918201929091019080838360005b83811015620000d4578181015183820152602001620000ba565b50505050905090810190601f168015620001025780820380516001836020036101000a031916815260200191505b50604052602001805160405193929190846401000000008211156200012657600080fd5b9083019060208201858111156200013c57600080fd5b82516401000000008111828201881017156200015757600080fd5b82525081516020918201929091019080838360005b83811015620001865781810151838201526020016200016c565b50505050905090810190601f168015620001b45780820380516001836020036101000a031916815260200191505b506040908152602082015191015160038054610100600160a81b03191633610100021790559092509050620001ef8888888888888862000223565b600380546001600160a01b0390921661010002610100600160a81b0319909216919091179055506200090f95505050505050565b6200023e868686868686620002d260201b620013d61760201c565b601180546001600160a01b0319166001600160a01b038981169190911791829055604080516318160ddd60e01b8152905192909116916318160ddd91600480820192602092909190829003018186803b1580156200029b57600080fd5b505afa158015620002b0573d6000803e3d6000fd5b505050506040513d6020811015620002c757600080fd5b505050505050505050565b60035461010090046001600160a01b03163314620003225760405162461bcd60e51b8152600401808060200182810382526024815260200180620056c86024913960400191505060405180910390fd5b600954158015620003335750600a54155b620003705760405162461bcd60e51b8152600401808060200182810382526023815260200180620056ec6023913960400191505060405180910390fd5b600784905583620003b35760405162461bcd60e51b81526004018080602001828103825260308152602001806200570f6030913960400191505060405180910390fd5b6000620003c9876001600160e01b03620004e816565b905080156200041f576040805162461bcd60e51b815260206004820152601a60248201527f73657474696e672064616e6b74726f6c6c6572206661696c6564000000000000604482015290519081900360640190fd5b620004326001600160e01b036200065216565b600955670de0b6b3a7640000600a5562000455866001600160e01b036200065716565b90508015620004965760405162461bcd60e51b81526004018080602001828103825260228152602001806200573f6022913960400191505060405180910390fd5b8351620004ab9060019060208701906200086d565b508251620004c19060029060208601906200086d565b50506003805460ff90921660ff199283161790556000805490911660011790555050505050565b60035460009061010090046001600160a01b0316331462000522576200051a6001603f6001600160e01b03620007fd16565b90506200064d565b6005546040805163d8a72acb60e01b815290516001600160a01b039283169285169163d8a72acb916004808301926020929190829003018186803b1580156200056a57600080fd5b505afa1580156200057f573d6000803e3d6000fd5b505050506040513d60208110156200059657600080fd5b5051620005ea576040805162461bcd60e51b815260206004820152601c60248201527f6d61726b6572206d6574686f642072657475726e65642066616c736500000000604482015290519081900360640190fd5b600580546001600160a01b0319166001600160a01b03858116918217909255604080519284168352602083019190915280517fe4cbaeda07bdcbcdb1168b355a1a57d377f426f2b049dfb311395a0c6043937d9281900390910190a160005b9150505b919050565b435b90565b600354600090819061010090046001600160a01b0316331462000694576200068b600160426001600160e01b03620007fd16565b9150506200064d565b620006a76001600160e01b036200065216565b60095414620006c7576200068b600a60416001600160e01b03620007fd16565b600660009054906101000a90046001600160a01b03169050826001600160a01b0316632191f92a6040518163ffffffff1660e01b815260040160206040518083038186803b1580156200071957600080fd5b505afa1580156200072e573d6000803e3d6000fd5b505050506040513d60208110156200074557600080fd5b505162000799576040805162461bcd60e51b815260206004820152601c60248201527f6d61726b6572206d6574686f642072657475726e65642066616c736500000000604482015290519081900360640190fd5b600680546001600160a01b0319166001600160a01b03858116918217909255604080519284168352602083019190915280517fedffc32e068c7c95dfd4bdfd5c4d939a084d6b11c4199eac8436ed234d72f9269281900390910190a1600062000649565b60007f45b96fe442630264581b197e84bbada861235052c5a1aadfff9ea4e40a969aa08360108111156200082d57fe5b8360508111156200083a57fe5b604080519283526020830191909152600082820152519081900360600190a18260108111156200086657fe5b9392505050565b828054600181600116156101000203166002900490600052602060002090601f016020900481019282601f10620008b057805160ff1916838001178555620008e0565b82800160010185558215620008e0579182015b82811115620008e0578251825591602001919060010190620008c3565b50620008ee929150620008f2565b5090565b6200065491905b80821115620008ee5760008155600101620008f9565b614da9806200091f6000396000f3fe608060405234801561001057600080fd5b50600436106102bb5760003560e01c8063852a12e311610182578063bd6d894d116100e9578063e9c714f2116100a2578063f5e3c4621161007c578063f5e3c46214610a40578063f851a44014610a76578063f8f9da2814610a7e578063fca7820b14610a86576102bb565b8063e9c714f214610a0a578063f2b3abbd14610a12578063f3fdb15a14610a38576102bb565b8063bd6d894d14610946578063c37f68e21461094e578063c5ebeaec1461099a578063db006a75146109b7578063dd62ed3e146109d4578063e8b29a9014610a02576102bb565b8063a6afed951161013b578063a6afed95146108a6578063a9059cbb146108ae578063aa5af0fd146108da578063ae9d70b0146108e2578063b2a02ff1146108ea578063b71d1a0c14610920576102bb565b8063852a12e3146106e85780638f840ddd1461070557806395d89b411461070d57806395dd91931461071557806399d8c1b41461073b578063a0712d6814610889576102bb565b8063313ce56711610226578063601a0bf1116101df578063601a0bf1146106675780636c540baf146106845780636f307dc31461068c5780636fbd78231461069457806370a08231146106ba57806373acee98146106e0576102bb565b8063313ce567146105ee5780633ac4202f1461060c5780633af9e669146106145780633b1d21a21461063a5780633e9410101461064257806347bd37181461065f576102bb565b8063182df0f511610278578063182df0f5146103e25780631a31d465146103ea5780631be195601461054257806323b872dd146105685780632608f8181461059e57806326782247146105ca576102bb565b806306fdde03146102c0578063095ea7b31461033d5780630e7527021461037d578063173b9904146103ac57806317bfdfbc146103b457806318160ddd146103da575b600080fd5b6102c8610aa3565b6040805160208082528351818301528351919283929083019185019080838360005b838110156103025781810151838201526020016102ea565b50505050905090810190601f16801561032f5780820380516001836020036101000a031916815260200191505b509250505060405180910390f35b6103696004803603604081101561035357600080fd5b506001600160a01b038135169060200135610b30565b604080519115158252519081900360200190f35b61039a6004803603602081101561039357600080fd5b5035610b9d565b60408051918252519081900360200190f35b61039a610bb3565b61039a600480360360208110156103ca57600080fd5b50356001600160a01b0316610bb9565b61039a610c79565b61039a610c7f565b610540600480360360e081101561040057600080fd5b6001600160a01b03823581169260208101358216926040820135909216916060820135919081019060a081016080820135600160201b81111561044257600080fd5b82018360208201111561045457600080fd5b803590602001918460018302840111600160201b8311171561047557600080fd5b91908080601f0160208091040260200160405190810160405280939291908181526020018383808284376000920191909152509295949360208101935035915050600160201b8111156104c757600080fd5b8201836020820111156104d957600080fd5b803590602001918460018302840111600160201b831117156104fa57600080fd5b91908080601f0160208091040260200160405190810160405280939291908181526020018383808284376000920191909152509295505050903560ff169150610ce29050565b005b6105406004803603602081101561055857600080fd5b50356001600160a01b0316610d81565b6103696004803603606081101561057e57600080fd5b506001600160a01b03813581169160208101359091169060400135610ebd565b61039a600480360360408110156105b457600080fd5b506001600160a01b038135169060200135610f2f565b6105d2610f45565b604080516001600160a01b039092168252519081900360200190f35b6105f6610f54565b6040805160ff9092168252519081900360200190f35b610369610f5d565b61039a6004803603602081101561062a57600080fd5b50356001600160a01b0316610f62565b61039a611018565b61039a6004803603602081101561065857600080fd5b5035611027565b61039a611032565b61039a6004803603602081101561067d57600080fd5b5035611038565b61039a6110d3565b6105d26110d9565b61039a600480360360208110156106aa57600080fd5b50356001600160a01b03166110e8565b61039a600480360360208110156106d057600080fd5b50356001600160a01b031661123f565b61039a61125a565b61039a600480360360208110156106fe57600080fd5b5035611310565b61039a61131b565b6102c8611321565b61039a6004803603602081101561072b57600080fd5b50356001600160a01b0316611379565b610540600480360360c081101561075157600080fd5b6001600160a01b03823581169260208101359091169160408201359190810190608081016060820135600160201b81111561078b57600080fd5b82018360208201111561079d57600080fd5b803590602001918460018302840111600160201b831117156107be57600080fd5b91908080601f0160208091040260200160405190810160405280939291908181526020018383808284376000920191909152509295949360208101935035915050600160201b81111561081057600080fd5b82018360208201111561082257600080fd5b803590602001918460018302840111600160201b8311171561084357600080fd5b91908080601f0160208091040260200160405190810160405280939291908181526020018383808284376000920191909152509295505050903560ff1691506113d69050565b61039a6004803603602081101561089f57600080fd5b50356115bd565b61039a6115c9565b610369600480360360408110156108c457600080fd5b506001600160a01b038135169060200135611921565b61039a611992565b61039a611998565b61039a6004803603606081101561090057600080fd5b506001600160a01b03813581169160208101359091169060400135611a37565b61039a6004803603602081101561093657600080fd5b50356001600160a01b0316611aa8565b61039a611b34565b6109746004803603602081101561096457600080fd5b50356001600160a01b0316611bf0565b604080519485526020850193909352838301919091526060830152519081900360800190f35b61039a600480360360208110156109b057600080fd5b5035611c85565b61039a600480360360208110156109cd57600080fd5b5035611c90565b61039a600480360360408110156109ea57600080fd5b506001600160a01b0381358116916020013516611c9b565b6105d2611cc6565b61039a611cd5565b61039a60048036036020811015610a2857600080fd5b50356001600160a01b0316611dd8565b6105d2611e12565b61039a60048036036060811015610a5657600080fd5b506001600160a01b03813581169160208101359160409091013516611e21565b6105d2611e39565b61039a611e4d565b61039a60048036036020811015610a9c57600080fd5b5035611eb1565b60018054604080516020600284861615610100026000190190941693909304601f81018490048402820184019092528181529291830182828015610b285780601f10610afd57610100808354040283529160200191610b28565b820191906000526020600020905b815481529060010190602001808311610b0b57829003601f168201915b505050505081565b336000818152600f602090815260408083206001600160a01b03871680855290835281842086905581518681529151939493909284927f8c5be1e5ebec7d5bd14f71427d1e84f3dd0314c0f7b2291e5b200ac8c7c3b925929081900390910190a360019150505b92915050565b600080610ba983611f2f565b509150505b919050565b60085481565b6000805460ff16610bfe576040805162461bcd60e51b815260206004820152600a6024820152691c994b595b9d195c995960b21b604482015290519081900360640190fd5b6000805460ff19168155610c106115c9565b14610c5b576040805162461bcd60e51b81526020600482015260166024820152751858d8dc9d59481a5b9d195c995cdd0819985a5b195960521b604482015290519081900360640190fd5b610c6482611379565b90505b6000805460ff19166001179055919050565b600d5481565b6000806000610c8c611fd8565b90925090506000826003811115610c9f57fe5b14610cdb5760405162461bcd60e51b8152600401808060200182810382526035815260200180614cc06035913960400191505060405180910390fd5b9150505b90565b610cf08686868686866113d6565b601180546001600160a01b0319166001600160a01b038981169190911791829055604080516318160ddd60e01b8152905192909116916318160ddd91600480820192602092909190829003018186803b158015610d4c57600080fd5b505afa158015610d60573d6000803e3d6000fd5b505050506040513d6020811015610d7657600080fd5b505050505050505050565b6011546001600160a01b0382811691161415610dce5760405162461bcd60e51b8152600401808060200182810382526032815260200180614b6e6032913960400191505060405180910390fd5b604080516370a0823160e01b815230600482015290516000916001600160a01b038416916370a0823191602480820192602092909190829003018186803b158015610e1857600080fd5b505afa158015610e2c573d6000803e3d6000fd5b505050506040513d6020811015610e4257600080fd5b50516003546040805163a9059cbb60e01b81526101009092046001600160a01b03908116600484015260248301849052905192935084169163a9059cbb9160448082019260009290919082900301818387803b158015610ea157600080fd5b505af1158015610eb5573d6000803e3d6000fd5b505050505050565b6000805460ff16610f02576040805162461bcd60e51b815260206004820152600a6024820152691c994b595b9d195c995960b21b604482015290519081900360640190fd5b6000805460ff19168155610f1833868686612087565b1490506000805460ff191660011790559392505050565b600080610f3c8484612313565b50949350505050565b6004546001600160a01b031681565b60035460ff1681565b600181565b6000610f6c61497c565b6040518060200160405280610f7f611b34565b90526001600160a01b0384166000908152600e6020526040812054919250908190610fab9084906123be565b90925090506000826003811115610fbe57fe5b14611010576040805162461bcd60e51b815260206004820152601f60248201527f62616c616e636520636f756c64206e6f742062652063616c63756c6174656400604482015290519081900360640190fd5b949350505050565b6000611022612412565b905090565b6000610b9782612492565b600b5481565b6000805460ff1661107d576040805162461bcd60e51b815260206004820152600a6024820152691c994b595b9d195c995960b21b604482015290519081900360640190fd5b6000805460ff1916815561108f6115c9565b905080156110b5576110ad8160108111156110a657fe5b6030612526565b915050610c67565b6110be8361258c565b9150506000805460ff19166001179055919050565b60095481565b6011546001600160a01b031681565b60035460009061010090046001600160a01b031633146111155761110e6001603f612526565b9050610bae565b6005546040805163d8a72acb60e01b815290516001600160a01b039283169285169163d8a72acb916004808301926020929190829003018186803b15801561115c57600080fd5b505afa158015611170573d6000803e3d6000fd5b505050506040513d602081101561118657600080fd5b50516111d9576040805162461bcd60e51b815260206004820152601c60248201527f6d61726b6572206d6574686f642072657475726e65642066616c736500000000604482015290519081900360640190fd5b600580546001600160a01b0319166001600160a01b03858116918217909255604080519284168352602083019190915280517fe4cbaeda07bdcbcdb1168b355a1a57d377f426f2b049dfb311395a0c6043937d9281900390910190a160005b9392505050565b6001600160a01b03166000908152600e602052604090205490565b6000805460ff1661129f576040805162461bcd60e51b815260206004820152600a6024820152691c994b595b9d195c995960b21b604482015290519081900360640190fd5b6000805460ff191681556112b16115c9565b146112fc576040805162461bcd60e51b81526020600482015260166024820152751858d8dc9d59481a5b9d195c995cdd0819985a5b195960521b604482015290519081900360640190fd5b50600b546000805460ff1916600117905590565b6000610b97826126bf565b600c5481565b6002805460408051602060018416156101000260001901909316849004601f81018490048402820184019092528181529291830182828015610b285780601f10610afd57610100808354040283529160200191610b28565b600080600061138784612740565b9092509050600082600381111561139a57fe5b146112385760405162461bcd60e51b8152600401808060200182810382526037815260200180614bcb6037913960400191505060405180910390fd5b60035461010090046001600160a01b031633146114245760405162461bcd60e51b8152600401808060200182810382526024815260200180614ad56024913960400191505060405180910390fd5b6009541580156114345750600a54155b61146f5760405162461bcd60e51b8152600401808060200182810382526023815260200180614af96023913960400191505060405180910390fd5b6007849055836114b05760405162461bcd60e51b8152600401808060200182810382526030815260200180614b1c6030913960400191505060405180910390fd5b60006114bb876110e8565b90508015611510576040805162461bcd60e51b815260206004820152601a60248201527f73657474696e672064616e6b74726f6c6c6572206661696c6564000000000000604482015290519081900360640190fd5b6115186127f4565b600955670de0b6b3a7640000600a55611530866127f8565b9050801561156f5760405162461bcd60e51b8152600401808060200182810382526022815260200180614b4c6022913960400191505060405180910390fd5b835161158290600190602087019061498f565b50825161159690600290602086019061498f565b50506003805460ff90921660ff199283161790556000805490911660011790555050505050565b600080610ba98361296d565b6000806115d46127f4565b600954909150808214156115ed57600092505050610cdf565b60006115f7612412565b600b54600c54600a54600654604080516315f2405360e01b815260048101879052602481018690526044810185905290519596509394929391926000926001600160a01b03909216916315f24053916064808301926020929190829003018186803b15801561166557600080fd5b505afa158015611679573d6000803e3d6000fd5b505050506040513d602081101561168f57600080fd5b5051905065048c273950008111156116ee576040805162461bcd60e51b815260206004820152601c60248201527f626f72726f772072617465206973206162737572646c79206869676800000000604482015290519081900360640190fd5b6000806116fb89896129ee565b9092509050600082600381111561170e57fe5b14611760576040805162461bcd60e51b815260206004820152601f60248201527f636f756c64206e6f742063616c63756c61746520626c6f636b2064656c746100604482015290519081900360640190fd5b61176861497c565b60008060008061178660405180602001604052808a81525087612a11565b9097509450600087600381111561179957fe5b146117cb576117b6600960068960038111156117b157fe5b612a79565b9e505050505050505050505050505050610cdf565b6117d5858c6123be565b909750935060008760038111156117e857fe5b14611800576117b6600960018960038111156117b157fe5b61180a848c612adf565b9097509250600087600381111561181d57fe5b14611835576117b6600960048960038111156117b157fe5b6118506040518060200160405280600854815250858c612b05565b9097509150600087600381111561186357fe5b1461187b576117b6600960058960038111156117b157fe5b611886858a8b612b05565b9097509050600087600381111561189957fe5b146118b1576117b6600960038960038111156117b157fe5b60098e9055600a819055600b839055600c829055604080518d8152602081018690528082018390526060810185905290517f4dec04e750ca11537cabcd8a9eab06494de08da3735bc8871cd41250e190bc049181900360800190a160009e50505050505050505050505050505090565b6000805460ff16611966576040805162461bcd60e51b815260206004820152600a6024820152691c994b595b9d195c995960b21b604482015290519081900360640190fd5b6000805460ff1916815561197c33338686612087565b1490506000805460ff1916600117905592915050565b600a5481565b6006546000906001600160a01b031663b81688166119b4612412565b600b54600c546008546040518563ffffffff1660e01b81526004018085815260200184815260200183815260200182815260200194505050505060206040518083038186803b158015611a0657600080fd5b505afa158015611a1a573d6000803e3d6000fd5b505050506040513d6020811015611a3057600080fd5b5051905090565b6000805460ff16611a7c576040805162461bcd60e51b815260206004820152600a6024820152691c994b595b9d195c995960b21b604482015290519081900360640190fd5b6000805460ff19169055611a9233858585612b61565b90506000805460ff191660011790559392505050565b60035460009061010090046001600160a01b03163314611ace5761110e60016045612526565b600480546001600160a01b038481166001600160a01b0319831681179093556040805191909216808252602082019390935281517fca4f2f25d0898edd99413412fb94012f9e54ec8142f9b093e7720646a95b16a9929181900390910190a16000611238565b6000805460ff16611b79576040805162461bcd60e51b815260206004820152600a6024820152691c994b595b9d195c995960b21b604482015290519081900360640190fd5b6000805460ff19168155611b8b6115c9565b14611bd6576040805162461bcd60e51b81526020600482015260166024820152751858d8dc9d59481a5b9d195c995cdd0819985a5b195960521b604482015290519081900360640190fd5b611bde610c7f565b90506000805460ff1916600117905590565b6001600160a01b0381166000908152600e6020526040812054819081908190818080611c1b89612740565b935090506000816003811115611c2d57fe5b14611c4b5760095b975060009650869550859450611c7e9350505050565b611c53611fd8565b925090506000816003811115611c6557fe5b14611c71576009611c35565b5060009650919450925090505b9193509193565b6000610b9782612d3d565b6000610b9782612dbc565b6001600160a01b039182166000908152600f6020908152604080832093909416825291909152205490565b6005546001600160a01b031681565b6004546000906001600160a01b031633141580611cf0575033155b15611d0857611d0160016000612526565b9050610cdf565b60038054600480546001600160a01b03818116610100818102610100600160a81b0319871617968790556001600160a01b031990931690935560408051948390048216808652929095041660208401528351909391927ff9ffabca9c8276e99321725bcb43fb076a6c66a54b7f21c4e8146d8519b417dc92908290030190a1600454604080516001600160a01b038085168252909216602083015280517fca4f2f25d0898edd99413412fb94012f9e54ec8142f9b093e7720646a95b16a99281900390910190a160009250505090565b600080611de36115c9565b90508015611e0957611e01816010811115611dfa57fe5b6040612526565b915050610bae565b611238836127f8565b6006546001600160a01b031681565b600080611e2f858585612e36565b5095945050505050565b60035461010090046001600160a01b031681565b6006546000906001600160a01b03166315f24053611e69612412565b600b54600c546040518463ffffffff1660e01b815260040180848152602001838152602001828152602001935050505060206040518083038186803b158015611a0657600080fd5b6000805460ff16611ef6576040805162461bcd60e51b815260206004820152600a6024820152691c994b595b9d195c995960b21b604482015290519081900360640190fd5b6000805460ff19168155611f086115c9565b90508015611f26576110ad816010811115611f1f57fe5b6046612526565b6110be83612f68565b60008054819060ff16611f76576040805162461bcd60e51b815260206004820152600a6024820152691c994b595b9d195c995960b21b604482015290519081900360640190fd5b6000805460ff19168155611f886115c9565b90508015611fb357611fa6816010811115611f9f57fe5b6036612526565b925060009150611fc49050565b611fbe333386613010565b92509250505b6000805460ff191660011790559092909150565b600d54600090819080611ff357505060075460009150612083565b6000611ffd612412565b9050600061200961497c565b600061201a84600b54600c5461335e565b93509050600081600381111561202c57fe5b14612041579550600094506120839350505050565b61204b838661339c565b92509050600081600381111561205d57fe5b14612072579550600094506120839350505050565b505160009550935061208392505050565b9091565b600554604080516317b9b84b60e31b81523060048201526001600160a01b03868116602483015285811660448301526064820185905291516000938493169163bdcdc25891608480830192602092919082900301818787803b1580156120ec57600080fd5b505af1158015612100573d6000803e3d6000fd5b505050506040513d602081101561211657600080fd5b5051905080156121355761212d6003604a83612a79565b915050611010565b836001600160a01b0316856001600160a01b0316141561215b5761212d6002604b612526565b60006001600160a01b03878116908716141561217a57506000196121a2565b506001600160a01b038086166000908152600f60209081526040808320938a16835292905220545b6000806000806121b285896129ee565b909450925060008460038111156121c557fe5b146121e3576121d66009604b612526565b9650505050505050611010565b6001600160a01b038a166000908152600e602052604090205461220690896129ee565b9094509150600084600381111561221957fe5b1461222a576121d66009604c612526565b6001600160a01b0389166000908152600e602052604090205461224d9089612adf565b9094509050600084600381111561226057fe5b14612271576121d66009604d612526565b6001600160a01b03808b166000908152600e6020526040808220859055918b1681522081905560001985146122c9576001600160a01b03808b166000908152600f60209081526040808320938f168352929052208390555b886001600160a01b03168a6001600160a01b0316600080516020614c3c8339815191528a6040518082815260200191505060405180910390a35060009a9950505050505050505050565b60008054819060ff1661235a576040805162461bcd60e51b815260206004820152600a6024820152691c994b595b9d195c995960b21b604482015290519081900360640190fd5b6000805460ff1916815561236c6115c9565b905080156123975761238a81601081111561238357fe5b6035612526565b9250600091506123a89050565b6123a2338686613010565b92509250505b6000805460ff1916600117905590939092509050565b60008060006123cb61497c565b6123d58686612a11565b909250905060008260038111156123e857fe5b146123f9575091506000905061240b565b60006124048261344c565b9350935050505b9250929050565b601154604080516370a0823160e01b815230600482015290516000926001600160a01b03169182916370a0823191602480820192602092909190829003018186803b15801561246057600080fd5b505afa158015612474573d6000803e3d6000fd5b505050506040513d602081101561248a57600080fd5b505191505090565b6000805460ff166124d7576040805162461bcd60e51b815260206004820152600a6024820152691c994b595b9d195c995960b21b604482015290519081900360640190fd5b6000805460ff191681556124e96115c9565b90508015612507576110ad81601081111561250057fe5b604e612526565b6125108361345b565b509150506000805460ff19166001179055919050565b60007f45b96fe442630264581b197e84bbada861235052c5a1aadfff9ea4e40a969aa083601081111561255557fe5b83605081111561256157fe5b604080519283526020830191909152600082820152519081900360600190a182601081111561123857fe5b600354600090819061010090046001600160a01b031633146125b457611e0160016031612526565b6125bc6127f4565b600954146125d057611e01600a6033612526565b826125d9612412565b10156125eb57611e01600e6032612526565b600c5483111561260157611e0160026034612526565b50600c54828103908111156126475760405162461bcd60e51b8152600401808060200182810382526024815260200180614d516024913960400191505060405180910390fd5b600c8190556003546126679061010090046001600160a01b031684613543565b600354604080516101009092046001600160a01b0316825260208201859052818101839052517f3bad0c59cf2f06e7314077049f48a93578cd16f5ef92329f1dab1420a99c177e916060908290030190a16000611238565b6000805460ff16612704576040805162461bcd60e51b815260206004820152600a6024820152691c994b595b9d195c995960b21b604482015290519081900360640190fd5b6000805460ff191681556127166115c9565b90508015612734576110ad81601081111561272d57fe5b6027612526565b6110be3360008561363a565b6001600160a01b0381166000908152601060205260408120805482918291829182916127775750600094508493506127ef92505050565b6127878160000154600a54613b01565b9094509250600084600381111561279a57fe5b146127af5750919350600092506127ef915050565b6127bd838260010154613b40565b909450915060008460038111156127d057fe5b146127e55750919350600092506127ef915050565b5060009450925050505b915091565b4390565b600354600090819061010090046001600160a01b0316331461282057611e0160016042612526565b6128286127f4565b6009541461283c57611e01600a6041612526565b600660009054906101000a90046001600160a01b03169050826001600160a01b0316632191f92a6040518163ffffffff1660e01b815260040160206040518083038186803b15801561288d57600080fd5b505afa1580156128a1573d6000803e3d6000fd5b505050506040513d60208110156128b757600080fd5b505161290a576040805162461bcd60e51b815260206004820152601c60248201527f6d61726b6572206d6574686f642072657475726e65642066616c736500000000604482015290519081900360640190fd5b600680546001600160a01b0319166001600160a01b03858116918217909255604080519284168352602083019190915280517fedffc32e068c7c95dfd4bdfd5c4d939a084d6b11c4199eac8436ed234d72f9269281900390910190a16000611238565b60008054819060ff166129b4576040805162461bcd60e51b815260206004820152600a6024820152691c994b595b9d195c995960b21b604482015290519081900360640190fd5b6000805460ff191681556129c66115c9565b905080156129e457611fa68160108111156129dd57fe5b601e612526565b611fbe3385613b6b565b600080838311612a0557506000905081830361240b565b5060039050600061240b565b6000612a1b61497c565b600080612a2c866000015186613b01565b90925090506000826003811115612a3f57fe5b14612a5e5750604080516020810190915260008152909250905061240b565b60408051602081019091529081526000969095509350505050565b60007f45b96fe442630264581b197e84bbada861235052c5a1aadfff9ea4e40a969aa0846010811115612aa857fe5b846050811115612ab457fe5b604080519283526020830191909152818101859052519081900360600190a183601081111561101057fe5b600080838301848110612af75760009250905061240b565b50600291506000905061240b565b6000806000612b1261497c565b612b1c8787612a11565b90925090506000826003811115612b2f57fe5b14612b405750915060009050612b59565b612b52612b4c8261344c565b86612adf565b9350935050505b935093915050565b6005546040805163d02f735160e01b81523060048201526001600160a01b038781166024830152868116604483015285811660648301526084820185905291516000938493169163d02f73519160a480830192602092919082900301818787803b158015612bce57600080fd5b505af1158015612be2573d6000803e3d6000fd5b505050506040513d6020811015612bf857600080fd5b505190508015612c0f5761212d6003601b83612a79565b846001600160a01b0316846001600160a01b03161415612c355761212d6006601c612526565b6001600160a01b0384166000908152600e602052604081205481908190612c5c90876129ee565b90935091506000836003811115612c6f57fe5b14612c9257612c876009601a8560038111156117b157fe5b945050505050611010565b6001600160a01b0388166000908152600e6020526040902054612cb59087612adf565b90935090506000836003811115612cc857fe5b14612ce057612c87600960198560038111156117b157fe5b6001600160a01b038088166000818152600e60209081526040808320879055938c168083529184902085905583518a815293519193600080516020614c3c833981519152929081900390910190a360009998505050505050505050565b6000805460ff16612d82576040805162461bcd60e51b815260206004820152600a6024820152691c994b595b9d195c995960b21b604482015290519081900360640190fd5b6000805460ff19168155612d946115c9565b90508015612db2576110ad816010811115612dab57fe5b6008612526565b6110be3384613f3b565b6000805460ff16612e01576040805162461bcd60e51b815260206004820152600a6024820152691c994b595b9d195c995960b21b604482015290519081900360640190fd5b6000805460ff19168155612e136115c9565b90508015612e2a576110ad81601081111561272d57fe5b6110be3384600061363a565b60008054819060ff16612e7d576040805162461bcd60e51b815260206004820152600a6024820152691c994b595b9d195c995960b21b604482015290519081900360640190fd5b6000805460ff19168155612e8f6115c9565b90508015612eba57612ead816010811115612ea657fe5b600f612526565b925060009150612f519050565b836001600160a01b031663a6afed956040518163ffffffff1660e01b8152600401602060405180830381600087803b158015612ef557600080fd5b505af1158015612f09573d6000803e3d6000fd5b505050506040513d6020811015612f1f57600080fd5b505190508015612f3f57612ead816010811115612f3857fe5b6010612526565b612f4b338787876141cf565b92509250505b6000805460ff191660011790559094909350915050565b60035460009061010090046001600160a01b03163314612f8e5761110e60016047612526565b612f966127f4565b60095414612faa5761110e600a6048612526565b670de0b6b3a7640000821115612fc65761110e60026049612526565b6008805490839055604080518281526020810185905281517faaa68312e2ea9d50e16af5068410ab56e1a1fd06037b1a35664812c30f821460929181900390910190a16000611238565b60055460408051631200453160e11b81523060048201526001600160a01b0386811660248301528581166044830152606482018590529151600093849384939116916324008a629160848082019260209290919082900301818787803b15801561307957600080fd5b505af115801561308d573d6000803e3d6000fd5b505050506040513d60208110156130a357600080fd5b5051905080156130c7576130ba6003603883612a79565b925060009150612b599050565b6130cf6127f4565b600954146130e3576130ba600a6039612526565b6130eb614a0d565b6001600160a01b038616600090815260106020526040902060010154606082015261311586612740565b608083018190526020830182600381111561312c57fe5b600381111561313757fe5b905250600090508160200151600381111561314e57fe5b146131785761316a60096037836020015160038111156117b157fe5b935060009250612b59915050565b6000198514156131915760808101516040820152613199565b604081018590525b6131a78782604001516146c1565b60e0820181905260808201516131bc916129ee565b60a08301819052602083018260038111156131d357fe5b60038111156131de57fe5b90525060009050816020015160038111156131f557fe5b146132315760405162461bcd60e51b815260040180806020018281038252603a815260200180614c02603a913960400191505060405180910390fd5b613241600b548260e001516129ee565b60c083018190526020830182600381111561325857fe5b600381111561326357fe5b905250600090508160200151600381111561327a57fe5b146132b65760405162461bcd60e51b8152600401808060200182810382526031815260200180614c5c6031913960400191505060405180910390fd5b60a080820180516001600160a01b03808a16600081815260106020908152604091829020948555600a5460019095019490945560c0870151600b81905560e088015195518251948f16855294840192909252828101949094526060820192909252608081019190915290517f1a2a22cb034d26d1854bdc6666a5b91fe25efbbb5dcad3b0355478d6f5c362a1929181900390910190a160e00151600097909650945050505050565b60008060008061336e8787612adf565b9092509050600082600381111561338157fe5b146133925750915060009050612b59565b612b5281866129ee565b60006133a661497c565b6000806133bb86670de0b6b3a7640000613b01565b909250905060008260038111156133ce57fe5b146133ed5750604080516020810190915260008152909250905061240b565b6000806133fa8388613b40565b9092509050600082600381111561340d57fe5b1461342f5750604080516020810190915260008152909450925061240b915050565b604080516020810190915290815260009890975095505050505050565b51670de0b6b3a7640000900490565b6000806000806134696127f4565b600954146134885761347d600a604f612526565b935091506127ef9050565b61349233866146c1565b905080600c54019150600c548210156134f2576040805162461bcd60e51b815260206004820181905260248201527f61646420726573657276657320756e6578706563746564206f766572666c6f77604482015290519081900360640190fd5b600c829055604080513381526020810183905280820184905290517fa91e67c5ea634cd43a12c5a482724b03de01e85ca68702a53d0c2f45cb7c1dc59181900360600190a160009350915050915091565b6011546040805163a9059cbb60e01b81526001600160a01b0385811660048301526024820185905291519190921691829163a9059cbb9160448082019260009290919082900301818387803b15801561359b57600080fd5b505af11580156135af573d6000803e3d6000fd5b5050505060003d600081146135cb57602081146135d557600080fd5b60001991506135e1565b60206000803e60005191505b5080613634576040805162461bcd60e51b815260206004820152601960248201527f544f4b454e5f5452414e534645525f4f55545f4641494c454400000000000000604482015290519081900360640190fd5b50505050565b6000821580613647575081155b6136825760405162461bcd60e51b8152600401808060200182810382526034815260200180614d1d6034913960400191505060405180910390fd5b61368a614a53565b613692611fd8565b60408301819052602083018260038111156136a957fe5b60038111156136b457fe5b90525060009050816020015160038111156136cb57fe5b146136ef576136e76009602b836020015160038111156117b157fe5b915050611238565b831561377057606081018490526040805160208101825290820151815261371690856123be565b608083018190526020830182600381111561372d57fe5b600381111561373857fe5b905250600090508160200151600381111561374f57fe5b1461376b576136e760096029836020015160038111156117b157fe5b6137e9565b61378c836040518060200160405280846040015181525061490b565b60608301819052602083018260038111156137a357fe5b60038111156137ae57fe5b90525060009050816020015160038111156137c557fe5b146137e1576136e76009602a836020015160038111156117b157fe5b608081018390525b60055460608201516040805163eabe7d9160e01b81523060048201526001600160a01b03898116602483015260448201939093529051600093929092169163eabe7d919160648082019260209290919082900301818787803b15801561384e57600080fd5b505af1158015613862573d6000803e3d6000fd5b505050506040513d602081101561387857600080fd5b5051905080156138985761388f6003602883612a79565b92505050611238565b6138a06127f4565b600954146138b45761388f600a602c612526565b6138c4600d5483606001516129ee565b60a08401819052602084018260038111156138db57fe5b60038111156138e657fe5b90525060009050826020015160038111156138fd57fe5b146139195761388f6009602e846020015160038111156117b157fe5b6001600160a01b0386166000908152600e6020526040902054606083015161394191906129ee565b60c084018190526020840182600381111561395857fe5b600381111561396357fe5b905250600090508260200151600381111561397a57fe5b146139965761388f6009602d846020015160038111156117b157fe5b81608001516139a3612412565b10156139b55761388f600e602f612526565b6139c3868360800151613543565b60a0820151600d5560c08201516001600160a01b0387166000818152600e6020908152604091829020939093556060850151815190815290513093600080516020614c3c833981519152928290030190a36080820151606080840151604080516001600160a01b038b168152602081019490945283810191909152517fe5b754fb1abb7f01b499791d0b820ae3b6af3424ac1c59768edb53f4ec31a9299281900390910190a160055460808301516060840151604080516351dff98960e01b81523060048201526001600160a01b038b81166024830152604482019490945260648101929092525191909216916351dff98991608480830192600092919082900301818387803b158015613ad657600080fd5b505af1158015613aea573d6000803e3d6000fd5b5060009250613af7915050565b9695505050505050565b60008083613b145750600090508061240b565b83830283858281613b2157fe5b0414613b355750600291506000905061240b565b60009250905061240b565b60008082613b54575060019050600061240b565b6000838581613b5f57fe5b04915091509250929050565b60055460408051634ef4c3e160e01b81523060048201526001600160a01b03858116602483015260448201859052915160009384938493911691634ef4c3e19160648082019260209290919082900301818787803b158015613bcc57600080fd5b505af1158015613be0573d6000803e3d6000fd5b505050506040513d6020811015613bf657600080fd5b505190508015613c1a57613c0d6003601f83612a79565b92506000915061240b9050565b613c226127f4565b60095414613c3657613c0d600a6022612526565b613c3e614a53565b613c46611fd8565b6040830181905260208301826003811115613c5d57fe5b6003811115613c6857fe5b9052506000905081602001516003811115613c7f57fe5b14613ca957613c9b60096021836020015160038111156117b157fe5b93506000925061240b915050565b613cb386866146c1565b60c0820181905260408051602081018252908301518152613cd4919061490b565b6060830181905260208301826003811115613ceb57fe5b6003811115613cf657fe5b9052506000905081602001516003811115613d0d57fe5b14613d5f576040805162461bcd60e51b815260206004820181905260248201527f4d494e545f45584348414e47455f43414c43554c4154494f4e5f4641494c4544604482015290519081900360640190fd5b613d6f600d548260600151612adf565b6080830181905260208301826003811115613d8657fe5b6003811115613d9157fe5b9052506000905081602001516003811115613da857fe5b14613de45760405162461bcd60e51b8152600401808060200182810382526028815260200180614cf56028913960400191505060405180910390fd5b6001600160a01b0386166000908152600e60205260409020546060820151613e0c9190612adf565b60a0830181905260208301826003811115613e2357fe5b6003811115613e2e57fe5b9052506000905081602001516003811115613e4557fe5b14613e815760405162461bcd60e51b815260040180806020018281038252602b815260200180614ba0602b913960400191505060405180910390fd5b6080810151600d5560a08101516001600160a01b0387166000818152600e60209081526040918290209390935560c084015160608086015183519485529484019190915282820193909352517f4c209b5fc8ad50758f13e2e1088ba56a560dff690a1c6fef26394f4c03821c4f929181900390910190a1606081015160408051918252516001600160a01b038816913091600080516020614c3c8339815191529181900360200190a360c001516000969095509350505050565b6005546040805163368f515360e21b81523060048201526001600160a01b0385811660248301526044820185905291516000938493169163da3d454c91606480830192602092919082900301818787803b158015613f9857600080fd5b505af1158015613fac573d6000803e3d6000fd5b505050506040513d6020811015613fc257600080fd5b505190508015613fe157613fd96003600e83612a79565b915050610b97565b613fe96127f4565b60095414613ffc57613fd9600a80612526565b82614005612412565b101561401757613fd9600e6009612526565b61401f614a91565b61402885612740565b602083018190528282600381111561403c57fe5b600381111561404757fe5b905250600090508151600381111561405b57fe5b146140805761407760096007836000015160038111156117b157fe5b92505050610b97565b61408e816020015185612adf565b60408301819052828260038111156140a257fe5b60038111156140ad57fe5b90525060009050815160038111156140c157fe5b146140dd576140776009600c836000015160038111156117b157fe5b6140e9600b5485612adf565b60608301819052828260038111156140fd57fe5b600381111561410857fe5b905250600090508151600381111561411c57fe5b14614138576140776009600b836000015160038111156117b157fe5b6141428585613543565b604080820180516001600160a01b03881660008181526010602090815290859020928355600a54600190930192909255606080860151600b81905593518551928352928201899052818501929092529081019190915290517f13ed6866d4e1ee6da46f845c46d7e54120883d75c5ea9a2dacc1c4ca8984ab809181900360800190a1600095945050505050565b60055460408051632fe3f38f60e11b81523060048201526001600160a01b0384811660248301528781166044830152868116606483015260848201869052915160009384938493911691635fc7e71e9160a48082019260209290919082900301818787803b15801561424057600080fd5b505af1158015614254573d6000803e3d6000fd5b505050506040513d602081101561426a57600080fd5b50519050801561428e576142816003601283612a79565b9250600091506146b89050565b6142966127f4565b600954146142aa57614281600a6016612526565b6142b26127f4565b846001600160a01b0316636c540baf6040518163ffffffff1660e01b815260040160206040518083038186803b1580156142eb57600080fd5b505afa1580156142ff573d6000803e3d6000fd5b505050506040513d602081101561431557600080fd5b50511461432857614281600a6011612526565b866001600160a01b0316866001600160a01b0316141561434e5761428160066017612526565b8461435f5761428160076015612526565b6000198514156143755761428160076014612526565b600080614383898989613010565b909250905081156143b3576143a482601081111561439d57fe5b6018612526565b9450600093506146b892505050565b6005546040805163c488847b60e01b81523060048201526001600160a01b038981166024830152604482018590528251600094859492169263c488847b926064808301939192829003018186803b15801561440d57600080fd5b505afa158015614421573d6000803e3d6000fd5b505050506040513d604081101561443757600080fd5b508051602090910151909250905081156144825760405162461bcd60e51b8152600401808060200182810382526033815260200180614c8d6033913960400191505060405180910390fd5b80886001600160a01b03166370a082318c6040518263ffffffff1660e01b815260040180826001600160a01b03166001600160a01b0316815260200191505060206040518083038186803b1580156144d957600080fd5b505afa1580156144ed573d6000803e3d6000fd5b505050506040513d602081101561450357600080fd5b50511015614558576040805162461bcd60e51b815260206004820152601860248201527f4c49515549444154455f5345495a455f544f4f5f4d5543480000000000000000604482015290519081900360640190fd5b60006001600160a01b03891630141561457e57614577308d8d85612b61565b9050614608565b6040805163b2a02ff160e01b81526001600160a01b038e811660048301528d81166024830152604482018590529151918b169163b2a02ff1916064808201926020929091908290030181600087803b1580156145d957600080fd5b505af11580156145ed573d6000803e3d6000fd5b505050506040513d602081101561460357600080fd5b505190505b8015614652576040805162461bcd60e51b81526020600482015260146024820152731d1bdad95b881cd95a5e9d5c994819985a5b195960621b604482015290519081900360640190fd5b604080516001600160a01b03808f168252808e1660208301528183018790528b1660608201526080810184905290517f298637f684da70674f26509b10f07ec2fbc77a335ab1e7d6215a4b2484d8bb529181900360a00190a16000975092955050505050505b94509492505050565b601154604080516370a0823160e01b815230600482015290516000926001600160a01b031691839183916370a08231916024808301926020929190829003018186803b15801561471057600080fd5b505afa158015614724573d6000803e3d6000fd5b505050506040513d602081101561473a57600080fd5b5051604080516323b872dd60e01b81526001600160a01b038881166004830152306024830152604482018890529151929350908416916323b872dd9160648082019260009290919082900301818387803b15801561479757600080fd5b505af11580156147ab573d6000803e3d6000fd5b5050505060003d600081146147c757602081146147d157600080fd5b60001991506147dd565b60206000803e60005191505b5080614830576040805162461bcd60e51b815260206004820152601860248201527f544f4b454e5f5452414e534645525f494e5f4641494c45440000000000000000604482015290519081900360640190fd5b601154604080516370a0823160e01b815230600482015290516000926001600160a01b0316916370a08231916024808301926020929190829003018186803b15801561487b57600080fd5b505afa15801561488f573d6000803e3d6000fd5b505050506040513d60208110156148a557600080fd5b50519050828110156148fe576040805162461bcd60e51b815260206004820152601a60248201527f544f4b454e5f5452414e534645525f494e5f4f564552464c4f57000000000000604482015290519081900360640190fd5b9190910395945050505050565b600080600061491861497c565b6123d58686600061492761497c565b60008061493c670de0b6b3a764000087613b01565b9092509050600082600381111561494f57fe5b1461496e5750604080516020810190915260008152909250905061240b565b61240481866000015161339c565b6040518060200160405280600081525090565b828054600181600116156101000203166002900490600052602060002090601f016020900481019282601f106149d057805160ff19168380011785556149fd565b828001600101855582156149fd579182015b828111156149fd5782518255916020019190600101906149e2565b50614a09929150614aba565b5090565b6040805161010081019091528060008152602001600081526020016000815260200160008152602001600081526020016000815260200160008152602001600081525090565b6040805160e0810190915280600081526020016000815260200160008152602001600081526020016000815260200160008152602001600081525090565b604080516080810190915280600081526020016000815260200160008152602001600081525090565b610cdf91905b80821115614a095760008155600101614ac056fe6f6e6c792061646d696e206d617920696e697469616c697a6520746865206d61726b65746d61726b6574206d6179206f6e6c7920626520696e697469616c697a6564206f6e6365696e697469616c2065786368616e67652072617465206d7573742062652067726561746572207468616e207a65726f2e73657474696e6720696e7465726573742072617465206d6f64656c206661696c65644445726332303a3a7377656570546f6b656e3a2063616e206e6f7420737765657020756e6465726c79696e6720746f6b656e4d494e545f4e45575f4143434f554e545f42414c414e43455f43414c43554c4154494f4e5f4641494c4544626f72726f7742616c616e636553746f7265643a20626f72726f7742616c616e636553746f726564496e7465726e616c206661696c656452455041595f424f52524f575f4e45575f4143434f554e545f424f52524f575f42414c414e43455f43414c43554c4154494f4e5f4641494c4544ddf252ad1be2c89b69c2b068fc378daa952ba7f163c4a11628f55a4df523b3ef52455041595f424f52524f575f4e45575f544f54414c5f42414c414e43455f43414c43554c4154494f4e5f4641494c45444c49515549444154455f44414e4b54524f4c4c45525f43414c43554c4154455f414d4f554e545f5345495a455f4641494c454465786368616e67655261746553746f7265643a2065786368616e67655261746553746f726564496e7465726e616c206661696c65644d494e545f4e45575f544f54414c5f535550504c595f43414c43554c4154494f4e5f4641494c45446f6e65206f662072656465656d546f6b656e73496e206f722072656465656d416d6f756e74496e206d757374206265207a65726f72656475636520726573657276657320756e657870656374656420756e646572666c6f77a265627a7a72315820783befb7bdeed1d6c3b91cc72cb8ec8c5dd26480eb5557911cab645f20c5b66964736f6c634300051100326f6e6c792061646d696e206d617920696e697469616c697a6520746865206d61726b65746d61726b6574206d6179206f6e6c7920626520696e697469616c697a6564206f6e6365696e697469616c2065786368616e67652072617465206d7573742062652067726561746572207468616e207a65726f2e73657474696e6720696e7465726573742072617465206d6f64656c206661696c6564",
			"opcodes": "PUSH1 0x80 PUSH1 0x40 MSTORE CALLVALUE DUP1 ISZERO PUSH3 0x11 JUMPI PUSH1 0x0 DUP1 REVERT JUMPDEST POP PUSH1 0x40 MLOAD PUSH3 0x5761 CODESIZE SUB DUP1 PUSH3 0x5761 DUP4 CODECOPY DUP2 DUP2 ADD PUSH1 0x40 MSTORE PUSH2 0x100 DUP2 LT ISZERO PUSH3 0x38 JUMPI PUSH1 0x0 DUP1 REVERT JUMPDEST DUP2 MLOAD PUSH1 0x20 DUP4 ADD MLOAD PUSH1 0x40 DUP1 DUP6 ADD MLOAD PUSH1 0x60 DUP7 ADD MLOAD PUSH1 0x80 DUP8 ADD DUP1 MLOAD SWAP4 MLOAD SWAP6 SWAP8 SWAP5 SWAP7 SWAP3 SWAP6 SWAP2 SWAP5 SWAP2 SWAP4 SWAP3 DUP3 ADD SWAP3 DUP5 PUSH5 0x100000000 DUP3 GT ISZERO PUSH3 0x74 JUMPI PUSH1 0x0 DUP1 REVERT JUMPDEST SWAP1 DUP4 ADD SWAP1 PUSH1 0x20 DUP3 ADD DUP6 DUP2 GT ISZERO PUSH3 0x8A JUMPI PUSH1 0x0 DUP1 REVERT JUMPDEST DUP3 MLOAD PUSH5 0x100000000 DUP2 GT DUP3 DUP3 ADD DUP9 LT OR ISZERO PUSH3 0xA5 JUMPI PUSH1 0x0 DUP1 REVERT JUMPDEST DUP3 MSTORE POP DUP2 MLOAD PUSH1 0x20 SWAP2 DUP3 ADD SWAP3 SWAP1 SWAP2 ADD SWAP1 DUP1 DUP4 DUP4 PUSH1 0x0 JUMPDEST DUP4 DUP2 LT ISZERO PUSH3 0xD4 JUMPI DUP2 DUP2 ADD MLOAD DUP4 DUP3 ADD MSTORE PUSH1 0x20 ADD PUSH3 0xBA JUMP JUMPDEST POP POP POP POP SWAP1 POP SWAP1 DUP2 ADD SWAP1 PUSH1 0x1F AND DUP1 ISZERO PUSH3 0x102 JUMPI DUP1 DUP3 SUB DUP1 MLOAD PUSH1 0x1 DUP4 PUSH1 0x20 SUB PUSH2 0x100 EXP SUB NOT AND DUP2 MSTORE PUSH1 0x20 ADD SWAP2 POP JUMPDEST POP PUSH1 0x40 MSTORE PUSH1 0x20 ADD DUP1 MLOAD PUSH1 0x40 MLOAD SWAP4 SWAP3 SWAP2 SWAP1 DUP5 PUSH5 0x100000000 DUP3 GT ISZERO PUSH3 0x126 JUMPI PUSH1 0x0 DUP1 REVERT JUMPDEST SWAP1 DUP4 ADD SWAP1 PUSH1 0x20 DUP3 ADD DUP6 DUP2 GT ISZERO PUSH3 0x13C JUMPI PUSH1 0x0 DUP1 REVERT JUMPDEST DUP3 MLOAD PUSH5 0x100000000 DUP2 GT DUP3 DUP3 ADD DUP9 LT OR ISZERO PUSH3 0x157 JUMPI PUSH1 0x0 DUP1 REVERT JUMPDEST DUP3 MSTORE POP DUP2 MLOAD PUSH1 0x20 SWAP2 DUP3 ADD SWAP3 SWAP1 SWAP2 ADD SWAP1 DUP1 DUP4 DUP4 PUSH1 0x0 JUMPDEST DUP4 DUP2 LT ISZERO PUSH3 0x186 JUMPI DUP2 DUP2 ADD MLOAD DUP4 DUP3 ADD MSTORE PUSH1 0x20 ADD PUSH3 0x16C JUMP JUMPDEST POP POP POP POP SWAP1 POP SWAP1 DUP2 ADD SWAP1 PUSH1 0x1F AND DUP1 ISZERO PUSH3 0x1B4 JUMPI DUP1 DUP3 SUB DUP1 MLOAD PUSH1 0x1 DUP4 PUSH1 0x20 SUB PUSH2 0x100 EXP SUB NOT AND DUP2 MSTORE PUSH1 0x20 ADD SWAP2 POP JUMPDEST POP PUSH1 0x40 SWAP1 DUP2 MSTORE PUSH1 0x20 DUP3 ADD MLOAD SWAP2 ADD MLOAD PUSH1 0x3 DUP1 SLOAD PUSH2 0x100 PUSH1 0x1 PUSH1 0xA8 SHL SUB NOT AND CALLER PUSH2 0x100 MUL OR SWAP1 SSTORE SWAP1 SWAP3 POP SWAP1 POP PUSH3 0x1EF DUP9 DUP9 DUP9 DUP9 DUP9 DUP9 DUP9 PUSH3 0x223 JUMP JUMPDEST PUSH1 0x3 DUP1 SLOAD PUSH1 0x1 PUSH1 0x1 PUSH1 0xA0 SHL SUB SWAP1 SWAP3 AND PUSH2 0x100 MUL PUSH2 0x100 PUSH1 0x1 PUSH1 0xA8 SHL SUB NOT SWAP1 SWAP3 AND SWAP2 SWAP1 SWAP2 OR SWAP1 SSTORE POP PUSH3 0x90F SWAP6 POP POP POP POP POP POP JUMP JUMPDEST PUSH3 0x23E DUP7 DUP7 DUP7 DUP7 DUP7 DUP7 PUSH3 0x2D2 PUSH1 0x20 SHL PUSH3 0x13D6 OR PUSH1 0x20 SHR JUMP JUMPDEST PUSH1 0x11 DUP1 SLOAD PUSH1 0x1 PUSH1 0x1 PUSH1 0xA0 SHL SUB NOT AND PUSH1 0x1 PUSH1 0x1 PUSH1 0xA0 SHL SUB DUP10 DUP2 AND SWAP2 SWAP1 SWAP2 OR SWAP2 DUP3 SWAP1 SSTORE PUSH1 0x40 DUP1 MLOAD PUSH4 0x18160DDD PUSH1 0xE0 SHL DUP2 MSTORE SWAP1 MLOAD SWAP3 SWAP1 SWAP2 AND SWAP2 PUSH4 0x18160DDD SWAP2 PUSH1 0x4 DUP1 DUP3 ADD SWAP3 PUSH1 0x20 SWAP3 SWAP1 SWAP2 SWAP1 DUP3 SWAP1 SUB ADD DUP2 DUP7 DUP1 EXTCODESIZE ISZERO DUP1 ISZERO PUSH3 0x29B JUMPI PUSH1 0x0 DUP1 REVERT JUMPDEST POP GAS STATICCALL ISZERO DUP1 ISZERO PUSH3 0x2B0 JUMPI RETURNDATASIZE PUSH1 0x0 DUP1 RETURNDATACOPY RETURNDATASIZE PUSH1 0x0 REVERT JUMPDEST POP POP POP POP PUSH1 0x40 MLOAD RETURNDATASIZE PUSH1 0x20 DUP2 LT ISZERO PUSH3 0x2C7 JUMPI PUSH1 0x0 DUP1 REVERT JUMPDEST POP POP POP POP POP POP POP POP POP JUMP JUMPDEST PUSH1 0x3 SLOAD PUSH2 0x100 SWAP1 DIV PUSH1 0x1 PUSH1 0x1 PUSH1 0xA0 SHL SUB AND CALLER EQ PUSH3 0x322 JUMPI PUSH1 0x40 MLOAD PUSH3 0x461BCD PUSH1 0xE5 SHL DUP2 MSTORE PUSH1 0x4 ADD DUP1 DUP1 PUSH1 0x20 ADD DUP3 DUP2 SUB DUP3 MSTORE PUSH1 0x24 DUP2 MSTORE PUSH1 0x20 ADD DUP1 PUSH3 0x56C8 PUSH1 0x24 SWAP2 CODECOPY PUSH1 0x40 ADD SWAP2 POP POP PUSH1 0x40 MLOAD DUP1 SWAP2 SUB SWAP1 REVERT JUMPDEST PUSH1 0x9 SLOAD ISZERO DUP1 ISZERO PUSH3 0x333 JUMPI POP PUSH1 0xA SLOAD ISZERO JUMPDEST PUSH3 0x370 JUMPI PUSH1 0x40 MLOAD PUSH3 0x461BCD PUSH1 0xE5 SHL DUP2 MSTORE PUSH1 0x4 ADD DUP1 DUP1 PUSH1 0x20 ADD DUP3 DUP2 SUB DUP3 MSTORE PUSH1 0x23 DUP2 MSTORE PUSH1 0x20 ADD DUP1 PUSH3 0x56EC PUSH1 0x23 SWAP2 CODECOPY PUSH1 0x40 ADD SWAP2 POP POP PUSH1 0x40 MLOAD DUP1 SWAP2 SUB SWAP1 REVERT JUMPDEST PUSH1 0x7 DUP5 SWAP1 SSTORE DUP4 PUSH3 0x3B3 JUMPI PUSH1 0x40 MLOAD PUSH3 0x461BCD PUSH1 0xE5 SHL DUP2 MSTORE PUSH1 0x4 ADD DUP1 DUP1 PUSH1 0x20 ADD DUP3 DUP2 SUB DUP3 MSTORE PUSH1 0x30 DUP2 MSTORE PUSH1 0x20 ADD DUP1 PUSH3 0x570F PUSH1 0x30 SWAP2 CODECOPY PUSH1 0x40 ADD SWAP2 POP POP PUSH1 0x40 MLOAD DUP1 SWAP2 SUB SWAP1 REVERT JUMPDEST PUSH1 0x0 PUSH3 0x3C9 DUP8 PUSH1 0x1 PUSH1 0x1 PUSH1 0xE0 SHL SUB PUSH3 0x4E8 AND JUMP JUMPDEST SWAP1 POP DUP1 ISZERO PUSH3 0x41F JUMPI PUSH1 0x40 DUP1 MLOAD PUSH3 0x461BCD PUSH1 0xE5 SHL DUP2 MSTORE PUSH1 0x20 PUSH1 0x4 DUP3 ADD MSTORE PUSH1 0x1A PUSH1 0x24 DUP3 ADD MSTORE PUSH32 0x73657474696E672064616E6B74726F6C6C6572206661696C6564000000000000 PUSH1 0x44 DUP3 ADD MSTORE SWAP1 MLOAD SWAP1 DUP2 SWAP1 SUB PUSH1 0x64 ADD SWAP1 REVERT JUMPDEST PUSH3 0x432 PUSH1 0x1 PUSH1 0x1 PUSH1 0xE0 SHL SUB PUSH3 0x652 AND JUMP JUMPDEST PUSH1 0x9 SSTORE PUSH8 0xDE0B6B3A7640000 PUSH1 0xA SSTORE PUSH3 0x455 DUP7 PUSH1 0x1 PUSH1 0x1 PUSH1 0xE0 SHL SUB PUSH3 0x657 AND JUMP JUMPDEST SWAP1 POP DUP1 ISZERO PUSH3 0x496 JUMPI PUSH1 0x40 MLOAD PUSH3 0x461BCD PUSH1 0xE5 SHL DUP2 MSTORE PUSH1 0x4 ADD DUP1 DUP1 PUSH1 0x20 ADD DUP3 DUP2 SUB DUP3 MSTORE PUSH1 0x22 DUP2 MSTORE PUSH1 0x20 ADD DUP1 PUSH3 0x573F PUSH1 0x22 SWAP2 CODECOPY PUSH1 0x40 ADD SWAP2 POP POP PUSH1 0x40 MLOAD DUP1 SWAP2 SUB SWAP1 REVERT JUMPDEST DUP4 MLOAD PUSH3 0x4AB SWAP1 PUSH1 0x1 SWAP1 PUSH1 0x20 DUP8 ADD SWAP1 PUSH3 0x86D JUMP JUMPDEST POP DUP3 MLOAD PUSH3 0x4C1 SWAP1 PUSH1 0x2 SWAP1 PUSH1 0x20 DUP7 ADD SWAP1 PUSH3 0x86D JUMP JUMPDEST POP POP PUSH1 0x3 DUP1 SLOAD PUSH1 0xFF SWAP1 SWAP3 AND PUSH1 0xFF NOT SWAP3 DUP4 AND OR SWAP1 SSTORE PUSH1 0x0 DUP1 SLOAD SWAP1 SWAP2 AND PUSH1 0x1 OR SWAP1 SSTORE POP POP POP POP POP JUMP JUMPDEST PUSH1 0x3 SLOAD PUSH1 0x0 SWAP1 PUSH2 0x100 SWAP1 DIV PUSH1 0x1 PUSH1 0x1 PUSH1 0xA0 SHL SUB AND CALLER EQ PUSH3 0x522 JUMPI PUSH3 0x51A PUSH1 0x1 PUSH1 0x3F PUSH1 0x1 PUSH1 0x1 PUSH1 0xE0 SHL SUB PUSH3 0x7FD AND JUMP JUMPDEST SWAP1 POP PUSH3 0x64D JUMP JUMPDEST PUSH1 0x5 SLOAD PUSH1 0x40 DUP1 MLOAD PUSH4 0xD8A72ACB PUSH1 0xE0 SHL DUP2 MSTORE SWAP1 MLOAD PUSH1 0x1 PUSH1 0x1 PUSH1 0xA0 SHL SUB SWAP3 DUP4 AND SWAP3 DUP6 AND SWAP2 PUSH4 0xD8A72ACB SWAP2 PUSH1 0x4 DUP1 DUP4 ADD SWAP3 PUSH1 0x20 SWAP3 SWAP2 SWAP1 DUP3 SWAP1 SUB ADD DUP2 DUP7 DUP1 EXTCODESIZE ISZERO DUP1 ISZERO PUSH3 0x56A JUMPI PUSH1 0x0 DUP1 REVERT JUMPDEST POP GAS STATICCALL ISZERO DUP1 ISZERO PUSH3 0x57F JUMPI RETURNDATASIZE PUSH1 0x0 DUP1 RETURNDATACOPY RETURNDATASIZE PUSH1 0x0 REVERT JUMPDEST POP POP POP POP PUSH1 0x40 MLOAD RETURNDATASIZE PUSH1 0x20 DUP2 LT ISZERO PUSH3 0x596 JUMPI PUSH1 0x0 DUP1 REVERT JUMPDEST POP MLOAD PUSH3 0x5EA JUMPI PUSH1 0x40 DUP1 MLOAD PUSH3 0x461BCD PUSH1 0xE5 SHL DUP2 MSTORE PUSH1 0x20 PUSH1 0x4 DUP3 ADD MSTORE PUSH1 0x1C PUSH1 0x24 DUP3 ADD MSTORE PUSH32 0x6D61726B6572206D6574686F642072657475726E65642066616C736500000000 PUSH1 0x44 DUP3 ADD MSTORE SWAP1 MLOAD SWAP1 DUP2 SWAP1 SUB PUSH1 0x64 ADD SWAP1 REVERT JUMPDEST PUSH1 0x5 DUP1 SLOAD PUSH1 0x1 PUSH1 0x1 PUSH1 0xA0 SHL SUB NOT AND PUSH1 0x1 PUSH1 0x1 PUSH1 0xA0 SHL SUB DUP6 DUP2 AND SWAP2 DUP3 OR SWAP1 SWAP3 SSTORE PUSH1 0x40 DUP1 MLOAD SWAP3 DUP5 AND DUP4 MSTORE PUSH1 0x20 DUP4 ADD SWAP2 SWAP1 SWAP2 MSTORE DUP1 MLOAD PUSH32 0xE4CBAEDA07BDCBCDB1168B355A1A57D377F426F2B049DFB311395A0C6043937D SWAP3 DUP2 SWAP1 SUB SWAP1 SWAP2 ADD SWAP1 LOG1 PUSH1 0x0 JUMPDEST SWAP2 POP POP JUMPDEST SWAP2 SWAP1 POP JUMP JUMPDEST NUMBER JUMPDEST SWAP1 JUMP JUMPDEST PUSH1 0x3 SLOAD PUSH1 0x0 SWAP1 DUP2 SWAP1 PUSH2 0x100 SWAP1 DIV PUSH1 0x1 PUSH1 0x1 PUSH1 0xA0 SHL SUB AND CALLER EQ PUSH3 0x694 JUMPI PUSH3 0x68B PUSH1 0x1 PUSH1 0x42 PUSH1 0x1 PUSH1 0x1 PUSH1 0xE0 SHL SUB PUSH3 0x7FD AND JUMP JUMPDEST SWAP2 POP POP PUSH3 0x64D JUMP JUMPDEST PUSH3 0x6A7 PUSH1 0x1 PUSH1 0x1 PUSH1 0xE0 SHL SUB PUSH3 0x652 AND JUMP JUMPDEST PUSH1 0x9 SLOAD EQ PUSH3 0x6C7 JUMPI PUSH3 0x68B PUSH1 0xA PUSH1 0x41 PUSH1 0x1 PUSH1 0x1 PUSH1 0xE0 SHL SUB PUSH3 0x7FD AND JUMP JUMPDEST PUSH1 0x6 PUSH1 0x0 SWAP1 SLOAD SWAP1 PUSH2 0x100 EXP SWAP1 DIV PUSH1 0x1 PUSH1 0x1 PUSH1 0xA0 SHL SUB AND SWAP1 POP DUP3 PUSH1 0x1 PUSH1 0x1 PUSH1 0xA0 SHL SUB AND PUSH4 0x2191F92A PUSH1 0x40 MLOAD DUP2 PUSH4 0xFFFFFFFF AND PUSH1 0xE0 SHL DUP2 MSTORE PUSH1 0x4 ADD PUSH1 0x20 PUSH1 0x40 MLOAD DUP1 DUP4 SUB DUP2 DUP7 DUP1 EXTCODESIZE ISZERO DUP1 ISZERO PUSH3 0x719 JUMPI PUSH1 0x0 DUP1 REVERT JUMPDEST POP GAS STATICCALL ISZERO DUP1 ISZERO PUSH3 0x72E JUMPI RETURNDATASIZE PUSH1 0x0 DUP1 RETURNDATACOPY RETURNDATASIZE PUSH1 0x0 REVERT JUMPDEST POP POP POP POP PUSH1 0x40 MLOAD RETURNDATASIZE PUSH1 0x20 DUP2 LT ISZERO PUSH3 0x745 JUMPI PUSH1 0x0 DUP1 REVERT JUMPDEST POP MLOAD PUSH3 0x799 JUMPI PUSH1 0x40 DUP1 MLOAD PUSH3 0x461BCD PUSH1 0xE5 SHL DUP2 MSTORE PUSH1 0x20 PUSH1 0x4 DUP3 ADD MSTORE PUSH1 0x1C PUSH1 0x24 DUP3 ADD MSTORE PUSH32 0x6D61726B6572206D6574686F642072657475726E65642066616C736500000000 PUSH1 0x44 DUP3 ADD MSTORE SWAP1 MLOAD SWAP1 DUP2 SWAP1 SUB PUSH1 0x64 ADD SWAP1 REVERT JUMPDEST PUSH1 0x6 DUP1 SLOAD PUSH1 0x1 PUSH1 0x1 PUSH1 0xA0 SHL SUB NOT AND PUSH1 0x1 PUSH1 0x1 PUSH1 0xA0 SHL SUB DUP6 DUP2 AND SWAP2 DUP3 OR SWAP1 SWAP3 SSTORE PUSH1 0x40 DUP1 MLOAD SWAP3 DUP5 AND DUP4 MSTORE PUSH1 0x20 DUP4 ADD SWAP2 SWAP1 SWAP2 MSTORE DUP1 MLOAD PUSH32 0xEDFFC32E068C7C95DFD4BDFD5C4D939A084D6B11C4199EAC8436ED234D72F926 SWAP3 DUP2 SWAP1 SUB SWAP1 SWAP2 ADD SWAP1 LOG1 PUSH1 0x0 PUSH3 0x649 JUMP JUMPDEST PUSH1 0x0 PUSH32 0x45B96FE442630264581B197E84BBADA861235052C5A1AADFFF9EA4E40A969AA0 DUP4 PUSH1 0x10 DUP2 GT ISZERO PUSH3 0x82D JUMPI INVALID JUMPDEST DUP4 PUSH1 0x50 DUP2 GT ISZERO PUSH3 0x83A JUMPI INVALID JUMPDEST PUSH1 0x40 DUP1 MLOAD SWAP3 DUP4 MSTORE PUSH1 0x20 DUP4 ADD SWAP2 SWAP1 SWAP2 MSTORE PUSH1 0x0 DUP3 DUP3 ADD MSTORE MLOAD SWAP1 DUP2 SWAP1 SUB PUSH1 0x60 ADD SWAP1 LOG1 DUP3 PUSH1 0x10 DUP2 GT ISZERO PUSH3 0x866 JUMPI INVALID JUMPDEST SWAP4 SWAP3 POP POP POP JUMP JUMPDEST DUP3 DUP1 SLOAD PUSH1 0x1 DUP2 PUSH1 0x1 AND ISZERO PUSH2 0x100 MUL SUB AND PUSH1 0x2 SWAP1 DIV SWAP1 PUSH1 0x0 MSTORE PUSH1 0x20 PUSH1 0x0 KECCAK256 SWAP1 PUSH1 0x1F ADD PUSH1 0x20 SWAP1 DIV DUP2 ADD SWAP3 DUP3 PUSH1 0x1F LT PUSH3 0x8B0 JUMPI DUP1 MLOAD PUSH1 0xFF NOT AND DUP4 DUP1 ADD OR DUP6 SSTORE PUSH3 0x8E0 JUMP JUMPDEST DUP3 DUP1 ADD PUSH1 0x1 ADD DUP6 SSTORE DUP3 ISZERO PUSH3 0x8E0 JUMPI SWAP2 DUP3 ADD JUMPDEST DUP3 DUP2 GT ISZERO PUSH3 0x8E0 JUMPI DUP3 MLOAD DUP3 SSTORE SWAP2 PUSH1 0x20 ADD SWAP2 SWAP1 PUSH1 0x1 ADD SWAP1 PUSH3 0x8C3 JUMP JUMPDEST POP PUSH3 0x8EE SWAP3 SWAP2 POP PUSH3 0x8F2 JUMP JUMPDEST POP SWAP1 JUMP JUMPDEST PUSH3 0x654 SWAP2 SWAP1 JUMPDEST DUP1 DUP3 GT ISZERO PUSH3 0x8EE JUMPI PUSH1 0x0 DUP2 SSTORE PUSH1 0x1 ADD PUSH3 0x8F9 JUMP JUMPDEST PUSH2 0x4DA9 DUP1 PUSH3 0x91F PUSH1 0x0 CODECOPY PUSH1 0x0 RETURN INVALID PUSH1 0x80 PUSH1 0x40 MSTORE CALLVALUE DUP1 ISZERO PUSH2 0x10 JUMPI PUSH1 0x0 DUP1 REVERT JUMPDEST POP PUSH1 0x4 CALLDATASIZE LT PUSH2 0x2BB JUMPI PUSH1 0x0 CALLDATALOAD PUSH1 0xE0 SHR DUP1 PUSH4 0x852A12E3 GT PUSH2 0x182 JUMPI DUP1 PUSH4 0xBD6D894D GT PUSH2 0xE9 JUMPI DUP1 PUSH4 0xE9C714F2 GT PUSH2 0xA2 JUMPI DUP1 PUSH4 0xF5E3C462 GT PUSH2 0x7C JUMPI DUP1 PUSH4 0xF5E3C462 EQ PUSH2 0xA40 JUMPI DUP1 PUSH4 0xF851A440 EQ PUSH2 0xA76 JUMPI DUP1 PUSH4 0xF8F9DA28 EQ PUSH2 0xA7E JUMPI DUP1 PUSH4 0xFCA7820B EQ PUSH2 0xA86 JUMPI PUSH2 0x2BB JUMP JUMPDEST DUP1 PUSH4 0xE9C714F2 EQ PUSH2 0xA0A JUMPI DUP1 PUSH4 0xF2B3ABBD EQ PUSH2 0xA12 JUMPI DUP1 PUSH4 0xF3FDB15A EQ PUSH2 0xA38 JUMPI PUSH2 0x2BB JUMP JUMPDEST DUP1 PUSH4 0xBD6D894D EQ PUSH2 0x946 JUMPI DUP1 PUSH4 0xC37F68E2 EQ PUSH2 0x94E JUMPI DUP1 PUSH4 0xC5EBEAEC EQ PUSH2 0x99A JUMPI DUP1 PUSH4 0xDB006A75 EQ PUSH2 0x9B7 JUMPI DUP1 PUSH4 0xDD62ED3E EQ PUSH2 0x9D4 JUMPI DUP1 PUSH4 0xE8B29A90 EQ PUSH2 0xA02 JUMPI PUSH2 0x2BB JUMP JUMPDEST DUP1 PUSH4 0xA6AFED95 GT PUSH2 0x13B JUMPI DUP1 PUSH4 0xA6AFED95 EQ PUSH2 0x8A6 JUMPI DUP1 PUSH4 0xA9059CBB EQ PUSH2 0x8AE JUMPI DUP1 PUSH4 0xAA5AF0FD EQ PUSH2 0x8DA JUMPI DUP1 PUSH4 0xAE9D70B0 EQ PUSH2 0x8E2 JUMPI DUP1 PUSH4 0xB2A02FF1 EQ PUSH2 0x8EA JUMPI DUP1 PUSH4 0xB71D1A0C EQ PUSH2 0x920 JUMPI PUSH2 0x2BB JUMP JUMPDEST DUP1 PUSH4 0x852A12E3 EQ PUSH2 0x6E8 JUMPI DUP1 PUSH4 0x8F840DDD EQ PUSH2 0x705 JUMPI DUP1 PUSH4 0x95D89B41 EQ PUSH2 0x70D JUMPI DUP1 PUSH4 0x95DD9193 EQ PUSH2 0x715 JUMPI DUP1 PUSH4 0x99D8C1B4 EQ PUSH2 0x73B JUMPI DUP1 PUSH4 0xA0712D68 EQ PUSH2 0x889 JUMPI PUSH2 0x2BB JUMP JUMPDEST DUP1 PUSH4 0x313CE567 GT PUSH2 0x226 JUMPI DUP1 PUSH4 0x601A0BF1 GT PUSH2 0x1DF JUMPI DUP1 PUSH4 0x601A0BF1 EQ PUSH2 0x667 JUMPI DUP1 PUSH4 0x6C540BAF EQ PUSH2 0x684 JUMPI DUP1 PUSH4 0x6F307DC3 EQ PUSH2 0x68C JUMPI DUP1 PUSH4 0x6FBD7823 EQ PUSH2 0x694 JUMPI DUP1 PUSH4 0x70A08231 EQ PUSH2 0x6BA JUMPI DUP1 PUSH4 0x73ACEE98 EQ PUSH2 0x6E0 JUMPI PUSH2 0x2BB JUMP JUMPDEST DUP1 PUSH4 0x313CE567 EQ PUSH2 0x5EE JUMPI DUP1 PUSH4 0x3AC4202F EQ PUSH2 0x60C JUMPI DUP1 PUSH4 0x3AF9E669 EQ PUSH2 0x614 JUMPI DUP1 PUSH4 0x3B1D21A2 EQ PUSH2 0x63A JUMPI DUP1 PUSH4 0x3E941010 EQ PUSH2 0x642 JUMPI DUP1 PUSH4 0x47BD3718 EQ PUSH2 0x65F JUMPI PUSH2 0x2BB JUMP JUMPDEST DUP1 PUSH4 0x182DF0F5 GT PUSH2 0x278 JUMPI DUP1 PUSH4 0x182DF0F5 EQ PUSH2 0x3E2 JUMPI DUP1 PUSH4 0x1A31D465 EQ PUSH2 0x3EA JUMPI DUP1 PUSH4 0x1BE19560 EQ PUSH2 0x542 JUMPI DUP1 PUSH4 0x23B872DD EQ PUSH2 0x568 JUMPI DUP1 PUSH4 0x2608F818 EQ PUSH2 0x59E JUMPI DUP1 PUSH4 0x26782247 EQ PUSH2 0x5CA JUMPI PUSH2 0x2BB JUMP JUMPDEST DUP1 PUSH4 0x6FDDE03 EQ PUSH2 0x2C0 JUMPI DUP1 PUSH4 0x95EA7B3 EQ PUSH2 0x33D JUMPI DUP1 PUSH4 0xE752702 EQ PUSH2 0x37D JUMPI DUP1 PUSH4 0x173B9904 EQ PUSH2 0x3AC JUMPI DUP1 PUSH4 0x17BFDFBC EQ PUSH2 0x3B4 JUMPI DUP1 PUSH4 0x18160DDD EQ PUSH2 0x3DA JUMPI JUMPDEST PUSH1 0x0 DUP1 REVERT JUMPDEST PUSH2 0x2C8 PUSH2 0xAA3 JUMP JUMPDEST PUSH1 0x40 DUP1 MLOAD PUSH1 0x20 DUP1 DUP3 MSTORE DUP4 MLOAD DUP2 DUP4 ADD MSTORE DUP4 MLOAD SWAP2 SWAP3 DUP4 SWAP3 SWAP1 DUP4 ADD SWAP2 DUP6 ADD SWAP1 DUP1 DUP4 DUP4 PUSH1 0x0 JUMPDEST DUP4 DUP2 LT ISZERO PUSH2 0x302 JUMPI DUP2 DUP2 ADD MLOAD DUP4 DUP3 ADD MSTORE PUSH1 0x20 ADD PUSH2 0x2EA JUMP JUMPDEST POP POP POP POP SWAP1 POP SWAP1 DUP2 ADD SWAP1 PUSH1 0x1F AND DUP1 ISZERO PUSH2 0x32F JUMPI DUP1 DUP3 SUB DUP1 MLOAD PUSH1 0x1 DUP4 PUSH1 0x20 SUB PUSH2 0x100 EXP SUB NOT AND DUP2 MSTORE PUSH1 0x20 ADD SWAP2 POP JUMPDEST POP SWAP3 POP POP POP PUSH1 0x40 MLOAD DUP1 SWAP2 SUB SWAP1 RETURN JUMPDEST PUSH2 0x369 PUSH1 0x4 DUP1 CALLDATASIZE SUB PUSH1 0x40 DUP2 LT ISZERO PUSH2 0x353 JUMPI PUSH1 0x0 DUP1 REVERT JUMPDEST POP PUSH1 0x1 PUSH1 0x1 PUSH1 0xA0 SHL SUB DUP2 CALLDATALOAD AND SWAP1 PUSH1 0x20 ADD CALLDATALOAD PUSH2 0xB30 JUMP JUMPDEST PUSH1 0x40 DUP1 MLOAD SWAP2 ISZERO ISZERO DUP3 MSTORE MLOAD SWAP1 DUP2 SWAP1 SUB PUSH1 0x20 ADD SWAP1 RETURN JUMPDEST PUSH2 0x39A PUSH1 0x4 DUP1 CALLDATASIZE SUB PUSH1 0x20 DUP2 LT ISZERO PUSH2 0x393 JUMPI PUSH1 0x0 DUP1 REVERT JUMPDEST POP CALLDATALOAD PUSH2 0xB9D JUMP JUMPDEST PUSH1 0x40 DUP1 MLOAD SWAP2 DUP3 MSTORE MLOAD SWAP1 DUP2 SWAP1 SUB PUSH1 0x20 ADD SWAP1 RETURN JUMPDEST PUSH2 0x39A PUSH2 0xBB3 JUMP JUMPDEST PUSH2 0x39A PUSH1 0x4 DUP1 CALLDATASIZE SUB PUSH1 0x20 DUP2 LT ISZERO PUSH2 0x3CA JUMPI PUSH1 0x0 DUP1 REVERT JUMPDEST POP CALLDATALOAD PUSH1 0x1 PUSH1 0x1 PUSH1 0xA0 SHL SUB AND PUSH2 0xBB9 JUMP JUMPDEST PUSH2 0x39A PUSH2 0xC79 JUMP JUMPDEST PUSH2 0x39A PUSH2 0xC7F JUMP JUMPDEST PUSH2 0x540 PUSH1 0x4 DUP1 CALLDATASIZE SUB PUSH1 0xE0 DUP2 LT ISZERO PUSH2 0x400 JUMPI PUSH1 0x0 DUP1 REVERT JUMPDEST PUSH1 0x1 PUSH1 0x1 PUSH1 0xA0 SHL SUB DUP3 CALLDATALOAD DUP2 AND SWAP3 PUSH1 0x20 DUP2 ADD CALLDATALOAD DUP3 AND SWAP3 PUSH1 0x40 DUP3 ADD CALLDATALOAD SWAP1 SWAP3 AND SWAP2 PUSH1 0x60 DUP3 ADD CALLDATALOAD SWAP2 SWAP1 DUP2 ADD SWAP1 PUSH1 0xA0 DUP2 ADD PUSH1 0x80 DUP3 ADD CALLDATALOAD PUSH1 0x1 PUSH1 0x20 SHL DUP2 GT ISZERO PUSH2 0x442 JUMPI PUSH1 0x0 DUP1 REVERT JUMPDEST DUP3 ADD DUP4 PUSH1 0x20 DUP3 ADD GT ISZERO PUSH2 0x454 JUMPI PUSH1 0x0 DUP1 REVERT JUMPDEST DUP1 CALLDATALOAD SWAP1 PUSH1 0x20 ADD SWAP2 DUP5 PUSH1 0x1 DUP4 MUL DUP5 ADD GT PUSH1 0x1 PUSH1 0x20 SHL DUP4 GT OR ISZERO PUSH2 0x475 JUMPI PUSH1 0x0 DUP1 REVERT JUMPDEST SWAP2 SWAP1 DUP1 DUP1 PUSH1 0x1F ADD PUSH1 0x20 DUP1 SWAP2 DIV MUL PUSH1 0x20 ADD PUSH1 0x40 MLOAD SWAP1 DUP2 ADD PUSH1 0x40 MSTORE DUP1 SWAP4 SWAP3 SWAP2 SWAP1 DUP2 DUP2 MSTORE PUSH1 0x20 ADD DUP4 DUP4 DUP1 DUP3 DUP5 CALLDATACOPY PUSH1 0x0 SWAP3 ADD SWAP2 SWAP1 SWAP2 MSTORE POP SWAP3 SWAP6 SWAP5 SWAP4 PUSH1 0x20 DUP2 ADD SWAP4 POP CALLDATALOAD SWAP2 POP POP PUSH1 0x1 PUSH1 0x20 SHL DUP2 GT ISZERO PUSH2 0x4C7 JUMPI PUSH1 0x0 DUP1 REVERT JUMPDEST DUP3 ADD DUP4 PUSH1 0x20 DUP3 ADD GT ISZERO PUSH2 0x4D9 JUMPI PUSH1 0x0 DUP1 REVERT JUMPDEST DUP1 CALLDATALOAD SWAP1 PUSH1 0x20 ADD SWAP2 DUP5 PUSH1 0x1 DUP4 MUL DUP5 ADD GT PUSH1 0x1 PUSH1 0x20 SHL DUP4 GT OR ISZERO PUSH2 0x4FA JUMPI PUSH1 0x0 DUP1 REVERT JUMPDEST SWAP2 SWAP1 DUP1 DUP1 PUSH1 0x1F ADD PUSH1 0x20 DUP1 SWAP2 DIV MUL PUSH1 0x20 ADD PUSH1 0x40 MLOAD SWAP1 DUP2 ADD PUSH1 0x40 MSTORE DUP1 SWAP4 SWAP3 SWAP2 SWAP1 DUP2 DUP2 MSTORE PUSH1 0x20 ADD DUP4 DUP4 DUP1 DUP3 DUP5 CALLDATACOPY PUSH1 0x0 SWAP3 ADD SWAP2 SWAP1 SWAP2 MSTORE POP SWAP3 SWAP6 POP POP POP SWAP1 CALLDATALOAD PUSH1 0xFF AND SWAP2 POP PUSH2 0xCE2 SWAP1 POP JUMP JUMPDEST STOP JUMPDEST PUSH2 0x540 PUSH1 0x4 DUP1 CALLDATASIZE SUB PUSH1 0x20 DUP2 LT ISZERO PUSH2 0x558 JUMPI PUSH1 0x0 DUP1 REVERT JUMPDEST POP CALLDATALOAD PUSH1 0x1 PUSH1 0x1 PUSH1 0xA0 SHL SUB AND PUSH2 0xD81 JUMP JUMPDEST PUSH2 0x369 PUSH1 0x4 DUP1 CALLDATASIZE SUB PUSH1 0x60 DUP2 LT ISZERO PUSH2 0x57E JUMPI PUSH1 0x0 DUP1 REVERT JUMPDEST POP PUSH1 0x1 PUSH1 0x1 PUSH1 0xA0 SHL SUB DUP2 CALLDATALOAD DUP2 AND SWAP2 PUSH1 0x20 DUP2 ADD CALLDATALOAD SWAP1 SWAP2 AND SWAP1 PUSH1 0x40 ADD CALLDATALOAD PUSH2 0xEBD JUMP JUMPDEST PUSH2 0x39A PUSH1 0x4 DUP1 CALLDATASIZE SUB PUSH1 0x40 DUP2 LT ISZERO PUSH2 0x5B4 JUMPI PUSH1 0x0 DUP1 REVERT JUMPDEST POP PUSH1 0x1 PUSH1 0x1 PUSH1 0xA0 SHL SUB DUP2 CALLDATALOAD AND SWAP1 PUSH1 0x20 ADD CALLDATALOAD PUSH2 0xF2F JUMP JUMPDEST PUSH2 0x5D2 PUSH2 0xF45 JUMP JUMPDEST PUSH1 0x40 DUP1 MLOAD PUSH1 0x1 PUSH1 0x1 PUSH1 0xA0 SHL SUB SWAP1 SWAP3 AND DUP3 MSTORE MLOAD SWAP1 DUP2 SWAP1 SUB PUSH1 0x20 ADD SWAP1 RETURN JUMPDEST PUSH2 0x5F6 PUSH2 0xF54 JUMP JUMPDEST PUSH1 0x40 DUP1 MLOAD PUSH1 0xFF SWAP1 SWAP3 AND DUP3 MSTORE MLOAD SWAP1 DUP2 SWAP1 SUB PUSH1 0x20 ADD SWAP1 RETURN JUMPDEST PUSH2 0x369 PUSH2 0xF5D JUMP JUMPDEST PUSH2 0x39A PUSH1 0x4 DUP1 CALLDATASIZE SUB PUSH1 0x20 DUP2 LT ISZERO PUSH2 0x62A JUMPI PUSH1 0x0 DUP1 REVERT JUMPDEST POP CALLDATALOAD PUSH1 0x1 PUSH1 0x1 PUSH1 0xA0 SHL SUB AND PUSH2 0xF62 JUMP JUMPDEST PUSH2 0x39A PUSH2 0x1018 JUMP JUMPDEST PUSH2 0x39A PUSH1 0x4 DUP1 CALLDATASIZE SUB PUSH1 0x20 DUP2 LT ISZERO PUSH2 0x658 JUMPI PUSH1 0x0 DUP1 REVERT JUMPDEST POP CALLDATALOAD PUSH2 0x1027 JUMP JUMPDEST PUSH2 0x39A PUSH2 0x1032 JUMP JUMPDEST PUSH2 0x39A PUSH1 0x4 DUP1 CALLDATASIZE SUB PUSH1 0x20 DUP2 LT ISZERO PUSH2 0x67D JUMPI PUSH1 0x0 DUP1 REVERT JUMPDEST POP CALLDATALOAD PUSH2 0x1038 JUMP JUMPDEST PUSH2 0x39A PUSH2 0x10D3 JUMP JUMPDEST PUSH2 0x5D2 PUSH2 0x10D9 JUMP JUMPDEST PUSH2 0x39A PUSH1 0x4 DUP1 CALLDATASIZE SUB PUSH1 0x20 DUP2 LT ISZERO PUSH2 0x6AA JUMPI PUSH1 0x0 DUP1 REVERT JUMPDEST POP CALLDATALOAD PUSH1 0x1 PUSH1 0x1 PUSH1 0xA0 SHL SUB AND PUSH2 0x10E8 JUMP JUMPDEST PUSH2 0x39A PUSH1 0x4 DUP1 CALLDATASIZE SUB PUSH1 0x20 DUP2 LT ISZERO PUSH2 0x6D0 JUMPI PUSH1 0x0 DUP1 REVERT JUMPDEST POP CALLDATALOAD PUSH1 0x1 PUSH1 0x1 PUSH1 0xA0 SHL SUB AND PUSH2 0x123F JUMP JUMPDEST PUSH2 0x39A PUSH2 0x125A JUMP JUMPDEST PUSH2 0x39A PUSH1 0x4 DUP1 CALLDATASIZE SUB PUSH1 0x20 DUP2 LT ISZERO PUSH2 0x6FE JUMPI PUSH1 0x0 DUP1 REVERT JUMPDEST POP CALLDATALOAD PUSH2 0x1310 JUMP JUMPDEST PUSH2 0x39A PUSH2 0x131B JUMP JUMPDEST PUSH2 0x2C8 PUSH2 0x1321 JUMP JUMPDEST PUSH2 0x39A PUSH1 0x4 DUP1 CALLDATASIZE SUB PUSH1 0x20 DUP2 LT ISZERO PUSH2 0x72B JUMPI PUSH1 0x0 DUP1 REVERT JUMPDEST POP CALLDATALOAD PUSH1 0x1 PUSH1 0x1 PUSH1 0xA0 SHL SUB AND PUSH2 0x1379 JUMP JUMPDEST PUSH2 0x540 PUSH1 0x4 DUP1 CALLDATASIZE SUB PUSH1 0xC0 DUP2 LT ISZERO PUSH2 0x751 JUMPI PUSH1 0x0 DUP1 REVERT JUMPDEST PUSH1 0x1 PUSH1 0x1 PUSH1 0xA0 SHL SUB DUP3 CALLDATALOAD DUP2 AND SWAP3 PUSH1 0x20 DUP2 ADD CALLDATALOAD SWAP1 SWAP2 AND SWAP2 PUSH1 0x40 DUP3 ADD CALLDATALOAD SWAP2 SWAP1 DUP2 ADD SWAP1 PUSH1 0x80 DUP2 ADD PUSH1 0x60 DUP3 ADD CALLDATALOAD PUSH1 0x1 PUSH1 0x20 SHL DUP2 GT ISZERO PUSH2 0x78B JUMPI PUSH1 0x0 DUP1 REVERT JUMPDEST DUP3 ADD DUP4 PUSH1 0x20 DUP3 ADD GT ISZERO PUSH2 0x79D JUMPI PUSH1 0x0 DUP1 REVERT JUMPDEST DUP1 CALLDATALOAD SWAP1 PUSH1 0x20 ADD SWAP2 DUP5 PUSH1 0x1 DUP4 MUL DUP5 ADD GT PUSH1 0x1 PUSH1 0x20 SHL DUP4 GT OR ISZERO PUSH2 0x7BE JUMPI PUSH1 0x0 DUP1 REVERT JUMPDEST SWAP2 SWAP1 DUP1 DUP1 PUSH1 0x1F ADD PUSH1 0x20 DUP1 SWAP2 DIV MUL PUSH1 0x20 ADD PUSH1 0x40 MLOAD SWAP1 DUP2 ADD PUSH1 0x40 MSTORE DUP1 SWAP4 SWAP3 SWAP2 SWAP1 DUP2 DUP2 MSTORE PUSH1 0x20 ADD DUP4 DUP4 DUP1 DUP3 DUP5 CALLDATACOPY PUSH1 0x0 SWAP3 ADD SWAP2 SWAP1 SWAP2 MSTORE POP SWAP3 SWAP6 SWAP5 SWAP4 PUSH1 0x20 DUP2 ADD SWAP4 POP CALLDATALOAD SWAP2 POP POP PUSH1 0x1 PUSH1 0x20 SHL DUP2 GT ISZERO PUSH2 0x810 JUMPI PUSH1 0x0 DUP1 REVERT JUMPDEST DUP3 ADD DUP4 PUSH1 0x20 DUP3 ADD GT ISZERO PUSH2 0x822 JUMPI PUSH1 0x0 DUP1 REVERT JUMPDEST DUP1 CALLDATALOAD SWAP1 PUSH1 0x20 ADD SWAP2 DUP5 PUSH1 0x1 DUP4 MUL DUP5 ADD GT PUSH1 0x1 PUSH1 0x20 SHL DUP4 GT OR ISZERO PUSH2 0x843 JUMPI PUSH1 0x0 DUP1 REVERT JUMPDEST SWAP2 SWAP1 DUP1 DUP1 PUSH1 0x1F ADD PUSH1 0x20 DUP1 SWAP2 DIV MUL PUSH1 0x20 ADD PUSH1 0x40 MLOAD SWAP1 DUP2 ADD PUSH1 0x40 MSTORE DUP1 SWAP4 SWAP3 SWAP2 SWAP1 DUP2 DUP2 MSTORE PUSH1 0x20 ADD DUP4 DUP4 DUP1 DUP3 DUP5 CALLDATACOPY PUSH1 0x0 SWAP3 ADD SWAP2 SWAP1 SWAP2 MSTORE POP SWAP3 SWAP6 POP POP POP SWAP1 CALLDATALOAD PUSH1 0xFF AND SWAP2 POP PUSH2 0x13D6 SWAP1 POP JUMP JUMPDEST PUSH2 0x39A PUSH1 0x4 DUP1 CALLDATASIZE SUB PUSH1 0x20 DUP2 LT ISZERO PUSH2 0x89F JUMPI PUSH1 0x0 DUP1 REVERT JUMPDEST POP CALLDATALOAD PUSH2 0x15BD JUMP JUMPDEST PUSH2 0x39A PUSH2 0x15C9 JUMP JUMPDEST PUSH2 0x369 PUSH1 0x4 DUP1 CALLDATASIZE SUB PUSH1 0x40 DUP2 LT ISZERO PUSH2 0x8C4 JUMPI PUSH1 0x0 DUP1 REVERT JUMPDEST POP PUSH1 0x1 PUSH1 0x1 PUSH1 0xA0 SHL SUB DUP2 CALLDATALOAD AND SWAP1 PUSH1 0x20 ADD CALLDATALOAD PUSH2 0x1921 JUMP JUMPDEST PUSH2 0x39A PUSH2 0x1992 JUMP JUMPDEST PUSH2 0x39A PUSH2 0x1998 JUMP JUMPDEST PUSH2 0x39A PUSH1 0x4 DUP1 CALLDATASIZE SUB PUSH1 0x60 DUP2 LT ISZERO PUSH2 0x900 JUMPI PUSH1 0x0 DUP1 REVERT JUMPDEST POP PUSH1 0x1 PUSH1 0x1 PUSH1 0xA0 SHL SUB DUP2 CALLDATALOAD DUP2 AND SWAP2 PUSH1 0x20 DUP2 ADD CALLDATALOAD SWAP1 SWAP2 AND SWAP1 PUSH1 0x40 ADD CALLDATALOAD PUSH2 0x1A37 JUMP JUMPDEST PUSH2 0x39A PUSH1 0x4 DUP1 CALLDATASIZE SUB PUSH1 0x20 DUP2 LT ISZERO PUSH2 0x936 JUMPI PUSH1 0x0 DUP1 REVERT JUMPDEST POP CALLDATALOAD PUSH1 0x1 PUSH1 0x1 PUSH1 0xA0 SHL SUB AND PUSH2 0x1AA8 JUMP JUMPDEST PUSH2 0x39A PUSH2 0x1B34 JUMP JUMPDEST PUSH2 0x974 PUSH1 0x4 DUP1 CALLDATASIZE SUB PUSH1 0x20 DUP2 LT ISZERO PUSH2 0x964 JUMPI PUSH1 0x0 DUP1 REVERT JUMPDEST POP CALLDATALOAD PUSH1 0x1 PUSH1 0x1 PUSH1 0xA0 SHL SUB AND PUSH2 0x1BF0 JUMP JUMPDEST PUSH1 0x40 DUP1 MLOAD SWAP5 DUP6 MSTORE PUSH1 0x20 DUP6 ADD SWAP4 SWAP1 SWAP4 MSTORE DUP4 DUP4 ADD SWAP2 SWAP1 SWAP2 MSTORE PUSH1 0x60 DUP4 ADD MSTORE MLOAD SWAP1 DUP2 SWAP1 SUB PUSH1 0x80 ADD SWAP1 RETURN JUMPDEST PUSH2 0x39A PUSH1 0x4 DUP1 CALLDATASIZE SUB PUSH1 0x20 DUP2 LT ISZERO PUSH2 0x9B0 JUMPI PUSH1 0x0 DUP1 REVERT JUMPDEST POP CALLDATALOAD PUSH2 0x1C85 JUMP JUMPDEST PUSH2 0x39A PUSH1 0x4 DUP1 CALLDATASIZE SUB PUSH1 0x20 DUP2 LT ISZERO PUSH2 0x9CD JUMPI PUSH1 0x0 DUP1 REVERT JUMPDEST POP CALLDATALOAD PUSH2 0x1C90 JUMP JUMPDEST PUSH2 0x39A PUSH1 0x4 DUP1 CALLDATASIZE SUB PUSH1 0x40 DUP2 LT ISZERO PUSH2 0x9EA JUMPI PUSH1 0x0 DUP1 REVERT JUMPDEST POP PUSH1 0x1 PUSH1 0x1 PUSH1 0xA0 SHL SUB DUP2 CALLDATALOAD DUP2 AND SWAP2 PUSH1 0x20 ADD CALLDATALOAD AND PUSH2 0x1C9B JUMP JUMPDEST PUSH2 0x5D2 PUSH2 0x1CC6 JUMP JUMPDEST PUSH2 0x39A PUSH2 0x1CD5 JUMP JUMPDEST PUSH2 0x39A PUSH1 0x4 DUP1 CALLDATASIZE SUB PUSH1 0x20 DUP2 LT ISZERO PUSH2 0xA28 JUMPI PUSH1 0x0 DUP1 REVERT JUMPDEST POP CALLDATALOAD PUSH1 0x1 PUSH1 0x1 PUSH1 0xA0 SHL SUB AND PUSH2 0x1DD8 JUMP JUMPDEST PUSH2 0x5D2 PUSH2 0x1E12 JUMP JUMPDEST PUSH2 0x39A PUSH1 0x4 DUP1 CALLDATASIZE SUB PUSH1 0x60 DUP2 LT ISZERO PUSH2 0xA56 JUMPI PUSH1 0x0 DUP1 REVERT JUMPDEST POP PUSH1 0x1 PUSH1 0x1 PUSH1 0xA0 SHL SUB DUP2 CALLDATALOAD DUP2 AND SWAP2 PUSH1 0x20 DUP2 ADD CALLDATALOAD SWAP2 PUSH1 0x40 SWAP1 SWAP2 ADD CALLDATALOAD AND PUSH2 0x1E21 JUMP JUMPDEST PUSH2 0x5D2 PUSH2 0x1E39 JUMP JUMPDEST PUSH2 0x39A PUSH2 0x1E4D JUMP JUMPDEST PUSH2 0x39A PUSH1 0x4 DUP1 CALLDATASIZE SUB PUSH1 0x20 DUP2 LT ISZERO PUSH2 0xA9C JUMPI PUSH1 0x0 DUP1 REVERT JUMPDEST POP CALLDATALOAD PUSH2 0x1EB1 JUMP JUMPDEST PUSH1 0x1 DUP1 SLOAD PUSH1 0x40 DUP1 MLOAD PUSH1 0x20 PUSH1 0x2 DUP5 DUP7 AND ISZERO PUSH2 0x100 MUL PUSH1 0x0 NOT ADD SWAP1 SWAP5 AND SWAP4 SWAP1 SWAP4 DIV PUSH1 0x1F DUP2 ADD DUP5 SWAP1 DIV DUP5 MUL DUP3 ADD DUP5 ADD SWAP1 SWAP3 MSTORE DUP2 DUP2 MSTORE SWAP3 SWAP2 DUP4 ADD DUP3 DUP3 DUP1 ISZERO PUSH2 0xB28 JUMPI DUP1 PUSH1 0x1F LT PUSH2 0xAFD JUMPI PUSH2 0x100 DUP1 DUP4 SLOAD DIV MUL DUP4 MSTORE SWAP2 PUSH1 0x20 ADD SWAP2 PUSH2 0xB28 JUMP JUMPDEST DUP3 ADD SWAP2 SWAP1 PUSH1 0x0 MSTORE PUSH1 0x20 PUSH1 0x0 KECCAK256 SWAP1 JUMPDEST DUP2 SLOAD DUP2 MSTORE SWAP1 PUSH1 0x1 ADD SWAP1 PUSH1 0x20 ADD DUP1 DUP4 GT PUSH2 0xB0B JUMPI DUP3 SWAP1 SUB PUSH1 0x1F AND DUP3 ADD SWAP2 JUMPDEST POP POP POP POP POP DUP2 JUMP JUMPDEST CALLER PUSH1 0x0 DUP2 DUP2 MSTORE PUSH1 0xF PUSH1 0x20 SWAP1 DUP2 MSTORE PUSH1 0x40 DUP1 DUP4 KECCAK256 PUSH1 0x1 PUSH1 0x1 PUSH1 0xA0 SHL SUB DUP8 AND DUP1 DUP6 MSTORE SWAP1 DUP4 MSTORE DUP2 DUP5 KECCAK256 DUP7 SWAP1 SSTORE DUP2 MLOAD DUP7 DUP2 MSTORE SWAP2 MLOAD SWAP4 SWAP5 SWAP4 SWAP1 SWAP3 DUP5 SWAP3 PUSH32 0x8C5BE1E5EBEC7D5BD14F71427D1E84F3DD0314C0F7B2291E5B200AC8C7C3B925 SWAP3 SWAP1 DUP2 SWAP1 SUB SWAP1 SWAP2 ADD SWAP1 LOG3 PUSH1 0x1 SWAP2 POP POP JUMPDEST SWAP3 SWAP2 POP POP JUMP JUMPDEST PUSH1 0x0 DUP1 PUSH2 0xBA9 DUP4 PUSH2 0x1F2F JUMP JUMPDEST POP SWAP2 POP POP JUMPDEST SWAP2 SWAP1 POP JUMP JUMPDEST PUSH1 0x8 SLOAD DUP2 JUMP JUMPDEST PUSH1 0x0 DUP1 SLOAD PUSH1 0xFF AND PUSH2 0xBFE JUMPI PUSH1 0x40 DUP1 MLOAD PUSH3 0x461BCD PUSH1 0xE5 SHL DUP2 MSTORE PUSH1 0x20 PUSH1 0x4 DUP3 ADD MSTORE PUSH1 0xA PUSH1 0x24 DUP3 ADD MSTORE PUSH10 0x1C994B595B9D195C9959 PUSH1 0xB2 SHL PUSH1 0x44 DUP3 ADD MSTORE SWAP1 MLOAD SWAP1 DUP2 SWAP1 SUB PUSH1 0x64 ADD SWAP1 REVERT JUMPDEST PUSH1 0x0 DUP1 SLOAD PUSH1 0xFF NOT AND DUP2 SSTORE PUSH2 0xC10 PUSH2 0x15C9 JUMP JUMPDEST EQ PUSH2 0xC5B JUMPI PUSH1 0x40 DUP1 MLOAD PUSH3 0x461BCD PUSH1 0xE5 SHL DUP2 MSTORE PUSH1 0x20 PUSH1 0x4 DUP3 ADD MSTORE PUSH1 0x16 PUSH1 0x24 DUP3 ADD MSTORE PUSH22 0x1858D8DC9D59481A5B9D195C995CDD0819985A5B1959 PUSH1 0x52 SHL PUSH1 0x44 DUP3 ADD MSTORE SWAP1 MLOAD SWAP1 DUP2 SWAP1 SUB PUSH1 0x64 ADD SWAP1 REVERT JUMPDEST PUSH2 0xC64 DUP3 PUSH2 0x1379 JUMP JUMPDEST SWAP1 POP JUMPDEST PUSH1 0x0 DUP1 SLOAD PUSH1 0xFF NOT AND PUSH1 0x1 OR SWAP1 SSTORE SWAP2 SWAP1 POP JUMP JUMPDEST PUSH1 0xD SLOAD DUP2 JUMP JUMPDEST PUSH1 0x0 DUP1 PUSH1 0x0 PUSH2 0xC8C PUSH2 0x1FD8 JUMP JUMPDEST SWAP1 SWAP3 POP SWAP1 POP PUSH1 0x0 DUP3 PUSH1 0x3 DUP2 GT ISZERO PUSH2 0xC9F JUMPI INVALID JUMPDEST EQ PUSH2 0xCDB JUMPI PUSH1 0x40 MLOAD PUSH3 0x461BCD PUSH1 0xE5 SHL DUP2 MSTORE PUSH1 0x4 ADD DUP1 DUP1 PUSH1 0x20 ADD DUP3 DUP2 SUB DUP3 MSTORE PUSH1 0x35 DUP2 MSTORE PUSH1 0x20 ADD DUP1 PUSH2 0x4CC0 PUSH1 0x35 SWAP2 CODECOPY PUSH1 0x40 ADD SWAP2 POP POP PUSH1 0x40 MLOAD DUP1 SWAP2 SUB SWAP1 REVERT JUMPDEST SWAP2 POP POP JUMPDEST SWAP1 JUMP JUMPDEST PUSH2 0xCF0 DUP7 DUP7 DUP7 DUP7 DUP7 DUP7 PUSH2 0x13D6 JUMP JUMPDEST PUSH1 0x11 DUP1 SLOAD PUSH1 0x1 PUSH1 0x1 PUSH1 0xA0 SHL SUB NOT AND PUSH1 0x1 PUSH1 0x1 PUSH1 0xA0 SHL SUB DUP10 DUP2 AND SWAP2 SWAP1 SWAP2 OR SWAP2 DUP3 SWAP1 SSTORE PUSH1 0x40 DUP1 MLOAD PUSH4 0x18160DDD PUSH1 0xE0 SHL DUP2 MSTORE SWAP1 MLOAD SWAP3 SWAP1 SWAP2 AND SWAP2 PUSH4 0x18160DDD SWAP2 PUSH1 0x4 DUP1 DUP3 ADD SWAP3 PUSH1 0x20 SWAP3 SWAP1 SWAP2 SWAP1 DUP3 SWAP1 SUB ADD DUP2 DUP7 DUP1 EXTCODESIZE ISZERO DUP1 ISZERO PUSH2 0xD4C JUMPI PUSH1 0x0 DUP1 REVERT JUMPDEST POP GAS STATICCALL ISZERO DUP1 ISZERO PUSH2 0xD60 JUMPI RETURNDATASIZE PUSH1 0x0 DUP1 RETURNDATACOPY RETURNDATASIZE PUSH1 0x0 REVERT JUMPDEST POP POP POP POP PUSH1 0x40 MLOAD RETURNDATASIZE PUSH1 0x20 DUP2 LT ISZERO PUSH2 0xD76 JUMPI PUSH1 0x0 DUP1 REVERT JUMPDEST POP POP POP POP POP POP POP POP POP JUMP JUMPDEST PUSH1 0x11 SLOAD PUSH1 0x1 PUSH1 0x1 PUSH1 0xA0 SHL SUB DUP3 DUP2 AND SWAP2 AND EQ ISZERO PUSH2 0xDCE JUMPI PUSH1 0x40 MLOAD PUSH3 0x461BCD PUSH1 0xE5 SHL DUP2 MSTORE PUSH1 0x4 ADD DUP1 DUP1 PUSH1 0x20 ADD DUP3 DUP2 SUB DUP3 MSTORE PUSH1 0x32 DUP2 MSTORE PUSH1 0x20 ADD DUP1 PUSH2 0x4B6E PUSH1 0x32 SWAP2 CODECOPY PUSH1 0x40 ADD SWAP2 POP POP PUSH1 0x40 MLOAD DUP1 SWAP2 SUB SWAP1 REVERT JUMPDEST PUSH1 0x40 DUP1 MLOAD PUSH4 0x70A08231 PUSH1 0xE0 SHL DUP2 MSTORE ADDRESS PUSH1 0x4 DUP3 ADD MSTORE SWAP1 MLOAD PUSH1 0x0 SWAP2 PUSH1 0x1 PUSH1 0x1 PUSH1 0xA0 SHL SUB DUP5 AND SWAP2 PUSH4 0x70A08231 SWAP2 PUSH1 0x24 DUP1 DUP3 ADD SWAP3 PUSH1 0x20 SWAP3 SWAP1 SWAP2 SWAP1 DUP3 SWAP1 SUB ADD DUP2 DUP7 DUP1 EXTCODESIZE ISZERO DUP1 ISZERO PUSH2 0xE18 JUMPI PUSH1 0x0 DUP1 REVERT JUMPDEST POP GAS STATICCALL ISZERO DUP1 ISZERO PUSH2 0xE2C JUMPI RETURNDATASIZE PUSH1 0x0 DUP1 RETURNDATACOPY RETURNDATASIZE PUSH1 0x0 REVERT JUMPDEST POP POP POP POP PUSH1 0x40 MLOAD RETURNDATASIZE PUSH1 0x20 DUP2 LT ISZERO PUSH2 0xE42 JUMPI PUSH1 0x0 DUP1 REVERT JUMPDEST POP MLOAD PUSH1 0x3 SLOAD PUSH1 0x40 DUP1 MLOAD PUSH4 0xA9059CBB PUSH1 0xE0 SHL DUP2 MSTORE PUSH2 0x100 SWAP1 SWAP3 DIV PUSH1 0x1 PUSH1 0x1 PUSH1 0xA0 SHL SUB SWAP1 DUP2 AND PUSH1 0x4 DUP5 ADD MSTORE PUSH1 0x24 DUP4 ADD DUP5 SWAP1 MSTORE SWAP1 MLOAD SWAP3 SWAP4 POP DUP5 AND SWAP2 PUSH4 0xA9059CBB SWAP2 PUSH1 0x44 DUP1 DUP3 ADD SWAP3 PUSH1 0x0 SWAP3 SWAP1 SWAP2 SWAP1 DUP3 SWAP1 SUB ADD DUP2 DUP4 DUP8 DUP1 EXTCODESIZE ISZERO DUP1 ISZERO PUSH2 0xEA1 JUMPI PUSH1 0x0 DUP1 REVERT JUMPDEST POP GAS CALL ISZERO DUP1 ISZERO PUSH2 0xEB5 JUMPI RETURNDATASIZE PUSH1 0x0 DUP1 RETURNDATACOPY RETURNDATASIZE PUSH1 0x0 REVERT JUMPDEST POP POP POP POP POP POP JUMP JUMPDEST PUSH1 0x0 DUP1 SLOAD PUSH1 0xFF AND PUSH2 0xF02 JUMPI PUSH1 0x40 DUP1 MLOAD PUSH3 0x461BCD PUSH1 0xE5 SHL DUP2 MSTORE PUSH1 0x20 PUSH1 0x4 DUP3 ADD MSTORE PUSH1 0xA PUSH1 0x24 DUP3 ADD MSTORE PUSH10 0x1C994B595B9D195C9959 PUSH1 0xB2 SHL PUSH1 0x44 DUP3 ADD MSTORE SWAP1 MLOAD SWAP1 DUP2 SWAP1 SUB PUSH1 0x64 ADD SWAP1 REVERT JUMPDEST PUSH1 0x0 DUP1 SLOAD PUSH1 0xFF NOT AND DUP2 SSTORE PUSH2 0xF18 CALLER DUP7 DUP7 DUP7 PUSH2 0x2087 JUMP JUMPDEST EQ SWAP1 POP PUSH1 0x0 DUP1 SLOAD PUSH1 0xFF NOT AND PUSH1 0x1 OR SWAP1 SSTORE SWAP4 SWAP3 POP POP POP JUMP JUMPDEST PUSH1 0x0 DUP1 PUSH2 0xF3C DUP5 DUP5 PUSH2 0x2313 JUMP JUMPDEST POP SWAP5 SWAP4 POP POP POP POP JUMP JUMPDEST PUSH1 0x4 SLOAD PUSH1 0x1 PUSH1 0x1 PUSH1 0xA0 SHL SUB AND DUP2 JUMP JUMPDEST PUSH1 0x3 SLOAD PUSH1 0xFF AND DUP2 JUMP JUMPDEST PUSH1 0x1 DUP2 JUMP JUMPDEST PUSH1 0x0 PUSH2 0xF6C PUSH2 0x497C JUMP JUMPDEST PUSH1 0x40 MLOAD DUP1 PUSH1 0x20 ADD PUSH1 0x40 MSTORE DUP1 PUSH2 0xF7F PUSH2 0x1B34 JUMP JUMPDEST SWAP1 MSTORE PUSH1 0x1 PUSH1 0x1 PUSH1 0xA0 SHL SUB DUP5 AND PUSH1 0x0 SWAP1 DUP2 MSTORE PUSH1 0xE PUSH1 0x20 MSTORE PUSH1 0x40 DUP2 KECCAK256 SLOAD SWAP2 SWAP3 POP SWAP1 DUP2 SWAP1 PUSH2 0xFAB SWAP1 DUP5 SWAP1 PUSH2 0x23BE JUMP JUMPDEST SWAP1 SWAP3 POP SWAP1 POP PUSH1 0x0 DUP3 PUSH1 0x3 DUP2 GT ISZERO PUSH2 0xFBE JUMPI INVALID JUMPDEST EQ PUSH2 0x1010 JUMPI PUSH1 0x40 DUP1 MLOAD PUSH3 0x461BCD PUSH1 0xE5 SHL DUP2 MSTORE PUSH1 0x20 PUSH1 0x4 DUP3 ADD MSTORE PUSH1 0x1F PUSH1 0x24 DUP3 ADD MSTORE PUSH32 0x62616C616E636520636F756C64206E6F742062652063616C63756C6174656400 PUSH1 0x44 DUP3 ADD MSTORE SWAP1 MLOAD SWAP1 DUP2 SWAP1 SUB PUSH1 0x64 ADD SWAP1 REVERT JUMPDEST SWAP5 SWAP4 POP POP POP POP JUMP JUMPDEST PUSH1 0x0 PUSH2 0x1022 PUSH2 0x2412 JUMP JUMPDEST SWAP1 POP SWAP1 JUMP JUMPDEST PUSH1 0x0 PUSH2 0xB97 DUP3 PUSH2 0x2492 JUMP JUMPDEST PUSH1 0xB SLOAD DUP2 JUMP JUMPDEST PUSH1 0x0 DUP1 SLOAD PUSH1 0xFF AND PUSH2 0x107D JUMPI PUSH1 0x40 DUP1 MLOAD PUSH3 0x461BCD PUSH1 0xE5 SHL DUP2 MSTORE PUSH1 0x20 PUSH1 0x4 DUP3 ADD MSTORE PUSH1 0xA PUSH1 0x24 DUP3 ADD MSTORE PUSH10 0x1C994B595B9D195C9959 PUSH1 0xB2 SHL PUSH1 0x44 DUP3 ADD MSTORE SWAP1 MLOAD SWAP1 DUP2 SWAP1 SUB PUSH1 0x64 ADD SWAP1 REVERT JUMPDEST PUSH1 0x0 DUP1 SLOAD PUSH1 0xFF NOT AND DUP2 SSTORE PUSH2 0x108F PUSH2 0x15C9 JUMP JUMPDEST SWAP1 POP DUP1 ISZERO PUSH2 0x10B5 JUMPI PUSH2 0x10AD DUP2 PUSH1 0x10 DUP2 GT ISZERO PUSH2 0x10A6 JUMPI INVALID JUMPDEST PUSH1 0x30 PUSH2 0x2526 JUMP JUMPDEST SWAP2 POP POP PUSH2 0xC67 JUMP JUMPDEST PUSH2 0x10BE DUP4 PUSH2 0x258C JUMP JUMPDEST SWAP2 POP POP PUSH1 0x0 DUP1 SLOAD PUSH1 0xFF NOT AND PUSH1 0x1 OR SWAP1 SSTORE SWAP2 SWAP1 POP JUMP JUMPDEST PUSH1 0x9 SLOAD DUP2 JUMP JUMPDEST PUSH1 0x11 SLOAD PUSH1 0x1 PUSH1 0x1 PUSH1 0xA0 SHL SUB AND DUP2 JUMP JUMPDEST PUSH1 0x3 SLOAD PUSH1 0x0 SWAP1 PUSH2 0x100 SWAP1 DIV PUSH1 0x1 PUSH1 0x1 PUSH1 0xA0 SHL SUB AND CALLER EQ PUSH2 0x1115 JUMPI PUSH2 0x110E PUSH1 0x1 PUSH1 0x3F PUSH2 0x2526 JUMP JUMPDEST SWAP1 POP PUSH2 0xBAE JUMP JUMPDEST PUSH1 0x5 SLOAD PUSH1 0x40 DUP1 MLOAD PUSH4 0xD8A72ACB PUSH1 0xE0 SHL DUP2 MSTORE SWAP1 MLOAD PUSH1 0x1 PUSH1 0x1 PUSH1 0xA0 SHL SUB SWAP3 DUP4 AND SWAP3 DUP6 AND SWAP2 PUSH4 0xD8A72ACB SWAP2 PUSH1 0x4 DUP1 DUP4 ADD SWAP3 PUSH1 0x20 SWAP3 SWAP2 SWAP1 DUP3 SWAP1 SUB ADD DUP2 DUP7 DUP1 EXTCODESIZE ISZERO DUP1 ISZERO PUSH2 0x115C JUMPI PUSH1 0x0 DUP1 REVERT JUMPDEST POP GAS STATICCALL ISZERO DUP1 ISZERO PUSH2 0x1170 JUMPI RETURNDATASIZE PUSH1 0x0 DUP1 RETURNDATACOPY RETURNDATASIZE PUSH1 0x0 REVERT JUMPDEST POP POP POP POP PUSH1 0x40 MLOAD RETURNDATASIZE PUSH1 0x20 DUP2 LT ISZERO PUSH2 0x1186 JUMPI PUSH1 0x0 DUP1 REVERT JUMPDEST POP MLOAD PUSH2 0x11D9 JUMPI PUSH1 0x40 DUP1 MLOAD PUSH3 0x461BCD PUSH1 0xE5 SHL DUP2 MSTORE PUSH1 0x20 PUSH1 0x4 DUP3 ADD MSTORE PUSH1 0x1C PUSH1 0x24 DUP3 ADD MSTORE PUSH32 0x6D61726B6572206D6574686F642072657475726E65642066616C736500000000 PUSH1 0x44 DUP3 ADD MSTORE SWAP1 MLOAD SWAP1 DUP2 SWAP1 SUB PUSH1 0x64 ADD SWAP1 REVERT JUMPDEST PUSH1 0x5 DUP1 SLOAD PUSH1 0x1 PUSH1 0x1 PUSH1 0xA0 SHL SUB NOT AND PUSH1 0x1 PUSH1 0x1 PUSH1 0xA0 SHL SUB DUP6 DUP2 AND SWAP2 DUP3 OR SWAP1 SWAP3 SSTORE PUSH1 0x40 DUP1 MLOAD SWAP3 DUP5 AND DUP4 MSTORE PUSH1 0x20 DUP4 ADD SWAP2 SWAP1 SWAP2 MSTORE DUP1 MLOAD PUSH32 0xE4CBAEDA07BDCBCDB1168B355A1A57D377F426F2B049DFB311395A0C6043937D SWAP3 DUP2 SWAP1 SUB SWAP1 SWAP2 ADD SWAP1 LOG1 PUSH1 0x0 JUMPDEST SWAP4 SWAP3 POP POP POP JUMP JUMPDEST PUSH1 0x1 PUSH1 0x1 PUSH1 0xA0 SHL SUB AND PUSH1 0x0 SWAP1 DUP2 MSTORE PUSH1 0xE PUSH1 0x20 MSTORE PUSH1 0x40 SWAP1 KECCAK256 SLOAD SWAP1 JUMP JUMPDEST PUSH1 0x0 DUP1 SLOAD PUSH1 0xFF AND PUSH2 0x129F JUMPI PUSH1 0x40 DUP1 MLOAD PUSH3 0x461BCD PUSH1 0xE5 SHL DUP2 MSTORE PUSH1 0x20 PUSH1 0x4 DUP3 ADD MSTORE PUSH1 0xA PUSH1 0x24 DUP3 ADD MSTORE PUSH10 0x1C994B595B9D195C9959 PUSH1 0xB2 SHL PUSH1 0x44 DUP3 ADD MSTORE SWAP1 MLOAD SWAP1 DUP2 SWAP1 SUB PUSH1 0x64 ADD SWAP1 REVERT JUMPDEST PUSH1 0x0 DUP1 SLOAD PUSH1 0xFF NOT AND DUP2 SSTORE PUSH2 0x12B1 PUSH2 0x15C9 JUMP JUMPDEST EQ PUSH2 0x12FC JUMPI PUSH1 0x40 DUP1 MLOAD PUSH3 0x461BCD PUSH1 0xE5 SHL DUP2 MSTORE PUSH1 0x20 PUSH1 0x4 DUP3 ADD MSTORE PUSH1 0x16 PUSH1 0x24 DUP3 ADD MSTORE PUSH22 0x1858D8DC9D59481A5B9D195C995CDD0819985A5B1959 PUSH1 0x52 SHL PUSH1 0x44 DUP3 ADD MSTORE SWAP1 MLOAD SWAP1 DUP2 SWAP1 SUB PUSH1 0x64 ADD SWAP1 REVERT JUMPDEST POP PUSH1 0xB SLOAD PUSH1 0x0 DUP1 SLOAD PUSH1 0xFF NOT AND PUSH1 0x1 OR SWAP1 SSTORE SWAP1 JUMP JUMPDEST PUSH1 0x0 PUSH2 0xB97 DUP3 PUSH2 0x26BF JUMP JUMPDEST PUSH1 0xC SLOAD DUP2 JUMP JUMPDEST PUSH1 0x2 DUP1 SLOAD PUSH1 0x40 DUP1 MLOAD PUSH1 0x20 PUSH1 0x1 DUP5 AND ISZERO PUSH2 0x100 MUL PUSH1 0x0 NOT ADD SWAP1 SWAP4 AND DUP5 SWAP1 DIV PUSH1 0x1F DUP2 ADD DUP5 SWAP1 DIV DUP5 MUL DUP3 ADD DUP5 ADD SWAP1 SWAP3 MSTORE DUP2 DUP2 MSTORE SWAP3 SWAP2 DUP4 ADD DUP3 DUP3 DUP1 ISZERO PUSH2 0xB28 JUMPI DUP1 PUSH1 0x1F LT PUSH2 0xAFD JUMPI PUSH2 0x100 DUP1 DUP4 SLOAD DIV MUL DUP4 MSTORE SWAP2 PUSH1 0x20 ADD SWAP2 PUSH2 0xB28 JUMP JUMPDEST PUSH1 0x0 DUP1 PUSH1 0x0 PUSH2 0x1387 DUP5 PUSH2 0x2740 JUMP JUMPDEST SWAP1 SWAP3 POP SWAP1 POP PUSH1 0x0 DUP3 PUSH1 0x3 DUP2 GT ISZERO PUSH2 0x139A JUMPI INVALID JUMPDEST EQ PUSH2 0x1238 JUMPI PUSH1 0x40 MLOAD PUSH3 0x461BCD PUSH1 0xE5 SHL DUP2 MSTORE PUSH1 0x4 ADD DUP1 DUP1 PUSH1 0x20 ADD DUP3 DUP2 SUB DUP3 MSTORE PUSH1 0x37 DUP2 MSTORE PUSH1 0x20 ADD DUP1 PUSH2 0x4BCB PUSH1 0x37 SWAP2 CODECOPY PUSH1 0x40 ADD SWAP2 POP POP PUSH1 0x40 MLOAD DUP1 SWAP2 SUB SWAP1 REVERT JUMPDEST PUSH1 0x3 SLOAD PUSH2 0x100 SWAP1 DIV PUSH1 0x1 PUSH1 0x1 PUSH1 0xA0 SHL SUB AND CALLER EQ PUSH2 0x1424 JUMPI PUSH1 0x40 MLOAD PUSH3 0x461BCD PUSH1 0xE5 SHL DUP2 MSTORE PUSH1 0x4 ADD DUP1 DUP1 PUSH1 0x20 ADD DUP3 DUP2 SUB DUP3 MSTORE PUSH1 0x24 DUP2 MSTORE PUSH1 0x20 ADD DUP1 PUSH2 0x4AD5 PUSH1 0x24 SWAP2 CODECOPY PUSH1 0x40 ADD SWAP2 POP POP PUSH1 0x40 MLOAD DUP1 SWAP2 SUB SWAP1 REVERT JUMPDEST PUSH1 0x9 SLOAD ISZERO DUP1 ISZERO PUSH2 0x1434 JUMPI POP PUSH1 0xA SLOAD ISZERO JUMPDEST PUSH2 0x146F JUMPI PUSH1 0x40 MLOAD PUSH3 0x461BCD PUSH1 0xE5 SHL DUP2 MSTORE PUSH1 0x4 ADD DUP1 DUP1 PUSH1 0x20 ADD DUP3 DUP2 SUB DUP3 MSTORE PUSH1 0x23 DUP2 MSTORE PUSH1 0x20 ADD DUP1 PUSH2 0x4AF9 PUSH1 0x23 SWAP2 CODECOPY PUSH1 0x40 ADD SWAP2 POP POP PUSH1 0x40 MLOAD DUP1 SWAP2 SUB SWAP1 REVERT JUMPDEST PUSH1 0x7 DUP5 SWAP1 SSTORE DUP4 PUSH2 0x14B0 JUMPI PUSH1 0x40 MLOAD PUSH3 0x461BCD PUSH1 0xE5 SHL DUP2 MSTORE PUSH1 0x4 ADD DUP1 DUP1 PUSH1 0x20 ADD DUP3 DUP2 SUB DUP3 MSTORE PUSH1 0x30 DUP2 MSTORE PUSH1 0x20 ADD DUP1 PUSH2 0x4B1C PUSH1 0x30 SWAP2 CODECOPY PUSH1 0x40 ADD SWAP2 POP POP PUSH1 0x40 MLOAD DUP1 SWAP2 SUB SWAP1 REVERT JUMPDEST PUSH1 0x0 PUSH2 0x14BB DUP8 PUSH2 0x10E8 JUMP JUMPDEST SWAP1 POP DUP1 ISZERO PUSH2 0x1510 JUMPI PUSH1 0x40 DUP1 MLOAD PUSH3 0x461BCD PUSH1 0xE5 SHL DUP2 MSTORE PUSH1 0x20 PUSH1 0x4 DUP3 ADD MSTORE PUSH1 0x1A PUSH1 0x24 DUP3 ADD MSTORE PUSH32 0x73657474696E672064616E6B74726F6C6C6572206661696C6564000000000000 PUSH1 0x44 DUP3 ADD MSTORE SWAP1 MLOAD SWAP1 DUP2 SWAP1 SUB PUSH1 0x64 ADD SWAP1 REVERT JUMPDEST PUSH2 0x1518 PUSH2 0x27F4 JUMP JUMPDEST PUSH1 0x9 SSTORE PUSH8 0xDE0B6B3A7640000 PUSH1 0xA SSTORE PUSH2 0x1530 DUP7 PUSH2 0x27F8 JUMP JUMPDEST SWAP1 POP DUP1 ISZERO PUSH2 0x156F JUMPI PUSH1 0x40 MLOAD PUSH3 0x461BCD PUSH1 0xE5 SHL DUP2 MSTORE PUSH1 0x4 ADD DUP1 DUP1 PUSH1 0x20 ADD DUP3 DUP2 SUB DUP3 MSTORE PUSH1 0x22 DUP2 MSTORE PUSH1 0x20 ADD DUP1 PUSH2 0x4B4C PUSH1 0x22 SWAP2 CODECOPY PUSH1 0x40 ADD SWAP2 POP POP PUSH1 0x40 MLOAD DUP1 SWAP2 SUB SWAP1 REVERT JUMPDEST DUP4 MLOAD PUSH2 0x1582 SWAP1 PUSH1 0x1 SWAP1 PUSH1 0x20 DUP8 ADD SWAP1 PUSH2 0x498F JUMP JUMPDEST POP DUP3 MLOAD PUSH2 0x1596 SWAP1 PUSH1 0x2 SWAP1 PUSH1 0x20 DUP7 ADD SWAP1 PUSH2 0x498F JUMP JUMPDEST POP POP PUSH1 0x3 DUP1 SLOAD PUSH1 0xFF SWAP1 SWAP3 AND PUSH1 0xFF NOT SWAP3 DUP4 AND OR SWAP1 SSTORE PUSH1 0x0 DUP1 SLOAD SWAP1 SWAP2 AND PUSH1 0x1 OR SWAP1 SSTORE POP POP POP POP POP JUMP JUMPDEST PUSH1 0x0 DUP1 PUSH2 0xBA9 DUP4 PUSH2 0x296D JUMP JUMPDEST PUSH1 0x0 DUP1 PUSH2 0x15D4 PUSH2 0x27F4 JUMP JUMPDEST PUSH1 0x9 SLOAD SWAP1 SWAP2 POP DUP1 DUP3 EQ ISZERO PUSH2 0x15ED JUMPI PUSH1 0x0 SWAP3 POP POP POP PUSH2 0xCDF JUMP JUMPDEST PUSH1 0x0 PUSH2 0x15F7 PUSH2 0x2412 JUMP JUMPDEST PUSH1 0xB SLOAD PUSH1 0xC SLOAD PUSH1 0xA SLOAD PUSH1 0x6 SLOAD PUSH1 0x40 DUP1 MLOAD PUSH4 0x15F24053 PUSH1 0xE0 SHL DUP2 MSTORE PUSH1 0x4 DUP2 ADD DUP8 SWAP1 MSTORE PUSH1 0x24 DUP2 ADD DUP7 SWAP1 MSTORE PUSH1 0x44 DUP2 ADD DUP6 SWAP1 MSTORE SWAP1 MLOAD SWAP6 SWAP7 POP SWAP4 SWAP5 SWAP3 SWAP4 SWAP2 SWAP3 PUSH1 0x0 SWAP3 PUSH1 0x1 PUSH1 0x1 PUSH1 0xA0 SHL SUB SWAP1 SWAP3 AND SWAP2 PUSH4 0x15F24053 SWAP2 PUSH1 0x64 DUP1 DUP4 ADD SWAP3 PUSH1 0x20 SWAP3 SWAP2 SWAP1 DUP3 SWAP1 SUB ADD DUP2 DUP7 DUP1 EXTCODESIZE ISZERO DUP1 ISZERO PUSH2 0x1665 JUMPI PUSH1 0x0 DUP1 REVERT JUMPDEST POP GAS STATICCALL ISZERO DUP1 ISZERO PUSH2 0x1679 JUMPI RETURNDATASIZE PUSH1 0x0 DUP1 RETURNDATACOPY RETURNDATASIZE PUSH1 0x0 REVERT JUMPDEST POP POP POP POP PUSH1 0x40 MLOAD RETURNDATASIZE PUSH1 0x20 DUP2 LT ISZERO PUSH2 0x168F JUMPI PUSH1 0x0 DUP1 REVERT JUMPDEST POP MLOAD SWAP1 POP PUSH6 0x48C27395000 DUP2 GT ISZERO PUSH2 0x16EE JUMPI PUSH1 0x40 DUP1 MLOAD PUSH3 0x461BCD PUSH1 0xE5 SHL DUP2 MSTORE PUSH1 0x20 PUSH1 0x4 DUP3 ADD MSTORE PUSH1 0x1C PUSH1 0x24 DUP3 ADD MSTORE PUSH32 0x626F72726F772072617465206973206162737572646C79206869676800000000 PUSH1 0x44 DUP3 ADD MSTORE SWAP1 MLOAD SWAP1 DUP2 SWAP1 SUB PUSH1 0x64 ADD SWAP1 REVERT JUMPDEST PUSH1 0x0 DUP1 PUSH2 0x16FB DUP10 DUP10 PUSH2 0x29EE JUMP JUMPDEST SWAP1 SWAP3 POP SWAP1 POP PUSH1 0x0 DUP3 PUSH1 0x3 DUP2 GT ISZERO PUSH2 0x170E JUMPI INVALID JUMPDEST EQ PUSH2 0x1760 JUMPI PUSH1 0x40 DUP1 MLOAD PUSH3 0x461BCD PUSH1 0xE5 SHL DUP2 MSTORE PUSH1 0x20 PUSH1 0x4 DUP3 ADD MSTORE PUSH1 0x1F PUSH1 0x24 DUP3 ADD MSTORE PUSH32 0x636F756C64206E6F742063616C63756C61746520626C6F636B2064656C746100 PUSH1 0x44 DUP3 ADD MSTORE SWAP1 MLOAD SWAP1 DUP2 SWAP1 SUB PUSH1 0x64 ADD SWAP1 REVERT JUMPDEST PUSH2 0x1768 PUSH2 0x497C JUMP JUMPDEST PUSH1 0x0 DUP1 PUSH1 0x0 DUP1 PUSH2 0x1786 PUSH1 0x40 MLOAD DUP1 PUSH1 0x20 ADD PUSH1 0x40 MSTORE DUP1 DUP11 DUP2 MSTORE POP DUP8 PUSH2 0x2A11 JUMP JUMPDEST SWAP1 SWAP8 POP SWAP5 POP PUSH1 0x0 DUP8 PUSH1 0x3 DUP2 GT ISZERO PUSH2 0x1799 JUMPI INVALID JUMPDEST EQ PUSH2 0x17CB JUMPI PUSH2 0x17B6 PUSH1 0x9 PUSH1 0x6 DUP10 PUSH1 0x3 DUP2 GT ISZERO PUSH2 0x17B1 JUMPI INVALID JUMPDEST PUSH2 0x2A79 JUMP JUMPDEST SWAP15 POP POP POP POP POP POP POP POP POP POP POP POP POP POP POP PUSH2 0xCDF JUMP JUMPDEST PUSH2 0x17D5 DUP6 DUP13 PUSH2 0x23BE JUMP JUMPDEST SWAP1 SWAP8 POP SWAP4 POP PUSH1 0x0 DUP8 PUSH1 0x3 DUP2 GT ISZERO PUSH2 0x17E8 JUMPI INVALID JUMPDEST EQ PUSH2 0x1800 JUMPI PUSH2 0x17B6 PUSH1 0x9 PUSH1 0x1 DUP10 PUSH1 0x3 DUP2 GT ISZERO PUSH2 0x17B1 JUMPI INVALID JUMPDEST PUSH2 0x180A DUP5 DUP13 PUSH2 0x2ADF JUMP JUMPDEST SWAP1 SWAP8 POP SWAP3 POP PUSH1 0x0 DUP8 PUSH1 0x3 DUP2 GT ISZERO PUSH2 0x181D JUMPI INVALID JUMPDEST EQ PUSH2 0x1835 JUMPI PUSH2 0x17B6 PUSH1 0x9 PUSH1 0x4 DUP10 PUSH1 0x3 DUP2 GT ISZERO PUSH2 0x17B1 JUMPI INVALID JUMPDEST PUSH2 0x1850 PUSH1 0x40 MLOAD DUP1 PUSH1 0x20 ADD PUSH1 0x40 MSTORE DUP1 PUSH1 0x8 SLOAD DUP2 MSTORE POP DUP6 DUP13 PUSH2 0x2B05 JUMP JUMPDEST SWAP1 SWAP8 POP SWAP2 POP PUSH1 0x0 DUP8 PUSH1 0x3 DUP2 GT ISZERO PUSH2 0x1863 JUMPI INVALID JUMPDEST EQ PUSH2 0x187B JUMPI PUSH2 0x17B6 PUSH1 0x9 PUSH1 0x5 DUP10 PUSH1 0x3 DUP2 GT ISZERO PUSH2 0x17B1 JUMPI INVALID JUMPDEST PUSH2 0x1886 DUP6 DUP11 DUP12 PUSH2 0x2B05 JUMP JUMPDEST SWAP1 SWAP8 POP SWAP1 POP PUSH1 0x0 DUP8 PUSH1 0x3 DUP2 GT ISZERO PUSH2 0x1899 JUMPI INVALID JUMPDEST EQ PUSH2 0x18B1 JUMPI PUSH2 0x17B6 PUSH1 0x9 PUSH1 0x3 DUP10 PUSH1 0x3 DUP2 GT ISZERO PUSH2 0x17B1 JUMPI INVALID JUMPDEST PUSH1 0x9 DUP15 SWAP1 SSTORE PUSH1 0xA DUP2 SWAP1 SSTORE PUSH1 0xB DUP4 SWAP1 SSTORE PUSH1 0xC DUP3 SWAP1 SSTORE PUSH1 0x40 DUP1 MLOAD DUP14 DUP2 MSTORE PUSH1 0x20 DUP2 ADD DUP7 SWAP1 MSTORE DUP1 DUP3 ADD DUP4 SWAP1 MSTORE PUSH1 0x60 DUP2 ADD DUP6 SWAP1 MSTORE SWAP1 MLOAD PUSH32 0x4DEC04E750CA11537CABCD8A9EAB06494DE08DA3735BC8871CD41250E190BC04 SWAP2 DUP2 SWAP1 SUB PUSH1 0x80 ADD SWAP1 LOG1 PUSH1 0x0 SWAP15 POP POP POP POP POP POP POP POP POP POP POP POP POP POP POP SWAP1 JUMP JUMPDEST PUSH1 0x0 DUP1 SLOAD PUSH1 0xFF AND PUSH2 0x1966 JUMPI PUSH1 0x40 DUP1 MLOAD PUSH3 0x461BCD PUSH1 0xE5 SHL DUP2 MSTORE PUSH1 0x20 PUSH1 0x4 DUP3 ADD MSTORE PUSH1 0xA PUSH1 0x24 DUP3 ADD MSTORE PUSH10 0x1C994B595B9D195C9959 PUSH1 0xB2 SHL PUSH1 0x44 DUP3 ADD MSTORE SWAP1 MLOAD SWAP1 DUP2 SWAP1 SUB PUSH1 0x64 ADD SWAP1 REVERT JUMPDEST PUSH1 0x0 DUP1 SLOAD PUSH1 0xFF NOT AND DUP2 SSTORE PUSH2 0x197C CALLER CALLER DUP7 DUP7 PUSH2 0x2087 JUMP JUMPDEST EQ SWAP1 POP PUSH1 0x0 DUP1 SLOAD PUSH1 0xFF NOT AND PUSH1 0x1 OR SWAP1 SSTORE SWAP3 SWAP2 POP POP JUMP JUMPDEST PUSH1 0xA SLOAD DUP2 JUMP JUMPDEST PUSH1 0x6 SLOAD PUSH1 0x0 SWAP1 PUSH1 0x1 PUSH1 0x1 PUSH1 0xA0 SHL SUB AND PUSH4 0xB8168816 PUSH2 0x19B4 PUSH2 0x2412 JUMP JUMPDEST PUSH1 0xB SLOAD PUSH1 0xC SLOAD PUSH1 0x8 SLOAD PUSH1 0x40 MLOAD DUP6 PUSH4 0xFFFFFFFF AND PUSH1 0xE0 SHL DUP2 MSTORE PUSH1 0x4 ADD DUP1 DUP6 DUP2 MSTORE PUSH1 0x20 ADD DUP5 DUP2 MSTORE PUSH1 0x20 ADD DUP4 DUP2 MSTORE PUSH1 0x20 ADD DUP3 DUP2 MSTORE PUSH1 0x20 ADD SWAP5 POP POP POP POP POP PUSH1 0x20 PUSH1 0x40 MLOAD DUP1 DUP4 SUB DUP2 DUP7 DUP1 EXTCODESIZE ISZERO DUP1 ISZERO PUSH2 0x1A06 JUMPI PUSH1 0x0 DUP1 REVERT JUMPDEST POP GAS STATICCALL ISZERO DUP1 ISZERO PUSH2 0x1A1A JUMPI RETURNDATASIZE PUSH1 0x0 DUP1 RETURNDATACOPY RETURNDATASIZE PUSH1 0x0 REVERT JUMPDEST POP POP POP POP PUSH1 0x40 MLOAD RETURNDATASIZE PUSH1 0x20 DUP2 LT ISZERO PUSH2 0x1A30 JUMPI PUSH1 0x0 DUP1 REVERT JUMPDEST POP MLOAD SWAP1 POP SWAP1 JUMP JUMPDEST PUSH1 0x0 DUP1 SLOAD PUSH1 0xFF AND PUSH2 0x1A7C JUMPI PUSH1 0x40 DUP1 MLOAD PUSH3 0x461BCD PUSH1 0xE5 SHL DUP2 MSTORE PUSH1 0x20 PUSH1 0x4 DUP3 ADD MSTORE PUSH1 0xA PUSH1 0x24 DUP3 ADD MSTORE PUSH10 0x1C994B595B9D195C9959 PUSH1 0xB2 SHL PUSH1 0x44 DUP3 ADD MSTORE SWAP1 MLOAD SWAP1 DUP2 SWAP1 SUB PUSH1 0x64 ADD SWAP1 REVERT JUMPDEST PUSH1 0x0 DUP1 SLOAD PUSH1 0xFF NOT AND SWAP1 SSTORE PUSH2 0x1A92 CALLER DUP6 DUP6 DUP6 PUSH2 0x2B61 JUMP JUMPDEST SWAP1 POP PUSH1 0x0 DUP1 SLOAD PUSH1 0xFF NOT AND PUSH1 0x1 OR SWAP1 SSTORE SWAP4 SWAP3 POP POP POP JUMP JUMPDEST PUSH1 0x3 SLOAD PUSH1 0x0 SWAP1 PUSH2 0x100 SWAP1 DIV PUSH1 0x1 PUSH1 0x1 PUSH1 0xA0 SHL SUB AND CALLER EQ PUSH2 0x1ACE JUMPI PUSH2 0x110E PUSH1 0x1 PUSH1 0x45 PUSH2 0x2526 JUMP JUMPDEST PUSH1 0x4 DUP1 SLOAD PUSH1 0x1 PUSH1 0x1 PUSH1 0xA0 SHL SUB DUP5 DUP2 AND PUSH1 0x1 PUSH1 0x1 PUSH1 0xA0 SHL SUB NOT DUP4 AND DUP2 OR SWAP1 SWAP4 SSTORE PUSH1 0x40 DUP1 MLOAD SWAP2 SWAP1 SWAP3 AND DUP1 DUP3 MSTORE PUSH1 0x20 DUP3 ADD SWAP4 SWAP1 SWAP4 MSTORE DUP2 MLOAD PUSH32 0xCA4F2F25D0898EDD99413412FB94012F9E54EC8142F9B093E7720646A95B16A9 SWAP3 SWAP2 DUP2 SWAP1 SUB SWAP1 SWAP2 ADD SWAP1 LOG1 PUSH1 0x0 PUSH2 0x1238 JUMP JUMPDEST PUSH1 0x0 DUP1 SLOAD PUSH1 0xFF AND PUSH2 0x1B79 JUMPI PUSH1 0x40 DUP1 MLOAD PUSH3 0x461BCD PUSH1 0xE5 SHL DUP2 MSTORE PUSH1 0x20 PUSH1 0x4 DUP3 ADD MSTORE PUSH1 0xA PUSH1 0x24 DUP3 ADD MSTORE PUSH10 0x1C994B595B9D195C9959 PUSH1 0xB2 SHL PUSH1 0x44 DUP3 ADD MSTORE SWAP1 MLOAD SWAP1 DUP2 SWAP1 SUB PUSH1 0x64 ADD SWAP1 REVERT JUMPDEST PUSH1 0x0 DUP1 SLOAD PUSH1 0xFF NOT AND DUP2 SSTORE PUSH2 0x1B8B PUSH2 0x15C9 JUMP JUMPDEST EQ PUSH2 0x1BD6 JUMPI PUSH1 0x40 DUP1 MLOAD PUSH3 0x461BCD PUSH1 0xE5 SHL DUP2 MSTORE PUSH1 0x20 PUSH1 0x4 DUP3 ADD MSTORE PUSH1 0x16 PUSH1 0x24 DUP3 ADD MSTORE PUSH22 0x1858D8DC9D59481A5B9D195C995CDD0819985A5B1959 PUSH1 0x52 SHL PUSH1 0x44 DUP3 ADD MSTORE SWAP1 MLOAD SWAP1 DUP2 SWAP1 SUB PUSH1 0x64 ADD SWAP1 REVERT JUMPDEST PUSH2 0x1BDE PUSH2 0xC7F JUMP JUMPDEST SWAP1 POP PUSH1 0x0 DUP1 SLOAD PUSH1 0xFF NOT AND PUSH1 0x1 OR SWAP1 SSTORE SWAP1 JUMP JUMPDEST PUSH1 0x1 PUSH1 0x1 PUSH1 0xA0 SHL SUB DUP2 AND PUSH1 0x0 SWAP1 DUP2 MSTORE PUSH1 0xE PUSH1 0x20 MSTORE PUSH1 0x40 DUP2 KECCAK256 SLOAD DUP2 SWAP1 DUP2 SWAP1 DUP2 SWAP1 DUP2 DUP1 DUP1 PUSH2 0x1C1B DUP10 PUSH2 0x2740 JUMP JUMPDEST SWAP4 POP SWAP1 POP PUSH1 0x0 DUP2 PUSH1 0x3 DUP2 GT ISZERO PUSH2 0x1C2D JUMPI INVALID JUMPDEST EQ PUSH2 0x1C4B JUMPI PUSH1 0x9 JUMPDEST SWAP8 POP PUSH1 0x0 SWAP7 POP DUP7 SWAP6 POP DUP6 SWAP5 POP PUSH2 0x1C7E SWAP4 POP POP POP POP JUMP JUMPDEST PUSH2 0x1C53 PUSH2 0x1FD8 JUMP JUMPDEST SWAP3 POP SWAP1 POP PUSH1 0x0 DUP2 PUSH1 0x3 DUP2 GT ISZERO PUSH2 0x1C65 JUMPI INVALID JUMPDEST EQ PUSH2 0x1C71 JUMPI PUSH1 0x9 PUSH2 0x1C35 JUMP JUMPDEST POP PUSH1 0x0 SWAP7 POP SWAP2 SWAP5 POP SWAP3 POP SWAP1 POP JUMPDEST SWAP2 SWAP4 POP SWAP2 SWAP4 JUMP JUMPDEST PUSH1 0x0 PUSH2 0xB97 DUP3 PUSH2 0x2D3D JUMP JUMPDEST PUSH1 0x0 PUSH2 0xB97 DUP3 PUSH2 0x2DBC JUMP JUMPDEST PUSH1 0x1 PUSH1 0x1 PUSH1 0xA0 SHL SUB SWAP2 DUP3 AND PUSH1 0x0 SWAP1 DUP2 MSTORE PUSH1 0xF PUSH1 0x20 SWAP1 DUP2 MSTORE PUSH1 0x40 DUP1 DUP4 KECCAK256 SWAP4 SWAP1 SWAP5 AND DUP3 MSTORE SWAP2 SWAP1 SWAP2 MSTORE KECCAK256 SLOAD SWAP1 JUMP JUMPDEST PUSH1 0x5 SLOAD PUSH1 0x1 PUSH1 0x1 PUSH1 0xA0 SHL SUB AND DUP2 JUMP JUMPDEST PUSH1 0x4 SLOAD PUSH1 0x0 SWAP1 PUSH1 0x1 PUSH1 0x1 PUSH1 0xA0 SHL SUB AND CALLER EQ ISZERO DUP1 PUSH2 0x1CF0 JUMPI POP CALLER ISZERO JUMPDEST ISZERO PUSH2 0x1D08 JUMPI PUSH2 0x1D01 PUSH1 0x1 PUSH1 0x0 PUSH2 0x2526 JUMP JUMPDEST SWAP1 POP PUSH2 0xCDF JUMP JUMPDEST PUSH1 0x3 DUP1 SLOAD PUSH1 0x4 DUP1 SLOAD PUSH1 0x1 PUSH1 0x1 PUSH1 0xA0 SHL SUB DUP2 DUP2 AND PUSH2 0x100 DUP2 DUP2 MUL PUSH2 0x100 PUSH1 0x1 PUSH1 0xA8 SHL SUB NOT DUP8 AND OR SWAP7 DUP8 SWAP1 SSTORE PUSH1 0x1 PUSH1 0x1 PUSH1 0xA0 SHL SUB NOT SWAP1 SWAP4 AND SWAP1 SWAP4 SSTORE PUSH1 0x40 DUP1 MLOAD SWAP5 DUP4 SWAP1 DIV DUP3 AND DUP1 DUP7 MSTORE SWAP3 SWAP1 SWAP6 DIV AND PUSH1 0x20 DUP5 ADD MSTORE DUP4 MLOAD SWAP1 SWAP4 SWAP2 SWAP3 PUSH32 0xF9FFABCA9C8276E99321725BCB43FB076A6C66A54B7F21C4E8146D8519B417DC SWAP3 SWAP1 DUP3 SWAP1 SUB ADD SWAP1 LOG1 PUSH1 0x4 SLOAD PUSH1 0x40 DUP1 MLOAD PUSH1 0x1 PUSH1 0x1 PUSH1 0xA0 SHL SUB DUP1 DUP6 AND DUP3 MSTORE SWAP1 SWAP3 AND PUSH1 0x20 DUP4 ADD MSTORE DUP1 MLOAD PUSH32 0xCA4F2F25D0898EDD99413412FB94012F9E54EC8142F9B093E7720646A95B16A9 SWAP3 DUP2 SWAP1 SUB SWAP1 SWAP2 ADD SWAP1 LOG1 PUSH1 0x0 SWAP3 POP POP POP SWAP1 JUMP JUMPDEST PUSH1 0x0 DUP1 PUSH2 0x1DE3 PUSH2 0x15C9 JUMP JUMPDEST SWAP1 POP DUP1 ISZERO PUSH2 0x1E09 JUMPI PUSH2 0x1E01 DUP2 PUSH1 0x10 DUP2 GT ISZERO PUSH2 0x1DFA JUMPI INVALID JUMPDEST PUSH1 0x40 PUSH2 0x2526 JUMP JUMPDEST SWAP2 POP POP PUSH2 0xBAE JUMP JUMPDEST PUSH2 0x1238 DUP4 PUSH2 0x27F8 JUMP JUMPDEST PUSH1 0x6 SLOAD PUSH1 0x1 PUSH1 0x1 PUSH1 0xA0 SHL SUB AND DUP2 JUMP JUMPDEST PUSH1 0x0 DUP1 PUSH2 0x1E2F DUP6 DUP6 DUP6 PUSH2 0x2E36 JUMP JUMPDEST POP SWAP6 SWAP5 POP POP POP POP POP JUMP JUMPDEST PUSH1 0x3 SLOAD PUSH2 0x100 SWAP1 DIV PUSH1 0x1 PUSH1 0x1 PUSH1 0xA0 SHL SUB AND DUP2 JUMP JUMPDEST PUSH1 0x6 SLOAD PUSH1 0x0 SWAP1 PUSH1 0x1 PUSH1 0x1 PUSH1 0xA0 SHL SUB AND PUSH4 0x15F24053 PUSH2 0x1E69 PUSH2 0x2412 JUMP JUMPDEST PUSH1 0xB SLOAD PUSH1 0xC SLOAD PUSH1 0x40 MLOAD DUP5 PUSH4 0xFFFFFFFF AND PUSH1 0xE0 SHL DUP2 MSTORE PUSH1 0x4 ADD DUP1 DUP5 DUP2 MSTORE PUSH1 0x20 ADD DUP4 DUP2 MSTORE PUSH1 0x20 ADD DUP3 DUP2 MSTORE PUSH1 0x20 ADD SWAP4 POP POP POP POP PUSH1 0x20 PUSH1 0x40 MLOAD DUP1 DUP4 SUB DUP2 DUP7 DUP1 EXTCODESIZE ISZERO DUP1 ISZERO PUSH2 0x1A06 JUMPI PUSH1 0x0 DUP1 REVERT JUMPDEST PUSH1 0x0 DUP1 SLOAD PUSH1 0xFF AND PUSH2 0x1EF6 JUMPI PUSH1 0x40 DUP1 MLOAD PUSH3 0x461BCD PUSH1 0xE5 SHL DUP2 MSTORE PUSH1 0x20 PUSH1 0x4 DUP3 ADD MSTORE PUSH1 0xA PUSH1 0x24 DUP3 ADD MSTORE PUSH10 0x1C994B595B9D195C9959 PUSH1 0xB2 SHL PUSH1 0x44 DUP3 ADD MSTORE SWAP1 MLOAD SWAP1 DUP2 SWAP1 SUB PUSH1 0x64 ADD SWAP1 REVERT JUMPDEST PUSH1 0x0 DUP1 SLOAD PUSH1 0xFF NOT AND DUP2 SSTORE PUSH2 0x1F08 PUSH2 0x15C9 JUMP JUMPDEST SWAP1 POP DUP1 ISZERO PUSH2 0x1F26 JUMPI PUSH2 0x10AD DUP2 PUSH1 0x10 DUP2 GT ISZERO PUSH2 0x1F1F JUMPI INVALID JUMPDEST PUSH1 0x46 PUSH2 0x2526 JUMP JUMPDEST PUSH2 0x10BE DUP4 PUSH2 0x2F68 JUMP JUMPDEST PUSH1 0x0 DUP1 SLOAD DUP2 SWAP1 PUSH1 0xFF AND PUSH2 0x1F76 JUMPI PUSH1 0x40 DUP1 MLOAD PUSH3 0x461BCD PUSH1 0xE5 SHL DUP2 MSTORE PUSH1 0x20 PUSH1 0x4 DUP3 ADD MSTORE PUSH1 0xA PUSH1 0x24 DUP3 ADD MSTORE PUSH10 0x1C994B595B9D195C9959 PUSH1 0xB2 SHL PUSH1 0x44 DUP3 ADD MSTORE SWAP1 MLOAD SWAP1 DUP2 SWAP1 SUB PUSH1 0x64 ADD SWAP1 REVERT JUMPDEST PUSH1 0x0 DUP1 SLOAD PUSH1 0xFF NOT AND DUP2 SSTORE PUSH2 0x1F88 PUSH2 0x15C9 JUMP JUMPDEST SWAP1 POP DUP1 ISZERO PUSH2 0x1FB3 JUMPI PUSH2 0x1FA6 DUP2 PUSH1 0x10 DUP2 GT ISZERO PUSH2 0x1F9F JUMPI INVALID JUMPDEST PUSH1 0x36 PUSH2 0x2526 JUMP JUMPDEST SWAP3 POP PUSH1 0x0 SWAP2 POP PUSH2 0x1FC4 SWAP1 POP JUMP JUMPDEST PUSH2 0x1FBE CALLER CALLER DUP7 PUSH2 0x3010 JUMP JUMPDEST SWAP3 POP SWAP3 POP POP JUMPDEST PUSH1 0x0 DUP1 SLOAD PUSH1 0xFF NOT AND PUSH1 0x1 OR SWAP1 SSTORE SWAP1 SWAP3 SWAP1 SWAP2 POP JUMP JUMPDEST PUSH1 0xD SLOAD PUSH1 0x0 SWAP1 DUP2 SWAP1 DUP1 PUSH2 0x1FF3 JUMPI POP POP PUSH1 0x7 SLOAD PUSH1 0x0 SWAP2 POP PUSH2 0x2083 JUMP JUMPDEST PUSH1 0x0 PUSH2 0x1FFD PUSH2 0x2412 JUMP JUMPDEST SWAP1 POP PUSH1 0x0 PUSH2 0x2009 PUSH2 0x497C JUMP JUMPDEST PUSH1 0x0 PUSH2 0x201A DUP5 PUSH1 0xB SLOAD PUSH1 0xC SLOAD PUSH2 0x335E JUMP JUMPDEST SWAP4 POP SWAP1 POP PUSH1 0x0 DUP2 PUSH1 0x3 DUP2 GT ISZERO PUSH2 0x202C JUMPI INVALID JUMPDEST EQ PUSH2 0x2041 JUMPI SWAP6 POP PUSH1 0x0 SWAP5 POP PUSH2 0x2083 SWAP4 POP POP POP POP JUMP JUMPDEST PUSH2 0x204B DUP4 DUP7 PUSH2 0x339C JUMP JUMPDEST SWAP3 POP SWAP1 POP PUSH1 0x0 DUP2 PUSH1 0x3 DUP2 GT ISZERO PUSH2 0x205D JUMPI INVALID JUMPDEST EQ PUSH2 0x2072 JUMPI SWAP6 POP PUSH1 0x0 SWAP5 POP PUSH2 0x2083 SWAP4 POP POP POP POP JUMP JUMPDEST POP MLOAD PUSH1 0x0 SWAP6 POP SWAP4 POP PUSH2 0x2083 SWAP3 POP POP POP JUMP JUMPDEST SWAP1 SWAP2 JUMP JUMPDEST PUSH1 0x5 SLOAD PUSH1 0x40 DUP1 MLOAD PUSH4 0x17B9B84B PUSH1 0xE3 SHL DUP2 MSTORE ADDRESS PUSH1 0x4 DUP3 ADD MSTORE PUSH1 0x1 PUSH1 0x1 PUSH1 0xA0 SHL SUB DUP7 DUP2 AND PUSH1 0x24 DUP4 ADD MSTORE DUP6 DUP2 AND PUSH1 0x44 DUP4 ADD MSTORE PUSH1 0x64 DUP3 ADD DUP6 SWAP1 MSTORE SWAP2 MLOAD PUSH1 0x0 SWAP4 DUP5 SWAP4 AND SWAP2 PUSH4 0xBDCDC258 SWAP2 PUSH1 0x84 DUP1 DUP4 ADD SWAP3 PUSH1 0x20 SWAP3 SWAP2 SWAP1 DUP3 SWAP1 SUB ADD DUP2 DUP8 DUP8 DUP1 EXTCODESIZE ISZERO DUP1 ISZERO PUSH2 0x20EC JUMPI PUSH1 0x0 DUP1 REVERT JUMPDEST POP GAS CALL ISZERO DUP1 ISZERO PUSH2 0x2100 JUMPI RETURNDATASIZE PUSH1 0x0 DUP1 RETURNDATACOPY RETURNDATASIZE PUSH1 0x0 REVERT JUMPDEST POP POP POP POP PUSH1 0x40 MLOAD RETURNDATASIZE PUSH1 0x20 DUP2 LT ISZERO PUSH2 0x2116 JUMPI PUSH1 0x0 DUP1 REVERT JUMPDEST POP MLOAD SWAP1 POP DUP1 ISZERO PUSH2 0x2135 JUMPI PUSH2 0x212D PUSH1 0x3 PUSH1 0x4A DUP4 PUSH2 0x2A79 JUMP JUMPDEST SWAP2 POP POP PUSH2 0x1010 JUMP JUMPDEST DUP4 PUSH1 0x1 PUSH1 0x1 PUSH1 0xA0 SHL SUB AND DUP6 PUSH1 0x1 PUSH1 0x1 PUSH1 0xA0 SHL SUB AND EQ ISZERO PUSH2 0x215B JUMPI PUSH2 0x212D PUSH1 0x2 PUSH1 0x4B PUSH2 0x2526 JUMP JUMPDEST PUSH1 0x0 PUSH1 0x1 PUSH1 0x1 PUSH1 0xA0 SHL SUB DUP8 DUP2 AND SWAP1 DUP8 AND EQ ISZERO PUSH2 0x217A JUMPI POP PUSH1 0x0 NOT PUSH2 0x21A2 JUMP JUMPDEST POP PUSH1 0x1 PUSH1 0x1 PUSH1 0xA0 SHL SUB DUP1 DUP7 AND PUSH1 0x0 SWAP1 DUP2 MSTORE PUSH1 0xF PUSH1 0x20 SWAP1 DUP2 MSTORE PUSH1 0x40 DUP1 DUP4 KECCAK256 SWAP4 DUP11 AND DUP4 MSTORE SWAP3 SWAP1 MSTORE KECCAK256 SLOAD JUMPDEST PUSH1 0x0 DUP1 PUSH1 0x0 DUP1 PUSH2 0x21B2 DUP6 DUP10 PUSH2 0x29EE JUMP JUMPDEST SWAP1 SWAP5 POP SWAP3 POP PUSH1 0x0 DUP5 PUSH1 0x3 DUP2 GT ISZERO PUSH2 0x21C5 JUMPI INVALID JUMPDEST EQ PUSH2 0x21E3 JUMPI PUSH2 0x21D6 PUSH1 0x9 PUSH1 0x4B PUSH2 0x2526 JUMP JUMPDEST SWAP7 POP POP POP POP POP POP POP PUSH2 0x1010 JUMP JUMPDEST PUSH1 0x1 PUSH1 0x1 PUSH1 0xA0 SHL SUB DUP11 AND PUSH1 0x0 SWAP1 DUP2 MSTORE PUSH1 0xE PUSH1 0x20 MSTORE PUSH1 0x40 SWAP1 KECCAK256 SLOAD PUSH2 0x2206 SWAP1 DUP10 PUSH2 0x29EE JUMP JUMPDEST SWAP1 SWAP5 POP SWAP2 POP PUSH1 0x0 DUP5 PUSH1 0x3 DUP2 GT ISZERO PUSH2 0x2219 JUMPI INVALID JUMPDEST EQ PUSH2 0x222A JUMPI PUSH2 0x21D6 PUSH1 0x9 PUSH1 0x4C PUSH2 0x2526 JUMP JUMPDEST PUSH1 0x1 PUSH1 0x1 PUSH1 0xA0 SHL SUB DUP10 AND PUSH1 0x0 SWAP1 DUP2 MSTORE PUSH1 0xE PUSH1 0x20 MSTORE PUSH1 0x40 SWAP1 KECCAK256 SLOAD PUSH2 0x224D SWAP1 DUP10 PUSH2 0x2ADF JUMP JUMPDEST SWAP1 SWAP5 POP SWAP1 POP PUSH1 0x0 DUP5 PUSH1 0x3 DUP2 GT ISZERO PUSH2 0x2260 JUMPI INVALID JUMPDEST EQ PUSH2 0x2271 JUMPI PUSH2 0x21D6 PUSH1 0x9 PUSH1 0x4D PUSH2 0x2526 JUMP JUMPDEST PUSH1 0x1 PUSH1 0x1 PUSH1 0xA0 SHL SUB DUP1 DUP12 AND PUSH1 0x0 SWAP1 DUP2 MSTORE PUSH1 0xE PUSH1 0x20 MSTORE PUSH1 0x40 DUP1 DUP3 KECCAK256 DUP6 SWAP1 SSTORE SWAP2 DUP12 AND DUP2 MSTORE KECCAK256 DUP2 SWAP1 SSTORE PUSH1 0x0 NOT DUP6 EQ PUSH2 0x22C9 JUMPI PUSH1 0x1 PUSH1 0x1 PUSH1 0xA0 SHL SUB DUP1 DUP12 AND PUSH1 0x0 SWAP1 DUP2 MSTORE PUSH1 0xF PUSH1 0x20 SWAP1 DUP2 MSTORE PUSH1 0x40 DUP1 DUP4 KECCAK256 SWAP4 DUP16 AND DUP4 MSTORE SWAP3 SWAP1 MSTORE KECCAK256 DUP4 SWAP1 SSTORE JUMPDEST DUP9 PUSH1 0x1 PUSH1 0x1 PUSH1 0xA0 SHL SUB AND DUP11 PUSH1 0x1 PUSH1 0x1 PUSH1 0xA0 SHL SUB AND PUSH1 0x0 DUP1 MLOAD PUSH1 0x20 PUSH2 0x4C3C DUP4 CODECOPY DUP2 MLOAD SWAP2 MSTORE DUP11 PUSH1 0x40 MLOAD DUP1 DUP3 DUP2 MSTORE PUSH1 0x20 ADD SWAP2 POP POP PUSH1 0x40 MLOAD DUP1 SWAP2 SUB SWAP1 LOG3 POP PUSH1 0x0 SWAP11 SWAP10 POP POP POP POP POP POP POP POP POP POP JUMP JUMPDEST PUSH1 0x0 DUP1 SLOAD DUP2 SWAP1 PUSH1 0xFF AND PUSH2 0x235A JUMPI PUSH1 0x40 DUP1 MLOAD PUSH3 0x461BCD PUSH1 0xE5 SHL DUP2 MSTORE PUSH1 0x20 PUSH1 0x4 DUP3 ADD MSTORE PUSH1 0xA PUSH1 0x24 DUP3 ADD MSTORE PUSH10 0x1C994B595B9D195C9959 PUSH1 0xB2 SHL PUSH1 0x44 DUP3 ADD MSTORE SWAP1 MLOAD SWAP1 DUP2 SWAP1 SUB PUSH1 0x64 ADD SWAP1 REVERT JUMPDEST PUSH1 0x0 DUP1 SLOAD PUSH1 0xFF NOT AND DUP2 SSTORE PUSH2 0x236C PUSH2 0x15C9 JUMP JUMPDEST SWAP1 POP DUP1 ISZERO PUSH2 0x2397 JUMPI PUSH2 0x238A DUP2 PUSH1 0x10 DUP2 GT ISZERO PUSH2 0x2383 JUMPI INVALID JUMPDEST PUSH1 0x35 PUSH2 0x2526 JUMP JUMPDEST SWAP3 POP PUSH1 0x0 SWAP2 POP PUSH2 0x23A8 SWAP1 POP JUMP JUMPDEST PUSH2 0x23A2 CALLER DUP7 DUP7 PUSH2 0x3010 JUMP JUMPDEST SWAP3 POP SWAP3 POP POP JUMPDEST PUSH1 0x0 DUP1 SLOAD PUSH1 0xFF NOT AND PUSH1 0x1 OR SWAP1 SSTORE SWAP1 SWAP4 SWAP1 SWAP3 POP SWAP1 POP JUMP JUMPDEST PUSH1 0x0 DUP1 PUSH1 0x0 PUSH2 0x23CB PUSH2 0x497C JUMP JUMPDEST PUSH2 0x23D5 DUP7 DUP7 PUSH2 0x2A11 JUMP JUMPDEST SWAP1 SWAP3 POP SWAP1 POP PUSH1 0x0 DUP3 PUSH1 0x3 DUP2 GT ISZERO PUSH2 0x23E8 JUMPI INVALID JUMPDEST EQ PUSH2 0x23F9 JUMPI POP SWAP2 POP PUSH1 0x0 SWAP1 POP PUSH2 0x240B JUMP JUMPDEST PUSH1 0x0 PUSH2 0x2404 DUP3 PUSH2 0x344C JUMP JUMPDEST SWAP4 POP SWAP4 POP POP POP JUMPDEST SWAP3 POP SWAP3 SWAP1 POP JUMP JUMPDEST PUSH1 0x11 SLOAD PUSH1 0x40 DUP1 MLOAD PUSH4 0x70A08231 PUSH1 0xE0 SHL DUP2 MSTORE ADDRESS PUSH1 0x4 DUP3 ADD MSTORE SWAP1 MLOAD PUSH1 0x0 SWAP3 PUSH1 0x1 PUSH1 0x1 PUSH1 0xA0 SHL SUB AND SWAP2 DUP3 SWAP2 PUSH4 0x70A08231 SWAP2 PUSH1 0x24 DUP1 DUP3 ADD SWAP3 PUSH1 0x20 SWAP3 SWAP1 SWAP2 SWAP1 DUP3 SWAP1 SUB ADD DUP2 DUP7 DUP1 EXTCODESIZE ISZERO DUP1 ISZERO PUSH2 0x2460 JUMPI PUSH1 0x0 DUP1 REVERT JUMPDEST POP GAS STATICCALL ISZERO DUP1 ISZERO PUSH2 0x2474 JUMPI RETURNDATASIZE PUSH1 0x0 DUP1 RETURNDATACOPY RETURNDATASIZE PUSH1 0x0 REVERT JUMPDEST POP POP POP POP PUSH1 0x40 MLOAD RETURNDATASIZE PUSH1 0x20 DUP2 LT ISZERO PUSH2 0x248A JUMPI PUSH1 0x0 DUP1 REVERT JUMPDEST POP MLOAD SWAP2 POP POP SWAP1 JUMP JUMPDEST PUSH1 0x0 DUP1 SLOAD PUSH1 0xFF AND PUSH2 0x24D7 JUMPI PUSH1 0x40 DUP1 MLOAD PUSH3 0x461BCD PUSH1 0xE5 SHL DUP2 MSTORE PUSH1 0x20 PUSH1 0x4 DUP3 ADD MSTORE PUSH1 0xA PUSH1 0x24 DUP3 ADD MSTORE PUSH10 0x1C994B595B9D195C9959 PUSH1 0xB2 SHL PUSH1 0x44 DUP3 ADD MSTORE SWAP1 MLOAD SWAP1 DUP2 SWAP1 SUB PUSH1 0x64 ADD SWAP1 REVERT JUMPDEST PUSH1 0x0 DUP1 SLOAD PUSH1 0xFF NOT AND DUP2 SSTORE PUSH2 0x24E9 PUSH2 0x15C9 JUMP JUMPDEST SWAP1 POP DUP1 ISZERO PUSH2 0x2507 JUMPI PUSH2 0x10AD DUP2 PUSH1 0x10 DUP2 GT ISZERO PUSH2 0x2500 JUMPI INVALID JUMPDEST PUSH1 0x4E PUSH2 0x2526 JUMP JUMPDEST PUSH2 0x2510 DUP4 PUSH2 0x345B JUMP JUMPDEST POP SWAP2 POP POP PUSH1 0x0 DUP1 SLOAD PUSH1 0xFF NOT AND PUSH1 0x1 OR SWAP1 SSTORE SWAP2 SWAP1 POP JUMP JUMPDEST PUSH1 0x0 PUSH32 0x45B96FE442630264581B197E84BBADA861235052C5A1AADFFF9EA4E40A969AA0 DUP4 PUSH1 0x10 DUP2 GT ISZERO PUSH2 0x2555 JUMPI INVALID JUMPDEST DUP4 PUSH1 0x50 DUP2 GT ISZERO PUSH2 0x2561 JUMPI INVALID JUMPDEST PUSH1 0x40 DUP1 MLOAD SWAP3 DUP4 MSTORE PUSH1 0x20 DUP4 ADD SWAP2 SWAP1 SWAP2 MSTORE PUSH1 0x0 DUP3 DUP3 ADD MSTORE MLOAD SWAP1 DUP2 SWAP1 SUB PUSH1 0x60 ADD SWAP1 LOG1 DUP3 PUSH1 0x10 DUP2 GT ISZERO PUSH2 0x1238 JUMPI INVALID JUMPDEST PUSH1 0x3 SLOAD PUSH1 0x0 SWAP1 DUP2 SWAP1 PUSH2 0x100 SWAP1 DIV PUSH1 0x1 PUSH1 0x1 PUSH1 0xA0 SHL SUB AND CALLER EQ PUSH2 0x25B4 JUMPI PUSH2 0x1E01 PUSH1 0x1 PUSH1 0x31 PUSH2 0x2526 JUMP JUMPDEST PUSH2 0x25BC PUSH2 0x27F4 JUMP JUMPDEST PUSH1 0x9 SLOAD EQ PUSH2 0x25D0 JUMPI PUSH2 0x1E01 PUSH1 0xA PUSH1 0x33 PUSH2 0x2526 JUMP JUMPDEST DUP3 PUSH2 0x25D9 PUSH2 0x2412 JUMP JUMPDEST LT ISZERO PUSH2 0x25EB JUMPI PUSH2 0x1E01 PUSH1 0xE PUSH1 0x32 PUSH2 0x2526 JUMP JUMPDEST PUSH1 0xC SLOAD DUP4 GT ISZERO PUSH2 0x2601 JUMPI PUSH2 0x1E01 PUSH1 0x2 PUSH1 0x34 PUSH2 0x2526 JUMP JUMPDEST POP PUSH1 0xC SLOAD DUP3 DUP2 SUB SWAP1 DUP2 GT ISZERO PUSH2 0x2647 JUMPI PUSH1 0x40 MLOAD PUSH3 0x461BCD PUSH1 0xE5 SHL DUP2 MSTORE PUSH1 0x4 ADD DUP1 DUP1 PUSH1 0x20 ADD DUP3 DUP2 SUB DUP3 MSTORE PUSH1 0x24 DUP2 MSTORE PUSH1 0x20 ADD DUP1 PUSH2 0x4D51 PUSH1 0x24 SWAP2 CODECOPY PUSH1 0x40 ADD SWAP2 POP POP PUSH1 0x40 MLOAD DUP1 SWAP2 SUB SWAP1 REVERT JUMPDEST PUSH1 0xC DUP2 SWAP1 SSTORE PUSH1 0x3 SLOAD PUSH2 0x2667 SWAP1 PUSH2 0x100 SWAP1 DIV PUSH1 0x1 PUSH1 0x1 PUSH1 0xA0 SHL SUB AND DUP5 PUSH2 0x3543 JUMP JUMPDEST PUSH1 0x3 SLOAD PUSH1 0x40 DUP1 MLOAD PUSH2 0x100 SWAP1 SWAP3 DIV PUSH1 0x1 PUSH1 0x1 PUSH1 0xA0 SHL SUB AND DUP3 MSTORE PUSH1 0x20 DUP3 ADD DUP6 SWAP1 MSTORE DUP2 DUP2 ADD DUP4 SWAP1 MSTORE MLOAD PUSH32 0x3BAD0C59CF2F06E7314077049F48A93578CD16F5EF92329F1DAB1420A99C177E SWAP2 PUSH1 0x60 SWAP1 DUP3 SWAP1 SUB ADD SWAP1 LOG1 PUSH1 0x0 PUSH2 0x1238 JUMP JUMPDEST PUSH1 0x0 DUP1 SLOAD PUSH1 0xFF AND PUSH2 0x2704 JUMPI PUSH1 0x40 DUP1 MLOAD PUSH3 0x461BCD PUSH1 0xE5 SHL DUP2 MSTORE PUSH1 0x20 PUSH1 0x4 DUP3 ADD MSTORE PUSH1 0xA PUSH1 0x24 DUP3 ADD MSTORE PUSH10 0x1C994B595B9D195C9959 PUSH1 0xB2 SHL PUSH1 0x44 DUP3 ADD MSTORE SWAP1 MLOAD SWAP1 DUP2 SWAP1 SUB PUSH1 0x64 ADD SWAP1 REVERT JUMPDEST PUSH1 0x0 DUP1 SLOAD PUSH1 0xFF NOT AND DUP2 SSTORE PUSH2 0x2716 PUSH2 0x15C9 JUMP JUMPDEST SWAP1 POP DUP1 ISZERO PUSH2 0x2734 JUMPI PUSH2 0x10AD DUP2 PUSH1 0x10 DUP2 GT ISZERO PUSH2 0x272D JUMPI INVALID JUMPDEST PUSH1 0x27 PUSH2 0x2526 JUMP JUMPDEST PUSH2 0x10BE CALLER PUSH1 0x0 DUP6 PUSH2 0x363A JUMP JUMPDEST PUSH1 0x1 PUSH1 0x1 PUSH1 0xA0 SHL SUB DUP2 AND PUSH1 0x0 SWAP1 DUP2 MSTORE PUSH1 0x10 PUSH1 0x20 MSTORE PUSH1 0x40 DUP2 KECCAK256 DUP1 SLOAD DUP3 SWAP2 DUP3 SWAP2 DUP3 SWAP2 DUP3 SWAP2 PUSH2 0x2777 JUMPI POP PUSH1 0x0 SWAP5 POP DUP5 SWAP4 POP PUSH2 0x27EF SWAP3 POP POP POP JUMP JUMPDEST PUSH2 0x2787 DUP2 PUSH1 0x0 ADD SLOAD PUSH1 0xA SLOAD PUSH2 0x3B01 JUMP JUMPDEST SWAP1 SWAP5 POP SWAP3 POP PUSH1 0x0 DUP5 PUSH1 0x3 DUP2 GT ISZERO PUSH2 0x279A JUMPI INVALID JUMPDEST EQ PUSH2 0x27AF JUMPI POP SWAP2 SWAP4 POP PUSH1 0x0 SWAP3 POP PUSH2 0x27EF SWAP2 POP POP JUMP JUMPDEST PUSH2 0x27BD DUP4 DUP3 PUSH1 0x1 ADD SLOAD PUSH2 0x3B40 JUMP JUMPDEST SWAP1 SWAP5 POP SWAP2 POP PUSH1 0x0 DUP5 PUSH1 0x3 DUP2 GT ISZERO PUSH2 0x27D0 JUMPI INVALID JUMPDEST EQ PUSH2 0x27E5 JUMPI POP SWAP2 SWAP4 POP PUSH1 0x0 SWAP3 POP PUSH2 0x27EF SWAP2 POP POP JUMP JUMPDEST POP PUSH1 0x0 SWAP5 POP SWAP3 POP POP POP JUMPDEST SWAP2 POP SWAP2 JUMP JUMPDEST NUMBER SWAP1 JUMP JUMPDEST PUSH1 0x3 SLOAD PUSH1 0x0 SWAP1 DUP2 SWAP1 PUSH2 0x100 SWAP1 DIV PUSH1 0x1 PUSH1 0x1 PUSH1 0xA0 SHL SUB AND CALLER EQ PUSH2 0x2820 JUMPI PUSH2 0x1E01 PUSH1 0x1 PUSH1 0x42 PUSH2 0x2526 JUMP JUMPDEST PUSH2 0x2828 PUSH2 0x27F4 JUMP JUMPDEST PUSH1 0x9 SLOAD EQ PUSH2 0x283C JUMPI PUSH2 0x1E01 PUSH1 0xA PUSH1 0x41 PUSH2 0x2526 JUMP JUMPDEST PUSH1 0x6 PUSH1 0x0 SWAP1 SLOAD SWAP1 PUSH2 0x100 EXP SWAP1 DIV PUSH1 0x1 PUSH1 0x1 PUSH1 0xA0 SHL SUB AND SWAP1 POP DUP3 PUSH1 0x1 PUSH1 0x1 PUSH1 0xA0 SHL SUB AND PUSH4 0x2191F92A PUSH1 0x40 MLOAD DUP2 PUSH4 0xFFFFFFFF AND PUSH1 0xE0 SHL DUP2 MSTORE PUSH1 0x4 ADD PUSH1 0x20 PUSH1 0x40 MLOAD DUP1 DUP4 SUB DUP2 DUP7 DUP1 EXTCODESIZE ISZERO DUP1 ISZERO PUSH2 0x288D JUMPI PUSH1 0x0 DUP1 REVERT JUMPDEST POP GAS STATICCALL ISZERO DUP1 ISZERO PUSH2 0x28A1 JUMPI RETURNDATASIZE PUSH1 0x0 DUP1 RETURNDATACOPY RETURNDATASIZE PUSH1 0x0 REVERT JUMPDEST POP POP POP POP PUSH1 0x40 MLOAD RETURNDATASIZE PUSH1 0x20 DUP2 LT ISZERO PUSH2 0x28B7 JUMPI PUSH1 0x0 DUP1 REVERT JUMPDEST POP MLOAD PUSH2 0x290A JUMPI PUSH1 0x40 DUP1 MLOAD PUSH3 0x461BCD PUSH1 0xE5 SHL DUP2 MSTORE PUSH1 0x20 PUSH1 0x4 DUP3 ADD MSTORE PUSH1 0x1C PUSH1 0x24 DUP3 ADD MSTORE PUSH32 0x6D61726B6572206D6574686F642072657475726E65642066616C736500000000 PUSH1 0x44 DUP3 ADD MSTORE SWAP1 MLOAD SWAP1 DUP2 SWAP1 SUB PUSH1 0x64 ADD SWAP1 REVERT JUMPDEST PUSH1 0x6 DUP1 SLOAD PUSH1 0x1 PUSH1 0x1 PUSH1 0xA0 SHL SUB NOT AND PUSH1 0x1 PUSH1 0x1 PUSH1 0xA0 SHL SUB DUP6 DUP2 AND SWAP2 DUP3 OR SWAP1 SWAP3 SSTORE PUSH1 0x40 DUP1 MLOAD SWAP3 DUP5 AND DUP4 MSTORE PUSH1 0x20 DUP4 ADD SWAP2 SWAP1 SWAP2 MSTORE DUP1 MLOAD PUSH32 0xEDFFC32E068C7C95DFD4BDFD5C4D939A084D6B11C4199EAC8436ED234D72F926 SWAP3 DUP2 SWAP1 SUB SWAP1 SWAP2 ADD SWAP1 LOG1 PUSH1 0x0 PUSH2 0x1238 JUMP JUMPDEST PUSH1 0x0 DUP1 SLOAD DUP2 SWAP1 PUSH1 0xFF AND PUSH2 0x29B4 JUMPI PUSH1 0x40 DUP1 MLOAD PUSH3 0x461BCD PUSH1 0xE5 SHL DUP2 MSTORE PUSH1 0x20 PUSH1 0x4 DUP3 ADD MSTORE PUSH1 0xA PUSH1 0x24 DUP3 ADD MSTORE PUSH10 0x1C994B595B9D195C9959 PUSH1 0xB2 SHL PUSH1 0x44 DUP3 ADD MSTORE SWAP1 MLOAD SWAP1 DUP2 SWAP1 SUB PUSH1 0x64 ADD SWAP1 REVERT JUMPDEST PUSH1 0x0 DUP1 SLOAD PUSH1 0xFF NOT AND DUP2 SSTORE PUSH2 0x29C6 PUSH2 0x15C9 JUMP JUMPDEST SWAP1 POP DUP1 ISZERO PUSH2 0x29E4 JUMPI PUSH2 0x1FA6 DUP2 PUSH1 0x10 DUP2 GT ISZERO PUSH2 0x29DD JUMPI INVALID JUMPDEST PUSH1 0x1E PUSH2 0x2526 JUMP JUMPDEST PUSH2 0x1FBE CALLER DUP6 PUSH2 0x3B6B JUMP JUMPDEST PUSH1 0x0 DUP1 DUP4 DUP4 GT PUSH2 0x2A05 JUMPI POP PUSH1 0x0 SWAP1 POP DUP2 DUP4 SUB PUSH2 0x240B JUMP JUMPDEST POP PUSH1 0x3 SWAP1 POP PUSH1 0x0 PUSH2 0x240B JUMP JUMPDEST PUSH1 0x0 PUSH2 0x2A1B PUSH2 0x497C JUMP JUMPDEST PUSH1 0x0 DUP1 PUSH2 0x2A2C DUP7 PUSH1 0x0 ADD MLOAD DUP7 PUSH2 0x3B01 JUMP JUMPDEST SWAP1 SWAP3 POP SWAP1 POP PUSH1 0x0 DUP3 PUSH1 0x3 DUP2 GT ISZERO PUSH2 0x2A3F JUMPI INVALID JUMPDEST EQ PUSH2 0x2A5E JUMPI POP PUSH1 0x40 DUP1 MLOAD PUSH1 0x20 DUP2 ADD SWAP1 SWAP2 MSTORE PUSH1 0x0 DUP2 MSTORE SWAP1 SWAP3 POP SWAP1 POP PUSH2 0x240B JUMP JUMPDEST PUSH1 0x40 DUP1 MLOAD PUSH1 0x20 DUP2 ADD SWAP1 SWAP2 MSTORE SWAP1 DUP2 MSTORE PUSH1 0x0 SWAP7 SWAP1 SWAP6 POP SWAP4 POP POP POP POP JUMP JUMPDEST PUSH1 0x0 PUSH32 0x45B96FE442630264581B197E84BBADA861235052C5A1AADFFF9EA4E40A969AA0 DUP5 PUSH1 0x10 DUP2 GT ISZERO PUSH2 0x2AA8 JUMPI INVALID JUMPDEST DUP5 PUSH1 0x50 DUP2 GT ISZERO PUSH2 0x2AB4 JUMPI INVALID JUMPDEST PUSH1 0x40 DUP1 MLOAD SWAP3 DUP4 MSTORE PUSH1 0x20 DUP4 ADD SWAP2 SWAP1 SWAP2 MSTORE DUP2 DUP2 ADD DUP6 SWAP1 MSTORE MLOAD SWAP1 DUP2 SWAP1 SUB PUSH1 0x60 ADD SWAP1 LOG1 DUP4 PUSH1 0x10 DUP2 GT ISZERO PUSH2 0x1010 JUMPI INVALID JUMPDEST PUSH1 0x0 DUP1 DUP4 DUP4 ADD DUP5 DUP2 LT PUSH2 0x2AF7 JUMPI PUSH1 0x0 SWAP3 POP SWAP1 POP PUSH2 0x240B JUMP JUMPDEST POP PUSH1 0x2 SWAP2 POP PUSH1 0x0 SWAP1 POP PUSH2 0x240B JUMP JUMPDEST PUSH1 0x0 DUP1 PUSH1 0x0 PUSH2 0x2B12 PUSH2 0x497C JUMP JUMPDEST PUSH2 0x2B1C DUP8 DUP8 PUSH2 0x2A11 JUMP JUMPDEST SWAP1 SWAP3 POP SWAP1 POP PUSH1 0x0 DUP3 PUSH1 0x3 DUP2 GT ISZERO PUSH2 0x2B2F JUMPI INVALID JUMPDEST EQ PUSH2 0x2B40 JUMPI POP SWAP2 POP PUSH1 0x0 SWAP1 POP PUSH2 0x2B59 JUMP JUMPDEST PUSH2 0x2B52 PUSH2 0x2B4C DUP3 PUSH2 0x344C JUMP JUMPDEST DUP7 PUSH2 0x2ADF JUMP JUMPDEST SWAP4 POP SWAP4 POP POP POP JUMPDEST SWAP4 POP SWAP4 SWAP2 POP POP JUMP JUMPDEST PUSH1 0x5 SLOAD PUSH1 0x40 DUP1 MLOAD PUSH4 0xD02F7351 PUSH1 0xE0 SHL DUP2 MSTORE ADDRESS PUSH1 0x4 DUP3 ADD MSTORE PUSH1 0x1 PUSH1 0x1 PUSH1 0xA0 SHL SUB DUP8 DUP2 AND PUSH1 0x24 DUP4 ADD MSTORE DUP7 DUP2 AND PUSH1 0x44 DUP4 ADD MSTORE DUP6 DUP2 AND PUSH1 0x64 DUP4 ADD MSTORE PUSH1 0x84 DUP3 ADD DUP6 SWAP1 MSTORE SWAP2 MLOAD PUSH1 0x0 SWAP4 DUP5 SWAP4 AND SWAP2 PUSH4 0xD02F7351 SWAP2 PUSH1 0xA4 DUP1 DUP4 ADD SWAP3 PUSH1 0x20 SWAP3 SWAP2 SWAP1 DUP3 SWAP1 SUB ADD DUP2 DUP8 DUP8 DUP1 EXTCODESIZE ISZERO DUP1 ISZERO PUSH2 0x2BCE JUMPI PUSH1 0x0 DUP1 REVERT JUMPDEST POP GAS CALL ISZERO DUP1 ISZERO PUSH2 0x2BE2 JUMPI RETURNDATASIZE PUSH1 0x0 DUP1 RETURNDATACOPY RETURNDATASIZE PUSH1 0x0 REVERT JUMPDEST POP POP POP POP PUSH1 0x40 MLOAD RETURNDATASIZE PUSH1 0x20 DUP2 LT ISZERO PUSH2 0x2BF8 JUMPI PUSH1 0x0 DUP1 REVERT JUMPDEST POP MLOAD SWAP1 POP DUP1 ISZERO PUSH2 0x2C0F JUMPI PUSH2 0x212D PUSH1 0x3 PUSH1 0x1B DUP4 PUSH2 0x2A79 JUMP JUMPDEST DUP5 PUSH1 0x1 PUSH1 0x1 PUSH1 0xA0 SHL SUB AND DUP5 PUSH1 0x1 PUSH1 0x1 PUSH1 0xA0 SHL SUB AND EQ ISZERO PUSH2 0x2C35 JUMPI PUSH2 0x212D PUSH1 0x6 PUSH1 0x1C PUSH2 0x2526 JUMP JUMPDEST PUSH1 0x1 PUSH1 0x1 PUSH1 0xA0 SHL SUB DUP5 AND PUSH1 0x0 SWAP1 DUP2 MSTORE PUSH1 0xE PUSH1 0x20 MSTORE PUSH1 0x40 DUP2 KECCAK256 SLOAD DUP2 SWAP1 DUP2 SWAP1 PUSH2 0x2C5C SWAP1 DUP8 PUSH2 0x29EE JUMP JUMPDEST SWAP1 SWAP4 POP SWAP2 POP PUSH1 0x0 DUP4 PUSH1 0x3 DUP2 GT ISZERO PUSH2 0x2C6F JUMPI INVALID JUMPDEST EQ PUSH2 0x2C92 JUMPI PUSH2 0x2C87 PUSH1 0x9 PUSH1 0x1A DUP6 PUSH1 0x3 DUP2 GT ISZERO PUSH2 0x17B1 JUMPI INVALID JUMPDEST SWAP5 POP POP POP POP POP PUSH2 0x1010 JUMP JUMPDEST PUSH1 0x1 PUSH1 0x1 PUSH1 0xA0 SHL SUB DUP9 AND PUSH1 0x0 SWAP1 DUP2 MSTORE PUSH1 0xE PUSH1 0x20 MSTORE PUSH1 0x40 SWAP1 KECCAK256 SLOAD PUSH2 0x2CB5 SWAP1 DUP8 PUSH2 0x2ADF JUMP JUMPDEST SWAP1 SWAP4 POP SWAP1 POP PUSH1 0x0 DUP4 PUSH1 0x3 DUP2 GT ISZERO PUSH2 0x2CC8 JUMPI INVALID JUMPDEST EQ PUSH2 0x2CE0 JUMPI PUSH2 0x2C87 PUSH1 0x9 PUSH1 0x19 DUP6 PUSH1 0x3 DUP2 GT ISZERO PUSH2 0x17B1 JUMPI INVALID JUMPDEST PUSH1 0x1 PUSH1 0x1 PUSH1 0xA0 SHL SUB DUP1 DUP9 AND PUSH1 0x0 DUP2 DUP2 MSTORE PUSH1 0xE PUSH1 0x20 SWAP1 DUP2 MSTORE PUSH1 0x40 DUP1 DUP4 KECCAK256 DUP8 SWAP1 SSTORE SWAP4 DUP13 AND DUP1 DUP4 MSTORE SWAP2 DUP5 SWAP1 KECCAK256 DUP6 SWAP1 SSTORE DUP4 MLOAD DUP11 DUP2 MSTORE SWAP4 MLOAD SWAP2 SWAP4 PUSH1 0x0 DUP1 MLOAD PUSH1 0x20 PUSH2 0x4C3C DUP4 CODECOPY DUP2 MLOAD SWAP2 MSTORE SWAP3 SWAP1 DUP2 SWAP1 SUB SWAP1 SWAP2 ADD SWAP1 LOG3 PUSH1 0x0 SWAP10 SWAP9 POP POP POP POP POP POP POP POP POP JUMP JUMPDEST PUSH1 0x0 DUP1 SLOAD PUSH1 0xFF AND PUSH2 0x2D82 JUMPI PUSH1 0x40 DUP1 MLOAD PUSH3 0x461BCD PUSH1 0xE5 SHL DUP2 MSTORE PUSH1 0x20 PUSH1 0x4 DUP3 ADD MSTORE PUSH1 0xA PUSH1 0x24 DUP3 ADD MSTORE PUSH10 0x1C994B595B9D195C9959 PUSH1 0xB2 SHL PUSH1 0x44 DUP3 ADD MSTORE SWAP1 MLOAD SWAP1 DUP2 SWAP1 SUB PUSH1 0x64 ADD SWAP1 REVERT JUMPDEST PUSH1 0x0 DUP1 SLOAD PUSH1 0xFF NOT AND DUP2 SSTORE PUSH2 0x2D94 PUSH2 0x15C9 JUMP JUMPDEST SWAP1 POP DUP1 ISZERO PUSH2 0x2DB2 JUMPI PUSH2 0x10AD DUP2 PUSH1 0x10 DUP2 GT ISZERO PUSH2 0x2DAB JUMPI INVALID JUMPDEST PUSH1 0x8 PUSH2 0x2526 JUMP JUMPDEST PUSH2 0x10BE CALLER DUP5 PUSH2 0x3F3B JUMP JUMPDEST PUSH1 0x0 DUP1 SLOAD PUSH1 0xFF AND PUSH2 0x2E01 JUMPI PUSH1 0x40 DUP1 MLOAD PUSH3 0x461BCD PUSH1 0xE5 SHL DUP2 MSTORE PUSH1 0x20 PUSH1 0x4 DUP3 ADD MSTORE PUSH1 0xA PUSH1 0x24 DUP3 ADD MSTORE PUSH10 0x1C994B595B9D195C9959 PUSH1 0xB2 SHL PUSH1 0x44 DUP3 ADD MSTORE SWAP1 MLOAD SWAP1 DUP2 SWAP1 SUB PUSH1 0x64 ADD SWAP1 REVERT JUMPDEST PUSH1 0x0 DUP1 SLOAD PUSH1 0xFF NOT AND DUP2 SSTORE PUSH2 0x2E13 PUSH2 0x15C9 JUMP JUMPDEST SWAP1 POP DUP1 ISZERO PUSH2 0x2E2A JUMPI PUSH2 0x10AD DUP2 PUSH1 0x10 DUP2 GT ISZERO PUSH2 0x272D JUMPI INVALID JUMPDEST PUSH2 0x10BE CALLER DUP5 PUSH1 0x0 PUSH2 0x363A JUMP JUMPDEST PUSH1 0x0 DUP1 SLOAD DUP2 SWAP1 PUSH1 0xFF AND PUSH2 0x2E7D JUMPI PUSH1 0x40 DUP1 MLOAD PUSH3 0x461BCD PUSH1 0xE5 SHL DUP2 MSTORE PUSH1 0x20 PUSH1 0x4 DUP3 ADD MSTORE PUSH1 0xA PUSH1 0x24 DUP3 ADD MSTORE PUSH10 0x1C994B595B9D195C9959 PUSH1 0xB2 SHL PUSH1 0x44 DUP3 ADD MSTORE SWAP1 MLOAD SWAP1 DUP2 SWAP1 SUB PUSH1 0x64 ADD SWAP1 REVERT JUMPDEST PUSH1 0x0 DUP1 SLOAD PUSH1 0xFF NOT AND DUP2 SSTORE PUSH2 0x2E8F PUSH2 0x15C9 JUMP JUMPDEST SWAP1 POP DUP1 ISZERO PUSH2 0x2EBA JUMPI PUSH2 0x2EAD DUP2 PUSH1 0x10 DUP2 GT ISZERO PUSH2 0x2EA6 JUMPI INVALID JUMPDEST PUSH1 0xF PUSH2 0x2526 JUMP JUMPDEST SWAP3 POP PUSH1 0x0 SWAP2 POP PUSH2 0x2F51 SWAP1 POP JUMP JUMPDEST DUP4 PUSH1 0x1 PUSH1 0x1 PUSH1 0xA0 SHL SUB AND PUSH4 0xA6AFED95 PUSH1 0x40 MLOAD DUP2 PUSH4 0xFFFFFFFF AND PUSH1 0xE0 SHL DUP2 MSTORE PUSH1 0x4 ADD PUSH1 0x20 PUSH1 0x40 MLOAD DUP1 DUP4 SUB DUP2 PUSH1 0x0 DUP8 DUP1 EXTCODESIZE ISZERO DUP1 ISZERO PUSH2 0x2EF5 JUMPI PUSH1 0x0 DUP1 REVERT JUMPDEST POP GAS CALL ISZERO DUP1 ISZERO PUSH2 0x2F09 JUMPI RETURNDATASIZE PUSH1 0x0 DUP1 RETURNDATACOPY RETURNDATASIZE PUSH1 0x0 REVERT JUMPDEST POP POP POP POP PUSH1 0x40 MLOAD RETURNDATASIZE PUSH1 0x20 DUP2 LT ISZERO PUSH2 0x2F1F JUMPI PUSH1 0x0 DUP1 REVERT JUMPDEST POP MLOAD SWAP1 POP DUP1 ISZERO PUSH2 0x2F3F JUMPI PUSH2 0x2EAD DUP2 PUSH1 0x10 DUP2 GT ISZERO PUSH2 0x2F38 JUMPI INVALID JUMPDEST PUSH1 0x10 PUSH2 0x2526 JUMP JUMPDEST PUSH2 0x2F4B CALLER DUP8 DUP8 DUP8 PUSH2 0x41CF JUMP JUMPDEST SWAP3 POP SWAP3 POP POP JUMPDEST PUSH1 0x0 DUP1 SLOAD PUSH1 0xFF NOT AND PUSH1 0x1 OR SWAP1 SSTORE SWAP1 SWAP5 SWAP1 SWAP4 POP SWAP2 POP POP JUMP JUMPDEST PUSH1 0x3 SLOAD PUSH1 0x0 SWAP1 PUSH2 0x100 SWAP1 DIV PUSH1 0x1 PUSH1 0x1 PUSH1 0xA0 SHL SUB AND CALLER EQ PUSH2 0x2F8E JUMPI PUSH2 0x110E PUSH1 0x1 PUSH1 0x47 PUSH2 0x2526 JUMP JUMPDEST PUSH2 0x2F96 PUSH2 0x27F4 JUMP JUMPDEST PUSH1 0x9 SLOAD EQ PUSH2 0x2FAA JUMPI PUSH2 0x110E PUSH1 0xA PUSH1 0x48 PUSH2 0x2526 JUMP JUMPDEST PUSH8 0xDE0B6B3A7640000 DUP3 GT ISZERO PUSH2 0x2FC6 JUMPI PUSH2 0x110E PUSH1 0x2 PUSH1 0x49 PUSH2 0x2526 JUMP JUMPDEST PUSH1 0x8 DUP1 SLOAD SWAP1 DUP4 SWAP1 SSTORE PUSH1 0x40 DUP1 MLOAD DUP3 DUP2 MSTORE PUSH1 0x20 DUP2 ADD DUP6 SWAP1 MSTORE DUP2 MLOAD PUSH32 0xAAA68312E2EA9D50E16AF5068410AB56E1A1FD06037B1A35664812C30F821460 SWAP3 SWAP2 DUP2 SWAP1 SUB SWAP1 SWAP2 ADD SWAP1 LOG1 PUSH1 0x0 PUSH2 0x1238 JUMP JUMPDEST PUSH1 0x5 SLOAD PUSH1 0x40 DUP1 MLOAD PUSH4 0x12004531 PUSH1 0xE1 SHL DUP2 MSTORE ADDRESS PUSH1 0x4 DUP3 ADD MSTORE PUSH1 0x1 PUSH1 0x1 PUSH1 0xA0 SHL SUB DUP7 DUP2 AND PUSH1 0x24 DUP4 ADD MSTORE DUP6 DUP2 AND PUSH1 0x44 DUP4 ADD MSTORE PUSH1 0x64 DUP3 ADD DUP6 SWAP1 MSTORE SWAP2 MLOAD PUSH1 0x0 SWAP4 DUP5 SWAP4 DUP5 SWAP4 SWAP2 AND SWAP2 PUSH4 0x24008A62 SWAP2 PUSH1 0x84 DUP1 DUP3 ADD SWAP3 PUSH1 0x20 SWAP3 SWAP1 SWAP2 SWAP1 DUP3 SWAP1 SUB ADD DUP2 DUP8 DUP8 DUP1 EXTCODESIZE ISZERO DUP1 ISZERO PUSH2 0x3079 JUMPI PUSH1 0x0 DUP1 REVERT JUMPDEST POP GAS CALL ISZERO DUP1 ISZERO PUSH2 0x308D JUMPI RETURNDATASIZE PUSH1 0x0 DUP1 RETURNDATACOPY RETURNDATASIZE PUSH1 0x0 REVERT JUMPDEST POP POP POP POP PUSH1 0x40 MLOAD RETURNDATASIZE PUSH1 0x20 DUP2 LT ISZERO PUSH2 0x30A3 JUMPI PUSH1 0x0 DUP1 REVERT JUMPDEST POP MLOAD SWAP1 POP DUP1 ISZERO PUSH2 0x30C7 JUMPI PUSH2 0x30BA PUSH1 0x3 PUSH1 0x38 DUP4 PUSH2 0x2A79 JUMP JUMPDEST SWAP3 POP PUSH1 0x0 SWAP2 POP PUSH2 0x2B59 SWAP1 POP JUMP JUMPDEST PUSH2 0x30CF PUSH2 0x27F4 JUMP JUMPDEST PUSH1 0x9 SLOAD EQ PUSH2 0x30E3 JUMPI PUSH2 0x30BA PUSH1 0xA PUSH1 0x39 PUSH2 0x2526 JUMP JUMPDEST PUSH2 0x30EB PUSH2 0x4A0D JUMP JUMPDEST PUSH1 0x1 PUSH1 0x1 PUSH1 0xA0 SHL SUB DUP7 AND PUSH1 0x0 SWAP1 DUP2 MSTORE PUSH1 0x10 PUSH1 0x20 MSTORE PUSH1 0x40 SWAP1 KECCAK256 PUSH1 0x1 ADD SLOAD PUSH1 0x60 DUP3 ADD MSTORE PUSH2 0x3115 DUP7 PUSH2 0x2740 JUMP JUMPDEST PUSH1 0x80 DUP4 ADD DUP2 SWAP1 MSTORE PUSH1 0x20 DUP4 ADD DUP3 PUSH1 0x3 DUP2 GT ISZERO PUSH2 0x312C JUMPI INVALID JUMPDEST PUSH1 0x3 DUP2 GT ISZERO PUSH2 0x3137 JUMPI INVALID JUMPDEST SWAP1 MSTORE POP PUSH1 0x0 SWAP1 POP DUP2 PUSH1 0x20 ADD MLOAD PUSH1 0x3 DUP2 GT ISZERO PUSH2 0x314E JUMPI INVALID JUMPDEST EQ PUSH2 0x3178 JUMPI PUSH2 0x316A PUSH1 0x9 PUSH1 0x37 DUP4 PUSH1 0x20 ADD MLOAD PUSH1 0x3 DUP2 GT ISZERO PUSH2 0x17B1 JUMPI INVALID JUMPDEST SWAP4 POP PUSH1 0x0 SWAP3 POP PUSH2 0x2B59 SWAP2 POP POP JUMP JUMPDEST PUSH1 0x0 NOT DUP6 EQ ISZERO PUSH2 0x3191 JUMPI PUSH1 0x80 DUP2 ADD MLOAD PUSH1 0x40 DUP3 ADD MSTORE PUSH2 0x3199 JUMP JUMPDEST PUSH1 0x40 DUP2 ADD DUP6 SWAP1 MSTORE JUMPDEST PUSH2 0x31A7 DUP8 DUP3 PUSH1 0x40 ADD MLOAD PUSH2 0x46C1 JUMP JUMPDEST PUSH1 0xE0 DUP3 ADD DUP2 SWAP1 MSTORE PUSH1 0x80 DUP3 ADD MLOAD PUSH2 0x31BC SWAP2 PUSH2 0x29EE JUMP JUMPDEST PUSH1 0xA0 DUP4 ADD DUP2 SWAP1 MSTORE PUSH1 0x20 DUP4 ADD DUP3 PUSH1 0x3 DUP2 GT ISZERO PUSH2 0x31D3 JUMPI INVALID JUMPDEST PUSH1 0x3 DUP2 GT ISZERO PUSH2 0x31DE JUMPI INVALID JUMPDEST SWAP1 MSTORE POP PUSH1 0x0 SWAP1 POP DUP2 PUSH1 0x20 ADD MLOAD PUSH1 0x3 DUP2 GT ISZERO PUSH2 0x31F5 JUMPI INVALID JUMPDEST EQ PUSH2 0x3231 JUMPI PUSH1 0x40 MLOAD PUSH3 0x461BCD PUSH1 0xE5 SHL DUP2 MSTORE PUSH1 0x4 ADD DUP1 DUP1 PUSH1 0x20 ADD DUP3 DUP2 SUB DUP3 MSTORE PUSH1 0x3A DUP2 MSTORE PUSH1 0x20 ADD DUP1 PUSH2 0x4C02 PUSH1 0x3A SWAP2 CODECOPY PUSH1 0x40 ADD SWAP2 POP POP PUSH1 0x40 MLOAD DUP1 SWAP2 SUB SWAP1 REVERT JUMPDEST PUSH2 0x3241 PUSH1 0xB SLOAD DUP3 PUSH1 0xE0 ADD MLOAD PUSH2 0x29EE JUMP JUMPDEST PUSH1 0xC0 DUP4 ADD DUP2 SWAP1 MSTORE PUSH1 0x20 DUP4 ADD DUP3 PUSH1 0x3 DUP2 GT ISZERO PUSH2 0x3258 JUMPI INVALID JUMPDEST PUSH1 0x3 DUP2 GT ISZERO PUSH2 0x3263 JUMPI INVALID JUMPDEST SWAP1 MSTORE POP PUSH1 0x0 SWAP1 POP DUP2 PUSH1 0x20 ADD MLOAD PUSH1 0x3 DUP2 GT ISZERO PUSH2 0x327A JUMPI INVALID JUMPDEST EQ PUSH2 0x32B6 JUMPI PUSH1 0x40 MLOAD PUSH3 0x461BCD PUSH1 0xE5 SHL DUP2 MSTORE PUSH1 0x4 ADD DUP1 DUP1 PUSH1 0x20 ADD DUP3 DUP2 SUB DUP3 MSTORE PUSH1 0x31 DUP2 MSTORE PUSH1 0x20 ADD DUP1 PUSH2 0x4C5C PUSH1 0x31 SWAP2 CODECOPY PUSH1 0x40 ADD SWAP2 POP POP PUSH1 0x40 MLOAD DUP1 SWAP2 SUB SWAP1 REVERT JUMPDEST PUSH1 0xA0 DUP1 DUP3 ADD DUP1 MLOAD PUSH1 0x1 PUSH1 0x1 PUSH1 0xA0 SHL SUB DUP1 DUP11 AND PUSH1 0x0 DUP2 DUP2 MSTORE PUSH1 0x10 PUSH1 0x20 SWAP1 DUP2 MSTORE PUSH1 0x40 SWAP2 DUP3 SWAP1 KECCAK256 SWAP5 DUP6 SSTORE PUSH1 0xA SLOAD PUSH1 0x1 SWAP1 SWAP6 ADD SWAP5 SWAP1 SWAP5 SSTORE PUSH1 0xC0 DUP8 ADD MLOAD PUSH1 0xB DUP2 SWAP1 SSTORE PUSH1 0xE0 DUP9 ADD MLOAD SWAP6 MLOAD DUP3 MLOAD SWAP5 DUP16 AND DUP6 MSTORE SWAP5 DUP5 ADD SWAP3 SWAP1 SWAP3 MSTORE DUP3 DUP2 ADD SWAP5 SWAP1 SWAP5 MSTORE PUSH1 0x60 DUP3 ADD SWAP3 SWAP1 SWAP3 MSTORE PUSH1 0x80 DUP2 ADD SWAP2 SWAP1 SWAP2 MSTORE SWAP1 MLOAD PUSH32 0x1A2A22CB034D26D1854BDC6666A5B91FE25EFBBB5DCAD3B0355478D6F5C362A1 SWAP3 SWAP2 DUP2 SWAP1 SUB SWAP1 SWAP2 ADD SWAP1 LOG1 PUSH1 0xE0 ADD MLOAD PUSH1 0x0 SWAP8 SWAP1 SWAP7 POP SWAP5 POP POP POP POP POP JUMP JUMPDEST PUSH1 0x0 DUP1 PUSH1 0x0 DUP1 PUSH2 0x336E DUP8 DUP8 PUSH2 0x2ADF JUMP JUMPDEST SWAP1 SWAP3 POP SWAP1 POP PUSH1 0x0 DUP3 PUSH1 0x3 DUP2 GT ISZERO PUSH2 0x3381 JUMPI INVALID JUMPDEST EQ PUSH2 0x3392 JUMPI POP SWAP2 POP PUSH1 0x0 SWAP1 POP PUSH2 0x2B59 JUMP JUMPDEST PUSH2 0x2B52 DUP2 DUP7 PUSH2 0x29EE JUMP JUMPDEST PUSH1 0x0 PUSH2 0x33A6 PUSH2 0x497C JUMP JUMPDEST PUSH1 0x0 DUP1 PUSH2 0x33BB DUP7 PUSH8 0xDE0B6B3A7640000 PUSH2 0x3B01 JUMP JUMPDEST SWAP1 SWAP3 POP SWAP1 POP PUSH1 0x0 DUP3 PUSH1 0x3 DUP2 GT ISZERO PUSH2 0x33CE JUMPI INVALID JUMPDEST EQ PUSH2 0x33ED JUMPI POP PUSH1 0x40 DUP1 MLOAD PUSH1 0x20 DUP2 ADD SWAP1 SWAP2 MSTORE PUSH1 0x0 DUP2 MSTORE SWAP1 SWAP3 POP SWAP1 POP PUSH2 0x240B JUMP JUMPDEST PUSH1 0x0 DUP1 PUSH2 0x33FA DUP4 DUP9 PUSH2 0x3B40 JUMP JUMPDEST SWAP1 SWAP3 POP SWAP1 POP PUSH1 0x0 DUP3 PUSH1 0x3 DUP2 GT ISZERO PUSH2 0x340D JUMPI INVALID JUMPDEST EQ PUSH2 0x342F JUMPI POP PUSH1 0x40 DUP1 MLOAD PUSH1 0x20 DUP2 ADD SWAP1 SWAP2 MSTORE PUSH1 0x0 DUP2 MSTORE SWAP1 SWAP5 POP SWAP3 POP PUSH2 0x240B SWAP2 POP POP JUMP JUMPDEST PUSH1 0x40 DUP1 MLOAD PUSH1 0x20 DUP2 ADD SWAP1 SWAP2 MSTORE SWAP1 DUP2 MSTORE PUSH1 0x0 SWAP9 SWAP1 SWAP8 POP SWAP6 POP POP POP POP POP POP JUMP JUMPDEST MLOAD PUSH8 0xDE0B6B3A7640000 SWAP1 DIV SWAP1 JUMP JUMPDEST PUSH1 0x0 DUP1 PUSH1 0x0 DUP1 PUSH2 0x3469 PUSH2 0x27F4 JUMP JUMPDEST PUSH1 0x9 SLOAD EQ PUSH2 0x3488 JUMPI PUSH2 0x347D PUSH1 0xA PUSH1 0x4F PUSH2 0x2526 JUMP JUMPDEST SWAP4 POP SWAP2 POP PUSH2 0x27EF SWAP1 POP JUMP JUMPDEST PUSH2 0x3492 CALLER DUP7 PUSH2 0x46C1 JUMP JUMPDEST SWAP1 POP DUP1 PUSH1 0xC SLOAD ADD SWAP2 POP PUSH1 0xC SLOAD DUP3 LT ISZERO PUSH2 0x34F2 JUMPI PUSH1 0x40 DUP1 MLOAD PUSH3 0x461BCD PUSH1 0xE5 SHL DUP2 MSTORE PUSH1 0x20 PUSH1 0x4 DUP3 ADD DUP2 SWAP1 MSTORE PUSH1 0x24 DUP3 ADD MSTORE PUSH32 0x61646420726573657276657320756E6578706563746564206F766572666C6F77 PUSH1 0x44 DUP3 ADD MSTORE SWAP1 MLOAD SWAP1 DUP2 SWAP1 SUB PUSH1 0x64 ADD SWAP1 REVERT JUMPDEST PUSH1 0xC DUP3 SWAP1 SSTORE PUSH1 0x40 DUP1 MLOAD CALLER DUP2 MSTORE PUSH1 0x20 DUP2 ADD DUP4 SWAP1 MSTORE DUP1 DUP3 ADD DUP5 SWAP1 MSTORE SWAP1 MLOAD PUSH32 0xA91E67C5EA634CD43A12C5A482724B03DE01E85CA68702A53D0C2F45CB7C1DC5 SWAP2 DUP2 SWAP1 SUB PUSH1 0x60 ADD SWAP1 LOG1 PUSH1 0x0 SWAP4 POP SWAP2 POP POP SWAP2 POP SWAP2 JUMP JUMPDEST PUSH1 0x11 SLOAD PUSH1 0x40 DUP1 MLOAD PUSH4 0xA9059CBB PUSH1 0xE0 SHL DUP2 MSTORE PUSH1 0x1 PUSH1 0x1 PUSH1 0xA0 SHL SUB DUP6 DUP2 AND PUSH1 0x4 DUP4 ADD MSTORE PUSH1 0x24 DUP3 ADD DUP6 SWAP1 MSTORE SWAP2 MLOAD SWAP2 SWAP1 SWAP3 AND SWAP2 DUP3 SWAP2 PUSH4 0xA9059CBB SWAP2 PUSH1 0x44 DUP1 DUP3 ADD SWAP3 PUSH1 0x0 SWAP3 SWAP1 SWAP2 SWAP1 DUP3 SWAP1 SUB ADD DUP2 DUP4 DUP8 DUP1 EXTCODESIZE ISZERO DUP1 ISZERO PUSH2 0x359B JUMPI PUSH1 0x0 DUP1 REVERT JUMPDEST POP GAS CALL ISZERO DUP1 ISZERO PUSH2 0x35AF JUMPI RETURNDATASIZE PUSH1 0x0 DUP1 RETURNDATACOPY RETURNDATASIZE PUSH1 0x0 REVERT JUMPDEST POP POP POP POP PUSH1 0x0 RETURNDATASIZE PUSH1 0x0 DUP2 EQ PUSH2 0x35CB JUMPI PUSH1 0x20 DUP2 EQ PUSH2 0x35D5 JUMPI PUSH1 0x0 DUP1 REVERT JUMPDEST PUSH1 0x0 NOT SWAP2 POP PUSH2 0x35E1 JUMP JUMPDEST PUSH1 0x20 PUSH1 0x0 DUP1 RETURNDATACOPY PUSH1 0x0 MLOAD SWAP2 POP JUMPDEST POP DUP1 PUSH2 0x3634 JUMPI PUSH1 0x40 DUP1 MLOAD PUSH3 0x461BCD PUSH1 0xE5 SHL DUP2 MSTORE PUSH1 0x20 PUSH1 0x4 DUP3 ADD MSTORE PUSH1 0x19 PUSH1 0x24 DUP3 ADD MSTORE PUSH32 0x544F4B454E5F5452414E534645525F4F55545F4641494C454400000000000000 PUSH1 0x44 DUP3 ADD MSTORE SWAP1 MLOAD SWAP1 DUP2 SWAP1 SUB PUSH1 0x64 ADD SWAP1 REVERT JUMPDEST POP POP POP POP JUMP JUMPDEST PUSH1 0x0 DUP3 ISZERO DUP1 PUSH2 0x3647 JUMPI POP DUP2 ISZERO JUMPDEST PUSH2 0x3682 JUMPI PUSH1 0x40 MLOAD PUSH3 0x461BCD PUSH1 0xE5 SHL DUP2 MSTORE PUSH1 0x4 ADD DUP1 DUP1 PUSH1 0x20 ADD DUP3 DUP2 SUB DUP3 MSTORE PUSH1 0x34 DUP2 MSTORE PUSH1 0x20 ADD DUP1 PUSH2 0x4D1D PUSH1 0x34 SWAP2 CODECOPY PUSH1 0x40 ADD SWAP2 POP POP PUSH1 0x40 MLOAD DUP1 SWAP2 SUB SWAP1 REVERT JUMPDEST PUSH2 0x368A PUSH2 0x4A53 JUMP JUMPDEST PUSH2 0x3692 PUSH2 0x1FD8 JUMP JUMPDEST PUSH1 0x40 DUP4 ADD DUP2 SWAP1 MSTORE PUSH1 0x20 DUP4 ADD DUP3 PUSH1 0x3 DUP2 GT ISZERO PUSH2 0x36A9 JUMPI INVALID JUMPDEST PUSH1 0x3 DUP2 GT ISZERO PUSH2 0x36B4 JUMPI INVALID JUMPDEST SWAP1 MSTORE POP PUSH1 0x0 SWAP1 POP DUP2 PUSH1 0x20 ADD MLOAD PUSH1 0x3 DUP2 GT ISZERO PUSH2 0x36CB JUMPI INVALID JUMPDEST EQ PUSH2 0x36EF JUMPI PUSH2 0x36E7 PUSH1 0x9 PUSH1 0x2B DUP4 PUSH1 0x20 ADD MLOAD PUSH1 0x3 DUP2 GT ISZERO PUSH2 0x17B1 JUMPI INVALID JUMPDEST SWAP2 POP POP PUSH2 0x1238 JUMP JUMPDEST DUP4 ISZERO PUSH2 0x3770 JUMPI PUSH1 0x60 DUP2 ADD DUP5 SWAP1 MSTORE PUSH1 0x40 DUP1 MLOAD PUSH1 0x20 DUP2 ADD DUP3 MSTORE SWAP1 DUP3 ADD MLOAD DUP2 MSTORE PUSH2 0x3716 SWAP1 DUP6 PUSH2 0x23BE JUMP JUMPDEST PUSH1 0x80 DUP4 ADD DUP2 SWAP1 MSTORE PUSH1 0x20 DUP4 ADD DUP3 PUSH1 0x3 DUP2 GT ISZERO PUSH2 0x372D JUMPI INVALID JUMPDEST PUSH1 0x3 DUP2 GT ISZERO PUSH2 0x3738 JUMPI INVALID JUMPDEST SWAP1 MSTORE POP PUSH1 0x0 SWAP1 POP DUP2 PUSH1 0x20 ADD MLOAD PUSH1 0x3 DUP2 GT ISZERO PUSH2 0x374F JUMPI INVALID JUMPDEST EQ PUSH2 0x376B JUMPI PUSH2 0x36E7 PUSH1 0x9 PUSH1 0x29 DUP4 PUSH1 0x20 ADD MLOAD PUSH1 0x3 DUP2 GT ISZERO PUSH2 0x17B1 JUMPI INVALID JUMPDEST PUSH2 0x37E9 JUMP JUMPDEST PUSH2 0x378C DUP4 PUSH1 0x40 MLOAD DUP1 PUSH1 0x20 ADD PUSH1 0x40 MSTORE DUP1 DUP5 PUSH1 0x40 ADD MLOAD DUP2 MSTORE POP PUSH2 0x490B JUMP JUMPDEST PUSH1 0x60 DUP4 ADD DUP2 SWAP1 MSTORE PUSH1 0x20 DUP4 ADD DUP3 PUSH1 0x3 DUP2 GT ISZERO PUSH2 0x37A3 JUMPI INVALID JUMPDEST PUSH1 0x3 DUP2 GT ISZERO PUSH2 0x37AE JUMPI INVALID JUMPDEST SWAP1 MSTORE POP PUSH1 0x0 SWAP1 POP DUP2 PUSH1 0x20 ADD MLOAD PUSH1 0x3 DUP2 GT ISZERO PUSH2 0x37C5 JUMPI INVALID JUMPDEST EQ PUSH2 0x37E1 JUMPI PUSH2 0x36E7 PUSH1 0x9 PUSH1 0x2A DUP4 PUSH1 0x20 ADD MLOAD PUSH1 0x3 DUP2 GT ISZERO PUSH2 0x17B1 JUMPI INVALID JUMPDEST PUSH1 0x80 DUP2 ADD DUP4 SWAP1 MSTORE JUMPDEST PUSH1 0x5 SLOAD PUSH1 0x60 DUP3 ADD MLOAD PUSH1 0x40 DUP1 MLOAD PUSH4 0xEABE7D91 PUSH1 0xE0 SHL DUP2 MSTORE ADDRESS PUSH1 0x4 DUP3 ADD MSTORE PUSH1 0x1 PUSH1 0x1 PUSH1 0xA0 SHL SUB DUP10 DUP2 AND PUSH1 0x24 DUP4 ADD MSTORE PUSH1 0x44 DUP3 ADD SWAP4 SWAP1 SWAP4 MSTORE SWAP1 MLOAD PUSH1 0x0 SWAP4 SWAP3 SWAP1 SWAP3 AND SWAP2 PUSH4 0xEABE7D91 SWAP2 PUSH1 0x64 DUP1 DUP3 ADD SWAP3 PUSH1 0x20 SWAP3 SWAP1 SWAP2 SWAP1 DUP3 SWAP1 SUB ADD DUP2 DUP8 DUP8 DUP1 EXTCODESIZE ISZERO DUP1 ISZERO PUSH2 0x384E JUMPI PUSH1 0x0 DUP1 REVERT JUMPDEST POP GAS CALL ISZERO DUP1 ISZERO PUSH2 0x3862 JUMPI RETURNDATASIZE PUSH1 0x0 DUP1 RETURNDATACOPY RETURNDATASIZE PUSH1 0x0 REVERT JUMPDEST POP POP POP POP PUSH1 0x40 MLOAD RETURNDATASIZE PUSH1 0x20 DUP2 LT ISZERO PUSH2 0x3878 JUMPI PUSH1 0x0 DUP1 REVERT JUMPDEST POP MLOAD SWAP1 POP DUP1 ISZERO PUSH2 0x3898 JUMPI PUSH2 0x388F PUSH1 0x3 PUSH1 0x28 DUP4 PUSH2 0x2A79 JUMP JUMPDEST SWAP3 POP POP POP PUSH2 0x1238 JUMP JUMPDEST PUSH2 0x38A0 PUSH2 0x27F4 JUMP JUMPDEST PUSH1 0x9 SLOAD EQ PUSH2 0x38B4 JUMPI PUSH2 0x388F PUSH1 0xA PUSH1 0x2C PUSH2 0x2526 JUMP JUMPDEST PUSH2 0x38C4 PUSH1 0xD SLOAD DUP4 PUSH1 0x60 ADD MLOAD PUSH2 0x29EE JUMP JUMPDEST PUSH1 0xA0 DUP5 ADD DUP2 SWAP1 MSTORE PUSH1 0x20 DUP5 ADD DUP3 PUSH1 0x3 DUP2 GT ISZERO PUSH2 0x38DB JUMPI INVALID JUMPDEST PUSH1 0x3 DUP2 GT ISZERO PUSH2 0x38E6 JUMPI INVALID JUMPDEST SWAP1 MSTORE POP PUSH1 0x0 SWAP1 POP DUP3 PUSH1 0x20 ADD MLOAD PUSH1 0x3 DUP2 GT ISZERO PUSH2 0x38FD JUMPI INVALID JUMPDEST EQ PUSH2 0x3919 JUMPI PUSH2 0x388F PUSH1 0x9 PUSH1 0x2E DUP5 PUSH1 0x20 ADD MLOAD PUSH1 0x3 DUP2 GT ISZERO PUSH2 0x17B1 JUMPI INVALID JUMPDEST PUSH1 0x1 PUSH1 0x1 PUSH1 0xA0 SHL SUB DUP7 AND PUSH1 0x0 SWAP1 DUP2 MSTORE PUSH1 0xE PUSH1 0x20 MSTORE PUSH1 0x40 SWAP1 KECCAK256 SLOAD PUSH1 0x60 DUP4 ADD MLOAD PUSH2 0x3941 SWAP2 SWAP1 PUSH2 0x29EE JUMP JUMPDEST PUSH1 0xC0 DUP5 ADD DUP2 SWAP1 MSTORE PUSH1 0x20 DUP5 ADD DUP3 PUSH1 0x3 DUP2 GT ISZERO PUSH2 0x3958 JUMPI INVALID JUMPDEST PUSH1 0x3 DUP2 GT ISZERO PUSH2 0x3963 JUMPI INVALID JUMPDEST SWAP1 MSTORE POP PUSH1 0x0 SWAP1 POP DUP3 PUSH1 0x20 ADD MLOAD PUSH1 0x3 DUP2 GT ISZERO PUSH2 0x397A JUMPI INVALID JUMPDEST EQ PUSH2 0x3996 JUMPI PUSH2 0x388F PUSH1 0x9 PUSH1 0x2D DUP5 PUSH1 0x20 ADD MLOAD PUSH1 0x3 DUP2 GT ISZERO PUSH2 0x17B1 JUMPI INVALID JUMPDEST DUP2 PUSH1 0x80 ADD MLOAD PUSH2 0x39A3 PUSH2 0x2412 JUMP JUMPDEST LT ISZERO PUSH2 0x39B5 JUMPI PUSH2 0x388F PUSH1 0xE PUSH1 0x2F PUSH2 0x2526 JUMP JUMPDEST PUSH2 0x39C3 DUP7 DUP4 PUSH1 0x80 ADD MLOAD PUSH2 0x3543 JUMP JUMPDEST PUSH1 0xA0 DUP3 ADD MLOAD PUSH1 0xD SSTORE PUSH1 0xC0 DUP3 ADD MLOAD PUSH1 0x1 PUSH1 0x1 PUSH1 0xA0 SHL SUB DUP8 AND PUSH1 0x0 DUP2 DUP2 MSTORE PUSH1 0xE PUSH1 0x20 SWAP1 DUP2 MSTORE PUSH1 0x40 SWAP2 DUP3 SWAP1 KECCAK256 SWAP4 SWAP1 SWAP4 SSTORE PUSH1 0x60 DUP6 ADD MLOAD DUP2 MLOAD SWAP1 DUP2 MSTORE SWAP1 MLOAD ADDRESS SWAP4 PUSH1 0x0 DUP1 MLOAD PUSH1 0x20 PUSH2 0x4C3C DUP4 CODECOPY DUP2 MLOAD SWAP2 MSTORE SWAP3 DUP3 SWAP1 SUB ADD SWAP1 LOG3 PUSH1 0x80 DUP3 ADD MLOAD PUSH1 0x60 DUP1 DUP5 ADD MLOAD PUSH1 0x40 DUP1 MLOAD PUSH1 0x1 PUSH1 0x1 PUSH1 0xA0 SHL SUB DUP12 AND DUP2 MSTORE PUSH1 0x20 DUP2 ADD SWAP5 SWAP1 SWAP5 MSTORE DUP4 DUP2 ADD SWAP2 SWAP1 SWAP2 MSTORE MLOAD PUSH32 0xE5B754FB1ABB7F01B499791D0B820AE3B6AF3424AC1C59768EDB53F4EC31A929 SWAP3 DUP2 SWAP1 SUB SWAP1 SWAP2 ADD SWAP1 LOG1 PUSH1 0x5 SLOAD PUSH1 0x80 DUP4 ADD MLOAD PUSH1 0x60 DUP5 ADD MLOAD PUSH1 0x40 DUP1 MLOAD PUSH4 0x51DFF989 PUSH1 0xE0 SHL DUP2 MSTORE ADDRESS PUSH1 0x4 DUP3 ADD MSTORE PUSH1 0x1 PUSH1 0x1 PUSH1 0xA0 SHL SUB DUP12 DUP2 AND PUSH1 0x24 DUP4 ADD MSTORE PUSH1 0x44 DUP3 ADD SWAP5 SWAP1 SWAP5 MSTORE PUSH1 0x64 DUP2 ADD SWAP3 SWAP1 SWAP3 MSTORE MLOAD SWAP2 SWAP1 SWAP3 AND SWAP2 PUSH4 0x51DFF989 SWAP2 PUSH1 0x84 DUP1 DUP4 ADD SWAP3 PUSH1 0x0 SWAP3 SWAP2 SWAP1 DUP3 SWAP1 SUB ADD DUP2 DUP4 DUP8 DUP1 EXTCODESIZE ISZERO DUP1 ISZERO PUSH2 0x3AD6 JUMPI PUSH1 0x0 DUP1 REVERT JUMPDEST POP GAS CALL ISZERO DUP1 ISZERO PUSH2 0x3AEA JUMPI RETURNDATASIZE PUSH1 0x0 DUP1 RETURNDATACOPY RETURNDATASIZE PUSH1 0x0 REVERT JUMPDEST POP PUSH1 0x0 SWAP3 POP PUSH2 0x3AF7 SWAP2 POP POP JUMP JUMPDEST SWAP7 SWAP6 POP POP POP POP POP POP JUMP JUMPDEST PUSH1 0x0 DUP1 DUP4 PUSH2 0x3B14 JUMPI POP PUSH1 0x0 SWAP1 POP DUP1 PUSH2 0x240B JUMP JUMPDEST DUP4 DUP4 MUL DUP4 DUP6 DUP3 DUP2 PUSH2 0x3B21 JUMPI INVALID JUMPDEST DIV EQ PUSH2 0x3B35 JUMPI POP PUSH1 0x2 SWAP2 POP PUSH1 0x0 SWAP1 POP PUSH2 0x240B JUMP JUMPDEST PUSH1 0x0 SWAP3 POP SWAP1 POP PUSH2 0x240B JUMP JUMPDEST PUSH1 0x0 DUP1 DUP3 PUSH2 0x3B54 JUMPI POP PUSH1 0x1 SWAP1 POP PUSH1 0x0 PUSH2 0x240B JUMP JUMPDEST PUSH1 0x0 DUP4 DUP6 DUP2 PUSH2 0x3B5F JUMPI INVALID JUMPDEST DIV SWAP2 POP SWAP2 POP SWAP3 POP SWAP3 SWAP1 POP JUMP JUMPDEST PUSH1 0x5 SLOAD PUSH1 0x40 DUP1 MLOAD PUSH4 0x4EF4C3E1 PUSH1 0xE0 SHL DUP2 MSTORE ADDRESS PUSH1 0x4 DUP3 ADD MSTORE PUSH1 0x1 PUSH1 0x1 PUSH1 0xA0 SHL SUB DUP6 DUP2 AND PUSH1 0x24 DUP4 ADD MSTORE PUSH1 0x44 DUP3 ADD DUP6 SWAP1 MSTORE SWAP2 MLOAD PUSH1 0x0 SWAP4 DUP5 SWAP4 DUP5 SWAP4 SWAP2 AND SWAP2 PUSH4 0x4EF4C3E1 SWAP2 PUSH1 0x64 DUP1 DUP3 ADD SWAP3 PUSH1 0x20 SWAP3 SWAP1 SWAP2 SWAP1 DUP3 SWAP1 SUB ADD DUP2 DUP8 DUP8 DUP1 EXTCODESIZE ISZERO DUP1 ISZERO PUSH2 0x3BCC JUMPI PUSH1 0x0 DUP1 REVERT JUMPDEST POP GAS CALL ISZERO DUP1 ISZERO PUSH2 0x3BE0 JUMPI RETURNDATASIZE PUSH1 0x0 DUP1 RETURNDATACOPY RETURNDATASIZE PUSH1 0x0 REVERT JUMPDEST POP POP POP POP PUSH1 0x40 MLOAD RETURNDATASIZE PUSH1 0x20 DUP2 LT ISZERO PUSH2 0x3BF6 JUMPI PUSH1 0x0 DUP1 REVERT JUMPDEST POP MLOAD SWAP1 POP DUP1 ISZERO PUSH2 0x3C1A JUMPI PUSH2 0x3C0D PUSH1 0x3 PUSH1 0x1F DUP4 PUSH2 0x2A79 JUMP JUMPDEST SWAP3 POP PUSH1 0x0 SWAP2 POP PUSH2 0x240B SWAP1 POP JUMP JUMPDEST PUSH2 0x3C22 PUSH2 0x27F4 JUMP JUMPDEST PUSH1 0x9 SLOAD EQ PUSH2 0x3C36 JUMPI PUSH2 0x3C0D PUSH1 0xA PUSH1 0x22 PUSH2 0x2526 JUMP JUMPDEST PUSH2 0x3C3E PUSH2 0x4A53 JUMP JUMPDEST PUSH2 0x3C46 PUSH2 0x1FD8 JUMP JUMPDEST PUSH1 0x40 DUP4 ADD DUP2 SWAP1 MSTORE PUSH1 0x20 DUP4 ADD DUP3 PUSH1 0x3 DUP2 GT ISZERO PUSH2 0x3C5D JUMPI INVALID JUMPDEST PUSH1 0x3 DUP2 GT ISZERO PUSH2 0x3C68 JUMPI INVALID JUMPDEST SWAP1 MSTORE POP PUSH1 0x0 SWAP1 POP DUP2 PUSH1 0x20 ADD MLOAD PUSH1 0x3 DUP2 GT ISZERO PUSH2 0x3C7F JUMPI INVALID JUMPDEST EQ PUSH2 0x3CA9 JUMPI PUSH2 0x3C9B PUSH1 0x9 PUSH1 0x21 DUP4 PUSH1 0x20 ADD MLOAD PUSH1 0x3 DUP2 GT ISZERO PUSH2 0x17B1 JUMPI INVALID JUMPDEST SWAP4 POP PUSH1 0x0 SWAP3 POP PUSH2 0x240B SWAP2 POP POP JUMP JUMPDEST PUSH2 0x3CB3 DUP7 DUP7 PUSH2 0x46C1 JUMP JUMPDEST PUSH1 0xC0 DUP3 ADD DUP2 SWAP1 MSTORE PUSH1 0x40 DUP1 MLOAD PUSH1 0x20 DUP2 ADD DUP3 MSTORE SWAP1 DUP4 ADD MLOAD DUP2 MSTORE PUSH2 0x3CD4 SWAP2 SWAP1 PUSH2 0x490B JUMP JUMPDEST PUSH1 0x60 DUP4 ADD DUP2 SWAP1 MSTORE PUSH1 0x20 DUP4 ADD DUP3 PUSH1 0x3 DUP2 GT ISZERO PUSH2 0x3CEB JUMPI INVALID JUMPDEST PUSH1 0x3 DUP2 GT ISZERO PUSH2 0x3CF6 JUMPI INVALID JUMPDEST SWAP1 MSTORE POP PUSH1 0x0 SWAP1 POP DUP2 PUSH1 0x20 ADD MLOAD PUSH1 0x3 DUP2 GT ISZERO PUSH2 0x3D0D JUMPI INVALID JUMPDEST EQ PUSH2 0x3D5F JUMPI PUSH1 0x40 DUP1 MLOAD PUSH3 0x461BCD PUSH1 0xE5 SHL DUP2 MSTORE PUSH1 0x20 PUSH1 0x4 DUP3 ADD DUP2 SWAP1 MSTORE PUSH1 0x24 DUP3 ADD MSTORE PUSH32 0x4D494E545F45584348414E47455F43414C43554C4154494F4E5F4641494C4544 PUSH1 0x44 DUP3 ADD MSTORE SWAP1 MLOAD SWAP1 DUP2 SWAP1 SUB PUSH1 0x64 ADD SWAP1 REVERT JUMPDEST PUSH2 0x3D6F PUSH1 0xD SLOAD DUP3 PUSH1 0x60 ADD MLOAD PUSH2 0x2ADF JUMP JUMPDEST PUSH1 0x80 DUP4 ADD DUP2 SWAP1 MSTORE PUSH1 0x20 DUP4 ADD DUP3 PUSH1 0x3 DUP2 GT ISZERO PUSH2 0x3D86 JUMPI INVALID JUMPDEST PUSH1 0x3 DUP2 GT ISZERO PUSH2 0x3D91 JUMPI INVALID JUMPDEST SWAP1 MSTORE POP PUSH1 0x0 SWAP1 POP DUP2 PUSH1 0x20 ADD MLOAD PUSH1 0x3 DUP2 GT ISZERO PUSH2 0x3DA8 JUMPI INVALID JUMPDEST EQ PUSH2 0x3DE4 JUMPI PUSH1 0x40 MLOAD PUSH3 0x461BCD PUSH1 0xE5 SHL DUP2 MSTORE PUSH1 0x4 ADD DUP1 DUP1 PUSH1 0x20 ADD DUP3 DUP2 SUB DUP3 MSTORE PUSH1 0x28 DUP2 MSTORE PUSH1 0x20 ADD DUP1 PUSH2 0x4CF5 PUSH1 0x28 SWAP2 CODECOPY PUSH1 0x40 ADD SWAP2 POP POP PUSH1 0x40 MLOAD DUP1 SWAP2 SUB SWAP1 REVERT JUMPDEST PUSH1 0x1 PUSH1 0x1 PUSH1 0xA0 SHL SUB DUP7 AND PUSH1 0x0 SWAP1 DUP2 MSTORE PUSH1 0xE PUSH1 0x20 MSTORE PUSH1 0x40 SWAP1 KECCAK256 SLOAD PUSH1 0x60 DUP3 ADD MLOAD PUSH2 0x3E0C SWAP2 SWAP1 PUSH2 0x2ADF JUMP JUMPDEST PUSH1 0xA0 DUP4 ADD DUP2 SWAP1 MSTORE PUSH1 0x20 DUP4 ADD DUP3 PUSH1 0x3 DUP2 GT ISZERO PUSH2 0x3E23 JUMPI INVALID JUMPDEST PUSH1 0x3 DUP2 GT ISZERO PUSH2 0x3E2E JUMPI INVALID JUMPDEST SWAP1 MSTORE POP PUSH1 0x0 SWAP1 POP DUP2 PUSH1 0x20 ADD MLOAD PUSH1 0x3 DUP2 GT ISZERO PUSH2 0x3E45 JUMPI INVALID JUMPDEST EQ PUSH2 0x3E81 JUMPI PUSH1 0x40 MLOAD PUSH3 0x461BCD PUSH1 0xE5 SHL DUP2 MSTORE PUSH1 0x4 ADD DUP1 DUP1 PUSH1 0x20 ADD DUP3 DUP2 SUB DUP3 MSTORE PUSH1 0x2B DUP2 MSTORE PUSH1 0x20 ADD DUP1 PUSH2 0x4BA0 PUSH1 0x2B SWAP2 CODECOPY PUSH1 0x40 ADD SWAP2 POP POP PUSH1 0x40 MLOAD DUP1 SWAP2 SUB SWAP1 REVERT JUMPDEST PUSH1 0x80 DUP2 ADD MLOAD PUSH1 0xD SSTORE PUSH1 0xA0 DUP2 ADD MLOAD PUSH1 0x1 PUSH1 0x1 PUSH1 0xA0 SHL SUB DUP8 AND PUSH1 0x0 DUP2 DUP2 MSTORE PUSH1 0xE PUSH1 0x20 SWAP1 DUP2 MSTORE PUSH1 0x40 SWAP2 DUP3 SWAP1 KECCAK256 SWAP4 SWAP1 SWAP4 SSTORE PUSH1 0xC0 DUP5 ADD MLOAD PUSH1 0x60 DUP1 DUP7 ADD MLOAD DUP4 MLOAD SWAP5 DUP6 MSTORE SWAP5 DUP5 ADD SWAP2 SWAP1 SWAP2 MSTORE DUP3 DUP3 ADD SWAP4 SWAP1 SWAP4 MSTORE MLOAD PUSH32 0x4C209B5FC8AD50758F13E2E1088BA56A560DFF690A1C6FEF26394F4C03821C4F SWAP3 SWAP2 DUP2 SWAP1 SUB SWAP1 SWAP2 ADD SWAP1 LOG1 PUSH1 0x60 DUP2 ADD MLOAD PUSH1 0x40 DUP1 MLOAD SWAP2 DUP3 MSTORE MLOAD PUSH1 0x1 PUSH1 0x1 PUSH1 0xA0 SHL SUB DUP9 AND SWAP2 ADDRESS SWAP2 PUSH1 0x0 DUP1 MLOAD PUSH1 0x20 PUSH2 0x4C3C DUP4 CODECOPY DUP2 MLOAD SWAP2 MSTORE SWAP2 DUP2 SWAP1 SUB PUSH1 0x20 ADD SWAP1 LOG3 PUSH1 0xC0 ADD MLOAD PUSH1 0x0 SWAP7 SWAP1 SWAP6 POP SWAP4 POP POP POP POP JUMP JUMPDEST PUSH1 0x5 SLOAD PUSH1 0x40 DUP1 MLOAD PUSH4 0x368F5153 PUSH1 0xE2 SHL DUP2 MSTORE ADDRESS PUSH1 0x4 DUP3 ADD MSTORE PUSH1 0x1 PUSH1 0x1 PUSH1 0xA0 SHL SUB DUP6 DUP2 AND PUSH1 0x24 DUP4 ADD MSTORE PUSH1 0x44 DUP3 ADD DUP6 SWAP1 MSTORE SWAP2 MLOAD PUSH1 0x0 SWAP4 DUP5 SWAP4 AND SWAP2 PUSH4 0xDA3D454C SWAP2 PUSH1 0x64 DUP1 DUP4 ADD SWAP3 PUSH1 0x20 SWAP3 SWAP2 SWAP1 DUP3 SWAP1 SUB ADD DUP2 DUP8 DUP8 DUP1 EXTCODESIZE ISZERO DUP1 ISZERO PUSH2 0x3F98 JUMPI PUSH1 0x0 DUP1 REVERT JUMPDEST POP GAS CALL ISZERO DUP1 ISZERO PUSH2 0x3FAC JUMPI RETURNDATASIZE PUSH1 0x0 DUP1 RETURNDATACOPY RETURNDATASIZE PUSH1 0x0 REVERT JUMPDEST POP POP POP POP PUSH1 0x40 MLOAD RETURNDATASIZE PUSH1 0x20 DUP2 LT ISZERO PUSH2 0x3FC2 JUMPI PUSH1 0x0 DUP1 REVERT JUMPDEST POP MLOAD SWAP1 POP DUP1 ISZERO PUSH2 0x3FE1 JUMPI PUSH2 0x3FD9 PUSH1 0x3 PUSH1 0xE DUP4 PUSH2 0x2A79 JUMP JUMPDEST SWAP2 POP POP PUSH2 0xB97 JUMP JUMPDEST PUSH2 0x3FE9 PUSH2 0x27F4 JUMP JUMPDEST PUSH1 0x9 SLOAD EQ PUSH2 0x3FFC JUMPI PUSH2 0x3FD9 PUSH1 0xA DUP1 PUSH2 0x2526 JUMP JUMPDEST DUP3 PUSH2 0x4005 PUSH2 0x2412 JUMP JUMPDEST LT ISZERO PUSH2 0x4017 JUMPI PUSH2 0x3FD9 PUSH1 0xE PUSH1 0x9 PUSH2 0x2526 JUMP JUMPDEST PUSH2 0x401F PUSH2 0x4A91 JUMP JUMPDEST PUSH2 0x4028 DUP6 PUSH2 0x2740 JUMP JUMPDEST PUSH1 0x20 DUP4 ADD DUP2 SWAP1 MSTORE DUP3 DUP3 PUSH1 0x3 DUP2 GT ISZERO PUSH2 0x403C JUMPI INVALID JUMPDEST PUSH1 0x3 DUP2 GT ISZERO PUSH2 0x4047 JUMPI INVALID JUMPDEST SWAP1 MSTORE POP PUSH1 0x0 SWAP1 POP DUP2 MLOAD PUSH1 0x3 DUP2 GT ISZERO PUSH2 0x405B JUMPI INVALID JUMPDEST EQ PUSH2 0x4080 JUMPI PUSH2 0x4077 PUSH1 0x9 PUSH1 0x7 DUP4 PUSH1 0x0 ADD MLOAD PUSH1 0x3 DUP2 GT ISZERO PUSH2 0x17B1 JUMPI INVALID JUMPDEST SWAP3 POP POP POP PUSH2 0xB97 JUMP JUMPDEST PUSH2 0x408E DUP2 PUSH1 0x20 ADD MLOAD DUP6 PUSH2 0x2ADF JUMP JUMPDEST PUSH1 0x40 DUP4 ADD DUP2 SWAP1 MSTORE DUP3 DUP3 PUSH1 0x3 DUP2 GT ISZERO PUSH2 0x40A2 JUMPI INVALID JUMPDEST PUSH1 0x3 DUP2 GT ISZERO PUSH2 0x40AD JUMPI INVALID JUMPDEST SWAP1 MSTORE POP PUSH1 0x0 SWAP1 POP DUP2 MLOAD PUSH1 0x3 DUP2 GT ISZERO PUSH2 0x40C1 JUMPI INVALID JUMPDEST EQ PUSH2 0x40DD JUMPI PUSH2 0x4077 PUSH1 0x9 PUSH1 0xC DUP4 PUSH1 0x0 ADD MLOAD PUSH1 0x3 DUP2 GT ISZERO PUSH2 0x17B1 JUMPI INVALID JUMPDEST PUSH2 0x40E9 PUSH1 0xB SLOAD DUP6 PUSH2 0x2ADF JUMP JUMPDEST PUSH1 0x60 DUP4 ADD DUP2 SWAP1 MSTORE DUP3 DUP3 PUSH1 0x3 DUP2 GT ISZERO PUSH2 0x40FD JUMPI INVALID JUMPDEST PUSH1 0x3 DUP2 GT ISZERO PUSH2 0x4108 JUMPI INVALID JUMPDEST SWAP1 MSTORE POP PUSH1 0x0 SWAP1 POP DUP2 MLOAD PUSH1 0x3 DUP2 GT ISZERO PUSH2 0x411C JUMPI INVALID JUMPDEST EQ PUSH2 0x4138 JUMPI PUSH2 0x4077 PUSH1 0x9 PUSH1 0xB DUP4 PUSH1 0x0 ADD MLOAD PUSH1 0x3 DUP2 GT ISZERO PUSH2 0x17B1 JUMPI INVALID JUMPDEST PUSH2 0x4142 DUP6 DUP6 PUSH2 0x3543 JUMP JUMPDEST PUSH1 0x40 DUP1 DUP3 ADD DUP1 MLOAD PUSH1 0x1 PUSH1 0x1 PUSH1 0xA0 SHL SUB DUP9 AND PUSH1 0x0 DUP2 DUP2 MSTORE PUSH1 0x10 PUSH1 0x20 SWAP1 DUP2 MSTORE SWAP1 DUP6 SWAP1 KECCAK256 SWAP3 DUP4 SSTORE PUSH1 0xA SLOAD PUSH1 0x1 SWAP1 SWAP4 ADD SWAP3 SWAP1 SWAP3 SSTORE PUSH1 0x60 DUP1 DUP7 ADD MLOAD PUSH1 0xB DUP2 SWAP1 SSTORE SWAP4 MLOAD DUP6 MLOAD SWAP3 DUP4 MSTORE SWAP3 DUP3 ADD DUP10 SWAP1 MSTORE DUP2 DUP6 ADD SWAP3 SWAP1 SWAP3 MSTORE SWAP1 DUP2 ADD SWAP2 SWAP1 SWAP2 MSTORE SWAP1 MLOAD PUSH32 0x13ED6866D4E1EE6DA46F845C46D7E54120883D75C5EA9A2DACC1C4CA8984AB80 SWAP2 DUP2 SWAP1 SUB PUSH1 0x80 ADD SWAP1 LOG1 PUSH1 0x0 SWAP6 SWAP5 POP POP POP POP POP JUMP JUMPDEST PUSH1 0x5 SLOAD PUSH1 0x40 DUP1 MLOAD PUSH4 0x2FE3F38F PUSH1 0xE1 SHL DUP2 MSTORE ADDRESS PUSH1 0x4 DUP3 ADD MSTORE PUSH1 0x1 PUSH1 0x1 PUSH1 0xA0 SHL SUB DUP5 DUP2 AND PUSH1 0x24 DUP4 ADD MSTORE DUP8 DUP2 AND PUSH1 0x44 DUP4 ADD MSTORE DUP7 DUP2 AND PUSH1 0x64 DUP4 ADD MSTORE PUSH1 0x84 DUP3 ADD DUP7 SWAP1 MSTORE SWAP2 MLOAD PUSH1 0x0 SWAP4 DUP5 SWAP4 DUP5 SWAP4 SWAP2 AND SWAP2 PUSH4 0x5FC7E71E SWAP2 PUSH1 0xA4 DUP1 DUP3 ADD SWAP3 PUSH1 0x20 SWAP3 SWAP1 SWAP2 SWAP1 DUP3 SWAP1 SUB ADD DUP2 DUP8 DUP8 DUP1 EXTCODESIZE ISZERO DUP1 ISZERO PUSH2 0x4240 JUMPI PUSH1 0x0 DUP1 REVERT JUMPDEST POP GAS CALL ISZERO DUP1 ISZERO PUSH2 0x4254 JUMPI RETURNDATASIZE PUSH1 0x0 DUP1 RETURNDATACOPY RETURNDATASIZE PUSH1 0x0 REVERT JUMPDEST POP POP POP POP PUSH1 0x40 MLOAD RETURNDATASIZE PUSH1 0x20 DUP2 LT ISZERO PUSH2 0x426A JUMPI PUSH1 0x0 DUP1 REVERT JUMPDEST POP MLOAD SWAP1 POP DUP1 ISZERO PUSH2 0x428E JUMPI PUSH2 0x4281 PUSH1 0x3 PUSH1 0x12 DUP4 PUSH2 0x2A79 JUMP JUMPDEST SWAP3 POP PUSH1 0x0 SWAP2 POP PUSH2 0x46B8 SWAP1 POP JUMP JUMPDEST PUSH2 0x4296 PUSH2 0x27F4 JUMP JUMPDEST PUSH1 0x9 SLOAD EQ PUSH2 0x42AA JUMPI PUSH2 0x4281 PUSH1 0xA PUSH1 0x16 PUSH2 0x2526 JUMP JUMPDEST PUSH2 0x42B2 PUSH2 0x27F4 JUMP JUMPDEST DUP5 PUSH1 0x1 PUSH1 0x1 PUSH1 0xA0 SHL SUB AND PUSH4 0x6C540BAF PUSH1 0x40 MLOAD DUP2 PUSH4 0xFFFFFFFF AND PUSH1 0xE0 SHL DUP2 MSTORE PUSH1 0x4 ADD PUSH1 0x20 PUSH1 0x40 MLOAD DUP1 DUP4 SUB DUP2 DUP7 DUP1 EXTCODESIZE ISZERO DUP1 ISZERO PUSH2 0x42EB JUMPI PUSH1 0x0 DUP1 REVERT JUMPDEST POP GAS STATICCALL ISZERO DUP1 ISZERO PUSH2 0x42FF JUMPI RETURNDATASIZE PUSH1 0x0 DUP1 RETURNDATACOPY RETURNDATASIZE PUSH1 0x0 REVERT JUMPDEST POP POP POP POP PUSH1 0x40 MLOAD RETURNDATASIZE PUSH1 0x20 DUP2 LT ISZERO PUSH2 0x4315 JUMPI PUSH1 0x0 DUP1 REVERT JUMPDEST POP MLOAD EQ PUSH2 0x4328 JUMPI PUSH2 0x4281 PUSH1 0xA PUSH1 0x11 PUSH2 0x2526 JUMP JUMPDEST DUP7 PUSH1 0x1 PUSH1 0x1 PUSH1 0xA0 SHL SUB AND DUP7 PUSH1 0x1 PUSH1 0x1 PUSH1 0xA0 SHL SUB AND EQ ISZERO PUSH2 0x434E JUMPI PUSH2 0x4281 PUSH1 0x6 PUSH1 0x17 PUSH2 0x2526 JUMP JUMPDEST DUP5 PUSH2 0x435F JUMPI PUSH2 0x4281 PUSH1 0x7 PUSH1 0x15 PUSH2 0x2526 JUMP JUMPDEST PUSH1 0x0 NOT DUP6 EQ ISZERO PUSH2 0x4375 JUMPI PUSH2 0x4281 PUSH1 0x7 PUSH1 0x14 PUSH2 0x2526 JUMP JUMPDEST PUSH1 0x0 DUP1 PUSH2 0x4383 DUP10 DUP10 DUP10 PUSH2 0x3010 JUMP JUMPDEST SWAP1 SWAP3 POP SWAP1 POP DUP2 ISZERO PUSH2 0x43B3 JUMPI PUSH2 0x43A4 DUP3 PUSH1 0x10 DUP2 GT ISZERO PUSH2 0x439D JUMPI INVALID JUMPDEST PUSH1 0x18 PUSH2 0x2526 JUMP JUMPDEST SWAP5 POP PUSH1 0x0 SWAP4 POP PUSH2 0x46B8 SWAP3 POP POP POP JUMP JUMPDEST PUSH1 0x5 SLOAD PUSH1 0x40 DUP1 MLOAD PUSH4 0xC488847B PUSH1 0xE0 SHL DUP2 MSTORE ADDRESS PUSH1 0x4 DUP3 ADD MSTORE PUSH1 0x1 PUSH1 0x1 PUSH1 0xA0 SHL SUB DUP10 DUP2 AND PUSH1 0x24 DUP4 ADD MSTORE PUSH1 0x44 DUP3 ADD DUP6 SWAP1 MSTORE DUP3 MLOAD PUSH1 0x0 SWAP5 DUP6 SWAP5 SWAP3 AND SWAP3 PUSH4 0xC488847B SWAP3 PUSH1 0x64 DUP1 DUP4 ADD SWAP4 SWAP2 SWAP3 DUP3 SWAP1 SUB ADD DUP2 DUP7 DUP1 EXTCODESIZE ISZERO DUP1 ISZERO PUSH2 0x440D JUMPI PUSH1 0x0 DUP1 REVERT JUMPDEST POP GAS STATICCALL ISZERO DUP1 ISZERO PUSH2 0x4421 JUMPI RETURNDATASIZE PUSH1 0x0 DUP1 RETURNDATACOPY RETURNDATASIZE PUSH1 0x0 REVERT JUMPDEST POP POP POP POP PUSH1 0x40 MLOAD RETURNDATASIZE PUSH1 0x40 DUP2 LT ISZERO PUSH2 0x4437 JUMPI PUSH1 0x0 DUP1 REVERT JUMPDEST POP DUP1 MLOAD PUSH1 0x20 SWAP1 SWAP2 ADD MLOAD SWAP1 SWAP3 POP SWAP1 POP DUP2 ISZERO PUSH2 0x4482 JUMPI PUSH1 0x40 MLOAD PUSH3 0x461BCD PUSH1 0xE5 SHL DUP2 MSTORE PUSH1 0x4 ADD DUP1 DUP1 PUSH1 0x20 ADD DUP3 DUP2 SUB DUP3 MSTORE PUSH1 0x33 DUP2 MSTORE PUSH1 0x20 ADD DUP1 PUSH2 0x4C8D PUSH1 0x33 SWAP2 CODECOPY PUSH1 0x40 ADD SWAP2 POP POP PUSH1 0x40 MLOAD DUP1 SWAP2 SUB SWAP1 REVERT JUMPDEST DUP1 DUP9 PUSH1 0x1 PUSH1 0x1 PUSH1 0xA0 SHL SUB AND PUSH4 0x70A08231 DUP13 PUSH1 0x40 MLOAD DUP3 PUSH4 0xFFFFFFFF AND PUSH1 0xE0 SHL DUP2 MSTORE PUSH1 0x4 ADD DUP1 DUP3 PUSH1 0x1 PUSH1 0x1 PUSH1 0xA0 SHL SUB AND PUSH1 0x1 PUSH1 0x1 PUSH1 0xA0 SHL SUB AND DUP2 MSTORE PUSH1 0x20 ADD SWAP2 POP POP PUSH1 0x20 PUSH1 0x40 MLOAD DUP1 DUP4 SUB DUP2 DUP7 DUP1 EXTCODESIZE ISZERO DUP1 ISZERO PUSH2 0x44D9 JUMPI PUSH1 0x0 DUP1 REVERT JUMPDEST POP GAS STATICCALL ISZERO DUP1 ISZERO PUSH2 0x44ED JUMPI RETURNDATASIZE PUSH1 0x0 DUP1 RETURNDATACOPY RETURNDATASIZE PUSH1 0x0 REVERT JUMPDEST POP POP POP POP PUSH1 0x40 MLOAD RETURNDATASIZE PUSH1 0x20 DUP2 LT ISZERO PUSH2 0x4503 JUMPI PUSH1 0x0 DUP1 REVERT JUMPDEST POP MLOAD LT ISZERO PUSH2 0x4558 JUMPI PUSH1 0x40 DUP1 MLOAD PUSH3 0x461BCD PUSH1 0xE5 SHL DUP2 MSTORE PUSH1 0x20 PUSH1 0x4 DUP3 ADD MSTORE PUSH1 0x18 PUSH1 0x24 DUP3 ADD MSTORE PUSH32 0x4C49515549444154455F5345495A455F544F4F5F4D5543480000000000000000 PUSH1 0x44 DUP3 ADD MSTORE SWAP1 MLOAD SWAP1 DUP2 SWAP1 SUB PUSH1 0x64 ADD SWAP1 REVERT JUMPDEST PUSH1 0x0 PUSH1 0x1 PUSH1 0x1 PUSH1 0xA0 SHL SUB DUP10 AND ADDRESS EQ ISZERO PUSH2 0x457E JUMPI PUSH2 0x4577 ADDRESS DUP14 DUP14 DUP6 PUSH2 0x2B61 JUMP JUMPDEST SWAP1 POP PUSH2 0x4608 JUMP JUMPDEST PUSH1 0x40 DUP1 MLOAD PUSH4 0xB2A02FF1 PUSH1 0xE0 SHL DUP2 MSTORE PUSH1 0x1 PUSH1 0x1 PUSH1 0xA0 SHL SUB DUP15 DUP2 AND PUSH1 0x4 DUP4 ADD MSTORE DUP14 DUP2 AND PUSH1 0x24 DUP4 ADD MSTORE PUSH1 0x44 DUP3 ADD DUP6 SWAP1 MSTORE SWAP2 MLOAD SWAP2 DUP12 AND SWAP2 PUSH4 0xB2A02FF1 SWAP2 PUSH1 0x64 DUP1 DUP3 ADD SWAP3 PUSH1 0x20 SWAP3 SWAP1 SWAP2 SWAP1 DUP3 SWAP1 SUB ADD DUP2 PUSH1 0x0 DUP8 DUP1 EXTCODESIZE ISZERO DUP1 ISZERO PUSH2 0x45D9 JUMPI PUSH1 0x0 DUP1 REVERT JUMPDEST POP GAS CALL ISZERO DUP1 ISZERO PUSH2 0x45ED JUMPI RETURNDATASIZE PUSH1 0x0 DUP1 RETURNDATACOPY RETURNDATASIZE PUSH1 0x0 REVERT JUMPDEST POP POP POP POP PUSH1 0x40 MLOAD RETURNDATASIZE PUSH1 0x20 DUP2 LT ISZERO PUSH2 0x4603 JUMPI PUSH1 0x0 DUP1 REVERT JUMPDEST POP MLOAD SWAP1 POP JUMPDEST DUP1 ISZERO PUSH2 0x4652 JUMPI PUSH1 0x40 DUP1 MLOAD PUSH3 0x461BCD PUSH1 0xE5 SHL DUP2 MSTORE PUSH1 0x20 PUSH1 0x4 DUP3 ADD MSTORE PUSH1 0x14 PUSH1 0x24 DUP3 ADD MSTORE PUSH20 0x1D1BDAD95B881CD95A5E9D5C994819985A5B1959 PUSH1 0x62 SHL PUSH1 0x44 DUP3 ADD MSTORE SWAP1 MLOAD SWAP1 DUP2 SWAP1 SUB PUSH1 0x64 ADD SWAP1 REVERT JUMPDEST PUSH1 0x40 DUP1 MLOAD PUSH1 0x1 PUSH1 0x1 PUSH1 0xA0 SHL SUB DUP1 DUP16 AND DUP3 MSTORE DUP1 DUP15 AND PUSH1 0x20 DUP4 ADD MSTORE DUP2 DUP4 ADD DUP8 SWAP1 MSTORE DUP12 AND PUSH1 0x60 DUP3 ADD MSTORE PUSH1 0x80 DUP2 ADD DUP5 SWAP1 MSTORE SWAP1 MLOAD PUSH32 0x298637F684DA70674F26509B10F07EC2FBC77A335AB1E7D6215A4B2484D8BB52 SWAP2 DUP2 SWAP1 SUB PUSH1 0xA0 ADD SWAP1 LOG1 PUSH1 0x0 SWAP8 POP SWAP3 SWAP6 POP POP POP POP POP POP JUMPDEST SWAP5 POP SWAP5 SWAP3 POP POP POP JUMP JUMPDEST PUSH1 0x11 SLOAD PUSH1 0x40 DUP1 MLOAD PUSH4 0x70A08231 PUSH1 0xE0 SHL DUP2 MSTORE ADDRESS PUSH1 0x4 DUP3 ADD MSTORE SWAP1 MLOAD PUSH1 0x0 SWAP3 PUSH1 0x1 PUSH1 0x1 PUSH1 0xA0 SHL SUB AND SWAP2 DUP4 SWAP2 DUP4 SWAP2 PUSH4 0x70A08231 SWAP2 PUSH1 0x24 DUP1 DUP4 ADD SWAP3 PUSH1 0x20 SWAP3 SWAP2 SWAP1 DUP3 SWAP1 SUB ADD DUP2 DUP7 DUP1 EXTCODESIZE ISZERO DUP1 ISZERO PUSH2 0x4710 JUMPI PUSH1 0x0 DUP1 REVERT JUMPDEST POP GAS STATICCALL ISZERO DUP1 ISZERO PUSH2 0x4724 JUMPI RETURNDATASIZE PUSH1 0x0 DUP1 RETURNDATACOPY RETURNDATASIZE PUSH1 0x0 REVERT JUMPDEST POP POP POP POP PUSH1 0x40 MLOAD RETURNDATASIZE PUSH1 0x20 DUP2 LT ISZERO PUSH2 0x473A JUMPI PUSH1 0x0 DUP1 REVERT JUMPDEST POP MLOAD PUSH1 0x40 DUP1 MLOAD PUSH4 0x23B872DD PUSH1 0xE0 SHL DUP2 MSTORE PUSH1 0x1 PUSH1 0x1 PUSH1 0xA0 SHL SUB DUP9 DUP2 AND PUSH1 0x4 DUP4 ADD MSTORE ADDRESS PUSH1 0x24 DUP4 ADD MSTORE PUSH1 0x44 DUP3 ADD DUP9 SWAP1 MSTORE SWAP2 MLOAD SWAP3 SWAP4 POP SWAP1 DUP5 AND SWAP2 PUSH4 0x23B872DD SWAP2 PUSH1 0x64 DUP1 DUP3 ADD SWAP3 PUSH1 0x0 SWAP3 SWAP1 SWAP2 SWAP1 DUP3 SWAP1 SUB ADD DUP2 DUP4 DUP8 DUP1 EXTCODESIZE ISZERO DUP1 ISZERO PUSH2 0x4797 JUMPI PUSH1 0x0 DUP1 REVERT JUMPDEST POP GAS CALL ISZERO DUP1 ISZERO PUSH2 0x47AB JUMPI RETURNDATASIZE PUSH1 0x0 DUP1 RETURNDATACOPY RETURNDATASIZE PUSH1 0x0 REVERT JUMPDEST POP POP POP POP PUSH1 0x0 RETURNDATASIZE PUSH1 0x0 DUP2 EQ PUSH2 0x47C7 JUMPI PUSH1 0x20 DUP2 EQ PUSH2 0x47D1 JUMPI PUSH1 0x0 DUP1 REVERT JUMPDEST PUSH1 0x0 NOT SWAP2 POP PUSH2 0x47DD JUMP JUMPDEST PUSH1 0x20 PUSH1 0x0 DUP1 RETURNDATACOPY PUSH1 0x0 MLOAD SWAP2 POP JUMPDEST POP DUP1 PUSH2 0x4830 JUMPI PUSH1 0x40 DUP1 MLOAD PUSH3 0x461BCD PUSH1 0xE5 SHL DUP2 MSTORE PUSH1 0x20 PUSH1 0x4 DUP3 ADD MSTORE PUSH1 0x18 PUSH1 0x24 DUP3 ADD MSTORE PUSH32 0x544F4B454E5F5452414E534645525F494E5F4641494C45440000000000000000 PUSH1 0x44 DUP3 ADD MSTORE SWAP1 MLOAD SWAP1 DUP2 SWAP1 SUB PUSH1 0x64 ADD SWAP1 REVERT JUMPDEST PUSH1 0x11 SLOAD PUSH1 0x40 DUP1 MLOAD PUSH4 0x70A08231 PUSH1 0xE0 SHL DUP2 MSTORE ADDRESS PUSH1 0x4 DUP3 ADD MSTORE SWAP1 MLOAD PUSH1 0x0 SWAP3 PUSH1 0x1 PUSH1 0x1 PUSH1 0xA0 SHL SUB AND SWAP2 PUSH4 0x70A08231 SWAP2 PUSH1 0x24 DUP1 DUP4 ADD SWAP3 PUSH1 0x20 SWAP3 SWAP2 SWAP1 DUP3 SWAP1 SUB ADD DUP2 DUP7 DUP1 EXTCODESIZE ISZERO DUP1 ISZERO PUSH2 0x487B JUMPI PUSH1 0x0 DUP1 REVERT JUMPDEST POP GAS STATICCALL ISZERO DUP1 ISZERO PUSH2 0x488F JUMPI RETURNDATASIZE PUSH1 0x0 DUP1 RETURNDATACOPY RETURNDATASIZE PUSH1 0x0 REVERT JUMPDEST POP POP POP POP PUSH1 0x40 MLOAD RETURNDATASIZE PUSH1 0x20 DUP2 LT ISZERO PUSH2 0x48A5 JUMPI PUSH1 0x0 DUP1 REVERT JUMPDEST POP MLOAD SWAP1 POP DUP3 DUP2 LT ISZERO PUSH2 0x48FE JUMPI PUSH1 0x40 DUP1 MLOAD PUSH3 0x461BCD PUSH1 0xE5 SHL DUP2 MSTORE PUSH1 0x20 PUSH1 0x4 DUP3 ADD MSTORE PUSH1 0x1A PUSH1 0x24 DUP3 ADD MSTORE PUSH32 0x544F4B454E5F5452414E534645525F494E5F4F564552464C4F57000000000000 PUSH1 0x44 DUP3 ADD MSTORE SWAP1 MLOAD SWAP1 DUP2 SWAP1 SUB PUSH1 0x64 ADD SWAP1 REVERT JUMPDEST SWAP2 SWAP1 SWAP2 SUB SWAP6 SWAP5 POP POP POP POP POP JUMP JUMPDEST PUSH1 0x0 DUP1 PUSH1 0x0 PUSH2 0x4918 PUSH2 0x497C JUMP JUMPDEST PUSH2 0x23D5 DUP7 DUP7 PUSH1 0x0 PUSH2 0x4927 PUSH2 0x497C JUMP JUMPDEST PUSH1 0x0 DUP1 PUSH2 0x493C PUSH8 0xDE0B6B3A7640000 DUP8 PUSH2 0x3B01 JUMP JUMPDEST SWAP1 SWAP3 POP SWAP1 POP PUSH1 0x0 DUP3 PUSH1 0x3 DUP2 GT ISZERO PUSH2 0x494F JUMPI INVALID JUMPDEST EQ PUSH2 0x496E JUMPI POP PUSH1 0x40 DUP1 MLOAD PUSH1 0x20 DUP2 ADD SWAP1 SWAP2 MSTORE PUSH1 0x0 DUP2 MSTORE SWAP1 SWAP3 POP SWAP1 POP PUSH2 0x240B JUMP JUMPDEST PUSH2 0x2404 DUP2 DUP7 PUSH1 0x0 ADD MLOAD PUSH2 0x339C JUMP JUMPDEST PUSH1 0x40 MLOAD DUP1 PUSH1 0x20 ADD PUSH1 0x40 MSTORE DUP1 PUSH1 0x0 DUP2 MSTORE POP SWAP1 JUMP JUMPDEST DUP3 DUP1 SLOAD PUSH1 0x1 DUP2 PUSH1 0x1 AND ISZERO PUSH2 0x100 MUL SUB AND PUSH1 0x2 SWAP1 DIV SWAP1 PUSH1 0x0 MSTORE PUSH1 0x20 PUSH1 0x0 KECCAK256 SWAP1 PUSH1 0x1F ADD PUSH1 0x20 SWAP1 DIV DUP2 ADD SWAP3 DUP3 PUSH1 0x1F LT PUSH2 0x49D0 JUMPI DUP1 MLOAD PUSH1 0xFF NOT AND DUP4 DUP1 ADD OR DUP6 SSTORE PUSH2 0x49FD JUMP JUMPDEST DUP3 DUP1 ADD PUSH1 0x1 ADD DUP6 SSTORE DUP3 ISZERO PUSH2 0x49FD JUMPI SWAP2 DUP3 ADD JUMPDEST DUP3 DUP2 GT ISZERO PUSH2 0x49FD JUMPI DUP3 MLOAD DUP3 SSTORE SWAP2 PUSH1 0x20 ADD SWAP2 SWAP1 PUSH1 0x1 ADD SWAP1 PUSH2 0x49E2 JUMP JUMPDEST POP PUSH2 0x4A09 SWAP3 SWAP2 POP PUSH2 0x4ABA JUMP JUMPDEST POP SWAP1 JUMP JUMPDEST PUSH1 0x40 DUP1 MLOAD PUSH2 0x100 DUP2 ADD SWAP1 SWAP2 MSTORE DUP1 PUSH1 0x0 DUP2 MSTORE PUSH1 0x20 ADD PUSH1 0x0 DUP2 MSTORE PUSH1 0x20 ADD PUSH1 0x0 DUP2 MSTORE PUSH1 0x20 ADD PUSH1 0x0 DUP2 MSTORE PUSH1 0x20 ADD PUSH1 0x0 DUP2 MSTORE PUSH1 0x20 ADD PUSH1 0x0 DUP2 MSTORE PUSH1 0x20 ADD PUSH1 0x0 DUP2 MSTORE PUSH1 0x20 ADD PUSH1 0x0 DUP2 MSTORE POP SWAP1 JUMP JUMPDEST PUSH1 0x40 DUP1 MLOAD PUSH1 0xE0 DUP2 ADD SWAP1 SWAP2 MSTORE DUP1 PUSH1 0x0 DUP2 MSTORE PUSH1 0x20 ADD PUSH1 0x0 DUP2 MSTORE PUSH1 0x20 ADD PUSH1 0x0 DUP2 MSTORE PUSH1 0x20 ADD PUSH1 0x0 DUP2 MSTORE PUSH1 0x20 ADD PUSH1 0x0 DUP2 MSTORE PUSH1 0x20 ADD PUSH1 0x0 DUP2 MSTORE PUSH1 0x20 ADD PUSH1 0x0 DUP2 MSTORE POP SWAP1 JUMP JUMPDEST PUSH1 0x40 DUP1 MLOAD PUSH1 0x80 DUP2 ADD SWAP1 SWAP2 MSTORE DUP1 PUSH1 0x0 DUP2 MSTORE PUSH1 0x20 ADD PUSH1 0x0 DUP2 MSTORE PUSH1 0x20 ADD PUSH1 0x0 DUP2 MSTORE PUSH1 0x20 ADD PUSH1 0x0 DUP2 MSTORE POP SWAP1 JUMP JUMPDEST PUSH2 0xCDF SWAP2 SWAP1 JUMPDEST DUP1 DUP3 GT ISZERO PUSH2 0x4A09 JUMPI PUSH1 0x0 DUP2 SSTORE PUSH1 0x1 ADD PUSH2 0x4AC0 JUMP INVALID PUSH16 0x6E6C792061646D696E206D617920696E PUSH10 0x7469616C697A65207468 PUSH6 0x206D61726B65 PUSH21 0x6D61726B6574206D6179206F6E6C7920626520696E PUSH10 0x7469616C697A6564206F PUSH15 0x6365696E697469616C206578636861 PUSH15 0x67652072617465206D757374206265 KECCAK256 PUSH8 0x7265617465722074 PUSH9 0x616E207A65726F2E73 PUSH6 0x7474696E6720 PUSH10 0x6E746572657374207261 PUSH21 0x65206D6F64656C206661696C65644445726332303A GASPRICE PUSH20 0x77656570546F6B656E3A2063616E206E6F742073 PUSH24 0x65657020756E6465726C79696E6720746F6B656E4D494E54 0x5F 0x4E GASLIMIT JUMPI 0x5F COINBASE NUMBER NUMBER 0x4F SSTORE 0x4E SLOAD 0x5F TIMESTAMP COINBASE 0x4C COINBASE 0x4E NUMBER GASLIMIT 0x5F NUMBER COINBASE 0x4C NUMBER SSTORE 0x4C COINBASE SLOAD 0x49 0x4F 0x4E 0x5F CHAINID COINBASE 0x49 0x4C GASLIMIT DIFFICULTY PUSH3 0x6F7272 PUSH16 0x7742616C616E636553746F7265643A20 PUSH3 0x6F7272 PUSH16 0x7742616C616E636553746F726564496E PUSH21 0x65726E616C206661696C656452455041595F424F52 MSTORE 0x4F JUMPI 0x5F 0x4E GASLIMIT JUMPI 0x5F COINBASE NUMBER NUMBER 0x4F SSTORE 0x4E SLOAD 0x5F TIMESTAMP 0x4F MSTORE MSTORE 0x4F JUMPI 0x5F TIMESTAMP COINBASE 0x4C COINBASE 0x4E NUMBER GASLIMIT 0x5F NUMBER COINBASE 0x4C NUMBER SSTORE 0x4C COINBASE SLOAD 0x49 0x4F 0x4E 0x5F CHAINID COINBASE 0x49 0x4C GASLIMIT DIFFICULTY 0xDD CALLCODE MSTORE 0xAD SHL 0xE2 0xC8 SWAP12 PUSH10 0xC2B068FC378DAA952BA7 CALL PUSH4 0xC4A11628 CREATE2 GAS 0x4D CREATE2 0x23 0xB3 0xEF MSTORE GASLIMIT POP COINBASE MSIZE 0x5F TIMESTAMP 0x4F MSTORE MSTORE 0x4F JUMPI 0x5F 0x4E GASLIMIT JUMPI 0x5F SLOAD 0x4F SLOAD COINBASE 0x4C 0x5F TIMESTAMP COINBASE 0x4C COINBASE 0x4E NUMBER GASLIMIT 0x5F NUMBER COINBASE 0x4C NUMBER SSTORE 0x4C COINBASE SLOAD 0x49 0x4F 0x4E 0x5F CHAINID COINBASE 0x49 0x4C GASLIMIT DIFFICULTY 0x4C 0x49 MLOAD SSTORE 0x49 DIFFICULTY COINBASE SLOAD GASLIMIT 0x5F DIFFICULTY COINBASE 0x4E 0x4B SLOAD MSTORE 0x4F 0x4C 0x4C GASLIMIT MSTORE 0x5F NUMBER COINBASE 0x4C NUMBER SSTORE 0x4C COINBASE SLOAD GASLIMIT 0x5F COINBASE 0x4D 0x4F SSTORE 0x4E SLOAD 0x5F MSTORE8 GASLIMIT 0x49 GAS GASLIMIT 0x5F CHAINID COINBASE 0x49 0x4C GASLIMIT DIFFICULTY PUSH6 0x786368616E67 PUSH6 0x526174655374 PUSH16 0x7265643A2065786368616E6765526174 PUSH6 0x53746F726564 0x49 PUSH15 0x7465726E616C206661696C65644D49 0x4E SLOAD 0x5F 0x4E GASLIMIT JUMPI 0x5F SLOAD 0x4F SLOAD COINBASE 0x4C 0x5F MSTORE8 SSTORE POP POP 0x4C MSIZE 0x5F NUMBER COINBASE 0x4C NUMBER SSTORE 0x4C COINBASE SLOAD 0x49 0x4F 0x4E 0x5F CHAINID COINBASE 0x49 0x4C GASLIMIT DIFFICULTY PUSH16 0x6E65206F662072656465656D546F6B65 PUSH15 0x73496E206F722072656465656D416D PUSH16 0x756E74496E206D757374206265207A65 PUSH19 0x6F72656475636520726573657276657320756E PUSH6 0x787065637465 PUSH5 0x20756E6465 PUSH19 0x666C6F77A265627A7A72315820783BEFB7BDEE 0xD1 0xD6 0xC3 0xB9 SHR 0xC7 0x2C 0xB8 0xEC DUP13 0x5D 0xD2 PUSH5 0x80EB555791 SHR 0xAB PUSH5 0x5F20C5B669 PUSH5 0x736F6C6343 STOP SDIV GT STOP ORIGIN PUSH16 0x6E6C792061646D696E206D617920696E PUSH10 0x7469616C697A65207468 PUSH6 0x206D61726B65 PUSH21 0x6D61726B6574206D6179206F6E6C7920626520696E PUSH10 0x7469616C697A6564206F PUSH15 0x6365696E697469616C206578636861 PUSH15 0x67652072617465206D757374206265 KECCAK256 PUSH8 0x7265617465722074 PUSH9 0x616E207A65726F2E73 PUSH6 0x7474696E6720 PUSH10 0x6E746572657374207261 PUSH21 0x65206D6F64656C206661696C656400000000000000 "
		},
		"gasEstimates": {
			"creation": {
				"codeDepositCost": "3976200",
				"executionCost": "infinite",
				"totalCost": "infinite"
			},
			"external": {
				"_acceptAdmin()": "46401",
				"_addReserves(uint256)": "infinite",
				"_reduceReserves(uint256)": "infinite",
				"_setDanktroller(address)": "infinite",
				"_setInterestRateModel(address)": "infinite",
				"_setPendingAdmin(address)": "23509",
				"_setReserveFactor(uint256)": "infinite",
				"accrualBlockNumber()": "1065",
				"accrueInterest()": "infinite",
				"admin()": "1136",
				"allowance(address,address)": "1383",
				"approve(address,uint256)": "22364",
				"balanceOf(address)": "1275",
				"balanceOfUnderlying(address)": "infinite",
				"borrow(uint256)": "infinite",
				"borrowBalanceCurrent(address)": "infinite",
				"borrowBalanceStored(address)": "infinite",
				"borrowIndex()": "1087",
				"borrowRatePerBlock()": "infinite",
				"danktroller()": "1192",
				"decimals()": "1059",
				"exchangeRateCurrent()": "infinite",
				"exchangeRateStored()": "infinite",
				"getAccountSnapshot(address)": "4251",
				"getCash()": "infinite",
				"initialize(address,address,address,uint256,string,string,uint8)": "infinite",
				"initialize(address,address,uint256,string,string,uint8)": "infinite",
				"interestRateModel()": "1148",
				"isDToken()": "272",
				"liquidateBorrow(address,uint256,address)": "infinite",
				"mint(uint256)": "infinite",
				"name()": "infinite",
				"pendingAdmin()": "1193",
				"redeem(uint256)": "infinite",
				"redeemUnderlying(uint256)": "infinite",
				"repayBorrow(uint256)": "infinite",
				"repayBorrowBehalf(address,uint256)": "infinite",
				"reserveFactorMantissa()": "1111",
				"seize(address,address,uint256)": "infinite",
				"supplyRatePerBlock()": "infinite",
				"sweepToken(address)": "infinite",
				"symbol()": "infinite",
				"totalBorrows()": "1154",
				"totalBorrowsCurrent()": "infinite",
				"totalReserves()": "1066",
				"totalSupply()": "1155",
				"transfer(address,uint256)": "infinite",
				"transferFrom(address,address,uint256)": "infinite",
				"underlying()": "1126"
			}
		},
		"methodIdentifiers": {
			"_acceptAdmin()": "e9c714f2",
			"_addReserves(uint256)": "3e941010",
			"_reduceReserves(uint256)": "601a0bf1",
			"_setDanktroller(address)": "6fbd7823",
			"_setInterestRateModel(address)": "f2b3abbd",
			"_setPendingAdmin(address)": "b71d1a0c",
			"_setReserveFactor(uint256)": "fca7820b",
			"accrualBlockNumber()": "6c540baf",
			"accrueInterest()": "a6afed95",
			"admin()": "f851a440",
			"allowance(address,address)": "dd62ed3e",
			"approve(address,uint256)": "095ea7b3",
			"balanceOf(address)": "70a08231",
			"balanceOfUnderlying(address)": "3af9e669",
			"borrow(uint256)": "c5ebeaec",
			"borrowBalanceCurrent(address)": "17bfdfbc",
			"borrowBalanceStored(address)": "95dd9193",
			"borrowIndex()": "aa5af0fd",
			"borrowRatePerBlock()": "f8f9da28",
			"danktroller()": "e8b29a90",
			"decimals()": "313ce567",
			"exchangeRateCurrent()": "bd6d894d",
			"exchangeRateStored()": "182df0f5",
			"getAccountSnapshot(address)": "c37f68e2",
			"getCash()": "3b1d21a2",
			"initialize(address,address,address,uint256,string,string,uint8)": "1a31d465",
			"initialize(address,address,uint256,string,string,uint8)": "99d8c1b4",
			"interestRateModel()": "f3fdb15a",
			"isDToken()": "3ac4202f",
			"liquidateBorrow(address,uint256,address)": "f5e3c462",
			"mint(uint256)": "a0712d68",
			"name()": "06fdde03",
			"pendingAdmin()": "26782247",
			"redeem(uint256)": "db006a75",
			"redeemUnderlying(uint256)": "852a12e3",
			"repayBorrow(uint256)": "0e752702",
			"repayBorrowBehalf(address,uint256)": "2608f818",
			"reserveFactorMantissa()": "173b9904",
			"seize(address,address,uint256)": "b2a02ff1",
			"supplyRatePerBlock()": "ae9d70b0",
			"sweepToken(address)": "1be19560",
			"symbol()": "95d89b41",
			"totalBorrows()": "47bd3718",
			"totalBorrowsCurrent()": "73acee98",
			"totalReserves()": "8f840ddd",
			"totalSupply()": "18160ddd",
			"transfer(address,uint256)": "a9059cbb",
			"transferFrom(address,address,uint256)": "23b872dd",
			"underlying()": "6f307dc3"
		}
	},
	"abi": [
		{
			"inputs": [
				{
					"internalType": "address",
					"name": "underlying_",
					"type": "address"
				},
				{
					"internalType": "contract DanktrollerInterface",
					"name": "danktroller_",
					"type": "address"
				},
				{
					"internalType": "contract InterestRateModel",
					"name": "interestRateModel_",
					"type": "address"
				},
				{
					"internalType": "uint256",
					"name": "initialExchangeRateMantissa_",
					"type": "uint256"
				},
				{
					"internalType": "string",
					"name": "name_",
					"type": "string"
				},
				{
					"internalType": "string",
					"name": "symbol_",
					"type": "string"
				},
				{
					"internalType": "uint8",
					"name": "decimals_",
					"type": "uint8"
				},
				{
					"internalType": "address payable",
					"name": "admin_",
					"type": "address"
				}
			],
			"payable": false,
			"stateMutability": "nonpayable",
			"type": "constructor"
		},
		{
			"anonymous": false,
			"inputs": [
				{
					"indexed": false,
					"internalType": "uint256",
					"name": "cashPrior",
					"type": "uint256"
				},
				{
					"indexed": false,
					"internalType": "uint256",
					"name": "interestAccumulated",
					"type": "uint256"
				},
				{
					"indexed": false,
					"internalType": "uint256",
					"name": "borrowIndex",
					"type": "uint256"
				},
				{
					"indexed": false,
					"internalType": "uint256",
					"name": "totalBorrows",
					"type": "uint256"
				}
			],
			"name": "AccrueInterest",
			"type": "event"
		},
		{
			"anonymous": false,
			"inputs": [
				{
					"indexed": true,
					"internalType": "address",
					"name": "owner",
					"type": "address"
				},
				{
					"indexed": true,
					"internalType": "address",
					"name": "spender",
					"type": "address"
				},
				{
					"indexed": false,
					"internalType": "uint256",
					"name": "amount",
					"type": "uint256"
				}
			],
			"name": "Approval",
			"type": "event"
		},
		{
			"anonymous": false,
			"inputs": [
				{
					"indexed": false,
					"internalType": "address",
					"name": "borrower",
					"type": "address"
				},
				{
					"indexed": false,
					"internalType": "uint256",
					"name": "borrowAmount",
					"type": "uint256"
				},
				{
					"indexed": false,
					"internalType": "uint256",
					"name": "accountBorrows",
					"type": "uint256"
				},
				{
					"indexed": false,
					"internalType": "uint256",
					"name": "totalBorrows",
					"type": "uint256"
				}
			],
			"name": "Borrow",
			"type": "event"
		},
		{
			"anonymous": false,
			"inputs": [
				{
					"indexed": false,
					"internalType": "uint256",
					"name": "error",
					"type": "uint256"
				},
				{
					"indexed": false,
					"internalType": "uint256",
					"name": "info",
					"type": "uint256"
				},
				{
					"indexed": false,
					"internalType": "uint256",
					"name": "detail",
					"type": "uint256"
				}
			],
			"name": "Failure",
			"type": "event"
		},
		{
			"anonymous": false,
			"inputs": [
				{
					"indexed": false,
					"internalType": "address",
					"name": "liquidator",
					"type": "address"
				},
				{
					"indexed": false,
					"internalType": "address",
					"name": "borrower",
					"type": "address"
				},
				{
					"indexed": false,
					"internalType": "uint256",
					"name": "repayAmount",
					"type": "uint256"
				},
				{
					"indexed": false,
					"internalType": "address",
					"name": "dTokenCollateral",
					"type": "address"
				},
				{
					"indexed": false,
					"internalType": "uint256",
					"name": "seizeTokens",
					"type": "uint256"
				}
			],
			"name": "LiquidateBorrow",
			"type": "event"
		},
		{
			"anonymous": false,
			"inputs": [
				{
					"indexed": false,
					"internalType": "address",
					"name": "minter",
					"type": "address"
				},
				{
					"indexed": false,
					"internalType": "uint256",
					"name": "mintAmount",
					"type": "uint256"
				},
				{
					"indexed": false,
					"internalType": "uint256",
					"name": "mintTokens",
					"type": "uint256"
				}
			],
			"name": "Mint",
			"type": "event"
		},
		{
			"anonymous": false,
			"inputs": [
				{
					"indexed": false,
					"internalType": "address",
					"name": "oldAdmin",
					"type": "address"
				},
				{
					"indexed": false,
					"internalType": "address",
					"name": "newAdmin",
					"type": "address"
				}
			],
			"name": "NewAdmin",
			"type": "event"
		},
		{
			"anonymous": false,
			"inputs": [
				{
					"indexed": false,
					"internalType": "contract DanktrollerInterface",
					"name": "oldDanktroller",
					"type": "address"
				},
				{
					"indexed": false,
					"internalType": "contract DanktrollerInterface",
					"name": "newDanktroller",
					"type": "address"
				}
			],
			"name": "NewDanktroller",
			"type": "event"
		},
		{
			"anonymous": false,
			"inputs": [
				{
					"indexed": false,
					"internalType": "contract InterestRateModel",
					"name": "oldInterestRateModel",
					"type": "address"
				},
				{
					"indexed": false,
					"internalType": "contract InterestRateModel",
					"name": "newInterestRateModel",
					"type": "address"
				}
			],
			"name": "NewMarketInterestRateModel",
			"type": "event"
		},
		{
			"anonymous": false,
			"inputs": [
				{
					"indexed": false,
					"internalType": "address",
					"name": "oldPendingAdmin",
					"type": "address"
				},
				{
					"indexed": false,
					"internalType": "address",
					"name": "newPendingAdmin",
					"type": "address"
				}
			],
			"name": "NewPendingAdmin",
			"type": "event"
		},
		{
			"anonymous": false,
			"inputs": [
				{
					"indexed": false,
					"internalType": "uint256",
					"name": "oldReserveFactorMantissa",
					"type": "uint256"
				},
				{
					"indexed": false,
					"internalType": "uint256",
					"name": "newReserveFactorMantissa",
					"type": "uint256"
				}
			],
			"name": "NewReserveFactor",
			"type": "event"
		},
		{
			"anonymous": false,
			"inputs": [
				{
					"indexed": false,
					"internalType": "address",
					"name": "redeemer",
					"type": "address"
				},
				{
					"indexed": false,
					"internalType": "uint256",
					"name": "redeemAmount",
					"type": "uint256"
				},
				{
					"indexed": false,
					"internalType": "uint256",
					"name": "redeemTokens",
					"type": "uint256"
				}
			],
			"name": "Redeem",
			"type": "event"
		},
		{
			"anonymous": false,
			"inputs": [
				{
					"indexed": false,
					"internalType": "address",
					"name": "payer",
					"type": "address"
				},
				{
					"indexed": false,
					"internalType": "address",
					"name": "borrower",
					"type": "address"
				},
				{
					"indexed": false,
					"internalType": "uint256",
					"name": "repayAmount",
					"type": "uint256"
				},
				{
					"indexed": false,
					"internalType": "uint256",
					"name": "accountBorrows",
					"type": "uint256"
				},
				{
					"indexed": false,
					"internalType": "uint256",
					"name": "totalBorrows",
					"type": "uint256"
				}
			],
			"name": "RepayBorrow",
			"type": "event"
		},
		{
			"anonymous": false,
			"inputs": [
				{
					"indexed": false,
					"internalType": "address",
					"name": "benefactor",
					"type": "address"
				},
				{
					"indexed": false,
					"internalType": "uint256",
					"name": "addAmount",
					"type": "uint256"
				},
				{
					"indexed": false,
					"internalType": "uint256",
					"name": "newTotalReserves",
					"type": "uint256"
				}
			],
			"name": "ReservesAdded",
			"type": "event"
		},
		{
			"anonymous": false,
			"inputs": [
				{
					"indexed": false,
					"internalType": "address",
					"name": "admin",
					"type": "address"
				},
				{
					"indexed": false,
					"internalType": "uint256",
					"name": "reduceAmount",
					"type": "uint256"
				},
				{
					"indexed": false,
					"internalType": "uint256",
					"name": "newTotalReserves",
					"type": "uint256"
				}
			],
			"name": "ReservesReduced",
			"type": "event"
		},
		{
			"anonymous": false,
			"inputs": [
				{
					"indexed": true,
					"internalType": "address",
					"name": "from",
					"type": "address"
				},
				{
					"indexed": true,
					"internalType": "address",
					"name": "to",
					"type": "address"
				},
				{
					"indexed": false,
					"internalType": "uint256",
					"name": "amount",
					"type": "uint256"
				}
			],
			"name": "Transfer",
			"type": "event"
		},
		{
			"constant": false,
			"inputs": [],
			"name": "_acceptAdmin",
			"outputs": [
				{
					"internalType": "uint256",
					"name": "",
					"type": "uint256"
				}
			],
			"payable": false,
			"stateMutability": "nonpayable",
			"type": "function"
		},
		{
			"constant": false,
			"inputs": [
				{
					"internalType": "uint256",
					"name": "addAmount",
					"type": "uint256"
				}
			],
			"name": "_addReserves",
			"outputs": [
				{
					"internalType": "uint256",
					"name": "",
					"type": "uint256"
				}
			],
			"payable": false,
			"stateMutability": "nonpayable",
			"type": "function"
		},
		{
			"constant": false,
			"inputs": [
				{
					"internalType": "uint256",
					"name": "reduceAmount",
					"type": "uint256"
				}
			],
			"name": "_reduceReserves",
			"outputs": [
				{
					"internalType": "uint256",
					"name": "",
					"type": "uint256"
				}
			],
			"payable": false,
			"stateMutability": "nonpayable",
			"type": "function"
		},
		{
			"constant": false,
			"inputs": [
				{
					"internalType": "contract DanktrollerInterface",
					"name": "newDanktroller",
					"type": "address"
				}
			],
			"name": "_setDanktroller",
			"outputs": [
				{
					"internalType": "uint256",
					"name": "",
					"type": "uint256"
				}
			],
			"payable": false,
			"stateMutability": "nonpayable",
			"type": "function"
		},
		{
			"constant": false,
			"inputs": [
				{
					"internalType": "contract InterestRateModel",
					"name": "newInterestRateModel",
					"type": "address"
				}
			],
			"name": "_setInterestRateModel",
			"outputs": [
				{
					"internalType": "uint256",
					"name": "",
					"type": "uint256"
				}
			],
			"payable": false,
			"stateMutability": "nonpayable",
			"type": "function"
		},
		{
			"constant": false,
			"inputs": [
				{
					"internalType": "address payable",
					"name": "newPendingAdmin",
					"type": "address"
				}
			],
			"name": "_setPendingAdmin",
			"outputs": [
				{
					"internalType": "uint256",
					"name": "",
					"type": "uint256"
				}
			],
			"payable": false,
			"stateMutability": "nonpayable",
			"type": "function"
		},
		{
			"constant": false,
			"inputs": [
				{
					"internalType": "uint256",
					"name": "newReserveFactorMantissa",
					"type": "uint256"
				}
			],
			"name": "_setReserveFactor",
			"outputs": [
				{
					"internalType": "uint256",
					"name": "",
					"type": "uint256"
				}
			],
			"payable": false,
			"stateMutability": "nonpayable",
			"type": "function"
		},
		{
			"constant": true,
			"inputs": [],
			"name": "accrualBlockNumber",
			"outputs": [
				{
					"internalType": "uint256",
					"name": "",
					"type": "uint256"
				}
			],
			"payable": false,
			"stateMutability": "view",
			"type": "function"
		},
		{
			"constant": false,
			"inputs": [],
			"name": "accrueInterest",
			"outputs": [
				{
					"internalType": "uint256",
					"name": "",
					"type": "uint256"
				}
			],
			"payable": false,
			"stateMutability": "nonpayable",
			"type": "function"
		},
		{
			"constant": true,
			"inputs": [],
			"name": "admin",
			"outputs": [
				{
					"internalType": "address payable",
					"name": "",
					"type": "address"
				}
			],
			"payable": false,
			"stateMutability": "view",
			"type": "function"
		},
		{
			"constant": true,
			"inputs": [
				{
					"internalType": "address",
					"name": "owner",
					"type": "address"
				},
				{
					"internalType": "address",
					"name": "spender",
					"type": "address"
				}
			],
			"name": "allowance",
			"outputs": [
				{
					"internalType": "uint256",
					"name": "",
					"type": "uint256"
				}
			],
			"payable": false,
			"stateMutability": "view",
			"type": "function"
		},
		{
			"constant": false,
			"inputs": [
				{
					"internalType": "address",
					"name": "spender",
					"type": "address"
				},
				{
					"internalType": "uint256",
					"name": "amount",
					"type": "uint256"
				}
			],
			"name": "approve",
			"outputs": [
				{
					"internalType": "bool",
					"name": "",
					"type": "bool"
				}
			],
			"payable": false,
			"stateMutability": "nonpayable",
			"type": "function"
		},
		{
			"constant": true,
			"inputs": [
				{
					"internalType": "address",
					"name": "owner",
					"type": "address"
				}
			],
			"name": "balanceOf",
			"outputs": [
				{
					"internalType": "uint256",
					"name": "",
					"type": "uint256"
				}
			],
			"payable": false,
			"stateMutability": "view",
			"type": "function"
		},
		{
			"constant": false,
			"inputs": [
				{
					"internalType": "address",
					"name": "owner",
					"type": "address"
				}
			],
			"name": "balanceOfUnderlying",
			"outputs": [
				{
					"internalType": "uint256",
					"name": "",
					"type": "uint256"
				}
			],
			"payable": false,
			"stateMutability": "nonpayable",
			"type": "function"
		},
		{
			"constant": false,
			"inputs": [
				{
					"internalType": "uint256",
					"name": "borrowAmount",
					"type": "uint256"
				}
			],
			"name": "borrow",
			"outputs": [
				{
					"internalType": "uint256",
					"name": "",
					"type": "uint256"
				}
			],
			"payable": false,
			"stateMutability": "nonpayable",
			"type": "function"
		},
		{
			"constant": false,
			"inputs": [
				{
					"internalType": "address",
					"name": "account",
					"type": "address"
				}
			],
			"name": "borrowBalanceCurrent",
			"outputs": [
				{
					"internalType": "uint256",
					"name": "",
					"type": "uint256"
				}
			],
			"payable": false,
			"stateMutability": "nonpayable",
			"type": "function"
		},
		{
			"constant": true,
			"inputs": [
				{
					"internalType": "address",
					"name": "account",
					"type": "address"
				}
			],
			"name": "borrowBalanceStored",
			"outputs": [
				{
					"internalType": "uint256",
					"name": "",
					"type": "uint256"
				}
			],
			"payable": false,
			"stateMutability": "view",
			"type": "function"
		},
		{
			"constant": true,
			"inputs": [],
			"name": "borrowIndex",
			"outputs": [
				{
					"internalType": "uint256",
					"name": "",
					"type": "uint256"
				}
			],
			"payable": false,
			"stateMutability": "view",
			"type": "function"
		},
		{
			"constant": true,
			"inputs": [],
			"name": "borrowRatePerBlock",
			"outputs": [
				{
					"internalType": "uint256",
					"name": "",
					"type": "uint256"
				}
			],
			"payable": false,
			"stateMutability": "view",
			"type": "function"
		},
		{
			"constant": true,
			"inputs": [],
			"name": "danktroller",
			"outputs": [
				{
					"internalType": "contract DanktrollerInterface",
					"name": "",
					"type": "address"
				}
			],
			"payable": false,
			"stateMutability": "view",
			"type": "function"
		},
		{
			"constant": true,
			"inputs": [],
			"name": "decimals",
			"outputs": [
				{
					"internalType": "uint8",
					"name": "",
					"type": "uint8"
				}
			],
			"payable": false,
			"stateMutability": "view",
			"type": "function"
		},
		{
			"constant": false,
			"inputs": [],
			"name": "exchangeRateCurrent",
			"outputs": [
				{
					"internalType": "uint256",
					"name": "",
					"type": "uint256"
				}
			],
			"payable": false,
			"stateMutability": "nonpayable",
			"type": "function"
		},
		{
			"constant": true,
			"inputs": [],
			"name": "exchangeRateStored",
			"outputs": [
				{
					"internalType": "uint256",
					"name": "",
					"type": "uint256"
				}
			],
			"payable": false,
			"stateMutability": "view",
			"type": "function"
		},
		{
			"constant": true,
			"inputs": [
				{
					"internalType": "address",
					"name": "account",
					"type": "address"
				}
			],
			"name": "getAccountSnapshot",
			"outputs": [
				{
					"internalType": "uint256",
					"name": "",
					"type": "uint256"
				},
				{
					"internalType": "uint256",
					"name": "",
					"type": "uint256"
				},
				{
					"internalType": "uint256",
					"name": "",
					"type": "uint256"
				},
				{
					"internalType": "uint256",
					"name": "",
					"type": "uint256"
				}
			],
			"payable": false,
			"stateMutability": "view",
			"type": "function"
		},
		{
			"constant": true,
			"inputs": [],
			"name": "getCash",
			"outputs": [
				{
					"internalType": "uint256",
					"name": "",
					"type": "uint256"
				}
			],
			"payable": false,
			"stateMutability": "view",
			"type": "function"
		},
		{
			"constant": false,
			"inputs": [
				{
					"internalType": "address",
					"name": "underlying_",
					"type": "address"
				},
				{
					"internalType": "contract DanktrollerInterface",
					"name": "danktroller_",
					"type": "address"
				},
				{
					"internalType": "contract InterestRateModel",
					"name": "interestRateModel_",
					"type": "address"
				},
				{
					"internalType": "uint256",
					"name": "initialExchangeRateMantissa_",
					"type": "uint256"
				},
				{
					"internalType": "string",
					"name": "name_",
					"type": "string"
				},
				{
					"internalType": "string",
					"name": "symbol_",
					"type": "string"
				},
				{
					"internalType": "uint8",
					"name": "decimals_",
					"type": "uint8"
				}
			],
			"name": "initialize",
			"outputs": [],
			"payable": false,
			"stateMutability": "nonpayable",
			"type": "function"
		},
		{
			"constant": false,
			"inputs": [
				{
					"internalType": "contract DanktrollerInterface",
					"name": "danktroller_",
					"type": "address"
				},
				{
					"internalType": "contract InterestRateModel",
					"name": "interestRateModel_",
					"type": "address"
				},
				{
					"internalType": "uint256",
					"name": "initialExchangeRateMantissa_",
					"type": "uint256"
				},
				{
					"internalType": "string",
					"name": "name_",
					"type": "string"
				},
				{
					"internalType": "string",
					"name": "symbol_",
					"type": "string"
				},
				{
					"internalType": "uint8",
					"name": "decimals_",
					"type": "uint8"
				}
			],
			"name": "initialize",
			"outputs": [],
			"payable": false,
			"stateMutability": "nonpayable",
			"type": "function"
		},
		{
			"constant": true,
			"inputs": [],
			"name": "interestRateModel",
			"outputs": [
				{
					"internalType": "contract InterestRateModel",
					"name": "",
					"type": "address"
				}
			],
			"payable": false,
			"stateMutability": "view",
			"type": "function"
		},
		{
			"constant": true,
			"inputs": [],
			"name": "isDToken",
			"outputs": [
				{
					"internalType": "bool",
					"name": "",
					"type": "bool"
				}
			],
			"payable": false,
			"stateMutability": "view",
			"type": "function"
		},
		{
			"constant": false,
			"inputs": [
				{
					"internalType": "address",
					"name": "borrower",
					"type": "address"
				},
				{
					"internalType": "uint256",
					"name": "repayAmount",
					"type": "uint256"
				},
				{
					"internalType": "contract DTokenInterface",
					"name": "dTokenCollateral",
					"type": "address"
				}
			],
			"name": "liquidateBorrow",
			"outputs": [
				{
					"internalType": "uint256",
					"name": "",
					"type": "uint256"
				}
			],
			"payable": false,
			"stateMutability": "nonpayable",
			"type": "function"
		},
		{
			"constant": false,
			"inputs": [
				{
					"internalType": "uint256",
					"name": "mintAmount",
					"type": "uint256"
				}
			],
			"name": "mint",
			"outputs": [
				{
					"internalType": "uint256",
					"name": "",
					"type": "uint256"
				}
			],
			"payable": false,
			"stateMutability": "nonpayable",
			"type": "function"
		},
		{
			"constant": true,
			"inputs": [],
			"name": "name",
			"outputs": [
				{
					"internalType": "string",
					"name": "",
					"type": "string"
				}
			],
			"payable": false,
			"stateMutability": "view",
			"type": "function"
		},
		{
			"constant": true,
			"inputs": [],
			"name": "pendingAdmin",
			"outputs": [
				{
					"internalType": "address payable",
					"name": "",
					"type": "address"
				}
			],
			"payable": false,
			"stateMutability": "view",
			"type": "function"
		},
		{
			"constant": false,
			"inputs": [
				{
					"internalType": "uint256",
					"name": "redeemTokens",
					"type": "uint256"
				}
			],
			"name": "redeem",
			"outputs": [
				{
					"internalType": "uint256",
					"name": "",
					"type": "uint256"
				}
			],
			"payable": false,
			"stateMutability": "nonpayable",
			"type": "function"
		},
		{
			"constant": false,
			"inputs": [
				{
					"internalType": "uint256",
					"name": "redeemAmount",
					"type": "uint256"
				}
			],
			"name": "redeemUnderlying",
			"outputs": [
				{
					"internalType": "uint256",
					"name": "",
					"type": "uint256"
				}
			],
			"payable": false,
			"stateMutability": "nonpayable",
			"type": "function"
		},
		{
			"constant": false,
			"inputs": [
				{
					"internalType": "uint256",
					"name": "repayAmount",
					"type": "uint256"
				}
			],
			"name": "repayBorrow",
			"outputs": [
				{
					"internalType": "uint256",
					"name": "",
					"type": "uint256"
				}
			],
			"payable": false,
			"stateMutability": "nonpayable",
			"type": "function"
		},
		{
			"constant": false,
			"inputs": [
				{
					"internalType": "address",
					"name": "borrower",
					"type": "address"
				},
				{
					"internalType": "uint256",
					"name": "repayAmount",
					"type": "uint256"
				}
			],
			"name": "repayBorrowBehalf",
			"outputs": [
				{
					"internalType": "uint256",
					"name": "",
					"type": "uint256"
				}
			],
			"payable": false,
			"stateMutability": "nonpayable",
			"type": "function"
		},
		{
			"constant": true,
			"inputs": [],
			"name": "reserveFactorMantissa",
			"outputs": [
				{
					"internalType": "uint256",
					"name": "",
					"type": "uint256"
				}
			],
			"payable": false,
			"stateMutability": "view",
			"type": "function"
		},
		{
			"constant": false,
			"inputs": [
				{
					"internalType": "address",
					"name": "liquidator",
					"type": "address"
				},
				{
					"internalType": "address",
					"name": "borrower",
					"type": "address"
				},
				{
					"internalType": "uint256",
					"name": "seizeTokens",
					"type": "uint256"
				}
			],
			"name": "seize",
			"outputs": [
				{
					"internalType": "uint256",
					"name": "",
					"type": "uint256"
				}
			],
			"payable": false,
			"stateMutability": "nonpayable",
			"type": "function"
		},
		{
			"constant": true,
			"inputs": [],
			"name": "supplyRatePerBlock",
			"outputs": [
				{
					"internalType": "uint256",
					"name": "",
					"type": "uint256"
				}
			],
			"payable": false,
			"stateMutability": "view",
			"type": "function"
		},
		{
			"constant": false,
			"inputs": [
				{
					"internalType": "contract EIP20NonStandardInterface",
					"name": "token",
					"type": "address"
				}
			],
			"name": "sweepToken",
			"outputs": [],
			"payable": false,
			"stateMutability": "nonpayable",
			"type": "function"
		},
		{
			"constant": true,
			"inputs": [],
			"name": "symbol",
			"outputs": [
				{
					"internalType": "string",
					"name": "",
					"type": "string"
				}
			],
			"payable": false,
			"stateMutability": "view",
			"type": "function"
		},
		{
			"constant": true,
			"inputs": [],
			"name": "totalBorrows",
			"outputs": [
				{
					"internalType": "uint256",
					"name": "",
					"type": "uint256"
				}
			],
			"payable": false,
			"stateMutability": "view",
			"type": "function"
		},
		{
			"constant": false,
			"inputs": [],
			"name": "totalBorrowsCurrent",
			"outputs": [
				{
					"internalType": "uint256",
					"name": "",
					"type": "uint256"
				}
			],
			"payable": false,
			"stateMutability": "nonpayable",
			"type": "function"
		},
		{
			"constant": true,
			"inputs": [],
			"name": "totalReserves",
			"outputs": [
				{
					"internalType": "uint256",
					"name": "",
					"type": "uint256"
				}
			],
			"payable": false,
			"stateMutability": "view",
			"type": "function"
		},
		{
			"constant": true,
			"inputs": [],
			"name": "totalSupply",
			"outputs": [
				{
					"internalType": "uint256",
					"name": "",
					"type": "uint256"
				}
			],
			"payable": false,
			"stateMutability": "view",
			"type": "function"
		},
		{
			"constant": false,
			"inputs": [
				{
					"internalType": "address",
					"name": "dst",
					"type": "address"
				},
				{
					"internalType": "uint256",
					"name": "amount",
					"type": "uint256"
				}
			],
			"name": "transfer",
			"outputs": [
				{
					"internalType": "bool",
					"name": "",
					"type": "bool"
				}
			],
			"payable": false,
			"stateMutability": "nonpayable",
			"type": "function"
		},
		{
			"constant": false,
			"inputs": [
				{
					"internalType": "address",
					"name": "src",
					"type": "address"
				},
				{
					"internalType": "address",
					"name": "dst",
					"type": "address"
				},
				{
					"internalType": "uint256",
					"name": "amount",
					"type": "uint256"
				}
			],
			"name": "transferFrom",
			"outputs": [
				{
					"internalType": "bool",
					"name": "",
					"type": "bool"
				}
			],
			"payable": false,
			"stateMutability": "nonpayable",
			"type": "function"
		},
		{
			"constant": true,
			"inputs": [],
			"name": "underlying",
			"outputs": [
				{
					"internalType": "address",
					"name": "",
					"type": "address"
				}
			],
			"payable": false,
			"stateMutability": "view",
			"type": "function"
		}
	]
}